00COTAHIST.2024BOVESPA 20240812                                                                                                                                                                                                                      
012024081202HAGA3       010HAGA S/A    ON           R$  000000000023300000000002610000000000233000000000025300000000002570000000000247000000000025700095000000000000034300000000000008686100000000000000009999123100000010000000000000BRHAGAACNOR7103
012024081202HAGA4       010HAGA S/A    PN           R$  000000000012000000000001300000000000120000000000012600000000001210000000000121000000000012500077000000000000098800000000000012518500000000000000009999123100000010000000000000BRHAGAACNPR4103
012024081202HAPV3       010HAPVIDA     ON      NM   R$  000000000044500000000004520000000000428000000000043800000000004300000000000429000000000043032244000000000060976500000000026729618800000000000000009999123100000010000000000000BRHAPVACNOR4114
012024081202ATOM3       010ATOMPAR     ON           R$  000000000019600000000002010000000000195000000000019900000000002000000000000196000000000020000040000000000000017800000000000003553400000000000000009999123100000010000000000000BRATOMACNOR1106
012024081202LJQQ3       010QUERO-QUERO ON      NM   R$  000000000044100000000004560000000000432000000000044700000000004560000000000455000000000045608332000000000003055600000000001368893500000000000000009999123100000010000000000000BRLJQQACNOR5104
012024081202LOGG3       010LOG COM PROPON      NM   R$  000000000236000000000023950000000002347000000000236900000000023670000000002366000000000237901418000000000000178800000000000423658700000000000000009999123100000010000000000000BRLOGGACNOR7107
012024081202LOGN3       010LOG-IN      ON      NM   R$  000000000354900000000036320000000003520000000000358700000000036200000000003541000000000362000117000000000000015500000000000055607700000000000000009999123100000010000000000000BRLOGNACNOR3105
012024081202LPSB3       010LOPES BRASILON      NM   R$  000000000018000000000001820000000000178000000000018000000000001790000000000179000000000018100107000000000000032800000000000005919600000000000000009999123100000010000000000000BRLPSBACNOR0114
012024081202LREN3       010LOJAS RENNERON      NM   R$  000000000156000000000015910000000001530000000000156700000000015720000000001572000000000157528337000000000023281700000000036493344800000000000000009999123100000010000000000000BRLRENACNOR1221
012024081202MRVE3       010MRV         ON      NM   R$  000000000072500000000007320000000000715000000000072200000000007180000000000718000000000072012404000000000009115300000000006583111300000000000000009999123100000010000000000000BRMRVEACNOR2127
012024081202SYNE3       010SYN PROP TECON      NM   R$  000000000104900000000010680000000001040000000000105400000000010500000000001050000000000105900963000000000000364300000000000384064400000000000000009999123100000010000000000000BRSYNEACNOR2102
012024081202MRFG3       010MARFRIG     ON      NM   R$  000000000122600000000012570000000001214000000000123200000000012170000000001217000000000122010765000000000004238000000000005222127200000000000000009999123100000010000000000000BRMRFGACNOR0116
012024081202ROMI3       010ROMI        ON      NM   R$  000000000107900000000010870000000001077000000000108100000000010780000000001078000000000108100556000000000000081900000000000088574100000000000000009999123100000010000000000000BRROMIACNOR8195
012024081202RPAD5       010ALFA HOLDINGPNA          R$  000000000085600000000008560000000000856000000000085600000000008560000000000855000000000090000001000000000000000100000000000000085600000000000000009999123100000010000000000000BRRPADACNPA4218
012024081202RRRP3       0103R PETROLEUMON      NM   R$  000000000295200000000030000000000002950000000000298300000000030000000000002994000000000300017162000000000005907000000000017624006900000000000000009999123100000010000000000000BRRRRPACNOR5103
012024081202WEST3       010WESTWING    ON      NM   R$  000000000009100000000000970000000000089000000000009300000000000940000000000093000000000009400084000000000000054200000000000005066700000000000000009999123100000010000000000000BRWESTACNOR3100
012024081202GEPA3       010GER PARANAP ON           R$  000000000255100000000025510000000002501000000000253700000000025010000000002501000000000264800003000000000000000800000000000002030300000000000000009999123100000010000000000000BRGEPAACNOR2153
012024081202GEPA4       010GER PARANAP PN           R$  000000000264900000000026490000000002647000000000264700000000026470000000002611000000000264600004000000000000000400000000000001059000000000000000009999123100000010000000000000BRGEPAACNPR9160
012024081202GFSA3       010GAFISA      ON  ES  NM   R$  000000000031300000000003190000000000306000000000031200000000003060000000000305000000000030902343000000000002901400000000000907094200000000000000009999123100000010000000000000BRGFSAACNOR3125
012024081202GGBR3       010GERDAU      ON  ED  N1   R$  000000000157300000000015840000000001562000000000157400000000015620000000001562000000000157500212000000000000035200000000000055412800000000000000009999123100000010000000000000BRGGBRACNOR1193
012024081202GGBR4       010GERDAU      PN  ED  N1   R$  000000000175300000000017720000000001752000000000176100000000017600000000001760000000000176118872000000000011337900000000019970196400000000000000009999123100000010000000000000BRGGBRACNPR8193
012024081202ALPA3       010ALPARGATAS  ON      N1   R$  000000000082000000000008200000000000786000000000079600000000007860000000000786000000000080800026000000000000006000000000000004779500000000000000009999123100000010000000000000BRALPAACNOR0231
012024081202ALPA4       010ALPARGATAS  PN      N1   R$  000000000084200000000008460000000000822000000000083000000000008220000000000822000000000082506654000000000002489000000000002066421800000000000000009999123100000010000000000000BRALPAACNPR7232
012024081202ALPK3       010ESTAPAR     ON      NM   R$  000000000039300000000003970000000000383000000000038900000000003900000000000387000000000039000370000000000000115200000000000044871800000000000000009999123100000010000000000000BRALPKACNOR9101
012024081202YDUQ3       010YDUQS PART  ON      NM   R$  000000000103800000000010740000000001035000000000105400000000010570000000001056000000000106009341000000000003499800000000003689204600000000000000009999123100000010000000000000BRYDUQACNOR3105
012024081202MILS3       010MILLS       ON      NM   R$  000000000113700000000011370000000001116000000000112400000000011210000000001121000000000112202153000000000000394100000000000443209800000000000000009999123100000010000000000000BRMILSACNOR2127
012024081202TFCO4       010TRACK FIELD PN      N2   R$  000000000120300000000012200000000001194000000000121000000000012200000000001215000000000122000774000000000000166800000000000201890900000000000000009999123100000010000000000000BRTFCOACNPR8114
012024081202TGMA3       010TEGMA       ON  EDJ NM   R$  000000000250100000000025470000000002501000000000252800000000025360000000002528000000000253600646000000000000094800000000000239666200000000000000009999123100000010000000000000BRTGMAACNOR7145
012024081202TIMS3       010TIM         ON      NM   R$  000000000177400000000017810000000001763000000000177000000000017680000000001765000000000177209936000000000003541500000000006270687400000000000000009999123100000010000000000000BRTIMSACNOR5117
012024081202TOTS3       010TOTVS       ON  EJ  NM   R$  000000000299400000000030480000000002950000000000298800000000029500000000002950000000000295522747000000000005761100000000017218389600000000000000009999123100000010000000000000BRTOTSACNOR8145
012024081202VSTE3       010VESTE       ON      NM   R$  000000000138000000000014300000000001379000000000139700000000013930000000001370000000000139400025000000000000003200000000000004472100000000000000009999123100000010000000000000BRVSTEACNOR5103
012024081202MAPT3       010CEMEPE      ON           R$  000000000042100000000004210000000000421000000000042100000000004210000000000421000000000050000004000000000000000400000000000000168400000000000000009999123100000010000000000000BRMAPTACNOR8106
012024081202MATD3       010MATER DEI   ON      NM   R$  000000000046000000000004700000000000454000000000045900000000004540000000000454000000000045601346000000000000390900000000000179719000000000000000009999123100000010000000000000BRMATDACNOR4104
012024081202MBLY3       010MOBLY       ON      NM   R$  000000000030900000000003200000000000290000000000030100000000002970000000000295000000000029700957000000000000861300000000000259459300000000000000009999123100000010000000000000BRMBLYACNOR5100
012024081202CSED3       010CRUZEIRO EDUON      NM   R$  000000000043200000000004380000000000419000000000042500000000004300000000000430000000000043101335000000000001650400000000000702027200000000000000009999123100000010000000000000BRCSEDACNOR9104
012024081202CSMG3       010COPASA      ON      NM   R$  000000000224100000000022430000000002207000000000222700000000022360000000002234000000000223703325000000000000693100000000001544078100000000000000009999123100000010000000000000BRCSMGACNOR5174
012024081202CSNA3       010SID NACIONALON           R$  000000000117300000000011900000000001158000000000117300000000011680000000001168000000000117113369000000000006766300000000007941330300000000000000009999123100000010000000000000BRCSNAACNOR6261
012024081202ELMD3       010ELETROMIDIA ON      NM   R$  000000000185000000000018990000000001850000000000188700000000018880000000001888000000000189700498000000000000094800000000000178970100000000000000009999123100000010000000000000BRELMDACNOR3101
012024081202EMAE4       010EMAE        PN           R$  000000000418900000000042000000000004151000000000418800000000041950000000004112000000000419500011000000000000001300000000000005444800000000000000009999123100000010000000000000BREMAEACNPR1125
012024081202EMBR3       010EMBRAER     ON      NM   R$  000000000432500000000044440000000004263000000000435100000000043500000000004348000000000435125454000000000006368900000000027711621800000000000000009999123100000010000000000000BREMBRACNOR4191
012024081202HBRE3       010HBR REALTY  ON      NM   R$  000000000054400000000005540000000000532000000000054200000000005320000000000532000000000053800948000000000000366500000000000198788800000000000000009999123100000010000000000000BRHBREACNOR4100
012024081202HBSA3       010HIDROVIAS   ON      NM   R$  000000000038000000000003850000000000358000000000037100000000003580000000000358000000000035903678000000000001706300000000000633840400000000000000009999123100000010000000000000BRHBSAACNOR0100
012024081202AZZA3       010AZZAS 2154  ON      NM   R$  000000000540000000000054850000000005302000000000539600000000053480000000005348000000000534905045000000000001412200000000007621629100000000000000009999123100000010000000000000BRAZZAACNOR9100
012024081202BRSR3       010BANRISUL    ON      N1   R$  000000000118500000000012220000000001181000000000120700000000012160000000001199000000000121600031000000000000005900000000000007125700000000000000009999123100000010000000000000BRBRSRACNOR3188
012024081202BRSR5       010BANRISUL    PNA     N1   R$  000000000160000000000016000000000001600000000000160000000000016000000000001500000000000199900001000000000000000100000000000000160000000000000000009999123100000010000000000000BRBRSRACNPA6192
012024081202BRSR6       010BANRISUL    PNB     N1   R$  000000000116000000000011770000000001155000000000116900000000011760000000001175000000000117603764000000000001082300000000001265498200000000000000009999123100000010000000000000BRBRSRACNPB4191
012024081202BLAU3       010BLAU        ON      NM   R$  000000000117900000000011840000000001154000000000116800000000011690000000001168000000000117000917000000000000210600000000000246131000000000000000009999123100000010000000000000BRBLAUACNOR8114
012024081202BMEB3       010MERCANTIL   ON      N1   R$  000000000348900000000034890000000003489000000000348900000000034890000000003302000000000349000001000000000000000100000000000000348900000000000000009999123100000010000000000000BRBMEBACNOR8206
012024081202BMEB4       010MERCANTIL   PN      N1   R$  000000000366000000000036600000000003600000000000362000000000036360000000003602000000000363500075000000000000017500000000000063354200000000000000009999123100000010000000000000BRBMEBACNPR5211
012024081202BMGB4       010BANCO BMG   PN      N1   R$  000000000035400000000003560000000000348000000000035100000000003510000000000351000000000035202205000000000000610500000000000214568700000000000000009999123100000010000000000000BRBMGBACNPR0110
012024081202BMKS3       010BIC MONARK  ON           R$  000000003149900000000320000000000031301000000003148200000000315000000000031300000000003150000016000000000000000044000000000001385241000000000000009999123100000010000000000000BRBMKSACNOR9166
012024081202SRNA3       010SERENA      ON      NM   R$  000000000090000000000009310000000000900000000000091700000000009120000000000911000000000091504408000000000001374300000000001261057500000000000000009999123100000010000000000000BRSRNAACNOR4100
012024081202STBP3       010SANTOS BRP  ON      NM   R$  000000000144400000000014450000000001378000000000139200000000013850000000001385000000000139419469000000000009753300000000013577411100000000000000009999123100000010000000000000BRSTBPACNOR3130
012024081202SUZB3       010SUZANO S.A. ON      NM   R$  000000000545000000000054930000000005381000000000543000000000054390000000005439000000000544027686000000000006660000000000036169854300000000000000009999123100000010000000000000BRSUZBACNOR0130
012024081202VALE3       010VALE        ON  EJ  NM   R$  000000000571000000000057110000000005652000000000567600000000056770000000005676000000000567753443000000000018421500000000104564139600000000000000009999123100000010000000000000BRVALEACNOR0211
012024081202ITUB3       010ITAUUNIBANCOON  EJ  N1   R$  000000000294100000000029950000000002941000000000298400000000029820000000002982000000000298500907000000000000164200000000000490096900000000000000009999123100000010000000000000BRITUBACNOR4339
012024081202ITUB4       010ITAUUNIBANCOPN  EJ  N1   R$  000000000346700000000034820000000003447000000000346400000000034610000000003460000000000346326399000000000020965400000000072637580200000000000000009999123100000010000000000000BRITUBACNPR1339
012024081207NUTR3       010NUTRIPLANT  ON      MA   R$  000000000049200000000005070000000000484000000000049800000000005070000000000487000000000050700057000000000000011300000000000005627700000000000000009999123100000010000000000000BRNUTRACNOR0104
012024081207TXRX3       010TEX RENAUX  ON           R$  000000000094500000000009600000000000945000000000095200000000009600000000000201000000000150000002000000000000000200000000000000190500000000000000009999123100000010000000000000BRTXRXACNOR3142
012024081207TXRX4       010TEX RENAUX  PN           R$  000000000023300000000002390000000000230000000000023600000000002390000000000231000000000023900006000000000000000700000000000000165600000000000000009999123100000010000000000000BRTXRXACNPR0142
012024081208JFEN3       010JOAO FORTES ON           R$  000000000003200000000000330000000000030000000000003100000000000300000000000030000000000003100666000000000002932900000000000091133900000000000000009999123100000010000000000000BRJFENACNOR0059
012024081208ATMP3       010ATMASA      ON           R$  000000000016600000000001660000000000160000000000016300000000001600000000000160000000000016300023000000000000011400000000000001860500000000000000009999123100000010000000000000BRATMPACNOR8100
012024081208LIGT3       010LIGHT S/A   ON      NM   R$  000000000042900000000004400000000000422000000000043000000000004310000000000431000000000043302587000000000000879100000000000378815100000000000000009999123100000010000000000000BRLIGTACNOR2124
012024081208RNEW4       010RENOVA      PN      N2   R$  000000000008200000000000860000000000082000000000008400000000000850000000000084000000000008500090000000000000164200000000000013828900000000000000009999123100000010000000000000BRRNEWACNPR5110
012024081208RPMG3       010PET MANGUINHON           R$  000000000027500000000002830000000000272000000000027800000000002810000000000275000000000028300080000000000000011100000000000003088400000000000000009999123100000010000000000000BRRPMGACNOR9194
012024081208OIBR3       010OI          ON      N1   R$  000000000043600000000004500000000000430000000000044100000000004470000000000443000000000044701025000000000000731600000000000322966600000000000000009999123100000010000000000000BROIBRACNOR1111
012024081208OIBR4       010OI          PN      N1   R$  000000000124400000000012600000000001226000000000123800000000012260000000001226000000000123100032000000000000004800000000000005942900000000000000009999123100000010000000000000BROIBRACNPR8110
012024081208OSXB3       010OSX BRASIL  ON      NM   R$  000000000037000000000003730000000000369000000000037100000000003730000000000371000000000037500013000000000000002100000000000000780200000000000000009999123100000010000000000000BROSXBACNOR8109
012024081208RSID3       010ROSSI RESID ON      NM   R$  000000000036300000000003880000000000358000000000037100000000003880000000000374000000000038800148000000000000030900000000000011492000000000000000009999123100000010000000000000BRRSIDACNOR8120
012024081208PMAM3       010PARANAPANEMAON      NM   R$  000000000022400000000002240000000000212000000000021600000000002160000000000215000000000021800174000000000000099600000000000021519100000000000000009999123100000010000000000000BRPMAMACNOR3039
012024081208SGPS3       010SPRINGS     ON      NM   R$  000000000018200000000001820000000000182000000000018200000000001820000000000182000000000018800016000000000000010300000000000001874600000000000000009999123100000010000000000000BRSGPSACNOR4105
012024081210ZAMP1       010ZAMP S.A.   DIR ORD      R$  000000000000900000000000090000000000008000000000000800000000000080000000000008000000000000900232000000000000301900000000000002562800000000000000009999123100000010000000000000BRZAMPD01OR0100
012024081210GFSA1       010GAFISA      DIR ORD NM   R$  000000000001500000000000150000000000003000000000000400000000000040000000000004000000000000500559000000000005552300000000000024625000000000000000009999123100000010000000000000BRGFSAD11OR7124
012024081212JFLL11      010FII JFL LIV CI  ER       R$  000000000714900000000072000000000007141000000000717600000000071440000000007143000000000719500033000000000000000168000000000001205659000000000000009999123100000010000000000000BRJFLLCTF002142
012024081212ABCP11      010FII ABC IMOBCI  ER       R$  000000000673500000000069970000000006714000000000688700000000069580000000006870000000000695900096000000000000000927000000000006384284000000000000009999123100000010000000000000BRABCPCTF000341
012024081212HGBL11      010FII HGBL    CI  ER       R$  000000000102300000000010230000000001000000000000100200000000010180000000001018000000000101900461000000000000005429000000000005444280000000000000009999123100000010000000000000BRHGBLCTF005107
012024081212HGBS11      010FII HEDGEBS CI  ER       R$  000000002138000000000213980000000021265000000002129500000000212810000000021281000000002130604685000000000000014881000000000316897688000000000000009999123100000010000000000000BRHGBSCTF000312
012024081212HGCR11      010FII HGCR PAXCI  ER       R$  000000001031500000000103490000000010253000000001031100000000103000000000010290000000001030004448000000000000033363000000000344030291000000000000009999123100000010000000000000BRHGCRCTF000248
012024081212HGFF11      010FII HGFF PAXCI  ER       R$  000000000827000000000083810000000008253000000000829600000000083360000000008284000000000833600392000000000000004815000000000039948089000000000000009999123100000010000000000000BRHGFFCTF008162
012024081212HGIC11      010FII HGI CRI CI  ER       R$  000000000932400000000099500000000009064000000000987600000000090640000000009100000000000929600035000000000000000677000000000006686325000000000000009999123100000010000000000000BRHGICCTF009142
012024081212HGLG11      010FII HGLG PAXCI  ER       R$  000000001614000000000161400000000016045000000001608400000000160740000000016072000000001607407391000000000000036906000000000593600305000000000000009999123100000010000000000000BRHGLGCTF004273
012024081212HGPO11      010FII HGPO PAXCI  ER       R$  000000003022800000000303800000000030203000000003027200000000302030000000030203000000003029500968000000000000001559000000000047195448000000000000009999123100000010000000000000BRHGPOCTF009163
012024081212HGRE11      010FII HGRE PAXCI  ER       R$  000000001133000000000114200000000011300000000001133800000000113000000000011300000000001131503363000000000000011315000000000128291325000000000000009999123100000010000000000000BRHGRECTF006294
012024081212HGRU11      010FII HGRU PAXCI  ER       R$  000000001270200000000127200000000012681000000001269100000000126870000000012685000000001268703755000000000000048722000000000618340688000000000000009999123100000010000000000000BRHGRUCTF002179
012024081212HLOG11      010FII HEDGELOGCI  ER       R$  000000000834500000000083450000000008330000000000833700000000083390000000008339000000000834000017000000000000000282000000000002351304000000000000009999123100000010000000000000BRHLOGCTF008158
012024081212HOFC11      010FII HOFFICEICI           R$  000000000285900000000029040000000002859000000000289600000000029040000000002904000000000294000025000000000000000308000000000000892211000000000000009999123100000010000000000000BRHOFCCTF009115
012024081212HOSI11      010FII HOUSI   CI  ER       R$  000000000949900000000095500000000009499000000000951000000000095500000000009461000000000957200010000000000000000073000000000000694288000000000000009999123100000010000000000000BRHOSICTF009147
012024081212HPDP11      010FII HEDGEPDPCI  ER       R$  000000000889000000000088900000000008890000000000889000000000088900000000008710000000000895700001000000000000000002000000000000017780000000000000009999123100000010000000000000BRHPDPCTF003154
012024081212HRDF11      010FII HREALTY CI           R$  000000000030800000000003230000000000308000000000032000000000003230000000000308000000000032300006000000000000000133000000000000042614000000000000009999123100000010000000000000BRHRDFCTF000103
012024081212HREC11      010FII HEDGERECCI  ER       R$  000000000087100000000008710000000000856000000000086100000000008630000000000858000000000086300590000000000000014032000000000012081695000000000000009999123100000010000000000000BRHRECCTF005151
012024081212HRES11      010FII HIRE RESCI           R$  000000001492500000000149250000000014925000000001492500000000149250000000000000000000000000000001000000000000000016000000000000238800000000000000009999123100000010000000000000BRHRESCTF001101
012024081212HSAF11      010FII HSI CRI CI  ER       R$  000000000830200000000083500000000008250000000000831200000000083100000000008310000000000834900401000000000000006584000000000054729573000000000000009999123100000010000000000000BRHSAFCTF004150
012024081212HSLG11      010FII HSI LOG CI  ER       R$  000000000853100000000085960000000008501000000000853300000000085880000000008587000000000858801249000000000000006561000000000055990540000000000000009999123100000010000000000000BRHSLGCTF009144
012024081212HSML11      010FII HSI MALLCI  ER       R$  000000000948800000000095380000000009384000000000941900000000094330000000009433000000000948007684000000000000047161000000000444231073000000000000009999123100000010000000000000BRHSMLCTF007163
012024081212HSRE11      010FII HSIRENDACI  ER       R$  000000000999800000000099980000000009902000000000996200000000099980000000009902000000000999600005000000000000000008000000000000079696000000000000009999123100000010000000000000BRHSRECTF001143
012024081212HTMX11      010FII HOTEL MXCI  ER       R$  000000001780500000000179880000000017805000000001788600000000179880000000017935000000001798800654000000000000002478000000000044323078000000000000009999123100000010000000000000BRHTMXCTF000282
012024081212HUCG11      010FII UNIMED CCI           R$  000000000842300000000084230000000008423000000000842300000000084230000000008398000000000869000001000000000000000001000000000000008423000000000000009999123100000010000000000000BRHUCGCTF004120
012024081212HUSC11      010FII H UNIMEDCI  ER       R$  000000001134800000000113480000000011348000000001134800000000113480000000010880000000001134800002000000000000000002000000000000022696000000000000009999123100000010000000000000BRHUSCCTF009154
012024081212CPOF11      010FII CPOF    CI           R$  000000001085000000000108500000000010850000000001085000000000108500000000010200000000001085000004000000000000553000000000006000050000000000000000009999123100000010000000000000BRCPOFCTF002108
012024081212CPSH11      010FII CPSH    CI           R$  000000000108100000000010810000000001056000000000106000000000010590000000001059000000000106102771000000000000101946000000000108088337000000000000009999123100000010000000000000BRCPSHCTF017115
012024081212CPTS11      010FII CAPI SECCI           R$  000000000081800000000008210000000000814000000000081700000000008190000000000818000000000081922733000000000001135651000000000927923524000000000000009999123100000010000000000000BRCPTSCTF004232
012024081212CRFF11      010FII CX RBRA2CI  ER       R$  000000000789800000000078980000000007898000000000789800000000078980000000007701000000000789800003000000000000000007000000000000055286000000000000009999123100000010000000000000BRCRFFCTF006163
012024081212HAAA11      010FII HEDGEAAACI  ER       R$  000000000355000000000035500000000003451000000000351900000000034510000000003451000000000399000004000000000000000004000000000000014077000000000000009999123100000010000000000000BRHAAACTF003145
012024081212HABT11      010FII HABIT IICI  ER       R$  000000000867200000000087000000000008672000000000868700000000086900000000008690000000000869201395000000000000009713000000000084379763000000000000009999123100000010000000000000BRHABTCTF001162
012024081212ASMT11      010FII ASA MET CI           R$  000000000386200000000038620000000003861000000000386100000000038610000000003621000000000386100005000000000000000014000000000000054055000000000000009999123100000010000000000000BRASMTCTF005107
012024081208AMER3       010AMERICANAS  ON      NM   R$  000000000004600000000000540000000000042000000000004700000000000460000000000046000000000004709412000000000138172000000000006552708600000000000000009999123100000010000000000000BRAMERACNOR6102
012024081202BIOM3       010BIOMM       ON      MA   R$  000000000097900000000010010000000000903000000000094100000000009030000000000902000000000091500459000000000000093300000000000087835400000000000000009999123100000010000000000000BRBIOMACNOR2112
012024081202ANIM3       010ANIMA       ON      NM   R$  000000000038400000000003970000000000380000000000038800000000003950000000000394000000000039608956000000000012332100000000004792016700000000000000009999123100000010000000000000BRANIMACNOR6108
012024081202MGLU3       010MAGAZ LUIZA ON      NM   R$  000000000130500000000013840000000001295000000000133500000000012950000000001295000000000129633957000000000039553100000000052833643400000000000000009999123100000010000000000000BRMGLUACNOR2124
012024081202MGEL4       010MANGELS INDLPN           R$  000000000125000000000012500000000001250000000000125000000000012500000000001209000000000125000002000000000000005100000000000006375000000000000000009999123100000010000000000000BRMGELACNPR3147
012024081202MELK3       010MELNICK     ON      NM   R$  000000000036000000000003700000000000359000000000036500000000003640000000000364000000000036600288000000000000125700000000000045949000000000000000009999123100000010000000000000BRMELKACNOR8111
012024081202MEAL3       010IMC S/A     ON      NM   R$  000000000016000000000001610000000000158000000000015900000000001590000000000158000000000015900230000000000000296900000000000047254000000000000000009999123100000010000000000000BRMEALACNOR9105
012024081202MDNE3       010MOURA DUBEUXON      NM   R$  000000000151000000000015200000000001442000000000146200000000014490000000001449000000000145003072000000000000682600000000000998414400000000000000009999123100000010000000000000BRMDNEACNOR9100
012024081202MDIA3       010M.DIASBRANCOON      NM   R$  000000000286600000000028700000000002744000000000280400000000028450000000002844000000000284611329000000000002235300000000006268792800000000000000009999123100000010000000000000BRMDIAACNOR7135
012024081202GUAR3       010GUARARAPES  ON      NM   R$  000000000082400000000008390000000000812000000000082700000000008380000000000833000000000083804413000000000001370600000000001134820100000000000000009999123100000010000000000000BRGUARACNOR4173
012024081202GRND3       010GRENDENE    ON      NM   R$  000000000061700000000006280000000000610000000000061600000000006100000000000609000000000061002520000000000000994900000000000613696700000000000000009999123100000010000000000000BRGRNDACNOR3174
012024081202ELET6       010ELETROBRAS  PNB     N1   R$  000000000445100000000044510000000004377000000000440500000000044030000000004402000000000440304450000000000001304000000000005744728800000000000000009999123100000010000000000000BRELETACNPB7077
012024081202ELET3       010ELETROBRAS  ON      N1   R$  000000000403500000000040350000000003926000000000395400000000039420000000003942000000000394316967000000000005486900000000021698729900000000000000009999123100000010000000000000BRELETACNOR6160
012024081202VLID3       010VALID       ON  EJ  NM   R$  000000000197000000000020330000000001930000000000198500000000020330000000002026000000000203303870000000000001457000000000002892382400000000000000009999123100000010000000000000BRVLIDACNOR5144
012024081202VIVT3       010TELEF BRASILON           R$  000000000512000000000051440000000005063000000000509400000000050640000000005064000000000507009644000000000001509200000000007688319400000000000000009999123100000010000000000000BRVIVTACNOR0183
012024081202VIVR3       010VIVER       ON      NM   R$  000000000026200000000002670000000000252000000000026300000000002640000000000264000000000026600249000000000000135500000000000035743700000000000000009999123100000010000000000000BRVIVRACNOR4123
012024081202VIVA3       010VIVARA S.A. ON      NM   R$  000000000265400000000026800000000002615000000000263100000000026180000000002617000000000262114035000000000002960700000000007792544800000000000000009999123100000010000000000000BRVIVAACNOR0107
012024081202VITT3       010VITTIA      ON      NM   R$  000000000061000000000006200000000000605000000000061100000000006050000000000605000000000061001080000000000000186700000000000114089500000000000000009999123100000010000000000000BRVITTACNOR4107
012024081202EKTR4       010ELEKTRO     PN           R$  000000000418800000000041880000000004185000000000418600000000041850000000004091000000000423900002000000000000000200000000000000837300000000000000009999123100000010000000000000BREKTRACNPR7164
012024081202CPFE3       010CPFL ENERGIAON      NM   R$  000000000334500000000033450000000003302000000000331500000000033050000000003304000000000332204901000000000000925600000000003068619100000000000000009999123100000010000000000000BRCPFEACNOR0137
012024081202BRKM5       010BRASKEM     PNA     N1   R$  000000000173400000000017520000000001648000000000168000000000016540000000001652000000000165507660000000000003563600000000005987101200000000000000009999123100000010000000000000BRBRKMACNPA4121
012024081202BRKM3       010BRASKEM     ON      N1   R$  000000000178000000000018050000000001718000000000175900000000017550000000001772000000000180000514000000000000073400000000000129180800000000000000009999123100000010000000000000BRBRKMACNOR1119
012024081202BRIT3       010BRISANET    ON      NM   R$  000000000040000000000004100000000000390000000000039700000000003910000000000391000000000039201246000000000000695000000000000276441900000000000000009999123100000010000000000000BRBRITACNOR0103
012024081202HBOR3       010HELBOR      ON      NM   R$  000000000023500000000002380000000000228000000000023100000000002290000000000228000000000022900552000000000000511300000000000118416200000000000000009999123100000010000000000000BRHBORACNOR3118
012024081202USIM5       010USIMINAS    PNA     N1   R$  000000000059900000000006150000000000595000000000060600000000006060000000000605000000000060612733000000000017681200000000010725611400000000000000009999123100000010000000000000BRUSIMACNPA6169
012024081202USIM3       010USIMINAS    ON      N1   R$  000000000058800000000006010000000000588000000000059500000000005920000000000592000000000059700771000000000000288200000000000171732200000000000000009999123100000010000000000000BRUSIMACNOR3167
012024081202UNIP6       010UNIPAR      PNB          R$  000000000500000000000050910000000004974000000000500300000000049990000000004990000000000499901398000000000000273900000000001370583500000000000000009999123100000010000000000000BRUNIPACNPB8206
012024081202UNIP5       010UNIPAR      PNA          R$  000000000496000000000050990000000004950000000000497900000000049700000000004950000000000503000018000000000000006800000000000033857800000000000000009999123100000010000000000000BRUNIPACNPA0208
012024081202AGXY3       010AGROGALAXY  ON      NM   R$  000000000014600000000001700000000000145000000000015600000000001560000000000156000000000015800624000000000000549300000000000085896700000000000000009999123100000010000000000000BRAGXYACNOR4103
012024081202AGRO3       010BRASILAGRO  ON      NM   R$  000000000261200000000026290000000002595000000000260800000000025950000000002595000000000260700995000000000000155800000000000406333500000000000000009999123100000010000000000000BRAGROACNOR7114
012024081202AFLT3       010AFLUENTE T  ON           R$  000000000072300000000007240000000000723000000000072300000000007240000000000713000000000074900002000000000000000200000000000000144700000000000000009999123100000010000000000000BRAFLTACNOR1122
012024081202AESB3       010AES BRASIL  ON      NM   R$  000000000113600000000011390000000001133000000000113500000000011380000000001136000000000113802719000000000002069400000000002349711600000000000000009999123100000010000000000000BRAESBACNOR7106
012024081202AERI3       010AERIS       ON      NM   R$  000000000063100000000007060000000000631000000000068000000000006940000000000693000000000069401103000000000000412200000000000280555800000000000000009999123100000010000000000000BRAERIACNOR4102
012024081202UNIP3       010UNIPAR      ON           R$  000000000498700000000049990000000004949000000000496500000000049500000000004950000000000496600047000000000000007200000000000035753300000000000000009999123100000010000000000000BRUNIPACNOR7206
012024081202SIMH3       010SIMPAR      ON      NM   R$  000000000067000000000007150000000000670000000000069300000000006860000000000686000000000069106189000000000005474500000000003798826300000000000000009999123100000010000000000000BRSIMHACNOR0107
012024081202SHUL4       010SCHULZ      PN           R$  000000000066700000000006670000000000645000000000065200000000006480000000000645000000000064800617000000000000211000000000000137578400000000000000009999123100000010000000000000BRSHULACNPR4156
012024081202SHOW3       010TIME FOR FUNON      NM   R$  000000000013200000000001370000000000131000000000013300000000001310000000000131000000000013200310000000000000242000000000000032196900000000000000009999123100000010000000000000BRSHOWACNOR7105
012024081202SEQL3       010SEQUOIA LOG ON      NM   R$  000000000078200000000009390000000000765000000000088700000000009250000000000924000000000092505435000000000003584800000000003181929500000000000000009999123100000010000000000000BRSEQLACNOR2103
012024081202SEER3       010SER EDUCA   ON      NM   R$  000000000051600000000005340000000000516000000000052800000000005280000000000527000000000052800687000000000000310800000000000164182000000000000000009999123100000010000000000000BRSEERACNOR5119
012024081202BBAS3       010BRASIL      ON      NM   R$  000000000266200000000027120000000002655000000000269400000000027120000000002711000000000271250323000000000015568300000000041956439800000000000000009999123100000010000000000000BRBBASACNOR3324
012024081202BAZA3       010AMAZONIA    ON           R$  000000000979600000000097960000000009400000000000955500000000094000000000009420000000000964900016000000000000002000000000000019111100000000000000009999123100000010000000000000BRBAZAACNOR0179
012024081202BAUH4       010EXCELSIOR   PN           R$  000000000760000000000078890000000007600000000000779200000000078890000000000000000000000789000003000000000000000300000000000002337800000000000000009999123100000010000000000000BRBAUHACNPR3118
012024081202BAHI3       010BAHEMA      ON      MA   R$  000000000065300000000006640000000000650000000000065400000000006500000000000645000000000066400004000000000000000400000000000000261900000000000000009999123100000010000000000000BRBAHIACNOR1074
012024081202ALOS3       010ALLOS       ON      NM   R$  000000000233800000000023380000000002300000000000231200000000023050000000002305000000000230912636000000000003183900000000007361988500000000000000009999123100000010000000000000BRALOSACNOR5101
012024081202ALLD3       010ALLIED      ON      NM   R$  000000000076200000000007620000000000734000000000074200000000007350000000000735000000000073700563000000000000177200000000000131488700000000000000009999123100000010000000000000BRALLDACNOR3106
012024081202SCAR3       010SAO CARLOS  ON      NM   R$  000000000234000000000023780000000002340000000000236700000000023720000000002343000000000237300019000000000000003000000000000007103800000000000000009999123100000010000000000000BRSCARACNOR7131
012024081202RDOR3       010REDE D OR   ON      NM   R$  000000000299700000000030290000000002935000000000297200000000029350000000002935000000000295716217000000000004198700000000012482670700000000000000009999123100000010000000000000BRRDORACNOR8113
012024081202RDNI3       010RNI         ON      NM   R$  000000000030400000000003060000000000304000000000030500000000003060000000000305000000000031100019000000000000008200000000000002506300000000000000009999123100000010000000000000BRRDNIACNOR9116
012024081202RCSL4       010RECRUSUL    PN           R$  000000000009000000000000900000000000086000000000008700000000000870000000000086000000000008700408000000000000398300000000000034769100000000000000009999123100000010000000000000BRRCSLACNPR1134
012024081202RCSL3       010RECRUSUL    ON           R$  000000000030500000000003060000000000294000000000029900000000002940000000000294000000000029800903000000000000289000000000000086453200000000000000009999123100000010000000000000BRRCSLACNOR4134
012024081202POSI3       010POSITIVO TECON      NM   R$  000000000070900000000007500000000000709000000000073400000000007500000000000744000000000075107421000000000002633200000000001934936100000000000000009999123100000010000000000000BRPOSIACNOR9116
012024081202PORT3       010WILSON SONS ON      NM   R$  000000000165400000000016710000000001643000000000165600000000016560000000001656000000000165701133000000000000339400000000000562112900000000000000009999123100000010000000000000BRPORTACNOR8109
012024081202POMO4       010MARCOPOLO   PN      N2   R$  000000000071400000000007390000000000707000000000072600000000007310000000000731000000000073611445000000000007228900000000005250519100000000000000009999123100000010000000000000BRPOMOACNPR7098
012024081202POMO3       010MARCOPOLO   ON      N2   R$  000000000055900000000005740000000000551000000000056700000000005680000000000568000000000057301010000000000000165700000000000094068700000000000000009999123100000010000000000000BRPOMOACNOR0098
012024081202PNVL3       010DIMED       ON      NM   R$  000000000107700000000010880000000001070000000000107600000000010700000000001070000000000107201907000000000000340900000000000367060500000000000000009999123100000010000000000000BRPNVLACNOR9207
012024081202PLPL3       010PLANOEPLANO ON      NM   R$  000000000126700000000012700000000001221000000000124000000000012400000000001240000000000124503253000000000001130000000000001402183500000000000000009999123100000010000000000000BRPLPLACNOR5104
012024081202PLAS3       010PLASCAR PARTON           R$  000000000056000000000005600000000000560000000000056000000000005600000000000513000000000056000001000000000000000100000000000000056000000000000000009999123100000010000000000000BRPLASACNOR2106
012024081202PINE4       010PINE        PN      N2   R$  000000000044000000000004610000000000436000000000045100000000004560000000000455000000000045601396000000000001396800000000000630883200000000000000009999123100000010000000000000BRPINEACNPR8150
012024081202PINE3       010PINE        ON      N2   R$  000000000057000000000005790000000000551000000000056800000000005790000000000565000000000058000003000000000000000700000000000000398000000000000000009999123100000010000000000000BRPINEACNOR1150
012024081202PGMN3       010PAGUE MENOS ON      NM   R$  000000000030300000000003100000000000297000000000030300000000003030000000000299000000000030302279000000000000789500000000000239453600000000000000009999123100000010000000000000BRPGMNACNOR8103
012024081202MOVI3       010MOVIDA      ON      NM   R$  000000000076000000000007710000000000742000000000075600000000007580000000000757000000000075806559000000000003693700000000002793484100000000000000009999123100000010000000000000BRMOVIACNOR0122
012024081202MNPR3       010MINUPAR     ON           R$  000000000137000000000015310000000001331000000000140600000000015310000000001400000000000157700041000000000000007100000000000009984000000000000000009999123100000010000000000000BRMNPRACNOR5122
012024081202MNDL3       010MUNDIAL     ON           R$  000000000141100000000014110000000001400000000000140700000000014000000000001350000000000139900003000000000000000300000000000000422100000000000000009999123100000010000000000000BRMNDLACNOR4109
012024081202MLAS3       010MULTILASER  ON      NM   R$  000000000021500000000002210000000000210000000000021700000000002190000000000219000000000022002431000000000004870100000000001057741100000000000000009999123100000010000000000000BRMLASACNOR9101
012024081202TEND3       010TENDA       ON      NM   R$  000000000133700000000013380000000001276000000000129300000000012860000000001286000000000128707630000000000002831400000000003661969300000000000000009999123100000010000000000000BRTENDACNOR4111
012024081202TELB4       010TELEBRAS    PN           R$  000000000100200000000010020000000000986000000000099000000000009860000000000981000000000098800024000000000000004100000000000004062900000000000000009999123100000010000000000000BRTELBACNPR9140
012024081202TECN3       010TECHNOS     ON      NM   R$  000000000056000000000005610000000000538000000000054600000000005480000000000547000000000054800321000000000000177300000000000096909200000000000000009999123100000010000000000000BRTECNACNOR6109
012024081202TCSA3       010TECNISA     ON      NM   R$  000000000020400000000002100000000000204000000000020700000000002070000000000207000000000020900126000000000000057200000000000011853700000000000000009999123100000010000000000000BRTCSAACNOR3112
012024081202TASA4       010TAURUS ARMASPN      N2   R$  000000000115600000000011920000000001149000000000116900000000011500000000001150000000000115300666000000000000160100000000000187226900000000000000009999123100000010000000000000BRTASAACNPR4104
012024081202TASA3       010TAURUS ARMASON      N2   R$  000000000117600000000012000000000001158000000000117600000000011660000000001158000000000116700078000000000000012700000000000014939700000000000000009999123100000010000000000000BRTASAACNOR7104
012024081202BEEF3       010MINERVA     ON      NM   R$  000000000075600000000007810000000000742000000000076100000000007520000000000752000000000075412883000000000012132300000000009235509800000000000000009999123100000010000000000000BRBEEFACNOR6116
012024081202NTCO3       010GRUPO NATURAON      NM   R$  000000000167200000000016940000000001634000000000165200000000016380000000001635000000000163816222000000000008592100000000014195569700000000000000009999123100000010000000000000BRNTCOACNOR5106
012024081202NORD3       010NORDON MET  ON           R$  000000000069000000000008590000000000690000000000076000000000008490000000000802000000000084900018000000000000003300000000000002510900000000000000009999123100000010000000000000BRNORDACNOR7135
012024081202NINJ3       010GETNINJAS   ON      NM   R$  000000000047200000000004720000000000472000000000047200000000004720000000000467000000000047400002000000000000000200000000000000094400000000000000009999123100000010000000000000BRNINJACNOR5101
012024081202NGRD3       010NEOGRID     ON      NM   R$  000000000011800000000001210000000000118000000000011900000000001200000000000120000000000012100421000000000000278900000000000033300400000000000000009999123100000010000000000000BRNGRDACNOR3104
012024081202RSUL4       010RIOSULENSE  PN           R$  000000000612000000000063780000000006110000000000618400000000062000000000006200000000000629000013000000000000001300000000000008040000000000000000009999123100000010000000000000BRRSULACNPR3114
012024081202QUAL3       010QUALICORP   ON      NM   R$  000000000016200000000001700000000000162000000000016500000000001620000000000161000000000016302725000000000002150400000000000355405000000000000000009999123100000010000000000000BRQUALACNOR6120
012024081202PTNT4       010PETTENATI   PN           R$  000000000063300000000006330000000000600000000000061300000000006000000000000600000000000064000013000000000000002600000000000001596200000000000000009999123100000010000000000000BRPTNTACNPR3047
012024081202PTNT3       010PETTENATI   ON           R$  000000000093500000000009690000000000901000000000093700000000009100000000000810000000000092700017000000000000002800000000000002624100000000000000009999123100000010000000000000BRPTNTACNOR6042
012024081202PTBL3       010PORTOBELLO  ON      NM   R$  000000000050000000000005050000000000468000000000048200000000004780000000000477000000000047802020000000000001164400000000000561953800000000000000009999123100000010000000000000BRPTBLACNOR8132
012024081202PSSA3       010PORTO SEGUROON      NM   R$  000000000310100000000031620000000003082000000000313500000000031500000000003150000000000315106479000000000001326000000000004157345900000000000000009999123100000010000000000000BRPSSAACNOR7155
012024081202PRNR3       010PRINER      ON      NM   R$  000000000107900000000011450000000001077000000000111700000000011400000000001131000000000114101896000000000000396500000000000443281100000000000000009999123100000010000000000000BRPRNRACNOR4109
012024081202NEOE3       010NEOENERGIA  ON      NM   R$  000000000186900000000019130000000001869000000000188800000000018770000000001876000000000188103093000000000001014200000000001914928600000000000000009999123100000010000000000000BRNEOEACNOR3123
012024081202MYPK3       010IOCHP-MAXIONON      NM   R$  000000000118800000000011880000000001125000000000114000000000011250000000001125000000000112804757000000000000974900000000001111811800000000000000009999123100000010000000000000BRMYPKACNOR7155
012024081202MULT3       010MULTIPLAN   ON      N2   R$  000000000265000000000026820000000002624000000000265800000000026520000000002651000000000265221080000000000006424000000000017075019400000000000000009999123100000010000000000000BRMULTACNOR5139
012024081202MTSA4       010METISA      PN           R$  000000000424500000000042490000000004201000000000421000000000042010000000004060000000000425000016000000000000001800000000000007578200000000000000009999123100000010000000000000BRMTSAACNPR9072
012024081202MTRE3       010MITRE REALTYON      NM   R$  000000000040400000000004060000000000393000000000039800000000003940000000000393000000000039402088000000000000854200000000000340130200000000000000009999123100000010000000000000BRMTREACNOR6113
012024081202IRBR3       010IRBBRASIL REON      NM   R$  000000000297000000000030570000000002953000000000301800000000030120000000003009000000000301304828000000000001135800000000003428820500000000000000009999123100000010000000000000BRIRBRACNOR4111
012024081202INTB3       010INTELBRAS   ON  ED  NM   R$  000000000222600000000022640000000002155000000000219900000000021630000000002162000000000216405600000000000001375100000000003023853600000000000000009999123100000010000000000000BRINTBACNOR9112
012024081202INEP4       010INEPAR      PN           R$  000000000019200000000001930000000000186000000000018700000000001920000000000188000000000019200012000000000000004800000000000000902000000000000000009999123100000010000000000000BRINEPACNPR8143
012024081202INEP3       010INEPAR      ON           R$  000000000019400000000001950000000000189000000000019100000000001910000000000189000000000019100030000000000000009500000000000001818000000000000000009999123100000010000000000000BRINEPACNOR1143
012024081202IGTI3       010IGUATEMI S.AON      N1   R$  000000000028500000000002890000000000282000000000028400000000002890000000000283000000000028900140000000000000089700000000000025520400000000000000009999123100000010000000000000BRIGTIACNOR8106
012024081202IGTI11      010IGUATEMI S.AUNT     N1   R$  000000000229900000000022990000000002271000000000228700000000022840000000002283000000000228410367000000000002425000000000005547171600000000000000009999123100000010000000000000BRIGTICDAM16106
012024081202CMIN3       010CSNMINERACAOON      N2   R$  000000000049300000000004980000000000491000000000049400000000004930000000000493000000000049409057000000000007479000000000003696770200000000000000009999123100000010000000000000BRCMINACNOR2111
012024081202BRAP4       010BRADESPAR   PN      N1   R$  000000000180500000000018280000000001801000000000181700000000018170000000001816000000000181706299000000000002366400000000004300459200000000000000009999123100000010000000000000BRBRAPACNPR2148
012024081202BRAP3       010BRADESPAR   ON      N1   R$  000000000173800000000017550000000001736000000000174400000000017450000000001745000000000175500268000000000000044700000000000077991600000000000000009999123100000010000000000000BRBRAPACNOR5148
012024081202TRIS3       010TRISUL      ON      NM   R$  000000000048300000000004900000000000476000000000048000000000004780000000000478000000000047900805000000000000307500000000000147754200000000000000009999123100000010000000000000BRTRISACNOR4118
012024081202TRAD3       010TC          ON      NM   R$  000000000037400000000003790000000000368000000000037200000000003730000000000372000000000037300073000000000000042000000000000015624400000000000000009999123100000010000000000000BRTRADACNOR3102
012024081202TPIS3       010TRIUNFO PARTON      NM   R$  000000000040500000000004790000000000400000000000044700000000004500000000000446000000000045001395000000000000274100000000000122532200000000000000009999123100000010000000000000BRTPISACNOR8118
012024081202SBFG3       010GRUPO SBF   ON      NM   R$  000000000165100000000016560000000001627000000000164000000000016340000000001633000000000164006136000000000001705200000000002796934900000000000000009999123100000010000000000000BRSBFGACNOR1103
012024081202SAPR4       010SANEPAR     PN      N2   R$  000000000058000000000005850000000000576000000000058000000000005800000000000579000000000058002071000000000000924700000000000536711600000000000000009999123100000010000000000000BRSAPRACNPR6159
012024081202SAPR3       010SANEPAR     ON      N2   R$  000000000053300000000005370000000000527000000000053300000000005360000000000534000000000053600542000000000000231500000000000123572300000000000000009999123100000010000000000000BRSAPRACNOR9159
012024081202SAPR11      010SANEPAR     UNT     N2   R$  000000000285800000000028870000000002839000000000286400000000028650000000002863000000000286503044000000000000686500000000001966641000000000000000009999123100000010000000000000BRSAPRCDAM13118
012024081202SANB4       010SANTANDER BRPN           R$  000000000150000000000015300000000001500000000000152000000000015300000000001520000000000153000666000000000000102100000000000155242200000000000000009999123100000010000000000000BRSANBACNPR5172
012024081202SANB3       010SANTANDER BRON           R$  000000000136100000000013810000000001361000000000137500000000013670000000001365000000000137500808000000000000170300000000000234269400000000000000009999123100000010000000000000BRSANBACNOR8172
012024081202SANB11      010SANTANDER BRUNT          R$  000000000288300000000029130000000002874000000000289800000000028960000000002895000000000290507016000000000002052000000000005946908700000000000000009999123100000010000000000000BRSANBCDAM13165
012024081202RAIL3       010RUMO S.A.   ON      NM   R$  000000000237700000000023930000000002286000000000232800000000022960000000002295000000000229828245000000000016722000000000038941801900000000000000009999123100000010000000000000BRRAILACNOR9105
012024081202RADL3       010RAIADROGASILON      NM   R$  000000000295000000000029660000000002843000000000288500000000028900000000002880000000000289019007000000000007732500000000022313623600000000000000009999123100000010000000000000BRRADLACNOR0157
012024081202EQMA3B      010EQTLMARANHAOON      MB   R$  000000000252700000000025490000000002526000000000252600000000025490000000002501000000000254900004000000000000006100000000000015411000000000000000009999123100000010000000000000BREQMAACNOR8108
012024081202EPAR3       010EMBPAR S/A  ON           R$  000000000059200000000005980000000000590000000000059200000000005900000000000590000000000059300042000000000000013700000000000008115000000000000000009999123100000010000000000000BREPARACNOR9105
012024081202ENMT4       010ENERGISA MT PN           R$  000000000740000000000074000000000006900000000000708600000000069000000000005000000000000710000011000000000000001300000000000009212200000000000000009999123100000010000000000000BRENMTACNPR2126
012024081202ENJU3       010ENJOEI      ON      NM   R$  000000000018700000000002040000000000187000000000019600000000002020000000000200000000000020201164000000000001751500000000000344681300000000000000009999123100000010000000000000BRENJUACNOR9100
012024081202ENGI4       010ENERGISA    PN      N2   R$  000000000082500000000008400000000000820000000000083200000000008350000000000835000000000084000178000000000000054900000000000045684600000000000000009999123100000010000000000000BRENGIACNPR7141
012024081202ENGI3       010ENERGISA    ON      N2   R$  000000000141500000000014150000000001340000000000138200000000013400000000001334000000000139100115000000000000013400000000000018528000000000000000009999123100000010000000000000BRENGIACNOR0145
012024081202ENGI11      010ENERGISA    UNT     N2   R$  000000000470900000000047270000000004668000000000470200000000046680000000004664000000000469114927000000000002955700000000013898484400000000000000009999123100000010000000000000BRENGICDAM16135
012024081202ENEV3       010ENEVA       ON      NM   R$  000000000133100000000013390000000001304000000000131500000000013080000000001308000000000131717053000000000007782900000000010240562400000000000000009999123100000010000000000000BRENEVACNOR8106
012024081202CSUD3       010CSU DIGITAL ON      NM   R$  000000000187100000000018870000000001869000000000187700000000018750000000001875000000000187800119000000000000019100000000000035852700000000000000009999123100000010000000000000BRCSUDACNOR5110
012024081202CSRN3       010COSERN      ON           R$  000000000165600000000016560000000001583000000000161600000000015850000000001584000000000162800022000000000000003000000000000004849200000000000000009999123100000010000000000000BRCSRNACNOR0194
012024081202EQPA3       010EQTL PARA   ON           R$  000000000070000000000007070000000000686000000000069400000000006860000000000686000000000069300073000000000000009800000000000006803600000000000000009999123100000010000000000000BREQPAACNOR1111
012024081202KLBN4       010KLABIN S/A  PN  ED  N2   R$  000000000041700000000004200000000000413000000000041500000000004140000000000414000000000041502513000000000001550600000000000644565200000000000000009999123100000010000000000000BRKLBNACNPR9171
012024081202KLBN3       010KLABIN S/A  ON  ED  N2   R$  000000000042000000000004220000000000415000000000041700000000004190000000000418000000000041900736000000000000274900000000000114906400000000000000009999123100000010000000000000BRKLBNACNOR2171
012024081202KLBN11      010KLABIN S/A  UNT ED  N2   R$  000000000209900000000020990000000002063000000000207600000000020710000000002071000000000207210525000000000003748000000000007784303000000000000000009999123100000010000000000000BRKLBNCDAM18143
012024081202CPLE6       010COPEL       PNB     N2   R$  000000000103100000000010320000000001021000000000102800000000010290000000001028000000000103014505000000000012621800000000012975262300000000000000009999123100000010000000000000BRCPLEACNPB9146
012024081202CPLE3       010COPEL       ON      N2   R$  000000000093200000000009330000000000920000000000092700000000009320000000000930000000000093207077000000000003587000000000003326124400000000000000009999123100000010000000000000BRCPLEACNOR8149
012024081202BSLI4       010BRB BANCO   PN           R$  000000000096600000000009660000000000966000000000096600000000009660000000000965000000000100600002000000000000000300000000000000289800000000000000009999123100000010000000000000BRBSLIACNPR2194
012024081202COGN3       010COGNA ON    ON      NM   R$  000000000015300000000001560000000000148000000000015000000000001480000000000148000000000014911742000000000053372000000000008050469300000000000000009999123100000010000000000000BRCOGNACNOR2104
012024081202COCE5       010COELCE      PNA          R$  000000000326000000000032600000000003142000000000317500000000032050000000003200000000000321600050000000000000028900000000000091760500000000000000009999123100000010000000000000BRCOCEACNPA3147
012024081202BRFS3       010BRF SA      ON      NM   R$  000000000222000000000022410000000002182000000000219900000000021850000000002185000000000219711693000000000004517900000000009935393100000000000000009999123100000010000000000000BRBRFSACNOR8122
012024081202VBBR3       010VIBRA       ON      NM   R$  000000000249900000000024990000000002441000000000246800000000024480000000002448000000000245722422000000000006141700000000015159379700000000000000009999123100000010000000000000BRVBBRACNOR1108
012024081202UGPA3       010ULTRAPAR    ON      NM   R$  000000000234500000000023450000000002309000000000232300000000023090000000002309000000000232115801000000000003750000000000008713918400000000000000009999123100000010000000000000BRUGPAACNOR8155
012024081202UCAS3       010UNICASA     ON      NM   R$  000000000022400000000002340000000000223000000000022800000000002290000000000227000000000022900303000000000000047700000000000010906300000000000000009999123100000010000000000000BRUCASACNOR1113
012024081202DASA3       010DASA        ON      NM   R$  000000000030200000000003050000000000287000000000029200000000002870000000000287000000000028801454000000000000701300000000000205443900000000000000009999123100000010000000000000BRDASAACNOR1122
012024081202TUPY3       010TUPY        ON      NM   R$  000000000255900000000025700000000002525000000000254500000000025360000000002535000000000253601572000000000000246200000000000626803600000000000000009999123100000010000000000000BRTUPYACNOR1184
012024081202TTEN3       0103TENTOS     ON      NM   R$  000000000108500000000010850000000001042000000000105600000000010460000000001045000000000105006617000000000001790200000000001891737200000000000000009999123100000010000000000000BRTTENACNOR0103
012024081202SBSP3       010SABESP      ON      NM   R$  000000000979900000000098210000000009599000000000971000000000097160000000009715000000000971820560000000000004125500000000040060633800000000000000009999123100000010000000000000BRSBSPACNOR5161
012024081202RAIZ4       010RAIZEN      PN  ED  N2   R$  000000000032800000000003350000000000328000000000033100000000003310000000000330000000000033118469000000000013465500000000004463448500000000000000009999123100000010000000000000BRRAIZACNPR6111
012024081202PCAR3       010P.ACUCAR-CBDON      NM   R$  000000000031300000000003250000000000311000000000031700000000003170000000000317000000000031812303000000000009577100000000003038532400000000000000009999123100000010000000000000BRPCARACNOR3167
012024081202JSLG3       010JSL         ON      NM   R$  000000000089800000000009250000000000893000000000091100000000009100000000000909000000000091002438000000000000450000000000000409960900000000000000009999123100000010000000000000BRJSLGACNOR2121
012024081202IFCM3       010INFRACOMM   ON      NM   R$  000000000003800000000000390000000000037000000000003700000000000390000000000038000000000003902616000000000006683300000000000253747100000000000000009999123100000010000000000000BRIFCMACNOR8101
012024081202EZTC3       010EZTEC       ON  ED  NM   R$  000000000142000000000014270000000001405000000000141600000000014140000000001414000000000141704096000000000001104700000000001565275700000000000000009999123100000010000000000000BREZTCACNOR0126
012024081202ORVR3       010ORIZON      ON      NM   R$  000000000445800000000046040000000004445000000000452000000000045000000000004499000000000450002512000000000000422400000000001909629800000000000000009999123100000010000000000000BRORVRACNOR0101
012024081202OPCT3       010OCEANPACT   ON      NM   R$  000000000067000000000006880000000000670000000000067700000000006730000000000673000000000067404310000000000000763000000000000517155300000000000000009999123100000010000000000000BROPCTACNOR0100
012024081202ONCO3       010ONCOCLINICASON      NM   R$  000000000063800000000006950000000000633000000000067000000000006880000000000683000000000068806333000000000005945100000000003985744100000000000000009999123100000010000000000000BRONCOACNOR6101
012024081202OFSA3       010OUROFINO S/AON      NM   R$  000000000216100000000022080000000002161000000000219200000000022080000000002101000000000224300012000000000000001200000000000002631200000000000000009999123100000010000000000000BROFSAACNOR7118
012024081202ODPV3       010ODONTOPREV  ON      NM   R$  000000000117000000000011990000000001164000000000118000000000011780000000001178000000000117905187000000000001138700000000001343681800000000000000009999123100000010000000000000BRODPVACNOR4202
012024081202ASAI3       010ASSAI       ON      NM   R$  000000000103300000000010480000000001020000000000102800000000010250000000001025000000000102617993000000000013098600000000013470244600000000000000009999123100000010000000000000BRASAIACNOR0106
012024081202ARML3       010ARMAC       ON      NM   R$  000000000088400000000008860000000000864000000000087300000000008660000000000866000000000086802003000000000000390500000000000341111900000000000000009999123100000010000000000000BRARMLACNOR1112
012024081202APER3       010ALPER S.A.  ON           R$  000000000450500000000046260000000004505000000000461900000000046250000000004625000000000463300063000000000000024600000000000113651100000000000000009999123100000010000000000000BRAPERACNOR9106
012024081202WLMM4       010WLM IND COM PN           R$  000000000313900000000031390000000003139000000000313900000000031390000000002700000000000313800001000000000000000100000000000000313900000000000000009999123100000010000000000000BRWLMMACNPR3118
012024081202WLMM3       010WLM IND COM ON           R$  000000000278300000000027830000000002783000000000278300000000027830000000002000000000000277000003000000000000000300000000000000834900000000000000009999123100000010000000000000BRWLMMACNOR6118
012024081202WIZC3       010WIZ CO      ON      NM   R$  000000000059900000000006050000000000593000000000059900000000006000000000000600000000000060101220000000000000389200000000000233494800000000000000009999123100000010000000000000BRWIZCACNOR5102
012024081202WHRL4       010WHIRLPOOL   PN           R$  000000000044400000000004480000000000444000000000044500000000004450000000000444000000000044500010000000000000001600000000000000713100000000000000009999123100000010000000000000BRWHRLACNPR2128
012024081202WHRL3       010WHIRLPOOL   ON           R$  000000000045700000000004570000000000435000000000043900000000004350000000000428000000000043900015000000000000003200000000000001406800000000000000009999123100000010000000000000BRWHRLACNOR5128
012024081202ZAMP3       010ZAMP S.A.   ON           R$  000000000033800000000003430000000000335000000000033800000000003400000000000337000000000034000665000000000000254500000000000086123400000000000000009999123100000010000000000000BRZAMPACNOR5101
012024081202TAEE4       010TAESA       PN      N2   R$  000000000118200000000011880000000001177000000000118200000000011870000000001187000000000118800691000000000000186200000000000220156400000000000000009999123100000010000000000000BRTAEEACNPR6147
012024081202TAEE3       010TAESA       ON      N2   R$  000000000116900000000011790000000001160000000000116800000000011700000000001170000000000117500523000000000000089700000000000104853800000000000000009999123100000010000000000000BRTAEEACNOR9147
012024081202TAEE11      010TAESA       UNT     N2   R$  000000000354000000000035550000000003518000000000353600000000035380000000003537000000000353806265000000000002403500000000008499491200000000000000009999123100000010000000000000BRTAEECDAM10147
012024081202FRIO3       010METALFRIO   ON      NM   R$  000000001700000000000170000000000016900000000001695000000000169000000000015601000000001950000002000000000000000200000000000003390000000000000000009999123100000010000000000000BRFRIOACNOR2111
012024081202FRAS3       010FRAS-LE     ON      N1   R$  000000000186500000000018790000000001821000000000184100000000018400000000001838000000000184001788000000000000500400000000000921696100000000000000009999123100000010000000000000BRFRASACNOR0160
012024081202DXCO3       010DEXCO       ON      NM   R$  000000000080500000000008090000000000767000000000078000000000007670000000000767000000000076808857000000000003788900000000002956221900000000000000009999123100000010000000000000BRDXCOACNOR8105
012024081202DOTZ3       010DOTZ SA     ON      NM   R$  000000000063100000000006520000000000600000000000061500000000006000000000000595000000000060000086000000000000027600000000000016979300000000000000009999123100000010000000000000BRDOTZACNOR7101
012024081202DMVF3       010D1000VFARMA ON      NM   R$  000000000074200000000007650000000000740000000000075100000000007510000000000751000000000075600339000000000000062100000000000046653600000000000000009999123100000010000000000000BRDMVFACNOR9100
012024081202DIRR3       010DIRECIONAL  ON      NM   R$  000000000290900000000029270000000002849000000000287500000000028800000000002880000000000288306107000000000001095800000000003151422700000000000000009999123100000010000000000000BRDIRRACNOR0118
012024081202DEXP4       010DEXXOS PAR  PN      N1   R$  000000000102000000000010200000000000955000000000096400000000009550000000000950000000000098000129000000000000069100000000000066647500000000000000009999123100000010000000000000BRDEXPACNPR8105
012024081202DEXP3       010DEXXOS PAR  ON      N1   R$  000000000102600000000010360000000000981000000000100400000000009810000000000981000000000099200768000000000000197700000000000198550400000000000000009999123100000010000000000000BRDEXPACNOR1105
012024081202DESK3       010DESKTOP     ON      NM   R$  000000000167500000000016860000000001634000000000164800000000016370000000001637000000000163800651000000000000197400000000000325414900000000000000009999123100000010000000000000BRDESKACNOR2104
012024081202LEVE3       010METAL LEVE  ON      NM   R$  000000000338200000000034040000000003341000000000336400000000033410000000003340000000000335501494000000000000273300000000000919472400000000000000009999123100000010000000000000BRLEVEACNOR2197
012024081202LAVV3       010LAVVI       ON      NM   R$  000000000087700000000008780000000000856000000000086200000000008610000000000860000000000086101814000000000000388700000000000335184900000000000000009999123100000010000000000000BRLAVVACNOR4112
012024081202LAND3       010TERRASANTAPAON      NM   R$  000000000131100000000013450000000001311000000000132700000000013230000000001323000000000133500111000000000000015900000000000021105700000000000000009999123100000010000000000000BRLANDACNOR9103
012024081202ITSA4       010ITAUSA      PN      N1   R$  000000000103800000000010420000000001032000000000103800000000010400000000001039000000000104030213000000000022458100000000023322448200000000000000009999123100000010000000000000BRITSAACNPR7441
012024081202ITSA3       010ITAUSA      ON      N1   R$  000000000103500000000010710000000001034000000000104300000000010430000000001040000000000104400721000000000000353800000000000369119900000000000000009999123100000010000000000000BRITSAACNOR0441
012024081202GOAU4       010GERDAU MET  PN  ED  N1   R$  000000000101800000000010260000000001011000000000101900000000010160000000001016000000000101909624000000000007629600000000007775960300000000000000009999123100000010000000000000BRGOAUACNPR8269
012024081202GOAU3       010GERDAU MET  ON  ED  N1   R$  000000000102500000000010450000000001025000000000103200000000010290000000001028000000000103600257000000000000045700000000000047186000000000000000009999123100000010000000000000BRGOAUACNOR1268
012024081202GMAT3       010GRUPO MATEUSON      NM   R$  000000000079000000000008070000000000783000000000079700000000007970000000000797000000000080008004000000000003438600000000002743219900000000000000009999123100000010000000000000BRGMATACNOR7102
012024081202GGPS3       010GPS         ON      NM   R$  000000000188700000000018870000000001827000000000184300000000018300000000001826000000000183004925000000000001720200000000003170570400000000000000009999123100000010000000000000BRGGPSACNOR9103
012024081202EGIE3       010ENGIE BRASILON      NM   R$  000000000458100000000046100000000004532000000000456700000000045750000000004571000000000457505097000000000000878800000000004013742200000000000000009999123100000010000000000000BREGIEACNOR9126
012024081202KRSA3       010KORA SAUDE  ON      NM   R$  000000000007300000000000740000000000072000000000007300000000000740000000000073000000000007400078000000000000173900000000000012797200000000000000009999123100000010000000000000BRKRSAACNOR0100
012024081202ECOR3       010ECORODOVIAS ON      NM   R$  000000000078500000000007920000000000771000000000077900000000007770000000000774000000000077705355000000000002282400000000001779783700000000000000009999123100000010000000000000BRECORACNOR8120
012024081202EALT4       010ACO ALTONA  PN           R$  000000000160800000000016700000000001300000000000143300000000013380000000001338000000000134000522000000000000131500000000000188503700000000000000009999123100000010000000000000BREALTACNPR1138
012024081202EALT3       010ACO ALTONA  ON           R$  000000000164400000000016440000000001360000000000156300000000013600000000001107000000000148500013000000000000001500000000000002345400000000000000009999123100000010000000000000BREALTACNOR4138
012024081202BRBI11      010BR PARTNERS UNT     N2   R$  000000000152000000000015540000000001510000000000152800000000015250000000001525000000000152701838000000000000297400000000000454716100000000000000009999123100000010000000000000BRBRBICDAM10109
012024081202BOBR4       010BOMBRIL     PN           R$  000000000019600000000002020000000000196000000000019900000000002000000000000199000000000020000020000000000000011000000000000002199300000000000000009999123100000010000000000000BRBOBRACNPR3128
012024081202BMOB3       010BEMOBI TECH ON      NM   R$  000000000155500000000015840000000001537000000000155600000000015500000000001550000000000155801361000000000000234900000000000365736900000000000000009999123100000010000000000000BRBMOBACNOR7103
012024081202FLRY3       010FLEURY      ON      NM   R$  000000000159900000000016030000000001560000000000156800000000015600000000001560000000000156209245000000000005409500000000008484817500000000000000009999123100000010000000000000BRFLRYACNOR5138
012024081202FIQE3       010UNIFIQUE    ON      NM   R$  000000000037900000000003930000000000378000000000038600000000003900000000000389000000000039001914000000000000553700000000000214251100000000000000009999123100000010000000000000BRFIQEACNOR5107
012024081202FHER3       010FER HERINGERON      NM   R$  000000000042900000000004380000000000428000000000043300000000004370000000000437000000000044000016000000000000002200000000000000953700000000000000009999123100000010000000000000BRFHERACNOR5103
012024081202FESA4       010FERBASA     PN      N1   R$  000000000080800000000008230000000000805000000000081200000000008050000000000805000000000080601330000000000000596000000000000484051000000000000000009999123100000010000000000000BRFESAACNPR5084
012024081202CYRE3       010CYRELA REALTON      NM   R$  000000000220000000000022000000000002143000000000216800000000021650000000002163000000000216815669000000000004537200000000009840708600000000000000009999123100000010000000000000BRCYREACNOR7140
012024081202CXSE3       010CAIXA SEGURION  ED  NM   R$  000000000139900000000014190000000001389000000000140500000000014180000000001417000000000141907668000000000002649700000000003723288800000000000000009999123100000010000000000000BRCXSEACNOR7107
012024081202CMIG4       010CEMIG       PN      N1   R$  000000000109200000000011000000000001089000000000109500000000011000000000001099000000000110017043000000000007508100000000008226004800000000000000009999123100000010000000000000BRCMIGACNPR3243
012024081202CMIG3       010CEMIG       ON      N1   R$  000000000125700000000012710000000001256000000000126300000000012700000000001266000000000127000579000000000000136300000000000172247600000000000000009999123100000010000000000000BRCMIGACNOR6242
012024081202CLSC4       010CELESC      PN      N2   R$  000000000751200000000075700000000007423000000000751500000000074310000000007430000000000753000028000000000000004900000000000036826900000000000000009999123100000010000000000000BRCLSCACNPR3131
012024081202CLSC3       010CELESC      ON      N2   R$  000000000705000000000070500000000007000000000000701400000000070500000000006981000000000705000005000000000000000700000000000004910000000000000000009999123100000010000000000000BRCLSCACNOR6152
012024081202CLSA3       010CLEARSALE   ON      NM   R$  000000000077500000000007980000000000775000000000078600000000007900000000000788000000000079002576000000000000736700000000000579532000000000000000009999123100000010000000000000BRCLSAACNOR0100
012024081202CIEL3       010CIELO       ON      NM   R$  000000000057900000000005800000000000578000000000057900000000005800000000000579000000000058004543000000000016927000000000009812283400000000000000009999123100000010000000000000BRCIELACNOR3157
012024081202CGRA4       010GRAZZIOTIN  PN           R$  000000000252800000000025500000000002495000000000251500000000025300000000002530000000000254900074000000000000019800000000000049814200000000000000009999123100000010000000000000BRCGRAACNPR9083
012024081202CGRA3       010GRAZZIOTIN  ON           R$  000000000250300000000025030000000002485000000000249600000000025030000000002489000000000250300023000000000000004800000000000011981900000000000000009999123100000010000000000000BRCGRAACNOR2083
012024081202CGAS5       010COMGAS      PNA          R$  000000001241400000000126000000000012204000000001251000000000125310000000012491000000001256000070000000000000009600000000000120103100000000000000009999123100000010000000000000BRCGASACNPA3160
012024081202CGAS3       010COMGAS      ON           R$  000000001220000000000123600000000012001000000001222100000000120010000000012001000000001210000011000000000000001300000000000015887300000000000000009999123100000010000000000000BRCGASACNOR0163
012024081202CEEB3       010COELBA      ON           R$  000000000388100000000038910000000003881000000000388600000000038910000000003890000000000403500002000000000000000200000000000000777200000000000000009999123100000010000000000000BRCEEBACNOR3199
012024081202CEDO4       010CEDRO       PN      N1   R$  000000000216600000000021660000000002106000000000213000000000021060000000002106000000000215900005000000000000000500000000000001065200000000000000009999123100000010000000000000BRCEDOACNPR5128
012024081202CEDO3       010CEDRO       ON      N1   R$  000000000261000000000026100000000002610000000000261000000000026100000000002610000000000280000001000000000000000100000000000000261000000000000000009999123100000010000000000000BRCEDOACNOR8096
012024081202CEBR6       010CEB         PNB          R$  000000000179700000000018110000000001765000000000179500000000017650000000001765000000000178500049000000000000008000000000000014360700000000000000009999123100000010000000000000BRCEBRACNPB6124
012024081202CEBR5       010CEB         PNA          R$  000000000169900000000017430000000001680000000000170000000000016800000000001680000000000171500009000000000000000900000000000001530400000000000000009999123100000010000000000000BRCEBRACNPA8124
012024081202CEBR3       010CEB         ON           R$  000000000198900000000019910000000001978000000000198200000000019810000000001978000000000198100021000000000000002800000000000005550900000000000000009999123100000010000000000000BRCEBRACNOR5125
012024081202BPAN4       010BANCO PAN   PN      N1   R$  000000000091700000000009480000000000911000000000093200000000009480000000000944000000000094809802000000000002203800000000002054588100000000000000009999123100000010000000000000BRBPANACNPR1115
012024081202BHIA3       010CASAS BAHIA ON      NM   R$  000000000048200000000005650000000000482000000000054100000000005380000000000538000000000053912972000000000013030600000000007050139500000000000000009999123100000010000000000000BRBHIAACNOR1102
012024081202BGIP4       010BANESE      PN           R$  000000000239000000000024000000000002390000000000239900000000023990000000002320000000000240000004000000000000001900000000000004558900000000000000009999123100000010000000000000BRBGIPACNPR8208
012024081202BEES4       010BANESTES    PN  EJ       R$  000000000095100000000009510000000000945000000000094800000000009500000000000935000000000094900010000000000000001600000000000001517200000000000000009999123100000010000000000000BRBEESACNPR6319
012024081202BEES3       010BANESTES    ON  EJ       R$  000000000089100000000008990000000000891000000000089600000000008970000000000895000000000089900080000000000000013400000000000012007800000000000000009999123100000010000000000000BRBEESACNOR9394
012024081202AMBP3       010AMBIPAR     ON      NM   R$  000000001001300000000115300000000009735000000001087200000000109280000000010915000000001093108534000000000002001600000000021763385500000000000000009999123100000010000000000000BRAMBPACNOR6103
012024081202AMAR3       010LOJAS MARISAON      NM   R$  000000000013600000000001390000000000132000000000013500000000001340000000000134000000000013500550000000000000828600000000000112136200000000000000009999123100000010000000000000BRAMARACNOR4115
012024081202ALUP4       010ALUPAR      PN      N2   R$  000000000102100000000010250000000001020000000000102200000000010230000000001020000000000102500050000000000000007400000000000007564100000000000000009999123100000010000000000000BRALUPACNPR5119
012024081202ALUP3       010ALUPAR      ON      N2   R$  000000000109000000000010900000000001072000000000107700000000010720000000001072000000000107600026000000000000002700000000000002908200000000000000009999123100000010000000000000BRALUPACNOR8119
012024081202ALUP11      010ALUPAR      UNT     N2   R$  000000000313300000000031480000000003100000000000311900000000031000000000003098000000000310003246000000000000736400000000002296985300000000000000009999123100000010000000000000BRALUPCDAM15119
012024081202CSAN3       010COSAN       ON      NM   R$  000000000136800000000013740000000001345000000000135500000000013480000000001348000000000134911585000000000006504100000000008815555600000000000000009999123100000010000000000000BRCSANACNOR6126
012024081202CRPG6       010CRISTAL     PNB          R$  000000000290000000000029000000000002900000000000290000000000029000000000002856000000000290000001000000000000000100000000000000290000000000000000009999123100000010000000000000BRCRPGACNPB1119
012024081202CRPG5       010CRISTAL     PNA          R$  000000000293000000000029500000000002911000000000293600000000029220000000002903000000000292200011000000000000001300000000000003817100000000000000009999123100000010000000000000BRCRPGACNPA3119
012024081202CRFB3       010CARREFOUR BRON      NM   R$  000000000098700000000009910000000000957000000000097100000000009590000000000959000000000096321033000000000009927300000000009646769900000000000000009999123100000010000000000000BRCRFBACNOR2116
012024081202JBSS3       010JBS         ON      NM   R$  000000000335000000000033750000000003331000000000334900000000033490000000003341000000000335015840000000000004277900000000014327142000000000000000009999123100000010000000000000BRJBSSACNOR8121
012024081202JALL3       010JALLESMACHADON      NM   R$  000000000070000000000007070000000000678000000000068700000000006830000000000683000000000068701962000000000000731500000000000503220700000000000000009999123100000010000000000000BRJALLACNOR0106
012024081202HYPE3       010HYPERA      ON      NM   R$  000000000296800000000030290000000002940000000000299300000000030080000000003006000000000301013194000000000003448400000000010324124600000000000000009999123100000010000000000000BRHYPEACNOR0143
012024081202ABEV3       010AMBEV S/A   ON           R$  000000000125000000000012550000000001239000000000124400000000012390000000001239000000000124118788000000000017501300000000021781375500000000000000009999123100000010000000000000BRABEVACNOR1128
012024081202ABCB4       010ABC BRASIL  PN      N2   R$  000000000231200000000023210000000002260000000000228300000000022600000000002260000000000227202626000000000000517800000000001182377600000000000000009999123100000010000000000000BRABCBACNPR4146
012024081202AALR3       010ALLIAR      ON      NM   R$  000000000105700000000010590000000001040000000000105200000000010580000000001042000000000105900078000000000000009900000000000010414900000000000000009999123100000010000000000000BRAALRACNOR6102
012024081202JHSF3       010JHSF PART   ON  ED  NM   R$  000000000041800000000004230000000000414000000000041700000000004170000000000416000000000041702427000000000002380900000000000995085600000000000000009999123100000010000000000000BRJHSFACNOR2138
012024081202BBDC4       010BRADESCO    PN  EJ  N1   R$  000000000146200000000014740000000001456000000000146900000000014700000000001469000000000147145680000000000024117200000000035442645900000000000000009999123100000010000000000000BRBBDCACNPR8773
012024081202BBDC3       010BRADESCO    ON  EJ  N1   R$  000000000130600000000013190000000001305000000000131500000000013160000000001315000000000131809958000000000004522000000000005947375300000000000000009999123100000010000000000000BRBBDCACNOR1773
012024081202AZUL4       010AZUL        PN      N2   R$  000000000074900000000007740000000000700000000000072400000000007000000000000700000000000070134505000000000050618200000000036664028400000000000000009999123100000010000000000000BRAZULACNPR4102
012024081202AZEV4       010AZEVEDO     PN           R$  000000000015500000000001580000000000149000000000015200000000001490000000000149000000000015001005000000000002433200000000000370784800000000000000009999123100000010000000000000BRAZEVACNPR7121
012024081202AZEV3       010AZEVEDO     ON           R$  000000000015300000000001580000000000149000000000015200000000001520000000000151000000000015200479000000000000523000000000000079789200000000000000009999123100000010000000000000BRAZEVACNOR0121
012024081202AVLL3       010ALPHAVILLE  ON      NM   R$  000000000041400000000004180000000000409000000000041200000000004090000000000400000000000040900010000000000000002600000000000001072400000000000000009999123100000010000000000000BRAVLLACNOR5103
012024081202AURE3       010AUREN       ON      NM   R$  000000000116000000000011670000000001150000000000115700000000011560000000001156000000000115705996000000000002480800000000002870448700000000000000009999123100000010000000000000BRAUREACNOR9104
012024081210PDGR95      010PDG REALT   DIR     NM   R$  000000000000100000000000010000000000001000000000000100000000000010000000000000000000000000100118000000000000256850000000000000256850000000000000009999123100000010000000000000BRPDGRD03M17100
012024081208RNEW3       010RENOVA      ON      N2   R$  000000000008500000000000850000000000082000000000008300000000000840000000000083000000000008400053000000000000046100000000000003864400000000000000009999123100000010000000000000BRRNEWACNOR8110
012024081208RNEW11      010RENOVA      UNT     N2   R$  000000000025400000000002540000000000249000000000025000000000002530000000000250000000000025300025000000000000007600000000000001906400000000000000009999123100000010000000000000BRRNEWCDAM15110
012024081208CTSA4       010SANTANENSE  PN           R$  000000000013700000000001460000000000137000000000014000000000001380000000000138000000000014000067000000000000051800000000000007264600000000000000009999123100000010000000000000BRCTSAACNPR0062
012024081208CTSA3       010SANTANENSE  ON           R$  000000000029000000000002940000000000284000000000029000000000002940000000000294000000000029700012000000000000002900000000000000842500000000000000009999123100000010000000000000BRCTSAACNOR3062
012024081208CTNM4       010COTEMINAS   PN           R$  000000000009000000000000900000000000090000000000009000000000000900000000000086000000000009000012000000000000010700000000000000963000000000000000009999123100000010000000000000BRCTNMACNPR6129
012024081208NEXP3       010NEXPE       ON           R$  000000000040900000000004180000000000406000000000041100000000004060000000000406000000000041300015000000000000002100000000000000864400000000000000009999123100000010000000000000BRNEXPACNOR0101
012024081202RAPT4       010RANDON PART PN      N1   R$  000000000111000000000011300000000001097000000000110700000000011100000000001110000000000111105343000000000002913300000000003227474200000000000000009999123100000010000000000000BRRAPTACNPR4163
012024081202RAPT3       010RANDON PART ON      N1   R$  000000000092800000000009310000000000908000000000091700000000009090000000000909000000000092500074000000000000016800000000000015407000000000000000009999123100000010000000000000BRRAPTACNOR7163
012024081202RANI3       010IRANI       ON  ED  NM   R$  000000000081500000000008240000000000809000000000081400000000008150000000000814000000000081502743000000000000723000000000000588915500000000000000009999123100000010000000000000BRRANIACNOR5073
012024081202PETZ3       010PETZ        ON      NM   R$  000000000040900000000004190000000000395000000000040700000000003960000000000396000000000039707848000000000010347500000000004212570800000000000000009999123100000010000000000000BRPETZACNOR2110
012024081202PETR4       010PETROBRAS   PN      N2   R$  000000000368000000000037810000000003680000000000374600000000037340000000003734000000000373562851000000000039655100000000148579441800000000000000009999123100000010000000000000BRPETRACNPR6213
012024081202PETR3       010PETROBRAS   ON      N2   R$  000000000398000000000040690000000003977000000000404600000000040460000000004046000000000404812512000000000006756000000000027340316500000000000000009999123100000010000000000000BRPETRACNOR9205
012024081202PDTC3       010PADTEC      ON      NM   R$  000000000018300000000001850000000000182000000000018300000000001830000000000183000000000018400069000000000000028900000000000005300600000000000000009999123100000010000000000000BRPDTCACNOR3101
012024081202PDGR3       010PDG REALT   ON  ES  NM   R$  000000000002000000000000210000000000018000000000001800000000000190000000000019000000000002000959000000000019464100000000000369700000000000000000009999123100000010000000000000BRPDGRACNOR8119
012024081202WEGE3       010WEG         ON  ED  NM   R$  000000000500700000000050770000000004979000000000504500000000050580000000005058000000000505927468000000000008193400000000041338654600000000000000009999123100000010000000000000BRWEGEACNOR0224
012024081202VVEO3       010VIVEO       ON      NM   R$  000000000027100000000002820000000000264000000000027300000000002640000000000264000000000026904546000000000003082800000000000843315100000000000000009999123100000010000000000000BRVVEOACNOR0104
012024081202VULC3       010VULCABRAS   ON      NM   R$  000000000180000000000018240000000001790000000000180200000000017980000000001798000000000180405434000000000001421200000000002561760300000000000000009999123100000010000000000000BRVULCACNOR2159
012024081202VTRU3       010VITRUEDUCA  ON      NM   R$  000000000123000000000012490000000001159000000000118000000000011590000000001156000000000116000424000000000000093800000000000110685900000000000000009999123100000010000000000000BRVTRUACNOR3100
012024081202SLCE3       010SLC AGRICOLAON      NM   R$  000000000184800000000018530000000001807000000000182300000000018090000000001809000000000181404127000000000001122300000000002046544700000000000000009999123100000010000000000000BRSLCEACNOR2125
012024081202RENT3       010LOCALIZA    ON      NM   R$  000000000494900000000049850000000004898000000000494700000000049220000000004917000000000492234441000000000011962400000000059189324100000000000000009999123100000010000000000000BRRENTACNOR4196
012024081202REDE3       010REDE ENERGIAON           R$  000000000068900000000006900000000000685000000000068800000000006870000000000685000000000069000009000000000000002000000000000001377700000000000000009999123100000010000000000000BRREDEACNOR7128
012024081202RECV3       010PETRORECSA  ON      NM   R$  000000000215500000000021880000000002145000000000216600000000021740000000002173000000000217407917000000000001926900000000004174797400000000000000009999123100000010000000000000BRRECVACNOR3107
012024081202PFRM3       010PROFARMA    ON      NM   R$  000000000061500000000006270000000000593000000000060700000000005930000000000592000000000059301139000000000000310100000000000188274900000000000000009999123100000010000000000000BRPFRMACNOR1116
012024081202SOJA3       010BOA SAFRA   ON      NM   R$  000000000139900000000014060000000001357000000000137900000000013580000000001358000000000136703014000000000000668600000000000922075900000000000000009999123100000010000000000000BRSOJAACNOR9105
012024081202SNSY5       010SANSUY      PNA          R$  000000000056000000000006000000000000558000000000056900000000005740000000000574000000000059400029000000000000011500000000000006549400000000000000009999123100000010000000000000BRSNSYACNPA5111
012024081202SMTO3       010SAO MARTINHOON      NM   R$  000000000297000000000030050000000002892000000000292200000000029050000000002897000000000290804043000000000000752100000000002198280600000000000000009999123100000010000000000000BRSMTOACNOR3127
012024081202SMFT3       010SMART FIT   ON      NM   R$  000000000227900000000023040000000002256000000000227500000000022700000000002270000000000228508491000000000002018100000000004592761100000000000000009999123100000010000000000000BRSMFTACNOR1112
012024081202PRIO3       010PETRORIO    ON      NM   R$  000000000480000000000048890000000004771000000000484600000000048600000000004858000000000486723107000000000008751600000000042414088900000000000000009999123100000010000000000000BRPRIOACNOR1107
012024081202CEAB3       010CEA MODAS   ON      NM   R$  000000000086400000000009390000000000857000000000090500000000009300000000000929000000000093007331000000000005036600000000004562158300000000000000009999123100000010000000000000BRCEABACNOR1102
012024081202CCRO3       010CCR SA      ON      NM   R$  000000000133800000000013620000000001316000000000132800000000013250000000001320000000000132508649000000000004291600000000005700049200000000000000009999123100000010000000000000BRCCROACNOR2145
012024081202CBAV3       010CBA         ON      NM   R$  000000000046800000000004850000000000468000000000047900000000004770000000000477000000000047904395000000000002360500000000001132297000000000000000009999123100000010000000000000BRCBAVACNOR5104
012024081202CASH3       010MELIUZ      ON      NM   R$  000000000063800000000006930000000000638000000000067700000000006920000000000690000000000069204989000000000003473100000000002353778600000000000000009999123100000010000000000000BRCASHACNOR8106
012024081202CAML3       010CAMIL       ON      NM   R$  000000000097000000000009840000000000969000000000097600000000009760000000000972000000000097702330000000000000638700000000000623768700000000000000009999123100000010000000000000BRCAMLACNOR3128
012024081202CAMB3       010CAMBUCI     ON           R$  000000000119800000000012090000000001196000000000120200000000012080000000001198000000000120800150000000000000031300000000000037643700000000000000009999123100000010000000000000BRCAMBACNOR4130
012024081202BBSE3       010BBSEGURIDADEON      NM   R$  000000000364000000000036770000000003623000000000366100000000036650000000003663000000000366615757000000000005697100000000020861488400000000000000009999123100000010000000000000BRBBSEACNOR5124
012024081202LWSA3       010LWSA        ON      NM   R$  000000000047300000000004950000000000466000000000047500000000004670000000000467000000000046807967000000000005114400000000002430807100000000000000009999123100000010000000000000BRLWSAACNOR8103
012024081202LVTC3       010WDC NETWORKSON      NM   R$  000000000041200000000004120000000000389000000000039500000000003890000000000389000000000040200057000000000000025800000000000010213800000000000000009999123100000010000000000000BRLVTCACNOR4102
012024081202LUPA3       010LUPATECH    ON      NM   R$  000000000016900000000001700000000000163000000000016500000000001650000000000165000000000016700156000000000000112800000000000018708400000000000000009999123100000010000000000000BRLUPAACNOR8112
012024081202EQTL3       010EQUATORIAL  ON      NM   R$  000000000349700000000034970000000003432000000000345200000000034500000000003450000000000345123333000000000005368100000000018530767100000000000000009999123100000010000000000000BREQTLACNOR0130
012024081202CVCB3       010CVC BRASIL  ON      NM   R$  000000000019200000000001940000000000187000000000019000000000001890000000000188000000000018906884000000000013949400000000002661657300000000000000009999123100000010000000000000BRCVCBACNOR1116
012024081202CURY3       010CURY S/A    ON      NM   R$  000000000236000000000023600000000002309000000000232800000000023330000000002333000000000234503337000000000000684200000000001593159100000000000000009999123100000010000000000000BRCURYACNOR3109
012024081202CTKA4       010KARSTEN     PN           R$  000000000163500000000016350000000001635000000000163500000000016350000000001505000000000160000001000000000000000100000000000000163500000000000000009999123100000010000000000000BRCTKAACNPR7043
012024081202BPAC5       010BTGP BANCO  PNA     N2   R$  000000000089500000000009320000000000880000000000090300000000009050000000000893000000000092900018000000000000002200000000000001988600000000000000009999123100000010000000000000BRBPACACNPA0134
012024081202BPAC3       010BTGP BANCO  ON      N2   R$  000000000168500000000017050000000001662000000000167500000000016660000000001653000000000168600046000000000000006800000000000011396600000000000000009999123100000010000000000000BRBPACACNOR7134
012024081202BPAC11      010BTGP BANCO  UNT     N2   R$  000000000349000000000035290000000003472000000000350600000000035060000000003505000000000350823166000000000009386200000000032917166700000000000000009999123100000010000000000000BRBPACUNT006119
012024081202KEPL3       010KEPLER WEBERON      NM   R$  000000000115700000000011690000000001127000000000115200000000011580000000001158000000000116204611000000000001389500000000001601168900000000000000009999123100000010000000000000BRKEPLACNOR1063
012024081202VAMO3       010VAMOS       ON      NM   R$  000000000085900000000008670000000000829000000000084200000000008350000000000835000000000083611340000000000007192100000000006059849800000000000000009999123100000010000000000000BRVAMOACNOR7105
012024081202TRPL4       010TRAN PAULISTPN      N1   R$  000000000244300000000024660000000002423000000000244000000000024440000000002437000000000244411815000000000003150000000000007688725600000000000000009999123100000010000000000000BRTRPLACNPR1185
012024081202TRPL3       010TRAN PAULISTON      N1   R$  000000000322900000000032300000000003207000000000321900000000032080000000003207000000000323000031000000000000005800000000000018673100000000000000009999123100000010000000000000BRTRPLACNOR4185
012024081202EVEN3       010EVEN        ON      NM   R$  000000000064500000000006570000000000642000000000064800000000006430000000000643000000000064703120000000000000623300000000000404170200000000000000009999123100000010000000000000BREVENACNOR8119
012024081202EUCA4       010EUCATEX     PN      N1   R$  000000000154400000000015580000000001475000000000150700000000015120000000001493000000000151400633000000000000095100000000000143375600000000000000009999123100000010000000000000BREUCAACNPR8044
012024081202ETER3       010ETERNIT     ON  EJ  NM   R$  000000000065100000000007150000000000627000000000067600000000006270000000000627000000000062805588000000000003237600000000002188684000000000000000009999123100000010000000000000BRETERACNOR3244
012024081202ESTR4       010ESTRELA     PN           R$  000000000020800000000002080000000000208000000000020800000000002080000000000207000000000021600001000000000000000100000000000000020800000000000000009999123100000010000000000000BRESTRACNPR0144
012024081202ESPA3       010ESPACOLASER ON      NM   R$  000000000010400000000001040000000000101000000000010200000000001040000000000102000000000010400219000000000000339400000000000034872400000000000000009999123100000010000000000000BRESPAACNOR7103
012024081202B3SA3       010B3          ON      NM   R$  000000000120900000000012290000000001204000000000121900000000012200000000001219000000000122038903000000000043079700000000052523176200000000000000009999123100000010000000000000BRB3SAACNOR6133
012024081212ATSA11      010FII HATRIUM CI           R$  000000000560000000000056000000000005600000000000560000000000056000000000005200000000000553300002000000000000000002000000000000011200000000000000009999123100000010000000000000BRATSACTF000144
012024081212ALZC11      010FII ALIANZACCI           R$  000000000960000000000096000000000009600000000000960000000000096000000000009102000000000960000003000000000000000010000000000000096000000000000000009999123100000010000000000000BRALZCCTF016105
012024081212ALZM11      010FII ALIANZMECI           R$  000000000077800000000007830000000000775000000000078000000000007810000000000781000000000078201402000000000000019239000000000015010388000000000000009999123100000010000000000000BRALZMCTF007124
012024081212ALZR11      010FII ALIANZA CI           R$  000000001079000000000108230000000010770000000001079500000000107700000000010770000000001080002830000000000000020257000000000218687874000000000000009999123100000010000000000000BRALZRCTF006184
012024081212CEOC11      010FII CEO CCP CI  ER       R$  000000000425000000000044220000000004216000000000434200000000043350000000004315000000000433500055000000000000001164000000000005054934000000000000009999123100000010000000000000BRCEOCCTF003217
012024081212CJCT11      010FII CJCTOWERCI  ER       R$  000000000630000000000063000000000006300000000000630000000000063000000000006251000000000631000001000000000000000001000000000000006300000000000000009999123100000010000000000000BRCJCTCTF001117
012024081212CLIN11      010FII CLAVE INCI  ER       R$  000000000942800000000094580000000009397000000000943000000000094050000000009405000000000945001528000000000000009787000000000092297053000000000000009999123100000010000000000000BRCLINCTF007110
012024081212CXAG11      010FII CAIXA AGCI  ER       R$  000000000765100000000076860000000007651000000000767000000000076690000000007662000000000767000115000000000000001260000000000009664223000000000000009999123100000010000000000000BRCXAGCTF003130
012024081212CXCE11      010FII CX CEDAECI  ER       R$  000000000408900000000040890000000004005000000000402500000000040310000000004031000000000406900023000000000000000329000000000001324236000000000000009999123100000010000000000000BRCXCECTF004271
012024081212CXCI11      010FII CAIXA CICI  ER       R$  000000000810100000000082990000000008101000000000823100000000082000000000008201000000000827800030000000000000000470000000000003868987000000000000009999123100000010000000000000BRCXCICTF005129
012024081212CXCO11      010FII CEF CORPCI  ER       R$  000000000723000000000072970000000007150000000000723200000000072550000000007202000000000725200356000000000000003944000000000028526058000000000000009999123100000010000000000000BRCXCOCTF003140
