00COTAHIST.2024BOVESPA 20240820                                                                                                                                                                                                                      
012024082002BGIP3       010BANESE      ON  EJ       R$  000000000269700000000026970000000002679000000000268800000000026790000000002600000000000287900002000000000000000200000000000000537600000000000000009999123100000010000000000000BRBGIPACNOR1209
012024082002BGIP4       010BANESE      PN  EJ       R$  000000000268000000000026800000000002310000000000241900000000024850000000002455000000000248500036000000000000005300000000000012824400000000000000009999123100000010000000000000BRBGIPACNPR8209
012024082002BHIA3       010CASAS BAHIA ON      NM   R$  000000000059300000000006210000000000565000000000059200000000006100000000000610000000000061106370000000000006814600000000004035740600000000000000009999123100000010000000000000BRBHIAACNOR1102
012024082002BPAN4       010BANCO PAN   PN      N1   R$  000000000104000000000010710000000001040000000000106400000000010700000000001067000000000107007502000000000002156900000000002296573900000000000000009999123100000010000000000000BRBPANACNPR1115
012024082002CPLE3       010COPEL       ON      N2   R$  000000000095400000000009600000000000945000000000095200000000009560000000000956000000000095707039000000000004854100000000004623278400000000000000009999123100000010000000000000BRCPLEACNOR8149
012024082002CPLE6       010COPEL       PNB     N2   R$  000000000105500000000010620000000001051000000000105700000000010580000000001057000000000105817790000000000008520600000000009006906400000000000000009999123100000010000000000000BRCPLEACNPB9146
012024082002CMIG3       010CEMIG       ON      N1   R$  000000000139400000000014060000000001388000000000139700000000013990000000001399000000000140000685000000000000128900000000000180133100000000000000009999123100000010000000000000BRCMIGACNOR6242
012024082002CMIG4       010CEMIG       PN      N1   R$  000000000119000000000012030000000001177000000000118900000000011900000000001189000000000119232349000000000018451600000000021941334300000000000000009999123100000010000000000000BRCMIGACNPR3243
012024082002CSRN3       010COSERN      ON           R$  000000000161400000000016140000000001321000000000139900000000014000000000001372000000000140000264000000000000069500000000000097281100000000000000009999123100000010000000000000BRCSRNACNOR0194
012024082002CSRN6       010COSERN      PNB          R$  000000000165000000000016500000000001500000000000154500000000015000000000001500000000000235000011000000000000001100000000000001699700000000000000009999123100000010000000000000BRCSRNACNPB1195
012024082002CSUD3       010CSU DIGITAL ON      NM   R$  000000000187000000000018880000000001835000000000185400000000018460000000001845000000000185600470000000000000085400000000000158384600000000000000009999123100000010000000000000BRCSUDACNOR5110
012024082002CTKA4       010KARSTEN     PN           R$  000000000190000000000019000000000001850000000000187500000000018500000000001776000000000200000002000000000000000200000000000000375000000000000000009999123100000010000000000000BRCTKAACNPR7043
012024082002CURY3       010CURY S/A    ON      NM   R$  000000000235200000000023990000000002351000000000237800000000023810000000002373000000000238105813000000000000967000000000002300286900000000000000009999123100000010000000000000BRCURYACNOR3109
012024082002CVCB3       010CVC BRASIL  ON      NM   R$  000000000021400000000002140000000000201000000000020500000000002040000000000203000000000020408345000000000013570900000000002791524000000000000000009999123100000010000000000000BRCVCBACNOR1116
012024082002CRFB3       010CARREFOUR BRON      NM   R$  000000000097100000000009710000000000934000000000094200000000009340000000000934000000000093615855000000000009321600000000008784406400000000000000009999123100000010000000000000BRCRFBACNOR2116
012024082002CRPG5       010CRISTAL     PNA          R$  000000000287500000000028850000000002864000000000287100000000028640000000002851000000000286400012000000000000002200000000000006316800000000000000009999123100000010000000000000BRCRPGACNPA3119
012024082002CSAN3       010COSAN       ON      NM   R$  000000000139400000000013940000000001375000000000138600000000013870000000001386000000000138918000000000000009380900000000013006540900000000000000009999123100000010000000000000BRCSANACNOR6126
012024082002EALT3       010ACO ALTONA  ON           R$  000000000132600000000014210000000001325000000000137600000000014210000000001390000000000141500008000000000000001700000000000002340600000000000000009999123100000010000000000000BREALTACNOR4138
012024082002EALT4       010ACO ALTONA  PN           R$  000000000132500000000013800000000001156000000000121700000000013140000000001306000000000131401097000000000000514600000000000626288200000000000000009999123100000010000000000000BREALTACNPR1138
012024082002ECOR3       010ECORODOVIAS ON      NM   R$  000000000080400000000008130000000000782000000000079200000000007840000000000783000000000078507109000000000002207300000000001749464500000000000000009999123100000010000000000000BRECORACNOR8120
012024082002EGIE3       010ENGIE BRASILON      NM   R$  000000000466600000000046750000000004629000000000465500000000046530000000004653000000000465605295000000000000884000000000004115179800000000000000009999123100000010000000000000BREGIEACNOR9126
012024082002FRAS3       010FRAS-LE     ON      N1   R$  000000000186800000000018760000000001852000000000186400000000018680000000001857000000000186803755000000000000684500000000001276239000000000000000009999123100000010000000000000BRFRASACNOR0160
012024082002FHER3       010FER HERINGERON      NM   R$  000000000041400000000004150000000000414000000000041400000000004150000000000420000000000042200005000000000000000700000000000000290400000000000000009999123100000010000000000000BRFHERACNOR5103
012024082002FIQE3       010UNIFIQUE    ON      NM   R$  000000000040200000000004070000000000395000000000040200000000004010000000000400000000000040201710000000000000487800000000000196345600000000000000009999123100000010000000000000BRFIQEACNOR5107
012024082002FLRY3       010FLEURY      ON  EJ  NM   R$  000000000158200000000015960000000001566000000000158000000000015840000000001583000000000158613086000000000003870900000000006119008200000000000000009999123100000010000000000000BRFLRYACNOR5139
012024082002AERI3       010AERIS       ON      NM   R$  000000000094000000000009470000000000906000000000092100000000009290000000000926000000000092900806000000000000314200000000000289522400000000000000009999123100000010000000000000BRAERIACNOR4102
012024082002AESB3       010AES BRASIL  ON      NM   R$  000000000114000000000011450000000001140000000000114200000000011420000000001141000000000114302625000000000002220100000000002536543000000000000000009999123100000010000000000000BRAESBACNOR7106
012024082002AFLT3       010AFLUENTE T  ON           R$  000000000071600000000007160000000000716000000000071600000000007160000000000710000000000071600001000000000000000100000000000000071600000000000000009999123100000010000000000000BRAFLTACNOR1122
012024082002AGRO3       010BRASILAGRO  ON      NM   R$  000000000262900000000026310000000002593000000000261400000000026160000000002616000000000262801344000000000000219400000000000573653600000000000000009999123100000010000000000000BRAGROACNOR7114
012024082002AGXY3       010AGROGALAXY  ON      NM   R$  000000000013100000000001310000000000122000000000012600000000001270000000000127000000000012800434000000000000358400000000000045269400000000000000009999123100000010000000000000BRAGXYACNOR4103
012024082002AHEB3       010SPTURIS     ON           R$  000000000310200000000036000000000003102000000000341700000000036000000000003400000000000400000005000000000000000600000000000002050200000000000000009999123100000010000000000000BRAHEBACNOR0106
012024082002AHEB5       010SPTURIS     PNA          R$  000000000350000000000036000000000003500000000000352500000000035000000000002700000000000370000004000000000000000400000000000001410000000000000000009999123100000010000000000000BRAHEBACNPA3106
012024082002AHEB6       010SPTURIS     PNB          R$  000000000355000000000035500000000003550000000000355000000000035500000000003550000000001200000001000000000000000200000000000000710000000000000000009999123100000010000000000000BRAHEBACNPB1106
012024082002ALLD3       010ALLIED      ON      NM   R$  000000000075200000000007710000000000750000000000076300000000007680000000000755000000000076800479000000000000086400000000000065967700000000000000009999123100000010000000000000BRALLDACNOR3106
012024082002ALOS3       010ALLOS       ON      NM   R$  000000000233800000000023460000000002313000000000233100000000023370000000002337000000000233813829000000000003409600000000007948726600000000000000009999123100000010000000000000BRALOSACNOR5101
012024082002BBDC3       010BRADESCO    ON      N1   R$  000000000140800000000014180000000001389000000000140600000000014060000000001404000000000140729026000000000010532800000000014810667100000000000000009999123100000010000000000000BRBBDCACNOR1773
012024082002BLAU3       010BLAU        ON      NM   R$  000000000127400000000013470000000001260000000000130400000000013090000000001305000000000130902800000000000000501900000000000654791600000000000000009999123100000010000000000000BRBLAUACNOR8114
012024082002BMEB3       010MERCANTIL   ON      N1   R$  000000000339000000000033900000000003390000000000339000000000033900000000003400000000000349900001000000000000000100000000000000339000000000000000009999123100000010000000000000BRBMEBACNOR8206
012024082002BMEB4       010MERCANTIL   PN      N1   R$  000000000365900000000037370000000003650000000000368900000000037370000000003717000000000374000085000000000000017100000000000063090000000000000000009999123100000010000000000000BRBMEBACNPR5211
012024082002BMGB4       010BANCO BMG   PN      N1   R$  000000000037300000000003760000000000369000000000037200000000003700000000000369000000000037000850000000000000553800000000000206124900000000000000009999123100000010000000000000BRBMGBACNPR0110
012024082002BMKS3       010BIC MONARK  ON           R$  000000003115100000000319490000000030000000000003093200000000310500000000030501000000003100000026000000000000000071000000000002196220000000000000009999123100000010000000000000BRBMKSACNOR9166
012024082002BMOB3       010BEMOBI TECH ON      NM   R$  000000000158100000000016150000000001581000000000160700000000016130000000001613000000000161501380000000000000185300000000000297944000000000000000009999123100000010000000000000BRBMOBACNOR7103
012024082002BNBR3       010NORD BRASIL ON           R$  000000001040000000000104000000000010400000000001039600000000104000000000009901000000001039000003000000000000000300000000000003119000000000000000009999123100000010000000000000BRBNBRACNOR8208
012024082002BOBR4       010BOMBRIL     PN           R$  000000000021500000000002180000000000212000000000021300000000002160000000000213000000000021600042000000000000021600000000000004612500000000000000009999123100000010000000000000BRBOBRACNPR3128
012024082002PETR3       010PETROBRAS   ON      N2   R$  000000000413100000000041440000000004057000000000410200000000041090000000004108000000000410918559000000000007499700000000030768720900000000000000009999123100000010000000000000BRPETRACNOR9205
012024082002PETR4       010PETROBRAS   PN      N2   R$  000000000385000000000038680000000003789000000000382400000000038290000000003828000000000383052798000000000027322600000000104493042400000000000000009999123100000010000000000000BRPETRACNPR6213
012024082002PFRM3       010PROFARMA    ON      NM   R$  000000000058900000000006150000000000584000000000060100000000006100000000000604000000000061001905000000000000729400000000000438697400000000000000009999123100000010000000000000BRPFRMACNOR1116
012024082002PGMN3       010PAGUE MENOS ON      NM   R$  000000000032700000000003360000000000326000000000033100000000003330000000000332000000000033303143000000000000926400000000000306965700000000000000009999123100000010000000000000BRPGMNACNOR8103
012024082002PINE3       010PINE        ON      N2   R$  000000000056400000000005690000000000546000000000055800000000005690000000000550000000000057000037000000000000013000000000000007259800000000000000009999123100000010000000000000BRPINEACNOR1150
012024082002BRIT3       010BRISANET    ON      NM   R$  000000000038000000000003850000000000370000000000037500000000003700000000000370000000000037101053000000000000522700000000000196239600000000000000009999123100000010000000000000BRBRITACNOR0103
012024082002BRKM3       010BRASKEM     ON      N1   R$  000000000177700000000018340000000001764000000000179100000000017830000000001778000000000180500106000000000000029200000000000052322000000000000000009999123100000010000000000000BRBRKMACNOR1119
012024082002ELMD3       010ELETROMIDIA ON      NM   R$  000000000189000000000019080000000001868000000000189300000000018750000000001873000000000187500510000000000000071800000000000135926300000000000000009999123100000010000000000000BRELMDACNOR3101
012024082002EMAE4       010EMAE        PN           R$  000000000409000000000041990000000004090000000000416300000000041980000000004094000000000419900014000000000000001900000000000007910300000000000000009999123100000010000000000000BREMAEACNPR1125
012024082002EMBR3       010EMBRAER     ON      NM   R$  000000000441500000000044850000000004391000000000444300000000044560000000004455000000000445617458000000000004160000000000018484788200000000000000009999123100000010000000000000BREMBRACNOR4191
012024082002ENEV3       010ENEVA       ON      NM   R$  000000000138600000000013980000000001363000000000137100000000013710000000001371000000000137316167000000000005836400000000008006509500000000000000009999123100000010000000000000BRENEVACNOR8106
012024082002PINE4       010PINE        PN      N2   R$  000000000046000000000004800000000000460000000000047200000000004800000000000480000000000048101079000000000000433700000000000204752600000000000000009999123100000010000000000000BRPINEACNPR8150
012024082002PLAS3       010PLASCAR PARTON           R$  000000000059300000000008500000000000593000000000067300000000007600000000000602000000000070000042000000000000008400000000000005653700000000000000009999123100000010000000000000BRPLASACNOR2106
012024082002PLPL3       010PLANOEPLANO ON      NM   R$  000000000119000000000012260000000001190000000000120700000000012260000000001214000000000122603171000000000000648800000000000783623600000000000000009999123100000010000000000000BRPLPLACNOR5104
012024082002PNVL3       010DIMED       ON      NM   R$  000000000111600000000011160000000001089000000000109800000000010910000000001091000000000109202152000000000000360200000000000395751900000000000000009999123100000010000000000000BRPNVLACNOR9207
012024082002POMO3       010MARCOPOLO   ON      N2   R$  000000000054000000000005500000000000540000000000054600000000005420000000000542000000000054400262000000000000102300000000000055868100000000000000009999123100000010000000000000BRPOMOACNOR0098
012024082002POMO4       010MARCOPOLO   PN      N2   R$  000000000070100000000007130000000000693000000000070200000000006990000000000696000000000070012309000000000007378400000000005180854700000000000000009999123100000010000000000000BRPOMOACNPR7098
012024082002PORT3       010WILSON SONS ON      NM   R$  000000000169600000000017050000000001685000000000169300000000016940000000001694000000000169801522000000000000341000000000000577563400000000000000009999123100000010000000000000BRPORTACNOR8109
012024082002POSI3       010POSITIVO TECON      NM   R$  000000000070000000000007030000000000687000000000069400000000006930000000000693000000000069503992000000000001200900000000000834079600000000000000009999123100000010000000000000BRPOSIACNOR9116
012024082002IFCM3       010INFRACOMM   ON      NM   R$  000000000002000000000000220000000000019000000000002000000000000220000000000021000000000002203482000000000012447500000000000260639300000000000000009999123100000010000000000000BRIFCMACNOR8101
012024082002IGTI11      010IGUATEMI S.AUNT     N1   R$  000000000235900000000023590000000002329000000000234400000000023520000000002349000000000235310562000000000002060900000000004831563200000000000000009999123100000010000000000000BRIGTICDAM16106
012024082002IGTI3       010IGUATEMI S.AON      N1   R$  000000000029000000000002910000000000288000000000029000000000002910000000000290000000000029100049000000000000019100000000000005550200000000000000009999123100000010000000000000BRIGTIACNOR8106
012024082002RRRP3       0103R PETROLEUMON      NM   R$  000000000279300000000028280000000002757000000000279400000000028050000000002801000000000280512735000000000004454700000000012447468300000000000000009999123100000010000000000000BRRRRPACNOR5103
012024082002TRPL4       010TRAN PAULISTPN      N1   R$  000000000250900000000025250000000002486000000000251200000000025240000000002520000000000252509647000000000002079600000000005225301600000000000000009999123100000010000000000000BRTRPLACNPR1185
012024082002TTEN3       0103TENTOS     ON      NM   R$  000000000126900000000012830000000001258000000000127000000000012690000000001265000000000126906906000000000000949000000000001205748800000000000000009999123100000010000000000000BRTTENACNOR0103
012024082002TUPY3       010TUPY        ON      NM   R$  000000000273600000000027880000000002729000000000276200000000027790000000002759000000000277903476000000000000543500000000001501324700000000000000009999123100000010000000000000BRTUPYACNOR1184
012024082002KRSA3       010KORA SAUDE  ON      NM   R$  000000000006000000000000620000000000059000000000006100000000000620000000000061000000000006200105000000000000245800000000000014995300000000000000009999123100000010000000000000BRKRSAACNOR0100
012024082002UCAS3       010UNICASA     ON      NM   R$  000000000022700000000002280000000000225000000000022700000000002270000000000226000000000022700061000000000000020000000000000004540800000000000000009999123100000010000000000000BRUCASACNOR1113
012024082002UGPA3       010ULTRAPAR    ON  ED  NM   R$  000000000239600000000024070000000002361000000000238200000000023610000000002360000000000236122310000000000004889300000000011650460900000000000000009999123100000010000000000000BRUGPAACNOR8156
012024082002LAND3       010TERRASANTAPAON      NM   R$  000000000122000000000012790000000001197000000000124800000000011970000000001197000000000120000396000000000000117700000000000146900600000000000000009999123100000010000000000000BRLANDACNOR9103
012024082002LAVV3       010LAVVI       ON  ED  NM   R$  000000000086800000000008750000000000855000000000086700000000008750000000000866000000000087603804000000000000812600000000000704988100000000000000009999123100000010000000000000BRLAVVACNOR4113
012024082002LEVE3       010METAL LEVE  ON      NM   R$  000000000316700000000031810000000003122000000000313600000000031220000000003122000000000312702754000000000000532300000000001669410600000000000000009999123100000010000000000000BRLEVEACNOR2197
012024082002LJQQ3       010QUERO-QUERO ON      NM   R$  000000000042200000000004230000000000410000000000041500000000004200000000000417000000000042104742000000000002058300000000000856073000000000000000009999123100000010000000000000BRLJQQACNOR5104
012024082002LOGG3       010LOG COM PROPON      NM   R$  000000000240000000000024400000000002380000000000241000000000024170000000002416000000000241902387000000000000306300000000000738393700000000000000009999123100000010000000000000BRLOGGACNOR7107
012024082002LOGN3       010LOG-IN      ON      NM   R$  000000000356300000000038500000000003523000000000363000000000038500000000003707000000000385000136000000000000021200000000000076962900000000000000009999123100000010000000000000BRLOGNACNOR3105
012024082002GEPA4       010GER PARANAP PN           R$  000000000262500000000026250000000002600000000000260800000000026000000000002586000000000264200003000000000000000300000000000000782500000000000000009999123100000010000000000000BRGEPAACNPR9160
012024082002GFSA3       010GAFISA      ON  ES  NM   R$  000000000029200000000002940000000000272000000000028300000000002940000000000293000000000029403299000000000004380400000000001240669700000000000000009999123100000010000000000000BRGFSAACNOR3125
012024082002GGBR3       010GERDAU      ON  ED  N1   R$  000000000158500000000015890000000001556000000000157100000000015800000000001573000000000158000328000000000000082600000000000129767300000000000000009999123100000010000000000000BRGGBRACNOR1193
012024082002GGBR4       010GERDAU      PN  ED  N1   R$  000000000176600000000017750000000001736000000000175900000000017750000000001772000000000177620656000000000009897100000000017411073900000000000000009999123100000010000000000000BRGGBRACNPR8193
012024082002ITUB3       010ITAUUNIBANCOON      N1   R$  000000000320000000000032290000000003177000000000321300000000032290000000003225000000000322901958000000000000527300000000001694396500000000000000009999123100000010000000000000BRITUBACNOR4339
012024082002ITUB4       010ITAUUNIBANCOPN      N1   R$  000000000370000000000037360000000003674000000000371000000000037230000000003722000000000372337867000000000015760400000000058476328300000000000000009999123100000010000000000000BRITUBACNPR1339
012024082002ROMI3       010ROMI        ON      NM   R$  000000000109800000000011170000000001095000000000110600000000011170000000001112000000000111700808000000000000151300000000000167372000000000000000009999123100000010000000000000BRROMIACNOR8195
012024082002TASA3       010TAURUS ARMASON      N2   R$  000000000110400000000011220000000001104000000000111300000000011140000000001112000000000111400080000000000000014600000000000016255300000000000000009999123100000010000000000000BRTASAACNOR7104
012024082002TASA4       010TAURUS ARMASPN      N2   R$  000000000110100000000011190000000001099000000000110400000000011060000000001103000000000110601137000000000000258800000000000285892400000000000000009999123100000010000000000000BRTASAACNPR4104
012024082002TCSA3       010TECNISA     ON      NM   R$  000000000020300000000002090000000000203000000000020600000000002050000000000205000000000020600137000000000000038400000000000007917800000000000000009999123100000010000000000000BRTCSAACNOR3112
012024082002TECN3       010TECHNOS     ON      NM   R$  000000000059100000000005990000000000578000000000059400000000005980000000000593000000000059801376000000000000621500000000000369684200000000000000009999123100000010000000000000BRTECNACNOR6109
012024082002YDUQ3       010YDUQS PART  ON      NM   R$  000000000106100000000010660000000001020000000000103400000000010300000000001030000000000103409613000000000002888400000000002988868300000000000000009999123100000010000000000000BRYDUQACNOR3105
012024082002ZAMP3       010ZAMP S.A.   ON           R$  000000000034600000000003510000000000344000000000034800000000003490000000000345000000000034901825000000000000580600000000000202235100000000000000009999123100000010000000000000BRZAMPACNOR5101
012024082002MTRE3       010MITRE REALTYON      NM   R$  000000000039800000000003990000000000390000000000039400000000003940000000000393000000000039401476000000000000694500000000000274021600000000000000009999123100000010000000000000BRMTREACNOR6113
012024082002MTSA4       010METISA      PN           R$  000000000406500000000042330000000004050000000000417400000000042330000000004075000000000423400031000000000000005300000000000022125100000000000000009999123100000010000000000000BRMTSAACNPR9072
012024082002MULT3       010MULTIPLAN   ON      N2   R$  000000000270500000000027280000000002674000000000270200000000027040000000002693000000000270421793000000000003216900000000008693380800000000000000009999123100000010000000000000BRMULTACNOR5139
012024082002MWET4       010WETZEL S/A  PN           R$  000000000085700000000009300000000000857000000000085800000000009300000000000857000000000093400006000000000000006400000000000005492100000000000000009999123100000010000000000000BRMWETACNPR3118
012024082002MYPK3       010IOCHP-MAXIONON      NM   R$  000000000117500000000011820000000001165000000000117400000000011740000000001174000000000117904428000000000000710400000000000834205900000000000000009999123100000010000000000000BRMYPKACNOR7155
012024082002RANI3       010IRANI       ON      NM   R$  000000000082100000000008260000000000809000000000081400000000008180000000000817000000000081806134000000000001661900000000001353539300000000000000009999123100000010000000000000BRRANIACNOR5073
012024082002RAPT3       010RANDON PART ON      N1   R$  000000000090300000000009200000000000898000000000090300000000009100000000000910000000000091100262000000000000069300000000000062588100000000000000009999123100000010000000000000BRRAPTACNOR7163
012024082002RAPT4       010RANDON PART PN      N1   R$  000000000113600000000011490000000001114000000000113000000000011400000000001140000000000114107674000000000002903000000000003282214700000000000000009999123100000010000000000000BRRAPTACNPR4163
012024082002PATI3       010PANATLANTICAON           R$  000000000318000000000031990000000003100000000000318100000000031990000000003102000000000319900012000000000000002100000000000006680800000000000000009999123100000010000000000000BRPATIACNOR6065
012024082002PATI4       010PANATLANTICAPN           R$  000000000350000000000035000000000003500000000000350000000000035000000000003500000000000410000004000000000000000400000000000001400000000000000000009999123100000010000000000000BRPATIACNPR3065
012024082002PCAR3       010P.ACUCAR-CBDON      NM   R$  000000000033400000000003360000000000323000000000032700000000003270000000000326000000000032710566000000000013549000000000004442828200000000000000009999123100000010000000000000BRPCARACNOR3167
012024082002B3SA3       010B3          ON      NM   R$  000000000127700000000013020000000001276000000000129100000000012900000000001288000000000129047389000000000047554300000000061411739100000000000000009999123100000010000000000000BRB3SAACNOR6133
012024082002NEOE3       010NEOENERGIA  ON      NM   R$  000000000194400000000019440000000001915000000000192500000000019190000000001919000000000192503929000000000000758400000000001460620400000000000000009999123100000010000000000000BRNEOEACNOR3123
012024082002BBSE3       010BBSEGURIDADEON  ED  NM   R$  000000000361000000000036440000000003602000000000361900000000036050000000003605000000000361319985000000000004916800000000017796666000000000000000009999123100000010000000000000BRBBSEACNOR5125
012024082002CMIN3       010CSNMINERACAOON      N2   R$  000000000052700000000005340000000000519000000000052700000000005260000000000526000000000052717553000000000010225800000000005391961600000000000000009999123100000010000000000000BRCMINACNOR2111
012024082002COCE5       010COELCE      PNA          R$  000000000313500000000031470000000003110000000000312500000000031350000000003117000000000313600070000000000000007900000000000024693600000000000000009999123100000010000000000000BRCOCEACNPA3147
012024082002COGN3       010COGNA ON    ON  ATZ NM   R$  000000000014900000000001500000000000142000000000014400000000001420000000000142000000000014326725000000000041508500000000005991327400000000000000009999123100000010000000000000BRCOGNACNOR2105
012024082002CXSE3       010CAIXA SEGURION      NM   R$  000000000147300000000014890000000001465000000000147600000000014750000000001474000000000147509127000000000003200700000000004727130000000000000000009999123100000010000000000000BRCXSEACNOR7107
012024082002CYRE3       010CYRELA REALTON      NM   R$  000000000217900000000022330000000002164000000000220700000000022170000000002217000000000223319456000000000005979700000000013198619200000000000000009999123100000010000000000000BRCYREACNOR7140
012024082002AZEV4       010AZEVEDO     PN           R$  000000000014400000000001480000000000138000000000014100000000001400000000000140000000000014101525000000000003198800000000000451043400000000000000009999123100000010000000000000BRAZEVACNPR7121
012024082002AZUL4       010AZUL        PN      N2   R$  000000000078100000000007830000000000758000000000076700000000007690000000000768000000000076911156000000000014012300000000010753656500000000000000009999123100000010000000000000BRAZULACNPR4102
012024082002AZZA3       010AZZAS 2154  ON      NM   R$  000000000521600000000052520000000005102000000000519100000000052260000000005206000000000522604890000000000001075800000000005584870100000000000000009999123100000010000000000000BRAZZAACNOR9100
012024082002CEAB3       010CEA MODAS   ON      NM   R$  000000000095000000000009680000000000940000000000095600000000009640000000000964000000000096505998000000000001812400000000001733570000000000000000009999123100000010000000000000BRCEABACNOR1102
012024082002CEBR3       010CEB         ON           R$  000000000201300000000020130000000001983000000000199900000000020130000000001989000000000201400021000000000000002200000000000004399500000000000000009999123100000010000000000000BRCEBRACNOR5125
012024082002CEBR5       010CEB         PNA          R$  000000000169900000000017000000000001675000000000168800000000017000000000001665000000000170000014000000000000003300000000000005572700000000000000009999123100000010000000000000BRCEBRACNPA8124
012024082002CEBR6       010CEB         PNB          R$  000000000178200000000017820000000001782000000000178200000000017820000000001801000000000181800002000000000000000400000000000000712800000000000000009999123100000010000000000000BRCEBRACNPB6124
012024082002CEDO4       010CEDRO       PN      N1   R$  000000000243900000000024990000000002406000000000245200000000024060000000002403000000000250900005000000000000001000000000000002452400000000000000009999123100000010000000000000BRCEDOACNPR5128
012024082002CEEB3       010COELBA      ON           R$  000000000399900000000040000000000003950000000000399300000000040000000000003912000000000400000008000000000000000900000000000003594000000000000000009999123100000010000000000000BRCEEBACNOR3199
012024082002CGAS3       010COMGAS      ON  ED       R$  000000001091000000000109100000000010900000000001090800000000109000000000010900000000001120000002000000000000000500000000000005454000000000000000009999123100000010000000000000BRCGASACNOR0164
012024082002CGAS5       010COMGAS      PNA ED       R$  000000001138900000000114050000000011330000000001138500000000114000000000011299000000001149900013000000000000001300000000000014800500000000000000009999123100000010000000000000BRCGASACNPA3161
012024082002CGRA3       010GRAZZIOTIN  ON           R$  000000000253000000000025650000000002530000000000255500000000025650000000002501000000000257000011000000000000002300000000000005877500000000000000009999123100000010000000000000BRCGRAACNOR2083
012024082002CGRA4       010GRAZZIOTIN  PN           R$  000000000256200000000026100000000002545000000000256700000000026090000000002578000000000260000059000000000000007900000000000020285600000000000000009999123100000010000000000000BRCGRAACNPR9083
012024082002CIEL3       010CIELO       ON           R$  000000000058200000000005840000000000582000000000058200000000005820000000000582000000000058304210000000000012387700000000007215926000000000000000009999123100000010000000000000BRCIELACNOR3157
012024082002CLSA3       010CLEARSALE   ON      NM   R$  000000000077900000000007790000000000747000000000075500000000007510000000000750000000000075101714000000000001325800000000001001934400000000000000009999123100000010000000000000BRCLSAACNOR0100
012024082002CLSC3       010CELESC      ON      N2   R$  000000000725000000000072500000000007162000000000720600000000071620000000007202000000000730000002000000000000000200000000000001441200000000000000009999123100000010000000000000BRCLSCACNOR6152
012024082002CLSC4       010CELESC      PN      N2   R$  000000000784800000000078690000000007848000000000785300000000078690000000007803000000000787000008000000000000001100000000000008638300000000000000009999123100000010000000000000BRCLSCACNPR3131
012024082002RCSL3       010RECRUSUL    ON           R$  000000000029300000000003200000000000293000000000030800000000003120000000000312000000000031702840000000000001066800000000000329497900000000000000009999123100000010000000000000BRRCSLACNOR4134
012024082002RCSL4       010RECRUSUL    PN           R$  000000000008100000000000850000000000080000000000008200000000000830000000000083000000000008400638000000000000431600000000000035646700000000000000009999123100000010000000000000BRRCSLACNPR1134
012024082002RDNI3       010RNI         ON      NM   R$  000000000031200000000003170000000000312000000000031400000000003140000000000314000000000031500008000000000000006500000000000002041600000000000000009999123100000010000000000000BRRDNIACNOR9116
012024082002RDOR3       010REDE D OR   ON      NM   R$  000000000322900000000033120000000003177000000000326400000000032960000000003290000000000329631747000000000010203800000000033312292300000000000000009999123100000010000000000000BRRDORACNOR8113
012024082002SUZB3       010SUZANO S.A. ON      NM   R$  000000000551000000000056130000000005488000000000556800000000055870000000005585000000000558821629000000000005086000000000028323032300000000000000009999123100000010000000000000BRSUZBACNOR0130
012024082002WEST3       010WESTWING    ON      NM   R$  000000000009100000000000920000000000088000000000008900000000000900000000000089000000000009000052000000000000034900000000000003129100000000000000009999123100000010000000000000BRWESTACNOR3100
012024082002WHRL3       010WHIRLPOOL   ON           R$  000000000043500000000004360000000000423000000000043100000000004260000000000426000000000043600005000000000000000900000000000000388400000000000000009999123100000010000000000000BRWHRLACNOR5128
012024082002WHRL4       010WHIRLPOOL   PN           R$  000000000044800000000004550000000000439000000000044900000000004500000000000448000000000045000035000000000000010600000000000004759900000000000000009999123100000010000000000000BRWHRLACNPR2128
012024082002WIZC3       010WIZ CO      ON      NM   R$  000000000061500000000006260000000000614000000000062000000000006180000000000617000000000061802370000000000000602600000000000374057500000000000000009999123100000010000000000000BRWIZCACNOR5102
012024082002MRVE3       010MRV         ON      NM   R$  000000000074900000000007580000000000738000000000075100000000007520000000000750000000000075219904000000000013953600000000010480648300000000000000009999123100000010000000000000BRMRVEACNOR2127
012024082002RADL3       010RAIADROGASILON      NM   R$  000000000291000000000029260000000002826000000000285600000000028280000000002826000000000282829270000000000010655000000000030440882500000000000000009999123100000010000000000000BRRADLACNOR0157
012024082002RAIL3       010RUMO S.A.   ON      NM   R$  000000000235100000000023780000000002339000000000236500000000023650000000002363000000000236528061000000000012144600000000028730847700000000000000009999123100000010000000000000BRRAILACNOR9105
012024082002RAIZ4       010RAIZEN      PN      N2   R$  000000000033100000000003310000000000324000000000032700000000003300000000000329000000000033012413000000000013042400000000004266494300000000000000009999123100000010000000000000BRRAIZACNPR6111
012024082002SMFT3       010SMART FIT   ON      NM   R$  000000000233500000000023720000000002323000000000234300000000023460000000002335000000000234610653000000000002578800000000006043739200000000000000009999123100000010000000000000BRSMFTACNOR1112
012024082002SMTO3       010SAO MARTINHOON      NM   R$  000000000296000000000029680000000002905000000000294100000000029520000000002946000000000295307032000000000001152200000000003389371900000000000000009999123100000010000000000000BRSMTOACNOR3127
012024082002SANB11      010SANTANDER BRUNT          R$  000000000307000000000031180000000003050000000000309500000000031070000000003100000000000311009473000000000002261400000000007000358200000000000000009999123100000010000000000000BRSANBCDAM13165
012024082002SANB3       010SANTANDER BRON           R$  000000000145100000000014790000000001445000000000146100000000014620000000001462000000000146900582000000000000094900000000000138737600000000000000009999123100000010000000000000BRSANBACNOR8172
012024082002SANB4       010SANTANDER BRPN           R$  000000000162000000000016350000000001611000000000162200000000016350000000001625000000000163500779000000000000125700000000000204005500000000000000009999123100000010000000000000BRSANBACNPR5172
012024082002SAPR11      010SANEPAR     UNT     N2   R$  000000000286600000000028910000000002844000000000286200000000028700000000002869000000000287703978000000000000826600000000002365947600000000000000009999123100000010000000000000BRSAPRCDAM13118
012024082002SAPR3       010SANEPAR     ON      N2   R$  000000000054900000000005490000000000538000000000053900000000005400000000000540000000000054300580000000000000220900000000000119259100000000000000009999123100000010000000000000BRSAPRACNOR9159
012024082002UNIP3       010UNIPAR      ON           R$  000000000485200000000048810000000004766000000000480200000000048500000000004770000000000485000141000000000000024100000000000115750500000000000000009999123100000010000000000000BRUNIPACNOR7206
012024082002UNIP5       010UNIPAR      PNA          R$  000000000499900000000050100000000004999000000000500700000000050090000000004851000000000500900004000000000000000500000000000002503700000000000000009999123100000010000000000000BRUNIPACNPA0208
012024082002UNIP6       010UNIPAR      PNB          R$  000000000500600000000050250000000004951000000000498300000000049860000000004986000000000498900790000000000000112400000000000560189000000000000000009999123100000010000000000000BRUNIPACNPB8206
012024082002USIM3       010USIMINAS    ON      N1   R$  000000000064400000000006440000000000627000000000063100000000006310000000000628000000000063100868000000000000363300000000000229548700000000000000009999123100000010000000000000BRUSIMACNOR3167
012024082002USIM5       010USIMINAS    PNA     N1   R$  000000000065300000000006530000000000638000000000064500000000006450000000000644000000000064515358000000000015604500000000010074090800000000000000009999123100000010000000000000BRUSIMACNPA6169
012024082002USIM6       010USIMINAS    PNB     N1   R$  000000000098800000000009880000000000988000000000098800000000009880000000001000000000000120100001000000000000000100000000000000098800000000000000009999123100000010000000000000BRUSIMACNPB4169
012024082002CSNA3       010SID NACIONALON           R$  000000000120500000000012180000000001175000000000118800000000011890000000001189000000000119011765000000000005585300000000006637716400000000000000009999123100000010000000000000BRCSNAACNOR6261
012024082002ESPA3       010ESPACOLASER ON      NM   R$  000000000010300000000001040000000000101000000000010200000000001030000000000103000000000010400902000000000000358300000000000036793600000000000000009999123100000010000000000000BRESPAACNOR7103
012024082002ESTR4       010ESTRELA     PN           R$  000000000021200000000002120000000000207000000000020800000000002070000000000209000000000022700003000000000000001000000000000000208000000000000000009999123100000010000000000000BRESTRACNPR0144
012024082002ETER3       010ETERNIT     ON  EJ  NM   R$  000000000060700000000006180000000000596000000000060800000000006090000000000609000000000061300721000000000000404800000000000246493200000000000000009999123100000010000000000000BRETERACNOR3244
012024082002EUCA3       010EUCATEX     ON      N1   R$  000000000166500000000016700000000001665000000000166500000000016700000000001665000000000170000005000000000000001000000000000001665700000000000000009999123100000010000000000000BREUCAACNOR1157
012024082002EUCA4       010EUCATEX     PN      N1   R$  000000000157000000000015850000000001544000000000156000000000015750000000001569000000000157500307000000000000041700000000000065088800000000000000009999123100000010000000000000BREUCAACNPR8044
012024082002EVEN3       010EVEN        ON      NM   R$  000000000066800000000006690000000000661000000000066500000000006670000000000662000000000066701786000000000000445000000000000296090800000000000000009999123100000010000000000000BREVENACNOR8119
012024082002FESA3       010FERBASA     ON      N1   R$  000000000139900000000013990000000001399000000000139900000000013990000000001397000000000140000001000000000000000100000000000000139900000000000000009999123100000010000000000000BRFESAACNOR8188
012024082002FESA4       010FERBASA     PN      N1   R$  000000000084800000000008560000000000837000000000084700000000008530000000000851000000000085301693000000000000413700000000000350611000000000000000009999123100000010000000000000BRFESAACNPR5084
012024082002ITSA3       010ITAUSA      ON      N1   R$  000000000110900000000011100000000001100000000000110400000000011080000000001108000000000110900722000000000000238400000000000263198400000000000000009999123100000010000000000000BRITSAACNOR0441
012024082002ITSA4       010ITAUSA      PN      N1   R$  000000000110600000000011110000000001097000000000110500000000011070000000001107000000000110822959000000000016360500000000018082186200000000000000009999123100000010000000000000BRITSAACNPR7441
012024082002APER3       010ALPER S.A.  ON           R$  000000000458500000000046000000000004550000000000458100000000045810000000004581000000000459600040000000000000007800000000000035734200000000000000009999123100000010000000000000BRAPERACNOR9106
012024082002ARML3       010ARMAC       ON      NM   R$  000000000092000000000009310000000000903000000000091000000000009060000000000906000000000091201868000000000000432600000000000394030100000000000000009999123100000010000000000000BRARMLACNOR1112
012024082002ASAI3       010ASSAI       ON      NM   R$  000000000107100000000010720000000001022000000000103600000000010220000000001022000000000102317785000000000010092800000000010457796200000000000000009999123100000010000000000000BRASAIACNOR0106
012024082002ATOM3       010ATOMPAR     ON           R$  000000000021000000000002120000000000210000000000021000000000002100000000000210000000000021200014000000000000006700000000000001407200000000000000009999123100000010000000000000BRATOMACNOR1106
012024082002AALR3       010ALLIAR      ON      NM   R$  000000000139000000000014600000000001369000000000141900000000014500000000001437000000000145000203000000000000058500000000000083035600000000000000009999123100000010000000000000BRAALRACNOR6102
012024082002LUPA3       010LUPATECH    ON      NM   R$  000000000015700000000001570000000000150000000000015300000000001530000000000153000000000015500128000000000000156000000000000023990200000000000000009999123100000010000000000000BRLUPAACNOR8112
012024082002LVTC3       010WDC NETWORKSON      NM   R$  000000000040500000000004080000000000392000000000040500000000004020000000000396000000000040100057000000000000010600000000000004293400000000000000009999123100000010000000000000BRLVTCACNOR4102
012024082002LWSA3       010LWSA        ON      NM   R$  000000000052600000000005260000000000499000000000050500000000005020000000000501000000000050211657000000000007450200000000003763735900000000000000009999123100000010000000000000BRLWSAACNOR8103
012024082002HYPE3       010HYPERA      ON      NM   R$  000000000319500000000032180000000003161000000000318800000000031800000000003180000000000318912495000000000002217200000000007069733100000000000000009999123100000010000000000000BRHYPEACNOR0143
012024082002MAPT3       010CEMEPE      ON           R$  000000000042300000000004230000000000423000000000042300000000004230000000000423000000000050000002000000000000000200000000000000084600000000000000009999123100000010000000000000BRMAPTACNOR8106
012024082002MAPT4       010CEMEPE      PN           R$  000000000050100000000005010000000000501000000000050100000000005010000000000501000000000060000001000000000000000200000000000000100200000000000000009999123100000010000000000000BRMAPTACNPR5106
012024082002MATD3       010MATER DEI   ON      NM   R$  000000000045500000000004640000000000453000000000045900000000004640000000000459000000000046401930000000000000749700000000000344729500000000000000009999123100000010000000000000BRMATDACNOR4104
012024082002MBLY3       010MOBLY       ON      NM   R$  000000000028500000000003080000000000285000000000029900000000003070000000000303000000000030703872000000000001108500000000000331549900000000000000009999123100000010000000000000BRMBLYACNOR5100
012024082002ALPA3       010ALPARGATAS  ON      N1   R$  000000000079000000000007920000000000780000000000078300000000007800000000000780000000000079900009000000000000001400000000000001096600000000000000009999123100000010000000000000BRALPAACNOR0231
012024082002NGRD3       010NEOGRID     ON      NM   R$  000000000011500000000001200000000000115000000000011700000000001200000000000119000000000012002098000000000000983400000000000115843900000000000000009999123100000010000000000000BRNGRDACNOR3104
012024082002NINJ3       010GETNINJAS   ON      NM   R$  000000000045500000000004700000000000455000000000046400000000004700000000000455000000000047200029000000000000007200000000000003345200000000000000009999123100000010000000000000BRNINJACNOR5101
012024082002NORD3       010NORDON MET  ON           R$  000000000117500000000013080000000001099000000000120800000000010990000000001099000000000118000029000000000000004400000000000005319100000000000000009999123100000010000000000000BRNORDACNOR7135
012024082002NTCO3       010GRUPO NATURAON      NM   R$  000000000142500000000014310000000001399000000000141000000000013990000000001399000000000140014754000000000005358700000000007560074400000000000000009999123100000010000000000000BRNTCOACNOR5106
012024082002ALPA4       010ALPARGATAS  PN      N1   R$  000000000082200000000008400000000000822000000000083000000000008320000000000828000000000083207938000000000002311500000000001919592600000000000000009999123100000010000000000000BRALPAACNPR7232
012024082002ALPK3       010ESTAPAR     ON      NM   R$  000000000038800000000003920000000000358000000000037500000000003780000000000370000000000037801158000000000000364200000000000136744400000000000000009999123100000010000000000000BRALPKACNOR9101
012024082002ALUP11      010ALUPAR      UNT ED  N2   R$  000000000316900000000031860000000003157000000000317300000000031570000000003156000000000318203690000000000000668600000000002121671600000000000000009999123100000010000000000000BRALUPCDAM15120
012024082002ALUP3       010ALUPAR      ON  ED  N2   R$  000000000106800000000010920000000001068000000000107500000000010790000000001072000000000107900018000000000000002200000000000002366300000000000000009999123100000010000000000000BRALUPACNOR8120
012024082002ALUP4       010ALUPAR      PN  ED  N2   R$  000000000104400000000010520000000001043000000000104500000000010450000000001042000000000105000032000000000000004800000000000005020100000000000000009999123100000010000000000000BRALUPACNPR5120
012024082002AMAR3       010LOJAS MARISAON      NM   R$  000000000012500000000001280000000000120000000000012400000000001220000000000122000000000012300692000000000000842700000000000104906200000000000000009999123100000010000000000000BRAMARACNOR4115
012024082002AMBP3       010AMBIPAR     ON      NM   R$  000000000747200000000088680000000007251000000000832400000000082780000000008278000000000830002744000000000000599300000000004988951500000000000000009999123100000010000000000000BRAMBPACNOR6103
012024082002ABCB4       010ABC BRASIL  PN      N2   R$  000000000236700000000024250000000002359000000000240100000000024030000000002395000000000240506183000000000001167200000000002802663000000000000000009999123100000010000000000000BRABCBACNPR4146
012024082002ABEV3       010AMBEV S/A   ON           R$  000000000129900000000013040000000001287000000000129500000000012940000000001294000000000129524361000000000016424000000000021279096900000000000000009999123100000010000000000000BRABEVACNOR1128
012024082002ANIM3       010ANIMA       ON  ED  NM   R$  000000000035200000000003610000000000348000000000035400000000003580000000000357000000000035908236000000000005425300000000001921581100000000000000009999123100000010000000000000BRANIMACNOR6109
012024082002BBDC4       010BRADESCO    PN      N1   R$  000000000157600000000015790000000001541000000000156300000000015700000000001569000000000157041701000000000030434800000000047590255900000000000000009999123100000010000000000000BRBBDCACNPR8773
012024082002BRKM5       010BRASKEM     PNA     N1   R$  000000000179200000000018210000000001725000000000177000000000017710000000001771000000000177811343000000000004156000000000007356942400000000000000009999123100000010000000000000BRBRKMACNPA4121
012024082002BRKM6       010BRASKEM     PNB     N1   R$  000000000140000000000014000000000001400000000000140000000000014000000000001300000000000140000002000000000000000200000000000000280000000000000000009999123100000010000000000000BRBRKMACNPB2114
012024082002BRSR3       010BANRISUL    ON      N1   R$  000000000134000000000013500000000001327000000000134000000000013400000000001340000000000135000055000000000000010300000000000013802100000000000000009999123100000010000000000000BRBRSRACNOR3188
012024082002BRSR6       010BANRISUL    PNB     N1   R$  000000000125900000000012650000000001230000000000124100000000012410000000001239000000000124106628000000000001454000000000001804704800000000000000009999123100000010000000000000BRBRSRACNPB4191
012024082002ENGI11      010ENERGISA    UNT ED  N2   R$  000000000499000000000050370000000004907000000000493900000000049270000000004923000000000492815107000000000004647900000000022960322100000000000000009999123100000010000000000000BRENGICDAM16136
012024082002ENGI3       010ENERGISA    ON  ED  N2   R$  000000000152000000000016490000000001496000000000157400000000015910000000001590000000000162500133000000000000024000000000000037789100000000000000009999123100000010000000000000BRENGIACNOR0146
012024082002ENGI4       010ENERGISA    PN  ED  N2   R$  000000000087200000000008820000000000823000000000084500000000008280000000000828000000000083800112000000000000024500000000000020718900000000000000009999123100000010000000000000BRENGIACNPR7142
012024082002ENJU3       010ENJOEI      ON      NM   R$  000000000018000000000001840000000000176000000000017700000000001770000000000177000000000017801003000000000000453900000000000080692100000000000000009999123100000010000000000000BRENJUACNOR9100
012024082002ENMT4       010ENERGISA MT PN           R$  000000000819400000000081940000000008194000000000819400000000081940000000005001000000000829500003000000000000000300000000000002458200000000000000009999123100000010000000000000BRENMTACNPR2126
012024082002EPAR3       010EMBPAR S/A  ON           R$  000000000059000000000005900000000000578000000000058200000000005780000000000578000000000058100038000000000000010000000000000005821100000000000000009999123100000010000000000000BREPARACNOR9105
012024082002BIOM3       010BIOMM       ON      MA   R$  000000000079700000000008510000000000779000000000081200000000008420000000000830000000000084200735000000000000161900000000000131523800000000000000009999123100000010000000000000BRBIOMACNOR2112
012024082002EQMA3B      010EQTLMARANHAOON      MB   R$  000000000254800000000025480000000002500000000000250400000000025000000000002451000000000254800003000000000000001200000000000003004900000000000000009999123100000010000000000000BREQMAACNOR8108
012024082002EQPA3       010EQTL PARA   ON           R$  000000000069400000000006950000000000690000000000069400000000006940000000000691000000000069400017000000000000007300000000000005070400000000000000009999123100000010000000000000BREQPAACNOR1111
012024082002EQTL3       010EQUATORIAL  ON      NM   R$  000000000355200000000036360000000003551000000000359800000000036060000000003605000000000360933145000000000008536100000000030713155100000000000000009999123100000010000000000000BREQTLACNOR0130
012024082002INEP3       010INEPAR      ON           R$  000000000020100000000002120000000000198000000000020600000000002050000000000205000000000020600246000000000000067100000000000013859500000000000000009999123100000010000000000000BRINEPACNOR1143
012024082002INEP4       010INEPAR      PN           R$  000000000020600000000002150000000000202000000000020900000000002100000000000207000000000021000127000000000000074200000000000015515200000000000000009999123100000010000000000000BRINEPACNPR8143
012024082002INTB3       010INTELBRAS   ON      NM   R$  000000000226900000000023170000000002264000000000229800000000023110000000002301000000000231304165000000000000729100000000001675868600000000000000009999123100000010000000000000BRINTBACNOR9112
012024082002IRBR3       010IRBBRASIL REON      NM   R$  000000000463700000000046590000000004479000000000457800000000045890000000004588000000000458910482000000000002529000000000011579190600000000000000009999123100000010000000000000BRIRBRACNOR4111
012024082002LPSB3       010LOPES BRASILON      NM   R$  000000000018100000000001830000000000176000000000017800000000001760000000000176000000000017800223000000000000141400000000000025232200000000000000009999123100000010000000000000BRLPSBACNOR0114
012024082002LREN3       010LOJAS RENNERON      NM   R$  000000000169200000000017030000000001627000000000165900000000016960000000001694000000000169629517000000000021077900000000034975960600000000000000009999123100000010000000000000BRLRENACNOR1221
012024082002BRAP3       010BRADESPAR   ON      N1   R$  000000000176600000000017830000000001752000000000176100000000017600000000001759000000000176900951000000000000130900000000000230558600000000000000009999123100000010000000000000BRBRAPACNOR5148
012024082002BRAP4       010BRADESPAR   PN      N1   R$  000000000187900000000018840000000001860000000000187300000000018820000000001880000000000188207131000000000002851600000000005342806900000000000000009999123100000010000000000000BRBRAPACNPR2148
012024082002BRBI11      010BR PARTNERS UNT ED  N2   R$  000000000151300000000015350000000001484000000000149700000000014930000000001493000000000149601755000000000000306000000000000458304100000000000000009999123100000010000000000000BRBRBICDAM10110
012024082002BRFS3       010BRF SA      ON      NM   R$  000000000253500000000025840000000002515000000000255200000000025400000000002540000000000254520988000000000008283800000000021143858800000000000000009999123100000010000000000000BRBRFSACNOR8122
012024082002ODPV3       010ODONTOPREV  ON      NM   R$  000000000119200000000011940000000001173000000000118000000000011740000000001174000000000118602919000000000000826900000000000976370500000000000000009999123100000010000000000000BRODPVACNOR4202
012024082002ONCO3       010ONCOCLINICASON      NM   R$  000000000066000000000006640000000000642000000000064800000000006480000000000648000000000065002949000000000001984000000000001286796800000000000000009999123100000010000000000000BRONCOACNOR6101
012024082002OPCT3       010OCEANPACT   ON      NM   R$  000000000066300000000006680000000000638000000000065000000000006400000000000640000000000064102238000000000000499500000000000324747200000000000000009999123100000010000000000000BROPCTACNOR0100
012024082002ORVR3       010ORIZON      ON      NM   R$  000000000456800000000047770000000004568000000000473200000000047580000000004754000000000476903978000000000000663400000000003139843700000000000000009999123100000010000000000000BRORVRACNOR0101
012024082002JHSF3       010JHSF PART   ON      NM   R$  000000000043500000000004460000000000428000000000043600000000004460000000000444000000000044608373000000000005743300000000002507385700000000000000009999123100000010000000000000BRJHSFACNOR2138
012024082002MLAS3       010MULTILASER  ON      NM   R$  000000000019000000000001910000000000185000000000018600000000001850000000000185000000000018703524000000000002073900000000000387571700000000000000009999123100000010000000000000BRMLASACNOR9101
012024082002MNDL3       010MUNDIAL     ON           R$  000000000136500000000013650000000001350000000000135500000000013500000000001300000000000136500005000000000000000800000000000001084500000000000000009999123100000010000000000000BRMNDLACNOR4109
012024082002MNPR3       010MINUPAR     ON           R$  000000000161400000000016150000000001614000000000161400000000016150000000001000000000000161500002000000000000000200000000000000322900000000000000009999123100000010000000000000BRMNPRACNOR5122
012024082002MOVI3       010MOVIDA      ON      NM   R$  000000000076500000000007820000000000761000000000076600000000007640000000000761000000000076410590000000000003306300000000002535526800000000000000009999123100000010000000000000BRMOVIACNOR0122
012024082002MRFG3       010MARFRIG     ON      NM   R$  000000000145900000000014900000000001440000000000146300000000014530000000001450000000000145326721000000000008500900000000012444174200000000000000009999123100000010000000000000BRMRFGACNOR0116
012024082002JSLG3       010JSL         ON      NM   R$  000000000097300000000009730000000000939000000000095000000000009470000000000947000000000095002593000000000000312100000000000296497100000000000000009999123100000010000000000000BRJSLGACNOR2121
012024082002KEPL3       010KEPLER WEBERON  EJ  NM   R$  000000000115500000000011580000000001134000000000114200000000011340000000001134000000000113802858000000000000632700000000000723130200000000000000009999123100000010000000000000BRKEPLACNOR1064
012024082002GRND3       010GRENDENE    ON      NM   R$  000000000063200000000006330000000000622000000000062600000000006300000000000628000000000063003686000000000000806300000000000505459100000000000000009999123100000010000000000000BRGRNDACNOR3174
012024082002GUAR3       010GUARARAPES  ON      NM   R$  000000000091800000000009190000000000883000000000089700000000008830000000000882000000000088802975000000000000993600000000000891959500000000000000009999123100000010000000000000BRGUARACNOR4173
012024082002JALL3       010JALLESMACHADON      NM   R$  000000000069000000000006940000000000681000000000068400000000006850000000000682000000000068601122000000000000323200000000000221381000000000000000009999123100000010000000000000BRJALLACNOR0106
012024082002JBSS3       010JBS         ON  ED  NM   R$  000000000366500000000037230000000003575000000000364800000000036130000000003613000000000361437782000000000014297200000000052165133900000000000000009999123100000010000000000000BRJBSSACNOR8122
012024082002MILS3       010MILLS       ON  EDJ NM   R$  000000000115000000000011560000000001131000000000114300000000011470000000001141000000000114804653000000000000825300000000000943821400000000000000009999123100000010000000000000BRMILSACNOR2128
012024082002KLBN11      010KLABIN S/A  UNT     N2   R$  000000000213700000000022130000000002131000000000218700000000021950000000002195000000000219819225000000000005932000000000012973604700000000000000009999123100000010000000000000BRKLBNCDAM18143
012024082002KLBN3       010KLABIN S/A  ON      N2   R$  000000000043400000000004440000000000428000000000043700000000004430000000000440000000000044301325000000000000668300000000000292307200000000000000009999123100000010000000000000BRKLBNACNOR2171
012024082002KLBN4       010KLABIN S/A  PN      N2   R$  000000000042900000000004420000000000426000000000043500000000004380000000000438000000000044002803000000000002381500000000001038056500000000000000009999123100000010000000000000BRKLBNACNPR9171
012024082002BAZA3       010AMAZONIA    ON           R$  000000000948900000000095000000000009411000000000945100000000094110000000009410000000000941100020000000000000003000000000000028353300000000000000009999123100000010000000000000BRBAZAACNOR0179
012024082002BBAS3       010BRASIL      ON      NM   R$  000000000291700000000029300000000002905000000000292100000000029260000000002925000000000292638549000000000016156400000000047195786100000000000000009999123100000010000000000000BRBBASACNOR3324
012024082002BEES3       010BANESTES    ON           R$  000000000090600000000009090000000000899000000000090200000000008990000000000899000000000090500081000000000000013500000000000012181000000000000000009999123100000010000000000000BRBEESACNOR9394
012024082002BEES4       010BANESTES    PN           R$  000000000097400000000009830000000000974000000000097500000000009740000000000974000000000097700012000000000000002000000000000001950600000000000000009999123100000010000000000000BRBEESACNPR6319
012024082002CPFE3       010CPFL ENERGIAON      NM   R$  000000000332700000000033620000000003320000000000333400000000033250000000003325000000000332606274000000000001123000000000003744766900000000000000009999123100000010000000000000BRCPFEACNOR0137
012024082002DASA3       010DASA        ON      NM   R$  000000000034400000000003540000000000330000000000033800000000003360000000000335000000000033602540000000000001007400000000000340636100000000000000009999123100000010000000000000BRDASAACNOR1122
012024082002DESK3       010DESKTOP     ON      NM   R$  000000000157900000000016150000000001560000000000159300000000015940000000001593000000000159401034000000000000240600000000000383459300000000000000009999123100000010000000000000BRDESKACNOR2104
012024082002DEXP3       010DEXXOS PAR  ON      N1   R$  000000000095700000000009580000000000933000000000094200000000009450000000000944000000000094501037000000000000252000000000000237412500000000000000009999123100000010000000000000BRDEXPACNOR1105
012024082002DEXP4       010DEXXOS PAR  PN      N1   R$  000000000092000000000009300000000000920000000000092600000000009290000000000920000000000093000010000000000000003100000000000002871100000000000000009999123100000010000000000000BRDEXPACNPR8105
012024082002DIRR3       010DIRECIONAL  ON      NM   R$  000000000293200000000029590000000002912000000000292900000000029300000000002930000000000293304487000000000000840000000000002460861400000000000000009999123100000010000000000000BRDIRRACNOR0118
012024082002DMVF3       010D1000VFARMA ON      NM   R$  000000000075200000000007520000000000720000000000073600000000007520000000000745000000000075200609000000000000130200000000000095891700000000000000009999123100000010000000000000BRDMVFACNOR9100
012024082002DOHL4       010DOHLER      PN           R$  000000000041200000000004140000000000409000000000041100000000004140000000000409000000000041300005000000000000002300000000000000947200000000000000009999123100000010000000000000BRDOHLACNPR9066
012024082002DOTZ3       010DOTZ SA     ON      NM   R$  000000000083000000000008740000000000830000000000085700000000008330000000000832000000000086800053000000000000013100000000000011238000000000000000009999123100000010000000000000BRDOTZACNOR7101
012024082002DTCY3       010DTCOM-DIRECTON           R$  000000000055000000000005500000000000540000000000054500000000005400000000000520000000000058000002000000000000000400000000000000218000000000000000009999123100000010000000000000BRDTCYACNOR5109
012024082002DXCO3       010DEXCO       ON      NM   R$  000000000083500000000008390000000000812000000000082700000000008300000000000827000000000083209063000000000003323700000000002749984200000000000000009999123100000010000000000000BRDXCOACNOR8105
012024082002GGPS3       010GPS         ON      NM   R$  000000000173900000000017770000000001733000000000175700000000017690000000001766000000000177005556000000000001909200000000003355224200000000000000009999123100000010000000000000BRGGPSACNOR9103
012024082002GMAT3       010GRUPO MATEUSON      NM   R$  000000000078500000000007990000000000781000000000078600000000007850000000000782000000000078806925000000000002264000000000001779701200000000000000009999123100000010000000000000BRGMATACNOR7102
012024082002GOAU3       010GERDAU MET  ON  ED  N1   R$  000000000104100000000010470000000001027000000000103600000000010390000000001038000000000104400239000000000000048800000000000050558600000000000000009999123100000010000000000000BRGOAUACNOR1268
012024082002GOAU4       010GERDAU MET  PN  ED  N1   R$  000000000103400000000010340000000001010000000000102000000000010280000000001027000000000102809921000000000005753900000000005873134600000000000000009999123100000010000000000000BRGOAUACNPR8269
012024082002EKTR4       010ELEKTRO     PN           R$  000000000430000000000043250000000004241000000000430400000000043250000000004241000000000432500007000000000000000700000000000003012800000000000000009999123100000010000000000000BREKTRACNPR7164
012024082002ELET3       010ELETROBRAS  ON      N1   R$  000000000415300000000041630000000004111000000000413900000000041400000000004139000000000414318672000000000006194800000000025644109500000000000000009999123100000010000000000000BRELETACNOR6160
012024082002ELET6       010ELETROBRAS  PNB     N1   R$  000000000458000000000046130000000004537000000000458600000000046000000000004598000000000460107598000000000001971600000000009042467900000000000000009999123100000010000000000000BRELETACNPB7077
012024082002SNSY5       010SANSUY      PNA          R$  000000000057600000000005760000000000564000000000056500000000005650000000000565000000000056900009000000000000002200000000000001244200000000000000009999123100000010000000000000BRSNSYACNPA5111
012024082002SOJA3       010BOA SAFRA   ON      NM   R$  000000000137900000000013920000000001361000000000137500000000013850000000001385000000000138802874000000000000490400000000000674776900000000000000009999123100000010000000000000BRSOJAACNOR9105
012024082002SRNA3       010SERENA      ON      NM   R$  000000000091400000000009230000000000903000000000090900000000009100000000000907000000000091002904000000000000961200000000000873923900000000000000009999123100000010000000000000BRSRNAACNOR4100
012024082002STBP3       010SANTOS BRP  ON  EDJ NM   R$  000000000141000000000014400000000001408000000000141600000000014140000000001413000000000141512825000000000007324200000000010378361900000000000000009999123100000010000000000000BRSTBPACNOR3131
012024082002VLID3       010VALID       ON  EJ  NM   R$  000000000213500000000022030000000002124000000000217500000000022000000000002200000000000220302928000000000000567700000000001235001700000000000000009999123100000010000000000000BRVLIDACNOR5144
012024082002VSTE3       010VESTE       ON      NM   R$  000000000135000000000013500000000001350000000000135000000000013500000000001350000000000136800003000000000000000500000000000000675000000000000000009999123100000010000000000000BRVSTEACNOR5103
012024082002VTRU3       010VITRUEDUCA  ON      NM   R$  000000000113500000000011600000000001080000000000109300000000010800000000001080000000000109500298000000000000079300000000000086707200000000000000009999123100000010000000000000BRVTRUACNOR3100
012024082002VULC3       010VULCABRAS   ON  ED  NM   R$  000000000179100000000017910000000001754000000000177300000000017840000000001777000000000178402540000000000000434000000000000769611900000000000000009999123100000010000000000000BRVULCACNOR2161
012024082002VVEO3       010VIVEO       ON      NM   R$  000000000021000000000002150000000000199000000000020300000000002020000000000202000000000020406619000000000005056100000000001027553900000000000000009999123100000010000000000000BRVVEOACNOR0104
012024082002WEGE3       010WEG         ON      NM   R$  000000000522800000000053420000000005192000000000529300000000053110000000005310000000000532019960000000000006174500000000032687121800000000000000009999123100000010000000000000BRWEGEACNOR0224
012024082002PRNR3       010PRINER      ON      NM   R$  000000000122200000000012350000000001197000000000122300000000012310000000001229000000000123101776000000000000333100000000000407518900000000000000009999123100000010000000000000BRPRNRACNOR4109
012024082002PSSA3       010PORTO SEGUROON      NM   R$  000000000328000000000033310000000003280000000000330700000000033030000000003302000000000330805926000000000001056200000000003492962800000000000000009999123100000010000000000000BRPSSAACNOR7155
012024082002PTBL3       010PORTOBELLO  ON      NM   R$  000000000049500000000005050000000000487000000000049500000000004970000000000491000000000049701428000000000000435200000000000215691100000000000000009999123100000010000000000000BRPTBLACNOR8132
012024082002PTNT3       010PETTENATI   ON           R$  000000000091100000000009130000000000890000000000090200000000008900000000000883000000000089100012000000000000001800000000000001624300000000000000009999123100000010000000000000BRPTNTACNOR6042
012024082002PTNT4       010PETTENATI   PN           R$  000000000061000000000006260000000000607000000000061100000000006120000000000605000000000061400040000000000000010800000000000006603600000000000000009999123100000010000000000000BRPTNTACNPR3047
012024082002QUAL3       010QUALICORP   ON      NM   R$  000000000017800000000001880000000000173000000000018200000000001860000000000185000000000018803595000000000005707000000000001043851100000000000000009999123100000010000000000000BRQUALACNOR6120
012024082002SCAR3       010SAO CARLOS  ON      NM   R$  000000000239400000000023940000000002320000000000234000000000023200000000002320000000000232300081000000000000022200000000000051952600000000000000009999123100000010000000000000BRSCARACNOR7131
012024082002SEER3       010SER EDUCA   ON      NM   R$  000000000061700000000006380000000000601000000000062500000000006260000000000626000000000062703119000000000000766100000000000479417700000000000000009999123100000010000000000000BRSEERACNOR5119
012024082002SEQL3       010SEQUOIA LOG ON      NM   R$  000000000054600000000006820000000000540000000000063600000000006380000000000637000000000063805084000000000003081200000000001961180700000000000000009999123100000010000000000000BRSEQLACNOR2103
012024082002SHOW3       010TIME FOR FUNON      NM   R$  000000000012500000000001260000000000120000000000012100000000001200000000000120000000000012100344000000000000413000000000000050201900000000000000009999123100000010000000000000BRSHOWACNOR7105
012024082002SHUL4       010SCHULZ      PN           R$  000000000066100000000006730000000000654000000000066700000000006720000000000665000000000067200825000000000000215400000000000143691700000000000000009999123100000010000000000000BRSHULACNPR4156
012024082002SIMH3       010SIMPAR      ON      NM   R$  000000000070000000000007080000000000683000000000069800000000007030000000000701000000000070407913000000000003030200000000002116567600000000000000009999123100000010000000000000BRSIMHACNOR0107
012024082002SLCE3       010SLC AGRICOLAON      NM   R$  000000000179000000000018070000000001770000000000179200000000017970000000001795000000000179806756000000000001715000000000003073817300000000000000009999123100000010000000000000BRSLCEACNOR2125
012024082002SAPR4       010SANEPAR     PN      N2   R$  000000000058300000000005840000000000573000000000057600000000005810000000000580000000000058203179000000000001982000000000001143516500000000000000009999123100000010000000000000BRSAPRACNPR6159
012024082002SBFG3       010GRUPO SBF   ON      NM   R$  000000000170000000000017640000000001692000000000173200000000017640000000001754000000000176405734000000000001406300000000002436082300000000000000009999123100000010000000000000BRSBFGACNOR1103
012024082002SBSP3       010SABESP      ON      NM   R$  000000000974300000000099650000000009729000000000988700000000099580000000009958000000000995923880000000000005148700000000050907297800000000000000009999123100000010000000000000BRSBSPACNOR5161
012024082002VALE3       010VALE        ON      NM   R$  000000000573800000000057590000000005681000000000571100000000057200000000005720000000000572137865000000000019475800000000111245358000000000000000009999123100000010000000000000BRVALEACNOR0211
012024082002PRIO3       010PETRORIO    ON      NM   R$  000000000479300000000048200000000004732000000000477600000000047830000000004782000000000478519938000000000006297100000000030077734500000000000000009999123100000010000000000000BRPRIOACNOR1107
012024082002RSUL4       010RIOSULENSE  PN           R$  000000000649900000000065000000000006369000000000647600000000064950000000006362000000000650000008000000000000000800000000000005180800000000000000009999123100000010000000000000BRRSULACNPR3114
012024082002EZTC3       010EZTEC       ON  ED  NM   R$  000000000148000000000014970000000001461000000000148400000000014840000000001479000000000148608514000000000002336000000000003468392600000000000000009999123100000010000000000000BREZTCACNOR0126
012024082002AURE3       010AUREN       ON      NM   R$  000000000116800000000011680000000001154000000000115700000000011540000000001154000000000115705767000000000002565600000000002969198400000000000000009999123100000010000000000000BRAUREACNOR9104
012024082002AVLL3       010ALPHAVILLE  ON      NM   R$  000000000041400000000004140000000000410000000000041300000000004100000000000406000000000041000005000000000000001800000000000000744000000000000000009999123100000010000000000000BRAVLLACNOR5103
012024082002AZEV3       010AZEVEDO     ON           R$  000000000014800000000001480000000000140000000000014300000000001430000000000142000000000014300502000000000000483800000000000069439200000000000000009999123100000010000000000000BRAZEVACNOR0121
012024082002BSLI3       010BRB BANCO   ON           R$  000000000104400000000010880000000001044000000000105800000000010880000000001044000000000108800002000000000000000300000000000000317600000000000000009999123100000010000000000000BRBSLIACNOR5194
012024082002CAMB3       010CAMBUCI     ON  EDJ      R$  000000000124200000000012680000000001223000000000123500000000012350000000001235000000000123600185000000000000058800000000000072663900000000000000009999123100000010000000000000BRCAMBACNOR4131
012024082002CAML3       010CAMIL       ON      NM   R$  000000000096000000000009700000000000939000000000095000000000009520000000000951000000000095602842000000000000663900000000000630743300000000000000009999123100000010000000000000BRCAMLACNOR3128
012024082002CASH3       010MELIUZ      ON      NM   R$  000000000064300000000006490000000000631000000000063900000000006390000000000637000000000063902793000000000000617900000000000394973900000000000000009999123100000010000000000000BRCASHACNOR8106
012024082002CBAV3       010CBA         ON      NM   R$  000000000052500000000005480000000000515000000000052800000000005220000000000521000000000052208705000000000004319600000000002282621300000000000000009999123100000010000000000000BRCBAVACNOR5104
012024082002CCRO3       010CCR SA      ON      NM   R$  000000000135200000000013610000000001344000000000135100000000013530000000001351000000000135510010000000000002919000000000003946172200000000000000009999123100000010000000000000BRCCROACNOR2145
012024082002CSED3       010CRUZEIRO EDUON      NM   R$  000000000040400000000004070000000000388000000000039100000000003890000000000389000000000039001659000000000001058100000000000413904100000000000000009999123100000010000000000000BRCSEDACNOR9104
012024082002CSMG3       010COPASA      ON      NM   R$  000000000232300000000023480000000002311000000000232500000000023140000000002314000000000232305866000000000001112600000000002586904600000000000000009999123100000010000000000000BRCSMGACNOR5174
012024082002BAHI3       010BAHEMA      ON      MA   R$  000000000068500000000007250000000000685000000000070200000000007250000000000725000000000072900015000000000000002500000000000001755200000000000000009999123100000010000000000000BRBAHIACNOR1074
012024082002BALM4       010BAUMER      PN           R$  000000000106000000000010800000000001060000000000107000000000010800000000001080000000000109000002000000000000000200000000000000214000000000000000009999123100000010000000000000BRBALMACNPR2056
012024082002BEEF3       010MINERVA     ON      NM   R$  000000000077400000000007940000000000767000000000078500000000007840000000000783000000000078521731000000000010548000000000008284074300000000000000009999123100000010000000000000BRBEEFACNOR6116
012024082002BPAC11      010BTGP BANCO  UNT     N2   R$  000000000363700000000036700000000003622000000000364500000000036450000000003645000000000365027979000000000007479100000000027266319800000000000000009999123100000010000000000000BRBPACUNT006119
012024082002BPAC3       010BTGP BANCO  ON      N2   R$  000000000169400000000017030000000001694000000000169700000000016960000000001692000000000170300027000000000000004000000000000006791800000000000000009999123100000010000000000000BRBPACACNOR7134
012024082002BPAC5       010BTGP BANCO  PNA     N2   R$  000000000095600000000009840000000000956000000000096400000000009700000000000963000000000097200030000000000000005500000000000005307200000000000000009999123100000010000000000000BRBPACACNPA0134
012024082002HAGA3       010HAGA S/A    ON           R$  000000000024400000000002440000000000243000000000024300000000002430000000000240000000000024300002000000000000000200000000000000048700000000000000009999123100000010000000000000BRHAGAACNOR7103
012024082002HAGA4       010HAGA S/A    PN           R$  000000000011500000000001180000000000115000000000011500000000001180000000000116000000000011700021000000000000011700000000000001350900000000000000009999123100000010000000000000BRHAGAACNPR4103
012024082002HAPV3       010HAPVIDA     ON      NM   R$  000000000044500000000004590000000000438000000000045000000000004560000000000456000000000045729812000000000050852600000000022910773800000000000000009999123100000010000000000000BRHAPVACNOR4114
012024082002HBOR3       010HELBOR      ON      NM   R$  000000000022300000000002260000000000220000000000022100000000002200000000000219000000000022000336000000000000334600000000000074232300000000000000009999123100000010000000000000BRHBORACNOR3118
012024082002HBRE3       010HBR REALTY  ON      NM   R$  000000000053300000000005360000000000527000000000053000000000005280000000000528000000000053000375000000000000169900000000000090049300000000000000009999123100000010000000000000BRHBREACNOR4100
012024082002HBSA3       010HIDROVIAS   ON      NM   R$  000000000036400000000003720000000000358000000000036300000000003610000000000361000000000036403903000000000002737900000000000994731800000000000000009999123100000010000000000000BRHBSAACNOR0100
012024082002TELB3       010TELEBRAS    ON           R$  000000000143500000000014350000000001420000000000142700000000014200000000001420000000000143500002000000000000000200000000000000285500000000000000009999123100000010000000000000BRTELBACNOR2140
012024082002TELB4       010TELEBRAS    PN           R$  000000000091900000000009200000000000919000000000091900000000009200000000000915000000000091900005000000000000001000000000000000919600000000000000009999123100000010000000000000BRTELBACNPR9140
012024082002TEND3       010TENDA       ON      NM   R$  000000000137200000000014110000000001364000000000138500000000013880000000001379000000000138807255000000000002269400000000003143745500000000000000009999123100000010000000000000BRTENDACNOR4111
012024082002TFCO4       010TRACK FIELD PN      N2   R$  000000000123700000000012550000000001230000000000124800000000012550000000001241000000000125500446000000000000094000000000000117341100000000000000009999123100000010000000000000BRTFCOACNPR8114
012024082002TGMA3       010TEGMA       ON  EDJ NM   R$  000000000257100000000026190000000002566000000000259500000000025990000000002597000000000261700889000000000000125800000000000326515100000000000000009999123100000010000000000000BRTGMAACNOR7145
012024082002TIMS3       010TIM         ON      NM   R$  000000000181900000000018480000000001819000000000183500000000018320000000001832000000000184013031000000000006592600000000012100844100000000000000009999123100000010000000000000BRTIMSACNOR5117
012024082002TOTS3       010TOTVS       ON      NM   R$  000000000295300000000030060000000002948000000000298600000000030020000000002999000000000300313246000000000002202900000000006579585100000000000000009999123100000010000000000000BRTOTSACNOR8145
012024082002MDIA3       010M.DIASBRANCOON      NM   R$  000000000288900000000029250000000002796000000000282500000000028210000000002815000000000282104224000000000000923300000000002608375300000000000000009999123100000010000000000000BRMDIAACNOR7135
012024082002MDNE3       010MOURA DUBEUXON      NM   R$  000000000147400000000014930000000001458000000000147700000000014790000000001470000000000147901755000000000000368600000000000544666000000000000000009999123100000010000000000000BRMDNEACNOR9100
012024082002MEAL3       010IMC S/A     ON      NM   R$  000000000016200000000001680000000000161000000000016400000000001650000000000165000000000016600449000000000000810800000000000133720800000000000000009999123100000010000000000000BRMEALACNOR9105
012024082002MELK3       010MELNICK     ON      NM   R$  000000000034700000000003480000000000338000000000034000000000003400000000000339000000000034002311000000000002817000000000000958070200000000000000009999123100000010000000000000BRMELKACNOR8111
012024082002MGEL4       010MANGELS INDLPN           R$  000000000114400000000011520000000001140000000000114100000000011450000000001145000000000120700009000000000000002600000000000002968400000000000000009999123100000010000000000000BRMGELACNPR3147
012024082002MGLU3       010MAGAZ LUIZA ON      NM   R$  000000000139200000000013930000000001358000000000137500000000013800000000001380000000000138121401000000000016240700000000022345971000000000000000009999123100000010000000000000BRMGLUACNOR2124
012024082002PDGR3       010PDG REALT   ON      NM   R$  000000000001700000000000180000000000017000000000001700000000000180000000000017000000000001800263000000000001014500000000000017844400000000000000009999123100000010000000000000BRPDGRACNOR8119
012024082002PDTC3       010PADTEC      ON      NM   R$  000000000018700000000001890000000000184000000000018600000000001870000000000187000000000018800076000000000000027900000000000005207600000000000000009999123100000010000000000000BRPDTCACNOR3101
012024082002TPIS3       010TRIUNFO PARTON      NM   R$  000000000042800000000004280000000000418000000000042200000000004200000000000419000000000042200102000000000000025600000000000010806500000000000000009999123100000010000000000000BRTPISACNOR8118
012024082002TRAD3       010TC          ON      NM   R$  000000000045900000000004640000000000406000000000041600000000004150000000000415000000000041601055000000000000297100000000000123793100000000000000009999123100000010000000000000BRTRADACNOR3102
012024082002TRIS3       010TRISUL      ON      NM   R$  000000000048900000000005090000000000489000000000050100000000005040000000000500000000000050401776000000000000667000000000000334803100000000000000009999123100000010000000000000BRTRISACNOR4118
012024082002TRPL3       010TRAN PAULISTON      N1   R$  000000000321900000000032190000000003181000000000320600000000032140000000003206000000000321400018000000000000002400000000000007695000000000000000009999123100000010000000000000BRTRPLACNOR4185
012024082002VBBR3       010VIBRA       ON      NM   R$  000000000265000000000026560000000002588000000000261500000000026130000000002612000000000261331785000000000008380400000000021918525500000000000000009999123100000010000000000000BRVBBRACNOR1108
012024082002VITT3       010VITTIA      ON      NM   R$  000000000063100000000006470000000000621000000000062900000000006210000000000620000000000062101900000000000000364400000000000229564500000000000000009999123100000010000000000000BRVITTACNOR4107
012024082002VIVA3       010VIVARA S.A. ON      NM   R$  000000000266000000000026880000000002621000000000265800000000026750000000002669000000000267711715000000000002177400000000005788848000000000000000009999123100000010000000000000BRVIVAACNOR0107
012024082002VIVR3       010VIVER       ON      NM   R$  000000000025600000000002680000000000254000000000026200000000002630000000000261000000000026300125000000000000060100000000000015772800000000000000009999123100000010000000000000BRVIVRACNOR4123
012024082002VIVT3       010TELEF BRASILON           R$  000000000523900000000052770000000005215000000000524800000000052430000000005240000000000524411018000000000001867700000000009803444700000000000000009999123100000010000000000000BRVIVTACNOR0183
012024082002PETZ3       010PETZ        ON      NM   R$  000000000048500000000004950000000000453000000000047600000000004810000000000481000000000048223706000000000041362400000000019693105500000000000000009999123100000010000000000000BRPETZACNOR2110
012024082002RECV3       010PETRORECSA  ON      NM   R$  000000000218700000000021930000000002145000000000216600000000021720000000002170000000000217206538000000000001293900000000002803596800000000000000009999123100000010000000000000BRRECVACNOR3107
012024082002REDE3       010REDE ENERGIAON           R$  000000000069000000000006900000000000683000000000068600000000006900000000000685000000000068800013000000000000001400000000000000961600000000000000009999123100000010000000000000BRREDEACNOR7128
012024082002RENT3       010LOCALIZA    ON      NM   R$  000000000437100000000044080000000004281000000000432900000000042970000000004295000000000429934808000000000009647100000000041764478100000000000000009999123100000010000000000000BRRENTACNOR4196
012024082002SYNE3       010SYN PROP TECON      NM   R$  000000000112700000000011350000000001106000000000111500000000011060000000001106000000000111005933000000000003232100000000003606201000000000000000009999123100000010000000000000BRSYNEACNOR2102
012024082002TAEE11      010TAESA       UNT EDJ N2   R$  000000000353100000000035650000000003525000000000354800000000035600000000003560000000000356209228000000000001731200000000006142844800000000000000009999123100000010000000000000BRTAEECDAM10148
012024082002TAEE3       010TAESA       ON  EDJ N2   R$  000000000117100000000011800000000001166000000000117500000000011800000000001176000000000118100376000000000000057000000000000066976800000000000000009999123100000010000000000000BRTAEEACNOR9148
012024082002TAEE4       010TAESA       PN  EDJ N2   R$  000000000118000000000011900000000001178000000000118400000000011900000000001185000000000119000630000000000000150400000000000178085000000000000000009999123100000010000000000000BRTAEEACNPR6148
012024082002VAMO3       010VAMOS       ON      NM   R$  000000000086900000000008780000000000843000000000085100000000008480000000000848000000000084912653000000000006543300000000005573983400000000000000009999123100000010000000000000BRVAMOACNOR7105
012024082002WLMM4       010WLM IND COM PN  EJ       R$  000000000320100000000035000000000003201000000000338000000000035000000000003000000000000400000009000000000000000900000000000003042400000000000000009999123100000010000000000000BRWLMMACNPR3119
012024082007TXRX4       010TEX RENAUX  PN           R$  000000000023800000000002380000000000238000000000023800000000002380000000000230000000000023900006000000000000000600000000000000142800000000000000009999123100000010000000000000BRTXRXACNPR0142
012024082007NUTR3       010NUTRIPLANT  ON      MA   R$  000000000050100000000005080000000000474000000000048600000000004770000000000475000000000048500057000000000000014500000000000007053500000000000000009999123100000010000000000000BRNUTRACNOR0104
012024082008CTSA3       010SANTANENSE  ON           R$  000000000026700000000002880000000000267000000000027100000000002880000000000279000000000028500009000000000000003500000000000000951200000000000000009999123100000010000000000000BRCTSAACNOR3062
012024082008CTSA4       010SANTANENSE  PN           R$  000000000013000000000001370000000000130000000000013400000000001360000000000134000000000013700126000000000000029800000000000003995900000000000000009999123100000010000000000000BRCTSAACNPR0062
012024082008JFEN3       010JOAO FORTES ON           R$  000000000002200000000000270000000000021000000000002400000000000240000000000023000000000002400881000000000006652900000000000166110900000000000000009999123100000010000000000000BRJFENACNOR0059
012024082008PMAM3       010PARANAPANEMAON      NM   R$  000000000020100000000002080000000000201000000000020300000000002080000000000203000000000020800753000000000000170100000000000034554800000000000000009999123100000010000000000000BRPMAMACNOR3039
012024082008RPMG3       010PET MANGUINHON           R$  000000000027800000000002830000000000273000000000027600000000002760000000000276000000000027700131000000000000034200000000000009472300000000000000009999123100000010000000000000BRRPMGACNOR9194
012024082008LIGT3       010LIGHT S/A   ON      NM   R$  000000000059000000000006930000000000580000000000063900000000006300000000000629000000000063011288000000000004760300000000003044129800000000000000009999123100000010000000000000BRLIGTACNOR2124
012024082008RNEW11      010RENOVA      UNT     N2   R$  000000000029200000000002920000000000290000000000029000000000002900000000000288000000000029500005000000000000000800000000000000232400000000000000009999123100000010000000000000BRRNEWCDAM15110
012024082008RNEW3       010RENOVA      ON      N2   R$  000000000010000000000001010000000000096000000000009900000000001000000000000100000000000010100151000000000000136000000000000013510400000000000000009999123100000010000000000000BRRNEWACNOR8110
012024082008RNEW4       010RENOVA      PN      N2   R$  000000000009700000000000990000000000094000000000009600000000000960000000000096000000000009700159000000000000115900000000000011150900000000000000009999123100000010000000000000BRRNEWACNPR5110
012024082008TEKA4       010TEKA        PN           R$  000000000300000000000030000000000002810000000000293600000000028100000000002780000000000306000002000000000000000300000000000000881000000000000000009999123100000010000000000000BRTEKAACNPR3140
012024082008NEXP3       010NEXPE       ON           R$  000000000041500000000004150000000000415000000000041500000000004150000000000404000000000040900001000000000000000100000000000000041500000000000000009999123100000010000000000000BRNEXPACNOR0101
012024082008ATMP3       010ATMASA      ON           R$  000000000014500000000001460000000000128000000000013200000000001280000000000127000000000012800184000000000000168200000000000022211000000000000000009999123100000010000000000000BRATMPACNOR8100
012024082008AMER3       010AMERICANAS  ON      NM   R$  000000000001000000000000110000000000009000000000000900000000000090000000000009000000000001015715000000000307460400000000003033688500000000000000009999123100000010000000000000BRAMERACNOR6102
012024082008OIBR3       010OI          ON      N1   R$  000000000044300000000004530000000000440000000000044400000000004530000000000451000000000045300639000000000000463200000000000206115100000000000000009999123100000010000000000000BROIBRACNOR1111
012024082008OIBR4       010OI          PN      N1   R$  000000000121200000000012740000000001212000000000124000000000012390000000001238000000000125200029000000000000003000000000000003720000000000000000009999123100000010000000000000BROIBRACNPR8110
012024082008OSXB3       010OSX BRASIL  ON      NM   R$  000000000038700000000003900000000000379000000000038600000000003830000000000381000000000038300034000000000000020300000000000007836700000000000000009999123100000010000000000000BROSXBACNOR8109
012024082008RSID3       010ROSSI RESID ON      NM   R$  000000000039900000000003990000000000380000000000039000000000003990000000000384000000000039900385000000000000055300000000000021570400000000000000009999123100000010000000000000BRRSIDACNOR8120
012024082010GFSA1       010GAFISA      DIR ORD NM   R$  000000000000300000000000040000000000002000000000000200000000000030000000000002000000000000300960000000000003161600000000000009083200000000000000009999123100000010000000000000BRGFSAD11OR7124
012024082010ZAMP1       010ZAMP S.A.   DIR ORD      R$  000000000000800000000000080000000000006000000000000700000000000080000000000007000000000000800711000000000001062000000000000007939700000000000000009999123100000010000000000000BRZAMPD01OR0100
012024082010PDGR95      010PDG REALT   DIR     NM   R$  000000000000100000000000010000000000001000000000000100000000000010000000000000000000000000100031000000000000005873000000000000005873000000000000009999123100000010000000000000BRPDGRD03M17100
012024082010RENT9       010LOCALIZA    ON  REC NM   R$  000000000433900000000043390000000004310000000000431100000000043100000000000000000000000000000005000000000000001500000000000006467900000000000000009999123100000010000000000000BRRENTR06OR8195
012024082012CPFF11      010FII CAP REITCI           R$  000000000716200000000072000000000007161000000000716800000000072000000000007163000000000719900254000000000000001908000000000013678144000000000000009999123100000010000000000000BRCPFFCTF000158
012024082012CPLG11      010FII CPLG    CI           R$  000000000106000000000010600000000001060000000000106000000000010600000000000990000000000106000003000000000000000020000000000000021200000000000000009999123100000010000000000000BRCPLGCTF006100
012024082012CPSH11      010FII CPSH    CI  ER       R$  000000000106400000000010650000000001053000000000105600000000010600000000001056000000000106000596000000000000024756000000000026163696000000000000009999123100000010000000000000BRCPSHCTF017116
012024082012CPTS11      010FII CAPI SECCI  ER       R$  000000000083700000000008390000000000826000000000083200000000008330000000000833000000000083421403000000000001321237000000001099396647000000000000009999123100000010000000000000BRCPTSCTF004233
012024082012CTXT11      010FII C TEXTILCI           R$  000000000081000000000008150000000000796000000000080300000000008130000000000795000000000081400022000000000000000098000000000000078774000000000000009999123100000010000000000000BRCTXTCTF014207
012024082012CVBI11      010FII VBI CRI CI  ER       R$  000000000932500000000093700000000009280000000000933200000000093510000000009351000000000936803449000000000000018610000000000173669614000000000000009999123100000010000000000000BRCVBICTF001168
012024082012CRFF11      010FII CX RBRA2CI           R$  000000000773000000000077300000000007730000000000773000000000077300000000007730000000000793200002000000000000000015000000000000115950000000000000009999123100000010000000000000BRCRFFCTF006163
012024082012EDGA11      010FII GALERIA CI           R$  000000000191300000000019130000000001883000000000189200000000019000000000001886000000000191300018000000000000000321000000000000607551000000000000009999123100000010000000000000BREDGACTF001243
012024082012EGYR11      010FII ENERGY  CI           R$  000000000039400000000004060000000000385000000000039800000000004060000000000406000000000040700030000000000000000463000000000000184311000000000000009999123100000010000000000000BREGYRCTF001102
012024082012HGBL11      010FII HGBL    CI           R$  000000000101300000000010210000000001010000000000101400000000010180000000001005000000000101800092000000000000011616000000000011782436000000000000009999123100000010000000000000BRHGBLCTF005107
012024082012HGBS11      010FII HEDGEBS CI           R$  000000002137600000000213880000000021200000000002129000000000212890000000021288000000002128905877000000000000016551000000000352382027000000000000009999123100000010000000000000BRHGBSCTF000312
012024082012HGCR11      010FII HGCR PAXCI           R$  000000001032500000000103250000000010293000000001030400000000103150000000010315000000001032203978000000000000022520000000000232064541000000000000009999123100000010000000000000BRHGCRCTF000248
012024082012HGFF11      010FII HGFF PAXCI           R$  000000000855000000000086000000000008513000000000854600000000085650000000008565000000000859900426000000000000002763000000000023614546000000000000009999123100000010000000000000BRHGFFCTF008162
012024082012HGIC11      010FII HGI CRI CI           R$  000000000990000000000099000000000009492000000000971400000000097150000000009456000000000989800014000000000000000039000000000000378877000000000000009999123100000010000000000000BRHGICCTF009142
012024082012HGLG11      010FII HGLG PAXCI           R$  000000001615500000000161980000000016103000000001613900000000161480000000016148000000001619606669000000000000036308000000000586010931000000000000009999123100000010000000000000BRHGLGCTF004273
012024082012HGPO11      010FII HGPO PAXCI           R$  000000003005900000000301840000000030001000000003004300000000300120000000030012000000003007800196000000000000001602000000000048129268000000000000009999123100000010000000000000BRHGPOCTF009163
012024082012HGRE11      010FII HGRE PAXCI           R$  000000001148000000000115790000000011475000000001150900000000115100000000011509000000001151001585000000000000010238000000000117832960000000000000009999123100000010000000000000BRHGRECTF006294
012024082012HGRU11      010FII HGRU PAXCI           R$  000000001273600000000127670000000012718000000001273100000000127300000000012723000000001273003608000000000000021986000000000279909577000000000000009999123100000010000000000000BRHGRUCTF002179
012024082012JCCJ11      010FII JHSF CJ CI  ER       R$  000000001599900000000159990000000014000000000001426900000000147000000000014001000000001470000027000000000000000618000000000008818288000000000000009999123100000010000000000000BRJCCJCTF002113
012024082012JFLL11      010FII JFL LIV CI           R$  000000000709800000000071000000000007001000000000702500000000070430000000007007000000000705500118000000000000001640000000000011522460000000000000009999123100000010000000000000BRJFLLCTF002142
012024082012FPNG11      010FII P NEGRA CI           R$  000000002030000000000203000000000020300000000002030000000000203000000000009002000000000000000002000000000000000008000000000000162400000000000000009999123100000010000000000000BRFPNGCTF005191
012024082012FVPQ11      010FII V PARQUECI           R$  000000000712000000000071210000000007043000000000705800000000070430000000007043000000000706800572000000000000001962000000000013848408000000000000009999123100000010000000000000BRFVPQCTF015261
012024082012GAME11      010FII GUARD MUCI  ER       R$  000000000091500000000009160000000000906000000000091000000000009090000000000909000000000091000408000000000000016127000000000014679377000000000000009999123100000010000000000000BRGAMECTF002134
012024082012FIGS11      010FII GEN SHOPCI           R$  000000000543800000000054690000000005399000000000540900000000054290000000005429000000000543100235000000000000007657000000000041417137000000000000009999123100000010000000000000BRFIGSCTF009230
012024082012FIIB11      010FII INDL BR CI           R$  000000005050100000000507500000000050500000000005060800000000506000000000050550000000005060000065000000000000000250000000000012652037000000000000009999123100000010000000000000BRFIIBCTF001253
012024082012FIIP11B     010FII RB CAP ICI      MB   R$  000000001719900000000174950000000017027000000001719000000000171990000000017029000000001720000188000000000000001707000000000029344437000000000000009999123100000010000000000000BRFIIPCTF001276
012024082012FISC11      010FII SC 401  CI           R$  000000000610000000000061000000000006100000000000610000000000061000000000006072000000000610000005000000000000000010000000000000061000000000000000009999123100000010000000000000BRFISCCTF008138
012024082012FIVN11      010FII VIDANOVACI           R$  000000000027800000000002780000000000277000000000027700000000002780000000000278000000000028300012000000000000000131000000000000036393000000000000009999123100000010000000000000BRFIVNCTF009100
012024082012FLCR11      010FII FL RECEBCI           R$  000000000980000000000098000000000009765000000000977500000000097760000000009776000000000977700032000000000000000143000000000001397863000000000000009999123100000010000000000000BRFLCRCTF004144
012024082012FLMA11      010FII S F LIMACI           R$  000000001413000000000141300000000014101000000001412600000000141290000000014128000000001412900046000000000000000251000000000003545829000000000000009999123100000010000000000000BRFLMACTF009344
012024082012FLRP11      010FII FLORIPA CI           R$  000000020160100000002016010000000201601000000020160100000002016010000000202000000000020978700001000000000000000001000000000000201601000000000000009999123100000010000000000000BRFLRPCTF006273
012024082012FMOF11      010FII MEMORIALCI           R$  000000000479900000000048000000000004799000000000479900000000047990000000004680000000000479900003000000000000000003000000000000014398000000000000009999123100000010000000000000BRFMOFCTF010258
012024082012AFHI11      010FII AFHI CRICI  ER       R$  000000000967400000000096740000000009650000000000965700000000096510000000009651000000000965900947000000000000008157000000000078778225000000000000009999123100000010000000000000BRAFHICTF005145
012024082012AIEC11      010FII AUTONOMYCI           R$  000000000559800000000056390000000005575000000000560500000000056130000000005612000000000561300384000000000000008332000000000046708840000000000000009999123100000010000000000000BRAIECCTF009147
012024082012AJFI11      010FII AJ MALLSCI           R$  000000000083000000000008690000000000826000000000084200000000008690000000000852000000000086903358000000000000128144000000000107996093000000000000009999123100000010000000000000BRAJFICTF001109
