00COTAHIST.2024BOVESPA 20240827                                                                                                                                                                                                                      
012024082702USIM3       010USIMINAS    ON      N1   R$  000000000064700000000006490000000000630000000000063500000000006330000000000631000000000063300645000000000000216700000000000137646600000000000000009999123100000010000000000000BRUSIMACNOR3167
012024082702USIM5       010USIMINAS    PNA     N1   R$  000000000066200000000006660000000000646000000000065200000000006460000000000646000000000064713831000000000011763900000000007679279700000000000000009999123100000010000000000000BRUSIMACNPA6169
012024082702VIVR3       010VIVER       ON      NM   R$  000000000024900000000002520000000000247000000000024900000000002490000000000249000000000025200079000000000000020600000000000005149000000000000000009999123100000010000000000000BRVIVRACNOR4123
012024082702VIVT3       010TELEF BRASILON  EJ       R$  000000000522200000000052390000000005175000000000519400000000051940000000005191000000000519409000000000000001680900000000008731290300000000000000009999123100000010000000000000BRVIVTACNOR0184
012024082702VLID3       010VALID       ON      NM   R$  000000000223900000000022670000000002166000000000219300000000021750000000002174000000000217502517000000000000381400000000000836531200000000000000009999123100000010000000000000BRVLIDACNOR5144
012024082702GMAT3       010GRUPO MATEUSON      NM   R$  000000000079700000000008200000000000797000000000081300000000008140000000000813000000000081505474000000000002394600000000001949166800000000000000009999123100000010000000000000BRGMATACNOR7102
012024082702GOAU3       010GERDAU MET  ON      N1   R$  000000000108900000000010930000000001061000000000107100000000010640000000001064000000000107000162000000000000041700000000000044665200000000000000009999123100000010000000000000BRGOAUACNOR1268
012024082702GOAU4       010GERDAU MET  PN      N1   R$  000000000106200000000010640000000001047000000000105100000000010470000000001047000000000104806628000000000004695400000000004938469600000000000000009999123100000010000000000000BRGOAUACNPR8269
012024082702JALL3       010JALLESMACHADON      NM   R$  000000000070200000000007020000000000675000000000068500000000006820000000000682000000000068501263000000000000431900000000000295876500000000000000009999123100000010000000000000BRJALLACNOR0106
012024082702JBSS3       010JBS         ON  ED  NM   R$  000000000351200000000035350000000003493000000000350700000000034980000000003497000000000349919294000000000005210000000000018273996800000000000000009999123100000010000000000000BRJBSSACNOR8122
012024082702MRFG3       010MARFRIG     ON      NM   R$  000000000144200000000014750000000001418000000000145300000000014610000000001461000000000146211850000000000004457000000000006478547600000000000000009999123100000010000000000000BRMRFGACNOR0116
012024082702MRVE3       010MRV         ON      NM   R$  000000000075100000000007830000000000745000000000077100000000007750000000000775000000000077616179000000000014598500000000011264572700000000000000009999123100000010000000000000BRMRVEACNOR2127
012024082702AALR3       010ALLIAR      ON      NM   R$  000000000152500000000015750000000001522000000000153700000000015630000000001551000000000156300090000000000000028900000000000044444500000000000000009999123100000010000000000000BRAALRACNOR6102
012024082702ABCB4       010ABC BRASIL  PN      N2   R$  000000000235600000000023600000000002302000000000231400000000023030000000002303000000000230502781000000000000543200000000001256983200000000000000009999123100000010000000000000BRABCBACNPR4146
012024082702ABEV3       010AMBEV S/A   ON           R$  000000000130200000000013120000000001295000000000130300000000013030000000001303000000000130827486000000000022335000000000029107128700000000000000009999123100000010000000000000BRABEVACNOR1128
012024082702BRIT3       010BRISANET    ON      NM   R$  000000000036100000000003650000000000353000000000035900000000003610000000000359000000000036100570000000000000526300000000000189321400000000000000009999123100000010000000000000BRBRITACNOR0103
012024082702BRKM3       010BRASKEM     ON      N1   R$  000000000178700000000018080000000001780000000000179100000000017990000000001781000000000180000081000000000000011600000000000020779700000000000000009999123100000010000000000000BRBRKMACNOR1119
012024082702BRKM5       010BRASKEM     PNA     N1   R$  000000000178000000000018090000000001774000000000179100000000017790000000001779000000000178005616000000000001674200000000003000118800000000000000009999123100000010000000000000BRBRKMACNPA4121
012024082702BRSR3       010BANRISUL    ON      N1   R$  000000000136100000000013780000000001350000000000135400000000013540000000001354000000000135600081000000000000010900000000000014769300000000000000009999123100000010000000000000BRBRSRACNOR3188
012024082702BRSR6       010BANRISUL    PNB     N1   R$  000000000126500000000012780000000001249000000000125600000000012570000000001254000000000125806452000000000001847100000000002321470200000000000000009999123100000010000000000000BRBRSRACNPB4191
012024082702BSLI4       010BRB BANCO   PN           R$  000000000093800000000009550000000000936000000000094600000000009550000000000940000000000098600007000000000000001200000000000001135400000000000000009999123100000010000000000000BRBSLIACNPR2194
012024082702FRAS3       010FRAS-LE     ON      N1   R$  000000000195700000000019600000000001933000000000195000000000019570000000001947000000000195802858000000000001210800000000002361472400000000000000009999123100000010000000000000BRFRASACNOR0160
012024082702FRIO3       010METALFRIO   ON      NM   R$  000000001700100000000170500000000016550000000001704600000000165500000000016007000000001809500005000000000000021400000000000364805100000000000000009999123100000010000000000000BRFRIOACNOR2111
012024082702GEPA3       010GER PARANAP ON           R$  000000000254500000000025450000000002501000000000251500000000025010000000002550000000000264500002000000000000000300000000000000754700000000000000009999123100000010000000000000BRGEPAACNOR2153
012024082702GEPA4       010GER PARANAP PN           R$  000000000264000000000026450000000002640000000000264200000000026450000000002625000000000264500003000000000000000300000000000000792800000000000000009999123100000010000000000000BRGEPAACNPR9160
012024082702GFSA3       010GAFISA      ON      NM   R$  000000000028700000000002960000000000285000000000029000000000002920000000000292000000000029302158000000000002593300000000000753970600000000000000009999123100000010000000000000BRGFSAACNOR3125
012024082702GGBR3       010GERDAU      ON      N1   R$  000000000161100000000016240000000001605000000000161300000000016050000000001603000000000160500157000000000000021300000000000034376000000000000000009999123100000010000000000000BRGGBRACNOR1193
012024082702GGBR4       010GERDAU      PN      N1   R$  000000000184700000000018470000000001827000000000183300000000018270000000001827000000000182811997000000000005575800000000010224722000000000000000009999123100000010000000000000BRGGBRACNPR8193
012024082702MILS3       010MILLS       ON  EDJ NM   R$  000000000111100000000011220000000001109000000000111400000000011140000000001114000000000111602471000000000000554900000000000618342800000000000000009999123100000010000000000000BRMILSACNOR2128
012024082702MLAS3       010MULTILASER  ON      NM   R$  000000000019700000000001990000000000193000000000019400000000001930000000000193000000000019403625000000000002043300000000000398056200000000000000009999123100000010000000000000BRMLASACNOR9101
012024082702MNDL3       010MUNDIAL     ON           R$  000000000110500000000011320000000001101000000000112900000000011320000000001132000000000113800006000000000000008100000000000009148300000000000000009999123100000010000000000000BRMNDLACNOR4109
012024082702MNPR3       010MINUPAR     ON           R$  000000000151900000000015780000000001519000000000156100000000015780000000001535000000000157900010000000000000003600000000000005621200000000000000009999123100000010000000000000BRMNPRACNOR5122
012024082702MOVI3       010MOVIDA      ON      NM   R$  000000000074200000000007680000000000742000000000075900000000007590000000000757000000000076006488000000000002861400000000002173617900000000000000009999123100000010000000000000BRMOVIACNOR0122
012024082702RADL3       010RAIADROGASILON      NM   R$  000000000277900000000027790000000002739000000000275800000000027680000000002768000000000276915640000000000008015700000000022114875700000000000000009999123100000010000000000000BRRADLACNOR0157
012024082702SMFT3       010SMART FIT   ON      NM   R$  000000000229900000000023340000000002292000000000231600000000023310000000002323000000000233108604000000000001728100000000004002714600000000000000009999123100000010000000000000BRSMFTACNOR1112
012024082702SUZB3       010SUZANO S.A. ON      NM   R$  000000000553000000000055800000000005480000000000554500000000055620000000005562000000000556517151000000000004179300000000023175281700000000000000009999123100000010000000000000BRSUZBACNOR0130
012024082702SMTO3       010SAO MARTINHOON      NM   R$  000000000305300000000030530000000002906000000000294600000000029340000000002933000000000293410902000000000002755100000000008117367500000000000000009999123100000010000000000000BRSMTOACNOR3127
012024082702PRNR3       010PRINER      ON      NM   R$  000000000138700000000014140000000001377000000000138900000000013850000000001385000000000138800971000000000000247900000000000344378700000000000000009999123100000010000000000000BRPRNRACNOR4109
012024082702PSSA3       010PORTO SEGUROON      NM   R$  000000000339700000000034320000000003381000000000339300000000033890000000003386000000000339006057000000000001200900000000004074875300000000000000009999123100000010000000000000BRPSSAACNOR7155
012024082702PTBL3       010PORTOBELLO  ON      NM   R$  000000000050800000000005140000000000502000000000050600000000005110000000000506000000000051100786000000000000265200000000000134427800000000000000009999123100000010000000000000BRPTBLACNOR8132
012024082702PTNT3       010PETTENATI   ON           R$  000000000092300000000009470000000000923000000000093400000000009420000000000868000000000093500006000000000000001000000000000000934100000000000000009999123100000010000000000000BRPTNTACNOR6042
012024082702PTNT4       010PETTENATI   PN           R$  000000000066900000000007330000000000669000000000069200000000006850000000000681000000000070000084000000000000024200000000000016757500000000000000009999123100000010000000000000BRPTNTACNPR3047
012024082702SANB11      010SANTANDER BRUNT          R$  000000000311900000000031380000000003106000000000312200000000031180000000003118000000000312004430000000000002084600000000006508413900000000000000009999123100000010000000000000BRSANBCDAM13165
012024082702SANB3       010SANTANDER BRON           R$  000000000149400000000015000000000001476000000000149000000000014950000000001478000000000149500455000000000000066200000000000098667400000000000000009999123100000010000000000000BRSANBACNOR8172
012024082702UNIP3       010UNIPAR      ON           R$  000000000480900000000048210000000004782000000000480000000000047870000000004782000000000483000046000000000000011500000000000055205000000000000000009999123100000010000000000000BRUNIPACNOR7206
012024082702UNIP5       010UNIPAR      PNA          R$  000000000490000000000049000000000004900000000000490000000000049000000000004813000000000499600002000000000000000900000000000004410000000000000000009999123100000010000000000000BRUNIPACNPA0208
012024082702UNIP6       010UNIPAR      PNB          R$  000000000486000000000048950000000004840000000000486800000000048650000000004865000000000487401053000000000000188000000000000915334200000000000000009999123100000010000000000000BRUNIPACNPB8206
012024082702BEEF3       010MINERVA     ON      NM   R$  000000000077600000000007890000000000769000000000077700000000007790000000000779000000000078109791000000000007471700000000005810241800000000000000009999123100000010000000000000BRBEEFACNOR6116
012024082702BEES3       010BANESTES    ON           R$  000000000090300000000009030000000000899000000000090000000000009000000000000899000000000090000045000000000000007000000000000006303300000000000000009999123100000010000000000000BRBEESACNOR9394
012024082702BEES4       010BANESTES    PN           R$  000000000098000000000009820000000000975000000000097900000000009760000000000976000000000098500014000000000000002900000000000002839800000000000000009999123100000010000000000000BRBEESACNPR6319
012024082702BPAN4       010BANCO PAN   PN      N1   R$  000000000102900000000010350000000001003000000000101100000000010080000000001008000000000101005442000000000001492300000000001509980800000000000000009999123100000010000000000000BRBPANACNPR1115
012024082702LUXM4       010TREVISA     PN           R$  000000000139500000000013960000000001395000000000139500000000013960000000001321000000000140000004000000000000000900000000000001256300000000000000009999123100000010000000000000BRLUXMACNPR4052
012024082702LVTC3       010WDC NETWORKSON      NM   R$  000000000037700000000003880000000000377000000000038200000000003820000000000379000000000038000025000000000000003700000000000001416100000000000000009999123100000010000000000000BRLVTCACNOR4102
012024082702LWSA3       010LWSA        ON      NM   R$  000000000047800000000004830000000000466000000000047200000000004750000000000475000000000047806466000000000011066900000000005232988200000000000000009999123100000010000000000000BRLWSAACNOR8103
012024082702PDGR3       010PDG REALT   ON      NM   R$  000000000001700000000000170000000000016000000000001600000000000170000000000016000000000001700248000000000000386200000000000006490600000000000000009999123100000010000000000000BRPDGRACNOR8119
012024082702PDTC3       010PADTEC      ON      NM   R$  000000000021500000000002450000000000203000000000022500000000002060000000000205000000000020600597000000000000493000000000000111314500000000000000009999123100000010000000000000BRPDTCACNOR3101
012024082702PETR3       010PETROBRAS   ON  EDJ N2   R$  000000000425200000000042840000000004222000000000424700000000042330000000004232000000000423816106000000000008170200000000034705188700000000000000009999123100000010000000000000BRPETRACNOR9206
012024082702PETR4       010PETROBRAS   PN  EDJ N2   R$  000000000392500000000039370000000003895000000000391200000000039040000000003904000000000390550614000000000034871100000000136437042500000000000000009999123100000010000000000000BRPETRACNPR6214
012024082702AZZA3       010AZZAS 2154  ON      NM   R$  000000000526100000000054180000000005201000000000534300000000053800000000005380000000000538207575000000000001511000000000008074437800000000000000009999123100000010000000000000BRAZZAACNOR9100
012024082702SAPR11      010SANEPAR     UNT     N2   R$  000000000285100000000028620000000002824000000000284200000000028400000000002840000000000284205804000000000001196600000000003401135300000000000000009999123100000010000000000000BRSAPRCDAM13118
012024082702SAPR3       010SANEPAR     ON      N2   R$  000000000054500000000005450000000000537000000000054000000000005440000000000541000000000054400413000000000000180900000000000097723100000000000000009999123100000010000000000000BRSAPRACNOR9159
012024082702SAPR4       010SANEPAR     PN      N2   R$  000000000057500000000005760000000000569000000000057100000000005730000000000572000000000057304594000000000001736500000000000992996300000000000000009999123100000010000000000000BRSAPRACNPR6159
012024082702SBFG3       010GRUPO SBF   ON      NM   R$  000000000174000000000017630000000001720000000000175000000000017630000000001745000000000176305924000000000001067200000000001868328000000000000000009999123100000010000000000000BRSBFGACNOR1103
012024082702SBSP3       010SABESP      ON      NM   R$  000000000965000000000096870000000009571000000000962100000000096200000000009615000000000962012992000000000002430800000000023389142700000000000000009999123100000010000000000000BRSBSPACNOR5161
012024082702VALE3       010VALE        ON      NM   R$  000000000597000000000060140000000005909000000000597300000000059800000000005979000000000598067553000000000035232600000000210465208000000000000000009999123100000010000000000000BRVALEACNOR0211
012024082702BBSE3       010BBSEGURIDADEON  ED  NM   R$  000000000367500000000036820000000003648000000000366700000000036640000000003663000000000367109415000000000001700500000000006236974900000000000000009999123100000010000000000000BRBBSEACNOR5125
012024082702ODPV3       010ODONTOPREV  ON  ED  NM   R$  000000000116700000000011670000000001149000000000115300000000011490000000001149000000000115702868000000000000681100000000000785929800000000000000009999123100000010000000000000BRODPVACNOR4203
012024082702OFSA3       010OUROFINO S/AON      NM   R$  000000000223600000000022890000000002235000000000227500000000022890000000002037000000000229000008000000000000000800000000000001820500000000000000009999123100000010000000000000BROFSAACNOR7118
012024082702ONCO3       010ONCOCLINICASON      NM   R$  000000000064300000000006640000000000637000000000065000000000006570000000000655000000000065705186000000000003375600000000002197213700000000000000009999123100000010000000000000BRONCOACNOR6101
012024082702OPCT3       010OCEANPACT   ON      NM   R$  000000000063200000000006550000000000630000000000064800000000006460000000000645000000000064603128000000000000685400000000000444718800000000000000009999123100000010000000000000BROPCTACNOR0100
012024082702ORVR3       010ORIZON      ON      NM   R$  000000000468300000000046900000000004526000000000458900000000046440000000004643000000000464403514000000000000582400000000002672843900000000000000009999123100000010000000000000BRORVRACNOR0101
012024082702BPAC11      010BTGP BANCO  UNT     N2   R$  000000000362000000000036340000000003602000000000361200000000036030000000003602000000000360715545000000000004342000000000015686271000000000000000009999123100000010000000000000BRBPACUNT006119
012024082702BPAC3       010BTGP BANCO  ON      N2   R$  000000000168100000000016900000000001669000000000167600000000016770000000001660000000000169800009000000000000001100000000000001844100000000000000009999123100000010000000000000BRBPACACNOR7134
012024082702BPAC5       010BTGP BANCO  PNA     N2   R$  000000000095700000000009620000000000950000000000095300000000009500000000000948000000000095100011000000000000001400000000000001334300000000000000009999123100000010000000000000BRBPACACNPA0134
012024082702COCE5       010COELCE      PNA          R$  000000000314000000000031560000000003094000000000311700000000030940000000003094000000000316300097000000000000015000000000000046762800000000000000009999123100000010000000000000BRCOCEACNPA3147
012024082702COGN3       010COGNA ON    ON  ATZ NM   R$  000000000014400000000001450000000000141000000000014200000000001430000000000142000000000014317640000000000024817300000000003536778700000000000000009999123100000010000000000000BRCOGNACNOR2105
012024082702IFCM3       010INFRACOMM   ON      NM   R$  000000000001500000000000180000000000015000000000001600000000000180000000000017000000000001803595000000000014419000000000000240633700000000000000009999123100000010000000000000BRIFCMACNOR8101
012024082702LOGN3       010LOG-IN      ON      NM   R$  000000000369100000000036910000000003650000000000366400000000036500000000003650000000000368000040000000000000006700000000000024553000000000000000009999123100000010000000000000BRLOGNACNOR3105
012024082702LPSB3       010LOPES BRASILON      NM   R$  000000000017800000000001780000000000175000000000017500000000001760000000000175000000000017700178000000000000163800000000000028826500000000000000009999123100000010000000000000BRLPSBACNOR0114
012024082702PATI3       010PANATLANTICAON           R$  000000000399300000000040900000000003900000000000400500000000040250000000003850000000000410500022000000000000002800000000000011214600000000000000009999123100000010000000000000BRPATIACNOR6065
012024082702PCAR3       010P.ACUCAR-CBDON      NM   R$  000000000032300000000003320000000000321000000000032500000000003280000000000327000000000032804537000000000008490700000000002766764400000000000000009999123100000010000000000000BRPCARACNOR3167
012024082702PLPL3       010PLANOEPLANO ON      NM   R$  000000000121200000000013020000000001206000000000126300000000012750000000001275000000000128206848000000000001911800000000002415846400000000000000009999123100000010000000000000BRPLPLACNOR5104
012024082702PNVL3       010DIMED       ON      NM   R$  000000000104300000000010600000000001043000000000105100000000010540000000001045000000000105401385000000000000260400000000000273875300000000000000009999123100000010000000000000BRPNVLACNOR9207
012024082702POMO3       010MARCOPOLO   ON      N2   R$  000000000054900000000005490000000000524000000000053700000000005450000000000541000000000054501473000000000000626900000000000336652800000000000000009999123100000010000000000000BRPOMOACNOR0098
012024082702POMO4       010MARCOPOLO   PN      N2   R$  000000000070200000000007020000000000660000000000067700000000006870000000000686000000000068717883000000000012873600000000008721680300000000000000009999123100000010000000000000BRPOMOACNPR7098
012024082702PORT3       010WILSON SONS ON      NM   R$  000000000177500000000017750000000001734000000000174600000000017500000000001745000000000175102302000000000000590000000000001030325900000000000000009999123100000010000000000000BRPORTACNOR8109
012024082702POSI3       010POSITIVO TECON      NM   R$  000000000068000000000006810000000000668000000000067200000000006710000000000671000000000067402865000000000001643400000000001104700000000000000000009999123100000010000000000000BRPOSIACNOR9116
012024082702LREN3       010LOJAS RENNERON      NM   R$  000000000177600000000018450000000001770000000000181600000000018350000000001830000000000183839750000000000024390600000000044310845000000000000000009999123100000010000000000000BRLRENACNOR1221
012024082702APER3       010ALPER S.A.  ON           R$  000000000462000000000046600000000004620000000000464500000000046450000000004645000000000465900015000000000000003200000000000014865300000000000000009999123100000010000000000000BRAPERACNOR9106
012024082702ARML3       010ARMAC       ON      NM   R$  000000000096500000000009680000000000930000000000094400000000009300000000000929000000000093503425000000000000822000000000000776173900000000000000009999123100000010000000000000BRARMLACNOR1112
012024082702ASAI3       010ASSAI       ON      NM   R$  000000000097000000000009760000000000953000000000096600000000009710000000000970000000000097115942000000000013138100000000012691877900000000000000009999123100000010000000000000BRASAIACNOR0106
012024082702ATOM3       010ATOMPAR     ON           R$  000000000021100000000002110000000000201000000000020700000000002070000000000203000000000020700051000000000000017100000000000003556700000000000000009999123100000010000000000000BRATOMACNOR1106
012024082702AURE3       010AUREN       ON      NM   R$  000000000115500000000011600000000001144000000000114800000000011440000000001144000000000114606177000000000003243300000000003725163800000000000000009999123100000010000000000000BRAUREACNOR9104
012024082702AVLL3       010ALPHAVILLE  ON      NM   R$  000000000040100000000004020000000000381000000000039500000000004020000000000395000000000040200008000000000000000800000000000000316700000000000000009999123100000010000000000000BRAVLLACNOR5103
012024082702AZEV3       010AZEVEDO     ON           R$  000000000014300000000001440000000000139000000000014000000000001410000000000141000000000014200497000000000000593400000000000083608200000000000000009999123100000010000000000000BRAZEVACNOR0121
012024082702AZEV4       010AZEVEDO     PN           R$  000000000014400000000001440000000000139000000000014100000000001410000000000140000000000014101296000000000002543400000000000358820600000000000000009999123100000010000000000000BRAZEVACNPR7121
012024082702AZUL4       010AZUL        PN      N2   R$  000000000075900000000007640000000000742000000000074900000000007450000000000745000000000074608773000000000011512800000000008632602100000000000000009999123100000010000000000000BRAZULACNPR4102
012024082702CMIN3       010CSNMINERACAOON      N2   R$  000000000056500000000005780000000000559000000000057000000000005690000000000569000000000057109745000000000012477000000000007123678200000000000000009999123100000010000000000000BRCMINACNOR2111
012024082702EGIE3       010ENGIE BRASILON  ED  NM   R$  000000000450000000000045280000000004472000000000449100000000044720000000004472000000000448904366000000000000866200000000003890197800000000000000009999123100000010000000000000BREGIEACNOR9127
012024082702EKTR4       010ELEKTRO     PN           R$  000000000427900000000043000000000004246000000000428300000000043000000000004300000000000431500007000000000000001300000000000005569000000000000000009999123100000010000000000000BREKTRACNPR7164
012024082702ELET3       010ELETROBRAS  ON      N1   R$  000000000418800000000042320000000004140000000000417200000000041400000000004140000000000416015630000000000004275300000000017838250400000000000000009999123100000010000000000000BRELETACNOR6160
012024082702ELET6       010ELETROBRAS  PNB     N1   R$  000000000464900000000046730000000004591000000000461500000000045910000000004590000000000461202898000000000000579300000000002673754700000000000000009999123100000010000000000000BRELETACNPB7077
012024082702HETA4       010HERCULES    PN           R$  000000000052800000000005280000000000528000000000052800000000005280000000000502000000000061600001000000000000000200000000000000105600000000000000009999123100000010000000000000BRHETAACNPR9136
012024082702CEAB3       010CEA MODAS   ON      NM   R$  000000000100200000000010780000000001002000000000104900000000010600000000001060000000000106604527000000000002543500000000002668336300000000000000009999123100000010000000000000BRCEABACNOR1102
012024082702CEBR3       010CEB         ON           R$  000000000199600000000019960000000001979000000000198500000000019860000000001981000000000198700009000000000000000900000000000001786700000000000000009999123100000010000000000000BRCEBRACNOR5125
012024082702CEBR5       010CEB         PNA          R$  000000000166200000000017090000000001662000000000166400000000016640000000001663000000000167000007000000000000003700000000000006160400000000000000009999123100000010000000000000BRCEBRACNPA8124
012024082702CEBR6       010CEB         PNB          R$  000000000180500000000018050000000001763000000000178200000000017730000000001773000000000181000017000000000000004100000000000007307000000000000000009999123100000010000000000000BRCEBRACNPB6124
012024082702CEDO4       010CEDRO       PN      N1   R$  000000000245800000000024580000000002458000000000245800000000024580000000002458000000000250800001000000000000000200000000000000491600000000000000009999123100000010000000000000BRCEDOACNPR5128
012024082702CEEB3       010COELBA      ON           R$  000000000393100000000039310000000003920000000000392100000000039200000000003920000000000395000009000000000000002700000000000010587100000000000000009999123100000010000000000000BRCEEBACNOR3199
012024082702CGAS5       010COMGAS      PNA          R$  000000001161400000000119960000000011614000000001181000000000118200000000011689000000001204700003000000000000000300000000000003543000000000000000009999123100000010000000000000BRCGASACNPA3161
012024082702CGRA3       010GRAZZIOTIN  ON           R$  000000000257000000000025740000000002570000000000257200000000025740000000002529000000000257400002000000000000000200000000000000514400000000000000009999123100000010000000000000BRCGRAACNOR2083
012024082702CGRA4       010GRAZZIOTIN  PN           R$  000000000257700000000025820000000002561000000000257000000000025800000000002570000000000259900029000000000000004000000000000010281300000000000000009999123100000010000000000000BRCGRAACNPR9083
012024082702CLSA3       010CLEARSALE   ON      NM   R$  000000000071900000000007420000000000707000000000072400000000007120000000000711000000000071203907000000000001365100000000000989257400000000000000009999123100000010000000000000BRCLSAACNOR0100
012024082702CLSC4       010CELESC      PN      N2   R$  000000000780000000000078000000000007760000000000778100000000077850000000007760000000000778500009000000000000000900000000000007003700000000000000009999123100000010000000000000BRCLSCACNPR3131
012024082702CMIG3       010CEMIG       ON  ED  N1   R$  000000000137800000000013820000000001355000000000136400000000013610000000001360000000000136600579000000000000107800000000000147128200000000000000009999123100000010000000000000BRCMIGACNOR6243
012024082702CMIG4       010CEMIG       PN  ED  N1   R$  000000000115000000000011530000000001123000000000113000000000011290000000001129000000000113119131000000000013784000000000015583630200000000000000009999123100000010000000000000BRCMIGACNPR3244
012024082702DASA3       010DASA        ON      NM   R$  000000000033300000000003400000000000329000000000033300000000003330000000000333000000000033601693000000000000690300000000000230000300000000000000009999123100000010000000000000BRDASAACNOR1122
012024082702DESK3       010DESKTOP     ON      NM   R$  000000000152500000000016250000000001525000000000159500000000016150000000001611000000000161501327000000000000520100000000000829890900000000000000009999123100000010000000000000BRDESKACNOR2104
012024082702DEXP3       010DEXXOS PAR  ON      N1   R$  000000000097100000000010030000000000971000000000099000000000009910000000000986000000000099100522000000000000131800000000000130602900000000000000009999123100000010000000000000BRDEXPACNOR1105
012024082702DEXP4       010DEXXOS PAR  PN      N1   R$  000000000095500000000009650000000000955000000000096200000000009600000000000947000000000095900100000000000000042500000000000040924100000000000000009999123100000010000000000000BRDEXPACNPR8105
012024082702DIRR3       010DIRECIONAL  ON      NM   R$  000000000289000000000029120000000002847000000000288500000000029000000000002895000000000290005518000000000001043000000000003009165200000000000000009999123100000010000000000000BRDIRRACNOR0118
012024082702DMVF3       010D1000VFARMA ON      NM   R$  000000000074000000000007500000000000723000000000073200000000007340000000000723000000000073400237000000000000064200000000000047006400000000000000009999123100000010000000000000BRDMVFACNOR9100
012024082702DOHL4       010DOHLER      PN           R$  000000000041500000000004150000000000415000000000041300000000004150000000000411000000000041500002000000000000000200000000000000082600000000000000009999123100000010000000000000BRDOHLACNPR9066
012024082702DOTZ3       010DOTZ SA     ON      NM   R$  000000000078000000000008180000000000780000000000080400000000008180000000000806000000000081800056000000000000011100000000000008924700000000000000009999123100000010000000000000BRDOTZACNOR7101
012024082702DXCO3       010DEXCO       ON      NM   R$  000000000083400000000008450000000000806000000000082200000000008200000000000814000000000082005531000000000002781000000000002287270900000000000000009999123100000010000000000000BRDXCOACNOR8105
012024082702EALT3       010ACO ALTONA  ON           R$  000000000135100000000013940000000001322000000000135800000000013220000000001322000000000137500048000000000000005400000000000007336600000000000000009999123100000010000000000000BREALTACNOR4138
012024082702EALT4       010ACO ALTONA  PN           R$  000000000129100000000012980000000001270000000000128700000000012950000000001281000000000129500089000000000000018200000000000023423700000000000000009999123100000010000000000000BREALTACNPR1138
012024082702ECOR3       010ECORODOVIAS ON      NM   R$  000000000078600000000008220000000000775000000000079900000000008140000000000811000000000081409299000000000005045000000000004032475600000000000000009999123100000010000000000000BRECORACNOR8120
012024082702GRND3       010GRENDENE    ON  ED  NM   R$  000000000061500000000006210000000000611000000000061600000000006170000000000616000000000061702157000000000000602300000000000371223100000000000000009999123100000010000000000000BRGRNDACNOR3175
012024082702GUAR3       010GUARARAPES  ON      NM   R$  000000000086400000000008950000000000859000000000088000000000008920000000000886000000000089202956000000000000821400000000000723059500000000000000009999123100000010000000000000BRGUARACNOR4173
012024082702HAGA3       010HAGA S/A    ON           R$  000000000023900000000002420000000000237000000000023900000000002420000000000237000000000024100012000000000000008100000000000001939700000000000000009999123100000010000000000000BRHAGAACNOR7103
012024082702HAGA4       010HAGA S/A    PN           R$  000000000012100000000001230000000000117000000000011900000000001180000000000118000000000012000056000000000000025300000000000003011700000000000000009999123100000010000000000000BRHAGAACNPR4103
012024082702HAPV3       010HAPVIDA     ON      NM   R$  000000000044500000000004500000000000440000000000044600000000004460000000000446000000000044723115000000000032423400000000014479551000000000000000009999123100000010000000000000BRHAPVACNOR4114
012024082702HBOR3       010HELBOR      ON      NM   R$  000000000021400000000002170000000000212000000000021300000000002160000000000215000000000021600358000000000000258700000000000055357800000000000000009999123100000010000000000000BRHBORACNOR3118
012024082702HBRE3       010HBR REALTY  ON      NM   R$  000000000052400000000005350000000000519000000000052700000000005250000000000525000000000052600493000000000000220000000000000116099100000000000000009999123100000010000000000000BRHBREACNOR4100
012024082702HBSA3       010HIDROVIAS   ON      NM   R$  000000000036000000000003700000000000353000000000035900000000003610000000000360000000000036206985000000000002553600000000000917378100000000000000009999123100000010000000000000BRHBSAACNOR0100
012024082702HBTS5       010HABITASUL   PNA          R$  000000000400000000000040000000000004000000000000400000000000040000000000003900000000000405000001000000000000000100000000000000400000000000000000009999123100000010000000000000BRHBTSACNPA3128
012024082702JHSF3       010JHSF PART   ON      NM   R$  000000000044300000000004450000000000439000000000044100000000004410000000000441000000000044202582000000000001701900000000000751629100000000000000009999123100000010000000000000BRJHSFACNOR2138
012024082702SHOW3       010TIME FOR FUNON      NM   R$  000000000011500000000001180000000000112000000000011500000000001160000000000115000000000011600280000000000000315200000000000036438500000000000000009999123100000010000000000000BRSHOWACNOR7105
012024082702SHUL4       010SCHULZ      PN           R$  000000000066600000000006710000000000656000000000066400000000006650000000000665000000000066600945000000000000220900000000000146898400000000000000009999123100000010000000000000BRSHULACNPR4156
012024082702SIMH3       010SIMPAR      ON      NM   R$  000000000067400000000006890000000000663000000000067100000000006640000000000664000000000066806602000000000003538100000000002375110700000000000000009999123100000010000000000000BRSIMHACNOR0107
012024082702SLCE3       010SLC AGRICOLAON      NM   R$  000000000180500000000018150000000001781000000000179500000000018070000000001806000000000181006247000000000002390400000000004292218600000000000000009999123100000010000000000000BRSLCEACNOR2125
012024082702WEST3       010WESTWING    ON      NM   R$  000000000009200000000000950000000000092000000000009400000000000930000000000093000000000009400042000000000000023000000000000002164400000000000000009999123100000010000000000000BRWESTACNOR3100
012024082702WHRL3       010WHIRLPOOL   ON           R$  000000000043400000000004340000000000434000000000043400000000004340000000000427000000000043400001000000000000000100000000000000043400000000000000009999123100000010000000000000BRWHRLACNOR5128
012024082702WHRL4       010WHIRLPOOL   PN           R$  000000000045100000000004550000000000440000000000044600000000004480000000000449000000000045300028000000000000009100000000000004063200000000000000009999123100000010000000000000BRWHRLACNPR2128
012024082702WIZC3       010WIZ CO      ON      NM   R$  000000000061500000000006160000000000608000000000061100000000006140000000000611000000000061401128000000000000249800000000000152794000000000000000009999123100000010000000000000BRWIZCACNOR5102
012024082702WLMM4       010WLM IND COM PN           R$  000000000350000000000036000000000003500000000000354400000000036000000000003422000000000360000004000000000000000900000000000003190000000000000000009999123100000010000000000000BRWLMMACNPR3119
012024082702YDUQ3       010YDUQS PART  ON      NM   R$  000000000102000000000010280000000001009000000000101800000000010190000000001019000000000102104242000000000001686800000000001718541300000000000000009999123100000010000000000000BRYDUQACNOR3105
012024082702ZAMP3       010ZAMP S.A.   ON           R$  000000000033200000000003340000000000307000000000031600000000003140000000000314000000000031505407000000000002778500000000000880296300000000000000009999123100000010000000000000BRZAMPACNOR5101
012024082702SANB4       010SANTANDER BRPN           R$  000000000160900000000016350000000001608000000000162700000000016330000000001623000000000163300510000000000000066500000000000108228500000000000000009999123100000010000000000000BRSANBACNPR5172
012024082702RCSL3       010RECRUSUL    ON           R$  000000000038700000000004200000000000347000000000039000000000004000000000000400000000000040805132000000000001961500000000000766347600000000000000009999123100000010000000000000BRRCSLACNOR4134
012024082702RCSL4       010RECRUSUL    PN           R$  000000000008600000000000910000000000086000000000008800000000000890000000000088000000000008900319000000000000591800000000000052243800000000000000009999123100000010000000000000BRRCSLACNPR1134
012024082702RDNI3       010RNI         ON      NM   R$  000000000034000000000003530000000000325000000000033700000000003250000000000325000000000033800059000000000000015700000000000005295500000000000000009999123100000010000000000000BRRDNIACNOR9116
012024082702RDOR3       010REDE D OR   ON      NM   R$  000000000332500000000033780000000003279000000000332200000000032970000000003297000000000329825126000000000007758100000000025779959400000000000000009999123100000010000000000000BRRDORACNOR8113
012024082702SYNE3       010SYN PROP TECON  ED  NM   R$  000000000081500000000008360000000000799000000000080700000000008000000000000799000000000080201452000000000000473200000000000382221400000000000000009999123100000010000000000000BRSYNEACNOR2103
012024082702TAEE11      010TAESA       UNT EDJ N2   R$  000000000353900000000035400000000003460000000000348300000000034740000000003473000000000347610561000000000002527800000000008805399200000000000000009999123100000010000000000000BRTAEECDAM10148
012024082702TAEE3       010TAESA       ON  EDJ N2   R$  000000000118200000000011820000000001149000000000115800000000011550000000001154000000000115500636000000000000145900000000000169013000000000000000009999123100000010000000000000BRTAEEACNOR9148
012024082702TAEE4       010TAESA       PN  EDJ N2   R$  000000000118700000000011870000000001158000000000116600000000011640000000001163000000000116401040000000000000256400000000000299004500000000000000009999123100000010000000000000BRTAEEACNPR6148
012024082702RAIL3       010RUMO S.A.   ON      NM   R$  000000000228000000000023040000000002274000000000228600000000022850000000002280000000000228516009000000000007179300000000016413361900000000000000009999123100000010000000000000BRRAILACNOR9105
012024082702RAIZ4       010RAIZEN      PN      N2   R$  000000000032900000000003320000000000326000000000032900000000003280000000000327000000000032807603000000000012921700000000004251246700000000000000009999123100000010000000000000BRRAIZACNPR6111
012024082702SNSY5       010SANSUY      PNA          R$  000000000054500000000005890000000000545000000000056400000000005890000000000552000000000058900021000000000000005000000000000002820100000000000000009999123100000010000000000000BRSNSYACNPA5111
012024082702SOJA3       010BOA SAFRA   ON      NM   R$  000000000134800000000013690000000001333000000000135500000000013580000000001357000000000135802776000000000000662000000000000897597700000000000000009999123100000010000000000000BRSOJAACNOR9105
012024082702SRNA3       010SERENA      ON      NM   R$  000000000087000000000008740000000000854000000000086000000000008570000000000857000000000086004935000000000001812700000000001559221300000000000000009999123100000010000000000000BRSRNAACNOR4100
012024082702STBP3       010SANTOS BRP  ON      NM   R$  000000000132400000000013320000000001297000000000130900000000013030000000001302000000000130511681000000000003349200000000004385088400000000000000009999123100000010000000000000BRSTBPACNOR3131
012024082702PGMN3       010PAGUE MENOS ON      NM   R$  000000000033000000000003330000000000321000000000032400000000003280000000000328000000000032901978000000000000624900000000000203071800000000000000009999123100000010000000000000BRPGMNACNOR8103
012024082702PINE3       010PINE        ON      N2   R$  000000000055900000000005680000000000559000000000056100000000005680000000000560000000000056800004000000000000002100000000000001179500000000000000009999123100000010000000000000BRPINEACNOR1150
012024082702PINE4       010PINE        PN      N2   R$  000000000049100000000004950000000000483000000000048900000000004950000000000495000000000049700335000000000000236400000000000115804700000000000000009999123100000010000000000000BRPINEACNPR8150
012024082702PLAS3       010PLASCAR PARTON           R$  000000000060600000000006150000000000605000000000060800000000006150000000000602000000000069900003000000000000000300000000000000182600000000000000009999123100000010000000000000BRPLASACNOR2106
012024082702BRAP3       010BRADESPAR   ON      N1   R$  000000000178500000000018140000000001784000000000179900000000018080000000001808000000000181400786000000000000143300000000000257931000000000000000009999123100000010000000000000BRBRAPACNOR5148
012024082702BRAP4       010BRADESPAR   PN      N1   R$  000000000194500000000019630000000001932000000000195100000000019550000000001955000000000195711435000000000004390700000000008569561100000000000000009999123100000010000000000000BRBRAPACNPR2148
012024082702CPFE3       010CPFL ENERGIAON      NM   R$  000000000339000000000033940000000003291000000000331900000000032910000000003291000000000331705591000000000001509900000000005011791800000000000000009999123100000010000000000000BRCPFEACNOR0137
012024082702CPLE3       010COPEL       ON      N2   R$  000000000095300000000009530000000000941000000000094300000000009440000000000943000000000094403520000000000001837600000000001734542500000000000000009999123100000010000000000000BRCPLEACNOR8149
012024082702CPLE5       010COPEL       PNA     N2   R$  000000000123000000000012300000000001230000000000123000000000012300000000001233000000000128500002000000000000000200000000000000246000000000000000009999123100000010000000000000BRCPLEACNPA1147
012024082702CPLE6       010COPEL       PNB     N2   R$  000000000105700000000010580000000001043000000000104700000000010480000000001047000000000104816391000000000009523000000000009975514100000000000000009999123100000010000000000000BRCPLEACNPB9146
012024082702CRFB3       010CARREFOUR BRON      NM   R$  000000000093000000000009430000000000921000000000093300000000009400000000000940000000000094107969000000000004941500000000004610912700000000000000009999123100000010000000000000BRCRFBACNOR2116
012024082702CRPG5       010CRISTAL     PNA          R$  000000000287100000000028710000000002834000000000286200000000028550000000002831000000000285300009000000000000002100000000000006011200000000000000009999123100000010000000000000BRCRPGACNPA3119
012024082702CRPG6       010CRISTAL     PNB          R$  000000000280900000000028090000000002808000000000280800000000028080000000002808000000000289900002000000000000000200000000000000561700000000000000009999123100000010000000000000BRCRPGACNPB1119
012024082702CSAN3       010COSAN       ON      NM   R$  000000000141500000000014150000000001393000000000140000000000013960000000001396000000000139710633000000000006141200000000008600989700000000000000009999123100000010000000000000BRCSANACNOR6126
012024082702ELMD3       010ELETROMIDIA ON      NM   R$  000000000187400000000018740000000001839000000000185200000000018460000000001846000000000185900322000000000000037800000000000070041500000000000000009999123100000010000000000000BRELMDACNOR3101
012024082702EMAE4       010EMAE        PN           R$  000000000413200000000041910000000004124000000000414900000000041270000000004127000000000417500015000000000000002200000000000009129100000000000000009999123100000010000000000000BREMAEACNPR1125
012024082702EMBR3       010EMBRAER     ON      NM   R$  000000000461600000000046420000000004553000000000459200000000045690000000004566000000000457011725000000000003411400000000015667289000000000000000009999123100000010000000000000BREMBRACNOR4191
012024082702IGTI11      010IGUATEMI S.AUNT     N1   R$  000000000234000000000023430000000002291000000000231600000000023130000000002306000000000231311055000000000003232600000000007487228400000000000000009999123100000010000000000000BRIGTICDAM16106
012024082702IGTI3       010IGUATEMI S.AON      N1   R$  000000000028700000000002880000000000284000000000028500000000002860000000000284000000000028600041000000000000026100000000000007455800000000000000009999123100000010000000000000BRIGTIACNOR8106
012024082702INEP3       010INEPAR      ON           R$  000000000021300000000002190000000000201000000000020900000000002050000000000204000000000020900165000000000000056300000000000011785900000000000000009999123100000010000000000000BRINEPACNOR1143
012024082702INEP4       010INEPAR      PN           R$  000000000021000000000002270000000000208000000000021300000000002090000000000209000000000021200083000000000000042400000000000009065500000000000000009999123100000010000000000000BRINEPACNPR8143
012024082702INTB3       010INTELBRAS   ON      NM   R$  000000000229000000000022910000000002223000000000224100000000022350000000002232000000000223504088000000000000712500000000001596978300000000000000009999123100000010000000000000BRINTBACNOR9112
012024082702IRBR3       010IRBBRASIL REON      NM   R$  000000000481300000000049500000000004813000000000488100000000048930000000004891000000000489307144000000000001700000000000008299346100000000000000009999123100000010000000000000BRIRBRACNOR4111
012024082702LUPA3       010LUPATECH    ON      NM   R$  000000000015900000000001610000000000151000000000015400000000001540000000000154000000000015500179000000000000203600000000000031496100000000000000009999123100000010000000000000BRLUPAACNOR8112
012024082702ITSA3       010ITAUSA      ON      N1   R$  000000000110000000000011000000000001089000000000109200000000010940000000001094000000000109500166000000000000041400000000000045216200000000000000009999123100000010000000000000BRITSAACNOR0441
012024082702ITSA4       010ITAUSA      PN      N1   R$  000000000109500000000010960000000001086000000000109100000000010950000000001095000000000109616230000000000015927700000000017383944000000000000000009999123100000010000000000000BRITSAACNPR7441
012024082702PRIO3       010PETRORIO    ON      NM   R$  000000000472500000000047890000000004705000000000475700000000047740000000004773000000000477414998000000000006712800000000031939474600000000000000009999123100000010000000000000BRPRIOACNOR1107
012024082702RSUL4       010RIOSULENSE  PN           R$  000000000649000000000065090000000006370000000000644700000000063700000000006362000000000647900036000000000000004600000000000029657600000000000000009999123100000010000000000000BRRSULACNPR3114
012024082702BAHI3       010BAHEMA      ON      MA   R$  000000000068900000000006890000000000672000000000068000000000006860000000000645000000000069800014000000000000002900000000000001973700000000000000009999123100000010000000000000BRBAHIACNOR1074
012024082702BALM3       010BAUMER      ON           R$  000000000125000000000012500000000001250000000000125000000000012500000000001026000000000165000002000000000000000200000000000000250000000000000000009999123100000010000000000000BRBALMACNOR5055
012024082702BALM4       010BAUMER      PN           R$  000000000110000000000011000000000001100000000000110000000000011000000000001060000000000111900001000000000000000100000000000000110000000000000000009999123100000010000000000000BRBALMACNPR2056
012024082702BAUH4       010EXCELSIOR   PN           R$  000000000794000000000079400000000007940000000000794000000000079400000000000000000000000791500001000000000000000100000000000000794000000000000000009999123100000010000000000000BRBAUHACNPR3118
012024082702BAZA3       010AMAZONIA    ON           R$  000000000956000000000097240000000009560000000000963900000000096370000000009601000000000977900008000000000000001000000000000009639100000000000000009999123100000010000000000000BRBAZAACNOR0179
012024082702BBAS3       010BRASIL      ON  EX  NM   R$  000000000283800000000028380000000002801000000000280900000000028010000000002800000000000280821553000000000008294500000000023306726200000000000000009999123100000010000000000000BRBBASACNOR3325
012024082702BHIA3       010CASAS BAHIA ON      NM   R$  000000000063000000000006740000000000625000000000065300000000006540000000000649000000000065404352000000000003797000000000002483185200000000000000009999123100000010000000000000BRBHIAACNOR1102
012024082702BRBI11      010BR PARTNERS UNT     N2   R$  000000000153900000000015400000000001504000000000152200000000015400000000001540000000000154101888000000000000343100000000000522401200000000000000009999123100000010000000000000BRBRBICDAM10110
012024082702BRFS3       010BRF SA      ON      NM   R$  000000000253400000000026080000000002521000000000258600000000025910000000002590000000000259119366000000000007969100000000020610517600000000000000009999123100000010000000000000BRBRFSACNOR8122
012024082702CSED3       010CRUZEIRO EDUON      NM   R$  000000000039900000000003990000000000390000000000039500000000003970000000000396000000000039700872000000000000807700000000000319111800000000000000009999123100000010000000000000BRCSEDACNOR9104
012024082702CSMG3       010COPASA      ON      NM   R$  000000000233000000000023340000000002304000000000231800000000023190000000002319000000000233003808000000000000797900000000001850186000000000000000009999123100000010000000000000BRCSMGACNOR5174
012024082702CSNA3       010SID NACIONALON           R$  000000000123700000000012470000000001229000000000123600000000012290000000001229000000000123107318000000000004820600000000005962680800000000000000009999123100000010000000000000BRCSNAACNOR6261
012024082702ENEV3       010ENEVA       ON      NM   R$  000000000136200000000013850000000001362000000000137600000000013770000000001377000000000137811316000000000005448300000000007499163900000000000000009999123100000010000000000000BRENEVACNOR8106
012024082702ENGI11      010ENERGISA    UNT     N2   R$  000000000478200000000048380000000004758000000000478400000000047700000000004770000000000477907679000000000001152900000000005516511700000000000000009999123100000010000000000000BRENGICDAM16136
012024082702ENGI3       010ENERGISA    ON      N2   R$  000000000141900000000014240000000001409000000000141700000000014090000000001407000000000144900017000000000000002200000000000003118100000000000000009999123100000010000000000000BRENGIACNOR0146
012024082702ENGI4       010ENERGISA    PN      N2   R$  000000000085000000000008500000000000837000000000084200000000008460000000000839000000000084600023000000000000006000000000000005055900000000000000009999123100000010000000000000BRENGIACNPR7142
012024082702ENJU3       010ENJOEI      ON      NM   R$  000000000017300000000001740000000000168000000000017000000000001690000000000169000000000017001804000000000000590800000000000100480300000000000000009999123100000010000000000000BRENJUACNOR9100
012024082702ENMT4       010ENERGISA MT PN           R$  000000000801200000000080120000000007700000000000786900000000077000000000007700000000000810000010000000000000001100000000000008656600000000000000009999123100000010000000000000BRENMTACNPR2126
012024082702EPAR3       010EMBPAR S/A  ON           R$  000000000059500000000005950000000000589000000000059000000000005890000000000589000000000059700010000000000000011900000000000007022600000000000000009999123100000010000000000000BREPARACNOR9105
012024082702EQMA3B      010EQTLMARANHAOON      MB   R$  000000000254900000000025500000000002549000000000254900000000025500000000002461000000000254900003000000000000000700000000000001784800000000000000009999123100000010000000000000BREQMAACNOR8108
012024082702EQPA3       010EQTL PARA   ON           R$  000000000060000000000006070000000000562000000000056700000000005640000000000564000000000056700301000000000001961000000000001113076200000000000000009999123100000010000000000000BREQPAACNOR1111
012024082702EQPA5       010EQTL PARA   PNA          R$  000000000090000000000009000000000000900000000000090000000000009000000000000700000000000090000001000000000000000100000000000000090000000000000000009999123100000010000000000000BREQPAACNPA4111
012024082702BIOM3       010BIOMM       ON      MA   R$  000000000081200000000008210000000000798000000000080600000000008080000000000808000000000081000441000000000000096700000000000077949200000000000000009999123100000010000000000000BRBIOMACNOR2112
012024082702BMOB3       010BEMOBI TECH ON      NM   R$  000000000162300000000016230000000001597000000000160500000000015990000000001599000000000160700812000000000000112000000000000179774900000000000000009999123100000010000000000000BRBMOBACNOR7103
012024082702BNBR3       010NORD BRASIL ON  EJ       R$  000000001089900000000109000000000010899000000001089900000000109000000000010600000000001114300002000000000000000200000000000002179900000000000000009999123100000010000000000000BRBNBRACNOR8209
012024082702BOBR4       010BOMBRIL     PN           R$  000000000021700000000002170000000000213000000000021300000000002130000000000213000000000021400008000000000000001400000000000000299100000000000000009999123100000010000000000000BRBOBRACNPR3128
012024082702CSRN3       010COSERN      ON           R$  000000000139900000000013990000000001350000000000138000000000013550000000001355000000000138200032000000000000015500000000000021405200000000000000009999123100000010000000000000BRCSRNACNOR0194
012024082702CSUD3       010CSU DIGITAL ON      NM   R$  000000000186700000000018830000000001855000000000187500000000018760000000001867000000000188100173000000000000057200000000000107262800000000000000009999123100000010000000000000BRCSUDACNOR5110
012024082702BLAU3       010BLAU        ON      NM   R$  000000000130100000000013340000000001295000000000131700000000013190000000001318000000000131900998000000000000140300000000000184837400000000000000009999123100000010000000000000BRBLAUACNOR8114
012024082702BMEB3       010MERCANTIL   ON      N1   R$  000000000360000000000036000000000003600000000000360000000000036000000000003525000000000360000007000000000000001900000000000006840000000000000000009999123100000010000000000000BRBMEBACNOR8206
012024082702BMEB4       010MERCANTIL   PN      N1   R$  000000000390000000000039450000000003864000000000391900000000039450000000003900000000000394500029000000000000003700000000000014500800000000000000009999123100000010000000000000BRBMEBACNPR5211
012024082702BMGB4       010BANCO BMG   PN      N1   R$  000000000039500000000003970000000000387000000000039100000000003890000000000389000000000039100864000000000000481900000000000188802500000000000000009999123100000010000000000000BRBMGBACNPR0110
012024082702BMIN3       010MERC INVEST ON           R$  000000000186400000000018640000000001864000000000186400000000018640000000001850000000000220000003000000000000000600000000000001118400000000000000009999123100000010000000000000BRBMINACNOR4170
012024082702BMIN4       010MERC INVEST PN           R$  000000000167000000000016700000000001670000000000167000000000016700000000001600000000000167000001000000000000000100000000000000167000000000000000009999123100000010000000000000BRBMINACNPR1176
012024082702BMKS3       010BIC MONARK  ON           R$  000000003120000000000315000000000030800000000003122800000000310000000000031000000000003149800012000000000000000026000000000000811928000000000000009999123100000010000000000000BRBMKSACNOR9166
012024082702FESA4       010FERBASA     PN      N1   R$  000000000082700000000008270000000000809000000000081700000000008170000000000817000000000081901708000000000000610100000000000498835600000000000000009999123100000010000000000000BRFESAACNPR5084
012024082702FHER3       010FER HERINGERON      NM   R$  000000000041700000000004180000000000417000000000041700000000004180000000000417000000000042000004000000000000001000000000000000417500000000000000009999123100000010000000000000BRFHERACNOR5103
012024082702FIEI3       010FICA        ON           R$  000000000094000000000009400000000000850000000000089200000000008890000000000866000000000094300019000000000000018000000000000016072800000000000000009999123100000010000000000000BRFIEIACNOR2100
012024082702FIQE3       010UNIFIQUE    ON      NM   R$  000000000039100000000003930000000000386000000000038800000000003870000000000387000000000038800426000000000000153200000000000059576000000000000000009999123100000010000000000000BRFIQEACNOR5107
012024082702FLRY3       010FLEURY      ON      NM   R$  000000000160700000000016180000000001599000000000160800000000016050000000001605000000000160705681000000000001211100000000001948356700000000000000009999123100000010000000000000BRFLRYACNOR5139
012024082702VSTE3       010VESTE       ON      NM   R$  000000000132700000000013270000000001308000000000131900000000013080000000001302000000000134500006000000000000000800000000000001055500000000000000009999123100000010000000000000BRVSTEACNOR5103
012024082702VTRU3       010VITRUEDUCA  ON      NM   R$  000000000102600000000010320000000001002000000000101300000000010120000000001012000000000101300224000000000000107000000000000108417000000000000000009999123100000010000000000000BRVTRUACNOR3100
012024082702VULC3       010VULCABRAS   ON  ED  NM   R$  000000000176500000000017900000000001762000000000178000000000017800000000001780000000000178102564000000000000401800000000000715361200000000000000009999123100000010000000000000BRVULCACNOR2161
012024082702VVEO3       010VIVEO       ON      NM   R$  000000000019800000000002040000000000196000000000020000000000002020000000000202000000000020303213000000000002085800000000000419085900000000000000009999123100000010000000000000BRVVEOACNOR0104
012024082702EZTC3       010EZTEC       ON      NM   R$  000000000148700000000015050000000001467000000000149000000000014900000000001490000000000149205047000000000001548400000000002307318400000000000000009999123100000010000000000000BREZTCACNOR0126
012024082702FESA3       010FERBASA     ON      N1   R$  000000000146100000000014610000000001461000000000146100000000014610000000001353000000000142300004000000000000000400000000000000584400000000000000009999123100000010000000000000BRFESAACNOR8188
012024082702ITUB3       010ITAUUNIBANCOON      N1   R$  000000000315900000000031640000000003140000000000315100000000031520000000003152000000000315901476000000000000347300000000001094562400000000000000009999123100000010000000000000BRITUBACNOR4339
012024082702ITUB4       010ITAUUNIBANCOPN      N1   R$  000000000365300000000036710000000003633000000000365500000000036580000000003658000000000366026973000000000014639700000000053514837800000000000000009999123100000010000000000000BRITUBACNPR1339
012024082702VITT3       010VITTIA      ON      NM   R$  000000000062800000000006420000000000626000000000063600000000006300000000000630000000000063601152000000000000549800000000000349778200000000000000009999123100000010000000000000BRVITTACNOR4107
012024082702VIVA3       010VIVARA S.A. ON      NM   R$  000000000276600000000027820000000002659000000000269600000000026900000000002690000000000269514463000000000004889900000000013187930800000000000000009999123100000010000000000000BRVIVAACNOR0107
012024082702PETZ3       010PETZ        ON      NM   R$  000000000052600000000005390000000000520000000000052800000000005280000000000527000000000052812175000000000015696800000000008289411500000000000000009999123100000010000000000000BRPETZACNOR2110
012024082702RECV3       010PETRORECSA  ON      NM   R$  000000000215000000000021610000000002104000000000211900000000021040000000002104000000000210703961000000000001203400000000002550093100000000000000009999123100000010000000000000BRRECVACNOR3107
012024082702REDE3       010REDE ENERGIAON           R$  000000000070000000000007070000000000700000000000070200000000007000000000000695000000000070000004000000000000000400000000000000281000000000000000009999123100000010000000000000BRREDEACNOR7128
012024082702RENT3       010LOCALIZA    ON      NM   R$  000000000422600000000043070000000004202000000000427800000000042900000000004284000000000429019800000000000006129800000000026226800900000000000000009999123100000010000000000000BRRENTACNOR4196
012024082702TASA3       010TAURUS ARMASON      N2   R$  000000000113100000000011310000000001110000000000111600000000011240000000001114000000000112400075000000000000012100000000000013514100000000000000009999123100000010000000000000BRTASAACNOR7104
012024082702TASA4       010TAURUS ARMASPN      N2   R$  000000000111100000000011190000000001102000000000110700000000011110000000001110000000000111201102000000000000248500000000000275148900000000000000009999123100000010000000000000BRTASAACNPR4104
012024082702WEGE3       010WEG         ON      NM   R$  000000000540800000000054320000000005340000000000539200000000054000000000005399000000000541013325000000000003857600000000020801430100000000000000009999123100000010000000000000BRWEGEACNOR0224
012024082702PFRM3       010PROFARMA    ON      NM   R$  000000000063000000000006360000000000619000000000062600000000006290000000000620000000000063000326000000000000087000000000000054468400000000000000009999123100000010000000000000BRPFRMACNOR1116
012024082702ROMI3       010ROMI        ON      NM   R$  000000000110800000000011160000000001101000000000110700000000011050000000001105000000000111300639000000000000143700000000000159140600000000000000009999123100000010000000000000BRROMIACNOR8195
012024082702RPAD5       010ALFA HOLDINGPNA ED       R$  000000000088000000000008800000000000880000000000088000000000008800000000000870000000000088800001000000000000001000000000000000880000000000000000009999123100000010000000000000BRRPADACNPA4219
012024082702RRRP3       0103R PETROLEUMON      NM   R$  000000000282700000000028330000000002758000000000277300000000027700000000002768000000000277007928000000000003662600000000010157348700000000000000009999123100000010000000000000BRRRRPACNOR5103
012024082702TPIS3       010TRIUNFO PARTON      NM   R$  000000000054000000000005540000000000500000000000051800000000005280000000000528000000000053000581000000000000302500000000000156730000000000000000009999123100000010000000000000BRTPISACNOR8118
012024082702TCSA3       010TECNISA     ON      NM   R$  000000000020000000000002020000000000194000000000019700000000001960000000000196000000000020000187000000000000172700000000000034097000000000000000009999123100000010000000000000BRTCSAACNOR3112
012024082702TECN3       010TECHNOS     ON      NM   R$  000000000056500000000005650000000000543000000000055200000000005510000000000551000000000055800312000000000000110900000000000061270000000000000000009999123100000010000000000000BRTECNACNOR6109
012024082702TELB3       010TELEBRAS    ON           R$  000000000139900000000014500000000001375000000000141300000000013750000000001375000000000139500037000000000000006100000000000008620300000000000000009999123100000010000000000000BRTELBACNOR2140
012024082702TELB4       010TELEBRAS    PN           R$  000000000092800000000010000000000000917000000000095000000000009470000000000935000000000094700109000000000000029500000000000028053300000000000000009999123100000010000000000000BRTELBACNPR9140
012024082702TEND3       010TENDA       ON      NM   R$  000000000139100000000014130000000001353000000000138700000000013960000000001396000000000139706037000000000002493300000000003459275700000000000000009999123100000010000000000000BRTENDACNOR4111
012024082702TFCO4       010TRACK FIELD PN      N2   R$  000000000119900000000012190000000001177000000000120300000000012150000000001215000000000122000948000000000000209900000000000252699600000000000000009999123100000010000000000000BRTFCOACNPR8114
012024082702TGMA3       010TEGMA       ON      NM   R$  000000000257300000000026050000000002571000000000258600000000025890000000002588000000000259000454000000000000079700000000000206165000000000000000009999123100000010000000000000BRTGMAACNOR7145
012024082702TIMS3       010TIM         ON      NM   R$  000000000179700000000018050000000001785000000000179500000000017850000000001785000000000179209050000000000004064900000000007298347900000000000000009999123100000010000000000000BRTIMSACNOR5117
012024082702TRAD3       010TC          ON      NM   R$  000000000034400000000003440000000000318000000000032500000000003250000000000324000000000032500401000000000000237100000000000077288600000000000000009999123100000010000000000000BRTRADACNOR3102
012024082702TRIS3       010TRISUL      ON      NM   R$  000000000047500000000004790000000000468000000000047300000000004750000000000475000000000047800790000000000000152100000000000072037300000000000000009999123100000010000000000000BRTRISACNOR4118
012024082702TRPL3       010TRAN PAULISTON      N1   R$  000000000321500000000032150000000003205000000000320100000000032050000000003195000000000320500007000000000000001000000000000003201600000000000000009999123100000010000000000000BRTRPLACNOR4185
012024082702TRPL4       010TRAN PAULISTPN      N1   R$  000000000248500000000024860000000002461000000000246900000000024670000000002467000000000247106308000000000001619800000000004000753700000000000000009999123100000010000000000000BRTRPLACNPR1185
012024082702TTEN3       0103TENTOS     ON      NM   R$  000000000122900000000012390000000001220000000000122900000000012320000000001227000000000123305982000000000001006200000000001237585300000000000000009999123100000010000000000000BRTTENACNOR0103
012024082702TUPY3       010TUPY        ON      NM   R$  000000000276800000000027730000000002678000000000270800000000027020000000002700000000000270303411000000000000735600000000001992400000000000000000009999123100000010000000000000BRTUPYACNOR1184
012024082702UCAS3       010UNICASA     ON      NM   R$  000000000022900000000002300000000000225000000000022700000000002300000000000226000000000023000078000000000000014200000000000003231800000000000000009999123100000010000000000000BRUCASACNOR1113
012024082702UGPA3       010ULTRAPAR    ON  ED  NM   R$  000000000237600000000023860000000002350000000000236100000000023560000000002356000000000235911455000000000003549600000000008382984800000000000000009999123100000010000000000000BRUGPAACNOR8156
012024082702VAMO3       010VAMOS       ON      NM   R$  000000000082400000000008370000000000811000000000081900000000008120000000000811000000000081307761000000000004226300000000003465081000000000000000009999123100000010000000000000BRVAMOACNOR7105
012024082702VBBR3       010VIBRA       ON      NM   R$  000000000255100000000025740000000002527000000000255600000000025580000000002558000000000256510980000000000003497900000000008943617800000000000000009999123100000010000000000000BRVBBRACNOR1108
012024082702TOTS3       010TOTVS       ON      NM   R$  000000000315900000000031680000000003132000000000314300000000031370000000003135000000000314907098000000000001991400000000006259102800000000000000009999123100000010000000000000BRTOTSACNOR8145
012024082702RANI3       010IRANI       ON      NM   R$  000000000080800000000008100000000000801000000000080400000000008040000000000804000000000080703733000000000001258900000000001012907700000000000000009999123100000010000000000000BRRANIACNOR5073
012024082702RAPT3       010RANDON PART ON      N1   R$  000000000089700000000008990000000000879000000000088700000000008790000000000879000000000088700199000000000000053700000000000047644900000000000000009999123100000010000000000000BRRAPTACNOR7163
012024082702RAPT4       010RANDON PART PN      N1   R$  000000000112300000000011320000000001101000000000111300000000011170000000001114000000000111804144000000000001620600000000001804428100000000000000009999123100000010000000000000BRRAPTACNPR4163
012024082702HYPE3       010HYPERA      ON      NM   R$  000000000308000000000030810000000002983000000000301100000000029950000000002992000000000299615446000000000003372600000000010155487800000000000000009999123100000010000000000000BRHYPEACNOR0143
012024082702KRSA3       010KORA SAUDE  ON      NM   R$  000000000006000000000000610000000000059000000000006000000000000600000000000059000000000006000072000000000000208100000000000012532400000000000000009999123100000010000000000000BRKRSAACNOR0100
012024082702LAND3       010TERRASANTAPAON      NM   R$  000000000142700000000015090000000001363000000000145700000000014050000000001405000000000145700801000000000000187700000000000273613500000000000000009999123100000010000000000000BRLANDACNOR9103
012024082702LAVV3       010LAVVI       ON  ED  NM   R$  000000000087500000000008890000000000873000000000088200000000008830000000000882000000000088301768000000000000298300000000000263337300000000000000009999123100000010000000000000BRLAVVACNOR4113
012024082702LEVE3       010METAL LEVE  ON      NM   R$  000000000316500000000031690000000003127000000000314100000000031340000000003134000000000313502190000000000000339600000000001066851800000000000000009999123100000010000000000000BRLEVEACNOR2197
012024082702LJQQ3       010QUERO-QUERO ON      NM   R$  000000000044000000000004490000000000439000000000044500000000004470000000000444000000000044704697000000000002045600000000000910392400000000000000009999123100000010000000000000BRLJQQACNOR5104
012024082702LOGG3       010LOG COM PROPON      NM   R$  000000000245900000000024590000000002411000000000242300000000024160000000002409000000000241602109000000000000318600000000000771978700000000000000009999123100000010000000000000BRLOGGACNOR7107
012024082702MYPK3       010IOCHP-MAXIONON      NM   R$  000000000116400000000011640000000001143000000000115000000000011470000000001147000000000115303659000000000000772100000000000888069800000000000000009999123100000010000000000000BRMYPKACNOR7155
012024082702NEOE3       010NEOENERGIA  ON      NM   R$  000000000195400000000019820000000001954000000000196900000000019640000000001963000000000196603394000000000000737400000000001452145000000000000000009999123100000010000000000000BRNEOEACNOR3123
012024082702NGRD3       010NEOGRID     ON      NM   R$  000000000013500000000001360000000000134000000000013400000000001340000000000134000000000013600332000000000000208500000000000028113400000000000000009999123100000010000000000000BRNGRDACNOR3104
012024082702NINJ3       010GETNINJAS   ON      NM   R$  000000000046500000000004760000000000465000000000047100000000004700000000000467000000000047900020000000000000005600000000000002638200000000000000009999123100000010000000000000BRNINJACNOR5101
012024082702NORD3       010NORDON MET  ON           R$  000000000081500000000011000000000000812000000000097400000000011000000000001100000000000120000035000000000000006300000000000006136800000000000000009999123100000010000000000000BRNORDACNOR7135
012024082702NTCO3       010GRUPO NATURAON      NM   R$  000000000139500000000014080000000001377000000000139100000000013920000000001391000000000139314365000000000007600000000000010577244900000000000000009999123100000010000000000000BRNTCOACNOR5106
012024082702ALPA3       010ALPARGATAS  ON      N1   R$  000000000077100000000008420000000000771000000000081000000000008420000000000785000000000084200007000000000000001000000000000000810200000000000000009999123100000010000000000000BRALPAACNOR0231
012024082702ALPA4       010ALPARGATAS  PN      N1   R$  000000000082000000000008360000000000813000000000082700000000008260000000000825000000000083005937000000000002850800000000002359528500000000000000009999123100000010000000000000BRALPAACNPR7232
012024082702ALPK3       010ESTAPAR     ON      NM   R$  000000000038700000000003870000000000382000000000038300000000003830000000000382000000000038500252000000000000074000000000000028413000000000000000009999123100000010000000000000BRALPKACNOR9101
012024082702ALUP11      010ALUPAR      UNT ED  N2   R$  000000000314100000000031420000000003073000000000309500000000030730000000003071000000000307904540000000000000855500000000002648591400000000000000009999123100000010000000000000BRALUPCDAM15120
012024082702ALUP3       010ALUPAR      ON  ED  N2   R$  000000000108000000000010820000000001001000000000105200000000010700000000001055000000000107300048000000000000012400000000000013052100000000000000009999123100000010000000000000BRALUPACNOR8120
012024082702ALUP4       010ALUPAR      PN  ED  N2   R$  000000000102600000000010300000000001015000000000102000000000010180000000001015000000000101900058000000000000009300000000000009493300000000000000009999123100000010000000000000BRALUPACNPR5120
012024082702AMAR3       010LOJAS MARISAON      NM   R$  000000000012000000000001210000000000118000000000011900000000001200000000000119000000000012000437000000000000297800000000000035675200000000000000009999123100000010000000000000BRAMARACNOR4115
012024082702AMBP3       010AMBIPAR     ON      NM   R$  000000000898300000000091660000000008100000000000852000000000081000000000008100000000000814002537000000000000518900000000004421247900000000000000009999123100000010000000000000BRAMBPACNOR6103
012024082702ANIM3       010ANIMA       ON      NM   R$  000000000034000000000003490000000000331000000000034000000000003420000000000342000000000034305208000000000005107000000000001739530400000000000000009999123100000010000000000000BRANIMACNOR6109
012024082702JSLG3       010JSL         ON      NM   R$  000000000098100000000010030000000000975000000000099300000000009950000000000995000000000099604118000000000000976400000000000970262900000000000000009999123100000010000000000000BRJSLGACNOR2121
012024082702KEPL3       010KEPLER WEBERON      NM   R$  000000000114400000000011440000000001115000000000112600000000011190000000001119000000000112002259000000000000669000000000000753825900000000000000009999123100000010000000000000BRKEPLACNOR1064
012024082702KLBN11      010KLABIN S/A  UNT     N2   R$  000000000220000000000022060000000002177000000000219300000000021990000000002197000000000219906712000000000001971600000000004324110400000000000000009999123100000010000000000000BRKLBNCDAM18143
012024082702KLBN3       010KLABIN S/A  ON      N2   R$  000000000044500000000004450000000000440000000000044100000000004400000000000440000000000044300394000000000000125700000000000055502000000000000000009999123100000010000000000000BRKLBNACNOR2171
012024082702KLBN4       010KLABIN S/A  PN      N2   R$  000000000044000000000004410000000000435000000000043700000000004380000000000438000000000043901295000000000000628000000000000274651200000000000000009999123100000010000000000000BRKLBNACNPR9171
012024082702MTRE3       010MITRE REALTYON  ED  NM   R$  000000000039000000000003930000000000385000000000038900000000003890000000000388000000000038901560000000000000577800000000000225141600000000000000009999123100000010000000000000BRMTREACNOR6114
012024082702MTSA4       010METISA      PN           R$  000000000444700000000045420000000004382000000000449300000000045420000000004254000000000454400020000000000000002300000000000010335000000000000000009999123100000010000000000000BRMTSAACNPR9072
012024082702MULT3       010MULTIPLAN   ON      N2   R$  000000000266400000000026680000000002616000000000263600000000026410000000002636000000000264712702000000000003602900000000009500589500000000000000009999123100000010000000000000BRMULTACNOR5139
012024082702AERI3       010AERIS       ON      NM   R$  000000000088400000000010070000000000877000000000096300000000009960000000000996000000000099701231000000000000505600000000000486953400000000000000009999123100000010000000000000BRAERIACNOR4102
012024082702AESB3       010AES BRASIL  ON  ES  NM   R$  000000000114100000000011440000000001135000000000114000000000011440000000001141000000000114402465000000000004329500000000004936208300000000000000009999123100000010000000000000BRAESBACNOR7107
012024082702AFLT3       010AFLUENTE T  ON           R$  000000000071800000000007220000000000718000000000071800000000007210000000000717000000000076200019000000000000005700000000000004094800000000000000009999123100000010000000000000BRAFLTACNOR1122
012024082702AGRO3       010BRASILAGRO  ON      NM   R$  000000000260400000000026160000000002582000000000260000000000026000000000002600000000000261201327000000000000220500000000000573427400000000000000009999123100000010000000000000BRAGROACNOR7114
012024082702AGXY3       010AGROGALAXY  ON      NM   R$  000000000012300000000001370000000000119000000000012600000000001230000000000123000000000012400563000000000000581100000000000073408300000000000000009999123100000010000000000000BRAGXYACNOR4103
012024082702ALLD3       010ALLIED      ON      NM   R$  000000000077000000000007740000000000763000000000076700000000007650000000000765000000000076600134000000000000030000000000000023029200000000000000009999123100000010000000000000BRALLDACNOR3106
012024082702ALOS3       010ALLOS       ON      NM   R$  000000000239400000000023940000000002356000000000237100000000023700000000002370000000000237115219000000000006932400000000016443639700000000000000009999123100000010000000000000BRALOSACNOR5101
012024082702BBDC3       010BRADESCO    ON      N1   R$  000000000140800000000014100000000001391000000000139800000000013990000000001398000000000140011649000000000004993100000000006984455800000000000000009999123100000010000000000000BRBBDCACNOR1773
012024082702BBDC4       010BRADESCO    PN      N1   R$  000000000156200000000015620000000001540000000000154500000000015420000000001542000000000154326809000000000018690000000000028890603600000000000000009999123100000010000000000000BRBBDCACNPR8773
012024082702CTKA4       010KARSTEN     PN           R$  000000000204500000000021970000000002045000000000208500000000021970000000001875000000000209900005000000000000000900000000000001876600000000000000009999123100000010000000000000BRCTKAACNPR7043
012024082702CURY3       010CURY S/A    ON      NM   R$  000000000237000000000024120000000002328000000000238000000000023950000000002383000000000239505205000000000001109200000000002640535300000000000000009999123100000010000000000000BRCURYACNOR3109
012024082702CVCB3       010CVC BRASIL  ON      NM   R$  000000000020700000000002140000000000205000000000020800000000002090000000000208000000000020912412000000000019694000000000004114878300000000000000009999123100000010000000000000BRCVCBACNOR1116
012024082702EUCA3       010EUCATEX     ON      N1   R$  000000000174900000000017500000000001749000000000174900000000017500000000001706000000000175000002000000000000000200000000000000349900000000000000009999123100000010000000000000BREUCAACNOR1157
012024082702EUCA4       010EUCATEX     PN      N1   R$  000000000160600000000016240000000001580000000000160100000000015960000000001595000000000159800356000000000000054400000000000087106400000000000000009999123100000010000000000000BREUCAACNPR8044
012024082702EVEN3       010EVEN        ON      NM   R$  000000000065200000000006610000000000651000000000065500000000006530000000000653000000000066001338000000000000268600000000000176200200000000000000009999123100000010000000000000BREVENACNOR8119
012024082702CAMB3       010CAMBUCI     ON           R$  000000000122300000000012370000000001215000000000122400000000012160000000001216000000000122000157000000000000032900000000000040273400000000000000009999123100000010000000000000BRCAMBACNOR4131
012024082702CAML3       010CAMIL       ON      NM   R$  000000000094300000000009540000000000934000000000094400000000009500000000000947000000000095002190000000000000515400000000000486877600000000000000009999123100000010000000000000BRCAMLACNOR3128
012024082702CASH3       010MELIUZ      ON      NM   R$  000000000064400000000006900000000000642000000000067300000000006670000000000662000000000066705661000000000003497000000000002355322800000000000000009999123100000010000000000000BRCASHACNOR8106
012024082702CBAV3       010CBA         ON      NM   R$  000000000055000000000005660000000000540000000000055100000000005490000000000547000000000054906685000000000003424700000000001887378600000000000000009999123100000010000000000000BRCBAVACNOR5104
012024082702CCRO3       010CCR SA      ON      NM   R$  000000000138000000000013800000000001355000000000136900000000013690000000001369000000000137515444000000000007654000000000010484434500000000000000009999123100000010000000000000BRCCROACNOR2145
012024082702CXSE3       010CAIXA SEGURION      NM   R$  000000000154000000000015540000000001533000000000154500000000015450000000001545000000000154606999000000000002456800000000003797900100000000000000009999123100000010000000000000BRCXSEACNOR7107
012024082702CYRE3       010CYRELA REALTON      NM   R$  000000000224300000000022730000000002230000000000226000000000022630000000002260000000000226710184000000000003186300000000007201157000000000000000009999123100000010000000000000BRCYREACNOR7140
012024082702GGPS3       010GPS         ON      NM   R$  000000000174700000000018450000000001747000000000182100000000018200000000001810000000000182007624000000000004318700000000007865056800000000000000009999123100000010000000000000BRGGPSACNOR9103
012024082702QUAL3       010QUALICORP   ON      NM   R$  000000000020000000000002140000000000200000000000020800000000002110000000000211000000000021205965000000000004625800000000000965494600000000000000009999123100000010000000000000BRQUALACNOR6120
012024082702SCAR3       010SAO CARLOS  ON      NM   R$  000000000229700000000023600000000002295000000000234000000000023600000000002323000000000236000032000000000000006900000000000016152400000000000000009999123100000010000000000000BRSCARACNOR7131
012024082702SEER3       010SER EDUCA   ON      NM   R$  000000000060700000000006710000000000607000000000065200000000006520000000000644000000000065202646000000000000972700000000000634756100000000000000009999123100000010000000000000BRSEERACNOR5119
012024082702SEQL3       010SEQUOIA LOG ON      NM   R$  000000000058900000000006260000000000585000000000060600000000006070000000000604000000000060701389000000000000760900000000000461549600000000000000009999123100000010000000000000BRSEQLACNOR2103
012024082702EQTL3       010EQUATORIAL  ON  ES  NM   R$  000000000346900000000035100000000003463000000000348600000000034880000000003480000000000348821100000000000004691800000000016359354400000000000000009999123100000010000000000000BREQTLACNOR0131
012024082702ESPA3       010ESPACOLASER ON      NM   R$  000000000010900000000001090000000000106000000000010700000000001090000000000107000000000010900173000000000000256400000000000027637400000000000000009999123100000010000000000000BRESPAACNOR7103
012024082702ESTR4       010ESTRELA     PN           R$  000000000020700000000002070000000000207000000000020700000000002070000000000207000000000022000001000000000000000100000000000000020700000000000000009999123100000010000000000000BRESTRACNPR0144
012024082702ETER3       010ETERNIT     ON      NM   R$  000000000060400000000006080000000000600000000000060300000000006050000000000602000000000060500573000000000000174400000000000105242600000000000000009999123100000010000000000000BRETERACNOR3244
012024082702MATD3       010MATER DEI   ON      NM   R$  000000000047600000000004830000000000464000000000047400000000004750000000000472000000000047502779000000000000548000000000000259849800000000000000009999123100000010000000000000BRMATDACNOR4104
012024082702MBLY3       010MOBLY       ON      NM   R$  000000000027600000000002830000000000269000000000027800000000002830000000000279000000000028300486000000000000541500000000000150813600000000000000009999123100000010000000000000BRMBLYACNOR5100
012024082702MDIA3       010M.DIASBRANCOON      NM   R$  000000000277900000000028390000000002775000000000279500000000028000000000002795000000000280002796000000000000660200000000001845860300000000000000009999123100000010000000000000BRMDIAACNOR7135
012024082702MDNE3       010MOURA DUBEUXON      NM   R$  000000000145000000000014600000000001430000000000145000000000014550000000001451000000000145501863000000000000405800000000000588550600000000000000009999123100000010000000000000BRMDNEACNOR9100
012024082702MEAL3       010IMC S/A     ON      NM   R$  000000000017200000000001750000000000171000000000017300000000001720000000000171000000000017200357000000000000338300000000000058587800000000000000009999123100000010000000000000BRMEALACNOR9105
012024082702MELK3       010MELNICK     ON      NM   R$  000000000034200000000003520000000000342000000000034700000000003450000000000345000000000034800344000000000000192000000000000066766000000000000000009999123100000010000000000000BRMELKACNOR8111
012024082702MGEL4       010MANGELS INDLPN           R$  000000000114100000000011410000000001140000000000114000000000011400000000001140000000000115000007000000000000002300000000000002622200000000000000009999123100000010000000000000BRMGELACNPR3147
012024082702MGLU3       010MAGAZ LUIZA ON      NM   R$  000000000133300000000013730000000001328000000000135000000000013470000000001346000000000134916513000000000014667800000000019806789700000000000000009999123100000010000000000000BRMGLUACNOR2124
012024082702B3SA3       010B3          ON      NM   R$  000000000128000000000012830000000001262000000000127000000000012650000000001265000000000126626788000000000039600600000000050325645700000000000000009999123100000010000000000000BRB3SAACNOR6133
012024082707NUTR3       010NUTRIPLANT  ON      MA   R$  000000000045400000000004860000000000454000000000047400000000004800000000000466000000000047900039000000000000008600000000000004084400000000000000009999123100000010000000000000BRNUTRACNOR0104
012024082707TXRX4       010TEX RENAUX  PN           R$  000000000022700000000002360000000000227000000000023200000000002360000000000227000000000023500005000000000000003400000000000000791100000000000000009999123100000010000000000000BRTXRXACNPR0142
012024082708OIBR3       010OI          ON      N1   R$  000000000045200000000004720000000000452000000000046500000000004700000000000468000000000047000667000000000000458900000000000213472800000000000000009999123100000010000000000000BROIBRACNOR1111
012024082708OIBR4       010OI          PN      N1   R$  000000000123600000000012700000000001205000000000122700000000012050000000001210000000000123000027000000000000003200000000000003928600000000000000009999123100000010000000000000BROIBRACNPR8110
012024082708OSXB3       010OSX BRASIL  ON      NM   R$  000000000039200000000003950000000000383000000000039200000000003840000000000384000000000039100007000000000000002600000000000001021400000000000000009999123100000010000000000000BROSXBACNOR8109
012024082708PMAM3       010PARANAPANEMAON      NM   R$  000000000019600000000002010000000000196000000000019800000000001990000000000197000000000019900329000000000000082400000000000016318400000000000000009999123100000010000000000000BRPMAMACNOR3039
012024082708ATMP3       010ATMASA      ON           R$  000000000013600000000001470000000000136000000000014200000000001470000000000142000000000014700036000000000000018000000000000002566000000000000000009999123100000010000000000000BRATMPACNOR8100
012024082708JFEN3       010JOAO FORTES ON           R$  000000000002300000000000240000000000022000000000002200000000000230000000000022000000000002300287000000000000982300000000000022468600000000000000009999123100000010000000000000BRJFENACNOR0059
012024082708RSID3       010ROSSI RESID ON      NM   R$  000000000038700000000004040000000000384000000000039100000000003950000000000395000000000039700174000000000000029300000000000011478900000000000000009999123100000010000000000000BRRSIDACNOR8120
012024082708RNEW11      010RENOVA      UNT     N2   R$  000000000029400000000002980000000000281000000000028900000000002810000000000281000000000029900020000000000000005600000000000001620800000000000000009999123100000010000000000000BRRNEWCDAM15110
012024082708RNEW3       010RENOVA      ON      N2   R$  000000000010000000000001000000000000097000000000009800000000001000000000000098000000000010000029000000000000015600000000000001539200000000000000009999123100000010000000000000BRRNEWACNOR8110
012024082708RNEW4       010RENOVA      PN      N2   R$  000000000009600000000001010000000000096000000000009800000000001000000000000099000000000010100083000000000000072700000000000007179100000000000000009999123100000010000000000000BRRNEWACNPR5110
012024082708RPMG3       010PET MANGUINHON           R$  000000000028200000000002860000000000277000000000028100000000002840000000000281000000000028400073000000000000012400000000000003489100000000000000009999123100000010000000000000BRRPMGACNOR9194
012024082708HOOT4       010HOTEIS OTHONPN           R$  000000000024400000000002440000000000226000000000023500000000002260000000000226000000000023900007000000000000002000000000000000470000000000000000009999123100000010000000000000BRHOOTACNPR9015
012024082708LIGT3       010LIGHT S/A   ON      NM   R$  000000000063000000000006320000000000598000000000061100000000006080000000000606000000000060901365000000000000453200000000000277245100000000000000009999123100000010000000000000BRLIGTACNOR2124
012024082708NEXP3       010NEXPE       ON           R$  000000000040800000000004080000000000408000000000040800000000004080000000000400000000000040800003000000000000000300000000000000122400000000000000009999123100000010000000000000BRNEXPACNOR0101
012024082708AMER3       010AMERICANAS  ON  EG  NM   R$  000000000054000000000007650000000000540000000000068300000000007000000000000699000000000070025277000000000014952800000000010227128600000000000000009999123100000010000000000000BRAMERACNOR6103
012024082708CTSA3       010SANTANENSE  ON           R$  000000000027400000000002740000000000274000000000027400000000002740000000000275000000000027900001000000000000000100000000000000027400000000000000009999123100000010000000000000BRCTSAACNOR3062
012024082708CTSA4       010SANTANENSE  PN           R$  000000000013500000000001470000000000130000000000013400000000001470000000000135000000000014700171000000000000054500000000000007353100000000000000009999123100000010000000000000BRCTSAACNPR0062
012024082710GFSA1       010GAFISA      DIR ORD NM   R$  000000000000200000000000030000000000002000000000000200000000000020000000000002000000000000300226000000000001017800000000000002220200000000000000009999123100000010000000000000BRGFSAD11OR7124
012024082710PDGR95      010PDG REALT   DIR     NM   R$  000000000000100000000000010000000000001000000000000100000000000010000000000000000000000000100021000000000000003432000000000000003432000000000000009999123100000010000000000000BRPDGRD03M17100
012024082710RENT9       010LOCALIZA    ON  REC NM   R$  000000000420200000000043030000000004202000000000424700000000042810000000004120000000000000000025000000000000004800000000000020388900000000000000009999123100000010000000000000BRRENTR06OR8195
012024082710AESB1       010AES BRASIL  DIR ORD NM   R$  000000000003000000000000600000000000030000000000004300000000000370000000000037000000000004400050000000000000023700000000000001019800000000000000009999123100000010000000000000BRAESBD03OR8106
012024082710EQTL1       010EQUATORIAL  DIR ORD NM   R$  000000000027300000000003130000000000260000000000027700000000002990000000000262000000000029902338000000000000720100000000000199468800000000000000009999123100000010000000000000BREQTLD04OR9130
012024082712URHF11      010FII URHF    CI           R$  000000001090000000000109000000000010900000000001090000000000109000000000009810000000001095000001000000000000000030000000000000327000000000000000009999123100000010000000000000BRURHFCTF004101
012024082712URPR11      010FII URCA RENCI           R$  000000000829700000000082990000000008221000000000826200000000082560000000008256000000000826001545000000000000016052000000000132631431000000000000009999123100000010000000000000BRURPRCTF002160
012024082712VOTS11      010FII V MASTERCI           R$  000000000839700000000083970000000008296000000000831000000000082960000000008201000000000829600003000000000000000007000000000000058173000000000000009999123100000010000000000000BRVOTSCTF007172
012024082712GGRC11      010FII GGRCOVEPCI           R$  000000000109500000000010950000000001081000000000108400000000010840000000001084000000000108706890000000000000199379000000000216151105000000000000009999123100000010000000000000BRGGRCCTF002196
012024082712GLOG11      010FII PLURAL LCI           R$  000000000629000000000062900000000006241000000000625400000000062800000000006241000000000628000007000000000000000020000000000000125081000000000000009999123100000010000000000000BRGLOGCTF000115
012024082712ABCP11      010FII ABC IMOBCI           R$  000000000714600000000072500000000007110000000000721500000000072000000000007200000000000720100092000000000000000574000000000004141517000000000000009999123100000010000000000000BRABCPCTF000341
012024082712BRIP11      010FII BRIO IIICI           R$  000000009795000000000979500000000097950000000009795000000000979500000000086103000000009800000001000000000000000001000000000000097950000000000000009999123100000010000000000000BRBRIPCTF001115
012024082712BROF11      010FII BROF    CI  ER       R$  000000000475100000000047870000000004740000000000475000000000047500000000004740000000000475000308000000000000021849000000000103783530000000000000009999123100000010000000000000BRBROFCTF000116
012024082712FMOF11      010FII MEMORIALCI           R$  000000000479800000000047990000000004798000000000479800000000047990000000004679000000000474100002000000000000000010000000000000047989000000000000009999123100000010000000000000BRFMOFCTF010258
012024082712FPNG11      010FII P NEGRA CI           R$  000000002000000000000202010000000020000000000002000700000000200000000000009002000000002200000003000000000000000051000000000001020402000000000000009999123100000010000000000000BRFPNGCTF005191
012024082712FVPQ11      010FII V PARQUECI           R$  000000000710000000000071290000000007066000000000709600000000071020000000007101000000000713800550000000000000000870000000000006174044000000000000009999123100000010000000000000BRFVPQCTF015261
012024082712GAME11      010FII GUARD MUCI           R$  000000000091600000000009160000000000911000000000091200000000009130000000000912000000000091300243000000000000006315000000000005765016000000000000009999123100000010000000000000BRGAMECTF002134
012024082712GARE11      010FII GUARDIANCI           R$  000000000091200000000009130000000000908000000000091000000000009100000000000909000000000091022370000000000000537218000000000489291919000000000000009999123100000010000000000000BRGARECTF001106
012024082712GCRI11      010FII GLPG CRICI           R$  000000000703400000000071390000000007030000000000704600000000070430000000007043000000000705000104000000000000001784000000000012571604000000000000009999123100000010000000000000BRGCRICTF008146
012024082712SMRE11      010FII SMRE    CI  ES       R$  000000001000000000000100000000000010000000000001000000000000100000000000010000000000000000000091000000000000002371000000000023710000000000000000009999123100000010000000000000BRSMRECTF001104
012024082712ZAVC11      010FII ZAVIT C CI           R$  000000000097100000000009710000000000971000000000097100000000009710000000000971000000000102000002000000000000000010000000000000009710000000000000009999123100000010000000000000BRZAVCCTF007104
012024082712ZAVI11      010FII ZAVIT R CI           R$  000000001140300000000114170000000010818000000001125500000000112010000000011201000000001135200225000000000000002103000000000023669692000000000000009999123100000010000000000000BRZAVICTF004123
012024082712PRSN11      010FII PERSONALCI           R$  000000000010900000000001090000000000108000000000010800000000001080000000000103000000000010800002000000000000000199000000000000021690000000000000009999123100000010000000000000BRPRSNCTF005125
012024082712PRSV11      010FII P VARGASCI           R$  000000000581100000000058110000000005811000000000581100000000058110000000005810000000000619900002000000000000000020000000000000116220000000000000009999123100000010000000000000BRPRSVCTF008226
012024082712PULV11      010FII PULV    CI           R$  000000000097500000000009770000000000945000000000095000000000009490000000000941000000000094900135000000000000006628000000000006300084000000000000009999123100000010000000000000BRPULVCTF007103
012024082712PVBI11      010FII VBI PRI CI           R$  000000000937200000000094450000000009358000000000940800000000094130000000009406000000000941311743000000000000056318000000000529880785000000000000009999123100000010000000000000BRPVBICTF003154
012024082712SADI11      010FII SANT PAPCI           R$  000000000904700000000090470000000008990000000000900300000000090050000000008999000000000900500548000000000000001891000000000017024907000000000000009999123100000010000000000000BRSADICTF007161
012024082712BPFF11      010FII ABSOLUTOCI           R$  000000000690000000000069000000000006840000000000686400000000068470000000006847000000000684800384000000000000005041000000000034603566000000000000009999123100000010000000000000BRBPFFCTF002238
012024082712LVBI11      010FII VBI LOG CI           R$  000000001124800000000112700000000011176000000001121700000000111910000000011191000000001122606324000000000000038127000000000427691383000000000000009999123100000010000000000000BRLVBICTF002171
012024082712PEMA11      010FII PERFORMACI           R$  000000000290600000000029060000000002906000000000290600000000029060000000002904000000000290600003000000000000000005000000000000014530000000000000009999123100000010000000000000BRPEMACTF003137
012024082712BBFI11      010FII BB PROGRCI           R$  000000006250100000000632030000000062202000000006280500000000625500000000062600000000006320200070000000000000000168000000000010551369000000000000009999123100000010000000000000BRBBFICTF006329
012024082712BBFO11      010FII BB FOF  CI           R$  000000000720800000000073050000000007208000000000725200000000072450000000007231000000000724500109000000000000001723000000000012496203000000000000009999123100000010000000000000BRBBFOCTF004143
012024082712SARE11      010FII SANT RENCI           R$  000000000400800000000040520000000004001000000000401800000000040080000000004008000000000402501163000000000000019927000000000080076510000000000000009999123100000010000000000000BRSARECTF006158
012024082712NVHO11      010FII NOVOHORICI           R$  000000000130000000000013000000000001265000000000126500000000012650000000001265000000000129900008000000000000000405000000000000512504000000000000009999123100000010000000000000BRNVHOCTF003230
012024082712BBIG11      010FII BBIG    CI           R$  000000000093200000000009450000000000930000000000093500000000009330000000000933000000000094301880000000000000119801000000000112037513000000000000009999123100000010000000000000BRBBIGCTF004103
012024082712BBRC11      010FII BB CORP CI           R$  000000001150100000000115480000000011501000000001152600000000115300000000011530000000001153100041000000000000000593000000000006835444000000000000009999123100000010000000000000BRBBRCCTF004255
012024082712BCFF11      010FII BC FFII CI           R$  000000000084400000000008450000000000840000000000084200000000008420000000000842000000000084309528000000000000453215000000000381697792000000000000009999123100000010000000000000BRBCFFCTF000280
012024082712BCIA11      010FII BCIA    CI           R$  000000001028400000000103420000000010276000000001028800000000103030000000010297000000001030300464000000000000002702000000000027800224000000000000009999123100000010000000000000BRBCIACTF005212
012024082712OCRE11      010FII OCTO    CI           R$  000000000980100000000099670000000009801000000000980200000000099670000000009800000000000996800002000000000000000138000000000001352704000000000000009999123100000010000000000000BROCRECTF001116
012024082712CNES11      010FII CENESP  CI  ER       R$  000000000015000000000001510000000000150000000000015000000000001500000000000150000000000015100580000000000000037882000000000005688610000000000000009999123100000010000000000000BRCNESCTF001262
