00COTAHIST.2024BOVESPA 20240823                                                                                                                                                                                                                      
012024082302ESPA3       010ESPACOLASER ON      NM   R$  000000000010400000000001090000000000103000000000010600000000001090000000000107000000000010900379000000000000542000000000000057775700000000000000009999123100000010000000000000BRESPAACNOR7103
012024082302ETER3       010ETERNIT     ON      NM   R$  000000000060000000000006110000000000593000000000060400000000006090000000000605000000000060900645000000000000221200000000000133722600000000000000009999123100000010000000000000BRETERACNOR3244
012024082302EUCA3       010EUCATEX     ON      N1   R$  000000000172500000000017250000000001675000000000170000000000016750000000001666000000000171100002000000000000000200000000000000340000000000000000009999123100000010000000000000BREUCAACNOR1157
012024082302EUCA4       010EUCATEX     PN      N1   R$  000000000155000000000015980000000001545000000000157600000000015980000000001581000000000159800260000000000000035200000000000055478500000000000000009999123100000010000000000000BREUCAACNPR8044
012024082302EVEN3       010EVEN        ON      NM   R$  000000000064400000000006690000000000638000000000065700000000006560000000000656000000000066202112000000000000620400000000000407994100000000000000009999123100000010000000000000BREVENACNOR8119
012024082302MYPK3       010IOCHP-MAXIONON      NM   R$  000000000115500000000011700000000001143000000000115800000000011700000000001168000000000117002605000000000000484200000000000560835300000000000000009999123100000010000000000000BRMYPKACNOR7155
012024082302BSLI4       010BRB BANCO   PN           R$  000000000098400000000009840000000000922000000000094400000000009430000000000942000000000095900019000000000000002500000000000002360700000000000000009999123100000010000000000000BRBSLIACNPR2194
012024082302CXSE3       010CAIXA SEGURION      NM   R$  000000000147400000000015270000000001474000000000151000000000015130000000001512000000000152010398000000000002304900000000003481608500000000000000009999123100000010000000000000BRCXSEACNOR7107
012024082302CYRE3       010CYRELA REALTON      NM   R$  000000000218000000000022920000000002163000000000225000000000022570000000002257000000000225921600000000000006196600000000013948049100000000000000009999123100000010000000000000BRCYREACNOR7140
012024082302FIQE3       010UNIFIQUE    ON      NM   R$  000000000039400000000004040000000000388000000000039400000000004000000000000398000000000040101244000000000000424100000000000167483700000000000000009999123100000010000000000000BRFIQEACNOR5107
012024082302FLRY3       010FLEURY      ON  EJ  NM   R$  000000000160000000000016290000000001593000000000161300000000016000000000001599000000000160013464000000000003823000000000006169322400000000000000009999123100000010000000000000BRFLRYACNOR5139
012024082302CSAN3       010COSAN       ON      NM   R$  000000000137700000000014140000000001375000000000140100000000013970000000001395000000000139915731000000000009031000000000012655987600000000000000009999123100000010000000000000BRCSANACNOR6126
012024082302ENEV3       010ENEVA       ON      NM   R$  000000000135200000000013850000000001339000000000136900000000013720000000001372000000000137415615000000000006953200000000009525529200000000000000009999123100000010000000000000BRENEVACNOR8106
012024082302IFCM3       010INFRACOMM   ON      NM   R$  000000000001900000000000190000000000016000000000001700000000000170000000000016000000000001702625000000000027007100000000000479142600000000000000009999123100000010000000000000BRIFCMACNOR8101
012024082302IGTI11      010IGUATEMI S.AUNT     N1   R$  000000000229300000000023530000000002274000000000233200000000023350000000002335000000000234109014000000000002313300000000005396236900000000000000009999123100000010000000000000BRIGTICDAM16106
012024082302IGTI3       010IGUATEMI S.AON      N1   R$  000000000028100000000002900000000000281000000000028500000000002900000000000284000000000029000117000000000000042100000000000012000400000000000000009999123100000010000000000000BRIGTIACNOR8106
012024082302INEP3       010INEPAR      ON           R$  000000000022600000000002370000000000206000000000022000000000002210000000000213000000000022000265000000000000152200000000000033488400000000000000009999123100000010000000000000BRINEPACNOR1143
012024082302INEP4       010INEPAR      PN           R$  000000000023100000000002450000000000211000000000022500000000002260000000000218000000000022600209000000000000098000000000000022105900000000000000009999123100000010000000000000BRINEPACNPR8143
012024082302FRAS3       010FRAS-LE     ON      N1   R$  000000000182900000000019190000000001826000000000188600000000019190000000001912000000000191902696000000000000635400000000001198672900000000000000009999123100000010000000000000BRFRASACNOR0160
012024082302FRIO3       010METALFRIO   ON      NM   R$  000000001661300000000166130000000016613000000001661300000000166130000000016612000000001889900002000000000000000200000000000003322600000000000000009999123100000010000000000000BRFRIOACNOR2111
012024082302INTB3       010INTELBRAS   ON      NM   R$  000000000230400000000023360000000002267000000000229900000000022830000000002281000000000229305274000000000001349200000000003102266400000000000000009999123100000010000000000000BRINTBACNOR9112
012024082302IRBR3       010IRBBRASIL REON      NM   R$  000000000469700000000050450000000004697000000000491300000000047930000000004793000000000479420550000000000005518000000000027112158100000000000000009999123100000010000000000000BRIRBRACNOR4111
012024082302JSLG3       010JSL         ON      NM   R$  000000000092700000000009840000000000927000000000095500000000009680000000000968000000000097401922000000000000969600000000000926085600000000000000009999123100000010000000000000BRJSLGACNOR2121
012024082302EZTC3       010EZTEC       ON      NM   R$  000000000138500000000014830000000001385000000000145300000000014810000000001480000000000148207138000000000002702900000000003927700400000000000000009999123100000010000000000000BREZTCACNOR0126
012024082302AALR3       010ALLIAR      ON      NM   R$  000000000144700000000015200000000001406000000000147700000000015000000000001456000000000150000135000000000000041300000000000061005000000000000000009999123100000010000000000000BRAALRACNOR6102
012024082302ABCB4       010ABC BRASIL  PN      N2   R$  000000000236000000000023650000000002336000000000235500000000023550000000002354000000000235603241000000000000509000000000001199162300000000000000009999123100000010000000000000BRABCBACNPR4146
012024082302ABEV3       010AMBEV S/A   ON           R$  000000000130600000000013210000000001305000000000131100000000013080000000001308000000000131028407000000000033098900000000043400681300000000000000009999123100000010000000000000BRABEVACNOR1128
012024082302BAHI3       010BAHEMA      ON      MA   R$  000000000072000000000007200000000000720000000000072000000000007200000000000701000000000071900001000000000000000100000000000000072000000000000000009999123100000010000000000000BRBAHIACNOR1074
012024082302BAZA3       010AMAZONIA    ON           R$  000000000964700000000096480000000009415000000000954800000000095200000000009440000000000952000010000000000000001000000000000009548700000000000000009999123100000010000000000000BRBAZAACNOR0179
012024082302BBAS3       010BRASIL      ON  EX  NM   R$  000000000281500000000028490000000002814000000000283200000000028220000000002821000000000282422160000000000012056900000000034148795000000000000000009999123100000010000000000000BRBBASACNOR3325
012024082302BEES3       010BANESTES    ON           R$  000000000090100000000009040000000000899000000000090000000000009040000000000900000000000090400049000000000000007600000000000006847100000000000000009999123100000010000000000000BRBEESACNOR9394
012024082302BEES4       010BANESTES    PN           R$  000000000097700000000009850000000000970000000000097400000000009700000000000966000000000098400010000000000000002100000000000002047100000000000000009999123100000010000000000000BRBEESACNPR6319
012024082302CPFE3       010CPFL ENERGIAON      NM   R$  000000000337800000000034170000000003362000000000339000000000033770000000003377000000000338306680000000000001361700000000004616172700000000000000009999123100000010000000000000BRCPFEACNOR0137
012024082302CPLE3       010COPEL       ON      N2   R$  000000000095400000000009700000000000949000000000096300000000009660000000000965000000000096608615000000000003839400000000003697654100000000000000009999123100000010000000000000BRCPLEACNOR8149
012024082302CPLE6       010COPEL       PNB     N2   R$  000000000106500000000010790000000001061000000000107200000000010730000000001072000000000107412117000000000010143300000000010876572000000000000000009999123100000010000000000000BRCPLEACNPB9146
012024082302ELMD3       010ELETROMIDIA ON      NM   R$  000000000178400000000018930000000001784000000000182600000000018910000000001878000000000189100871000000000000157300000000000287288400000000000000009999123100000010000000000000BRELMDACNOR3101
012024082302EMAE4       010EMAE        PN           R$  000000000412100000000041670000000004110000000000412000000000041150000000004112000000000419800018000000000000002400000000000009889600000000000000009999123100000010000000000000BREMAEACNPR1125
012024082302EMBR3       010EMBRAER     ON      NM   R$  000000000462000000000046700000000004598000000000463000000000046030000000004602000000000460424163000000000005362500000000024831438800000000000000009999123100000010000000000000BREMBRACNOR4191
012024082302HYPE3       010HYPERA      ON      NM   R$  000000000309100000000031260000000003067000000000310200000000031030000000003103000000000310411857000000000002125600000000006594717000000000000000009999123100000010000000000000BRHYPEACNOR0143
012024082302MATD3       010MATER DEI   ON      NM   R$  000000000046200000000004860000000000452000000000047300000000004770000000000476000000000048300840000000000000269600000000000127619700000000000000009999123100000010000000000000BRMATDACNOR4104
012024082302MBLY3       010MOBLY       ON      NM   R$  000000000028600000000002950000000000272000000000028100000000002720000000000272000000000027302124000000000001117500000000000314927600000000000000009999123100000010000000000000BRMBLYACNOR5100
012024082302MDIA3       010M.DIASBRANCOON      NM   R$  000000000279200000000028360000000002765000000000280700000000028090000000002807000000000281502920000000000000667100000000001872571800000000000000009999123100000010000000000000BRMDIAACNOR7135
012024082302MDNE3       010MOURA DUBEUXON      NM   R$  000000000146900000000014930000000001450000000000148000000000014840000000001482000000000148402520000000000000465000000000000688287700000000000000009999123100000010000000000000BRMDNEACNOR9100
012024082302MEAL3       010IMC S/A     ON      NM   R$  000000000016500000000001750000000000160000000000016700000000001740000000000174000000000017500898000000000001662700000000000278867800000000000000009999123100000010000000000000BRMEALACNOR9105
012024082302MELK3       010MELNICK     ON      NM   R$  000000000034000000000003470000000000338000000000034300000000003440000000000343000000000034401304000000000000624700000000000214852100000000000000009999123100000010000000000000BRMELKACNOR8111
012024082302MGLU3       010MAGAZ LUIZA ON      NM   R$  000000000133500000000013770000000001313000000000135100000000013620000000001362000000000136421490000000000016934100000000022887237900000000000000009999123100000010000000000000BRMGLUACNOR2124
012024082302AERI3       010AERIS       ON      NM   R$  000000000081600000000009340000000000816000000000088500000000008900000000000890000000000089701090000000000000423500000000000375190500000000000000009999123100000010000000000000BRAERIACNOR4102
012024082302AESB3       010AES BRASIL  ON      NM   R$  000000000114100000000011450000000001136000000000114000000000011420000000001142000000000114303955000000000006116100000000006974608800000000000000009999123100000010000000000000BRAESBACNOR7106
012024082302AFLT3       010AFLUENTE T  ON           R$  000000000071800000000007190000000000715000000000071600000000007150000000000715000000000071800008000000000000001100000000000000787900000000000000009999123100000010000000000000BRAFLTACNOR1122
012024082302AGRO3       010BRASILAGRO  ON      NM   R$  000000000257500000000026090000000002575000000000259600000000025900000000002589000000000259500972000000000000153600000000000398821500000000000000009999123100000010000000000000BRAGROACNOR7114
012024082302AGXY3       010AGROGALAXY  ON      NM   R$  000000000012700000000001290000000000118000000000012300000000001240000000000123000000000012400392000000000000373400000000000046023900000000000000009999123100000010000000000000BRAGXYACNOR4103
012024082302ALLD3       010ALLIED      ON      NM   R$  000000000076400000000007770000000000755000000000076500000000007700000000000762000000000077000236000000000000056100000000000042925100000000000000009999123100000010000000000000BRALLDACNOR3106
012024082302ALOS3       010ALLOS       ON      NM   R$  000000000230600000000024000000000002300000000000237700000000023860000000002384000000000238718720000000000006629000000000015760930800000000000000009999123100000010000000000000BRALOSACNOR5101
012024082302BBDC3       010BRADESCO    ON      N1   R$  000000000140300000000014330000000001402000000000142100000000014200000000001418000000000142015845000000000007527100000000010703284300000000000000009999123100000010000000000000BRBBDCACNOR1773
012024082302BBDC4       010BRADESCO    PN      N1   R$  000000000156200000000015940000000001562000000000158100000000015660000000001566000000000156848098000000000033615400000000053152061700000000000000009999123100000010000000000000BRBBDCACNPR8773
012024082302BOBR4       010BOMBRIL     PN           R$  000000000021700000000002170000000000211000000000021300000000002150000000000215000000000021600032000000000000034100000000000007277500000000000000009999123100000010000000000000BRBOBRACNPR3128
012024082302BRIT3       010BRISANET    ON      NM   R$  000000000036400000000003640000000000350000000000035500000000003560000000000356000000000035702914000000000001197200000000000425368500000000000000009999123100000010000000000000BRBRITACNOR0103
012024082302RCSL3       010RECRUSUL    ON           R$  000000000033500000000003780000000000335000000000035700000000003600000000000360000000000036303962000000000001097400000000000392534200000000000000009999123100000010000000000000BRRCSLACNOR4134
012024082302RCSL4       010RECRUSUL    PN           R$  000000000008300000000000860000000000082000000000008400000000000850000000000084000000000008500330000000000000388900000000000032917100000000000000009999123100000010000000000000BRRCSLACNPR1134
012024082302RDNI3       010RNI         ON      NM   R$  000000000031900000000003320000000000319000000000032600000000003270000000000321000000000032800012000000000000004100000000000001339900000000000000009999123100000010000000000000BRRDNIACNOR9116
012024082302RDOR3       010REDE D OR   ON      NM   R$  000000000326900000000033780000000003255000000000334400000000033570000000003354000000000335829212000000000008390500000000028060128600000000000000009999123100000010000000000000BRRDORACNOR8113
012024082302WEST3       010WESTWING    ON      NM   R$  000000000009000000000000940000000000090000000000009100000000000930000000000092000000000009300055000000000000051300000000000004697500000000000000009999123100000010000000000000BRWESTACNOR3100
012024082302WHRL3       010WHIRLPOOL   ON           R$  000000000043000000000004300000000000423000000000042600000000004280000000000426000000000043400010000000000000001400000000000000596700000000000000009999123100000010000000000000BRWHRLACNOR5128
012024082302WHRL4       010WHIRLPOOL   PN           R$  000000000045000000000004550000000000450000000000045200000000004550000000000452000000000045600012000000000000006900000000000003119000000000000000009999123100000010000000000000BRWHRLACNPR2128
012024082302WIZC3       010WIZ CO      ON      NM   R$  000000000062000000000006330000000000613000000000062600000000006270000000000626000000000063302254000000000000483200000000000302561500000000000000009999123100000010000000000000BRWIZCACNOR5102
012024082302WLMM3       010WLM IND COM ON           R$  000000000276500000000027650000000002765000000000276500000000027650000000002700000000000280000002000000000000000200000000000000553000000000000000009999123100000010000000000000BRWLMMACNOR6119
012024082302WLMM4       010WLM IND COM PN           R$  000000000360000000000036000000000003600000000000360000000000036000000000003550000000000377900001000000000000000100000000000000360000000000000000009999123100000010000000000000BRWLMMACNPR3119
012024082302RADL3       010RAIADROGASILON      NM   R$  000000000280400000000028040000000002780000000000279300000000027860000000002786000000000279512122000000000005031200000000014053471600000000000000009999123100000010000000000000BRRADLACNOR0157
012024082302RAIL3       010RUMO S.A.   ON      NM   R$  000000000234000000000023770000000002323000000000236000000000023610000000002359000000000236218835000000000008067300000000019041763600000000000000009999123100000010000000000000BRRAILACNOR9105
012024082302SMFT3       010SMART FIT   ON      NM   R$  000000000228100000000023510000000002251000000000231500000000023300000000002329000000000235013881000000000003108500000000007197646700000000000000009999123100000010000000000000BRSMFTACNOR1112
012024082302SMTO3       010SAO MARTINHOON      NM   R$  000000000291800000000029460000000002884000000000292300000000029350000000002935000000000293705543000000000001030400000000003012610500000000000000009999123100000010000000000000BRSMTOACNOR3127
012024082302SNSY5       010SANSUY      PNA          R$  000000000056500000000005690000000000541000000000054800000000005410000000000541000000000055000020000000000000007200000000000003948300000000000000009999123100000010000000000000BRSNSYACNPA5111
012024082302SOJA3       010BOA SAFRA   ON      NM   R$  000000000129200000000013490000000001290000000000132400000000013330000000001333000000000133502887000000000000974700000000001291425200000000000000009999123100000010000000000000BRSOJAACNOR9105
012024082302SRNA3       010SERENA      ON      NM   R$  000000000087000000000008900000000000856000000000087400000000008810000000000881000000000088705530000000000003016100000000002638856400000000000000009999123100000010000000000000BRSRNAACNOR4100
012024082302STBP3       010SANTOS BRP  ON      NM   R$  000000000130200000000013450000000001280000000000132100000000013120000000001311000000000131223960000000000010473000000000013844714300000000000000009999123100000010000000000000BRSTBPACNOR3131
012024082302SUZB3       010SUZANO S.A. ON      NM   R$  000000000564100000000056530000000005565000000000561400000000056080000000005605000000000561119020000000000005095100000000028606353200000000000000009999123100000010000000000000BRSUZBACNOR0130
012024082302VLID3       010VALID       ON      NM   R$  000000000215500000000022250000000002142000000000219000000000022170000000002202000000000221702008000000000000316400000000000693044500000000000000009999123100000010000000000000BRVLIDACNOR5144
012024082302VSTE3       010VESTE       ON      NM   R$  000000000132200000000013860000000001322000000000133600000000013260000000001325000000000136500018000000000000004400000000000005879400000000000000009999123100000010000000000000BRVSTEACNOR5103
012024082302VTRU3       010VITRUEDUCA  ON      NM   R$  000000000104100000000010670000000001017000000000103800000000010170000000001017000000000103900286000000000000045000000000000046728500000000000000009999123100000010000000000000BRVTRUACNOR3100
012024082302VULC3       010VULCABRAS   ON  ED  NM   R$  000000000173000000000017840000000001721000000000175800000000017730000000001772000000000177502110000000000000414900000000000729746300000000000000009999123100000010000000000000BRVULCACNOR2161
012024082302VVEO3       010VIVEO       ON      NM   R$  000000000020400000000002090000000000203000000000020500000000002040000000000204000000000020502015000000000001366700000000000280725800000000000000009999123100000010000000000000BRVVEOACNOR0104
012024082302WEGE3       010WEG         ON      NM   R$  000000000545000000000054750000000005377000000000539700000000053810000000005380000000000538516409000000000004681100000000025264000100000000000000009999123100000010000000000000BRWEGEACNOR0224
012024082302BIOM3       010BIOMM       ON      MA   R$  000000000085700000000008700000000000810000000000083000000000008110000000000810000000000081800451000000000000137700000000000114339800000000000000009999123100000010000000000000BRBIOMACNOR2112
012024082302KRSA3       010KORA SAUDE  ON      NM   R$  000000000005700000000000580000000000056000000000005600000000000570000000000057000000000005800087000000000000195900000000000011131200000000000000009999123100000010000000000000BRKRSAACNOR0100
012024082302LAND3       010TERRASANTAPAON      NM   R$  000000000128800000000013380000000001288000000000131100000000013190000000001299000000000131900128000000000000020600000000000027013500000000000000009999123100000010000000000000BRLANDACNOR9103
012024082302LAVV3       010LAVVI       ON  ED  NM   R$  000000000086000000000008800000000000853000000000087200000000008750000000000874000000000087501673000000000000519700000000000453214000000000000000009999123100000010000000000000BRLAVVACNOR4113
012024082302LEVE3       010METAL LEVE  ON      NM   R$  000000000310100000000031460000000003081000000000312600000000031450000000003138000000000314602031000000000000358100000000001119425300000000000000009999123100000010000000000000BRLEVEACNOR2197
012024082302LJQQ3       010QUERO-QUERO ON      NM   R$  000000000041500000000004550000000000415000000000044200000000004440000000000444000000000044610217000000000006456700000000002860151500000000000000009999123100000010000000000000BRLJQQACNOR5104
012024082302LOGG3       010LOG COM PROPON      NM   R$  000000000239800000000024870000000002398000000000245900000000024570000000002457000000000245801206000000000000163600000000000402373600000000000000009999123100000010000000000000BRLOGGACNOR7107
012024082302LOGN3       010LOG-IN      ON      NM   R$  000000000366600000000036890000000003657000000000366700000000036570000000003655000000000367000020000000000000002700000000000009901300000000000000009999123100000010000000000000BRLOGNACNOR3105
012024082302LPSB3       010LOPES BRASILON      NM   R$  000000000017400000000001790000000000174000000000017500000000001780000000000177000000000017800198000000000000142800000000000025117100000000000000009999123100000010000000000000BRLPSBACNOR0114
012024082302LREN3       010LOJAS RENNERON      NM   R$  000000000165600000000017750000000001654000000000173800000000017750000000001772000000000177532499000000000029370800000000051071824200000000000000009999123100000010000000000000BRLRENACNOR1221
012024082302BNBR3       010NORD BRASIL ON           R$  000000001115100000000111510000000011150000000001115000000000111500000000010901000000001115000006000000000000000600000000000006690100000000000000009999123100000010000000000000BRBNBRACNOR8208
012024082302BRBI11      010BR PARTNERS UNT ED  N2   R$  000000000151500000000015520000000001501000000000153600000000015300000000001530000000000154101046000000000000172600000000000265209200000000000000009999123100000010000000000000BRBRBICDAM10110
012024082302BRFS3       010BRF SA      ON      NM   R$  000000000259900000000025990000000002457000000000251200000000025190000000002518000000000251923251000000000009262500000000023274750000000000000000009999123100000010000000000000BRBRFSACNOR8122
012024082302CSED3       010CRUZEIRO EDUON      NM   R$  000000000039800000000004100000000000389000000000039700000000004020000000000398000000000040202182000000000001873900000000000744990500000000000000009999123100000010000000000000BRCSEDACNOR9104
012024082302CSMG3       010COPASA      ON      NM   R$  000000000232700000000023590000000002322000000000234500000000023530000000002351000000000235403333000000000000626900000000001470459000000000000000009999123100000010000000000000BRCSMGACNOR5174
012024082302CSNA3       010SID NACIONALON           R$  000000000121200000000012380000000001202000000000122600000000012250000000001225000000000122809816000000000004891100000000005996857100000000000000009999123100000010000000000000BRCSNAACNOR6261
012024082302ENGI11      010ENERGISA    UNT     N2   R$  000000000479500000000049040000000004730000000000483800000000048650000000004865000000000487516384000000000003367900000000016295574800000000000000009999123100000010000000000000BRENGICDAM16136
012024082302BMEB3       010MERCANTIL   ON      N1   R$  000000000350000000000035500000000003500000000000351400000000035500000000003507000000000359800011000000000000007500000000000026355600000000000000009999123100000010000000000000BRBMEBACNOR8206
012024082302BMEB4       010MERCANTIL   PN      N1   R$  000000000379900000000039180000000003788000000000384900000000038860000000003885000000000391800084000000000000018700000000000071982100000000000000009999123100000010000000000000BRBMEBACNPR5211
012024082302BMGB4       010BANCO BMG   PN      N1   R$  000000000037000000000003790000000000370000000000037600000000003790000000000377000000000037900603000000000000278900000000000104961100000000000000009999123100000010000000000000BRBMGBACNPR0110
012024082302BMIN4       010MERC INVEST PN           R$  000000000167500000000016750000000001675000000000167500000000016750000000001600000000000166000001000000000000000100000000000000167500000000000000009999123100000010000000000000BRBMINACNPR1176
012024082302BMKS3       010BIC MONARK  ON           R$  000000003140000000000314000000000031000000000003127500000000310000000000030900000000003139900004000000000000000016000000000000500401000000000000009999123100000010000000000000BRBMKSACNOR9166
012024082302BMOB3       010BEMOBI TECH ON      NM   R$  000000000160100000000016490000000001593000000000162500000000016300000000001629000000000165101435000000000000199500000000000324258500000000000000009999123100000010000000000000BRBMOBACNOR7103
012024082302BLAU3       010BLAU        ON      NM   R$  000000000132000000000013790000000001318000000000134400000000013730000000001372000000000137701279000000000001062100000000001428449100000000000000009999123100000010000000000000BRBLAUACNOR8114
012024082302ENGI3       010ENERGISA    ON      N2   R$  000000000150000000000015000000000001422000000000146500000000014470000000001447000000000146600123000000000000022500000000000032982000000000000000009999123100000010000000000000BRENGIACNOR0146
012024082302ENGI4       010ENERGISA    PN      N2   R$  000000000082500000000008550000000000810000000000083100000000008550000000000855000000000087500078000000000000054500000000000045308100000000000000009999123100000010000000000000BRENGIACNPR7142
012024082302ENJU3       010ENJOEI      ON      NM   R$  000000000017800000000001820000000000175000000000017800000000001790000000000179000000000018001633000000000000657800000000000117630700000000000000009999123100000010000000000000BRENJUACNOR9100
012024082302ENMT3       010ENERGISA MT ON           R$  000000000803100000000084500000000008031000000000828300000000084500000000000000000000000850000004000000000000000600000000000004970000000000000000009999123100000010000000000000BRENMTACNOR5121
012024082302ENMT4       010ENERGISA MT PN           R$  000000000830000000000083000000000008300000000000830000000000083000000000008000000000000834800001000000000000000100000000000000830000000000000000009999123100000010000000000000BRENMTACNPR2126
012024082302EPAR3       010EMBPAR S/A  ON           R$  000000000058800000000005900000000000586000000000058700000000005900000000000587000000000058900022000000000000008000000000000004699100000000000000009999123100000010000000000000BREPARACNOR9105
012024082302EQMA3B      010EQTLMARANHAOON      MB   R$  000000000250100000000025150000000002501000000000251200000000025150000000002460000000000251500002000000000000000600000000000001507600000000000000009999123100000010000000000000BREQMAACNOR8108
012024082302EQPA3       010EQTL PARA   ON           R$  000000000067300000000006730000000000620000000000063400000000006260000000000626000000000062700235000000000000491700000000000312110200000000000000009999123100000010000000000000BREQPAACNOR1111
012024082302EQTL3       010EQUATORIAL  ON  ES  NM   R$  000000000351400000000035580000000003468000000000352500000000035310000000003531000000000354522873000000000005606900000000019766492300000000000000009999123100000010000000000000BREQTLACNOR0131
012024082302BGIP3       010BANESE      ON  EJ       R$  000000000255000000000025500000000002550000000000255000000000025500000000002351000000000335800001000000000000000100000000000000255000000000000000009999123100000010000000000000BRBGIPACNOR1209
012024082302BGIP4       010BANESE      PN  EJ       R$  000000000225000000000023990000000002250000000000225900000000023030000000002304000000000240000018000000000000010200000000000023049700000000000000009999123100000010000000000000BRBGIPACNPR8209
012024082302BHIA3       010CASAS BAHIA ON      NM   R$  000000000062500000000006570000000000615000000000064000000000006410000000000641000000000064303577000000000004303800000000002754840200000000000000009999123100000010000000000000BRBHIAACNOR1102
012024082302BPAN4       010BANCO PAN   PN      N1   R$  000000000103700000000010580000000001037000000000104600000000010450000000001044000000000104503141000000000001118900000000001170658900000000000000009999123100000010000000000000BRBPANACNPR1115
012024082302BRAP3       010BRADESPAR   ON      N1   R$  000000000177900000000017900000000001760000000000177600000000017600000000001760000000000176800912000000000000153900000000000273350300000000000000009999123100000010000000000000BRBRAPACNOR5148
012024082302BRAP4       010BRADESPAR   PN      N1   R$  000000000190900000000019230000000001889000000000190500000000018890000000001889000000000189009559000000000003588900000000006839604800000000000000009999123100000010000000000000BRBRAPACNPR2148
012024082302CRFB3       010CARREFOUR BRON      NM   R$  000000000091300000000009380000000000908000000000092600000000009300000000000930000000000093109804000000000004928700000000004567998500000000000000009999123100000010000000000000BRCRFBACNOR2116
012024082302CRPG5       010CRISTAL     PNA          R$  000000000289900000000028990000000002851000000000287500000000028510000000002852000000000288500002000000000000000200000000000000575000000000000000009999123100000010000000000000BRCRPGACNPA3119
012024082302PGMN3       010PAGUE MENOS ON      NM   R$  000000000032400000000003390000000000317000000000033200000000003390000000000338000000000033902493000000000000906500000000000300991100000000000000009999123100000010000000000000BRPGMNACNOR8103
012024082302PINE3       010PINE        ON      N2   R$  000000000057000000000005700000000000570000000000057000000000005700000000000559000000000057000004000000000000001100000000000000627000000000000000009999123100000010000000000000BRPINEACNOR1150
012024082302PINE4       010PINE        PN      N2   R$  000000000047900000000005090000000000479000000000049500000000004990000000000498000000000049901261000000000000535500000000000265132200000000000000009999123100000010000000000000BRPINEACNPR8150
012024082302PLAS3       010PLASCAR PARTON           R$  000000000061100000000006110000000000611000000000061100000000006110000000000618000000000073100001000000000000000100000000000000061100000000000000009999123100000010000000000000BRPLASACNOR2106
012024082302PLPL3       010PLANOEPLANO ON      NM   R$  000000000118000000000012410000000001178000000000121800000000012280000000001228000000000122903201000000000000709800000000000864846800000000000000009999123100000010000000000000BRPLPLACNOR5104
012024082302PNVL3       010DIMED       ON      NM   R$  000000000104000000000010680000000001040000000000105900000000010580000000001058000000000106501463000000000000253200000000000268157400000000000000009999123100000010000000000000BRPNVLACNOR9207
012024082302POMO3       010MARCOPOLO   ON      N2   R$  000000000053300000000005460000000000528000000000053600000000005380000000000538000000000054700474000000000000198000000000000106194000000000000000009999123100000010000000000000BRPOMOACNOR0098
012024082302POMO4       010MARCOPOLO   PN      N2   R$  000000000067900000000006970000000000666000000000068000000000006950000000000695000000000069611767000000000014883200000000010134645900000000000000009999123100000010000000000000BRPOMOACNPR7098
012024082302PORT3       010WILSON SONS ON      NM   R$  000000000168500000000017340000000001681000000000171900000000017300000000001724000000000173002852000000000002719000000000004676249400000000000000009999123100000010000000000000BRPORTACNOR8109
012024082302POSI3       010POSITIVO TECON      NM   R$  000000000067500000000006910000000000670000000000068200000000006830000000000683000000000068503516000000000001717500000000001172343300000000000000009999123100000010000000000000BRPOSIACNOR9116
012024082302RRRP3       0103R PETROLEUMON      NM   R$  000000000273100000000027970000000002722000000000276800000000027720000000002772000000000277712569000000000003651300000000010109504600000000000000009999123100000010000000000000BRRRRPACNOR5103
012024082302RSUL4       010RIOSULENSE  PN           R$  000000000637600000000064490000000006362000000000640300000000064340000000006313000000000643800010000000000000001100000000000007043900000000000000009999123100000010000000000000BRRSULACNPR3114
012024082302TRPL3       010TRAN PAULISTON      N1   R$  000000000319600000000032440000000003195000000000322600000000032440000000003218000000000323200011000000000000001200000000000003872200000000000000009999123100000010000000000000BRTRPLACNOR4185
012024082302TRPL4       010TRAN PAULISTPN      N1   R$  000000000250100000000025200000000002497000000000251100000000025170000000002517000000000251907728000000000001669100000000004191304300000000000000009999123100000010000000000000BRTRPLACNPR1185
012024082302TTEN3       0103TENTOS     ON      NM   R$  000000000120500000000012290000000001196000000000121600000000012100000000001209000000000121006717000000000001403900000000001707890400000000000000009999123100000010000000000000BRTTENACNOR0103
012024082302TUPY3       010TUPY        ON      NM   R$  000000000273500000000027770000000002703000000000274200000000027580000000002757000000000277402453000000000000407400000000001117146300000000000000009999123100000010000000000000BRTUPYACNOR1184
012024082302UCAS3       010UNICASA     ON      NM   R$  000000000022800000000002340000000000220000000000022600000000002240000000000224000000000022900391000000000000121500000000000027481000000000000000009999123100000010000000000000BRUCASACNOR1113
012024082302UGPA3       010ULTRAPAR    ON  ED  NM   R$  000000000238100000000024000000000002359000000000237400000000023650000000002365000000000236617983000000000005148100000000012225974200000000000000009999123100000010000000000000BRUGPAACNOR8156
012024082302UNIP3       010UNIPAR      ON           R$  000000000480600000000048760000000004791000000000484000000000048600000000004840000000000486000040000000000000005200000000000025172100000000000000009999123100000010000000000000BRUNIPACNOR7206
012024082302UNIP5       010UNIPAR      PNA          R$  000000000492600000000049260000000004926000000000492600000000049260000000004910000000000500900001000000000000000100000000000000492600000000000000009999123100000010000000000000BRUNIPACNPA0208
012024082302ODPV3       010ODONTOPREV  ON      NM   R$  000000000116700000000011990000000001163000000000118400000000011850000000001184000000000119803455000000000001270700000000001505681600000000000000009999123100000010000000000000BRODPVACNOR4202
012024082302OFSA3       010OUROFINO S/AON      NM   R$  000000000221100000000022690000000002211000000000224000000000022690000000002222000000000226900002000000000000000200000000000000448000000000000000009999123100000010000000000000BROFSAACNOR7118
012024082302ONCO3       010ONCOCLINICASON      NM   R$  000000000061300000000006200000000000604000000000061100000000006100000000000610000000000061304225000000000001735800000000001061621200000000000000009999123100000010000000000000BRONCOACNOR6101
012024082302OPCT3       010OCEANPACT   ON      NM   R$  000000000063600000000006470000000000628000000000063500000000006280000000000628000000000063102737000000000000675100000000000428825100000000000000009999123100000010000000000000BROPCTACNOR0100
012024082302ORVR3       010ORIZON      ON      NM   R$  000000000453100000000045940000000004501000000000456800000000045900000000004590000000000459401796000000000000337000000000001539458900000000000000009999123100000010000000000000BRORVRACNOR0101
012024082302PATI3       010PANATLANTICAON           R$  000000000335000000000034710000000003350000000000344500000000034700000000003350000000000347000012000000000000002900000000000009993000000000000000009999123100000010000000000000BRPATIACNOR6065
012024082302ROMI3       010ROMI        ON      NM   R$  000000000109100000000011300000000001091000000000111700000000011280000000001126000000000112801047000000000000215700000000000241034700000000000000009999123100000010000000000000BRROMIACNOR8195
012024082302TASA3       010TAURUS ARMASON      N2   R$  000000000111500000000011370000000001107000000000112900000000011280000000001128000000000113500065000000000000026800000000000030275500000000000000009999123100000010000000000000BRTASAACNOR7104
012024082302TASA4       010TAURUS ARMASPN      N2   R$  000000000110500000000011330000000001105000000000112200000000011230000000001120000000000112301207000000000000264200000000000296453000000000000000009999123100000010000000000000BRTASAACNPR4104
012024082302TCSA3       010TECNISA     ON      NM   R$  000000000019900000000002040000000000195000000000019800000000001990000000000199000000000020000193000000000000133400000000000026545800000000000000009999123100000010000000000000BRTCSAACNOR3112
012024082302TECN3       010TECHNOS     ON      NM   R$  000000000058300000000005920000000000553000000000057000000000005750000000000568000000000057500878000000000000339800000000000193977800000000000000009999123100000010000000000000BRTECNACNOR6109
012024082302KEPL3       010KEPLER WEBERON      NM   R$  000000000111000000000011540000000001110000000000113900000000011510000000001149000000000115102265000000000000644000000000000733851200000000000000009999123100000010000000000000BRKEPLACNOR1064
012024082302KLBN11      010KLABIN S/A  UNT     N2   R$  000000000220900000000022330000000002200000000000221600000000022140000000002213000000000221609711000000000002279000000000005052531700000000000000009999123100000010000000000000BRKLBNCDAM18143
012024082302KLBN3       010KLABIN S/A  ON      N2   R$  000000000044400000000004490000000000443000000000044500000000004460000000000444000000000044600501000000000000243600000000000108628800000000000000009999123100000010000000000000BRKLBNACNOR2171
012024082302KLBN4       010KLABIN S/A  PN      N2   R$  000000000044000000000004460000000000439000000000044200000000004400000000000440000000000044101345000000000000866600000000000383507800000000000000009999123100000010000000000000BRKLBNACNPR9171
012024082302MTRE3       010MITRE REALTYON  ED  NM   R$  000000000038300000000003930000000000381000000000038900000000003930000000000390000000000039301532000000000000724900000000000281999200000000000000009999123100000010000000000000BRMTREACNOR6114
012024082302MTSA4       010METISA      PN           R$  000000000440500000000044360000000004361000000000440900000000044360000000004290000000000445000021000000000000003700000000000016316800000000000000009999123100000010000000000000BRMTSAACNPR9072
012024082302MULT3       010MULTIPLAN   ON      N2   R$  000000000263500000000027000000000002602000000000265700000000026690000000002667000000000267024309000000000005744200000000015266357400000000000000009999123100000010000000000000BRMULTACNOR5139
012024082302MWET4       010WETZEL S/A  PN           R$  000000000085700000000008570000000000857000000000085700000000008570000000000858000000000092000001000000000000000100000000000000085700000000000000009999123100000010000000000000BRMWETACNPR3118
012024082302VITT3       010VITTIA      ON      NM   R$  000000000061100000000006370000000000606000000000062600000000006370000000000635000000000063700832000000000000278600000000000174532700000000000000009999123100000010000000000000BRVITTACNOR4107
012024082302VIVA3       010VIVARA S.A. ON      NM   R$  000000000268900000000027450000000002665000000000271800000000027020000000002702000000000271811297000000000002429600000000006604650900000000000000009999123100000010000000000000BRVIVAACNOR0107
012024082302VIVR3       010VIVER       ON      NM   R$  000000000026000000000002650000000000250000000000025300000000002500000000000249000000000025300264000000000000193800000000000049088300000000000000009999123100000010000000000000BRVIVRACNOR4123
012024082302VIVT3       010TELEF BRASILON           R$  000000000521800000000053490000000005213000000000530800000000053170000000005316000000000531715759000000000002312000000000012273976400000000000000009999123100000010000000000000BRVIVTACNOR0183
012024082302SBFG3       010GRUPO SBF   ON      NM   R$  000000000172200000000017750000000001714000000000173900000000017600000000001756000000000176106772000000000002220300000000003862311900000000000000009999123100000010000000000000BRSBFGACNOR1103
012024082302SBSP3       010SABESP      ON      NM   R$  000000000977000000000098200000000009650000000000970900000000096800000000009677000000000968212702000000000002605600000000025299806500000000000000009999123100000010000000000000BRSBSPACNOR5161
012024082302SCAR3       010SAO CARLOS  ON      NM   R$  000000000237500000000023750000000002300000000000232700000000023000000000002300000000000230700433000000000000095500000000000222243700000000000000009999123100000010000000000000BRSCARACNOR7131
012024082302VALE3       010VALE        ON      NM   R$  000000000582600000000058380000000005725000000000578800000000057400000000005740000000000574552559000000000024013400000000138991410600000000000000009999123100000010000000000000BRVALEACNOR0211
012024082302VAMO3       010VAMOS       ON      NM   R$  000000000080400000000008350000000000794000000000082000000000008230000000000823000000000082409907000000000006010600000000004933518500000000000000009999123100000010000000000000BRVAMOACNOR7105
012024082302PRIO3       010PETRORIO    ON      NM   R$  000000000475200000000047600000000004691000000000471700000000047050000000004704000000000470617564000000000005836600000000027534586300000000000000009999123100000010000000000000BRPRIOACNOR1107
012024082302SANB11      010SANTANDER BRUNT          R$  000000000311000000000031620000000003098000000000314600000000031290000000003129000000000313307708000000000002289500000000007204117900000000000000009999123100000010000000000000BRSANBCDAM13165
012024082302SANB3       010SANTANDER BRON           R$  000000000147700000000015080000000001471000000000149700000000014850000000001485000000000149900727000000000000119000000000000178226300000000000000009999123100000010000000000000BRSANBACNOR8172
012024082302SANB4       010SANTANDER BRPN           R$  000000000161200000000016500000000001611000000000163900000000016300000000001628000000000164000754000000000000134200000000000219978800000000000000009999123100000010000000000000BRSANBACNPR5172
012024082302SAPR11      010SANEPAR     UNT     N2   R$  000000000286800000000029190000000002863000000000290100000000029010000000002899000000000290303661000000000000790900000000002294906000000000000000009999123100000010000000000000BRSAPRCDAM13118
012024082302SAPR3       010SANEPAR     ON      N2   R$  000000000054700000000005560000000000543000000000055000000000005550000000000554000000000055500706000000000000267200000000000147149700000000000000009999123100000010000000000000BRSAPRACNOR9159
012024082302SAPR4       010SANEPAR     PN      N2   R$  000000000057700000000005870000000000577000000000058300000000005850000000000585000000000058603047000000000001505400000000000878736600000000000000009999123100000010000000000000BRSAPRACNPR6159
012024082302UNIP6       010UNIPAR      PNB          R$  000000000485700000000049670000000004850000000000492000000000049260000000004924000000000494601115000000000000186100000000000915682100000000000000009999123100000010000000000000BRUNIPACNPB8206
012024082302USIM3       010USIMINAS    ON      N1   R$  000000000062300000000006430000000000618000000000063400000000006410000000000639000000000064101090000000000000341000000000000216196400000000000000009999123100000010000000000000BRUSIMACNOR3167
012024082302USIM5       010USIMINAS    PNA     N1   R$  000000000064300000000006640000000000636000000000065500000000006580000000000658000000000065918541000000000014382500000000009423533400000000000000009999123100000010000000000000BRUSIMACNPA6169
012024082302PCAR3       010P.ACUCAR-CBDON      NM   R$  000000000031900000000003320000000000319000000000032500000000003210000000000320000000000032107045000000000009530800000000003106414800000000000000009999123100000010000000000000BRPCARACNOR3167
012024082302PDGR3       010PDG REALT   ON      NM   R$  000000000001700000000000180000000000016000000000001600000000000160000000000016000000000001700340000000000002861100000000000048620500000000000000009999123100000010000000000000BRPDGRACNOR8119
012024082302PDTC3       010PADTEC      ON      NM   R$  000000000019100000000001950000000000190000000000019200000000001950000000000191000000000019400064000000000000033600000000000006468300000000000000009999123100000010000000000000BRPDTCACNOR3101
012024082302PEAB3       010PAR AL BAHIAON           R$  000000000430000000000045500000000004300000000000447800000000045500000000000000000000000450000002000000000000000700000000000003135000000000000000009999123100000010000000000000BRPEABACNOR3133
012024082302PETR3       010PETROBRAS   ON  EDJ N2   R$  000000000401000000000040320000000003939000000000398000000000039390000000003938000000000394825130000000000006366900000000025341056500000000000000009999123100000010000000000000BRPETRACNOR9206
012024082302PETR4       010PETROBRAS   PN  EDJ N2   R$  000000000373700000000037530000000003689000000000371900000000036890000000003689000000000369041761000000000029076400000000108144335200000000000000009999123100000010000000000000BRPETRACNPR6214
012024082302PFRM3       010PROFARMA    ON      NM   R$  000000000062100000000006450000000000603000000000062700000000006420000000000642000000000064300552000000000000172200000000000108018900000000000000009999123100000010000000000000BRPFRMACNOR1116
012024082302TELB3       010TELEBRAS    ON           R$  000000000139700000000013970000000001360000000000137800000000013600000000001356000000000139800002000000000000000200000000000000275700000000000000009999123100000010000000000000BRTELBACNOR2140
012024082302TELB4       010TELEBRAS    PN           R$  000000000089600000000009100000000000892000000000089800000000009030000000000892000000000090400026000000000000006300000000000005660800000000000000009999123100000010000000000000BRTELBACNPR9140
012024082302TEND3       010TENDA       ON      NM   R$  000000000132400000000014100000000001324000000000137500000000014020000000001399000000000140306627000000000002258100000000003105388000000000000000009999123100000010000000000000BRTENDACNOR4111
012024082302TFCO4       010TRACK FIELD PN      N2   R$  000000000120700000000012300000000001207000000000122800000000012300000000001217000000000123100281000000000000247800000000000304463300000000000000009999123100000010000000000000BRTFCOACNPR8114
012024082302TGMA3       010TEGMA       ON      NM   R$  000000000255800000000026310000000002558000000000260700000000026190000000002619000000000263000783000000000000114600000000000298853500000000000000009999123100000010000000000000BRTGMAACNOR7145
012024082302TIMS3       010TIM         ON      NM   R$  000000000179600000000018290000000001791000000000181500000000018140000000001814000000000182310516000000000003509600000000006371586400000000000000009999123100000010000000000000BRTIMSACNOR5117
012024082302TKNO4       010TEKNO       PN           R$  000000000890000000000089000000000008900000000000890000000000089000000000008500000000000890000001000000000000000100000000000000890000000000000000009999123100000010000000000000BRTKNOACNPR5075
012024082302HAPV3       010HAPVIDA     ON      NM   R$  000000000043700000000004520000000000435000000000044600000000004490000000000448000000000044931258000000000040812100000000018232530400000000000000009999123100000010000000000000BRHAPVACNOR4114
012024082302HBOR3       010HELBOR      ON      NM   R$  000000000021400000000002190000000000210000000000021500000000002160000000000216000000000021700624000000000000633600000000000136467900000000000000009999123100000010000000000000BRHBORACNOR3118
012024082302HBRE3       010HBR REALTY  ON      NM   R$  000000000051200000000005320000000000512000000000052300000000005290000000000529000000000053100416000000000000187300000000000098140800000000000000009999123100000010000000000000BRHBREACNOR4100
012024082302HBSA3       010HIDROVIAS   ON      NM   R$  000000000037600000000003900000000000371000000000038200000000003790000000000379000000000038004718000000000002354100000000000901156600000000000000009999123100000010000000000000BRHBSAACNOR0100
012024082302TOTS3       010TOTVS       ON      NM   R$  000000000306500000000031760000000003064000000000313300000000031460000000003145000000000315511326000000000002029300000000006358641100000000000000009999123100000010000000000000BRTOTSACNOR8145
012024082302TPIS3       010TRIUNFO PARTON      NM   R$  000000000045500000000005770000000000451000000000052700000000005390000000000539000000000054501831000000000001040100000000000548149400000000000000009999123100000010000000000000BRTPISACNOR8118
012024082302TRAD3       010TC          ON      NM   R$  000000000035800000000003610000000000344000000000035100000000003550000000000345000000000035500211000000000000224500000000000078930600000000000000009999123100000010000000000000BRTRADACNOR3102
012024082302TRIS3       010TRISUL      ON      NM   R$  000000000046500000000004810000000000465000000000047600000000004800000000000477000000000048001158000000000000352200000000000167651100000000000000009999123100000010000000000000BRTRISACNOR4118
012024082302GEPA4       010GER PARANAP PN           R$  000000000260000000000026390000000002600000000000261300000000026390000000002610000000000263700003000000000000000300000000000000783900000000000000009999123100000010000000000000BRGEPAACNPR9160
012024082302NEOE3       010NEOENERGIA  ON      NM   R$  000000000192900000000020250000000001924000000000198500000000020110000000002010000000000201605493000000000001789600000000003552670300000000000000009999123100000010000000000000BRNEOEACNOR3123
012024082302NGRD3       010NEOGRID     ON      NM   R$  000000000013300000000001360000000000130000000000013300000000001350000000000135000000000013601850000000000001426400000000000190514400000000000000009999123100000010000000000000BRNGRDACNOR3104
012024082302NINJ3       010GETNINJAS   ON      NM   R$  000000000046900000000004700000000000466000000000046800000000004700000000000460000000000047100009000000000000002800000000000001311700000000000000009999123100000010000000000000BRNINJACNOR5101
012024082302NORD3       010NORDON MET  ON           R$  000000000100000000000010000000000001000000000000100000000000010000000000000880000000000108900001000000000000000100000000000000100000000000000000009999123100000010000000000000BRNORDACNOR7135
012024082302NTCO3       010GRUPO NATURAON      NM   R$  000000000134300000000013880000000001334000000000136800000000013750000000001375000000000138018502000000000010192700000000013944904900000000000000009999123100000010000000000000BRNTCOACNOR5106
012024082302PETZ3       010PETZ        ON      NM   R$  000000000051000000000005330000000000507000000000052000000000005250000000000522000000000052522885000000000031208200000000016246368100000000000000009999123100000010000000000000BRPETZACNOR2110
012024082302RECV3       010PETRORECSA  ON      NM   R$  000000000211900000000021770000000002104000000000215400000000021510000000002151000000000215606606000000000001336700000000002879750300000000000000009999123100000010000000000000BRRECVACNOR3107
012024082302REDE3       010REDE ENERGIAON           R$  000000000068700000000006950000000000683000000000068700000000006950000000000686000000000069500015000000000000002100000000000001443500000000000000009999123100000010000000000000BRREDEACNOR7128
012024082302RENT3       010LOCALIZA    ON      NM   R$  000000000422900000000042850000000004154000000000423100000000042300000000004229000000000423035377000000000009156100000000038741308400000000000000009999123100000010000000000000BRRENTACNOR4196
012024082302SYNE3       010SYN PROP TECON  ED  NM   R$  000000000078000000000008290000000000773000000000080500000000008260000000000825000000000082601733000000000000739600000000000596022400000000000000009999123100000010000000000000BRSYNEACNOR2103
012024082302TAEE11      010TAESA       UNT EDJ N2   R$  000000000358700000000036050000000003571000000000358200000000035750000000003575000000000357809613000000000001921100000000006882720000000000000000009999123100000010000000000000BRTAEECDAM10148
012024082302TAEE3       010TAESA       ON  EDJ N2   R$  000000000118300000000011950000000001182000000000118600000000011840000000001182000000000118600449000000000000105000000000000124633200000000000000009999123100000010000000000000BRTAEEACNOR9148
012024082302TAEE4       010TAESA       PN  EDJ N2   R$  000000000119700000000012030000000001193000000000119800000000012010000000001196000000000120100582000000000000150600000000000180499600000000000000009999123100000010000000000000BRTAEEACNPR6148
012024082302YDUQ3       010YDUQS PART  ON      NM   R$  000000000098000000000010360000000000973000000000101200000000010310000000001030000000000103212395000000000005576700000000005648239200000000000000009999123100000010000000000000BRYDUQACNOR3105
012024082302ZAMP3       010ZAMP S.A.   ON           R$  000000000034100000000003500000000000340000000000034500000000003470000000000344000000000034702476000000000000417900000000000144527200000000000000009999123100000010000000000000BRZAMPACNOR5101
012024082302MLAS3       010MULTILASER  ON      NM   R$  000000000018700000000002040000000000185000000000019700000000002000000000000200000000000020105116000000000006984800000000001381336500000000000000009999123100000010000000000000BRMLASACNOR9101
012024082302MNDL3       010MUNDIAL     ON           R$  000000000129900000000012990000000001100000000000111600000000011000000000000000000000000132800055000000000000029400000000000032837200000000000000009999123100000010000000000000BRMNDLACNOR4109
012024082302MNPR3       010MINUPAR     ON           R$  000000000151300000000015130000000001460000000000149300000000015120000000001497000000000151200014000000000000002200000000000003285100000000000000009999123100000010000000000000BRMNPRACNOR5122
012024082302MOVI3       010MOVIDA      ON      NM   R$  000000000073100000000007680000000000727000000000075300000000007580000000000758000000000076105511000000000003299900000000002485918200000000000000009999123100000010000000000000BRMOVIACNOR0122
012024082302MRFG3       010MARFRIG     ON      NM   R$  000000000146800000000014800000000001416000000000144100000000014560000000001456000000000145725006000000000007390200000000010652528100000000000000009999123100000010000000000000BRMRFGACNOR0116
012024082302RAIZ4       010RAIZEN      PN      N2   R$  000000000032200000000003320000000000322000000000032600000000003270000000000326000000000032717778000000000017499800000000005722415900000000000000009999123100000010000000000000BRRAIZACNPR6111
012024082302RANI3       010IRANI       ON      NM   R$  000000000080700000000008180000000000804000000000081200000000008170000000000815000000000081703873000000000001371200000000001113875600000000000000009999123100000010000000000000BRRANIACNOR5073
012024082302RAPT3       010RANDON PART ON      N1   R$  000000000086800000000009080000000000868000000000089100000000009060000000000900000000000090600098000000000000018700000000000016677700000000000000009999123100000010000000000000BRRAPTACNOR7163
012024082302RAPT4       010RANDON PART PN      N1   R$  000000000108000000000011330000000001079000000000111400000000011280000000001127000000000112903359000000000001562900000000001742294500000000000000009999123100000010000000000000BRRAPTACNPR4163
012024082302CLSA3       010CLEARSALE   ON      NM   R$  000000000076100000000007680000000000722000000000073800000000007270000000000727000000000072905459000000000002350100000000001735466200000000000000009999123100000010000000000000BRCLSAACNOR0100
012024082302CLSC4       010CELESC      PN      N2   R$  000000000786100000000079180000000007825000000000786800000000079180000000007835000000000791700003000000000000000300000000000002360400000000000000009999123100000010000000000000BRCLSCACNPR3131
012024082302CMIG3       010CEMIG       ON      N1   R$  000000000142500000000014480000000001424000000000143600000000014420000000001431000000000144200870000000000000246900000000000354737700000000000000009999123100000010000000000000BRCMIGACNOR6242
012024082302CMIG4       010CEMIG       PN      N1   R$  000000000121000000000012180000000001197000000000120800000000012010000000001200000000000120120871000000000021801000000000026346949000000000000000009999123100000010000000000000BRCMIGACNPR3243
012024082302CMIN3       010CSNMINERACAOON      N2   R$  000000000054000000000005610000000000536000000000055400000000005550000000000555000000000055810648000000000008148000000000004519480500000000000000009999123100000010000000000000BRCMINACNOR2111
012024082302BBSE3       010BBSEGURIDADEON  ED  NM   R$  000000000360500000000037140000000003605000000000368500000000036990000000003698000000000370016237000000000003598200000000013260641300000000000000009999123100000010000000000000BRBBSEACNOR5125
012024082302CGRA3       010GRAZZIOTIN  ON           R$  000000000251100000000025300000000002511000000000251500000000025110000000002511000000000253900021000000000000003200000000000008049800000000000000009999123100000010000000000000BRCGRAACNOR2083
012024082302CGRA4       010GRAZZIOTIN  PN           R$  000000000255800000000025850000000002540000000000256500000000025850000000002576000000000260400032000000000000007400000000000018984300000000000000009999123100000010000000000000BRCGRAACNPR9083
012024082302CIEL3       010CIELO       ON           R$  000000000058300000000005830000000000582000000000058200000000005830000000000582000000000058300790000000000003537100000000002060681100000000000000009999123100000010000000000000BRCIELACNOR3157
012024082302DASA3       010DASA        ON      NM   R$  000000000032800000000003450000000000328000000000033700000000003300000000000330000000000033101727000000000001029900000000000348095400000000000000009999123100000010000000000000BRDASAACNOR1122
012024082302DESK3       010DESKTOP     ON      NM   R$  000000000157300000000016150000000001550000000000157400000000016080000000001581000000000160900735000000000000258300000000000406600900000000000000009999123100000010000000000000BRDESKACNOR2104
012024082302DEXP3       010DEXXOS PAR  ON      N1   R$  000000000095300000000009880000000000951000000000097500000000009750000000000973000000000097500622000000000000190700000000000185984500000000000000009999123100000010000000000000BRDEXPACNOR1105
012024082302DEXP4       010DEXXOS PAR  PN      N1   R$  000000000094500000000009560000000000940000000000094700000000009500000000000950000000000097000014000000000000005800000000000005495300000000000000009999123100000010000000000000BRDEXPACNPR8105
012024082302APER3       010ALPER S.A.  ON           R$  000000000456200000000045900000000004562000000000457000000000045900000000004575000000000463000003000000000000000700000000000003199000000000000000009999123100000010000000000000BRAPERACNOR9106
012024082302ARML3       010ARMAC       ON      NM   R$  000000000091500000000009680000000000908000000000095200000000009600000000000955000000000096003027000000000000620000000000000590804400000000000000009999123100000010000000000000BRARMLACNOR1112
012024082302ASAI3       010ASSAI       ON      NM   R$  000000000098200000000009940000000000968000000000098100000000009730000000000973000000000097525867000000000014312500000000014043144600000000000000009999123100000010000000000000BRASAIACNOR0106
012024082302ATOM3       010ATOMPAR     ON           R$  000000000020600000000002160000000000206000000000021100000000002110000000000211000000000021400027000000000000011200000000000002364800000000000000009999123100000010000000000000BRATOMACNOR1106
012024082302AMAR3       010LOJAS MARISAON      NM   R$  000000000011500000000001190000000000113000000000011500000000001150000000000115000000000011600526000000000000456100000000000052875100000000000000009999123100000010000000000000BRAMARACNOR4115
012024082302AMBP3       010AMBIPAR     ON      NM   R$  000000000800000000000090800000000007920000000000872200000000088220000000008800000000000882302325000000000000756800000000006601236900000000000000009999123100000010000000000000BRAMBPACNOR6103
012024082302ANIM3       010ANIMA       ON  ED  NM   R$  000000000032600000000003490000000000326000000000033900000000003450000000000341000000000034507524000000000009374500000000003181651700000000000000009999123100000010000000000000BRANIMACNOR6109
012024082302BRSR3       010BANRISUL    ON      N1   R$  000000000133700000000013680000000001337000000000135600000000013630000000001363000000000136800048000000000000006400000000000008678700000000000000009999123100000010000000000000BRBRSRACNOR3188
012024082302BRSR6       010BANRISUL    PNB     N1   R$  000000000123000000000012730000000001230000000000126300000000012590000000001258000000000126403495000000000000896200000000001132437200000000000000009999123100000010000000000000BRBRSRACNPB4191
012024082302BSLI3       010BRB BANCO   ON           R$  000000000108800000000010880000000001088000000000108800000000010880000000001088000000000110000002000000000000000200000000000000217600000000000000009999123100000010000000000000BRBSLIACNOR5194
012024082302CAML3       010CAMIL       ON      NM   R$  000000000092700000000009400000000000923000000000093000000000009290000000000927000000000092901547000000000000306900000000000285714600000000000000009999123100000010000000000000BRCAMLACNOR3128
012024082302CASH3       010MELIUZ      ON      NM   R$  000000000064100000000006430000000000631000000000063600000000006350000000000635000000000063602885000000000000894200000000000569181100000000000000009999123100000010000000000000BRCASHACNOR8106
012024082302CBAV3       010CBA         ON      NM   R$  000000000052500000000005590000000000522000000000054500000000005420000000000541000000000054506651000000000003571400000000001949840600000000000000009999123100000010000000000000BRCBAVACNOR5104
012024082302CBEE3       010AMPLA ENERG ON           R$  000000000098000000000009800000000000980000000000098000000000009800000000000970000000000149600001000000000000000100000000000000098000000000000000009999123100000010000000000000BRCBEEACNOR3159
012024082302CCRO3       010CCR SA      ON      NM   R$  000000000131200000000013640000000001309000000000134600000000013600000000001359000000000136115016000000000011364800000000015297682200000000000000009999123100000010000000000000BRCCROACNOR2145
012024082302CEAB3       010CEA MODAS   ON      NM   R$  000000000094700000000010360000000000945000000000100700000000010340000000001031000000000103507809000000000003451200000000003477105900000000000000009999123100000010000000000000BRCEABACNOR1102
012024082302CEBR3       010CEB         ON           R$  000000000198300000000019900000000001970000000000197900000000019900000000001970000000000199000007000000000000000700000000000001385600000000000000009999123100000010000000000000BRCEBRACNOR5125
012024082302CEBR5       010CEB         PNA          R$  000000000166800000000016680000000001668000000000166800000000016680000000001666000000000166800007000000000000001700000000000002835600000000000000009999123100000010000000000000BRCEBRACNPA8124
012024082302CEBR6       010CEB         PNB          R$  000000000181100000000018150000000001790000000000180500000000018000000000001800000000000181400017000000000000003000000000000005417600000000000000009999123100000010000000000000BRCEBRACNPB6124
012024082302CEDO4       010CEDRO       PN      N1   R$  000000000245700000000024570000000002457000000000245700000000024570000000002457000000000250800004000000000000000900000000000002211300000000000000009999123100000010000000000000BRCEDOACNPR5128
012024082302AURE3       010AUREN       ON      NM   R$  000000000115600000000011650000000001148000000000115700000000011590000000001159000000000116005743000000000003139200000000003634906200000000000000009999123100000010000000000000BRAUREACNOR9104
012024082302AVLL3       010ALPHAVILLE  ON      NM   R$  000000000039800000000004040000000000398000000000040200000000004030000000000398000000000040500024000000000000048800000000000019665300000000000000009999123100000010000000000000BRAVLLACNOR5103
012024082302AZEV3       010AZEVEDO     ON           R$  000000000014600000000001500000000000144000000000014600000000001460000000000145000000000014600396000000000000466600000000000068179700000000000000009999123100000010000000000000BRAZEVACNOR0121
012024082302AZEV4       010AZEVEDO     PN           R$  000000000014500000000001490000000000144000000000014500000000001440000000000143000000000014401136000000000002140700000000000311863100000000000000009999123100000010000000000000BRAZEVACNPR7121
012024082302AZUL4       010AZUL        PN      N2   R$  000000000074800000000007680000000000746000000000076100000000007600000000000760000000000076108080000000000013704700000000010429511800000000000000009999123100000010000000000000BRAZULACNPR4102
012024082302CAMB3       010CAMBUCI     ON           R$  000000000122700000000012300000000001212000000000122100000000012300000000001220000000000123200122000000000000058500000000000071478900000000000000009999123100000010000000000000BRCAMBACNOR4131
012024082302DIRR3       010DIRECIONAL  ON      NM   R$  000000000284500000000029300000000002829000000000289300000000029000000000002899000000000290005355000000000001098300000000003178162800000000000000009999123100000010000000000000BRDIRRACNOR0118
012024082302DMVF3       010D1000VFARMA ON      NM   R$  000000000074600000000007570000000000734000000000074400000000007570000000000748000000000075700357000000000000070000000000000052116800000000000000009999123100000010000000000000BRDMVFACNOR9100
012024082302DOHL4       010DOHLER      PN           R$  000000000041200000000004170000000000412000000000041600000000004170000000000417000000000042100008000000000000006800000000000002834500000000000000009999123100000010000000000000BRDOHLACNPR9066
012024082302DOTZ3       010DOTZ SA     ON      NM   R$  000000000085400000000008540000000000797000000000082400000000008010000000000800000000000085500047000000000000009300000000000007670400000000000000009999123100000010000000000000BRDOTZACNOR7101
012024082302DTCY3       010DTCOM-DIRECTON           R$  000000000047200000000004720000000000472000000000047200000000004720000000000451000000000049000001000000000000000100000000000000047200000000000000009999123100000010000000000000BRDTCYACNOR5109
012024082302DXCO3       010DEXCO       ON      NM   R$  000000000080400000000008480000000000801000000000083300000000008410000000000840000000000084412122000000000005113900000000004263728700000000000000009999123100000010000000000000BRDXCOACNOR8105
012024082302GGPS3       010GPS         ON      NM   R$  000000000174000000000017690000000001719000000000173700000000017480000000001746000000000174806674000000000007461400000000012962873700000000000000009999123100000010000000000000BRGGPSACNOR9103
012024082302GMAT3       010GRUPO MATEUSON      NM   R$  000000000078400000000008080000000000780000000000079600000000008010000000000800000000000080106176000000000003021800000000002406390400000000000000009999123100000010000000000000BRGMATACNOR7102
012024082302ALPA3       010ALPARGATAS  ON      N1   R$  000000000076900000000007740000000000768000000000076900000000007740000000000769000000000079800012000000000000007400000000000005695200000000000000009999123100000010000000000000BRALPAACNOR0231
012024082302ALPA4       010ALPARGATAS  PN      N1   R$  000000000081100000000008320000000000800000000000082000000000008270000000000826000000000082907539000000000002219100000000001821343200000000000000009999123100000010000000000000BRALPAACNPR7232
012024082302ALPK3       010ESTAPAR     ON      NM   R$  000000000037600000000003870000000000376000000000038200000000003860000000000383000000000038700293000000000000110900000000000042369100000000000000009999123100000010000000000000BRALPKACNOR9101
012024082302ALUP11      010ALUPAR      UNT ED  N2   R$  000000000314800000000031920000000003145000000000317400000000031720000000003169000000000318703551000000000000713900000000002266604600000000000000009999123100000010000000000000BRALUPCDAM15120
012024082302ALUP3       010ALUPAR      ON  ED  N2   R$  000000000108500000000010980000000001076000000000108700000000010890000000001089000000000109700024000000000000003600000000000003915000000000000000009999123100000010000000000000BRALUPACNOR8120
012024082302ALUP4       010ALUPAR      PN  ED  N2   R$  000000000103800000000010480000000001032000000000103800000000010470000000001036000000000104800055000000000000011800000000000012255700000000000000009999123100000010000000000000BRALUPACNPR5120
012024082302ITSA3       010ITAUSA      ON      N1   R$  000000000109600000000011080000000001094000000000109700000000010960000000001096000000000110001017000000000000270600000000000297052600000000000000009999123100000010000000000000BRITSAACNOR0441
012024082302ITSA4       010ITAUSA      PN      N1   R$  000000000109900000000011080000000001092000000000110000000000010960000000001096000000000109727648000000000027902600000000030708849500000000000000009999123100000010000000000000BRITSAACNPR7441
012024082302LUPA3       010LUPATECH    ON      NM   R$  000000000015800000000001620000000000158000000000015900000000001600000000000159000000000016000076000000000000026500000000000004230800000000000000009999123100000010000000000000BRLUPAACNOR8112
012024082302FESA3       010FERBASA     ON      N1   R$  000000000137500000000013750000000001375000000000137500000000013750000000001371000000000143800001000000000000000100000000000000137500000000000000009999123100000010000000000000BRFESAACNOR8188
012024082302FESA4       010FERBASA     PN      N1   R$  000000000085700000000008570000000000825000000000083600000000008350000000000834000000000083602779000000000000724800000000000606399800000000000000009999123100000010000000000000BRFESAACNPR5084
012024082302FHER3       010FER HERINGERON      NM   R$  000000000042900000000004290000000000412000000000041400000000004120000000000411000000000041200020000000000000013700000000000005682900000000000000009999123100000010000000000000BRFHERACNOR5103
012024082302FIEI3       010FICA        ON           R$  000000000100800000000010080000000000970000000000098800000000009930000000000993000000000107000019000000000000007000000000000006921500000000000000009999123100000010000000000000BRFIEIACNOR2100
012024082302JHSF3       010JHSF PART   ON      NM   R$  000000000043700000000004480000000000435000000000044400000000004460000000000445000000000044603261000000000002429600000000001079356500000000000000009999123100000010000000000000BRJHSFACNOR2138
012024082302MRSA5B      010MRS LOGIST  PNA     MB   R$  000000000300000000000030000000000002900000000000293300000000029000000000002900000000000325000002000000000000000300000000000000880000000000000000009999123100000010000000000000BRMRSAACNPA9125
012024082302MRVE3       010MRV         ON      NM   R$  000000000072000000000007600000000000716000000000074200000000007550000000000754000000000075516144000000000014567000000000010821755900000000000000009999123100000010000000000000BRMRVEACNOR2127
012024082302B3SA3       010B3          ON      NM   R$  000000000126500000000012850000000001254000000000127300000000012740000000001273000000000127444440000000000058243700000000074159290900000000000000009999123100000010000000000000BRB3SAACNOR6133
012024082302BEEF3       010MINERVA     ON      NM   R$  000000000077500000000008020000000000764000000000078600000000007950000000000794000000000079611134000000000011685900000000009188804700000000000000009999123100000010000000000000BRBEEFACNOR6116
012024082302JALL3       010JALLESMACHADON      NM   R$  000000000067200000000006860000000000671000000000067900000000006810000000000680000000000068500685000000000000272500000000000185206600000000000000009999123100000010000000000000BRJALLACNOR0106
012024082302JBSS3       010JBS         ON  ED  NM   R$  000000000364500000000036450000000003473000000000351600000000034830000000003483000000000348831352000000000009106900000000032023011800000000000000009999123100000010000000000000BRJBSSACNOR8122
012024082302MILS3       010MILLS       ON  EDJ NM   R$  000000000109700000000011410000000001097000000000112700000000011350000000001134000000000113502297000000000000545200000000000614781400000000000000009999123100000010000000000000BRMILSACNOR2128
012024082302AZZA3       010AZZAS 2154  ON      NM   R$  000000000506000000000052950000000005027000000000522000000000052470000000005243000000000524705579000000000001437600000000007505676600000000000000009999123100000010000000000000BRAZZAACNOR9100
012024082302EALT3       010ACO ALTONA  ON           R$  000000000133900000000014500000000001315000000000135800000000014000000000001350000000000140000058000000000000011300000000000015356300000000000000009999123100000010000000000000BREALTACNOR4138
012024082302EALT4       010ACO ALTONA  PN           R$  000000000131600000000013310000000001293000000000130800000000013030000000001297000000000130300192000000000000045700000000000059818800000000000000009999123100000010000000000000BREALTACNPR1138
012024082302ECOR3       010ECORODOVIAS ON      NM   R$  000000000074100000000007740000000000734000000000076000000000007700000000000768000000000077006064000000000003139800000000002387831700000000000000009999123100000010000000000000BRECORACNOR8120
012024082302EGIE3       010ENGIE BRASILON  ED  NM   R$  000000000459000000000046170000000004514000000000457900000000045800000000004580000000000458806361000000000001119100000000005124977500000000000000009999123100000010000000000000BREGIEACNOR9127
012024082302GOAU3       010GERDAU MET  ON      N1   R$  000000000107600000000010800000000001056000000000107300000000010720000000001072000000000107500095000000000000020200000000000021679300000000000000009999123100000010000000000000BRGOAUACNOR1268
012024082302GOAU4       010GERDAU MET  PN      N1   R$  000000000105100000000010670000000001044000000000105600000000010550000000001055000000000105608230000000000005767300000000006093521800000000000000009999123100000010000000000000BRGOAUACNPR8269
012024082302GRND3       010GRENDENE    ON  ED  NM   R$  000000000061300000000006290000000000613000000000062400000000006220000000000622000000000062801830000000000000556200000000000347186400000000000000009999123100000010000000000000BRGRNDACNOR3175
012024082302GUAR3       010GUARARAPES  ON      NM   R$  000000000086500000000009010000000000863000000000088600000000008920000000000890000000000089203269000000000001037700000000000920324400000000000000009999123100000010000000000000BRGUARACNOR4173
012024082302PRNR3       010PRINER      ON      NM   R$  000000000142600000000014570000000001412000000000143600000000014390000000001427000000000143902302000000000000746800000000001072412800000000000000009999123100000010000000000000BRPRNRACNOR4109
012024082302PSSA3       010PORTO SEGUROON      NM   R$  000000000334500000000034450000000003344000000000341700000000034140000000003407000000000341810301000000000001810000000000006184771600000000000000009999123100000010000000000000BRPSSAACNOR7155
012024082302PTBL3       010PORTOBELLO  ON      NM   R$  000000000048800000000005300000000000483000000000050600000000005290000000000525000000000053001611000000000000994100000000000503867100000000000000009999123100000010000000000000BRPTBLACNOR8132
012024082302PTNT3       010PETTENATI   ON           R$  000000000089800000000008990000000000888000000000089500000000008990000000000869000000000089900003000000000000000300000000000000268500000000000000009999123100000010000000000000BRPTNTACNOR6042
012024082302PTNT4       010PETTENATI   PN           R$  000000000062000000000006210000000000615000000000061700000000006200000000000620000000000062800018000000000000006000000000000003707500000000000000009999123100000010000000000000BRPTNTACNPR3047
012024082302QUAL3       010QUALICORP   ON      NM   R$  000000000018400000000001990000000000183000000000019400000000001980000000000197000000000019803402000000000004520700000000000878126900000000000000009999123100000010000000000000BRQUALACNOR6120
012024082302SEER3       010SER EDUCA   ON      NM   R$  000000000059800000000006250000000000596000000000061600000000006250000000000621000000000062501798000000000000382100000000000235428900000000000000009999123100000010000000000000BRSEERACNOR5119
012024082302SEQL3       010SEQUOIA LOG ON      NM   R$  000000000063100000000006510000000000610000000000062600000000006100000000000610000000000061501322000000000000696400000000000436474800000000000000009999123100000010000000000000BRSEQLACNOR2103
012024082302SHOW3       010TIME FOR FUNON      NM   R$  000000000011700000000001220000000000116000000000011900000000001200000000000119000000000012000276000000000000174300000000000020815300000000000000009999123100000010000000000000BRSHOWACNOR7105
012024082302SHUL4       010SCHULZ      PN           R$  000000000066500000000006790000000000660000000000067400000000006780000000000674000000000067800509000000000000209200000000000141022500000000000000009999123100000010000000000000BRSHULACNPR4156
012024082302SIMH3       010SIMPAR      ON      NM   R$  000000000065100000000006950000000000649000000000067800000000006930000000000692000000000069305819000000000003789400000000002570461500000000000000009999123100000010000000000000BRSIMHACNOR0107
012024082302SLCE3       010SLC AGRICOLAON      NM   R$  000000000178500000000017940000000001773000000000178600000000017900000000001790000000000179104333000000000001206300000000002155176600000000000000009999123100000010000000000000BRSLCEACNOR2125
012024082302VBBR3       010VIBRA       ON      NM   R$  000000000253300000000025590000000002512000000000254400000000025450000000002544000000000254519808000000000007654400000000019475116000000000000000009999123100000010000000000000BRVBBRACNOR1108
012024082302CEEB3       010COELBA      ON           R$  000000000393100000000039410000000003931000000000393900000000039400000000003940000000000398200026000000000000010100000000000039784400000000000000009999123100000010000000000000BRCEEBACNOR3199
012024082302CGAS5       010COMGAS      PNA ED       R$  000000001170000000000117100000000011580000000001166300000000115800000000011580000000001180000010000000000000001100000000000012829700000000000000009999123100000010000000000000BRCGASACNPA3161
012024082302BPAC11      010BTGP BANCO  UNT     N2   R$  000000000363500000000036730000000003605000000000364500000000036350000000003634000000000363816291000000000004693700000000017109102500000000000000009999123100000010000000000000BRBPACUNT006119
012024082302BPAC3       010BTGP BANCO  ON      N2   R$  000000000167000000000017060000000001661000000000168300000000016980000000001695000000000170600078000000000000010200000000000017171600000000000000009999123100000010000000000000BRBPACACNOR7134
012024082302BPAC5       010BTGP BANCO  PNA     N2   R$  000000000096400000000009730000000000950000000000096100000000009730000000000964000000000097700128000000000000020500000000000019702500000000000000009999123100000010000000000000BRBPACACNPA0134
012024082302BRKM3       010BRASKEM     ON      N1   R$  000000000176700000000018040000000001755000000000177700000000017650000000001765000000000178500038000000000000005600000000000009955600000000000000009999123100000010000000000000BRBRKMACNOR1119
012024082302BRKM5       010BRASKEM     PNA     N1   R$  000000000172100000000017730000000001719000000000175400000000017490000000001748000000000175306133000000000001878600000000003295532000000000000000009999123100000010000000000000BRBRKMACNPA4121
012024082302CSRN3       010COSERN      ON           R$  000000000130000000000013080000000001282000000000130100000000013000000000001300000000000130700029000000000000006200000000000008066500000000000000009999123100000010000000000000BRCSRNACNOR0194
012024082302CSRN5       010COSERN      PNA          R$  000000000152800000000015280000000001518000000000152600000000015180000000001500000000000153000003000000000000002100000000000003205200000000000000009999123100000010000000000000BRCSRNACNPA3194
012024082302CSUD3       010CSU DIGITAL ON      NM   R$  000000000186400000000018850000000001855000000000187700000000018800000000001865000000000188000124000000000000024200000000000045442500000000000000009999123100000010000000000000BRCSUDACNOR5110
012024082302CTKA4       010KARSTEN     PN           R$  000000000186000000000018600000000001860000000000186000000000018600000000001800000000000186000003000000000000004200000000000007812000000000000000009999123100000010000000000000BRCTKAACNPR7043
012024082302CURY3       010CURY S/A    ON      NM   R$  000000000232000000000024000000000002319000000000237600000000024000000000002399000000000240005194000000000001226700000000002914850000000000000000009999123100000010000000000000BRCURYACNOR3109
012024082302CVCB3       010CVC BRASIL  ON      NM   R$  000000000021700000000002290000000000214000000000022100000000002250000000000224000000000022512288000000000034971600000000007747005600000000000000009999123100000010000000000000BRCVCBACNOR1116
012024082302COCE5       010COELCE      PNA          R$  000000000312300000000031770000000003116000000000315500000000031770000000003120000000000317900032000000000000007000000000000022089700000000000000009999123100000010000000000000BRCOCEACNPA3147
012024082302COGN3       010COGNA ON    ON  ATZ NM   R$  000000000013400000000001430000000000133000000000013900000000001430000000000143000000000014411925000000000050228400000000006990683000000000000000009999123100000010000000000000BRCOGNACNOR2105
012024082302EKTR4       010ELEKTRO     PN           R$  000000000420000000000042000000000004200000000000420000000000042000000000004131000000000425700001000000000000000100000000000000420000000000000000009999123100000010000000000000BREKTRACNPR7164
012024082302ELET3       010ELETROBRAS  ON      N1   R$  000000000410900000000042200000000004085000000000417700000000041880000000004187000000000419224272000000000007826100000000032696935900000000000000009999123100000010000000000000BRELETACNOR6160
012024082302ELET6       010ELETROBRAS  PNB     N1   R$  000000000457500000000046990000000004546000000000464500000000046480000000004647000000000467007883000000000001657200000000007698167600000000000000009999123100000010000000000000BRELETACNPB7077
012024082302HAGA3       010HAGA S/A    ON           R$  000000000023600000000002440000000000235000000000023700000000002370000000000236000000000024000052000000000000031700000000000007538300000000000000009999123100000010000000000000BRHAGAACNOR7103
012024082302HAGA4       010HAGA S/A    PN           R$  000000000011700000000001180000000000116000000000011600000000001170000000000117000000000011800012000000000000007700000000000000899900000000000000009999123100000010000000000000BRHAGAACNPR4103
012024082302GFSA3       010GAFISA      ON      NM   R$  000000000029100000000002970000000000289000000000029200000000002910000000000290000000000029102568000000000002299900000000000673583500000000000000009999123100000010000000000000BRGFSAACNOR3125
012024082302GGBR3       010GERDAU      ON      N1   R$  000000000159300000000016280000000001593000000000161600000000016260000000001615000000000162600171000000000000025500000000000041208600000000000000009999123100000010000000000000BRGGBRACNOR1193
012024082302GGBR4       010GERDAU      PN      N1   R$  000000000182500000000018490000000001814000000000183500000000018280000000001828000000000183519176000000000008064400000000014802075800000000000000009999123100000010000000000000BRGGBRACNPR8193
012024082302ITUB3       010ITAUUNIBANCOON      N1   R$  000000000317100000000031950000000003155000000000317300000000031610000000003160000000000316101760000000000000321700000000001021039400000000000000009999123100000010000000000000BRITUBACNOR4339
012024082302ITUB4       010ITAUUNIBANCOPN      N1   R$  000000000367900000000037050000000003637000000000366400000000036460000000003645000000000364739374000000000021749000000000079705813000000000000000009999123100000010000000000000BRITUBACNPR1339
012024082302LVTC3       010WDC NETWORKSON      NM   R$  000000000038100000000003970000000000373000000000038700000000003890000000000389000000000039400048000000000000015600000000000006051400000000000000009999123100000010000000000000BRLVTCACNOR4102
012024082302LWSA3       010LWSA        ON      NM   R$  000000000048100000000004910000000000479000000000048400000000004800000000000479000000000048110274000000000004827600000000002337311300000000000000009999123100000010000000000000BRLWSAACNOR8103
012024082307NUTR3       010NUTRIPLANT  ON      MA   R$  000000000046700000000004670000000000444000000000045400000000004530000000000453000000000046300044000000000000009600000000000004366400000000000000009999123100000010000000000000BRNUTRACNOR0104
012024082308LIGT3       010LIGHT S/A   ON      NM   R$  000000000058000000000006270000000000574000000000060100000000006000000000000599000000000060104742000000000001715300000000001031661900000000000000009999123100000010000000000000BRLIGTACNOR2124
012024082308PMAM3       010PARANAPANEMAON      NM   R$  000000000020000000000002040000000000195000000000019900000000001950000000000195000000000019800792000000000000148600000000000029623200000000000000009999123100000010000000000000BRPMAMACNOR3039
012024082308RPMG3       010PET MANGUINHON           R$  000000000028100000000003000000000000273000000000028500000000002730000000000273000000000028000366000000000000071900000000000020518000000000000000009999123100000010000000000000BRRPMGACNOR9194
012024082308RSID3       010ROSSI RESID ON      NM   R$  000000000039600000000004110000000000382000000000039500000000004000000000000393000000000040000422000000000000139600000000000055226800000000000000009999123100000010000000000000BRRSIDACNOR8120
012024082308OIBR3       010OI          ON      N1   R$  000000000047700000000004770000000000461000000000046800000000004650000000000464000000000046500968000000000000691400000000000323809800000000000000009999123100000010000000000000BROIBRACNOR1111
012024082308OIBR4       010OI          PN      N1   R$  000000000128000000000013070000000001240000000000126500000000012540000000001254000000000125700020000000000000005500000000000006959300000000000000009999123100000010000000000000BROIBRACNPR8110
012024082308OSXB3       010OSX BRASIL  ON      NM   R$  000000000038500000000003930000000000385000000000038800000000003920000000000385000000000039000012000000000000003400000000000001321700000000000000009999123100000010000000000000BROSXBACNOR8109
012024082308RNEW11      010RENOVA      UNT     N2   R$  000000000031200000000003120000000000300000000000030500000000003000000000000300000000000032000045000000000000014700000000000004497200000000000000009999123100000010000000000000BRRNEWCDAM15110
012024082308RNEW3       010RENOVA      ON      N2   R$  000000000010200000000001040000000000100000000000010000000000001020000000000102000000000010300184000000000000183400000000000018486900000000000000009999123100000010000000000000BRRNEWACNOR8110
012024082308RNEW4       010RENOVA      PN      N2   R$  000000000010100000000001030000000000099000000000010000000000001010000000000100000000000010100312000000000000475300000000000047913400000000000000009999123100000010000000000000BRRNEWACNPR5110
012024082308NEXP3       010NEXPE       ON           R$  000000000041300000000004130000000000405000000000040900000000004050000000000400000000000041100002000000000000000200000000000000081800000000000000009999123100000010000000000000BRNEXPACNOR0101
012024082308ATMP3       010ATMASA      ON           R$  000000000013600000000001400000000000133000000000013800000000001380000000000134000000000013800044000000000000031700000000000004375700000000000000009999123100000010000000000000BRATMPACNOR8100
012024082308AMER3       010AMERICANAS  ON      NM   R$  000000000000700000000000080000000000005000000000000600000000000060000000000005000000000000625528000000000864879600000000005394135200000000000000009999123100000010000000000000BRAMERACNOR6102
012024082308JFEN3       010JOAO FORTES ON           R$  000000000002400000000000250000000000023000000000002300000000000240000000000023000000000002400195000000000000650000000000000015576000000000000000009999123100000010000000000000BRJFENACNOR0059
012024082308HOOT4       010HOTEIS OTHONPN           R$  000000000024400000000002440000000000244000000000024400000000002440000000000228000000000024500001000000000000000100000000000000024400000000000000009999123100000010000000000000BRHOOTACNPR9015
012024082308CTSA3       010SANTANENSE  ON           R$  000000000026500000000002880000000000258000000000027700000000002880000000000288000000000029500046000000000000017900000000000004969000000000000000009999123100000010000000000000BRCTSAACNOR3062
012024082308CTSA4       010SANTANENSE  PN           R$  000000000013400000000001360000000000130000000000013200000000001330000000000130000000000013300082000000000000017200000000000002275400000000000000009999123100000010000000000000BRCTSAACNPR0062
012024082310EQTL1       010EQUATORIAL  DIR ORD NM   R$  000000000029900000000003320000000000251000000000030200000000002820000000000281000000000032402053000000000000902700000000000272838300000000000000009999123100000010000000000000BREQTLD04OR9130
012024082310PDGR95      010PDG REALT   DIR     NM   R$  000000000000100000000000010000000000001000000000000100000000000010000000000000000000000000100012000000000000002463000000000000002463000000000000009999123100000010000000000000BRPDGRD03M17100
012024082310RENT9       010LOCALIZA    ON  REC NM   R$  000000000415500000000042380000000004155000000000421700000000042280000000004120000000000424000009000000000000000900000000000003795700000000000000009999123100000010000000000000BRRENTR06OR8195
012024082310GFSA1       010GAFISA      DIR ORD NM   R$  000000000000300000000000030000000000002000000000000200000000000030000000000002000000000000300294000000000000520200000000000001412500000000000000009999123100000010000000000000BRGFSAD11OR7124
012024082312EURO11      010FII EUROPAR CI           R$  000000002437900000000248750000000024201000000002436900000000245160000000024352000000002451600035000000000000000102000000000002485738000000000000009999123100000010000000000000BREUROCTF011361
012024082312EVBI11      010FII VBI CON CI           R$  000000000099000000000010000000000000985000000000098800000000009990000000000995000000000099900049000000000000001417000000000001401146000000000000009999123100000010000000000000BREVBICTF007152
012024082312EXES11      010FII EXES    CI  ER       R$  000000000097000000000009700000000000961000000000096900000000009690000000000952000000000096900004000000000000000015000000000000014539000000000000009999123100000010000000000000BREXESCTF006128
012024082312MXRF11      010FII MAXI RENCI           R$  000000000100600000000010120000000001005000000000100700000000010100000000001010000000000101142217000000000001540859000000001552971991000000000000009999123100000010000000000000BRMXRFCTF008255
012024082312BTAL11      010FII BTG AGROCI  ER       R$  000000000790000000000079080000000007870000000000789600000000079080000000007905000000000790802217000000000000008389000000000066240475000000000000009999123100000010000000000000BRBTALCTF003142
012024082312BTCI11      010FII BTG CRI CI           R$  000000000099800000000009990000000000994000000000099600000000009970000000000995000000000099711925000000000000134975000000000134452201000000000000009999123100000010000000000000BRBTCICTF005122
012024082312BTHI11      010BTG HOTEL FICI           R$  000000000409500000000041890000000004060000000000414900000000041000000000004083000000000414700019000000000000001065000000000004419569000000000000009999123100000010000000000000BRBTHICTF004111
012024082312BTLG11      010FII BTLG    CI  ER       R$  000000001024000000000102690000000010216000000001025400000000102500000000010249000000001025011748000000000000069918000000000716943948000000000000009999123100000010000000000000BRBTLGCTF000165
012024082312BTRA11      010FII BTG TAGRCI           R$  000000000476400000000048100000000004742000000000477100000000048000000000004800000000000481000307000000000000006647000000000031718178000000000000009999123100000010000000000000BRBTRACTF000138
012024082312CXAG11      010FII CAIXA AGCI           R$  000000000769700000000077180000000007687000000000770400000000077100000000007709000000000771000069000000000000001091000000000008406035000000000000009999123100000010000000000000BRCXAGCTF003130
012024082312CXCE11      010FII CX CEDAECI           R$  000000000410000000000041000000000004000000000000401900000000040410000000004050000000000405500077000000000000003254000000000013081023000000000000009999123100000010000000000000BRCXCECTF004271
012024082312CXCI11      010FII CAIXA CICI           R$  000000000831700000000083170000000008135000000000817100000000081690000000008169000000000822900137000000000000002388000000000019512492000000000000009999123100000010000000000000BRCXCICTF005129
012024082312CXCO11      010FII CEF CORPCI           R$  000000000714000000000071500000000007085000000000712400000000071450000000007140000000000714500131000000000000001428000000000010173770000000000000009999123100000010000000000000BRCXCOCTF003140
012024082312CXRI11      010FII CX RBRAVCI           R$  000000000780000000000079870000000007713000000000779800000000078180000000007818000000000798600017000000000000000346000000000002698390000000000000009999123100000010000000000000BRCXRICTF003230
012024082312CXTL11      010FII CX TRX  CI           R$  000000002201000000000220100000000022000000000002200100000000220000000000022000000000002233500002000000000000000028000000000000616030000000000000009999123100000010000000000000BRCXTLCTF003239
012024082312CYCR11      010FII CYRELA  CI           R$  000000000098000000000009930000000000979000000000098600000000009900000000000989000000000099000788000000000000059935000000000059103909000000000000009999123100000010000000000000BRCYCRCTF004141
012024082312FIIP11B     010FII RB CAP ICI      MB   R$  000000001720000000000172990000000017026000000001710800000000171850000000017059000000001718500065000000000000000636000000000010881188000000000000009999123100000010000000000000BRFIIPCTF001276
012024082312FISC11      010FII SC 401  CI           R$  000000000600000000000060000000000006000000000000600000000000060000000000006001000000000610000001000000000000000001000000000000006000000000000000009999123100000010000000000000BRFISCCTF008138
012024082312FIVN11      010FII VIDANOVACI           R$  000000000028400000000002840000000000280000000000028300000000002810000000000281000000000028300016000000000000000546000000000000154621000000000000009999123100000010000000000000BRFIVNCTF009100
012024082312FLCR11      010FII FL RECEBCI           R$  000000000979900000000097990000000009769000000000977200000000097710000000009769000000000977100039000000000000000467000000000004563647000000000000009999123100000010000000000000BRFLCRCTF004144
012024082312FLMA11      010FII S F LIMACI           R$  000000001412700000000142500000000014127000000001420100000000142480000000014203000000001424800182000000000000000321000000000004558602000000000000009999123100000010000000000000BRFLMACTF009344
012024082312FLRP11      010FII FLORIPA CI           R$  000000020888700000002088870000000202000000000020298300000002020000000000201614000000020490000014000000000000000025000000000005074576000000000000009999123100000010000000000000BRFLRPCTF006273
012024082312FMOF11      010FII MEMORIALCI           R$  000000000479900000000047990000000004799000000000479900000000047990000000004679000000000479900001000000000000000001000000000000004799000000000000009999123100000010000000000000BRFMOFCTF010258
012024082312ICRI11      010FII CI IPCA CI           R$  000000000987300000000098950000000009823000000000986900000000098780000000009857000000000987803837000000000000010283000000000101486007000000000000009999123100000010000000000000BRICRICTF004106
012024082312IDFI11      010FII UNIDADESCI           R$  000000000087300000000008740000000000873000000000087300000000008730000000000870000000000087300012000000000000000085000000000000074262000000000000009999123100000010000000000000BRIDFICTF007134
012024082312FPNG11      010FII P NEGRA CI           R$  000000002000000000000200000000000020000000000002000000000000200000000000009002000000002000000001000000000000000001000000000000020000000000000000009999123100000010000000000000BRFPNGCTF005191
012024082312FVPQ11      010FII V PARQUECI           R$  000000000708500000000071050000000007054000000000708200000000070910000000007091000000000713900521000000000000000566000000000004008918000000000000009999123100000010000000000000BRFVPQCTF015261
012024082312JPPA11      010FII JPPA CRICI           R$  000000000830000000000083210000000008287000000000831100000000083190000000008315000000000832100054000000000000000720000000000005984619000000000000009999123100000010000000000000BRJPPACTF005163
012024082312JSAF11      010FII JS A FINCI           R$  000000000996700000000100000000000009920000000000996000000000099850000000009948000000000998501510000000000000027534000000000274241650000000000000009999123100000010000000000000BRJSAFCTF000135
012024082312JSCR11      010FII JSCR    CI           R$  000000000970000000000097000000000009700000000000970000000000097000000000009705000000000990000001000000000000000025000000000000242500000000000000009999123100000010000000000000BRJSCRCTF001101
012024082312JSRE11      010FII JS REAL CI           R$  000000000651300000000065790000000006499000000000654600000000065370000000006536000000000653705546000000000000028104000000000183988473000000000000009999123100000010000000000000BRJSRECTF007264
012024082312FAED11      010FII ANH EDUCCI           R$  000000001525100000000152850000000015120000000001524800000000152400000000015123000000001524000041000000000000000255000000000003888331000000000000009999123100000010000000000000BRFAEDCTF003280
012024082312FAMB11      010FII ALMIRANTCI           R$  000000014200000000001420000000000129500000000013682300000001335010000000133501000000013900000054000000000000000410000000000056097562000000000000009999123100000010000000000000BRFAMBCTF018316
012024082312FATN11      010FII ATHENA ICI           R$  000000000917900000000091900000000009159000000000917400000000091800000000009177000000000918000744000000000000007671000000000070375185000000000000009999123100000010000000000000BRFATNCTF000154
012024082312FCFL11      010FII CAMPUSFLCI  ER       R$  000000001179000000000118000000000011659000000001170200000000117290000000011690000000001173800144000000000000000381000000000004458811000000000000009999123100000010000000000000BRFCFLCTF009272
012024082312ABCP11      010FII ABC IMOBCI           R$  000000000717000000000072500000000007101000000000720000000000071240000000007100000000000712400076000000000000000410000000000002952268000000000000009999123100000010000000000000BRABCPCTF000341
012024082312BICR11      010FII INTER   CI           R$  000000000459600000000046230000000004415000000000450600000000044150000000004415000000000455000020000000000000000079000000000000355990000000000000009999123100000010000000000000BRBICRCTF009154
012024082312BARI11      010FII BARIGUI CI           R$  000000000796500000000080480000000007940000000000800500000000080000000000007999000000000800002570000000000000007121000000000057005729000000000000009999123100000010000000000000BRBARICTF003164
