00COTAHIST.2024BOVESPA 20240821                                                                                                                                                                                                                      
012024082102UCAS3       010UNICASA     ON      NM   R$  000000000022700000000002310000000000225000000000022800000000002300000000000227000000000023000080000000000000033900000000000007747600000000000000009999123100000010000000000000BRUCASACNOR1113
012024082102UGPA3       010ULTRAPAR    ON  ED  NM   R$  000000000237000000000023990000000002356000000000237200000000023700000000002370000000000237123213000000000006166700000000014632569100000000000000009999123100000010000000000000BRUGPAACNOR8156
012024082102RPAD5       010ALFA HOLDINGPNA ED       R$  000000000084000000000008400000000000840000000000084000000000008400000000000000000000000084000018000000000000013900000000000011676000000000000000009999123100000010000000000000BRRPADACNPA4219
012024082102RRRP3       0103R PETROLEUMON      NM   R$  000000000281000000000028260000000002755000000000277800000000027600000000002760000000000276112786000000000003887100000000010799590300000000000000009999123100000010000000000000BRRRRPACNOR5103
012024082102TEND3       010TENDA       ON      NM   R$  000000000138700000000013990000000001366000000000138500000000013920000000001390000000000139204338000000000001275500000000001766965600000000000000009999123100000010000000000000BRTENDACNOR4111
012024082102TFCO4       010TRACK FIELD PN      N2   R$  000000000124800000000012480000000001224000000000123300000000012300000000001230000000000124100452000000000000097600000000000120391700000000000000009999123100000010000000000000BRTFCOACNPR8114
012024082102TGMA3       010TEGMA       ON      NM   R$  000000000260800000000026720000000002596000000000263300000000026310000000002631000000000264100927000000000000146700000000000386390100000000000000009999123100000010000000000000BRTGMAACNOR7145
012024082102TIMS3       010TIM         ON      NM   R$  000000000183600000000018480000000001818000000000182500000000018250000000001824000000000182612891000000000004493100000000008202971600000000000000009999123100000010000000000000BRTIMSACNOR5117
012024082102TKNO4       010TEKNO       PN           R$  000000000840000000000084000000000008400000000000840000000000084000000000008600000000001188800001000000000000000100000000000000840000000000000000009999123100000010000000000000BRTKNOACNPR5075
012024082102TOTS3       010TOTVS       ON      NM   R$  000000000301500000000031200000000003002000000000308000000000031050000000003104000000000310514302000000000002896600000000008922870500000000000000009999123100000010000000000000BRTOTSACNOR8145
012024082102TPIS3       010TRIUNFO PARTON      NM   R$  000000000041900000000004500000000000416000000000043500000000004270000000000427000000000043000202000000000000060800000000000026508300000000000000009999123100000010000000000000BRTPISACNOR8118
012024082102TRAD3       010TC          ON      NM   R$  000000000041300000000004180000000000369000000000038200000000003730000000000373000000000037800612000000000000338400000000000129455000000000000000009999123100000010000000000000BRTRADACNOR3102
012024082102TRIS3       010TRISUL      ON      NM   R$  000000000050100000000005050000000000478000000000049000000000004780000000000477000000000047801329000000000000471600000000000231436000000000000000009999123100000010000000000000BRTRISACNOR4118
012024082102TRPL3       010TRAN PAULISTON      N1   R$  000000000320000000000032250000000003185000000000320400000000031980000000003186000000000319800027000000000000003800000000000012175600000000000000009999123100000010000000000000BRTRPLACNOR4185
012024082102TRPL4       010TRAN PAULISTPN      N1   R$  000000000252400000000025270000000002481000000000249700000000025000000000002497000000000250008662000000000003184200000000007952273400000000000000009999123100000010000000000000BRTRPLACNPR1185
012024082102CSRN3       010COSERN      ON           R$  000000000135300000000013530000000001315000000000133400000000013300000000001324000000000133000112000000000000027600000000000036823100000000000000009999123100000010000000000000BRCSRNACNOR0194
012024082102CSRN5       010COSERN      PNA          R$  000000000145200000000015000000000001435000000000149200000000015000000000001433000000000150000019000000000000004500000000000006715700000000000000009999123100000010000000000000BRCSRNACNPA3194
012024082102CSRN6       010COSERN      PNB          R$  000000000145000000000014500000000001450000000000145000000000014500000000001428000000000235000006000000000000002600000000000003770000000000000000009999123100000010000000000000BRCSRNACNPB1195
012024082102CSUD3       010CSU DIGITAL ON      NM   R$  000000000185100000000018640000000001840000000000185100000000018510000000001851000000000185500218000000000000044400000000000082186100000000000000009999123100000010000000000000BRCSUDACNOR5110
012024082102CURY3       010CURY S/A    ON      NM   R$  000000000238900000000024070000000002365000000000238600000000023900000000002390000000000239105766000000000001632600000000003896408400000000000000009999123100000010000000000000BRCURYACNOR3109
012024082102CVCB3       010CVC BRASIL  ON      NM   R$  000000000021500000000002540000000000214000000000023500000000002300000000000229000000000023031772000000000100527400000000023640602900000000000000009999123100000010000000000000BRCVCBACNOR1116
012024082102VSTE3       010VESTE       ON      NM   R$  000000000135000000000013780000000001345000000000134700000000013450000000001308000000000136300016000000000000018500000000000024926500000000000000009999123100000010000000000000BRVSTEACNOR5103
012024082102VTRU3       010VITRUEDUCA  ON      NM   R$  000000000108600000000011000000000001039000000000106600000000010500000000001041000000000106000286000000000000031800000000000033899000000000000000009999123100000010000000000000BRVTRUACNOR3100
012024082102VULC3       010VULCABRAS   ON  ED  NM   R$  000000000177700000000018020000000001775000000000178900000000017880000000001783000000000178802300000000000000483600000000000865426800000000000000009999123100000010000000000000BRVULCACNOR2161
012024082102VVEO3       010VIVEO       ON      NM   R$  000000000020300000000002120000000000201000000000020600000000002090000000000206000000000020903011000000000001644300000000000338954300000000000000009999123100000010000000000000BRVVEOACNOR0104
012024082102IFCM3       010INFRACOMM   ON      NM   R$  000000000002200000000000230000000000020000000000002100000000000200000000000019000000000002003362000000000012991300000000000273902100000000000000009999123100000010000000000000BRIFCMACNOR8101
012024082102IGTI11      010IGUATEMI S.AUNT     N1   R$  000000000235300000000023640000000002299000000000231900000000023100000000002309000000000231017018000000000004180100000000009697069300000000000000009999123100000010000000000000BRIGTICDAM16106
012024082102IGTI3       010IGUATEMI S.AON      N1   R$  000000000029000000000002900000000000286000000000028700000000002900000000000287000000000029000066000000000000021300000000000006125200000000000000009999123100000010000000000000BRIGTIACNOR8106
012024082102INEP3       010INEPAR      ON           R$  000000000020600000000002350000000000204000000000021800000000002200000000000220000000000022500379000000000000281100000000000061554200000000000000009999123100000010000000000000BRINEPACNOR1143
012024082102INEP4       010INEPAR      PN           R$  000000000021000000000002390000000000210000000000022300000000002290000000000223000000000022900257000000000000170300000000000038145700000000000000009999123100000010000000000000BRINEPACNPR8143
012024082102INTB3       010INTELBRAS   ON      NM   R$  000000000231800000000023250000000002263000000000228900000000023000000000002288000000000230102832000000000000440400000000001008328900000000000000009999123100000010000000000000BRINTBACNOR9112
012024082102IRBR3       010IRBBRASIL REON      NM   R$  000000000458900000000047140000000004582000000000466000000000047050000000004700000000000470507435000000000001854000000000008639803400000000000000009999123100000010000000000000BRIRBRACNOR4111
012024082102PRNR3       010PRINER      ON      NM   R$  000000000135000000000014350000000001302000000000138800000000014250000000001424000000000142504594000000000001430900000000001986621700000000000000009999123100000010000000000000BRPRNRACNOR4109
012024082102PSSA3       010PORTO SEGUROON      NM   R$  000000000330300000000033410000000003291000000000331400000000033240000000003315000000000332805098000000000001079000000000003575931900000000000000009999123100000010000000000000BRPSSAACNOR7155
012024082102PTBL3       010PORTOBELLO  ON      NM   R$  000000000050500000000005130000000000491000000000050200000000005000000000000498000000000050001569000000000000835100000000000419848700000000000000009999123100000010000000000000BRPTBLACNOR8132
012024082102SBSP3       010SABESP      ON      NM   R$  000000000995000000000099920000000009899000000000993300000000099450000000009945000000000994610943000000000002262300000000022473189700000000000000009999123100000010000000000000BRSBSPACNOR5161
012024082102SCAR3       010SAO CARLOS  ON      NM   R$  000000000234600000000023490000000002344000000000234600000000023460000000002330000000000234700010000000000000001700000000000003988300000000000000009999123100000010000000000000BRSCARACNOR7131
012024082102SEER3       010SER EDUCA   ON      NM   R$  000000000062200000000006310000000000612000000000062100000000006150000000000614000000000061502621000000000000501600000000000311618800000000000000009999123100000010000000000000BRSEERACNOR5119
012024082102SEQL3       010SEQUOIA LOG ON      NM   R$  000000000066400000000007150000000000614000000000065100000000006150000000000615000000000061603212000000000002067800000000001347592800000000000000009999123100000010000000000000BRSEQLACNOR2103
012024082102WEGE3       010WEG         ON      NM   R$  000000000530500000000053600000000005267000000000532500000000053430000000005343000000000534416120000000000004524500000000024093206500000000000000009999123100000010000000000000BRWEGEACNOR0224
012024082102TAEE3       010TAESA       ON  EDJ N2   R$  000000000118000000000011850000000001174000000000117900000000011830000000001179000000000118300401000000000000060800000000000071738000000000000000009999123100000010000000000000BRTAEEACNOR9148
012024082102TAEE4       010TAESA       PN  EDJ N2   R$  000000000119000000000011950000000001188000000000119100000000011940000000001191000000000119400582000000000000128300000000000152859900000000000000009999123100000010000000000000BRTAEEACNPR6148
012024082102TASA3       010TAURUS ARMASON      N2   R$  000000000113300000000011890000000001128000000000114400000000011390000000001134000000000113900212000000000000041300000000000047267100000000000000009999123100000010000000000000BRTASAACNOR7104
012024082102TASA4       010TAURUS ARMASPN      N2   R$  000000000112500000000011940000000001120000000000114500000000011300000000001129000000000113202367000000000000799800000000000916380600000000000000009999123100000010000000000000BRTASAACNPR4104
012024082102TCSA3       010TECNISA     ON      NM   R$  000000000020500000000002080000000000203000000000020500000000002040000000000204000000000020700142000000000000119500000000000024557400000000000000009999123100000010000000000000BRTCSAACNOR3112
012024082102TECN3       010TECHNOS     ON      NM   R$  000000000059900000000006250000000000586000000000061100000000006250000000000600000000000062500872000000000000528300000000000323112700000000000000009999123100000010000000000000BRTECNACNOR6109
012024082102TELB3       010TELEBRAS    ON           R$  000000000142000000000014200000000001400000000000141300000000014000000000001385000000000142000003000000000000000300000000000000424000000000000000009999123100000010000000000000BRTELBACNOR2140
012024082102TELB4       010TELEBRAS    PN           R$  000000000092400000000009240000000000908000000000091100000000009100000000000900000000000091000023000000000000005300000000000004828300000000000000009999123100000010000000000000BRTELBACNPR9140
012024082102RAPT3       010RANDON PART ON      N1   R$  000000000091100000000009130000000000879000000000089100000000009000000000000900000000000090100376000000000000105400000000000093912500000000000000009999123100000010000000000000BRRAPTACNOR7163
012024082102RAPT4       010RANDON PART PN      N1   R$  000000000113500000000011390000000001103000000000111800000000011230000000001122000000000112406924000000000002708100000000003029585600000000000000009999123100000010000000000000BRRAPTACNPR4163
012024082102VITT3       010VITTIA      ON      NM   R$  000000000063100000000006460000000000612000000000062700000000006180000000000614000000000061902156000000000000395400000000000247984500000000000000009999123100000010000000000000BRVITTACNOR4107
012024082102USIM3       010USIMINAS    ON      N1   R$  000000000063400000000006540000000000627000000000064500000000006500000000000650000000000065101015000000000000442300000000000285307000000000000000009999123100000010000000000000BRUSIMACNOR3167
012024082102USIM5       010USIMINAS    PNA     N1   R$  000000000065600000000006740000000000654000000000066500000000006640000000000664000000000066535835000000000024864600000000016537467000000000000000009999123100000010000000000000BRUSIMACNPA6169
012024082102VAMO3       010VAMOS       ON      NM   R$  000000000084800000000008600000000000820000000000083400000000008330000000000832000000000083414222000000000007135600000000005953450400000000000000009999123100000010000000000000BRVAMOACNOR7105
012024082102VBBR3       010VIBRA       ON      NM   R$  000000000261100000000026360000000002588000000000260700000000026080000000002603000000000260930116000000000007018800000000018299370400000000000000009999123100000010000000000000BRVBBRACNOR1108
012024082102ENEV3       010ENEVA       ON      NM   R$  000000000136800000000013750000000001355000000000137000000000013730000000001372000000000137312583000000000004945200000000006778815600000000000000009999123100000010000000000000BRENEVACNOR8106
012024082102ENGI11      010ENERGISA    UNT ED  N2   R$  000000000499800000000049980000000004868000000000489400000000048720000000004871000000000488811071000000000001763600000000008631916900000000000000009999123100000010000000000000BRENGICDAM16136
012024082102ENGI3       010ENERGISA    ON  ED  N2   R$  000000000159400000000016080000000001565000000000158800000000015650000000001564000000000160000065000000000000008600000000000013665200000000000000009999123100000010000000000000BRENGIACNOR0146
012024082102ENGI4       010ENERGISA    PN  ED  N2   R$  000000000082800000000008410000000000820000000000083100000000008340000000000817000000000083700052000000000000009000000000000007480400000000000000009999123100000010000000000000BRENGIACNPR7142
012024082102GUAR3       010GUARARAPES  ON      NM   R$  000000000088300000000009140000000000883000000000089700000000008890000000000888000000000089102290000000000000742900000000000666939800000000000000009999123100000010000000000000BRGUARACNOR4173
012024082102HAGA3       010HAGA S/A    ON           R$  000000000024200000000002420000000000240000000000024000000000002400000000000240000000000024100009000000000000005400000000000001296500000000000000009999123100000010000000000000BRHAGAACNOR7103
012024082102HAGA4       010HAGA S/A    PN           R$  000000000011700000000001180000000000115000000000011700000000001180000000000116000000000011800017000000000000029900000000000003515100000000000000009999123100000010000000000000BRHAGAACNPR4103
012024082102HAPV3       010HAPVIDA     ON      NM   R$  000000000045900000000004630000000000450000000000045500000000004560000000000455000000000045662288000000000042539000000000019374718100000000000000009999123100000010000000000000BRHAPVACNOR4114
012024082102HBOR3       010HELBOR      ON      NM   R$  000000000022000000000002250000000000215000000000021800000000002170000000000217000000000021800544000000000000451800000000000098672200000000000000009999123100000010000000000000BRHBORACNOR3118
012024082102HBRE3       010HBR REALTY  ON      NM   R$  000000000053000000000005340000000000520000000000052400000000005210000000000521000000000052400606000000000000167700000000000087943600000000000000009999123100000010000000000000BRHBREACNOR4100
012024082102HBSA3       010HIDROVIAS   ON      NM   R$  000000000036300000000003810000000000359000000000036800000000003810000000000379000000000038105891000000000003022600000000001113477200000000000000009999123100000010000000000000BRHBSAACNOR0100
012024082102LUPA3       010LUPATECH    ON      NM   R$  000000000015400000000001680000000000154000000000016100000000001590000000000159000000000016101181000000000000400600000000000064612100000000000000009999123100000010000000000000BRLUPAACNOR8112
012024082102LVTC3       010WDC NETWORKSON      NM   R$  000000000040800000000004080000000000387000000000039200000000003890000000000388000000000040300038000000000000011000000000000004320700000000000000009999123100000010000000000000BRLVTCACNOR4102
012024082102LWSA3       010LWSA        ON      NM   R$  000000000050000000000005130000000000493000000000050100000000004990000000000499000000000050012476000000000005902900000000002961615900000000000000009999123100000010000000000000BRLWSAACNOR8103
012024082102AZZA3       010AZZAS 2154  ON      NM   R$  000000000520500000000052950000000005150000000000520400000000051770000000005175000000000519004302000000000000977400000000005087275500000000000000009999123100000010000000000000BRAZZAACNOR9100
012024082102BBSE3       010BBSEGURIDADEON  ED  NM   R$  000000000360300000000036280000000003586000000000361300000000036070000000003607000000000361013472000000000003855000000000013928255400000000000000009999123100000010000000000000BRBBSEACNOR5125
012024082102CMIN3       010CSNMINERACAOON      N2   R$  000000000054300000000005550000000000532000000000054600000000005460000000000546000000000055017672000000000017479500000000009560582400000000000000009999123100000010000000000000BRCMINACNOR2111
012024082102COCE5       010COELCE      PNA          R$  000000000310500000000031670000000003105000000000312600000000031150000000003115000000000316800082000000000000015300000000000047834400000000000000009999123100000010000000000000BRCOCEACNPA3147
012024082102COGN3       010COGNA ON    ON  ATZ NM   R$  000000000014400000000001460000000000136000000000014000000000001390000000000139000000000014032584000000000058362800000000008183783400000000000000009999123100000010000000000000BRCOGNACNOR2105
012024082102CSED3       010CRUZEIRO EDUON      NM   R$  000000000039000000000003970000000000380000000000038400000000003900000000000381000000000039002830000000000001313300000000000505094800000000000000009999123100000010000000000000BRCSEDACNOR9104
012024082102CSMG3       010COPASA      ON      NM   R$  000000000231500000000023310000000002301000000000231100000000023130000000002310000000000231403271000000000000807000000000001865765800000000000000009999123100000010000000000000BRCSMGACNOR5174
012024082102CSNA3       010SID NACIONALON           R$  000000000121300000000012480000000001213000000000123300000000012330000000001233000000000123416180000000000008526700000000010520952400000000000000009999123100000010000000000000BRCSNAACNOR6261
012024082102EZTC3       010EZTEC       ON      NM   R$  000000000148600000000014990000000001450000000000147000000000014530000000001453000000000145906003000000000001166800000000001716094200000000000000009999123100000010000000000000BREZTCACNOR0126
012024082102FESA3       010FERBASA     ON      N1   R$  000000000144700000000014470000000001446000000000144600000000014460000000001360000000000144600003000000000000000300000000000000433900000000000000009999123100000010000000000000BRFESAACNOR8188
012024082102FESA4       010FERBASA     PN      N1   R$  000000000085300000000008680000000000850000000000085800000000008570000000000855000000000086001848000000000000525600000000000451337000000000000000009999123100000010000000000000BRFESAACNPR5084
012024082102FHER3       010FER HERINGERON      NM   R$  000000000042200000000004220000000000420000000000042100000000004220000000000418000000000042200005000000000000006100000000000002574000000000000000009999123100000010000000000000BRFHERACNOR5103
012024082102FIEI3       010FICA        ON           R$  000000000105000000000010500000000000900000000000095600000000010490000000000911000000000104900006000000000000000800000000000000764800000000000000009999123100000010000000000000BRFIEIACNOR2100
012024082102FIQE3       010UNIFIQUE    ON      NM   R$  000000000040600000000004140000000000401000000000040700000000004050000000000404000000000040501412000000000000659300000000000268345100000000000000009999123100000010000000000000BRFIQEACNOR5107
012024082102FLRY3       010FLEURY      ON  EJ  NM   R$  000000000157600000000016070000000001574000000000158600000000016050000000001601000000000160511718000000000007053000000000011187448900000000000000009999123100000010000000000000BRFLRYACNOR5139
012024082102ALUP4       010ALUPAR      PN  ED  N2   R$  000000000104000000000010460000000001027000000000103300000000010310000000001030000000000103200047000000000000007900000000000008166500000000000000009999123100000010000000000000BRALUPACNPR5120
012024082102AMAR3       010LOJAS MARISAON      NM   R$  000000000012200000000001240000000000118000000000012000000000001180000000000118000000000011900688000000000000614100000000000074158300000000000000009999123100000010000000000000BRAMARACNOR4115
012024082102AMBP3       010AMBIPAR     ON      NM   R$  000000000823900000000085640000000008084000000000834600000000083950000000008395000000000839702298000000000000456800000000003812754200000000000000009999123100000010000000000000BRAMBPACNOR6103
012024082102ANIM3       010ANIMA       ON  ED  NM   R$  000000000036000000000003640000000000348000000000035400000000003500000000000349000000000035004726000000000004657200000000001648983200000000000000009999123100000010000000000000BRANIMACNOR6109
012024082102APER3       010ALPER S.A.  ON           R$  000000000455500000000045880000000004555000000000458500000000045870000000004550000000000459500012000000000000002200000000000010087400000000000000009999123100000010000000000000BRAPERACNOR9106
012024082102ARML3       010ARMAC       ON      NM   R$  000000000091400000000009220000000000890000000000090200000000008950000000000895000000000090101546000000000000251300000000000226836700000000000000009999123100000010000000000000BRARMLACNOR1112
012024082102ASAI3       010ASSAI       ON      NM   R$  000000000102400000000010270000000000983000000000099500000000009870000000000987000000000098818819000000000015713400000000015646980000000000000000009999123100000010000000000000BRASAIACNOR0106
012024082102CAMB3       010CAMBUCI     ON  EDJ      R$  000000000125000000000012500000000001214000000000123200000000012270000000001227000000000122900081000000000000017600000000000021685200000000000000009999123100000010000000000000BRCAMBACNOR4131
012024082102CAML3       010CAMIL       ON      NM   R$  000000000095100000000009570000000000926000000000093700000000009300000000000930000000000093501672000000000000422600000000000396301400000000000000009999123100000010000000000000BRCAMLACNOR3128
012024082102CASH3       010MELIUZ      ON      NM   R$  000000000064500000000006630000000000631000000000064200000000006410000000000639000000000064103940000000000001026100000000000659354800000000000000009999123100000010000000000000BRCASHACNOR8106
012024082102CBAV3       010CBA         ON      NM   R$  000000000052700000000005460000000000527000000000053800000000005340000000000533000000000053405859000000000003899200000000002100105700000000000000009999123100000010000000000000BRCBAVACNOR5104
012024082102CCRO3       010CCR SA      ON      NM   R$  000000000134900000000013610000000001344000000000135300000000013500000000001349000000000135021833000000000006348800000000008593227200000000000000009999123100000010000000000000BRCCROACNOR2145
012024082102CEAB3       010CEA MODAS   ON      NM   R$  000000000096500000000010190000000000965000000000099800000000009890000000000989000000000099407706000000000003272300000000003268706200000000000000009999123100000010000000000000BRCEABACNOR1102
012024082102FRAS3       010FRAS-LE     ON      N1   R$  000000000187600000000018810000000001833000000000184300000000018440000000001835000000000184503664000000000001906300000000003513437300000000000000009999123100000010000000000000BRFRASACNOR0160
012024082102EALT3       010ACO ALTONA  ON           R$  000000000136000000000014190000000001300000000000130000000000013050000000001303000000000134000057000000000000417100000000000542307600000000000000009999123100000010000000000000BREALTACNOR4138
012024082102EALT4       010ACO ALTONA  PN           R$  000000000135000000000013740000000001250000000000132400000000013250000000001325000000000132900188000000000000043800000000000058030200000000000000009999123100000010000000000000BREALTACNPR1138
012024082102GEPA3       010GER PARANAP ON           R$  000000000255000000000025500000000002550000000000255000000000025500000000002546000000000264500001000000000000000100000000000000255000000000000000009999123100000010000000000000BRGEPAACNOR2153
012024082102GEPA4       010GER PARANAP PN           R$  000000000264400000000026440000000002601000000000260800000000026010000000002601000000000264400005000000000000000600000000000001565200000000000000009999123100000010000000000000BRGEPAACNPR9160
012024082102GFSA3       010GAFISA      ON      NM   R$  000000000029300000000003090000000000285000000000029600000000002930000000000293000000000029403340000000000004828200000000001432968300000000000000009999123100000010000000000000BRGFSAACNOR3125
012024082102BLAU3       010BLAU        ON      NM   R$  000000000128200000000013530000000001282000000000133700000000013520000000001348000000000135201946000000000000335600000000000448861000000000000000009999123100000010000000000000BRBLAUACNOR8114
012024082102GGBR3       010GERDAU      ON  ED  N1   R$  000000000158900000000016340000000001587000000000161500000000016290000000001624000000000162900441000000000000109900000000000177579000000000000000009999123100000010000000000000BRGGBRACNOR1193
012024082102GGBR4       010GERDAU      PN  ED  N1   R$  000000000179000000000018470000000001781000000000182500000000018430000000001842000000000184325813000000000014339500000000026174119100000000000000009999123100000010000000000000BRGGBRACNPR8193
012024082102JHSF3       010JHSF PART   ON      NM   R$  000000000044600000000004540000000000445000000000044900000000004490000000000448000000000045004497000000000002919800000000001311715900000000000000009999123100000010000000000000BRJHSFACNOR2138
012024082102JSLG3       010JSL         ON      NM   R$  000000000094500000000009750000000000945000000000096400000000009690000000000969000000000097301252000000000000264300000000000254823600000000000000009999123100000010000000000000BRJSLGACNOR2121
012024082102BMEB3       010MERCANTIL   ON      N1   R$  000000000350000000000035000000000003499000000000349900000000035000000000003402000000000350000009000000000000003300000000000011549800000000000000009999123100000010000000000000BRBMEBACNOR8206
012024082102BMEB4       010MERCANTIL   PN      N1   R$  000000000372900000000038190000000003690000000000378100000000038150000000003776000000000381500083000000000000012200000000000046129200000000000000009999123100000010000000000000BRBMEBACNPR5211
012024082102BMGB4       010BANCO BMG   PN      N1   R$  000000000037000000000003800000000000370000000000037600000000003750000000000375000000000037700709000000000000581100000000000218584000000000000000009999123100000010000000000000BRBMGBACNPR0110
012024082102BRBI11      010BR PARTNERS UNT ED  N2   R$  000000000149300000000015220000000001492000000000149900000000015060000000001505000000000151701218000000000000206900000000000310340200000000000000009999123100000010000000000000BRBRBICDAM10110
012024082102KEPL3       010KEPLER WEBERON  EJ  NM   R$  000000000113900000000011570000000001139000000000114800000000011470000000001144000000000114702456000000000000669500000000000768700700000000000000009999123100000010000000000000BRKEPLACNOR1064
012024082102KLBN11      010KLABIN S/A  UNT     N2   R$  000000000220000000000022380000000002194000000000221200000000022150000000002214000000000221714100000000000003616400000000008002489000000000000000009999123100000010000000000000BRKLBNCDAM18143
012024082102KLBN3       010KLABIN S/A  ON      N2   R$  000000000044200000000004480000000000440000000000044300000000004480000000000443000000000044900759000000000000330900000000000146801900000000000000009999123100000010000000000000BRKLBNACNOR2171
012024082102BRFS3       010BRF SA      ON      NM   R$  000000000254500000000026130000000002534000000000257800000000026030000000002602000000000260320601000000000005946500000000015332541500000000000000009999123100000010000000000000BRBRFSACNOR8122
012024082102CRPG5       010CRISTAL     PNA          R$  000000000286400000000029000000000002856000000000287400000000028670000000002866000000000288900014000000000000002100000000000006036000000000000000009999123100000010000000000000BRCRPGACNPA3119
012024082102CRPG6       010CRISTAL     PNB          R$  000000000290400000000029040000000002862000000000287400000000028820000000002881000000000289000009000000000000001300000000000003737100000000000000009999123100000010000000000000BRCRPGACNPB1119
012024082102CSAN3       010COSAN       ON      NM   R$  000000000139000000000014160000000001387000000000139800000000013930000000001393000000000139418709000000000009192000000000012851567800000000000000009999123100000010000000000000BRCSANACNOR6126
012024082102KLBN4       010KLABIN S/A  PN      N2   R$  000000000044100000000004470000000000430000000000044000000000004410000000000441000000000044202307000000000002004900000000000882874700000000000000009999123100000010000000000000BRKLBNACNPR9171
012024082102MTRE3       010MITRE REALTYON      NM   R$  000000000039700000000003980000000000390000000000039200000000003920000000000392000000000039401606000000000000646700000000000253842000000000000000009999123100000010000000000000BRMTREACNOR6113
012024082102MTSA4       010METISA      PN           R$  000000000420200000000044370000000004165000000000429100000000043310000000004150000000000433200022000000000000004200000000000018022800000000000000009999123100000010000000000000BRMTSAACNPR9072
012024082102MULT3       010MULTIPLAN   ON      N2   R$  000000000271900000000027190000000002654000000000267000000000026700000000002662000000000267014559000000000003133800000000008367268000000000000000009999123100000010000000000000BRMULTACNOR5139
012024082102MYPK3       010IOCHP-MAXIONON      NM   R$  000000000118300000000011830000000001162000000000117100000000011620000000001162000000000117002833000000000000566900000000000664155800000000000000009999123100000010000000000000BRMYPKACNOR7155
012024082102DASA3       010DASA        ON      NM   R$  000000000033700000000003480000000000337000000000034200000000003390000000000337000000000034001553000000000000764100000000000262080300000000000000009999123100000010000000000000BRDASAACNOR1122
012024082102DESK3       010DESKTOP     ON      NM   R$  000000000161100000000016140000000001563000000000158800000000015730000000001571000000000157300812000000000000282900000000000449399900000000000000009999123100000010000000000000BRDESKACNOR2104
012024082102DEXP3       010DEXXOS PAR  ON      N1   R$  000000000095700000000009750000000000943000000000095600000000009650000000000954000000000096500699000000000000156300000000000149539900000000000000009999123100000010000000000000BRDEXPACNOR1105
012024082102RSUL4       010RIOSULENSE  PN           R$  000000000655100000000065790000000006499000000000651700000000064990000000006381000000000650000017000000000000003100000000000020203100000000000000009999123100000010000000000000BRRSULACNPR3114
012024082102AALR3       010ALLIAR      ON      NM   R$  000000000146800000000015820000000001426000000000153000000000015500000000001526000000000155000321000000000000109600000000000167751700000000000000009999123100000010000000000000BRAALRACNOR6102
012024082102ABCB4       010ABC BRASIL  PN      N2   R$  000000000241300000000024130000000002348000000000236200000000023490000000002348000000000235502190000000000000376500000000000889594200000000000000009999123100000010000000000000BRABCBACNPR4146
012024082102ABEV3       010AMBEV S/A   ON           R$  000000000129200000000013040000000001284000000000129300000000012940000000001294000000000129534750000000000024177300000000031270770300000000000000009999123100000010000000000000BRABEVACNOR1128
012024082102BMKS3       010BIC MONARK  ON           R$  000000003100000000000315000000000031000000000003130200000000310000000000030803000000003150000009000000000000000038000000000001189499000000000000009999123100000010000000000000BRBMKSACNOR9166
012024082102BMOB3       010BEMOBI TECH ON      NM   R$  000000000161300000000016550000000001609000000000163600000000016550000000001639000000000165501657000000000000241200000000000394620800000000000000009999123100000010000000000000BRBMOBACNOR7103
012024082102BOBR4       010BOMBRIL     PN           R$  000000000021600000000002180000000000214000000000021600000000002180000000000216000000000021700030000000000000030400000000000006570400000000000000009999123100000010000000000000BRBOBRACNPR3128
012024082102BRIT3       010BRISANET    ON      NM   R$  000000000037100000000003730000000000364000000000036700000000003650000000000364000000000036501792000000000000895500000000000329120500000000000000009999123100000010000000000000BRBRITACNOR0103
012024082102BRKM3       010BRASKEM     ON      N1   R$  000000000178600000000018210000000001785000000000180000000000018000000000001795000000000181100047000000000000009400000000000016926500000000000000009999123100000010000000000000BRBRKMACNOR1119
012024082102BRKM5       010BRASKEM     PNA     N1   R$  000000000177700000000018090000000001749000000000177300000000017620000000001761000000000176507229000000000002330100000000004132666100000000000000009999123100000010000000000000BRBRKMACNPA4121
012024082102DEXP4       010DEXXOS PAR  PN      N1   R$  000000000093000000000009400000000000930000000000093700000000009400000000000940000000000094800012000000000000002100000000000001969600000000000000009999123100000010000000000000BRDEXPACNPR8105
012024082102DIRR3       010DIRECIONAL  ON      NM   R$  000000000291500000000029310000000002891000000000290800000000029120000000002912000000000291605628000000000000805200000000002341621500000000000000009999123100000010000000000000BRDIRRACNOR0118
012024082102DMVF3       010D1000VFARMA ON      NM   R$  000000000074400000000007570000000000715000000000074800000000007570000000000748000000000075700574000000000000162500000000000121677400000000000000009999123100000010000000000000BRDMVFACNOR9100
012024082102DOHL4       010DOHLER      PN           R$  000000000042000000000004200000000000420000000000042000000000004200000000000410000000000042000006000000000000002500000000000001050000000000000000009999123100000010000000000000BRDOHLACNPR9066
012024082102DOTZ3       010DOTZ SA     ON      NM   R$  000000000083300000000008900000000000826000000000086900000000008800000000000841000000000089000084000000000000026400000000000022958600000000000000009999123100000010000000000000BRDOTZACNOR7101
012024082102DTCY3       010DTCOM-DIRECTON           R$  000000000052000000000005800000000000480000000000049900000000005600000000000480000000000057000014000000000000002100000000000001048300000000000000009999123100000010000000000000BRDTCYACNOR5109
012024082102DXCO3       010DEXCO       ON      NM   R$  000000000082900000000008350000000000806000000000081600000000008110000000000806000000000081107255000000000003807900000000003109271100000000000000009999123100000010000000000000BRDXCOACNOR8105
012024082102SUZB3       010SUZANO S.A. ON      NM   R$  000000000560700000000056920000000005602000000000565400000000056460000000005646000000000565118708000000000004709300000000026629930000000000000000009999123100000010000000000000BRSUZBACNOR0130
012024082102WEST3       010WESTWING    ON      NM   R$  000000000009000000000000910000000000089000000000009000000000000900000000000089000000000009000031000000000000017100000000000001544200000000000000009999123100000010000000000000BRWESTACNOR3100
012024082102WHRL3       010WHIRLPOOL   ON           R$  000000000043600000000004360000000000436000000000043600000000004360000000000429000000000043600001000000000000000100000000000000043600000000000000009999123100000010000000000000BRWHRLACNOR5128
012024082102WHRL4       010WHIRLPOOL   PN           R$  000000000045100000000004530000000000446000000000045000000000004530000000000450000000000045600018000000000000002800000000000001261200000000000000009999123100000010000000000000BRWHRLACNPR2128
012024082102WIZC3       010WIZ CO      ON      NM   R$  000000000061900000000006380000000000619000000000063100000000006330000000000633000000000063703347000000000000783800000000000494728800000000000000009999123100000010000000000000BRWIZCACNOR5102
012024082102WLMM3       010WLM IND COM ON  EJ       R$  000000000276500000000027650000000002620000000000272400000000027000000000002700000000000276500008000000000000001000000000000002724500000000000000009999123100000010000000000000BRWLMMACNOR6119
012024082102WLMM4       010WLM IND COM PN  EJ       R$  000000000330700000000034940000000003307000000000344000000000034800000000003301000000000350000008000000000000000800000000000002752700000000000000009999123100000010000000000000BRWLMMACNPR3119
012024082102YDUQ3       010YDUQS PART  ON      NM   R$  000000000103100000000010420000000001003000000000101800000000010150000000001015000000000101909099000000000002965700000000003021035200000000000000009999123100000010000000000000BRYDUQACNOR3105
012024082102MRVE3       010MRV         ON      NM   R$  000000000075300000000007730000000000753000000000076100000000007570000000000756000000000075714814000000000007875500000000005999257000000000000000009999123100000010000000000000BRMRVEACNOR2127
012024082102PTNT3       010PETTENATI   ON           R$  000000000089100000000009070000000000877000000000088600000000008770000000000862000000000088900014000000000000001400000000000001241200000000000000009999123100000010000000000000BRPTNTACNOR6042
012024082102PTNT4       010PETTENATI   PN           R$  000000000061500000000006250000000000612000000000061600000000006250000000000622000000000062500026000000000000009500000000000005859900000000000000009999123100000010000000000000BRPTNTACNPR3047
012024082102QUAL3       010QUALICORP   ON      NM   R$  000000000018200000000001910000000000182000000000018800000000001880000000000188000000000018903443000000000004299400000000000811237000000000000000009999123100000010000000000000BRQUALACNOR6120
012024082102RADL3       010RAIADROGASILON      NM   R$  000000000282200000000028400000000002771000000000280200000000028300000000002828000000000283228128000000000013039200000000036539994200000000000000009999123100000010000000000000BRRADLACNOR0157
012024082102SLCE3       010SLC AGRICOLAON      NM   R$  000000000180100000000018090000000001782000000000180100000000018000000000001799000000000180106251000000000001569900000000002827784500000000000000009999123100000010000000000000BRSLCEACNOR2125
012024082102VIVA3       010VIVARA S.A. ON      NM   R$  000000000267500000000027260000000002655000000000268700000000026710000000002670000000000267314947000000000003275100000000008801688700000000000000009999123100000010000000000000BRVIVAACNOR0107
012024082102VIVR3       010VIVER       ON      NM   R$  000000000025900000000002670000000000258000000000026300000000002650000000000263000000000026500156000000000000039200000000000010325700000000000000009999123100000010000000000000BRVIVRACNOR4123
012024082102VIVT3       010TELEF BRASILON           R$  000000000525700000000053100000000005246000000000526800000000052580000000005258000000000528213029000000000002077300000000010944928500000000000000009999123100000010000000000000BRVIVTACNOR0183
012024082102VLID3       010VALID       ON  EJ  NM   R$  000000000220000000000022570000000002167000000000220800000000021670000000002166000000000216702069000000000000379000000000000836855300000000000000009999123100000010000000000000BRVLIDACNOR5144
012024082102SANB11      010SANTANDER BRUNT          R$  000000000308500000000031320000000003080000000000310500000000031070000000003105000000000310708620000000000002377700000000007384533600000000000000009999123100000010000000000000BRSANBCDAM13165
012024082102SANB3       010SANTANDER BRON           R$  000000000145000000000014860000000001450000000000147100000000014630000000001463000000000146500752000000000000102100000000000150259600000000000000009999123100000010000000000000BRSANBACNOR8172
012024082102SANB4       010SANTANDER BRPN           R$  000000000163700000000016400000000001616000000000163100000000016160000000001615000000000162000788000000000000115300000000000188143800000000000000009999123100000010000000000000BRSANBACNPR5172
012024082102SAPR11      010SANEPAR     UNT     N2   R$  000000000287000000000028860000000002851000000000286700000000028600000000002860000000000287103460000000000000664900000000001906455900000000000000009999123100000010000000000000BRSAPRCDAM13118
012024082102SAPR3       010SANEPAR     ON      N2   R$  000000000054000000000005430000000000538000000000053900000000005380000000000538000000000054000286000000000000132800000000000071684700000000000000009999123100000010000000000000BRSAPRACNOR9159
012024082102SAPR4       010SANEPAR     PN      N2   R$  000000000058300000000005830000000000576000000000057900000000005780000000000578000000000058001893000000000001089700000000000631066300000000000000009999123100000010000000000000BRSAPRACNPR6159
012024082102SBFG3       010GRUPO SBF   ON      NM   R$  000000000175000000000017900000000001732000000000175700000000017560000000001755000000000176306711000000000001432700000000002517316100000000000000009999123100000010000000000000BRSBFGACNOR1103
012024082102UNIP3       010UNIPAR      ON           R$  000000000481400000000048630000000004800000000000482400000000048230000000004819000000000482300048000000000000006700000000000032322400000000000000009999123100000010000000000000BRUNIPACNOR7206
012024082102UNIP5       010UNIPAR      PNA          R$  000000000501000000000050100000000005010000000000501000000000050100000000004916000000000502000001000000000000000100000000000000501000000000000000009999123100000010000000000000BRUNIPACNPA0208
012024082102UNIP6       010UNIPAR      PNB          R$  000000000500000000000050710000000004899000000000494800000000049360000000004936000000000493701521000000000000243200000000001203382500000000000000009999123100000010000000000000BRUNIPACNPB8206
012024082102BAHI3       010BAHEMA      ON      MA   R$  000000000068900000000007220000000000689000000000071600000000007220000000000687000000000072200012000000000000004200000000000003009900000000000000009999123100000010000000000000BRBAHIACNOR1074
012024082102BALM3       010BAUMER      ON           R$  000000000110000000000012500000000001100000000000117500000000012500000000001030000000000165000002000000000000000200000000000000235000000000000000009999123100000010000000000000BRBALMACNOR5055
012024082102BALM4       010BAUMER      PN           R$  000000000110000000000011000000000001080000000000109000000000010800000000001060000000000110000002000000000000000200000000000000218000000000000000009999123100000010000000000000BRBALMACNPR2056
012024082102BAZA3       010AMAZONIA    ON           R$  000000000949500000000096410000000009495000000000955000000000095400000000009499000000000964800011000000000000001400000000000013370200000000000000009999123100000010000000000000BRBAZAACNOR0179
012024082102BBAS3       010BRASIL      ON      NM   R$  000000000293100000000029340000000002907000000000291700000000029130000000002912000000000291331735000000000021926500000000063963319400000000000000009999123100000010000000000000BRBBASACNOR3324
012024082102BEES3       010BANESTES    ON           R$  000000000089800000000009080000000000898000000000090300000000009060000000000901000000000090600067000000000000012100000000000010933000000000000000009999123100000010000000000000BRBEESACNOR9394
012024082102BEES4       010BANESTES    PN           R$  000000000096900000000009940000000000962000000000097600000000009770000000000977000000000097800021000000000000004000000000000003907700000000000000009999123100000010000000000000BRBEESACNPR6319
012024082102BGIP4       010BANESE      PN  EJ       R$  000000000250000000000025000000000002398000000000243700000000024000000000002350000000000248000018000000000000002800000000000006825500000000000000009999123100000010000000000000BRBGIPACNPR8209
012024082102BHIA3       010CASAS BAHIA ON      NM   R$  000000000060800000000006250000000000595000000000061300000000006180000000000613000000000061803177000000000003842200000000002355518000000000000000009999123100000010000000000000BRBHIAACNOR1102
012024082102BPAN4       010BANCO PAN   PN      N1   R$  000000000107000000000010780000000001058000000000107000000000010700000000001068000000000107008171000000000002365900000000002532209700000000000000009999123100000010000000000000BRBPANACNPR1115
012024082102BRAP3       010BRADESPAR   ON      N1   R$  000000000178500000000017970000000001761000000000177900000000017710000000001771000000000177201426000000000000195100000000000347184300000000000000009999123100000010000000000000BRBRAPACNOR5148
012024082102BRAP4       010BRADESPAR   PN      N1   R$  000000000190600000000019300000000001902000000000191500000000019080000000001908000000000191609976000000000003404200000000006521445300000000000000009999123100000010000000000000BRBRAPACNPR2148
012024082102CPFE3       010CPFL ENERGIAON      NM   R$  000000000332500000000033720000000003325000000000335400000000033600000000003360000000000336905862000000000001130200000000003791040300000000000000009999123100000010000000000000BRCPFEACNOR0137
012024082102CPLE3       010COPEL       ON      N2   R$  000000000095800000000009630000000000949000000000095700000000009550000000000954000000000095706808000000000004046100000000003873445000000000000000009999123100000010000000000000BRCPLEACNOR8149
012024082102CPLE5       010COPEL       PNA     N2   R$  000000000132600000000013260000000001326000000000132600000000013260000000001200000000000132000001000000000000000100000000000000132600000000000000009999123100000010000000000000BRCPLEACNPA1147
012024082102PORT3       010WILSON SONS ON      NM   R$  000000000169900000000017100000000001686000000000169600000000016900000000001690000000000169600818000000000000144400000000000244906800000000000000009999123100000010000000000000BRPORTACNOR8109
012024082102POSI3       010POSITIVO TECON      NM   R$  000000000069600000000007070000000000695000000000070000000000007050000000000705000000000070601904000000000001066900000000000747630700000000000000009999123100000010000000000000BRPOSIACNOR9116
012024082102PRIO3       010PETRORIO    ON      NM   R$  000000000478200000000048170000000004673000000000471800000000046850000000004682000000000468523393000000000006836900000000032259153200000000000000009999123100000010000000000000BRPRIOACNOR1107
012024082102ECOR3       010ECORODOVIAS ON      NM   R$  000000000078500000000007920000000000766000000000077300000000007660000000000766000000000076804460000000000002826600000000002187620300000000000000009999123100000010000000000000BRECORACNOR8120
012024082102EGIE3       010ENGIE BRASILON      NM   R$  000000000465400000000047190000000004650000000000469300000000047070000000004705000000000470906393000000000001189000000000005580269100000000000000009999123100000010000000000000BREGIEACNOR9126
012024082102ITUB3       010ITAUUNIBANCOON      N1   R$  000000000322900000000032290000000003193000000000320900000000032130000000003212000000000321301730000000000000349200000000001120774200000000000000009999123100000010000000000000BRITUBACNOR4339
012024082102ITUB4       010ITAUUNIBANCOPN      N1   R$  000000000373300000000037380000000003691000000000370800000000037080000000003708000000000371025492000000000014132800000000052405771400000000000000009999123100000010000000000000BRITUBACNPR1339
012024082102MILS3       010MILLS       ON  EDJ NM   R$  000000000114200000000011630000000001142000000000115100000000011460000000001146000000000115103101000000000000567300000000000653091400000000000000009999123100000010000000000000BRMILSACNOR2128
012024082102MLAS3       010MULTILASER  ON      NM   R$  000000000018700000000001960000000000185000000000019100000000001960000000000194000000000019602429000000000003654900000000000698432800000000000000009999123100000010000000000000BRMLASACNOR9101
012024082102B3SA3       010B3          ON      NM   R$  000000000129600000000012960000000001283000000000129200000000012960000000001293000000000129639404000000000055896700000000072241533400000000000000009999123100000010000000000000BRB3SAACNOR6133
012024082102MNDL3       010MUNDIAL     ON           R$  000000000135000000000013500000000001350000000000135000000000013500000000001300000000000141000003000000000000000500000000000000675000000000000000009999123100000010000000000000BRMNDLACNOR4109
012024082102MNPR3       010MINUPAR     ON           R$  000000000157100000000016280000000001564000000000157000000000015640000000001000000000000156500008000000000000002100000000000003297400000000000000009999123100000010000000000000BRMNPRACNOR5122
012024082102MOVI3       010MOVIDA      ON      NM   R$  000000000076300000000007790000000000747000000000076100000000007700000000000764000000000077108003000000000004721500000000003593635100000000000000009999123100000010000000000000BRMOVIACNOR0122
012024082102BEEF3       010MINERVA     ON      NM   R$  000000000079100000000007910000000000776000000000078300000000007900000000000790000000000079111332000000000008607300000000006743803100000000000000009999123100000010000000000000BRBEEFACNOR6116
012024082102BPAC11      010BTGP BANCO  UNT     N2   R$  000000000365400000000036840000000003637000000000366700000000036750000000003671000000000367716407000000000005137900000000018843553500000000000000009999123100000010000000000000BRBPACUNT006119
012024082102BPAC3       010BTGP BANCO  ON      N2   R$  000000000169600000000017260000000001695000000000170600000000016960000000001696000000000170500029000000000000003800000000000006483200000000000000009999123100000010000000000000BRBPACACNOR7134
012024082102BPAC5       010BTGP BANCO  PNA     N2   R$  000000000096300000000009740000000000945000000000095800000000009740000000000958000000000098400026000000000000004400000000000004218400000000000000009999123100000010000000000000BRBPACACNPA0134
012024082102MRFG3       010MARFRIG     ON      NM   R$  000000000145800000000015000000000001445000000000147300000000014840000000001483000000000148515214000000000005226900000000007700168400000000000000009999123100000010000000000000BRMRFGACNOR0116
012024082102BIOM3       010BIOMM       ON      MA   R$  000000000084700000000008670000000000814000000000084500000000008450000000000844000000000085000594000000000000155000000000000131097600000000000000009999123100000010000000000000BRBIOMACNOR2112
012024082102OPCT3       010OCEANPACT   ON      NM   R$  000000000064800000000006480000000000632000000000064000000000006440000000000639000000000064402596000000000000629400000000000403288200000000000000009999123100000010000000000000BROPCTACNOR0100
012024082102ORVR3       010ORIZON      ON      NM   R$  000000000477200000000048120000000004630000000000469600000000046300000000004630000000000463602389000000000000462800000000002173329300000000000000009999123100000010000000000000BRORVRACNOR0101
012024082102PATI3       010PANATLANTICAON           R$  000000000319900000000034000000000003190000000000329900000000034000000000003360000000000345000009000000000000002200000000000007258500000000000000009999123100000010000000000000BRPATIACNOR6065
012024082102PCAR3       010P.ACUCAR-CBDON      NM   R$  000000000032500000000003360000000000322000000000032900000000003300000000000329000000000033010880000000000014890200000000004899703800000000000000009999123100000010000000000000BRPCARACNOR3167
012024082102RECV3       010PETRORECSA  ON      NM   R$  000000000215800000000021970000000002154000000000217000000000021610000000002160000000000216104713000000000001078800000000002341544900000000000000009999123100000010000000000000BRRECVACNOR3107
012024082102REDE3       010REDE ENERGIAON           R$  000000000069000000000006900000000000683000000000068800000000006900000000000686000000000069000013000000000000001500000000000001033200000000000000009999123100000010000000000000BRREDEACNOR7128
012024082102RENT3       010LOCALIZA    ON      NM   R$  000000000430600000000043960000000004291000000000435900000000043700000000004369000000000437030251000000000006228900000000027152513500000000000000009999123100000010000000000000BRRENTACNOR4196
012024082102SNSY3       010SANSUY      ON           R$  000000000125400000000012540000000001254000000000125400000000012540000000001180000000000125500001000000000000000300000000000000376200000000000000009999123100000010000000000000BRSNSYACNOR2113
012024082102SNSY5       010SANSUY      PNA          R$  000000000056500000000005700000000000556000000000056000000000005560000000000555000000000056600016000000000000016500000000000009246000000000000000009999123100000010000000000000BRSNSYACNPA5111
012024082102SOJA3       010BOA SAFRA   ON      NM   R$  000000000139500000000013950000000001349000000000136500000000013490000000001348000000000134902121000000000000615600000000000840297900000000000000009999123100000010000000000000BRSOJAACNOR9105
012024082102SRNA3       010SERENA      ON      NM   R$  000000000092100000000009210000000000889000000000090200000000008960000000000895000000000089903798000000000001710900000000001544422300000000000000009999123100000010000000000000BRSRNAACNOR4100
012024082102STBP3       010SANTOS BRP  ON  EDJ NM   R$  000000000143100000000014310000000001378000000000139600000000013850000000001383000000000138707140000000000003456200000000004825887400000000000000009999123100000010000000000000BRSTBPACNOR3131
012024082102RAIL3       010RUMO S.A.   ON      NM   R$  000000000238400000000023840000000002342000000000235600000000023500000000002349000000000235023876000000000010526600000000024803751900000000000000009999123100000010000000000000BRRAILACNOR9105
012024082102RAIZ4       010RAIZEN      PN      N2   R$  000000000032900000000003330000000000322000000000032500000000003250000000000325000000000032614252000000000025056600000000008156903700000000000000009999123100000010000000000000BRRAIZACNPR6111
012024082102RANI3       010IRANI       ON      NM   R$  000000000081800000000008270000000000815000000000082000000000008200000000000820000000000082103355000000000001027900000000000843654700000000000000009999123100000010000000000000BRRANIACNOR5073
012024082102SMFT3       010SMART FIT   ON      NM   R$  000000000236400000000023670000000002306000000000232500000000023230000000002322000000000232514309000000000002983700000000006937305600000000000000009999123100000010000000000000BRSMFTACNOR1112
012024082102SMTO3       010SAO MARTINHOON      NM   R$  000000000296100000000029890000000002944000000000296500000000029560000000002952000000000296206868000000000001086000000000003220431200000000000000009999123100000010000000000000BRSMTOACNOR3127
012024082102CYRE3       010CYRELA REALTON      NM   R$  000000000222200000000022480000000002201000000000222600000000022220000000002221000000000222320002000000000006043600000000013457747300000000000000009999123100000010000000000000BRCYREACNOR7140
012024082102MDNE3       010MOURA DUBEUXON      NM   R$  000000000146900000000014860000000001469000000000147600000000014740000000001472000000000147501269000000000000258100000000000381011600000000000000009999123100000010000000000000BRMDNEACNOR9100
012024082102MEAL3       010IMC S/A     ON      NM   R$  000000000016400000000001700000000000164000000000016700000000001670000000000167000000000016800442000000000000765400000000000128303500000000000000009999123100000010000000000000BRMEALACNOR9105
012024082102MELK3       010MELNICK     ON      NM   R$  000000000034400000000003460000000000337000000000034000000000003420000000000340000000000034302319000000000003677300000000001252244200000000000000009999123100000010000000000000BRMELKACNOR8111
012024082102MGLU3       010MAGAZ LUIZA ON      NM   R$  000000000138300000000014080000000001342000000000137800000000013850000000001384000000000138522884000000000019832200000000027339006400000000000000009999123100000010000000000000BRMGLUACNOR2124
012024082102PINE3       010PINE        ON      N2   R$  000000000056900000000005850000000000562000000000056900000000005850000000000565000000000058400006000000000000001600000000000000910600000000000000009999123100000010000000000000BRPINEACNOR1150
012024082102PINE4       010PINE        PN      N2   R$  000000000048000000000004810000000000470000000000047600000000004700000000000469000000000047000364000000000000188800000000000089875000000000000000009999123100000010000000000000BRPINEACNPR8150
012024082102PLAS3       010PLASCAR PARTON           R$  000000000072000000000007600000000000695000000000072100000000007480000000000660000000000074900033000000000000011700000000000008438100000000000000009999123100000010000000000000BRPLASACNOR2106
012024082102PLPL3       010PLANOEPLANO ON      NM   R$  000000000122500000000012490000000001215000000000123400000000012270000000001226000000000122704292000000000000942200000000001162693700000000000000009999123100000010000000000000BRPLPLACNOR5104
012024082102PNVL3       010DIMED       ON      NM   R$  000000000109100000000011010000000001073000000000108400000000010800000000001080000000000108301904000000000000340800000000000369642800000000000000009999123100000010000000000000BRPNVLACNOR9207
012024082102POMO3       010MARCOPOLO   ON      N2   R$  000000000054300000000005460000000000533000000000053800000000005400000000000540000000000054100299000000000000110100000000000059334400000000000000009999123100000010000000000000BRPOMOACNOR0098
012024082102POMO4       010MARCOPOLO   PN      N2   R$  000000000070100000000007040000000000678000000000068900000000006900000000000690000000000069108543000000000009217500000000006353785300000000000000009999123100000010000000000000BRPOMOACNPR7098
012024082102ROMI3       010ROMI        ON      NM   R$  000000000111500000000011200000000001105000000000111300000000011170000000001113000000000111700939000000000000174100000000000193919500000000000000009999123100000010000000000000BRROMIACNOR8195
012024082102PDGR3       010PDG REALT   ON      NM   R$  000000000001800000000000180000000000017000000000001700000000000180000000000017000000000001800236000000000000591700000000000010412000000000000000009999123100000010000000000000BRPDGRACNOR8119
012024082102PDTC3       010PADTEC      ON      NM   R$  000000000018800000000001920000000000188000000000018900000000001900000000000189000000000019000038000000000000021800000000000004132200000000000000009999123100000010000000000000BRPDTCACNOR3101
012024082102PEAB3       010PAR AL BAHIAON           R$  000000000430000000000043000000000004300000000000430000000000043000000000000000000000000480000001000000000000000200000000000000860000000000000000009999123100000010000000000000BRPEABACNOR3133
012024082102PETR3       010PETROBRAS   ON      N2   R$  000000000413700000000041570000000004067000000000410000000000040730000000004072000000000407520372000000000007868600000000032268792200000000000000009999123100000010000000000000BRPETRACNOR9205
012024082102PETR4       010PETROBRAS   PN      N2   R$  000000000386800000000038790000000003794000000000382800000000038060000000003805000000000380656898000000000038491900000000147380970400000000000000009999123100000010000000000000BRPETRACNPR6213
012024082102PFRM3       010PROFARMA    ON      NM   R$  000000000061000000000006480000000000606000000000062800000000006400000000000639000000000064001490000000000000335900000000000210950100000000000000009999123100000010000000000000BRPFRMACNOR1116
012024082102PGMN3       010PAGUE MENOS ON      NM   R$  000000000033000000000003450000000000330000000000033900000000003450000000000344000000000034502119000000000000970300000000000329374000000000000000009999123100000010000000000000BRPGMNACNOR8103
012024082102ITSA3       010ITAUSA      ON      N1   R$  000000000110900000000011090000000001092000000000110100000000011020000000001102000000000110600445000000000000157500000000000173550800000000000000009999123100000010000000000000BRITSAACNOR0441
012024082102ITSA4       010ITAUSA      PN      N1   R$  000000000110700000000011090000000001098000000000110200000000011020000000001101000000000110331188000000000019709500000000021722090600000000000000009999123100000010000000000000BRITSAACNPR7441
012024082102LOGG3       010LOG COM PROPON      NM   R$  000000000241100000000024310000000002404000000000241900000000024200000000002420000000000242503163000000000000683600000000001654122600000000000000009999123100000010000000000000BRLOGGACNOR7107
012024082102LOGN3       010LOG-IN      ON      NM   R$  000000000383500000000038500000000003676000000000378500000000038500000000003794000000000385000159000000000000021600000000000081762100000000000000009999123100000010000000000000BRLOGNACNOR3105
012024082102LPSB3       010LOPES BRASILON      NM   R$  000000000017600000000001810000000000176000000000017800000000001760000000000176000000000017800137000000000000146700000000000026133900000000000000009999123100000010000000000000BRLPSBACNOR0114
012024082102LREN3       010LOJAS RENNERON      NM   R$  000000000169000000000016920000000001631000000000166600000000016900000000001690000000000169127126000000000022450400000000037416991700000000000000009999123100000010000000000000BRLRENACNOR1221
012024082102ODPV3       010ODONTOPREV  ON      NM   R$  000000000117600000000011870000000001174000000000118000000000011790000000001179000000000118304535000000000001374500000000001621925300000000000000009999123100000010000000000000BRODPVACNOR4202
012024082102OFSA3       010OUROFINO S/AON      NM   R$  000000000220400000000022500000000002200000000000222200000000022500000000002250000000000226300040000000000000007800000000000017337700000000000000009999123100000010000000000000BROFSAACNOR7118
012024082102ONCO3       010ONCOCLINICASON      NM   R$  000000000065500000000006550000000000621000000000063400000000006340000000000634000000000063505040000000000002473600000000001568459000000000000000009999123100000010000000000000BRONCOACNOR6101
012024082102RCSL3       010RECRUSUL    ON           R$  000000000031500000000003520000000000314000000000032800000000003270000000000327000000000033603651000000000001305500000000000428779900000000000000009999123100000010000000000000BRRCSLACNOR4134
012024082102RCSL4       010RECRUSUL    PN           R$  000000000008300000000000870000000000083000000000008400000000000850000000000084000000000008500564000000000000490900000000000041542400000000000000009999123100000010000000000000BRRCSLACNPR1134
012024082102RDNI3       010RNI         ON      NM   R$  000000000031100000000003190000000000311000000000031400000000003190000000000315000000000031900014000000000000013700000000000004304400000000000000009999123100000010000000000000BRRDNIACNOR9116
012024082102RDOR3       010REDE D OR   ON      NM   R$  000000000328800000000033690000000003282000000000332800000000033480000000003344000000000334929485000000000009481600000000031554988500000000000000009999123100000010000000000000BRRDORACNOR8113
012024082102ZAMP3       010ZAMP S.A.   ON           R$  000000000034500000000003510000000000344000000000034700000000003460000000000344000000000034602048000000000000415000000000000144180000000000000000009999123100000010000000000000BRZAMPACNOR5101
012024082102MAPT3       010CEMEPE      ON           R$  000000000042300000000004230000000000423000000000042300000000004230000000000421000000000049500001000000000000000100000000000000042300000000000000009999123100000010000000000000BRMAPTACNOR8106
012024082102MATD3       010MATER DEI   ON      NM   R$  000000000046100000000004720000000000459000000000046500000000004690000000000465000000000046901750000000000000601800000000000280364300000000000000009999123100000010000000000000BRMATDACNOR4104
012024082102MBLY3       010MOBLY       ON      NM   R$  000000000030300000000003160000000000302000000000031000000000003080000000000308000000000030902358000000000001428300000000000442894700000000000000009999123100000010000000000000BRMBLYACNOR5100
012024082102MDIA3       010M.DIASBRANCOON      NM   R$  000000000285600000000028560000000002771000000000279500000000027950000000002795000000000279703409000000000000663500000000001854692800000000000000009999123100000010000000000000BRMDIAACNOR7135
012024082102HYPE3       010HYPERA      ON      NM   R$  000000000319000000000031920000000003137000000000316300000000031860000000003181000000000318712628000000000002358800000000007461339400000000000000009999123100000010000000000000BRHYPEACNOR0143
012024082102ATOM3       010ATOMPAR     ON           R$  000000000021000000000002100000000000205000000000020800000000002080000000000207000000000021000011000000000000001300000000000000271100000000000000009999123100000010000000000000BRATOMACNOR1106
012024082102AURE3       010AUREN       ON      NM   R$  000000000115800000000011620000000001147000000000115300000000011530000000001153000000000115607329000000000004346600000000005015357300000000000000009999123100000010000000000000BRAUREACNOR9104
012024082102AVLL3       010ALPHAVILLE  ON      NM   R$  000000000040600000000004060000000000395000000000039700000000003950000000000395000000000040500021000000000000017200000000000006829800000000000000009999123100000010000000000000BRAVLLACNOR5103
012024082102AZEV3       010AZEVEDO     ON           R$  000000000014400000000001460000000000141000000000014300000000001440000000000144000000000014500421000000000000418000000000000060036700000000000000009999123100000010000000000000BRAZEVACNOR0121
012024082102AZEV4       010AZEVEDO     PN           R$  000000000014100000000001450000000000138000000000014100000000001410000000000140000000000014100652000000000002034200000000000287311600000000000000009999123100000010000000000000BRAZEVACNPR7121
012024082102AZUL4       010AZUL        PN      N2   R$  000000000077200000000008090000000000772000000000079000000000007780000000000777000000000077810733000000000016715500000000013206291500000000000000009999123100000010000000000000BRAZULACNPR4102
012024082102CEBR3       010CEB         ON           R$  000000000198100000000020030000000001910000000000198300000000019960000000001999000000000200200035000000000000006600000000000013091900000000000000009999123100000010000000000000BRCEBRACNOR5125
012024082102CEBR5       010CEB         PNA          R$  000000000169900000000016990000000001665000000000167300000000016700000000001665000000000167900045000000000000024100000000000040336600000000000000009999123100000010000000000000BRCEBRACNPA8124
012024082102CEBR6       010CEB         PNB          R$  000000000178300000000018250000000001783000000000181200000000017930000000001789000000000180900022000000000000005600000000000010148700000000000000009999123100000010000000000000BRCEBRACNPB6124
012024082102CEDO4       010CEDRO       PN      N1   R$  000000000241000000000024100000000002410000000000241000000000024100000000002412000000000244600001000000000000000600000000000001446000000000000000009999123100000010000000000000BRCEDOACNPR5128
012024082102CEEB3       010COELBA      ON           R$  000000000395000000000040000000000003943000000000397200000000039800000000003941000000000398900011000000000000001100000000000004369400000000000000009999123100000010000000000000BRCEEBACNOR3199
012024082102CGAS5       010COMGAS      PNA ED       R$  000000001139900000000114000000000011399000000001139900000000114000000000011352000000001143000002000000000000000300000000000003419900000000000000009999123100000010000000000000BRCGASACNPA3161
012024082102CGRA3       010GRAZZIOTIN  ON           R$  000000000257000000000025700000000002570000000000257000000000025700000000002553000000000259900003000000000000000800000000000002056000000000000000009999123100000010000000000000BRCGRAACNOR2083
012024082102CGRA4       010GRAZZIOTIN  PN           R$  000000000259000000000026000000000002575000000000258900000000025850000000002561000000000258400083000000000000009600000000000024858200000000000000009999123100000010000000000000BRCGRAACNPR9083
012024082102CIEL3       010CIELO       ON           R$  000000000058200000000005830000000000582000000000058200000000005820000000000582000000000058302686000000000021369600000000012438883400000000000000009999123100000010000000000000BRCIELACNOR3157
012024082102CLSA3       010CLEARSALE   ON      NM   R$  000000000075700000000007880000000000738000000000076000000000007800000000000779000000000078003283000000000001093700000000000831480900000000000000009999123100000010000000000000BRCLSAACNOR0100
012024082102CLSC4       010CELESC      PN      N2   R$  000000000786700000000078690000000007822000000000785500000000078590000000007804000000000786000013000000000000001600000000000012568800000000000000009999123100000010000000000000BRCLSCACNPR3131
012024082102CMIG3       010CEMIG       ON      N1   R$  000000000140800000000014300000000001403000000000141800000000014200000000001420000000000142500648000000000000119200000000000169074500000000000000009999123100000010000000000000BRCMIGACNOR6242
012024082102CMIG4       010CEMIG       PN      N1   R$  000000000119600000000012070000000001187000000000119900000000011980000000001197000000000119820404000000000017221100000000020652589500000000000000009999123100000010000000000000BRCMIGACNPR3243
012024082102ELMD3       010ELETROMIDIA ON      NM   R$  000000000187700000000018850000000001797000000000183000000000018260000000001797000000000182600814000000000000119000000000000217802400000000000000009999123100000010000000000000BRELMDACNOR3101
012024082102EMAE4       010EMAE        PN           R$  000000000419900000000041990000000004080000000000413200000000041980000000004155000000000419800026000000000000004900000000000020247300000000000000009999123100000010000000000000BREMAEACNPR1125
012024082102EMBR3       010EMBRAER     ON      NM   R$  000000000443300000000045440000000004432000000000448900000000045030000000004498000000000450419835000000000004218100000000018939076500000000000000009999123100000010000000000000BREMBRACNOR4191
012024082102KRSA3       010KORA SAUDE  ON      NM   R$  000000000006200000000000640000000000055000000000005700000000000570000000000056000000000005701024000000000001151100000000000066458500000000000000009999123100000010000000000000BRKRSAACNOR0100
012024082102LAND3       010TERRASANTAPAON      NM   R$  000000000119800000000012610000000001198000000000124700000000012500000000001245000000000125500172000000000000033000000000000041170300000000000000009999123100000010000000000000BRLANDACNOR9103
012024082102LAVV3       010LAVVI       ON  ED  NM   R$  000000000087600000000008760000000000856000000000086400000000008640000000000864000000000086501766000000000000352100000000000304313300000000000000009999123100000010000000000000BRLAVVACNOR4113
012024082102LEVE3       010METAL LEVE  ON      NM   R$  000000000313000000000031540000000003115000000000313300000000031320000000003130000000000313202682000000000000501100000000001569980500000000000000009999123100000010000000000000BRLEVEACNOR2197
012024082102LJQQ3       010QUERO-QUERO ON      NM   R$  000000000042300000000004290000000000414000000000042200000000004290000000000422000000000042905640000000000002921000000000001233446100000000000000009999123100000010000000000000BRLJQQACNOR5104
012024082102NEOE3       010NEOENERGIA  ON      NM   R$  000000000192100000000019620000000001920000000000194400000000019390000000001934000000000193904254000000000001126900000000002190789600000000000000009999123100000010000000000000BRNEOEACNOR3123
012024082102NGRD3       010NEOGRID     ON      NM   R$  000000000011900000000001300000000000118000000000012600000000001290000000000128000000000012902098000000000001643500000000000207233800000000000000009999123100000010000000000000BRNGRDACNOR3104
012024082102NINJ3       010GETNINJAS   ON      NM   R$  000000000047100000000004710000000000461000000000046600000000004700000000000462000000000047900037000000000000008700000000000004059400000000000000009999123100000010000000000000BRNINJACNOR5101
012024082102NORD3       010NORDON MET  ON           R$  000000000102100000000010500000000000934000000000100900000000010500000000001000000000000109500004000000000000000500000000000000504500000000000000009999123100000010000000000000BRNORDACNOR7135
012024082102NTCO3       010GRUPO NATURAON      NM   R$  000000000140300000000014030000000001347000000000136900000000013790000000001379000000000138022986000000000011822600000000016194274000000000000000009999123100000010000000000000BRNTCOACNOR5106
012024082102PETZ3       010PETZ        ON      NM   R$  000000000047800000000005280000000000472000000000051000000000005150000000000515000000000051625783000000000037073100000000018915399200000000000000009999123100000010000000000000BRPETZACNOR2110
012024082102ALPA3       010ALPARGATAS  ON      N1   R$  000000000078700000000007870000000000750000000000075300000000007600000000000760000000000077700244000000000000100100000000000075473500000000000000009999123100000010000000000000BRALPAACNOR0231
012024082102ALPA4       010ALPARGATAS  PN      N1   R$  000000000083500000000008390000000000815000000000082300000000008240000000000821000000000082405224000000000001923800000000001584958600000000000000009999123100000010000000000000BRALPAACNPR7232
012024082102ALPK3       010ESTAPAR     ON      NM   R$  000000000037800000000003950000000000376000000000038800000000003890000000000383000000000039001106000000000000293900000000000114143800000000000000009999123100000010000000000000BRALPKACNOR9101
012024082102ALUP11      010ALUPAR      UNT ED  N2   R$  000000000314200000000031740000000003125000000000314000000000031280000000003127000000000314503004000000000000474800000000001491138100000000000000009999123100000010000000000000BRALUPCDAM15120
012024082102ALUP3       010ALUPAR      ON  ED  N2   R$  000000000107800000000010780000000001072000000000107400000000010720000000001072000000000107600019000000000000002300000000000002471500000000000000009999123100000010000000000000BRALUPACNOR8120
012024082102AERI3       010AERIS       ON      NM   R$  000000000093900000000009780000000000913000000000093600000000009230000000000920000000000092300696000000000000181500000000000169931500000000000000009999123100000010000000000000BRAERIACNOR4102
012024082102AESB3       010AES BRASIL  ON      NM   R$  000000000114100000000011430000000001136000000000114000000000011430000000001141000000000114302054000000000002327400000000002653242200000000000000009999123100000010000000000000BRAESBACNOR7106
012024082102AFLT3       010AFLUENTE T  ON           R$  000000000071600000000007160000000000716000000000071600000000007160000000000712000000000071800001000000000000000200000000000000143200000000000000009999123100000010000000000000BRAFLTACNOR1122
012024082102AGRO3       010BRASILAGRO  ON      NM   R$  000000000261000000000026450000000002606000000000262100000000026150000000002614000000000261501151000000000000171600000000000449793800000000000000009999123100000010000000000000BRAGROACNOR7114
012024082102AGXY3       010AGROGALAXY  ON      NM   R$  000000000012700000000001320000000000125000000000012800000000001300000000000128000000000013000301000000000000237000000000000030487700000000000000009999123100000010000000000000BRAGXYACNOR4103
012024082102ALLD3       010ALLIED      ON      NM   R$  000000000077400000000007760000000000759000000000076500000000007680000000000762000000000076900229000000000000044700000000000034208800000000000000009999123100000010000000000000BRALLDACNOR3106
012024082102ALOS3       010ALLOS       ON      NM   R$  000000000233900000000023500000000002317000000000233600000000023340000000002334000000000233615066000000000004057100000000009479834100000000000000009999123100000010000000000000BRALOSACNOR5101
012024082102BBDC3       010BRADESCO    ON      N1   R$  000000000140800000000014140000000001393000000000140200000000014040000000001404000000000140614747000000000005222900000000007326454100000000000000009999123100000010000000000000BRBBDCACNOR1773
012024082102BBDC4       010BRADESCO    PN      N1   R$  000000000157000000000015760000000001557000000000156500000000015630000000001563000000000156628637000000000025842000000000040461234900000000000000009999123100000010000000000000BRBBDCACNPR8773
012024082102BRSR3       010BANRISUL    ON      N1   R$  000000000134500000000013590000000001336000000000134700000000013360000000001335000000000134500042000000000000007000000000000009430800000000000000009999123100000010000000000000BRBRSRACNOR3188
012024082102BRSR6       010BANRISUL    PNB     N1   R$  000000000124100000000012500000000001236000000000124200000000012370000000001237000000000123802762000000000000634100000000000788054200000000000000009999123100000010000000000000BRBRSRACNPB4191
012024082102BSLI3       010BRB BANCO   ON           R$  000000000108500000000010880000000001085000000000108600000000010880000000001044000000000110000002000000000000000200000000000000217300000000000000009999123100000010000000000000BRBSLIACNOR5194
012024082102BSLI4       010BRB BANCO   PN           R$  000000000098500000000010000000000000985000000000098700000000009970000000000948000000000098900004000000000000001300000000000001283200000000000000009999123100000010000000000000BRBSLIACNPR2194
012024082102EKTR4       010ELEKTRO     PN           R$  000000000432300000000043230000000004300000000000431400000000043150000000004300000000000431500007000000000000000800000000000003451400000000000000009999123100000010000000000000BREKTRACNPR7164
012024082102ELET3       010ELETROBRAS  ON      N1   R$  000000000415000000000041790000000004123000000000415100000000041500000000004150000000000415518085000000000006466900000000026845042700000000000000009999123100000010000000000000BRELETACNOR6160
012024082102ELET6       010ELETROBRAS  PNB     N1   R$  000000000459500000000046260000000004568000000000459700000000045920000000004590000000000459505950000000000001229100000000005650351400000000000000009999123100000010000000000000BRELETACNPB7077
012024082102ENJU3       010ENJOEI      ON      NM   R$  000000000017800000000001810000000000176000000000017800000000001800000000000180000000000018101233000000000000631300000000000112656700000000000000009999123100000010000000000000BRENJUACNOR9100
012024082102ENMT4       010ENERGISA MT PN           R$  000000000800100000000082990000000007991000000000817800000000082990000000005001000000000830000010000000000000001400000000000011449800000000000000009999123100000010000000000000BRENMTACNPR2126
012024082102EPAR3       010EMBPAR S/A  ON           R$  000000000057800000000005890000000000578000000000058100000000005820000000000583000000000058900013000000000000001600000000000000930800000000000000009999123100000010000000000000BREPARACNOR9105
012024082102EQMA3B      010EQTLMARANHAOON      MB   R$  000000000254800000000025500000000002548000000000254900000000025500000000002501000000000255000003000000000000000400000000000001019800000000000000009999123100000010000000000000BREQMAACNOR8108
012024082102EQPA3       010EQTL PARA   ON           R$  000000000070000000000007000000000000695000000000069500000000006950000000000691000000000069300008000000000000002700000000000001876800000000000000009999123100000010000000000000BREQPAACNOR1111
012024082102EQTL3       010EQUATORIAL  ON  ES  NM   R$  000000000361000000000036140000000003541000000000356700000000035640000000003564000000000356825965000000000006672800000000023803030200000000000000009999123100000010000000000000BREQTLACNOR0131
012024082102ESPA3       010ESPACOLASER ON      NM   R$  000000000010400000000001050000000000102000000000010300000000001050000000000104000000000010501039000000000000561400000000000057863000000000000000009999123100000010000000000000BRESPAACNOR7103
012024082102ESTR4       010ESTRELA     PN           R$  000000000019900000000001990000000000199000000000019900000000001990000000000206000000000022700001000000000000000100000000000000019900000000000000009999123100000010000000000000BRESTRACNPR0144
012024082102ETER3       010ETERNIT     ON  EJ  NM   R$  000000000061400000000006200000000000600000000000060900000000006070000000000607000000000061101178000000000000369700000000000225401300000000000000009999123100000010000000000000BRETERACNOR3244
012024082102EUCA3       010EUCATEX     ON      N1   R$  000000000166500000000016650000000001665000000000166500000000016650000000001669000000000174900001000000000000000200000000000000333000000000000000009999123100000010000000000000BREUCAACNOR1157
012024082102EUCA4       010EUCATEX     PN      N1   R$  000000000157900000000015940000000001554000000000157200000000015940000000001585000000000159400248000000000000037700000000000059297600000000000000009999123100000010000000000000BREUCAACNPR8044
012024082102EVEN3       010EVEN        ON      NM   R$  000000000066900000000006790000000000658000000000067000000000006580000000000658000000000066604169000000000000738600000000000495520400000000000000009999123100000010000000000000BREVENACNOR8119
012024082102GGPS3       010GPS         ON      NM   R$  000000000175900000000017710000000001732000000000175000000000017560000000001756000000000175906599000000000002446800000000004283771600000000000000009999123100000010000000000000BRGGPSACNOR9103
012024082102GMAT3       010GRUPO MATEUSON      NM   R$  000000000078500000000007950000000000774000000000078200000000007860000000000785000000000078705048000000000001421600000000001113049100000000000000009999123100000010000000000000BRGMATACNOR7102
012024082102GOAU3       010GERDAU MET  ON  ED  N1   R$  000000000104700000000010810000000001034000000000106500000000010790000000001075000000000108000202000000000000042000000000000044749000000000000000009999123100000010000000000000BRGOAUACNOR1268
012024082102GOAU4       010GERDAU MET  PN  ED  N1   R$  000000000103200000000010690000000001028000000000105800000000010660000000001065000000000106709957000000000007682800000000008132688600000000000000009999123100000010000000000000BRGOAUACNPR8269
012024082102GRND3       010GRENDENE    ON      NM   R$  000000000062900000000006320000000000626000000000062800000000006260000000000626000000000062702751000000000000734400000000000461906300000000000000009999123100000010000000000000BRGRNDACNOR3174
012024082102JALL3       010JALLESMACHADON      NM   R$  000000000069200000000006960000000000684000000000068900000000006890000000000686000000000069001678000000000000438000000000000301989300000000000000009999123100000010000000000000BRJALLACNOR0106
012024082102JBSS3       010JBS         ON  ED  NM   R$  000000000363000000000036720000000003615000000000365100000000036550000000003654000000000365526855000000000007361000000000026881672300000000000000009999123100000010000000000000BRJBSSACNOR8122
012024082102SYNE3       010SYN PROP TECON  ED  NM   R$  000000000079800000000008140000000000771000000000079300000000007810000000000780000000000078103751000000000001671300000000001326330800000000000000009999123100000010000000000000BRSYNEACNOR2103
012024082102TAEE11      010TAESA       UNT EDJ N2   R$  000000000356000000000035770000000003552000000000356900000000035720000000003572000000000357405930000000000001448000000000005168366200000000000000009999123100000010000000000000BRTAEECDAM10148
012024082102SHOW3       010TIME FOR FUNON      NM   R$  000000000012000000000001230000000000115000000000011800000000001160000000000116000000000011700420000000000000475600000000000056297000000000000000009999123100000010000000000000BRSHOWACNOR7105
012024082102SHUL4       010SCHULZ      PN           R$  000000000067200000000006810000000000665000000000067400000000006710000000000670000000000067500977000000000000237600000000000160214900000000000000009999123100000010000000000000BRSHULACNPR4156
012024082102SIMH3       010SIMPAR      ON      NM   R$  000000000070400000000007140000000000678000000000069200000000006840000000000684000000000068505134000000000003076700000000002129973500000000000000009999123100000010000000000000BRSIMHACNOR0107
012024082102VALE3       010VALE        ON      NM   R$  000000000582500000000058560000000005810000000000583400000000058300000000005830000000000583647646000000000023200300000000135357496300000000000000009999123100000010000000000000BRVALEACNOR0211
012024082102CPLE6       010COPEL       PNB     N2   R$  000000000105800000000010700000000001056000000000106400000000010650000000001065000000000106721728000000000012749900000000013575117500000000000000009999123100000010000000000000BRCPLEACNPB9146
012024082102CRFB3       010CARREFOUR BRON      NM   R$  000000000093600000000009410000000000905000000000091600000000009150000000000914000000000091614519000000000010052200000000009210340400000000000000009999123100000010000000000000BRCRFBACNOR2116
012024082102CXSE3       010CAIXA SEGURION      NM   R$  000000000147600000000015040000000001475000000000149100000000014840000000001484000000000148708489000000000002505600000000003736714100000000000000009999123100000010000000000000BRCXSEACNOR7107
012024082102TTEN3       0103TENTOS     ON      NM   R$  000000000127500000000012750000000001211000000000123700000000012240000000001224000000000122505404000000000001238200000000001532740900000000000000009999123100000010000000000000BRTTENACNOR0103
012024082102TUPY3       010TUPY        ON      NM   R$  000000000276200000000027890000000002748000000000277300000000027840000000002774000000000278402649000000000000425600000000001180212700000000000000009999123100000010000000000000BRTUPYACNOR1184
012024082107NUTR3       010NUTRIPLANT  ON      MA   R$  000000000049600000000004960000000000473000000000048000000000004850000000000471000000000048500043000000000000011300000000000005429900000000000000009999123100000010000000000000BRNUTRACNOR0104
012024082107TXRX4       010TEX RENAUX  PN           R$  000000000023000000000002390000000000225000000000022700000000002250000000000224000000000023600009000000000000002300000000000000522200000000000000009999123100000010000000000000BRTXRXACNPR0142
012024082108RPMG3       010PET MANGUINHON           R$  000000000027700000000002850000000000273000000000027900000000002770000000000277000000000028200072000000000000018800000000000005256800000000000000009999123100000010000000000000BRRPMGACNOR9194
012024082108CTSA3       010SANTANENSE  ON           R$  000000000028800000000002880000000000275000000000028200000000002850000000000263000000000028300014000000000000006200000000000001752200000000000000009999123100000010000000000000BRCTSAACNOR3062
012024082108CTSA4       010SANTANENSE  PN           R$  000000000013500000000001360000000000129000000000013200000000001350000000000131000000000013500135000000000000038600000000000005121200000000000000009999123100000010000000000000BRCTSAACNPR0062
012024082108AMER3       010AMERICANAS  ON      NM   R$  000000000000900000000000100000000000007000000000000800000000000080000000000008000000000000916790000000000594413500000000004944576200000000000000009999123100000010000000000000BRAMERACNOR6102
012024082108JFEN3       010JOAO FORTES ON           R$  000000000002400000000000260000000000023000000000002400000000000240000000000024000000000002500522000000000001415100000000000034606800000000000000009999123100000010000000000000BRJFENACNOR0059
012024082108RSID3       010ROSSI RESID ON      NM   R$  000000000039900000000004150000000000387000000000039700000000004000000000000393000000000040000319000000000000054700000000000021737100000000000000009999123100000010000000000000BRRSIDACNOR8120
012024082108OSXB3       010OSX BRASIL  ON      NM   R$  000000000038100000000003810000000000373000000000037600000000003750000000000376000000000037900012000000000000003200000000000001203600000000000000009999123100000010000000000000BROSXBACNOR8109
012024082108PMAM3       010PARANAPANEMAON      NM   R$  000000000020500000000002100000000000200000000000020500000000002070000000000203000000000020700708000000000000199700000000000041004200000000000000009999123100000010000000000000BRPMAMACNOR3039
012024082108RNEW11      010RENOVA      UNT     N2   R$  000000000029700000000003290000000000295000000000030800000000003290000000000307000000000032900039000000000000005700000000000001759900000000000000009999123100000010000000000000BRRNEWCDAM15110
012024082108RNEW3       010RENOVA      ON      N2   R$  000000000010000000000001040000000000100000000000010200000000001020000000000102000000000010300203000000000000148500000000000015186700000000000000009999123100000010000000000000BRRNEWACNOR8110
012024082108RNEW4       010RENOVA      PN      N2   R$  000000000009700000000001050000000000097000000000010100000000001040000000000104000000000010500292000000000000314200000000000031862200000000000000009999123100000010000000000000BRRNEWACNPR5110
012024082108OIBR3       010OI          ON      N1   R$  000000000045400000000004730000000000450000000000046000000000004590000000000458000000000045901037000000000000739300000000000340121200000000000000009999123100000010000000000000BROIBRACNOR1111
012024082108OIBR4       010OI          PN      N1   R$  000000000122900000000012640000000001229000000000124700000000012400000000001240000000000124500030000000000000004600000000000005739100000000000000009999123100000010000000000000BROIBRACNPR8110
012024082108ATMP3       010ATMASA      ON           R$  000000000013300000000001360000000000126000000000013100000000001350000000000134000000000013500084000000000000093000000000000012261600000000000000009999123100000010000000000000BRATMPACNOR8100
012024082108LIGT3       010LIGHT S/A   ON      NM   R$  000000000063400000000006780000000000621000000000065000000000006440000000000643000000000064606460000000000002184800000000001421420600000000000000009999123100000010000000000000BRLIGTACNOR2124
012024082108NEXP3       010NEXPE       ON           R$  000000000040900000000004090000000000405000000000040700000000004060000000000406000000000041100011000000000000003400000000000001384100000000000000009999123100000010000000000000BRNEXPACNOR0101
012024082110GFSA1       010GAFISA      DIR ORD NM   R$  000000000000300000000000040000000000002000000000000300000000000040000000000003000000000000401043000000000001966600000000000006367700000000000000009999123100000010000000000000BRGFSAD11OR7124
012024082110PDGR95      010PDG REALT   DIR     NM   R$  000000000000100000000000010000000000001000000000000100000000000010000000000000000000000000100023000000000000006934000000000000006934000000000000009999123100000010000000000000BRPDGRD03M17100
012024082110ZAMP1       010ZAMP S.A.   DIR ORD      R$  000000000000800000000000080000000000006000000000000700000000000060000000000006000000000000701016000000000001610500000000000011452500000000000000009999123100000010000000000000BRZAMPD01OR0100
012024082110RENT9       010LOCALIZA    ON  REC NM   R$  000000000427800000000044020000000004255000000000432800000000043140000000004300000000000449900756000000000000077300000000000334625200000000000000009999123100000010000000000000BRRENTR06OR8195
012024082112RPRI11      010FII RBR PR  CI           R$  000000000930000000000093000000000009250000000000927400000000092520000000009251000000000927300301000000000000006026000000000055885957000000000000009999123100000010000000000000BRRPRICTF007130
012024082112RRCI11      010FII RBCAP RICI           R$  000000000770100000000077010000000007690000000000769300000000076900000000007681000000000769000022000000000000000151000000000001161716000000000000009999123100000010000000000000BRRRCICTF005144
012024082112TEPP11      010FII TEL PROPCI           R$  000000000890000000000089230000000008886000000000890700000000088960000000008896000000000890000738000000000000003983000000000035479996000000000000009999123100000010000000000000BRTEPPCTF006152
012024082112TGAR11      010FII TG ATIVOCI           R$  000000001186800000000119050000000011830000000001186300000000118480000000011842000000001184807231000000000000049002000000000581349016000000000000009999123100000010000000000000BRTGARCTF009193
012024082112TJKB11      010FII TJK RENDCI  ER       R$  000000002800000000000280000000000028000000000002800000000000280000000000028000000000002830000005000000000000000040000000000001120000000000000000009999123100000010000000000000BRTJKBCTF006132
012024082112TMPS11      010FII ITAU TEMCI           R$  000000000948000000000094800000000009358000000000938600000000093830000000009382000000000942201726000000000000004661000000000043749932000000000000009999123100000010000000000000BRTMPSCTF003116
012024082112TORD11      010FII TORDE EICI           R$  000000000013100000000001330000000000120000000000012800000000001260000000000126000000000012700676000000000000134058000000000017189781000000000000009999123100000010000000000000BRTORDCTF015138
012024082112TRBL11      010FII SDI LOG CI           R$  000000000962500000000096930000000009622000000000966800000000096920000000009690000000000969200684000000000000006545000000000063277132000000000000009999123100000010000000000000BRTRBLCTF007114
012024082112TRNT11      010FII TORRE NOCI           R$  000000001049900000000109000000000010499000000001051500000000109000000000010301000000001090000006000000000000000053000000000000557297000000000000009999123100000010000000000000BRTRNTCTF013341
012024082112ICRI11      010FII CI IPCA CI           R$  000000000987400000000099720000000009793000000000991600000000099160000000009812000000000991503799000000000000006888000000000068307682000000000000009999123100000010000000000000BRICRICTF004106
012024082112CTXT11      010FII C TEXTILCI           R$  000000000080300000000008090000000000790000000000079700000000008090000000000791000000000080000012000000000000000327000000000000260751000000000000009999123100000010000000000000BRCTXTCTF014207
012024082112CVBI11      010FII VBI CRI CI           R$  000000000935100000000093990000000009305000000000936200000000093740000000009360000000000937403165000000000000020475000000000191704615000000000000009999123100000010000000000000BRCVBICTF001168
012024082112EMET11      010FII EMET    CI           R$  000000000110000000000011000000000001100000000000110000000000011000000000000000000000000110000001000000000000000001000000000000001100000000000000009999123100000010000000000000BREMETCTF007100
012024082112RVBI11      010FII VBI REITCI           R$  000000000745000000000074500000000007412000000000742400000000074440000000007422000000000744404491000000000000014046000000000104279703000000000000009999123100000010000000000000BRRVBICTF009154
012024082112RZAK11      010FII RIZA AKNCI  ER       R$  000000000822300000000082420000000008208000000000822700000000082360000000008222000000000823502597000000000000035791000000000294452580000000000000009999123100000010000000000000BRRZAKCTF008146
012024082112RZAT11      010FII ARCTIUM CI  ER       R$  000000000986000000000098800000000009815000000000985000000000098550000000009851000000000985500640000000000000008782000000000086503474000000000000009999123100000010000000000000BRRZATCTF009119
012024082112RZTR11      010FII RIZA TX CI           R$  000000000940000000000094370000000009372000000000939700000000093990000000009399000000000940004418000000000000035958000000000337923841000000000000009999123100000010000000000000BRRZTRCTF003150
012024082112TRXB11      010FII TRX R IICI           R$  000000001679800000000167980000000016596000000001674700000000165960000000015500000000001659600003000000000000000004000000000000066990000000000000009999123100000010000000000000BRTRXBCTF002153
012024082112VRTM11      010FII VRTM    CI           R$  000000000090000000000009000000000000873000000000088200000000008840000000000882000000000088400594000000000000039438000000000034792153000000000000009999123100000010000000000000BRVRTMCTF003110
012024082112VSHO11      010FII VOT SHOPCI           R$  000000000727100000000073420000000007271000000000731300000000073290000000007300000000000732800024000000000000000112000000000000819099000000000000009999123100000010000000000000BRVSHOCTF002163
012024082112VSLH11      010FII VERS CRICI           R$  000000000034000000000003430000000000339000000000034000000000003400000000000339000000000034001735000000000000055338000000000018853574000000000000009999123100000010000000000000BRVSLHCTF008145
012024082112VTLT11      010FII VOT LOG CI           R$  000000000972400000000097240000000009577000000000962600000000097050000000009654000000000970400081000000000000000664000000000006392173000000000000009999123100000010000000000000BRVTLTCTF001174
012024082112VVCO11      010FII V2EDCORPCI           R$  000000000127700000000013000000000001266000000000128500000000013000000000001300000000000130300037000000000000004283000000000005506934000000000000009999123100000010000000000000BRVVCOCTF007101
012024082112VVCR11      010FII V2 RECE CI  ER       R$  000000000099000000000009950000000000990000000000099000000000009900000000000990000000000099100046000000000000000775000000000000767341000000000000009999123100000010000000000000BRVVCRCTF000118
012024082112VVMR11      010FII MULT RENCI           R$  000000000898000000000089960000000008980000000000898000000000089960000000008838000000000899700004000000000000033411000000000300030812000000000000009999123100000010000000000000BRVVMRCTF009108
012024082112VVRI11      010FII V2 RENDACI  ER       R$  000000000999900000000099990000000009999000000000999900000000099990000000009109000000000999900001000000000000000020000000000000199980000000000000009999123100000010000000000000BRVVRICTF007118
012024082112IDFI11      010FII UNIDADESCI           R$  000000000086200000000008700000000000862000000000086700000000008680000000000868000000000086900011000000000000000101000000000000087605000000000000009999123100000010000000000000BRIDFICTF007134
012024082112IDGR11      010FII UNID II CI           R$  000000000065000000000007490000000000650000000000065000000000007490000000000560000000000074900005000000000000000201000000000000130749000000000000009999123100000010000000000000BRIDGRCTF006129
012024082112PRSN11      010FII PERSONALCI           R$  000000000010700000000001080000000000103000000000010600000000001040000000000103000000000011000011000000000000000079000000000000008430000000000000009999123100000010000000000000BRPRSNCTF005125
012024082112PRSV11      010FII P VARGASCI           R$  000000000590100000000059010000000005901000000000590100000000059010000000005900000000000619700001000000000000000001000000000000005901000000000000009999123100000010000000000000BRPRSVCTF008226
012024082112SCPF11      010FII SCP     CI           R$  000000000026900000000002700000000000268000000000026900000000002700000000000268000000000027000034000000000000001049000000000000282455000000000000009999123100000010000000000000BRSCPFCTF003302
012024082112SEQR11      010FII SEQUOIA CI           R$  000000000523400000000052340000000005176000000000518700000000051910000000005180000000000518800089000000000000001088000000000005644207000000000000009999123100000010000000000000BRSEQRCTF002145
012024082112RBDS11      010FII RBRESID2CI           R$  000000000026600000000002900000000000266000000000028500000000002800000000000271000000000028300004000000000000000161000000000000045996000000000000009999123100000010000000000000BRRBDSCTF006179
012024082112RBED11      010FII RIOB ED CI           R$  000000001366800000000137510000000013665000000001372700000000137500000000013750000000001377900102000000000000004794000000000065808601000000000000009999123100000010000000000000BRRBEDCTF006166
012024082112RBFF11      010FII RIOB FF CI           R$  000000000612100000000062070000000006090000000000612300000000062000000000006187000000000620000253000000000000002762000000000016913879000000000000009999123100000010000000000000BRRBFFCTF008162
012024082112VCRR11      010FII VECT RENCI           R$  000000000665000000000066780000000006550000000000661200000000066390000000006601000000000663900325000000000000005669000000000037487678000000000000009999123100000010000000000000BRVCRRCTF008138
012024082112VGHF11      010FII VALOR HECI           R$  000000000088000000000008820000000000878000000000087900000000008810000000000881000000000088217661000000000000342773000000000301554973000000000000009999123100000010000000000000BRVGHFCTF005146
