00COTAHIST.2024BOVESPA 20240808                                                                                                                                                                                                                      
012024080802SIMH3       010SIMPAR      ON      NM   R$  000000000066600000000006750000000000638000000000065400000000006430000000000642000000000064306743000000000004100800000000002683264600000000000000009999123100000010000000000000BRSIMHACNOR0107
012024080802SLCE3       010SLC AGRICOLAON      NM   R$  000000000178300000000018160000000001771000000000180100000000017990000000001799000000000180005759000000000001461800000000002633292900000000000000009999123100000010000000000000BRSLCEACNOR2125
012024080802VALE3       010VALE        ON  EJ  NM   R$  000000000570300000000057500000000005682000000000570900000000056850000000005685000000000568734823000000000014584800000000083266036200000000000000009999123100000010000000000000BRVALEACNOR0211
012024080802WEST3       010WESTWING    ON      NM   R$  000000000009300000000000940000000000091000000000009100000000000910000000000090000000000009100055000000000000063200000000000005799500000000000000009999123100000010000000000000BRWESTACNOR3100
012024080802WHRL3       010WHIRLPOOL   ON           R$  000000000043200000000004330000000000430000000000043100000000004310000000000431000000000045500006000000000000000900000000000000388600000000000000009999123100000010000000000000BRWHRLACNOR5128
012024080802TUPY3       010TUPY        ON      NM   R$  000000000252600000000025430000000002504000000000252700000000025240000000002524000000000253001897000000000000261600000000000661305300000000000000009999123100000010000000000000BRTUPYACNOR1184
012024080802UCAS3       010UNICASA     ON      NM   R$  000000000022600000000002290000000000225000000000022600000000002270000000000226000000000022700067000000000000013300000000000003016700000000000000009999123100000010000000000000BRUCASACNOR1113
012024080802UGPA3       010ULTRAPAR    ON      NM   R$  000000000225500000000023050000000002212000000000224900000000022470000000002247000000000224840149000000000018239500000000041029042400000000000000009999123100000010000000000000BRUGPAACNOR8155
012024080802VLID3       010VALID       ON      NM   R$  000000000174000000000019490000000001740000000000188800000000019240000000001923000000000193305539000000000001307100000000002468357300000000000000009999123100000010000000000000BRVLIDACNOR5143
012024080802GUAR3       010GUARARAPES  ON      NM   R$  000000000079000000000008330000000000775000000000080800000000008240000000000820000000000082410091000000000003968800000000003209279700000000000000009999123100000010000000000000BRGUARACNOR4173
012024080802JALL3       010JALLESMACHADON      NM   R$  000000000066600000000006970000000000666000000000068500000000006930000000000687000000000069301461000000000000440000000000000301573500000000000000009999123100000010000000000000BRJALLACNOR0106
012024080802B3SA3       010B3          ON      NM   R$  000000000111500000000011360000000001109000000000112600000000011350000000001135000000000113633477000000000025036600000000028204257900000000000000009999123100000010000000000000BRB3SAACNOR6133
012024080802BBSE3       010BBSEGURIDADEON      NM   R$  000000000350900000000036360000000003500000000000359300000000036140000000003613000000000361415105000000000006483600000000023297596600000000000000009999123100000010000000000000BRBBSEACNOR5124
012024080802GEPA3       010GER PARANAP ON           R$  000000000265000000000026500000000002650000000000265000000000026500000000002536000000000265000001000000000000000100000000000000265000000000000000009999123100000010000000000000BRGEPAACNOR2153
012024080802GFSA3       010GAFISA      ON      NM   R$  000000000028900000000003140000000000289000000000030300000000003110000000000311000000000031203733000000000004997900000000001517125500000000000000009999123100000010000000000000BRGFSAACNOR3124
012024080802GGBR3       010GERDAU      ON      N1   R$  000000000156000000000015920000000001544000000000155600000000015590000000001559000000000156000204000000000000026300000000000040946000000000000000009999123100000010000000000000BRGGBRACNOR1192
012024080802GGBR4       010GERDAU      PN      N1   R$  000000000171400000000017430000000001710000000000172900000000017380000000001737000000000174024505000000000009349500000000016173468400000000000000009999123100000010000000000000BRGGBRACNPR8192
012024080802ITUB3       010ITAUUNIBANCOON  EJ  N1   R$  000000000292500000000029410000000002898000000000292400000000029090000000002906000000000290901923000000000000623700000000001824031300000000000000009999123100000010000000000000BRITUBACNOR4339
012024080802CMIG3       010CEMIG       ON      N1   R$  000000000122300000000012550000000001220000000000124100000000012490000000001244000000000125000859000000000000177100000000000219825700000000000000009999123100000010000000000000BRCMIGACNOR6242
012024080802CMIG4       010CEMIG       PN      N1   R$  000000000108000000000010840000000001069000000000107300000000010700000000001070000000000107219144000000000008596100000000009224999500000000000000009999123100000010000000000000BRCMIGACNPR3243
012024080802CMIN3       010CSNMINERACAOON      N2   R$  000000000048000000000004860000000000479000000000048100000000004820000000000482000000000048305672000000000005957600000000002871135600000000000000009999123100000010000000000000BRCMINACNOR2111
012024080802EALT3       010ACO ALTONA  ON           R$  000000000134000000000014500000000001340000000000137600000000014500000000001380000000000143800019000000000000002600000000000003577800000000000000009999123100000010000000000000BREALTACNOR4138
012024080802EALT4       010ACO ALTONA  PN           R$  000000000130000000000014100000000001300000000000137400000000014090000000001396000000000140900402000000000000092100000000000126636100000000000000009999123100000010000000000000BREALTACNPR1138
012024080802ECOR3       010ECORODOVIAS ON      NM   R$  000000000077900000000007820000000000754000000000077100000000007740000000000773000000000077508263000000000004102400000000003163132600000000000000009999123100000010000000000000BRECORACNOR8120
012024080802EGIE3       010ENGIE BRASILON      NM   R$  000000000443000000000045190000000004430000000000448100000000044900000000004488000000000449505371000000000000961000000000004306630500000000000000009999123100000010000000000000BREGIEACNOR9126
012024080802GGPS3       010GPS         ON      NM   R$  000000000179300000000018260000000001785000000000180900000000018200000000001815000000000182005797000000000004778500000000008644441800000000000000009999123100000010000000000000BRGGPSACNOR9103
012024080802GMAT3       010GRUPO MATEUSON      NM   R$  000000000074500000000007800000000000743000000000076500000000007700000000000770000000000077407225000000000004573300000000003501473900000000000000009999123100000010000000000000BRGMATACNOR7102
012024080802GOAU3       010GERDAU MET  ON      N1   R$  000000000102700000000010270000000001014000000000102100000000010220000000001022000000000102500140000000000000019700000000000020115600000000000000009999123100000010000000000000BRGOAUACNOR1267
012024080802ITUB4       010ITAUUNIBANCOPN  EJ  N1   R$  000000000338500000000034140000000003354000000000338200000000033650000000003365000000000336829579000000000019625300000000066378570300000000000000009999123100000010000000000000BRITUBACNPR1339
012024080802MGEL4       010MANGELS INDLPN           R$  000000000126000000000012600000000001260000000000126000000000012600000000001250000000000131100001000000000000006700000000000008442000000000000000009999123100000010000000000000BRMGELACNPR3147
012024080802MGLU3       010MAGAZ LUIZA ON      NM   R$  000000000122100000000012700000000001221000000000124600000000012540000000001254000000000125524747000000000020933300000000026091749800000000000000009999123100000010000000000000BRMGLUACNOR2124
012024080802ATOM3       010ATOMPAR     ON           R$  000000000019600000000001970000000000195000000000019500000000001950000000000195000000000019700014000000000000003400000000000000663700000000000000009999123100000010000000000000BRATOMACNOR1106
012024080802AURE3       010AUREN       ON      NM   R$  000000000114900000000011540000000001141000000000114500000000011450000000001143000000000114506230000000000002874200000000003292439800000000000000009999123100000010000000000000BRAUREACNOR9104
012024080802CXSE3       010CAIXA SEGURION  ED  NM   R$  000000000140100000000014070000000001383000000000139500000000013900000000001390000000000139809368000000000003084200000000004302865500000000000000009999123100000010000000000000BRCXSEACNOR7107
012024080802CYRE3       010CYRELA REALTON      NM   R$  000000000202200000000020760000000002022000000000205400000000020650000000002063000000000206517915000000000005840400000000011997067900000000000000009999123100000010000000000000BRCYREACNOR7140
012024080802ESPA3       010ESPACOLASER ON      NM   R$  000000000009700000000001060000000000097000000000010100000000001060000000000105000000000010600365000000000001173300000000000119366100000000000000009999123100000010000000000000BRESPAACNOR7103
012024080802EUCA4       010EUCATEX     PN      N1   R$  000000000146300000000015180000000001463000000000149900000000015180000000001501000000000152000147000000000000033300000000000049928400000000000000009999123100000010000000000000BREUCAACNPR8044
012024080802PCAR3       010P.ACUCAR-CBDON      NM   R$  000000000030700000000003190000000000298000000000030900000000003150000000000314000000000031511184000000000013998900000000004336565800000000000000009999123100000010000000000000BRPCARACNOR3167
012024080802PETZ3       010PETZ        ON      NM   R$  000000000037200000000003970000000000368000000000038300000000003970000000000395000000000039707110000000000009388000000000003598566400000000000000009999123100000010000000000000BRPETZACNOR2110
012024080802SYNE3       010SYN PROP TECON      NM   R$  000000000102200000000010400000000001017000000000102900000000010350000000001029000000000103500422000000000000185500000000000191051400000000000000009999123100000010000000000000BRSYNEACNOR2102
012024080802EVEN3       010EVEN        ON      NM   R$  000000000062000000000006370000000000619000000000062800000000006280000000000627000000000062802214000000000000419400000000000263674300000000000000009999123100000010000000000000BREVENACNOR8119
012024080802EZTC3       010EZTEC       ON      NM   R$  000000000137200000000013850000000001355000000000136800000000013690000000001368000000000136904437000000000001151500000000001575398400000000000000009999123100000010000000000000BREZTCACNOR0125
012024080802TAEE11      010TAESA       UNT     N2   R$  000000000350500000000035340000000003505000000000351600000000035170000000003512000000000351704047000000000000785100000000002760997500000000000000009999123100000010000000000000BRTAEECDAM10147
012024080802TAEE3       010TAESA       ON      N2   R$  000000000116300000000011680000000001158000000000116200000000011600000000001160000000000116300265000000000000045100000000000052417300000000000000009999123100000010000000000000BRTAEEACNOR9147
012024080802TAEE4       010TAESA       PN      N2   R$  000000000117500000000011820000000001170000000000117500000000011720000000001172000000000117500405000000000000093300000000000109676900000000000000009999123100000010000000000000BRTAEEACNPR6147
012024080802VAMO3       010VAMOS       ON      NM   R$  000000000083600000000008500000000000819000000000083400000000008320000000000832000000000083315943000000000007650900000000006381473400000000000000009999123100000010000000000000BRVAMOACNOR7105
012024080802VBBR3       010VIBRA       ON      NM   R$  000000000241000000000024390000000002390000000000241400000000024110000000002397000000000241223459000000000007078500000000017092696100000000000000009999123100000010000000000000BRVBBRACNOR1108
012024080802ROMI3       010ROMI        ON      NM   R$  000000000105700000000010640000000001051000000000105500000000010520000000001052000000000105600730000000000000124200000000000131052600000000000000009999123100000010000000000000BRROMIACNOR8195
012024080802RRRP3       0103R PETROLEUMON      NM   R$  000000000273300000000027880000000002714000000000275400000000027880000000002781000000000278812377000000000004461700000000012291726800000000000000009999123100000010000000000000BRRRRPACNOR5103
012024080802TASA3       010TAURUS ARMASON      N2   R$  000000000113300000000011630000000001133000000000114500000000011550000000001137000000000115500110000000000000020200000000000023144100000000000000009999123100000010000000000000BRTASAACNOR7104
012024080802TASA4       010TAURUS ARMASPN      N2   R$  000000000111800000000011540000000001118000000000113500000000011350000000001133000000000113500825000000000000151300000000000171791500000000000000009999123100000010000000000000BRTASAACNPR4104
012024080802TCSA3       010TECNISA     ON      NM   R$  000000000021100000000002180000000000208000000000021200000000002180000000000213000000000021800138000000000000050500000000000010744700000000000000009999123100000010000000000000BRTCSAACNOR3112
012024080802TECN3       010TECHNOS     ON      NM   R$  000000000051500000000005440000000000515000000000052900000000005310000000000528000000000053100257000000000000101300000000000053611000000000000000009999123100000010000000000000BRTECNACNOR6109
012024080802TELB3       010TELEBRAS    ON           R$  000000000140000000000014880000000001400000000000144200000000014200000000001390000000000142500028000000000000003700000000000005335900000000000000009999123100000010000000000000BRTELBACNOR2140
012024080802TELB4       010TELEBRAS    PN           R$  000000000103100000000010560000000001000000000000101700000000010000000000001000000000000101900041000000000000008300000000000008445700000000000000009999123100000010000000000000BRTELBACNPR9140
012024080802TEND3       010TENDA       ON      NM   R$  000000000133800000000013630000000001253000000000129500000000012840000000001284000000000129409931000000000004024200000000005213691000000000000000009999123100000010000000000000BRTENDACNOR4111
012024080802TFCO4       010TRACK FIELD PN      N2   R$  000000000115000000000011670000000001150000000000115900000000011650000000001149000000000116500250000000000000053100000000000061551600000000000000009999123100000010000000000000BRTFCOACNPR8114
012024080802TGMA3       010TEGMA       ON      NM   R$  000000000263900000000026500000000002603000000000262500000000026030000000002602000000000261301132000000000000230300000000000604592400000000000000009999123100000010000000000000BRTGMAACNOR7144
012024080802TIMS3       010TIM         ON      NM   R$  000000000173700000000017400000000001706000000000172800000000017310000000001730000000000173510725000000000005314100000000009183013500000000000000009999123100000010000000000000BRTIMSACNOR5117
012024080802LUPA3       010LUPATECH    ON      NM   R$  000000000016900000000001700000000000165000000000016700000000001650000000000165000000000016800084000000000000060900000000000010200100000000000000009999123100000010000000000000BRLUPAACNOR8112
012024080802LUXM4       010TREVISA     PN           R$  000000000140000000000014000000000001400000000000140000000000014000000000001319000000000140000002000000000000001000000000000001400000000000000000009999123100000010000000000000BRLUXMACNPR4052
012024080802LVTC3       010WDC NETWORKSON      NM   R$  000000000036400000000003700000000000359000000000036200000000003680000000000368000000000037000039000000000000016800000000000006092000000000000000009999123100000010000000000000BRLVTCACNOR4102
012024080802LWSA3       010LWSA        ON      NM   R$  000000000046200000000004680000000000455000000000045900000000004620000000000462000000000046306836000000000003252600000000001495312600000000000000009999123100000010000000000000BRLWSAACNOR8103
012024080802ALPA3       010ALPARGATAS  ON      N1   R$  000000000082000000000008300000000000806000000000081600000000008060000000000805000000000082500010000000000000001800000000000001469600000000000000009999123100000010000000000000BRALPAACNOR0231
012024080802ALPA4       010ALPARGATAS  PN      N1   R$  000000000085300000000008820000000000850000000000087200000000008730000000000873000000000087706765000000000002072500000000001808537900000000000000009999123100000010000000000000BRALPAACNPR7232
012024080802ALPK3       010ESTAPAR     ON      NM   R$  000000000037000000000004040000000000364000000000039000000000003930000000000386000000000039300820000000000000219400000000000085718800000000000000009999123100000010000000000000BRALPKACNOR9101
012024080802ALUP11      010ALUPAR      UNT     N2   R$  000000000314800000000031770000000003140000000000316500000000031750000000003155000000000317704475000000000000873500000000002764861000000000000000009999123100000010000000000000BRALUPCDAM15119
012024080802ALUP3       010ALUPAR      ON      N2   R$  000000000109000000000010910000000001066000000000108000000000010730000000001073000000000107900038000000000000004100000000000004430200000000000000009999123100000010000000000000BRALUPACNOR8119
012024080802ALUP4       010ALUPAR      PN      N2   R$  000000000104300000000010460000000001031000000000104100000000010320000000001031000000000104100048000000000000015600000000000016240900000000000000009999123100000010000000000000BRALUPACNPR5119
012024080802AMAR3       010LOJAS MARISAON      NM   R$  000000000014000000000001430000000000136000000000013900000000001380000000000136000000000013800572000000000000646000000000000089846100000000000000009999123100000010000000000000BRAMARACNOR4115
012024080802AMBP3       010AMBIPAR     ON      NM   R$  000000000749000000000086860000000005961000000000710000000000082320000000008231000000000825813455000000000004005000000000028436961000000000000000009999123100000010000000000000BRAMBPACNOR6103
012024080802BIOM3       010BIOMM       ON      MA   R$  000000000088100000000009140000000000873000000000090100000000009100000000000891000000000091000357000000000000075400000000000067991900000000000000009999123100000010000000000000BRBIOMACNOR2112
012024080802BRBI11      010BR PARTNERS UNT     N2   R$  000000000143500000000014790000000001424000000000145000000000014550000000001455000000000146801849000000000000275600000000000399856300000000000000009999123100000010000000000000BRBRBICDAM10109
012024080802BRFS3       010BRF SA      ON      NM   R$  000000000209900000000021700000000002082000000000214700000000021540000000002154000000000215613613000000000003955400000000008493659200000000000000009999123100000010000000000000BRBRFSACNOR8122
012024080802CSED3       010CRUZEIRO EDUON      NM   R$  000000000040700000000004240000000000406000000000041700000000004200000000000418000000000042100861000000000000485200000000000202511900000000000000009999123100000010000000000000BRCSEDACNOR9104
012024080802CSMG3       010COPASA      ON      NM   R$  000000000217000000000022000000000002152000000000216800000000021670000000002166000000000216702215000000000000562300000000001219147000000000000000009999123100000010000000000000BRCSMGACNOR5174
012024080802CSNA3       010SID NACIONALON           R$  000000000112600000000011440000000001120000000000113600000000011400000000001140000000000114109568000000000004691600000000005333960900000000000000009999123100000010000000000000BRCSNAACNOR6261
012024080802KRSA3       010KORA SAUDE  ON      NM   R$  000000000007600000000000780000000000075000000000007500000000000770000000000075000000000007700116000000000000250100000000000018880600000000000000009999123100000010000000000000BRKRSAACNOR0100
012024080802LAND3       010TERRASANTAPAON      NM   R$  000000000135200000000013790000000001310000000000133600000000013200000000001316000000000133600145000000000000030300000000000040500900000000000000009999123100000010000000000000BRLANDACNOR9103
012024080802LAVV3       010LAVVI       ON      NM   R$  000000000087000000000008790000000000839000000000085200000000008500000000000850000000000085103818000000000001344400000000001145632300000000000000009999123100000010000000000000BRLAVVACNOR4112
012024080802LEVE3       010METAL LEVE  ON      NM   R$  000000000331500000000033420000000003287000000000331500000000033380000000003338000000000333901498000000000000293400000000000972642100000000000000009999123100000010000000000000BRLEVEACNOR2197
012024080802LJQQ3       010QUERO-QUERO ON      NM   R$  000000000040000000000004280000000000400000000000041300000000004230000000000421000000000042304751000000000002184100000000000904160600000000000000009999123100000010000000000000BRLJQQACNOR5104
012024080802LOGG3       010LOG COM PROPON      NM   R$  000000000224500000000023000000000002245000000000228000000000023000000000002291000000000230202740000000000000400600000000000913457500000000000000009999123100000010000000000000BRLOGGACNOR7107
012024080802LOGN3       010LOG-IN      ON      NM   R$  000000000386200000000038620000000003672000000000370700000000036750000000003675000000000370000096000000000000015500000000000057472200000000000000009999123100000010000000000000BRLOGNACNOR3105
012024080802LPSB3       010LOPES BRASILON      NM   R$  000000000017200000000001770000000000172000000000017500000000001740000000000174000000000017600130000000000000039300000000000006895200000000000000009999123100000010000000000000BRLPSBACNOR0114
012024080802LREN3       010LOJAS RENNERON      NM   R$  000000000146100000000014910000000001431000000000145700000000014500000000001450000000000145237408000000000021640500000000031541769000000000000000009999123100000010000000000000BRLRENACNOR1221
012024080802MRVE3       010MRV         ON      NM   R$  000000000067400000000007040000000000673000000000069200000000006870000000000686000000000068709550000000000011302800000000007831474200000000000000009999123100000010000000000000BRMRVEACNOR2127
012024080802MTRE3       010MITRE REALTYON      NM   R$  000000000039300000000004180000000000390000000000040500000000004180000000000416000000000041801290000000000001534700000000000623005100000000000000009999123100000010000000000000BRMTREACNOR6113
012024080802AERI3       010AERIS       ON      NM   R$  000000000060700000000006480000000000600000000000062700000000006430000000000642000000000064300453000000000000200800000000000126088000000000000000009999123100000010000000000000BRAERIACNOR4102
012024080802AESB3       010AES BRASIL  ON      NM   R$  000000000112600000000011340000000001122000000000113100000000011340000000001133000000000113403283000000000002464500000000002788885600000000000000009999123100000010000000000000BRAESBACNOR7106
012024080802AFLT3       010AFLUENTE T  ON           R$  000000000072500000000007250000000000715000000000071900000000007150000000000702000000000072000004000000000000000600000000000000431700000000000000009999123100000010000000000000BRAFLTACNOR1122
012024080802AGRO3       010BRASILAGRO  ON      NM   R$  000000000256500000000025950000000002563000000000257900000000025800000000002577000000000258000900000000000000113200000000000291969800000000000000009999123100000010000000000000BRAGROACNOR7114
012024080802AGXY3       010AGROGALAXY  ON      NM   R$  000000000014600000000001500000000000144000000000014500000000001450000000000145000000000014600245000000000000133500000000000019409300000000000000009999123100000010000000000000BRAGXYACNOR4103
012024080802AALR3       010ALLIAR      ON      NM   R$  000000000102600000000010500000000000965000000000099200000000009940000000000975000000000099400262000000000000065500000000000064976700000000000000009999123100000010000000000000BRAALRACNOR6102
012024080802ABCB4       010ABC BRASIL  PN      N2   R$  000000000218400000000022260000000002183000000000221000000000022180000000002216000000000221803035000000000000561300000000001240613300000000000000009999123100000010000000000000BRABCBACNPR4146
012024080802ABEV3       010AMBEV S/A   ON           R$  000000000124600000000012560000000001231000000000124100000000012360000000001236000000000123738224000000000028173200000000034971591700000000000000009999123100000010000000000000BRABEVACNOR1128
012024080802BPAC11      010BTGP BANCO  UNT     N2   R$  000000000335400000000034480000000003334000000000342000000000034400000000003440000000000344125846000000000007491700000000025628253600000000000000009999123100000010000000000000BRBPACUNT006119
012024080802BPAC3       010BTGP BANCO  ON      N2   R$  000000000159400000000016650000000001588000000000162700000000016650000000001540000000000166600053000000000000006000000000000009765200000000000000009999123100000010000000000000BRBPACACNOR7134
012024080802BPAC5       010BTGP BANCO  PNA     N2   R$  000000000087000000000008860000000000860000000000088000000000008840000000000872000000000088500030000000000000004900000000000004314500000000000000009999123100000010000000000000BRBPACACNPA0134
012024080802CPFE3       010CPFL ENERGIAON      NM   R$  000000000328700000000033290000000003283000000000329400000000032910000000003291000000000329804435000000000001002500000000003303004900000000000000009999123100000010000000000000BRCPFEACNOR0137
012024080802CPLE3       010COPEL       ON      N2   R$  000000000092000000000009200000000000902000000000091200000000009150000000000911000000000091605160000000000003572600000000003261232300000000000000009999123100000010000000000000BRCPLEACNOR8149
012024080802CPLE5       010COPEL       PNA     N2   R$  000000000140000000000014000000000001400000000000140000000000014000000000001300000000000144000001000000000000000100000000000000140000000000000000009999123100000010000000000000BRCPLEACNPA1147
012024080802CPLE6       010COPEL       PNB     N2   R$  000000000101200000000010200000000000996000000000101000000000010080000000001008000000000100914063000000000010564900000000010672224500000000000000009999123100000010000000000000BRCPLEACNPB9146
012024080802ELMD3       010ELETROMIDIA ON      NM   R$  000000000190000000000019500000000001873000000000190600000000018730000000001873000000000188900631000000000000129400000000000246665100000000000000009999123100000010000000000000BRELMDACNOR3101
012024080802EMAE4       010EMAE        PN           R$  000000000419900000000041990000000004101000000000411300000000041010000000004077000000000419400004000000000000000800000000000003290900000000000000009999123100000010000000000000BREMAEACNPR1125
012024080802EMBR3       010EMBRAER     ON      NM   R$  000000000398900000000042220000000003900000000000408600000000041940000000004194000000000419552012000000000016767800000000068522668300000000000000009999123100000010000000000000BREMBRACNOR4191
012024080802HAGA3       010HAGA S/A    ON           R$  000000000025600000000002630000000000245000000000025400000000002460000000000246000000000025100096000000000000025400000000000006451600000000000000009999123100000010000000000000BRHAGAACNOR7103
012024080802HAGA4       010HAGA S/A    PN           R$  000000000011700000000001270000000000117000000000012200000000001200000000000120000000000012400041000000000000012700000000000001554200000000000000009999123100000010000000000000BRHAGAACNPR4103
012024080802HAPV3       010HAPVIDA     ON      NM   R$  000000000044200000000004510000000000439000000000044500000000004500000000000449000000000045032856000000000086048300000000038365667700000000000000009999123100000010000000000000BRHAPVACNOR4114
012024080802JBSS3       010JBS         ON      NM   R$  000000000318800000000033040000000003187000000000326200000000032740000000003274000000000327518170000000000005174600000000016882285500000000000000009999123100000010000000000000BRJBSSACNOR8121
012024080802BAHI3       010BAHEMA      ON      MA   R$  000000000063100000000006310000000000600000000000060800000000006000000000000600000000000061900039000000000000014200000000000008637300000000000000009999123100000010000000000000BRBAHIACNOR1074
012024080802BALM4       010BAUMER      PN           R$  000000000098600000000009860000000000985000000000098500000000009850000000000985000000000104900002000000000000000500000000000000492600000000000000009999123100000010000000000000BRBALMACNPR2056
012024080802BAUH4       010EXCELSIOR   PN           R$  000000000750200000000079490000000007502000000000777000000000079490000000007501000000000795000005000000000000000500000000000003885100000000000000009999123100000010000000000000BRBAUHACNPR3118
012024080802BAZA3       010AMAZONIA    ON           R$  000000000932500000000093250000000009325000000000932500000000093250000000009300000000000994900002000000000000000300000000000002797500000000000000009999123100000010000000000000BRBAZAACNOR0179
012024080802BBAS3       010BRASIL      ON      NM   R$  000000000261600000000026370000000002539000000000260400000000026190000000002619000000000262078635000000000033846000000000088147695200000000000000009999123100000010000000000000BRBBASACNOR3324
012024080802BEEF3       010MINERVA     ON      NM   R$  000000000069700000000007300000000000685000000000071600000000007290000000000728000000000072914658000000000018268700000000013096181000000000000000009999123100000010000000000000BRBEEFACNOR6116
012024080802COCE5       010COELCE      PNA          R$  000000000311100000000031900000000003111000000000314900000000031450000000003145000000000325000024000000000000003000000000000009449600000000000000009999123100000010000000000000BRCOCEACNPA3147
012024080802COGN3       010COGNA ON    ON      NM   R$  000000000015700000000001620000000000151000000000015500000000001530000000000153000000000015412236000000000057050400000000008851370700000000000000009999123100000010000000000000BRCOGNACNOR2104
012024080802EKTR4       010ELEKTRO     PN           R$  000000000415400000000042160000000004152000000000415800000000042160000000004115000000000421500011000000000000001300000000000005405800000000000000009999123100000010000000000000BREKTRACNPR7164
012024080802ELET3       010ELETROBRAS  ON      N1   R$  000000000379000000000039200000000003787000000000386900000000038620000000003862000000000386320220000000000006600900000000025540020900000000000000009999123100000010000000000000BRELETACNOR6160
012024080802ELET6       010ELETROBRAS  PNB     N1   R$  000000000421600000000043430000000004216000000000429200000000042660000000004265000000000426606475000000000001355200000000005817131100000000000000009999123100000010000000000000BRELETACNPB7077
012024080802GOAU4       010GERDAU MET  PN      N1   R$  000000000100100000000010080000000000997000000000100300000000010070000000001007000000000100805863000000000003927200000000003942636500000000000000009999123100000010000000000000BRGOAUACNPR8268
012024080802GRND3       010GRENDENE    ON      NM   R$  000000000060500000000006150000000000601000000000060900000000006110000000000611000000000061203068000000000001274900000000000777024000000000000000009999123100000010000000000000BRGRNDACNOR3174
012024080802TOTS3       010TOTVS       ON  EJ  NM   R$  000000000276100000000028740000000002741000000000282500000000028550000000002855000000000285821571000000000004802000000000013566072800000000000000009999123100000010000000000000BRTOTSACNOR8145
012024080802TPIS3       010TRIUNFO PARTON      NM   R$  000000000037600000000003900000000000370000000000037900000000003720000000000372000000000038400121000000000000084600000000000032066800000000000000009999123100000010000000000000BRTPISACNOR8118
012024080802TRAD3       010TC          ON      NM   R$  000000000035500000000003630000000000353000000000035800000000003600000000000355000000000036000048000000000000021600000000000007737200000000000000009999123100000010000000000000BRTRADACNOR3102
012024080802NEOE3       010NEOENERGIA  ON      NM   R$  000000000183900000000018560000000001830000000000184300000000018450000000001845000000000184603211000000000000783900000000001444997200000000000000009999123100000010000000000000BRNEOEACNOR3123
012024080802ALLD3       010ALLIED      ON      NM   R$  000000000080400000000008250000000000803000000000081600000000008250000000000820000000000082500157000000000000043900000000000035841100000000000000009999123100000010000000000000BRALLDACNOR3106
012024080802ALOS3       010ALLOS       ON      NM   R$  000000000226100000000022800000000002247000000000226000000000022630000000002261000000000226307476000000000002202100000000004978313200000000000000009999123100000010000000000000BRALOSACNOR5101
012024080802BEES3       010BANESTES    ON  EJ       R$  000000000089900000000009000000000000893000000000089500000000008970000000000894000000000089800051000000000000008800000000000007877200000000000000009999123100000010000000000000BRBEESACNOR9394
012024080802BEES4       010BANESTES    PN  EJ       R$  000000000097300000000009730000000000951000000000096500000000009510000000000950000000000096700029000000000000004500000000000004345800000000000000009999123100000010000000000000BRBEESACNPR6319
012024080802BGIP4       010BANESE      PN           R$  000000000235000000000023500000000002340000000000234600000000023400000000002310000000000234800005000000000000000500000000000001173000000000000000009999123100000010000000000000BRBGIPACNPR8208
012024080802BHIA3       010CASAS BAHIA ON      NM   R$  000000000046600000000005400000000000455000000000050800000000005310000000000531000000000053213224000000000019187200000000009748368500000000000000009999123100000010000000000000BRBHIAACNOR1102
012024080802BPAN4       010BANCO PAN   PN      N1   R$  000000000089700000000008970000000000880000000000088600000000008880000000000883000000000088902111000000000000798900000000000708566400000000000000009999123100000010000000000000BRBPANACNPR1115
012024080802BRAP3       010BRADESPAR   ON      N1   R$  000000000173100000000017550000000001724000000000173700000000017330000000001732000000000173300179000000000000024500000000000042565800000000000000009999123100000010000000000000BRBRAPACNOR5148
012024080802BRAP4       010BRADESPAR   PN      N1   R$  000000000179400000000018130000000001794000000000180400000000018020000000001802000000000180304243000000000002088400000000003769535600000000000000009999123100000010000000000000BRBRAPACNPR2148
012024080802CRFB3       010CARREFOUR BRON      NM   R$  000000000098000000000009910000000000969000000000097600000000009770000000000977000000000097808489000000000005365100000000005239934700000000000000009999123100000010000000000000BRCRFBACNOR2116
012024080802CRPG5       010CRISTAL     PNA          R$  000000000291200000000029120000000002899000000000290000000000029000000000002900000000000294000009000000000000004200000000000012182200000000000000009999123100000010000000000000BRCRPGACNPA3119
012024080802CRPG6       010CRISTAL     PNB          R$  000000000288800000000029000000000002888000000000289700000000029000000000002851000000000290000006000000000000001000000000000002897300000000000000009999123100000010000000000000BRCRPGACNPB1119
012024080802CSAN3       010COSAN       ON      NM   R$  000000000131900000000013340000000001310000000000132400000000013300000000001330000000000133110725000000000006242900000000008267485800000000000000009999123100000010000000000000BRCSANACNOR6126
012024080802ENEV3       010ENEVA       ON      NM   R$  000000000128200000000013060000000001276000000000129800000000013050000000001303000000000130510483000000000003802800000000004937090700000000000000009999123100000010000000000000BRENEVACNOR8106
012024080802HBOR3       010HELBOR      ON      NM   R$  000000000022500000000002310000000000225000000000022800000000002280000000000228000000000022900303000000000000264800000000000060448000000000000000009999123100000010000000000000BRHBORACNOR3118
012024080802HBRE3       010HBR REALTY  ON      NM   R$  000000000052900000000005460000000000528000000000053400000000005320000000000529000000000053200859000000000000290400000000000155134100000000000000009999123100000010000000000000BRHBREACNOR4100
012024080802HBSA3       010HIDROVIAS   ON      NM   R$  000000000037900000000003790000000000368000000000037300000000003740000000000372000000000037403557000000000001799500000000000671426400000000000000009999123100000010000000000000BRHBSAACNOR0100
012024080802HBTS5       010HABITASUL   PNA          R$  000000000400000000000040000000000004000000000000400000000000040000000000003911000000000435000001000000000000000100000000000000400000000000000000009999123100000010000000000000BRHBTSACNPA3128
012024080802HETA4       010HERCULES    PN           R$  000000000052000000000005210000000000520000000000052000000000005210000000000501000000000062400002000000000000000200000000000000104100000000000000009999123100000010000000000000BRHETAACNPR9136
012024080802HYPE3       010HYPERA      ON      NM   R$  000000000296900000000029930000000002956000000000297100000000029650000000002964000000000298011133000000000002671500000000007937497300000000000000009999123100000010000000000000BRHYPEACNOR0143
012024080802JHSF3       010JHSF PART   ON  ED  NM   R$  000000000040600000000004100000000000405000000000040700000000004080000000000408000000000040902118000000000003538600000000001441632000000000000000009999123100000010000000000000BRJHSFACNOR2138
012024080802JSLG3       010JSL         ON      NM   R$  000000000090000000000009000000000000824000000000086900000000008850000000000878000000000088502966000000000000985800000000000857065800000000000000009999123100000010000000000000BRJSLGACNOR2121
012024080802KEPL3       010KEPLER WEBERON      NM   R$  000000000108400000000011190000000001076000000000110100000000011180000000001117000000000111804518000000000002208300000000002431623500000000000000009999123100000010000000000000BRKEPLACNOR1063
012024080802KLBN11      010KLABIN S/A  UNT ED  N2   R$  000000000206300000000020910000000002042000000000207400000000020740000000002074000000000207510335000000000002947700000000006114982600000000000000009999123100000010000000000000BRKLBNCDAM18143
012024080802KLBN3       010KLABIN S/A  ON  ED  N2   R$  000000000041400000000004200000000000411000000000041700000000004170000000000417000000000042000895000000000000291700000000000121640000000000000000009999123100000010000000000000BRKLBNACNOR2171
012024080802KLBN4       010KLABIN S/A  PN  ED  N2   R$  000000000041500000000004180000000000409000000000041400000000004150000000000415000000000041602435000000000001404000000000000581777900000000000000009999123100000010000000000000BRKLBNACNPR9171
012024080802VITT3       010VITTIA      ON      NM   R$  000000000058600000000006080000000000586000000000060100000000006020000000000599000000000060200918000000000000231900000000000139599500000000000000009999123100000010000000000000BRVITTACNOR4107
012024080802VIVA3       010VIVARA S.A. ON      NM   R$  000000000246000000000024900000000002425000000000244800000000024650000000002464000000000246713937000000000003623800000000008873803100000000000000009999123100000010000000000000BRVIVAACNOR0107
012024080802VIVR3       010VIVER       ON      NM   R$  000000000024500000000002590000000000245000000000025200000000002530000000000253000000000025700252000000000000155600000000000039344700000000000000009999123100000010000000000000BRVIVRACNOR4123
012024080802VIVT3       010TELEF BRASILON           R$  000000000496900000000050800000000004960000000000504500000000050490000000005047000000000505007520000000000001545900000000007799715000000000000000009999123100000010000000000000BRVIVTACNOR0183
012024080802MAPT4       010CEMEPE      PN           R$  000000000055000000000005500000000000550000000000055000000000005500000000000550000000000060000001000000000000000100000000000000055000000000000000009999123100000010000000000000BRMAPTACNPR5106
012024080802MATD3       010MATER DEI   ON      NM   R$  000000000047500000000004820000000000463000000000047500000000004760000000000475000000000047701060000000000000443000000000000210837600000000000000009999123100000010000000000000BRMATDACNOR4104
012024080802MBLY3       010MOBLY       ON      NM   R$  000000000029300000000003220000000000291000000000030300000000003030000000000302000000000030400901000000000000589900000000000179127500000000000000009999123100000010000000000000BRMBLYACNOR5100
012024080802MDIA3       010M.DIASBRANCOON      NM   R$  000000000285600000000029590000000002841000000000291900000000029120000000002911000000000291203272000000000000765700000000002235344900000000000000009999123100000010000000000000BRMDIAACNOR7135
012024080802MDNE3       010MOURA DUBEUXON      NM   R$  000000000139300000000013960000000001366000000000138600000000013890000000001388000000000139001823000000000000400000000000000554769800000000000000009999123100000010000000000000BRMDNEACNOR9100
012024080802MEAL3       010IMC S/A     ON      NM   R$  000000000015000000000001540000000000148000000000015100000000001530000000000151000000000015300145000000000000205300000000000031100400000000000000009999123100000010000000000000BRMEALACNOR9105
012024080802MELK3       010MELNICK     ON      NM   R$  000000000036300000000003700000000000359000000000036200000000003610000000000360000000000036300364000000000000203000000000000073687100000000000000009999123100000010000000000000BRMELKACNOR8111
012024080802MERC4       010MERC FINANC PN           R$  000000000093100000000009310000000000931000000000093100000000009310000000000931000000000102000001000000000000000100000000000000093100000000000000009999123100000010000000000000BRMERCACNPR9180
012024080802ODPV3       010ODONTOPREV  ON      NM   R$  000000000117500000000011870000000001154000000000117100000000011730000000001164000000000117302947000000000000990600000000001160284900000000000000009999123100000010000000000000BRODPVACNOR4202
012024080802OFSA3       010OUROFINO S/AON      NM   R$  000000000198800000000021350000000001988000000000204800000000021060000000002022000000000213300012000000000000001900000000000003891600000000000000009999123100000010000000000000BROFSAACNOR7118
012024080802ONCO3       010ONCOCLINICASON      NM   R$  000000000068800000000007180000000000669000000000069500000000006800000000000678000000000068005670000000000006255400000000004348307000000000000000009999123100000010000000000000BRONCOACNOR6101
012024080802OPCT3       010OCEANPACT   ON      NM   R$  000000000064600000000006690000000000635000000000065900000000006650000000000665000000000066603344000000000000710500000000000468428600000000000000009999123100000010000000000000BROPCTACNOR0100
012024080802ORVR3       010ORIZON      ON      NM   R$  000000000427300000000044150000000004238000000000436300000000044050000000004402000000000440601473000000000000305800000000001334329400000000000000009999123100000010000000000000BRORVRACNOR0101
012024080802RECV3       010PETRORECSA  ON      NM   R$  000000000199600000000020670000000001992000000000203900000000020570000000002053000000000205804251000000000001092000000000002226770700000000000000009999123100000010000000000000BRRECVACNOR3107
012024080802REDE3       010REDE ENERGIAON           R$  000000000068800000000006880000000000684000000000068500000000006840000000000684000000000068700005000000000000000500000000000000342900000000000000009999123100000010000000000000BRREDEACNOR7128
012024080802RENT3       010LOCALIZA    ON      NM   R$  000000000486000000000049190000000004793000000000485900000000048470000000004846000000000488036289000000000011639400000000056561773100000000000000009999123100000010000000000000BRRENTACNOR4196
012024080802MTSA4       010METISA      PN           R$  000000000426000000000042810000000004248000000000426100000000042480000000004232000000000429900012000000000000001500000000000006391800000000000000009999123100000010000000000000BRMTSAACNPR9072
012024080802MULT3       010MULTIPLAN   ON      N2   R$  000000000256800000000025850000000002547000000000256100000000025640000000002560000000000256414199000000000003534200000000009052533300000000000000009999123100000010000000000000BRMULTACNOR5139
012024080802MYPK3       010IOCHP-MAXIONON      NM   R$  000000000114000000000011700000000001134000000000115700000000011680000000001166000000000116902552000000000000624100000000000722116900000000000000009999123100000010000000000000BRMYPKACNOR7155
012024080802VSTE3       010VESTE       ON      NM   R$  000000000137500000000014000000000001375000000000139100000000014000000000001370000000000139100003000000000000000300000000000000417400000000000000009999123100000010000000000000BRVSTEACNOR5103
012024080802VTRU3       010VITRUEDUCA  ON      NM   R$  000000000130900000000013150000000001256000000000127800000000012560000000001256000000000126500276000000000000050900000000000065065800000000000000009999123100000010000000000000BRVTRUACNOR3100
012024080802VULC3       010VULCABRAS   ON      NM   R$  000000000175000000000017790000000001729000000000175900000000017630000000001755000000000176305387000000000001057300000000001860402900000000000000009999123100000010000000000000BRVULCACNOR2159
012024080802VVEO3       010VIVEO       ON      NM   R$  000000000025900000000002720000000000254000000000026600000000002700000000000269000000000027004933000000000004185400000000001113542500000000000000009999123100000010000000000000BRVVEOACNOR0104
012024080802STBP3       010SANTOS BRP  ON      NM   R$  000000000139500000000014480000000001352000000000138600000000013960000000001396000000000139817343000000000006718500000000009314855900000000000000009999123100000010000000000000BRSTBPACNOR3130
012024080802SUZB3       010SUZANO S.A. ON      NM   R$  000000000519000000000054080000000005172000000000534600000000053600000000005360000000000536533149000000000007362100000000039362789300000000000000009999123100000010000000000000BRSUZBACNOR0130
012024080802RADL3       010RAIADROGASILON      NM   R$  000000000290700000000029450000000002874000000000289300000000028900000000002885000000000289118004000000000008378200000000024239180200000000000000009999123100000010000000000000BRRADLACNOR0157
012024080802RAIL3       010RUMO S.A.   ON      NM   R$  000000000234000000000023820000000002325000000000235900000000023820000000002381000000000238215562000000000007908900000000018661124700000000000000009999123100000010000000000000BRRAILACNOR9105
012024080802RAIZ4       010RAIZEN      PN  ED  N2   R$  000000000031400000000003200000000000313000000000031600000000003160000000000315000000000031618665000000000014939900000000004727607900000000000000009999123100000010000000000000BRRAIZACNPR6111
012024080802WEGE3       010WEG         ON  ED  NM   R$  000000000483000000000050150000000004825000000000495300000000049690000000004967000000000496924138000000000006144900000000030437279300000000000000009999123100000010000000000000BRWEGEACNOR0224
012024080802PDGR3       010PDG REALT   ON  ES  NM   R$  000000000001900000000000190000000000018000000000001800000000000190000000000018000000000001900282000000000001238000000000000023210200000000000000009999123100000010000000000000BRPDGRACNOR8119
012024080802PDTC3       010PADTEC      ON      NM   R$  000000000019200000000001920000000000186000000000018900000000001880000000000187000000000019000082000000000000043600000000000008253700000000000000009999123100000010000000000000BRPDTCACNOR3101
012024080802PETR3       010PETROBRAS   ON      N2   R$  000000000392500000000039700000000003890000000000394500000000039700000000003970000000000397113717000000000005094500000000020098795100000000000000009999123100000010000000000000BRPETRACNOR9205
012024080802PETR4       010PETROBRAS   PN      N2   R$  000000000363500000000036950000000003616000000000366400000000036850000000003684000000000368654306000000000029870300000000109446200400000000000000009999123100000010000000000000BRPETRACNPR6213
012024080802PFRM3       010PROFARMA    ON      NM   R$  000000000063300000000006330000000000586000000000060700000000006180000000000610000000000061801031000000000000364000000000000220954700000000000000009999123100000010000000000000BRPFRMACNOR1116
012024080802PGMN3       010PAGUE MENOS ON      NM   R$  000000000028500000000002950000000000282000000000028900000000002920000000000289000000000029203880000000000001248600000000000361954900000000000000009999123100000010000000000000BRPGMNACNOR8103
012024080802PINE3       010PINE        ON      N2   R$  000000000054400000000005870000000000544000000000058000000000005870000000000557000000000059800007000000000000002400000000000001393200000000000000009999123100000010000000000000BRPINEACNOR1150
012024080802PINE4       010PINE        PN      N2   R$  000000000042700000000004300000000000423000000000042600000000004300000000000428000000000043000165000000000000068800000000000029347000000000000000009999123100000010000000000000BRPINEACNPR8150
012024080802PLPL3       010PLANOEPLANO ON      NM   R$  000000000122500000000012400000000001211000000000122300000000012150000000001215000000000121903526000000000000811400000000000992780500000000000000009999123100000010000000000000BRPLPLACNOR5104
012024080802PNVL3       010DIMED       ON      NM   R$  000000000106000000000010630000000001047000000000105600000000010590000000001058000000000105901772000000000000283800000000000299971500000000000000009999123100000010000000000000BRPNVLACNOR9207
012024080802POMO3       010MARCOPOLO   ON      N2   R$  000000000056900000000005800000000000562000000000056900000000005630000000000563000000000056600441000000000000172400000000000098172400000000000000009999123100000010000000000000BRPOMOACNOR0098
012024080802POMO4       010MARCOPOLO   PN      N2   R$  000000000072800000000007500000000000720000000000073300000000007250000000000724000000000072613910000000000010784400000000007905675800000000000000009999123100000010000000000000BRPOMOACNPR7098
012024080802PORT3       010WILSON SONS ON      NM   R$  000000000160400000000016110000000001591000000000160200000000016080000000001601000000000160801136000000000000366800000000000587892400000000000000009999123100000010000000000000BRPORTACNOR8109
012024080802POSI3       010POSITIVO TECON      NM   R$  000000000069600000000007180000000000694000000000070500000000007000000000000700000000000070203439000000000001592600000000001123213900000000000000009999123100000010000000000000BRPOSIACNOR9116
012024080802ZAMP3       010ZAMP S.A.   ON           R$  000000000032500000000003390000000000325000000000033400000000003340000000000332000000000033402042000000000000592900000000000198272600000000000000009999123100000010000000000000BRZAMPACNOR5101
012024080802PRNR3       010PRINER      ON      NM   R$  000000000103200000000010350000000001006000000000102300000000010330000000001025000000000103401059000000000000304400000000000311406900000000000000009999123100000010000000000000BRPRNRACNOR4109
012024080802PSSA3       010PORTO SEGUROON      NM   R$  000000000305000000000030830000000003030000000000306800000000030820000000003082000000000308306084000000000001407700000000004319916400000000000000009999123100000010000000000000BRPSSAACNOR7155
012024080802PTBL3       010PORTOBELLO  ON      NM   R$  000000000044600000000004600000000000445000000000045200000000004500000000000449000000000045000549000000000000207100000000000093697800000000000000009999123100000010000000000000BRPTBLACNOR8132
012024080802PTNT3       010PETTENATI   ON           R$  000000000092300000000009230000000000910000000000091500000000009100000000000910000000000091400008000000000000000800000000000000732000000000000000009999123100000010000000000000BRPTNTACNOR6042
012024080802PTNT4       010PETTENATI   PN           R$  000000000062700000000006300000000000615000000000061800000000006200000000000620000000000062500029000000000000008800000000000005443100000000000000009999123100000010000000000000BRPTNTACNPR3047
012024080802NGRD3       010NEOGRID     ON      NM   R$  000000000011700000000001220000000000117000000000012000000000001210000000000119000000000012100731000000000000731000000000000087941500000000000000009999123100000010000000000000BRNGRDACNOR3104
012024080802NINJ3       010GETNINJAS   ON      NM   R$  000000000047100000000004790000000000461000000000047100000000004790000000000462000000000047900092000000000000059100000000000027871200000000000000009999123100000010000000000000BRNINJACNOR5101
012024080802NORD3       010NORDON MET  ON           R$  000000000090000000000009000000000000850000000000087200000000008500000000000602000000000087900010000000000000002100000000000001833200000000000000009999123100000010000000000000BRNORDACNOR7135
012024080802NTCO3       010GRUPO NATURAON      NM   R$  000000000157400000000016100000000001574000000000159200000000015950000000001595000000000159610398000000000003800400000000006053355000000000000000009999123100000010000000000000BRNTCOACNOR5106
012024080802RANI3       010IRANI       ON  ED  NM   R$  000000000080100000000008170000000000801000000000081100000000008100000000000810000000000081302377000000000000611400000000000495859700000000000000009999123100000010000000000000BRRANIACNOR5073
012024080802RAPT3       010RANDON PART ON      N1   R$  000000000087000000000009260000000000863000000000089900000000009260000000000926000000000092700215000000000000061700000000000055496300000000000000009999123100000010000000000000BRRAPTACNOR7163
012024080802RAPT4       010RANDON PART PN      N1   R$  000000000103000000000011270000000001030000000000109800000000011250000000001124000000000112508135000000000003485500000000003829770700000000000000009999123100000010000000000000BRRAPTACNPR4163
012024080802AZZA3       010AZZAS 2154  ON      NM   R$  000000000502500000000051590000000005022000000000511000000000051320000000005131000000000514104038000000000001663200000000008500459400000000000000009999123100000010000000000000BRAZZAACNOR9100
012024080802CCRO3       010CCR SA      ON      NM   R$  000000000130200000000013130000000001297000000000130500000000013090000000001309000000000131306681000000000003767800000000004920467700000000000000009999123100000010000000000000BRCCROACNOR2145
012024080802CEAB3       010CEA MODAS   ON      NM   R$  000000000096900000000009750000000000840000000000089100000000008650000000000862000000000086510638000000000008733800000000007781870200000000000000009999123100000010000000000000BRCEABACNOR1102
012024080802CEBR3       010CEB         ON           R$  000000000189000000000019000000000001870000000000188300000000018990000000001870000000000190000020000000000000002700000000000005084700000000000000009999123100000010000000000000BRCEBRACNOR5125
012024080802CEBR5       010CEB         PNA          R$  000000000167900000000016850000000001670000000000167400000000016850000000001657000000000168500008000000000000001300000000000002177400000000000000009999123100000010000000000000BRCEBRACNPA8124
012024080802CEBR6       010CEB         PNB          R$  000000000176900000000017760000000001743000000000175900000000017600000000001743000000000176200049000000000000005800000000000010204200000000000000009999123100000010000000000000BRCEBRACNPB6124
012024080802CEDO4       010CEDRO       PN      N1   R$  000000000210600000000021260000000002106000000000211700000000021060000000002110000000000217000004000000000000001500000000000003175600000000000000009999123100000010000000000000BRCEDOACNPR5128
012024080802CEEB3       010COELBA      ON           R$  000000000390600000000039060000000003900000000000390200000000039000000000003880000000000392300007000000000000000700000000000002731700000000000000009999123100000010000000000000BRCEEBACNOR3199
012024080802CGAS3       010COMGAS      ON           R$  000000001047000000000104700000000010470000000001047000000000104700000000010000000000001090000001000000000000000100000000000001047000000000000000009999123100000010000000000000BRCGASACNOR0163
012024080802CGAS5       010COMGAS      PNA          R$  000000001121600000000112500000000011216000000001122700000000112500000000011050000000001125000003000000000000000300000000000003368300000000000000009999123100000010000000000000BRCGASACNPA3160
012024080802CGRA3       010GRAZZIOTIN  ON           R$  000000000248000000000024990000000002480000000000248400000000024990000000002501000000000254400002000000000000000400000000000000993900000000000000009999123100000010000000000000BRCGRAACNOR2083
012024080802CGRA4       010GRAZZIOTIN  PN           R$  000000000250700000000025450000000002497000000000252200000000025450000000002525000000000254500045000000000000013800000000000034808000000000000000009999123100000010000000000000BRCGRAACNPR9083
012024080802CIEL3       010CIELO       ON      NM   R$  000000000057900000000005800000000000578000000000057800000000005790000000000578000000000057909595000000000027672600000000016017241800000000000000009999123100000010000000000000BRCIELACNOR3157
012024080802CLSA3       010CLEARSALE   ON      NM   R$  000000000077200000000007970000000000770000000000077800000000007710000000000771000000000077301961000000000000624300000000000486187200000000000000009999123100000010000000000000BRCLSAACNOR0100
012024080802CLSC4       010CELESC      PN      N2   R$  000000000753200000000075790000000007500000000000753500000000075790000000007491000000000758000011000000000000002000000000000015070700000000000000009999123100000010000000000000BRCLSCACNPR3131
012024080802SNSY3       010SANSUY      ON           R$  000000000122000000000012790000000001220000000000122300000000012790000000001226000000000127500006000000000000003500000000000004281800000000000000009999123100000010000000000000BRSNSYACNOR2113
012024080802SNSY5       010SANSUY      PNA          R$  000000000058300000000005830000000000561000000000056500000000005730000000000565000000000057300017000000000000003200000000000001809800000000000000009999123100000010000000000000BRSNSYACNPA5111
012024080802SOJA3       010BOA SAFRA   ON      NM   R$  000000000145100000000014620000000001429000000000144300000000014290000000001428000000000143501171000000000000246500000000000355756500000000000000009999123100000010000000000000BRSOJAACNOR9105
012024080802SRNA3       010SERENA      ON      NM   R$  000000000087100000000008930000000000870000000000088400000000008920000000000886000000000089303559000000000001076000000000000951932100000000000000009999123100000010000000000000BRSRNAACNOR4100
012024080802AVLL3       010ALPHAVILLE  ON      NM   R$  000000000039300000000003990000000000390000000000039800000000003990000000000338000000000039900017000000000000005900000000000002351700000000000000009999123100000010000000000000BRAVLLACNOR5103
012024080802AZEV3       010AZEVEDO     ON           R$  000000000014700000000001540000000000147000000000015000000000001530000000000151000000000015300339000000000000259200000000000039052900000000000000009999123100000010000000000000BRAZEVACNOR0121
012024080802AZEV4       010AZEVEDO     PN           R$  000000000014900000000001530000000000147000000000014900000000001490000000000149000000000015001105000000000001980400000000000296489600000000000000009999123100000010000000000000BRAZEVACNPR7121
012024080802AZUL4       010AZUL        PN      N2   R$  000000000077800000000007820000000000756000000000076700000000007660000000000765000000000076611097000000000015812500000000012140243800000000000000009999123100000010000000000000BRAZULACNPR4102
012024080802BRSR3       010BANRISUL    ON      N1   R$  000000000121200000000012120000000001175000000000119700000000012020000000001202000000000122200030000000000000006300000000000007543100000000000000009999123100000010000000000000BRBRSRACNOR3188
012024080802BRSR6       010BANRISUL    PNB     N1   R$  000000000114100000000011650000000001138000000000115300000000011500000000001147000000000115104379000000000001006000000000001159956600000000000000009999123100000010000000000000BRBRSRACNPB4191
012024080802BSLI4       010BRB BANCO   PN           R$  000000000100000000000010000000000000955000000000096700000000009550000000000956000000000103200008000000000000002800000000000002710300000000000000009999123100000010000000000000BRBSLIACNPR2194
012024080802CAMB3       010CAMBUCI     ON           R$  000000000119000000000011930000000001180000000000118700000000011900000000001188000000000119200060000000000000018500000000000021960600000000000000009999123100000010000000000000BRCAMBACNOR4130
012024080802CAML3       010CAMIL       ON      NM   R$  000000000091500000000009620000000000915000000000094700000000009520000000000951000000000095202835000000000000786800000000000745268600000000000000009999123100000010000000000000BRCAMLACNOR3128
012024080802CASH3       010MELIUZ      ON      NM   R$  000000000055800000000005670000000000557000000000056200000000005650000000000563000000000056601628000000000000542700000000000305144000000000000000009999123100000010000000000000BRCASHACNOR8106
012024080802CBAV3       010CBA         ON      NM   R$  000000000047700000000004820000000000461000000000046800000000004700000000000470000000000047108410000000000004938400000000002315370600000000000000009999123100000010000000000000BRCBAVACNOR5104
012024080802DEXP3       010DEXXOS PAR  ON      N1   R$  000000000104000000000010860000000001032000000000106700000000010700000000001070000000000107900298000000000000134100000000000143202200000000000000009999123100000010000000000000BRDEXPACNOR1105
012024080802DEXP4       010DEXXOS PAR  PN      N1   R$  000000000102500000000010750000000001025000000000103500000000010600000000001060000000000106400219000000000000204500000000000211855700000000000000009999123100000010000000000000BRDEXPACNPR8105
012024080802DIRR3       010DIRECIONAL  ON      NM   R$  000000000282100000000028650000000002787000000000282400000000028230000000002810000000000282505025000000000001520600000000004294339600000000000000009999123100000010000000000000BRDIRRACNOR0118
012024080802DMVF3       010D1000VFARMA ON      NM   R$  000000000076000000000007700000000000715000000000073400000000007170000000000717000000000072501180000000000000202700000000000148804200000000000000009999123100000010000000000000BRDMVFACNOR9100
012024080802DOHL4       010DOHLER      PN           R$  000000000042000000000004200000000000420000000000042000000000004200000000000397000000000041900001000000000000000100000000000000042000000000000000009999123100000010000000000000BRDOHLACNPR9066
012024080802DOTZ3       010DOTZ SA     ON      NM   R$  000000000061100000000006550000000000611000000000062300000000006300000000000617000000000063000037000000000000007400000000000004616900000000000000009999123100000010000000000000BRDOTZACNOR7101
012024080802ITSA4       010ITAUSA      PN      N1   R$  000000000100600000000010160000000001005000000000101000000000010080000000001008000000000100920233000000000018626400000000018817246700000000000000009999123100000010000000000000BRITSAACNPR7441
012024080802ANIM3       010ANIMA       ON      NM   R$  000000000036300000000003680000000000349000000000035400000000003540000000000354000000000035506317000000000005760400000000002042207600000000000000009999123100000010000000000000BRANIMACNOR6108
012024080802APER3       010ALPER S.A.  ON           R$  000000000450400000000045050000000004504000000000450400000000045050000000004480000000000454800002000000000000001000000000000004504200000000000000009999123100000010000000000000BRAPERACNOR9106
012024080802ARML3       010ARMAC       ON      NM   R$  000000000087200000000008750000000000853000000000086400000000008700000000000870000000000087101504000000000000351000000000000303538900000000000000009999123100000010000000000000BRARMLACNOR1112
012024080802ASAI3       010ASSAI       ON      NM   R$  000000000103000000000010520000000001028000000000104300000000010450000000001044000000000104617216000000000007383500000000007706279000000000000000009999123100000010000000000000BRASAIACNOR0106
012024080802BBDC3       010BRADESCO    ON  EJ  N1   R$  000000000127200000000012870000000001263000000000127600000000012780000000001277000000000127911335000000000006223100000000007943252000000000000000009999123100000010000000000000BRBBDCACNOR1773
012024080802BBDC4       010BRADESCO    PN  EJ  N1   R$  000000000140800000000014390000000001406000000000142400000000014250000000001425000000000142753914000000000044280800000000063079693000000000000000009999123100000010000000000000BRBBDCACNPR8773
012024080802BLAU3       010BLAU        ON      NM   R$  000000000113100000000011790000000001114000000000114400000000011690000000001155000000000116901365000000000000313500000000000358664600000000000000009999123100000010000000000000BRBLAUACNOR8114
012024080802BMEB3       010MERCANTIL   ON  EJ  N1   R$  000000000350900000000035090000000003509000000000350900000000035090000000003340000000000358900004000000000000000700000000000002456300000000000000009999123100000010000000000000BRBMEBACNOR8206
012024080802BMEB4       010MERCANTIL   PN  EJ  N1   R$  000000000365100000000036690000000003536000000000359600000000035500000000003575000000000361000078000000000000015600000000000056112400000000000000009999123100000010000000000000BRBMEBACNPR5211
012024080802BMGB4       010BANCO BMG   PN      N1   R$  000000000034900000000003520000000000347000000000034900000000003500000000000350000000000035100776000000000000431100000000000150790200000000000000009999123100000010000000000000BRBMGBACNPR0110
012024080802BMKS3       010BIC MONARK  ON           R$  000000003250000000000325000000000032199000000003237400000000323990000000031500000000003200000005000000000000000012000000000000388495000000000000009999123100000010000000000000BRBMKSACNOR9166
012024080802BMOB3       010BEMOBI TECH ON      NM   R$  000000000149900000000015030000000001470000000000148100000000014720000000001472000000000148601011000000000000198700000000000294418800000000000000009999123100000010000000000000BRBMOBACNOR7103
012024080802BOBR4       010BOMBRIL     PN           R$  000000000019400000000002000000000000194000000000019600000000001950000000000195000000000019900030000000000000016200000000000003189800000000000000009999123100000010000000000000BRBOBRACNPR3128
012024080802BRIT3       010BRISANET    ON      NM   R$  000000000039500000000004000000000000384000000000039000000000003890000000000388000000000038900785000000000000428000000000000167017800000000000000009999123100000010000000000000BRBRITACNOR0103
012024080802BRKM3       010BRASKEM     ON      N1   R$  000000000168600000000018130000000001685000000000175400000000017370000000001701000000000176200106000000000000018300000000000032100600000000000000009999123100000010000000000000BRBRKMACNOR1119
012024080802BRKM5       010BRASKEM     PNA     N1   R$  000000000166200000000017750000000001640000000000172500000000017150000000001714000000000171512638000000000004998100000000008624060900000000000000009999123100000010000000000000BRBRKMACNPA4121
012024080802BRKM6       010BRASKEM     PNB     N1   R$  000000000135000000000013500000000001350000000000135000000000013500000000001301000000000140000002000000000000000400000000000000540000000000000000009999123100000010000000000000BRBRKMACNPB2114
012024080802CSRN3       010COSERN      ON           R$  000000000178800000000017880000000001649000000000167100000000016490000000001612000000000170900010000000000000001300000000000002173400000000000000009999123100000010000000000000BRCSRNACNOR0194
012024080802CSRN6       010COSERN      PNB          R$  000000000166100000000017290000000001661000000000167600000000016610000000001660000000000173000006000000000000000700000000000001173200000000000000009999123100000010000000000000BRCSRNACNPB1195
012024080802CSUD3       010CSU DIGITAL ON      NM   R$  000000000190000000000019200000000001852000000000189100000000018800000000001880000000000190400137000000000000046100000000000087184500000000000000009999123100000010000000000000BRCSUDACNOR5110
012024080802CURY3       010CURY S/A    ON      NM   R$  000000000229000000000023040000000002246000000000226800000000022460000000002245000000000225905814000000000001025300000000002325483700000000000000009999123100000010000000000000BRCURYACNOR3109
012024080802CVCB3       010CVC BRASIL  ON      NM   R$  000000000019400000000001960000000000180000000000018500000000001850000000000184000000000018505309000000000019243900000000003567488200000000000000009999123100000010000000000000BRCVCBACNOR1116
012024080802ENGI11      010ENERGISA    UNT     N2   R$  000000000452100000000045870000000004442000000000453700000000045850000000004566000000000459517966000000000003601700000000016341738200000000000000009999123100000010000000000000BRENGICDAM16135
012024080802ENGI3       010ENERGISA    ON      N2   R$  000000000139200000000013970000000001353000000000138200000000013870000000001387000000000139300057000000000000006000000000000008297300000000000000009999123100000010000000000000BRENGIACNOR0145
012024080802ENGI4       010ENERGISA    PN      N2   R$  000000000078200000000008000000000000774000000000078700000000008000000000000793000000000079800099000000000000020600000000000016213800000000000000009999123100000010000000000000BRENGIACNPR7141
012024080802ENJU3       010ENJOEI      ON      NM   R$  000000000018100000000001870000000000174000000000017800000000001760000000000176000000000017800677000000000000778400000000000138837200000000000000009999123100000010000000000000BRENJUACNOR9100
012024080802ENMT3       010ENERGISA MT ON           R$  000000000780100000000083700000000007801000000000818000000000083700000000000000000000000845000003000000000000000300000000000002454000000000000000009999123100000010000000000000BRENMTACNOR5121
012024080802ENMT4       010ENERGISA MT PN           R$  000000000785100000000078510000000007639000000000773600000000076390000000007450000000000764000012000000000000001300000000000010056800000000000000009999123100000010000000000000BRENMTACNPR2126
012024080802EPAR3       010EMBPAR S/A  ON           R$  000000000060000000000006000000000000587000000000059400000000005940000000000591000000000060000008000000000000001400000000000000832700000000000000009999123100000010000000000000BREPARACNOR9105
012024080802EQPA3       010EQTL PARA   ON           R$  000000000070800000000007090000000000696000000000070500000000007050000000000696000000000070900005000000000000000900000000000000634500000000000000009999123100000010000000000000BREQPAACNOR1111
012024080802EQPA5       010EQTL PARA   PNA          R$  000000000080000000000008000000000000800000000000080000000000008000000000000700000000000090000001000000000000004000000000000003200000000000000000009999123100000010000000000000BREQPAACNPA4111
012024080802EQTL3       010EQUATORIAL  ON      NM   R$  000000000332400000000033590000000003312000000000334000000000033440000000003339000000000334513234000000000003386400000000011311786700000000000000009999123100000010000000000000BREQTLACNOR0130
012024080802IFCM3       010INFRACOMM   ON      NM   R$  000000000004200000000000430000000000035000000000003800000000000350000000000035000000000003607458000000000032884600000000001267939300000000000000009999123100000010000000000000BRIFCMACNOR8101
012024080802IGTI11      010IGUATEMI S.AUNT     N1   R$  000000000216800000000022220000000002168000000000220500000000022220000000002214000000000222205734000000000001481400000000003267162400000000000000009999123100000010000000000000BRIGTICDAM16106
012024080802IGTI3       010IGUATEMI S.AON      N1   R$  000000000027000000000002770000000000270000000000027300000000002770000000000272000000000027700094000000000000037800000000000010320000000000000000009999123100000010000000000000BRIGTIACNOR8106
012024080802INEP3       010INEPAR      ON           R$  000000000019200000000001960000000000192000000000019300000000001930000000000192000000000019400025000000000000005800000000000001122500000000000000009999123100000010000000000000BRINEPACNOR1143
012024080802INEP4       010INEPAR      PN           R$  000000000019500000000001960000000000190000000000019300000000001910000000000190000000000019200026000000000000027300000000000005272500000000000000009999123100000010000000000000BRINEPACNPR8143
012024080802INTB3       010INTELBRAS   ON  ED  NM   R$  000000000208000000000022490000000002080000000000216100000000021600000000002160000000000216105469000000000001831800000000003959111000000000000000009999123100000010000000000000BRINTBACNOR9112
012024080802WHRL4       010WHIRLPOOL   PN           R$  000000000044800000000004480000000000439000000000044100000000004390000000000440000000000044700015000000000000002300000000000001014500000000000000009999123100000010000000000000BRWHRLACNPR2128
012024080802WIZC3       010WIZ CO      ON      NM   R$  000000000059000000000006050000000000590000000000059700000000005990000000000596000000000059901175000000000000277000000000000165523800000000000000009999123100000010000000000000BRWIZCACNOR5102
012024080802WLMM3       010WLM IND COM ON           R$  000000000265000000000026890000000002650000000000266900000000026890000000000000000000000272000002000000000000000200000000000000533900000000000000009999123100000010000000000000BRWLMMACNOR6118
012024080802WLMM4       010WLM IND COM PN           R$  000000000308900000000030890000000002934000000000301100000000030500000000002711000000000307800018000000000000002000000000000006022700000000000000009999123100000010000000000000BRWLMMACNPR3118
012024080802YDUQ3       010YDUQS PART  ON      NM   R$  000000000109000000000011020000000001067000000000108000000000010700000000001069000000000108111908000000000006082900000000006573573000000000000000009999123100000010000000000000BRYDUQACNOR3105
012024080802MLAS3       010MULTILASER  ON      NM   R$  000000000019600000000002020000000000195000000000019800000000001970000000000197000000000019901120000000000001383200000000000274147200000000000000009999123100000010000000000000BRMLASACNOR9101
012024080802MNPR3       010MINUPAR     ON           R$  000000000135900000000013680000000001270000000000131600000000013390000000001000000000000132000019000000000000004200000000000005530100000000000000009999123100000010000000000000BRMNPRACNOR5122
012024080802MOAR3       010MONT ARANHA ON           R$  000000003978700000000397870000000039787000000003978700000000397870000000012100000000003975100001000000000000000100000000000003978700000000000000009999123100000010000000000000BRMOARACNOR5234
012024080802MOVI3       010MOVIDA      ON      NM   R$  000000000073600000000007760000000000723000000000073800000000007240000000000723000000000072411740000000000005549600000000004096993400000000000000009999123100000010000000000000BRMOVIACNOR0122
012024080802MRFG3       010MARFRIG     ON      NM   R$  000000000113000000000011820000000001130000000000117200000000011810000000001179000000000118109304000000000003930200000000004608494800000000000000009999123100000010000000000000BRMRFGACNOR0116
012024080802SAPR11      010SANEPAR     UNT     N2   R$  000000000289000000000029140000000002850000000000287200000000028570000000002856000000000287303082000000000001014300000000002913685900000000000000009999123100000010000000000000BRSAPRCDAM13118
012024080802SAPR3       010SANEPAR     ON      N2   R$  000000000053700000000005400000000000528000000000053400000000005280000000000528000000000053300388000000000000101700000000000054309600000000000000009999123100000010000000000000BRSAPRACNOR9159
012024080802SAPR4       010SANEPAR     PN      N2   R$  000000000058400000000005900000000000578000000000058300000000005780000000000577000000000057801607000000000000764400000000000446404800000000000000009999123100000010000000000000BRSAPRACNPR6159
012024080802SBFG3       010GRUPO SBF   ON      NM   R$  000000000159400000000016340000000001577000000000161300000000016170000000001613000000000161704904000000000001426300000000002301521000000000000000009999123100000010000000000000BRSBFGACNOR1103
012024080802SBSP3       010SABESP      ON      NM   R$  000000000916500000000093290000000009141000000000924200000000092650000000009264000000000926521885000000000006019600000000055636380000000000000000009999123100000010000000000000BRSBSPACNOR5161
012024080802UNIP3       010UNIPAR      ON           R$  000000000498000000000050500000000004980000000000502400000000050420000000005020000000000507000019000000000000002500000000000012560100000000000000009999123100000010000000000000BRUNIPACNOR7206
012024080802UNIP5       010UNIPAR      PNA          R$  000000000513600000000051360000000005002000000000502800000000050020000000005030000000000514000004000000000000000500000000000002514400000000000000009999123100000010000000000000BRUNIPACNPA0208
012024080802QUAL3       010QUALICORP   ON      NM   R$  000000000015600000000001640000000000153000000000015900000000001590000000000159000000000016004528000000000004338000000000000691297500000000000000009999123100000010000000000000BRQUALACNOR6120
012024080802SCAR3       010SAO CARLOS  ON      NM   R$  000000000233500000000023350000000002300000000000230700000000023120000000002304000000000231300011000000000000002400000000000005537600000000000000009999123100000010000000000000BRSCARACNOR7131
012024080802SEER3       010SER EDUCA   ON      NM   R$  000000000050900000000005180000000000509000000000051300000000005100000000000510000000000051500517000000000000208300000000000106921400000000000000009999123100000010000000000000BRSEERACNOR5119
012024080802SEQL3       010SEQUOIA LOG ON      NM   R$  000000000090600000000009590000000000556000000000069900000000005800000000000580000000000058107950000000000004131900000000002889357100000000000000009999123100000010000000000000BRSEQLACNOR2103
012024080802SHOW3       010TIME FOR FUNON      NM   R$  000000000015000000000001510000000000137000000000014100000000001390000000000139000000000014100818000000000001090100000000000154739100000000000000009999123100000010000000000000BRSHOWACNOR7105
012024080802SHUL4       010SCHULZ      PN           R$  000000000064000000000006680000000000638000000000065100000000006480000000000648000000000065601552000000000000382200000000000248978700000000000000009999123100000010000000000000BRSHULACNPR4156
012024080802UNIP6       010UNIPAR      PNB          R$  000000000502000000000051170000000005015000000000507600000000050840000000005084000000000508500939000000000000134300000000000681730800000000000000009999123100000010000000000000BRUNIPACNPB8206
012024080802USIM3       010USIMINAS    ON      N1   R$  000000000056000000000005800000000000560000000000057300000000005800000000000573000000000058000663000000000000293900000000000168644700000000000000009999123100000010000000000000BRUSIMACNOR3167
012024080802USIM5       010USIMINAS    PNA     N1   R$  000000000057300000000005870000000000573000000000058200000000005830000000000582000000000058309906000000000011844800000000006896868400000000000000009999123100000010000000000000BRUSIMACNPA6169
012024080802MILS3       010MILLS       ON      NM   R$  000000000110100000000011150000000001096000000000110600000000011070000000001106000000000111002182000000000000480700000000000531802000000000000000009999123100000010000000000000BRMILSACNOR2127
012024080802PRIO3       010PETRORIO    ON      NM   R$  000000000449900000000046460000000004455000000000459400000000046360000000004635000000000463718547000000000007337800000000033715445500000000000000009999123100000010000000000000BRPRIOACNOR1107
012024080802RSUL4       010RIOSULENSE  PN           R$  000000000605000000000060900000000006011000000000604300000000060500000000006001000000000608600023000000000000002500000000000015109400000000000000009999123100000010000000000000BRRSULACNPR3114
012024080802SANB11      010SANTANDER BRUNT          R$  000000000280000000000028450000000002800000000000283100000000028280000000002828000000000283105825000000000001190600000000003371649500000000000000009999123100000010000000000000BRSANBCDAM13165
012024080802SANB3       010SANTANDER BRON           R$  000000000134500000000013530000000001334000000000134500000000013350000000001333000000000134600262000000000000039600000000000053263000000000000000009999123100000010000000000000BRSANBACNOR8172
012024080802SANB4       010SANTANDER BRPN           R$  000000000148600000000014940000000001475000000000148300000000014750000000001475000000000148500370000000000000058700000000000087055900000000000000009999123100000010000000000000BRSANBACNPR5172
012024080802TRIS3       010TRISUL      ON      NM   R$  000000000047600000000004770000000000469000000000047300000000004720000000000472000000000047600639000000000000164800000000000078024800000000000000009999123100000010000000000000BRTRISACNOR4118
012024080802TRPL3       010TRAN PAULISTON      N1   R$  000000000320100000000032420000000003201000000000322100000000032070000000003206000000000325700017000000000000002200000000000007086300000000000000009999123100000010000000000000BRTRPLACNOR4185
012024080802TRPL4       010TRAN PAULISTPN      N1   R$  000000000243000000000024350000000002407000000000241700000000024180000000002417000000000241809597000000000003425700000000008282644500000000000000009999123100000010000000000000BRTRPLACNPR1185
012024080802TTEN3       0103TENTOS     ON      NM   R$  000000000103000000000010680000000001018000000000104800000000010540000000001053000000000106105514000000000000907900000000000951830700000000000000009999123100000010000000000000BRTTENACNOR0103
012024080802RCSL3       010RECRUSUL    ON           R$  000000000029600000000003100000000000292000000000030100000000003000000000000300000000000030502619000000000000866600000000000261471600000000000000009999123100000010000000000000BRRCSLACNOR4134
012024080802RCSL4       010RECRUSUL    PN           R$  000000000008900000000000900000000000088000000000008800000000000890000000000088000000000008900141000000000000183300000000000016297000000000000000009999123100000010000000000000BRRCSLACNPR1134
012024080802RDNI3       010RNI         ON      NM   R$  000000000031600000000003230000000000306000000000030800000000003070000000000306000000000030800042000000000000014400000000000004439400000000000000009999123100000010000000000000BRRDNIACNOR9116
012024080802RDOR3       010REDE D OR   ON      NM   R$  000000000290500000000029620000000002886000000000292700000000029260000000002925000000000293012355000000000003989500000000011679333600000000000000009999123100000010000000000000BRRDORACNOR8113
012024080802SMFT3       010SMART FIT   ON      NM   R$  000000000214400000000022700000000002144000000000222500000000022590000000002255000000000226016582000000000003706000000000008248454800000000000000009999123100000010000000000000BRSMFTACNOR1112
012024080802SMTO3       010SAO MARTINHOON      NM   R$  000000000279800000000029100000000002778000000000287000000000028830000000002881000000000289407581000000000001623300000000004659321700000000000000009999123100000010000000000000BRSMTOACNOR3127
012024080802DASA3       010DASA        ON      NM   R$  000000000026700000000002900000000000267000000000028100000000002880000000000286000000000028801892000000000001336700000000000376192700000000000000009999123100000010000000000000BRDASAACNOR1122
012024080802DESK3       010DESKTOP     ON      NM   R$  000000000160500000000016090000000001553000000000159100000000016030000000001603000000000160601116000000000000366900000000000583797500000000000000009999123100000010000000000000BRDESKACNOR2104
012024080802DXCO3       010DEXCO       ON      NM   R$  000000000075000000000008040000000000750000000000079200000000007840000000000783000000000078515737000000000013468800000000010670303600000000000000009999123100000010000000000000BRDXCOACNOR8105
012024080802FRAS3       010FRAS-LE     ON      N1   R$  000000000181800000000018330000000001801000000000181700000000018220000000001818000000000182301710000000000000527800000000000959502400000000000000009999123100000010000000000000BRFRASACNOR0160
012024080802FESA4       010FERBASA     PN      N1   R$  000000000080800000000008140000000000800000000000080800000000008090000000000808000000000080901076000000000000313300000000000253387100000000000000009999123100000010000000000000BRFESAACNPR5084
012024080802FHER3       010FER HERINGERON      NM   R$  000000000043700000000004370000000000431000000000043100000000004330000000000429000000000043200017000000000000005900000000000002545200000000000000009999123100000010000000000000BRFHERACNOR5103
012024080802FIQE3       010UNIFIQUE    ON      NM   R$  000000000034000000000003690000000000340000000000035800000000003670000000000366000000000036701312000000000001498500000000000537106800000000000000009999123100000010000000000000BRFIQEACNOR5107
012024080802FLRY3       010FLEURY      ON      NM   R$  000000000153400000000015600000000001523000000000154500000000015560000000001556000000000155808599000000000002522500000000003898591800000000000000009999123100000010000000000000BRFLRYACNOR5138
012024080802IRBR3       010IRBBRASIL REON      NM   R$  000000000292000000000029400000000002888000000000291200000000029010000000002900000000000290603091000000000000696800000000002029521100000000000000009999123100000010000000000000BRIRBRACNOR4111
012024080802ITSA3       010ITAUSA      ON      N1   R$  000000000101200000000010170000000001008000000000101200000000010100000000001007000000000101000188000000000000049400000000000049994300000000000000009999123100000010000000000000BRITSAACNOR0441
012024080807NUTR3       010NUTRIPLANT  ON      MA   R$  000000000049500000000004950000000000479000000000048600000000004860000000000474000000000048700022000000000000002900000000000001410800000000000000009999123100000010000000000000BRNUTRACNOR0104
012024080808OSXB3       010OSX BRASIL  ON      NM   R$  000000000037800000000003780000000000365000000000037000000000003650000000000364000000000036500067000000000000029000000000000010757500000000000000009999123100000010000000000000BROSXBACNOR8109
012024080808ATMP3       010ATMASA      ON           R$  000000000017200000000001720000000000171000000000017100000000001710000000000170000000000017400005000000000000001000000000000000171100000000000000009999123100000010000000000000BRATMPACNOR8100
012024080808ETER3       010ETERNIT     ON      NM   R$  000000000056900000000005860000000000560000000000056900000000005780000000000577000000000057801113000000000000447500000000000254929800000000000000009999123100000010000000000000BRETERACNOR3243
012024080808RNEW11      010RENOVA      UNT     N2   R$  000000000024700000000002500000000000247000000000024800000000002500000000000249000000000025000009000000000000002100000000000000522200000000000000009999123100000010000000000000BRRNEWCDAM15110
012024080808RNEW3       010RENOVA      ON      N2   R$  000000000008500000000000850000000000081000000000008100000000000820000000000082000000000008300059000000000000070700000000000005786000000000000000009999123100000010000000000000BRRNEWACNOR8110
012024080808RNEW4       010RENOVA      PN      N2   R$  000000000008200000000000820000000000081000000000008100000000000810000000000081000000000008200079000000000000064200000000000005225500000000000000009999123100000010000000000000BRRNEWACNPR5110
012024080808RPMG3       010PET MANGUINHON           R$  000000000027400000000002880000000000266000000000027400000000002800000000000269000000000027900074000000000000016000000000000004397100000000000000009999123100000010000000000000BRRPMGACNOR9194
012024080808TEKA4       010TEKA        PN           R$  000000000310000000000031000000000003100000000000310000000000031000000000002800000000000310000001000000000000000200000000000000620000000000000000009999123100000010000000000000BRTEKAACNPR3140
012024080808LIGT3       010LIGHT S/A   ON      NM   R$  000000000042000000000004250000000000417000000000042100000000004200000000000420000000000042302271000000000000974300000000000411086000000000000000009999123100000010000000000000BRLIGTACNOR2124
012024080808JFEN3       010JOAO FORTES ON           R$  000000000003300000000000340000000000031000000000003200000000000320000000000032000000000003300358000000000001663800000000000053626800000000000000009999123100000010000000000000BRJFENACNOR0059
012024080808HOOT4       010HOTEIS OTHONPN           R$  000000000022900000000002300000000000227000000000022800000000002280000000000228000000000023500012000000000000003100000000000000706800000000000000009999123100000010000000000000BRHOOTACNPR9015
012024080808OIBR3       010OI          ON      N1   R$  000000000043500000000004550000000000429000000000043500000000004300000000000430000000000043300759000000000000595100000000000259256000000000000000009999123100000010000000000000BROIBRACNOR1111
012024080808OIBR4       010OI          PN      N1   R$  000000000120000000000012350000000001200000000000121600000000012140000000001214000000000123000015000000000000002400000000000002919600000000000000009999123100000010000000000000BROIBRACNPR8110
012024080808PMAM3       010PARANAPANEMAON      NM   R$  000000000022400000000002290000000000216000000000022100000000002180000000000217000000000021800181000000000000094300000000000020867700000000000000009999123100000010000000000000BRPMAMACNOR3039
012024080808NEXP3       010NEXPE       ON           R$  000000000041400000000004140000000000410000000000041000000000004100000000000406000000000041100005000000000000000700000000000000287400000000000000009999123100000010000000000000BRNEXPACNOR0101
012024080808AMER3       010AMERICANAS  ON      NM   R$  000000000005900000000000610000000000058000000000005900000000000590000000000059000000000006001278000000000013226800000000000786759100000000000000009999123100000010000000000000BRAMERACNOR6102
012024080808CTNM4       010COTEMINAS   PN           R$  000000000009100000000000910000000000091000000000009100000000000910000000000087000000000009100007000000000000005300000000000000482300000000000000009999123100000010000000000000BRCTNMACNPR6129
012024080808CTSA3       010SANTANENSE  ON           R$  000000000028600000000002900000000000284000000000028400000000002840000000000284000000000029000007000000000000001900000000000000541400000000000000009999123100000010000000000000BRCTSAACNOR3062
012024080808CTSA4       010SANTANENSE  PN           R$  000000000013000000000001340000000000129000000000013200000000001310000000000130000000000013300038000000000000028100000000000003719300000000000000009999123100000010000000000000BRCTSAACNPR0062
012024080808SGPS3       010SPRINGS     ON      NM   R$  000000000019500000000001950000000000195000000000019500000000001950000000000193000000000019500011000000000000007100000000000001384500000000000000009999123100000010000000000000BRSGPSACNOR4105
012024080808RSID3       010ROSSI RESID ON      NM   R$  000000000037800000000003900000000000354000000000036800000000003540000000000353000000000035500197000000000000047300000000000017448500000000000000009999123100000010000000000000BRRSIDACNOR8120
012024080810PDGR95      010PDG REALT   DIR     NM   R$  000000000000100000000000010000000000001000000000000100000000000010000000000000000000000000100103000000000000135509000000000000135509000000000000009999123100000010000000000000BRPDGRD03M17100
012024080810ZAMP1       010ZAMP S.A.   DIR ORD      R$  000000000000600000000000100000000000006000000000000600000000000070000000000007000000000000800487000000000000892400000000000006151900000000000000009999123100000010000000000000BRZAMPD01OR0100
012024080812SJAU11      010FII SJ AU   CI           R$  000000000582500000000058250000000005825000000000582500000000058250000000005501000000000588600001000000000000000020000000000000116500000000000000009999123100000010000000000000BRSJAUCTF009102
012024080812WHGR11      010FII WHG REALCI  ER       R$  000000000095200000000009530000000000942000000000094400000000009460000000000946000000000094902639000000000000072790000000000068761819000000000000009999123100000010000000000000BRWHGRCTF008127
012024080812TVRI11      010FII TIVIO RICI  ER       R$  000000001031500000000103790000000010265000000001031600000000103170000000010299000000001031900547000000000000005060000000000052199306000000000000009999123100000010000000000000BRTVRICTF001110
012024080812VOTS11      010FII V MASTERCI  ER       R$  000000000832400000000083240000000008139000000000820300000000082420000000008138000000000828000008000000000000000011000000000000090239000000000000009999123100000010000000000000BRVOTSCTF007172
012024080812VRTA11      010FII FATOR VECI  ER       R$  000000000889700000000089050000000008715000000000877000000000087520000000008749000000000875207936000000000000048417000000000424663538000000000000009999123100000010000000000000BRVRTACTF008262
012024080812GTWR11      010FII G TOWERSCI  ER       R$  000000000814500000000082600000000008081000000000818200000000081420000000008143000000000819405691000000000000025303000000000207045732000000000000009999123100000010000000000000BRGTWRCTF003165
012024080812GZIT11      010FII GAZIT   CI           R$  000000000557000000000056710000000005551000000000557200000000055900000000005581000000000559005093000000000000016676000000000092919367000000000000009999123100000010000000000000BRGZITCTF005109
012024080812BBFI11      010FII BB PROGRCI           R$  000000006300200000000637990000000061101000000006236100000000616450000000061645000000006267700088000000000000000227000000000014156160000000000000009999123100000010000000000000BRBBFICTF006329
012024080812BBFO11      010FII BB FOF  CI  ER       R$  000000000725500000000072890000000007154000000000721400000000072000000000007162000000000721800109000000000000003298000000000023792647000000000000009999123100000010000000000000BRBBFOCTF004143
012024080812BBIG11      010FII BBIG    CI  ER       R$  000000000093500000000009360000000000930000000000093000000000009310000000000930000000000093100573000000000000058775000000000054692297000000000000009999123100000010000000000000BRBBIGCTF004103
012024080812BBRC11      010FII BB CORP CI  ER       R$  000000001135100000000114900000000011351000000001141600000000113990000000011397000000001139900040000000000000000228000000000002602944000000000000009999123100000010000000000000BRBBRCCTF004255
012024080812GAME11      010FII GUARD MUCI           R$  000000000091500000000009200000000000910000000000091400000000009190000000000916000000000091900854000000000000008611000000000007875219000000000000009999123100000010000000000000BRGAMECTF002133
012024080812GARE11      010FII GUARDIANCI  ER       R$  000000000090300000000009050000000000902000000000090300000000009030000000000903000000000090426412000000000000572139000000000516739805000000000000009999123100000010000000000000BRGARECTF001106
012024080812GCRI11      010FII GLPG CRICI           R$  000000000707600000000072200000000007076000000000712500000000072170000000007130000000000721800172000000000000000741000000000005279722000000000000009999123100000010000000000000BRGCRICTF008145
012024080812EDFO11      010FII OURINVESCI  ER       R$  000000001839700000000183970000000018397000000001839700000000183970000000017808000000001839800002000000000000000003000000000000055191000000000000009999123100000010000000000000BREDFOCTF004325
012024080812EDGA11      010FII GALERIA CI           R$  000000000186900000000018780000000001850000000000187100000000018660000000001853000000000187900028000000000000000935000000000001749839000000000000009999123100000010000000000000BREDGACTF001243
012024080812GGRC11      010FII GGRCOVEPCI  ER       R$  000000000108300000000010880000000001081000000000108300000000010820000000001081000000000108211382000000000000132488000000000143587408000000000000009999123100000010000000000000BRGGRCCTF002196
012024080812GLOG11      010FII PLURAL LCI  ER       R$  000000000627300000000062730000000006240000000000624000000000062420000000006250000000000634600010000000000000000234000000000001460393000000000000009999123100000010000000000000BRGLOGCTF000115
012024080812OUJP11      010FII OURI JPPCI  ER       R$  000000000783000000000080150000000007757000000000791300000000079990000000007939000000000799905031000000000000022762000000000180133713000000000000009999123100000010000000000000BROUJPCTF006189
012024080812MFAI11      010FII MERITOFACI  ER       R$  000000000639600000000068000000000006205000000000650300000000067000000000006627000000000690000141000000000000003274000000000021291034000000000000009999123100000010000000000000BRMFAICTF005153
012024080812MFCR11      010FII MERITO RCI  ER       R$  000000000263700000000026640000000002637000000000265400000000026500000000002650000000000270800008000000000000000011000000000000029201000000000000009999123100000010000000000000BRMFCRCTF002126
012024080812MFII11      010FII MERITO ICI  ER       R$  000000001004000000000100930000000010020000000001005800000000100570000000010056000000001005700897000000000000004796000000000048241449000000000000009999123100000010000000000000BRMFIICTF008237
012024080812MGHT11      010FII MOGNO HTCI           R$  000000000217200000000021990000000002150000000000217100000000021510000000002151000000000217300123000000000000001847000000000004010482000000000000009999123100000010000000000000BRMGHTCTF005155
012024080812ASMT11      010FII ASA MET CI           R$  000000000373800000000037380000000003738000000000373800000000037380000000003650000000000378400001000000000000000002000000000000007476000000000000009999123100000010000000000000BRASMTCTF005107
012024080812ATSA11      010FII HATRIUM CI           R$  000000000559900000000056000000000005599000000000559900000000056000000000005201000000000560000004000000000000000013000000000000072797000000000000009999123100000010000000000000BRATSACTF000144
012024080812OULG11      010FII OURILOG CI           R$  000000000294900000000030720000000002949000000000299900000000030190000000002949000000000303800034000000000000001116000000000003347082000000000000009999123100000010000000000000BROULGCTF001153
012024080812PATC11      010FII PATRIA  CI  ER       R$  000000000351400000000035700000000003514000000000352800000000035300000000003514000000000353000040000000000000013788000000000048645443000000000000009999123100000010000000000000BRPATCCTF002172
012024080812CBOP11      010FII CBOP PAXCI  ER       R$  000000000280700000000028070000000002799000000000280000000000028060000000002799000000000280600016000000000000000472000000000001321725000000000000009999123100000010000000000000BRCBOPCTF001232
012024080812CXCO11      010FII CEF CORPCI  ER       R$  000000000732500000000073250000000007249000000000727200000000073150000000007278000000000731400264000000000000002087000000000015178530000000000000009999123100000010000000000000BRCXCOCTF003140
012024080812CXRI11      010FII CX RBRAVCI  ER       R$  000000000775100000000077520000000007641000000000774000000000077520000000007666000000000796000009000000000000000046000000000000356072000000000000009999123100000010000000000000BRCXRICTF003230
012024080812CXTL11      010FII CX TRX  CI  ER       R$  000000002249200000000224920000000022492000000002249200000000224920000000022001000000002250000002000000000000000002000000000000044984000000000000009999123100000010000000000000BRCXTLCTF003239
012024080812CYCR11      010FII CYRELA  CI  ER       R$  000000000097500000000009790000000000970000000000097400000000009760000000000972000000000097700481000000000000037859000000000036881285000000000000009999123100000010000000000000BRCYCRCTF004141
012024080812CYLD11      010FII CYLD    CI           R$  000000001000000000000100000000000010000000000001000000000000100000000000010000000000000000000001000000000000000001000000000000010000000000000000009999123100000010000000000000BRCYLDCTF005100
012024080812PATL11      010FII PATLOGISCI  ER       R$  000000000602000000000060560000000006008000000000601700000000060490000000006047000000000604902740000000000000010542000000000063433331000000000000009999123100000010000000000000BRPATLCTF003148
012024080812RENV11      010FII RENV    CI           R$  000000000105200000000012000000000001052000000000116500000000012000000000001190000000000120000166000000000000005450000000000006351097000000000000009999123100000010000000000000BRRENVCTF003100
012024080812RFOF11      010FII RB CFOF CI  ER       R$  000000000707300000000070730000000007040000000000705000000000070400000000007033000000000704000033000000000000000645000000000004547585000000000000009999123100000010000000000000BRRFOFCTF001153
012024080812EURO11      010FII EUROPAR CI  ER       R$  000000002469800000000246990000000024655000000002464500000000246980000000024503000000002469800009000000000000000010000000000000246459000000000000009999123100000010000000000000BREUROCTF011361
012024080812EVBI11      010FII VBI CON CI  ER       R$  000000000100300000000010030000000000996000000000099700000000010000000000000997000000000100100046000000000000037934000000000037820457000000000000009999123100000010000000000000BREVBICTF007152
012024080812EXES11      010FII EXES    CI           R$  000000000098900000000009890000000000980000000000098500000000009890000000000959000000000098900008000000000000000058000000000000057179000000000000009999123100000010000000000000BREXESCTF006127
012024080812RNGO11      010FII RIONEGROCI  ER       R$  000000000457500000000046500000000004499000000000456100000000046430000000004572000000000464900189000000000000003231000000000014738522000000000000009999123100000010000000000000BRRNGOCTF003245
012024080812RPRI11      010FII RBR PR  CI  ER       R$  000000000920100000000092790000000009201000000000923700000000092790000000009233000000000927500068000000000000002381000000000021994468000000000000009999123100000010000000000000BRRPRICTF007130
