00COTAHIST.2024BOVESPA 20240828                                                                                                                                                                                                                      
012024082802SLCE3       010SLC AGRICOLAON      NM   R$  000000000180800000000018130000000001788000000000179500000000017880000000001788000000000179405741000000000001655100000000002971173100000000000000009999123100000010000000000000BRSLCEACNOR2125
012024082802SMFT3       010SMART FIT   ON      NM   R$  000000000232200000000023260000000002283000000000230100000000023050000000002301000000000230509306000000000001600800000000003683720800000000000000009999123100000010000000000000BRSMFTACNOR1112
012024082802SMTO3       010SAO MARTINHOON      NM   R$  000000000292000000000029370000000002794000000000284700000000028150000000002813000000000281810209000000000002083700000000005933398500000000000000009999123100000010000000000000BRSMTOACNOR3127
012024082802PRNR3       010PRINER      ON      NM   R$  000000000138800000000013880000000001349000000000136300000000013680000000001368000000000136901168000000000000190400000000000259655100000000000000009999123100000010000000000000BRPRNRACNOR4109
012024082802PSSA3       010PORTO SEGUROON      NM   R$  000000000338500000000033930000000003353000000000337400000000033870000000003385000000000338705066000000000000854300000000002883091700000000000000009999123100000010000000000000BRPSSAACNOR7155
012024082802PTBL3       010PORTOBELLO  ON      NM   R$  000000000051200000000005120000000000492000000000049700000000004940000000000494000000000049801223000000000000749500000000000372761800000000000000009999123100000010000000000000BRPTBLACNOR8132
012024082802BBSE3       010BBSEGURIDADEON  ED  NM   R$  000000000364600000000036830000000003608000000000363900000000036410000000003638000000000364219027000000000004440200000000016158315300000000000000009999123100000010000000000000BRBBSEACNOR5125
012024082802HETA4       010HERCULES    PN           R$  000000000054000000000005400000000000540000000000054000000000005400000000000503000000000061500002000000000000000200000000000000108000000000000000009999123100000010000000000000BRHETAACNPR9136
012024082802UNIP3       010UNIPAR      ON           R$  000000000482700000000048300000000004765000000000478900000000047650000000004761000000000478500073000000000000010100000000000048374500000000000000009999123100000010000000000000BRUNIPACNOR7206
012024082802UNIP5       010UNIPAR      PNA          R$  000000000490000000000049000000000004900000000000490000000000049000000000004900000000000504400001000000000000000100000000000000490000000000000000009999123100000010000000000000BRUNIPACNPA0208
012024082802UNIP6       010UNIPAR      PNB          R$  000000000487400000000048740000000004825000000000484700000000048350000000004833000000000484601044000000000000175800000000000852116700000000000000009999123100000010000000000000BRUNIPACNPB8206
012024082802USIM3       010USIMINAS    ON      N1   R$  000000000063200000000006330000000000603000000000061100000000006050000000000605000000000060801356000000000000544500000000000332763900000000000000009999123100000010000000000000BRUSIMACNOR3167
012024082802USIM5       010USIMINAS    PNA     N1   R$  000000000064300000000006430000000000619000000000062600000000006240000000000624000000000062513988000000000017732500000000011101047500000000000000009999123100000010000000000000BRUSIMACNPA6169
012024082802WEST3       010WESTWING    ON      NM   R$  000000000009300000000000930000000000091000000000009200000000000930000000000092000000000009300014000000000000011000000000000001014300000000000000009999123100000010000000000000BRWESTACNOR3100
012024082802AALR3       010ALLIAR      ON      NM   R$  000000000156400000000015800000000001560000000000156600000000015790000000001570000000000157900129000000000000038600000000000060450000000000000000009999123100000010000000000000BRAALRACNOR6102
012024082802ABCB4       010ABC BRASIL  PN      N2   R$  000000000230400000000023400000000002296000000000231600000000023400000000002336000000000234103568000000000000625300000000001448670000000000000000009999123100000010000000000000BRABCBACNPR4146
012024082802ABEV3       010AMBEV S/A   ON           R$  000000000130400000000013070000000001281000000000129000000000012950000000001295000000000129625749000000000021175200000000027320150100000000000000009999123100000010000000000000BRABEVACNOR1128
012024082802BBDC3       010BRADESCO    ON      N1   R$  000000000139300000000014200000000001377000000000140600000000014170000000001415000000000141708061000000000004634100000000006517801400000000000000009999123100000010000000000000BRBBDCACNOR1773
012024082802BBDC4       010BRADESCO    PN      N1   R$  000000000153000000000015770000000001517000000000155300000000015670000000001567000000000156835520000000000027179000000000042235662700000000000000009999123100000010000000000000BRBBDCACNPR8773
012024082802BRSR3       010BANRISUL    ON      N1   R$  000000000135200000000013620000000001328000000000133900000000013290000000001328000000000134000086000000000000020600000000000027602900000000000000009999123100000010000000000000BRBRSRACNOR3188
012024082802BRSR6       010BANRISUL    PNB     N1   R$  000000000125700000000012580000000001233000000000124800000000012580000000001250000000000125903717000000000000926200000000001156006200000000000000009999123100000010000000000000BRBRSRACNPB4191
012024082802NTCO3       010GRUPO NATURAON      NM   R$  000000000138300000000014080000000001378000000000139300000000013880000000001388000000000139115127000000000005887000000000008205940800000000000000009999123100000010000000000000BRNTCOACNOR5106
012024082802ALPK3       010ESTAPAR     ON      NM   R$  000000000038400000000003850000000000380000000000038200000000003850000000000380000000000038500241000000000000083600000000000031989800000000000000009999123100000010000000000000BRALPKACNOR9101
012024082802ALUP11      010ALUPAR      UNT ED  N2   R$  000000000307400000000030940000000003047000000000308100000000030910000000003075000000000309303810000000000000774500000000002386286400000000000000009999123100000010000000000000BRALUPCDAM15120
012024082802ALUP3       010ALUPAR      ON  ED  N2   R$  000000000104900000000010690000000001046000000000105600000000010510000000001050000000000107100031000000000000004800000000000005068800000000000000009999123100000010000000000000BRALUPACNOR8120
012024082802ALUP4       010ALUPAR      PN  ED  N2   R$  000000000101600000000010210000000001005000000000101200000000010120000000001012000000000102300053000000000000008400000000000008505500000000000000009999123100000010000000000000BRALUPACNPR5120
012024082802AMAR3       010LOJAS MARISAON      NM   R$  000000000012000000000001210000000000116000000000011700000000001160000000000116000000000011700625000000000000287500000000000033748300000000000000009999123100000010000000000000BRAMARACNOR4115
012024082802AMBP3       010AMBIPAR     ON      NM   R$  000000000790000000000080090000000006801000000000725800000000068040000000006801000000000680402911000000000000666100000000004834930600000000000000009999123100000010000000000000BRAMBPACNOR6103
012024082802ANIM3       010ANIMA       ON      NM   R$  000000000034100000000003410000000000332000000000033600000000003380000000000337000000000033905511000000000004959600000000001667375400000000000000009999123100000010000000000000BRANIMACNOR6109
012024082802WHRL3       010WHIRLPOOL   ON           R$  000000000042900000000004290000000000429000000000042900000000004290000000000427000000000043300001000000000000000100000000000000042900000000000000009999123100000010000000000000BRWHRLACNOR5128
012024082802WHRL4       010WHIRLPOOL   PN           R$  000000000045100000000004600000000000446000000000045300000000004460000000000446000000000045300029000000000000010700000000000004857400000000000000009999123100000010000000000000BRWHRLACNPR2128
012024082802WIZC3       010WIZ CO      ON      NM   R$  000000000061000000000006140000000000604000000000060800000000006100000000000608000000000061000921000000000000244100000000000148588900000000000000009999123100000010000000000000BRWIZCACNOR5102
012024082802ROMI3       010ROMI        ON      NM   R$  000000000110800000000011080000000001091000000000109800000000010950000000001095000000000110000843000000000000164200000000000180369900000000000000009999123100000010000000000000BRROMIACNOR8195
012024082802BSLI4       010BRB BANCO   PN           R$  000000000095600000000009940000000000950000000000096100000000009500000000000950000000000099500005000000000000000600000000000000576800000000000000009999123100000010000000000000BRBSLIACNPR2194
012024082802RPAD5       010ALFA HOLDINGPNA ED       R$  000000000087500000000008750000000000875000000000087500000000008750000000000875000000000088900002000000000000000200000000000000175000000000000000009999123100000010000000000000BRRPADACNPA4219
012024082802RRRP3       0103R PETROLEUMON      NM   R$  000000000276900000000027700000000002714000000000273600000000027490000000002744000000000274909446000000000003039300000000008316443600000000000000009999123100000010000000000000BRRRRPACNOR5103
012024082802TPIS3       010TRIUNFO PARTON      NM   R$  000000000050900000000005220000000000470000000000049000000000004700000000000469000000000047001025000000000000538200000000000264058400000000000000009999123100000010000000000000BRTPISACNOR8118
012024082802TRAD3       010TC          ON      NM   R$  000000000032500000000003250000000000306000000000031200000000003130000000000313000000000031400465000000000000266600000000000083430400000000000000009999123100000010000000000000BRTRADACNOR3102
012024082802TRIS3       010TRISUL      ON      NM   R$  000000000047100000000004750000000000465000000000047000000000004700000000000470000000000047400728000000000000228100000000000107256800000000000000009999123100000010000000000000BRTRISACNOR4118
012024082802TRPL3       010TRAN PAULISTON      N1   R$  000000000320000000000032000000000003192000000000319800000000031920000000003195000000000320000004000000000000000700000000000002239200000000000000009999123100000010000000000000BRTRPLACNOR4185
012024082802TRPL4       010TRAN PAULISTPN      N1   R$  000000000246700000000024780000000002453000000000247100000000024780000000002477000000000247806508000000000001433800000000003543766900000000000000009999123100000010000000000000BRTRPLACNPR1185
012024082802TTEN3       0103TENTOS     ON      NM   R$  000000000123200000000012330000000001213000000000122200000000012190000000001211000000000122003198000000000000584000000000000713661500000000000000009999123100000010000000000000BRTTENACNOR0103
012024082802TUPY3       010TUPY        ON      NM   R$  000000000271300000000027540000000002657000000000272100000000027540000000002740000000000275503286000000000000513400000000001396984300000000000000009999123100000010000000000000BRTUPYACNOR1184
012024082802CAMB3       010CAMBUCI     ON           R$  000000000122800000000012280000000001203000000000121400000000012160000000001216000000000122600143000000000000035700000000000043353600000000000000009999123100000010000000000000BRCAMBACNOR4131
012024082802CAML3       010CAMIL       ON      NM   R$  000000000095100000000009640000000000937000000000095100000000009610000000000960000000000096201697000000000000486400000000000462716900000000000000009999123100000010000000000000BRCAMLACNOR3128
012024082802CASH3       010MELIUZ      ON      NM   R$  000000000066700000000006770000000000654000000000066700000000006720000000000668000000000067202159000000000001056400000000000704783300000000000000009999123100000010000000000000BRCASHACNOR8106
012024082802CBAV3       010CBA         ON      NM   R$  000000000054300000000005430000000000507000000000051800000000005230000000000521000000000052309690000000000006899600000000003576115200000000000000009999123100000010000000000000BRCBAVACNOR5104
012024082802CYRE3       010CYRELA REALTON      NM   R$  000000000224900000000022780000000002216000000000225400000000022690000000002268000000000227211163000000000004995300000000011260338600000000000000009999123100000010000000000000BRCYREACNOR7140
012024082802UCAS3       010UNICASA     ON      NM   R$  000000000022800000000002290000000000226000000000022600000000002260000000000227000000000022800045000000000000006100000000000001382800000000000000009999123100000010000000000000BRUCASACNOR1113
012024082802UGPA3       010ULTRAPAR    ON      NM   R$  000000000235600000000023640000000002336000000000234900000000023500000000002349000000000235011184000000000002840100000000006673614100000000000000009999123100000010000000000000BRUGPAACNOR8156
012024082802VIVR3       010VIVER       ON      NM   R$  000000000025100000000002520000000000245000000000024800000000002460000000000246000000000024900060000000000000018200000000000004513800000000000000009999123100000010000000000000BRVIVRACNOR4123
012024082802VIVT3       010TELEF BRASILON  EJ       R$  000000000516100000000052140000000005135000000000518400000000052000000000005197000000000520111075000000000001897600000000009838013900000000000000009999123100000010000000000000BRVIVTACNOR0184
012024082802VLID3       010VALID       ON      NM   R$  000000000216500000000022970000000002160000000000223100000000022920000000002288000000000229202939000000000000547000000000001220786800000000000000009999123100000010000000000000BRVLIDACNOR5144
012024082802VSTE3       010VESTE       ON      NM   R$  000000000131100000000013160000000001300000000000130500000000013100000000001292000000000131500021000000000000004400000000000005744800000000000000009999123100000010000000000000BRVSTEACNOR5103
012024082802VTRU3       010VITRUEDUCA  ON      NM   R$  000000000103100000000011010000000001026000000000104500000000010310000000001031000000000103500992000000000000171200000000000179055700000000000000009999123100000010000000000000BRVTRUACNOR3100
012024082802DASA3       010DASA        ON      NM   R$  000000000033500000000003400000000000328000000000033300000000003360000000000336000000000033801468000000000000800000000000000266786000000000000000009999123100000010000000000000BRDASAACNOR1122
012024082802GFSA3       010GAFISA      ON      NM   R$  000000000028700000000002910000000000278000000000028300000000002800000000000279000000000028002571000000000003979800000000001127194300000000000000009999123100000010000000000000BRGFSAACNOR3125
012024082802GGBR3       010GERDAU      ON      N1   R$  000000000160400000000016040000000001584000000000159000000000016030000000001596000000000160400147000000000000039700000000000063134500000000000000009999123100000010000000000000BRGGBRACNOR1193
012024082802GGBR4       010GERDAU      PN      N1   R$  000000000181500000000018250000000001785000000000180000000000018060000000001805000000000180711657000000000006278900000000011304059200000000000000009999123100000010000000000000BRGGBRACNPR8193
012024082802BIOM3       010BIOMM       ON      MA   R$  000000000080500000000008260000000000785000000000079800000000008260000000000819000000000082600672000000000000185400000000000148078900000000000000009999123100000010000000000000BRBIOMACNOR2112
012024082802VULC3       010VULCABRAS   ON  ED  NM   R$  000000000177900000000017950000000001765000000000178000000000017850000000001785000000000179201946000000000000332400000000000591780900000000000000009999123100000010000000000000BRVULCACNOR2161
012024082802VVEO3       010VIVEO       ON      NM   R$  000000000020200000000002080000000000197000000000020000000000001980000000000198000000000020003968000000000002177600000000000435729600000000000000009999123100000010000000000000BRVVEOACNOR0104
012024082802BLAU3       010BLAU        ON      NM   R$  000000000131100000000013560000000001298000000000132900000000013560000000001332000000000135601392000000000000245600000000000326432300000000000000009999123100000010000000000000BRBLAUACNOR8114
012024082802WEGE3       010WEG         ON      NM   R$  000000000540100000000054570000000005369000000000539900000000054000000000005390000000000540014267000000000003555600000000019197017600000000000000009999123100000010000000000000BRWEGEACNOR0224
012024082802PETZ3       010PETZ        ON      NM   R$  000000000052400000000005300000000000516000000000052300000000005300000000000529000000000053012269000000000018743200000000009817101400000000000000009999123100000010000000000000BRPETZACNOR2110
012024082802RECV3       010PETRORECSA  ON      NM   R$  000000000210000000000021030000000002055000000000207100000000020780000000002078000000000208109243000000000002563500000000005311129200000000000000009999123100000010000000000000BRRECVACNOR3107
012024082802REDE3       010REDE ENERGIAON           R$  000000000070000000000007060000000000685000000000069100000000007060000000000693000000000070000012000000000000001700000000000001175100000000000000009999123100000010000000000000BRREDEACNOR7128
012024082802RENT3       010LOCALIZA    ON      NM   R$  000000000424500000000042890000000004220000000000425400000000042500000000004246000000000425022303000000000005428300000000023096747500000000000000009999123100000010000000000000BRRENTACNOR4196
012024082802TASA3       010TAURUS ARMASON      N2   R$  000000000110100000000011240000000001101000000000111400000000011180000000001117000000000112900109000000000000037600000000000041895600000000000000009999123100000010000000000000BRTASAACNOR7104
012024082802TASA4       010TAURUS ARMASPN      N2   R$  000000000111100000000011120000000001100000000000110500000000011110000000001111000000000111201160000000000000349700000000000386432400000000000000009999123100000010000000000000BRTASAACNPR4104
012024082802BMEB3       010MERCANTIL   ON      N1   R$  000000000359900000000036000000000003599000000000359900000000036000000000003550000000000360000008000000000000014500000000000052197200000000000000009999123100000010000000000000BRBMEBACNOR8206
012024082802BMEB4       010MERCANTIL   PN      N1   R$  000000000388000000000039690000000003880000000000391900000000039690000000003905000000000397000101000000000000015600000000000061143000000000000000009999123100000010000000000000BRBMEBACNPR5211
012024082802BMGB4       010BANCO BMG   PN      N1   R$  000000000039100000000003910000000000383000000000038500000000003870000000000386000000000038700695000000000000312800000000000120452000000000000000009999123100000010000000000000BRBMGBACNPR0110
012024082802BMIN4       010MERC INVEST PN           R$  000000000160000000000016000000000001600000000000160000000000016000000000001600000000000169000001000000000000000100000000000000160000000000000000009999123100000010000000000000BRBMINACNPR1176
012024082802BMKS3       010BIC MONARK  ON           R$  000000003100000000000314900000000030410000000003089700000000304100000000030501000000003144900006000000000000000014000000000000432560000000000000009999123100000010000000000000BRBMKSACNOR9166
012024082802SCAR3       010SAO CARLOS  ON      NM   R$  000000000236000000000023860000000002360000000000238400000000023860000000002360000000000238600014000000000000005000000000000011924800000000000000009999123100000010000000000000BRSCARACNOR7131
012024082802SEER3       010SER EDUCA   ON      NM   R$  000000000065500000000006620000000000640000000000064800000000006490000000000648000000000064901213000000000000354600000000000229950200000000000000009999123100000010000000000000BRSEERACNOR5119
012024082802SEQL3       010SEQUOIA LOG ON      NM   R$  000000000060300000000006080000000000594000000000059900000000005980000000000594000000000059800954000000000000327400000000000196431200000000000000009999123100000010000000000000BRSEQLACNOR2103
012024082802SHOW3       010TIME FOR FUNON      NM   R$  000000000011500000000001190000000000112000000000011500000000001150000000000114000000000011500274000000000000304200000000000035165500000000000000009999123100000010000000000000BRSHOWACNOR7105
012024082802SHUL4       010SCHULZ      PN           R$  000000000066600000000006690000000000655000000000066200000000006650000000000665000000000066600902000000000000244100000000000161605500000000000000009999123100000010000000000000BRSHULACNPR4156
012024082802SIMH3       010SIMPAR      ON      NM   R$  000000000065700000000006570000000000631000000000064100000000006370000000000637000000000063807720000000000004783500000000003068098400000000000000009999123100000010000000000000BRSIMHACNOR0107
012024082802TCSA3       010TECNISA     ON      NM   R$  000000000019900000000002020000000000192000000000019700000000001980000000000197000000000020100176000000000000135900000000000026790800000000000000009999123100000010000000000000BRTCSAACNOR3112
012024082802TECN3       010TECHNOS     ON      NM   R$  000000000055100000000005620000000000545000000000055000000000005470000000000547000000000055200413000000000000120500000000000066321400000000000000009999123100000010000000000000BRTECNACNOR6109
012024082802TELB3       010TELEBRAS    ON           R$  000000000144000000000014400000000001400000000000142200000000014000000000001398000000000142000020000000000000002100000000000002986900000000000000009999123100000010000000000000BRTELBACNOR2140
012024082802TELB4       010TELEBRAS    PN           R$  000000000094800000000009620000000000948000000000095200000000009520000000000942000000000095200017000000000000002500000000000002382400000000000000009999123100000010000000000000BRTELBACNPR9140
012024082802TEND3       010TENDA       ON      NM   R$  000000000140000000000014000000000001359000000000137500000000013800000000001374000000000138005026000000000001575600000000002167846200000000000000009999123100000010000000000000BRTENDACNOR4111
012024082802TFCO4       010TRACK FIELD PN      N2   R$  000000000119500000000012140000000001172000000000118200000000012000000000001190000000000120000420000000000000179600000000000212292500000000000000009999123100000010000000000000BRTFCOACNPR8114
012024082802TGMA3       010TEGMA       ON      NM   R$  000000000259000000000026090000000002560000000000259000000000026000000000002600000000000260100509000000000000072600000000000188088900000000000000009999123100000010000000000000BRTGMAACNOR7145
012024082802TIMS3       010TIM         ON      NM   R$  000000000178300000000018170000000001767000000000180000000000018110000000001811000000000181210726000000000005276100000000009497149300000000000000009999123100000010000000000000BRTIMSACNOR5117
012024082802NEOE3       010NEOENERGIA  ON      NM   R$  000000000196000000000019820000000001939000000000196900000000019710000000001971000000000197402189000000000000447200000000000880881700000000000000009999123100000010000000000000BRNEOEACNOR3123
012024082802NGRD3       010NEOGRID     ON      NM   R$  000000000013600000000001360000000000132000000000013300000000001350000000000134000000000013500551000000000000404800000000000054032900000000000000009999123100000010000000000000BRNGRDACNOR3104
012024082802NINJ3       010GETNINJAS   ON      NM   R$  000000000046500000000004700000000000465000000000046700000000004700000000000464000000000047900019000000000000005500000000000002571600000000000000009999123100000010000000000000BRNINJACNOR5101
012024082802NORD3       010NORDON MET  ON           R$  000000000110000000000012190000000001080000000000112400000000012190000000001000000000000121900006000000000000000600000000000000674900000000000000009999123100000010000000000000BRNORDACNOR7135
012024082802HBOR3       010HELBOR      ON      NM   R$  000000000021300000000002160000000000213000000000021400000000002150000000000214000000000021500368000000000000296000000000000063430000000000000000009999123100000010000000000000BRHBORACNOR3118
012024082802HBRE3       010HBR REALTY  ON      NM   R$  000000000052500000000005310000000000519000000000052400000000005290000000000525000000000052900418000000000000133000000000000069729700000000000000009999123100000010000000000000BRHBREACNOR4100
012024082802HBSA3       010HIDROVIAS   ON      NM   R$  000000000036100000000003610000000000351000000000035500000000003540000000000354000000000035703185000000000001222500000000000434264500000000000000009999123100000010000000000000BRHBSAACNOR0100
012024082802JALL3       010JALLESMACHADON      NM   R$  000000000068500000000006850000000000668000000000067300000000006700000000000670000000000067101738000000000000574300000000000386585200000000000000009999123100000010000000000000BRJALLACNOR0106
012024082802JBSS3       010JBS         ON  ED  NM   R$  000000000349800000000035160000000003477000000000350100000000035040000000003503000000000350513829000000000004505400000000015775385100000000000000009999123100000010000000000000BRJBSSACNOR8122
012024082802MTRE3       010MITRE REALTYON  ED  NM   R$  000000000038700000000003880000000000382000000000038400000000003880000000000387000000000038800916000000000000540000000000000207733900000000000000009999123100000010000000000000BRMTREACNOR6114
012024082802MTSA4       010METISA      PN           R$  000000000440500000000045400000000004405000000000450200000000045400000000004450000000000454000007000000000000000700000000000003151600000000000000009999123100000010000000000000BRMTSAACNPR9072
012024082802MULT3       010MULTIPLAN   ON      N2   R$  000000000264800000000026480000000002605000000000261700000000026140000000002613000000000262012347000000000002666500000000006978335300000000000000009999123100000010000000000000BRMULTACNOR5139
012024082802TAEE11      010TAESA       UNT     N2   R$  000000000348900000000035270000000003460000000000350300000000035220000000003517000000000352305920000000000001015300000000003556600100000000000000009999123100000010000000000000BRTAEECDAM10148
012024082802TAEE3       010TAESA       ON      N2   R$  000000000115600000000011690000000001145000000000115800000000011670000000001164000000000116700374000000000000070200000000000081320200000000000000009999123100000010000000000000BRTAEEACNOR9148
012024082802TAEE4       010TAESA       PN      N2   R$  000000000116400000000011780000000001159000000000117000000000011730000000001173000000000117800527000000000000135500000000000158592500000000000000009999123100000010000000000000BRTAEEACNPR6148
012024082802VAMO3       010VAMOS       ON      NM   R$  000000000081100000000008110000000000786000000000079200000000007940000000000793000000000079423604000000000007644500000000006061461400000000000000009999123100000010000000000000BRVAMOACNOR7105
012024082802RAIL3       010RUMO S.A.   ON      NM   R$  000000000227700000000022780000000002231000000000224200000000022550000000002255000000000225626573000000000016197200000000036327251400000000000000009999123100000010000000000000BRRAILACNOR9105
012024082802RAIZ4       010RAIZEN      PN      N2   R$  000000000032700000000003290000000000321000000000032400000000003270000000000326000000000032708200000000000011631600000000003770134700000000000000009999123100000010000000000000BRRAIZACNPR6111
012024082802SRNA3       010SERENA      ON      NM   R$  000000000085700000000008710000000000843000000000085300000000008470000000000847000000000085403115000000000002296400000000001960667200000000000000009999123100000010000000000000BRSRNAACNOR4100
012024082802STBP3       010SANTOS BRP  ON      NM   R$  000000000130300000000013100000000001281000000000129200000000012930000000001291000000000129312688000000000004301500000000005561250500000000000000009999123100000010000000000000BRSTBPACNOR3131
012024082802SUZB3       010SUZANO S.A. ON      NM   R$  000000000555000000000056260000000005540000000000560100000000056080000000005607000000000561112534000000000004843700000000027133855600000000000000009999123100000010000000000000BRSUZBACNOR0130
012024082802PTNT3       010PETTENATI   ON           R$  000000000094400000000009500000000000944000000000094800000000009500000000000864000000000094800005000000000000001500000000000001422900000000000000009999123100000010000000000000BRPTNTACNOR6042
012024082802PTNT4       010PETTENATI   PN           R$  000000000071000000000007250000000000689000000000070700000000007020000000000702000000000071200050000000000000009600000000000006789500000000000000009999123100000010000000000000BRPTNTACNPR3047
012024082802SNSY3       010SANSUY      ON           R$  000000000123400000000013340000000001234000000000129200000000013340000000001295000000000133300019000000000000005600000000000007240300000000000000009999123100000010000000000000BRSNSYACNOR2113
012024082802SNSY5       010SANSUY      PNA          R$  000000000059000000000006290000000000571000000000059900000000006250000000000615000000000062400089000000000000023600000000000014150100000000000000009999123100000010000000000000BRSNSYACNPA5111
012024082802SOJA3       010BOA SAFRA   ON      NM   R$  000000000136300000000013630000000001328000000000134200000000013320000000001332000000000133702242000000000000530000000000000711534500000000000000009999123100000010000000000000BRSOJAACNOR9105
012024082802BHIA3       010CASAS BAHIA ON      NM   R$  000000000064800000000006760000000000643000000000066200000000006740000000000674000000000067510195000000000004066100000000002693337900000000000000009999123100000010000000000000BRBHIAACNOR1102
012024082802BPAN4       010BANCO PAN   PN      N1   R$  000000000100600000000010080000000000981000000000099700000000010000000000001000000000000100104470000000000001592700000000001588166600000000000000009999123100000010000000000000BRBPANACNPR1115
012024082802BRAP3       010BRADESPAR   ON      N1   R$  000000000180000000000018000000000001772000000000178100000000017870000000001785000000000178700680000000000000103100000000000183660000000000000000009999123100000010000000000000BRBRAPACNOR5148
012024082802BRAP4       010BRADESPAR   PN      N1   R$  000000000194600000000019460000000001915000000000192800000000019300000000001929000000000193306209000000000003025500000000005833363400000000000000009999123100000010000000000000BRBRAPACNPR2148
012024082802ALOS3       010ALLOS       ON      NM   R$  000000000236000000000023770000000002351000000000236400000000023700000000002368000000000237013765000000000004554100000000010767445800000000000000009999123100000010000000000000BRALOSACNOR5101
012024082802ALPA3       010ALPARGATAS  ON      N1   R$  000000000084200000000008420000000000812000000000083000000000008420000000000826000000000084500057000000000000012600000000000010467000000000000000009999123100000010000000000000BRALPAACNOR0231
012024082802ALPA4       010ALPARGATAS  PN      N1   R$  000000000082300000000008240000000000811000000000081600000000008190000000000814000000000082003779000000000001549300000000001265435400000000000000009999123100000010000000000000BRALPAACNPR7232
012024082802CCRO3       010CCR SA      ON      NM   R$  000000000136000000000013640000000001342000000000135200000000013600000000001356000000000136009673000000000004334100000000005861901300000000000000009999123100000010000000000000BRCCROACNOR2145
012024082802CEAB3       010CEA MODAS   ON      NM   R$  000000000105500000000010670000000001028000000000104300000000010370000000001037000000000104105808000000000002115700000000002208645100000000000000009999123100000010000000000000BRCEABACNOR1102
012024082802CEBR3       010CEB         ON           R$  000000000198600000000019970000000001970000000000197700000000019830000000001983000000000198900021000000000000003100000000000006130100000000000000009999123100000010000000000000BRCEBRACNOR5125
012024082802CEBR5       010CEB         PNA          R$  000000000166300000000016670000000001651000000000165700000000016590000000001659000000000166400021000000000000004400000000000007291800000000000000009999123100000010000000000000BRCEBRACNPA8124
012024082802CEBR6       010CEB         PNB          R$  000000000180900000000018090000000001774000000000178500000000017810000000001781000000000179900024000000000000006800000000000012142100000000000000009999123100000010000000000000BRCEBRACNPB6124
012024082802CGAS5       010COMGAS      PNA          R$  000000001163400000000116600000000011621000000001163600000000116210000000011621000000001210000008000000000000000800000000000009309000000000000000009999123100000010000000000000BRCGASACNPA3161
012024082802CGRA4       010GRAZZIOTIN  PN           R$  000000000256200000000025640000000002557000000000255900000000025570000000002557000000000256400019000000000000003200000000000008191900000000000000009999123100000010000000000000BRCGRAACNPR9083
012024082802CLSA3       010CLEARSALE   ON      NM   R$  000000000071100000000007940000000000709000000000075800000000007940000000000792000000000079408776000000000004803800000000003642939100000000000000009999123100000010000000000000BRCLSAACNOR0100
012024082802CLSC4       010CELESC      PN      N2   R$  000000000776000000000078000000000007720000000000778300000000078000000000007760000000000780000012000000000000001300000000000010118400000000000000009999123100000010000000000000BRCLSCACNPR3131
012024082802CMIG3       010CEMIG       ON  ED  N1   R$  000000000136100000000014000000000001358000000000137700000000014000000000001392000000000140000535000000000000101200000000000139436000000000000000009999123100000010000000000000BRCMIGACNOR6243
012024082802CMIG4       010CEMIG       PN  ED  N1   R$  000000000113000000000011650000000001126000000000115000000000011550000000001154000000000115519718000000000013844800000000015933184600000000000000009999123100000010000000000000BRCMIGACNPR3244
012024082802DESK3       010DESKTOP     ON      NM   R$  000000000160900000000016240000000001588000000000160400000000015880000000001584000000000159001089000000000000189900000000000304613800000000000000009999123100000010000000000000BRDESKACNOR2104
012024082802DEXP3       010DEXXOS PAR  ON      N1   R$  000000000097900000000009890000000000974000000000098100000000009820000000000981000000000098200283000000000000073100000000000071715900000000000000009999123100000010000000000000BRDEXPACNOR1105
012024082802DEXP4       010DEXXOS PAR  PN      N1   R$  000000000096000000000009600000000000960000000000095900000000009600000000000950000000000096000013000000000000035500000000000034079700000000000000009999123100000010000000000000BRDEXPACNPR8105
012024082802DIRR3       010DIRECIONAL  ON      NM   R$  000000000289400000000029850000000002873000000000294200000000029850000000002985000000000298610161000000000002136200000000006285153700000000000000009999123100000010000000000000BRDIRRACNOR0118
012024082802DMVF3       010D1000VFARMA ON      NM   R$  000000000073900000000007390000000000723000000000072500000000007280000000000723000000000072800158000000000000035100000000000025478800000000000000009999123100000010000000000000BRDMVFACNOR9100
012024082802AERI3       010AERIS       ON      NM   R$  000000000098600000000010520000000000963000000000101700000000010300000000001021000000000103001118000000000000490900000000000499581500000000000000009999123100000010000000000000BRAERIACNOR4102
012024082802AESB3       010AES BRASIL  ON  ES  NM   R$  000000000114300000000011440000000001139000000000114200000000011440000000001143000000000114401960000000000001840800000000002102871900000000000000009999123100000010000000000000BRAESBACNOR7107
012024082802AFLT3       010AFLUENTE T  ON           R$  000000000072600000000007260000000000721000000000072200000000007210000000000715000000000074400002000000000000000300000000000000216800000000000000009999123100000010000000000000BRAFLTACNOR1122
012024082802AGRO3       010BRASILAGRO  ON      NM   R$  000000000260000000000026180000000002583000000000260400000000026130000000002604000000000261401266000000000000204300000000000532081800000000000000009999123100000010000000000000BRAGROACNOR7114
012024082802AGXY3       010AGROGALAXY  ON      NM   R$  000000000012500000000001250000000000122000000000012300000000001240000000000123000000000012400249000000000000260600000000000032152300000000000000009999123100000010000000000000BRAGXYACNOR4103
012024082802ALLD3       010ALLIED      ON      NM   R$  000000000077000000000007720000000000758000000000076400000000007660000000000763000000000076600116000000000000031000000000000023697200000000000000009999123100000010000000000000BRALLDACNOR3106
012024082802QUAL3       010QUALICORP   ON      NM   R$  000000000020800000000002110000000000199000000000020500000000002080000000000205000000000020802473000000000004383200000000000901577500000000000000009999123100000010000000000000BRQUALACNOR6120
012024082802RADL3       010RAIADROGASILON      NM   R$  000000000275300000000028000000000002742000000000277900000000028000000000002796000000000280019357000000000006736300000000018722669300000000000000009999123100000010000000000000BRRADLACNOR0157
012024082802BAHI3       010BAHEMA      ON      MA   R$  000000000068600000000006860000000000686000000000068600000000006860000000000645000000000068600002000000000000000500000000000000343000000000000000009999123100000010000000000000BRBAHIACNOR1074
012024082802BALM4       010BAUMER      PN           R$  000000000106000000000010600000000001060000000000106000000000010600000000001070000000000108000001000000000000000400000000000000424000000000000000009999123100000010000000000000BRBALMACNPR2056
012024082802BAUH4       010EXCELSIOR   PN           R$  000000000794900000000079880000000007949000000000796800000000079880000000007700000000000798900002000000000000000200000000000001593700000000000000009999123100000010000000000000BRBAUHACNPR3118
012024082802BAZA3       010AMAZONIA    ON           R$  000000000957100000000097790000000009563000000000965000000000097790000000009596000000000978000010000000000000001000000000000009650400000000000000009999123100000010000000000000BRBAZAACNOR0179
012024082802BBAS3       010BRASIL      ON  EX  NM   R$  000000000280000000000028200000000002789000000000280800000000028180000000002818000000000281924474000000000009415600000000026447598800000000000000009999123100000010000000000000BRBBASACNOR3325
012024082802BRBI11      010BR PARTNERS UNT     N2   R$  000000000154400000000015610000000001526000000000154500000000015490000000001549000000000155101571000000000000223600000000000345601400000000000000009999123100000010000000000000BRBRBICDAM10110
012024082802BRFS3       010BRF SA      ON      NM   R$  000000000259200000000026140000000002539000000000258300000000026030000000002602000000000260315372000000000005572200000000014395504400000000000000009999123100000010000000000000BRBRFSACNOR8122
012024082802CSRN3       010COSERN      ON           R$  000000000138100000000014000000000001345000000000136700000000013490000000001348000000000137800028000000000000006600000000000009024300000000000000009999123100000010000000000000BRCSRNACNOR0194
012024082802CSRN5       010COSERN      PNA          R$  000000000150000000000015000000000001500000000000150000000000015000000000001438000000000150000004000000000000001000000000000001500000000000000000009999123100000010000000000000BRCSRNACNPA3194
012024082802CSRN6       010COSERN      PNB          R$  000000000155000000000015500000000001550000000000155000000000015500000000001505000000000235000001000000000000000200000000000000310000000000000000009999123100000010000000000000BRCSRNACNPB1195
012024082802ESPA3       010ESPACOLASER ON      NM   R$  000000000010700000000001090000000000107000000000010700000000001080000000000107000000000010800139000000000000206500000000000022223000000000000000009999123100000010000000000000BRESPAACNOR7103
012024082802ESTR4       010ESTRELA     PN           R$  000000000020700000000002070000000000207000000000020700000000002070000000000207000000000022700001000000000000000200000000000000041400000000000000009999123100000010000000000000BRESTRACNPR0144
012024082802ETER3       010ETERNIT     ON      NM   R$  000000000060200000000006030000000000588000000000059300000000005890000000000589000000000059000544000000000000267600000000000158728900000000000000009999123100000010000000000000BRETERACNOR3244
012024082802EUCA4       010EUCATEX     PN      N1   R$  000000000159400000000015940000000001566000000000158100000000015740000000001574000000000159000230000000000000035600000000000056289000000000000000009999123100000010000000000000BREUCAACNPR8044
012024082802EVEN3       010EVEN        ON      NM   R$  000000000065500000000006700000000000642000000000065800000000006620000000000662000000000066802249000000000000713500000000000469953500000000000000009999123100000010000000000000BREVENACNOR8119
012024082802EZTC3       010EZTEC       ON      NM   R$  000000000148200000000014840000000001463000000000147600000000014840000000001477000000000148403147000000000001093900000000001615463200000000000000009999123100000010000000000000BREZTCACNOR0126
012024082802ITSA3       010ITAUSA      ON      N1   R$  000000000109400000000011170000000001088000000000110600000000011160000000001112000000000111800346000000000000115400000000000127686400000000000000009999123100000010000000000000BRITSAACNOR0441
012024082802ITSA4       010ITAUSA      PN      N1   R$  000000000109200000000011170000000001086000000000110600000000011150000000001114000000000111535770000000000024010400000000026560259900000000000000009999123100000010000000000000BRITSAACNPR7441
012024082802LUPA3       010LUPATECH    ON      NM   R$  000000000015400000000001540000000000150000000000015100000000001540000000000153000000000015400145000000000000152600000000000023155400000000000000009999123100000010000000000000BRLUPAACNOR8112
012024082802LVTC3       010WDC NETWORKSON      NM   R$  000000000037500000000003790000000000367000000000037300000000003700000000000368000000000037000068000000000000022700000000000008470000000000000000009999123100000010000000000000BRLVTCACNOR4102
012024082802LWSA3       010LWSA        ON      NM   R$  000000000047400000000004890000000000472000000000048400000000004800000000000479000000000048010354000000000007337400000000003551679300000000000000009999123100000010000000000000BRLWSAACNOR8103
012024082802MAPT4       010CEMEPE      PN           R$  000000000050000000000005000000000000500000000000050000000000005000000000000502000000000055000001000000000000000100000000000000050000000000000000009999123100000010000000000000BRMAPTACNPR5106
012024082802MATD3       010MATER DEI   ON      NM   R$  000000000047800000000004780000000000461000000000046800000000004690000000000469000000000047202903000000000000605500000000000283710700000000000000009999123100000010000000000000BRMATDACNOR4104
012024082802MBLY3       010MOBLY       ON      NM   R$  000000000028400000000002900000000000273000000000028400000000002850000000000281000000000028501111000000000000803600000000000228506700000000000000009999123100000010000000000000BRMBLYACNOR5100
012024082802MDIA3       010M.DIASBRANCOON      NM   R$  000000000281200000000028250000000002773000000000279800000000028050000000002798000000000280502495000000000000473100000000001323980800000000000000009999123100000010000000000000BRMDIAACNOR7135
012024082802SANB11      010SANTANDER BRUNT          R$  000000000311800000000031560000000003100000000000313000000000031520000000003151000000000315506617000000000001318400000000004127263700000000000000009999123100000010000000000000BRSANBCDAM13165
012024082802SANB3       010SANTANDER BRON           R$  000000000149500000000015040000000001479000000000149200000000014970000000001496000000000150000595000000000000089300000000000133286000000000000000009999123100000010000000000000BRSANBACNOR8172
012024082802SANB4       010SANTANDER BRPN           R$  000000000163300000000016470000000001616000000000163300000000016470000000001644000000000164700449000000000000069900000000000114157400000000000000009999123100000010000000000000BRSANBACNPR5172
012024082802SAPR11      010SANEPAR     UNT     N2   R$  000000000284000000000028730000000002825000000000285200000000028730000000002861000000000287303558000000000000724800000000002067330700000000000000009999123100000010000000000000BRSAPRCDAM13118
012024082802SAPR3       010SANEPAR     ON      N2   R$  000000000054600000000005460000000000538000000000054300000000005400000000000540000000000054400288000000000000080300000000000043603500000000000000009999123100000010000000000000BRSAPRACNOR9159
012024082802SAPR4       010SANEPAR     PN      N2   R$  000000000057300000000005780000000000568000000000057400000000005760000000000575000000000057601806000000000000783000000000000449506400000000000000009999123100000010000000000000BRSAPRACNPR6159
012024082802SBFG3       010GRUPO SBF   ON      NM   R$  000000000176300000000017700000000001736000000000175900000000017700000000001760000000000177104637000000000001036300000000001823108600000000000000009999123100000010000000000000BRSBFGACNOR1103
012024082802SBSP3       010SABESP      ON      NM   R$  000000000962000000000096520000000009558000000000961500000000096350000000009633000000000963522613000000000004651500000000044724728300000000000000009999123100000010000000000000BRSBSPACNOR5161
012024082802BMOB3       010BEMOBI TECH ON      NM   R$  000000000159900000000016140000000001581000000000160000000000016120000000001600000000000161300783000000000000105900000000000169500000000000000000009999123100000010000000000000BRBMOBACNOR7103
012024082802BNBR3       010NORD BRASIL ON  EJ       R$  000000001070000000000107000000000010600000000001065000000000106000000000010350000000001059900002000000000000000200000000000002130000000000000000009999123100000010000000000000BRBNBRACNOR8209
012024082802BOBR4       010BOMBRIL     PN           R$  000000000021700000000002180000000000211000000000021100000000002120000000000211000000000021200025000000000000013100000000000002772100000000000000009999123100000010000000000000BRBOBRACNPR3128
012024082802BRIT3       010BRISANET    ON      NM   R$  000000000036200000000003650000000000356000000000036000000000003600000000000360000000000036300397000000000000270300000000000097563000000000000000009999123100000010000000000000BRBRITACNOR0103
012024082802BRKM3       010BRASKEM     ON      N1   R$  000000000178500000000017950000000001761000000000178500000000017780000000001761000000000179500027000000000000005700000000000010177900000000000000009999123100000010000000000000BRBRKMACNOR1119
012024082802BRKM5       010BRASKEM     PNA     N1   R$  000000000177900000000017960000000001761000000000177900000000017940000000001793000000000179405797000000000001836900000000003269389200000000000000009999123100000010000000000000BRBRKMACNPA4121
012024082802CSUD3       010CSU DIGITAL ON      NM   R$  000000000187000000000019010000000001861000000000188200000000019010000000001878000000000190100176000000000000040600000000000076426400000000000000009999123100000010000000000000BRCSUDACNOR5110
012024082802CTKA4       010KARSTEN     PN           R$  000000000209900000000020990000000002099000000000209900000000020990000000001910000000000209900001000000000000000100000000000000209900000000000000009999123100000010000000000000BRCTKAACNPR7043
012024082802CURY3       010CURY S/A    ON      NM   R$  000000000238900000000024150000000002358000000000238800000000023890000000002389000000000239904767000000000000952600000000002275303200000000000000009999123100000010000000000000BRCURYACNOR3109
012024082802CVCB3       010CVC BRASIL  ON      NM   R$  000000000020800000000002090000000000202000000000020400000000002050000000000204000000000020507339000000000013113200000000002684948200000000000000009999123100000010000000000000BRCVCBACNOR1116
012024082802CXSE3       010CAIXA SEGURION      NM   R$  000000000154500000000015750000000001544000000000156400000000015690000000001568000000000157007850000000000002518300000000003938700300000000000000009999123100000010000000000000BRCXSEACNOR7107
012024082802FESA3       010FERBASA     ON      N1   R$  000000000146100000000014610000000001461000000000146100000000014610000000001351000000000147400002000000000000000200000000000000292200000000000000009999123100000010000000000000BRFESAACNOR8188
012024082802FESA4       010FERBASA     PN      N1   R$  000000000081700000000008170000000000798000000000080200000000008050000000000801000000000080502874000000000000867200000000000696269800000000000000009999123100000010000000000000BRFESAACNPR5084
012024082802FHER3       010FER HERINGERON      NM   R$  000000000041400000000004140000000000414000000000041300000000004140000000000412000000000041400003000000000000000400000000000000165400000000000000009999123100000010000000000000BRFHERACNOR5103
012024082802FIEI3       010FICA        ON           R$  000000000086600000000008950000000000866000000000088000000000008950000000000876000000000089500002000000000000000200000000000000176100000000000000009999123100000010000000000000BRFIEIACNOR2100
012024082802FIQE3       010UNIFIQUE    ON      NM   R$  000000000039000000000003900000000000377000000000038000000000003770000000000377000000000038101252000000000000709400000000000270066300000000000000009999123100000010000000000000BRFIQEACNOR5107
012024082802FLRY3       010FLEURY      ON      NM   R$  000000000160500000000016110000000001589000000000160200000000016110000000001606000000000161111357000000000002730000000000004374248100000000000000009999123100000010000000000000BRFLRYACNOR5139
012024082802FRAS3       010FRAS-LE     ON      N1   R$  000000000195700000000019770000000001932000000000196000000000019760000000001976000000000197701304000000000000280000000000000548864900000000000000009999123100000010000000000000BRFRASACNOR0160
012024082802FRIO3       010METALFRIO   ON      NM   R$  000000001700000000000170000000000016500000000001683300000000165000000000016000000000001700000003000000000000000300000000000005050000000000000000009999123100000010000000000000BRFRIOACNOR2111
012024082802GEPA3       010GER PARANAP ON           R$  000000000264500000000026450000000002645000000000264500000000026450000000002550000000000264500001000000000000000100000000000000264500000000000000009999123100000010000000000000BRGEPAACNOR2153
012024082802GEPA4       010GER PARANAP PN           R$  000000000264500000000026500000000002645000000000264600000000026500000000002625000000000265000003000000000000000300000000000000794000000000000000009999123100000010000000000000BRGEPAACNPR9160
012024082802ITUB3       010ITAUUNIBANCOON      N1   R$  000000000315000000000032270000000003132000000000320200000000032260000000003213000000000322601512000000000000341500000000001093667300000000000000009999123100000010000000000000BRITUBACNOR4339
012024082802ITUB4       010ITAUUNIBANCOPN      N1   R$  000000000363600000000037470000000003623000000000370500000000037370000000003736000000000373948136000000000031881300000000118149512400000000000000009999123100000010000000000000BRITUBACNPR1339
012024082802MDNE3       010MOURA DUBEUXON      NM   R$  000000000143500000000014540000000001409000000000142700000000014460000000001440000000000144701581000000000000447800000000000639306500000000000000009999123100000010000000000000BRMDNEACNOR9100
012024082802MEAL3       010IMC S/A     ON      NM   R$  000000000017200000000001740000000000166000000000016800000000001660000000000166000000000016700340000000000000465500000000000078476600000000000000009999123100000010000000000000BRMEALACNOR9105
012024082802MELK3       010MELNICK     ON      NM   R$  000000000034900000000003520000000000344000000000034700000000003480000000000348000000000034900529000000000000253900000000000088305100000000000000009999123100000010000000000000BRMELKACNOR8111
012024082802MGEL4       010MANGELS INDLPN           R$  000000000111400000000011500000000001113000000000112400000000011500000000001140000000000116000006000000000000000700000000000000786800000000000000009999123100000010000000000000BRMGELACNPR3147
012024082802MGLU3       010MAGAZ LUIZA ON      NM   R$  000000000133300000000013470000000001314000000000132900000000013180000000001318000000000131916665000000000015068200000000020029067900000000000000009999123100000010000000000000BRMGLUACNOR2124
012024082802VALE3       010VALE        ON      NM   R$  000000000593700000000059500000000005868000000000591500000000059370000000005936000000000593748463000000000021280300000000125894017000000000000000009999123100000010000000000000BRVALEACNOR0211
012024082802WLMM3       010WLM IND COM ON           R$  000000000280000000000028500000000002800000000000283300000000028500000000002650000000000285000003000000000000000300000000000000850000000000000000009999123100000010000000000000BRWLMMACNOR6119
012024082802YDUQ3       010YDUQS PART  ON      NM   R$  000000000101700000000010280000000000997000000000100700000000010080000000001007000000000101006678000000000002692300000000002712325200000000000000009999123100000010000000000000BRYDUQACNOR3105
012024082802ZAMP3       010ZAMP S.A.   ON           R$  000000000031500000000003190000000000308000000000031400000000003190000000000318000000000031901644000000000000769900000000000242469900000000000000009999123100000010000000000000BRZAMPACNOR5101
012024082802ODPV3       010ODONTOPREV  ON  ED  NM   R$  000000000115100000000011510000000001129000000000113500000000011340000000001134000000000113505308000000000001202900000000001366152500000000000000009999123100000010000000000000BRODPVACNOR4203
012024082802OFSA3       010OUROFINO S/AON      NM   R$  000000000226000000000022700000000002237000000000225900000000022700000000002126000000000227000011000000000000001600000000000003615800000000000000009999123100000010000000000000BROFSAACNOR7118
012024082802ONCO3       010ONCOCLINICASON      NM   R$  000000000065100000000006640000000000650000000000065800000000006580000000000657000000000065802912000000000002346900000000001544757300000000000000009999123100000010000000000000BRONCOACNOR6101
012024082802OPCT3       010OCEANPACT   ON      NM   R$  000000000064300000000006480000000000637000000000064300000000006460000000000641000000000064604020000000000000660200000000000425079500000000000000009999123100000010000000000000BROPCTACNOR0100
012024082802ORVR3       010ORIZON      ON      NM   R$  000000000462300000000046980000000004579000000000465100000000046940000000004686000000000469502851000000000000429200000000001996510800000000000000009999123100000010000000000000BRORVRACNOR0101
012024082802PATI3       010PANATLANTICAON           R$  000000000402500000000040250000000003902000000000397100000000040000000000003904000000000402500005000000000000000500000000000001985500000000000000009999123100000010000000000000BRPATIACNOR6065
012024082802PATI4       010PANATLANTICAPN           R$  000000000400000000000040500000000004000000000000403000000000040500000000004000000000000420000005000000000000000500000000000002015000000000000000009999123100000010000000000000BRPATIACNPR3065
012024082802PCAR3       010P.ACUCAR-CBDON      NM   R$  000000000032600000000003310000000000320000000000032500000000003290000000000329000000000033004810000000000005916600000000001927287400000000000000009999123100000010000000000000BRPCARACNOR3167
012024082802PFRM3       010PROFARMA    ON      NM   R$  000000000062500000000006400000000000616000000000062800000000006400000000000636000000000064000492000000000000146300000000000091968500000000000000009999123100000010000000000000BRPFRMACNOR1116
012024082802PGMN3       010PAGUE MENOS ON      NM   R$  000000000032600000000003270000000000316000000000032100000000003230000000000323000000000032602372000000000000759600000000000244457100000000000000009999123100000010000000000000BRPGMNACNOR8103
012024082802PINE3       010PINE        ON      N2   R$  000000000055900000000005650000000000559000000000056100000000005600000000000558000000000056000005000000000000001200000000000000673900000000000000009999123100000010000000000000BRPINEACNOR1150
012024082802PINE4       010PINE        PN      N2   R$  000000000049700000000005000000000000491000000000049500000000004960000000000495000000000049600342000000000000131100000000000064938000000000000000009999123100000010000000000000BRPINEACNPR8150
012024082802PLAS3       010PLASCAR PARTON           R$  000000000060200000000006020000000000601000000000060100000000006010000000000608000000000065600002000000000000000300000000000000180500000000000000009999123100000010000000000000BRPLASACNOR2106
012024082802PLPL3       010PLANOEPLANO ON      NM   R$  000000000127500000000012920000000001246000000000126700000000012550000000001255000000000126104005000000000000904700000000001146732200000000000000009999123100000010000000000000BRPLPLACNOR5104
012024082802PNVL3       010DIMED       ON      NM   R$  000000000104400000000010450000000001025000000000103800000000010400000000001040000000000104202371000000000000949400000000000986093400000000000000009999123100000010000000000000BRPNVLACNOR9207
012024082802POMO3       010MARCOPOLO   ON      N2   R$  000000000054400000000005560000000000537000000000054800000000005530000000000552000000000055600374000000000000266100000000000145930800000000000000009999123100000010000000000000BRPOMOACNOR0098
012024082802POMO4       010MARCOPOLO   PN      N2   R$  000000000068400000000007050000000000678000000000069600000000007030000000000701000000000070309848000000000008927600000000006215204100000000000000009999123100000010000000000000BRPOMOACNPR7098
012024082802PORT3       010WILSON SONS ON      NM   R$  000000000175000000000017500000000001722000000000173100000000017300000000001726000000000173302622000000000000779900000000001350473100000000000000009999123100000010000000000000BRPORTACNOR8109
012024082802POSI3       010POSITIVO TECON      NM   R$  000000000067300000000006750000000000661000000000066700000000006620000000000662000000000066302782000000000001383100000000000922911100000000000000009999123100000010000000000000BRPOSIACNOR9116
012024082802PRIO3       010PETRORIO    ON      NM   R$  000000000474500000000047540000000004666000000000472000000000047360000000004736000000000474024343000000000007553500000000035653967100000000000000009999123100000010000000000000BRPRIOACNOR1107
012024082802RSUL4       010RIOSULENSE  PN           R$  000000000637000000000065990000000006370000000000646300000000065000000000006371000000000650000014000000000000001500000000000009695000000000000000009999123100000010000000000000BRRSULACNPR3114
012024082802TOTS3       010TOTVS       ON      NM   R$  000000000313200000000031320000000003041000000000306700000000030760000000003076000000000307708470000000000002155300000000006611853400000000000000009999123100000010000000000000BRTOTSACNOR8145
012024082802VBBR3       010VIBRA       ON      NM   R$  000000000254000000000025930000000002535000000000257100000000025810000000002579000000000258216762000000000007552700000000019423264100000000000000009999123100000010000000000000BRVBBRACNOR1108
012024082802VITT3       010VITTIA      ON      NM   R$  000000000062900000000006380000000000622000000000062800000000006380000000000626000000000063801346000000000000306500000000000192764200000000000000009999123100000010000000000000BRVITTACNOR4107
012024082802VIVA3       010VIVARA S.A. ON      NM   R$  000000000267300000000027270000000002657000000000268700000000026750000000002675000000000268913412000000000003520400000000009461566800000000000000009999123100000010000000000000BRVIVAACNOR0107
012024082802RANI3       010IRANI       ON      NM   R$  000000000080500000000008110000000000801000000000080500000000008070000000000807000000000080803282000000000001403600000000001130843500000000000000009999123100000010000000000000BRRANIACNOR5073
012024082802RAPT3       010RANDON PART ON      N1   R$  000000000087400000000008870000000000870000000000087500000000008780000000000878000000000088400173000000000000047200000000000041332600000000000000009999123100000010000000000000BRRAPTACNOR7163
012024082802RAPT4       010RANDON PART PN      N1   R$  000000000111700000000011250000000001098000000000111200000000011220000000001119000000000112204543000000000001562900000000001738379300000000000000009999123100000010000000000000BRRAPTACNPR4163
012024082802RCSL3       010RECRUSUL    ON           R$  000000000040700000000004180000000000374000000000040200000000004080000000000406000000000040802027000000000000674300000000000271733300000000000000009999123100000010000000000000BRRCSLACNOR4134
012024082802RCSL4       010RECRUSUL    PN           R$  000000000009000000000000900000000000087000000000008800000000000880000000000087000000000008800602000000000000367900000000000032425300000000000000009999123100000010000000000000BRRCSLACNPR1134
012024082802RDNI3       010RNI         ON      NM   R$  000000000031800000000003290000000000316000000000032300000000003260000000000324000000000034400008000000000000000900000000000000290700000000000000009999123100000010000000000000BRRDNIACNOR9116
012024082802RDOR3       010REDE D OR   ON      NM   R$  000000000328000000000033000000000003227000000000327100000000032850000000003284000000000328524664000000000008357500000000027344393500000000000000009999123100000010000000000000BRRDORACNOR8113
012024082802SYNE3       010SYN PROP TECON  ED  NM   R$  000000000080000000000008050000000000793000000000079800000000007960000000000795000000000079600795000000000000242700000000000193693000000000000000009999123100000010000000000000BRSYNEACNOR2103
012024082802HYPE3       010HYPERA      ON      NM   R$  000000000298200000000030350000000002958000000000300100000000030220000000003016000000000302212609000000000002270100000000006813882600000000000000009999123100000010000000000000BRHYPEACNOR0143
012024082802JHSF3       010JHSF PART   ON      NM   R$  000000000044100000000004440000000000433000000000044000000000004440000000000443000000000044403564000000000003235000000000001423400200000000000000009999123100000010000000000000BRJHSFACNOR2138
012024082802JSLG3       010JSL         ON      NM   R$  000000000099100000000009920000000000968000000000098000000000009910000000000985000000000099102575000000000000421900000000000413517500000000000000009999123100000010000000000000BRJSLGACNOR2121
012024082802KEPL3       010KEPLER WEBERON      NM   R$  000000000111700000000011280000000001107000000000111700000000011280000000001119000000000112802428000000000000683200000000000763618400000000000000009999123100000010000000000000BRKEPLACNOR1064
012024082802EGIE3       010ENGIE BRASILON  ED  NM   R$  000000000445300000000044650000000004412000000000443900000000044410000000004429000000000444205513000000000001009200000000004480352000000000000000009999123100000010000000000000BREGIEACNOR9127
012024082802EKTR4       010ELEKTRO     PN           R$  000000000430000000000043220000000004300000000000431100000000043220000000004281000000000432200010000000000000001000000000000004311900000000000000009999123100000010000000000000BREKTRACNPR7164
012024082802ELET3       010ELETROBRAS  ON      N1   R$  000000000412900000000042300000000004108000000000419500000000042040000000004203000000000420421685000000000007491100000000031428360200000000000000009999123100000010000000000000BRELETACNOR6160
012024082802ELET6       010ELETROBRAS  PNB     N1   R$  000000000460300000000046800000000004569000000000464300000000046550000000004653000000000465705784000000000001280200000000005944104000000000000000009999123100000010000000000000BRELETACNPB7077
012024082802EALT3       010ACO ALTONA  ON           R$  000000000135000000000013550000000001350000000000135300000000013530000000001315000000000135500003000000000000000400000000000000541300000000000000009999123100000010000000000000BREALTACNOR4138
012024082802EALT4       010ACO ALTONA  PN           R$  000000000129100000000012950000000001283000000000129100000000012950000000001293000000000129500032000000000000006100000000000007879300000000000000009999123100000010000000000000BREALTACNPR1138
012024082802ECOR3       010ECORODOVIAS ON      NM   R$  000000000080800000000008080000000000773000000000078200000000007800000000000780000000000078207923000000000003210200000000002510616100000000000000009999123100000010000000000000BRECORACNOR8120
012024082802GGPS3       010GPS         ON      NM   R$  000000000180300000000018300000000001798000000000181500000000018160000000001813000000000182005356000000000001097600000000001992150600000000000000009999123100000010000000000000BRGGPSACNOR9103
012024082802GMAT3       010GRUPO MATEUSON      NM   R$  000000000081200000000008160000000000798000000000080500000000008030000000000803000000000080407266000000000004898800000000003944272000000000000000009999123100000010000000000000BRGMATACNOR7102
012024082802GOAU3       010GERDAU MET  ON      N1   R$  000000000106800000000010680000000001043000000000105300000000010580000000001052000000000105800137000000000000042000000000000044236400000000000000009999123100000010000000000000BRGOAUACNOR1268
012024082802GOAU4       010GERDAU MET  PN      N1   R$  000000000104400000000010450000000001026000000000103200000000010330000000001033000000000103506910000000000005001600000000005165256800000000000000009999123100000010000000000000BRGOAUACNPR8269
012024082802MILS3       010MILLS       ON  EDJ NM   R$  000000000111100000000011160000000001097000000000110900000000011120000000001112000000000111302187000000000000513900000000000570162000000000000000009999123100000010000000000000BRMILSACNOR2128
012024082802MLAS3       010MULTILASER  ON      NM   R$  000000000019300000000001960000000000191000000000019300000000001920000000000192000000000019402552000000000001851900000000000358995100000000000000009999123100000010000000000000BRMLASACNOR9101
012024082802MNDL3       010MUNDIAL     ON           R$  000000000113000000000012000000000001130000000000117600000000012000000000001105000000000120900020000000000000007900000000000009291800000000000000009999123100000010000000000000BRMNDLACNOR4109
012024082802MNPR3       010MINUPAR     ON           R$  000000000159800000000016300000000001513000000000159500000000016290000000001522000000000162900029000000000000004900000000000007817600000000000000009999123100000010000000000000BRMNPRACNOR5122
012024082802MOVI3       010MOVIDA      ON      NM   R$  000000000075400000000007570000000000728000000000073800000000007350000000000734000000000073507501000000000003018400000000002227617200000000000000009999123100000010000000000000BRMOVIACNOR0122
012024082802MRFG3       010MARFRIG     ON      NM   R$  000000000146500000000015010000000001456000000000148500000000014990000000001496000000000149915753000000000005476100000000008132470700000000000000009999123100000010000000000000BRMRFGACNOR0116
012024082802MRSA3B      010MRS LOGIST  ON      MB   R$  000000000290100000000031000000000002901000000000298900000000031000000000003000000000000329500006000000000000000900000000000002690500000000000000009999123100000010000000000000BRMRSAACNOR6125
012024082802MRSA6B      010MRS LOGIST  PNB     MB   R$  000000000315000000000031500000000003150000000000315000000000031500000000003000000000000000000001000000000000000200000000000000630000000000000000009999123100000010000000000000BRMRSAACNPB7125
012024082802MRVE3       010MRV         ON      NM   R$  000000000077400000000007850000000000767000000000077500000000007750000000000775000000000077612090000000000010931900000000008473311200000000000000009999123100000010000000000000BRMRVEACNOR2127
012024082802APER3       010ALPER S.A.  ON           R$  000000000464500000000046500000000004630000000000464600000000046470000000004647000000000467500025000000000000005200000000000024162600000000000000009999123100000010000000000000BRAPERACNOR9106
012024082802ARML3       010ARMAC       ON      NM   R$  000000000092900000000009360000000000883000000000089800000000008960000000000894000000000089603848000000000001187700000000001067017100000000000000009999123100000010000000000000BRARMLACNOR1112
012024082802ASAI3       010ASSAI       ON      NM   R$  000000000096200000000009660000000000942000000000095500000000009620000000000958000000000096215826000000000015921500000000015205128600000000000000009999123100000010000000000000BRASAIACNOR0106
012024082802CMIN3       010CSNMINERACAOON      N2   R$  000000000056700000000005680000000000547000000000055600000000005560000000000556000000000055718947000000000016083900000000008949962000000000000000009999123100000010000000000000BRCMINACNOR2111
012024082802COCE5       010COELCE      PNA          R$  000000000311500000000031500000000003092000000000311700000000031500000000003150000000000318300015000000000000001600000000000004987900000000000000009999123100000010000000000000BRCOCEACNPA3147
012024082802COGN3       010COGNA ON    ON  ATZ NM   R$  000000000014100000000001420000000000138000000000013900000000001400000000000140000000000014128893000000000029661300000000004145118100000000000000009999123100000010000000000000BRCOGNACNOR2105
012024082802HAGA3       010HAGA S/A    ON           R$  000000000023800000000002430000000000234000000000023900000000002370000000000237000000000024300013000000000000012000000000000002871900000000000000009999123100000010000000000000BRHAGAACNOR7103
012024082802HAGA4       010HAGA S/A    PN           R$  000000000011800000000001190000000000115000000000011500000000001150000000000115000000000011700012000000000000010600000000000001229500000000000000009999123100000010000000000000BRHAGAACNPR4103
012024082802HAPV3       010HAPVIDA     ON      NM   R$  000000000044200000000004490000000000442000000000044400000000004460000000000445000000000044619126000000000036824900000000016383805800000000000000009999123100000010000000000000BRHAPVACNOR4114
012024082802EQPA5       010EQTL PARA   PNA          R$  000000000079900000000009190000000000799000000000085900000000009190000000000700000000000000000002000000000000000200000000000000171800000000000000009999123100000010000000000000BREQPAACNPA4111
012024082802EQTL3       010EQUATORIAL  ON  ES  NM   R$  000000000346300000000034870000000003438000000000346600000000034720000000003471000000000347224524000000000005290700000000018341512200000000000000009999123100000010000000000000BREQTLACNOR0131
012024082802IFCM3       010INFRACOMM   ON      NM   R$  000000000001800000000000180000000000016000000000001700000000000160000000000016000000000001704785000000000015982300000000000271755500000000000000009999123100000010000000000000BRIFCMACNOR8101
012024082802IGTI11      010IGUATEMI S.AUNT     N1   R$  000000000230000000000023060000000002267000000000228300000000022850000000002281000000000228513263000000000003705900000000008461089100000000000000009999123100000010000000000000BRIGTICDAM16106
012024082802IGTI3       010IGUATEMI S.AON      N1   R$  000000000028600000000002860000000000281000000000028100000000002810000000000281000000000028200056000000000000036100000000000010177900000000000000009999123100000010000000000000BRIGTIACNOR8106
012024082802IGTI4       010IGUATEMI S.APN      N1   R$  000000000100200000000010020000000001002000000000100200000000010020000000000009000000000108400001000000000000000100000000000000100200000000000000009999123100000010000000000000BRIGTIACNPR5106
012024082802INEP3       010INEPAR      ON           R$  000000000020800000000002130000000000203000000000020900000000002130000000000208000000000021200133000000000000035000000000000007327200000000000000009999123100000010000000000000BRINEPACNOR1143
012024082802GRND3       010GRENDENE    ON  ED  NM   R$  000000000061700000000006170000000000607000000000061000000000006080000000000608000000000060901576000000000000599000000000000365849600000000000000009999123100000010000000000000BRGRNDACNOR3175
012024082802GUAR3       010GUARARAPES  ON      NM   R$  000000000087900000000009120000000000872000000000089900000000009020000000000902000000000090303830000000000001176900000000001058970900000000000000009999123100000010000000000000BRGUARACNOR4173
012024082802DOHL4       010DOHLER      PN           R$  000000000041400000000004150000000000414000000000041400000000004150000000000415000000000042200004000000000000000400000000000000165900000000000000009999123100000010000000000000BRDOHLACNPR9066
012024082802DOTZ3       010DOTZ SA     ON      NM   R$  000000000083300000000009070000000000825000000000088800000000008700000000000860000000000087001102000000000000393000000000000348996500000000000000009999123100000010000000000000BRDOTZACNOR7101
012024082802DTCY3       010DTCOM-DIRECTON           R$  000000000045000000000004600000000000450000000000045100000000004600000000000450000000000047000002000000000000000900000000000000406000000000000000009999123100000010000000000000BRDTCYACNOR5109
012024082802DXCO3       010DEXCO       ON      NM   R$  000000000081500000000008280000000000801000000000081700000000008200000000000820000000000082404342000000000002125600000000001737160300000000000000009999123100000010000000000000BRDXCOACNOR8105
012024082802BEES3       010BANESTES    ON           R$  000000000090300000000009040000000000899000000000090000000000009000000000000899000000000090000041000000000000005400000000000004861600000000000000009999123100000010000000000000BRBEESACNOR9394
012024082802BEES4       010BANESTES    PN           R$  000000000098500000000009880000000000975000000000098200000000009760000000000976000000000098700045000000000000006300000000000006190100000000000000009999123100000010000000000000BRBEESACNPR6319
012024082802BGIP4       010BANESE      PN  EJ       R$  000000000239900000000023990000000002350000000000238900000000023500000000002316000000000239900003000000000000000500000000000001194600000000000000009999123100000010000000000000BRBGIPACNPR8209
012024082802KRSA3       010KORA SAUDE  ON      NM   R$  000000000005900000000000610000000000059000000000006000000000000600000000000060000000000006100076000000000000134400000000000008122600000000000000009999123100000010000000000000BRKRSAACNOR0100
012024082802LAND3       010TERRASANTAPAON      NM   R$  000000000141600000000014170000000001365000000000139300000000013950000000001388000000000140200485000000000000110300000000000153650400000000000000009999123100000010000000000000BRLANDACNOR9103
012024082802LAVV3       010LAVVI       ON      NM   R$  000000000088200000000008830000000000869000000000087500000000008760000000000874000000000087901409000000000000259200000000000227009600000000000000009999123100000010000000000000BRLAVVACNOR4113
012024082802LEVE3       010METAL LEVE  ON      NM   R$  000000000314300000000031990000000003130000000000316600000000031840000000003182000000000318502039000000000000368700000000001167427400000000000000009999123100000010000000000000BRLEVEACNOR2197
012024082802CSED3       010CRUZEIRO EDUON  ED  NM   R$  000000000038100000000003820000000000372000000000037500000000003740000000000374000000000037600792000000000000504600000000000189444200000000000000009999123100000010000000000000BRCSEDACNOR9105
012024082802CSMG3       010COPASA      ON      NM   R$  000000000231900000000023550000000002302000000000233500000000023430000000002342000000000234403546000000000000689700000000001610543900000000000000009999123100000010000000000000BRCSMGACNOR5174
012024082802CSNA3       010SID NACIONALON           R$  000000000122400000000012240000000001162000000000118400000000011910000000001190000000000119118720000000000010007400000000011849962700000000000000009999123100000010000000000000BRCSNAACNOR6261
012024082802ENEV3       010ENEVA       ON      NM   R$  000000000137500000000013790000000001359000000000136600000000013620000000001361000000000136211996000000000008652200000000011825008300000000000000009999123100000010000000000000BRENEVACNOR8106
012024082802ENGI11      010ENERGISA    UNT     N2   R$  000000000477000000000047900000000004733000000000476500000000047890000000004776000000000479313560000000000002493700000000011883180500000000000000009999123100000010000000000000BRENGICDAM16136
012024082802ENGI3       010ENERGISA    ON      N2   R$  000000000140800000000014620000000001403000000000142900000000014620000000001405000000000146600040000000000000004500000000000006434500000000000000009999123100000010000000000000BRENGIACNOR0146
012024082802ENGI4       010ENERGISA    PN      N2   R$  000000000085400000000008540000000000829000000000083500000000008300000000000830000000000083600030000000000000004700000000000003929000000000000000009999123100000010000000000000BRENGIACNPR7142
012024082802ENJU3       010ENJOEI      ON      NM   R$  000000000017000000000001700000000000162000000000016500000000001630000000000163000000000016400722000000000000718200000000000119146400000000000000009999123100000010000000000000BRENJUACNOR9100
012024082802ENMT4       010ENERGISA MT PN           R$  000000000771000000000077100000000007600000000000767400000000076000000000005200000000000799000005000000000000000700000000000005372300000000000000009999123100000010000000000000BRENMTACNPR2126
012024082802EPAR3       010EMBPAR S/A  ON           R$  000000000058900000000005950000000000589000000000059200000000005930000000000587000000000059300006000000000000001000000000000000592000000000000000009999123100000010000000000000BREPARACNOR9105
012024082802EQPA3       010EQTL PARA   ON           R$  000000000057200000000005860000000000567000000000057700000000005860000000000581000000000058600079000000000000023300000000000013457700000000000000009999123100000010000000000000BREQPAACNOR1111
012024082802MYPK3       010IOCHP-MAXIONON      NM   R$  000000000115000000000011920000000001142000000000117400000000011820000000001181000000000118204900000000000001219200000000001432547000000000000000009999123100000010000000000000BRMYPKACNOR7155
012024082802BEEF3       010MINERVA     ON      NM   R$  000000000077200000000007750000000000747000000000075900000000007640000000000764000000000076510926000000000008778100000000006667623400000000000000009999123100000010000000000000BRBEEFACNOR6116
012024082802INEP4       010INEPAR      PN           R$  000000000021300000000002140000000000209000000000021200000000002140000000000209000000000021400017000000000000003800000000000000808500000000000000009999123100000010000000000000BRINEPACNPR8143
012024082802INTB3       010INTELBRAS   ON      NM   R$  000000000223500000000022520000000002212000000000223600000000022450000000002232000000000224503810000000000000598300000000001337933600000000000000009999123100000010000000000000BRINTBACNOR9112
012024082802IRBR3       010IRBBRASIL REON      NM   R$  000000000487100000000049250000000004841000000000488200000000049000000000004900000000000490105656000000000001343300000000006559197500000000000000009999123100000010000000000000BRIRBRACNOR4111
012024082802LOGG3       010LOG COM PROPON      NM   R$  000000000240500000000024240000000002384000000000240700000000024050000000002400000000000240502077000000000000246500000000000593488700000000000000009999123100000010000000000000BRLOGGACNOR7107
012024082802LOGN3       010LOG-IN      ON      NM   R$  000000000364500000000036470000000003630000000000363800000000036300000000003630000000000364900032000000000000004100000000000014915800000000000000009999123100000010000000000000BRLOGNACNOR3105
012024082802LPSB3       010LOPES BRASILON      NM   R$  000000000017600000000001760000000000171000000000017200000000001720000000000172000000000017300181000000000000083800000000000014456300000000000000009999123100000010000000000000BRLPSBACNOR0114
012024082802LREN3       010LOJAS RENNERON      NM   R$  000000000182900000000018490000000001763000000000178700000000017660000000001766000000000176736356000000000028282000000000050567629600000000000000009999123100000010000000000000BRLRENACNOR1221
012024082802PDGR3       010PDG REALT   ON      NM   R$  000000000001700000000000170000000000016000000000001600000000000170000000000016000000000001700277000000000000730600000000000012073800000000000000009999123100000010000000000000BRPDGRACNOR8119
012024082802PDTC3       010PADTEC      ON      NM   R$  000000000020900000000002170000000000204000000000021100000000002150000000000212000000000021500152000000000000102600000000000021731300000000000000009999123100000010000000000000BRPDTCACNOR3101
012024082802PETR3       010PETROBRAS   ON  EDJ N2   R$  000000000420400000000043520000000004200000000000430300000000043290000000004329000000000433026613000000000011347800000000048837576900000000000000009999123100000010000000000000BRPETRACNOR9206
012024082802PETR4       010PETROBRAS   PN  EDJ N2   R$  000000000389400000000039860000000003878000000000394400000000039600000000003960000000000396165221000000000043284500000000170749190900000000000000009999123100000010000000000000BRPETRACNPR6214
012024082802AZZA3       010AZZAS 2154  ON      NM   R$  000000000536600000000053800000000005270000000000533100000000052960000000005294000000000530906143000000000001167000000000006222104300000000000000009999123100000010000000000000BRAZZAACNOR9100
012024082802B3SA3       010B3          ON      NM   R$  000000000125700000000012760000000001256000000000126900000000012700000000001269000000000127041070000000000030210200000000038352162600000000000000009999123100000010000000000000BRB3SAACNOR6133
012024082802BPAC11      010BTGP BANCO  UNT     N2   R$  000000000359500000000036420000000003554000000000360500000000036360000000003635000000000363714818000000000005749400000000020727174300000000000000009999123100000010000000000000BRBPACUNT006119
012024082802BPAC3       010BTGP BANCO  ON      N2   R$  000000000165800000000016610000000001653000000000165700000000016560000000001656000000000167500007000000000000000900000000000001491300000000000000009999123100000010000000000000BRBPACACNOR7134
012024082802BPAC5       010BTGP BANCO  PNA     N2   R$  000000000095000000000009580000000000943000000000095000000000009570000000000946000000000097300010000000000000001400000000000001330100000000000000009999123100000010000000000000BRBPACACNPA0134
012024082802CPFE3       010CPFL ENERGIAON      NM   R$  000000000329000000000033150000000003255000000000328900000000033040000000003303000000000330406630000000000001464100000000004816588800000000000000009999123100000010000000000000BRCPFEACNOR0137
012024082802CPLE3       010COPEL       ON      N2   R$  000000000094500000000009510000000000935000000000094500000000009490000000000945000000000095007788000000000003759100000000003552953500000000000000009999123100000010000000000000BRCPLEACNOR8149
012024082802CPLE6       010COPEL       PNB     N2   R$  000000000104300000000010590000000001042000000000105100000000010540000000001053000000000105416890000000000012186800000000012813606900000000000000009999123100000010000000000000BRCPLEACNPB9146
012024082802CRFB3       010CARREFOUR BRON      NM   R$  000000000093500000000009470000000000922000000000093500000000009350000000000935000000000093808755000000000005921300000000005537679700000000000000009999123100000010000000000000BRCRFBACNOR2116
012024082802CRPG5       010CRISTAL     PNA          R$  000000000286200000000029000000000002842000000000287400000000029000000000002836000000000290000014000000000000002600000000000007473400000000000000009999123100000010000000000000BRCRPGACNPA3119
012024082802CRPG6       010CRISTAL     PNB          R$  000000000286900000000028990000000002869000000000287400000000028990000000002850000000000294900003000000000000000700000000000002011800000000000000009999123100000010000000000000BRCRPGACNPB1119
012024082802CSAN3       010COSAN       ON      NM   R$  000000000139100000000013910000000001354000000000136700000000013660000000001366000000000136717850000000000008662300000000011845922100000000000000009999123100000010000000000000BRCSANACNOR6126
012024082802ELMD3       010ELETROMIDIA ON      NM   R$  000000000185100000000018700000000001834000000000185000000000018420000000001828000000000184500285000000000000038400000000000071058400000000000000009999123100000010000000000000BRELMDACNOR3101
012024082802EMAE4       010EMAE        PN           R$  000000000412300000000041580000000004085000000000410600000000041580000000004092000000000415900040000000000000010700000000000043940100000000000000009999123100000010000000000000BREMAEACNPR1125
012024082802EMBR3       010EMBRAER     ON      NM   R$  000000000456600000000046940000000004560000000000465000000000046570000000004657000000000465828242000000000007145100000000033225597700000000000000009999123100000010000000000000BREMBRACNOR4191
012024082802KLBN11      010KLABIN S/A  UNT     N2   R$  000000000218900000000022050000000002185000000000219500000000021960000000002194000000000219608060000000000001973500000000004332134400000000000000009999123100000010000000000000BRKLBNCDAM18143
012024082802KLBN3       010KLABIN S/A  ON      N2   R$  000000000044300000000004430000000000438000000000044000000000004390000000000439000000000044000319000000000000119000000000000052475700000000000000009999123100000010000000000000BRKLBNACNOR2171
012024082802KLBN4       010KLABIN S/A  PN      N2   R$  000000000043800000000004400000000000436000000000043800000000004380000000000438000000000043900835000000000000433500000000000189949800000000000000009999123100000010000000000000BRKLBNACNPR9171
012024082802LJQQ3       010QUERO-QUERO ON      NM   R$  000000000044700000000004470000000000436000000000044100000000004400000000000440000000000044304698000000000001531600000000000676198800000000000000009999123100000010000000000000BRLJQQACNOR5104
012024082802ATOM3       010ATOMPAR     ON           R$  000000000020500000000002100000000000204000000000020400000000002100000000000205000000000021000013000000000000003600000000000000737700000000000000009999123100000010000000000000BRATOMACNOR1106
012024082802AURE3       010AUREN       ON      NM   R$  000000000114500000000011480000000001138000000000114300000000011460000000001146000000000114705910000000000002536200000000002900964600000000000000009999123100000010000000000000BRAUREACNOR9104
012024082802AVLL3       010ALPHAVILLE  ON      NM   R$  000000000040200000000004020000000000402000000000040200000000004020000000000394000000000040000001000000000000002000000000000000804000000000000000009999123100000010000000000000BRAVLLACNOR5103
012024082802AZEV3       010AZEVEDO     ON           R$  000000000014100000000001420000000000139000000000014000000000001410000000000140000000000014200321000000000000233600000000000032834500000000000000009999123100000010000000000000BRAZEVACNOR0121
012024082802AZEV4       010AZEVEDO     PN           R$  000000000014000000000001420000000000139000000000014000000000001400000000000139000000000014001118000000000001352800000000000189668400000000000000009999123100000010000000000000BRAZEVACNPR7121
012024082802AZUL4       010AZUL        PN      N2   R$  000000000074500000000007450000000000725000000000073300000000007250000000000725000000000072609725000000000016179900000000011863977400000000000000009999123100000010000000000000BRAZULACNPR4102
012024082807TXRX4       010TEX RENAUX  PN           R$  000000000022600000000002370000000000226000000000023500000000002360000000000228000000000023700003000000000000003200000000000000754300000000000000009999123100000010000000000000BRTXRXACNPR0142
012024082807NUTR3       010NUTRIPLANT  ON      MA   R$  000000000048300000000004830000000000464000000000047700000000004710000000000469000000000048100031000000000000006900000000000003292400000000000000009999123100000010000000000000BRNUTRACNOR0104
012024082808AMER3       010AMERICANAS  ON  EG  NM   R$  000000000070600000000007580000000000672000000000071900000000007100000000000709000000000071018354000000000014433200000000010385479400000000000000009999123100000010000000000000BRAMERACNOR6103
012024082808RNEW11      010RENOVA      UNT     N2   R$  000000000029600000000002980000000000293000000000029400000000002970000000000294000000000029700016000000000000005100000000000001502100000000000000009999123100000010000000000000BRRNEWCDAM15110
012024082808RNEW3       010RENOVA      ON      N2   R$  000000000010000000000001010000000000097000000000009800000000001010000000000099000000000010100047000000000000024500000000000002414600000000000000009999123100000010000000000000BRRNEWACNOR8110
012024082808RNEW4       010RENOVA      PN      N2   R$  000000000010000000000001010000000000098000000000009900000000000980000000000098000000000010000075000000000000046000000000000004576800000000000000009999123100000010000000000000BRRNEWACNPR5110
012024082808RPMG3       010PET MANGUINHON           R$  000000000028500000000003050000000000285000000000029500000000002910000000000288000000000029600060000000000000035000000000000010349000000000000000009999123100000010000000000000BRRPMGACNOR9194
012024082808TEKA4       010TEKA        PN           R$  000000000303000000000030300000000003030000000000303000000000030300000000002810000000000340000001000000000000000100000000000000303000000000000000009999123100000010000000000000BRTEKAACNPR3140
012024082808HOOT4       010HOTEIS OTHONPN           R$  000000000023400000000002350000000000230000000000023100000000002300000000000226000000000023400004000000000000000700000000000000162300000000000000009999123100000010000000000000BRHOOTACNPR9015
012024082808NEXP3       010NEXPE       ON           R$  000000000040300000000004100000000000403000000000040500000000004100000000000401000000000041000005000000000000000800000000000000324300000000000000009999123100000010000000000000BRNEXPACNOR0101
012024082808CTSA3       010SANTANENSE  ON           R$  000000000027400000000002750000000000271000000000027200000000002750000000000271000000000027500006000000000000000600000000000000163600000000000000009999123100000010000000000000BRCTSAACNOR3062
012024082808CTSA4       010SANTANENSE  PN           R$  000000000014100000000001440000000000125000000000013100000000001250000000000125000000000012800400000000000000161900000000000021317000000000000000009999123100000010000000000000BRCTSAACNPR0062
012024082808OIBR3       010OI          ON      N1   R$  000000000047100000000005390000000000460000000000050700000000005300000000000529000000000053003783000000000002941600000000001494014500000000000000009999123100000010000000000000BROIBRACNOR1111
012024082808OIBR4       010OI          PN      N1   R$  000000000120800000000012600000000001205000000000122900000000012150000000001215000000000124000060000000000000011000000000000013521100000000000000009999123100000010000000000000BROIBRACNPR8110
012024082808OSXB3       010OSX BRASIL  ON      NM   R$  000000000038000000000003800000000000379000000000037900000000003790000000000377000000000038200004000000000000001400000000000000531000000000000000009999123100000010000000000000BROSXBACNOR8109
012024082808PMAM3       010PARANAPANEMAON      NM   R$  000000000019900000000001990000000000197000000000019800000000001970000000000197000000000019900074000000000000023800000000000004724000000000000000009999123100000010000000000000BRPMAMACNOR3039
012024082808RSID3       010ROSSI RESID ON      NM   R$  000000000038700000000003920000000000385000000000038800000000003900000000000386000000000039000055000000000000007700000000000002995200000000000000009999123100000010000000000000BRRSIDACNOR8120
012024082808JFEN3       010JOAO FORTES ON           R$  000000000002300000000000230000000000022000000000002200000000000220000000000022000000000002300518000000000001401900000000000031029900000000000000009999123100000010000000000000BRJFENACNOR0059
012024082808LIGT3       010LIGHT S/A   ON      NM   R$  000000000060000000000006280000000000594000000000061800000000006270000000000623000000000062804208000000000001535000000000000949937000000000000000009999123100000010000000000000BRLIGTACNOR2124
012024082808ATMP3       010ATMASA      ON           R$  000000000014700000000001470000000000134000000000013700000000001390000000000137000000000013900086000000000000077100000000000010606300000000000000009999123100000010000000000000BRATMPACNOR8100
012024082810RENT9       010LOCALIZA    ON  REC NM   R$  000000000426500000000042650000000004265000000000426500000000042650000000004210000000000442300001000000000000000100000000000000426500000000000000009999123100000010000000000000BRRENTR06OR8195
012024082810AESB1       010AES BRASIL  DIR ORD NM   R$  000000000003700000000000550000000000013000000000002900000000000220000000000018000000000002300097000000000000053400000000000001566700000000000000009999123100000010000000000000BRAESBD03OR8106
012024082810GFSA1       010GAFISA      DIR ORD NM   R$  000000000000200000000000030000000000002000000000000200000000000020000000000002000000000000300208000000000000707300000000000001621700000000000000009999123100000010000000000000BRGFSAD11OR7124
012024082810EQTL1       010EQUATORIAL  DIR ORD NM   R$  000000000026700000000002790000000000235000000000025900000000002790000000000261000000000028000927000000000000315400000000000081849200000000000000009999123100000010000000000000BREQTLD04OR9130
012024082812SJAU11      010FII SJ AU   CI           R$  000000000595000000000059500000000005950000000000595000000000059500000000005503000000000595000001000000000000000003000000000000017850000000000000009999123100000010000000000000BRSJAUCTF009102
012024082812SMRE11      010FII SMRE    CI  ES       R$  000000001000000000000100000000000010000000000001000000000000100000000000010000000000001020000010000000000000001090000000000010900000000000000000009999123100000010000000000000BRSMRECTF001104
012024082812PRSN11      010FII PERSONALCI           R$  000000000010800000000001090000000000108000000000010800000000001090000000000108000000000010900004000000000000000020000000000000002173000000000000009999123100000010000000000000BRPRSNCTF005125
012024082812PRSV11      010FII P VARGASCI           R$  000000000580200000000058020000000005802000000000580200000000058020000000005802000000000619900001000000000000000020000000000000116040000000000000009999123100000010000000000000BRPRSVCTF008226
012024082812BBRC11      010FII BB CORP CI           R$  000000001153000000000115500000000011450000000001152900000000115500000000011538000000001155000086000000000000000951000000000010964829000000000000009999123100000010000000000000BRBBRCCTF004255
012024082812HCRI11      010FII CRIANCA CI           R$  000000002828800000000283000000000028200000000002828200000000282000000000028151000000002820000018000000000000000080000000000002262587000000000000009999123100000010000000000000BRHCRICTF006331
012024082812HCTR11      010FII HECTARE CI           R$  000000000293600000000029590000000002934000000000294900000000029450000000002945000000000294601168000000000000028393000000000083751599000000000000009999123100000010000000000000BRHCTRCTF003172
012024082812HDOF11      010FII HEDGE OFCI           R$  000000000883200000000088320000000008832000000000883200000000088320000000008832000000001150000003000000000000013554000000000119708928000000000000009999123100000010000000000000BRHDOFCTF007100
012024082812HFOF11      010FII HTOPFOF3CI           R$  000000000697000000000069810000000006930000000000695800000000069700000000006936000000000697008234000000000000021909000000000152450134000000000000009999123100000010000000000000BRHFOFCTF002191
012024082812HGBL11      010FII HGBL    CI           R$  000000000102200000000010260000000001018000000000102200000000010260000000001022000000000102600068000000000000003744000000000003828226000000000000009999123100000010000000000000BRHGBLCTF005107
012024082812HGBS11      010FII HEDGEBS CI           R$  000000002120500000000212320000000021170000000002119900000000211900000000021190000000002120402546000000000000012320000000000261180099000000000000009999123100000010000000000000BRHGBSCTF000312
012024082812HGCR11      010FII HGCR PAXCI           R$  000000001036500000000103650000000010307000000001032800000000103190000000010312000000001031903772000000000000033579000000000346834490000000000000009999123100000010000000000000BRHGCRCTF000248
012024082812HGFF11      010FII HGFF PAXCI           R$  000000000845800000000085120000000008404000000000843100000000084100000000008406000000000843400687000000000000004557000000000038421186000000000000009999123100000010000000000000BRHGFFCTF008162
012024082812HGIC11      010FII HGI CRI CI           R$  000000000959800000000095980000000009598000000000959800000000095980000000009598000000000969900003000000000000000021000000000000201558000000000000009999123100000010000000000000BRHGICCTF009142
012024082812NAVT11      010FII NAVI TOTCI           R$  000000000885700000000088900000000008700000000000881100000000088880000000008760000000000888800154000000000000002034000000000017923564000000000000009999123100000010000000000000BRNAVTCTF015141
012024082812NCHB11      010FII NCH BR  CI           R$  000000000092600000000009320000000000926000000000093000000000009300000000000930000000000093100169000000000000006156000000000005726862000000000000009999123100000010000000000000BRNCHBCTF000232
012024082812NCRI11      010FII NAVI CRICI           R$  000000000088000000000008800000000000864000000000087400000000008780000000000874000000000087800009000000000000000069000000000000060371000000000000009999123100000010000000000000BRNCRICTF004120
012024082812URPR11      010FII URCA RENCI           R$  000000000827700000000082870000000008256000000000826900000000082710000000008265000000000827100787000000000000012222000000000101068740000000000000009999123100000010000000000000BRURPRCTF002160
012024082812WHGR11      010FII WHG REALCI           R$  000000000097400000000009740000000000968000000000097100000000009680000000000969000000000097000228000000000000006361000000000006181866000000000000009999123100000010000000000000BRWHGRCTF008127
012024082812ABCP11      010FII ABC IMOBCI           R$  000000000720000000000072500000000007200000000000723700000000072000000000007200000000000724900081000000000000000799000000000005782544000000000000009999123100000010000000000000BRABCPCTF000341
012024082812BROF11      010FII BROF    CI  ER       R$  000000000475000000000047590000000004729000000000474500000000047500000000004741000000000475000841000000000000003841000000000018227126000000000000009999123100000010000000000000BRBROFCTF000116
012024082812NSLU11      010FII LOURDES CI           R$  000000001849300000000184930000000018230000000001837100000000183880000000018233000000001838700034000000000000000127000000000002333146000000000000009999123100000010000000000000BRNSLUCTF008313
012024082812ALZM11      010FII ALIANZMECI           R$  000000000077000000000007750000000000769000000000077100000000007700000000000771000000000077301206000000000000012695000000000009790003000000000000009999123100000010000000000000BRALZMCTF007125
012024082812ALZR11      010FII ALIANZA CI  ER       R$  000000001076000000000107700000000010730000000001075300000000107600000000010742000000001076002013000000000000013561000000000145833809000000000000009999123100000010000000000000BRALZRCTF006185
012024082812RENV11      010FII RENV    CI           R$  000000000100500000000010050000000001002000000000100400000000010050000000001002000000000100500008000000000000000123000000000000123595000000000000009999123100000010000000000000BRRENVCTF003100
012024082812RFOF11      010FII RB CFOF CI           R$  000000000709600000000071800000000007095000000000715000000000071510000000007152000000000715900049000000000000000544000000000003889618000000000000009999123100000010000000000000BRRFOFCTF001153
012024082812RINV11      010FII REAL INVCI           R$  000000001094000000000109450000000010927000000001093400000000109350000000010932000000001093500155000000000000002925000000000031982340000000000000009999123100000010000000000000BRRINVCTF004121
012024082812RNDP11      010FII BB R PAPCI           R$  000000000635100000000063530000000006201000000000634900000000062010000000006202000000000635300012000000000000000062000000000000393696000000000000009999123100000010000000000000BRRNDPCTF007250
012024082812RNGO11      010FII RIONEGROCI           R$  000000000464000000000046650000000004608000000000463800000000046450000000004635000000000464600075000000000000000900000000000004174763000000000000009999123100000010000000000000BRRNGOCTF003245
012024082812BTAL11      010FII BTG AGROCI  ER       R$  000000000787900000000078790000000007735000000000777100000000077660000000007766000000000777001237000000000000020627000000000160303740000000000000009999123100000010000000000000BRBTALCTF003142
012024082812BTCI11      010FII BTG CRI CI           R$  000000000099500000000009960000000000990000000000099300000000009940000000000994000000000099506172000000000000126331000000000125498285000000000000009999123100000010000000000000BRBTCICTF005122
012024082812BTHI11      010BTG HOTEL FICI           R$  000000000410000000000041460000000004065000000000410000000000041200000000004090000000000414500048000000000000004421000000000018126302000000000000009999123100000010000000000000BRBTHICTF004111
012024082812BTLG11      010FII BTLG    CI           R$  000000001019500000000102290000000010123000000001018600000000101940000000010194000000001020912496000000000000081266000000000827814338000000000000009999123100000010000000000000BRBTLGCTF000165
012024082812BTRA11      010FII BTG TAGRCI  ER       R$  000000000464900000000046490000000004601000000000461200000000046010000000004601000000000460400226000000000000004139000000000019090820000000000000009999123100000010000000000000BRBTRACTF000139
012024082812RPRI11      010FII RBR PR  CI           R$  000000000926900000000093000000000009234000000000929000000000092880000000009234000000000928900400000000000000009377000000000087112777000000000000009999123100000010000000000000BRRPRICTF007130
