00COTAHIST.2024BOVESPA 20240802                                                                                                                                                                                                                      
012024080202VIVA3       010VIVARA S.A. ON      NM   R$  000000000237000000000024450000000002365000000000240100000000024360000000002420000000000243613029000000000003717700000000008928834100000000000000009999123100000010000000000000BRVIVAACNOR0107
012024080202SANB11      010SANTANDER BRUNT          R$  000000000290100000000029120000000002809000000000284300000000028250000000002825000000000282907110000000000002369600000000006736920200000000000000009999123100000010000000000000BRSANBCDAM13165
012024080202SANB3       010SANTANDER BRON           R$  000000000137800000000013810000000001330000000000135000000000013420000000001336000000000134300435000000000000070300000000000094954500000000000000009999123100000010000000000000BRSANBACNOR8172
012024080202SANB4       010SANTANDER BRPN           R$  000000000152000000000015280000000001468000000000149100000000014680000000001468000000000149100523000000000000077900000000000116152400000000000000009999123100000010000000000000BRSANBACNPR5172
012024080202SAPR11      010SANEPAR     UNT     N2   R$  000000000278500000000028650000000002785000000000284300000000028500000000002850000000000285107603000000000001600300000000004550621100000000000000009999123100000010000000000000BRSAPRCDAM13118
012024080202SAPR3       010SANEPAR     ON      N2   R$  000000000052500000000005340000000000522000000000052800000000005260000000000526000000000052801025000000000000260400000000000137519500000000000000009999123100000010000000000000BRSAPRACNOR9159
012024080202PNVL3       010DIMED       ON      NM   R$  000000000101700000000010320000000001007000000000101500000000010210000000001018000000000102201685000000000000227000000000000230620200000000000000009999123100000010000000000000BRPNVLACNOR9207
012024080202POMO3       010MARCOPOLO   ON      N2   R$  000000000050800000000005300000000000490000000000051000000000005300000000000524000000000053001218000000000000374100000000000190792700000000000000009999123100000010000000000000BRPOMOACNOR0098
012024080202POMO4       010MARCOPOLO   PN      N2   R$  000000000066000000000006780000000000622000000000065600000000006780000000000675000000000067816591000000000015970300000000010485162000000000000000009999123100000010000000000000BRPOMOACNPR7098
012024080202PORT3       010WILSON SONS ON      NM   R$  000000000160600000000016200000000001598000000000160800000000016120000000001603000000000161201105000000000000193800000000000311670400000000000000009999123100000010000000000000BRPORTACNOR8109
012024080202POSI3       010POSITIVO TECON      NM   R$  000000000069700000000007170000000000688000000000070500000000007100000000000710000000000071104162000000000001425400000000001005074500000000000000009999123100000010000000000000BRPOSIACNOR9116
012024080202PRIO3       010PETRORIO    ON      NM   R$  000000000478000000000048010000000004582000000000463000000000046010000000004600000000000460434193000000000011815700000000054707718300000000000000009999123100000010000000000000BRPRIOACNOR1107
012024080202RSUL4       010RIOSULENSE  PN           R$  000000000609900000000060990000000005900000000000600200000000060900000000005902000000000610000022000000000000003300000000000019809100000000000000009999123100000010000000000000BRRSULACNPR3114
012024080202SAPR4       010SANEPAR     PN      N2   R$  000000000056200000000005810000000000562000000000057500000000005780000000000577000000000057803489000000000001679400000000000967223400000000000000009999123100000010000000000000BRSAPRACNPR6159
012024080202UNIP3       010UNIPAR      ON           R$  000000000499200000000050780000000004978000000000503700000000050180000000005018000000000502600047000000000000005200000000000026195200000000000000009999123100000010000000000000BRUNIPACNOR7206
012024080202UNIP5       010UNIPAR      PNA          R$  000000000518100000000051810000000005181000000000518100000000051810000000005011000000000528400001000000000000000100000000000000518100000000000000009999123100000010000000000000BRUNIPACNPA0208
012024080202UNIP6       010UNIPAR      PNB          R$  000000000508100000000052000000000005058000000000514000000000051220000000005119000000000513001031000000000000186300000000000957600000000000000000009999123100000010000000000000BRUNIPACNPB8206
012024080202USIM3       010USIMINAS    ON      N1   R$  000000000059100000000006010000000000584000000000059000000000005880000000000588000000000058901809000000000000707700000000000418020100000000000000009999123100000010000000000000BRUSIMACNOR3167
012024080202USIM5       010USIMINAS    PNA     N1   R$  000000000061200000000006200000000000593000000000060300000000005940000000000594000000000059521206000000000021849100000000013184378100000000000000009999123100000010000000000000BRUSIMACNPA6169
012024080202IRBR3       010IRBBRASIL REON      NM   R$  000000000287200000000029660000000002848000000000288200000000028650000000002861000000000287003353000000000000667300000000001923735800000000000000009999123100000010000000000000BRIRBRACNOR4111
012024080202LUPA3       010LUPATECH    ON      NM   R$  000000000017400000000001740000000000170000000000017100000000001710000000000171000000000017200257000000000000096000000000000016488600000000000000009999123100000010000000000000BRLUPAACNOR8112
012024080202LVTC3       010WDC NETWORKSON      NM   R$  000000000035100000000003640000000000339000000000034700000000003440000000000344000000000034800062000000000000021100000000000007323700000000000000009999123100000010000000000000BRLVTCACNOR4102
012024080202LWSA3       010LWSA        ON      NM   R$  000000000042800000000004400000000000428000000000043400000000004380000000000438000000000043909177000000000003675900000000001598610900000000000000009999123100000010000000000000BRLWSAACNOR8103
012024080202CSRN3       010COSERN      ON  ED       R$  000000000167100000000017990000000001650000000000167500000000017400000000001650000000000176500025000000000000005100000000000008545200000000000000009999123100000010000000000000BRCSRNACNOR0194
012024080202CSUD3       010CSU DIGITAL ON      NM   R$  000000000195100000000019850000000001929000000000194400000000019700000000001960000000000197000311000000000000048400000000000094093700000000000000009999123100000010000000000000BRCSUDACNOR5110
012024080202CTKA4       010KARSTEN     PN           R$  000000000180000000000018000000000001800000000000180000000000018000000000001711000000000188000001000000000000000100000000000000180000000000000000009999123100000010000000000000BRCTKAACNPR7043
012024080202CURY3       010CURY S/A    ON      NM   R$  000000000219300000000022530000000002172000000000219900000000021930000000002193000000000219508566000000000001745900000000003840815200000000000000009999123100000010000000000000BRCURYACNOR3109
012024080202CVCB3       010CVC BRASIL  ON      NM   R$  000000000017900000000001870000000000178000000000018200000000001850000000000185000000000018603866000000000011939900000000002182644600000000000000009999123100000010000000000000BRCVCBACNOR1116
012024080202ELMD3       010ELETROMIDIA ON      NM   R$  000000000173000000000017670000000001704000000000174200000000017670000000001765000000000176800384000000000000149200000000000260049900000000000000009999123100000010000000000000BRELMDACNOR3101
012024080202EMAE4       010EMAE        PN           R$  000000000419000000000041900000000004165000000000417700000000041700000000004165000000000424000016000000000000002500000000000010442900000000000000009999123100000010000000000000BREMAEACNPR1125
012024080202EMBR3       010EMBRAER     ON      NM   R$  000000000420300000000042290000000003882000000000397300000000039250000000003921000000000392732888000000000010929600000000043433480600000000000000009999123100000010000000000000BREMBRACNOR4191
012024080202HAPV3       010HAPVIDA     ON      NM   R$  000000000042100000000004310000000000418000000000042500000000004300000000000430000000000043134939000000000073792500000000031414282500000000000000009999123100000010000000000000BRHAPVACNOR4114
012024080202HBOR3       010HELBOR      ON      NM   R$  000000000022300000000002250000000000219000000000022100000000002200000000000220000000000022100368000000000000272100000000000060165400000000000000009999123100000010000000000000BRHBORACNOR3118
012024080202HBRE3       010HBR REALTY  ON      NM   R$  000000000053200000000005420000000000522000000000052800000000005350000000000534000000000053500599000000000000302200000000000159839000000000000000009999123100000010000000000000BRHBREACNOR4100
012024080202HBSA3       010HIDROVIAS   ON      NM   R$  000000000034000000000003510000000000327000000000034400000000003490000000000345000000000034904825000000000002125200000000000732306700000000000000009999123100000010000000000000BRHBSAACNOR0100
012024080202JALL3       010JALLESMACHADON  ED  NM   R$  000000000068500000000006850000000000650000000000065900000000006620000000000660000000000066202895000000000001443400000000000951629200000000000000009999123100000010000000000000BRJALLACNOR0106
012024080202JBSS3       010JBS         ON      NM   R$  000000000344900000000034580000000003295000000000336100000000033160000000003315000000000331820714000000000007284000000000024487762300000000000000009999123100000010000000000000BRJBSSACNOR8121
012024080202MRSA3B      010MRS LOGIST  ON      MB   R$  000000000310000000000032990000000003100000000000323200000000032990000000003000000000000000000002000000000000000300000000000000969800000000000000009999123100000010000000000000BRMRSAACNOR6125
012024080202MRSA5B      010MRS LOGIST  PNA     MB   R$  000000000310000000000031000000000003000000000000306600000000030000000000003000000000000400000002000000000000000300000000000000920000000000000000009999123100000010000000000000BRMRSAACNPA9125
012024080202MRSA6B      010MRS LOGIST  PNB     MB   R$  000000000310000000000032990000000003100000000000323200000000032990000000003000000000000000000002000000000000000300000000000000969800000000000000009999123100000010000000000000BRMRSAACNPB7125
012024080202MRVE3       010MRV         ON      NM   R$  000000000066500000000006800000000000660000000000067100000000006720000000000671000000000067207942000000000008552500000000005741564600000000000000009999123100000010000000000000BRMRVEACNOR2127
012024080202BEES3       010BANESTES    ON  EJ       R$  000000000089600000000009020000000000882000000000089500000000008950000000000894000000000090000074000000000000018800000000000016831200000000000000009999123100000010000000000000BRBEESACNOR9394
012024080202BEES4       010BANESTES    PN  EJ       R$  000000000096200000000009680000000000959000000000096200000000009620000000000950000000000096200011000000000000001700000000000001637000000000000000009999123100000010000000000000BRBEESACNPR6319
012024080202ITSA3       010ITAUSA      ON      N1   R$  000000000099400000000010000000000000984000000000098800000000009860000000000983000000000098600437000000000000107600000000000106364000000000000000009999123100000010000000000000BRITSAACNOR0441
012024080202ITSA4       010ITAUSA      PN      N1   R$  000000000099600000000010010000000000980000000000098600000000009840000000000984000000000098524662000000000023136500000000022815809700000000000000009999123100000010000000000000BRITSAACNPR7441
012024080202BGIP3       010BANESE      ON           R$  000000000240000000000024100000000002400000000000240700000000024100000000002400000000000245000003000000000000000400000000000000963000000000000000009999123100000010000000000000BRBGIPACNOR1208
012024080202BGIP4       010BANESE      PN           R$  000000000229900000000022990000000002236000000000225400000000022360000000002212000000000229000004000000000000000600000000000001352500000000000000009999123100000010000000000000BRBGIPACNPR8208
012024080202BHIA3       010CASAS BAHIA ON      NM   R$  000000000042700000000004350000000000418000000000042300000000004200000000000419000000000042003683000000000005542600000000002348489400000000000000009999123100000010000000000000BRBHIAACNOR1102
012024080202BIOM3       010BIOMM       ON      MA   R$  000000000095000000000009710000000000896000000000093500000000009300000000000930000000000094600359000000000000071800000000000067173000000000000000009999123100000010000000000000BRBIOMACNOR2112
012024080202BRBI11      010BR PARTNERS UNT     N2   R$  000000000140700000000014240000000001395000000000140700000000014240000000001405000000000142600752000000000000139200000000000195922800000000000000009999123100000010000000000000BRBRBICDAM10109
012024080202BRFS3       010BRF SA      ON      NM   R$  000000000213600000000021580000000002091000000000210800000000020950000000002094000000000209710107000000000004385000000000009245921200000000000000009999123100000010000000000000BRBRFSACNOR8122
012024080202EALT3       010ACO ALTONA  ON           R$  000000000125200000000012790000000001252000000000126200000000012790000000000000000000000127900003000000000000000300000000000000378600000000000000009999123100000010000000000000BREALTACNOR4138
012024080202EALT4       010ACO ALTONA  PN           R$  000000000124700000000012590000000001220000000000124200000000012430000000001220000000000124400051000000000000017200000000000021371800000000000000009999123100000010000000000000BREALTACNPR1138
012024080202ECOR3       010ECORODOVIAS ON      NM   R$  000000000074900000000007790000000000746000000000076500000000007680000000000766000000000076806924000000000004521600000000003460683300000000000000009999123100000010000000000000BRECORACNOR8120
012024080202EGIE3       010ENGIE BRASILON      NM   R$  000000000443600000000044940000000004403000000000442400000000044110000000004409000000000441504665000000000000865600000000003830275700000000000000009999123100000010000000000000BREGIEACNOR9126
012024080202GGPS3       010GPS         ON      NM   R$  000000000178600000000018030000000001768000000000179300000000018020000000001801000000000180206384000000000002870100000000005146917000000000000000009999123100000010000000000000BRGGPSACNOR9103
012024080202GMAT3       010GRUPO MATEUSON      NM   R$  000000000067100000000006990000000000669000000000069000000000006990000000000699000000000070007292000000000004382400000000003026021300000000000000009999123100000010000000000000BRGMATACNOR7102
012024080202GOAU3       010GERDAU MET  ON      N1   R$  000000000105600000000010770000000001030000000000104100000000010410000000001032000000000104100370000000000000075500000000000078666600000000000000009999123100000010000000000000BRGOAUACNOR1267
012024080202GOAU4       010GERDAU MET  PN      N1   R$  000000000106000000000010720000000001013000000000103100000000010190000000001018000000000101912148000000000008369100000000008633323600000000000000009999123100000010000000000000BRGOAUACNPR8268
012024080202PETZ3       010PETZ        ON      NM   R$  000000000034400000000003630000000000343000000000035400000000003630000000000359000000000036308242000000000008213100000000002914526400000000000000009999123100000010000000000000BRPETZACNOR2110
012024080202ROMI3       010ROMI        ON      NM   R$  000000000104800000000010630000000001037000000000104500000000010480000000001043000000000104800830000000000000149800000000000156569900000000000000009999123100000010000000000000BRROMIACNOR8195
012024080202RRRP3       0103R PETROLEUMON      NM   R$  000000000266400000000026860000000002577000000000262500000000026640000000002652000000000266415550000000000005940200000000015597860000000000000000009999123100000010000000000000BRRRRPACNOR5103
012024080202TASA3       010TAURUS ARMASON      N2   R$  000000000113800000000011440000000001125000000000113400000000011340000000001130000000000114500037000000000000004600000000000005220100000000000000009999123100000010000000000000BRTASAACNOR7104
012024080202TASA4       010TAURUS ARMASPN      N2   R$  000000000112500000000011300000000001105000000000111600000000011180000000001117000000000112000816000000000000142800000000000159499900000000000000009999123100000010000000000000BRTASAACNPR4104
012024080202TCSA3       010TECNISA     ON      NM   R$  000000000020900000000002110000000000200000000000020600000000002070000000000207000000000021000154000000000000050800000000000010482800000000000000009999123100000010000000000000BRTCSAACNOR3112
012024080202TECN3       010TECHNOS     ON      NM   R$  000000000052700000000005360000000000519000000000052500000000005270000000000521000000000052700173000000000000056900000000000029888700000000000000009999123100000010000000000000BRTECNACNOR6109
012024080202TELB3       010TELEBRAS    ON           R$  000000000135500000000013550000000001355000000000135500000000013550000000001330000000000135900001000000000000000100000000000000135500000000000000009999123100000010000000000000BRTELBACNOR2140
012024080202TELB4       010TELEBRAS    PN           R$  000000000095900000000009910000000000945000000000097500000000009910000000000990000000000099500020000000000000002500000000000002439800000000000000009999123100000010000000000000BRTELBACNPR9140
012024080202TEND3       010TENDA       ON      NM   R$  000000000129900000000013440000000001297000000000132200000000013220000000001318000000000132307965000000000002158500000000002853776000000000000000009999123100000010000000000000BRTENDACNOR4111
012024080202TFCO4       010TRACK FIELD PN      N2   R$  000000000114800000000011600000000001120000000000113900000000011450000000001133000000000114500368000000000000085500000000000097451400000000000000009999123100000010000000000000BRTFCOACNPR8114
012024080202TGMA3       010TEGMA       ON      NM   R$  000000000245100000000024580000000002415000000000243100000000024300000000002429000000000243500647000000000000102200000000000248518300000000000000009999123100000010000000000000BRTGMAACNOR7144
012024080202TIMS3       010TIM         ON      NM   R$  000000000175600000000017850000000001743000000000176800000000017680000000001763000000000176908461000000000005744600000000010161083900000000000000009999123100000010000000000000BRTIMSACNOR5117
012024080202TOTS3       010TOTVS       ON      NM   R$  000000000276400000000027770000000002729000000000275200000000027620000000002762000000000276409793000000000002177400000000005993925300000000000000009999123100000010000000000000BRTOTSACNOR8144
012024080202RECV3       010PETRORECSA  ON      NM   R$  000000000203000000000020600000000001979000000000199800000000019870000000001987000000000199006216000000000002862700000000005721342800000000000000009999123100000010000000000000BRRECVACNOR3107
012024080202REDE3       010REDE ENERGIAON           R$  000000000069300000000006980000000000693000000000069600000000006970000000000693000000000069700007000000000000001600000000000001114600000000000000009999123100000010000000000000BRREDEACNOR7128
012024080202RENT3       010LOCALIZA    ON      NM   R$  000000000435500000000045080000000004355000000000446400000000045080000000004506000000000450933162000000000010079000000000044996151800000000000000009999123100000010000000000000BRRENTACNOR4196
012024080202SYNE3       010SYN PROP TECON      NM   R$  000000000102300000000010360000000001014000000000102200000000010250000000001016000000000102500880000000000000330100000000000337480200000000000000009999123100000010000000000000BRSYNEACNOR2102
012024080202TAEE11      010TAESA       UNT     N2   R$  000000000341200000000034880000000003412000000000345900000000034680000000003460000000000346908685000000000002307000000000007980080700000000000000009999123100000010000000000000BRTAEECDAM10147
012024080202TAEE3       010TAESA       ON      N2   R$  000000000113500000000011510000000001134000000000114400000000011480000000001145000000000114800736000000000000148900000000000170353100000000000000009999123100000010000000000000BRTAEEACNOR9147
012024080202TAEE4       010TAESA       PN      N2   R$  000000000114000000000011620000000001140000000000115400000000011610000000001157000000000116200766000000000000175500000000000202633600000000000000009999123100000010000000000000BRTAEEACNPR6147
012024080202WEST3       010WESTWING    ON      NM   R$  000000000008700000000000890000000000085000000000008600000000000880000000000087000000000008800051000000000000053000000000000004567500000000000000009999123100000010000000000000BRWESTACNOR3100
012024080202WHRL3       010WHIRLPOOL   ON           R$  000000000044500000000004450000000000445000000000044500000000004450000000000441000000000044500001000000000000000700000000000000311500000000000000009999123100000010000000000000BRWHRLACNOR5128
012024080202WHRL4       010WHIRLPOOL   PN           R$  000000000044700000000004480000000000439000000000044100000000004400000000000440000000000044400017000000000000003700000000000001632000000000000000009999123100000010000000000000BRWHRLACNPR2128
012024080202WIZC3       010WIZ CO      ON      NM   R$  000000000059100000000006010000000000589000000000059300000000005970000000000595000000000059701070000000000000237000000000000140658400000000000000009999123100000010000000000000BRWIZCACNOR5102
012024080202WLMM3       010WLM IND COM ON           R$  000000000265000000000026550000000002650000000000265200000000026550000000002500000000000265000002000000000000000200000000000000530500000000000000009999123100000010000000000000BRWLMMACNOR6118
012024080202WLMM4       010WLM IND COM PN           R$  000000000316000000000031600000000003160000000000316000000000031600000000002901000000000316000001000000000000000100000000000000316000000000000000009999123100000010000000000000BRWLMMACNPR3118
012024080202MATD3       010MATER DEI   ON      NM   R$  000000000045900000000004700000000000453000000000046100000000004690000000000462000000000046901334000000000000301300000000000138960200000000000000009999123100000010000000000000BRMATDACNOR4104
012024080202MBLY3       010MOBLY       ON      NM   R$  000000000027300000000002820000000000270000000000027200000000002730000000000271000000000027300421000000000000869800000000000237287900000000000000009999123100000010000000000000BRMBLYACNOR5100
012024080202MGLU3       010MAGAZ LUIZA ON      NM   R$  000000000108800000000011590000000001088000000000113400000000011570000000001156000000000115724188000000000025948200000000029430921700000000000000009999123100000010000000000000BRMGLUACNOR2124
012024080202ALUP3       010ALUPAR      ON      N2   R$  000000000109900000000010990000000001080000000000108800000000010900000000001075000000000109700038000000000000004900000000000005333600000000000000009999123100000010000000000000BRALUPACNOR8119
012024080202ALUP4       010ALUPAR      PN      N2   R$  000000000103600000000010460000000001001000000000102000000000010050000000001004000000000102200102000000000000016500000000000016838100000000000000009999123100000010000000000000BRALUPACNPR5119
012024080202AMAR3       010LOJAS MARISAON      NM   R$  000000000014200000000001440000000000141000000000014200000000001420000000000141000000000014200331000000000000126100000000000017945800000000000000009999123100000010000000000000BRAMARACNOR4115
012024080202AMBP3       010AMBIPAR     ON      NM   R$  000000000527700000000066900000000005178000000000610700000000066900000000006620000000000669023176000000000007810300000000047703077700000000000000009999123100000010000000000000BRAMBPACNOR6103
012024080202ANIM3       010ANIMA       ON      NM   R$  000000000035600000000003640000000000345000000000035200000000003540000000000353000000000035505982000000000003048600000000001075440600000000000000009999123100000010000000000000BRANIMACNOR6108
012024080202APER3       010ALPER S.A.  ON           R$  000000000451200000000045120000000004410000000000449900000000044990000000004499000000000454000032000000000000004600000000000020697900000000000000009999123100000010000000000000BRAPERACNOR9106
012024080202CEBR3       010CEB         ON           R$  000000000192900000000019290000000001911000000000192000000000019280000000001883000000000200000020000000000000005400000000000010373300000000000000009999123100000010000000000000BRCEBRACNOR5125
012024080202IFCM3       010INFRACOMM   ON      NM   R$  000000000003400000000000360000000000034000000000003400000000000350000000000035000000000003601459000000000003410400000000000118977100000000000000009999123100000010000000000000BRIFCMACNOR8101
012024080202IGTI11      010IGUATEMI S.AUNT     N1   R$  000000000211600000000021610000000002110000000000212800000000021440000000002130000000000214408243000000000002463900000000005244414200000000000000009999123100000010000000000000BRIGTICDAM16106
012024080202IGTI3       010IGUATEMI S.AON      N1   R$  000000000026000000000002660000000000260000000000026100000000002630000000000260000000000026300077000000000000029600000000000007746300000000000000009999123100000010000000000000BRIGTIACNOR8106
012024080202IGTI4       010IGUATEMI S.APN      N1   R$  000000000094500000000009450000000000945000000000094300000000009450000000000865000000000094000002000000000000000300000000000000283000000000000000009999123100000010000000000000BRIGTIACNPR5106
012024080202INEP3       010INEPAR      ON           R$  000000000018400000000001900000000000179000000000018400000000001900000000000184000000000019000096000000000000046400000000000008567000000000000000009999123100000010000000000000BRINEPACNOR1143
012024080202INEP4       010INEPAR      PN           R$  000000000018300000000001870000000000179000000000018200000000001860000000000183000000000018700021000000000000006400000000000001170400000000000000009999123100000010000000000000BRINEPACNPR8143
012024080202INTB3       010INTELBRAS   ON  ED  NM   R$  000000000212000000000021710000000002093000000000213800000000021600000000002153000000000216004653000000000001685500000000003604470900000000000000009999123100000010000000000000BRINTBACNOR9112
012024080202PTBL3       010PORTOBELLO  ON      NM   R$  000000000042500000000004390000000000421000000000042900000000004350000000000433000000000043701101000000000000587700000000000252632800000000000000009999123100000010000000000000BRPTBLACNOR8132
012024080202PTNT3       010PETTENATI   ON           R$  000000000090900000000009650000000000909000000000094300000000009640000000000906000000000094700006000000000000000700000000000000660100000000000000009999123100000010000000000000BRPTNTACNOR6042
012024080202PTNT4       010PETTENATI   PN           R$  000000000063500000000006470000000000630000000000064100000000006470000000000638000000000064800007000000000000002700000000000001730900000000000000009999123100000010000000000000BRPTNTACNPR3047
012024080202QUAL3       010QUALICORP   ON      NM   R$  000000000014900000000001580000000000149000000000015200000000001530000000000152000000000015302047000000000003054400000000000464605200000000000000009999123100000010000000000000BRQUALACNOR6120
012024080202ESTR4       010ESTRELA     PN           R$  000000000023200000000002320000000000200000000000020800000000002040000000000203000000000021100022000000000000007400000000000001545100000000000000009999123100000010000000000000BRESTRACNPR0144
012024080202EUCA3       010EUCATEX     ON      N1   R$  000000000162500000000016250000000001625000000000162500000000016250000000001540000000000167500001000000000000000100000000000000162500000000000000009999123100000010000000000000BREUCAACNOR1157
012024080202EUCA4       010EUCATEX     PN      N1   R$  000000000154100000000015410000000001478000000000149700000000014850000000001485000000000150000280000000000000053800000000000080549000000000000000009999123100000010000000000000BREUCAACNPR8044
012024080202EVEN3       010EVEN        ON      NM   R$  000000000061700000000006290000000000609000000000061900000000006190000000000617000000000062102659000000000000483200000000000299580900000000000000009999123100000010000000000000BREVENACNOR8119
012024080202EZTC3       010EZTEC       ON      NM   R$  000000000133500000000014250000000001308000000000138100000000013900000000001390000000000139113543000000000005725500000000007912284500000000000000009999123100000010000000000000BREZTCACNOR0125
012024080202CEBR5       010CEB         PNA          R$  000000000173600000000017360000000001698000000000171200000000016980000000001695000000000171800034000000000000007300000000000012499900000000000000009999123100000010000000000000BRCEBRACNPA8124
012024080202CEBR6       010CEB         PNB          R$  000000000181000000000018100000000001759000000000177700000000017600000000001755000000000179000109000000000000018300000000000032521400000000000000009999123100000010000000000000BRCEBRACNPB6124
012024080202CEDO3       010CEDRO       ON      N1   R$  000000000276600000000027660000000002766000000000276600000000027660000000002766000000000288000001000000000000000100000000000000276600000000000000009999123100000010000000000000BRCEDOACNOR8096
012024080202CEDO4       010CEDRO       PN      N1   R$  000000000220100000000023990000000002201000000000236600000000023990000000002161000000000239900004000000000000000600000000000001419600000000000000009999123100000010000000000000BRCEDOACNPR5128
012024080202CEEB3       010COELBA      ON           R$  000000000412400000000041240000000003950000000000399300000000039710000000003970000000000408400005000000000000000500000000000001996700000000000000009999123100000010000000000000BRCEEBACNOR3199
012024080202CGAS3       010COMGAS      ON           R$  000000001051000000000105100000000010510000000001051000000000105100000000010301000000001199900001000000000000000100000000000001051000000000000000009999123100000010000000000000BRCGASACNOR0163
012024080202CGAS5       010COMGAS      PNA          R$  000000001100100000000110500000000011001000000001102500000000110500000000011000000000001125000002000000000000000200000000000002205100000000000000009999123100000010000000000000BRCGASACNPA3160
012024080202CGRA3       010GRAZZIOTIN  ON           R$  000000000249900000000025200000000002499000000000250300000000025200000000002500000000000252300009000000000000001600000000000004006100000000000000009999123100000010000000000000BRCGRAACNOR2083
012024080202CGRA4       010GRAZZIOTIN  PN           R$  000000000250000000000025770000000002484000000000251800000000025010000000002502000000000252800032000000000000005600000000000014104500000000000000009999123100000010000000000000BRCGRAACNPR9083
012024080202CIEL3       010CIELO       ON      NM   R$  000000000057600000000005820000000000575000000000057600000000005780000000000577000000000057807137000000000077603700000000044767129200000000000000009999123100000010000000000000BRCIELACNOR3157
012024080202CLSA3       010CLEARSALE   ON      NM   R$  000000000079000000000008100000000000776000000000079100000000007940000000000788000000000079403433000000000001390900000000001100933800000000000000009999123100000010000000000000BRCLSAACNOR0100
012024080202CLSC3       010CELESC      ON      N2   R$  000000000689800000000071400000000006898000000000701900000000071400000000006750000000000718900002000000000000000200000000000001403800000000000000009999123100000010000000000000BRCLSCACNOR6152
012024080202CLSC4       010CELESC      PN      N2   R$  000000000753000000000075300000000007514000000000752200000000075140000000007456000000000751500002000000000000000200000000000001504400000000000000009999123100000010000000000000BRCLSCACNPR3131
012024080202CMIG3       010CEMIG       ON      N1   R$  000000000126900000000012710000000001245000000000125600000000012450000000001245000000000125400335000000000000050100000000000062946200000000000000009999123100000010000000000000BRCMIGACNOR6242
012024080202CMIG4       010CEMIG       PN      N1   R$  000000000108700000000011000000000001068000000000107600000000010680000000001068000000000107216231000000000008929800000000009614235100000000000000009999123100000010000000000000BRCMIGACNPR3243
012024080202ESPA3       010ESPACOLASER ON      NM   R$  000000000009600000000001000000000000096000000000009800000000001000000000000099000000000010000487000000000000275000000000000027067800000000000000009999123100000010000000000000BRESPAACNOR7103
012024080202MWET4       010WETZEL S/A  PN           R$  000000000092000000000009200000000000900000000000091000000000009000000000000851000000000093400002000000000000000200000000000000182000000000000000009999123100000010000000000000BRMWETACNPR3118
012024080202MYPK3       010IOCHP-MAXIONON      NM   R$  000000000123700000000012440000000001192000000000120900000000012040000000001204000000000120705415000000000001078300000000001303924600000000000000009999123100000010000000000000BRMYPKACNOR7155
012024080202NEOE3       010NEOENERGIA  ON      NM   R$  000000000182600000000018500000000001825000000000183600000000018380000000001838000000000184002800000000000000546100000000001002747700000000000000009999123100000010000000000000BRNEOEACNOR3123
012024080202NGRD3       010NEOGRID     ON      NM   R$  000000000011800000000001200000000000114000000000011600000000001150000000000115000000000011600605000000000000506900000000000058940000000000000000009999123100000010000000000000BRNGRDACNOR3104
012024080202NINJ3       010GETNINJAS   ON      NM   R$  000000000047800000000004930000000000478000000000048700000000004900000000000480000000000049200060000000000000022500000000000010970500000000000000009999123100000010000000000000BRNINJACNOR5101
012024080202NORD3       010NORDON MET  ON           R$  000000000112800000000011280000000001102000000000111500000000011020000000001051000000000115000003000000000000000300000000000000334500000000000000009999123100000010000000000000BRNORDACNOR7135
012024080202NTCO3       010GRUPO NATURAON      NM   R$  000000000147500000000015170000000001474000000000148900000000014890000000001488000000000149009173000000000005908900000000008800506700000000000000009999123100000010000000000000BRNTCOACNOR5106
012024080202PRNR3       010PRINER      ON      NM   R$  000000000100500000000010560000000001000000000000102500000000010560000000001052000000000105701394000000000000273500000000000280339600000000000000009999123100000010000000000000BRPRNRACNOR4109
012024080202PSSA3       010PORTO SEGUROON      NM   R$  000000000306000000000030950000000003051000000000306700000000030760000000003074000000000307804859000000000001800100000000005521323300000000000000009999123100000010000000000000BRPSSAACNOR7155
012024080202ENJU3       010ENJOEI      ON      NM   R$  000000000018100000000001960000000000181000000000018800000000001880000000000188000000000019101396000000000001095800000000000206886600000000000000009999123100000010000000000000BRENJUACNOR9100
012024080202EPAR3       010EMBPAR S/A  ON           R$  000000000059200000000005960000000000588000000000059400000000005880000000000587000000000059900034000000000000008600000000000005109400000000000000009999123100000010000000000000BREPARACNOR9105
012024080202EQPA3       010EQTL PARA   ON           R$  000000000071700000000007190000000000714000000000071600000000007150000000000715000000000071600013000000000000002200000000000001575700000000000000009999123100000010000000000000BREQPAACNOR1111
012024080202EQTL3       010EQUATORIAL  ON      NM   R$  000000000330800000000033610000000003295000000000332100000000033060000000003305000000000331320675000000000006158300000000020455007200000000000000009999123100000010000000000000BREQTLACNOR0130
012024080202OPCT3       010OCEANPACT   ON      NM   R$  000000000063600000000006470000000000630000000000063700000000006470000000000640000000000064802153000000000000375500000000000239386100000000000000009999123100000010000000000000BROPCTACNOR0100
012024080202ORVR3       010ORIZON      ON      NM   R$  000000000424900000000042600000000004187000000000422400000000042200000000004220000000000422501605000000000000412400000000001742183400000000000000009999123100000010000000000000BRORVRACNOR0101
012024080202AALR3       010ALLIAR      ON      NM   R$  000000000104800000000010480000000001008000000000101800000000010110000000001005000000000101200134000000000000019200000000000019547800000000000000009999123100000010000000000000BRAALRACNOR6102
012024080202VSTE3       010VESTE       ON      NM   R$  000000000139500000000013950000000001373000000000137800000000013760000000001375000000000139500004000000000000000500000000000000689400000000000000009999123100000010000000000000BRVSTEACNOR5103
012024080202VTRU3       010VITRUEDUCA  ON      NM   R$  000000000124800000000012770000000001220000000000124200000000012200000000001220000000000123600182000000000000030300000000000037648400000000000000009999123100000010000000000000BRVTRUACNOR3100
012024080202VULC3       010VULCABRAS   ON      NM   R$  000000000155100000000015790000000001548000000000156300000000015780000000001574000000000157804772000000000000900300000000001407248800000000000000009999123100000010000000000000BRVULCACNOR2159
012024080202VVEO3       010VIVEO       ON      NM   R$  000000000021400000000002250000000000210000000000021600000000002200000000000220000000000022204109000000000001927400000000000417954700000000000000009999123100000010000000000000BRVVEOACNOR0104
012024080202MTRE3       010MITRE REALTYON      NM   R$  000000000039500000000003970000000000384000000000038800000000003910000000000390000000000039101680000000000000577100000000000224309600000000000000009999123100000010000000000000BRMTREACNOR6113
012024080202MTSA4       010METISA      PN           R$  000000000437000000000043700000000004330000000000434700000000043500000000004232000000000435000011000000000000001200000000000005217500000000000000009999123100000010000000000000BRMTSAACNPR9072
012024080202MULT3       010MULTIPLAN   ON      N2   R$  000000000242800000000024880000000002427000000000246200000000024800000000002464000000000248016413000000000005657900000000013934488400000000000000009999123100000010000000000000BRMULTACNOR5139
012024080202ABCB4       010ABC BRASIL  PN      N2   R$  000000000226900000000023060000000002251000000000227600000000022750000000002275000000000227603293000000000000487000000000001108554200000000000000009999123100000010000000000000BRABCBACNPR4146
012024080202ABEV3       010AMBEV S/A   ON           R$  000000000117000000000011870000000001169000000000118100000000011870000000001186000000000118820508000000000029718400000000035107398400000000000000009999123100000010000000000000BRABEVACNOR1128
012024080202SBFG3       010GRUPO SBF   ON      NM   R$  000000000153500000000015470000000001495000000000152200000000015420000000001540000000000154309218000000000002059400000000003136191200000000000000009999123100000010000000000000BRSBFGACNOR1103
012024080202SBSP3       010SABESP      ON      NM   R$  000000000899000000000090100000000008887000000000894200000000089310000000008931000000000894516658000000000003208700000000028692316400000000000000009999123100000010000000000000BRSBSPACNOR5161
012024080202SCAR3       010SAO CARLOS  ON      NM   R$  000000000242800000000024440000000002340000000000237700000000024080000000002369000000000240900039000000000000015000000000000035660100000000000000009999123100000010000000000000BRSCARACNOR7131
012024080202SEER3       010SER EDUCA   ON      NM   R$  000000000052900000000005400000000000523000000000053100000000005270000000000527000000000053600726000000000000300600000000000159635900000000000000009999123100000010000000000000BRSEERACNOR5119
012024080202SEQL3       010SEQUOIA LOG ON      NM   R$  000000000039600000000004250000000000391000000000041000000000004180000000000417000000000041800698000000000000358600000000000147307800000000000000009999123100000010000000000000BRSEQLACNOR2103
012024080202VAMO3       010VAMOS       ON      NM   R$  000000000085500000000009010000000000855000000000088000000000009010000000000900000000000090217950000000000015710700000000013828293200000000000000009999123100000010000000000000BRVAMOACNOR7105
012024080202VBBR3       010VIBRA       ON      NM   R$  000000000234200000000023680000000002330000000000234200000000023310000000002331000000000233414396000000000006702800000000015698488900000000000000009999123100000010000000000000BRVBBRACNOR1108
012024080202CAMB3       010CAMBUCI     ON           R$  000000000114300000000011470000000001114000000000113500000000011330000000001122000000000113300134000000000000034600000000000039277100000000000000009999123100000010000000000000BRCAMBACNOR4130
012024080202CAML3       010CAMIL       ON      NM   R$  000000000088500000000009390000000000878000000000091100000000009300000000000929000000000093104104000000000001196000000000001090333700000000000000009999123100000010000000000000BRCAMLACNOR3128
012024080202CASH3       010MELIUZ      ON      NM   R$  000000000054500000000005630000000000545000000000055600000000005630000000000558000000000056401672000000000000793800000000000442086300000000000000009999123100000010000000000000BRCASHACNOR8106
012024080202CBAV3       010CBA         ON      NM   R$  000000000050100000000005130000000000484000000000049200000000004890000000000488000000000048907028000000000004806200000000002368245400000000000000009999123100000010000000000000BRCBAVACNOR5104
012024080202CCRO3       010CCR SA      ON      NM   R$  000000000124500000000012810000000001243000000000127000000000012700000000001269000000000127215534000000000007560000000000009601269600000000000000009999123100000010000000000000BRCCROACNOR2145
012024080202CEAB3       010CEA MODAS   ON      NM   R$  000000000085100000000009000000000000849000000000087500000000008960000000000895000000000089606998000000000003276400000000002866991700000000000000009999123100000010000000000000BRCEABACNOR1102
012024080202KRSA3       010KORA SAUDE  ON      NM   R$  000000000007800000000000820000000000076000000000007800000000000770000000000077000000000007800211000000000001153900000000000090421200000000000000009999123100000010000000000000BRKRSAACNOR0100
012024080202VITT3       010VITTIA      ON      NM   R$  000000000060100000000006230000000000599000000000060800000000006230000000000605000000000062301088000000000000224300000000000136483300000000000000009999123100000010000000000000BRVITTACNOR4107
012024080202LAND3       010TERRASANTAPAON      NM   R$  000000000142600000000014740000000001424000000000144400000000014530000000001435000000000147000071000000000000008500000000000012281800000000000000009999123100000010000000000000BRLANDACNOR9103
012024080202LAVV3       010LAVVI       ON      NM   R$  000000000089500000000009110000000000893000000000090000000000009020000000000902000000000090502019000000000000356200000000000320784400000000000000009999123100000010000000000000BRLAVVACNOR4112
012024080202LEVE3       010METAL LEVE  ON      NM   R$  000000000334100000000033750000000003280000000000333900000000033500000000003342000000000335101942000000000000324800000000001084735600000000000000009999123100000010000000000000BRLEVEACNOR2197
012024080202LJQQ3       010QUERO-QUERO ON      NM   R$  000000000039400000000004070000000000386000000000039800000000004070000000000402000000000040705492000000000002482300000000000989392700000000000000009999123100000010000000000000BRLJQQACNOR5104
012024080202LOGG3       010LOG COM PROPON      NM   R$  000000000224200000000023180000000002224000000000225000000000022490000000002236000000000225001757000000000000255300000000000574642200000000000000009999123100000010000000000000BRLOGGACNOR7107
012024080202LOGN3       010LOG-IN      ON      NM   R$  000000000364300000000037050000000003567000000000362000000000036400000000003640000000000369200053000000000000006900000000000024983500000000000000009999123100000010000000000000BRLOGNACNOR3105
012024080202LPSB3       010LOPES BRASILON      NM   R$  000000000017300000000001850000000000173000000000017800000000001810000000000178000000000018100150000000000000074200000000000013272200000000000000009999123100000010000000000000BRLPSBACNOR0114
012024080202LREN3       010LOJAS RENNERON      NM   R$  000000000132800000000013870000000001328000000000136800000000013760000000001376000000000137723991000000000017280800000000023655408600000000000000009999123100000010000000000000BRLRENACNOR1221
012024080202ODPV3       010ODONTOPREV  ON      NM   R$  000000000113200000000011570000000001130000000000114500000000011490000000001146000000000115305167000000000001567800000000001795832200000000000000009999123100000010000000000000BRODPVACNOR4202
012024080202OFSA3       010OUROFINO S/AON      NM   R$  000000000195000000000019500000000001950000000000195000000000019500000000001931000000000195900001000000000000000200000000000000390000000000000000009999123100000010000000000000BROFSAACNOR7118
012024080202ONCO3       010ONCOCLINICASON      NM   R$  000000000064000000000006590000000000628000000000064500000000006500000000000647000000000065005208000000000002963100000000001913745100000000000000009999123100000010000000000000BRONCOACNOR6101
012024080202AZZA3       010AZZAS 2154  ON      NM   R$  000000000499000000000051450000000004985000000000508300000000050350000000005029000000000503505553000000000001275900000000006485458300000000000000009999123100000010000000000000BRAZZAACNOR9100
012024080202BBSE3       010BBSEGURIDADEON      NM   R$  000000000350500000000035370000000003472000000000349400000000034900000000003490000000000349711264000000000003528000000000012329516100000000000000009999123100000010000000000000BRBBSEACNOR5124
012024080202BPAC11      010BTGP BANCO  UNT     N2   R$  000000000327600000000033680000000003265000000000330900000000032740000000003271000000000327432893000000000012460800000000041240446800000000000000009999123100000010000000000000BRBPACUNT006119
012024080202BPAC3       010BTGP BANCO  ON      N2   R$  000000000160500000000016090000000001588000000000159900000000015880000000001547000000000160700029000000000000003800000000000006076800000000000000009999123100000010000000000000BRBPACACNOR7134
012024080202BPAC5       010BTGP BANCO  PNA     N2   R$  000000000084900000000008700000000000837000000000085800000000008410000000000840000000000085800020000000000000003000000000000002575200000000000000009999123100000010000000000000BRBPACACNPA0134
012024080202CPFE3       010CPFL ENERGIAON      NM   R$  000000000329600000000033260000000003288000000000331400000000033180000000003317000000000331805773000000000001415900000000004693590300000000000000009999123100000010000000000000BRCPFEACNOR0137
012024080202CPLE3       010COPEL       ON      N2   R$  000000000091000000000009230000000000901000000000091000000000009040000000000903000000000090503915000000000003482200000000003169965700000000000000009999123100000010000000000000BRCPLEACNOR8149
012024080202CPLE6       010COPEL       PNB     N2   R$  000000000102200000000010380000000001011000000000102000000000010120000000001011000000000101412984000000000008642500000000008817539400000000000000009999123100000010000000000000BRCPLEACNPB9146
012024080202DASA3       010DASA        ON      NM   R$  000000000026600000000002740000000000257000000000026500000000002700000000000265000000000027002073000000000001255500000000000332864900000000000000009999123100000010000000000000BRDASAACNOR1122
012024080202DESK3       010DESKTOP     ON      NM   R$  000000000172600000000017310000000001686000000000170300000000017140000000001714000000000171601193000000000000568700000000000968952300000000000000009999123100000010000000000000BRDESKACNOR2104
012024080202DEXP3       010DEXXOS PAR  ON      N1   R$  000000000102000000000010430000000001000000000000102900000000010290000000001029000000000103200259000000000000064500000000000066380900000000000000009999123100000010000000000000BRDEXPACNOR1105
012024080202DEXP4       010DEXXOS PAR  PN      N1   R$  000000000102600000000010260000000001013000000000101800000000010230000000001015000000000102300007000000000000006800000000000006923800000000000000009999123100000010000000000000BRDEXPACNPR8105
012024080202DIRR3       010DIRECIONAL  ON      NM   R$  000000000274100000000028060000000002710000000000273800000000027240000000002723000000000272607588000000000001903700000000005214009000000000000000009999123100000010000000000000BRDIRRACNOR0118
012024080202DMVF3       010D1000VFARMA ON      NM   R$  000000000071000000000007650000000000708000000000074100000000007210000000000721000000000074101084000000000000165200000000000122484600000000000000009999123100000010000000000000BRDMVFACNOR9100
012024080202DOTZ3       010DOTZ SA     ON      NM   R$  000000000065300000000006770000000000653000000000066200000000006580000000000658000000000067300028000000000000006800000000000004504100000000000000009999123100000010000000000000BRDOTZACNOR7101
012024080202DXCO3       010DEXCO       ON      NM   R$  000000000070000000000007200000000000696000000000070800000000007160000000000709000000000071606262000000000003199800000000002267856500000000000000009999123100000010000000000000BRDXCOACNOR8105
012024080202GGBR3       010GERDAU      ON      N1   R$  000000000160600000000016060000000001550000000000156700000000015590000000001554000000000156400466000000000000071800000000000112568900000000000000009999123100000010000000000000BRGGBRACNOR1192
012024080202GGBR4       010GERDAU      PN      N1   R$  000000000181800000000018360000000001733000000000176300000000017330000000001732000000000173323457000000000017226900000000030374904100000000000000009999123100000010000000000000BRGGBRACNPR8192
012024080202ITUB3       010ITAUUNIBANCOON  EJ  N1   R$  000000000286300000000028910000000002820000000000283600000000028390000000002836000000000283901409000000000000314200000000000891204600000000000000009999123100000010000000000000BRITUBACNOR4339
012024080202ITUB4       010ITAUUNIBANCOPN  EJ  N1   R$  000000000334900000000033540000000003279000000000330800000000032950000000003295000000000329646768000000000024143700000000079868664300000000000000009999123100000010000000000000BRITUBACNPR1339
012024080202ARML3       010ARMAC       ON      NM   R$  000000000087200000000008930000000000859000000000087100000000008740000000000865000000000087403668000000000000699400000000000609314500000000000000009999123100000010000000000000BRARMLACNOR1112
012024080202AZEV3       010AZEVEDO     ON           R$  000000000013800000000001450000000000137000000000014100000000001450000000000143000000000014500345000000000000419900000000000059415700000000000000009999123100000010000000000000BRAZEVACNOR0121
012024080202AZEV4       010AZEVEDO     PN           R$  000000000013500000000001440000000000134000000000013900000000001430000000000142000000000014301139000000000003284300000000000458804900000000000000009999123100000010000000000000BRAZEVACNPR7121
012024080202AZUL4       010AZUL        PN      N2   R$  000000000078800000000008120000000000777000000000079000000000007950000000000794000000000079507839000000000016026300000000012674640700000000000000009999123100000010000000000000BRAZULACNPR4102
012024080202CMIN3       010CSNMINERACAOON      N2   R$  000000000049800000000005050000000000486000000000049300000000004860000000000486000000000048807667000000000009604500000000004738021100000000000000009999123100000010000000000000BRCMINACNOR2111
012024080202COCE3       010COELCE      ON           R$  000000000320000000000032000000000003200000000000320000000000032000000000003105000000000350000001000000000000000100000000000000320000000000000000009999123100000010000000000000BRCOCEACNOR0146
012024080202COCE5       010COELCE      PNA          R$  000000000310000000000031700000000003100000000000314500000000031400000000003140000000000318200074000000000000013200000000000041518900000000000000009999123100000010000000000000BRCOCEACNPA3147
012024080202COGN3       010COGNA ON    ON      NM   R$  000000000014600000000001510000000000146000000000014800000000001500000000000150000000000015111632000000000033402700000000004964476400000000000000009999123100000010000000000000BRCOGNACNOR2104
012024080202FESA3       010FERBASA     ON      N1   R$  000000000125100000000013100000000001251000000000130000000000013100000000001310000000000135000004000000000000000600000000000000780100000000000000009999123100000010000000000000BRFESAACNOR8188
012024080202FESA4       010FERBASA     PN      N1   R$  000000000081500000000008200000000000796000000000080300000000007990000000000799000000000080001540000000000000430700000000000345900900000000000000009999123100000010000000000000BRFESAACNPR5084
012024080202FHER3       010FER HERINGERON      NM   R$  000000000046800000000004760000000000450000000000045700000000004600000000000451000000000046500053000000000000018700000000000008556000000000000000009999123100000010000000000000BRFHERACNOR5103
012024080202FIQE3       010UNIFIQUE    ON      NM   R$  000000000034000000000003400000000000336000000000033700000000003380000000000337000000000033800797000000000000485300000000000163940600000000000000009999123100000010000000000000BRFIQEACNOR5107
012024080202FLRY3       010FLEURY      ON      NM   R$  000000000152900000000015520000000001516000000000152900000000015380000000001527000000000153809786000000000002481900000000003797233300000000000000009999123100000010000000000000BRFLRYACNOR5138
012024080202FRAS3       010FRAS-LE     ON      N1   R$  000000000192000000000019280000000001890000000000189800000000018970000000001889000000000189701683000000000000442600000000000840392600000000000000009999123100000010000000000000BRFRASACNOR0160
012024080202PFRM3       010PROFARMA    ON      NM   R$  000000000055800000000005700000000000552000000000055900000000005690000000000562000000000056900492000000000000229700000000000128486700000000000000009999123100000010000000000000BRPFRMACNOR1116
012024080202PGMN3       010PAGUE MENOS ON      NM   R$  000000000025100000000002610000000000251000000000025500000000002590000000000257000000000025900630000000000000331500000000000084768700000000000000009999123100000010000000000000BRPGMNACNOR8103
012024080202PINE3       010PINE        ON      N2   R$  000000000060700000000006080000000000534000000000055600000000005510000000000531000000000060700027000000000000008700000000000004842300000000000000009999123100000010000000000000BRPINEACNOR1150
012024080202PINE4       010PINE        PN      N2   R$  000000000041900000000004230000000000412000000000041700000000004210000000000418000000000042100495000000000000092200000000000038531400000000000000009999123100000010000000000000BRPINEACNPR8150
012024080202PLAS3       010PLASCAR PARTON           R$  000000000053000000000005300000000000530000000000053000000000005300000000000530000000000059900001000000000000000100000000000000053000000000000000009999123100000010000000000000BRPLASACNOR2106
012024080202PLPL3       010PLANOEPLANO ON      NM   R$  000000000119400000000012360000000001186000000000120700000000012010000000001201000000000120303923000000000000916800000000001106597700000000000000009999123100000010000000000000BRPLPLACNOR5104
012024080202PCAR3       010P.ACUCAR-CBDON      NM   R$  000000000026300000000002780000000000257000000000026600000000002670000000000267000000000026810199000000000018509300000000004935225200000000000000009999123100000010000000000000BRPCARACNOR3167
012024080202PDGR3       010PDG REALT   ON  ES  NM   R$  000000000001900000000000200000000000018000000000001800000000000180000000000018000000000001900528000000000002440100000000000045842900000000000000009999123100000010000000000000BRPDGRACNOR8119
012024080202PDTC3       010PADTEC      ON      NM   R$  000000000019100000000001930000000000188000000000019000000000001910000000000189000000000019200047000000000000012300000000000002344500000000000000009999123100000010000000000000BRPDTCACNOR3101
012024080202PETR3       010PETROBRAS   ON      N2   R$  000000000399200000000039950000000003861000000000389500000000038640000000003863000000000387017250000000000008653700000000033706687100000000000000009999123100000010000000000000BRPETRACNOR9205
012024080202PETR4       010PETROBRAS   PN      N2   R$  000000000367200000000036800000000003573000000000359900000000035730000000003573000000000357456233000000000036472700000000131288275600000000000000009999123100000010000000000000BRPETRACNPR6213
012024080202TPIS3       010TRIUNFO PARTON      NM   R$  000000000036800000000003720000000000368000000000037000000000003710000000000370000000000037100026000000000000005100000000000001888600000000000000009999123100000010000000000000BRTPISACNOR8118
012024080202TRAD3       010TC          ON      NM   R$  000000000036000000000003690000000000345000000000035100000000003560000000000347000000000035600288000000000000079900000000000028096000000000000000009999123100000010000000000000BRTRADACNOR3102
012024080202TRIS3       010TRISUL      ON      NM   R$  000000000049200000000004970000000000477000000000048300000000004780000000000478000000000048301119000000000000460200000000000222644900000000000000009999123100000010000000000000BRTRISACNOR4118
012024080202ASAI3       010ASSAI       ON      NM   R$  000000000099100000000010270000000000989000000000101300000000010200000000001019000000000102111574000000000010117700000000010256389200000000000000009999123100000010000000000000BRASAIACNOR0106
012024080202ATOM3       010ATOMPAR     ON           R$  000000000020000000000002080000000000197000000000020400000000002040000000000199000000000020300038000000000000016300000000000003331500000000000000009999123100000010000000000000BRATOMACNOR1106
012024080202AURE3       010AUREN       ON      NM   R$  000000000122000000000012280000000001179000000000120000000000011790000000001179000000000118309301000000000005996300000000007200894200000000000000009999123100000010000000000000BRAUREACNOR9104
012024080202AVLL3       010ALPHAVILLE  ON      NM   R$  000000000035600000000003840000000000356000000000036800000000003600000000000360000000000039000009000000000000001700000000000000626500000000000000009999123100000010000000000000BRAVLLACNOR5103
012024080202AERI3       010AERIS       ON      NM   R$  000000000052600000000005430000000000516000000000052800000000005280000000000527000000000052800572000000000000128500000000000067960300000000000000009999123100000010000000000000BRAERIACNOR4102
012024080202AESB3       010AES BRASIL  ON      NM   R$  000000000112500000000011330000000001122000000000112500000000011250000000001125000000000112703166000000000002903300000000003268455800000000000000009999123100000010000000000000BRAESBACNOR7106
012024080202AGRO3       010BRASILAGRO  ON      NM   R$  000000000266200000000026620000000002565000000000260000000000025650000000002565000000000257901308000000000000191200000000000497195900000000000000009999123100000010000000000000BRAGROACNOR7114
012024080202AGXY3       010AGROGALAXY  ON      NM   R$  000000000013800000000001380000000000134000000000013600000000001380000000000137000000000013800209000000000000096700000000000013167400000000000000009999123100000010000000000000BRAGXYACNOR4103
012024080202ALLD3       010ALLIED      ON      NM   R$  000000000078400000000008150000000000784000000000080100000000008050000000000805000000000081000338000000000000097300000000000077988800000000000000009999123100000010000000000000BRALLDACNOR3106
012024080202SHOW3       010TIME FOR FUNON      NM   R$  000000000015000000000001530000000000150000000000015100000000001530000000000152000000000015300488000000000000069000000000000010444300000000000000009999123100000010000000000000BRSHOWACNOR7105
012024080202SHUL4       010SCHULZ      PN           R$  000000000062100000000006280000000000615000000000061900000000006230000000000623000000000062400826000000000000213500000000000132255400000000000000009999123100000010000000000000BRSHULACNPR4156
012024080202SIMH3       010SIMPAR      ON      NM   R$  000000000062200000000006570000000000616000000000064300000000006540000000000653000000000065504895000000000003763600000000002420773700000000000000009999123100000010000000000000BRSIMHACNOR0107
012024080202SLCE3       010SLC AGRICOLAON      NM   R$  000000000178000000000017930000000001763000000000177100000000017740000000001765000000000177504852000000000001716100000000003040252800000000000000009999123100000010000000000000BRSLCEACNOR2125
012024080202ALOS3       010ALLOS       ON      NM   R$  000000000220000000000022480000000002188000000000221000000000022030000000002201000000000220312049000000000003435300000000007594776300000000000000009999123100000010000000000000BRALOSACNOR5101
012024080202ALPA3       010ALPARGATAS  ON      N1   R$  000000000082400000000008240000000000821000000000082200000000008240000000000815000000000082400004000000000000000400000000000000329000000000000000009999123100000010000000000000BRALPAACNOR0231
012024080202ALPA4       010ALPARGATAS  PN      N1   R$  000000000086000000000008710000000000850000000000086000000000008580000000000857000000000085806831000000000002407200000000002070908400000000000000009999123100000010000000000000BRALPAACNPR7232
012024080202ALPK3       010ESTAPAR     ON      NM   R$  000000000035600000000003660000000000353000000000035700000000003650000000000361000000000036500221000000000000080100000000000028668900000000000000009999123100000010000000000000BRALPKACNOR9101
012024080202ALUP11      010ALUPAR      UNT     N2   R$  000000000316600000000031890000000003109000000000313800000000031220000000003107000000000312205458000000000001004000000000003151303800000000000000009999123100000010000000000000BRALUPCDAM15119
012024080202BBDC3       010BRADESCO    ON  EJ  N1   R$  000000000113500000000011470000000001127000000000113300000000011330000000001132000000000113307787000000000006211000000000007043168200000000000000009999123100000010000000000000BRBBDCACNOR1773
012024080202BBDC4       010BRADESCO    PN  EJ  N1   R$  000000000126600000000012750000000001252000000000126200000000012650000000001264000000000126553953000000000057952000000000073137800600000000000000009999123100000010000000000000BRBBDCACNPR8773
012024080202ENEV3       010ENEVA       ON      NM   R$  000000000125400000000012710000000001248000000000125600000000012560000000001253000000000125613213000000000010864300000000013654095800000000000000009999123100000010000000000000BRENEVACNOR8106
012024080202ENGI11      010ENERGISA    UNT     N2   R$  000000000452300000000046210000000004521000000000458600000000045680000000004568000000000458515927000000000004740900000000021742625700000000000000009999123100000010000000000000BRENGICDAM16135
012024080202ENGI3       010ENERGISA    ON      N2   R$  000000000139600000000013970000000001383000000000139500000000013830000000001383000000000139700019000000000000002800000000000003908600000000000000009999123100000010000000000000BRENGIACNOR0145
012024080202ENGI4       010ENERGISA    PN      N2   R$  000000000077700000000008050000000000777000000000079600000000008030000000000795000000000080400040000000000000006600000000000005255100000000000000009999123100000010000000000000BRENGIACNPR7141
012024080202VALE3       010VALE        ON      NM   R$  000000000606400000000060850000000005936000000000597600000000059410000000005940000000000594166236000000000035288400000000210909949900000000000000009999123100000010000000000000BRVALEACNOR0210
012024080202VIVR3       010VIVER       ON      NM   R$  000000000023700000000002500000000000236000000000024200000000002500000000000249000000000025000167000000000000077100000000000018693400000000000000009999123100000010000000000000BRVIVRACNOR4123
012024080202VIVT3       010TELEF BRASILON  EJ       R$  000000000506000000000051080000000004976000000000502100000000050080000000005006000000000500916714000000000003578400000000017969138400000000000000009999123100000010000000000000BRVIVTACNOR0183
012024080202VLID3       010VALID       ON      NM   R$  000000000174000000000017400000000001685000000000170800000000017150000000001715000000000171802301000000000000395200000000000675105300000000000000009999123100000010000000000000BRVLIDACNOR5143
012024080202MDIA3       010M.DIASBRANCOON      NM   R$  000000000268300000000027280000000002676000000000270700000000027140000000002706000000000271404545000000000000997000000000002699874000000000000000009999123100000010000000000000BRMDIAACNOR7135
012024080202MDNE3       010MOURA DUBEUXON      NM   R$  000000000139900000000014120000000001347000000000137600000000013930000000001389000000000139404104000000000000875600000000001205103500000000000000009999123100000010000000000000BRMDNEACNOR9100
012024080202MEAL3       010IMC S/A     ON      NM   R$  000000000015800000000001600000000000154000000000015600000000001550000000000155000000000015700259000000000000320900000000000050310700000000000000009999123100000010000000000000BRMEALACNOR9105
012024080202MELK3       010MELNICK     ON      NM   R$  000000000034500000000003550000000000341000000000034600000000003550000000000349000000000035500337000000000000119000000000000041289500000000000000009999123100000010000000000000BRMELKACNOR8111
012024080202MGEL4       010MANGELS INDLPN           R$  000000000130500000000013050000000001283000000000129300000000013000000000001300000000000133900009000000000000001300000000000001681000000000000000009999123100000010000000000000BRMGELACNPR3147
012024080202FRIO3       010METALFRIO   ON      NM   R$  000000002200000000000220000000000022000000000002200000000000220000000000017101000000002220000001000000000000000100000000000002200000000000000000009999123100000010000000000000BRFRIOACNOR2111
012024080202GEPA4       010GER PARANAP PN           R$  000000000265500000000026550000000002625000000000264000000000026250000000002600000000000262000002000000000000000200000000000000528000000000000000009999123100000010000000000000BRGEPAACNPR9160
012024080202GFSA3       010GAFISA      ON      NM   R$  000000000030500000000003100000000000292000000000029700000000002930000000000293000000000029503102000000000004119000000000001227277000000000000000009999123100000010000000000000BRGFSAACNOR3124
012024080202CXSE3       010CAIXA SEGURION  ED  NM   R$  000000000142700000000014360000000001392000000000141700000000014020000000001402000000000141013619000000000004906700000000006953044400000000000000009999123100000010000000000000BRCXSEACNOR7107
012024080202CYRE3       010CYRELA REALTON      NM   R$  000000000197400000000020400000000001963000000000200400000000019960000000001995000000000199918275000000000005551400000000011125179800000000000000009999123100000010000000000000BRCYREACNOR7140
012024080202HYPE3       010HYPERA      ON  EJ  NM   R$  000000000282000000000028710000000002810000000000282900000000028250000000002820000000000282805221000000000001964500000000005558447700000000000000009999123100000010000000000000BRHYPEACNOR0143
012024080202TRPL3       010TRAN PAULISTON      N1   R$  000000000320100000000032010000000003179000000000319300000000031790000000003179000000000323600015000000000000001700000000000005428300000000000000009999123100000010000000000000BRTRPLACNOR4185
012024080202TRPL4       010TRAN PAULISTPN      N1   R$  000000000244400000000024700000000002432000000000245000000000024560000000002451000000000245717479000000000004820300000000011812471200000000000000009999123100000010000000000000BRTRPLACNPR1185
012024080202TTEN3       0103TENTOS     ON      NM   R$  000000000104000000000010600000000001028000000000104200000000010520000000001045000000000105205194000000000000861500000000000898260500000000000000009999123100000010000000000000BRTTENACNOR0103
012024080202TUPY3       010TUPY        ON      NM   R$  000000000246000000000025000000000002443000000000246200000000024790000000002475000000000247903352000000000000485200000000001194884800000000000000009999123100000010000000000000BRTUPYACNOR1184
012024080202BAHI3       010BAHEMA      ON      MA   R$  000000000067100000000006990000000000652000000000067700000000006520000000000650000000000069000025000000000000003600000000000002439400000000000000009999123100000010000000000000BRBAHIACNOR1074
012024080202BALM4       010BAUMER      PN           R$  000000000100500000000010050000000000980000000000098800000000009800000000000980000000000104900005000000000000000800000000000000790500000000000000009999123100000010000000000000BRBALMACNPR2056
012024080202BAZA3       010AMAZONIA    ON           R$  000000000979900000000097990000000009381000000000952700000000093810000000009350000000000938100010000000000000001200000000000011433200000000000000009999123100000010000000000000BRBAZAACNOR0179
012024080202BBAS3       010BRASIL      ON      NM   R$  000000000265000000000026590000000002606000000000262300000000026160000000002616000000000262030205000000000020395600000000053509761900000000000000009999123100000010000000000000BRBBASACNOR3324
012024080202BLAU3       010BLAU        ON      NM   R$  000000000101600000000010490000000001003000000000103200000000010370000000001036000000000104300493000000000000079000000000000081564800000000000000009999123100000010000000000000BRBLAUACNOR8114
012024080202UCAS3       010UNICASA     ON      NM   R$  000000000022500000000002310000000000223000000000022500000000002240000000000224000000000022700095000000000000014300000000000003225800000000000000009999123100000010000000000000BRUCASACNOR1113
012024080202UGPA3       010ULTRAPAR    ON      NM   R$  000000000227000000000022970000000002226000000000226500000000022840000000002283000000000228416832000000000005257200000000011909616700000000000000009999123100000010000000000000BRUGPAACNOR8155
012024080202BMEB4       010MERCANTIL   PN  EJ  N1   R$  000000000321700000000034100000000003150000000000330000000000034100000000003350000000000344100085000000000000019700000000000065019800000000000000009999123100000010000000000000BRBMEBACNPR5211
012024080202BMGB4       010BANCO BMG   PN      N1   R$  000000000035100000000003550000000000344000000000034800000000003460000000000346000000000034700755000000000000510200000000000177710000000000000000009999123100000010000000000000BRBMGBACNPR0110
012024080202BMKS3       010BIC MONARK  ON           R$  000000003199900000000320000000000031999000000003199900000000320000000000031850000000003200000013000000000000000051000000000001631979000000000000009999123100000010000000000000BRBMKSACNOR9166
012024080202BMOB3       010BEMOBI TECH ON      NM   R$  000000000146000000000014900000000001454000000000146900000000014570000000001452000000000145701144000000000000170000000000000249748100000000000000009999123100000010000000000000BRBMOBACNOR7103
012024080202BNBR3       010NORD BRASIL ON           R$  000000000954900000000095800000000009549000000000956400000000095800000000009390000000000965000002000000000000000200000000000001912900000000000000009999123100000010000000000000BRBNBRACNOR8208
012024080202BOBR4       010BOMBRIL     PN           R$  000000000020100000000002010000000000198000000000020000000000001990000000000199000000000020100041000000000000016300000000000003260600000000000000009999123100000010000000000000BRBOBRACNPR3128
012024080202BRSR3       010BANRISUL    ON      N1   R$  000000000120700000000012230000000001200000000000121400000000012000000000001203000000000121600026000000000000003000000000000003643100000000000000009999123100000010000000000000BRBRSRACNOR3188
012024080202BRSR6       010BANRISUL    PNB     N1   R$  000000000112500000000011390000000001119000000000112500000000011200000000001119000000000112103226000000000001023200000000001151453400000000000000009999123100000010000000000000BRBRSRACNPB4191
012024080202BSLI4       010BRB BANCO   PN           R$  000000000095200000000009990000000000952000000000096700000000009990000000000954000000000099900002000000000000000300000000000000290300000000000000009999123100000010000000000000BRBSLIACNPR2194
012024080202BRIT3       010BRISANET    ON      NM   R$  000000000040300000000004100000000000392000000000039700000000003940000000000394000000000039501724000000000000422100000000000167751900000000000000009999123100000010000000000000BRBRITACNOR0103
012024080202BRKM3       010BRASKEM     ON      N1   R$  000000000175000000000017630000000001680000000000169900000000016970000000001676000000000169800140000000000000019800000000000033640800000000000000009999123100000010000000000000BRBRKMACNOR1119
012024080202BRKM5       010BRASKEM     PNA     N1   R$  000000000171300000000017470000000001637000000000166100000000016560000000001650000000000165611918000000000004613100000000007662628400000000000000009999123100000010000000000000BRBRKMACNPA4121
012024080202CSED3       010CRUZEIRO EDUON      NM   R$  000000000039300000000004010000000000385000000000039000000000003920000000000392000000000039300599000000000000443200000000000173062700000000000000009999123100000010000000000000BRCSEDACNOR9104
012024080202CSMG3       010COPASA      ON      NM   R$  000000000205800000000021190000000002057000000000209000000000021010000000002100000000000210211646000000000002625100000000005488244500000000000000009999123100000010000000000000BRCSMGACNOR5174
012024080202CSNA3       010SID NACIONALON           R$  000000000114800000000011590000000001129000000000113600000000011350000000001134000000000113512318000000000007051700000000008016172200000000000000009999123100000010000000000000BRCSNAACNOR6261
012024080202EKTR4       010ELEKTRO     PN  ED       R$  000000000401900000000040820000000004019000000000404000000000040820000000004001000000000408400003000000000000000300000000000001212000000000000000009999123100000010000000000000BREKTRACNPR7164
012024080202ELET3       010ELETROBRAS  ON      N1   R$  000000000404000000000040400000000003835000000000388300000000038350000000003835000000000383627598000000000011678700000000045359087800000000000000009999123100000010000000000000BRELETACNOR6160
012024080202ELET6       010ELETROBRAS  PNB     N1   R$  000000000445000000000044700000000004256000000000430800000000042730000000004272000000000427306740000000000001792500000000007722441100000000000000009999123100000010000000000000BRELETACNPB7077
012024080202GRND3       010GRENDENE    ON      NM   R$  000000000060100000000006030000000000583000000000058900000000005900000000000587000000000059003090000000000001121400000000000661384300000000000000009999123100000010000000000000BRGRNDACNOR3174
012024080202GSHP3       010GENERALSHOPPON           R$  000000000105000000000010500000000001050000000000105000000000010500000000001050000000000139000002000000000000000500000000000000525000000000000000009999123100000010000000000000BRGSHPACNOR7102
012024080202GUAR3       010GUARARAPES  ON      NM   R$  000000000067500000000007100000000000675000000000069800000000007070000000000706000000000070805195000000000001423800000000000994000400000000000000009999123100000010000000000000BRGUARACNOR4173
012024080202HAGA3       010HAGA S/A    ON           R$  000000000026700000000002740000000000260000000000026800000000002700000000000261000000000027000021000000000000004900000000000001316400000000000000009999123100000010000000000000BRHAGAACNOR7103
012024080202HAGA4       010HAGA S/A    PN           R$  000000000011800000000001190000000000116000000000011700000000001160000000000116000000000011800008000000000000003000000000000000351500000000000000009999123100000010000000000000BRHAGAACNPR4103
012024080202MILS3       010MILLS       ON      NM   R$  000000000110500000000011240000000001100000000000111300000000011170000000001116000000000112102361000000000000615700000000000685340800000000000000009999123100000010000000000000BRMILSACNOR2127
012024080202MLAS3       010MULTILASER  ON      NM   R$  000000000019200000000001960000000000189000000000019100000000001950000000000193000000000019503046000000000002853700000000000547268100000000000000009999123100000010000000000000BRMLASACNOR9101
012024080202MNDL3       010MUNDIAL     ON           R$  000000000153000000000015300000000001444000000000149500000000014440000000001444000000000150000010000000000000001100000000000001644600000000000000009999123100000010000000000000BRMNDLACNOR4109
012024080202MNPR3       010MINUPAR     ON           R$  000000000139800000000013990000000001351000000000137700000000013860000000001300000000000138600009000000000000000900000000000001240000000000000000009999123100000010000000000000BRMNPRACNOR5122
012024080202MOVI3       010MOVIDA      ON      NM   R$  000000000063300000000006620000000000629000000000064800000000006620000000000660000000000066207301000000000005548500000000003596970300000000000000009999123100000010000000000000BRMOVIACNOR0122
012024080202MRFG3       010MARFRIG     ON      NM   R$  000000000117000000000011830000000001136000000000115600000000011520000000001146000000000115214093000000000005721100000000006615738800000000000000009999123100000010000000000000BRMRFGACNOR0116
012024080202B3SA3       010B3          ON      NM   R$  000000000109000000000011080000000001076000000000108600000000010860000000001085000000000108629684000000000051921800000000056438463300000000000000009999123100000010000000000000BRB3SAACNOR6133
012024080202BEEF3       010MINERVA     ON      NM   R$  000000000064600000000006550000000000630000000000064100000000006470000000000647000000000064807169000000000005278100000000003388419400000000000000009999123100000010000000000000BRBEEFACNOR6116
012024080202BPAN4       010BANCO PAN   PN      N1   R$  000000000087000000000008850000000000855000000000086900000000008750000000000870000000000087502599000000000000773900000000000672852900000000000000009999123100000010000000000000BRBPANACNPR1115
012024080202BRAP3       010BRADESPAR   ON      N1   R$  000000000173900000000017600000000001726000000000173700000000017280000000001728000000000173400377000000000000059100000000000102705200000000000000009999123100000010000000000000BRBRAPACNOR5148
012024080202BRAP4       010BRADESPAR   PN      N1   R$  000000000182700000000018440000000001792000000000180800000000017990000000001796000000000179904511000000000002778700000000005025285100000000000000009999123100000010000000000000BRBRAPACNPR2148
012024080202CRFB3       010CARREFOUR BRON      NM   R$  000000000093000000000009570000000000929000000000094800000000009570000000000949000000000095708027000000000006502400000000006170559200000000000000009999123100000010000000000000BRCRFBACNOR2116
012024080202CRPG5       010CRISTAL     PNA          R$  000000000291100000000029190000000002911000000000294200000000029190000000002900000000000292000009000000000000002200000000000006473900000000000000009999123100000010000000000000BRCRPGACNPA3119
012024080202CRPG6       010CRISTAL     PNB          R$  000000000290100000000029490000000002900000000000290700000000029490000000002901000000000298900003000000000000000700000000000002035000000000000000009999123100000010000000000000BRCRPGACNPB1119
012024080202CSAN3       010COSAN       ON      NM   R$  000000000130900000000013260000000001288000000000129800000000013000000000001297000000000130111629000000000007505000000000009747892700000000000000009999123100000010000000000000BRCSANACNOR6126
012024080202YDUQ3       010YDUQS PART  ON      NM   R$  000000000107500000000010930000000001053000000000107000000000010750000000001075000000000107608767000000000004030100000000004314226800000000000000009999123100000010000000000000BRYDUQACNOR3105
012024080202ZAMP3       010ZAMP S.A.   ON  ES       R$  000000000032800000000003290000000000314000000000031900000000003210000000000320000000000032101718000000000000510500000000000163299000000000000000009999123100000010000000000000BRZAMPACNOR5101
012024080202RAIZ4       010RAIZEN      PN      N2   R$  000000000029800000000003020000000000292000000000029700000000002950000000000294000000000029510238000000000014107400000000004190510000000000000000009999123100000010000000000000BRRAIZACNPR6110
012024080202RANI3       010IRANI       ON      NM   R$  000000000083100000000008440000000000828000000000083300000000008300000000000829000000000083002952000000000000767700000000000640093200000000000000009999123100000010000000000000BRRANIACNOR5072
012024080202RAPT3       010RANDON PART ON      N1   R$  000000000089500000000009150000000000880000000000089400000000008900000000000890000000000090600261000000000000038600000000000034517500000000000000009999123100000010000000000000BRRAPTACNOR7163
012024080202RAPT4       010RANDON PART PN      N1   R$  000000000104200000000010690000000001033000000000105100000000010670000000001065000000000106904883000000000001768300000000001858975700000000000000009999123100000010000000000000BRRAPTACNPR4163
012024080202RCSL3       010RECRUSUL    ON           R$  000000000028100000000002810000000000265000000000027100000000002650000000000265000000000027600142000000000000098200000000000026622700000000000000009999123100000010000000000000BRRCSLACNOR4134
012024080202RCSL4       010RECRUSUL    PN           R$  000000000009900000000001000000000000087000000000009200000000000880000000000087000000000008900445000000000000569600000000000052934300000000000000009999123100000010000000000000BRRCSLACNPR1134
012024080202RDNI3       010RNI         ON      NM   R$  000000000033100000000003380000000000318000000000032600000000003230000000000319000000000032400018000000000000004500000000000001467600000000000000009999123100000010000000000000BRRDNIACNOR9116
012024080202RDOR3       010REDE D OR   ON      NM   R$  000000000280500000000028540000000002767000000000279800000000027980000000002798000000000280014048000000000004097000000000011466577900000000000000009999123100000010000000000000BRRDORACNOR8113
012024080202SNSY5       010SANSUY      PNA          R$  000000000057100000000005930000000000571000000000057600000000005890000000000571000000000058900008000000000000001300000000000000750000000000000000009999123100000010000000000000BRSNSYACNPA5111
012024080202SOJA3       010BOA SAFRA   ON      NM   R$  000000000150400000000015140000000001486000000000149000000000014900000000001486000000000149002266000000000001008700000000001503942400000000000000009999123100000010000000000000BRSOJAACNOR9105
012024080202SRNA3       010SERENA      ON      NM   R$  000000000086500000000008860000000000858000000000086700000000008650000000000862000000000086506802000000000002460500000000002133323800000000000000009999123100000010000000000000BRSRNAACNOR4100
012024080202STBP3       010SANTOS BRP  ON      NM   R$  000000000135700000000013820000000001325000000000134500000000013430000000001339000000000134413532000000000004186400000000005630796800000000000000009999123100000010000000000000BRSTBPACNOR3130
012024080202SUZB3       010SUZANO S.A. ON      NM   R$  000000000530000000000054060000000005289000000000532000000000053000000000005300000000000530521659000000000008273000000000044012457600000000000000009999123100000010000000000000BRSUZBACNOR0130
012024080202RADL3       010RAIADROGASILON      NM   R$  000000000277200000000028400000000002758000000000280400000000028400000000002829000000000284012864000000000005009000000000014045960700000000000000009999123100000010000000000000BRRADLACNOR0157
012024080202RAIL3       010RUMO S.A.   ON      NM   R$  000000000228900000000023520000000002277000000000232900000000023410000000002338000000000234226434000000000017154400000000039968556100000000000000009999123100000010000000000000BRRAILACNOR9105
012024080202SMFT3       010SMART FIT   ON      NM   R$  000000000203600000000021150000000002035000000000207900000000020680000000002065000000000206810268000000000004224300000000008785103800000000000000009999123100000010000000000000BRSMFTACNOR1112
012024080202SMTO3       010SAO MARTINHOON  ED  NM   R$  000000000293000000000029550000000002832000000000287200000000028450000000002838000000000284906295000000000001627100000000004673872400000000000000009999123100000010000000000000BRSMTOACNOR3127
012024080202WEGE3       010WEG         ON      NM   R$  000000000526500000000052840000000004967000000000505700000000049820000000004982000000000498338656000000000015383000000000077806528000000000000000009999123100000010000000000000BRWEGEACNOR0223
012024080202JHSF3       010JHSF PART   ON  ED  NM   R$  000000000040000000000004070000000000399000000000040100000000004010000000000400000000000040101911000000000002109300000000000847497700000000000000009999123100000010000000000000BRJHSFACNOR2138
012024080202JSLG3       010JSL         ON      NM   R$  000000000095000000000009570000000000924000000000093900000000009570000000000942000000000095701240000000000000226200000000000212615700000000000000009999123100000010000000000000BRJSLGACNOR2121
012024080202KEPL3       010KEPLER WEBERON      NM   R$  000000000105500000000010860000000001050000000000107400000000010860000000001079000000000108606098000000000001879000000000002019890800000000000000009999123100000010000000000000BRKEPLACNOR1063
012024080202KLBN11      010KLABIN S/A  UNT     N2   R$  000000000219900000000022160000000002163000000000218300000000021710000000002170000000000217108540000000000004034100000000008807303600000000000000009999123100000010000000000000BRKLBNCDAM18142
012024080202KLBN3       010KLABIN S/A  ON      N2   R$  000000000044400000000004460000000000437000000000044000000000004370000000000438000000000043900451000000000000176600000000000077829600000000000000009999123100000010000000000000BRKLBNACNOR2170
012024080202KLBN4       010KLABIN S/A  PN      N2   R$  000000000044000000000004420000000000433000000000043600000000004370000000000436000000000043702069000000000000829400000000000362301300000000000000009999123100000010000000000000BRKLBNACNPR9170
012024080207NUTR3       010NUTRIPLANT  ON      MA   R$  000000000053400000000005340000000000501000000000051600000000005240000000000510000000000052400042000000000000010900000000000005625000000000000000009999123100000010000000000000BRNUTRACNOR0104
012024080208PMAM3       010PARANAPANEMAON      NM   R$  000000000023200000000002340000000000228000000000023100000000002320000000000229000000000023200137000000000000066500000000000015370100000000000000009999123100000010000000000000BRPMAMACNOR3039
012024080208RSID3       010ROSSI RESID ON      NM   R$  000000000040400000000004050000000000381000000000038900000000003810000000000381000000000039800303000000000000988900000000000385452700000000000000009999123100000010000000000000BRRSIDACNOR8120
012024080208CTNM4       010COTEMINAS   PN           R$  000000000009000000000000900000000000090000000000009000000000000900000000000090000000000009100011000000000000016100000000000001449000000000000000009999123100000010000000000000BRCTNMACNPR6129
012024080208CTSA3       010SANTANENSE  ON           R$  000000000030000000000003100000000000284000000000029900000000003080000000000295000000000030800055000000000000017000000000000005092200000000000000009999123100000010000000000000BRCTSAACNOR3062
012024080208CTSA4       010SANTANENSE  PN           R$  000000000015600000000001560000000000137000000000014200000000001390000000000139000000000014000156000000000000073000000000000010413900000000000000009999123100000010000000000000BRCTSAACNPR0062
012024080208RNEW11      010RENOVA      UNT     N2   R$  000000000026500000000002690000000000260000000000026200000000002690000000000269000000000027000026000000000000013700000000000003598400000000000000009999123100000010000000000000BRRNEWCDAM15110
012024080208RNEW3       010RENOVA      ON      N2   R$  000000000008700000000000890000000000086000000000008600000000000890000000000087000000000008900039000000000000033500000000000002900400000000000000009999123100000010000000000000BRRNEWACNOR8110
012024080208RNEW4       010RENOVA      PN      N2   R$  000000000008700000000000880000000000087000000000008700000000000870000000000087000000000008800082000000000000057900000000000005067000000000000000009999123100000010000000000000BRRNEWACNPR5110
012024080208RPMG3       010PET MANGUINHON           R$  000000000028400000000002900000000000277000000000028200000000002800000000000279000000000028100059000000000000009300000000000002624800000000000000009999123100000010000000000000BRRPMGACNOR9194
012024080208TEKA4       010TEKA        PN           R$  000000000300000000000030000000000003000000000000300000000000030000000000002745000000000340000001000000000000000100000000000000300000000000000000009999123100000010000000000000BRTEKAACNPR3140
012024080208AMER3       010AMERICANAS  ON      NM   R$  000000000006300000000000660000000000061000000000006300000000000620000000000062000000000006302066000000000017421500000000001098108000000000000000009999123100000010000000000000BRAMERACNOR6102
012024080208ETER3       010ETERNIT     ON      NM   R$  000000000057300000000006070000000000567000000000059000000000006070000000000600000000000060700858000000000000385400000000000227756100000000000000009999123100000010000000000000BRETERACNOR3243
012024080208NEXP3       010NEXPE       ON           R$  000000000041000000000004160000000000410000000000041200000000004100000000000410000000000041600003000000000000000300000000000000123600000000000000009999123100000010000000000000BRNEXPACNOR0101
012024080208OSXB3       010OSX BRASIL  ON      NM   R$  000000000037500000000004380000000000375000000000040700000000004250000000000420000000000042500103000000000000042000000000000017131700000000000000009999123100000010000000000000BROSXBACNOR8109
012024080208LIGT3       010LIGHT S/A   ON      NM   R$  000000000042000000000004300000000000414000000000042000000000004200000000000420000000000042304297000000000001897200000000000798118900000000000000009999123100000010000000000000BRLIGTACNOR2124
012024080208OIBR3       010OI          ON      N1   R$  000000000041900000000004230000000000417000000000041800000000004190000000000419000000000042000553000000000000281400000000000117816100000000000000009999123100000010000000000000BROIBRACNOR1111
012024080208OIBR4       010OI          PN      N1   R$  000000000128500000000012920000000001229000000000125300000000012290000000001229000000000125100029000000000000003200000000000004011600000000000000009999123100000010000000000000BROIBRACNPR8110
012024080208ATMP3       010ATMASA      ON           R$  000000000018200000000001820000000000171000000000017500000000001720000000000171000000000017400031000000000000026400000000000004639700000000000000009999123100000010000000000000BRATMPACNOR8100
012024080208SGPS3       010SPRINGS     ON      NM   R$  000000000019600000000001960000000000196000000000019600000000001960000000000195000000000019600008000000000000001800000000000000352800000000000000009999123100000010000000000000BRSGPSACNOR4105
012024080208HOOT4       010HOTEIS OTHONPN           R$  000000000026900000000002720000000000231000000000024500000000002390000000000236000000000024000042000000000000015800000000000003874500000000000000009999123100000010000000000000BRHOOTACNPR9015
012024080208JFEN3       010JOAO FORTES ON           R$  000000000003300000000000370000000000033000000000003400000000000340000000000033000000000003400950000000000006298400000000000218456200000000000000009999123100000010000000000000BRJFENACNOR0059
012024080210ZAMP1       010ZAMP S.A.   DIR ORD      R$  000000000000500000000000060000000000003000000000000400000000000040000000000003000000000000400612000000000001419500000000000005872600000000000000009999123100000010000000000000BRZAMPD01OR0100
012024080212VIUR11      010FII VINCI IUCI  ER       R$  000000000066500000000006650000000000645000000000065600000000006580000000000653000000000065801294000000000000053550000000000035146699000000000000009999123100000010000000000000BRVIURCTF009139
012024080212SADI11      010FII SANT PAPCI  ER       R$  000000000905000000000090990000000009009000000000904600000000090600000000009049000000000906000102000000000000001040000000000009408358000000000000009999123100000010000000000000BRSADICTF007161
012024080212SAPI11      010FII SAPI    CI  ER       R$  000000000923300000000092330000000009195000000000921200000000092190000000009195000000000921900171000000000000000325000000000002994089000000000000009999123100000010000000000000BRSAPICTF001110
012024080212PMIS11      010FII PMIS    CI  ER       R$  000000000092100000000009350000000000921000000000093100000000009340000000000925000000000093401104000000000000010472000000000009750126000000000000009999123100000010000000000000BRPMISCTF006108
012024080212PORD11      010FII POLO CRICI  ER       R$  000000000090700000000009070000000000899000000000090100000000009020000000000902000000000090303799000000000000032407000000000029211263000000000000009999123100000010000000000000BRPORDCTF005176
012024080212PQAG11      010FII PARQ ANHCI  ER       R$  000000000597800000000059780000000005978000000000597800000000059780000000005850000000000597700003000000000000000003000000000000017934000000000000009999123100000010000000000000BRPQAGCTF009150
012024080212PQDP11      010FII D PEDRO CI  ER       R$  000000019100800000001914990000000190000000000019025200000001900000000000190000000000019298900037000000000000000097000000000018454451000000000000009999123100000010000000000000BRPQDPCTF004273
012024080212URPR11      010FII URCA RENCI  ER       R$  000000000813000000000081400000000008113000000000812700000000081210000000008121000000000812201142000000000000013823000000000112345192000000000000009999123100000010000000000000BRURPRCTF002160
012024080212LSPA11      010FII LESTE PACI  EA       R$  000000000699800000000069980000000006599000000000677700000000065990000000006500000000000660000141000000000000000593000000000004019135000000000000009999123100000010000000000000BRLSPACTF005141
012024080212LUGG11      010FII LUGGO   CI  ER       R$  000000000750700000000075420000000007436000000000747700000000074490000000007403000000000744900068000000000000000377000000000002819000000000000000009999123100000010000000000000BRLUGGCTF007157
012024080212LVBI11      010FII VBI LOG CI  ER       R$  000000001140400000000114160000000011000000000001107500000000111730000000011171000000001117314426000000000000117559000000001302031924000000000000009999123100000010000000000000BRLVBICTF002171
012024080212BTRA11      010FII BTG TAGRCI  ER       R$  000000000512500000000051710000000005000000000000506000000000050230000000005023000000000504100459000000000000008210000000000041549990000000000000009999123100000010000000000000BRBTRACTF000138
012024080212BTSG11      010FII BTSP I  CI  ER       R$  000000001581500000000158150000000015815000000001581500000000158150000000000000000000000000000001000000000000000004000000000000063260000000000000009999123100000010000000000000BRBTSGCTF005133
012024080212CTXT11      010FII C TEXTILCI           R$  000000000084500000000008460000000000762000000000079900000000008390000000000763000000000084500346000000000000002371000000000001895077000000000000009999123100000010000000000000BRCTXTCTF014207
012024080212CVBI11      010FII VBI CRI CI           R$  000000000940000000000094750000000009342000000000942100000000094740000000009432000000000947408006000000000000026370000000000248434921000000000000009999123100000010000000000000BRCVBICTF001167
012024080212HCHG11      010FII HECT CRICI  ER       R$  000000000705100000000070970000000006950000000000701000000000069780000000006978000000000709500020000000000000000120000000000000841233000000000000009999123100000010000000000000BRHCHGCTF001139
012024080212HCRI11      010FII CRIANCA CI           R$  000000002760000000000295000000000027600000000002859400000000280000000000028000000000002893500025000000000000000051000000000001458311000000000000009999123100000010000000000000BRHCRICTF006330
012024080212HCTR11      010FII HECTARE CI           R$  000000000299500000000030570000000002995000000000302400000000030170000000003017000000000302501325000000000000024159000000000073064232000000000000009999123100000010000000000000BRHCTRCTF003171
012024080212HDEL11      010FII HEDGE DVCI           R$  000000001110000000000111000000000011100000000001110000000000111000000000008003000000000000000001000000000000000001000000000000011100000000000000009999123100000010000000000000BRHDELCTF006104
012024080212HFOF11      010FII HTOPFOF3CI  ER       R$  000000000705000000000070520000000007000000000000702100000000070300000000007030000000000703403370000000000000013680000000000096055505000000000000009999123100000010000000000000BRHFOFCTF002191
012024080212HGBL11      010FII HGBL    CI  ER       R$  000000000102200000000010290000000001000000000000101000000000010240000000001020000000000102400101000000000000006105000000000006167975000000000000009999123100000010000000000000BRHGBLCTF005107
012024080212HGBS11      010FII HEDGEBS CI  ER       R$  000000002120500000000218390000000021205000000002165300000000216370000000021637000000002169308901000000000000047938000000001038045564000000000000009999123100000010000000000000BRHGBSCTF000312
012024080212HGCR11      010FII HGCR PAXCI  ER       R$  000000001032100000000103980000000010305000000001033900000000103900000000010374000000001039003769000000000000026548000000000274495530000000000000009999123100000010000000000000BRHGCRCTF000248
012024080212HGFF11      010FII HGFF PAXCI  ER       R$  000000000845000000000085290000000008450000000000848600000000084910000000008491000000000849200270000000000000001417000000000012025151000000000000009999123100000010000000000000BRHGFFCTF008162
012024080212HGIC11      010FII HGI CRI CI           R$  000000000969900000000097000000000009699000000000969900000000097000000000008883000000000970000002000000000000000002000000000000019399000000000000009999123100000010000000000000BRHGICCTF009141
012024080212HGLG11      010FII HGLG PAXCI  ER       R$  000000001601800000000160700000000015988000000001601900000000160000000000015999000000001600011463000000000000045575000000000730089264000000000000009999123100000010000000000000BRHGLGCTF004273
012024080212HGPO11      010FII HGPO PAXCI  ER       R$  000000003046100000000305700000000030428000000003046100000000305000000000030500000000003051701148000000000000004186000000000127511840000000000000009999123100000010000000000000BRHGPOCTF009163
012024080212HGRE11      010FII HGRE PAXCI  ER       R$  000000001153000000000116550000000011522000000001157000000000115530000000011553000000001156701993000000000000012251000000000141749947000000000000009999123100000010000000000000BRHGRECTF006294
012024080212HGRU11      010FII HGRU PAXCI  ERS      R$  000000001270000000000127500000000012692000000001271200000000127000000000012700000000001272803385000000000000035694000000000453752934000000000000009999123100000010000000000000BRHGRUCTF002179
012024080212HLOG11      010FII HEDGELOGCI  ER       R$  000000000842400000000084240000000008300000000000834100000000083500000000008302000000000835000054000000000000002784000000000023221561000000000000009999123100000010000000000000BRHLOGCTF008158
012024080212HOFC11      010FII HOFFICEICI           R$  000000000278800000000029990000000002788000000000291700000000029600000000002831000000000295900055000000000000001010000000000002947110000000000000009999123100000010000000000000BRHOFCCTF009115
012024080212ITRI11      010FII ITRI    CI  ER       R$  000000000937600000000095280000000009376000000000945200000000094920000000009403000000000949201268000000000000009931000000000093874016000000000000009999123100000010000000000000BRITRICTF008104
012024080212BICR11      010FII INTER   CI  ER       R$  000000000628800000000063490000000006288000000000629700000000063490000000005351000000000635000005000000000000000020000000000000125942000000000000009999123100000010000000000000BRBICRCTF009154
012024080212BIME11      010FII BRIO ME CI           R$  000000000072500000000007260000000000721000000000072300000000007210000000000721000000000072200212000000000000020802000000000015042733000000000000009999123100000010000000000000BRBIMECTF006133
012024080212BRCO11      010FII BRESCO  CI  ER       R$  000000001132600000000113990000000011050000000001117700000000112270000000011227000000001123010694000000000000085243000000000952792775000000000000009999123100000010000000000000BRBRCOCTF007159
012024080212BRCR11      010FII BC FUND CI           R$  000000000500200000000051790000000005000000000000511700000000051500000000005147000000000515005838000000000000047644000000000243829998000000000000009999123100000010000000000000BRBRCRCTF000268
012024080212EDFO11      010FII OURINVESCI  ER       R$  000000001715000000000188970000000017150000000001724300000000188970000000017250000000001889900023000000000000000179000000000003086501000000000000009999123100000010000000000000BREDFOCTF004325
012024080212EDGA11      010FII GALERIA CI  ER       R$  000000000186900000000018720000000001843000000000185200000000018550000000001850000000000186000039000000000000001047000000000001939764000000000000009999123100000010000000000000BREDGACTF001243
012024080212GGRC11      010FII GGRCOVEPCI  ER       R$  000000000109500000000011030000000001086000000000109500000000010950000000001094000000000109509656000000000000155192000000000170007311000000000000009999123100000010000000000000BRGGRCCTF002196
012024080212GLOG11      010FII PLURAL LCI  ER       R$  000000000649600000000064960000000006150000000000618900000000063020000000006210000000000630200156000000000000003275000000000020269421000000000000009999123100000010000000000000BRGLOGCTF000115
012024080212RFOF11      010FII RB CFOF CI  ER       R$  000000000734800000000073480000000007135000000000717100000000071800000000007176000000000718000078000000000000001337000000000009587814000000000000009999123100000010000000000000BRRFOFCTF001153
