00COTAHIST.2024BOVESPA 20240813                                                                                                                                                                                                                      
012024081302JHSF3       010JHSF PART   ON      NM   R$  000000000041700000000004190000000000414000000000041600000000004170000000000416000000000041702474000000000001901500000000000791643300000000000000009999123100000010000000000000BRJHSFACNOR2138
012024081302JSLG3       010JSL         ON      NM   R$  000000000092300000000009300000000000886000000000089800000000009020000000000902000000000090401974000000000000776500000000000697301600000000000000009999123100000010000000000000BRJSLGACNOR2121
012024081302MLAS3       010MULTILASER  ON      NM   R$  000000000021800000000002230000000000211000000000021700000000002160000000000216000000000021803281000000000003944800000000000856692100000000000000009999123100000010000000000000BRMLASACNOR9101
012024081302MNPR3       010MINUPAR     ON           R$  000000000154900000000016490000000001549000000000161000000000016380000000001600000000000164000024000000000000003800000000000006118900000000000000009999123100000010000000000000BRMNPRACNOR5122
012024081302MOVI3       010MOVIDA      ON      NM   R$  000000000076200000000007770000000000737000000000075400000000007400000000000739000000000074009576000000000003985400000000003006521200000000000000009999123100000010000000000000BRMOVIACNOR0122
012024081302MRFG3       010MARFRIG     ON      NM   R$  000000000122500000000012530000000001222000000000123900000000012400000000001239000000000124013392000000000004460500000000005527573500000000000000009999123100000010000000000000BRMRFGACNOR0116
012024081302ROMI3       010ROMI        ON      NM   R$  000000000108500000000010870000000001075000000000108200000000010820000000001082000000000108500757000000000000120900000000000130886400000000000000009999123100000010000000000000BRROMIACNOR8195
012024081302SYNE3       010SYN PROP TECON      NM   R$  000000000105000000000010610000000001044000000000104800000000010450000000001045000000000104900284000000000000098600000000000103430200000000000000009999123100000010000000000000BRSYNEACNOR2102
012024081302BOBR4       010BOMBRIL     PN           R$  000000000020200000000002060000000000199000000000020200000000002020000000000201000000000020200051000000000000042400000000000008605100000000000000009999123100000010000000000000BRBOBRACNPR3128
012024081302BPAN4       010BANCO PAN   PN      N1   R$  000000000094800000000009830000000000948000000000097200000000009760000000000975000000000097707459000000000002993100000000002912089400000000000000009999123100000010000000000000BRBPANACNPR1115
012024081302JALL3       010JALLESMACHADON      NM   R$  000000000069100000000006930000000000680000000000068800000000006900000000000689000000000069001593000000000000373200000000000256984300000000000000009999123100000010000000000000BRJALLACNOR0106
012024081302JBSS3       010JBS         ON      NM   R$  000000000338900000000034990000000003371000000000346800000000034900000000003480000000000349130870000000000009559300000000033157951000000000000000009999123100000010000000000000BRJBSSACNOR8121
012024081302MILS3       010MILLS       ON      NM   R$  000000000113100000000011460000000001123000000000113300000000011340000000001134000000000113702772000000000000534400000000000605956100000000000000009999123100000010000000000000BRMILSACNOR2127
012024081302PNVL3       010DIMED       ON      NM   R$  000000000107200000000010850000000001057000000000107500000000010810000000001081000000000108202447000000000000472300000000000508046600000000000000009999123100000010000000000000BRPNVLACNOR9207
012024081302POMO3       010MARCOPOLO   ON      N2   R$  000000000056700000000005740000000000556000000000056200000000005560000000000555000000000055600678000000000000236500000000000132961700000000000000009999123100000010000000000000BRPOMOACNOR0098
012024081302POMO4       010MARCOPOLO   PN      N2   R$  000000000073600000000007380000000000702000000000071500000000007020000000000701000000000070318932000000000011430300000000008173116400000000000000009999123100000010000000000000BRPOMOACNPR7098
012024081302PORT3       010WILSON SONS ON      NM   R$  000000000165800000000016800000000001658000000000167100000000016650000000001665000000000168001638000000000000290300000000000485220300000000000000009999123100000010000000000000BRPORTACNOR8109
012024081302POSI3       010POSITIVO TECON      NM   R$  000000000075000000000007590000000000729000000000073600000000007300000000000730000000000073503798000000000001571300000000001156970700000000000000009999123100000010000000000000BRPOSIACNOR9116
012024081302PRIO3       010PETRORIO    ON      NM   R$  000000000490000000000049430000000004848000000000490100000000049130000000004910000000000491328431000000000009355000000000045856601400000000000000009999123100000010000000000000BRPRIOACNOR1107
012024081302SNSY3       010SANSUY      ON           R$  000000000120100000000012790000000001201000000000127000000000012790000000001220000000000128000005000000000000001000000000000001270800000000000000009999123100000010000000000000BRSNSYACNOR2113
012024081302SNSY5       010SANSUY      PNA          R$  000000000058000000000005850000000000580000000000058400000000005850000000000570000000000059000007000000000000011100000000000006492000000000000000009999123100000010000000000000BRSNSYACNPA5111
012024081302SOJA3       010BOA SAFRA   ON      NM   R$  000000000136900000000013690000000001318000000000133100000000013340000000001330000000000133404088000000000001120100000000001491377100000000000000009999123100000010000000000000BRSOJAACNOR9105
012024081302SRNA3       010SERENA      ON      NM   R$  000000000091800000000009220000000000902000000000090900000000009120000000000912000000000091806297000000000001163000000000001057670900000000000000009999123100000010000000000000BRSRNAACNOR4100
012024081302STBP3       010SANTOS BRP  ON  EDJ NM   R$  000000000137600000000014050000000001360000000000139100000000014050000000001399000000000140809326000000000004768800000000006636117100000000000000009999123100000010000000000000BRSTBPACNOR3131
012024081302SUZB3       010SUZANO S.A. ON      NM   R$  000000000545800000000055270000000005427000000000545700000000054540000000005450000000000545527902000000000007419700000000040495279100000000000000009999123100000010000000000000BRSUZBACNOR0130
012024081302PFRM3       010PROFARMA    ON      NM   R$  000000000060100000000006070000000000586000000000059800000000005970000000000596000000000059701003000000000000204300000000000122253700000000000000009999123100000010000000000000BRPFRMACNOR1116
012024081302PGMN3       010PAGUE MENOS ON      NM   R$  000000000030000000000003020000000000290000000000029400000000002940000000000293000000000029401261000000000000771300000000000226945200000000000000009999123100000010000000000000BRPGMNACNOR8103
012024081302PINE3       010PINE        ON      N2   R$  000000000057000000000005900000000000552000000000058400000000005650000000000560000000000059000016000000000000005800000000000003388900000000000000009999123100000010000000000000BRPINEACNOR1150
012024081302PINE4       010PINE        PN      N2   R$  000000000045900000000004750000000000458000000000046600000000004630000000000463000000000046500542000000000000366500000000000170801600000000000000009999123100000010000000000000BRPINEACNPR8150
012024081302PLAS3       010PLASCAR PARTON           R$  000000000054500000000005450000000000545000000000054500000000005450000000000520000000000055900001000000000000000100000000000000054500000000000000009999123100000010000000000000BRPLASACNOR2106
012024081302PLPL3       010PLANOEPLANO ON      NM   R$  000000000126700000000012670000000001215000000000124200000000012440000000001244000000000125103028000000000000764400000000000949456100000000000000009999123100000010000000000000BRPLPLACNOR5104
012024081302REDE3       010REDE ENERGIAON           R$  000000000068400000000006980000000000684000000000069200000000006950000000000695000000000069800015000000000000002000000000000001385000000000000000009999123100000010000000000000BRREDEACNOR7128
012024081302RENT3       010LOCALIZA    ON      NM   R$  000000000492100000000050230000000004759000000000485300000000048100000000004810000000000482337726000000000010930000000000053050086000000000000000009999123100000010000000000000BRRENTACNOR4196
012024081302SMFT3       010SMART FIT   ON      NM   R$  000000000225500000000023260000000002255000000000230600000000023050000000002303000000000230513066000000000002540100000000005857578000000000000000009999123100000010000000000000BRSMFTACNOR1112
012024081302SMTO3       010SAO MARTINHOON      NM   R$  000000000291000000000029750000000002813000000000288900000000029400000000002928000000000294007803000000000001655100000000004781627000000000000000009999123100000010000000000000BRSMTOACNOR3127
012024081302VALE3       010VALE        ON  EJ  NM   R$  000000000569900000000056990000000005652000000000566600000000056520000000005652000000000565559318000000000026100900000000147888395500000000000000009999123100000010000000000000BRVALEACNOR0211
012024081302VIVR3       010VIVER       ON      NM   R$  000000000026400000000002700000000000260000000000026500000000002630000000000262000000000026800241000000000000066500000000000017647300000000000000009999123100000010000000000000BRVIVRACNOR4123
012024081302ESPA3       010ESPACOLASER ON      NM   R$  000000000010300000000001040000000000102000000000010200000000001020000000000101000000000010200403000000000000672000000000000068932400000000000000009999123100000010000000000000BRESPAACNOR7103
012024081302ESTR4       010ESTRELA     PN           R$  000000000020800000000002080000000000208000000000020800000000002080000000000207000000000022100001000000000000000100000000000000020800000000000000009999123100000010000000000000BRESTRACNPR0144
012024081302ETER3       010ETERNIT     ON  EJ  NM   R$  000000000063600000000006720000000000579000000000060300000000005870000000000586000000000058704374000000000002234800000000001348978500000000000000009999123100000010000000000000BRETERACNOR3244
012024081302EUCA3       010EUCATEX     ON      N1   R$  000000000155900000000016700000000001558000000000159800000000016700000000001603000000000167000005000000000000000500000000000000799300000000000000009999123100000010000000000000BREUCAACNOR1157
012024081302EUCA4       010EUCATEX     PN      N1   R$  000000000149600000000015200000000001481000000000150000000000015110000000001500000000000151100293000000000000056300000000000084479100000000000000009999123100000010000000000000BREUCAACNPR8044
012024081302EVEN3       010EVEN        ON      NM   R$  000000000064000000000006630000000000640000000000065300000000006520000000000651000000000065202815000000000000581900000000000380527200000000000000009999123100000010000000000000BREVENACNOR8119
012024081302CAML3       010CAMIL       ON      NM   R$  000000000097300000000009840000000000967000000000097900000000009830000000000979000000000098301749000000000000346200000000000339134700000000000000009999123100000010000000000000BRCAMLACNOR3128
012024081302CASH3       010MELIUZ      ON      NM   R$  000000000069500000000006990000000000618000000000065100000000006200000000000620000000000062104390000000000003518600000000002291817200000000000000009999123100000010000000000000BRCASHACNOR8106
012024081302CBAV3       010CBA         ON      NM   R$  000000000048100000000004950000000000480000000000048700000000004880000000000488000000000049004269000000000001900800000000000925958800000000000000009999123100000010000000000000BRCBAVACNOR5104
012024081302CCRO3       010CCR SA      ON      NM   R$  000000000133600000000013430000000001327000000000133700000000013400000000001340000000000134211820000000000003331300000000004454867300000000000000009999123100000010000000000000BRCCROACNOR2145
012024081302ENEV3       010ENEVA       ON      NM   R$  000000000127500000000013200000000001249000000000130300000000013050000000001305000000000130633383000000000013133700000000017123447300000000000000009999123100000010000000000000BRENEVACNOR8106
012024081302ENGI11      010ENERGISA    UNT ED  N2   R$  000000000462300000000046530000000004591000000000462600000000046300000000004622000000000463113953000000000002250200000000010410174400000000000000009999123100000010000000000000BRENGICDAM16136
012024081302ENGI3       010ENERGISA    ON  ED  N2   R$  000000000135800000000014070000000001353000000000137400000000014020000000001397000000000142700093000000000000014100000000000019383900000000000000009999123100000010000000000000BRENGIACNOR0146
012024081302ENGI4       010ENERGISA    PN  ED  N2   R$  000000000081000000000008190000000000800000000000081000000000008100000000000810000000000081500069000000000000024200000000000019619700000000000000009999123100000010000000000000BRENGIACNPR7142
012024081302ENJU3       010ENJOEI      ON      NM   R$  000000000020400000000002100000000000168000000000018100000000001710000000000171000000000017202295000000000002547300000000000461934300000000000000009999123100000010000000000000BRENJUACNOR9100
012024081302EPAR3       010EMBPAR S/A  ON           R$  000000000058600000000005930000000000586000000000058900000000005930000000000591000000000059400011000000000000003100000000000001826700000000000000009999123100000010000000000000BREPARACNOR9105
012024081302CAMB3       010CAMBUCI     ON  EDJ      R$  000000000121500000000012500000000001190000000000122000000000012440000000001235000000000124400304000000000000069200000000000084468200000000000000009999123100000010000000000000BRCAMBACNOR4131
012024081302EMAE4       010EMAE        PN           R$  000000000418400000000041840000000004053000000000412700000000041500000000004150000000000417900026000000000000004000000000000016508900000000000000009999123100000010000000000000BREMAEACNPR1125
012024081302EMBR3       010EMBRAER     ON      NM   R$  000000000441900000000045560000000004380000000000446400000000043900000000004390000000000439529997000000000007301500000000032598284600000000000000009999123100000010000000000000BREMBRACNOR4191
012024081302BRBI11      010BR PARTNERS UNT     N2   R$  000000000153400000000015500000000001511000000000152500000000015130000000001513000000000151802025000000000000366100000000000558343700000000000000009999123100000010000000000000BRBRBICDAM10109
012024081302BRFS3       010BRF SA      ON      NM   R$  000000000221700000000022720000000002201000000000224400000000022450000000002244000000000225019438000000000006702600000000015044657600000000000000009999123100000010000000000000BRBRFSACNOR8122
012024081302CRFB3       010CARREFOUR BRON      NM   R$  000000000096800000000009780000000000956000000000096800000000009740000000000974000000000097517866000000000007312500000000007079191400000000000000009999123100000010000000000000BRCRFBACNOR2116
012024081302CRPG5       010CRISTAL     PNA          R$  000000000290700000000029390000000002907000000000292200000000029220000000002911000000000294700010000000000000002700000000000007889900000000000000009999123100000010000000000000BRCRPGACNPA3119
012024081302CRPG6       010CRISTAL     PNB          R$  000000000285800000000029490000000002835000000000286500000000029490000000002851000000000299900009000000000000001100000000000003151500000000000000009999123100000010000000000000BRCRPGACNPB1119
012024081302CSAN3       010COSAN       ON      NM   R$  000000000135100000000013770000000001349000000000136500000000013710000000001371000000000137415008000000000006319300000000008630126200000000000000009999123100000010000000000000BRCSANACNOR6126
012024081302ECOR3       010ECORODOVIAS ON      NM   R$  000000000077700000000008020000000000777000000000079400000000007910000000000791000000000079407127000000000003491800000000002772835600000000000000009999123100000010000000000000BRECORACNOR8120
012024081302EGIE3       010ENGIE BRASILON      NM   R$  000000000457600000000045970000000004548000000000457000000000045790000000004578000000000458106318000000000000942700000000004308318300000000000000009999123100000010000000000000BREGIEACNOR9126
012024081302GGPS3       010GPS         ON      NM   R$  000000000181500000000018500000000001766000000000179400000000017880000000001779000000000178908970000000000002587100000000004643727600000000000000009999123100000010000000000000BRGGPSACNOR9103
012024081302GMAT3       010GRUPO MATEUSON      NM   R$  000000000080000000000008120000000000786000000000079800000000007950000000000795000000000079605675000000000002243900000000001791973600000000000000009999123100000010000000000000BRGMATACNOR7102
012024081302GOAU3       010GERDAU MET  ON  ED  N1   R$  000000000102900000000010390000000001027000000000103200000000010330000000001027000000000103300144000000000000028000000000000028905200000000000000009999123100000010000000000000BRGOAUACNOR1268
012024081302GOAU4       010GERDAU MET  PN  ED  N1   R$  000000000101600000000010240000000001008000000000101500000000010120000000001012000000000101312014000000000005963600000000006055970900000000000000009999123100000010000000000000BRGOAUACNPR8269
012024081302MELK3       010MELNICK     ON      NM   R$  000000000036800000000003760000000000363000000000036600000000003680000000000364000000000036800208000000000000084200000000000030884000000000000000009999123100000010000000000000BRMELKACNOR8111
012024081302MGLU3       010MAGAZ LUIZA ON      NM   R$  000000000132000000000013400000000001300000000000131700000000013290000000001328000000000132922539000000000024193700000000031886832000000000000000009999123100000010000000000000BRMGLUACNOR2124
012024081302PDGR3       010PDG REALT   ON      NM   R$  000000000001900000000000220000000000018000000000001900000000000210000000000020000000000002101575000000000058191600000000001123104300000000000000009999123100000010000000000000BRPDGRACNOR8119
012024081302PDTC3       010PADTEC      ON      NM   R$  000000000018500000000001850000000000181000000000018200000000001810000000000181000000000018400072000000000000038100000000000006939100000000000000009999123100000010000000000000BRPDTCACNOR3101
012024081302PETR3       010PETROBRAS   ON      N2   R$  000000000407500000000040750000000003999000000000402600000000040250000000004024000000000402922099000000000006945100000000027967670300000000000000009999123100000010000000000000BRPETRACNOR9205
012024081302PETR4       010PETROBRAS   PN      N2   R$  000000000375300000000037630000000003697000000000372200000000037110000000003711000000000371256142000000000028557200000000106305420100000000000000009999123100000010000000000000BRPETRACNPR6213
012024081302PETZ3       010PETZ        ON      NM   R$  000000000039800000000004020000000000379000000000038500000000003790000000000379000000000038111705000000000010367900000000003993383800000000000000009999123100000010000000000000BRPETZACNOR2110
012024081302RAPT3       010RANDON PART ON      N1   R$  000000000091900000000009250000000000900000000000091100000000009160000000000904000000000091600087000000000000015800000000000014396600000000000000009999123100000010000000000000BRRAPTACNOR7163
012024081302RAPT4       010RANDON PART PN      N1   R$  000000000111100000000011220000000001089000000000110200000000011000000000001100000000000110106836000000000003249000000000003581331400000000000000009999123100000010000000000000BRRAPTACNPR4163
012024081302RCSL3       010RECRUSUL    ON           R$  000000000029700000000003010000000000294000000000029800000000002970000000000295000000000029700499000000000000094900000000000028366500000000000000009999123100000010000000000000BRRCSLACNOR4134
012024081302RCSL4       010RECRUSUL    PN           R$  000000000008700000000000880000000000087000000000008700000000000870000000000086000000000008800353000000000000105500000000000009225200000000000000009999123100000010000000000000BRRCSLACNPR1134
012024081302RDNI3       010RNI         ON      NM   R$  000000000030400000000003100000000000303000000000030700000000003100000000000310000000000031300018000000000000002900000000000000891100000000000000009999123100000010000000000000BRRDNIACNOR9116
012024081302RDOR3       010REDE D OR   ON      NM   R$  000000000297200000000030260000000002972000000000300100000000029850000000002983000000000299322953000000000006329400000000018997829800000000000000009999123100000010000000000000BRRDORACNOR8113
012024081302RECV3       010PETRORECSA  ON      NM   R$  000000000218400000000021950000000002161000000000217900000000021860000000002185000000000218606021000000000001305100000000002844299900000000000000009999123100000010000000000000BRRECVACNOR3107
012024081302BGIP3       010BANESE      ON           R$  000000000246100000000025000000000002461000000000248000000000025000000000002430000000000290000002000000000000000200000000000000496100000000000000009999123100000010000000000000BRBGIPACNOR1208
012024081302BGIP4       010BANESE      PN           R$  000000000240500000000024100000000002405000000000240700000000024080000000002325000000000245000003000000000000000300000000000000722300000000000000009999123100000010000000000000BRBGIPACNPR8208
012024081302DASA3       010DASA        ON      NM   R$  000000000028600000000002940000000000272000000000028100000000002870000000000287000000000028802368000000000001348100000000000379031900000000000000009999123100000010000000000000BRDASAACNOR1122
012024081302DESK3       010DESKTOP     ON      NM   R$  000000000164500000000016690000000001603000000000162600000000016090000000001609000000000161500812000000000000185500000000000301697900000000000000009999123100000010000000000000BRDESKACNOR2104
012024081302ITSA3       010ITAUSA      ON      N1   R$  000000000104500000000010650000000001040000000000105500000000010630000000001063000000000106400626000000000000245100000000000258816300000000000000009999123100000010000000000000BRITSAACNOR0441
012024081302ITSA4       010ITAUSA      PN      N1   R$  000000000104500000000010650000000001040000000000105500000000010640000000001063000000000106444720000000000028124600000000029698492100000000000000009999123100000010000000000000BRITSAACNPR7441
012024081302AGXY3       010AGROGALAXY  ON      NM   R$  000000000015600000000001700000000000147000000000015900000000001520000000000151000000000015300539000000000000517200000000000082575100000000000000009999123100000010000000000000BRAGXYACNOR4103
012024081302AHEB3       010SPTURIS     ON           R$  000000000350000000000035000000000003500000000000350000000000035000000000003001000000000372500002000000000000000200000000000000700000000000000000009999123100000010000000000000BRAHEBACNOR0106
012024081302ALLD3       010ALLIED      ON      NM   R$  000000000073500000000007500000000000730000000000074200000000007420000000000742000000000074500276000000000000080500000000000059799000000000000000009999123100000010000000000000BRALLDACNOR3106
012024081302ALOS3       010ALLOS       ON      NM   R$  000000000231700000000023490000000002312000000000233700000000023330000000002331000000000233316112000000000003882200000000009073087400000000000000009999123100000010000000000000BRALOSACNOR5101
012024081302ALPA3       010ALPARGATAS  ON      N1   R$  000000000079100000000007910000000000770000000000077200000000007700000000000770000000000080000015000000000000003000000000000002318400000000000000009999123100000010000000000000BRALPAACNOR0231
012024081302ALPA4       010ALPARGATAS  PN      N1   R$  000000000082400000000008270000000000806000000000081100000000008070000000000807000000000080811999000000000005355000000000004347361700000000000000009999123100000010000000000000BRALPAACNPR7232
012024081302BAHI3       010BAHEMA      ON      MA   R$  000000000065300000000006530000000000650000000000065100000000006500000000000650000000000067200005000000000000000900000000000000585900000000000000009999123100000010000000000000BRBAHIACNOR1074
012024081302BALM4       010BAUMER      PN           R$  000000000104000000000010490000000001040000000000104600000000010490000000000993000000000104900003000000000000000300000000000000313800000000000000009999123100000010000000000000BRBALMACNPR2056
012024081302BAZA3       010AMAZONIA    ON           R$  000000000952900000000095760000000009401000000000950600000000094960000000009302000000000960000011000000000000001300000000000012358600000000000000009999123100000010000000000000BRBAZAACNOR0179
012024081302BHIA3       010CASAS BAHIA ON      NM   R$  000000000054300000000005480000000000489000000000051000000000005140000000000513000000000051407924000000000010026700000000005123107300000000000000009999123100000010000000000000BRBHIAACNOR1102
012024081302BPAC11      010BTGP BANCO  UNT     N2   R$  000000000351800000000035750000000003507000000000355200000000035600000000003559000000000356034445000000000013795400000000049014056200000000000000009999123100000010000000000000BRBPACUNT006119
012024081302BPAC3       010BTGP BANCO  ON      N2   R$  000000000168800000000016970000000001679000000000169100000000016970000000001697000000000169900042000000000000006100000000000010318600000000000000009999123100000010000000000000BRBPACACNOR7134
012024081302BPAC5       010BTGP BANCO  PNA     N2   R$  000000000089300000000009320000000000892000000000090600000000009320000000000920000000000093000019000000000000002700000000000002448800000000000000009999123100000010000000000000BRBPACACNPA0134
012024081302COCE5       010COELCE      PNA          R$  000000000320500000000032150000000003118000000000315100000000031210000000003121000000000313900071000000000000075000000000000236342100000000000000009999123100000010000000000000BRCOCEACNPA3147
012024081302COGN3       010COGNA ON    ON      NM   R$  000000000014800000000001510000000000142000000000014500000000001420000000000141000000000014218045000000000043599500000000006339829200000000000000009999123100000010000000000000BRCOGNACNOR2104
012024081302DEXP3       010DEXXOS PAR  ON      N1   R$  000000000099000000000010000000000000984000000000099100000000009860000000000986000000000098800383000000000000103700000000000102805700000000000000009999123100000010000000000000BRDEXPACNOR1105
012024081302DEXP4       010DEXXOS PAR  PN      N1   R$  000000000096200000000009650000000000933000000000094700000000009340000000000933000000000093900118000000000000071700000000000067947800000000000000009999123100000010000000000000BRDEXPACNPR8105
012024081302DIRR3       010DIRECIONAL  ON      NM   R$  000000000291500000000029410000000002859000000000290300000000028840000000002881000000000288512591000000000002387400000000006932153300000000000000009999123100000010000000000000BRDIRRACNOR0118
012024081302DMVF3       010D1000VFARMA ON      NM   R$  000000000075700000000007620000000000746000000000075300000000007480000000000748000000000075600197000000000000038800000000000029235900000000000000009999123100000010000000000000BRDMVFACNOR9100
012024081302DOHL4       010DOHLER      PN           R$  000000000042000000000004200000000000420000000000042000000000004200000000000398000000000042000001000000000000000100000000000000042000000000000000009999123100000010000000000000BRDOHLACNPR9066
012024081302DOTZ3       010DOTZ SA     ON      NM   R$  000000000059500000000005970000000000585000000000059100000000005870000000000587000000000059200035000000000000008300000000000004910900000000000000009999123100000010000000000000BRDOTZACNOR7101
012024081302GEPA4       010GER PARANAP PN           R$  000000000261100000000026450000000002611000000000261300000000026450000000002601000000000264500009000000000000001200000000000003136600000000000000009999123100000010000000000000BRGEPAACNPR9160
012024081302GFSA3       010GAFISA      ON  ES  NM   R$  000000000030800000000003120000000000297000000000030300000000003010000000000301000000000030202387000000000002340000000000000709658300000000000000009999123100000010000000000000BRGFSAACNOR3125
012024081302GGBR3       010GERDAU      ON  ED  N1   R$  000000000155300000000015840000000001553000000000156400000000015550000000001555000000000156800149000000000000028800000000000045067700000000000000009999123100000010000000000000BRGGBRACNOR1193
012024081302GGBR4       010GERDAU      PN  ED  N1   R$  000000000176600000000017790000000001748000000000175500000000017510000000001750000000000175218667000000000008705200000000015280444600000000000000009999123100000010000000000000BRGGBRACNPR8193
012024081302ALPK3       010ESTAPAR     ON      NM   R$  000000000039300000000003970000000000391000000000039300000000003920000000000392000000000039400171000000000000069600000000000027361000000000000000009999123100000010000000000000BRALPKACNOR9101
012024081302ALUP11      010ALUPAR      UNT     N2   R$  000000000310000000000032140000000003100000000000317600000000032000000000003197000000000320105213000000000000959500000000003047833200000000000000009999123100000010000000000000BRALUPCDAM15119
012024081302ALUP3       010ALUPAR      ON      N2   R$  000000000107600000000011000000000001065000000000108100000000011000000000001068000000000109900052000000000000007000000000000007570000000000000000009999123100000010000000000000BRALUPACNOR8119
012024081302ALUP4       010ALUPAR      PN      N2   R$  000000000102400000000010500000000001024000000000104500000000010460000000001044000000000105600052000000000000009800000000000010243000000000000000009999123100000010000000000000BRALUPACNPR5119
012024081302AMAR3       010LOJAS MARISAON      NM   R$  000000000013400000000001350000000000132000000000013200000000001330000000000132000000000013300709000000000000515400000000000068472300000000000000009999123100000010000000000000BRAMARACNOR4115
012024081302AMBP3       010AMBIPAR     ON      NM   R$  000000001031600000000111530000000007100000000000895500000000079000000000007802000000000790011871000000000003306800000000029614013100000000000000009999123100000010000000000000BRAMBPACNOR6103
012024081302BEES3       010BANESTES    ON  EJ       R$  000000000089700000000008990000000000893000000000089600000000008940000000000893000000000089500064000000000000011700000000000010491500000000000000009999123100000010000000000000BRBEESACNOR9394
012024081302BEES4       010BANESTES    PN  EJ       R$  000000000095000000000010350000000000950000000000098500000000010340000000000944000000000103400110000000000000015700000000000015472400000000000000009999123100000010000000000000BRBEESACNPR6319
012024081302BBAS3       010BRASIL      ON      NM   R$  000000000272000000000027530000000002713000000000274100000000027470000000002747000000000274837516000000000012964400000000035544657800000000000000009999123100000010000000000000BRBBASACNOR3324
012024081302BEEF3       010MINERVA     ON      NM   R$  000000000075900000000007680000000000743000000000075100000000007470000000000747000000000074910083000000000008462300000000006361730900000000000000009999123100000010000000000000BRBEEFACNOR6116
012024081302CMIN3       010CSNMINERACAOON      N2   R$  000000000051400000000005370000000000511000000000052700000000005240000000000524000000000052617673000000000022598200000000011930652800000000000000009999123100000010000000000000BRCMINACNOR2111
012024081302CXSE3       010CAIXA SEGURION  ED  NM   R$  000000000142000000000014340000000001417000000000142200000000014230000000001421000000000142307357000000000002168700000000003085818500000000000000009999123100000010000000000000BRCXSEACNOR7107
012024081302HYPE3       010HYPERA      ON      NM   R$  000000000293800000000031170000000002912000000000305100000000031150000000003109000000000311520711000000000006398700000000019526268600000000000000009999123100000010000000000000BRHYPEACNOR0143
012024081302ATOM3       010ATOMPAR     ON           R$  000000000019800000000002000000000000190000000000019500000000001950000000000195000000000019800050000000000000020900000000000004076600000000000000009999123100000010000000000000BRATOMACNOR1106
012024081302AURE3       010AUREN       ON      NM   R$  000000000116300000000011760000000001159000000000116400000000011620000000001162000000000116412994000000000004076500000000004746879700000000000000009999123100000010000000000000BRAUREACNOR9104
012024081302AVLL3       010ALPHAVILLE  ON      NM   R$  000000000041000000000004190000000000407000000000041800000000004190000000000395000000000041000008000000000000010900000000000004562000000000000000009999123100000010000000000000BRAVLLACNOR5103
012024081302AZEV3       010AZEVEDO     ON           R$  000000000015200000000001520000000000148000000000015000000000001500000000000149000000000015000327000000000000264400000000000039813400000000000000009999123100000010000000000000BRAZEVACNOR0121
012024081302AZEV4       010AZEVEDO     PN           R$  000000000015100000000001510000000000145000000000014800000000001470000000000147000000000014800947000000000001433700000000000212197200000000000000009999123100000010000000000000BRAZEVACNPR7121
012024081302AZUL4       010AZUL        PN      N2   R$  000000000070500000000007360000000000702000000000072100000000007280000000000727000000000072815314000000000023417000000000016884976800000000000000009999123100000010000000000000BRAZULACNPR4102
012024081302BBDC3       010BRADESCO    ON  EJ  N1   R$  000000000132000000000013400000000001316000000000133300000000013310000000001331000000000133315682000000000005748300000000007666380500000000000000009999123100000010000000000000BRBBDCACNOR1773
012024081302BBDC4       010BRADESCO    PN  EJ  N1   R$  000000000147700000000014970000000001471000000000148900000000014880000000001487000000000148843294000000000036761400000000054753794000000000000000009999123100000010000000000000BRBBDCACNPR8773
012024081302ELET3       010ELETROBRAS  ON      N1   R$  000000000398000000000039960000000003948000000000397300000000039790000000003978000000000398116064000000000003811000000000015141841100000000000000009999123100000010000000000000BRELETACNOR6160
012024081302ELET6       010ELETROBRAS  PNB     N1   R$  000000000444000000000044530000000004399000000000442700000000044220000000004422000000000442304725000000000000736700000000003261978200000000000000009999123100000010000000000000BRELETACNPB7077
012024081302GRND3       010GRENDENE    ON      NM   R$  000000000061100000000006270000000000610000000000061900000000006260000000000620000000000062603602000000000001448300000000000897676600000000000000009999123100000010000000000000BRGRNDACNOR3174
012024081302HBOR3       010HELBOR      ON      NM   R$  000000000023000000000002330000000000226000000000022800000000002300000000000229000000000023000529000000000000483700000000000110712000000000000000009999123100000010000000000000BRHBORACNOR3118
012024081302HBRE3       010HBR REALTY  ON      NM   R$  000000000053800000000005390000000000523000000000052900000000005310000000000531000000000053701032000000000000395900000000000209570000000000000000009999123100000010000000000000BRHBREACNOR4100
012024081302HBSA3       010HIDROVIAS   ON      NM   R$  000000000035900000000003680000000000346000000000035600000000003670000000000364000000000036808556000000000004332500000000001544913100000000000000009999123100000010000000000000BRHBSAACNOR0100
012024081302EQMA3B      010EQTLMARANHAOON      MB   R$  000000000254000000000025400000000002540000000000254000000000025400000000002501000000000254900001000000000000000100000000000000254000000000000000009999123100000010000000000000BREQMAACNOR8108
012024081302EQPA3       010EQTL PARA   ON           R$  000000000068400000000006920000000000683000000000068700000000006920000000000685000000000069400012000000000000001600000000000001099600000000000000009999123100000010000000000000BREQPAACNOR1111
012024081302EQTL3       010EQUATORIAL  ON      NM   R$  000000000350300000000035140000000003472000000000349500000000035000000000003500000000000350624341000000000005036400000000017602827100000000000000009999123100000010000000000000BREQTLACNOR0130
012024081302AZZA3       010AZZAS 2154  ON      NM   R$  000000000537800000000054900000000005364000000000543500000000054350000000005435000000000544605473000000000001274600000000006927587700000000000000009999123100000010000000000000BRAZZAACNOR9100
012024081302B3SA3       010B3          ON      NM   R$  000000000122900000000012640000000001224000000000125200000000012640000000001261000000000126447567000000000042332500000000053025292800000000000000009999123100000010000000000000BRB3SAACNOR6133
012024081302BRIT3       010BRISANET    ON      NM   R$  000000000039600000000004050000000000390000000000039800000000003930000000000393000000000039800966000000000000464100000000000185030500000000000000009999123100000010000000000000BRBRITACNOR0103
012024081302BRKM3       010BRASKEM     ON      N1   R$  000000000174300000000017430000000001699000000000172200000000017050000000001705000000000172300103000000000000017200000000000029622600000000000000009999123100000010000000000000BRBRKMACNOR1119
012024081302BRKM5       010BRASKEM     PNA     N1   R$  000000000166200000000016760000000001646000000000165800000000016560000000001655000000000165708504000000000002577200000000004273972200000000000000009999123100000010000000000000BRBRKMACNPA4121
012024081302CSED3       010CRUZEIRO EDUON      NM   R$  000000000043000000000004310000000000394000000000040400000000003940000000000393000000000039402602000000000001541500000000000623511500000000000000009999123100000010000000000000BRCSEDACNOR9104
012024081302CSMG3       010COPASA      ON      NM   R$  000000000225000000000022970000000002239000000000226800000000022970000000002281000000000229707425000000000001629900000000003697692600000000000000009999123100000010000000000000BRCSMGACNOR5174
012024081302CSNA3       010SID NACIONALON           R$  000000000120100000000012340000000001178000000000120900000000012190000000001218000000000122020404000000000010363400000000012538812600000000000000009999123100000010000000000000BRCSNAACNOR6261
012024081302ELMD3       010ELETROMIDIA ON      NM   R$  000000000190000000000019010000000001840000000000186600000000018670000000001867000000000186900485000000000000083000000000000154956600000000000000009999123100000010000000000000BRELMDACNOR3101
012024081302ITUB3       010ITAUUNIBANCOON      N1   R$  000000000299000000000030640000000002990000000000304100000000030580000000003058000000000306401983000000000000436000000000001326128300000000000000009999123100000010000000000000BRITUBACNOR4339
012024081302ITUB4       010ITAUUNIBANCOPN      N1   R$  000000000348500000000035590000000003471000000000352600000000035590000000003558000000000355952583000000000039538900000000139447009200000000000000009999123100000010000000000000BRITUBACNPR1339
012024081302ANIM3       010ANIMA       ON      NM   R$  000000000040300000000004100000000000386000000000039700000000003860000000000386000000000038907899000000000011610600000000004613145600000000000000009999123100000010000000000000BRANIMACNOR6108
012024081302APER3       010ALPER S.A.  ON           R$  000000000457800000000046270000000004578000000000459900000000046270000000004627000000000463300009000000000000001200000000000005519400000000000000009999123100000010000000000000BRAPERACNOR9106
012024081302ARML3       010ARMAC       ON      NM   R$  000000000087200000000009000000000000870000000000088900000000008970000000000897000000000090003325000000000000506900000000000451012400000000000000009999123100000010000000000000BRARMLACNOR1112
012024081302BBSE3       010BBSEGURIDADEON      NM   R$  000000000368300000000037170000000003676000000000369700000000037130000000003702000000000371315886000000000003850700000000014239129000000000000000009999123100000010000000000000BRBBSEACNOR5124
012024081302CEAB3       010CEA MODAS   ON      NM   R$  000000000092700000000009270000000000884000000000090000000000008920000000000892000000000089414261000000000004500900000000004051797300000000000000009999123100000010000000000000BRCEABACNOR1102
012024081302CEBR3       010CEB         ON           R$  000000000196800000000019810000000001911000000000195000000000019810000000001981000000000199000034000000000000005900000000000011505500000000000000009999123100000010000000000000BRCEBRACNOR5125
012024081302CEBR5       010CEB         PNA          R$  000000000171200000000017120000000001689000000000170000000000016890000000001680000000000170000006000000000000000700000000000001190100000000000000009999123100000010000000000000BRCEBRACNPA8124
012024081302CEBR6       010CEB         PNB          R$  000000000179000000000018370000000001766000000000179500000000017980000000001776000000000180400032000000000000005200000000000009335500000000000000009999123100000010000000000000BRCEBRACNPB6124
012024081302CEDO3       010CEDRO       ON      N1   R$  000000000261000000000026100000000002610000000000261000000000026100000000002610000000000280000002000000000000000500000000000001305000000000000000009999123100000010000000000000BRCEDOACNOR8096
012024081302CEDO4       010CEDRO       PN      N1   R$  000000000215900000000024810000000002159000000000229800000000024810000000002359000000000269000025000000000000004500000000000010341900000000000000009999123100000010000000000000BRCEDOACNPR5128
012024081302CEEB3       010COELBA      ON           R$  000000000396300000000039630000000003963000000000396300000000039630000000003897000000000396800001000000000000000100000000000000396300000000000000009999123100000010000000000000BRCEEBACNOR3199
012024081302CGAS3       010COMGAS      ON           R$  000000001200200000000124000000000012002000000001223100000000121800000000012326000000001238000008000000000000000800000000000009785000000000000000009999123100000010000000000000BRCGASACNOR0163
012024081302CGAS5       010COMGAS      PNA          R$  000000001269300000000126980000000012083000000001245100000000123250000000012305000000001232500091000000000000015700000000000195485200000000000000009999123100000010000000000000BRCGASACNPA3160
012024081302CGRA3       010GRAZZIOTIN  ON           R$  000000000253400000000025350000000002530000000000252100000000025300000000002512000000000253000009000000000000001100000000000002773400000000000000009999123100000010000000000000BRCGRAACNOR2083
012024081302CGRA4       010GRAZZIOTIN  PN           R$  000000000250600000000025690000000002506000000000254300000000025500000000002550000000000255400047000000000000008300000000000021113800000000000000009999123100000010000000000000BRCGRAACNPR9083
012024081302CIEL3       010CIELO       ON      NM   R$  000000000057900000000005810000000000579000000000057900000000005800000000000580000000000058106146000000000028777600000000016677217900000000000000009999123100000010000000000000BRCIELACNOR3157
012024081302CLSA3       010CLEARSALE   ON      NM   R$  000000000075000000000007820000000000750000000000077000000000007780000000000772000000000077802562000000000000811800000000000625308800000000000000009999123100000010000000000000BRCLSAACNOR0100
012024081302CLSC4       010CELESC      PN      N2   R$  000000000745000000000075090000000007402000000000744800000000075090000000007390000000000750900045000000000000012100000000000090126300000000000000009999123100000010000000000000BRCLSCACNPR3131
012024081302CMIG3       010CEMIG       ON      N1   R$  000000000127000000000012900000000001270000000000128000000000012740000000001274000000000128800594000000000000123300000000000157881100000000000000009999123100000010000000000000BRCMIGACNOR6242
012024081302CMIG4       010CEMIG       PN      N1   R$  000000000110800000000011180000000001104000000000111100000000011100000000001109000000000111020477000000000007910500000000008794537700000000000000009999123100000010000000000000BRCMIGACNPR3243
012024081302FESA3       010FERBASA     ON      N1   R$  000000000139900000000014200000000001399000000000140700000000014180000000001265000000000141700008000000000000001000000000000001407200000000000000009999123100000010000000000000BRFESAACNOR8188
012024081302FESA4       010FERBASA     PN      N1   R$  000000000080800000000008120000000000798000000000080300000000008030000000000802000000000080301878000000000000676600000000000543507100000000000000009999123100000010000000000000BRFESAACNPR5084
012024081302FHER3       010FER HERINGERON      NM   R$  000000000044200000000004420000000000430000000000043300000000004320000000000430000000000043200015000000000000002300000000000000996500000000000000009999123100000010000000000000BRFHERACNOR5103
012024081302FIQE3       010UNIFIQUE    ON      NM   R$  000000000038500000000003900000000000379000000000038300000000003840000000000384000000000038600680000000000000323300000000000123902600000000000000009999123100000010000000000000BRFIQEACNOR5107
012024081302FLRY3       010FLEURY      ON      NM   R$  000000000158100000000015930000000001574000000000158500000000015850000000001582000000000158610257000000000003453200000000005474171500000000000000009999123100000010000000000000BRFLRYACNOR5138
012024081302FRAS3       010FRAS-LE     ON      N1   R$  000000000184400000000018600000000001817000000000184200000000018470000000001841000000000184702358000000000000459000000000000845643900000000000000009999123100000010000000000000BRFRASACNOR0160
012024081302CSRN3       010COSERN      ON           R$  000000000159000000000016040000000001580000000000158600000000015870000000001583000000000159300022000000000000002900000000000004602000000000000000009999123100000010000000000000BRCSRNACNOR0194
012024081302CSRN5       010COSERN      PNA          R$  000000000162200000000018500000000001622000000000179400000000018500000000001651000000000185000005000000000000001000000000000001794000000000000000009999123100000010000000000000BRCSRNACNPA3194
012024081302CSRN6       010COSERN      PNB          R$  000000000166600000000016660000000001666000000000166600000000016660000000001660000000000172900002000000000000000200000000000000333200000000000000009999123100000010000000000000BRCSRNACNPB1195
012024081302CSUD3       010CSU DIGITAL ON      NM   R$  000000000187800000000019380000000001811000000000188000000000018500000000001850000000000185500382000000000000104200000000000195990300000000000000009999123100000010000000000000BRCSUDACNOR5110
012024081302CTKA4       010KARSTEN     PN           R$  000000000160000000000016000000000001599000000000159800000000016000000000001571000000000160000005000000000000002000000000000003197000000000000000009999123100000010000000000000BRCTKAACNPR7043
012024081302CURY3       010CURY S/A    ON      NM   R$  000000000235700000000023940000000002324000000000237600000000023760000000002373000000000237707173000000000001280500000000003042821000000000000000009999123100000010000000000000BRCURYACNOR3109
012024081302CVCB3       010CVC BRASIL  ON      NM   R$  000000000019000000000002030000000000189000000000019600000000001960000000000195000000000019609179000000000025174000000000004958353900000000000000009999123100000010000000000000BRCVCBACNOR1116
012024081302AALR3       010ALLIAR      ON      NM   R$  000000000105900000000010600000000001040000000000105200000000010490000000001042000000000104900065000000000000017500000000000018426400000000000000009999123100000010000000000000BRAALRACNOR6102
012024081302ABCB4       010ABC BRASIL  PN      N2   R$  000000000227100000000022780000000002251000000000226300000000022540000000002254000000000226002627000000000000502800000000001137974800000000000000009999123100000010000000000000BRABCBACNPR4146
012024081302ABEV3       010AMBEV S/A   ON           R$  000000000124700000000012660000000001241000000000125800000000012570000000001257000000000125932285000000000030082000000000037849198800000000000000009999123100000010000000000000BRABEVACNOR1128
012024081302BRSR3       010BANRISUL    ON      N1   R$  000000000121800000000012700000000001218000000000124200000000012400000000001240000000000126500066000000000000011300000000000014042700000000000000009999123100000010000000000000BRBRSRACNOR3188
012024081302BRSR6       010BANRISUL    PNB     N1   R$  000000000117900000000011940000000001179000000000118500000000011870000000001187000000000118805258000000000001136300000000001346857100000000000000009999123100000010000000000000BRBRSRACNPB4191
012024081302BSLI3       010BRB BANCO   ON           R$  000000000094100000000010020000000000941000000000098500000000010020000000000962000000000102300006000000000000000800000000000000788300000000000000009999123100000010000000000000BRBSLIACNOR5194
012024081302BSLI4       010BRB BANCO   PN           R$  000000000094700000000010040000000000946000000000095600000000010040000000000952000000000099700004000000000000000600000000000000573600000000000000009999123100000010000000000000BRBSLIACNPR2194
012024081302SCAR3       010SAO CARLOS  ON      NM   R$  000000000239000000000024400000000002390000000000240200000000023960000000002280000000000239700012000000000000001300000000000003123700000000000000009999123100000010000000000000BRSCARACNOR7131
012024081302SEER3       010SER EDUCA   ON      NM   R$  000000000055500000000005780000000000545000000000056000000000005530000000000553000000000055603285000000000001216100000000000681401700000000000000009999123100000010000000000000BRSEERACNOR5119
012024081302SEQL3       010SEQUOIA LOG ON      NM   R$  000000000094000000000009730000000000800000000000089100000000008280000000000828000000000082905981000000000003646500000000003250617900000000000000009999123100000010000000000000BRSEQLACNOR2103
012024081302SHOW3       010TIME FOR FUNON      NM   R$  000000000013300000000001330000000000128000000000013000000000001310000000000129000000000013100337000000000000347000000000000045171100000000000000009999123100000010000000000000BRSHOWACNOR7105
012024081302SHUL4       010SCHULZ      PN           R$  000000000065300000000006600000000000638000000000064700000000006500000000000647000000000065000676000000000000267800000000000173493600000000000000009999123100000010000000000000BRSHULACNPR4156
012024081302SIMH3       010SIMPAR      ON      NM   R$  000000000069400000000007060000000000663000000000067700000000006730000000000672000000000067308923000000000005205400000000003524320500000000000000009999123100000010000000000000BRSIMHACNOR0107
012024081302SLCE3       010SLC AGRICOLAON      NM   R$  000000000183500000000018400000000001804000000000182200000000018300000000001821000000000183007120000000000001675900000000003053658300000000000000009999123100000010000000000000BRSLCEACNOR2125
012024081302VITT3       010VITTIA      ON      NM   R$  000000000060700000000006150000000000589000000000059900000000006150000000000607000000000061502144000000000000406200000000000243655200000000000000009999123100000010000000000000BRVITTACNOR4107
012024081302VIVA3       010VIVARA S.A. ON      NM   R$  000000000262400000000027180000000002607000000000268600000000026860000000002681000000000268716572000000000005051700000000013572971500000000000000009999123100000010000000000000BRVIVAACNOR0107
012024081302LUPA3       010LUPATECH    ON      NM   R$  000000000016800000000001700000000000160000000000016400000000001620000000000162000000000016400138000000000000240600000000000039464600000000000000009999123100000010000000000000BRLUPAACNOR8112
012024081302LVTC3       010WDC NETWORKSON      NM   R$  000000000039000000000004020000000000386000000000039600000000003900000000000386000000000039000039000000000000032100000000000012713600000000000000009999123100000010000000000000BRLVTCACNOR4102
012024081302LWSA3       010LWSA        ON      NM   R$  000000000046700000000004840000000000467000000000047500000000004750000000000474000000000047515866000000000006811000000000003240403400000000000000009999123100000010000000000000BRLWSAACNOR8103
012024081302EZTC3       010EZTEC       ON  ED  NM   R$  000000000140500000000014240000000001382000000000139600000000013850000000001385000000000138808021000000000002200700000000003072328800000000000000009999123100000010000000000000BREZTCACNOR0126
012024081302IFCM3       010INFRACOMM   ON      NM   R$  000000000003900000000000410000000000038000000000003900000000000390000000000038000000000003902842000000000008470600000000000333907200000000000000009999123100000010000000000000BRIFCMACNOR8101
012024081302IGTI11      010IGUATEMI S.AUNT     N1   R$  000000000228300000000023390000000002281000000000232000000000023340000000002334000000000233510632000000000002246600000000005213619800000000000000009999123100000010000000000000BRIGTICDAM16106
012024081302IGTI3       010IGUATEMI S.AON      N1   R$  000000000028800000000002920000000000286000000000028900000000002920000000000286000000000029200071000000000000030900000000000008944100000000000000009999123100000010000000000000BRIGTIACNOR8106
012024081302IGTI4       010IGUATEMI S.APN      N1   R$  000000000101000000000010100000000001010000000000101000000000010100000000000009000000000108400001000000000000000100000000000000101000000000000000009999123100000010000000000000BRIGTIACNPR5106
012024081302CYRE3       010CYRELA REALTON      NM   R$  000000000216800000000021830000000002121000000000214700000000021300000000002130000000000213113091000000000003526600000000007573619600000000000000009999123100000010000000000000BRCYREACNOR7140
012024081302AERI3       010AERIS       ON      NM   R$  000000000070000000000008670000000000700000000000082100000000008380000000000838000000000084003287000000000001116000000000000916936000000000000000009999123100000010000000000000BRAERIACNOR4102
012024081302AESB3       010AES BRASIL  ON      NM   R$  000000000113900000000011430000000001135000000000114000000000011400000000001139000000000114003479000000000001760500000000002007296800000000000000009999123100000010000000000000BRAESBACNOR7106
012024081302AGRO3       010BRASILAGRO  ON      NM   R$  000000000259500000000026340000000002595000000000260800000000026070000000002606000000000261201170000000000000159200000000000415205100000000000000009999123100000010000000000000BRAGROACNOR7114
012024081302INEP3       010INEPAR      ON           R$  000000000019300000000001930000000000185000000000018900000000001900000000000188000000000019000059000000000000024300000000000004599100000000000000009999123100000010000000000000BRINEPACNOR1143
012024081302INEP4       010INEPAR      PN           R$  000000000018800000000001920000000000187000000000018900000000001870000000000187000000000019000022000000000000022100000000000004188900000000000000009999123100000010000000000000BRINEPACNPR8143
012024081302INTB3       010INTELBRAS   ON  ED  NM   R$  000000000218100000000021920000000002156000000000217800000000021830000000002178000000000218803071000000000000679300000000001479644500000000000000009999123100000010000000000000BRINTBACNOR9112
012024081302IRBR3       010IRBBRASIL REON      NM   R$  000000000304300000000031960000000003020000000000314400000000031890000000003185000000000318907874000000000002061000000000006481692800000000000000009999123100000010000000000000BRIRBRACNOR4111
012024081302BLAU3       010BLAU        ON      NM   R$  000000000116000000000012100000000001150000000000118000000000012100000000001195000000000121001566000000000000261400000000000308684100000000000000009999123100000010000000000000BRBLAUACNOR8114
012024081302BMEB3       010MERCANTIL   ON      N1   R$  000000000335000000000033500000000003350000000000335000000000033500000000003350000000000347500003000000000000000500000000000001675000000000000000009999123100000010000000000000BRBMEBACNOR8206
012024081302BMEB4       010MERCANTIL   PN      N1   R$  000000000365500000000036550000000003580000000000360800000000035800000000003580000000000361900064000000000000013900000000000050163900000000000000009999123100000010000000000000BRBMEBACNPR5211
012024081302BMGB4       010BANCO BMG   PN      N1   R$  000000000035400000000003670000000000353000000000036100000000003650000000000365000000000036601114000000000001228100000000000443922100000000000000009999123100000010000000000000BRBMGBACNPR0110
012024081302BMKS3       010BIC MONARK  ON           R$  000000003130000000000319890000000031300000000003149800000000313100000000031340000000003198400007000000000000000009000000000000283489000000000000009999123100000010000000000000BRBMKSACNOR9166
012024081302BMOB3       010BEMOBI TECH ON      NM   R$  000000000155000000000016040000000001547000000000157600000000015600000000001559000000000157901732000000000000278700000000000439425300000000000000009999123100000010000000000000BRBMOBACNOR7103
012024081302MATD3       010MATER DEI   ON      NM   R$  000000000045600000000004610000000000452000000000045700000000004560000000000456000000000045701149000000000000260400000000000119106500000000000000009999123100000010000000000000BRMATDACNOR4104
012024081302MBLY3       010MOBLY       ON      NM   R$  000000000029700000000003010000000000279000000000029300000000002790000000000279000000000028000739000000000000491600000000000144276200000000000000009999123100000010000000000000BRMBLYACNOR5100
012024081302MDIA3       010M.DIASBRANCOON      NM   R$  000000000286800000000028920000000002807000000000285500000000028770000000002870000000000287904126000000000000793900000000002266762900000000000000009999123100000010000000000000BRMDIAACNOR7135
012024081302MDNE3       010MOURA DUBEUXON      NM   R$  000000000145800000000014680000000001446000000000145600000000014550000000001455000000000146502659000000000000385000000000000560790500000000000000009999123100000010000000000000BRMDNEACNOR9100
012024081302MEAL3       010IMC S/A     ON      NM   R$  000000000015800000000001720000000000158000000000016500000000001680000000000167000000000016800689000000000001062500000000000175723700000000000000009999123100000010000000000000BRMEALACNOR9105
012024081302ODPV3       010ODONTOPREV  ON      NM   R$  000000000117900000000011900000000001173000000000117800000000011790000000001176000000000117904045000000000000751400000000000885647600000000000000009999123100000010000000000000BRODPVACNOR4202
012024081302OFSA3       010OUROFINO S/AON      NM   R$  000000000221000000000022150000000002210000000000221400000000022150000000002190000000000221500005000000000000001500000000000003321000000000000000009999123100000010000000000000BROFSAACNOR7118
012024081302ONCO3       010ONCOCLINICASON      NM   R$  000000000068900000000007290000000000684000000000070300000000007290000000000719000000000072907829000000000004993000000000003515015000000000000000009999123100000010000000000000BRONCOACNOR6101
012024081302OPCT3       010OCEANPACT   ON      NM   R$  000000000066800000000006740000000000655000000000066200000000006660000000000664000000000066601079000000000000311200000000000206021600000000000000009999123100000010000000000000BROPCTACNOR0100
012024081302ORVR3       010ORIZON      ON      NM   R$  000000000453200000000045820000000004494000000000455300000000045640000000004554000000000456401795000000000000250100000000001138910800000000000000009999123100000010000000000000BRORVRACNOR0101
012024081302PCAR3       010P.ACUCAR-CBDON      NM   R$  000000000032000000000003200000000000305000000000031100000000003130000000000312000000000031311236000000000008516200000000002655571400000000000000009999123100000010000000000000BRPCARACNOR3167
012024081302RAIZ4       010RAIZEN      PN  ED  N2   R$  000000000033100000000003400000000000327000000000033300000000003390000000000339000000000034012810000000000016080900000000005363739700000000000000009999123100000010000000000000BRRAIZACNPR6111
012024081302RANI3       010IRANI       ON  ED  NM   R$  000000000081500000000008190000000000808000000000081200000000008100000000000810000000000081304663000000000001091800000000000887538000000000000000009999123100000010000000000000BRRANIACNOR5073
012024081302UNIP3       010UNIPAR      ON           R$  000000000498300000000049840000000004918000000000494400000000049300000000004930000000000495800058000000000000008300000000000041036600000000000000009999123100000010000000000000BRUNIPACNOR7206
012024081302UNIP5       010UNIPAR      PNA          R$  000000000513900000000051390000000004990000000000500900000000049900000000004907000000000509800005000000000000000900000000000004508700000000000000009999123100000010000000000000BRUNIPACNPA0208
012024081302UNIP6       010UNIPAR      PNB          R$  000000000498000000000050490000000004957000000000498800000000049720000000004972000000000498601080000000000000163200000000000814146600000000000000009999123100000010000000000000BRUNIPACNPB8206
012024081302USIM3       010USIMINAS    ON      N1   R$  000000000060300000000006140000000000597000000000060600000000006090000000000608000000000061401477000000000000423500000000000257044300000000000000009999123100000010000000000000BRUSIMACNOR3167
012024081302USIM5       010USIMINAS    PNA     N1   R$  000000000061500000000006300000000000610000000000062100000000006250000000000625000000000062715455000000000019206700000000011934099800000000000000009999123100000010000000000000BRUSIMACNPA6169
012024081302USIM6       010USIMINAS    PNB     N1   R$  000000000120000000000012010000000001200000000000120000000000012010000000001201000000000140000004000000000000000400000000000000480100000000000000009999123100000010000000000000BRUSIMACNPB4169
012024081302VAMO3       010VAMOS       ON      NM   R$  000000000084500000000008540000000000836000000000084400000000008430000000000843000000000084414974000000000007752600000000006548399200000000000000009999123100000010000000000000BRVAMOACNOR7105
012024081302VBBR3       010VIBRA       ON      NM   R$  000000000249400000000025370000000002442000000000250900000000025300000000002529000000000253028846000000000008376900000000021019084900000000000000009999123100000010000000000000BRVBBRACNOR1108
012024081302NORD3       010NORDON MET  ON           R$  000000000089900000000008990000000000780000000000084100000000007800000000000785000000000081500025000000000000004300000000000003616900000000000000009999123100000010000000000000BRNORDACNOR7135
012024081302NTCO3       010GRUPO NATURAON      NM   R$  000000000158000000000015990000000001423000000000148200000000014930000000001490000000000149459400000000000031822700000000047171922400000000000000009999123100000010000000000000BRNTCOACNOR5106
012024081302RADL3       010RAIADROGASILON      NM   R$  000000000290000000000030000000000002888000000000293200000000030000000000002987000000000300023276000000000012767100000000037445401100000000000000009999123100000010000000000000BRRADLACNOR0157
012024081302RAIL3       010RUMO S.A.   ON      NM   R$  000000000231300000000023350000000002289000000000230700000000023070000000002306000000000230726974000000000014484000000000033427255100000000000000009999123100000010000000000000BRRAILACNOR9105
012024081302SAPR11      010SANEPAR     UNT     N2   R$  000000000287700000000028850000000002854000000000286700000000028540000000002851000000000285403632000000000000554600000000001590409900000000000000009999123100000010000000000000BRSAPRCDAM13118
012024081302SAPR3       010SANEPAR     ON      N2   R$  000000000053600000000005410000000000535000000000053700000000005370000000000537000000000054000592000000000000272000000000000146235900000000000000009999123100000010000000000000BRSAPRACNOR9159
012024081302RSUL4       010RIOSULENSE  PN           R$  000000000630000000000063690000000006200000000000626200000000062300000000006173000000000630000028000000000000003600000000000022544300000000000000009999123100000010000000000000BRRSULACNPR3114
012024081302SANB11      010SANTANDER BRUNT          R$  000000000291000000000029550000000002901000000000293400000000029300000000002928000000000293108398000000000001518800000000004457486300000000000000009999123100000010000000000000BRSANBCDAM13165
012024081302SANB3       010SANTANDER BRON           R$  000000000136700000000014050000000001367000000000139300000000013870000000001387000000000139500686000000000000095200000000000132627200000000000000009999123100000010000000000000BRSANBACNOR8172
012024081302SANB4       010SANTANDER BRPN           R$  000000000153000000000015500000000001522000000000154000000000015350000000001532000000000153500561000000000000079100000000000121824200000000000000009999123100000010000000000000BRSANBACNPR5172
012024081302TASA3       010TAURUS ARMASON      N2   R$  000000000117400000000011740000000001136000000000115400000000011600000000001154000000000118500071000000000000011800000000000013624500000000000000009999123100000010000000000000BRTASAACNOR7104
012024081302TASA4       010TAURUS ARMASPN      N2   R$  000000000115100000000011690000000001142000000000115200000000011550000000001155000000000116400955000000000000256900000000000296144600000000000000009999123100000010000000000000BRTASAACNPR4104
012024081302TCSA3       010TECNISA     ON      NM   R$  000000000020700000000002100000000000205000000000020600000000002080000000000206000000000020800124000000000000048400000000000009977400000000000000009999123100000010000000000000BRTCSAACNOR3112
012024081302TECN3       010TECHNOS     ON      NM   R$  000000000054200000000006030000000000542000000000058600000000005900000000000590000000000059400787000000000000518000000000000303800000000000000000009999123100000010000000000000BRTECNACNOR6109
012024081302TELB3       010TELEBRAS    ON           R$  000000000137600000000013760000000001355000000000136500000000013650000000001365000000000139000009000000000000001800000000000002457700000000000000009999123100000010000000000000BRTELBACNOR2140
012024081302TELB4       010TELEBRAS    PN           R$  000000000097700000000009860000000000977000000000097800000000009840000000000977000000000098600011000000000000002300000000000002250700000000000000009999123100000010000000000000BRTELBACNPR9140
012024081302TEND3       010TENDA       ON      NM   R$  000000000128100000000013170000000001278000000000129500000000013080000000001307000000000130908797000000000003398400000000004404044600000000000000009999123100000010000000000000BRTENDACNOR4111
012024081302TFCO4       010TRACK FIELD PN      N2   R$  000000000122000000000012580000000001163000000000122500000000012380000000001230000000000123901837000000000000292500000000000358382100000000000000009999123100000010000000000000BRTFCOACNPR8114
012024081302TGMA3       010TEGMA       ON  EDJ NM   R$  000000000253300000000025500000000002520000000000253400000000025380000000002537000000000255000865000000000000110100000000000279062200000000000000009999123100000010000000000000BRTGMAACNOR7145
012024081302TIMS3       010TIM         ON      NM   R$  000000000177500000000017950000000001769000000000178600000000017850000000001784000000000178712878000000000006068700000000010843792600000000000000009999123100000010000000000000BRTIMSACNOR5117
012024081302TOTS3       010TOTVS       ON  EJ  NM   R$  000000000294700000000029620000000002904000000000293000000000029290000000002918000000000292914658000000000002589500000000007588549500000000000000009999123100000010000000000000BRTOTSACNOR8145
012024081302TPIS3       010TRIUNFO PARTON      NM   R$  000000000045900000000004740000000000426000000000046100000000004650000000000465000000000046600362000000000000245100000000000113199800000000000000009999123100000010000000000000BRTPISACNOR8118
012024081302TRAD3       010TC          ON      NM   R$  000000000038000000000003800000000000364000000000036900000000003680000000000365000000000037000080000000000000029600000000000010937200000000000000009999123100000010000000000000BRTRADACNOR3102
012024081302TRIS3       010TRISUL      ON      NM   R$  000000000048300000000004870000000000473000000000048000000000004800000000000480000000000048101379000000000000459400000000000220585400000000000000009999123100000010000000000000BRTRISACNOR4118
012024081302KEPL3       010KEPLER WEBERON  EJ  NM   R$  000000000115200000000011590000000001122000000000113100000000011270000000001127000000000112803800000000000001066000000000001206086300000000000000009999123100000010000000000000BRKEPLACNOR1064
012024081302KLBN11      010KLABIN S/A  UNT ED  N2   R$  000000000208700000000020870000000002068000000000207300000000020700000000002070000000000207212929000000000003026700000000006275283200000000000000009999123100000010000000000000BRKLBNCDAM18143
012024081302KLBN3       010KLABIN S/A  ON  ED  N2   R$  000000000042400000000004240000000000415000000000041700000000004180000000000417000000000041800619000000000000273800000000000114422700000000000000009999123100000010000000000000BRKLBNACNOR2171
012024081302KLBN4       010KLABIN S/A  PN  ED  N2   R$  000000000041500000000004170000000000414000000000041400000000004150000000000415000000000041601824000000000001234800000000000512297600000000000000009999123100000010000000000000BRKLBNACNPR9171
012024081302MRVE3       010MRV         ON      NM   R$  000000000070500000000007170000000000686000000000070300000000007050000000000704000000000070624572000000000020804700000000014633304800000000000000009999123100000010000000000000BRMRVEACNOR2127
012024081302MTRE3       010MITRE REALTYON      NM   R$  000000000039600000000003990000000000390000000000039200000000003900000000000389000000000039001594000000000000639900000000000251336200000000000000009999123100000010000000000000BRMTREACNOR6113
012024081302MTSA4       010METISA      PN           R$  000000000425400000000044500000000004200000000000425900000000042500000000004100000000000427000025000000000000003600000000000015334500000000000000009999123100000010000000000000BRMTSAACNPR9072
012024081302MULT3       010MULTIPLAN   ON      N2   R$  000000000265200000000026950000000002640000000000267600000000026810000000002677000000000268321838000000000007886500000000021104641700000000000000009999123100000010000000000000BRMULTACNOR5139
012024081302RRRP3       0103R PETROLEUMON      NM   R$  000000000301200000000030280000000002956000000000297500000000029730000000002966000000000297313292000000000004385400000000013047053500000000000000009999123100000010000000000000BRRRRPACNOR5103
012024081302TAEE11      010TAESA       UNT     N2   R$  000000000355600000000035950000000003522000000000354600000000035380000000003538000000000354309611000000000002028300000000007193196000000000000000009999123100000010000000000000BRTAEECDAM10147
012024081302TAEE3       010TAESA       ON      N2   R$  000000000117600000000011900000000001166000000000117300000000011720000000001170000000000117200808000000000000147200000000000172748400000000000000009999123100000010000000000000BRTAEEACNOR9147
012024081302TAEE4       010TAESA       PN      N2   R$  000000000119500000000012010000000001180000000000118900000000011880000000001187000000000118801328000000000000342500000000000407417300000000000000009999123100000010000000000000BRTAEEACNPR6147
012024081302ZAMP3       010ZAMP S.A.   ON           R$  000000000034100000000003430000000000338000000000034000000000003390000000000339000000000034202139000000000000509700000000000173475500000000000000009999123100000010000000000000BRZAMPACNOR5101
012024081302VIVT3       010TELEF BRASILON           R$  000000000508100000000051350000000005078000000000510500000000051020000000005101000000000511811725000000000001804300000000009212040100000000000000009999123100000010000000000000BRVIVTACNOR0183
012024081302VLID3       010VALID       ON  EJ  NM   R$  000000000203300000000020700000000001983000000000202700000000020050000000002005000000000201003848000000000000685000000000001388884000000000000000009999123100000010000000000000BRVLIDACNOR5144
012024081302VSTE3       010VESTE       ON      NM   R$  000000000138900000000014170000000001342000000000136200000000013450000000001345000000000138900030000000000000004100000000000005586800000000000000009999123100000010000000000000BRVSTEACNOR5103
012024081302VTRU3       010VITRUEDUCA  ON      NM   R$  000000000114800000000011820000000001124000000000114100000000011390000000001139000000000114200324000000000000053000000000000060486600000000000000009999123100000010000000000000BRVTRUACNOR3100
012024081302VULC3       010VULCABRAS   ON  ED  NM   R$  000000000180000000000018120000000001769000000000178900000000017850000000001785000000000179003755000000000000731700000000001309348600000000000000009999123100000010000000000000BRVULCACNOR2160
012024081302VVEO3       010VIVEO       ON      NM   R$  000000000024800000000002480000000000199000000000021300000000002100000000000209000000000021010895000000000014723600000000003148610300000000000000009999123100000010000000000000BRVVEOACNOR0104
012024081302WEGE3       010WEG         ON  ED  NM   R$  000000000509800000000052290000000005082000000000513600000000051130000000005108000000000511433865000000000010203100000000052413126600000000000000009999123100000010000000000000BRWEGEACNOR0224
012024081302WEST3       010WESTWING    ON      NM   R$  000000000009200000000000950000000000092000000000009300000000000950000000000093000000000009500040000000000000042600000000000003996500000000000000009999123100000010000000000000BRWESTACNOR3100
012024081302WHRL3       010WHIRLPOOL   ON           R$  000000000045700000000004570000000000420000000000042700000000004230000000000423000000000043000037000000000000008400000000000003594900000000000000009999123100000010000000000000BRWHRLACNOR5128
012024081302WHRL4       010WHIRLPOOL   PN           R$  000000000044400000000004470000000000442000000000044400000000004470000000000445000000000044800012000000000000003700000000000001644600000000000000009999123100000010000000000000BRWHRLACNPR2128
012024081302WIZC3       010WIZ CO      ON      NM   R$  000000000060200000000006080000000000588000000000059300000000005900000000000590000000000059203593000000000000957100000000000568223300000000000000009999123100000010000000000000BRWIZCACNOR5102
012024081302WLMM4       010WLM IND COM PN  EJ       R$  000000000321200000000032120000000003212000000000321200000000032120000000002700000000000321200001000000000000000100000000000000321200000000000000009999123100000010000000000000BRWLMMACNPR3119
012024081302YDUQ3       010YDUQS PART  ON      NM   R$  000000000106000000000010630000000001008000000000103400000000010140000000001012000000000101409444000000000003527800000000003648510100000000000000009999123100000010000000000000BRYDUQACNOR3105
012024081302DXCO3       010DEXCO       ON      NM   R$  000000000076600000000007850000000000762000000000077600000000007780000000000778000000000078107799000000000002321500000000001801632100000000000000009999123100000010000000000000BRDXCOACNOR8105
012024081302EALT3       010ACO ALTONA  ON           R$  000000000136000000000014000000000001360000000000138300000000014000000000001270000000000144000003000000000000000300000000000000414900000000000000009999123100000010000000000000BREALTACNOR4138
012024081302EALT4       010ACO ALTONA  PN           R$  000000000135600000000014050000000001348000000000138100000000013870000000001375000000000138800104000000000000023000000000000031763000000000000000009999123100000010000000000000BREALTACNPR1138
012024081302ASAI3       010ASSAI       ON      NM   R$  000000000103300000000010680000000001027000000000104500000000010480000000001048000000000104927820000000000016430900000000017182336700000000000000009999123100000010000000000000BRASAIACNOR0106
012024081302BIOM3       010BIOMM       ON      MA   R$  000000000089800000000009070000000000852000000000088900000000008900000000000887000000000089000232000000000000037300000000000033182900000000000000009999123100000010000000000000BRBIOMACNOR2112
012024081302BRAP3       010BRADESPAR   ON      N1   R$  000000000175600000000017560000000001734000000000174300000000017420000000001741000000000175000613000000000000083400000000000145386900000000000000009999123100000010000000000000BRBRAPACNOR5148
012024081302BRAP4       010BRADESPAR   PN      N1   R$  000000000182200000000018340000000001809000000000182000000000018190000000001818000000000182309134000000000003859800000000007027506700000000000000009999123100000010000000000000BRBRAPACNPR2148
012024081302CPFE3       010CPFL ENERGIAON      NM   R$  000000000331300000000033600000000003313000000000333700000000033450000000003343000000000334507888000000000001711600000000005712341500000000000000009999123100000010000000000000BRCPFEACNOR0137
012024081302CPLE3       010COPEL       ON      N2   R$  000000000093100000000009470000000000930000000000093900000000009360000000000936000000000093707549000000000004677400000000004393299300000000000000009999123100000010000000000000BRCPLEACNOR8149
012024081302CPLE5       010COPEL       PNA     N2   R$  000000000130400000000013040000000001200000000000121400000000012280000000001200000000000126000009000000000000002300000000000002793800000000000000009999123100000010000000000000BRCPLEACNPA1147
012024081302CPLE6       010COPEL       PNB     N2   R$  000000000103300000000010480000000001029000000000104200000000010400000000001040000000000104317424000000000009151400000000009538914700000000000000009999123100000010000000000000BRCPLEACNPB9146
012024081302EKTR4       010ELEKTRO     PN           R$  000000000418500000000041850000000004185000000000418500000000041850000000004105000000000424000001000000000000001000000000000004185000000000000000009999123100000010000000000000BREKTRACNPR7164
012024081302GUAR3       010GUARARAPES  ON      NM   R$  000000000083400000000008940000000000834000000000087800000000008880000000000886000000000088806890000000000002803500000000002461816500000000000000009999123100000010000000000000BRGUARACNOR4173
012024081302HAGA3       010HAGA S/A    ON           R$  000000000026000000000002600000000000235000000000024000000000002370000000000236000000000023700074000000000000024100000000000005792200000000000000009999123100000010000000000000BRHAGAACNOR7103
012024081302HAGA4       010HAGA S/A    PN           R$  000000000012100000000001270000000000115000000000011900000000001170000000000116000000000011700079000000000000037300000000000004464600000000000000009999123100000010000000000000BRHAGAACNPR4103
012024081302HAPV3       010HAPVIDA     ON      NM   R$  000000000043200000000004440000000000429000000000043500000000004410000000000441000000000044247844000000000075880800000000033025832200000000000000009999123100000010000000000000BRHAPVACNOR4114
012024081302SAPR4       010SANEPAR     PN      N2   R$  000000000058000000000005830000000000576000000000057900000000005760000000000576000000000057802233000000000000916600000000000531259700000000000000009999123100000010000000000000BRSAPRACNPR6159
012024081302SBFG3       010GRUPO SBF   ON      NM   R$  000000000166400000000016830000000001630000000000166300000000016700000000001663000000000167009528000000000002321700000000003862972700000000000000009999123100000010000000000000BRSBFGACNOR1103
012024081302SBSP3       010SABESP      ON      NM   R$  000000000980000000000098420000000009711000000000978600000000098110000000009808000000000981623309000000000005408800000000052930750100000000000000009999123100000010000000000000BRSBSPACNOR5161
012024081302TRPL3       010TRAN PAULISTON      N1   R$  000000000321100000000032160000000003191000000000320700000000032120000000003194000000000321100023000000000000003300000000000010583100000000000000009999123100000010000000000000BRTRPLACNOR4185
012024081302TRPL4       010TRAN PAULISTPN      N1   R$  000000000245000000000024590000000002436000000000244800000000024570000000002456000000000245711229000000000003127700000000007658232300000000000000009999123100000010000000000000BRTRPLACNPR1185
012024081302TTEN3       0103TENTOS     ON      NM   R$  000000000110000000000011630000000001066000000000112300000000011600000000001160000000000116117555000000000004960100000000005573279800000000000000009999123100000010000000000000BRTTENACNOR0103
012024081302TUPY3       010TUPY        ON      NM   R$  000000000255800000000025850000000002546000000000257100000000025790000000002563000000000257902214000000000000399700000000001027630200000000000000009999123100000010000000000000BRTUPYACNOR1184
012024081302UCAS3       010UNICASA     ON      NM   R$  000000000022900000000002320000000000220000000000022400000000002210000000000221000000000022300153000000000000053200000000000011932100000000000000009999123100000010000000000000BRUCASACNOR1113
012024081302UGPA3       010ULTRAPAR    ON      NM   R$  000000000233900000000023920000000002328000000000236100000000023920000000002390000000000239221447000000000005848100000000013810680100000000000000009999123100000010000000000000BRUGPAACNOR8155
012024081302KRSA3       010KORA SAUDE  ON      NM   R$  000000000007300000000000740000000000066000000000006800000000000660000000000066000000000006700251000000000000515200000000000035092500000000000000009999123100000010000000000000BRKRSAACNOR0100
012024081302LAND3       010TERRASANTAPAON      NM   R$  000000000132800000000013580000000001315000000000132700000000013190000000001319000000000132400104000000000000012100000000000016063000000000000000009999123100000010000000000000BRLANDACNOR9103
012024081302LAVV3       010LAVVI       ON      NM   R$  000000000085500000000008700000000000852000000000086300000000008620000000000862000000000086601429000000000000284800000000000245923100000000000000009999123100000010000000000000BRLAVVACNOR4112
012024081302LEVE3       010METAL LEVE  ON      NM   R$  000000000336100000000033720000000003316000000000333800000000033320000000003332000000000334101543000000000000293700000000000980645900000000000000009999123100000010000000000000BRLEVEACNOR2197
012024081302LJQQ3       010QUERO-QUERO ON      NM   R$  000000000042500000000004450000000000396000000000041900000000004420000000000440000000000044214174000000000008551500000000003588705300000000000000009999123100000010000000000000BRLJQQACNOR5104
012024081302LOGG3       010LOG COM PROPON      NM   R$  000000000238000000000023980000000002361000000000238200000000023880000000002387000000000239701634000000000000211800000000000504659500000000000000009999123100000010000000000000BRLOGGACNOR7107
012024081302LOGN3       010LOG-IN      ON      NM   R$  000000000360100000000036580000000003583000000000361300000000035870000000003587000000000365800047000000000000006000000000000021683000000000000000009999123100000010000000000000BRLOGNACNOR3105
012024081302LPSB3       010LOPES BRASILON      NM   R$  000000000017900000000001830000000000175000000000017800000000001810000000000180000000000018100111000000000000130700000000000023343400000000000000009999123100000010000000000000BRLPSBACNOR0114
012024081302LREN3       010LOJAS RENNERON      NM   R$  000000000156300000000015810000000001543000000000156600000000015700000000001570000000000157447680000000000028893300000000045271778800000000000000009999123100000010000000000000BRLRENACNOR1221
012024081302MYPK3       010IOCHP-MAXIONON      NM   R$  000000000113800000000011580000000001136000000000114800000000011470000000001147000000000115704354000000000001080100000000001240666900000000000000009999123100000010000000000000BRMYPKACNOR7155
012024081302NEOE3       010NEOENERGIA  ON      NM   R$  000000000188000000000018990000000001877000000000188600000000018790000000001879000000000189203172000000000000637500000000001202348700000000000000009999123100000010000000000000BRNEOEACNOR3123
012024081302NGRD3       010NEOGRID     ON      NM   R$  000000000012100000000001220000000000119000000000012000000000001210000000000120000000000012100360000000000000357800000000000043012500000000000000009999123100000010000000000000BRNGRDACNOR3104
012024081302NINJ3       010GETNINJAS   ON      NM   R$  000000000047200000000004730000000000472000000000047200000000004720000000000467000000000047600018000000000000006400000000000003021100000000000000009999123100000010000000000000BRNINJACNOR5101
012024081302PRNR3       010PRINER      ON      NM   R$  000000000115000000000011500000000001117000000000113400000000011380000000001135000000000114101644000000000000296300000000000336269200000000000000009999123100000010000000000000BRPRNRACNOR4109
012024081302PSSA3       010PORTO SEGUROON      NM   R$  000000000322700000000033150000000003209000000000327600000000032840000000003284000000000328512829000000000002678100000000008774471000000000000000009999123100000010000000000000BRPSSAACNOR7155
012024081302PTBL3       010PORTOBELLO  ON      NM   R$  000000000048800000000004880000000000469000000000048000000000004870000000000485000000000048701390000000000000659900000000000317337100000000000000009999123100000010000000000000BRPTBLACNOR8132
012024081302PTNT3       010PETTENATI   ON           R$  000000000090600000000009060000000000906000000000090600000000009060000000000850000000000090900001000000000000000100000000000000090600000000000000009999123100000010000000000000BRPTNTACNOR6042
012024081302PTNT4       010PETTENATI   PN           R$  000000000061900000000006390000000000599000000000061000000000005990000000000590000000000059900214000000000000074900000000000045747600000000000000009999123100000010000000000000BRPTNTACNPR3047
012024081302QUAL3       010QUALICORP   ON      NM   R$  000000000016400000000001640000000000159000000000016100000000001630000000000162000000000016302852000000000002278100000000000367382900000000000000009999123100000010000000000000BRQUALACNOR6120
012024081307NUTR3       010NUTRIPLANT  ON      MA   R$  000000000050700000000005160000000000494000000000050700000000004940000000000494000000000051500046000000000000010600000000000005378200000000000000009999123100000010000000000000BRNUTRACNOR0104
012024081307TXRX4       010TEX RENAUX  PN           R$  000000000023000000000002380000000000230000000000023400000000002380000000000229000000000023800002000000000000000200000000000000046800000000000000009999123100000010000000000000BRTXRXACNPR0142
012024081308RNEW11      010RENOVA      UNT     N2   R$  000000000025300000000002700000000000253000000000026400000000002700000000000266000000000026900066000000000000034100000000000009011100000000000000009999123100000010000000000000BRRNEWCDAM15110
012024081308RNEW3       010RENOVA      ON      N2   R$  000000000008300000000000920000000000083000000000008900000000000890000000000087000000000008900141000000000000210500000000000018871100000000000000009999123100000010000000000000BRRNEWACNOR8110
012024081308RNEW4       010RENOVA      PN      N2   R$  000000000008600000000000900000000000086000000000008800000000000890000000000088000000000008900160000000000000221300000000000019536900000000000000009999123100000010000000000000BRRNEWACNPR5110
012024081308PMAM3       010PARANAPANEMAON      NM   R$  000000000021700000000002190000000000210000000000021200000000002130000000000210000000000021300279000000000000142000000000000030218100000000000000009999123100000010000000000000BRPMAMACNOR3039
012024081308ATMP3       010ATMASA      ON           R$  000000000016000000000001630000000000160000000000016100000000001610000000000161000000000016300004000000000000001100000000000000177300000000000000009999123100000010000000000000BRATMPACNOR8100
012024081308HOOT4       010HOTEIS OTHONPN           R$  000000000023500000000002540000000000235000000000024100000000002380000000000238000000000024600004000000000000000800000000000000193000000000000000009999123100000010000000000000BRHOOTACNPR9015
012024081308AMER3       010AMERICANAS  ON      NM   R$  000000000004400000000000460000000000041000000000004300000000000410000000000041000000000004207255000000000152738500000000006608821600000000000000009999123100000010000000000000BRAMERACNOR6102
012024081308CTNM3       010COTEMINAS   ON           R$  000000000071300000000007130000000000713000000000071300000000007130000000000000000000000072800001000000000000000100000000000000071300000000000000009999123100000010000000000000BRCTNMACNOR9130
012024081308CTNM4       010COTEMINAS   PN           R$  000000000009000000000000900000000000090000000000009000000000000900000000000086000000000009000011000000000000006300000000000000567000000000000000009999123100000010000000000000BRCTNMACNPR6129
012024081308CTSA3       010SANTANENSE  ON           R$  000000000029300000000003000000000000293000000000029700000000003000000000000294000000000029700013000000000000006100000000000001813200000000000000009999123100000010000000000000BRCTSAACNOR3062
012024081308CTSA4       010SANTANENSE  PN           R$  000000000013800000000001480000000000135000000000014100000000001380000000000137000000000013800181000000000000086800000000000012318800000000000000009999123100000010000000000000BRCTSAACNPR0062
012024081308SGPS3       010SPRINGS     ON      NM   R$  000000000018000000000001800000000000180000000000018000000000001800000000000179000000000018000013000000000000009400000000000001692000000000000000009999123100000010000000000000BRSGPSACNOR4105
012024081308OIBR3       010OI          ON      N1   R$  000000000044900000000004490000000000431000000000043700000000004320000000000432000000000043300821000000000000493500000000000215897400000000000000009999123100000010000000000000BROIBRACNOR1111
012024081308OIBR4       010OI          PN      N1   R$  000000000120200000000012900000000001202000000000126400000000012340000000001215000000000123500014000000000000002200000000000002781900000000000000009999123100000010000000000000BROIBRACNPR8110
012024081308OSXB3       010OSX BRASIL  ON      NM   R$  000000000037300000000003830000000000370000000000037600000000003730000000000369000000000037800021000000000000007100000000000002672500000000000000009999123100000010000000000000BROSXBACNOR8109
012024081308RPMG3       010PET MANGUINHON           R$  000000000027900000000002920000000000271000000000027900000000002710000000000271000000000027800335000000000000041600000000000011616900000000000000009999123100000010000000000000BRRPMGACNOR9194
012024081308JFEN3       010JOAO FORTES ON           R$  000000000003000000000000320000000000028000000000002900000000000290000000000029000000000003000462000000000002343500000000000069830000000000000000009999123100000010000000000000BRJFENACNOR0059
012024081308LIGT3       010LIGHT S/A   ON      NM   R$  000000000043500000000004600000000000435000000000045200000000004600000000000457000000000046003497000000000000942400000000000426863300000000000000009999123100000010000000000000BRLIGTACNOR2124
012024081308NEXP3       010NEXPE       ON           R$  000000000041700000000004200000000000404000000000041100000000004040000000000403000000000041700010000000000000001100000000000000452900000000000000009999123100000010000000000000BRNEXPACNOR0101
012024081308RSID3       010ROSSI RESID ON      NM   R$  000000000039500000000003990000000000367000000000038100000000003750000000000367000000000037500274000000000000103700000000000039568800000000000000009999123100000010000000000000BRRSIDACNOR8120
012024081310PDGR95      010PDG REALT   DIR     NM   R$  000000000000100000000000010000000000001000000000000100000000000010000000000000000000000000100073000000000000157873000000000000157873000000000000009999123100000010000000000000BRPDGRD03M17100
012024081310GFSA1       010GAFISA      DIR ORD NM   R$  000000000000400000000000040000000000002000000000000200000000000030000000000003000000000000404671000000000013351000000000000036408400000000000000009999123100000010000000000000BRGFSAD11OR7124
012024081310ZAMP1       010ZAMP S.A.   DIR ORD      R$  000000000000900000000000100000000000007000000000000800000000000080000000000008000000000000900537000000000000895700000000000007623500000000000000009999123100000010000000000000BRZAMPD01OR0100
012024081312JPPA11      010FII JPPA CRICI           R$  000000000804200000000081640000000008042000000000811500000000081640000000008154000000000816000219000000000000001174000000000009527946000000000000009999123100000010000000000000BRJPPACTF005163
012024081312JSAF11      010FII JS A FINCI           R$  000000000967100000000097440000000009601000000000969600000000096990000000009654000000000969901309000000000000018779000000000182084955000000000000009999123100000010000000000000BRJSAFCTF000135
012024081312JSCR11      010FII JSCR    CI           R$  000000000978000000000099500000000009725000000000982200000000099500000000009400000000001000000011000000000000004151000000000040774950000000000000009999123100000010000000000000BRJSCRCTF001101
012024081312JSRE11      010FII JS REAL CI           R$  000000000651600000000065500000000006442000000000647200000000064900000000006457000000000649002786000000000000022438000000000145227179000000000000009999123100000010000000000000BRJSRECTF007264
012024081312MINT11      010FII MINT EDUCI           R$  000000000940100000000094010000000009401000000000940100000000094010000000009352000000000970000002000000000000000009000000000000084609000000000000009999123100000010000000000000BRMINTCTF009103
012024081312RENV11      010FII RENV    CI           R$  000000000103000000000010300000000001002000000000101400000000010290000000001018000000000102900079000000000000001155000000000001171763000000000000009999123100000010000000000000BRRENVCTF003100
012024081312RFOF11      010FII RB CFOF CI           R$  000000000698800000000070410000000006988000000000702000000000070250000000007026000000000704000043000000000000001450000000000010179401000000000000009999123100000010000000000000BRRFOFCTF001153
012024081312RINV11      010FII REAL INVCI           R$  000000001105900000000110590000000011020000000001102200000000110250000000011025000000001105300430000000000000007802000000000085998978000000000000009999123100000010000000000000BRRINVCTF004120
012024081312RMAI11      010FII REAGMULTCI           R$  000000000698000000000071090000000006980000000000703100000000071090000000007109000000000713900002000000000000000005000000000000035158000000000000009999123100000010000000000000BRRMAICTF000136
012024081312RNDP11      010FII BB R PAPCI           R$  000000000626800000000063640000000006268000000000627200000000063510000000006276000000000639500019000000000000000116000000000000727649000000000000009999123100000010000000000000BRRNDPCTF007250
012024081312RNGO11      010FII RIONEGROCI           R$  000000000454500000000045840000000004545000000000454800000000045840000000004550000000000458400042000000000000000460000000000002092188000000000000009999123100000010000000000000BRRNGOCTF003245
012024081312BNFS11      010FII BANRISULCI           R$  000000001191500000000120500000000011915000000001199300000000119500000000011957000000001197700078000000000000000328000000000003933710000000000000009999123100000010000000000000BRBNFSCTF000243
012024081312BPFF11      010FII ABSOLUTOCI           R$  000000000680800000000068840000000006800000000000683500000000068460000000006846000000000684800634000000000000003995000000000027309778000000000000009999123100000010000000000000BRBPFFCTF002238
012024081312BPML11      010FII BTG SHOPCI           R$  000000000889900000000088990000000008514000000000858900000000085750000000008575000000000868800867000000000000005095000000000043761183000000000000009999123100000010000000000000BRBPMLCTF006132
012024081312BPRP11      010FII BRLPROP CI  ER       R$  000000001069900000000106990000000010699000000001069900000000106990000000009001000000001069400001000000000000000001000000000000010699000000000000009999123100000010000000000000BRBPRPCTF006161
012024081312PMIS11      010FII PMIS    CI  ES       R$  000000000094900000000009500000000000934000000000094200000000009340000000000934000000000094601478000000000000031683000000000029865418000000000000009999123100000010000000000000BRPMISCTF006109
012024081312PORD11      010FII POLO CRICI           R$  000000000090600000000009060000000000893000000000089700000000008940000000000893000000000089404003000000000000087314000000000078362041000000000000009999123100000010000000000000BRPORDCTF005176
012024081312PQAG11      010FII PARQ ANHCI           R$  000000000591500000000059780000000005915000000000597200000000059780000000005883000000000590000004000000000000000012000000000000071672000000000000009999123100000010000000000000BRPQAGCTF009150
012024081312PQDP11      010FII D PEDRO CI           R$  000000019298000000001929800000000190010000000019037700000001905000000000190500000000019099000046000000000000000069000000000013136066000000000000009999123100000010000000000000BRPQDPCTF004273
012024081312SNCI11      010FII SUNO CRICI           R$  000000000968400000000097530000000009641000000000969300000000097150000000009714000000000971500462000000000000006335000000000061411334000000000000009999123100000010000000000000BRSNCICTF002137
012024081312SNEL11      010FII SUNO EL CI           R$  000000000093700000000009380000000000931000000000093500000000009360000000000935000000000093600581000000000000048478000000000045343913000000000000009999123100000010000000000000BRSNELCTF010110
012024081312SNFF11      010FII SUNOFOFICI           R$  000000000884300000000089090000000008840000000000888800000000089010000000008876000000000890100328000000000000006413000000000057001616000000000000009999123100000010000000000000BRSNFFCTF001139
012024081312SNLG11      010FII SUNO LG CI           R$  000000000323100000000033000000000003225000000000325600000000032940000000003294000000000330000051000000000000000512000000000001667427000000000000009999123100000010000000000000BRSNLGCTF007105
012024081312SNME11      010FII SNME    CI           R$  000000000097500000000009750000000000963000000000097200000000009730000000000970000000000097300065000000000000004619000000000004490620000000000000009999123100000010000000000000BRSNMECTF000108
012024081312SPGM15      010FII SPGM    CI           R$  000000000115500000000012700000000001155000000000121200000000012700000000000000000000000000000002000000000000000002000000000000002425000000000000009999123100000010000000000000BRSPGMCTF018100
012024081312SPTW11      010FII SP DOWNTCI           R$  000000000406400000000040960000000004061000000000407800000000040820000000004062000000000408200174000000000000000801000000000003266955000000000000009999123100000010000000000000BRSPTWCTF002237
012024081312SPXS11      010FII SPX SYN CI  ER       R$  000000000092600000000009280000000000925000000000092600000000009250000000000925000000000092701852000000000000023009000000000021315596000000000000009999123100000010000000000000BRSPXSCTF002126
012024081312PLCR11      010FII PLURAL RCI           R$  000000000864400000000086920000000008551000000000863800000000085510000000008551000000000857900371000000000000004131000000000035684928000000000000009999123100000010000000000000BRPLCRCTF003157
012024081312RECX11      010FII REC FOF CI           R$  000000000650300000000065030000000006503000000000650300000000065030000000006390000000000659000001000000000000000001000000000000006503000000000000009999123100000010000000000000BRRECXCTF002140
012024081312RELG11      010FII REC LOG CI  ER       R$  000000000578000000000059190000000005697000000000583700000000059120000000005840000000000591500208000000000000001400000000000008172346000000000000009999123100000010000000000000BRRELGCTF008137
012024081312SMRE11      010FII SMRE    CI           R$  000000001000000000000100000000000010000000000001000000000000100000000000009851000000001000000004000000000000000004000000000000040000000000000000009999123100000010000000000000BRSMRECTF001103
012024081312EURO11      010FII EUROPAR CI           R$  000000002489900000000249000000000024111000000002435300000000246980000000024590000000002469800031000000000000000195000000000004748851000000000000009999123100000010000000000000BREUROCTF011361
012024081312EVBI11      010FII VBI CON CI           R$  000000000100200000000010020000000000990000000000099600000000010010000000000993000000000100200066000000000000003704000000000003689648000000000000009999123100000010000000000000BREVBICTF007152
012024081312CARE11      010FII DEA CARECI           R$  000000000016300000000001660000000000161000000000016300000000001640000000000164000000000016500124000000000000003773000000000000615514000000000000009999123100000010000000000000BRCARECTF000112
012024081312CBOP11      010FII CBOP PAXCI           R$  000000000280600000000028250000000002806000000000280600000000028250000000002806000000000282400004000000000000000051000000000000143126000000000000009999123100000010000000000000BRCBOPCTF001232
012024081312CCME11      010FII CANUMA  CI  ER       R$  000000000105700000000010570000000001045000000000104600000000010530000000001045000000000105302960000000000000019431000000000020331035000000000000009999123100000010000000000000BRCCMECTF007125
012024081312CACR11      010CARTESIA FIICI           R$  000000001042000000000104400000000010400000000001041800000000104200000000010415000000001042001546000000000000008519000000000088758424000000000000009999123100000010000000000000BRCACRCTF004135
012024081312IBCR11      010FII BREI    CI  ER       R$  000000000693500000000069840000000006896000000000692100000000069000000000006895000000000690000153000000000000002098000000000014520381000000000000009999123100000010000000000000BRIBCRCTF009139
012024081312BRCO11      010FII BRESCO  CI           R$  000000001169200000000117770000000011550000000001167200000000115980000000011552000000001159803762000000000000020439000000000238578877000000000000009999123100000010000000000000BRBRCOCTF007159
012024081312BRCR11      010FII BC FUND CI  ER       R$  000000000504200000000050570000000004996000000000501700000000050400000000005039000000000504004930000000000000029955000000000150297027000000000000009999123100000010000000000000BRBRCRCTF000269
