00COTAHIST.2024BOVESPA 20240520                                                                                                                                                                                                                      
012024052002BRAP3       010BRADESPAR   ON      N1   R$  000000000193500000000019580000000001926000000000194500000000019260000000001926000000000194400454000000000000139800000000000271934800000000000000009999123100000010000000000000BRBRAPACNOR5148
012024052002BRAP4       010BRADESPAR   PN      N1   R$  000000000201800000000020250000000002001000000000201300000000020100000000002009000000000201005965000000000003457000000000006959014300000000000000009999123100000010000000000000BRBRAPACNPR2148
012024052002BRBI11      010BR PARTNERS UNT ED  N2   R$  000000000147100000000014830000000001463000000000146900000000014730000000001472000000000147501230000000000000183800000000000270136100000000000000009999123100000010000000000000BRBRBICDAM10109
012024052002BRFS3       010BRF SA      ON      NM   R$  000000000194600000000019830000000001941000000000196400000000019650000000001964000000000196518713000000000012528400000000024608577300000000000000009999123100000010000000000000BRBRFSACNOR8122
012024052002CSED3       010CRUZEIRO EDUON      NM   R$  000000000043500000000004400000000000427000000000043400000000004380000000000435000000000043801168000000000000428600000000000186041200000000000000009999123100000010000000000000BRCSEDACNOR9104
012024052002CSMG3       010COPASA      ON      NM   R$  000000000205400000000020940000000002054000000000207700000000020770000000002077000000000207903782000000000001003400000000002084343400000000000000009999123100000010000000000000BRCSMGACNOR5173
012024052002CSNA3       010SID NACIONALON  ED       R$  000000000133300000000013510000000001327000000000134200000000013470000000001343000000000134808997000000000005348900000000007181436500000000000000009999123100000010000000000000BRCSNAACNOR6261
012024052002TAEE11      010TAESA       UNT EJ  N2   R$  000000000349000000000035400000000003476000000000351300000000035400000000003525000000000354005334000000000001617500000000005683733500000000000000009999123100000010000000000000BRTAEECDAM10147
012024052002TAEE3       010TAESA       ON  EJ  N2   R$  000000000116000000000011670000000001154000000000115900000000011670000000001165000000000116700484000000000000125300000000000145322000000000000000009999123100000010000000000000BRTAEEACNOR9147
012024052002TAEE4       010TAESA       PN  EJ  N2   R$  000000000117000000000011810000000001163000000000117300000000011800000000001180000000000118100765000000000000211000000000000247671200000000000000009999123100000010000000000000BRTAEEACNPR6147
012024052002VAMO3       010VAMOS       ON      NM   R$  000000000084900000000008800000000000843000000000086700000000008720000000000872000000000087411180000000000004716600000000004091700200000000000000009999123100000010000000000000BRVAMOACNOR7105
012024052002VBBR3       010VIBRA       ON      NM   R$  000000000234500000000024120000000002345000000000238100000000023740000000002374000000000237511994000000000004798700000000011426173000000000000000009999123100000010000000000000BRVBBRACNOR1107
012024052002EGIE3       010ENGIE BRASILON      NM   R$  000000000433700000000044550000000004322000000000441600000000044190000000004412000000000441906934000000000001707700000000007542409500000000000000009999123100000010000000000000BREGIEACNOR9126
012024052002EKTR4       010ELEKTRO     PN           R$  000000000394400000000039550000000003944000000000395200000000039550000000003903000000000395500003000000000000000500000000000001976400000000000000009999123100000010000000000000BREKTRACNPR7162
012024052002ELET3       010ELETROBRAS  ON      N1   R$  000000000380400000000038320000000003685000000000373300000000036850000000003682000000000368918121000000000013120500000000048985697500000000000000009999123100000010000000000000BRELETACNOR6160
012024052002ELET6       010ELETROBRAS  PNB     N1   R$  000000000422500000000042480000000004134000000000416300000000041470000000004146000000000415105179000000000001629800000000006786253500000000000000009999123100000010000000000000BRELETACNPB7077
012024052002GRND3       010GRENDENE    ON      NM   R$  000000000064300000000006460000000000632000000000064000000000006410000000000640000000000064202782000000000001257100000000000804612500000000000000009999123100000010000000000000BRGRNDACNOR3173
012024052002GUAR3       010GUARARAPES  ON      NM   R$  000000000077400000000007910000000000756000000000078100000000007900000000000785000000000079102273000000000001230200000000000961861800000000000000009999123100000010000000000000BRGUARACNOR4172
012024052002HAGA4       010HAGA S/A    PN           R$  000000000012100000000001230000000000118000000000012000000000001210000000000121000000000012300013000000000000001900000000000000228100000000000000009999123100000010000000000000BRHAGAACNPR4103
012024052002HAPV3       010HAPVIDA     ON      NM   R$  000000000045000000000004670000000000450000000000045700000000004550000000000454000000000045535648000000000095742600000000043820799300000000000000009999123100000010000000000000BRHAPVACNOR4114
012024052002HBOR3       010HELBOR      ON      NM   R$  000000000025500000000002600000000000252000000000025500000000002550000000000254000000000025800357000000000000387100000000000098841200000000000000009999123100000010000000000000BRHBORACNOR3118
012024052002JHSF3       010JHSF PART   ON      NM   R$  000000000043200000000004330000000000409000000000042100000000004150000000000414000000000041505720000000000010596800000000004469216900000000000000009999123100000010000000000000BRJHSFACNOR2135
012024052002BAHI3       010BAHEMA      ON      MA   R$  000000000078300000000008160000000000758000000000079000000000007580000000000755000000000077900038000000000000010400000000000008220500000000000000009999123100000010000000000000BRBAHIACNOR1074
012024052002BAZA3       010AMAZONIA    ON           R$  000000000969300000000096930000000009592000000000967000000000096500000000009560000000000969300009000000000000000900000000000008703000000000000000009999123100000010000000000000BRBAZAACNOR0179
012024052002BBAS3       010BRASIL      ON      NM   R$  000000000276500000000028050000000002762000000000279000000000027920000000002791000000000279242147000000000016513000000000046071330200000000000000009999123100000010000000000000BRBBASACNOR3322
012024052002SRNA3       010SERENA      ON      NM   R$  000000000094400000000009730000000000929000000000095700000000009610000000000960000000000096107290000000000002823500000000002703993000000000000000009999123100000010000000000000BRSRNAACNOR4100
012024052002STBP3       010SANTOS BRP  ON      NM   R$  000000000120900000000012260000000001193000000000120600000000012010000000001199000000000120316557000000000007047200000000008504815100000000000000009999123100000010000000000000BRSTBPACNOR3129
012024052002SUZB3       010SUZANO S.A. ON      NM   R$  000000000517800000000052590000000005105000000000517500000000051050000000005104000000000510534498000000000012534400000000064877896400000000000000009999123100000010000000000000BRSUZBACNOR0129
012024052002MRVE3       010MRV         ON      NM   R$  000000000072500000000007640000000000725000000000075000000000007540000000000753000000000075611985000000000011283600000000008466232700000000000000009999123100000010000000000000BRMRVEACNOR2127
012024052002PRNR3       010PRINER      ON      NM   R$  000000000119600000000012050000000001179000000000118800000000011880000000001187000000000118801719000000000000413900000000000492103600000000000000009999123100000010000000000000BRPRNRACNOR4109
012024052002BIOM3       010BIOMM       ON      MA   R$  000000000157800000000016430000000001514000000000158100000000015620000000001540000000000156200703000000000000092500000000000146324200000000000000009999123100000010000000000000BRBIOMACNOR2112
012024052002ESPA3       010ESPACOLASER ON      NM   R$  000000000011900000000001260000000000117000000000012100000000001230000000000122000000000012300874000000000001452900000000000176855100000000000000009999123100000010000000000000BRESPAACNOR7103
012024052002ESTR4       010ESTRELA     PN           R$  000000000019000000000002040000000000190000000000019900000000002040000000000190000000000021900003000000000000000300000000000000059800000000000000009999123100000010000000000000BRESTRACNPR0144
012024052002EUCA3       010EUCATEX     ON      N1   R$  000000000149400000000014940000000001494000000000149400000000014940000000001477000000000172200001000000000000000100000000000000149400000000000000009999123100000010000000000000BREUCAACNOR1157
012024052002EUCA4       010EUCATEX     PN      N1   R$  000000000138000000000014260000000001379000000000140800000000014100000000001409000000000142400207000000000000037300000000000052550100000000000000009999123100000010000000000000BREUCAACNPR8044
012024052002EVEN3       010EVEN        ON  ED  NM   R$  000000000071100000000007250000000000705000000000071700000000007180000000000716000000000071801268000000000000392300000000000281356700000000000000009999123100000010000000000000BREVENACNOR8119
012024052002BLAU3       010BLAU        ON      NM   R$  000000000108900000000010910000000001069000000000107800000000010770000000001077000000000108300740000000000000145800000000000157269700000000000000009999123100000010000000000000BRBLAUACNOR8113
012024052002BMEB3       010MERCANTIL   ON      N1   R$  000000000246100000000025200000000002450000000000246200000000024510000000002450000000000254000032000000000000004800000000000011819300000000000000009999123100000010000000000000BRBMEBACNOR8205
012024052002BMEB4       010MERCANTIL   PN      N1   R$  000000000269500000000026950000000002635000000000266600000000026500000000002650000000000266500052000000000000010600000000000028262900000000000000009999123100000010000000000000BRBMEBACNPR5210
012024052002BMGB4       010BANCO BMG   PN      N1   R$  000000000033900000000003500000000000339000000000034500000000003470000000000345000000000034700807000000000000656900000000000227241900000000000000009999123100000010000000000000BRBMGBACNPR0109
012024052002BMIN4       010MERC INVEST PN           R$  000000000154000000000015400000000001540000000000154000000000015400000000001520000000000156700001000000000000000500000000000000770000000000000000009999123100000010000000000000BRBMINACNPR1176
012024052002BMKS3       010BIC MONARK  ON           R$  000000003555500000000370000000000035555000000003617700000000370000000000036500000000003790000010000000000000000040000000000001447084000000000000009999123100000010000000000000BRBMKSACNOR9166
012024052002FESA3       010FERBASA     ON      N1   R$  000000000148500000000014850000000001485000000000148500000000014850000000001476000000000148600001000000000000000100000000000000148500000000000000009999123100000010000000000000BRFESAACNOR8187
012024052002FESA4       010FERBASA     PN      N1   R$  000000000080000000000008270000000000794000000000081200000000008260000000000823000000000082603101000000000000941600000000000764667400000000000000009999123100000010000000000000BRFESAACNPR5083
012024052002LUPA3       010LUPATECH    ON      NM   R$  000000000016000000000001680000000000158000000000016500000000001680000000000167000000000016800307000000000000299000000000000049345100000000000000009999123100000010000000000000BRLUPAACNOR8112
012024052002LVTC3       010WDC NETWORKSON      NM   R$  000000000044500000000004450000000000417000000000042900000000004280000000000425000000000042800168000000000000035900000000000015413200000000000000009999123100000010000000000000BRLVTCACNOR4102
012024052002LWSA3       010LWSA        ON      NM   R$  000000000046200000000004700000000000455000000000046100000000004580000000000457000000000045807388000000000006175600000000002847632600000000000000009999123100000010000000000000BRLWSAACNOR8103
012024052002BMOB3       010BEMOBI TECH ON      NM   R$  000000000131200000000013180000000001285000000000130100000000013040000000001304000000000130901211000000000000309900000000000403314600000000000000009999123100000010000000000000BRBMOBACNOR7103
012024052002BRSR3       010BANRISUL    ON      N1   R$  000000000120200000000012100000000001161000000000119200000000011710000000001160000000000119300091000000000000014300000000000017048000000000000000009999123100000010000000000000BRBRSRACNOR3187
012024052002BRSR6       010BANRISUL    PNB     N1   R$  000000000115900000000011790000000001144000000000115900000000011530000000001149000000000115303039000000000001273400000000001475923300000000000000009999123100000010000000000000BRBRSRACNPB4190
012024052002BSLI3       010BRB BANCO   ON  ES       R$  000000000120000000000015800000000001200000000000134800000000012800000000001280000000000136700182000000000000024300000000000032780500000000000000009999123100000010000000000000BRBSLIACNOR5193
012024052002BSLI4       010BRB BANCO   PN  ES       R$  000000000157700000000022590000000001500000000000185500000000015000000000001500000000000156700080000000000000013300000000000024680500000000000000009999123100000010000000000000BRBSLIACNPR2193
012024052002MAPT4       010CEMEPE      PN           R$  000000000065000000000006660000000000650000000000066100000000006620000000000600000000000066200005000000000000000600000000000000396700000000000000009999123100000010000000000000BRMAPTACNPR5106
012024052002CXSE3       010CAIXA SEGURION      NM   R$  000000000158900000000016130000000001585000000000160200000000016060000000001605000000000160810284000000000002799500000000004484861900000000000000009999123100000010000000000000BRCXSEACNOR7106
012024052002CYRE3       010CYRELA REALTON      NM   R$  000000000205300000000020980000000002021000000000205800000000020490000000002048000000000204911852000000000003642400000000007496993900000000000000009999123100000010000000000000BRCYREACNOR7140
012024052002ELMD3       010ELETROMIDIA ON      NM   R$  000000000190000000000019270000000001885000000000190800000000018950000000001888000000000190000444000000000000056600000000000108016500000000000000009999123100000010000000000000BRELMDACNOR3101
012024052002EMAE4       010EMAE        PN           R$  000000000480100000000048020000000004701000000000476300000000047600000000004760000000000480000065000000000000009800000000000046679100000000000000009999123100000010000000000000BREMAEACNPR1125
012024052002EMBR3       010EMBRAER     ON      NM   R$  000000000395600000000039570000000003833000000000388700000000038880000000003887000000000389020281000000000008031200000000031222300800000000000000009999123100000010000000000000BREMBRACNOR4191
012024052002ENAT3       010ENAUTA PART ON      NM   R$  000000000254400000000025490000000002452000000000248400000000024930000000002487000000000249408018000000000002651100000000006586097500000000000000009999123100000010000000000000BRENATACNOR0104
012024052002MTRE3       010MITRE REALTYON      NM   R$  000000000040700000000004140000000000403000000000040800000000004070000000000406000000000040701036000000000000744900000000000304098900000000000000009999123100000010000000000000BRMTREACNOR6110
012024052002MTSA4       010METISA      PN  ED       R$  000000000440100000000044900000000004401000000000444400000000044900000000004422000000000449000013000000000000001500000000000006666800000000000000009999123100000010000000000000BRMTSAACNPR9072
012024052002MULT3       010MULTIPLAN   ON      N2   R$  000000000240800000000024140000000002343000000000237700000000023500000000002349000000000235220540000000000005893600000000014009954600000000000000009999123100000010000000000000BRMULTACNOR5138
012024052002MWET4       010WETZEL S/A  PN           R$  000000000057400000000005850000000000560000000000057800000000005850000000000562000000000059900010000000000000001200000000000000694000000000000000009999123100000010000000000000BRMWETACNPR3118
012024052002KRSA3       010KORA SAUDE  ON      NM   R$  000000000006700000000000690000000000066000000000006700000000000680000000000067000000000006800192000000000000716300000000000048167300000000000000009999123100000010000000000000BRKRSAACNOR0100
012024052002SBSP3       010SABESP      ON      NM   R$  000000000776100000000078610000000007745000000000778800000000077810000000007776000000000778711796000000000003009500000000023439338900000000000000009999123100000010000000000000BRSBSPACNOR5161
012024052002SCAR3       010SAO CARLOS  ON      NM   R$  000000000239900000000024140000000002390000000000240200000000024030000000002403000000000241500012000000000000001500000000000003603400000000000000009999123100000010000000000000BRSCARACNOR7131
012024052002SEER3       010SER EDUCA   ON      NM   R$  000000000047900000000004880000000000471000000000047900000000004780000000000478000000000048000849000000000000412100000000000197584400000000000000009999123100000010000000000000BRSEERACNOR5119
012024052002SEQL3       010SEQUOIA LOG ON      NM   R$  000000000003800000000000390000000000037000000000003800000000000380000000000038000000000003901504000000000002356500000000000089786800000000000000009999123100000010000000000000BRSEQLACNOR2102
012024052002SHOW3       010TIME FOR FUNON      NM   R$  000000000019900000000002080000000000197000000000020300000000002030000000000202000000000020500273000000000000123300000000000025055500000000000000009999123100000010000000000000BRSHOWACNOR7105
012024052002SHUL4       010SCHULZ      PN           R$  000000000063100000000006470000000000630000000000063800000000006390000000000637000000000064001015000000000000349100000000000222941300000000000000009999123100000010000000000000BRSHULACNPR4155
012024052002SIMH3       010SIMPAR      ON      NM   R$  000000000064200000000006470000000000627000000000063800000000006410000000000640000000000064503087000000000002056900000000001313295700000000000000009999123100000010000000000000BRSIMHACNOR0107
012024052002VALE3       010VALE        ON      NM   R$  000000000661400000000066600000000006572000000000661600000000066150000000006610000000000661540647000000000022222300000000147027652000000000000000009999123100000010000000000000BRVALEACNOR0210
012024052002ZAMP3       010ZAMP S.A.   ON           R$  000000000033100000000003420000000000328000000000033700000000003380000000000338000000000034202172000000000000608300000000000205168100000000000000009999123100000010000000000000BRZAMPACNOR5100
012024052002PFRM3       010PROFARMA    ON      NM   R$  000000000058500000000005980000000000585000000000059200000000005910000000000591000000000059200394000000000000115300000000000068353200000000000000009999123100000010000000000000BRPFRMACNOR1116
012024052002PGMN3       010PAGUE MENOS ON      NM   R$  000000000025400000000002620000000000250000000000025600000000002580000000000255000000000025801284000000000000996100000000000255003600000000000000009999123100000010000000000000BRPGMNACNOR8103
012024052002PINE3       010PINE        ON      N2   R$  000000000062000000000006280000000000578000000000060300000000005780000000000578000000000062500021000000000000006700000000000004043200000000000000009999123100000010000000000000BRPINEACNOR1149
012024052002PINE4       010PINE        PN      N2   R$  000000000045500000000004670000000000454000000000046200000000004620000000000462000000000046500736000000000000288400000000000133352900000000000000009999123100000010000000000000BRPINEACNPR8149
012024052002PLPL3       010PLANOEPLANO ON      NM   R$  000000000097300000000010130000000000961000000000099300000000010040000000001003000000000101201582000000000000426400000000000423811600000000000000009999123100000010000000000000BRPLPLACNOR5104
012024052002PNVL3       010DIMED       ON      NM   R$  000000000108100000000011060000000001081000000000109400000000010950000000001092000000000109700846000000000000192200000000000210275900000000000000009999123100000010000000000000BRPNVLACNOR9206
012024052002POMO3       010MARCOPOLO   ON      N2   R$  000000000053800000000005410000000000532000000000053600000000005360000000000536000000000054300199000000000000084500000000000045375900000000000000009999123100000010000000000000BRPOMOACNOR0097
012024052002POMO4       010MARCOPOLO   PN      N2   R$  000000000069000000000007030000000000690000000000069600000000007030000000000703000000000070408933000000000005659100000000003943743100000000000000009999123100000010000000000000BRPOMOACNPR7097
012024052002PORT3       010WILSON SONS ON      NM   R$  000000000160900000000016230000000001581000000000159700000000015900000000001590000000000159502443000000000001039900000000001661330200000000000000009999123100000010000000000000BRPORTACNOR8107
012024052002POSI3       010POSITIVO TECON      NM   R$  000000000099500000000010000000000000976000000000098700000000009930000000000988000000000099303188000000000001036200000000001022864600000000000000009999123100000010000000000000BRPOSIACNOR9116
012024052002PRIO3       010PETRORIO    ON      NM   R$  000000000478000000000048430000000004750000000000477400000000047500000000004750000000000475720740000000000008753800000000041795982700000000000000009999123100000010000000000000BRPRIOACNOR1106
012024052002SANB11      010SANTANDER BRUNT          R$  000000000276300000000028140000000002754000000000278600000000027850000000002780000000000278811358000000000003236700000000009020447800000000000000009999123100000010000000000000BRSANBCDAM13164
012024052002SANB3       010SANTANDER BRON           R$  000000000131000000000013290000000001305000000000131500000000013130000000001310000000000131300463000000000000095900000000000126160600000000000000009999123100000010000000000000BRSANBACNOR8171
012024052002SANB4       010SANTANDER BRPN           R$  000000000145600000000014830000000001452000000000147100000000014720000000001469000000000147500404000000000000067600000000000099449400000000000000009999123100000010000000000000BRSANBACNPR5171
012024052002SAPR11      010SANEPAR     UNT     N2   R$  000000000287100000000029090000000002854000000000288600000000028860000000002880000000000288702133000000000000537500000000001551683100000000000000009999123100000010000000000000BRSAPRCDAM13117
012024052002SAPR3       010SANEPAR     ON      N2   R$  000000000055000000000005570000000000545000000000055100000000005570000000000551000000000055700709000000000000250800000000000138371000000000000000009999123100000010000000000000BRSAPRACNOR9158
012024052002SAPR4       010SANEPAR     PN      N2   R$  000000000058100000000005870000000000580000000000058300000000005860000000000583000000000058602388000000000001244100000000000725969000000000000000009999123100000010000000000000BRSAPRACNPR6158
012024052002SBFG3       010GRUPO SBF   ON      NM   R$  000000000123300000000012740000000001227000000000126000000000012720000000001268000000000127504176000000000001223300000000001542135600000000000000009999123100000010000000000000BRSBFGACNOR1103
012024052002UNIP3       010UNIPAR      ON           R$  000000000513800000000051640000000005081000000000512700000000051640000000005122000000000516400058000000000000008700000000000044610400000000000000009999123100000010000000000000BRUNIPACNOR7206
012024052002UNIP6       010UNIPAR      PNB          R$  000000000510000000000051180000000005064000000000509300000000050820000000005081000000000508300956000000000000157300000000000801223700000000000000009999123100000010000000000000BRUNIPACNPB8206
012024052002USIM3       010USIMINAS    ON      N1   R$  000000000074000000000007560000000000729000000000074400000000007530000000000752000000000075501031000000000002517900000000001875168800000000000000009999123100000010000000000000BRUSIMACNOR3167
012024052002USIM5       010USIMINAS    PNA     N1   R$  000000000079600000000008170000000000794000000000080700000000008150000000000814000000000081610177000000000011108500000000008971727300000000000000009999123100000010000000000000BRUSIMACNPA6169
012024052002WHRL3       010WHIRLPOOL   ON           R$  000000000046100000000004610000000000461000000000046100000000004610000000000462000000000047000001000000000000000100000000000000046100000000000000009999123100000010000000000000BRWHRLACNOR5128
012024052002WHRL4       010WHIRLPOOL   PN           R$  000000000048600000000004870000000000475000000000048300000000004870000000000484000000000048700036000000000000008500000000000004113900000000000000009999123100000010000000000000BRWHRLACNPR2128
012024052002WIZC3       010WIZ CO      ON      NM   R$  000000000064700000000006620000000000641000000000065300000000006560000000000654000000000065601402000000000000331600000000000216784300000000000000009999123100000010000000000000BRWIZCACNOR5102
012024052002TOTS3       010TOTVS       ON      NM   R$  000000000284200000000029340000000002841000000000290800000000029030000000002902000000000291211301000000000002796100000000008133229100000000000000009999123100000010000000000000BRTOTSACNOR8144
012024052002VITT3       010VITTIA      ON      NM   R$  000000000053700000000005420000000000522000000000053100000000005330000000000533000000000053500901000000000000354100000000000188269300000000000000009999123100000010000000000000BRVITTACNOR4107
012024052002VIVA3       010VIVARA S.A. ON      NM   R$  000000000231200000000023780000000002275000000000235200000000023450000000002345000000000234908356000000000003230500000000007600608500000000000000009999123100000010000000000000BRVIVAACNOR0107
012024052002VIVR3       010VIVER       ON      NM   R$  000000000028700000000002890000000000282000000000028400000000002870000000000285000000000028800068000000000000035400000000000010086200000000000000009999123100000010000000000000BRVIVRACNOR4122
012024052002VIVT3       010TELEF BRASILON           R$  000000000463900000000046620000000004532000000000457400000000045560000000004555000000000456513111000000000003966800000000018145946200000000000000009999123100000010000000000000BRVIVTACNOR0181
012024052002VLID3       010VALID       ON      NM   R$  000000000170900000000017300000000001689000000000170500000000016890000000001689000000000170701073000000000000201600000000000343804600000000000000009999123100000010000000000000BRVLIDACNOR5142
012024052002ARZZ3       010AREZZO CO   ON      NM   R$  000000000487200000000050100000000004836000000000495000000000049410000000004941000000000495007086000000000001864500000000009229990600000000000000009999123100000010000000000000BRARZZACNOR3146
012024052002ASAI3       010ASSAI       ON      NM   R$  000000000135700000000013720000000001338000000000135100000000013440000000001343000000000134513877000000000006307000000000008521026400000000000000009999123100000010000000000000BRASAIACNOR0106
012024052002ATOM3       010ATOMPAR     ON           R$  000000000021600000000002240000000000216000000000021900000000002210000000000218000000000022100059000000000000016100000000000003533000000000000000009999123100000010000000000000BRATOMACNOR1106
012024052002AURE3       010AUREN       ON      NM   R$  000000000117800000000011990000000001174000000000118700000000011870000000001185000000000118706524000000000005573200000000006616099100000000000000009999123100000010000000000000BRAUREACNOR9104
012024052002SLCE3       010SLC AGRICOLAON      NM   R$  000000000182900000000018740000000001829000000000185700000000018660000000001862000000000186607048000000000001487300000000002762206800000000000000009999123100000010000000000000BRSLCEACNOR2125
012024052002SMFT3       010SMART FIT   ON      NM   R$  000000000232300000000023500000000002296000000000231500000000022960000000002295000000000230005788000000000001234400000000002858686400000000000000009999123100000010000000000000BRSMFTACNOR1111
012024052002SMTO3       010SAO MARTINHOON      NM   R$  000000000270300000000027600000000002692000000000273400000000027540000000002752000000000275504579000000000000880400000000002407499900000000000000009999123100000010000000000000BRSMTOACNOR3125
012024052002PCAR3       010P.ACUCAR-CBDON      NM   R$  000000000031100000000003150000000000305000000000031100000000003140000000000313000000000031403941000000000004695900000000001461828900000000000000009999123100000010000000000000BRPCARACNOR3167
012024052002PDGR3       010PDG REALT   ON      NM   R$  000000000002500000000000270000000000023000000000002500000000000260000000000026000000000002700649000000000005430400000000000136613500000000000000009999123100000010000000000000BRPDGRACNOR8118
012024052002PDTC3       010PADTEC      ON      NM   R$  000000000021700000000002200000000000216000000000021700000000002170000000000217000000000021900039000000000000011100000000000002417200000000000000009999123100000010000000000000BRPDTCACNOR3101
012024052002BOBR4       010BOMBRIL     PN           R$  000000000021200000000002240000000000205000000000021700000000002150000000000216000000000022000199000000000000042800000000000009324400000000000000009999123100000010000000000000BRBOBRACNPR3128
012024052002BPAC11      010BTGP BANCO  UNT     N2   R$  000000000348500000000035050000000003439000000000346700000000034440000000003443000000000344919166000000000005978900000000020732235100000000000000009999123100000010000000000000BRBPACUNT006118
012024052002BPAC3       010BTGP BANCO  ON      N2   R$  000000000174900000000017490000000001706000000000172500000000017210000000001721000000000174900041000000000000004400000000000007591900000000000000009999123100000010000000000000BRBPACACNOR7133
012024052002BPAC5       010BTGP BANCO  PNA     N2   R$  000000000087600000000008870000000000860000000000086800000000008600000000000860000000000087800059000000000000012300000000000010686300000000000000009999123100000010000000000000BRBPACACNPA0133
012024052002CPLE3       010COPEL       ON      N2   R$  000000000086500000000008700000000000855000000000085800000000008570000000000857000000000086004636000000000003022800000000002596245500000000000000009999123100000010000000000000BRCPLEACNOR8149
012024052002CPLE6       010COPEL       PNB     N2   R$  000000000095400000000009610000000000947000000000095100000000009470000000000946000000000094811111000000000009371900000000008921111600000000000000009999123100000010000000000000BRCPLEACNPB9146
012024052002ALUP3       010ALUPAR      ON  ED  N2   R$  000000000097800000000009980000000000977000000000098600000000009870000000000982000000000098700100000000000000013500000000000013322800000000000000009999123100000010000000000000BRALUPACNOR8119
012024052002ALUP4       010ALUPAR      PN  ED  N2   R$  000000000097400000000009860000000000970000000000097900000000009700000000000971000000000098400091000000000000013900000000000013608600000000000000009999123100000010000000000000BRALUPACNPR5119
012024052002AMAR3       010LOJAS MARISAON      NM   R$  000000000016500000000001710000000000157000000000016600000000001710000000000168000000000017101129000000000000691500000000000114823700000000000000009999123100000010000000000000BRAMARACNOR4114
012024052002AMBP3       010AMBIPAR     ON      NM   R$  000000000089900000000009770000000000872000000000092700000000009720000000000964000000000097206795000000000003081900000000002859741200000000000000009999123100000010000000000000BRAMBPACNOR6103
012024052002ANIM3       010ANIMA       ON      NM   R$  000000000039800000000004090000000000395000000000040200000000004020000000000401000000000040504159000000000003526900000000001420819200000000000000009999123100000010000000000000BRANIMACNOR6107
012024052002APER3       010ALPER S.A.  ON           R$  000000000447000000000045350000000004470000000000452000000000045330000000004519000000000458600010000000000000001000000000000004520500000000000000009999123100000010000000000000BRAPERACNOR9106
012024052002CPFE3       010CPFL ENERGIAON      NM   R$  000000000342200000000034530000000003401000000000341200000000034100000000003403000000000341105878000000000002160000000000007371193600000000000000009999123100000010000000000000BRCPFEACNOR0137
012024052002GGBR3       010GERDAU      ON  ED  N1   R$  000000000171800000000017270000000001690000000000170200000000017020000000001695000000000170300444000000000000210300000000000357986600000000000000009999123100000010000000000000BRGGBRACNOR1192
012024052002GGBR4       010GERDAU      PN  ED  N1   R$  000000000195500000000019670000000001910000000000192700000000019280000000001926000000000192824772000000000016587300000000031967942800000000000000009999123100000010000000000000BRGGBRACNPR8192
012024052002AERI3       010AERIS       ON  EG  NM   R$  000000000101600000000010200000000000974000000000098900000000009740000000000974000000000098500446000000000000117000000000000115754400000000000000009999123100000010000000000000BRAERIACNOR4102
012024052002AESB3       010AES BRASIL  ON      NM   R$  000000000110500000000011090000000001100000000000110400000000011080000000001105000000000110808350000000000006190200000000006835964400000000000000009999123100000010000000000000BRAESBACNOR7106
012024052002AFLT3       010AFLUENTE T  ON           R$  000000000071500000000007250000000000715000000000071500000000007250000000000716000000000076200005000000000000002900000000000002076300000000000000009999123100000010000000000000BRAFLTACNOR1121
012024052002AGRO3       010BRASILAGRO  ON      NM   R$  000000000253700000000025760000000002532000000000255800000000025480000000002548000000000256500856000000000000120400000000000308045500000000000000009999123100000010000000000000BRAGROACNOR7114
012024052002CMIN3       010CSNMINERACAOON  ED  N2   R$  000000000052600000000005450000000000521000000000053700000000005380000000000538000000000053911162000000000011080700000000005952024500000000000000009999123100000010000000000000BRCMINACNOR2111
012024052002COCE5       010COELCE      PNA          R$  000000000340500000000034050000000003302000000000333000000000033350000000003335000000000334500319000000000000058900000000000196150800000000000000009999123100000010000000000000BRCOCEACNPA3147
012024052002COGN3       010COGNA ON    ON      NM   R$  000000000020400000000002080000000000201000000000020500000000002050000000000205000000000020608720000000000030447800000000006242287700000000000000009999123100000010000000000000BRCOGNACNOR2104
012024052002FHER3       010FER HERINGERON      NM   R$  000000000048300000000004890000000000483000000000048400000000004830000000000481000000000048300010000000000000001500000000000000727100000000000000009999123100000010000000000000BRFHERACNOR5103
012024052002FIEI3       010FICA        ON           R$  000000000085000000000009150000000000850000000000086000000000009150000000000850000000000093000003000000000000000600000000000000516500000000000000009999123100000010000000000000BRFIEIACNOR2100
012024052002FIQE3       010UNIFIQUE    ON      NM   R$  000000000036500000000003730000000000358000000000036700000000003710000000000370000000000037100462000000000000335000000000000122956100000000000000009999123100000010000000000000BRFIQEACNOR5106
012024052002FLRY3       010FLEURY      ON      NM   R$  000000000144600000000015000000000001434000000000147600000000014840000000001483000000000149108611000000000003760700000000005553499000000000000000009999123100000010000000000000BRFLRYACNOR5138
012024052002FRAS3       010FRAS-LE     ON      N1   R$  000000000182700000000018480000000001811000000000182200000000018160000000001815000000000181700984000000000000210300000000000383305600000000000000009999123100000010000000000000BRFRASACNOR0159
012024052002CAMB3       010CAMBUCI     ON           R$  000000000102200000000010450000000001012000000000102800000000010350000000001028000000000103500199000000000000034900000000000035906400000000000000009999123100000010000000000000BRCAMBACNOR4128
012024052002CAML3       010CAMIL       ON      NM   R$  000000000099400000000010050000000000987000000000099900000000010000000000000995000000000100001815000000000000427400000000000427148400000000000000009999123100000010000000000000BRCAMLACNOR3127
012024052002GEPA4       010GER PARANAP PN           R$  000000000250000000000025000000000002500000000000250000000000025000000000002473000000000251500004000000000000003900000000000009750000000000000000009999123100000010000000000000BRGEPAACNPR9160
012024052002GFSA3       010GAFISA      ON      NM   R$  000000000054500000000005560000000000520000000000053300000000005200000000000519000000000052003605000000000004653700000000002482872000000000000000009999123100000010000000000000BRGFSAACNOR3124
012024052002ITSA3       010ITAUSA      ON      N1   R$  000000000102200000000010300000000001021000000000102500000000010260000000001022000000000102600224000000000000103500000000000106107600000000000000009999123100000010000000000000BRITSAACNOR0439
012024052002ITSA4       010ITAUSA      PN      N1   R$  000000000102500000000010300000000001017000000000102200000000010210000000001021000000000102224350000000000023301800000000023824333300000000000000009999123100000010000000000000BRITSAACNPR7439
012024052002ITUB3       010ITAUUNIBANCOON      N1   R$  000000000285100000000028860000000002851000000000286300000000028540000000002854000000000286801378000000000000452000000000001294323800000000000000009999123100000010000000000000BRITUBACNOR4335
012024052002ITUB4       010ITAUUNIBANCOPN      N1   R$  000000000331900000000033400000000003300000000000331900000000033130000000003313000000000331927824000000000015670900000000052016710400000000000000009999123100000010000000000000BRITUBACNPR1335
012024052002MBLY3       010MOBLY       ON      NM   R$  000000000021800000000002260000000000218000000000022100000000002180000000000218000000000022400488000000000000111100000000000024650700000000000000009999123100000010000000000000BRMBLYACNOR5100
012024052002CASH3       010MELIUZ      ON      NM   R$  000000000058400000000006400000000000581000000000062200000000006190000000000617000000000061909953000000000005692800000000003543378800000000000000009999123100000010000000000000BRCASHACNOR8106
012024052002CBAV3       010CBA         ON      NM   R$  000000000062500000000006850000000000623000000000067000000000006800000000000679000000000068209103000000000008092500000000005426016400000000000000009999123100000010000000000000BRCBAVACNOR5104
012024052002CBEE3       010AMPLA ENERG ON           R$  000000000100000000000010000000000001000000000000100000000000010000000000000901000000000148400001000000000000000100000000000000100000000000000000009999123100000010000000000000BRCBEEACNOR3159
012024052002CCRO3       010CCR SA      ON      NM   R$  000000000126500000000012720000000001246000000000125900000000012540000000001253000000000125510544000000000007579300000000009549404600000000000000009999123100000010000000000000BRCCROACNOR2145
012024052002CRFB3       010CARREFOUR BRON      NM   R$  000000000105900000000010850000000001053000000000107400000000010760000000001075000000000108508983000000000004236200000000004551292800000000000000009999123100000010000000000000BRCRFBACNOR2116
012024052002CRPG5       010CRISTAL     PNA          R$  000000000323400000000032570000000003151000000000322500000000032070000000003151000000000323800035000000000000003800000000000012255000000000000000009999123100000010000000000000BRCRPGACNPA3118
012024052002CRPG6       010CRISTAL     PNB          R$  000000000319900000000032150000000003199000000000321100000000032130000000003155000000000321300006000000000000000600000000000001926600000000000000009999123100000010000000000000BRCRPGACNPB1118
012024052002CSAN3       010COSAN       ON      NM   R$  000000000143100000000014450000000001417000000000142600000000014210000000001421000000000142211503000000000007187100000000010252337400000000000000009999123100000010000000000000BRCSANACNOR6125
012024052002GGPS3       010GPS         ON      NM   R$  000000000191500000000019850000000001900000000000194300000000019290000000001928000000000194506234000000000002550800000000004957309500000000000000009999123100000010000000000000BRGGPSACNOR9103
012024052002GMAT3       010GRUPO MATEUSON      NM   R$  000000000080800000000008210000000000800000000000081500000000008130000000000813000000000081604464000000000002366900000000001929629700000000000000009999123100000010000000000000BRGMATACNOR7101
012024052002GOAU3       010GERDAU MET  ON  ED  N1   R$  000000000113800000000011470000000001111000000000112200000000011230000000001123000000000112900210000000000000303700000000000341054500000000000000009999123100000010000000000000BRGOAUACNOR1267
012024052002GOAU4       010GERDAU MET  PN  ED  N1   R$  000000000112700000000011300000000001106000000000111500000000011150000000001115000000000111606659000000000005045700000000005629326800000000000000009999123100000010000000000000BRGOAUACNPR8268
012024052002JALL3       010JALLESMACHADON      NM   R$  000000000069200000000006950000000000689000000000069100000000006910000000000690000000000069301269000000000000432000000000000298660200000000000000009999123100000010000000000000BRJALLACNOR0105
012024052002JBSS3       010JBS         ON      NM   R$  000000000291500000000029630000000002911000000000293700000000029400000000002940000000000294323853000000000007082800000000020808731900000000000000009999123100000010000000000000BRJBSSACNOR8121
012024052002MILS3       010MILLS       ON      NM   R$  000000000130000000000013150000000001298000000000130200000000013060000000001306000000000130702236000000000001806300000000002351866400000000000000009999123100000010000000000000BRMILSACNOR2126
012024052002JSLG3       010JSL         ON      NM   R$  000000000105500000000010810000000001040000000000105000000000010550000000001048000000000105603845000000000000808400000000000848972200000000000000009999123100000010000000000000BRJSLGACNOR2121
012024052002KEPL3       010KEPLER WEBERON      NM   R$  000000000099000000000010230000000000990000000000101100000000010190000000001017000000000102003832000000000001258500000000001272976400000000000000009999123100000010000000000000BRKEPLACNOR1062
012024052002ARML3       010ARMAC       ON      NM   R$  000000000110200000000011560000000001090000000000113800000000011560000000001156000000000115703524000000000001764400000000002009317300000000000000009999123100000010000000000000BRARMLACNOR1111
012024052002PSSA3       010PORTO SEGUROON      NM   R$  000000000313600000000031640000000003095000000000311900000000031200000000003110000000000312008298000000000001801400000000005619696300000000000000009999123100000010000000000000BRPSSAACNOR7154
012024052002PTBL3       010PORTOBELLO  ON      NM   R$  000000000047800000000004870000000000470000000000047800000000004800000000000480000000000048201203000000000000766400000000000366586800000000000000009999123100000010000000000000BRPTBLACNOR8132
012024052002PTNT3       010PETTENATI   ON           R$  000000000099100000000010090000000000991000000000100000000000010090000000000977000000000100900002000000000000000200000000000000200000000000000000009999123100000010000000000000BRPTNTACNOR6042
012024052002PTNT4       010PETTENATI   PN           R$  000000000071700000000007240000000000715000000000072100000000007190000000000691000000000072000016000000000000003800000000000002741800000000000000009999123100000010000000000000BRPTNTACNPR3047
012024052002QUAL3       010QUALICORP   ON      NM   R$  000000000016100000000001710000000000157000000000016500000000001700000000000170000000000017102423000000000007555100000000001250556800000000000000009999123100000010000000000000BRQUALACNOR6120
012024052002MATD3       010MATER DEI   ON      NM   R$  000000000056600000000005660000000000540000000000055100000000005530000000000551000000000055602105000000000000593900000000000327423800000000000000009999123100000010000000000000BRMATDACNOR4104
012024052002ODPV3       010ODONTOPREV  ON  ED  NM   R$  000000000119100000000012080000000001166000000000119500000000012030000000001200000000000120302941000000000006663100000000007963232300000000000000009999123100000010000000000000BRODPVACNOR4201
012024052002OFSA3       010OUROFINO S/AON      NM   R$  000000000214900000000021500000000002127000000000213000000000021270000000002055000000000214200005000000000000003600000000000007668500000000000000009999123100000010000000000000BROFSAACNOR7118
012024052002ONCO3       010ONCOCLINICASON      NM   R$  000000000076500000000008050000000000725000000000077500000000007910000000000791000000000079216877000000000013910000000000010782272500000000000000009999123100000010000000000000BRONCOACNOR6100
012024052002OPCT3       010OCEANPACT   ON      NM   R$  000000000066300000000006690000000000635000000000065000000000006420000000000642000000000064701751000000000000807500000000000525519500000000000000009999123100000010000000000000BROPCTACNOR0100
012024052002ORVR3       010ORIZON      ON      NM   R$  000000000415600000000041830000000004061000000000411700000000041170000000004097000000000411701689000000000000359900000000001481862500000000000000009999123100000010000000000000BRORVRACNOR0101
012024052002AVLL3       010ALPHAVILLE  ON      NM   R$  000000000035900000000003590000000000344000000000034700000000003580000000000345000000000035800015000000000000003000000000000001043800000000000000009999123100000010000000000000BRAVLLACNOR5103
012024052002AZEV3       010AZEVEDO     ON           R$  000000000013900000000001460000000000137000000000014100000000001420000000000142000000000014400291000000000000316500000000000044818300000000000000009999123100000010000000000000BRAZEVACNOR0121
012024052002AZEV4       010AZEVEDO     PN           R$  000000000013200000000001410000000000132000000000013500000000001340000000000133000000000013401522000000000002815100000000000381645500000000000000009999123100000010000000000000BRAZEVACNPR7121
012024052002AZUL4       010AZUL        PN      N2   R$  000000000101000000000010380000000000984000000000101300000000010220000000001022000000000102411516000000000010445300000000010583904100000000000000009999123100000010000000000000BRAZULACNPR4102
012024052002MYPK3       010IOCHP-MAXIONON      NM   R$  000000000115900000000011590000000001096000000000111000000000011010000000001101000000000110306201000000000002370100000000002632962300000000000000009999123100000010000000000000BRMYPKACNOR7154
012024052002RADL3       010RAIADROGASILON      NM   R$  000000000276000000000028040000000002751000000000278100000000027800000000002778000000000278108225000000000003896300000000010836496500000000000000009999123100000010000000000000BRRADLACNOR0156
012024052002B3SA3       010B3          ON      NM   R$  000000000112700000000011500000000001117000000000114000000000011430000000001142000000000114321184000000000044273000000000050476979700000000000000009999123100000010000000000000BRB3SAACNOR6132
012024052002BEES4       010BANESTES    PN           R$  000000000095100000000009630000000000951000000000095700000000009570000000000953000000000099400010000000000000001100000000000001053200000000000000009999123100000010000000000000BRBEESACNPR6315
012024052002BGIP4       010BANESE      PN           R$  000000000215000000000021990000000002150000000000217100000000021970000000002160000000000219800012000000000000001300000000000002822400000000000000009999123100000010000000000000BRBGIPACNPR8208
012024052002BRIT3       010BRISANET    ON      NM   R$  000000000042100000000004360000000000414000000000042400000000004160000000000415000000000041601178000000000000754900000000000320263200000000000000009999123100000010000000000000BRBRITACNOR0103
012024052002BRKM3       010BRASKEM     ON      N1   R$  000000000200000000000020630000000001991000000000201200000000020090000000001980000000000201000101000000000000018200000000000036632200000000000000009999123100000010000000000000BRBRKMACNOR1119
012024052002BRKM5       010BRASKEM     PNA     N1   R$  000000000199600000000020550000000001967000000000200300000000019810000000001977000000000198122310000000000006194900000000012409057600000000000000009999123100000010000000000000BRBRKMACNPA4121
012024052002CSRN3       010COSERN      ON           R$  000000000247000000000024700000000002470000000000247000000000024700000000002399000000000247000001000000000000000100000000000000247000000000000000009999123100000010000000000000BRCSRNACNOR0192
012024052002CSRN6       010COSERN      PNB          R$  000000000234900000000023490000000002349000000000234900000000023490000000002251000000000234700001000000000000000100000000000000234900000000000000009999123100000010000000000000BRCSRNACNPB1193
012024052002CSUD3       010CSU DIGITAL ON      NM   R$  000000000188000000000019200000000001862000000000189000000000019200000000001902000000000192200274000000000000053400000000000100952500000000000000009999123100000010000000000000BRCSUDACNOR5109
012024052002CTKA3       010KARSTEN     ON           R$  000000000190000000000019100000000001900000000000190200000000019010000000001500000000000204000006000000000000000600000000000001141500000000000000009999123100000010000000000000BRCTKAACNOR0043
012024052002CURY3       010CURY S/A    ON  ED  NM   R$  000000000188500000000019130000000001866000000000190100000000019090000000001899000000000191005235000000000001259100000000002394678100000000000000009999123100000010000000000000BRCURYACNOR3109
012024052002CVCB3       010CVC BRASIL  ON      NM   R$  000000000020000000000002110000000000197000000000020400000000002040000000000204000000000020505434000000000012589300000000002580209500000000000000009999123100000010000000000000BRCVCBACNOR1115
012024052002HBRE3       010HBR REALTY  ON      NM   R$  000000000050500000000005190000000000501000000000051400000000005180000000000517000000000051800680000000000000289600000000000148856900000000000000009999123100000010000000000000BRHBREACNOR4100
012024052002HBSA3       010HIDROVIAS   ON      NM   R$  000000000041700000000004170000000000404000000000040800000000004090000000000407000000000040903262000000000003447200000000001408712100000000000000009999123100000010000000000000BRHBSAACNOR0100
012024052002HETA4       010HERCULES    PN           R$  000000000057400000000005740000000000574000000000057400000000005740000000000571000000000059800001000000000000000100000000000000057400000000000000009999123100000010000000000000BRHETAACNPR9136
012024052002HYPE3       010HYPERA      ON      NM   R$  000000000300000000000030970000000002996000000000305600000000030870000000003086000000000309408812000000000004145100000000012671197400000000000000009999123100000010000000000000BRHYPEACNOR0140
012024052002KLBN11      010KLABIN S/A  UNT     N2   R$  000000000214200000000021830000000002136000000000216100000000021620000000002160000000000216310985000000000004683300000000010124664300000000000000009999123100000010000000000000BRKLBNCDAM18142
012024052002KLBN3       010KLABIN S/A  ON      N2   R$  000000000042900000000004380000000000428000000000043300000000004310000000000430000000000043200787000000000000516300000000000223572000000000000000009999123100000010000000000000BRKLBNACNOR2170
012024052002KLBN4       010KLABIN S/A  PN      N2   R$  000000000042800000000004370000000000428000000000043200000000004330000000000432000000000043301755000000000001367100000000000591266000000000000000009999123100000010000000000000BRKLBNACNPR9170
012024052002YDUQ3       010YDUQS PART  ON      NM   R$  000000000128800000000012900000000001253000000000126800000000012530000000001252000000000125316762000000000006987300000000008864607900000000000000009999123100000010000000000000BRYDUQACNOR3105
012024052002RSUL4       010RIOSULENSE  PN           R$  000000000701500000000073840000000007011000000000713300000000071490000000007002000000000715000025000000000000002500000000000017833700000000000000009999123100000010000000000000BRRSULACNPR3114
012024052002TPIS3       010TRIUNFO PARTON      NM   R$  000000000040200000000004210000000000402000000000041500000000004120000000000412000000000041800223000000000000110800000000000046002200000000000000009999123100000010000000000000BRTPISACNOR8118
012024052002TRAD3       010TC          ON      NM   R$  000000000007500000000000760000000000073000000000007300000000000740000000000073000000000007400145000000000000381900000000000028131200000000000000009999123100000010000000000000BRTRADACNOR3101
012024052002TRIS3       010TRISUL      ON      NM   R$  000000000048000000000004930000000000476000000000048400000000004760000000000476000000000047701068000000000000482800000000000233744900000000000000009999123100000010000000000000BRTRISACNOR4118
012024052002TRPL3       010TRAN PAULISTON      N1   R$  000000000357900000000036060000000003501000000000355200000000035160000000003501000000000351600019000000000000002600000000000009237400000000000000009999123100000010000000000000BRTRPLACNOR4185
012024052002TRPL4       010TRAN PAULISTPN      N1   R$  000000000261600000000027550000000002607000000000269900000000027550000000002752000000000275515915000000000006048200000000016326884600000000000000009999123100000010000000000000BRTRPLACNPR1185
012024052002TTEN3       0103TENTOS     ON      NM   R$  000000000102200000000010380000000000998000000000102500000000010350000000001035000000000103602939000000000000580200000000000594980600000000000000009999123100000010000000000000BRTTENACNOR0103
012024052002TUPY3       010TUPY        ON      NM   R$  000000000242000000000024310000000002386000000000239800000000023970000000002388000000000239704331000000000000912400000000002188298300000000000000009999123100000010000000000000BRTUPYACNOR1183
012024052002UCAS3       010UNICASA     ON      NM   R$  000000000023800000000002380000000000234000000000023500000000002340000000000234000000000023500063000000000000013500000000000003179400000000000000009999123100000010000000000000BRUCASACNOR1113
012024052002UGPA3       010ULTRAPAR    ON      NM   R$  000000000247100000000024940000000002456000000000246800000000024650000000002465000000000247006629000000000001753900000000004329730400000000000000009999123100000010000000000000BRUGPAACNOR8155
012024052002MDIA3       010M.DIASBRANCOON      NM   R$  000000000356400000000035640000000003480000000000350400000000034840000000003484000000000348905348000000000000926300000000003246435300000000000000009999123100000010000000000000BRMDIAACNOR7134
012024052002MDNE3       010MOURA DUBEUXON      NM   R$  000000000122100000000012460000000001216000000000123000000000012300000000001228000000000123001248000000000000289300000000000356011000000000000000009999123100000010000000000000BRMDNEACNOR9100
012024052002MEAL3       010IMC S/A     ON      NM   R$  000000000014000000000001430000000000139000000000014000000000001410000000000141000000000014200388000000000000703200000000000099119500000000000000009999123100000010000000000000BRMEALACNOR9105
012024052002MELK3       010MELNICK     ON      NM   R$  000000000042800000000004280000000000418000000000042100000000004200000000000420000000000042200353000000000000137700000000000057976700000000000000009999123100000010000000000000BRMELKACNOR8111
012024052002WEGE3       010WEG         ON      NM   R$  000000000394500000000039850000000003927000000000396700000000039850000000003983000000000398618117000000000008148200000000032328649600000000000000009999123100000010000000000000BRWEGEACNOR0222
012024052002WEST3       010WESTWING    ON      NM   R$  000000000011200000000001120000000000106000000000010700000000001070000000000107000000000011100097000000000000144200000000000015541000000000000000009999123100000010000000000000BRWESTACNOR3100
012024052002PETZ3       010PETZ        ON      NM   R$  000000000044500000000004510000000000435000000000044100000000004470000000000445000000000044704752000000000006755600000000002983630500000000000000009999123100000010000000000000BRPETZACNOR2110
012024052002ROMI3       010ROMI        ON      NM   R$  000000000107000000000010860000000001059000000000107600000000010780000000001078000000000108500789000000000000192400000000000207075300000000000000009999123100000010000000000000BRROMIACNOR8194
012024052002RRRP3       0103R PETROLEUMON      NM   R$  000000000315500000000031580000000003048000000000307600000000030830000000003082000000000308313510000000000005707300000000017556060900000000000000009999123100000010000000000000BRRRRPACNOR5103
012024052002TASA3       010TAURUS ARMASON      N2   R$  000000000122300000000012470000000001203000000000121800000000012260000000001218000000000122600091000000000000022900000000000027908200000000000000009999123100000010000000000000BRTASAACNOR7104
012024052002TASA4       010TAURUS ARMASPN      N2   R$  000000000115000000000011500000000001118000000000112900000000011380000000001133000000000113801741000000000000472100000000000533240500000000000000009999123100000010000000000000BRTASAACNPR4104
012024052002TCSA3       010TECNISA     ON      NM   R$  000000000023800000000002430000000000237000000000023900000000002430000000000239000000000024300141000000000000085800000000000020552000000000000000009999123100000010000000000000BRTCSAACNOR3112
012024052002TECN3       010TECHNOS     ON      NM   R$  000000000045900000000004700000000000456000000000046100000000004570000000000457000000000045900287000000000000112900000000000052105000000000000000009999123100000010000000000000BRTECNACNOR6109
012024052002TELB3       010TELEBRAS    ON           R$  000000000136600000000013660000000001366000000000136600000000013660000000001366000000000139500001000000000000000100000000000000136600000000000000009999123100000010000000000000BRTELBACNOR2140
012024052002TELB4       010TELEBRAS    PN           R$  000000000090000000000009270000000000900000000000091400000000009010000000000901000000000091500011000000000000002200000000000002012100000000000000009999123100000010000000000000BRTELBACNPR9140
012024052002TEND3       010TENDA       ON      NM   R$  000000000123000000000012740000000001221000000000124600000000012340000000001234000000000124306172000000000002011000000000002505900200000000000000009999123100000010000000000000BRTENDACNOR4111
012024052002TFCO4       010TRACK FIELD PN      N2   R$  000000000119500000000012200000000001181000000000121100000000012070000000001205000000000121800898000000000000395500000000000478980800000000000000009999123100000010000000000000BRTFCOACNPR8113
012024052002TGMA3       010TEGMA       ON      NM   R$  000000000256400000000026010000000002524000000000254900000000025320000000002531000000000254601378000000000000242700000000000618672700000000000000009999123100000010000000000000BRTGMAACNOR7144
012024052002TIMS3       010TIM         ON      NM   R$  000000000172500000000017250000000001672000000000168800000000016780000000001675000000000167916431000000000009255000000000015625821400000000000000009999123100000010000000000000BRTIMSACNOR5116
012024052002BBSE3       010BBSEGURIDADEON      NM   R$  000000000341500000000034270000000003344000000000336900000000033700000000003368000000000337015577000000000005593000000000018847189800000000000000009999123100000010000000000000BRBBSEACNOR5124
012024052002MGEL4       010MANGELS INDLPN           R$  000000000138600000000014030000000001386000000000139800000000014010000000001370000000000140300010000000000000002000000000000002797000000000000000009999123100000010000000000000BRMGELACNPR3147
012024052002MGLU3       010MAGAZ LUIZA ON      NM   R$  000000000015700000000001620000000000156000000000015800000000001570000000000157000000000015818434000000000089965700000000014251961700000000000000009999123100000010000000000000BRMGLUACNOR2123
012024052002PETR3       010PETROBRAS   ON      N2   R$  000000000385800000000039040000000003851000000000386700000000038700000000003866000000000387014928000000000012221100000000047265172800000000000000009999123100000010000000000000BRPETRACNOR9204
012024052002PETR4       010PETROBRAS   PN      N2   R$  000000000367300000000037240000000003663000000000368500000000036750000000003675000000000367657832000000000040400400000000148888503300000000000000009999123100000010000000000000BRPETRACNPR6212
012024052002DASA3       010DASA        ON      NM   R$  000000000033500000000003680000000000333000000000035400000000003680000000000368000000000036903134000000000001783200000000000631981200000000000000009999123100000010000000000000BRDASAACNOR1122
012024052002DESK3       010DESKTOP     ON      NM   R$  000000000136700000000013900000000001357000000000137900000000013900000000001379000000000139000511000000000000096000000000000132437000000000000000009999123100000010000000000000BRDESKACNOR2104
012024052002DEXP3       010DEXXOS PAR  ON      N1   R$  000000000103000000000010600000000001027000000000103900000000010600000000001044000000000106000184000000000000044900000000000046662200000000000000009999123100000010000000000000BRDEXPACNOR1105
012024052002DEXP4       010DEXXOS PAR  PN      N1   R$  000000000103800000000010380000000001010000000000103100000000010100000000001022000000000105100004000000000000000400000000000000412400000000000000009999123100000010000000000000BRDEXPACNPR8105
012024052002DIRR3       010DIRECIONAL  ON      NM   R$  000000000259000000000026130000000002546000000000258900000000026000000000002597000000000260304948000000000000844000000000002185610800000000000000009999123100000010000000000000BRDIRRACNOR0117
012024052002DMVF3       010D1000VFARMA ON      NM   R$  000000000081900000000008290000000000802000000000081400000000008090000000000809000000000081000380000000000000088600000000000072140600000000000000009999123100000010000000000000BRDMVFACNOR9100
012024052002DOHL3       010DOHLER      ON           R$  000000000051000000000005100000000000510000000000051000000000005100000000000504000000000060000001000000000000000100000000000000051000000000000000009999123100000010000000000000BRDOHLACNOR2063
012024052002DOHL4       010DOHLER      PN           R$  000000000045000000000004500000000000450000000000045000000000004500000000000437000000000044900001000000000000000100000000000000045000000000000000009999123100000010000000000000BRDOHLACNPR9066
012024052002DOTZ3       010DOTZ SA     ON      NM   R$  000000000088100000000008810000000000840000000000086300000000008770000000000843000000000088000070000000000000012900000000000011139200000000000000009999123100000010000000000000BRDOTZACNOR7101
012024052002DXCO3       010DEXCO       ON      NM   R$  000000000076800000000007910000000000755000000000078200000000007860000000000785000000000078705195000000000003284000000000002568461200000000000000009999123100000010000000000000BRDXCOACNOR8105
012024052002EALT3       010ACO ALTONA  ON           R$  000000000102000000000010200000000001020000000000102000000000010200000000000989000000000110000001000000000000000300000000000000306000000000000000009999123100000010000000000000BREALTACNOR4138
012024052002EALT4       010ACO ALTONA  PN           R$  000000000112900000000011290000000001119000000000112900000000011280000000001122000000000112900025000000000000008000000000000009032900000000000000009999123100000010000000000000BREALTACNPR1138
012024052002ECOR3       010ECORODOVIAS ON  ED  NM   R$  000000000073100000000007310000000000719000000000072300000000007220000000000721000000000072307577000000000007877500000000005702015000000000000000009999123100000010000000000000BRECORACNOR8120
012024052002ENEV3       010ENEVA       ON      NM   R$  000000000126200000000012860000000001260000000000127000000000012700000000001270000000000127115997000000000006538400000000008309458000000000000000009999123100000010000000000000BRENEVACNOR8105
012024052002ENGI11      010ENERGISA    UNT     N2   R$  000000000467300000000047240000000004620000000000467900000000046700000000004667000000000467007472000000000001397300000000006539239700000000000000009999123100000010000000000000BRENGICDAM16135
012024052002ENGI3       010ENERGISA    ON      N2   R$  000000000147600000000015100000000001457000000000147800000000014890000000001460000000000154700037000000000000004300000000000006356000000000000000009999123100000010000000000000BRENGIACNOR0145
012024052002ENGI4       010ENERGISA    PN      N2   R$  000000000080000000000008120000000000796000000000080000000000007980000000000797000000000081800030000000000000005900000000000004722700000000000000009999123100000010000000000000BRENGIACNPR7141
012024052002ENJU3       010ENJOEI      ON      NM   R$  000000000027300000000002760000000000254000000000026400000000002660000000000263000000000026601726000000000001974000000000000521756800000000000000009999123100000010000000000000BRENJUACNOR9100
012024052002EPAR3       010EMBPAR S/A  ON           R$  000000000069000000000006900000000000678000000000068300000000006900000000000690000000000069900034000000000000009400000000000006422100000000000000009999123100000010000000000000BREPARACNOR9105
012024052002EQMA3B      010EQTLMARANHAOON      MB   R$  000000000260600000000026060000000002502000000000254200000000025500000000002551000000000259900010000000000000004400000000000011188400000000000000009999123100000010000000000000BREQMAACNOR8108
012024052002EQPA3       010EQTL PARA   ON           R$  000000000069000000000006900000000000682000000000068800000000006840000000000685000000000068900022000000000000004500000000000003097600000000000000009999123100000010000000000000BREQPAACNOR1111
012024052002EQPA6       010EQTL PARA   PNB          R$  000000000070100000000007010000000000701000000000070100000000007010000000000702000000000082400001000000000000000100000000000000070100000000000000009999123100000010000000000000BREQPAACNPB2111
012024052002EQTL3       010EQUATORIAL  ON      NM   R$  000000000305200000000030840000000003037000000000306200000000030570000000003055000000000306313162000000000004055000000000012417494000000000000000009999123100000010000000000000BREQTLACNOR0130
012024052002IFCM3       010INFRACOMM   ON      NM   R$  000000000004600000000000530000000000046000000000004900000000000520000000000051000000000005203048000000000014876200000000000741277300000000000000009999123100000010000000000000BRIFCMACNOR8101
012024052002IGTI11      010IGUATEMI S.AUNT     N1   R$  000000000206100000000020910000000002050000000000206700000000020640000000002058000000000206608693000000000001636300000000003383851700000000000000009999123100000010000000000000BRIGTICDAM16106
012024052002IGTI3       010IGUATEMI S.AON      N1   R$  000000000029400000000003030000000000292000000000029400000000002920000000000292000000000029400238000000000000069400000000000020429900000000000000009999123100000010000000000000BRIGTIACNOR8106
012024052002IGTI4       010IGUATEMI S.APN      N1   R$  000000000089500000000008950000000000895000000000089500000000008950000000000851000000000093900005000000000000000900000000000000805500000000000000009999123100000010000000000000BRIGTIACNPR5106
012024052002INEP3       010INEPAR      ON           R$  000000000027000000000002750000000000257000000000026200000000002590000000000259000000000026000275000000000000084100000000000022086300000000000000009999123100000010000000000000BRINEPACNOR1143
012024052002INEP4       010INEPAR      PN           R$  000000000024800000000002510000000000242000000000024600000000002470000000000244000000000024700040000000000000012400000000000003055400000000000000009999123100000010000000000000BRINEPACNPR8143
012024052002INTB3       010INTELBRAS   ON      NM   R$  000000000233800000000024100000000002326000000000238900000000024100000000002382000000000241202998000000000000681200000000001627796800000000000000009999123100000010000000000000BRINTBACNOR9111
012024052002IRBR3       010IRBBRASIL REON      NM   R$  000000000374200000000037500000000003480000000000357000000000034870000000003485000000000348713499000000000004105900000000014660850200000000000000009999123100000010000000000000BRIRBRACNOR4111
012024052002LAND3       010TERRASANTAPAON      NM   R$  000000000147700000000015420000000001469000000000150300000000015000000000001500000000000151400206000000000000063700000000000095786100000000000000009999123100000010000000000000BRLANDACNOR9103
012024052002LAVV3       010LAVVI       ON  ED  NM   R$  000000000089400000000009260000000000882000000000091300000000009130000000000910000000000091702885000000000000906200000000000827503800000000000000009999123100000010000000000000BRLAVVACNOR4112
012024052002MLAS3       010MULTILASER  ON      NM   R$  000000000021700000000002230000000000215000000000021900000000002200000000000220000000000022101944000000000001060500000000000232655300000000000000009999123100000010000000000000BRMLASACNOR9101
012024052002MNPR3       010MINUPAR     ON           R$  000000000129500000000012970000000001290000000000129400000000012970000000001281000000000133000007000000000000002200000000000002848700000000000000009999123100000010000000000000BRMNPRACNOR5122
012024052002MOVI3       010MOVIDA      ON      NM   R$  000000000070600000000007080000000000680000000000069300000000006960000000000696000000000069703784000000000002981700000000002067352900000000000000009999123100000010000000000000BRMOVIACNOR0122
012024052002MRFG3       010MARFRIG     ON      NM   R$  000000000115300000000011940000000001149000000000117800000000011930000000001193000000000119422339000000000009542800000000011242629600000000000000009999123100000010000000000000BRMRFGACNOR0116
012024052002ALOS3       010ALLOS       ON      NM   R$  000000000215900000000021890000000002149000000000217000000000021610000000002161000000000216913570000000000003753800000000008146589300000000000000009999123100000010000000000000BRALOSACNOR5101
012024052002ALPA3       010ALPARGATAS  ON      N1   R$  000000000099700000000009970000000000997000000000099700000000009970000000000997000000000106900005000000000000001600000000000001595200000000000000009999123100000010000000000000BRALPAACNOR0231
012024052002ALPA4       010ALPARGATAS  PN      N1   R$  000000000098400000000009970000000000970000000000098500000000009900000000000990000000000099308260000000000003021700000000002977778500000000000000009999123100000010000000000000BRALPAACNPR7232
012024052002ALPK3       010ESTAPAR     ON      NM   R$  000000000036500000000003900000000000364000000000037700000000003770000000000377000000000038700557000000000000109100000000000041228300000000000000009999123100000010000000000000BRALPKACNOR9101
012024052002ALUP11      010ALUPAR      UNT ED  N2   R$  000000000291000000000029750000000002910000000000295400000000029500000000002945000000000295003802000000000001223100000000003613204200000000000000009999123100000010000000000000BRALUPCDAM15119
012024052002BEEF3       010MINERVA     ON      NM   R$  000000000068000000000007030000000000671000000000069300000000006990000000000699000000000070008078000000000009921300000000006881001100000000000000009999123100000010000000000000BRBEEFACNOR6116
012024052002BEES3       010BANESTES    ON           R$  000000000090800000000009100000000000902000000000090500000000009060000000000905000000000090900047000000000000009900000000000008966700000000000000009999123100000010000000000000BRBEESACNOR9390
012024052002BPAN4       010BANCO PAN   PN      N1   R$  000000000100300000000010050000000000989000000000099500000000009960000000000995000000000099602031000000000000701100000000000697627800000000000000009999123100000010000000000000BRBPANACNPR1115
012024052002RDOR3       010REDE D OR   ON      NM   R$  000000000308600000000031780000000003077000000000313700000000031340000000003130000000000314216727000000000003904800000000012250210100000000000000009999123100000010000000000000BRRDORACNOR8112
012024052002RECV3       010PETRORECSA  ON      NM   R$  000000000208200000000021260000000002065000000000211100000000021200000000002120000000000212204154000000000001386400000000002926712500000000000000009999123100000010000000000000BRRECVACNOR3106
012024052002REDE3       010REDE ENERGIAON           R$  000000000068300000000006870000000000683000000000068300000000006870000000000685000000000068700010000000000000002800000000000001913200000000000000009999123100000010000000000000BRREDEACNOR7127
012024052002RENT3       010LOCALIZA    ON      NM   R$  000000000479000000000048480000000004740000000000479900000000047920000000004790000000000479324536000000000006365800000000030550945800000000000000009999123100000010000000000000BRRENTACNOR4195
012024052002SYNE3       010SYN PROP TECON      NM   R$  000000000092400000000009340000000000920000000000092600000000009240000000000923000000000092900597000000000000149000000000000138094100000000000000009999123100000010000000000000BRSYNEACNOR2102
012024052002RAIZ4       010RAIZEN      PN      N2   R$  000000000029800000000003010000000000293000000000029500000000002940000000000293000000000029411812000000000012231800000000003617936100000000000000009999123100000010000000000000BRRAIZACNPR6110
012024052002RANI3       010IRANI       ON  ED  NM   R$  000000000088700000000008990000000000880000000000088800000000008920000000000891000000000089203592000000000001083500000000000962770800000000000000009999123100000010000000000000BRRANIACNOR5072
012024052002RAPT3       010RANDON PART ON      N1   R$  000000000088200000000008820000000000861000000000087000000000008780000000000865000000000087800133000000000000047600000000000041428500000000000000009999123100000010000000000000BRRAPTACNOR7162
012024052002RAPT4       010RANDON PART PN      N1   R$  000000000099700000000010050000000000970000000000098100000000009700000000000970000000000097405963000000000005049400000000004956496000000000000000009999123100000010000000000000BRRAPTACNPR4162
012024052002RAIL3       010RUMO S.A.   ON      NM   R$  000000000206000000000020640000000002019000000000203900000000020310000000002027000000000203116364000000000009456500000000019287802200000000000000009999123100000010000000000000BRRAILACNOR9105
012024052002SNSY3       010SANSUY      ON           R$  000000000128900000000012890000000001288000000000128800000000012880000000001255000000000128900002000000000000000200000000000000257700000000000000009999123100000010000000000000BRSNSYACNOR2113
012024052002SNSY5       010SANSUY      PNA          R$  000000000061700000000006170000000000602000000000060600000000006020000000000601000000000061300015000000000000003000000000000001819900000000000000009999123100000010000000000000BRSNSYACNPA5111
012024052002SOJA3       010BOA SAFRA   ON      NM   R$  000000000172000000000017200000000001676000000000169900000000017020000000001701000000000170204835000000000000846200000000001438275300000000000000009999123100000010000000000000BRSOJAACNOR9105
012024052002SOMA3       010GRUPO SOMA  ON      NM   R$  000000000058500000000005960000000000575000000000058900000000005910000000000591000000000059411923000000000010781300000000006352849500000000000000009999123100000010000000000000BRSOMAACNOR3102
012024052002AGXY3       010AGROGALAXY  ON      NM   R$  000000000014100000000001430000000000138000000000014000000000001390000000000139000000000014000618000000000000253100000000000035480000000000000000009999123100000010000000000000BRAGXYACNOR4103
012024052002AHEB3       010SPTURIS     ON           R$  000000000212400000000024950000000002124000000000224700000000024950000000002202000000000252000003000000000000000300000000000000674300000000000000009999123100000010000000000000BRAHEBACNOR0106
012024052002ALLD3       010ALLIED      ON      NM   R$  000000000072100000000007250000000000705000000000071500000000007210000000000721000000000072500406000000000000107700000000000077073500000000000000009999123100000010000000000000BRALLDACNOR3106
012024052002BBDC4       010BRADESCO    PN      N1   R$  000000000134000000000013450000000001332000000000133500000000013330000000001333000000000133422575000000000027043700000000036125035900000000000000009999123100000010000000000000BRBBDCACNPR8769
012024052002VSTE3       010VESTE       ON      NM   R$  000000000130100000000013300000000001301000000000131500000000013040000000001304000000000134500004000000000000000400000000000000526000000000000000009999123100000010000000000000BRVSTEACNOR5103
012024052002VULC3       010VULCABRAS   ON  ED  NM   R$  000000000155700000000016230000000001547000000000160200000000016090000000001607000000000161404113000000000001032900000000001655214500000000000000009999123100000010000000000000BRVULCACNOR2159
012024052002VVEO3       010VIVEO       ON      NM   R$  000000000031100000000003190000000000308000000000031400000000003140000000000314000000000031703265000000000001141500000000000358800800000000000000009999123100000010000000000000BRVVEOACNOR0104
012024052002EZTC3       010EZTEC       ON  ED  NM   R$  000000000135600000000014150000000001347000000000139100000000014070000000001405000000000140704788000000000001828600000000002544026100000000000000009999123100000010000000000000BREZTCACNOR0125
012024052002AALR3       010ALLIAR      ON      NM   R$  000000000103800000000010520000000001020000000000103700000000010400000000001040000000000104700168000000000000033500000000000034768100000000000000009999123100000010000000000000BRAALRACNOR6102
012024052002ABCB4       010ABC BRASIL  PN      N2   R$  000000000220700000000022220000000002191000000000220700000000022170000000002210000000000221701429000000000000392000000000000865364900000000000000009999123100000010000000000000BRABCBACNPR4145
012024052002RCSL3       010RECRUSUL    ON           R$  000000000017200000000001800000000000172000000000017600000000001780000000000178000000000017902875000000000001822200000000000321951900000000000000009999123100000010000000000000BRRCSLACNOR4133
012024052002RCSL4       010RECRUSUL    PN           R$  000000000003800000000000390000000000037000000000003700000000000380000000000037000000000003800160000000000000242000000000000009170700000000000000009999123100000010000000000000BRRCSLACNPR1133
012024052002RDNI3       010RNI         ON      NM   R$  000000000035300000000003530000000000341000000000034300000000003430000000000342000000000034500014000000000000010800000000000003709300000000000000009999123100000010000000000000BRRDNIACNOR9116
012024052002ABEV3       010AMBEV S/A   ON           R$  000000000123300000000012390000000001205000000000121800000000012100000000001209000000000121024507000000000038940700000000047465427000000000000000009999123100000010000000000000BRABEVACNOR1127
012024052002BBDC3       010BRADESCO    ON      N1   R$  000000000119600000000012070000000001194000000000119900000000011990000000001198000000000119905016000000000004370100000000005241844100000000000000009999123100000010000000000000BRBBDCACNOR1769
012024052002CEAB3       010CEA MODAS   ON      NM   R$  000000000103000000000010600000000001027000000000104400000000010430000000001042000000000104504047000000000001720900000000001797115800000000000000009999123100000010000000000000BRCEABACNOR1102
012024052002CEBR3       010CEB         ON           R$  000000000228400000000022840000000002215000000000223300000000022770000000002250000000000227800039000000000000005900000000000013175200000000000000009999123100000010000000000000BRCEBRACNOR5125
012024052002CEBR5       010CEB         PNA          R$  000000000204900000000020500000000001994000000000203400000000020500000000002000000000000205000010000000000000002000000000000004069500000000000000009999123100000010000000000000BRCEBRACNPA8124
012024052002CEBR6       010CEB         PNB          R$  000000000219700000000021970000000002069000000000214200000000021640000000002133000000000216400022000000000000002400000000000005142900000000000000009999123100000010000000000000BRCEBRACNPB6124
012024052002CEDO4       010CEDRO       PN      N1   R$  000000000260000000000026000000000002599000000000259900000000026000000000002500000000000275000006000000000000001200000000000003119800000000000000009999123100000010000000000000BRCEDOACNPR5128
012024052002CGAS5       010COMGAS      PNA          R$  000000001157800000000115780000000011370000000001145200000000114990000000011350000000001136100004000000000000000400000000000004580800000000000000009999123100000010000000000000BRCGASACNPA3160
012024052002CGRA3       010GRAZZIOTIN  ON           R$  000000000251500000000025190000000002515000000000251700000000025180000000002500000000000251900007000000000000000700000000000001762100000000000000009999123100000010000000000000BRCGRAACNOR2082
012024052002CGRA4       010GRAZZIOTIN  PN           R$  000000000250800000000025990000000002481000000000253500000000025980000000002581000000000259800024000000000000004000000000000010142900000000000000009999123100000010000000000000BRCGRAACNPR9082
012024052002CIEL3       010CIELO       ON      NM   R$  000000000055700000000005600000000000557000000000055800000000005600000000000558000000000056005877000000000030461100000000016997640800000000000000009999123100000010000000000000BRCIELACNOR3157
012024052002CLSA3       010CLEARSALE   ON      NM   R$  000000000069700000000006970000000000628000000000066600000000006680000000000665000000000066805308000000000002869400000000001912314400000000000000009999123100000010000000000000BRCLSAACNOR0100
012024052002CLSC3       010CELESC      ON      N2   R$  000000000680000000000068000000000006800000000000680000000000068000000000006501000000000680000001000000000000000500000000000003400000000000000000009999123100000010000000000000BRCLSCACNOR6151
012024052002CLSC4       010CELESC      PN      N2   R$  000000000725100000000073940000000007250000000000731500000000073220000000007321000000000735000023000000000000002900000000000021215600000000000000009999123100000010000000000000BRCLSCACNPR3130
012024052002CMIG3       010CEMIG       ON      N1   R$  000000000127200000000013070000000001272000000000129400000000013070000000001298000000000130700483000000000000198100000000000256497600000000000000009999123100000010000000000000BRCMIGACNOR6241
012024052002CMIG4       010CEMIG       PN      N1   R$  000000000103900000000010500000000001036000000000104500000000010500000000001047000000000105017241000000000011222100000000011730804100000000000000009999123100000010000000000000BRCMIGACNPR3242
012024052002LEVE3       010METAL LEVE  ON      NM   R$  000000000325500000000033300000000003249000000000330200000000033100000000003301000000000331001743000000000000269000000000000888292600000000000000009999123100000010000000000000BRLEVEACNOR2197
012024052002LJQQ3       010QUERO-QUERO ON      NM   R$  000000000053300000000005360000000000517000000000052700000000005300000000000528000000000053002550000000000001536800000000000810355700000000000000009999123100000010000000000000BRLJQQACNOR5104
012024052002LOGG3       010LOG COM PROPON      NM   R$  000000000229800000000022980000000002257000000000227700000000022710000000002271000000000227500573000000000000070700000000000161038400000000000000009999123100000010000000000000BRLOGGACNOR7107
012024052002LOGN3       010LOG-IN      ON      NM   R$  000000000392100000000039730000000003871000000000389900000000038860000000003886000000000389900057000000000000007500000000000029244800000000000000009999123100000010000000000000BRLOGNACNOR3105
012024052002LPSB3       010LOPES BRASILON      NM   R$  000000000022500000000002290000000000223000000000022600000000002290000000000227000000000022900159000000000000077700000000000017578700000000000000009999123100000010000000000000BRLPSBACNOR0114
012024052002LREN3       010LOJAS RENNERON      NM   R$  000000000146300000000014940000000001445000000000147200000000014690000000001468000000000146919245000000000016129700000000023755836400000000000000009999123100000010000000000000BRLRENACNOR1220
012024052002NEOE3       010NEOENERGIA  ON      NM   R$  000000000199200000000020230000000001976000000000200600000000020040000000002003000000000200404896000000000000812000000000001629131100000000000000009999123100000010000000000000BRNEOEACNOR3122
012024052002NGRD3       010NEOGRID     ON      NM   R$  000000000009900000000000990000000000097000000000009800000000000990000000000098000000000009900281000000000000328300000000000032225200000000000000009999123100000010000000000000BRNGRDACNOR3104
012024052002NINJ3       010GETNINJAS   ON      NM   R$  000000000047100000000004800000000000471000000000047600000000004770000000000474000000000047700032000000000000010800000000000005150500000000000000009999123100000010000000000000BRNINJACNOR5101
012024052002NTCO3       010GRUPO NATURAON      NM   R$  000000000164400000000016550000000001622000000000163500000000016410000000001638000000000164115578000000000006491200000000010615138700000000000000009999123100000010000000000000BRNTCOACNOR5106
012024052007BHIA3       010CASAS BAHIA ON      NM   R$  000000000076900000000007720000000000744000000000075600000000007480000000000748000000000075004260000000000002989800000000002263108300000000000000009999123100000010000000000000BRBHIAACNOR1101
012024052007TXRX3       010TEX RENAUX  ON           R$  000000000095000000000009500000000000950000000000095000000000009500000000000800000000000135000001000000000000000100000000000000095000000000000000009999123100000010000000000000BRTXRXACNOR3142
012024052007NUTR3       010NUTRIPLANT  ON      MA   R$  000000000046400000000004870000000000464000000000047500000000004870000000000468000000000048600033000000000000006200000000000002946000000000000000009999123100000010000000000000BRNUTRACNOR0104
012024052008JFEN3       010JOAO FORTES ON           R$  000000000013500000000001400000000000134000000000013600000000001380000000000136000000000013700158000000000000033500000000000004563900000000000000009999123100000010000000000000BRJFENACNOR0059
012024052008ETER3       010ETERNIT     ON      NM   R$  000000000067000000000006710000000000658000000000066300000000006620000000000662000000000066401043000000000000237600000000000157632400000000000000009999123100000010000000000000BRETERACNOR3243
012024052008SGPS3       010SPRINGS     ON      NM   R$  000000000006200000000000620000000000061000000000006100000000000620000000000061000000000006200054000000000000041000000000000002520500000000000000009999123100000010000000000000BRSGPSACNOR4104
012024052008PMAM3       010PARANAPANEMAON      NM   R$  000000000026900000000002830000000000260000000000027300000000002660000000000266000000000027100286000000000000144400000000000039485300000000000000009999123100000010000000000000BRPMAMACNOR3039
012024052008ATMP3       010ATMASA      ON           R$  000000000020900000000002090000000000207000000000020700000000002080000000000204000000000020700004000000000000001100000000000000228300000000000000009999123100000010000000000000BRATMPACNOR8100
012024052008AMER3       010AMERICANAS  ON      NM   R$  000000000005300000000000540000000000052000000000005200000000000530000000000053000000000005401385000000000006017200000000000318839400000000000000009999123100000010000000000000BRAMERACNOR6101
012024052008OIBR3       010OI          ON      N1   R$  000000000006100000000000630000000000060000000000006100000000000610000000000060000000000006101361000000000009081000000000000556445500000000000000009999123100000010000000000000BROIBRACNOR1110
012024052008OIBR4       010OI          PN      N1   R$  000000000018200000000001850000000000178000000000018000000000001780000000000178000000000017900070000000000000054500000000000009818800000000000000009999123100000010000000000000BROIBRACNPR8109
012024052008OSXB3       010OSX BRASIL  ON      NM   R$  000000000040000000000004000000000000394000000000039700000000003990000000000394000000000040000005000000000000000600000000000000238500000000000000009999123100000010000000000000BROSXBACNOR8109
012024052008CTNM3       010COTEMINAS   ON           R$  000000000074800000000008000000000000720000000000074700000000007850000000000725000000000079500010000000000000001300000000000000971100000000000000009999123100000010000000000000BRCTNMACNOR9130
012024052008CTNM4       010COTEMINAS   PN           R$  000000000009300000000000940000000000091000000000009100000000000920000000000092000000000009400040000000000000061600000000000005657500000000000000009999123100000010000000000000BRCTNMACNPR6129
012024052008CTSA3       010SANTANENSE  ON           R$  000000000025000000000002520000000000248000000000025000000000002520000000000251000000000025200009000000000000001300000000000000325500000000000000009999123100000010000000000000BRCTSAACNOR3062
012024052008CTSA4       010SANTANENSE  PN           R$  000000000012700000000001280000000000125000000000012600000000001250000000000125000000000012800013000000000000002900000000000000365800000000000000009999123100000010000000000000BRCTSAACNPR0062
012024052008HOOT4       010HOTEIS OTHONPN           R$  000000000027500000000002750000000000275000000000027500000000002750000000000275000000000027800002000000000000000600000000000000165000000000000000009999123100000010000000000000BRHOOTACNPR9015
012024052008RSID3       010ROSSI RESID ON      NM   R$  000000000052600000000005340000000000517000000000052600000000005170000000000516000000000052601162000000000000127000000000000066895400000000000000009999123100000010000000000000BRRSIDACNOR8120
012024052008RNEW11      010RENOVA      UNT     N2   R$  000000000031300000000003170000000000310000000000031500000000003100000000000311000000000031600010000000000000005000000000000001576800000000000000009999123100000010000000000000BRRNEWCDAM15110
012024052008RNEW3       010RENOVA      ON      N2   R$  000000000010300000000001040000000000102000000000010200000000001030000000000102000000000010300053000000000000082300000000000008441600000000000000009999123100000010000000000000BRRNEWACNOR8110
012024052008RNEW4       010RENOVA      PN      N2   R$  000000000010400000000001050000000000103000000000010400000000001040000000000103000000000010400074000000000000051500000000000005359900000000000000009999123100000010000000000000BRRNEWACNPR5110
012024052008RPMG3       010PET MANGUINHON           R$  000000000021300000000002280000000000213000000000021900000000002180000000000218000000000021900020000000000000007200000000000001582600000000000000009999123100000010000000000000BRRPMGACNOR9194
012024052008TEKA4       010TEKA        PN           R$  000000000349500000000034950000000003495000000000349500000000034950000000002500000000000342300001000000000000000600000000000002097000000000000000009999123100000010000000000000BRTEKAACNPR3140
012024052008BDLL4       010BARDELLA    PN           R$  000000000105100000000010510000000001050000000000105000000000010500000000001000000000000104000002000000000000000600000000000000630500000000000000009999123100000010000000000000BRBDLLACNPR8151
012024052008LIGT3       010LIGHT S/A   ON      NM   R$  000000000049200000000005240000000000486000000000050800000000004970000000000497000000000050004550000000000001823100000000000926382900000000000000009999123100000010000000000000BRLIGTACNOR2124
012024052008NEXP3       010NEXPE       ON           R$  000000000042000000000004220000000000420000000000042000000000004220000000000420000000000042100007000000000000001100000000000000462800000000000000009999123100000010000000000000BRNEXPACNOR0101
012024052010PMAM1       010PARANAPANEMADIR ORD NM   R$  000000000000100000000000010000000000001000000000000100000000000010000000000000000000000000100015000000000000027100000000000000027100000000000000009999123100000010000000000000BRPMAMD04OR2038
012024052010EQTL1       010EQUATORIAL  DIR ORD NM   R$  000000000013800000000001590000000000125000000000014200000000001300000000000130000000000014900175000000000000053400000000000007597800000000000000009999123100000010000000000000BREQTLD03OR1129
012024052010IFRA12      010FI ITAUINFRADIR          R$  000000000003300000000000330000000000025000000000002900000000000250000000000025000000000002700147000000000000032408000000000000947464000000000000009999123100000010000000000000BRIFRAD01M12137
012024052010AGXY1       010AGROGALAXY  DIR ORD NM   R$  000000000000100000000000010000000000001000000000000100000000000010000000000000000000000000100058000000000000151300000000000000151300000000000000009999123100000010000000000000BRAGXYD01OR9102
012024052012BRCO11      010FII BRESCO  CI           R$  000000001184000000000118460000000011812000000001183300000000118180000000011817000000001181805941000000000000015296000000000181006022000000000000009999123100000010000000000000BRBRCOCTF007156
012024052012BRCR11      010FII BC FUND CI  ER       R$  000000000553000000000055620000000005526000000000554900000000055440000000005544000000000554705068000000000000019102000000000106013661000000000000009999123100000010000000000000BRBRCRCTF000266
012024052012EDFO11      010FII OURINVESCI           R$  000000001890100000000189500000000018700000000001876600000000187000000000018800000000001950000008000000000000000059000000000001107214000000000000009999123100000010000000000000BREDFOCTF004322
012024052012EDGA11      010FII GALERIA CI           R$  000000000200500000000020150000000002005000000000200700000000020150000000002010000000000204100055000000000000001119000000000002246168000000000000009999123100000010000000000000BREDGACTF001240
012024052012VCJR11      010FII VECTIS  CI           R$  000000000929900000000092990000000009212000000000925300000000092500000000009229000000000925003187000000000000015640000000000144732282000000000000009999123100000010000000000000BRVCJRCTF005154
012024052012EGYR11      010FII ENERGY  CI           R$  000000000035200000000003520000000000341000000000034600000000003450000000000346000000000034700031000000000000000553000000000000191858000000000000009999123100000010000000000000BREGYRCTF001102
012024052012GSFI11      010FII GENERAL CI           R$  000000000077700000000007850000000000771000000000078100000000007850000000000771000000000078500361000000000000011017000000000008605837000000000000009999123100000010000000000000BRGSFICTF009102
012024052012GTWR11      010FII G TOWERSCI           R$  000000000836600000000084250000000008357000000000839800000000084220000000008422000000000842304275000000000000016621000000000139591065000000000000009999123100000010000000000000BRGTWRCTF003162
012024052012GZIT11      010FII GAZIT   CI           R$  000000000648200000000064820000000006377000000000641400000000064270000000006427000000000643200896000000000000006998000000000044888498000000000000009999123100000010000000000000BRGZITCTF005106
012024052012HAAA11      010FII HEDGEAAACI           R$  000000000370500000000037840000000003681000000000375000000000036860000000003711000000000404000008000000000000000024000000000000090016000000000000009999123100000010000000000000BRHAAACTF003142
012024052012HABT11      010FII HABIT IICI           R$  000000000918900000000092200000000009162000000000919100000000091800000000009180000000000920401879000000000000015215000000000139843750000000000000009999123100000010000000000000BRHABTCTF001159
012024052012JFLL11      010FII JFL LIV CI           R$  000000000766400000000076640000000007497000000000755400000000075400000000007497000000000754000054000000000000000115000000000000868762000000000000009999123100000010000000000000BRJFLLCTF002139
012024052012JPPA11      010FII JPPA CRICI           R$  000000000867000000000086700000000008595000000000862900000000085950000000008594000000000859500338000000000000004287000000000036994504000000000000009999123100000010000000000000BRJPPACTF005160
012024052012JSAF11      010FII JS A FINCI           R$  000000001027500000000103000000000010155000000001020700000000101970000000010190000000001019702219000000000000013834000000000141215002000000000000009999123100000010000000000000BRJSAFCTF000132
012024052012BARI11      010FII BARIGUI CI           R$  000000000807700000000081840000000008018000000000813600000000081020000000008102000000000815003034000000000000013306000000000108268383000000000000009999123100000010000000000000BRBARICTF003161
012024052012SPTW11      010FII SP DOWNTCI           R$  000000000428100000000042990000000004270000000000428200000000042770000000004277000000000427800259000000000000001245000000000005332164000000000000009999123100000010000000000000BRSPTWCTF002234
012024052012SPXS11      010FII SPX SYN CI  ER       R$  000000000098000000000009830000000000975000000000097900000000009830000000000979000000000098309956000000000000518679000000000508278572000000000000009999123100000010000000000000BRSPXSCTF002123
012024052012BICE11      010FII BRIO CRECI           R$  000000009490000000000949000000000094900000000009490000000000949000000000093000000000009490000001000000000000000002000000000000189800000000000000009999123100000010000000000000BRBICECTF007124
012024052012BICR11      010FII INTER   CI           R$  000000000466200000000046620000000004596000000000461700000000046060000000004606000000000500100009000000000000000034000000000000157003000000000000009999123100000010000000000000BRBICRCTF009151
012024052012BIME11      010FII BRIO ME CI           R$  000000000072700000000007320000000000725000000000073000000000007310000000000731000000000073200215000000000000019215000000000014035977000000000000009999123100000010000000000000BRBIMECTF006131
012024052012EURO11      010FII EUROPAR CI           R$  000000002549900000000255010000000024698000000002517100000000246980000000024698000000002529600036000000000000000257000000000006469010000000000000009999123100000010000000000000BREUROCTF011358
012024052012EVBI11      010FII VBI CON CI           R$  000000000973200000000098490000000009701000000000976400000000098480000000009753000000000984800030000000000000000161000000000001572059000000000000009999123100000010000000000000BREVBICTF007148
012024052012EXES11      010FII EXES    CI           R$  000000000098700000000009870000000000966000000000098200000000009660000000000967000000000098700002000000000000000013000000000000012768000000000000009999123100000010000000000000BREXESCTF006123
012024052012BLCA11      010FII BLUE AAACI  ER       R$  000000001080000000000108770000000010490000000001053500000000105050000000010490000000001079900015000000000000000063000000000000663737000000000000009999123100000010000000000000BRBLCACTF009130
012024052012BLMG11      010FII BLUE LOGCI  ER       R$  000000000387500000000039000000000003870000000000388600000000038760000000003870000000000387600619000000000000005405000000000021005164000000000000009999123100000010000000000000BRBLMGCTF005146
012024052012BLMO11      010FII BLUEMAC CI           R$  000000000841700000000084170000000008416000000000841600000000084160000000007861000000000841500011000000000000000035000000000000294577000000000000009999123100000010000000000000BRBLMOCTF009130
012024052012BMLC11      010FII BMBRC LCCI  ER       R$  000000000999600000000099980000000009996000000000999700000000099970000000009662000000000999700006000000000000000025000000000000249945000000000000009999123100000010000000000000BRBMLCCTF004250
012024052012LSPA11      010FII LESTE PACI           R$  000000001029500000000102950000000010293000000001029400000000102930000000010002000000001028900008000000000000000077000000000000792671000000000000009999123100000010000000000000BRLSPACTF005138
012024052012LUGG11      010FII LUGGO   CI           R$  000000000753100000000075610000000007500000000000754000000000075390000000007537000000000753900134000000000000001138000000000008580708000000000000009999123100000010000000000000BRLUGGCTF007154
012024052012LVBI11      010FII VBI LOG CI           R$  000000001164800000000117500000000011615000000001170700000000117500000000011729000000001175008578000000000000027499000000000321942818000000000000009999123100000010000000000000BRLVBICTF002168
012024052012BROF11      010FII BROF    CI  ER       R$  000000000565000000000056500000000005590000000000561900000000056400000000005603000000000564001156000000000000003420000000000019218844000000000000009999123100000010000000000000BRBROFCTF000113
012024052012MALL11      010FII MALLS BPCI           R$  000000001134200000000113590000000011250000000001128400000000113030000000011280000000001130409866000000000000030326000000000342223397000000000000009999123100000010000000000000BRMALLCTF007180
012024052012MANA11      010FII MANATI  CI           R$  000000000099500000000009950000000000973000000000098200000000009930000000000980000000000099301111000000000000059505000000000058467512000000000000009999123100000010000000000000BRMANACTF006123
012024052012BTAL11      010FII BTG AGROCI           R$  000000000720000000000073990000000007190000000000727800000000073500000000007350000000000737302558000000000000028705000000000208929660000000000000009999123100000010000000000000BRBTALCTF003138
012024052012BTCI11      010FII BTG CRI CI  ER       R$  000000000100600000000010120000000001004000000000100700000000010080000000001007000000000100824838000000000000198008000000000199534328000000000000009999123100000010000000000000BRBTCICTF005119
012024052012BTHI11      010BTG HOTEL FICI           R$  000000000433000000000043950000000004323000000000436900000000043230000000004280000000000434900021000000000000000106000000000000463122000000000000009999123100000010000000000000BRBTHICTF004108
012024052012BTLG11      010FII BTLG    CI  ER       R$  000000001016900000000101740000000010125000000001015100000000101400000000010137000000001014019758000000000000089167000000000905140387000000000000009999123100000010000000000000BRBTLGCTF000162
012024052012BTRA11      010FII BTG TAGRCI           R$  000000000553800000000056030000000005403000000000554900000000056030000000005491000000000560300412000000000000006217000000000034499539000000000000009999123100000010000000000000BRBTRACTF000135
