00COTAHIST.2024BOVESPA 20240415                                                                                                                                                                                                                      
012024041502GEPA4       010GER PARANAP PN           R$  000000000274900000000027690000000002720000000000273300000000027250000000002714000000000276800008000000000000001800000000000004920200000000000000009999123100000010000000000000BRGEPAACNPR9159
012024041502GFSA3       010GAFISA      ON      NM   R$  000000000059600000000006190000000000585000000000060000000000005990000000000597000000000059903983000000000002243500000000001347299200000000000000009999123100000010000000000000BRGFSAACNOR3124
012024041502GGBR3       010GERDAU      ON      N1   R$  000000000199800000000020950000000001998000000000206600000000020600000000002057000000000206500562000000000000128000000000000264485600000000000000009999123100000010000000000000BRGGBRACNOR1190
012024041502GGBR4       010GERDAU      PN      N1   R$  000000000228700000000023470000000002270000000000231200000000023090000000002309000000000231050702000000000025497000000000058955810100000000000000009999123100000010000000000000BRGGBRACNPR8190
012024041502INEP3       010INEPAR      ON           R$  000000000036700000000004070000000000362000000000038800000000003950000000000381000000000039500441000000000000135300000000000052547900000000000000009999123100000010000000000000BRINEPACNOR1143
012024041502INEP4       010INEPAR      PN           R$  000000000030600000000003270000000000299000000000031500000000003170000000000317000000000031800185000000000000037500000000000011839200000000000000009999123100000010000000000000BRINEPACNPR8143
012024041502INTB3       010INTELBRAS   ON      NM   R$  000000000183000000000018300000000001792000000000181100000000018150000000001815000000000182505390000000000001543800000000002796397700000000000000009999123100000010000000000000BRINTBACNOR9111
012024041502IRBR3       010IRBBRASIL REON      NM   R$  000000000402000000000040300000000003878000000000395000000000038980000000003894000000000390005421000000000001567600000000006193243800000000000000009999123100000010000000000000BRIRBRACNOR4111
012024041502ELMD3       010ELETROMIDIA ON      NM   R$  000000000180300000000018100000000001767000000000178600000000017980000000001770000000000179800199000000000000037700000000000067350600000000000000009999123100000010000000000000BRELMDACNOR3100
012024041502EMAE4       010EMAE        PN  ED       R$  000000000774900000000077700000000007520000000000765500000000077000000000007505000000000770000055000000000000006400000000000048994400000000000000009999123100000010000000000000BREMAEACNPR1125
012024041502EMBR3       010EMBRAER     ON      NM   R$  000000000318000000000032480000000003120000000000316000000000031420000000003141000000000314424135000000000010356800000000032730871100000000000000009999123100000010000000000000BREMBRACNOR4191
012024041502HBOR3       010HELBOR      ON      NM   R$  000000000027800000000002840000000000265000000000027000000000002660000000000266000000000026800741000000000000607700000000000164225000000000000000009999123100000010000000000000BRHBORACNOR3117
012024041502HBRE3       010HBR REALTY  ON      NM   R$  000000000056200000000005710000000000540000000000055200000000005440000000000544000000000054601801000000000000706700000000000390183600000000000000009999123100000010000000000000BRHBREACNOR4100
012024041502HBSA3       010HIDROVIAS   ON      NM   R$  000000000041000000000004100000000000397000000000040300000000004000000000000399000000000040106825000000000011738400000000004732287000000000000000009999123100000010000000000000BRHBSAACNOR0100
012024041502HBTS5       010HABITASUL   PNA          R$  000000000400200000000040020000000004000000000000400100000000040000000000003500000000000423900004000000000000000400000000000001600400000000000000009999123100000010000000000000BRHBTSACNPA3127
012024041502BAHI3       010BAHEMA      ON      MA   R$  000000000083000000000008920000000000830000000000087900000000008920000000000849000000000089200024000000000000007400000000000006510400000000000000009999123100000010000000000000BRBAHIACNOR1074
012024041502BALM3       010BAUMER      ON           R$  000000000120000000000012000000000001200000000000120000000000012000000000000990000000000126000001000000000000000200000000000000240000000000000000009999123100000010000000000000BRBALMACNOR5055
012024041502BEES3       010BANESTES    ON           R$  000000000089400000000009040000000000894000000000089600000000008970000000000896000000000089700053000000000000008500000000000007622100000000000000009999123100000010000000000000BRBEESACNOR9389
012024041502BEES4       010BANESTES    PN           R$  000000000096300000000009700000000000941000000000095900000000009610000000000941000000000097600039000000000000005200000000000004989200000000000000009999123100000010000000000000BRBEESACNPR6314
012024041502BPAN4       010BANCO PAN   PN      N1   R$  000000000094000000000009470000000000922000000000093100000000009240000000000923000000000092413442000000000011079300000000010315639800000000000000009999123100000010000000000000BRBPANACNPR1115
012024041502BRAP3       010BRADESPAR   ON      N1   R$  000000000200200000000020470000000001995000000000202200000000020200000000002015000000000202000373000000000000071500000000000144640600000000000000009999123100000010000000000000BRBRAPACNOR5147
012024041502BRAP4       010BRADESPAR   PN      N1   R$  000000000207600000000021320000000002064000000000210900000000020880000000002088000000000209115935000000000010738800000000022648594300000000000000009999123100000010000000000000BRBRAPACNPR2147
012024041502COCE5       010COELCE      PNA          R$  000000000347600000000034860000000003386000000000344000000000034510000000003368000000000346000127000000000000014000000000000048173500000000000000009999123100000010000000000000BRCOCEACNPA3146
012024041502COGN3       010COGNA ON    ON      NM   R$  000000000021900000000002190000000000206000000000021200000000002100000000000209000000000021128447000000000035911000000000007615178300000000000000009999123100000010000000000000BRCOGNACNOR2104
012024041502GRND3       010GRENDENE    ON      NM   R$  000000000062200000000006240000000000605000000000061200000000006050000000000604000000000060705356000000000002419700000000001482118400000000000000009999123100000010000000000000BRGRNDACNOR3172
012024041502CAMB3       010CAMBUCI     ON           R$  000000000108600000000010860000000001025000000000105000000000010390000000001039000000000105000482000000000000182800000000000192033800000000000000009999123100000010000000000000BRCAMBACNOR4128
012024041502CXSE3       010CAIXA SEGURION      NM   R$  000000000158000000000015890000000001554000000000156800000000015590000000001558000000000156010626000000000002808900000000004406040000000000000000009999123100000010000000000000BRCXSEACNOR7105
012024041502FLRY3       010FLEURY      ON      NM   R$  000000000147300000000014750000000001429000000000144100000000014320000000001431000000000143210886000000000004518200000000006514427500000000000000009999123100000010000000000000BRFLRYACNOR5138
012024041502IFCM3       010INFRACOMM   ON      NM   R$  000000000007900000000000790000000000072000000000007400000000000730000000000073000000000007412914000000000011718900000000000878547700000000000000009999123100000010000000000000BRIFCMACNOR8101
012024041502IGTI11      010IGUATEMI S.AUNT     N1   R$  000000000221600000000022170000000002144000000000216400000000021570000000002156000000000216218860000000000004399400000000009523017700000000000000009999123100000010000000000000BRIGTICDAM16105
012024041502IGTI3       010IGUATEMI S.AON      N1   R$  000000000031500000000003150000000000308000000000031000000000003080000000000308000000000030900156000000000000062400000000000019380500000000000000009999123100000010000000000000BRIGTIACNOR8105
012024041502IGTI4       010IGUATEMI S.APN      N1   R$  000000000095200000000009520000000000906000000000092600000000009060000000000009000000000100000006000000000000000900000000000000833400000000000000009999123100000010000000000000BRIGTIACNPR5105
012024041502JSLG3       010JSL         ON      NM   R$  000000000132200000000013220000000001245000000000127400000000012500000000001250000000000125402653000000000000552000000000000703605300000000000000009999123100000010000000000000BRJSLGACNOR2121
012024041502KEPL3       010KEPLER WEBERON  ED  NM   R$  000000000099700000000010060000000000973000000000099200000000009930000000000990000000000099405143000000000001167800000000001158583400000000000000009999123100000010000000000000BRKEPLACNOR1062
012024041502KLBN11      010KLABIN S/A  UNT     N2   R$  000000000249000000000024900000000002434000000000245700000000024450000000002444000000000244818278000000000004887200000000012008089800000000000000009999123100000010000000000000BRKLBNCDAM18140
012024041502KLBN3       010KLABIN S/A  ON      N2   R$  000000000049500000000004960000000000480000000000048700000000004860000000000485000000000048701791000000000000663300000000000323400700000000000000009999123100000010000000000000BRKLBNACNOR2168
012024041502KLBN4       010KLABIN S/A  PN      N2   R$  000000000049800000000004990000000000490000000000049300000000004930000000000492000000000049403399000000000003726400000000001838807700000000000000009999123100000010000000000000BRKLBNACNPR9168
012024041502AGRO3       010BRASILAGRO  ON      NM   R$  000000000247600000000024870000000002457000000000246800000000024720000000002472000000000247301881000000000000261500000000000645637100000000000000009999123100000010000000000000BRAGROACNOR7114
012024041502AGXY3       010AGROGALAXY  ON      NM   R$  000000000019900000000001990000000000181000000000018600000000001820000000000182000000000018300488000000000000279100000000000052092700000000000000009999123100000010000000000000BRAGXYACNOR4102
012024041502ALLD3       010ALLIED      ON      NM   R$  000000000098600000000009960000000000925000000000095500000000009440000000000944000000000094501869000000000000683400000000000652939600000000000000009999123100000010000000000000BRALLDACNOR3105
012024041502ALOS3       010ALLOS       ON      NM   R$  000000000228000000000022800000000002211000000000223000000000022340000000002233000000000223420633000000000007322800000000016331908800000000000000009999123100000010000000000000BRALOSACNOR5100
012024041502ALPA3       010ALPARGATAS  ON      N1   R$  000000000096400000000009640000000000964000000000096400000000009640000000000869000000000099100001000000000000002700000000000002602800000000000000009999123100000010000000000000BRALPAACNOR0231
012024041502ALPA4       010ALPARGATAS  PN      N1   R$  000000000092700000000009270000000000891000000000090800000000008910000000000891000000000089410425000000000006444900000000005858333600000000000000009999123100000010000000000000BRALPAACNPR7232
012024041502ALPK3       010ESTAPAR     ON      NM   R$  000000000044000000000004460000000000412000000000042700000000004120000000000412000000000041700462000000000000143600000000000061373100000000000000009999123100000010000000000000BRALPKACNOR9101
012024041502ALUP11      010ALUPAR      UNT     N2   R$  000000000301000000000030180000000002954000000000297300000000029760000000002970000000000297805410000000000000988700000000002939793700000000000000009999123100000010000000000000BRALUPCDAM15117
012024041502ALUP3       010ALUPAR      ON      N2   R$  000000000102400000000010350000000001009000000000102100000000010180000000001013000000000102000170000000000000028700000000000029330900000000000000009999123100000010000000000000BRALUPACNOR8117
012024041502BLAU3       010BLAU        ON      NM   R$  000000000116000000000011740000000001096000000000112000000000010970000000001096000000000110003240000000000000688600000000000771621000000000000000009999123100000010000000000000BRBLAUACNOR8112
012024041502SGPS3       010SPRINGS     ON      NM   R$  000000000007700000000000770000000000075000000000007500000000000760000000000076000000000007700175000000000000108000000000000008146400000000000000009999123100000010000000000000BRSGPSACNOR4104
012024041502SHOW3       010TIME FOR FUNON      NM   R$  000000000026300000000002680000000000240000000000024700000000002400000000000239000000000024000455000000000000291400000000000072241800000000000000009999123100000010000000000000BRSHOWACNOR7105
012024041502SHUL4       010SCHULZ      PN           R$  000000000066300000000006680000000000655000000000065700000000006560000000000656000000000066002651000000000000852800000000000560742600000000000000009999123100000010000000000000BRSHULACNPR4155
012024041502SIMH3       010SIMPAR      ON      NM   R$  000000000070300000000007030000000000645000000000066500000000006450000000000645000000000064809878000000000005894500000000003924241400000000000000009999123100000010000000000000BRSIMHACNOR0107
012024041502SLCE3       010SLC AGRICOLAON      NM   R$  000000000185000000000018620000000001805000000000182000000000018100000000001809000000000181413139000000000002973900000000005413113500000000000000009999123100000010000000000000BRSLCEACNOR2124
012024041502SMFT3       010SMART FIT   ON      NM   R$  000000000249600000000024960000000002403000000000242800000000024200000000002420000000000243014642000000000003699600000000008984986300000000000000009999123100000010000000000000BRSMFTACNOR1111
012024041502SMTO3       010SAO MARTINHOON      NM   R$  000000000290100000000029270000000002776000000000281900000000028190000000002815000000000281909753000000000001999400000000005636722900000000000000009999123100000010000000000000BRSMTOACNOR3125
012024041502SNSY3       010SANSUY      ON           R$  000000000105600000000010900000000001030000000000104200000000010300000000001024000000000105000014000000000000001600000000000001668400000000000000009999123100000010000000000000BRSNSYACNOR2113
012024041502SNSY5       010SANSUY      PNA          R$  000000000065900000000006590000000000628000000000063200000000006290000000000629000000000065500013000000000000002100000000000001328300000000000000009999123100000010000000000000BRSNSYACNPA5111
012024041502SOJA3       010BOA SAFRA   ON      NM   R$  000000000167000000000016740000000001641000000000165400000000016580000000001655000000000165802286000000000000443600000000000733761200000000000000009999123100000010000000000000BRSOJAACNOR9105
012024041502SOMA3       010GRUPO SOMA  ON      NM   R$  000000000062900000000006300000000000598000000000061200000000006090000000000608000000000060923625000000000025305200000000015488155000000000000000009999123100000010000000000000BRSOMAACNOR3102
012024041502MILS3       010MILLS       ON      NM   R$  000000000132200000000013220000000001285000000000129500000000012850000000001284000000000129205210000000000001578900000000002045776700000000000000009999123100000010000000000000BRMILSACNOR2125
012024041502MLAS3       010MULTILASER  ON      NM   R$  000000000022700000000002280000000000206000000000021400000000002070000000000207000000000020807960000000000007651700000000001643438100000000000000009999123100000010000000000000BRMLASACNOR9101
012024041502MNDL3       010MUNDIAL     ON           R$  000000000431900000000044000000000004300000000000432700000000044000000000004300000000000469200005000000000000000500000000000002163700000000000000009999123100000010000000000000BRMNDLACNOR4107
012024041502MOVI3       010MOVIDA      ON      NM   R$  000000000078400000000007970000000000761000000000077200000000007660000000000765000000000076706971000000000004093500000000003163558500000000000000009999123100000010000000000000BRMOVIACNOR0122
012024041502MRFG3       010MARFRIG     ON      NM   R$  000000000100500000000010680000000000984000000000103700000000010430000000001042000000000104326354000000000013598400000000014105237500000000000000009999123100000010000000000000BRMRFGACNOR0116
012024041502SBFG3       010GRUPO SBF   ON      NM   R$  000000000126400000000012730000000001167000000000119900000000011700000000001170000000000117712143000000000003500500000000004199228700000000000000009999123100000010000000000000BRSBFGACNOR1102
012024041502SBSP3       010SABESP      ON      NM   R$  000000000808200000000080860000000007994000000000804700000000080650000000008065000000000808010567000000000002361500000000019004213000000000000000009999123100000010000000000000BRSBSPACNOR5160
012024041502ZAMP3       010ZAMP S.A.   ON           R$  000000000031900000000003190000000000301000000000030600000000003010000000000301000000000030404168000000000001078800000000000330291000000000000000009999123100000010000000000000BRZAMPACNOR5100
012024041502GMAT3       010GRUPO MATEUSON      NM   R$  000000000079400000000007970000000000765000000000077500000000007690000000000769000000000077415247000000000007839800000000006077266000000000000000009999123100000010000000000000BRGMATACNOR7101
012024041502GOAU3       010GERDAU MET  ON      N1   R$  000000000108100000000011540000000001081000000000112900000000011170000000001107000000000111801256000000000000279400000000000315519300000000000000009999123100000010000000000000BRGOAUACNOR1266
012024041502GOAU4       010GERDAU MET  PN      N1   R$  000000000107400000000011130000000001072000000000109400000000010890000000001088000000000108925015000000000020664500000000022610798400000000000000009999123100000010000000000000BRGOAUACNPR8267
012024041502AVLL3       010ALPHAVILLE  ON      NM   R$  000000000038500000000003860000000000385000000000038500000000003860000000000366000000000038600002000000000000000200000000000000077100000000000000009999123100000010000000000000BRAVLLACNOR5103
012024041502AZEV3       010AZEVEDO     ON           R$  000000000017000000000001740000000000151000000000016000000000001560000000000155000000000015601030000000000001159500000000000185985000000000000000009999123100000010000000000000BRAZEVACNOR0121
012024041502AZEV4       010AZEVEDO     PN           R$  000000000016900000000001740000000000142000000000015500000000001550000000000154000000000015504222000000000009573200000000001484948900000000000000009999123100000010000000000000BRAZEVACNPR7121
012024041502AZUL4       010AZUL        PN      N2   R$  000000000111600000000011340000000001044000000000108100000000010690000000001069000000000107029469000000000026210700000000028337957900000000000000009999123100000010000000000000BRAZULACNPR4102
012024041502PINE3       010PINE        ON  EJ  N2   R$  000000000070000000000007000000000000650000000000067200000000006750000000000653000000000067500012000000000000001900000000000001277200000000000000009999123100000010000000000000BRPINEACNOR1149
012024041502PINE4       010PINE        PN  EJ  N2   R$  000000000043700000000004390000000000415000000000042600000000004390000000000437000000000043901578000000000000644700000000000274722800000000000000009999123100000010000000000000BRPINEACNPR8149
012024041502PLAS3       010PLASCAR PARTON           R$  000000000073300000000007400000000000733000000000073800000000007400000000000720000000000080300003000000000000000400000000000000295300000000000000009999123100000010000000000000BRPLASACNOR2106
012024041502PLPL3       010PLANOEPLANO ON      NM   R$  000000000126400000000012970000000001192000000000122900000000012110000000001196000000000121104354000000000001313900000000001615551300000000000000009999123100000010000000000000BRPLPLACNOR5104
012024041502PNVL3       010DIMED       ON  EJ  NM   R$  000000000120000000000012000000000001144000000000115800000000011500000000001150000000000115401988000000000000321600000000000372463300000000000000009999123100000010000000000000BRPNVLACNOR9206
012024041502BEEF3       010MINERVA     ON      NM   R$  000000000063500000000006350000000000596000000000060700000000006040000000000604000000000060523754000000000033348500000000020265700000000000000000009999123100000010000000000000BRBEEFACNOR6116
012024041502GUAR3       010GUARARAPES  ON      NM   R$  000000000076500000000007710000000000722000000000074100000000007380000000000734000000000073809780000000000005231500000000003877898400000000000000009999123100000010000000000000BRGUARACNOR4172
012024041502HAGA3       010HAGA S/A    ON           R$  000000000025500000000002550000000000255000000000025500000000002550000000000249000000000025800004000000000000000900000000000000229500000000000000009999123100000010000000000000BRHAGAACNOR7103
012024041502HAGA4       010HAGA S/A    PN           R$  000000000011500000000001170000000000113000000000011300000000001140000000000114000000000011600013000000000000003800000000000000432800000000000000009999123100000010000000000000BRHAGAACNPR4103
012024041502BPAC11      010BTGP BANCO  UNT     N2   R$  000000000343500000000034410000000003340000000000336400000000033640000000003364000000000337026806000000000011013800000000037056814900000000000000009999123100000010000000000000BRBPACUNT006118
012024041502BPAC3       010BTGP BANCO  ON      N2   R$  000000000170500000000017050000000001660000000000168300000000016990000000001642000000000170400028000000000000003100000000000005219100000000000000009999123100000010000000000000BRBPACACNOR7133
012024041502BPAC5       010BTGP BANCO  PNA     N2   R$  000000000084400000000008470000000000830000000000083800000000008440000000000826000000000084500037000000000000005400000000000004526800000000000000009999123100000010000000000000BRBPACACNPA0133
012024041502CMIN3       010CSNMINERACAOON      N2   R$  000000000050900000000005130000000000499000000000050500000000005060000000000505000000000050613575000000000010306900000000005205888100000000000000009999123100000010000000000000BRCMINACNOR2110
012024041502CPLE3       010COPEL       ON      N2   R$  000000000082700000000008300000000000813000000000082000000000008200000000000820000000000082104988000000000009338500000000007662320300000000000000009999123100000010000000000000BRCPLEACNOR8148
012024041502CPLE5       010COPEL       PNA     N2   R$  000000000199200000000019920000000001991000000000199100000000019910000000001990000000000210000002000000000000000200000000000000398300000000000000009999123100000010000000000000BRCPLEACNPA1146
012024041502CPLE6       010COPEL       PNB     N2   R$  000000000092200000000009340000000000916000000000092300000000009220000000000921000000000092334064000000000026609300000000024564011600000000000000009999123100000010000000000000BRCPLEACNPB9145
012024041502CSUD3       010CSU DIGITAL ON      NM   R$  000000000190100000000019010000000001835000000000186000000000018500000000001850000000000186400523000000000000089100000000000165751800000000000000009999123100000010000000000000BRCSUDACNOR5108
012024041502CTKA4       010KARSTEN     PN           R$  000000000190100000000019010000000001901000000000190100000000019010000000001810000000000194000001000000000000000100000000000000190100000000000000009999123100000010000000000000BRCTKAACNPR7043
012024041502CTNM4       010COTEMINAS   PN           R$  000000000011200000000001140000000000109000000000011100000000001110000000000110000000000011300060000000000000026300000000000002921900000000000000009999123100000010000000000000BRCTNMACNPR6129
012024041502CTSA4       010SANTANENSE  PN           R$  000000000014800000000001480000000000134000000000013900000000001350000000000135000000000013700056000000000000029300000000000004076400000000000000009999123100000010000000000000BRCTSAACNPR0062
012024041502CURY3       010CURY S/A    ON      NM   R$  000000000195600000000019650000000001805000000000184500000000018190000000001819000000000182014192000000000006305900000000011635030100000000000000009999123100000010000000000000BRCURYACNOR3107
012024041502CVCB3       010CVC BRASIL  ON      NM   R$  000000000022300000000002240000000000201000000000021000000000002030000000000203000000000020419839000000000041880900000000008801585100000000000000009999123100000010000000000000BRCVCBACNOR1115
012024041502ENAT3       010ENAUTA PART ON      NM   R$  000000000276700000000027870000000002728000000000274900000000027470000000002747000000000275806608000000000001322400000000003635597300000000000000009999123100000010000000000000BRENATACNOR0104
012024041502ENEV3       010ENEVA       ON      NM   R$  000000000124600000000012500000000001220000000000122800000000012250000000001225000000000122632007000000000016798400000000020640867300000000000000009999123100000010000000000000BRENEVACNOR8105
012024041502ENGI11      010ENERGISA    UNT     N2   R$  000000000467600000000046760000000004567000000000463100000000046600000000004659000000000466118343000000000003518000000000016292266600000000000000009999123100000010000000000000BRENGICDAM16135
012024041502ENGI3       010ENERGISA    ON      N2   R$  000000000150500000000015050000000001475000000000148200000000014980000000001485000000000149900075000000000000009200000000000013638800000000000000009999123100000010000000000000BRENGIACNOR0145
012024041502BIOM3       010BIOMM       ON      MA   R$  000000000102200000000011300000000001000000000000106700000000011250000000001123000000000112601737000000000000227100000000000242405500000000000000009999123100000010000000000000BRBIOMACNOR2112
012024041502AALR3       010ALLIAR      ON      NM   R$  000000000097800000000009810000000000877000000000091600000000008770000000000876000000000088503818000000000000489300000000000448257900000000000000009999123100000010000000000000BRAALRACNOR6102
012024041502ABCB4       010ABC BRASIL  PN      N2   R$  000000000239100000000023940000000002333000000000235400000000023570000000002354000000000235704260000000000000715400000000001684539600000000000000009999123100000010000000000000BRABCBACNPR4145
012024041502ABEV3       010AMBEV S/A   ON           R$  000000000121000000000012150000000001198000000000120700000000012070000000001207000000000120824020000000000031625300000000038187131600000000000000009999123100000010000000000000BRABEVACNOR1127
012024041502BAUH4       010EXCELSIOR   PN           R$  000000000777200000000078770000000007772000000000782400000000078770000000000000000000000787700004000000000000000400000000000003129800000000000000009999123100000010000000000000BRBAUHACNPR3117
012024041502BAZA3       010AMAZONIA    ON           R$  000000001049900000000104990000000010150000000001023800000000101500000000010072000000001020000018000000000000001900000000000019452700000000000000009999123100000010000000000000BRBAZAACNOR0178
012024041502BBAS3       010BRASIL      ON      NM   R$  000000000572600000000057340000000005621000000000565300000000056460000000005641000000000564624487000000000007205700000000040740757500000000000000009999123100000010000000000000BRBBASACNOR3321
012024041502HAPV3       010HAPVIDA     ON      NM   R$  000000000038900000000003930000000000373000000000038000000000003730000000000373000000000037544749000000000098571800000000037479728500000000000000009999123100000010000000000000BRHAPVACNOR4113
012024041502AERI3       010AERIS       ON      NM   R$  000000000006000000000000600000000000057000000000005800000000000580000000000058000000000005902598000000000001765200000000000103001600000000000000009999123100000010000000000000BRAERIACNOR4101
012024041502AESB3       010AES BRASIL  ON      NM   R$  000000000094200000000009420000000000912000000000092100000000009290000000000927000000000092908779000000000003466000000000003195281400000000000000009999123100000010000000000000BRAESBACNOR7105
012024041502AFLT3       010AFLUENTE T  ON  ED       R$  000000000078900000000008130000000000756000000000079400000000007560000000000757000000000079400013000000000000003700000000000002938600000000000000009999123100000010000000000000BRAFLTACNOR1121
012024041502EALT3       010ACO ALTONA  ON           R$  000000000098800000000009880000000000988000000000098800000000009880000000000988000000000102000001000000000000000100000000000000098800000000000000009999123100000010000000000000BREALTACNOR4137
012024041502EALT4       010ACO ALTONA  PN           R$  000000000104100000000010420000000001019000000000102600000000010220000000001021000000000102700034000000000000006600000000000006775800000000000000009999123100000010000000000000BREALTACNPR1137
012024041502ECOR3       010ECORODOVIAS ON      NM   R$  000000000076600000000007690000000000758000000000076300000000007650000000000765000000000076608243000000000003792200000000002896131900000000000000009999123100000010000000000000BRECORACNOR8119
012024041502EGIE3       010ENGIE BRASILON      NM   R$  000000000408500000000041900000000004085000000000415000000000041400000000004127000000000414414659000000000003533700000000014665855000000000000000009999123100000010000000000000BREGIEACNOR9125
012024041502ITSA3       010ITAUSA      ON      N1   R$  000000000099500000000009950000000000969000000000097700000000009690000000000969000000000097000648000000000000188700000000000184539800000000000000009999123100000010000000000000BRITSAACNOR0439
012024041502ITSA4       010ITAUSA      PN      N1   R$  000000000098900000000009920000000000966000000000097500000000009730000000000972000000000097336223000000000020823100000000020319952000000000000000009999123100000010000000000000BRITSAACNPR7439
012024041502ASAI3       010ASSAI       ON      NM   R$  000000000139200000000013980000000001360000000000137400000000013730000000001373000000000137424933000000000016579900000000022790697800000000000000009999123100000010000000000000BRASAIACNOR0106
012024041502ATOM3       010ATOMPAR     ON           R$  000000000021200000000002330000000000209000000000022000000000002140000000000214000000000021700353000000000000084300000000000018581000000000000000009999123100000010000000000000BRATOMACNOR1106
012024041502CCRO3       010CCR SA      ON      NM   R$  000000000132500000000013290000000001289000000000130000000000013000000000001300000000000130121591000000000016593000000000021578907500000000000000009999123100000010000000000000BRCCROACNOR2144
012024041502CEAB3       010CEA MODAS   ON      NM   R$  000000000110100000000011110000000001003000000000103100000000010050000000001005000000000101012495000000000005108900000000005268649700000000000000009999123100000010000000000000BRCEABACNOR1102
012024041502DASA3       010DASA        ON      NM   R$  000000000049300000000004970000000000448000000000046500000000004490000000000448000000000045002272000000000000552200000000000257162400000000000000009999123100000010000000000000BRDASAACNOR1122
012024041502CRFB3       010CARREFOUR BRON      NM   R$  000000000120700000000012100000000001179000000000119500000000012040000000001199000000000120512984000000000007100000000000008484585800000000000000009999123100000010000000000000BRCRFBACNOR2116
012024041502CRPG5       010CRISTAL     PNA          R$  000000000323900000000032460000000003151000000000322500000000032400000000003131000000000323700012000000000000001700000000000005483300000000000000009999123100000010000000000000BRCRPGACNPA3118
012024041502CRPG6       010CRISTAL     PNB          R$  000000000311300000000031130000000003051000000000308900000000031120000000003051000000000311300013000000000000001400000000000004325600000000000000009999123100000010000000000000BRCRPGACNPB1118
012024041502CSAN3       010COSAN       ON      NM   R$  000000000149500000000014950000000001428000000000144800000000014400000000001440000000000144331377000000000017090100000000024752086800000000000000009999123100000010000000000000BRCSANACNOR6124
012024041502EKTR4       010ELEKTRO     PN  ED       R$  000000000410900000000041100000000003807000000000394900000000039790000000003978000000000408900018000000000000003400000000000013428700000000000000009999123100000010000000000000BREKTRACNPR7161
012024041502ELET3       010ELETROBRAS  ON      N1   R$  000000000390300000000039060000000003788000000000384000000000038490000000003849000000000385031082000000000010144900000000038959305100000000000000009999123100000010000000000000BRELETACNOR6159
012024041502ELET6       010ELETROBRAS  PNB     N1   R$  000000000438000000000043820000000004279000000000431900000000043260000000004326000000000432806956000000000001446300000000006247335000000000000000009999123100000010000000000000BRELETACNPB7076
012024041502GGPS3       010GPS         ON  ED  NM   R$  000000000196400000000019680000000001888000000000191700000000019060000000001906000000000191014270000000000004285300000000008217783700000000000000009999123100000010000000000000BRGGPSACNOR9103
012024041502DESK3       010DESKTOP     ON      NM   R$  000000000142900000000014290000000001362000000000137100000000013660000000001366000000000137500572000000000000285300000000000391161200000000000000009999123100000010000000000000BRDESKACNOR2103
012024041502DEXP3       010DEXXOS PAR  ON      N1   R$  000000000111900000000011190000000001088000000000110100000000010880000000001088000000000109500543000000000000150800000000000166062500000000000000009999123100000010000000000000BRDEXPACNOR1104
012024041502DIRR3       010DIRECIONAL  ON      NM   R$  000000000236200000000023720000000002209000000000225000000000022550000000002255000000000225811435000000000003266100000000007351960000000000000000009999123100000010000000000000BRDIRRACNOR0117
012024041502DMVF3       010D1000VFARMA ON      NM   R$  000000000069800000000007000000000000680000000000068800000000006900000000000690000000000069100432000000000000132900000000000091543200000000000000009999123100000010000000000000BRDMVFACNOR9100
012024041502DOTZ3       010DOTZ SA     ON      NM   R$  000000000056500000000005650000000000522000000000054300000000005220000000000521000000000053000037000000000000010900000000000005922500000000000000009999123100000010000000000000BRDOTZACNOR7101
012024041502DXCO3       010DEXCO       ON      NM   R$  000000000075100000000007850000000000743000000000076100000000007480000000000747000000000074811824000000000007304100000000005562128200000000000000009999123100000010000000000000BRDXCOACNOR8105
012024041502CYRE3       010CYRELA REALTON      NM   R$  000000000227300000000022790000000002104000000000215600000000021350000000002134000000000213529336000000000013098300000000028243242800000000000000009999123100000010000000000000BRCYREACNOR7139
012024041502FESA3       010FERBASA     ON      N1   R$  000000000156000000000015600000000001543000000000155100000000015430000000001502000000000158800002000000000000000200000000000000310300000000000000009999123100000010000000000000BRFESAACNOR8187
012024041502FESA4       010FERBASA     PN      N1   R$  000000000085500000000008720000000000824000000000084100000000008260000000000826000000000082704768000000000001495000000000001258304400000000000000009999123100000010000000000000BRFESAACNPR5083
012024041502FHER3       010FER HERINGERON      NM   R$  000000000053900000000005600000000000512000000000052400000000005120000000000512000000000054800108000000000000040700000000000021328800000000000000009999123100000010000000000000BRFHERACNOR5103
012024041502FIQE3       010UNIFIQUE    ON      NM   R$  000000000038800000000003900000000000373000000000037900000000003730000000000373000000000037401482000000000000585600000000000222053800000000000000009999123100000010000000000000BRFIQEACNOR5106
012024041502EQMA3B      010EQTLMARANHAOON      MB   R$  000000000295000000000029500000000002950000000000295000000000029500000000002903000000000295500004000000000000001900000000000005605000000000000000009999123100000010000000000000BREQMAACNOR8107
012024041502EQPA3       010EQTL PARA   ON           R$  000000000080000000000008250000000000793000000000080400000000008250000000000800000000000083000044000000000000008400000000000006761100000000000000009999123100000010000000000000BREQPAACNOR1110
012024041502EQTL3       010EQUATORIAL  ON      NM   R$  000000000315300000000031890000000003116000000000314700000000031490000000003149000000000315139690000000000012828200000000040378530900000000000000009999123100000010000000000000BREQTLACNOR0129
012024041502ESPA3       010ESPACOLASER ON      NM   R$  000000000009700000000000980000000000094000000000009500000000000940000000000094000000000009501905000000000001136400000000000108473800000000000000009999123100000010000000000000BRESPAACNOR7103
012024041502EUCA3       010EUCATEX     ON      N1   R$  000000000175700000000017580000000001757000000000175700000000017580000000001705000000000175800003000000000000000300000000000000527300000000000000009999123100000010000000000000BREUCAACNOR1157
012024041502EUCA4       010EUCATEX     PN      N1   R$  000000000171600000000017160000000001624000000000165700000000016340000000001633000000000164000738000000000000134700000000000223331800000000000000009999123100000010000000000000BREUCAACNPR8044
012024041502POMO3       010MARCOPOLO   ON      N2   R$  000000000056300000000005660000000000553000000000055800000000005590000000000559000000000056300898000000000000426600000000000238385700000000000000009999123100000010000000000000BRPOMOACNOR0097
012024041502POMO4       010MARCOPOLO   PN      N2   R$  000000000071500000000007260000000000702000000000071400000000007110000000000710000000000071116309000000000008489500000000006063428100000000000000009999123100000010000000000000BRPOMOACNPR7097
012024041502PORT3       010WILSON SONS ON      NM   R$  000000000172300000000017230000000001695000000000170400000000016990000000001694000000000170003171000000000001026000000000001749093800000000000000009999123100000010000000000000BRPORTACNOR8106
012024041502POSI3       010POSITIVO TECON      NM   R$  000000000096900000000009910000000000942000000000096400000000009600000000000953000000000096005420000000000001430000000000001379291400000000000000009999123100000010000000000000BRPOSIACNOR9115
012024041502PRIO3       010PETRORIO    ON      NM   R$  000000000509800000000050980000000004989000000000502400000000050100000000005008000000000501125526000000000010851800000000054520870900000000000000009999123100000010000000000000BRPRIOACNOR1106
012024041502RSUL4       010RIOSULENSE  PN           R$  000000000820000000000082070000000007871000000000800400000000078710000000007870000000000800000018000000000000001800000000000014408200000000000000009999123100000010000000000000BRRSULACNPR3113
012024041502EVEN3       010EVEN        ON      NM   R$  000000000076000000000007600000000000732000000000074100000000007400000000000736000000000074105114000000000001268000000000000940805900000000000000009999123100000010000000000000BREVENACNOR8118
012024041502EZTC3       010EZTEC       ON      NM   R$  000000000144400000000014440000000001382000000000140400000000013820000000001381000000000138610824000000000003348300000000004703946400000000000000009999123100000010000000000000BREZTCACNOR0124
012024041502JALL3       010JALLESMACHADON      NM   R$  000000000073300000000007340000000000725000000000072800000000007290000000000728000000000072902981000000000000794600000000000579030900000000000000009999123100000010000000000000BRJALLACNOR0105
012024041502JBSS3       010JBS         ON      NM   R$  000000000220000000000023290000000002189000000000228500000000023030000000002298000000000230323993000000000014180500000000032410991600000000000000009999123100000010000000000000BRJBSSACNOR8121
012024041502MRVE3       010MRV         ON      NM   R$  000000000066700000000006710000000000635000000000064700000000006410000000000641000000000064221760000000000030158600000000019521068600000000000000009999123100000010000000000000BRMRVEACNOR2126
012024041502PRNR3       010PRINER      ON      NM   R$  000000000133700000000013480000000001260000000000128300000000012630000000001263000000000127601874000000000000603900000000000775097700000000000000009999123100000010000000000000BRPRNRACNOR4108
012024041502PSSA3       010PORTO SEGUROON      NM   R$  000000000304300000000030750000000003032000000000305100000000030390000000003039000000000304008055000000000002253700000000006877310300000000000000009999123100000010000000000000BRPSSAACNOR7154
012024041502PTBL3       010PORTOBELLO  ON      NM   R$  000000000058700000000005970000000000571000000000058100000000005770000000000577000000000057902047000000000000694200000000000403948100000000000000009999123100000010000000000000BRPTBLACNOR8132
012024041502PTNT3       010PETTENATI   ON           R$  000000000098100000000010000000000000980000000000098500000000009800000000000973000000000098900015000000000000001500000000000001477500000000000000009999123100000010000000000000BRPTNTACNOR6042
012024041502PTNT4       010PETTENATI   PN           R$  000000000077500000000007750000000000754000000000075800000000007600000000000760000000000076800010000000000000002900000000000002200500000000000000009999123100000010000000000000BRPTNTACNPR3047
012024041502QUAL3       010QUALICORP   ON      NM   R$  000000000014800000000001480000000000137000000000014200000000001370000000000137000000000013806532000000000008344600000000001185838300000000000000009999123100000010000000000000BRQUALACNOR6119
012024041502SANB11      010SANTANDER BRUNT          R$  000000000270700000000027230000000002694000000000270300000000026950000000002695000000000269707586000000000002398000000000006482184800000000000000009999123100000010000000000000BRSANBCDAM13163
012024041502SANB3       010SANTANDER BRON           R$  000000000127900000000012830000000001267000000000127200000000012730000000001270000000000127300826000000000000151300000000000192494300000000000000009999123100000010000000000000BRSANBACNOR8170
012024041502SANB4       010SANTANDER BRPN           R$  000000000143800000000014460000000001430000000000143500000000014300000000001430000000000143600711000000000000130600000000000187499900000000000000009999123100000010000000000000BRSANBACNPR5170
012024041502SAPR11      010SANEPAR     UNT     N2   R$  000000000251000000000025200000000002476000000000248900000000024900000000002490000000000249206485000000000001173000000000002920515600000000000000009999123100000010000000000000BRSAPRCDAM13117
012024041502SAPR3       010SANEPAR     ON      N2   R$  000000000048500000000004870000000000477000000000048100000000004820000000000480000000000048201323000000000000465200000000000224072300000000000000009999123100000010000000000000BRSAPRACNOR9158
012024041502SAPR4       010SANEPAR     PN      N2   R$  000000000050900000000005110000000000503000000000050500000000005070000000000506000000000050703805000000000003319900000000001679411300000000000000009999123100000010000000000000BRSAPRACNPR6158
012024041502RADL3       010RAIADROGASILON  EJ  NM   R$  000000000262300000000026410000000002605000000000262500000000026200000000002619000000000262319336000000000006162400000000016178398000000000000000009999123100000010000000000000BRRADLACNOR0155
012024041502SCAR3       010SAO CARLOS  ON      NM   R$  000000000257600000000025760000000002513000000000254700000000025600000000002520000000000256000057000000000000007200000000000018345500000000000000009999123100000010000000000000BRSCARACNOR7130
012024041502SEER3       010SER EDUCA   ON      NM   R$  000000000063500000000006370000000000539000000000057000000000005400000000000540000000000054105390000000000002525800000000001440285700000000000000009999123100000010000000000000BRSEERACNOR5119
012024041502SEQL3       010SEQUOIA LOG ON  ES  NM   R$  000000000002900000000000290000000000026000000000002700000000000290000000000028000000000002901116000000000010619500000000000293729300000000000000009999123100000010000000000000BRSEQLACNOR2102
012024041502VALE3       010VALE        ON      NM   R$  000000000623000000000062850000000006196000000000623300000000061990000000006198000000000620056832000000000028567300000000178086680400000000000000009999123100000010000000000000BRVALEACNOR0210
012024041502WEST3       010WESTWING    ON      NM   R$  000000000012600000000001270000000000125000000000012500000000001260000000000125000000000012700048000000000000012100000000000001522100000000000000009999123100000010000000000000BRWESTACNOR3100
012024041502WHRL3       010WHIRLPOOL   ON           R$  000000000047400000000004840000000000474000000000047900000000004840000000000484000000000048500011000000000000001600000000000000767300000000000000009999123100000010000000000000BRWHRLACNOR5128
012024041502WHRL4       010WHIRLPOOL   PN           R$  000000000045900000000004660000000000459000000000046300000000004650000000000465000000000046600041000000000000014300000000000006623000000000000000009999123100000010000000000000BRWHRLACNPR2128
012024041502WIZC3       010WIZ CO      ON      NM   R$  000000000071000000000007220000000000704000000000071100000000007100000000000707000000000071002920000000000000594600000000000422810000000000000000009999123100000010000000000000BRWIZCACNOR5101
012024041502WLMM4       010WLM IND COM PN           R$  000000000267900000000026900000000002511000000000263100000000026900000000002590000000000269000018000000000000002000000000000005262600000000000000009999123100000010000000000000BRWLMMACNPR3117
012024041502YDUQ3       010YDUQS PART  ON      NM   R$  000000000149000000000014900000000001415000000000144000000000014230000000001421000000000142418417000000000007050100000000010153917500000000000000009999123100000010000000000000BRYDUQACNOR3104
012024041502ITUB3       010ITAUUNIBANCOON      N1   R$  000000000282400000000028290000000002769000000000278900000000027770000000002772000000000277701777000000000000454300000000001267417800000000000000009999123100000010000000000000BRITUBACNOR4334
012024041502ITUB4       010ITAUUNIBANCOPN      N1   R$  000000000324600000000032630000000003179000000000320600000000031910000000003190000000000319151992000000000031620200000000101405433200000000000000009999123100000010000000000000BRITUBACNPR1334
012024041502PDGR3       010PDG REALT   ON      NM   R$  000000000002900000000000290000000000027000000000002800000000000280000000000027000000000002800407000000000001511000000000000042458300000000000000009999123100000010000000000000BRPDGRACNOR8118
012024041502PDTC3       010PADTEC      ON      NM   R$  000000000024100000000002420000000000232000000000023400000000002330000000000232000000000023300241000000000000099800000000000023443800000000000000009999123100000010000000000000BRPDTCACNOR3100
012024041502PEAB3       010PAR AL BAHIAON           R$  000000000399500000000039950000000003995000000000399500000000039950000000003200000000000000000001000000000000000200000000000000799000000000000000009999123100000010000000000000BRPEABACNOR3132
012024041502PEAB4       010PAR AL BAHIAPN           R$  000000000452600000000045260000000004526000000000452600000000045260000000004526000000000476900001000000000000000100000000000000452600000000000000009999123100000010000000000000BRPEABACNPR0132
012024041502PETR3       010PETROBRAS   ON      N2   R$  000000000402000000000041030000000004010000000000407500000000040890000000004089000000000409028099000000000013367800000000054486686800000000000000009999123100000010000000000000BRPETRACNOR9202
012024041502PETR4       010PETROBRAS   PN      N2   R$  000000000389400000000039450000000003863000000000391600000000039310000000003930000000000393152956000000000028692000000000112380763900000000000000009999123100000010000000000000BRPETRACNPR6210
012024041502RCSL4       010RECRUSUL    PN           R$  000000000006500000000000650000000000060000000000006100000000000610000000000060000000000006101193000000000002108900000000000129530400000000000000009999123100000010000000000000BRRCSLACNPR1133
012024041502RDNI3       010RNI         ON      NM   R$  000000000036500000000003670000000000354000000000036200000000003620000000000356000000000036400024000000000000008900000000000003226800000000000000009999123100000010000000000000BRRDNIACNOR9116
012024041502RDOR3       010REDE D OR   ON      NM   R$  000000000243000000000024300000000002384000000000240900000000023970000000002396000000000240018800000000000007542400000000018174539000000000000000009999123100000010000000000000BRRDORACNOR8112
012024041502RECV3       010PETRORECSA  ON      NM   R$  000000000216300000000021640000000002073000000000211000000000021100000000002110000000000212116381000000000004577800000000009659236000000000000000009999123100000010000000000000BRRECVACNOR3105
012024041502REDE3       010REDE ENERGIAON           R$  000000000069500000000007050000000000686000000000069300000000006860000000000690000000000069400023000000000000003200000000000002218200000000000000009999123100000010000000000000BRREDEACNOR7127
012024041502RENT3       010LOCALIZA    ON      NM   R$  000000000518100000000051900000000005058000000000509300000000050580000000005057000000000507933423000000000009887300000000050359902300000000000000009999123100000010000000000000BRRENTACNOR4195
012024041502TASA3       010TAURUS ARMASON      N2   R$  000000000133300000000013330000000001298000000000131400000000012990000000001298000000000130300097000000000000027800000000000036555600000000000000009999123100000010000000000000BRTASAACNOR7103
012024041502TASA4       010TAURUS ARMASPN      N2   R$  000000000127800000000012790000000001245000000000125300000000012450000000001245000000000125002275000000000000590400000000000740197800000000000000009999123100000010000000000000BRTASAACNPR4103
012024041502TCSA3       010TECNISA     ON      NM   R$  000000000026300000000002630000000000257000000000025900000000002590000000000259000000000026000222000000000000115300000000000029930900000000000000009999123100000010000000000000BRTCSAACNOR3112
012024041502PFRM3       010PROFARMA    ON      NM   R$  000000000053100000000005440000000000526000000000053700000000005440000000000542000000000054400680000000000000178800000000000096071300000000000000009999123100000010000000000000BRPFRMACNOR1116
012024041502PGMN3       010PAGUE MENOS ON      NM   R$  000000000026000000000002610000000000245000000000025200000000002500000000000248000000000025002637000000000000947200000000000239329600000000000000009999123100000010000000000000BRPGMNACNOR8103
012024041502RPAD5       010ALFA HOLDINGPNA          R$  000000000083500000000008350000000000835000000000083500000000008350000000000800000000000083500001000000000000000100000000000000083500000000000000009999123100000010000000000000BRRPADACNPA4218
012024041502RRRP3       0103R PETROLEUMON      NM   R$  000000000350500000000035140000000003444000000000347600000000034680000000003468000000000346912726000000000004151100000000014431158700000000000000009999123100000010000000000000BRRRRPACNOR5102
012024041502UNIP3       010UNIPAR      ON           R$  000000000602600000000060260000000005990000000000599600000000059900000000005990000000000600500096000000000000014000000000000083953400000000000000009999123100000010000000000000BRUNIPACNOR7205
012024041502TECN3       010TECHNOS     ON      NM   R$  000000000044500000000004460000000000426000000000043400000000004260000000000426000000000043200374000000000000107700000000000046803600000000000000009999123100000010000000000000BRTECNACNOR6109
012024041502TELB3       010TELEBRAS    ON           R$  000000000135500000000013550000000001350000000000135000000000013500000000001339000000000137500003000000000000001200000000000001621000000000000000009999123100000010000000000000BRTELBACNOR2140
012024041502TELB4       010TELEBRAS    PN           R$  000000000099300000000009930000000000970000000000097900000000009700000000000968000000000098800034000000000000011800000000000011561700000000000000009999123100000010000000000000BRTELBACNPR9140
012024041502TEND3       010TENDA       ON      NM   R$  000000000121000000000012180000000001107000000000115400000000011410000000001141000000000114907434000000000003295100000000003803166800000000000000009999123100000010000000000000BRTENDACNOR4111
012024041502TFCO4       010TRACK FIELD PN      N2   R$  000000000116800000000011680000000001137000000000114700000000011500000000001148000000000115100729000000000000229000000000000262720300000000000000009999123100000010000000000000BRTFCOACNPR8112
012024041502TGMA3       010TEGMA       ON  EDJ NM   R$  000000000250900000000025140000000002458000000000248800000000025020000000002483000000000250201508000000000000247200000000000615232600000000000000009999123100000010000000000000BRTGMAACNOR7144
012024041502TIMS3       010TIM         ON  ED  NM   R$  000000000172300000000017410000000001712000000000173300000000017370000000001730000000000173716664000000000016420400000000028471091500000000000000009999123100000010000000000000BRTIMSACNOR5116
012024041502UNIP6       010UNIPAR      PNB          R$  000000000632100000000063300000000006206000000000625500000000062210000000006220000000000622201406000000000000216500000000001354271100000000000000009999123100000010000000000000BRUNIPACNPB8205
012024041502USIM3       010USIMINAS    ON      N1   R$  000000000094800000000009680000000000942000000000095600000000009500000000000948000000000095001267000000000001240400000000001186738500000000000000009999123100000010000000000000BRUSIMACNOR3166
012024041502USIM5       010USIMINAS    PNA     N1   R$  000000000102700000000010460000000001006000000000102500000000010220000000001022000000000102317802000000000012315800000000012631242400000000000000009999123100000010000000000000BRUSIMACNPA6168
012024041502VLID3       010VALID       ON      NM   R$  000000000172400000000017520000000001708000000000172500000000017360000000001727000000000173603116000000000000457100000000000788942100000000000000009999123100000010000000000000BRVLIDACNOR5141
012024041502TOTS3       010TOTVS       ON      NM   R$  000000000272200000000027310000000002680000000000269600000000026900000000002686000000000269414336000000000003627700000000009782804800000000000000009999123100000010000000000000BRTOTSACNOR8144
012024041502VAMO3       010VAMOS       ON      NM   R$  000000000081200000000008140000000000750000000000076500000000007580000000000757000000000075823820000000000010745000000000008230213200000000000000009999123100000010000000000000BRVAMOACNOR7105
012024041502VBBR3       010VIBRA       ON      NM   R$  000000000248100000000025340000000002468000000000249400000000024750000000002475000000000247628505000000000010181500000000025393058100000000000000009999123100000010000000000000BRVBBRACNOR1106
012024041502LREN3       010LOJAS RENNERON      NM   R$  000000000160800000000016380000000001579000000000160400000000015860000000001585000000000158940931000000000016827700000000027008200900000000000000009999123100000010000000000000BRLRENACNOR1220
012024041502MTRE3       010MITRE REALTYON      NM   R$  000000000046800000000004840000000000451000000000046800000000004550000000000455000000000045804517000000000002746600000000001286942100000000000000009999123100000010000000000000BRMTREACNOR6109
012024041502MTSA4       010METISA      PN           R$  000000000489900000000048990000000004711000000000477900000000047490000000004707000000000475000043000000000000004800000000000022941300000000000000009999123100000010000000000000BRMTSAACNPR9071
012024041502MULT3       010MULTIPLAN   ON  EJ  N2   R$  000000000246000000000024690000000002391000000000241100000000024200000000002420000000000242131477000000000010080600000000024310828900000000000000009999123100000010000000000000BRMULTACNOR5138
012024041502MWET4       010WETZEL S/A  PN           R$  000000000052500000000005250000000000500000000000051900000000005230000000000523000000000052800046000000000000013700000000000007111100000000000000009999123100000010000000000000BRMWETACNPR3118
012024041502B3SA3       010B3          ON      NM   R$  000000000117200000000011770000000001134000000000114700000000011480000000001147000000000114965035000000000051176300000000058747232000000000000000009999123100000010000000000000BRB3SAACNOR6132
012024041502VSTE3       010VESTE       ON      NM   R$  000000000160000000000016000000000001514000000000154000000000015160000000001500000000000151600030000000000000004000000000000006162900000000000000009999123100000010000000000000BRVSTEACNOR5102
012024041502VULC3       010VULCABRAS   ON      NM   R$  000000000164500000000016480000000001586000000000160700000000016080000000001606000000000160810980000000000002083500000000003348549100000000000000009999123100000010000000000000BRVULCACNOR2158
012024041502VVEO3       010VIVEO       ON      NM   R$  000000000068400000000006840000000000640000000000065000000000006500000000000648000000000065104590000000000001320300000000000858785600000000000000009999123100000010000000000000BRVVEOACNOR0103
012024041502MYPK3       010IOCHP-MAXIONON      NM   R$  000000000133100000000013350000000001299000000000131600000000013110000000001308000000000131105874000000000001154500000000001520036400000000000000009999123100000010000000000000BRMYPKACNOR7154
012024041502RANI3       010IRANI       ON      NM   R$  000000000093300000000009340000000000914000000000092100000000009180000000000917000000000092102935000000000000809500000000000745846200000000000000009999123100000010000000000000BRRANIACNOR5070
012024041502RAPT3       010RANDON PART ON      N1   R$  000000000108700000000010930000000001072000000000108000000000010720000000001072000000000107500082000000000000013400000000000014484400000000000000009999123100000010000000000000BRRAPTACNOR7162
012024041502RAPT4       010RANDON PART PN      N1   R$  000000000131000000000013300000000001295000000000130800000000013090000000001308000000000131207113000000000002341500000000003064891900000000000000009999123100000010000000000000BRRAPTACNPR4162
012024041502WEGE3       010WEG         ON      NM   R$  000000000379800000000038100000000003747000000000378000000000037640000000003761000000000376419307000000000004838200000000018290229400000000000000009999123100000010000000000000BRWEGEACNOR0222
012024041502MEAL3       010IMC S/A     ON      NM   R$  000000000016400000000001640000000000153000000000015600000000001540000000000153000000000015502564000000000002193700000000000342747300000000000000009999123100000010000000000000BRMEALACNOR9105
012024041502MELK3       010MELNICK     ON      NM   R$  000000000048300000000004830000000000466000000000048000000000004730000000000471000000000047400890000000000004381800000000002105698400000000000000009999123100000010000000000000BRMELKACNOR8110
012024041502MERC4       010MERC FINANC PN           R$  000000000077100000000007710000000000771000000000077100000000007710000000000751000000000079000001000000000000000100000000000000077100000000000000009999123100000010000000000000BRMERCACNPR9180
012024041502SYNE3       010SYN PROP TECON      NM   R$  000000000086100000000008660000000000840000000000085000000000008500000000000847000000000085001122000000000000391200000000000332794300000000000000009999123100000010000000000000BRSYNEACNOR2102
012024041502MGEL4       010MANGELS INDLPN           R$  000000000177700000000018950000000001777000000000187500000000018770000000001755000000000187700009000000000000001500000000000002813900000000000000009999123100000010000000000000BRMGELACNPR3147
012024041502MGLU3       010MAGAZ LUIZA ON      NM   R$  000000000016600000000001660000000000152000000000015600000000001530000000000152000000000015359021000000000183451500000000028749942100000000000000009999123100000010000000000000BRMGLUACNOR2123
012024041502ODPV3       010ODONTOPREV  ON  ED  NM   R$  000000000109000000000010920000000001068000000000107900000000010770000000001076000000000108005720000000000002103500000000002270663200000000000000009999123100000010000000000000BRODPVACNOR4200
012024041502OFSA3       010OUROFINO S/AON      NM   R$  000000000229200000000022950000000002265000000000228700000000022650000000002265000000000229500011000000000000004400000000000010064800000000000000009999123100000010000000000000BROFSAACNOR7117
012024041502TAEE11      010TAESA       UNT     N2   R$  000000000358400000000035940000000003561000000000357500000000035820000000003582000000000358310668000000000001926600000000006889078100000000000000009999123100000010000000000000BRTAEECDAM10145
012024041502TAEE3       010TAESA       ON      N2   R$  000000000119100000000011980000000001180000000000118500000000011880000000001186000000000118900643000000000000094200000000000111668800000000000000009999123100000010000000000000BRTAEEACNOR9145
012024041502TAEE4       010TAESA       PN      N2   R$  000000000120000000000012030000000001192000000000119600000000011960000000001196000000000119800948000000000000236800000000000283339600000000000000009999123100000010000000000000BRTAEEACNPR6145
012024041502CGRA3       010GRAZZIOTIN  ON           R$  000000000271900000000027200000000002600000000000262900000000026140000000002606000000000268000045000000000000006500000000000017092400000000000000009999123100000010000000000000BRCGRAACNOR2081
012024041502CGRA4       010GRAZZIOTIN  PN           R$  000000000282200000000028220000000002691000000000273600000000027050000000002701000000000273900063000000000000008600000000000023532900000000000000009999123100000010000000000000BRCGRAACNPR9081
012024041502CIEL3       010CIELO       ON      NM   R$  000000000054700000000005470000000000539000000000054400000000005460000000000545000000000054624416000000000018223100000000009920397700000000000000009999123100000010000000000000BRCIELACNOR3157
012024041502CLSA3       010CLEARSALE   ON      NM   R$  000000000067800000000007050000000000666000000000068500000000007000000000000696000000000070004419000000000002335100000000001600068800000000000000009999123100000010000000000000BRCLSAACNOR0100
012024041502CLSC4       010CELESC      PN      N2   R$  000000000670100000000067740000000006664000000000673500000000067740000000006651000000000678900038000000000000003900000000000026269100000000000000009999123100000010000000000000BRCLSCACNPR3129
012024041502CMIG3       010CEMIG       ON      N1   R$  000000000148800000000015040000000001468000000000149000000000015040000000001493000000000150400953000000000000231400000000000344890200000000000000009999123100000010000000000000BRCMIGACNOR6240
012024041502CMIG4       010CEMIG       PN      N1   R$  000000000128500000000012990000000001261000000000128500000000012970000000001293000000000129828188000000000015906200000000020445795900000000000000009999123100000010000000000000BRCMIGACNPR3241
012024041502ONCO3       010ONCOCLINICASON      NM   R$  000000000078800000000007930000000000767000000000077400000000007670000000000767000000000076809428000000000003935100000000003047847500000000000000009999123100000010000000000000BRONCOACNOR6100
012024041502OPCT3       010OCEANPACT   ON      NM   R$  000000000059800000000005980000000000579000000000058400000000005830000000000580000000000058301998000000000000878200000000000513571400000000000000009999123100000010000000000000BROPCTACNOR0100
012024041502ORVR3       010ORIZON      ON      NM   R$  000000000367700000000036780000000003560000000000360500000000035850000000003583000000000358502356000000000000521100000000001878865700000000000000009999123100000010000000000000BRORVRACNOR0101
012024041502JHSF3       010JHSF PART   ON      NM   R$  000000000042100000000004220000000000403000000000041200000000004080000000000407000000000040807133000000000004677900000000001931410100000000000000009999123100000010000000000000BRJHSFACNOR2134
012024041502RAIL3       010RUMO S.A.   ON      NM   R$  000000000223000000000022410000000002153000000000217500000000021670000000002165000000000216732530000000000015579400000000033898168600000000000000009999123100000010000000000000BRRAILACNOR9104
012024041502RAIZ4       010RAIZEN      PN      N2   R$  000000000031100000000003110000000000300000000000030200000000003000000000000300000000000030118296000000000023803700000000007196345600000000000000009999123100000010000000000000BRRAIZACNPR6110
012024041502PCAR3       010P.ACUCAR-CBDON      NM   R$  000000000025300000000002530000000000243000000000024800000000002480000000000247000000000024811413000000000012013900000000002981397200000000000000009999123100000010000000000000BRPCARACNOR3167
012024041502PETZ3       010PETZ        ON      NM   R$  000000000036200000000003660000000000353000000000035800000000003590000000000359000000000036010693000000000014693900000000005268878900000000000000009999123100000010000000000000BRPETZACNOR2109
012024041502SRNA3       010SERENA      ON      NM   R$  000000000086000000000008630000000000842000000000085100000000008500000000000850000000000085407555000000000002572200000000002189605400000000000000009999123100000010000000000000BRSRNAACNOR4100
012024041502STBP3       010SANTOS BRP  ON      NM   R$  000000000127900000000013120000000001271000000000128700000000012880000000001286000000000129019498000000000008726500000000011231221200000000000000009999123100000010000000000000BRSTBPACNOR3129
012024041502SUZB3       010SUZANO S.A. ON      NM   R$  000000000612000000000061800000000006040000000000612100000000061050000000006100000000000610531593000000000007938000000000048589107900000000000000009999123100000010000000000000BRSUZBACNOR0129
012024041502ROMI3       010ROMI        ON      NM   R$  000000000121500000000012150000000001188000000000119600000000011900000000001189000000000119401531000000000000292500000000000350046700000000000000009999123100000010000000000000BRROMIACNOR8194
012024041502TPIS3       010TRIUNFO PARTON      NM   R$  000000000039000000000003900000000000380000000000038300000000003880000000000388000000000038900094000000000000049900000000000019158500000000000000009999123100000010000000000000BRTPISACNOR8118
012024041502TRAD3       010TC          ON      NM   R$  000000000008400000000000850000000000078000000000008000000000000780000000000078000000000007900265000000000000574300000000000046185000000000000000009999123100000010000000000000BRTRADACNOR3101
012024041502FRAS3       010FRAS-LE     ON      N1   R$  000000000176300000000017630000000001709000000000172700000000017250000000001725000000000173302560000000000000421300000000000727638400000000000000009999123100000010000000000000BRFRASACNOR0158
012024041502TRIS3       010TRISUL      ON      NM   R$  000000000049200000000004940000000000452000000000046600000000004530000000000453000000000045802464000000000001582200000000000737371900000000000000009999123100000010000000000000BRTRISACNOR4116
012024041502TRPL3       010TRAN PAULISTON      N1   R$  000000000339400000000033940000000003352000000000336300000000033780000000003330000000000337900015000000000000002800000000000009417700000000000000009999123100000010000000000000BRTRPLACNOR4185
012024041502TRPL4       010TRAN PAULISTPN      N1   R$  000000000260000000000026640000000002591000000000264000000000026640000000002654000000000266415751000000000003338900000000008816432800000000000000009999123100000010000000000000BRTRPLACNPR1185
012024041502TTEN3       0103TENTOS     ON      NM   R$  000000000102100000000010210000000000990000000000099900000000009960000000000995000000000099705845000000000001294000000000001293603800000000000000009999123100000010000000000000BRTTENACNOR0103
012024041502TUPY3       010TUPY        ON      NM   R$  000000000273000000000027430000000002705000000000271800000000027150000000002709000000000271503979000000000001039000000000002824260900000000000000009999123100000010000000000000BRTUPYACNOR1183
012024041502UCAS3       010UNICASA     ON      NM   R$  000000000025000000000002500000000000239000000000024300000000002470000000000240000000000024700164000000000000093000000000000022690000000000000000009999123100000010000000000000BRUCASACNOR1113
012024041502UGPA3       010ULTRAPAR    ON      NM   R$  000000000269000000000027160000000002665000000000269200000000026910000000002690000000000269613582000000000003511200000000009454993500000000000000009999123100000010000000000000BRUGPAACNOR8155
012024041502VITT3       010VITTIA      ON  EB  NM   R$  000000000059600000000005960000000000555000000000056400000000005620000000000561000000000057002819000000000001047100000000000590657200000000000000009999123100000010000000000000BRVITTACNOR4107
012024041502VIVA3       010VIVARA S.A. ON      NM   R$  000000000227200000000022750000000002162000000000219600000000021930000000002192000000000219319420000000000007782900000000017093259400000000000000009999123100000010000000000000BRVIVAACNOR0106
012024041502VIVR3       010VIVER       ON      NM   R$  000000000030100000000003010000000000291000000000029400000000002910000000000291000000000029400113000000000000085300000000000025107300000000000000009999123100000010000000000000BRVIVRACNOR4122
012024041502VIVT3       010TELEF BRASILON  ER       R$  000000000490200000000049280000000004853000000000488500000000048810000000004880000000000488112589000000000002138800000000010448238800000000000000009999123100000010000000000000BRVIVTACNOR0180
012024041502LUPA3       010LUPATECH    ON      NM   R$  000000000016400000000001640000000000157000000000016000000000001580000000000157000000000015801007000000000000270800000000000043441900000000000000009999123100000010000000000000BRLUPAACNOR8112
012024041502LVTC3       010WDC NETWORKSON      NM   R$  000000000038500000000003850000000000378000000000038100000000003830000000000379000000000038400032000000000000008800000000000003360000000000000000009999123100000010000000000000BRLVTCACNOR4102
012024041502LWSA3       010LWSA        ON      NM   R$  000000000052100000000005250000000000507000000000051200000000005070000000000507000000000050915892000000000007209400000000003698121900000000000000009999123100000010000000000000BRLWSAACNOR8103
012024041502MAPT3       010CEMEPE      ON           R$  000000000079500000000008000000000000700000000000078200000000007000000000000700000000000079300017000000000000002000000000000001564000000000000000009999123100000010000000000000BRMAPTACNOR8106
012024041502MAPT4       010CEMEPE      PN           R$  000000000059000000000009500000000000590000000000078800000000007560000000000756000000000080000074000000000000011000000000000008675400000000000000009999123100000010000000000000BRMAPTACNPR5106
012024041502MATD3       010MATER DEI   ON      NM   R$  000000000058100000000005810000000000540000000000054900000000005400000000000540000000000055201939000000000000635000000000000348616500000000000000009999123100000010000000000000BRMATDACNOR4103
012024041502MBLY3       010MOBLY       ON      NM   R$  000000000021800000000002220000000000209000000000021300000000002090000000000208000000000021000993000000000000900300000000000192069300000000000000009999123100000010000000000000BRMBLYACNOR5100
012024041502MDIA3       010M.DIASBRANCOON      NM   R$  000000000349300000000034940000000003394000000000342700000000034400000000003435000000000345008602000000000002267400000000007771837300000000000000009999123100000010000000000000BRMDIAACNOR7134
012024041502MDNE3       010MOURA DUBEUXON      NM   R$  000000000124600000000012460000000001179000000000120000000000011810000000001181000000000118803148000000000000629600000000000755616100000000000000009999123100000010000000000000BRMDNEACNOR9100
012024041502NEOE3       010NEOENERGIA  ON      NM   R$  000000000203800000000020810000000001991000000000203500000000020350000000002034000000000203515475000000000004289700000000008731108100000000000000009999123100000010000000000000BRNEOEACNOR3121
012024041502NGRD3       010NEOGRID     ON      NM   R$  000000000010300000000001040000000000100000000000010100000000001000000000000100000000000010100630000000000000692700000000000070393400000000000000009999123100000010000000000000BRNGRDACNOR3103
012024041502NINJ3       010GETNINJAS   ON      NM   R$  000000000051600000000005170000000000512000000000051300000000005120000000000512000000000051400032000000000000007800000000000004006800000000000000009999123100000010000000000000BRNINJACNOR5101
012024041502NORD3       010NORDON MET  ON           R$  000000000074000000000008500000000000740000000000083400000000008500000000000851000000000094500008000000000000001800000000000001502300000000000000009999123100000010000000000000BRNORDACNOR7135
012024041502NTCO3       010GRUPO NATURAON  EJ  NM   R$  000000000168600000000017010000000001651000000000168000000000016860000000001686000000000168921224000000000007877900000000013240625600000000000000009999123100000010000000000000BRNTCOACNOR5106
012024041502RCSL3       010RECRUSUL    ON           R$  000000000016200000000001620000000000154000000000015600000000001580000000000157000000000015801207000000000000988400000000000154784600000000000000009999123100000010000000000000BRRCSLACNOR4133
012024041502CPFE3       010CPFL ENERGIAON      NM   R$  000000000351200000000035250000000003479000000000350100000000035150000000003515000000000351612849000000000002341300000000008198574200000000000000009999123100000010000000000000BRCPFEACNOR0136
012024041502BBSE3       010BBSEGURIDADEON      NM   R$  000000000330000000000033270000000003285000000000330600000000033010000000003301000000000330418503000000000004548000000000015036178300000000000000009999123100000010000000000000BRBBSEACNOR5124
012024041502CEBR3       010CEB         ON           R$  000000000216200000000021690000000002142000000000215400000000021690000000002153000000000216900025000000000000004700000000000010125100000000000000009999123100000010000000000000BRCEBRACNOR5124
012024041502CEBR5       010CEB         PNA          R$  000000000199100000000020790000000001990000000000205800000000020780000000002012000000000207800015000000000000004200000000000008643700000000000000009999123100000010000000000000BRCEBRACNPA8123
012024041502CEBR6       010CEB         PNB          R$  000000000218400000000023000000000002173000000000223200000000022500000000002183000000000227700113000000000000017400000000000038853500000000000000009999123100000010000000000000BRCEBRACNPB6123
012024041502CEDO4       010CEDRO       PN      N1   R$  000000000275000000000027500000000002725000000000274300000000027250000000002600000000000272500010000000000000002000000000000005487500000000000000009999123100000010000000000000BRCEDOACNPR5128
012024041502CEEB3       010COELBA      ON           R$  000000000393000000000039750000000003930000000000395500000000039750000000003875000000000398900005000000000000000700000000000002768500000000000000009999123100000010000000000000BRCEEBACNOR3197
012024041502CGAS5       010COMGAS      PNA          R$  000000001150100000000115200000000011389000000001147400000000113890000000011250000000001149800006000000000000000800000000000009179900000000000000009999123100000010000000000000BRCGASACNPA3160
012024041502ENGI4       010ENERGISA    PN      N2   R$  000000000079800000000007980000000000776000000000078400000000007760000000000775000000000077700094000000000000024100000000000018914500000000000000009999123100000010000000000000BRENGIACNPR7141
012024041502ENJU3       010ENJOEI      ON      NM   R$  000000000018700000000001940000000000183000000000018600000000001830000000000183000000000018500723000000000000446300000000000083115200000000000000009999123100000010000000000000BRENJUACNOR9100
012024041502ENMT3       010ENERGISA MT ON           R$  000000000733500000000074490000000007220000000000728100000000072200000000006501000000000729000032000000000000003700000000000026940900000000000000009999123100000010000000000000BRENMTACNOR5120
012024041502ENMT4       010ENERGISA MT PN           R$  000000000800000000000080000000000008000000000000800000000000080000000000000000000000000800000001000000000000000100000000000000800000000000000000009999123100000010000000000000BRENMTACNPR2125
012024041502HYPE3       010HYPERA      ON      NM   R$  000000000300000000000030150000000002930000000000296600000000029380000000002938000000000294714639000000000004138000000000012274738400000000000000009999123100000010000000000000BRHYPEACNOR0139
012024041502BHIA3       010CASAS BAHIA ON      NM   R$  000000000068500000000006940000000000652000000000066800000000006610000000000660000000000066208096000000000004625600000000003093047900000000000000009999123100000010000000000000BRBHIAACNOR1101
012024041502BRBI11      010BR PARTNERS UNT     N2   R$  000000000155500000000015960000000001528000000000156300000000015540000000001553000000000156602104000000000000364600000000000569941500000000000000009999123100000010000000000000BRBRBICDAM10108
012024041502BRFS3       010BRF SA      ON      NM   R$  000000000168900000000018100000000001688000000000177100000000017900000000001789000000000179042971000000000024347800000000043130364000000000000000009999123100000010000000000000BRBRFSACNOR8121
012024041502CSED3       010CRUZEIRO EDUON      NM   R$  000000000041200000000004120000000000377000000000038900000000003790000000000378000000000038001447000000000000660400000000000257390200000000000000009999123100000010000000000000BRCSEDACNOR9104
012024041502CSMG3       010COPASA      ON      NM   R$  000000000211600000000021360000000002096000000000212100000000021320000000002132000000000213306161000000000001104800000000002343328300000000000000009999123100000010000000000000BRCSMGACNOR5172
012024041502CSNA3       010SID NACIONALON           R$  000000000144700000000014690000000001431000000000144900000000014390000000001439000000000144016108000000000006885000000000009983129600000000000000009999123100000010000000000000BRCSNAACNOR6260
012024041502AURE3       010AUREN       ON      NM   R$  000000000119300000000012000000000001176000000000118600000000011830000000001182000000000118312004000000000007131500000000008462854800000000000000009999123100000010000000000000BRAUREACNOR9104
012024041502CAML3       010CAMIL       ON      NM   R$  000000000084600000000008500000000000810000000000082200000000008170000000000816000000000081804056000000000000978900000000000805202000000000000000009999123100000010000000000000BRCAMLACNOR3127
012024041502CASH3       010MELIUZ      ON      NM   R$  000000000044100000000004450000000000428000000000043600000000004350000000000435000000000043609488000000000002629500000000001146633400000000000000009999123100000010000000000000BRCASHACNOR8106
012024041502CBAV3       010CBA         ON      NM   R$  000000000048000000000005130000000000473000000000049500000000004800000000000479000000000048011149000000000008052800000000003991221700000000000000009999123100000010000000000000BRCBAVACNOR5104
012024041502CBEE3       010AMPLA ENERG ON           R$  000000000118000000000011800000000001180000000000118000000000011800000000001000000000000148400001000000000000000100000000000000118000000000000000009999123100000010000000000000BRCBEEACNOR3159
012024041502BOBR4       010BOMBRIL     PN           R$  000000000021400000000002200000000000210000000000021600000000002190000000000214000000000021900196000000000000029300000000000006357500000000000000009999123100000010000000000000BRBOBRACNPR3128
012024041502BRIT3       010BRISANET    ON      NM   R$  000000000040700000000004090000000000379000000000039000000000003850000000000385000000000038802314000000000000732400000000000285742100000000000000009999123100000010000000000000BRBRITACNOR0102
012024041502BRKM3       010BRASKEM     ON      N1   R$  000000000229100000000022910000000002229000000000227200000000022290000000002229000000000228700029000000000000005600000000000012728700000000000000009999123100000010000000000000BRBRKMACNOR1119
012024041502BRKM5       010BRASKEM     PNA     N1   R$  000000000236000000000023700000000002306000000000233300000000023300000000002329000000000233109168000000000002252500000000005255503000000000000000009999123100000010000000000000BRBRKMACNPA4121
012024041502EPAR3       010EMBPAR S/A  ON           R$  000000000077000000000007700000000000755000000000076200000000007550000000000755000000000076000029000000000000021900000000000016706400000000000000009999123100000010000000000000BREPARACNOR9104
012024041502BMEB3       010MERCANTIL   ON      N1   R$  000000000230000000000023300000000002300000000000230800000000023280000000002100000000000232800004000000000000001400000000000003231400000000000000009999123100000010000000000000BRBMEBACNOR8205
012024041502BMEB4       010MERCANTIL   PN      N1   R$  000000000223300000000023630000000002111000000000226200000000022740000000002198000000000232500131000000000000021300000000000048181800000000000000009999123100000010000000000000BRBMEBACNPR5210
012024041502BMGB4       010BANCO BMG   PN      N1   R$  000000000033400000000003370000000000332000000000033400000000003370000000000336000000000033701288000000000000483700000000000161568500000000000000009999123100000010000000000000BRBMGBACNPR0108
012024041502BMIN4       010MERC INVEST PN           R$  000000000154000000000015400000000001510000000000152900000000015100000000001451000000000153700003000000000000000400000000000000611600000000000000009999123100000010000000000000BRBMINACNPR1176
012024041502BMKS3       010BIC MONARK  ON           R$  000000004230000000000423000000000041500000000004196400000000420000000000040701000000004180000015000000000000000222000000000009316200000000000000009999123100000010000000000000BRBMKSACNOR9165
012024041502BMOB3       010BEMOBI TECH ON      NM   R$  000000000129000000000012900000000001241000000000125600000000012560000000001256000000000126402245000000000000492800000000000619109900000000000000009999123100000010000000000000BRBMOBACNOR7103
012024041502KRSA3       010KORA SAUDE  ON      NM   R$  000000000007300000000000740000000000063000000000006800000000000680000000000067000000000006800926000000000001150800000000000078848400000000000000009999123100000010000000000000BRKRSAACNOR0100
012024041502LAND3       010TERRASANTAPAON      NM   R$  000000000140300000000015000000000001403000000000145100000000014500000000001450000000000145400296000000000000069500000000000100910500000000000000009999123100000010000000000000BRLANDACNOR9102
012024041502LAVV3       010LAVVI       ON      NM   R$  000000000088700000000008870000000000851000000000086700000000008620000000000859000000000086203547000000000001149100000000000997366100000000000000009999123100000010000000000000BRLAVVACNOR4111
012024041502LEVE3       010METAL LEVE  ON      NM   R$  000000000344400000000034440000000003380000000000340800000000034070000000003400000000000340802767000000000000404200000000001377692200000000000000009999123100000010000000000000BRLEVEACNOR2196
012024041502LIPR3       010ELETROPAR   ON           R$  000000000502300000000050230000000005000000000000501300000000050000000000004500000000000518900005000000000000000500000000000002506600000000000000009999123100000010000000000000BRLIPRACNOR7121
012024041502LJQQ3       010QUERO-QUERO ON      NM   R$  000000000051400000000005150000000000477000000000048900000000004850000000000483000000000048509523000000000003043400000000001489425500000000000000009999123100000010000000000000BRLJQQACNOR5104
012024041502LOGG3       010LOG COM PROPON      NM   R$  000000000220500000000022050000000002136000000000216200000000021650000000002165000000000216602386000000000000360100000000000778662500000000000000009999123100000010000000000000BRLOGGACNOR7107
012024041502LOGN3       010LOG-IN      ON      NM   R$  000000000363500000000036820000000003585000000000362000000000036000000000003600000000000362700236000000000000030700000000000111145000000000000000009999123100000010000000000000BRLOGNACNOR3105
012024041502LPSB3       010LOPES BRASILON      NM   R$  000000000020600000000002060000000000195000000000020100000000002040000000000204000000000020500288000000000000140200000000000028240000000000000000009999123100000010000000000000BRLPSBACNOR0113
012024041502ALUP4       010ALUPAR      PN      N2   R$  000000000099200000000009940000000000973000000000098100000000009780000000000976000000000097800280000000000000041200000000000040447600000000000000009999123100000010000000000000BRALUPACNPR5117
012024041502AMAR3       010LOJAS MARISAON      NM   R$  000000000015800000000001620000000000150000000000015700000000001500000000000150000000000015101675000000000000631000000000000099257200000000000000009999123100000010000000000000BRAMARACNOR4114
012024041502AMBP3       010AMBIPAR     ON      NM   R$  000000000122800000000012280000000001121000000000115300000000011240000000001123000000000112405603000000000001945500000000002244352000000000000000009999123100000010000000000000BRAMBPACNOR6103
012024041502ANIM3       010ANIMA       ON      NM   R$  000000000041500000000004190000000000371000000000038600000000003780000000000377000000000037813730000000000013453300000000005205942000000000000000009999123100000010000000000000BRANIMACNOR6107
012024041502APER3       010ALPER S.A.  ON           R$  000000000430000000000044800000000004283000000000442600000000044760000000004476000000000454000028000000000000007000000000000030987100000000000000009999123100000010000000000000BRAPERACNOR9106
012024041502ARML3       010ARMAC       ON      NM   R$  000000000112300000000011230000000001065000000000107900000000010790000000001078000000000107904900000000000000881800000000000951530000000000000000009999123100000010000000000000BRARMLACNOR1111
012024041502ARZZ3       010AREZZO CO   ON      NM   R$  000000000526600000000052900000000005013000000000511900000000050960000000005091000000000510015997000000000003709200000000018988536100000000000000009999123100000010000000000000BRARZZACNOR3146
012024041502BBDC3       010BRADESCO    ON      N1   R$  000000000125700000000012600000000001236000000000124400000000012430000000001242000000000124307946000000000005645900000000007028193700000000000000009999123100000010000000000000BRBBDCACNOR1768
012024041502BBDC4       010BRADESCO    PN      N1   R$  000000000142500000000014290000000001395000000000140400000000014000000000001399000000000140026592000000000030053000000000042214591900000000000000009999123100000010000000000000BRBBDCACNPR8768
012024041502BRSR3       010BANRISUL    ON      N1   R$  000000000130600000000013160000000001265000000000129100000000012650000000001265000000000127800066000000000000009000000000000011622100000000000000009999123100000010000000000000BRBRSRACNOR3186
012024041502BRSR6       010BANRISUL    PNB     N1   R$  000000000131000000000013110000000001273000000000128500000000012740000000001274000000000127907794000000000002507200000000003224173100000000000000009999123100000010000000000000BRBRSRACNPB4189
012024041502BSLI3       010BRB BANCO   ON           R$  000000000095000000000009500000000000924000000000092900000000009250000000000924000000000095700007000000000000001000000000000000929700000000000000009999123100000010000000000000BRBSLIACNOR5192
012024041502BSLI4       010BRB BANCO   PN           R$  000000000096000000000010270000000000960000000000099300000000010270000000000960000000000102700002000000000000000200000000000000198700000000000000009999123100000010000000000000BRBSLIACNPR2192
012024041502CSRN3       010COSERN      ON  ED       R$  000000000244100000000024410000000002441000000000244100000000024410000000002441000000000255500002000000000000000200000000000000488200000000000000009999123100000010000000000000BRCSRNACNOR0192
012024041502CSRN6       010COSERN      PNB ED       R$  000000000229600000000022960000000002296000000000229600000000022960000000002100000000000245000001000000000000000100000000000000229600000000000000009999123100000010000000000000BRCSRNACNPB1193
012024041507NUTR3       010NUTRIPLANT  ON      MA   R$  000000000050600000000005300000000000500000000000051300000000005200000000000510000000000051900062000000000000010800000000000005548300000000000000009999123100000010000000000000BRNUTRACNOR0104
012024041507TXRX4       010TEX RENAUX  PN           R$  000000000022000000000002200000000000220000000000022000000000002200000000000220000000000023600001000000000000000100000000000000022000000000000000009999123100000010000000000000BRTXRXACNPR0142
012024041508HOOT4       010HOTEIS OTHONPN           R$  000000000028700000000002870000000000287000000000028700000000002870000000000281000000000028500001000000000000000100000000000000028700000000000000009999123100000010000000000000BRHOOTACNPR9015
012024041508PMAM3       010PARANAPANEMAON      NM   R$  000000000028600000000002860000000000275000000000027900000000002780000000000277000000000028700138000000000000059200000000000016527800000000000000009999123100000010000000000000BRPMAMACNOR3038
012024041508ATMP3       010ATMASA      ON           R$  000000000022300000000002240000000000201000000000021000000000002010000000000201000000000020600069000000000000025500000000000005380200000000000000009999123100000010000000000000BRATMPACNOR8100
012024041508ETER3       010ETERNIT     ON      NM   R$  000000000073300000000007380000000000709000000000071900000000007200000000000720000000000072300943000000000000264300000000000190089200000000000000009999123100000010000000000000BRETERACNOR3243
012024041508RSID3       010ROSSI RESID ON      NM   R$  000000000040000000000004390000000000381000000000041500000000004280000000000425000000000042900176000000000000151300000000000062829700000000000000009999123100000010000000000000BRRSIDACNOR8120
012024041508RPMG3       010PET MANGUINHON           R$  000000000020500000000002070000000000202000000000020200000000002070000000000202000000000020800016000000000000010600000000000002146100000000000000009999123100000010000000000000BRRPMGACNOR9194
012024041508TEKA3       010TEKA        ON           R$  000000000500000000000050000000000005000000000000500000000000050000000000005000000000000580000003000000000000000300000000000001500000000000000000009999123100000010000000000000BRTEKAACNOR6140
012024041508OIBR3       010OI          ON      N1   R$  000000000006400000000000660000000000063000000000006400000000000660000000000065000000000006601247000000000005963000000000000385215700000000000000009999123100000010000000000000BROIBRACNOR1110
012024041508OIBR4       010OI          PN      N1   R$  000000000018100000000001880000000000180000000000018500000000001860000000000182000000000018600131000000000000081000000000000015003000000000000000009999123100000010000000000000BROIBRACNPR8109
012024041508OSXB3       010OSX BRASIL  ON      NM   R$  000000000041500000000004150000000000411000000000041200000000004150000000000411000000000041500019000000000000005400000000000002226200000000000000009999123100000010000000000000BROSXBACNOR8109
012024041508JFEN3       010JOAO FORTES ON           R$  000000000018100000000001850000000000177000000000017900000000001790000000000178000000000018100034000000000000012300000000000002206300000000000000009999123100000010000000000000BRJFENACNOR0058
012024041508RNEW11      010RENOVA      UNT     N2   R$  000000000032500000000003310000000000320000000000032400000000003300000000000325000000000033000112000000000000014300000000000004647100000000000000009999123100000010000000000000BRRNEWCDAM15110
012024041508RNEW3       010RENOVA      ON      N2   R$  000000000010900000000001100000000000104000000000010800000000001080000000000107000000000010800213000000000000084600000000000009138400000000000000009999123100000010000000000000BRRNEWACNOR8110
012024041508RNEW4       010RENOVA      PN      N2   R$  000000000011000000000001100000000000106000000000010800000000001090000000000108000000000010900243000000000000145000000000000015708800000000000000009999123100000010000000000000BRRNEWACNPR5110
012024041508FRTA3       010POMIFRUTAS  ON      NM   R$  000000000013900000000001420000000000133000000000013400000000001330000000000131000000000013800015000000000000008200000000000001104400000000000000009999123100000010000000000000BRFRTAACNOR8103
012024041508NEXP3       010NEXPE       ON      NM   R$  000000000042900000000004290000000000420000000000042100000000004260000000000421000000000042600012000000000000001800000000000000758200000000000000009999123100000010000000000000BRNEXPACNOR0101
012024041508LIGT3       010LIGHT S/A   ON      NM   R$  000000000050600000000005100000000000496000000000050300000000005100000000000505000000000051005076000000000001467700000000000739507700000000000000009999123100000010000000000000BRLIGTACNOR2124
012024041508AMER3       010AMERICANAS  ON      NM   R$  000000000005300000000000540000000000050000000000005100000000000500000000000050000000000005104888000000000022643200000000001164599400000000000000009999123100000010000000000000BRAMERACNOR6101
012024041510ABCB10      010ABC BRASIL  PN  REC N2   R$  000000000235200000000023520000000002323000000000232800000000023230000000002320000000000245000005000000000000000500000000000001164400000000000000009999123100000010000000000000BRABCBR19PR1144
012024041510BGIP2       010BANESE      DIR PRE      R$  000000000005600000000000560000000000040000000000004800000000000400000000000040000000000007900011000000000000003000000000000000145200000000000000009999123100000010000000000000BRBGIPD07PR0207
012024041510DMFN1       010DMFINANCEIRADIR ORD      R$  000000000003500000000000350000000000026000000000003300000000000280000000000028000000000003500012000000000000002400000000000000079900000000000000009999123100000010000000000000BRDMFND01OR1101
012024041510SEQL11      010SEQUOIA LOG DIR     NM   R$  000000000000100000000000010000000000001000000000000100000000000010000000000000000000000000100113000000000000327400000000000000327400000000000000009999123100000010000000000000BRSEQLD01M19101
012024041510SEQL12      010SEQUOIA LOG DIR     NM   R$  000000000000100000000000020000000000001000000000000100000000000010000000000000000000000000100321000000000001537800000000000001674600000000000000009999123100000010000000000000BRSEQLD02M18101
012024041512GAME11      010FII GUARD MUCI  ER       R$  000000000092900000000009380000000000920000000000092900000000009300000000000927000000000093001292000000000000011520000000000010709557000000000000009999123100000010000000000000BRGAMECTF002130
012024041512GARE11      010FII GUARDIANCI           R$  000000000091400000000009360000000000912000000000092200000000009140000000000913000000000091422091000000000001343040000000001239567918000000000000009999123100000010000000000000BRGARECTF001102
012024041512GCRI11      010FII GLPG CRICI  ER       R$  000000000861700000000086170000000008536000000000856300000000086000000000008544000000000860000580000000000000002338000000000020022438000000000000009999123100000010000000000000BRGCRICTF008142
012024041512KNCR11      010FII KINEA RICI           R$  000000001033800000000103400000000010300000000001032600000000103000000000010300000000001033511288000000000000077100000000000796206511000000000000009999123100000010000000000000BRKNCRCTF000237
012024041512KNHF11      010FII KINEA HFCI           R$  000000001023000000000102430000000010131000000001017400000000101310000000010131000000001018600906000000000000022104000000000224907142000000000000009999123100000010000000000000BRKNHFCTF004109
012024041512KNHY11      010FII KINEA HYCI           R$  000000001069900000000107550000000010677000000001070300000000107450000000010736000000001074505068000000000000034831000000000372804631000000000000009999123100000010000000000000BRKNHYCTF005170
012024041512KNIP11      010FII KINEA IPCI           R$  000000000976500000000097780000000009730000000000975100000000097640000000009764000000000976525402000000000000120267000000001172784947000000000000009999123100000010000000000000BRKNIPCTF001191
012024041512KNRE11      010FII KII REALCI           R$  000000000004500000000000450000000000042000000000004300000000000420000000000042000000000004400043000000000000013190000000000000570900000000000000009999123100000010000000000000BRKNRECTF006129
012024041512KNRI11      010FII KINEA   CI           R$  000000001645100000000164670000000016381000000001643600000000164140000000016414000000001646605202000000000000022574000000000371042144000000000000009999123100000010000000000000BRKNRICTF007262
012024041512KNSC11      010FII KINEA SCCI           R$  000000000091900000000009250000000000915000000000092100000000009240000000000922000000000092409391000000000000257669000000000237330330000000000000009999123100000010000000000000BRKNSCCTF008145
012024041512KNUQ11      010FII KINEA UNCI           R$  000000001029700000000103000000000010195000000001023300000000102010000000010201000000001024900440000000000000025182000000000257690492000000000000009999123100000010000000000000BRKNUQCTF004110
012024041512HCHG11      010FII HECT CRICI           R$  000000000748800000000076550000000007450000000000746700000000074500000000007450000000000750800916000000000000001376000000000010275932000000000000009999123100000010000000000000BRHCHGCTF001135
012024041512HCRI11      010FII CRIANCA CI  ER       R$  000000002985500000000307790000000029800000000002999300000000300330000000030000000000003003200020000000000000000047000000000001409717000000000000009999123100000010000000000000BRHCRICTF006327
012024041512HCTR11      010FII HECTARE CI  ER       R$  000000000334800000000033580000000003250000000000329500000000033150000000003315000000000331804850000000000000043563000000000143555742000000000000009999123100000010000000000000BRHCTRCTF003168
012024041512HFOF11      010FII HTOPFOF3CI           R$  000000000777800000000077790000000007702000000000771800000000077190000000007711000000000772004672000000000000027197000000000209912565000000000000009999123100000010000000000000BRHFOFCTF002187
012024041512HGBL11      010FII HGBL    CI           R$  000000000103000000000010300000000001030000000000103000000000010300000000000950000000000103000001000000000000000003000000000000003090000000000000009999123100000010000000000000BRHGBLCTF005100
012024041512HGBS11      010FII HEDGEBS CI           R$  000000002295500000000229550000000022739000000002280600000000227520000000022752000000002278007997000000000000026935000000000614290420000000000000009999123100000010000000000000BRHGBSCTF000308
012024041512HGCR11      010FII CSHG CRICI           R$  000000001053900000000105560000000010440000000001049500000000104610000000010461000000001046811633000000000000045564000000000478196565000000000000009999123100000010000000000000BRHGCRCTF000244
012024041512HGFF11      010FII CSHG FOFCI           R$  000000000897000000000090000000000008760000000000886600000000088900000000008889000000000889003150000000000000023899000000000211900672000000000000009999123100000010000000000000BRHGFFCTF008158
012024041512HGIC11      010FII HGI CRI CI  ER       R$  000000001039900000000103990000000010300000000001037500000000103000000000010250000000001039900005000000000000000006000000000000062250000000000000009999123100000010000000000000BRHGICCTF009138
012024041512HGLG11      010FII CSHG LOGCI           R$  000000001676600000000167910000000016503000000001658700000000165240000000016524000000001656015683000000000000082129000000001362303821000000000000009999123100000010000000000000BRHGLGCTF004269
012024041512HGPO11      010FII CSHGPRIMCI           R$  000000003100000000000310000000000030230000000003035700000000304900000000030490000000003050000659000000000000010008000000000303817955000000000000009999123100000010000000000000BRHGPOCTF009159
012024041512HGRE11      010FII HG REAL CI           R$  000000001290000000000129820000000012854000000001290300000000128800000000012880000000001289905860000000000000019091000000000246343242000000000000009999123100000010000000000000BRHGRECTF006290
012024041512HGRU11      010FII CSHG URBCI           R$  000000001349800000000135400000000013351000000001347200000000133920000000013392000000001339505241000000000000023391000000000315135248000000000000009999123100000010000000000000BRHGRUCTF002174
012024041512HLOG11      010FII HEDGELOGCI           R$  000000000831000000000083800000000008307000000000834100000000083800000000008350000000000838000087000000000000001209000000000010084767000000000000009999123100000010000000000000BRHLOGCTF008154
012024041512HOFC11      010FII HOFFICEICI           R$  000000000330000000000033000000000003258000000000326200000000032650000000003263000000000327000168000000000000016587000000000054114735000000000000009999123100000010000000000000BRHOFCCTF009114
012024041512HOSI11      010FII HOUSI   CI           R$  000000000904600000000090480000000008829000000000884700000000088290000000008829000000000894900024000000000000000200000000000001769541000000000000009999123100000010000000000000BRHOSICTF009143
012024041512HPDP11      010FII HEDGEPDPCI           R$  000000000873300000000087340000000008685000000000870200000000086850000000008685000000000873300005000000000000000012000000000000104435000000000000009999123100000010000000000000BRHPDPCTF003150
012024041512HRDF11      010FII HREALTY CI           R$  000000000037900000000003950000000000379000000000038300000000003950000000000379000000000039600017000000000000000123000000000000047192000000000000009999123100000010000000000000BRHRDFCTF000103
012024041512HREC11      010FII HEDGERECCI           R$  000000000087100000000008790000000000871000000000087600000000008780000000000877000000000087800134000000000000019321000000000016934849000000000000009999123100000010000000000000BRHRECCTF005147
012024041512HSAF11      010FII HSI CRI CI           R$  000000000886100000000089640000000008850000000000890200000000088500000000008850000000000889501541000000000000012158000000000108241864000000000000009999123100000010000000000000BRHSAFCTF004145
012024041512HSLG11      010FII HSI LOG CI           R$  000000000962000000000096510000000009549000000000959000000000095500000000009550000000000957900818000000000000008411000000000080668678000000000000009999123100000010000000000000BRHSLGCTF009140
