00COTAHIST.2024BOVESPA 20240510                                                                                                                                                                                                                      
012024051002CIEL3       010CIELO       ON      NM   R$  000000000055800000000005590000000000556000000000055700000000005580000000000557000000000055910414000000000023134700000000012902730000000000000000009999123100000010000000000000BRCIELACNOR3157
012024051002CLSA3       010CLEARSALE   ON      NM   R$  000000000078500000000007910000000000751000000000076900000000007610000000000759000000000076102459000000000000816200000000000628027500000000000000009999123100000010000000000000BRCLSAACNOR0100
012024051002CLSC3       010CELESC      ON  ED  N2   R$  000000000680000000000068000000000006550000000000661000000000065500000000005801000000000680000004000000000000000500000000000003305100000000000000009999123100000010000000000000BRCLSCACNOR6151
012024051002CLSC4       010CELESC      PN  ED  N2   R$  000000000713300000000072350000000007027000000000717600000000072000000000007032000000000720000018000000000000001800000000000012917400000000000000009999123100000010000000000000BRCLSCACNPR3130
012024051002CMIG3       010CEMIG       ON  EDB N1   R$  000000000121200000000012280000000001212000000000121800000000012160000000001215000000000122300903000000000000285100000000000347477100000000000000009999123100000010000000000000BRCMIGACNOR6241
012024051002CMIG4       010CEMIG       PN  EDB N1   R$  000000000103100000000010330000000001008000000000101600000000010130000000001012000000000101412193000000000012130800000000012327844400000000000000009999123100000010000000000000BRCMIGACNPR3242
012024051002FHER3       010FER HERINGERON      NM   R$  000000000049400000000004980000000000491000000000049500000000004980000000000498000000000050000008000000000000002200000000000001089100000000000000009999123100000010000000000000BRFHERACNOR5103
012024051002FIEI3       010FICA        ON           R$  000000000100000000000010900000000001000000000000103100000000010900000000000000000000000108900004000000000000002000000000000002063000000000000000009999123100000010000000000000BRFIEIACNOR2100
012024051002FIQE3       010UNIFIQUE    ON      NM   R$  000000000037000000000003710000000000364000000000036600000000003640000000000363000000000036400486000000000000220100000000000080637500000000000000009999123100000010000000000000BRFIQEACNOR5106
012024051002FLRY3       010FLEURY      ON      NM   R$  000000000149200000000014930000000001429000000000144900000000014450000000001442000000000144506470000000000002524000000000003657329300000000000000009999123100000010000000000000BRFLRYACNOR5138
012024051002FRAS3       010FRAS-LE     ON      N1   R$  000000000179900000000018440000000001777000000000179700000000017990000000001787000000000179901424000000000000384400000000000690933300000000000000009999123100000010000000000000BRFRASACNOR0159
012024051002GEPA4       010GER PARANAP PN  ED       R$  000000000250000000000025000000000002470000000000248500000000024700000000002485000000000249900004000000000000000400000000000000994000000000000000009999123100000010000000000000BRGEPAACNPR9160
012024051002GFSA3       010GAFISA      ON      NM   R$  000000000050000000000005040000000000479000000000048800000000004850000000000481000000000048502077000000000001390000000000000679104800000000000000009999123100000010000000000000BRGFSAACNOR3124
012024051002GGBR3       010GERDAU      ON      N1   R$  000000000174000000000017460000000001704000000000171400000000017050000000001704000000000170500331000000000000072600000000000124484400000000000000009999123100000010000000000000BRGGBRACNOR1191
012024051002GGBR4       010GERDAU      PN      N1   R$  000000000193900000000019410000000001901000000000191400000000019140000000001913000000000191516910000000000008644900000000016547953400000000000000009999123100000010000000000000BRGGBRACNPR8191
012024051002ITUB3       010ITAUUNIBANCOON  EJ  N1   R$  000000000280000000000028490000000002791000000000282800000000028210000000002820000000000282101865000000000000483600000000001367697400000000000000009999123100000010000000000000BRITUBACNOR4335
012024051002ITUB4       010ITAUUNIBANCOPN  EJ  N1   R$  000000000323300000000033020000000003231000000000327700000000032650000000003264000000000326833062000000000023338400000000076484155000000000000000009999123100000010000000000000BRITUBACNPR1335
012024051002SHOW3       010TIME FOR FUNON      NM   R$  000000000020300000000002030000000000184000000000018900000000001870000000000187000000000018800673000000000000685300000000000129906200000000000000009999123100000010000000000000BRSHOWACNOR7105
012024051002SHUL4       010SCHULZ      PN           R$  000000000062100000000006230000000000606000000000061400000000006100000000000609000000000061001150000000000000725900000000000445896600000000000000009999123100000010000000000000BRSHULACNPR4155
012024051002SIMH3       010SIMPAR      ON      NM   R$  000000000063000000000006470000000000613000000000062700000000006160000000000616000000000061708844000000000005720000000000003586616200000000000000009999123100000010000000000000BRSIMHACNOR0107
012024051002SLCE3       010SLC AGRICOLAON  ED  NM   R$  000000000185000000000018650000000001839000000000184800000000018480000000001847000000000184807131000000000001847900000000003416032800000000000000009999123100000010000000000000BRSLCEACNOR2125
012024051002YDUQ3       010YDUQS PART  ON      NM   R$  000000000161200000000016380000000001547000000000157700000000015610000000001558000000000156111323000000000003283000000000005180264300000000000000009999123100000010000000000000BRYDUQACNOR3105
012024051002AALR3       010ALLIAR      ON      NM   R$  000000000102600000000010690000000001004000000000103000000000010380000000001014000000000103800436000000000000068500000000000070573900000000000000009999123100000010000000000000BRAALRACNOR6102
012024051002ABCB4       010ABC BRASIL  PN      N2   R$  000000000221500000000022440000000002174000000000219300000000021910000000002189000000000219106883000000000000942800000000002067998900000000000000009999123100000010000000000000BRABCBACNPR4145
012024051002ABEV3       010AMBEV S/A   ON           R$  000000000120500000000012090000000001195000000000120200000000012040000000001204000000000120531888000000000029029300000000034914751500000000000000009999123100000010000000000000BRABEVACNOR1127
012024051002BLAU3       010BLAU        ON  ED  NM   R$  000000000111300000000011170000000001065000000000108500000000010800000000001075000000000108001253000000000000182500000000000198165200000000000000009999123100000010000000000000BRBLAUACNOR8113
012024051002SAPR11      010SANEPAR     UNT     N2   R$  000000000267500000000027630000000002675000000000273200000000027330000000002729000000000273504394000000000000966500000000002641292100000000000000009999123100000010000000000000BRSAPRCDAM13117
012024051002SAPR3       010SANEPAR     ON      N2   R$  000000000051100000000005220000000000510000000000051600000000005200000000000518000000000052000471000000000000204500000000000105622000000000000000009999123100000010000000000000BRSAPRACNOR9158
012024051002SAPR4       010SANEPAR     PN      N2   R$  000000000054600000000005610000000000545000000000055500000000005540000000000553000000000055401610000000000001006100000000000558442100000000000000009999123100000010000000000000BRSAPRACNPR6158
012024051002SBFG3       010GRUPO SBF   ON      NM   R$  000000000123700000000012550000000001210000000000123300000000012220000000001221000000000123003644000000000001444900000000001781609700000000000000009999123100000010000000000000BRSBFGACNOR1103
012024051002SBSP3       010SABESP      ON      NM   R$  000000000792600000000079340000000007793000000000786700000000078410000000007837000000000784320470000000000005041900000000039668326500000000000000009999123100000010000000000000BRSBSPACNOR5161
012024051002TUPY3       010TUPY        ON      NM   R$  000000000252700000000025420000000002499000000000252100000000025180000000002514000000000251803462000000000000604000000000001523057300000000000000009999123100000010000000000000BRTUPYACNOR1183
012024051002BMEB3       010MERCANTIL   ON      N1   R$  000000000265000000000026500000000002650000000000265000000000026500000000002650000000000268500006000000000000002000000000000005300000000000000000009999123100000010000000000000BRBMEBACNOR8205
012024051002BMEB4       010MERCANTIL   PN      N1   R$  000000000280000000000029000000000002770000000000285200000000028250000000002825000000000286400079000000000000026100000000000074441600000000000000009999123100000010000000000000BRBMEBACNPR5210
012024051002BMGB4       010BANCO BMG   PN      N1   R$  000000000033000000000003330000000000322000000000032600000000003240000000000324000000000032500728000000000000359800000000000117458900000000000000009999123100000010000000000000BRBMGBACNPR0109
012024051002BMKS3       010BIC MONARK  ON  ED       R$  000000003550500000000383970000000035500000000003562200000000364000000000036001000000003700000010000000000000000083000000000002956649000000000000009999123100000010000000000000BRBMKSACNOR9166
012024051002BMOB3       010BEMOBI TECH ON      NM   R$  000000000120600000000012300000000001187000000000121500000000012160000000001211000000000121602768000000000000678300000000000824531800000000000000009999123100000010000000000000BRBMOBACNOR7103
012024051002BOBR4       010BOMBRIL     PN           R$  000000000021900000000002190000000000215000000000021500000000002180000000000215000000000021800024000000000000008300000000000001792700000000000000009999123100000010000000000000BRBOBRACNPR3128
012024051002PINE4       010PINE        PN      N2   R$  000000000045200000000004580000000000448000000000045200000000004480000000000448000000000045100283000000000000143300000000000064811600000000000000009999123100000010000000000000BRPINEACNPR8149
012024051002PLAS3       010PLASCAR PARTON           R$  000000000064000000000006400000000000640000000000064000000000006400000000000625000000000064900001000000000000000300000000000000192000000000000000009999123100000010000000000000BRPLASACNOR2106
012024051002PLPL3       010PLANOEPLANO ON      NM   R$  000000000104800000000010760000000000983000000000103500000000010230000000001020000000000102305775000000000001500800000000001554233200000000000000009999123100000010000000000000BRPLPLACNOR5104
012024051002PNVL3       010DIMED       ON      NM   R$  000000000106500000000010840000000001038000000000105000000000010450000000001045000000000104903125000000000000616600000000000647901200000000000000009999123100000010000000000000BRPNVLACNOR9206
012024051002POMO3       010MARCOPOLO   ON      N2   R$  000000000051500000000005260000000000509000000000051700000000005250000000000515000000000052500977000000000000349300000000000180934600000000000000009999123100000010000000000000BRPOMOACNOR0097
012024051002POMO4       010MARCOPOLO   PN      N2   R$  000000000066700000000006760000000000656000000000066600000000006720000000000670000000000067208831000000000007242600000000004827045000000000000000009999123100000010000000000000BRPOMOACNPR7097
012024051002PORT3       010WILSON SONS ON      NM   R$  000000000164100000000016630000000001635000000000164600000000016380000000001636000000000163803371000000000000937500000000001543597400000000000000009999123100000010000000000000BRPORTACNOR8107
012024051002POSI3       010POSITIVO TECON  ED  NM   R$  000000000096500000000009680000000000914000000000093100000000009150000000000915000000000091802808000000000001122900000000001046276600000000000000009999123100000010000000000000BRPOSIACNOR9116
012024051002RSUL4       010RIOSULENSE  PN           R$  000000000722300000000072890000000007000000000000713500000000070000000000007000000000000739000010000000000000001000000000000007135600000000000000009999123100000010000000000000BRRSULACNPR3114
012024051002SANB11      010SANTANDER BRUNT          R$  000000000286000000000028860000000002850000000000286300000000028500000000002847000000000286206581000000000001986300000000005687752500000000000000009999123100000010000000000000BRSANBCDAM13164
012024051002SANB3       010SANTANDER BRON           R$  000000000133800000000013590000000001338000000000134600000000013440000000001344000000000134800292000000000000068500000000000092227200000000000000009999123100000010000000000000BRSANBACNOR8171
012024051002BGIP4       010BANESE      PN           R$  000000000228600000000022880000000002286000000000228700000000022880000000002225000000000228800002000000000000000200000000000000457400000000000000009999123100000010000000000000BRBGIPACNPR8208
012024051002BRBI11      010BR PARTNERS UNT     N2   R$  000000000149600000000015560000000001495000000000153600000000015390000000001535000000000154001654000000000000351000000000000539308100000000000000009999123100000010000000000000BRBRBICDAM10108
012024051002BRFS3       010BRF SA      ON  ATZ NM   R$  000000000188400000000019060000000001811000000000186400000000018320000000001830000000000183223971000000000019018600000000035451779200000000000000009999123100000010000000000000BRBRFSACNOR8122
012024051002SANB4       010SANTANDER BRPN           R$  000000000151300000000015260000000001506000000000151500000000015060000000001506000000000151900177000000000000043600000000000066058700000000000000009999123100000010000000000000BRSANBACNPR5171
012024051002TFCO4       010TRACK FIELD PN  ED  N2   R$  000000000116900000000011710000000001150000000000116400000000011600000000001160000000000116100252000000000000220300000000000256444100000000000000009999123100000010000000000000BRTFCOACNPR8113
012024051002TGMA3       010TEGMA       ON      NM   R$  000000000258200000000026400000000002530000000000256800000000025620000000002544000000000256301061000000000000213000000000000547134300000000000000009999123100000010000000000000BRTGMAACNOR7144
012024051002TIMS3       010TIM         ON      NM   R$  000000000169800000000016980000000001668000000000168100000000016680000000001667000000000167012123000000000005637700000000009477835800000000000000009999123100000010000000000000BRTIMSACNOR5116
012024051002TOTS3       010TOTVS       ON      NM   R$  000000000284600000000028700000000002796000000000280600000000028000000000002796000000000280006984000000000003006300000000008436287200000000000000009999123100000010000000000000BRTOTSACNOR8144
012024051002TPIS3       010TRIUNFO PARTON      NM   R$  000000000038800000000003880000000000383000000000038700000000003830000000000383000000000038600082000000000000053900000000000020872400000000000000009999123100000010000000000000BRTPISACNOR8118
012024051002UCAS3       010UNICASA     ON      NM   R$  000000000024600000000002470000000000240000000000024300000000002450000000000239000000000024500308000000000000034500000000000008388100000000000000009999123100000010000000000000BRUCASACNOR1113
012024051002UGPA3       010ULTRAPAR    ON      NM   R$  000000000249000000000025030000000002440000000000245800000000024480000000002447000000000244918161000000000007148300000000017576140800000000000000009999123100000010000000000000BRUGPAACNOR8155
012024051002UNIP3       010UNIPAR      ON           R$  000000000530100000000053440000000005202000000000526200000000052260000000005225000000000528000127000000000000018300000000000096305300000000000000009999123100000010000000000000BRUNIPACNOR7206
012024051002UNIP6       010UNIPAR      PNB          R$  000000000531200000000054100000000005194000000000526500000000052000000000005197000000000520401959000000000000303400000000001597470100000000000000009999123100000010000000000000BRUNIPACNPB8206
012024051002USIM3       010USIMINAS    ON      N1   R$  000000000075900000000007600000000000737000000000074500000000007430000000000741000000000074301555000000000000375900000000000280212300000000000000009999123100000010000000000000BRUSIMACNOR3167
012024051002USIM5       010USIMINAS    PNA     N1   R$  000000000080500000000008090000000000792000000000079700000000007960000000000795000000000079612518000000000007288500000000005812305400000000000000009999123100000010000000000000BRUSIMACNPA6169
012024051002TRAD3       010TC          ON      NM   R$  000000000007700000000000770000000000074000000000007400000000000760000000000074000000000007600342000000000000441400000000000032986300000000000000009999123100000010000000000000BRTRADACNOR3101
012024051002TRIS3       010TRISUL      ON  ED  NM   R$  000000000047200000000004900000000000472000000000048000000000004770000000000477000000000048001363000000000000497700000000000239323200000000000000009999123100000010000000000000BRTRISACNOR4118
012024051002TRPL3       010TRAN PAULISTON      N1   R$  000000000338500000000033880000000003347000000000336000000000033500000000003330000000000336700004000000000000001000000000000003360500000000000000009999123100000010000000000000BRTRPLACNOR4185
012024051002TRPL4       010TRAN PAULISTPN      N1   R$  000000000253100000000025530000000002516000000000253400000000025240000000002524000000000253209523000000000002586200000000006556005800000000000000009999123100000010000000000000BRTRPLACNPR1185
012024051002TTEN3       0103TENTOS     ON      NM   R$  000000000103500000000010460000000000993000000000101500000000010100000000001002000000000101006704000000000001371100000000001392101000000000000000009999123100000010000000000000BRTTENACNOR0103
012024051002VLID3       010VALID       ON      NM   R$  000000000169000000000017510000000001666000000000169600000000016800000000001670000000000168103133000000000000932300000000001581942700000000000000009999123100000010000000000000BRVLIDACNOR5142
012024051002VSTE3       010VESTE       ON      NM   R$  000000000133500000000014160000000001333000000000134800000000013720000000001372000000000141000015000000000000001700000000000002292700000000000000009999123100000010000000000000BRVSTEACNOR5103
012024051002VULC3       010VULCABRAS   ON      NM   R$  000000000157500000000016080000000001562000000000157800000000015770000000001571000000000157803201000000000000544800000000000859979300000000000000009999123100000010000000000000BRVULCACNOR2158
012024051002VVEO3       010VIVEO       ON  ED  NM   R$  000000000040700000000004070000000000333000000000035500000000003530000000000352000000000035316498000000000012478500000000004431868900000000000000009999123100000010000000000000BRVVEOACNOR0104
012024051002WEGE3       010WEG         ON      NM   R$  000000000388600000000039110000000003872000000000389100000000038970000000003894000000000389809099000000000003461100000000013467775600000000000000009999123100000010000000000000BRWEGEACNOR0222
012024051002MWET4       010WETZEL S/A  PN           R$  000000000053900000000005390000000000539000000000053900000000005390000000000524000000000054100001000000000000000100000000000000053900000000000000009999123100000010000000000000BRMWETACNPR3118
012024051002MYPK3       010IOCHP-MAXIONON      NM   R$  000000000127400000000012850000000001183000000000121200000000011830000000001183000000000119205010000000000001586400000000001923533600000000000000009999123100000010000000000000BRMYPKACNOR7154
012024051002CXSE3       010CAIXA SEGURION      NM   R$  000000000163000000000016400000000001596000000000160600000000016080000000001608000000000160910562000000000004083000000000006559880600000000000000009999123100000010000000000000BRCXSEACNOR7106
012024051002CYRE3       010CYRELA REALTON      NM   R$  000000000212700000000021760000000002047000000000208800000000020910000000002083000000000209218519000000000005791700000000012097123400000000000000009999123100000010000000000000BRCYREACNOR7140
012024051002GGPS3       010GPS         ON      NM   R$  000000000190900000000019860000000001895000000000195300000000019340000000001933000000000193508448000000000003168400000000006188181200000000000000009999123100000010000000000000BRGGPSACNOR9103
012024051002AERI3       010AERIS       ON      NM   R$  000000000005600000000000560000000000054000000000005500000000000550000000000054000000000005501554000000000001877900000000000103914700000000000000009999123100000010000000000000BRAERIACNOR4101
012024051002AESB3       010AES BRASIL  ON      NM   R$  000000000094500000000009730000000000945000000000095600000000009590000000000957000000000095904909000000000002773200000000002653428400000000000000009999123100000010000000000000BRAESBACNOR7106
012024051002ZAMP3       010ZAMP S.A.   ON           R$  000000000033600000000003450000000000330000000000033400000000003350000000000333000000000033603607000000000000845000000000000282914500000000000000009999123100000010000000000000BRZAMPACNOR5100
012024051002PETR3       010PETROBRAS   ON  EDR N2   R$  000000000445000000000044770000000004404000000000442400000000044130000000004413000000000441415323000000000009662700000000042756598100000000000000009999123100000010000000000000BRPETRACNOR9204
012024051002PETR4       010PETROBRAS   PN  EDR N2   R$  000000000418400000000042090000000004150000000000417200000000041580000000004157000000000415842003000000000027943300000000116581593100000000000000009999123100000010000000000000BRPETRACNPR6212
012024051002PRIO3       010PETRORIO    ON      NM   R$  000000000467800000000047280000000004665000000000470400000000047000000000004698000000000470020764000000000005942300000000027954154600000000000000009999123100000010000000000000BRPRIOACNOR1106
012024051002VALE3       010VALE        ON      NM   R$  000000000647500000000064950000000006416000000000643900000000064290000000006428000000000642923742000000000013704000000000088242087000000000000000009999123100000010000000000000BRVALEACNOR0210
012024051002PRNR3       010PRINER      ON  ED  NM   R$  000000000122000000000012950000000001210000000000124100000000012360000000001235000000000124702326000000000000438200000000000544156500000000000000009999123100000010000000000000BRPRNRACNOR4109
012024051002PSSA3       010PORTO SEGUROON      NM   R$  000000000288000000000029100000000002853000000000287600000000028530000000002851000000000285906003000000000001526900000000004392654800000000000000009999123100000010000000000000BRPSSAACNOR7154
012024051002PTBL3       010PORTOBELLO  ON      NM   R$  000000000060800000000006120000000000582000000000059100000000005840000000000583000000000058401787000000000000575200000000000340162300000000000000009999123100000010000000000000BRPTBLACNOR8132
012024051002PTNT4       010PETTENATI   PN           R$  000000000073000000000007300000000000726000000000072600000000007260000000000710000000000072600004000000000000001200000000000000871600000000000000009999123100000010000000000000BRPTNTACNPR3047
012024051002RCSL3       010RECRUSUL    ON           R$  000000000017400000000001780000000000170000000000017300000000001740000000000174000000000017502692000000000002476000000000000430325200000000000000009999123100000010000000000000BRRCSLACNOR4133
012024051002RCSL4       010RECRUSUL    PN           R$  000000000004900000000000500000000000048000000000004900000000000500000000000048000000000004900441000000000000460000000000000022559100000000000000009999123100000010000000000000BRRCSLACNPR1133
012024051002RDNI3       010RNI         ON      NM   R$  000000000036000000000003600000000000354000000000035700000000003570000000000355000000000035800007000000000000013100000000000004677000000000000000009999123100000010000000000000BRRDNIACNOR9116
012024051002RDOR3       010REDE D OR   ON      NM   R$  000000000302000000000030930000000003003000000000306500000000030620000000003062000000000306730846000000000007832600000000024009564400000000000000009999123100000010000000000000BRRDORACNOR8112
012024051002BRIT3       010BRISANET    ON      NM   R$  000000000042000000000004310000000000400000000000041200000000004070000000000407000000000041000666000000000000437100000000000180104300000000000000009999123100000010000000000000BRBRITACNOR0103
012024051002BRKM3       010BRASKEM     ON      N1   R$  000000000199900000000019990000000001922000000000193700000000019250000000001922000000000198900037000000000000004800000000000009299700000000000000009999123100000010000000000000BRBRKMACNOR1119
012024051002BRKM5       010BRASKEM     PNA     N1   R$  000000000193400000000019560000000001906000000000192000000000019060000000001906000000000190904164000000000001228700000000002359495400000000000000009999123100000010000000000000BRBRKMACNPA4121
012024051002CSED3       010CRUZEIRO EDUON      NM   R$  000000000047000000000004770000000000428000000000045100000000004450000000000442000000000044502812000000000002365000000000001067662800000000000000009999123100000010000000000000BRCSEDACNOR9104
012024051002CSMG3       010COPASA      ON      NM   R$  000000000193900000000019620000000001916000000000195100000000019600000000001954000000000196005580000000000001317600000000002570956600000000000000009999123100000010000000000000BRCSMGACNOR5173
012024051002CSNA3       010SID NACIONALON           R$  000000000142000000000014370000000001357000000000138400000000013840000000001383000000000138617725000000000010653000000000014751605100000000000000009999123100000010000000000000BRCSNAACNOR6260
012024051002ELMD3       010ELETROMIDIA ON      NM   R$  000000000191000000000019480000000001888000000000191300000000019000000000001900000000000194000468000000000000086900000000000166297200000000000000009999123100000010000000000000BRELMDACNOR3101
012024051002EMAE4       010EMAE        PN           R$  000000000532000000000053290000000004901000000000515000000000052490000000005105000000000525000029000000000000004500000000000023176200000000000000009999123100000010000000000000BREMAEACNPR1125
012024051002EMBR3       010EMBRAER     ON      NM   R$  000000000337400000000034680000000003327000000000338600000000033500000000003350000000000335115544000000000009873000000000033437014900000000000000009999123100000010000000000000BREMBRACNOR4191
012024051002LOGG3       010LOG COM PROPON      NM   R$  000000000219800000000022930000000002198000000000223200000000022300000000002208000000000223001521000000000000179700000000000401249000000000000000009999123100000010000000000000BRLOGGACNOR7107
012024051002LOGN3       010LOG-IN      ON      NM   R$  000000000409000000000040920000000003920000000000399000000000039500000000003950000000000395200195000000000000030200000000000120524800000000000000009999123100000010000000000000BRLOGNACNOR3105
012024051002LPSB3       010LOPES BRASILON  ED  NM   R$  000000000022500000000002260000000000222000000000022400000000002230000000000223000000000022600120000000000000032700000000000007352100000000000000009999123100000010000000000000BRLPSBACNOR0114
012024051002LREN3       010LOJAS RENNERON      NM   R$  000000000158100000000015930000000001508000000000153300000000015100000000001510000000000151122752000000000015767100000000024171577100000000000000009999123100000010000000000000BRLRENACNOR1220
012024051002NGRD3       010NEOGRID     ON      NM   R$  000000000010500000000001050000000000100000000000010100000000001000000000000100000000000010100405000000000000585700000000000059221100000000000000009999123100000010000000000000BRNGRDACNOR3104
012024051002NINJ3       010GETNINJAS   ON      NM   R$  000000000047100000000004860000000000471000000000047900000000004860000000000473000000000048700161000000000000033200000000000015917100000000000000009999123100000010000000000000BRNINJACNOR5101
012024051002NTCO3       010GRUPO NATURAON      NM   R$  000000000172000000000017430000000001716000000000172600000000017250000000001721000000000172514336000000000003979200000000006872023700000000000000009999123100000010000000000000BRNTCOACNOR5106
012024051002WEST3       010WESTWING    ON      NM   R$  000000000011700000000001170000000000115000000000011500000000001160000000000115000000000011600021000000000000006300000000000000729200000000000000009999123100000010000000000000BRWESTACNOR3100
012024051002WHRL3       010WHIRLPOOL   ON           R$  000000000046200000000004620000000000462000000000046200000000004620000000000461000000000046600002000000000000000200000000000000092400000000000000009999123100000010000000000000BRWHRLACNOR5128
012024051002WHRL4       010WHIRLPOOL   PN           R$  000000000046500000000004660000000000465000000000046500000000004660000000000465000000000046700005000000000000002800000000000001302200000000000000009999123100000010000000000000BRWHRLACNPR2128
012024051002WIZC3       010WIZ CO      ON  EDJ NM   R$  000000000070500000000007310000000000671000000000069400000000006720000000000672000000000067802582000000000000919000000000000638524600000000000000009999123100000010000000000000BRWIZCACNOR5102
012024051002WLMM3       010WLM IND COM ON  ED       R$  000000000237500000000023750000000002375000000000237500000000023750000000002060000000000285100001000000000000000100000000000000237500000000000000009999123100000010000000000000BRWLMMACNOR6118
012024051002WLMM4       010WLM IND COM PN  ED       R$  000000000310300000000031030000000002901000000000307800000000030960000000003096000000000309700016000000000000001900000000000005849600000000000000009999123100000010000000000000BRWLMMACNPR3118
012024051002VITT3       010VITTIA      ON      NM   R$  000000000054400000000005490000000000533000000000053500000000005330000000000532000000000053701016000000000000459900000000000246361200000000000000009999123100000010000000000000BRVITTACNOR4107
012024051002VIVA3       010VIVARA S.A. ON  ED  NM   R$  000000000239400000000024070000000002291000000000232000000000023060000000002300000000000230609174000000000002732800000000006340180900000000000000009999123100000010000000000000BRVIVAACNOR0107
012024051002VIVR3       010VIVER       ON      NM   R$  000000000029600000000002970000000000286000000000029200000000002860000000000286000000000029000113000000000000064900000000000018966500000000000000009999123100000010000000000000BRVIVRACNOR4122
012024051002VIVT3       010TELEF BRASILON  EJ       R$  000000000455300000000045770000000004491000000000452300000000045110000000004511000000000451707567000000000002312400000000010459752400000000000000009999123100000010000000000000BRVIVTACNOR0181
012024051002MRVE3       010MRV         ON  ATZ NM   R$  000000000073700000000007440000000000702000000000071500000000007020000000000702000000000070308880000000000010690300000000007648871200000000000000009999123100000010000000000000BRMRVEACNOR2127
012024051002PETZ3       010PETZ        ON  ED  NM   R$  000000000046600000000004770000000000450000000000045800000000004520000000000451000000000045310822000000000013914000000000006385717000000000000000009999123100000010000000000000BRPETZACNOR2110
012024051002VAMO3       010VAMOS       ON      NM   R$  000000000081400000000008300000000000793000000000080900000000008050000000000804000000000080609314000000000005728900000000004635692100000000000000009999123100000010000000000000BRVAMOACNOR7105
012024051002RECV3       010PETRORECSA  ON      NM   R$  000000000211700000000021820000000002117000000000214500000000021310000000002130000000000213207657000000000002042700000000004383526400000000000000009999123100000010000000000000BRRECVACNOR3106
012024051002REDE3       010REDE ENERGIAON           R$  000000000069200000000006920000000000686000000000068900000000006900000000000688000000000069200007000000000000000700000000000000482700000000000000009999123100000010000000000000BRREDEACNOR7127
012024051002RENT3       010LOCALIZA    ON      NM   R$  000000000524000000000052440000000004660000000000486800000000047000000000004697000000000470057324000000000022108200000000107638346400000000000000009999123100000010000000000000BRRENTACNOR4195
012024051002RAIZ4       010RAIZEN      PN      N2   R$  000000000030600000000003080000000000300000000000030100000000003020000000000301000000000030213051000000000008506500000000002568796100000000000000009999123100000010000000000000BRRAIZACNPR6110
012024051002RANI3       010IRANI       ON  ED  NM   R$  000000000090200000000009020000000000881000000000088600000000008810000000000881000000000088201741000000000000464800000000000412242100000000000000009999123100000010000000000000BRRANIACNOR5072
012024051002RAPT3       010RANDON PART ON      N1   R$  000000000092300000000009250000000000896000000000090300000000009000000000000898000000000090000087000000000000018700000000000016898400000000000000009999123100000010000000000000BRRAPTACNOR7162
012024051002RAPT4       010RANDON PART PN      N1   R$  000000000103800000000010720000000001014000000000103400000000010160000000001016000000000101706487000000000002475200000000002561819100000000000000009999123100000010000000000000BRRAPTACNPR4162
012024051002LJQQ3       010QUERO-QUERO ON      NM   R$  000000000048300000000004940000000000459000000000047300000000004590000000000459000000000046104758000000000003220100000000001523150200000000000000009999123100000010000000000000BRLJQQACNOR5104
012024051002MTRE3       010MITRE REALTYON      NM   R$  000000000040700000000004090000000000388000000000039600000000003940000000000392000000000039403586000000000002416900000000000957342400000000000000009999123100000010000000000000BRMTREACNOR6110
012024051002MTSA4       010METISA      PN           R$  000000000450000000000045000000000004400000000000444900000000044930000000004412000000000460000026000000000000004600000000000020469700000000000000009999123100000010000000000000BRMTSAACNPR9071
012024051002MULT3       010MULTIPLAN   ON      N2   R$  000000000235500000000023990000000002345000000000237300000000023650000000002364000000000236513351000000000005497300000000013049662200000000000000009999123100000010000000000000BRMULTACNOR5138
012024051002ATOM3       010ATOMPAR     ON           R$  000000000021800000000002240000000000214000000000021800000000002200000000000215000000000022000134000000000000042000000000000009176000000000000000009999123100000010000000000000BRATOMACNOR1106
012024051002AURE3       010AUREN       ON      NM   R$  000000000118500000000011930000000001173000000000118400000000011830000000001180000000000118305895000000000004068600000000004818702100000000000000009999123100000010000000000000BRAUREACNOR9104
012024051002AZEV3       010AZEVEDO     ON           R$  000000000013600000000001450000000000135000000000013800000000001350000000000134000000000013500333000000000000425500000000000059099000000000000000009999123100000010000000000000BRAZEVACNOR0121
012024051002AZEV4       010AZEVEDO     PN           R$  000000000012900000000001360000000000128000000000013100000000001280000000000128000000000012901883000000000002605700000000000341993600000000000000009999123100000010000000000000BRAZEVACNPR7121
012024051002AZUL4       010AZUL        PN      N2   R$  000000000110800000000011220000000001088000000000110100000000011030000000001102000000000110310440000000000010805500000000011903796900000000000000009999123100000010000000000000BRAZULACNPR4102
012024051002HYPE3       010HYPERA      ON      NM   R$  000000000303000000000030560000000002981000000000300200000000030030000000003000000000000300706448000000000002476600000000007434824200000000000000009999123100000010000000000000BRHYPEACNOR0140
012024051002BEES3       010BANESTES    ON  EDJ      R$  000000000089900000000009030000000000897000000000090000000000009000000000000897000000000090000054000000000000011400000000000010266300000000000000009999123100000010000000000000BRBEESACNOR9390
012024051002CRFB3       010CARREFOUR BRON      NM   R$  000000000115500000000011610000000001113000000000112800000000011130000000001112000000000111905898000000000004194300000000004732466300000000000000009999123100000010000000000000BRCRFBACNOR2116
012024051002CRPG5       010CRISTAL     PNA          R$  000000000303900000000030900000000003039000000000306600000000030880000000003050000000000309700010000000000000001000000000000003066200000000000000009999123100000010000000000000BRCRPGACNPA3118
012024051002CSAN3       010COSAN       ON  ATZ NM   R$  000000000145100000000014630000000001428000000000143600000000014280000000001428000000000143015074000000000009469700000000013605983700000000000000009999123100000010000000000000BRCSANACNOR6125
012024051002ELET3       010ELETROBRAS  ON      N1   R$  000000000380300000000038090000000003708000000000376000000000037870000000003787000000000378816818000000000007565700000000028448980300000000000000009999123100000010000000000000BRELETACNOR6160
012024051002ELET6       010ELETROBRAS  PNB     N1   R$  000000000423600000000042430000000004143000000000418700000000041970000000004194000000000419704919000000000001217400000000005098291400000000000000009999123100000010000000000000BRELETACNPB7077
012024051002BBSE3       010BBSEGURIDADEON      NM   R$  000000000325100000000033200000000003244000000000329500000000033130000000003311000000000331512737000000000005007800000000016504699000000000000000009999123100000010000000000000BRBBSEACNOR5124
012024051002BPAC11      010BTGP BANCO  UNT     N2   R$  000000000333900000000033810000000003327000000000335800000000033520000000003350000000000335324651000000000011769600000000039530083000000000000000009999123100000010000000000000BRBPACUNT006118
012024051002BPAC3       010BTGP BANCO  ON      N2   R$  000000000169300000000017000000000001653000000000168800000000016650000000001664000000000170000016000000000000002300000000000003882900000000000000009999123100000010000000000000BRBPACACNOR7133
012024051002BPAC5       010BTGP BANCO  PNA     N2   R$  000000000083000000000008340000000000819000000000082600000000008230000000000823000000000084000019000000000000003900000000000003221500000000000000009999123100000010000000000000BRBPACACNPA0133
012024051002BEEF3       010MINERVA     ON      NM   R$  000000000062800000000006480000000000623000000000063700000000006340000000000634000000000063610148000000000013288400000000008469486900000000000000009999123100000010000000000000BRBEEFACNOR6116
012024051002BPAN4       010BANCO PAN   PN      N1   R$  000000000096000000000009760000000000943000000000096300000000009590000000000956000000000096005541000000000001769400000000001704224900000000000000009999123100000010000000000000BRBPANACNPR1115
012024051002BRAP3       010BRADESPAR   ON  ED  N1   R$  000000000194000000000019640000000001935000000000194400000000019400000000001938000000000194900161000000000000024500000000000047633700000000000000009999123100000010000000000000BRBRAPACNOR5148
012024051002BRAP4       010BRADESPAR   PN  ED  N1   R$  000000000202900000000020320000000001998000000000201300000000020100000000002008000000000201006903000000000003759500000000007568932100000000000000009999123100000010000000000000BRBRAPACNPR2148
012024051002CPFE3       010CPFL ENERGIAON      NM   R$  000000000329900000000033010000000003224000000000325300000000032440000000003242000000000325308047000000000002439100000000007934780700000000000000009999123100000010000000000000BRCPFEACNOR0137
012024051002CPLE3       010COPEL       ON      N2   R$  000000000082800000000008310000000000808000000000081600000000008170000000000816000000000081806720000000000010312800000000008418873400000000000000009999123100000010000000000000BRCPLEACNOR8149
012024051002CPLE6       010COPEL       PNB     N2   R$  000000000092800000000009280000000000901000000000091100000000009130000000000912000000000091416683000000000012388800000000011297350400000000000000009999123100000010000000000000BRCPLEACNPB9146
012024051002EGIE3       010ENGIE BRASILON  ED  NM   R$  000000000433700000000043530000000004251000000000429600000000043000000000004295000000000430010754000000000002647900000000011377225200000000000000009999123100000010000000000000BREGIEACNOR9126
012024051002EKTR4       010ELEKTRO     PN  ED       R$  000000000395000000000039550000000003950000000000395000000000039550000000003900000000000395000003000000000000000800000000000003160500000000000000009999123100000010000000000000BREKTRACNPR7162
012024051002KRSA3       010KORA SAUDE  ON      NM   R$  000000000007300000000000730000000000069000000000007000000000000710000000000070000000000007100188000000000000964000000000000068148700000000000000009999123100000010000000000000BRKRSAACNOR0100
012024051002HAGA3       010HAGA S/A    ON           R$  000000000025900000000002590000000000251000000000025400000000002510000000000251000000000025800007000000000000001800000000000000458600000000000000009999123100000010000000000000BRHAGAACNOR7103
012024051002HAGA4       010HAGA S/A    PN           R$  000000000013000000000001300000000000125000000000012600000000001260000000000125000000000012600014000000000000002700000000000000340800000000000000009999123100000010000000000000BRHAGAACNPR4103
012024051002HAPV3       010HAPVIDA     ON  ATZ NM   R$  000000000040700000000004140000000000396000000000040400000000004050000000000404000000000040527109000000000102814200000000041624707700000000000000009999123100000010000000000000BRHAPVACNOR4114
012024051002HBOR3       010HELBOR      ON  ED  NM   R$  000000000027700000000002790000000000265000000000026900000000002670000000000267000000000026800341000000000000187800000000000050579300000000000000009999123100000010000000000000BRHBORACNOR3118
012024051002BEES4       010BANESTES    PN  EDJ      R$  000000000096700000000009680000000000942000000000095600000000009530000000000953000000000097600014000000000000001700000000000001625500000000000000009999123100000010000000000000BRBEESACNPR6315
012024051002HBRE3       010HBR REALTY  ON      NM   R$  000000000052000000000005200000000000492000000000050500000000004990000000000497000000000049900974000000000000432900000000000218789600000000000000009999123100000010000000000000BRHBREACNOR4100
012024051002HBSA3       010HIDROVIAS   ON      NM   R$  000000000041800000000004330000000000409000000000042600000000004240000000000423000000000042508459000000000010285400000000004381774300000000000000009999123100000010000000000000BRHBSAACNOR0100
012024051002HBTS5       010HABITASUL   PNA          R$  000000000420000000000042000000000004200000000000420000000000042000000000003760000000000420000001000000000000000100000000000000420000000000000000009999123100000010000000000000BRHBTSACNPA3128
012024051002LAND3       010TERRASANTAPAON      NM   R$  000000000153000000000015300000000001471000000000150000000000014900000000001471000000000149000145000000000000052000000000000078008800000000000000009999123100000010000000000000BRLANDACNOR9103
012024051002LAVV3       010LAVVI       ON      NM   R$  000000000092300000000009410000000000910000000000091900000000009150000000000915000000000091902554000000000000738500000000000679012000000000000000009999123100000010000000000000BRLAVVACNOR4111
012024051002LEVE3       010METAL LEVE  ON  ED  NM   R$  000000000324600000000032750000000003185000000000324500000000032630000000003253000000000326302304000000000000473600000000001537169300000000000000009999123100000010000000000000BRLEVEACNOR2197
012024051002JHSF3       010JHSF PART   ON  ED  NM   R$  000000000042500000000004330000000000417000000000042200000000004200000000000418000000000042002581000000000001909200000000000806374100000000000000009999123100000010000000000000BRJHSFACNOR2135
012024051002JSLG3       010JSL         ON      NM   R$  000000000106700000000011150000000001058000000000108200000000010720000000001066000000000107303722000000000000735100000000000795641700000000000000009999123100000010000000000000BRJSLGACNOR2121
012024051002KEPL3       010KEPLER WEBERON      NM   R$  000000000100600000000010230000000000995000000000100700000000010010000000001000000000000100503314000000000000854600000000000860929400000000000000009999123100000010000000000000BRKEPLACNOR1062
012024051002KLBN11      010KLABIN S/A  UNT EDB N2   R$  000000000217100000000021720000000002134000000000215100000000021530000000002152000000000215612868000000000004459700000000009595501000000000000000009999123100000010000000000000BRKLBNCDAM18142
012024051002KLBN3       010KLABIN S/A  ON  EDB N2   R$  000000000043300000000004330000000000426000000000042900000000004280000000000428000000000043000646000000000000344900000000000148266400000000000000009999123100000010000000000000BRKLBNACNOR2170
012024051002KLBN4       010KLABIN S/A  PN  EDB N2   R$  000000000043500000000004350000000000428000000000043100000000004330000000000432000000000043302108000000000001215100000000000523940900000000000000009999123100000010000000000000BRKLBNACNPR9170
012024051002ANIM3       010ANIMA       ON      NM   R$  000000000036500000000003740000000000352000000000035900000000003550000000000354000000000035504409000000000002980800000000001071469300000000000000009999123100000010000000000000BRANIMACNOR6107
012024051002APER3       010ALPER S.A.  ON           R$  000000000435800000000045500000000004358000000000450000000000045090000000004509000000000458700033000000000000011000000000000049510800000000000000009999123100000010000000000000BRAPERACNOR9106
012024051002ARML3       010ARMAC       ON      NM   R$  000000000099000000000010390000000000957000000000101000000000010280000000001022000000000102808386000000000001873100000000001893209900000000000000009999123100000010000000000000BRARMLACNOR1111
012024051002ARZZ3       010AREZZO CO   ON      NM   R$  000000000497500000000050550000000004776000000000487400000000047820000000004782000000000478711952000000000002999500000000014620816500000000000000009999123100000010000000000000BRARZZACNOR3146
012024051002ASAI3       010ASSAI       ON      NM   R$  000000000134000000000013550000000001323000000000134000000000013410000000001341000000000134215427000000000009643100000000012922406700000000000000009999123100000010000000000000BRASAIACNOR0106
012024051002AFLT3       010AFLUENTE T  ON           R$  000000000073000000000007330000000000730000000000073100000000007330000000000714000000000075900004000000000000000500000000000000365800000000000000009999123100000010000000000000BRAFLTACNOR1121
012024051002AGRO3       010BRASILAGRO  ON      NM   R$  000000000256300000000026050000000002543000000000257600000000025430000000002542000000000256001788000000000000250800000000000646103500000000000000009999123100000010000000000000BRAGROACNOR7114
012024051002AGXY3       010AGROGALAXY  ON  ES  NM   R$  000000000017700000000001770000000000168000000000017200000000001680000000000168000000000016900531000000000000413500000000000071400100000000000000009999123100000010000000000000BRAGXYACNOR4103
012024051002AHEB3       010SPTURIS     ON           R$  000000000250100000000025010000000002501000000000250100000000025010000000002501000000000300000002000000000000000500000000000001250500000000000000009999123100000010000000000000BRAHEBACNOR0106
012024051002ALLD3       010ALLIED      ON      NM   R$  000000000076400000000007640000000000732000000000074300000000007430000000000737000000000074300681000000000000134900000000000100356600000000000000009999123100000010000000000000BRALLDACNOR3106
012024051002ALOS3       010ALLOS       ON  ED  NM   R$  000000000212800000000021760000000002092000000000213300000000021200000000002119000000000212018181000000000009096200000000019407737300000000000000009999123100000010000000000000BRALOSACNOR5101
012024051002COCE3       010COELCE      ON  ED       R$  000000000440000000000044000000000004400000000000440000000000044000000000003600000000000500000002000000000000000200000000000000880000000000000000009999123100000010000000000000BRCOCEACNOR0146
012024051002COCE5       010COELCE      PNA ED       R$  000000000372600000000037260000000003415000000000349500000000034150000000003415000000000343800080000000000000034300000000000119880100000000000000009999123100000010000000000000BRCOCEACNPA3147
012024051002COGN3       010COGNA ON    ON      NM   R$  000000000021700000000002190000000000204000000000021000000000002070000000000206000000000020713837000000000035940300000000007570607700000000000000009999123100000010000000000000BRCOGNACNOR2104
012024051002DASA3       010DASA        ON      NM   R$  000000000040700000000004200000000000378000000000039400000000003780000000000378000000000038002858000000000001037900000000000409937300000000000000009999123100000010000000000000BRDASAACNOR1122
012024051002CEAB3       010CEA MODAS   ON      NM   R$  000000000125000000000012540000000001020000000000111300000000010230000000001023000000000102519519000000000014220800000000015828766700000000000000009999123100000010000000000000BRCEABACNOR1102
012024051002CEBR3       010CEB         ON  ED       R$  000000000273900000000027390000000002683000000000270000000000027000000000002659000000000270000064000000000000022100000000000059679700000000000000009999123100000010000000000000BRCEBRACNOR5125
012024051002CEBR5       010CEB         PNA ED       R$  000000000215500000000022000000000002126000000000217300000000021700000000002133000000000217000025000000000000004100000000000008911700000000000000009999123100000010000000000000BRCEBRACNPA8124
012024051002CEBR6       010CEB         PNB ED       R$  000000000221500000000022460000000002205000000000221800000000022110000000002205000000000221200032000000000000005700000000000012645500000000000000009999123100000010000000000000BRCEBRACNPB6124
012024051002CEEB3       010COELBA      ON           R$  000000000396000000000039600000000003903000000000392000000000039530000000003900000000000395400008000000000000000800000000000003136500000000000000009999123100000010000000000000BRCEEBACNOR3198
012024051002CEED3       010CEEE-D      ON           R$  000000000170000000000017000000000001700000000000170000000000017000000000001527000000000200000001000000000000000100000000000000170000000000000000009999123100000010000000000000BRCEEDACNOR9103
012024051002CGAS3       010COMGAS      ON           R$  000000001080000000000108000000000010800000000001080000000000108000000000010716000000001080000002000000000000000200000000000002160000000000000000009999123100000010000000000000BRCGASACNOR0163
012024051002CGAS5       010COMGAS      PNA          R$  000000001127000000000112700000000011240000000001125500000000112400000000011111000000001125000002000000000000000200000000000002251000000000000000009999123100000010000000000000BRCGASACNPA3160
012024051002CGRA3       010GRAZZIOTIN  ON           R$  000000000253000000000025880000000002501000000000252300000000025030000000002502000000000254000020000000000000006200000000000015646800000000000000009999123100000010000000000000BRCGRAACNOR2082
012024051002CGRA4       010GRAZZIOTIN  PN           R$  000000000254100000000025960000000002541000000000258000000000025850000000002568000000000259000005000000000000000500000000000001290200000000000000009999123100000010000000000000BRCGRAACNPR9082
012024051002SMFT3       010SMART FIT   ON      NM   R$  000000000234400000000024150000000002314000000000235600000000023150000000002313000000000231713642000000000002806600000000006615126200000000000000009999123100000010000000000000BRSMFTACNOR1111
012024051002SMTO3       010SAO MARTINHOON      NM   R$  000000000290000000000029130000000002800000000000283300000000028290000000002824000000000283007510000000000002005800000000005683032000000000000000009999123100000010000000000000BRSMTOACNOR3125
012024051002SNSY5       010SANSUY      PNA          R$  000000000062700000000006270000000000627000000000062700000000006270000000000621000000000062800002000000000000000200000000000000125400000000000000009999123100000010000000000000BRSNSYACNPA5111
012024051002SOJA3       010BOA SAFRA   ON      NM   R$  000000000187800000000018790000000001794000000000181500000000017970000000001797000000000180300961000000000000179800000000000326381900000000000000009999123100000010000000000000BRSOJAACNOR9105
012024051002SOMA3       010GRUPO SOMA  ON      NM   R$  000000000058200000000005920000000000561000000000057200000000005630000000000562000000000056315777000000000013048000000000007472242300000000000000009999123100000010000000000000BRSOMAACNOR3102
012024051002QUAL3       010QUALICORP   ON  ATZ NM   R$  000000000016600000000001730000000000161000000000016600000000001630000000000162000000000016304928000000000006312500000000001050690600000000000000009999123100000010000000000000BRQUALACNOR6120
012024051002SCAR3       010SAO CARLOS  ON  ED  NM   R$  000000000243100000000024870000000002402000000000243800000000024640000000002415000000000246500030000000000000003600000000000008780300000000000000009999123100000010000000000000BRSCARACNOR7131
012024051002SEER3       010SER EDUCA   ON      NM   R$  000000000055000000000005500000000000515000000000052200000000005160000000000516000000000051801885000000000001058600000000000552909200000000000000009999123100000010000000000000BRSEERACNOR5119
012024051002SEQL3       010SEQUOIA LOG ON      NM   R$  000000000003800000000000390000000000037000000000003800000000000390000000000039000000000004000415000000000004717400000000000180446600000000000000009999123100000010000000000000BRSEQLACNOR2102
012024051002SRNA3       010SERENA      ON      NM   R$  000000000089500000000009000000000000854000000000086900000000008600000000000859000000000086013119000000000003382800000000002942641400000000000000009999123100000010000000000000BRSRNAACNOR4100
012024051002STBP3       010SANTOS BRP  ON      NM   R$  000000000131600000000013290000000001267000000000129000000000012700000000001267000000000127012338000000000004188800000000005404635700000000000000009999123100000010000000000000BRSTBPACNOR3129
012024051002SUZB3       010SUZANO S.A. ON      NM   R$  000000000510500000000053350000000005005000000000520000000000051700000000005170000000000517455860000000000018100300000000094123726700000000000000009999123100000010000000000000BRSUZBACNOR0129
012024051002RADL3       010RAIADROGASILON      NM   R$  000000000262000000000026220000000002541000000000256700000000025650000000002563000000000256612490000000000005105000000000013108894400000000000000009999123100000010000000000000BRRADLACNOR0156
012024051002RAIL3       010RUMO S.A.   ON  ED  NM   R$  000000000210000000000021440000000002081000000000211000000000020980000000002097000000000211227280000000000017458500000000036847274700000000000000009999123100000010000000000000BRRAILACNOR9105
012024051002B3SA3       010B3          ON      NM   R$  000000000111500000000011440000000001092000000000110300000000010940000000001094000000000109549557000000000118753300000000131078526700000000000000009999123100000010000000000000BRB3SAACNOR6132
012024051002CAMB3       010CAMBUCI     ON           R$  000000000100500000000010180000000001000000000000100300000000010000000000001000000000000100500193000000000000065200000000000065398300000000000000009999123100000010000000000000BRCAMBACNOR4128
012024051002CAML3       010CAMIL       ON      NM   R$  000000000092500000000009370000000000884000000000092200000000009240000000000924000000000092805166000000000001973500000000001820230400000000000000009999123100000010000000000000BRCAMLACNOR3127
012024051002CASH3       010MELIUZ      ON      NM   R$  000000000048900000000005140000000000478000000000048900000000004880000000000488000000000048912489000000000009513400000000004661320500000000000000009999123100000010000000000000BRCASHACNOR8106
012024051002CBAV3       010CBA         ON      NM   R$  000000000052800000000005410000000000521000000000053100000000005320000000000531000000000053507158000000000004439400000000002357652200000000000000009999123100000010000000000000BRCBAVACNOR5104
012024051002CCRO3       010CCR SA      ON      NM   R$  000000000127700000000012950000000001265000000000127600000000012650000000001265000000000127012566000000000007339300000000009372043600000000000000009999123100000010000000000000BRCCROACNOR2145
012024051002ESPA3       010ESPACOLASER ON      NM   R$  000000000010500000000001070000000000101000000000010300000000001020000000000101000000000010200811000000000000896400000000000092412400000000000000009999123100000010000000000000BRESPAACNOR7103
012024051002EUCA4       010EUCATEX     PN      N1   R$  000000000141900000000014350000000001380000000000140600000000014020000000001400000000000140200810000000000000182800000000000257152400000000000000009999123100000010000000000000BREUCAACNPR8044
012024051002EVEN3       010EVEN        ON      NM   R$  000000000071600000000007490000000000715000000000072900000000007190000000000717000000000072002027000000000000437700000000000319509500000000000000009999123100000010000000000000BREVENACNOR8118
012024051002EZTC3       010EZTEC       ON  ED  NM   R$  000000000139900000000014320000000001364000000000138600000000013900000000001390000000000139104871000000000001670000000000002315191800000000000000009999123100000010000000000000BREZTCACNOR0125
012024051002FESA3       010FERBASA     ON      N1   R$  000000000153300000000015330000000001520000000000152900000000015200000000001496000000000157800003000000000000000400000000000000611900000000000000009999123100000010000000000000BRFESAACNOR8187
012024051002FESA4       010FERBASA     PN      N1   R$  000000000080700000000008140000000000799000000000080200000000008000000000000800000000000080301521000000000000560500000000000450017600000000000000009999123100000010000000000000BRFESAACNPR5083
012024051002ITSA3       010ITAUSA      ON      N1   R$  000000000099100000000010060000000000989000000000100000000000010050000000001003000000000100500295000000000000156400000000000156525900000000000000009999123100000010000000000000BRITSAACNOR0439
012024051002ITSA4       010ITAUSA      PN      N1   R$  000000000099500000000010050000000000992000000000100100000000010040000000001003000000000100416403000000000019739500000000019759892100000000000000009999123100000010000000000000BRITSAACNPR7439
012024051002MATD3       010MATER DEI   ON  ED  NM   R$  000000000057300000000005730000000000535000000000054700000000005520000000000542000000000055202959000000000000734500000000000401932200000000000000009999123100000010000000000000BRMATDACNOR4104
012024051002MBLY3       010MOBLY       ON      NM   R$  000000000021200000000002120000000000201000000000020400000000002020000000000202000000000020401000000000000000643000000000000131610800000000000000009999123100000010000000000000BRMBLYACNOR5100
012024051002MDIA3       010M.DIASBRANCOON      NM   R$  000000000345600000000034560000000003393000000000342200000000034250000000003425000000000343003111000000000000714300000000002444619100000000000000009999123100000010000000000000BRMDIAACNOR7134
012024051002MDNE3       010MOURA DUBEUXON      NM   R$  000000000124900000000012710000000001214000000000123500000000012380000000001226000000000123902521000000000000504200000000000622801000000000000000009999123100000010000000000000BRMDNEACNOR9100
012024051002MEAL3       010IMC S/A     ON      NM   R$  000000000015100000000001520000000000148000000000014900000000001510000000000149000000000015100482000000000000633100000000000094887200000000000000009999123100000010000000000000BRMEALACNOR9105
012024051002MELK3       010MELNICK     ON  ED  NM   R$  000000000043300000000004340000000000416000000000042200000000004250000000000420000000000042500432000000000000410400000000000173580100000000000000009999123100000010000000000000BRMELKACNOR8111
012024051002MERC4       010MERC FINANC PN           R$  000000000077000000000007700000000000770000000000077000000000007700000000000770000000000080000004000000000000001200000000000000924000000000000000009999123100000010000000000000BRMERCACNPR9180
012024051002MGEL4       010MANGELS INDLPN           R$  000000000170100000000017010000000001701000000000170100000000017010000000001600000000000170100001000000000000000600000000000001020600000000000000009999123100000010000000000000BRMGELACNPR3147
012024051002MGLU3       010MAGAZ LUIZA ON      NM   R$  000000000017400000000001750000000000153000000000016000000000001540000000000154000000000015536286000000000253436200000000040669874000000000000000009999123100000010000000000000BRMGLUACNOR2123
012024051002BAHI3       010BAHEMA      ON      MA   R$  000000000080100000000008010000000000799000000000079900000000007990000000000791000000000079900003000000000000003000000000000002397200000000000000009999123100000010000000000000BRBAHIACNOR1074
012024051002BALM3       010BAUMER      ON           R$  000000000105000000000010500000000001050000000000105000000000010500000000000985000000000124900001000000000000000100000000000000105000000000000000009999123100000010000000000000BRBALMACNOR5055
012024051002BAZA3       010AMAZONIA    ON           R$  000000001018500000000101850000000010100000000001012600000000101390000000010013000000001015000015000000000000002800000000000028354800000000000000009999123100000010000000000000BRBAZAACNOR0179
012024051002BBAS3       010BRASIL      ON      NM   R$  000000000273500000000027750000000002735000000000275800000000027620000000002762000000000276343671000000000023660400000000065271193500000000000000009999123100000010000000000000BRBBASACNOR3322
012024051002DESK3       010DESKTOP     ON      NM   R$  000000000135600000000013560000000001294000000000131200000000013150000000001314000000000131600420000000000000167800000000000220274000000000000000009999123100000010000000000000BRDESKACNOR2104
012024051002DEXP3       010DEXXOS PAR  ON  ED  N1   R$  000000000111000000000011100000000001068000000000108200000000010680000000001068000000000107600240000000000000049000000000000053032700000000000000009999123100000010000000000000BRDEXPACNOR1105
012024051002DEXP4       010DEXXOS PAR  PN  ED  N1   R$  000000000106100000000010680000000001052000000000106000000000010680000000001057000000000106800006000000000000000800000000000000848100000000000000009999123100000010000000000000BRDEXPACNPR8105
012024051002DIRR3       010DIRECIONAL  ON      NM   R$  000000000256000000000025980000000002449000000000252500000000025250000000002520000000000252813101000000000004348300000000010983511100000000000000009999123100000010000000000000BRDIRRACNOR0117
012024051002DMVF3       010D1000VFARMA ON      NM   R$  000000000080400000000008080000000000751000000000077900000000007510000000000751000000000076000446000000000000097400000000000075922800000000000000009999123100000010000000000000BRDMVFACNOR9100
012024051002BIOM3       010BIOMM       ON      MA   R$  000000000181400000000018150000000001637000000000177500000000018000000000001680000000000180001179000000000000217600000000000386351400000000000000009999123100000010000000000000BRBIOMACNOR2112
012024051002BRSR3       010BANRISUL    ON  ED  N1   R$  000000000116400000000011640000000001133000000000114700000000011570000000001152000000000116000071000000000000011000000000000012627000000000000000009999123100000010000000000000BRBRSRACNOR3187
012024051002BRSR6       010BANRISUL    PNB ED  N1   R$  000000000111800000000011330000000001108000000000111600000000011140000000001112000000000111504398000000000001820600000000002033022000000000000000009999123100000010000000000000BRBRSRACNPB4190
012024051002BSLI4       010BRB BANCO   PN           R$  000000000099100000000009910000000000991000000000099100000000009910000000000920000000000099200001000000000000000100000000000000099100000000000000009999123100000010000000000000BRBSLIACNPR2192
012024051002DOHL3       010DOHLER      ON           R$  000000000061500000000006150000000000615000000000061500000000006150000000000500000000000061000001000000000000000100000000000000061500000000000000009999123100000010000000000000BRDOHLACNOR2063
012024051002DOHL4       010DOHLER      PN           R$  000000000045100000000004520000000000426000000000043400000000004520000000000427000000000045100011000000000000001800000000000000782400000000000000009999123100000010000000000000BRDOHLACNPR9066
012024051002DOTZ3       010DOTZ SA     ON      NM   R$  000000000086000000000008790000000000802000000000084400000000008100000000000807000000000084000106000000000000019400000000000016381500000000000000009999123100000010000000000000BRDOTZACNOR7101
012024051002DXCO3       010DEXCO       ON      NM   R$  000000000075600000000007690000000000744000000000075500000000007450000000000744000000000074906564000000000002562500000000001935110900000000000000009999123100000010000000000000BRDXCOACNOR8105
012024051002CSRN3       010COSERN      ON           R$  000000000240100000000024480000000002400000000000241600000000024480000000002411000000000252400003000000000000000300000000000000724900000000000000009999123100000010000000000000BRCSRNACNOR0192
012024051002CSUD3       010CSU DIGITAL ON  ED  NM   R$  000000000185900000000018880000000001841000000000186600000000018600000000001855000000000186000476000000000000087500000000000163289800000000000000009999123100000010000000000000BRCSUDACNOR5109
012024051002CTKA4       010KARSTEN     PN           R$  000000000192500000000019250000000001925000000000192500000000019250000000001850000000000215000001000000000000000100000000000000192500000000000000009999123100000010000000000000BRCTKAACNPR7043
012024051002CURY3       010CURY S/A    ON  ED  NM   R$  000000000188200000000019560000000001882000000000193500000000019320000000001932000000000194908692000000000002315200000000004481084800000000000000009999123100000010000000000000BRCURYACNOR3109
012024051002CVCB3       010CVC BRASIL  ON      NM   R$  000000000023100000000002370000000000223000000000022900000000002250000000000224000000000022510652000000000015578100000000003575674300000000000000009999123100000010000000000000BRCVCBACNOR1115
012024051002ENAT3       010ENAUTA PART ON      NM   R$  000000000259500000000026200000000002554000000000257600000000025590000000002557000000000256804985000000000001386100000000003571094200000000000000009999123100000010000000000000BRENATACNOR0104
012024051002EALT4       010ACO ALTONA  PN           R$  000000000101100000000010110000000000989000000000100700000000010100000000000971000000000101000009000000000000001400000000000001410100000000000000009999123100000010000000000000BREALTACNPR1138
012024051002ECOR3       010ECORODOVIAS ON      NM   R$  000000000073500000000007540000000000725000000000073600000000007250000000000724000000000072706557000000000004359200000000003211188200000000000000009999123100000010000000000000BRECORACNOR8119
012024051002GMAT3       010GRUPO MATEUSON      NM   R$  000000000078500000000008000000000000778000000000079100000000007920000000000792000000000079507562000000000003761500000000002978831800000000000000009999123100000010000000000000BRGMATACNOR7101
012024051002GOAU3       010GERDAU MET  ON      N1   R$  000000000111200000000011250000000001100000000000110800000000011080000000001108000000000111000279000000000000075000000000000083166300000000000000009999123100000010000000000000BRGOAUACNOR1266
012024051002ENEV3       010ENEVA       ON      NM   R$  000000000124900000000012610000000001235000000000124500000000012470000000001246000000000124712352000000000003633400000000004525931800000000000000009999123100000010000000000000BRENEVACNOR8105
012024051002ENGI11      010ENERGISA    UNT     N2   R$  000000000464100000000047970000000004641000000000474200000000047560000000004750000000000475610453000000000005383800000000025531904600000000000000009999123100000010000000000000BRENGICDAM16135
012024051002ENGI3       010ENERGISA    ON      N2   R$  000000000148500000000015200000000001485000000000151300000000015200000000001434000000000152000042000000000000004400000000000006657400000000000000009999123100000010000000000000BRENGIACNOR0145
012024051002ENGI4       010ENERGISA    PN      N2   R$  000000000079500000000008200000000000794000000000080700000000008040000000000804000000000081200040000000000000009600000000000007754200000000000000009999123100000010000000000000BRENGIACNPR7141
012024051002ENJU3       010ENJOEI      ON      NM   R$  000000000024500000000002520000000000235000000000024100000000002350000000000235000000000023600802000000000000883400000000000213497700000000000000009999123100000010000000000000BRENJUACNOR9100
012024051002EPAR3       010EMBPAR S/A  ON  ED       R$  000000000072700000000007450000000000726000000000073300000000007350000000000735000000000074600020000000000000007100000000000005208600000000000000009999123100000010000000000000BREPARACNOR9105
012024051002EQPA3       010EQTL PARA   ON  ED       R$  000000000074700000000007500000000000730000000000074400000000007300000000000730000000000074800015000000000000002700000000000002011400000000000000009999123100000010000000000000BREQPAACNOR1111
012024051002EQTL3       010EQUATORIAL  ON  EDS NM   R$  000000000310200000000031110000000003050000000000306700000000030600000000003059000000000306213151000000000003777800000000011588891600000000000000009999123100000010000000000000BREQTLACNOR0130
012024051002IFCM3       010INFRACOMM   ON      NM   R$  000000000005900000000000630000000000055000000000005800000000000560000000000055000000000005607654000000000030570000000000001792347100000000000000009999123100000010000000000000BRIFCMACNOR8101
012024051002IGTI11      010IGUATEMI S.AUNT     N1   R$  000000000212000000000021500000000002095000000000211500000000021190000000002119000000000212514897000000000004448900000000009412467000000000000000009999123100000010000000000000BRIGTICDAM16106
012024051002IGTI3       010IGUATEMI S.AON      N1   R$  000000000029600000000003070000000000296000000000030100000000003070000000000301000000000030700062000000000000019800000000000005968000000000000000009999123100000010000000000000BRIGTIACNOR8106
012024051002GOAU4       010GERDAU MET  PN      N1   R$  000000000112600000000011290000000001101000000000110900000000011100000000001110000000000111109804000000000007313600000000008112154500000000000000009999123100000010000000000000BRGOAUACNPR8267
012024051002GRND3       010GRENDENE    ON  EDJ NM   R$  000000000060000000000006130000000000596000000000060500000000005960000000000596000000000059903031000000000001472200000000000890756900000000000000009999123100000010000000000000BRGRNDACNOR3173
012024051002INEP3       010INEPAR      ON           R$  000000000030800000000003080000000000295000000000029800000000002950000000000295000000000030000117000000000000061000000000000018216200000000000000009999123100000010000000000000BRINEPACNOR1143
012024051002INEP4       010INEPAR      PN           R$  000000000027700000000002870000000000262000000000027700000000002620000000000258000000000026200090000000000000037000000000000010259500000000000000009999123100000010000000000000BRINEPACNPR8143
012024051002INTB3       010INTELBRAS   ON      NM   R$  000000000232500000000023530000000002281000000000230600000000022970000000002295000000000230702527000000000000519900000000001199345700000000000000009999123100000010000000000000BRINTBACNOR9111
012024051002IRBR3       010IRBBRASIL REON      NM   R$  000000000395200000000040120000000003859000000000391400000000038800000000003880000000000388105303000000000001098200000000004298753500000000000000009999123100000010000000000000BRIRBRACNOR4111
012024051002LUPA3       010LUPATECH    ON      NM   R$  000000000015000000000001710000000000145000000000015700000000001450000000000144000000000014501159000000000001582900000000000249021200000000000000009999123100000010000000000000BRLUPAACNOR8112
012024051002LUXM4       010TREVISA     PN           R$  000000000149700000000014970000000001497000000000149700000000014970000000001437000000000156900001000000000000000200000000000000299400000000000000009999123100000010000000000000BRLUXMACNPR4052
012024051002LVTC3       010WDC NETWORKSON      NM   R$  000000000039300000000004170000000000390000000000041200000000004170000000000416000000000041700114000000000000040400000000000016654600000000000000009999123100000010000000000000BRLVTCACNOR4102
012024051002LWSA3       010LWSA        ON      NM   R$  000000000052000000000005200000000000467000000000048600000000004920000000000488000000000049217402000000000017601000000000008554715800000000000000009999123100000010000000000000BRLWSAACNOR8103
012024051002GSHP3       010GENERALSHOPPON           R$  000000000108000000000010800000000001080000000000108000000000010800000000001080000000000125000005000000000000001000000000000001080000000000000000009999123100000010000000000000BRGSHPACNOR7102
012024051002GUAR3       010GUARARAPES  ON      NM   R$  000000000080800000000008130000000000771000000000078800000000007750000000000775000000000077804467000000000001758300000000001385731200000000000000009999123100000010000000000000BRGUARACNOR4172
012024051002JALL3       010JALLESMACHADON      NM   R$  000000000070400000000007070000000000690000000000069600000000006960000000000696000000000069901687000000000000593600000000000413323700000000000000009999123100000010000000000000BRJALLACNOR0105
012024051002JBSS3       010JBS         ON      NM   R$  000000000246200000000025000000000002432000000000246000000000024620000000002460000000000246220215000000000008902600000000021901419200000000000000009999123100000010000000000000BRJBSSACNOR8121
012024051002ONCO3       010ONCOCLINICASON      NM   R$  000000000060500000000006980000000000604000000000065700000000006980000000000698000000000069914777000000000006111600000000004016858800000000000000009999123100000010000000000000BRONCOACNOR6100
012024051002OPCT3       010OCEANPACT   ON      NM   R$  000000000068000000000006900000000000659000000000066900000000006700000000000662000000000067002613000000000000705100000000000471987900000000000000009999123100000010000000000000BROPCTACNOR0100
012024051002ORVR3       010ORIZON      ON      NM   R$  000000000393700000000039830000000003906000000000392900000000039280000000003921000000000392901102000000000000199300000000000783167600000000000000009999123100000010000000000000BRORVRACNOR0101
012024051002MILS3       010MILLS       ON  ED  NM   R$  000000000131800000000013200000000001293000000000130200000000013050000000001304000000000130505767000000000001829600000000002383411600000000000000009999123100000010000000000000BRMILSACNOR2126
012024051002MLAS3       010MULTILASER  ON      NM   R$  000000000019700000000001980000000000191000000000019300000000001910000000000190000000000019102327000000000001764500000000000341834600000000000000009999123100000010000000000000BRMLASACNOR9101
012024051002MNPR3       010MINUPAR     ON           R$  000000000136000000000013910000000001321000000000137700000000013830000000001383000000000148200021000000000000004500000000000006197200000000000000009999123100000010000000000000BRMNPRACNOR5122
012024051002MOVI3       010MOVIDA      ON      NM   R$  000000000072600000000007480000000000690000000000071000000000006910000000000690000000000069111493000000000006973600000000004954604800000000000000009999123100000010000000000000BRMOVIACNOR0122
012024051002MRFG3       010MARFRIG     ON      NM   R$  000000000103100000000010360000000000994000000000101100000000009950000000000994000000000099612298000000000004942200000000004998665800000000000000009999123100000010000000000000BRMRFGACNOR0116
012024051002ALPA3       010ALPARGATAS  ON      N1   R$  000000000104900000000011000000000001020000000000105600000000010200000000000965000000000103900079000000000000010000000000000010564700000000000000009999123100000010000000000000BRALPAACNOR0231
012024051002ALPA4       010ALPARGATAS  PN      N1   R$  000000000102500000000011030000000001018000000000105400000000010290000000001028000000000103019152000000000010026300000000010571739500000000000000009999123100000010000000000000BRALPAACNPR7232
012024051002ALPK3       010ESTAPAR     ON      NM   R$  000000000040300000000004030000000000380000000000038900000000003800000000000380000000000038300243000000000000079800000000000031072900000000000000009999123100000010000000000000BRALPKACNOR9101
012024051002ALUP11      010ALUPAR      UNT     N2   R$  000000000291900000000029500000000002903000000000291900000000029150000000002913000000000291603405000000000000802900000000002344282000000000000000009999123100000010000000000000BRALUPCDAM15118
012024051002PCAR3       010P.ACUCAR-CBDON      NM   R$  000000000031100000000003150000000000303000000000030800000000003100000000000310000000000031109715000000000014216400000000004390928300000000000000009999123100000010000000000000BRPCARACNOR3167
012024051002PDGR3       010PDG REALT   ON      NM   R$  000000000002300000000000230000000000021000000000002100000000000220000000000022000000000002300308000000000002449500000000000053817200000000000000009999123100000010000000000000BRPDGRACNOR8118
012024051002PDTC3       010PADTEC      ON      NM   R$  000000000022200000000002240000000000216000000000021800000000002160000000000217000000000021900118000000000000057400000000000012553700000000000000009999123100000010000000000000BRPDTCACNOR3101
012024051002ODPV3       010ODONTOPREV  ON      NM   R$  000000000122000000000012330000000001215000000000122300000000012250000000001223000000000122706375000000000002128400000000002604382000000000000000009999123100000010000000000000BRODPVACNOR4200
012024051002ALUP3       010ALUPAR      ON      N2   R$  000000000098000000000009900000000000962000000000097300000000009690000000000965000000000098200114000000000000016900000000000016454100000000000000009999123100000010000000000000BRALUPACNOR8118
012024051002ALUP4       010ALUPAR      PN      N2   R$  000000000097200000000009790000000000950000000000096900000000009680000000000967000000000096800113000000000000019100000000000018520500000000000000009999123100000010000000000000BRALUPACNPR5118
012024051002AMAR3       010LOJAS MARISAON      NM   R$  000000000014900000000001520000000000146000000000014800000000001480000000000147000000000014800770000000000000342000000000000050797700000000000000009999123100000010000000000000BRAMARACNOR4114
012024051002AMBP3       010AMBIPAR     ON      NM   R$  000000000106000000000010610000000000988000000000101200000000009940000000000994000000000099508662000000000003400300000000003441480100000000000000009999123100000010000000000000BRAMBPACNOR6103
012024051002BBDC3       010BRADESCO    ON  EJ  N1   R$  000000000120100000000012110000000001194000000000119800000000011950000000001195000000000119610549000000000011358400000000013613458300000000000000009999123100000010000000000000BRBBDCACNOR1769
012024051002BBDC4       010BRADESCO    PN  EJ  N1   R$  000000000134500000000013580000000001335000000000134000000000013370000000001337000000000133822099000000000038374200000000051450978000000000000000009999123100000010000000000000BRBBDCACNPR8769
012024051002CMIN3       010CSNMINERACAOON      N2   R$  000000000052200000000005290000000000501000000000050800000000005070000000000507000000000050818636000000000015698800000000007982389600000000000000009999123100000010000000000000BRCMINACNOR2110
012024051002OFSA3       010OUROFINO S/AON  ED  NM   R$  000000000206800000000021870000000002068000000000215500000000021500000000002150000000000220900012000000000000001300000000000002802000000000000000009999123100000010000000000000BROFSAACNOR7118
012024051002PFRM3       010PROFARMA    ON      NM   R$  000000000058200000000005920000000000578000000000058500000000005910000000000587000000000059100377000000000000106800000000000062523100000000000000009999123100000010000000000000BRPFRMACNOR1116
012024051002PGMN3       010PAGUE MENOS ON      NM   R$  000000000025400000000002550000000000245000000000024900000000002450000000000245000000000024901694000000000000545200000000000135936700000000000000009999123100000010000000000000BRPGMNACNOR8103
012024051002PINE3       010PINE        ON      N2   R$  000000000059500000000005950000000000571000000000058300000000005710000000000570000000000059100002000000000000000200000000000000116600000000000000009999123100000010000000000000BRPINEACNOR1149
012024051002NEOE3       010NEOENERGIA  ON      NM   R$  000000000193700000000019400000000001911000000000192200000000019200000000001919000000000192002332000000000000460200000000000884572600000000000000009999123100000010000000000000BRNEOEACNOR3122
012024051002ROMI3       010ROMI        ON      NM   R$  000000000106800000000010790000000001039000000000105700000000010390000000001039000000000104300978000000000000198800000000000210152400000000000000009999123100000010000000000000BRROMIACNOR8194
012024051002RRRP3       0103R PETROLEUMON  ED  NM   R$  000000000309900000000031440000000003021000000000307200000000030210000000003021000000000302311831000000000003899500000000011981891500000000000000009999123100000010000000000000BRRRRPACNOR5103
012024051002SYNE3       010SYN PROP TECON      NM   R$  000000000091600000000009310000000000889000000000091400000000009120000000000912000000000091901889000000000000570400000000000521629300000000000000009999123100000010000000000000BRSYNEACNOR2102
012024051002TAEE11      010TAESA       UNT ED  N2   R$  000000000350000000000035230000000003462000000000349000000000034620000000003461000000000347212898000000000003273100000000011424411200000000000000009999123100000010000000000000BRTAEECDAM10146
012024051002TAEE3       010TAESA       ON  ED  N2   R$  000000000116000000000011670000000001153000000000115700000000011530000000001153000000000115900745000000000000145300000000000168217300000000000000009999123100000010000000000000BRTAEEACNOR9146
012024051002TAEE4       010TAESA       PN  ED  N2   R$  000000000117400000000011800000000001164000000000116800000000011650000000001164000000000116501191000000000000385100000000000449817900000000000000009999123100000010000000000000BRTAEEACNPR6146
012024051002TASA3       010TAURUS ARMASON  ED  N2   R$  000000000119200000000012170000000001192000000000120500000000011960000000001196000000000120900052000000000000011400000000000013738800000000000000009999123100000010000000000000BRTASAACNOR7104
012024051002TASA4       010TAURUS ARMASPN  ED  N2   R$  000000000113100000000011530000000001122000000000113400000000011280000000001126000000000113001251000000000000287800000000000326536700000000000000009999123100000010000000000000BRTASAACNPR4104
012024051002TCSA3       010TECNISA     ON      NM   R$  000000000026300000000002650000000000243000000000025200000000002480000000000247000000000025200358000000000000165100000000000041766900000000000000009999123100000010000000000000BRTCSAACNOR3112
012024051002TECN3       010TECHNOS     ON      NM   R$  000000000044700000000004570000000000433000000000044600000000004450000000000444000000000044500310000000000000124500000000000055571800000000000000009999123100000010000000000000BRTECNACNOR6109
012024051002TELB4       010TELEBRAS    PN           R$  000000000094900000000009490000000000940000000000094700000000009490000000000938000000000094900004000000000000000600000000000000568400000000000000009999123100000010000000000000BRTELBACNPR9140
012024051002TEND3       010TENDA       ON      NM   R$  000000000125700000000012920000000001220000000000125200000000012220000000001221000000000122311188000000000005616000000000007036630500000000000000009999123100000010000000000000BRTENDACNOR4111
012024051002VBBR3       010VIBRA       ON      NM   R$  000000000236300000000024000000000002354000000000238100000000023880000000002384000000000238928125000000000010546000000000025111553500000000000000009999123100000010000000000000BRVBBRACNOR1107
012024051007TXRX4       010TEX RENAUX  PN           R$  000000000024500000000002450000000000245000000000024500000000002450000000000233000000000024500005000000000000000500000000000000122500000000000000009999123100000010000000000000BRTXRXACNPR0142
012024051007BHIA3       010CASAS BAHIA ON      NM   R$  000000000071200000000007200000000000677000000000069200000000006810000000000681000000000068307166000000000004554700000000003155481200000000000000009999123100000010000000000000BRBHIAACNOR1101
012024051007NUTR3       010NUTRIPLANT  ON      MA   R$  000000000046000000000004860000000000451000000000046700000000004710000000000452000000000047700056000000000000014200000000000006632400000000000000009999123100000010000000000000BRNUTRACNOR0104
012024051008PMAM3       010PARANAPANEMAON  ES  NM   R$  000000000026600000000002690000000000264000000000026600000000002670000000000267000000000026800044000000000000013200000000000003518800000000000000009999123100000010000000000000BRPMAMACNOR3039
012024051008RSID3       010ROSSI RESID ON      NM   R$  000000000060100000000006240000000000582000000000059800000000006000000000000592000000000060200292000000000000064600000000000038689200000000000000009999123100000010000000000000BRRSIDACNOR8120
012024051008LIGT3       010LIGHT S/A   ON      NM   R$  000000000050500000000005340000000000504000000000051600000000005130000000000513000000000051402628000000000000765600000000000395712000000000000000009999123100000010000000000000BRLIGTACNOR2124
012024051008ATMP3       010ATMASA      ON           R$  000000000020400000000002070000000000204000000000020600000000002070000000000204000000000020700007000000000000000700000000000000144600000000000000009999123100000010000000000000BRATMPACNOR8100
012024051008HOOT4       010HOTEIS OTHONPN           R$  000000000027700000000002780000000000277000000000027700000000002780000000000266000000000027700002000000000000001000000000000000277700000000000000009999123100000010000000000000BRHOOTACNPR9015
012024051008JFEN3       010JOAO FORTES ON           R$  000000000015000000000001560000000000147000000000015000000000001470000000000146000000000015100043000000000000012500000000000001878100000000000000009999123100000010000000000000BRJFENACNOR0059
012024051008AMER3       010AMERICANAS  ON      NM   R$  000000000005400000000000550000000000053000000000005300000000000530000000000053000000000005401470000000000010838200000000000582737500000000000000009999123100000010000000000000BRAMERACNOR6101
012024051008SGPS3       010SPRINGS     ON      NM   R$  000000000007000000000000710000000000069000000000007000000000000710000000000070000000000007100105000000000000220500000000000015460900000000000000009999123100000010000000000000BRSGPSACNOR4104
012024051008ETER3       010ETERNIT     ON      NM   R$  000000000068800000000006910000000000670000000000067500000000006700000000000670000000000067201049000000000000280000000000000189075900000000000000009999123100000010000000000000BRETERACNOR3243
012024051008CTNM4       010COTEMINAS   PN           R$  000000000009900000000001060000000000098000000000010100000000001020000000000102000000000010300094000000000000106400000000000010760400000000000000009999123100000010000000000000BRCTNMACNPR6129
012024051008CTSA3       010SANTANENSE  ON           R$  000000000025200000000002520000000000252000000000025200000000002520000000000251000000000025200007000000000000002400000000000000604800000000000000009999123100000010000000000000BRCTSAACNOR3062
012024051008CTSA4       010SANTANENSE  PN           R$  000000000013800000000001380000000000128000000000013100000000001330000000000132000000000013300051000000000000031400000000000004137200000000000000009999123100000010000000000000BRCTSAACNPR0062
012024051008OSXB3       010OSX BRASIL  ON      NM   R$  000000000040400000000004110000000000394000000000039800000000004110000000000394000000000041100016000000000000002400000000000000956800000000000000009999123100000010000000000000BROSXBACNOR8109
012024051008OIBR3       010OI          ON      N1   R$  000000000007100000000000720000000000065000000000006700000000000660000000000066000000000006702261000000000012978700000000000872486000000000000000009999123100000010000000000000BROIBRACNOR1110
012024051008OIBR4       010OI          PN      N1   R$  000000000018800000000001900000000000181000000000018400000000001810000000000181000000000018300139000000000000064500000000000011931600000000000000009999123100000010000000000000BROIBRACNPR8109
012024051008NEXP3       010NEXPE       ON           R$  000000000042100000000004210000000000420000000000042000000000004200000000000421000000000042500007000000000000003200000000000001344900000000000000009999123100000010000000000000BRNEXPACNOR0101
012024051008RNEW11      010RENOVA      UNT     N2   R$  000000000031500000000003200000000000314000000000031700000000003190000000000313000000000031900029000000000000006500000000000002060500000000000000009999123100000010000000000000BRRNEWCDAM15110
012024051008RNEW3       010RENOVA      ON      N2   R$  000000000010600000000001080000000000105000000000010500000000001050000000000105000000000010700049000000000000019800000000000002094500000000000000009999123100000010000000000000BRRNEWACNOR8110
012024051008RNEW4       010RENOVA      PN      N2   R$  000000000010700000000001090000000000105000000000010600000000001060000000000106000000000010700083000000000000046100000000000004898200000000000000009999123100000010000000000000BRRNEWACNPR5110
012024051008RPMG3       010PET MANGUINHON           R$  000000000021300000000002150000000000208000000000021200000000002080000000000208000000000021500011000000000000003200000000000000680200000000000000009999123100000010000000000000BRRPMGACNOR9194
012024051008TEKA3       010TEKA        ON           R$  000000000500000000000050000000000005000000000000500000000000050000000000000000000000000580000001000000000000000100000000000000500000000000000000009999123100000010000000000000BRTEKAACNOR6140
012024051010PMAM1       010PARANAPANEMADIR ORD NM   R$  000000000000100000000000010000000000001000000000000100000000000010000000000000000000000000100023000000000000078000000000000000078000000000000000009999123100000010000000000000BRPMAMD04OR2038
012024051010JFEN1       010JOAO FORTES DIR ORD      R$  000000000000100000000000010000000000001000000000000100000000000010000000000000000000000000100004000000000000000900000000000000000900000000000000009999123100000010000000000000BRJFEND10OR6058
012024051010AGXY1       010AGROGALAXY  DIR ORD NM   R$  000000000000300000000000030000000000002000000000000200000000000020000000000002000000000000300184000000000000890900000000000002370000000000000000009999123100000010000000000000BRAGXYD01OR9102
012024051010CGRA1       010GRAZZIOTIN  DIR ORD      R$  000000000002300000000000230000000000017000000000001900000000000170000000000017000000000003500005000000000000000500000000000000009600000000000000009999123100000010000000000000BRCGRAD05OR8081
012024051010CGRA2       010GRAZZIOTIN  DIR PRE      R$  000000000004900000000000500000000000048000000000004900000000000480000000000046000000000004700023000000000000005200000000000000254800000000000000009999123100000010000000000000BRCGRAD05PR5081
012024051010EQTL1       010EQUATORIAL  DIR ORD NM   R$  000000000028000000000002800000000000160000000000017300000000001700000000000160000000000019001100000000000000163500000000000028298300000000000000009999123100000010000000000000BREQTLD03OR1129
012024051012CLIN11      010FII CLAVE INCI  ER       R$  000000000967300000000097230000000009550000000000967500000000097000000000009700000000000970901883000000000000010848000000000104962838000000000000009999123100000010000000000000BRCLINCTF007107
012024051012FIGS11      010FII GEN SHOPCI  ER       R$  000000000564000000000056540000000005604000000000562700000000056540000000005639000000000565500122000000000000002340000000000013167486000000000000009999123100000010000000000000BRFIGSCTF009227
012024051012FIIB11      010FII INDL BR CI  ER       R$  000000005190000000000521980000000051900000000005213700000000521970000000052043000000005219700074000000000000000136000000000007090638000000000000009999123100000010000000000000BRFIIBCTF001250
012024051012FIIP11B     010FII RB CAP ICI  ER  MB   R$  000000001854100000000186990000000018540000000001862100000000186080000000018543000000001860800052000000000000000430000000000008007189000000000000009999123100000010000000000000BRFIIPCTF001273
012024051012FIVN11      010FII VIDANOVACI           R$  000000000027600000000002760000000000276000000000027600000000002760000000000276000000000028000014000000000000001072000000000000295872000000000000009999123100000010000000000000BRFIVNCTF009100
012024051012FLCR11      010FII FL RECEBCI  ER       R$  000000000987700000000098770000000009701000000000984000000000098330000000009807000000000983900082000000000000001047000000000010303192000000000000009999123100000010000000000000BRFLCRCTF004141
012024051012FLMA11      010FII S F LIMACI  ER       R$  000000001429000000000143300000000014223000000001431600000000142900000000014290000000001432900056000000000000000143000000000002047225000000000000009999123100000010000000000000BRFLMACTF009341
012024051012FLRP11      010FII FLORIPA CI  ER       R$  000000020920000000002092000000000209200000000020920000000002092000000000205000000000020880000001000000000000000001000000000000209200000000000000009999123100000010000000000000BRFLRPCTF006269
012024051012FPAB11      010FII A BRANCACI  ER       R$  000000001848500000000184850000000018300000000001833300000000183010000000018300000000002049900005000000000000000017000000000000311665000000000000009999123100000010000000000000BRFPABCTF011313
012024051012FVPQ11      010FII V PARQUECI  ER       R$  000000000861900000000086670000000008600000000000860300000000086020000000008602000000000866500535000000000000000949000000000008164868000000000000009999123100000010000000000000BRFVPQCTF015258
012024051012GAME11      010FII GUARD MUCI           R$  000000000093400000000009350000000000927000000000093000000000009300000000000930000000000093200996000000000000011505000000000010709628000000000000009999123100000010000000000000BRGAMECTF002130
012024051012GARE11      010FII GUARDIANCI  ER       R$  000000000090500000000009090000000000903000000000090600000000009090000000000908000000000090931820000000000000432105000000000391806843000000000000009999123100000010000000000000BRGARECTF001103
012024051012GCRI11      010FII GLPG CRICI           R$  000000000861300000000086910000000008613000000000866500000000086540000000008660000000000868800103000000000000001520000000000013171178000000000000009999123100000010000000000000BRGCRICTF008142
012024051012SHPH11      010FII HIGIENOPCI  ER       R$  000000008600000000000879990000000086000000000008674000000000879990000000086999000000008800000024000000000000000064000000000005551375000000000000009999123100000010000000000000BRSHPHCTF008349
012024051012ABCP11      010FII ABC IMOBCI  ER       R$  000000000702800000000070600000000007028000000000704100000000070440000000007042000000000704400055000000000000000221000000000001556245000000000000009999123100000010000000000000BRABCPCTF000338
012024051012BLCA11      010FII BLUE AAACI  ER       R$  000000001061900000000106190000000010472000000001052100000000105990000000010473000000001059900019000000000000000228000000000002398819000000000000009999123100000010000000000000BRBLCACTF009130
012024051012BLMG11      010FII BLUE LOGCI  ER       R$  000000000386900000000038750000000003831000000000385800000000038340000000003834000000000385300372000000000000008995000000000034703595000000000000009999123100000010000000000000BRBLMGCTF005146
012024051012BLMO11      010FII BLUEMAC CI  ER       R$  000000000830100000000086230000000007679000000000822200000000081000000000008100000000000830000026000000000000000172000000000001414218000000000000009999123100000010000000000000BRBLMOCTF009130
012024051012SARE11      010FII SANT RENCI  ER       R$  000000000472500000000048500000000004704000000000478800000000047600000000004760000000000477006998000000000000025385000000000121568362000000000000009999123100000010000000000000BRSARECTF006155
012024051012TVRI11      010FII TIVIO RICI  ER       R$  000000001002100000000100440000000009930000000000996700000000100030000000010001000000001000302434000000000000009588000000000095571196000000000000009999123100000010000000000000BRTVRICTF001107
012024051012BLUR11      010FII BLUE RECCI           R$  000000000920000000000092000000000009200000000000920000000000092000000000008735000000001000000001000000000000000001000000000000009200000000000000009999123100000010000000000000BRBLURCTF005125
012024051012BNFS11      010FII BANRISULCI  ER       R$  000000001158900000000115890000000011430000000001151800000000115550000000011549000000001155500174000000000000001434000000000016517104000000000000009999123100000010000000000000BRBNFSCTF000240
012024051012BTAL11      010FII BTG AGROCI           R$  000000000695000000000070000000000006945000000000697600000000069910000000006983000000000699100649000000000000005201000000000036286462000000000000009999123100000010000000000000BRBTALCTF003138
012024051012BTCI11      010FII BTG CRI CI  ER       R$  000000000101500000000010190000000001011000000000101300000000010130000000001013000000000101412712000000000000193805000000000196487465000000000000009999123100000010000000000000BRBTCICTF005119
012024051012BTHI11      010BTG HOTEL FICI  ER       R$  000000000429000000000043000000000004250000000000429700000000042520000000004251000000000429800011000000000000000322000000000001383881000000000000009999123100000010000000000000BRBTHICTF004108
012024051012BTLG11      010FII BTLG    CI           R$  000000001026200000000102870000000010236000000001025900000000102700000000010270000000001027715894000000000000074212000000000761380070000000000000009999123100000010000000000000BRBTLGCTF000161
012024051012BTRA11      010FII BTG TAGRCI           R$  000000000548100000000056000000000005378000000000556100000000055980000000005535000000000559400843000000000000008259000000000045929203000000000000009999123100000010000000000000BRBTRACTF000135
012024051012PLCR11      010FII PLURAL RCI  ER       R$  000000000872400000000087890000000008622000000000870500000000087250000000008725000000000872801130000000000000005801000000000050502055000000000000009999123100000010000000000000BRPLCRCTF003154
012024051012PMIS11      010FII PMIS    CI  ER       R$  000000000093800000000009380000000000914000000000092300000000009150000000000915000000000092201182000000000000018438000000000017025392000000000000009999123100000010000000000000BRPMISCTF006105
012024051012PORD11      010FII POLO CRICI  ER       R$  000000000089000000000009000000000000880000000000089000000000008980000000000895000000000089804878000000000000139744000000000124462341000000000000009999123100000010000000000000BRPORDCTF005173
012024051012RVBI11      010FII VBI REITCI  ER       R$  000000000779000000000077900000000007715000000000775700000000077780000000007778000000000778803542000000000000016188000000000125578880000000000000009999123100000010000000000000BRRVBICTF009151
012024051012RZAK11      010FII RIZA AKNCI           R$  000000000870800000000087690000000008700000000000873500000000087660000000008750000000000876604429000000000000024463000000000213689512000000000000009999123100000010000000000000BRRZAKCTF008142
012024051012RZAT11      010FII ARCTIUM CI           R$  000000001000900000000100700000000009985000000001003000000000100600000000010050000000001006001660000000000000005193000000000052088546000000000000009999123100000010000000000000BRRZATCTF009115
012024051012RZTR11      010FII RIZA TX CI  ER       R$  000000000969000000000097940000000009690000000000976600000000097940000000009786000000000979409172000000000000040099000000000391639892000000000000009999123100000010000000000000BRRZTRCTF003147
012024051012SADI11      010FII SANT PAPCI  ER       R$  000000000890000000000089250000000008862000000000891100000000089230000000008903000000000892300295000000000000003194000000000028462537000000000000009999123100000010000000000000BRSADICTF007158
012024051012BRCO11      010FII BRESCO  CI  ER       R$  000000001183500000000119780000000011830000000001188700000000118860000000011852000000001188607228000000000000022300000000000265080292000000000000009999123100000010000000000000BRBRCOCTF007156
012024051012BRCR11      010FII BC FUND CI  ER       R$  000000000566900000000057000000000005581000000000566400000000056350000000005635000000000564007635000000000000022319000000000126434166000000000000009999123100000010000000000000BRBRCRCTF000266
012024051012TEPP11      010FII TEL PROPCI  ER       R$  000000000964100000000096730000000009601000000000964500000000096290000000009625000000000962904380000000000000011123000000000107283143000000000000009999123100000010000000000000BRTEPPCTF006149
012024051012TGAR11      010FII TG ATIVOCI  ER       R$  000000001241000000000124430000000012399000000001242300000000124280000000012421000000001242810373000000000000042967000000000533791425000000000000009999123100000010000000000000BRTGARCTF009190
012024051012TJKB11      010FII TJK RENDCI           R$  000000002830000000000283000000000028300000000002830000000000283000000000027051000000000000000002000000000000000013000000000000367900000000000000009999123100000010000000000000BRTJKBCTF006128
012024051012TMPS11      010FII ITAU TEMCI  ER       R$  000000000976100000000099720000000009760000000000981900000000098200000000009774000000000984800072000000000000002191000000000021514929000000000000009999123100000010000000000000BRTMPSCTF003113
012024051012TORD11      010FII TORDE EICI           R$  000000000018200000000001820000000000181000000000018100000000001820000000000181000000000018200400000000000000149565000000000027131666000000000000009999123100000010000000000000BRTORDCTF015138
012024051012URPR11      010FII URCA RENCI  ER       R$  000000000843000000000084500000000008420000000000843600000000084390000000008438000000000843902755000000000000015087000000000127283345000000000000009999123100000010000000000000BRURPRCTF002157
