00COTAHIST.2024BOVESPA 20240412                                                                                                                                                                                                                      
012024041202SRNA3       010SERENA      ON      NM   R$  000000000089500000000008960000000000858000000000087000000000008600000000000860000000000086805368000000000002286700000000001990723700000000000000009999123100000010000000000000BRSRNAACNOR4100
012024041202STBP3       010SANTOS BRP  ON      NM   R$  000000000132600000000013260000000001251000000000127000000000012710000000001266000000000127115182000000000007477600000000009497487500000000000000009999123100000010000000000000BRSTBPACNOR3129
012024041202QUAL3       010QUALICORP   ON      NM   R$  000000000015600000000001580000000000146000000000015000000000001470000000000146000000000014805332000000000007721600000000001161880200000000000000009999123100000010000000000000BRQUALACNOR6119
012024041202RADL3       010RAIADROGASILON  EJ  NM   R$  000000000261100000000026750000000002608000000000264400000000026360000000002632000000000263714665000000000006572900000000017379697000000000000000009999123100000010000000000000BRRADLACNOR0155
012024041202PRNR3       010PRINER      ON      NM   R$  000000000134600000000013480000000001311000000000133100000000013360000000001330000000000133702762000000000000936600000000001247541300000000000000009999123100000010000000000000BRPRNRACNOR4108
012024041202PSSA3       010PORTO SEGUROON      NM   R$  000000000309000000000031180000000003045000000000307400000000030640000000003060000000000306407204000000000001645200000000005058349400000000000000009999123100000010000000000000BRPSSAACNOR7154
012024041202PTBL3       010PORTOBELLO  ON      NM   R$  000000000063500000000006350000000000585000000000059900000000005920000000000591000000000059202732000000000001178300000000000706804500000000000000009999123100000010000000000000BRPTBLACNOR8132
012024041202PTNT3       010PETTENATI   ON           R$  000000000097500000000009900000000000975000000000097800000000009900000000000974000000000098800020000000000000004600000000000004502800000000000000009999123100000010000000000000BRPTNTACNOR6042
012024041202PTNT4       010PETTENATI   PN           R$  000000000077300000000007730000000000750000000000075700000000007600000000000757000000000076100013000000000000005000000000000003786700000000000000009999123100000010000000000000BRPTNTACNPR3047
012024041202SCAR3       010SAO CARLOS  ON      NM   R$  000000000260600000000026080000000002551000000000256900000000025770000000002530000000000258500056000000000000010900000000000028002500000000000000009999123100000010000000000000BRSCARACNOR7130
012024041202SEER3       010SER EDUCA   ON      NM   R$  000000000067600000000006760000000000635000000000064500000000006360000000000635000000000064401826000000000000683200000000000441068700000000000000009999123100000010000000000000BRSEERACNOR5119
012024041202SEQL3       010SEQUOIA LOG ON  ES  NM   R$  000000000003100000000000310000000000028000000000002900000000000290000000000029000000000003002591000000000016884700000000000491451600000000000000009999123100000010000000000000BRSEQLACNOR2102
012024041202SGPS3       010SPRINGS     ON      NM   R$  000000000007800000000000800000000000075000000000007700000000000770000000000076000000000007700306000000000000405500000000000031239600000000000000009999123100000010000000000000BRSGPSACNOR4104
012024041202SHOW3       010TIME FOR FUNON      NM   R$  000000000027500000000002790000000000252000000000026200000000002620000000000261000000000026200553000000000000332200000000000087279800000000000000009999123100000010000000000000BRSHOWACNOR7105
012024041202SHUL4       010SCHULZ      PN           R$  000000000067100000000006710000000000657000000000066300000000006590000000000659000000000066001753000000000000659100000000000437481900000000000000009999123100000010000000000000BRSHULACNPR4155
012024041202SIMH3       010SIMPAR      ON      NM   R$  000000000071500000000007220000000000694000000000070300000000007000000000000700000000000070106621000000000003989700000000002805668900000000000000009999123100000010000000000000BRSIMHACNOR0107
012024041202SLCE3       010SLC AGRICOLAON      NM   R$  000000000187300000000018790000000001840000000000185400000000018500000000001849000000000185010967000000000003987500000000007395016900000000000000009999123100000010000000000000BRSLCEACNOR2124
012024041202VALE3       010VALE        ON      NM   R$  000000000628000000000063380000000006141000000000623800000000061630000000006163000000000616458055000000000025738900000000160567975200000000000000009999123100000010000000000000BRVALEACNOR0210
012024041202ZAMP3       010ZAMP S.A.   ON           R$  000000000033000000000003360000000000312000000000032100000000003200000000000319000000000032305005000000000001666400000000000535673900000000000000009999123100000010000000000000BRZAMPACNOR5100
012024041202SAPR11      010SANEPAR     UNT     N2   R$  000000000254000000000025400000000002490000000000250600000000024970000000002495000000000250003554000000000001110300000000002783290600000000000000009999123100000010000000000000BRSAPRCDAM13117
012024041202SAPR3       010SANEPAR     ON      N2   R$  000000000049000000000004900000000000481000000000048400000000004810000000000481000000000048300849000000000000322000000000000155993500000000000000009999123100000010000000000000BRSAPRACNOR9158
012024041202SAPR4       010SANEPAR     PN      N2   R$  000000000051300000000005130000000000505000000000050700000000005080000000000508000000000050902391000000000002438100000000001238428600000000000000009999123100000010000000000000BRSAPRACNPR6158
012024041202SBFG3       010GRUPO SBF   ON      NM   R$  000000000136000000000013650000000001270000000000129800000000012730000000001272000000000127406065000000000002044300000000002654246700000000000000009999123100000010000000000000BRSBFGACNOR1102
012024041202SBSP3       010SABESP      ON      NM   R$  000000000823100000000082310000000008036000000000810200000000080850000000008084000000000808513188000000000002491700000000020188831700000000000000009999123100000010000000000000BRSBSPACNOR5160
012024041202UNIP5       010UNIPAR      PNA          R$  000000000651100000000065110000000006511000000000651100000000065110000000006402000000000670000001000000000000000100000000000000651100000000000000009999123100000010000000000000BRUNIPACNPA0207
012024041202UNIP6       010UNIPAR      PNB          R$  000000000644400000000064800000000006280000000000633500000000063080000000006298000000000630801595000000000000315300000000001997534000000000000000009999123100000010000000000000BRUNIPACNPB8205
012024041202USIM3       010USIMINAS    ON      N1   R$  000000000095000000000009850000000000940000000000095900000000009460000000000946000000000094701411000000000000384600000000000368952600000000000000009999123100000010000000000000BRUSIMACNOR3166
012024041202USIM5       010USIMINAS    PNA     N1   R$  000000000103600000000010630000000001010000000000103600000000010170000000001015000000000101818821000000000012374300000000012828628900000000000000009999123100000010000000000000BRUSIMACNPA6168
012024041202WEST3       010WESTWING    ON      NM   R$  000000000012700000000001290000000000123000000000012500000000001240000000000123000000000012400109000000000000041300000000000005191200000000000000009999123100000010000000000000BRWESTACNOR3100
012024041202WHRL3       010WHIRLPOOL   ON           R$  000000000049500000000004950000000000485000000000049000000000004850000000000473000000000048500003000000000000000300000000000000147000000000000000009999123100000010000000000000BRWHRLACNOR5128
012024041202WHRL4       010WHIRLPOOL   PN           R$  000000000045800000000004590000000000458000000000045800000000004590000000000457000000000045900002000000000000000200000000000000091700000000000000009999123100000010000000000000BRWHRLACNPR2128
012024041202WIZC3       010WIZ CO      ON      NM   R$  000000000071000000000007320000000000702000000000071400000000007060000000000705000000000070702496000000000000652800000000000466247000000000000000009999123100000010000000000000BRWIZCACNOR5101
012024041202WLMM4       010WLM IND COM PN           R$  000000000260000000000026490000000002600000000000263300000000026490000000002450000000000263000005000000000000000800000000000002107100000000000000009999123100000010000000000000BRWLMMACNPR3117
012024041202YDUQ3       010YDUQS PART  ON      NM   R$  000000000155100000000015520000000001474000000000151200000000014910000000001490000000000149114352000000000006207300000000009391111400000000000000009999123100000010000000000000BRYDUQACNOR3104
012024041202PLPL3       010PLANOEPLANO ON      NM   R$  000000000132700000000013440000000001256000000000128300000000012710000000001270000000000127507009000000000002175200000000002792631500000000000000009999123100000010000000000000BRPLPLACNOR5104
012024041202PNVL3       010DIMED       ON  EJ  NM   R$  000000000120600000000012060000000001181000000000118600000000011890000000001182000000000119001551000000000000271000000000000321659600000000000000009999123100000010000000000000BRPNVLACNOR9206
012024041202POMO3       010MARCOPOLO   ON      N2   R$  000000000058900000000005890000000000553000000000056400000000005580000000000557000000000056404502000000000000862700000000000487200200000000000000009999123100000010000000000000BRPOMOACNOR0097
012024041202POMO4       010MARCOPOLO   PN      N2   R$  000000000076200000000007620000000000700000000000071900000000007180000000000715000000000071813102000000000011157600000000008028042000000000000000009999123100000010000000000000BRPOMOACNPR7097
012024041202TRPL3       010TRAN PAULISTON      N1   R$  000000000340500000000034050000000003347000000000338200000000033810000000003351000000000341000011000000000000001100000000000003721100000000000000009999123100000010000000000000BRTRPLACNOR4185
012024041202TRPL4       010TRAN PAULISTPN      N1   R$  000000000265000000000026640000000002618000000000263800000000026250000000002625000000000263211297000000000004936000000000013022882900000000000000009999123100000010000000000000BRTRPLACNPR1185
012024041202VIVA3       010VIVARA S.A. ON      NM   R$  000000000234100000000023500000000002242000000000227600000000022780000000002266000000000227920486000000000009877200000000022484530400000000000000009999123100000010000000000000BRVIVAACNOR0106
012024041202VIVR3       010VIVER       ON      NM   R$  000000000030700000000003090000000000301000000000030200000000003010000000000301000000000030200120000000000000082900000000000025114600000000000000009999123100000010000000000000BRVIVRACNOR4122
012024041202VIVT3       010TELEF BRASILON  ER       R$  000000000491900000000049300000000004851000000000488500000000049070000000004891000000000490708862000000000001615700000000007893040600000000000000009999123100000010000000000000BRVIVTACNOR0180
012024041202VLID3       010VALID       ON      NM   R$  000000000179200000000017960000000001722000000000174300000000017330000000001732000000000173903372000000000000769700000000001342304200000000000000009999123100000010000000000000BRVLIDACNOR5141
012024041202VSTE3       010VESTE       ON      NM   R$  000000000158100000000016430000000001581000000000161700000000016000000000001593000000000164400011000000000000001200000000000001940400000000000000009999123100000010000000000000BRVSTEACNOR5102
012024041202VULC3       010VULCABRAS   ON      NM   R$  000000000170200000000017020000000001630000000000165100000000016430000000001636000000000164305536000000000001175500000000001940978500000000000000009999123100000010000000000000BRVULCACNOR2158
012024041202VVEO3       010VIVEO       ON      NM   R$  000000000069100000000006970000000000667000000000068100000000006800000000000678000000000068205532000000000001726700000000001177481900000000000000009999123100000010000000000000BRVVEOACNOR0103
012024041202WEGE3       010WEG         ON      NM   R$  000000000380000000000038460000000003767000000000380400000000037980000000003785000000000379817562000000000006023700000000022917740800000000000000009999123100000010000000000000BRWEGEACNOR0222
012024041202CASH3       010MELIUZ      ON      NM   R$  000000000045600000000004580000000000440000000000044600000000004440000000000444000000000044504401000000000001958900000000000874467200000000000000009999123100000010000000000000BRCASHACNOR8106
012024041202CBAV3       010CBA         ON      NM   R$  000000000049200000000004970000000000470000000000048100000000004730000000000473000000000047405594000000000003637500000000001751860000000000000000009999123100000010000000000000BRCBAVACNOR5104
012024041202CCRO3       010CCR SA      ON      NM   R$  000000000135700000000013580000000001319000000000133800000000013310000000001329000000000133212680000000000008934700000000011956047200000000000000009999123100000010000000000000BRCCROACNOR2144
012024041202CEAB3       010CEA MODAS   ON      NM   R$  000000000114600000000011460000000001090000000000111100000000011000000000001099000000000110108890000000000003379500000000003757599700000000000000009999123100000010000000000000BRCEABACNOR1102
012024041202EKTR4       010ELEKTRO     PN           R$  000000000493700000000050000000000004606000000000496100000000046060000000004621000000000490000008000000000000001500000000000007441500000000000000009999123100000010000000000000BREKTRACNPR7160
012024041202ELET3       010ELETROBRAS  ON      N1   R$  000000000390100000000039600000000003856000000000390400000000039020000000003901000000000390829338000000000009449400000000036892012400000000000000009999123100000010000000000000BRELETACNOR6159
012024041202ELET6       010ELETROBRAS  PNB     N1   R$  000000000436400000000044210000000004345000000000437400000000043780000000004377000000000438006785000000000003074000000000013445918900000000000000009999123100000010000000000000BRELETACNPB7076
012024041202GRND3       010GRENDENE    ON      NM   R$  000000000064000000000006400000000000621000000000062800000000006220000000000622000000000062502530000000000001324800000000000832478100000000000000009999123100000010000000000000BRGRNDACNOR3172
012024041202GSHP3       010GENERALSHOPPON           R$  000000000108000000000010800000000001080000000000108000000000010800000000001080000000000128000001000000000000000100000000000000108000000000000000009999123100000010000000000000BRGSHPACNOR7102
012024041202GUAR3       010GUARARAPES  ON      NM   R$  000000000080800000000008080000000000754000000000077300000000007630000000000763000000000076405122000000000002054000000000001588713300000000000000009999123100000010000000000000BRGUARACNOR4172
012024041202ARZZ3       010AREZZO CO   ON      NM   R$  000000000545000000000054610000000005252000000000533500000000052660000000005261000000000526911191000000000002519400000000013441637100000000000000009999123100000010000000000000BRARZZACNOR3146
012024041202CEBR3       010CEB         ON           R$  000000000215800000000021640000000002137000000000214800000000021640000000002126000000000216500025000000000000004900000000000010527500000000000000009999123100000010000000000000BRCEBRACNOR5124
012024041202CEBR5       010CEB         PNA          R$  000000000199100000000020560000000001991000000000204500000000020560000000002000000000000205800013000000000000003200000000000006545300000000000000009999123100000010000000000000BRCEBRACNPA8123
012024041202CEBR6       010CEB         PNB          R$  000000000219900000000021990000000002136000000000217900000000021840000000002151000000000218400027000000000000005600000000000012204400000000000000009999123100000010000000000000BRCEBRACNPB6123
012024041202CEDO4       010CEDRO       PN      N1   R$  000000000296000000000029600000000002750000000000287600000000027500000000002600000000000275000003000000000000001000000000000002876000000000000000009999123100000010000000000000BRCEDOACNPR5128
012024041202CEEB3       010COELBA      ON           R$  000000000396700000000039670000000003950000000000395800000000039500000000003844000000000396300002000000000000000200000000000000791700000000000000009999123100000010000000000000BRCEEBACNOR3197
012024041202CGAS3       010COMGAS      ON  ED       R$  000000001159900000000115990000000011599000000001159900000000115990000000011598000000001199800001000000000000000100000000000001159900000000000000009999123100000010000000000000BRCGASACNOR0163
012024041202CGAS5       010COMGAS      PNA ED       R$  000000001173900000000117390000000011599000000001165100000000116190000000011599000000001160000007000000000000000700000000000008156300000000000000009999123100000010000000000000BRCGASACNPA3160
012024041202CGRA3       010GRAZZIOTIN  ON           R$  000000000271400000000027390000000002690000000000271800000000026900000000002666000000000269900013000000000000001600000000000004348800000000000000009999123100000010000000000000BRCGRAACNOR2081
012024041202CGRA4       010GRAZZIOTIN  PN           R$  000000000284500000000028500000000002830000000000284200000000028400000000002840000000000285000011000000000000001400000000000003978900000000000000009999123100000010000000000000BRCGRAACNPR9081
012024041202ALPK3       010ESTAPAR     ON      NM   R$  000000000046400000000004700000000000439000000000045200000000004390000000000439000000000044500380000000000000117000000000000052969200000000000000009999123100000010000000000000BRALPKACNOR9101
012024041202ALUP11      010ALUPAR      UNT     N2   R$  000000000302400000000030240000000002987000000000300500000000030090000000003007000000000301504459000000000000799800000000002403743600000000000000009999123100000010000000000000BRALUPCDAM15117
012024041202ALUP3       010ALUPAR      ON      N2   R$  000000000102600000000010440000000001020000000000102700000000010320000000001028000000000103500109000000000000013300000000000013664600000000000000009999123100000010000000000000BRALUPACNOR8117
012024041202ALUP4       010ALUPAR      PN      N2   R$  000000000099700000000009980000000000985000000000098900000000009920000000000991000000000099300161000000000000023100000000000022853700000000000000009999123100000010000000000000BRALUPACNPR5117
012024041202AMAR3       010LOJAS MARISAON      NM   R$  000000000016900000000001710000000000157000000000016100000000001570000000000157000000000015802032000000000000642900000000000103627600000000000000009999123100000010000000000000BRAMARACNOR4114
012024041202BBDC3       010BRADESCO    ON      N1   R$  000000000127400000000012740000000001252000000000125700000000012550000000001255000000000125607656000000000004903400000000006168092000000000000000009999123100000010000000000000BRBBDCACNOR1768
012024041202BBDC4       010BRADESCO    PN      N1   R$  000000000143500000000014370000000001413000000000142000000000014210000000001420000000000142124060000000000022530000000000032006540100000000000000009999123100000010000000000000BRBBDCACNPR8768
012024041202BRBI11      010BR PARTNERS UNT     N2   R$  000000000163100000000016310000000001530000000000156400000000015600000000001555000000000156201865000000000000328800000000000514369400000000000000009999123100000010000000000000BRBRBICDAM10108
012024041202BRFS3       010BRF SA      ON      NM   R$  000000000169800000000017000000000001599000000000163700000000016250000000001624000000000162931595000000000012564800000000020573752700000000000000009999123100000010000000000000BRBRFSACNOR8121
012024041202CRPG5       010CRISTAL     PNA          R$  000000000320000000000032480000000003200000000000323700000000032400000000003240000000000324900007000000000000000800000000000002590300000000000000009999123100000010000000000000BRCRPGACNPA3118
012024041202CRPG6       010CRISTAL     PNB          R$  000000000307900000000030800000000003079000000000307900000000030800000000003051000000000308000002000000000000000300000000000000923900000000000000009999123100000010000000000000BRCRPGACNPB1118
012024041202CSAN3       010COSAN       ON      NM   R$  000000000150300000000015330000000001488000000000150700000000014880000000001488000000000149028068000000000016975900000000025593771200000000000000009999123100000010000000000000BRCSANACNOR6124
012024041202CIEL3       010CIELO       ON      NM   R$  000000000054000000000005490000000000536000000000054300000000005470000000000545000000000054714866000000000023026300000000012505399400000000000000009999123100000010000000000000BRCIELACNOR3157
012024041202CLSA3       010CLEARSALE   ON      NM   R$  000000000068700000000006870000000000647000000000066400000000006740000000000673000000000067403981000000000001705100000000001132248600000000000000009999123100000010000000000000BRCLSAACNOR0100
012024041202CLSC3       010CELESC      ON      N2   R$  000000000684000000000068400000000006840000000000684000000000068400000000006403000000000683900001000000000000000600000000000004104000000000000000009999123100000010000000000000BRCLSCACNOR6150
012024041202CLSC4       010CELESC      PN      N2   R$  000000000676000000000067600000000006610000000000666600000000067490000000006730000000000675000027000000000000003400000000000022666000000000000000009999123100000010000000000000BRCLSCACNPR3129
012024041202CMIG3       010CEMIG       ON      N1   R$  000000000151700000000015210000000001486000000000150100000000014860000000001486000000000149600807000000000000152800000000000229381800000000000000009999123100000010000000000000BRCMIGACNOR6240
012024041202CMIG4       010CEMIG       PN      N1   R$  000000000130800000000013160000000001283000000000129400000000012850000000001285000000000128613413000000000008334800000000010790934800000000000000009999123100000010000000000000BRCMIGACNPR3241
012024041202ELMD3       010ELETROMIDIA ON      NM   R$  000000000188500000000018850000000001774000000000180200000000018280000000001780000000000182800458000000000000079300000000000142901400000000000000009999123100000010000000000000BRELMDACNOR3100
012024041202EMAE4       010EMAE        PN  ED       R$  000000000784800000000080500000000007617000000000781400000000077890000000007711000000000779000182000000000000027600000000000215671300000000000000009999123100000010000000000000BREMAEACNPR1125
012024041202ORVR3       010ORIZON      ON      NM   R$  000000000378500000000038050000000003638000000000368000000000036920000000003676000000000369201818000000000000394500000000001452075000000000000000009999123100000010000000000000BRORVRACNOR0101
012024041202PCAR3       010P.ACUCAR-CBDON      NM   R$  000000000025900000000002650000000000250000000000025700000000002550000000000252000000000025508284000000000016663800000000004294252600000000000000009999123100000010000000000000BRPCARACNOR3167
012024041202PETZ3       010PETZ        ON      NM   R$  000000000037400000000003830000000000359000000000036900000000003660000000000365000000000036607929000000000015069500000000005572393000000000000000009999123100000010000000000000BRPETZACNOR2109
012024041202RECV3       010PETRORECSA  ON      NM   R$  000000000219900000000022750000000002149000000000220400000000021520000000002152000000000216112280000000000003911000000000008620975600000000000000009999123100000010000000000000BRRECVACNOR3105
012024041202REDE3       010REDE ENERGIAON           R$  000000000069600000000006990000000000690000000000069300000000006950000000000695000000000069800017000000000000002600000000000001803700000000000000009999123100000010000000000000BRREDEACNOR7127
012024041202RENT3       010LOCALIZA    ON      NM   R$  000000000529200000000053440000000005167000000000524200000000051850000000005182000000000518627843000000000014261200000000074766180400000000000000009999123100000010000000000000BRRENTACNOR4195
012024041202TAEE11      010TAESA       UNT     N2   R$  000000000365100000000036610000000003569000000000360200000000035690000000003566000000000358909197000000000002772400000000009988137900000000000000009999123100000010000000000000BRTAEECDAM10145
012024041202TAEE3       010TAESA       ON      N2   R$  000000000121100000000012120000000001187000000000119500000000011910000000001190000000000119300677000000000000108800000000000130117000000000000000009999123100000010000000000000BRTAEEACNOR9145
012024041202TAEE4       010TAESA       PN      N2   R$  000000000122200000000012240000000001199000000000120700000000012000000000001200000000000120300951000000000000219200000000000264761800000000000000009999123100000010000000000000BRTAEEACNPR6145
012024041202TASA3       010TAURUS ARMASON      N2   R$  000000000135000000000013610000000001330000000000133500000000013310000000001330000000000133100052000000000000008300000000000011085200000000000000009999123100000010000000000000BRTASAACNOR7103
012024041202TASA4       010TAURUS ARMASPN      N2   R$  000000000129900000000012990000000001267000000000127500000000012780000000001274000000000127901629000000000000352400000000000449543100000000000000009999123100000010000000000000BRTASAACNPR4103
012024041202TCSA3       010TECNISA     ON      NM   R$  000000000027300000000002740000000000262000000000026800000000002630000000000262000000000026300267000000000000163400000000000043953200000000000000009999123100000010000000000000BRTCSAACNOR3112
012024041202AERI3       010AERIS       ON      NM   R$  000000000006200000000000620000000000058000000000005900000000000590000000000058000000000005902548000000000003303800000000000195886500000000000000009999123100000010000000000000BRAERIACNOR4101
012024041202AESB3       010AES BRASIL  ON      NM   R$  000000000095600000000009570000000000934000000000094100000000009420000000000941000000000094205071000000000002366300000000002228807800000000000000009999123100000010000000000000BRAESBACNOR7105
012024041202AFLT3       010AFLUENTE T  ON  ED       R$  000000000075000000000007500000000000734000000000074200000000007340000000000741000000000078400002000000000000000200000000000000148400000000000000009999123100000010000000000000BRAFLTACNOR1121
012024041202AGRO3       010BRASILAGRO  ON      NM   R$  000000000252300000000025230000000002461000000000247700000000024750000000002466000000000247502090000000000000330900000000000819922600000000000000009999123100000010000000000000BRAGROACNOR7114
012024041202HYPE3       010HYPERA      ON      NM   R$  000000000301100000000030170000000002974000000000299900000000030050000000003003000000000300810738000000000002849200000000008546736500000000000000009999123100000010000000000000BRHYPEACNOR0139
012024041202JBSS3       010JBS         ON      NM   R$  000000000220500000000022170000000002188000000000220200000000022100000000002208000000000221115026000000000006907200000000015210283800000000000000009999123100000010000000000000BRJBSSACNOR8121
012024041202DXCO3       010DEXCO       ON      NM   R$  000000000075500000000007570000000000725000000000074100000000007280000000000727000000000072807325000000000006412700000000004751950000000000000000009999123100000010000000000000BRDXCOACNOR8105
012024041202JHSF3       010JHSF PART   ON      NM   R$  000000000043900000000004390000000000417000000000042500000000004200000000000419000000000042014614000000000013842400000000005886899900000000000000009999123100000010000000000000BRJHSFACNOR2134
012024041202MRVE3       010MRV         ON      NM   R$  000000000070900000000007090000000000666000000000068100000000006670000000000667000000000066917578000000000025771200000000017559602100000000000000009999123100000010000000000000BRMRVEACNOR2126
012024041202AGXY3       010AGROGALAXY  ON      NM   R$  000000000020100000000002020000000000193000000000019800000000001930000000000193000000000019700519000000000000266000000000000052681500000000000000009999123100000010000000000000BRAGXYACNOR4102
012024041202ALLD3       010ALLIED      ON      NM   R$  000000000099000000000010180000000000963000000000099000000000009750000000000972000000000097500891000000000000294100000000000291175000000000000000009999123100000010000000000000BRALLDACNOR3105
012024041202ALOS3       010ALLOS       ON      NM   R$  000000000232900000000023290000000002268000000000228900000000022840000000002283000000000228516199000000000006335500000000014504115100000000000000009999123100000010000000000000BRALOSACNOR5100
012024041202ALPA3       010ALPARGATAS  ON      N1   R$  000000000095100000000009650000000000951000000000096200000000009640000000000951000000000096500004000000000000000700000000000000673600000000000000009999123100000010000000000000BRALPAACNOR0231
012024041202ALPA4       010ALPARGATAS  PN      N1   R$  000000000092500000000009380000000000919000000000092400000000009250000000000923000000000092605220000000000002644200000000002445875600000000000000009999123100000010000000000000BRALPAACNPR7232
012024041202BLAU3       010BLAU        ON      NM   R$  000000000120000000000012000000000001154000000000117800000000011620000000001162000000000116901461000000000000407900000000000480748900000000000000009999123100000010000000000000BRBLAUACNOR8112
012024041202BMEB4       010MERCANTIL   PN      N1   R$  000000000227900000000022790000000002239000000000225700000000022700000000002250000000000227900046000000000000006900000000000015578300000000000000009999123100000010000000000000BRBMEBACNPR5210
012024041202BMGB4       010BANCO BMG   PN      N1   R$  000000000034300000000003440000000000331000000000033700000000003340000000000334000000000033501039000000000000643000000000000217001100000000000000009999123100000010000000000000BRBMGBACNPR0108
012024041202BMIN4       010MERC INVEST PN           R$  000000000156000000000015600000000001537000000000154800000000015370000000001537000000000158800002000000000000000200000000000000309700000000000000009999123100000010000000000000BRBMINACNPR1176
012024041202BMKS3       010BIC MONARK  ON           R$  000000004348600000000438000000000041000000000004230100000000423000000000041000000000004230000010000000000000000017000000000000719129000000000000009999123100000010000000000000BRBMKSACNOR9165
012024041202CAMB3       010CAMBUCI     ON  EJ       R$  000000000109700000000011010000000001082000000000109400000000010980000000001083000000000109800348000000000000053700000000000058758100000000000000009999123100000010000000000000BRCAMBACNOR4128
012024041202CAML3       010CAMIL       ON      NM   R$  000000000086600000000008660000000000841000000000085200000000008440000000000844000000000084501976000000000000476000000000000405602900000000000000009999123100000010000000000000BRCAMLACNOR3127
012024041202BEES3       010BANESTES    ON           R$  000000000088200000000009080000000000882000000000089500000000008930000000000892000000000089300058000000000000007100000000000006355300000000000000009999123100000010000000000000BRBEESACNOR9389
012024041202B3SA3       010B3          ON      NM   R$  000000000119100000000011990000000001171000000000118100000000011710000000001170000000000117231453000000000038488800000000045458423500000000000000009999123100000010000000000000BRB3SAACNOR6132
012024041202BEEF3       010MINERVA     ON      NM   R$  000000000065000000000006510000000000622000000000063400000000006410000000000640000000000064113791000000000017504300000000011106700200000000000000009999123100000010000000000000BRBEEFACNOR6116
012024041202GEPA4       010GER PARANAP PN           R$  000000000273900000000028200000000002700000000000278000000000027000000000002652000000000275000012000000000000001300000000000003614700000000000000009999123100000010000000000000BRGEPAACNPR9159
012024041202GFSA3       010GAFISA      ON      NM   R$  000000000063600000000006410000000000583000000000060400000000005930000000000593000000000059904869000000000003652900000000002209291600000000000000009999123100000010000000000000BRGFSAACNOR3124
012024041202GGBR3       010GERDAU      ON      N1   R$  000000000205300000000020650000000001987000000000202100000000019910000000001991000000000200300319000000000000063200000000000127755000000000000000009999123100000010000000000000BRGGBRACNOR1190
012024041202GGBR4       010GERDAU      PN      N1   R$  000000000228500000000023020000000002212000000000223700000000022310000000002231000000000223218399000000000011179100000000025012901700000000000000009999123100000010000000000000BRGGBRACNPR8190
012024041202EMBR3       010EMBRAER     ON      NM   R$  000000000322500000000032560000000003162000000000320400000000031760000000003174000000000317613444000000000004227200000000013544551300000000000000009999123100000010000000000000BREMBRACNOR4191
012024041202HBOR3       010HELBOR      ON      NM   R$  000000000028800000000002880000000000275000000000028000000000002770000000000277000000000027900667000000000000621000000000000174279000000000000000009999123100000010000000000000BRHBORACNOR3117
012024041202HBRE3       010HBR REALTY  ON      NM   R$  000000000058700000000005880000000000556000000000056600000000005620000000000557000000000056302699000000000001000700000000000566979300000000000000009999123100000010000000000000BRHBREACNOR4100
012024041202HBSA3       010HIDROVIAS   ON      NM   R$  000000000042100000000004210000000000408000000000041300000000004090000000000408000000000040905355000000000007220400000000002985610500000000000000009999123100000010000000000000BRHBSAACNOR0100
012024041202HBTS5       010HABITASUL   PNA          R$  000000000425000000000042500000000004250000000000425000000000042500000000003500000000000437000001000000000000000100000000000000425000000000000000009999123100000010000000000000BRHBTSACNPA3127
012024041202BEES4       010BANESTES    PN           R$  000000000096000000000009680000000000955000000000096100000000009670000000000959000000000096700005000000000000000700000000000000672700000000000000009999123100000010000000000000BRBEESACNPR6314
012024041202HAGA3       010HAGA S/A    ON           R$  000000000025300000000002580000000000248000000000025300000000002580000000000251000000000025700006000000000000003000000000000000760200000000000000009999123100000010000000000000BRHAGAACNOR7103
012024041202HAGA4       010HAGA S/A    PN           R$  000000000011700000000001180000000000117000000000011700000000001180000000000118000000000012000009000000000000005400000000000000631900000000000000009999123100000010000000000000BRHAGAACNPR4103
012024041202HAPV3       010HAPVIDA     ON      NM   R$  000000000039600000000003960000000000383000000000038800000000003880000000000388000000000038947747000000000076037300000000029537486500000000000000009999123100000010000000000000BRHAPVACNOR4113
012024041202CXSE3       010CAIXA SEGURION      NM   R$  000000000161000000000016250000000001565000000000158500000000015780000000001578000000000157911800000000000003709200000000005880786600000000000000009999123100000010000000000000BRCXSEACNOR7105
012024041202CYRE3       010CYRELA REALTON      NM   R$  000000000237500000000023800000000002266000000000230000000000022720000000002271000000000227314937000000000005182600000000011924272100000000000000009999123100000010000000000000BRCYREACNOR7139
012024041202FRAS3       010FRAS-LE     ON      N1   R$  000000000177100000000017720000000001741000000000175400000000017630000000001753000000000176401495000000000000275200000000000482721000000000000000009999123100000010000000000000BRFRASACNOR0158
012024041202AALR3       010ALLIAR      ON      NM   R$  000000000100700000000010180000000000923000000000097300000000009780000000000978000000000098001955000000000000245000000000000238410300000000000000009999123100000010000000000000BRAALRACNOR6102
012024041202ABCB4       010ABC BRASIL  PN      N2   R$  000000000244700000000024470000000002359000000000239200000000023920000000002391000000000239203113000000000000652700000000001561328700000000000000009999123100000010000000000000BRABCBACNPR4145
012024041202ABEV3       010AMBEV S/A   ON           R$  000000000121600000000012210000000001205000000000121200000000012120000000001212000000000121317217000000000016269700000000019721219500000000000000009999123100000010000000000000BRABEVACNOR1127
012024041202MDNE3       010MOURA DUBEUXON      NM   R$  000000000133500000000013440000000001246000000000127600000000012460000000001246000000000125902599000000000000735700000000000938955400000000000000009999123100000010000000000000BRMDNEACNOR9100
012024041202MEAL3       010IMC S/A     ON      NM   R$  000000000016500000000001650000000000161000000000016200000000001620000000000162000000000016300540000000000001167000000000000189805900000000000000009999123100000010000000000000BRMEALACNOR9105
012024041202MELK3       010MELNICK     ON      NM   R$  000000000049500000000004980000000000475000000000048000000000004780000000000476000000000047800347000000000000221300000000000106409800000000000000009999123100000010000000000000BRMELKACNOR8110
012024041202MERC4       010MERC FINANC PN           R$  000000000070100000000007500000000000700000000000073300000000007500000000000750000000000077100005000000000000000900000000000000660100000000000000009999123100000010000000000000BRMERCACNPR9180
012024041202MGEL4       010MANGELS INDLPN           R$  000000000186100000000018750000000001811000000000185800000000018110000000001825000000000192500010000000000000006500000000000012083300000000000000009999123100000010000000000000BRMGELACNPR3147
012024041202MGLU3       010MAGAZ LUIZA ON      NM   R$  000000000017300000000001730000000000165000000000016800000000001660000000000166000000000016729388000000000088025000000000014795723900000000000000009999123100000010000000000000BRMGLUACNOR2123
012024041202ODPV3       010ODONTOPREV  ON      NM   R$  000000000117000000000011750000000001150000000000116200000000011670000000001162000000000116705814000000000002155600000000002506369200000000000000009999123100000010000000000000BRODPVACNOR4199
012024041202OFSA3       010OUROFINO S/AON      NM   R$  000000000237500000000023750000000002310000000000232000000000023200000000002285000000000232000017000000000000005300000000000012299800000000000000009999123100000010000000000000BROFSAACNOR7117
012024041202ONCO3       010ONCOCLINICASON      NM   R$  000000000080400000000008110000000000785000000000078900000000007880000000000786000000000078808430000000000002968500000000002345027800000000000000009999123100000010000000000000BRONCOACNOR6100
012024041202OPCT3       010OCEANPACT   ON      NM   R$  000000000060800000000006080000000000589000000000059700000000005960000000000590000000000059601655000000000000801000000000000478369000000000000000009999123100000010000000000000BROPCTACNOR0100
012024041202BIOM3       010BIOMM       ON      MA   R$  000000000102500000000010440000000000982000000000101500000000010390000000001021000000000104000845000000000000089500000000000090887700000000000000009999123100000010000000000000BRBIOMACNOR2112
012024041202BRAP3       010BRADESPAR   ON      N1   R$  000000000204300000000020500000000001992000000000201200000000019950000000001995000000000200200408000000000000081700000000000164381900000000000000009999123100000010000000000000BRBRAPACNOR5147
012024041202BRAP4       010BRADESPAR   PN      N1   R$  000000000210400000000021170000000002056000000000208800000000020630000000002062000000000206407418000000000012468300000000026044628900000000000000009999123100000010000000000000BRBRAPACNPR2147
012024041202CPLE3       010COPEL       ON      N2   R$  000000000082900000000008340000000000813000000000082200000000008280000000000826000000000082909276000000000006996800000000005753309700000000000000009999123100000010000000000000BRCPLEACNOR8148
012024041202CPLE5       010COPEL       PNA     N2   R$  000000000199000000000021440000000001990000000000205200000000019910000000001991000000000214300006000000000000000600000000000001231400000000000000009999123100000010000000000000BRCPLEACNPA1146
012024041202CPLE6       010COPEL       PNB     N2   R$  000000000092000000000009370000000000914000000000092200000000009220000000000922000000000092325689000000000017554800000000016191457100000000000000009999123100000010000000000000BRCPLEACNPB9145
012024041202CRFB3       010CARREFOUR BRON      NM   R$  000000000125000000000012500000000001166000000000120100000000012070000000001206000000000121014972000000000009631200000000011573927300000000000000009999123100000010000000000000BRCRFBACNOR2116
012024041202CSUD3       010CSU DIGITAL ON      NM   R$  000000000191000000000019100000000001859000000000189100000000019010000000001891000000000190100350000000000000093500000000000176866400000000000000009999123100000010000000000000BRCSUDACNOR5108
012024041202CTKA4       010KARSTEN     PN           R$  000000000190100000000019010000000001900000000000190000000000019000000000001810000000000190000004000000000000005100000000000009690100000000000000009999123100000010000000000000BRCTKAACNPR7043
012024041202CTNM3       010COTEMINAS   ON           R$  000000000082300000000008790000000000820000000000083300000000008400000000000810000000000084000011000000000000001400000000000001167300000000000000009999123100000010000000000000BRCTNMACNOR9130
012024041202CTNM4       010COTEMINAS   PN           R$  000000000011600000000001160000000000110000000000011300000000001120000000000111000000000011300047000000000000024400000000000002773800000000000000009999123100000010000000000000BRCTNMACNPR6129
012024041202CTSA3       010SANTANENSE  ON           R$  000000000028200000000002850000000000260000000000027000000000002740000000000261000000000027300030000000000000022900000000000006201900000000000000009999123100000010000000000000BRCTSAACNOR3062
012024041202CTSA4       010SANTANENSE  PN           R$  000000000015000000000001500000000000146000000000014700000000001460000000000146000000000014800040000000000000017300000000000002552800000000000000009999123100000010000000000000BRCTSAACNPR0062
012024041202CURY3       010CURY S/A    ON      NM   R$  000000000204000000000020520000000001952000000000197700000000019610000000001950000000000196206462000000000001629400000000003221422700000000000000009999123100000010000000000000BRCURYACNOR3107
012024041202CVCB3       010CVC BRASIL  ON      NM   R$  000000000023500000000002350000000000222000000000022800000000002240000000000223000000000022415895000000000038804500000000008878256600000000000000009999123100000010000000000000BRCVCBACNOR1115
012024041202EZTC3       010EZTEC       ON      NM   R$  000000000151600000000015260000000001436000000000146500000000014400000000001439000000000144108169000000000002884200000000004227940500000000000000009999123100000010000000000000BREZTCACNOR0124
012024041202FESA3       010FERBASA     ON      N1   R$  000000000158900000000015900000000001589000000000158900000000015900000000001500000000000159000002000000000000000500000000000000794900000000000000009999123100000010000000000000BRFESAACNOR8187
012024041202FESA4       010FERBASA     PN      N1   R$  000000000087500000000008820000000000853000000000086400000000008540000000000854000000000085502946000000000000814100000000000703943100000000000000009999123100000010000000000000BRFESAACNPR5083
012024041202FHER3       010FER HERINGERON      NM   R$  000000000052600000000005480000000000526000000000054300000000005460000000000536000000000054500021000000000000006900000000000003753500000000000000009999123100000010000000000000BRFHERACNOR5103
012024041202FIEI3       010FICA        ON           R$  000000000095500000000010000000000000955000000000098000000000010000000000000920000000000100000003000000000000000700000000000000686200000000000000009999123100000010000000000000BRFIEIACNOR2100
012024041202FIQE3       010UNIFIQUE    ON      NM   R$  000000000040000000000004000000000000385000000000039100000000003880000000000387000000000038800959000000000000453300000000000177518400000000000000009999123100000010000000000000BRFIQEACNOR5106
012024041202FLRY3       010FLEURY      ON      NM   R$  000000000148000000000014820000000001460000000000146800000000014720000000001468000000000147307250000000000002501800000000003673796000000000000000009999123100000010000000000000BRFLRYACNOR5138
012024041202BOBR4       010BOMBRIL     PN           R$  000000000021500000000002170000000000215000000000021500000000002150000000000215000000000021600012000000000000004100000000000000884700000000000000009999123100000010000000000000BRBOBRACNPR3128
012024041202BRSR3       010BANRISUL    ON      N1   R$  000000000132800000000013280000000001295000000000131700000000013160000000001315000000000131900041000000000000005800000000000007639800000000000000009999123100000010000000000000BRBRSRACNOR3186
012024041202BRSR6       010BANRISUL    PNB     N1   R$  000000000133300000000013440000000001305000000000131400000000013110000000001310000000000131104016000000000001082200000000001422399500000000000000009999123100000010000000000000BRBRSRACNPB4189
012024041202INEP3       010INEPAR      ON           R$  000000000037800000000003910000000000362000000000037800000000003780000000000378000000000037900288000000000000076200000000000028860800000000000000009999123100000010000000000000BRINEPACNOR1143
012024041202INEP4       010INEPAR      PN           R$  000000000032200000000003270000000000301000000000031500000000003040000000000304000000000030800170000000000000055600000000000017546000000000000000009999123100000010000000000000BRINEPACNPR8143
012024041202INTB3       010INTELBRAS   ON      NM   R$  000000000189700000000019000000000001828000000000184700000000018400000000001840000000000185303681000000000001238800000000002288783800000000000000009999123100000010000000000000BRINTBACNOR9111
012024041202IRBR3       010IRBBRASIL REON      NM   R$  000000000405000000000040680000000003960000000000400300000000040140000000003997000000000401404630000000000001064300000000004260510000000000000000009999123100000010000000000000BRIRBRACNOR4111
012024041202LUPA3       010LUPATECH    ON      NM   R$  000000000017100000000001720000000000166000000000016800000000001660000000000166000000000016900875000000000000278100000000000046961500000000000000009999123100000010000000000000BRLUPAACNOR8112
012024041202LVTC3       010WDC NETWORKSON      NM   R$  000000000038500000000003850000000000378000000000038100000000003790000000000378000000000038100031000000000000003600000000000001371700000000000000009999123100000010000000000000BRLVTCACNOR4102
012024041202LWSA3       010LWSA        ON      NM   R$  000000000054300000000005430000000000508000000000052000000000005210000000000520000000000052112011000000000010346900000000005381616200000000000000009999123100000010000000000000BRLWSAACNOR8103
012024041202BGIP4       010BANESE      PN           R$  000000000229100000000023000000000002290000000000229000000000022900000000002290000000000270000006000000000000002300000000000005268200000000000000009999123100000010000000000000BRBGIPACNPR8208
012024041202BHIA3       010CASAS BAHIA ON      NM   R$  000000000070100000000007030000000000667000000000068300000000006860000000000685000000000068707296000000000006213100000000004248200200000000000000009999123100000010000000000000BRBHIAACNOR1101
012024041202BPAN4       010BANCO PAN   PN      N1   R$  000000000092900000000009370000000000909000000000092800000000009360000000000930000000000093606421000000000003865000000000003587815800000000000000009999123100000010000000000000BRBPANACNPR1115
012024041202EALT4       010ACO ALTONA  PN           R$  000000000106500000000010690000000001040000000000105100000000010420000000001042000000000104900046000000000000014700000000000015450100000000000000009999123100000010000000000000BREALTACNPR1137
012024041202ECOR3       010ECORODOVIAS ON      NM   R$  000000000078900000000007900000000000754000000000076600000000007640000000000764000000000076906154000000000004472600000000003426963500000000000000009999123100000010000000000000BRECORACNOR8119
012024041202EGIE3       010ENGIE BRASILON      NM   R$  000000000410500000000041070000000004068000000000408800000000040820000000004082000000000408406421000000000001286000000000005257764100000000000000009999123100000010000000000000BREGIEACNOR9125
012024041202GGPS3       010GPS         ON  ED  NM   R$  000000000201800000000020290000000001950000000000197500000000019740000000001974000000000197511100000000000003524400000000006963139000000000000000009999123100000010000000000000BRGGPSACNOR9103
012024041202GMAT3       010GRUPO MATEUSON      NM   R$  000000000082300000000008230000000000788000000000080100000000007980000000000797000000000079810690000000000005413800000000004338206700000000000000009999123100000010000000000000BRGMATACNOR7101
012024041202ITSA3       010ITAUSA      ON      N1   R$  000000000099900000000009990000000000987000000000099000000000009950000000000993000000000099500423000000000000088700000000000087894400000000000000009999123100000010000000000000BRITSAACNOR0439
012024041202ITSA4       010ITAUSA      PN      N1   R$  000000000099700000000009980000000000986000000000098900000000009900000000000990000000000099118585000000000012318400000000012184360300000000000000009999123100000010000000000000BRITSAACNPR7439
012024041202JALL3       010JALLESMACHADON      NM   R$  000000000075900000000007600000000000732000000000074100000000007320000000000732000000000073303289000000000001452400000000001076409000000000000000009999123100000010000000000000BRJALLACNOR0105
012024041202MILS3       010MILLS       ON      NM   R$  000000000132500000000013250000000001296000000000131100000000013220000000001310000000000132203334000000000001175800000000001542335800000000000000009999123100000010000000000000BRMILSACNOR2125
012024041202MLAS3       010MULTILASER  ON      NM   R$  000000000023800000000002400000000000221000000000023000000000002290000000000228000000000022903837000000000003926400000000000904235800000000000000009999123100000010000000000000BRMLASACNOR9101
012024041202MNDL3       010MUNDIAL     ON           R$  000000000471300000000047130000000004693000000000470300000000046930000000004471000000000470400002000000000000000200000000000000940600000000000000009999123100000010000000000000BRMNDLACNOR4107
012024041202MNPR3       010MINUPAR     ON           R$  000000000186300000000019310000000001863000000000189500000000019310000000001850000000000194000017000000000000002600000000000004927000000000000000009999123100000010000000000000BRMNPRACNOR5122
012024041202MOVI3       010MOVIDA      ON      NM   R$  000000000080700000000008140000000000769000000000078200000000007800000000000779000000000078008226000000000004923900000000003854786400000000000000009999123100000010000000000000BRMOVIACNOR0122
012024041202MRFG3       010MARFRIG     ON      NM   R$  000000000103900000000010390000000000992000000000100800000000009950000000000995000000000099613086000000000005409300000000005452976400000000000000009999123100000010000000000000BRMRFGACNOR0116
012024041202BSLI3       010BRB BANCO   ON           R$  000000000099100000000009910000000000951000000000095700000000009510000000000926000000000095000002000000000000000600000000000000574600000000000000009999123100000010000000000000BRBSLIACNOR5192
012024041202GOAU3       010GERDAU MET  ON      N1   R$  000000000108900000000010970000000001068000000000107600000000010760000000001066000000000107600272000000000000037000000000000039837500000000000000009999123100000010000000000000BRGOAUACNOR1266
012024041202GOAU4       010GERDAU MET  PN      N1   R$  000000000107500000000010760000000001046000000000105600000000010510000000001050000000000105110486000000000007389600000000007804793700000000000000009999123100000010000000000000BRGOAUACNPR8267
012024041202COCE5       010COELCE      PNA          R$  000000000345900000000035230000000003450000000000348000000000034830000000003483000000000355000109000000000000015200000000000052905500000000000000009999123100000010000000000000BRCOCEACNPA3146
012024041202COGN3       010COGNA ON    ON      NM   R$  000000000022800000000002290000000000219000000000022400000000002190000000000219000000000022015184000000000037607900000000008445647100000000000000009999123100000010000000000000BRCOGNACNOR2104
012024041202ENAT3       010ENAUTA PART ON      NM   R$  000000000291200000000029290000000002746000000000281800000000027600000000002757000000000276012738000000000004262500000000012015200400000000000000009999123100000010000000000000BRENATACNOR0104
012024041202ENEV3       010ENEVA       ON      NM   R$  000000000125700000000012720000000001239000000000125200000000012530000000001252000000000125315769000000000007501000000000009398743600000000000000009999123100000010000000000000BRENEVACNOR8105
012024041202JSLG3       010JSL         ON      NM   R$  000000000130700000000013230000000001296000000000130500000000013150000000001305000000000131502046000000000000402500000000000525499100000000000000009999123100000010000000000000BRJSLGACNOR2121
012024041202KEPL3       010KEPLER WEBERON  ED  NM   R$  000000000105500000000010580000000000986000000000100600000000009900000000000990000000000099804843000000000001711600000000001723448300000000000000009999123100000010000000000000BRKEPLACNOR1062
012024041202KLBN11      010KLABIN S/A  UNT     N2   R$  000000000250400000000025280000000002487000000000250300000000024930000000002492000000000249510029000000000003018000000000007556163000000000000000009999123100000010000000000000BRKLBNCDAM18140
012024041202KLBN3       010KLABIN S/A  ON      N2   R$  000000000050100000000005040000000000495000000000049900000000004950000000000495000000000049800534000000000000266500000000000133107500000000000000009999123100000010000000000000BRKLBNACNOR2168
012024041202KLBN4       010KLABIN S/A  PN      N2   R$  000000000050000000000005050000000000497000000000050000000000004980000000000498000000000049901211000000000000794100000000000397604900000000000000009999123100000010000000000000BRKLBNACNPR9168
012024041202MTRE3       010MITRE REALTYON      NM   R$  000000000049100000000004960000000000473000000000048300000000004730000000000473000000000047403565000000000002785800000000001346046200000000000000009999123100000010000000000000BRMTREACNOR6109
012024041202MTSA4       010METISA      PN           R$  000000000491700000000049200000000004880000000000491200000000048800000000004822000000000488000004000000000000000700000000000003438900000000000000009999123100000010000000000000BRMTSAACNPR9071
012024041202MULT3       010MULTIPLAN   ON  EJ  N2   R$  000000000253500000000025470000000002464000000000249700000000024640000000002464000000000247622392000000000004517500000000011281343500000000000000009999123100000010000000000000BRMULTACNOR5138
012024041202MWET4       010WETZEL S/A  PN           R$  000000000055100000000005510000000000549000000000055000000000005490000000000547000000000055900003000000000000000400000000000000220100000000000000009999123100000010000000000000BRMWETACNPR3118
012024041202MYPK3       010IOCHP-MAXIONON      NM   R$  000000000137600000000013810000000001332000000000134200000000013320000000001332000000000134004638000000000001007600000000001353018900000000000000009999123100000010000000000000BRMYPKACNOR7154
012024041202AMBP3       010AMBIPAR     ON      NM   R$  000000000130600000000013110000000001225000000000125500000000012250000000001225000000000122604156000000000001465500000000001840318400000000000000009999123100000010000000000000BRAMBPACNOR6103
012024041202ANIM3       010ANIMA       ON      NM   R$  000000000045600000000004560000000000412000000000042400000000004170000000000417000000000041812455000000000012494900000000005304771800000000000000009999123100000010000000000000BRANIMACNOR6107
012024041202APER3       010ALPER S.A.  ON           R$  000000000428600000000042860000000004286000000000428600000000042860000000004283000000000429900001000000000000000100000000000000428600000000000000009999123100000010000000000000BRAPERACNOR9106
012024041202ARML3       010ARMAC       ON  EJ  NM   R$  000000000119200000000011920000000001114000000000112900000000011200000000001120000000000112204225000000000000841300000000000949887400000000000000009999123100000010000000000000BRARMLACNOR1111
012024041202BMOB3       010BEMOBI TECH ON      NM   R$  000000000130800000000013100000000001279000000000129700000000012900000000001285000000000129001681000000000000482300000000000625608500000000000000009999123100000010000000000000BRBMOBACNOR7103
012024041202BNBR3       010NORD BRASIL ON           R$  000000001066000000000106600000000010400000000001059000000000104000000000010150000000001065000004000000000000000400000000000004236000000000000000009999123100000010000000000000BRBNBRACNOR8207
012024041202BRIT3       010BRISANET    ON      NM   R$  000000000042800000000004280000000000407000000000041400000000004070000000000406000000000041000538000000000000432300000000000179143200000000000000009999123100000010000000000000BRBRITACNOR0102
012024041202BRKM3       010BRASKEM     ON      N1   R$  000000000236100000000023610000000002296000000000232000000000023150000000002305000000000231500020000000000000002100000000000004872000000000000000009999123100000010000000000000BRBRKMACNOR1119
012024041202BRKM5       010BRASKEM     PNA     N1   R$  000000000245300000000024530000000002366000000000239400000000023770000000002376000000000237807696000000000002634700000000006307915700000000000000009999123100000010000000000000BRBRKMACNPA4121
012024041202DASA3       010DASA        ON      NM   R$  000000000053600000000005360000000000488000000000049900000000004890000000000489000000000049002394000000000000583000000000000291488400000000000000009999123100000010000000000000BRDASAACNOR1122
012024041202DESK3       010DESKTOP     ON      NM   R$  000000000148300000000014830000000001413000000000143400000000014290000000001416000000000143000564000000000000114700000000000164553500000000000000009999123100000010000000000000BRDESKACNOR2103
012024041202DEXP3       010DEXXOS PAR  ON      N1   R$  000000000114200000000011440000000001119000000000112700000000011190000000001118000000000113300405000000000000062400000000000070383700000000000000009999123100000010000000000000BRDEXPACNOR1104
012024041202DEXP4       010DEXXOS PAR  PN      N1   R$  000000000109300000000010930000000001092000000000109200000000010920000000001080000000000110700002000000000000000200000000000000218500000000000000009999123100000010000000000000BRDEXPACNPR8104
012024041202DIRR3       010DIRECIONAL  ON      NM   R$  000000000251200000000025180000000002334000000000241200000000023610000000002343000000000236315592000000000003933400000000009488393700000000000000009999123100000010000000000000BRDIRRACNOR0117
012024041202DMVF3       010D1000VFARMA ON      NM   R$  000000000068900000000007000000000000685000000000069400000000006980000000000691000000000069800431000000000000127500000000000088549300000000000000009999123100000010000000000000BRDMVFACNOR9100
012024041202DOHL4       010DOHLER      PN           R$  000000000043700000000004490000000000436000000000044000000000004490000000000436000000000044900004000000000000000800000000000000352600000000000000009999123100000010000000000000BRDOHLACNPR9066
012024041202DOTZ3       010DOTZ SA     ON      NM   R$  000000000059600000000006050000000000539000000000055900000000005600000000000548000000000056300119000000000000031600000000000017679600000000000000009999123100000010000000000000BRDOTZACNOR7101
012024041202MAPT4       010CEMEPE      PN           R$  000000000059100000000005940000000000547000000000058100000000005470000000000512000000000058000003000000000000000400000000000000232600000000000000009999123100000010000000000000BRMAPTACNPR5106
012024041202MATD3       010MATER DEI   ON      NM   R$  000000000056100000000005810000000000560000000000057400000000005810000000000570000000000058103682000000000000968500000000000556113900000000000000009999123100000010000000000000BRMATDACNOR4103
012024041202MBLY3       010MOBLY       ON      NM   R$  000000000023200000000002320000000000212000000000021800000000002160000000000216000000000021901773000000000000562300000000000122730600000000000000009999123100000010000000000000BRMBLYACNOR5100
012024041202MDIA3       010M.DIASBRANCOON      NM   R$  000000000356000000000035600000000003458000000000349000000000034940000000003485000000000349504504000000000000923600000000003224110200000000000000009999123100000010000000000000BRMDIAACNOR7134
012024041202ITUB3       010ITAUUNIBANCOON      N1   R$  000000000284400000000028520000000002809000000000281800000000028200000000002820000000000282200949000000000000263400000000000742508800000000000000009999123100000010000000000000BRITUBACNOR4334
012024041202ITUB4       010ITAUUNIBANCOPN      N1   R$  000000000327000000000032730000000003239000000000325100000000032460000000003245000000000325336799000000000022807700000000074151245000000000000000009999123100000010000000000000BRITUBACNPR1334
012024041202BAHI3       010BAHEMA      ON      MA   R$  000000000085800000000008580000000000800000000000081200000000008300000000000795000000000085500013000000000000004000000000000003250100000000000000009999123100000010000000000000BRBAHIACNOR1074
012024041202BALM3       010BAUMER      ON           R$  000000000120000000000012000000000001200000000000120000000000012000000000000992000000000120000001000000000000000100000000000000120000000000000000009999123100000010000000000000BRBALMACNOR5055
012024041202BAUH4       010EXCELSIOR   PN           R$  000000000777200000000078700000000007772000000000783700000000078700000000000000000000000787700003000000000000000300000000000002351200000000000000009999123100000010000000000000BRBAUHACNPR3117
012024041202BAZA3       010AMAZONIA    ON           R$  000000001069600000000106960000000010459000000001054300000000104590000000010402000000001046000018000000000000002100000000000022142100000000000000009999123100000010000000000000BRBAZAACNOR0178
012024041202BBAS3       010BRASIL      ON      NM   R$  000000000577400000000057850000000005682000000000571500000000056990000000005699000000000570018596000000000005651800000000032303504900000000000000009999123100000010000000000000BRBBASACNOR3321
012024041202PORT3       010WILSON SONS ON      NM   R$  000000000174000000000017400000000001704000000000171600000000017140000000001705000000000171503406000000000001094800000000001879560200000000000000009999123100000010000000000000BRPORTACNOR8106
012024041202POSI3       010POSITIVO TECON      NM   R$  000000000099500000000009980000000000958000000000097400000000009740000000000973000000000097403172000000000001325400000000001290947800000000000000009999123100000010000000000000BRPOSIACNOR9115
012024041202PRIO3       010PETRORIO    ON      NM   R$  000000000516100000000052130000000005044000000000512700000000050860000000005086000000000508947630000000000016506000000000084641310300000000000000009999123100000010000000000000BRPRIOACNOR1106
012024041202RSUL4       010RIOSULENSE  PN           R$  000000000820000000000082000000000008200000000000820000000000082000000000007440000000000820000001000000000000000100000000000000820000000000000000009999123100000010000000000000BRRSULACNPR3113
012024041202BPAC11      010BTGP BANCO  UNT     N2   R$  000000000348500000000034850000000003401000000000342300000000034300000000003428000000000343019754000000000007707100000000026383820000000000000000009999123100000010000000000000BRBPACUNT006118
012024041202BPAC3       010BTGP BANCO  ON      N2   R$  000000000171700000000017300000000001705000000000171200000000017050000000001705000000000174600030000000000000003200000000000005479100000000000000009999123100000010000000000000BRBPACACNOR7133
012024041202BPAC5       010BTGP BANCO  PNA     N2   R$  000000000086900000000008710000000000845000000000085600000000008590000000000850000000000085900040000000000000005800000000000004964900000000000000009999123100000010000000000000BRBPACACNPA0133
012024041202CPFE3       010CPFL ENERGIAON      NM   R$  000000000352900000000035320000000003505000000000351700000000035120000000003511000000000352104676000000000000965700000000003396934700000000000000009999123100000010000000000000BRCPFEACNOR0136
012024041202CSED3       010CRUZEIRO EDUON      NM   R$  000000000043000000000004320000000000411000000000041800000000004120000000000411000000000041200848000000000000260700000000000109195200000000000000009999123100000010000000000000BRCSEDACNOR9104
012024041202CSMG3       010COPASA      ON      NM   R$  000000000220000000000022040000000002101000000000212300000000021100000000002108000000000211005203000000000001245200000000002644039400000000000000009999123100000010000000000000BRCSMGACNOR5172
012024041202CSNA3       010SID NACIONALON           R$  000000000145000000000014850000000001434000000000145300000000014350000000001435000000000143613685000000000007182200000000010439018700000000000000009999123100000010000000000000BRCSNAACNOR6260
012024041202ENGI11      010ENERGISA    UNT     N2   R$  000000000474700000000047630000000004659000000000469000000000046850000000004681000000000469810237000000000002429000000000011392964200000000000000009999123100000010000000000000BRENGICDAM16135
012024041202ENGI3       010ENERGISA    ON      N2   R$  000000000151500000000015310000000001496000000000151300000000015230000000001498000000000152000034000000000000003500000000000005296200000000000000009999123100000010000000000000BRENGIACNOR0145
012024041202ENGI4       010ENERGISA    PN      N2   R$  000000000080000000000008030000000000786000000000079500000000007990000000000791000000000079900067000000000000017900000000000014231500000000000000009999123100000010000000000000BRENGIACNPR7141
012024041202ENJU3       010ENJOEI      ON      NM   R$  000000000019300000000001950000000000185000000000018800000000001870000000000187000000000018800946000000000000704100000000000132423000000000000000009999123100000010000000000000BRENJUACNOR9100
012024041202ENMT3       010ENERGISA MT ON           R$  000000000740100000000075500000000007400000000000748700000000075490000000007002000000000787000013000000000000001400000000000010481800000000000000009999123100000010000000000000BRENMTACNOR5120
012024041202EPAR3       010EMBPAR S/A  ON           R$  000000000077900000000007800000000000766000000000077700000000007690000000000768000000000077600016000000000000002800000000000002176300000000000000009999123100000010000000000000BREPARACNOR9104
012024041202EQPA3       010EQTL PARA   ON           R$  000000000080200000000008050000000000795000000000080000000000008000000000000796000000000080000015000000000000004200000000000003362100000000000000009999123100000010000000000000BREQPAACNOR1110
012024041202EQTL3       010EQUATORIAL  ON      NM   R$  000000000316100000000031850000000003147000000000316400000000031640000000003163000000000316519405000000000005813700000000018399172400000000000000009999123100000010000000000000BREQTLACNOR0129
012024041202ESPA3       010ESPACOLASER ON      NM   R$  000000000009800000000000980000000000095000000000009600000000000960000000000096000000000009700899000000000001083600000000000104905200000000000000009999123100000010000000000000BRESPAACNOR7103
012024041202SANB11      010SANTANDER BRUNT          R$  000000000273200000000027320000000002697000000000271000000000027050000000002704000000000271006962000000000001448500000000003926200100000000000000009999123100000010000000000000BRSANBCDAM13163
012024041202SANB3       010SANTANDER BRON           R$  000000000129300000000012930000000001267000000000127500000000012750000000001275000000000127801481000000000000269200000000000343237900000000000000009999123100000010000000000000BRSANBACNOR8170
012024041202SANB4       010SANTANDER BRPN           R$  000000000145800000000014580000000001433000000000143900000000014350000000001435000000000144701551000000000000276500000000000397892900000000000000009999123100000010000000000000BRSANBACNPR5170
012024041202EUCA3       010EUCATEX     ON      N1   R$  000000000175700000000017590000000001750000000000175200000000017580000000001700000000000175800013000000000000002100000000000003679400000000000000009999123100000010000000000000BREUCAACNOR1157
012024041202EUCA4       010EUCATEX     PN      N1   R$  000000000174100000000017410000000001668000000000169800000000017120000000001705000000000171200530000000000000088200000000000149791300000000000000009999123100000010000000000000BREUCAACNPR8044
012024041202EVEN3       010EVEN        ON      NM   R$  000000000078600000000007860000000000758000000000077100000000007600000000000759000000000076004118000000000001490900000000001149664700000000000000009999123100000010000000000000BREVENACNOR8118
012024041202TTEN3       0103TENTOS     ON      NM   R$  000000000104500000000010450000000001006000000000101700000000010210000000001020000000000102204664000000000000836200000000000851029900000000000000009999123100000010000000000000BRTTENACNOR0103
012024041202TUPY3       010TUPY        ON      NM   R$  000000000285000000000028500000000002733000000000276500000000027440000000002740000000000275303600000000000000653200000000001806118400000000000000009999123100000010000000000000BRTUPYACNOR1183
012024041202UCAS3       010UNICASA     ON      NM   R$  000000000025200000000002530000000000247000000000025000000000002500000000000248000000000025000101000000000000043700000000000010930900000000000000009999123100000010000000000000BRUCASACNOR1113
012024041202UGPA3       010ULTRAPAR    ON      NM   R$  000000000274600000000027740000000002677000000000271100000000026920000000002690000000000269415803000000000004500000000000012200064100000000000000009999123100000010000000000000BRUGPAACNOR8155
012024041202IFCM3       010INFRACOMM   ON      NM   R$  000000000008500000000000860000000000077000000000008000000000000780000000000078000000000007904018000000000014395900000000001162313400000000000000009999123100000010000000000000BRIFCMACNOR8101
012024041202IGTI11      010IGUATEMI S.AUNT     N1   R$  000000000226700000000022920000000002211000000000223700000000022260000000002225000000000222613651000000000003150400000000007047552900000000000000009999123100000010000000000000BRIGTICDAM16105
012024041202IGTI3       010IGUATEMI S.AON      N1   R$  000000000031900000000003190000000000314000000000031500000000003140000000000314000000000031700142000000000000040100000000000012663000000000000000009999123100000010000000000000BRIGTIACNOR8105
012024041202UNIP3       010UNIPAR      ON           R$  000000000615200000000061520000000006001000000000602400000000060010000000006001000000000602100113000000000000013200000000000079529000000000000000009999123100000010000000000000BRUNIPACNOR7205
012024041202PDGR3       010PDG REALT   ON      NM   R$  000000000003000000000000300000000000028000000000002800000000000280000000000028000000000002900335000000000001548500000000000044761700000000000000009999123100000010000000000000BRPDGRACNOR8118
012024041202PDTC3       010PADTEC      ON      NM   R$  000000000024700000000002490000000000240000000000024300000000002400000000000240000000000024700149000000000000080600000000000019648300000000000000009999123100000010000000000000BRPDTCACNOR3100
012024041202PEAB4       010PAR AL BAHIAPN           R$  000000000461200000000046120000000004526000000000457500000000045260000000004528000000000476900003000000000000000700000000000003202600000000000000009999123100000010000000000000BRPEABACNPR0132
012024041202PETR3       010PETROBRAS   ON      N2   R$  000000000410000000000041430000000003997000000000405900000000040300000000004029000000000403021764000000000010318000000000041888466100000000000000009999123100000010000000000000BRPETRACNOR9202
012024041202PETR4       010PETROBRAS   PN      N2   R$  000000000397200000000040050000000003870000000000393100000000038940000000003892000000000389549244000000000039605200000000155689226900000000000000009999123100000010000000000000BRPETRACNPR6210
012024041202PFRM3       010PROFARMA    ON      NM   R$  000000000055300000000005580000000000524000000000053500000000005380000000000535000000000053800783000000000000320500000000000171670600000000000000009999123100000010000000000000BRPFRMACNOR1116
012024041202PGMN3       010PAGUE MENOS ON      NM   R$  000000000026700000000002670000000000257000000000026000000000002600000000000259000000000026101777000000000001036200000000000269681000000000000000009999123100000010000000000000BRPGMNACNOR8103
012024041202KRSA3       010KORA SAUDE  ON      NM   R$  000000000007300000000000760000000000071000000000007200000000000720000000000072000000000007300306000000000000857500000000000062465100000000000000009999123100000010000000000000BRKRSAACNOR0100
012024041202PINE3       010PINE        ON  EJ  N2   R$  000000000072700000000007270000000000700000000000071900000000007000000000000690000000000072000004000000000000001900000000000001367800000000000000009999123100000010000000000000BRPINEACNOR1149
012024041202PINE4       010PINE        PN  EJ  N2   R$  000000000044500000000004450000000000428000000000043600000000004380000000000433000000000043800445000000000000239200000000000104525100000000000000009999123100000010000000000000BRPINEACNPR8149
012024041202PLAS3       010PLASCAR PARTON           R$  000000000071300000000007290000000000703000000000071100000000007290000000000703000000000073000009000000000000001000000000000000711600000000000000009999123100000010000000000000BRPLASACNOR2106
012024041202LAND3       010TERRASANTAPAON      NM   R$  000000000142600000000014380000000001356000000000139500000000014300000000001385000000000143000589000000000000108000000000000150742000000000000000009999123100000010000000000000BRLANDACNOR9102
012024041202LAVV3       010LAVVI       ON      NM   R$  000000000091300000000009170000000000885000000000089600000000008870000000000886000000000089302250000000000000587200000000000526310100000000000000009999123100000010000000000000BRLAVVACNOR4111
012024041202LEVE3       010METAL LEVE  ON      NM   R$  000000000352400000000035420000000003420000000000345900000000034240000000003424000000000344402204000000000000410200000000001419253100000000000000009999123100000010000000000000BRLEVEACNOR2196
012024041202LIPR3       010ELETROPAR   ON           R$  000000000519000000000051900000000005190000000000519000000000051900000000005020000000000519000001000000000000000100000000000000519000000000000000009999123100000010000000000000BRLIPRACNOR7121
012024041202LJQQ3       010QUERO-QUERO ON      NM   R$  000000000054500000000005450000000000507000000000051700000000005140000000000508000000000051404570000000000002200500000000001138973300000000000000009999123100000010000000000000BRLJQQACNOR5104
012024041202LOGG3       010LOG COM PROPON      NM   R$  000000000229200000000022920000000002202000000000223200000000022270000000002227000000000223102265000000000000328900000000000734272100000000000000009999123100000010000000000000BRLOGGACNOR7107
012024041202LOGN3       010LOG-IN      ON      NM   R$  000000000373600000000037770000000003605000000000367100000000036300000000003630000000000367900305000000000000044700000000000164096300000000000000009999123100000010000000000000BRLOGNACNOR3105
012024041202ROMI3       010ROMI        ON      NM   R$  000000000123900000000012390000000001202000000000121400000000012070000000001207000000000121201265000000000000283400000000000344066400000000000000009999123100000010000000000000BRROMIACNOR8194
012024041202RPAD3       010ALFA HOLDINGON           R$  000000000084300000000008430000000000843000000000084300000000008430000000000843000000000089700003000000000000011000000000000009273000000000000000009999123100000010000000000000BRRPADACNOR1198
012024041202RPAD5       010ALFA HOLDINGPNA          R$  000000000083500000000008350000000000835000000000083500000000008350000000000790000000000083500001000000000000000100000000000000083500000000000000009999123100000010000000000000BRRPADACNPA4218
012024041202RPAD6       010ALFA HOLDINGPNB          R$  000000000084300000000008430000000000843000000000084300000000008430000000000843000000000084900012000000000000021600000000000018208800000000000000009999123100000010000000000000BRRPADACNPB2198
012024041202RRRP3       0103R PETROLEUMON      NM   R$  000000000366000000000036700000000003474000000000355000000000035050000000003505000000000350615542000000000004957900000000017603908900000000000000009999123100000010000000000000BRRRRPACNOR5102
012024041202TFCO4       010TRACK FIELD PN      N2   R$  000000000119200000000011940000000001160000000000116500000000011630000000001162000000000116301042000000000000488700000000000569767800000000000000009999123100000010000000000000BRTFCOACNPR8112
012024041202LPSB3       010LOPES BRASILON      NM   R$  000000000021100000000002120000000000200000000000020400000000002030000000000203000000000020600448000000000000300500000000000061460800000000000000009999123100000010000000000000BRLPSBACNOR0113
012024041202LREN3       010LOJAS RENNERON      NM   R$  000000000165400000000016630000000001601000000000161800000000016060000000001606000000000161218360000000000015328800000000024804230700000000000000009999123100000010000000000000BRLRENACNOR1220
012024041202ASAI3       010ASSAI       ON      NM   R$  000000000140400000000014270000000001394000000000140700000000013980000000001398000000000140015130000000000008459200000000011906517500000000000000009999123100000010000000000000BRASAIACNOR0106
012024041202ATOM3       010ATOMPAR     ON           R$  000000000020600000000002400000000000205000000000022100000000002070000000000207000000000021400567000000000000267000000000000059241600000000000000009999123100000010000000000000BRATOMACNOR1106
012024041202AURE3       010AUREN       ON      NM   R$  000000000119800000000012040000000001191000000000119400000000011930000000001192000000000119304408000000000001969300000000002353087600000000000000009999123100000010000000000000BRAUREACNOR9104
012024041202AVLL3       010ALPHAVILLE  ON      NM   R$  000000000038100000000003860000000000381000000000038500000000003860000000000366000000000038700003000000000000012000000000000004630000000000000000009999123100000010000000000000BRAVLLACNOR5103
012024041202TGMA3       010TEGMA       ON  EDJ NM   R$  000000000260400000000026150000000002493000000000251600000000025090000000002507000000000251701915000000000000418400000000001053074800000000000000009999123100000010000000000000BRTGMAACNOR7144
012024041202TIMS3       010TIM         ON  ED  NM   R$  000000000174000000000017400000000001703000000000171900000000017270000000001726000000000172812288000000000007144800000000012284670300000000000000009999123100000010000000000000BRTIMSACNOR5116
012024041202TOTS3       010TOTVS       ON      NM   R$  000000000271400000000027660000000002705000000000273900000000027380000000002737000000000274516281000000000004225800000000011577034200000000000000009999123100000010000000000000BRTOTSACNOR8144
012024041202TPIS3       010TRIUNFO PARTON      NM   R$  000000000038800000000003900000000000385000000000038800000000003900000000000390000000000039100048000000000000009900000000000003842500000000000000009999123100000010000000000000BRTPISACNOR8118
012024041202TRAD3       010TC          ON      NM   R$  000000000009000000000000910000000000082000000000008400000000000840000000000083000000000008400815000000000000997600000000000084381600000000000000009999123100000010000000000000BRTRADACNOR3101
012024041202TRIS3       010TRISUL      ON      NM   R$  000000000051900000000005190000000000489000000000050200000000004890000000000489000000000049001290000000000000712000000000000357816900000000000000009999123100000010000000000000BRTRISACNOR4116
012024041202AZEV3       010AZEVEDO     ON           R$  000000000018000000000001860000000000167000000000017500000000001690000000000168000000000016900959000000000001070900000000000187602800000000000000009999123100000010000000000000BRAZEVACNOR0121
012024041202AZEV4       010AZEVEDO     PN           R$  000000000018100000000001860000000000165000000000017500000000001680000000000168000000000016903241000000000007800000000000001372437900000000000000009999123100000010000000000000BRAZEVACNPR7121
012024041202AZUL4       010AZUL        PN      N2   R$  000000000122500000000012250000000001103000000000114200000000011160000000001116000000000111728859000000000030071900000000034367620200000000000000009999123100000010000000000000BRAZULACNPR4102
012024041202BBSE3       010BBSEGURIDADEON      NM   R$  000000000333800000000033460000000003280000000000331400000000032970000000003297000000000329816093000000000007022200000000023273182000000000000000009999123100000010000000000000BRBBSEACNOR5124
012024041202CMIN3       010CSNMINERACAOON      N2   R$  000000000051300000000005190000000000503000000000050800000000005070000000000506000000000050711673000000000008928900000000004544674900000000000000009999123100000010000000000000BRCMINACNOR2110
012024041202TECN3       010TECHNOS     ON      NM   R$  000000000043200000000004450000000000429000000000043800000000004450000000000434000000000044500907000000000000244800000000000107445200000000000000009999123100000010000000000000BRTECNACNOR6109
012024041202TELB3       010TELEBRAS    ON           R$  000000000136500000000013950000000001361000000000138000000000013710000000001363000000000140000007000000000000000800000000000001104300000000000000009999123100000010000000000000BRTELBACNOR2140
012024041202TELB4       010TELEBRAS    PN           R$  000000000101000000000010100000000000992000000000100300000000009920000000000992000000000101000009000000000000003800000000000003813800000000000000009999123100000010000000000000BRTELBACNPR9140
012024041202TEND3       010TENDA       ON      NM   R$  000000000130500000000013050000000001210000000000124000000000012100000000001209000000000121808240000000000003272100000000004057472300000000000000009999123100000010000000000000BRTENDACNOR4111
012024041202VAMO3       010VAMOS       ON      NM   R$  000000000082200000000008330000000000804000000000081500000000008100000000000809000000000081012313000000000009273700000000007558326800000000000000009999123100000010000000000000BRVAMOACNOR7105
012024041202VBBR3       010VIBRA       ON      NM   R$  000000000252700000000025420000000002471000000000249800000000024810000000002481000000000248623958000000000008182600000000020441142100000000000000009999123100000010000000000000BRVBBRACNOR1106
012024041202VITT3       010VITTIA      ON      NM   R$  000000000064000000000006480000000000627000000000063800000000006480000000000648000000000064901922000000000000446800000000000285128400000000000000009999123100000010000000000000BRVITTACNOR4106
012024041202NEOE3       010NEOENERGIA  ON      NM   R$  000000000206000000000020660000000002020000000000204200000000020390000000002038000000000203905027000000000001091500000000002229509200000000000000009999123100000010000000000000BRNEOEACNOR3121
012024041202NGRD3       010NEOGRID     ON      NM   R$  000000000010700000000001070000000000103000000000010400000000001040000000000103000000000010400280000000000000346800000000000036215900000000000000009999123100000010000000000000BRNGRDACNOR3103
012024041202NINJ3       010GETNINJAS   ON      NM   R$  000000000051200000000005190000000000512000000000051200000000005170000000000512000000000051800080000000000000150400000000000077019700000000000000009999123100000010000000000000BRNINJACNOR5101
012024041202NORD3       010NORDON MET  ON           R$  000000000080000000000008000000000000740000000000079000000000007400000000000702000000000080000004000000000000000800000000000000632000000000000000009999123100000010000000000000BRNORDACNOR7135
012024041202NTCO3       010GRUPO NATURAON  EJ  NM   R$  000000000171500000000017280000000001673000000000169800000000016920000000001691000000000169717967000000000006644900000000011288260500000000000000009999123100000010000000000000BRNTCOACNOR5106
012024041202RANI3       010IRANI       ON      NM   R$  000000000095000000000009500000000000928000000000093700000000009310000000000931000000000093502312000000000000654900000000000614007700000000000000009999123100000010000000000000BRRANIACNOR5070
012024041202RAPT3       010RANDON PART ON      N1   R$  000000000109600000000010990000000001076000000000108900000000010980000000001091000000000109800091000000000000019700000000000021470700000000000000009999123100000010000000000000BRRAPTACNOR7162
012024041202RAPT4       010RANDON PART PN      N1   R$  000000000132900000000013290000000001290000000000130700000000013170000000001313000000000131703640000000000001405200000000001837465700000000000000009999123100000010000000000000BRRAPTACNPR4162
012024041202RCSL3       010RECRUSUL    ON           R$  000000000016200000000001650000000000160000000000016200000000001620000000000161000000000016201791000000000001471400000000000238965200000000000000009999123100000010000000000000BRRCSLACNOR4133
012024041202RCSL4       010RECRUSUL    PN           R$  000000000006400000000000650000000000063000000000006400000000000640000000000064000000000006501187000000000001245500000000000079797600000000000000009999123100000010000000000000BRRCSLACNPR1133
012024041202RDNI3       010RNI         ON      NM   R$  000000000037200000000003720000000000366000000000036700000000003660000000000365000000000036900019000000000000005300000000000001948500000000000000009999123100000010000000000000BRRDNIACNOR9116
012024041202RDOR3       010REDE D OR   ON      NM   R$  000000000242400000000024800000000002408000000000245400000000024540000000002451000000000245912198000000000005577200000000013686886400000000000000009999123100000010000000000000BRRDORACNOR8112
012024041202SUZB3       010SUZANO S.A. ON      NM   R$  000000000612100000000061840000000006073000000000612200000000061200000000006108000000000612022142000000000005586400000000034202028200000000000000009999123100000010000000000000BRSUZBACNOR0129
012024041202SYNE3       010SYN PROP TECON      NM   R$  000000000085400000000008780000000000848000000000086700000000008680000000000867000000000087301432000000000000477400000000000414089400000000000000009999123100000010000000000000BRSYNEACNOR2102
012024041202RAIL3       010RUMO S.A.   ON      NM   R$  000000000226500000000022850000000002226000000000224600000000022300000000002225000000000223023173000000000014857800000000033374012500000000000000009999123100000010000000000000BRRAILACNOR9104
012024041202RAIZ4       010RAIZEN      PN      N2   R$  000000000031200000000003160000000000308000000000031100000000003100000000000310000000000031119183000000000020828000000000006485931300000000000000009999123100000010000000000000BRRAIZACNPR6110
012024041202SMFT3       010SMART FIT   ON      NM   R$  000000000257100000000026110000000002480000000000251500000000024900000000002488000000000249011506000000000003317100000000008343360200000000000000009999123100000010000000000000BRSMFTACNOR1111
012024041202SMTO3       010SAO MARTINHOON      NM   R$  000000000306000000000030610000000002874000000000293300000000029010000000002899000000000290111001000000000002877500000000008441570900000000000000009999123100000010000000000000BRSMTOACNOR3125
012024041202SNSY3       010SANSUY      ON           R$  000000000110500000000011050000000001032000000000106300000000010660000000001026000000000107500014000000000000002400000000000002551700000000000000009999123100000010000000000000BRSNSYACNOR2113
012024041202SNSY5       010SANSUY      PNA          R$  000000000064000000000006550000000000630000000000064700000000006530000000000627000000000065400017000000000000003900000000000002524200000000000000009999123100000010000000000000BRSNSYACNPA5111
012024041202SOJA3       010BOA SAFRA   ON      NM   R$  000000000167000000000016900000000001648000000000166900000000016700000000001669000000000167001464000000000000358800000000000598988800000000000000009999123100000010000000000000BRSOJAACNOR9105
012024041202SOMA3       010GRUPO SOMA  ON      NM   R$  000000000065000000000006520000000000625000000000063300000000006290000000000626000000000062910161000000000012005400000000007608821300000000000000009999123100000010000000000000BRSOMAACNOR3102
012024041202SOND5       010SONDOTECNICAPNA          R$  000000000553100000000055310000000005531000000000553100000000055310000000005051000000000590000001000000000000000100000000000000553100000000000000009999123100000010000000000000BRSONDACNPA8165
012024041205BZLI11      010FII BRREALTYCI           R$  000000000197800000000019780000000001978000000000197800000000019780000000001701000000000197900001000000000000000001000000000000001978000000000000009999123100000010000000000000BRBZLICTF003100
012024041207NUTR3       010NUTRIPLANT  ON      MA   R$  000000000051700000000005170000000000506000000000050900000000005080000000000507000000000051300014000000000000001400000000000000713400000000000000009999123100000010000000000000BRNUTRACNOR0104
012024041207TXRX3       010TEX RENAUX  ON           R$  000000000087000000000008700000000000870000000000087000000000008700000000000200000000000110000001000000000000000100000000000000087000000000000000009999123100000010000000000000BRTXRXACNOR3142
012024041208PMAM3       010PARANAPANEMAON      NM   R$  000000000029800000000002990000000000285000000000028900000000002860000000000285000000000028800225000000000000093600000000000027124000000000000000009999123100000010000000000000BRPMAMACNOR3038
012024041208OSXB3       010OSX BRASIL  ON      NM   R$  000000000042000000000004200000000000411000000000041400000000004160000000000411000000000041600008000000000000001200000000000000497700000000000000009999123100000010000000000000BROSXBACNOR8109
012024041208JFEN3       010JOAO FORTES ON           R$  000000000018400000000001880000000000179000000000018200000000001800000000000179000000000018200073000000000000031700000000000005788600000000000000009999123100000010000000000000BRJFENACNOR0058
012024041208BDLL4       010BARDELLA    PN           R$  000000000097700000000009770000000000911000000000096300000000009770000000000920000000000097700005000000000000000500000000000000481900000000000000009999123100000010000000000000BRBDLLACNPR8151
012024041208FRTA3       010POMIFRUTAS  ON      NM   R$  000000000014300000000001440000000000141000000000014100000000001410000000000139000000000014100007000000000000005400000000000000762400000000000000009999123100000010000000000000BRFRTAACNOR8103
012024041208OIBR3       010OI          ON      N1   R$  000000000006400000000000650000000000064000000000006400000000000650000000000064000000000006502287000000000002201400000000000141721800000000000000009999123100000010000000000000BROIBRACNOR1110
012024041208OIBR4       010OI          PN      N1   R$  000000000018300000000001860000000000180000000000018200000000001810000000000180000000000018100080000000000000043600000000000007936800000000000000009999123100000010000000000000BROIBRACNPR8109
012024041208AMER3       010AMERICANAS  ON      NM   R$  000000000005600000000000560000000000053000000000005400000000000530000000000053000000000005404407000000000015751500000000000851181800000000000000009999123100000010000000000000BRAMERACNOR6101
012024041208RSID3       010ROSSI RESID ON      NM   R$  000000000040800000000004140000000000377000000000040100000000004000000000000400000000000040500105000000000000031500000000000012654100000000000000009999123100000010000000000000BRRSIDACNOR8120
012024041208ETER3       010ETERNIT     ON      NM   R$  000000000073400000000007550000000000709000000000073300000000007550000000000750000000000075500768000000000000304100000000000222916100000000000000009999123100000010000000000000BRETERACNOR3243
012024041208RNEW11      010RENOVA      UNT     N2   R$  000000000033600000000003360000000000333000000000033500000000003360000000000333000000000033600009000000000000000900000000000000301700000000000000009999123100000010000000000000BRRNEWCDAM15110
012024041208RNEW3       010RENOVA      ON      N2   R$  000000000011400000000001140000000000112000000000011200000000001130000000000112000000000011300056000000000000029200000000000003282600000000000000009999123100000010000000000000BRRNEWACNOR8110
012024041208RNEW4       010RENOVA      PN      N2   R$  000000000011300000000001130000000000110000000000011000000000001100000000000110000000000011100120000000000000113000000000000012529500000000000000009999123100000010000000000000BRRNEWACNPR5110
012024041208LIGT3       010LIGHT S/A   ON      NM   R$  000000000055000000000005500000000000500000000000051600000000005170000000000512000000000051705299000000000002107800000000001089412600000000000000009999123100000010000000000000BRLIGTACNOR2124
012024041208RPMG3       010PET MANGUINHON           R$  000000000020300000000002070000000000203000000000020300000000002070000000000204000000000020700015000000000000004200000000000000853600000000000000009999123100000010000000000000BRRPMGACNOR9194
012024041208ATMP3       010ATMASA      ON           R$  000000000019200000000002300000000000192000000000021200000000002180000000000211000000000021900176000000000000074900000000000015916300000000000000009999123100000010000000000000BRATMPACNOR8100
012024041208NEXP3       010NEXPE       ON      NM   R$  000000000042100000000004270000000000420000000000042000000000004270000000000421000000000042700006000000000000001400000000000000589200000000000000009999123100000010000000000000BRNEXPACNOR0101
012024041210SEQL11      010SEQUOIA LOG DIR     NM   R$  000000000000100000000000010000000000001000000000000100000000000010000000000000000000000000100210000000000001640300000000000001640300000000000000009999123100000010000000000000BRSEQLD01M19101
012024041210SEQL12      010SEQUOIA LOG DIR     NM   R$  000000000000100000000000020000000000001000000000000100000000000010000000000001000000000000200426000000000002877900000000000003065600000000000000009999123100000010000000000000BRSEQLD02M18101
012024041210GFSA1       010GAFISA      DIR ORD NM   R$  000000000000100000000000010000000000001000000000000100000000000010000000000000000000000000100065000000000011840500000000000011840500000000000000009999123100000010000000000000BRGFSAD10OR9123
012024041210ABCB10      010ABC BRASIL  PN  REC N2   R$  000000000242000000000024200000000002302000000000236200000000023130000000002312000000000000000058000000000000009500000000000022442300000000000000009999123100000010000000000000BRABCBR19PR1144
012024041210BGIP2       010BANESE      DIR PRE      R$  000000000006500000000000650000000000056000000000005900000000000560000000000056000000000007000016000000000000003400000000000000201900000000000000009999123100000010000000000000BRBGIPD07PR0207
012024041210DMFN1       010DMFINANCEIRADIR ORD      R$  000000000003400000000000420000000000034000000000003600000000000350000000000035000000000004000013000000000000002300000000000000084400000000000000009999123100000010000000000000BRDMFND01OR1101
012024041212QAGR11      010FII QUASAR ACI           R$  000000000477300000000047780000000004755000000000476400000000047590000000004759000000000476200311000000000000003035000000000014460373000000000000009999123100000010000000000000BRQAGRCTF005153
012024041212PRSN11      010FII PERSONALCI           R$  000000000011400000000001140000000000114000000000011400000000001140000000000105000000000011300002000000000000000034000000000000003876000000000000009999123100000010000000000000BRPRSNCTF005124
012024041212PRSV11      010FII P VARGASCI           R$  000000000700000000000070000000000007000000000000700000000000070000000000006901000000000700000001000000000000000005000000000000035000000000000000009999123100000010000000000000BRPRSVCTF008225
012024041212PVBI11      010FII VBI PRI CI           R$  000000001012700000000101770000000010119000000001015200000000101570000000010157000000001016411401000000000000078218000000000794144009000000000000009999123100000010000000000000BRPVBICTF003149
012024041212SCPF11      010FII SCP     CI           R$  000000000039200000000003930000000000388000000000039000000000003930000000000389000000000039300065000000000000000890000000000000347960000000000000009999123100000010000000000000BRSCPFCTF003302
012024041212SEQR11      010FII SEQUOIA CI  ER       R$  000000000550000000000056220000000005499000000000554800000000055650000000005531000000000556500195000000000000001991000000000011047755000000000000009999123100000010000000000000BRSEQRCTF002141
012024041212SHPH11      010FII HIGIENOPCI           R$  000000008657400000000877990000000086102000000008659100000000867990000000086101000000008859800013000000000000000036000000000003117276000000000000009999123100000010000000000000BRSHPHCTF008348
012024041212ZAGH11      010FII ZAGH    CI  ER       R$  000000001050000000000105000000000010500000000001050000000000105000000000000000000000001050000007000000000000000067000000000000703500000000000000009999123100000010000000000000BRZAGHCTF007101
012024041212ZAVC11      010FII ZAVIT C CI           R$  000000000100000000000010000000000001000000000000100000000000010000000000000900000000000100000001000000000000000002000000000000002000000000000000009999123100000010000000000000BRZAVCCTF007100
012024041212ZAVI11      010FII ZAVIT R CI           R$  000000001276100000000128800000000012670000000001275800000000128800000000012710000000001288002047000000000000014406000000000183801698000000000000009999123100000010000000000000BRZAVICTF004119
012024041212SAPI11      010FII SAPI    CI           R$  000000000915000000000091930000000009075000000000913500000000091870000000009075000000000918700099000000000000003320000000000030331116000000000000009999123100000010000000000000BRSAPICTF001106
012024041212SARE11      010FII SANT RENCI           R$  000000000480000000000049000000000004800000000000485900000000048600000000004852000000000486004712000000000000037842000000000183878416000000000000009999123100000010000000000000BRSARECTF006154
012024041212URPR11      010FII URCA RENCI           R$  000000000872100000000087280000000008709000000000871700000000087200000000008715000000000872002549000000000000021036000000000183371448000000000000009999123100000010000000000000BRURPRCTF002156
012024041212WHGR11      010FII WHG REALCI           R$  000000000099800000000009990000000000990000000000099400000000009950000000000994000000000099500567000000000000019581000000000019479591000000000000009999123100000010000000000000BRWHGRCTF008122
012024041212WPLZ11      010FII W PLAZA CI           R$  000000000627500000000062990000000006261000000000627200000000062610000000006121000000000626100016000000000000000053000000000000332432000000000000009999123100000010000000000000BRWPLZCTF004264
012024041212WSEC11      010FII WARREN  CI  ER       R$  000000000850000000000085000000000008369000000000848100000000083690000000008369000000000847000005000000000000000015000000000000127219000000000000009999123100000010000000000000BRWSECCTF010118
012024041212XPCI11      010FII XP CRED CI           R$  000000000893100000000090000000000008918000000000897000000000089540000000008954000000000897109499000000000000030430000000000272977167000000000000009999123100000010000000000000BRXPCICTF007155
012024041212XPCM11      010FII XP MACAECI           R$  000000000090500000000009100000000000901000000000090300000000009020000000000902000000000090300112000000000000003583000000000003235599000000000000009999123100000010000000000000BRXPCMCTF009230
012024041212XPIN11      010FII XP INDL CI           R$  000000000807900000000080960000000008045000000000807500000000080450000000008045000000000805101759000000000000005174000000000041780341000000000000009999123100000010000000000000BRXPINCTF004171
012024041212XPLG11      010FII XP LOG  CI           R$  000000001092700000000109500000000010847000000001088500000000108580000000010857000000001085810258000000000000052862000000000575404429000000000000009999123100000010000000000000BRXPLGCTF002175
012024041212XPML11      010FII XP MALLSCI           R$  000000001164400000000116790000000011590000000001161100000000116020000000011602000000001160517969000000000000222897000000002588234015000000000000009999123100000010000000000000BRXPMLCTF000182
012024041212XPPR11      010FII XP PROP CI           R$  000000000225000000000022810000000002249000000000225100000000022490000000002249000000000225202707000000000000009300000000000020943572000000000000009999123100000010000000000000BRXPPRCTF000153
012024041212XPSF11      010FII XP SELECCI           R$  000000000083700000000008370000000000830000000000083400000000008330000000000832000000000083305087000000000000049426000000000041223634000000000000009999123100000010000000000000BRXPSFCTF009154
012024041212PLCR11      010FII PLURAL RCI           R$  000000000895100000000090390000000008951000000000897100000000089650000000008965000000000903100343000000000000001231000000000011043956000000000000009999123100000010000000000000BRPLCRCTF003153
012024041212PLRI11      010FII POLO I  CI           R$  000000000142700000000014270000000001425000000000142600000000014250000000001425000000000149700002000000000000000005000000000000007133000000000000009999123100000010000000000000BRPLRICTF000241
012024041212PMIS11      010FII PMIS    CI           R$  000000000093300000000009330000000000905000000000091100000000009070000000000907000000000091600455000000000000012581000000000011469812000000000000009999123100000010000000000000BRPMISCTF006104
012024041212VIUR11      010FII VINCI IUCI           R$  000000000073700000000007430000000000736000000000073900000000007430000000000742000000000074301590000000000000037265000000000027551030000000000000009999123100000010000000000000BRVIURCTF009135
