00COTAHIST.2024BOVESPA 20240219                                                                                                                                                                                                                      
012024021902CMIG3       010CEMIG       ON      N1   R$  000000000151700000000015330000000001509000000000151900000000015150000000001515000000000152400826000000000000209900000000000319008600000000000000009999123100000010000000000000BRCMIGACNOR6239
012024021902CMIG4       010CEMIG       PN      N1   R$  000000000117000000000011920000000001166000000000118300000000011890000000001189000000000119011250000000000005914200000000007001686000000000000000009999123100000010000000000000BRCMIGACNPR3240
012024021902CMIN3       010CSNMINERACAOON      N2   R$  000000000065000000000006500000000000633000000000064000000000006330000000000633000000000063406136000000000003546700000000002270265000000000000000009999123100000010000000000000BRCMINACNOR2110
012024021902ELMD3       010ELETROMIDIA ON      NM   R$  000000000168000000000017300000000001661000000000169600000000017180000000001689000000000172000124000000000000028200000000000047852100000000000000009999123100000010000000000000BRELMDACNOR3100
012024021902EMAE4       010EMAE        PN           R$  000000000605100000000060980000000006000000000000604300000000060950000000006000000000000609900007000000000000000800000000000004834600000000000000009999123100000010000000000000BREMAEACNPR1124
012024021902EMBR3       010EMBRAER     ON      NM   R$  000000000223200000000022730000000002219000000000225500000000022680000000002265000000000226805233000000000001860700000000004197206700000000000000009999123100000010000000000000BREMBRACNOR4191
012024021902IFCM3       010INFRACOMM   ON      NM   R$  000000000013300000000001350000000000131000000000013200000000001330000000000132000000000013303128000000000003230100000000000428939700000000000000009999123100000010000000000000BRIFCMACNOR8101
012024021902IGTI11      010IGUATEMI S.AUNT     N1   R$  000000000230100000000023350000000002282000000000230900000000023350000000002326000000000233609560000000000001592600000000003677339200000000000000009999123100000010000000000000BRIGTICDAM16104
012024021902IGTI3       010IGUATEMI S.AON      N1   R$  000000000028400000000002850000000000278000000000028100000000002850000000000284000000000028501352000000000000258600000000000072833500000000000000009999123100000010000000000000BRIGTIACNOR8104
012024021902IGTI4       010IGUATEMI S.APN      N1   R$  000000000101200000000010120000000001003000000000100700000000010030000000001002000000000102900002000000000000000200000000000000201500000000000000009999123100000010000000000000BRIGTIACNPR5104
012024021902LUPA3       010LUPATECH    ON      NM   R$  000000000018900000000001890000000000186000000000018600000000001880000000000186000000000018800146000000000000050500000000000009433000000000000000009999123100000010000000000000BRLUPAACNOR8112
012024021902LUXM4       010TREVISA     PN           R$  000000000158900000000015890000000001589000000000158900000000015890000000001433000000000158900001000000000000000100000000000000158900000000000000009999123100000010000000000000BRLUXMACNPR4051
012024021902LVTC3       010WDC NETWORKSON      NM   R$  000000000038500000000003970000000000381000000000038700000000003960000000000391000000000039700049000000000000010700000000000004149000000000000000009999123100000010000000000000BRLVTCACNOR4102
012024021902LWSA3       010LWSA        ON      NM   R$  000000000054200000000005780000000000528000000000055300000000005660000000000566000000000056812492000000000009562200000000005293050600000000000000009999123100000010000000000000BRLWSAACNOR8103
012024021902PDGR3       010PDG REALT   ON      NM   R$  000000000003500000000000350000000000033000000000003300000000000330000000000033000000000003400475000000000001563000000000000052360900000000000000009999123100000010000000000000BRPDGRACNOR8118
012024021902PDTC3       010PADTEC      ON      NM   R$  000000000030700000000003070000000000299000000000030200000000003060000000000302000000000030700062000000000000014500000000000004389700000000000000009999123100000010000000000000BRPDTCACNOR3100
012024021902PETR3       010PETROBRAS   ON      N2   R$  000000000442900000000044500000000004413000000000443600000000044490000000004440000000000444909052000000000003734700000000016569340700000000000000009999123100000010000000000000BRPETRACNOR9202
012024021902PETR4       010PETROBRAS   PN      N2   R$  000000000427600000000042940000000004256000000000428000000000042900000000004283000000000429024902000000000012826700000000054906912200000000000000009999123100000010000000000000BRPETRACNPR6209
012024021902AALR3       010ALLIAR      ON      NM   R$  000000000086800000000009080000000000858000000000089400000000009060000000000905000000000090600909000000000000133000000000000119001900000000000000009999123100000010000000000000BRAALRACNOR6102
012024021902ABCB4       010ABC BRASIL  PN      N2   R$  000000000247500000000025120000000002453000000000249300000000024880000000002487000000000249904046000000000000812200000000002025216600000000000000009999123100000010000000000000BRABCBACNPR4145
012024021902ABEV3       010AMBEV S/A   ON           R$  000000000127700000000012810000000001265000000000127200000000012810000000001280000000000128110999000000000009229700000000011748886300000000000000009999123100000010000000000000BRABEVACNOR1127
012024021902BBDC3       010BRADESCO    ON      N1   R$  000000000123000000000012380000000001217000000000122900000000012310000000001231000000000123309012000000000008288200000000010193653100000000000000009999123100000010000000000000BRBBDCACNOR1766
012024021902BBDC4       010BRADESCO    PN      N1   R$  000000000135000000000013700000000001339000000000136000000000013650000000001364000000000136532661000000000028026600000000038140942100000000000000009999123100000010000000000000BRBBDCACNPR8766
012024021902BLAU3       010BLAU        ON      NM   R$  000000000122200000000012300000000001198000000000121400000000012260000000001225000000000122600724000000000000102400000000000124349300000000000000009999123100000010000000000000BRBLAUACNOR8111
012024021902BMEB3       010MERCANTIL   ON      N1   R$  000000000245000000000024500000000002424000000000244300000000024240000000002111000000000245000003000000000000000400000000000000977400000000000000009999123100000010000000000000BRBMEBACNOR8205
012024021902BMEB4       010MERCANTIL   PN      N1   R$  000000000252400000000025240000000002400000000000244800000000024000000000002400000000000249000095000000000000013600000000000033294500000000000000009999123100000010000000000000BRBMEBACNPR5210
012024021902BMGB4       010BANCO BMG   PN      N1   R$  000000000037900000000003960000000000379000000000039000000000003920000000000391000000000039301104000000000000893300000000000348768500000000000000009999123100000010000000000000BRBMGBACNPR0108
012024021902BMIN3       010MERC INVEST ON           R$  000000000195100000000019510000000001951000000000195100000000019510000000001951000000000284900001000000000000000100000000000000195100000000000000009999123100000010000000000000BRBMINACNOR4170
012024021902BMIN4       010MERC INVEST PN           R$  000000000153500000000015450000000001530000000000153800000000015450000000001520000000000154500004000000000000000400000000000000615500000000000000009999123100000010000000000000BRBMINACNPR1176
012024021902BMKS3       010BIC MONARK  ON           R$  000000003550500000000360000000000035500000000003583900000000355000000000035500000000003600000011000000000000000031000000000001111012000000000000009999123100000010000000000000BRBMKSACNOR9165
012024021902BMOB3       010BEMOBI TECH ON      NM   R$  000000000125900000000012650000000001241000000000125400000000012600000000001249000000000126000611000000000000161600000000000202711500000000000000009999123100000010000000000000BRBMOBACNOR7103
012024021902BNBR3       010NORD BRASIL ON           R$  000000001170000000000117000000000011450000000001157500000000114500000000011200000000001169900002000000000000000200000000000002315000000000000000009999123100000010000000000000BRBNBRACNOR8206
012024021902BOBR4       010BOMBRIL     PN           R$  000000000023000000000002450000000000227000000000023700000000002450000000000240000000000024500097000000000000079600000000000018922900000000000000009999123100000010000000000000BRBOBRACNPR3128
012024021902CEAB3       010CEA MODAS   ON      NM   R$  000000000081500000000008150000000000787000000000079700000000007930000000000791000000000079405182000000000002309200000000001841112900000000000000009999123100000010000000000000BRCEABACNOR1101
012024021902CEBR3       010CEB         ON           R$  000000000202900000000020300000000002012000000000202100000000020290000000002029000000000203000016000000000000002600000000000005256800000000000000009999123100000010000000000000BRCEBRACNOR5124
012024021902CEBR5       010CEB         PNA          R$  000000000190000000000019000000000001831000000000187700000000018750000000001865000000000187500030000000000000013900000000000026096900000000000000009999123100000010000000000000BRCEBRACNPA8123
012024021902CEBR6       010CEB         PNB          R$  000000000228400000000022840000000002240000000000225100000000022700000000002267000000000227000035000000000000005600000000000012606100000000000000009999123100000010000000000000BRCEBRACNPB6123
012024021902CEDO3       010CEDRO       ON      N1   R$  000000000248400000000024850000000002484000000000248400000000024840000000002100000000000260000007000000000000006100000000000015152500000000000000009999123100000010000000000000BRCEDOACNOR8096
012024021902CEDO4       010CEDRO       PN      N1   R$  000000000255700000000025570000000002552000000000255300000000025520000000002552000000000260000008000000000000002200000000000005618100000000000000009999123100000010000000000000BRCEDOACNPR5128
012024021902CEEB3       010COELBA      ON           R$  000000000394000000000039840000000003913000000000393300000000039840000000003913000000000397900005000000000000000500000000000001966600000000000000009999123100000010000000000000BRCEEBACNOR3196
012024021902CGAS3       010COMGAS      ON           R$  000000001010000000000101000000000010100000000001010000000000101000000000009405000000001000000001000000000000000100000000000001010000000000000000009999123100000010000000000000BRCGASACNOR0162
012024021902CGAS5       010COMGAS      PNA          R$  000000001130000000000113000000000011101000000001116500000000111010000000011101000000001120000006000000000000000700000000000007815600000000000000009999123100000010000000000000BRCGASACNPA3159
012024021902CGRA3       010GRAZZIOTIN  ON           R$  000000000254100000000025410000000002541000000000254100000000025410000000002491000000000254000001000000000000000100000000000000254100000000000000009999123100000010000000000000BRCGRAACNOR2081
012024021902CGRA4       010GRAZZIOTIN  PN           R$  000000000253200000000025390000000002530000000000253400000000025390000000002538000000000253900011000000000000001600000000000004055700000000000000009999123100000010000000000000BRCGRAACNPR9081
012024021902CIEL3       010CIELO       ON      NM   R$  000000000052600000000005330000000000524000000000052800000000005260000000000526000000000052907106000000000017768200000000009383875400000000000000009999123100000010000000000000BRCIELACNOR3156
012024021902EGIE3       010ENGIE BRASILON      NM   R$  000000000407000000000041360000000004070000000000411500000000041240000000004101000000000412404503000000000001040200000000004280461600000000000000009999123100000010000000000000BREGIEACNOR9125
012024021902FRAS3       010FRAS-LE     ON      N1   R$  000000000156800000000016040000000001550000000000158100000000016030000000001599000000000160300829000000000000161000000000000254594500000000000000009999123100000010000000000000BRFRASACNOR0158
012024021902FRIO3       010METALFRIO   ON      NM   R$  000000003100000000000399890000000031000000000003394900000000341000000000034000000000003450000022000000000000003400000000000115429900000000000000009999123100000010000000000000BRFRIOACNOR2111
012024021902AGRO3       010BRASILAGRO  ON      NM   R$  000000000240000000000024000000000002365000000000237700000000023700000000002370000000000238201831000000000000265500000000000631196000000000000000009999123100000010000000000000BRAGROACNOR7114
012024021902AGXY3       010AGROGALAXY  ON      NM   R$  000000000018400000000001840000000000173000000000017700000000001730000000000173000000000017600524000000000000373600000000000066371900000000000000009999123100000010000000000000BRAGXYACNOR4102
012024021902ALLD3       010ALLIED      ON      NM   R$  000000000068000000000006880000000000661000000000067300000000006680000000000668000000000067000129000000000000022700000000000015288100000000000000009999123100000010000000000000BRALLDACNOR3105
012024021902ALOS3       010ALLOS       ON      NM   R$  000000000234600000000023780000000002325000000000234600000000023660000000002362000000000236707547000000000004760100000000011171013600000000000000009999123100000010000000000000BRALOSACNOR5100
012024021902CLSA3       010CLEARSALE   ON      NM   R$  000000000038900000000003940000000000383000000000038700000000003880000000000388000000000039000763000000000000233700000000000090642500000000000000009999123100000010000000000000BRCLSAACNOR0100
012024021902CLSC4       010CELESC      PN      N2   R$  000000000655200000000065520000000006536000000000653600000000065360000000006535000000000662400003000000000000002300000000000015034400000000000000009999123100000010000000000000BRCLSCACNPR3128
012024021902ELET3       010ELETROBRAS  ON      N1   R$  000000000424900000000043070000000004232000000000428500000000042850000000004285000000000429214191000000000003610300000000015472444500000000000000009999123100000010000000000000BRELETACNOR6159
012024021902ELET6       010ELETROBRAS  PNB     N1   R$  000000000468500000000047450000000004666000000000472700000000047450000000004723000000000474605928000000000001755900000000008300437700000000000000009999123100000010000000000000BRELETACNPB7076
012024021902HBOR3       010HELBOR      ON      NM   R$  000000000026400000000002660000000000259000000000026000000000002610000000000260000000000026100554000000000000551700000000000143897200000000000000009999123100000010000000000000BRHBORACNOR3117
012024021902HBRE3       010HBR REALTY  ON      NM   R$  000000000047700000000004890000000000477000000000048200000000004860000000000483000000000048700216000000000000104800000000000050598800000000000000009999123100000010000000000000BRHBREACNOR4100
012024021902HBSA3       010HIDROVIAS   ON      NM   R$  000000000035800000000003620000000000353000000000035600000000003570000000000356000000000035802233000000000002252500000000000802404000000000000000009999123100000010000000000000BRHBSAACNOR0100
012024021902HETA4       010HERCULES    PN           R$  000000000065900000000009990000000000659000000000089300000000008290000000000750000000000082900123000000000000018400000000000016435700000000000000009999123100000010000000000000BRHETAACNPR9136
012024021902HYPE3       010HYPERA      ON      NM   R$  000000000333200000000033320000000003240000000000328300000000032530000000003253000000000326210463000000000002372600000000007791360200000000000000009999123100000010000000000000BRHYPEACNOR0137
012024021902KRSA3       010KORA SAUDE  ON      NM   R$  000000000009300000000000940000000000091000000000009200000000000910000000000091000000000009200097000000000000132200000000000012180100000000000000009999123100000010000000000000BRKRSAACNOR0100
012024021902LAND3       010TERRASANTAPAON      NM   R$  000000000153000000000015720000000001530000000000154200000000015320000000001530000000000153200079000000000000020900000000000032240400000000000000009999123100000010000000000000BRLANDACNOR9102
012024021902LAVV3       010LAVVI       ON      NM   R$  000000000077800000000007870000000000762000000000077300000000007840000000000777000000000078403289000000000000597900000000000462610900000000000000009999123100000010000000000000BRLAVVACNOR4110
012024021902LEVE3       010METAL LEVE  ON      NM   R$  000000000335600000000034700000000003350000000000341600000000034550000000003454000000000345501947000000000000435500000000001488022500000000000000009999123100000010000000000000BRLEVEACNOR2196
012024021902LJQQ3       010QUERO-QUERO ON      NM   R$  000000000047700000000004910000000000467000000000047800000000004880000000000486000000000049103962000000000002447900000000001170470400000000000000009999123100000010000000000000BRLJQQACNOR5104
012024021902LOGG3       010LOG COM PROPON  ED  NM   R$  000000000201700000000020440000000002010000000000202400000000020310000000002012000000000203100566000000000000084500000000000171076200000000000000009999123100000010000000000000BRLOGGACNOR7107
012024021902LOGN3       010LOG-IN      ON      NM   R$  000000000372400000000038350000000003666000000000372500000000038350000000003835000000000384000086000000000000011500000000000042843000000000000000009999123100000010000000000000BRLOGNACNOR3105
012024021902LPSB3       010LOPES BRASILON      NM   R$  000000000019600000000002020000000000193000000000019800000000001960000000000196000000000019700141000000000000066800000000000013231300000000000000009999123100000010000000000000BRLPSBACNOR0113
012024021902LREN3       010LOJAS RENNERON      NM   R$  000000000143100000000014670000000001422000000000144500000000014590000000001458000000000146012563000000000005709600000000008252430700000000000000009999123100000010000000000000BRLRENACNOR1219
012024021902NORD3       010NORDON MET  ON           R$  000000000128100000000013010000000001200000000000125300000000012000000000001200000000000123300015000000000000001500000000000001879800000000000000009999123100000010000000000000BRNORDACNOR7135
012024021902NTCO3       010GRUPO NATURAON      NM   R$  000000000162400000000016310000000001611000000000162200000000016250000000001625000000000162908922000000000005652600000000009169286500000000000000009999123100000010000000000000BRNTCOACNOR5104
012024021902DESK3       010DESKTOP     ON      NM   R$  000000000130100000000013050000000001283000000000129200000000012850000000001285000000000129900457000000000000071200000000000092042800000000000000009999123100000010000000000000BRDESKACNOR2103
012024021902DEXP3       010DEXXOS PAR  ON      N1   R$  000000000123400000000012340000000001191000000000121000000000012220000000001210000000000122200150000000000000037200000000000045023100000000000000009999123100000010000000000000BRDEXPACNOR1104
012024021902DEXP4       010DEXXOS PAR  PN      N1   R$  000000000119100000000012000000000001175000000000117800000000012000000000001170000000000124900010000000000000004400000000000005185100000000000000009999123100000010000000000000BRDEXPACNPR8104
012024021902DIRR3       010DIRECIONAL  ON      NM   R$  000000000227200000000022870000000002179000000000221600000000022000000000002200000000000220308864000000000002052100000000004548156100000000000000009999123100000010000000000000BRDIRRACNOR0117
012024021902DMVF3       010D1000VFARMA ON      NM   R$  000000000058400000000005840000000000552000000000056500000000005670000000000565000000000057100335000000000000056600000000000032028700000000000000009999123100000010000000000000BRDMVFACNOR9100
012024021902DOTZ3       010DOTZ SA     ON      NM   R$  000000000074100000000007410000000000712000000000072600000000007190000000000718000000000073000033000000000000009000000000000006540600000000000000009999123100000010000000000000BRDOTZACNOR7101
012024021902DXCO3       010DEXCO       ON      NM   R$  000000000074400000000007440000000000723000000000073000000000007360000000000735000000000073608460000000000003296100000000002407406700000000000000009999123100000010000000000000BRDXCOACNOR8104
012024021902VITT3       010VITTIA      ON      NM   R$  000000000081500000000008170000000000788000000000080000000000008020000000000798000000000080301293000000000000273100000000000218572500000000000000009999123100000010000000000000BRVITTACNOR4106
012024021902VIVA3       010VIVARA S.A. ON      NM   R$  000000000321100000000032740000000003177000000000324400000000032680000000003259000000000326806598000000000001519300000000004930115100000000000000009999123100000010000000000000BRVIVAACNOR0106
012024021902VIVR3       010VIVER       ON  ES  NM   R$  000000000038800000000003930000000000385000000000038900000000003920000000000388000000000039200113000000000000064300000000000025037300000000000000009999123100000010000000000000BRVIVRACNOR4122
012024021902VIVT3       010TELEF BRASILON           R$  000000000522800000000053370000000005220000000000528900000000052860000000005268000000000528607465000000000001681900000000008897134900000000000000009999123100000010000000000000BRVIVTACNOR0178
012024021902VLID3       010VALID       ON      NM   R$  000000000195800000000019990000000001913000000000197300000000019800000000001980000000000199901232000000000000222800000000000439743500000000000000009999123100000010000000000000BRVLIDACNOR5141
012024021902VSTE3       010VESTE       ON      NM   R$  000000000164000000000016420000000001600000000000161500000000016000000000001550000000000163500020000000000000003700000000000005979000000000000000009999123100000010000000000000BRVSTEACNOR5102
012024021902VULC3       010VULCABRAS   ON      NM   R$  000000000180200000000018330000000001791000000000182300000000018280000000001814000000000182902295000000000000492400000000000897674600000000000000009999123100000010000000000000BRVULCACNOR2157
012024021902RANI3       010IRANI       ON      NM   R$  000000000102300000000010290000000001013000000000102000000000010140000000001013000000000102101532000000000000396900000000000405210000000000000000009999123100000010000000000000BRRANIACNOR5069
012024021902RAPT3       010RANDON PART ON      N1   R$  000000000105200000000010940000000001046000000000107500000000010940000000001060000000000109400041000000000000007700000000000008281800000000000000009999123100000010000000000000BRRAPTACNOR7162
012024021902RAPT4       010RANDON PART PN      N1   R$  000000000107000000000011040000000001056000000000108400000000010960000000001090000000000109603902000000000001904800000000002065261200000000000000009999123100000010000000000000BRRAPTACNPR4162
012024021902SYNE3       010SYN PROP TECON      NM   R$  000000000044300000000004540000000000443000000000044700000000004500000000000450000000000045100251000000000000094600000000000042347400000000000000009999123100000010000000000000BRSYNEACNOR2102
012024021902TAEE11      010TAESA       UNT     N2   R$  000000000356500000000035720000000003536000000000354900000000035400000000003539000000000354508263000000000001989700000000007063250600000000000000009999123100000010000000000000BRTAEECDAM10145
012024021902TAEE3       010TAESA       ON      N2   R$  000000000117900000000011790000000001165000000000117200000000011670000000001167000000000116801367000000000000213100000000000249773900000000000000009999123100000010000000000000BRTAEEACNOR9145
012024021902TAEE4       010TAESA       PN      N2   R$  000000000119600000000011960000000001186000000000118900000000011870000000001187000000000118801591000000000000448900000000000533990500000000000000009999123100000010000000000000BRTAEEACNPR6145
012024021902TASA3       010TAURUS ARMASON      N2   R$  000000000143100000000014400000000001420000000000143100000000014250000000001415000000000143500053000000000000008300000000000011878800000000000000009999123100000010000000000000BRTASAACNOR7103
012024021902TASA4       010TAURUS ARMASPN      N2   R$  000000000143300000000014380000000001409000000000142300000000014180000000001418000000000142301732000000000000310600000000000442128200000000000000009999123100000010000000000000BRTASAACNPR4103
012024021902TCSA3       010TECNISA     ON      NM   R$  000000000029700000000003030000000000290000000000029500000000002900000000000289000000000029000106000000000000074900000000000022144800000000000000009999123100000010000000000000BRTCSAACNOR3112
012024021902VAMO3       010VAMOS       ON      NM   R$  000000000082200000000008240000000000795000000000080200000000008100000000000809000000000081013777000000000005437200000000004363557200000000000000009999123100000010000000000000BRVAMOACNOR7105
012024021902VBBR3       010VIBRA       ON      NM   R$  000000000243100000000024370000000002386000000000240100000000024000000000002397000000000240008343000000000002751400000000006607786800000000000000009999123100000010000000000000BRVBBRACNOR1106
012024021902QUAL3       010QUALICORP   ON      NM   R$  000000000021500000000002220000000000209000000000021600000000002200000000000219000000000022008638000000000006747800000000001457918400000000000000009999123100000010000000000000BRQUALACNOR6119
012024021902UCAS3       010UNICASA     ON      NM   R$  000000000026300000000002660000000000263000000000026400000000002640000000000264000000000026500039000000000000004900000000000001294700000000000000009999123100000010000000000000BRUCASACNOR1113
012024021902UGPA3       010ULTRAPAR    ON      NM   R$  000000000299000000000029910000000002939000000000296700000000029820000000002970000000000298406542000000000002216300000000006577611600000000000000009999123100000010000000000000BRUGPAACNOR8154
012024021902UNIP3       010UNIPAR      ON           R$  000000000642600000000064260000000006238000000000635900000000063150000000006315000000000638100046000000000000005800000000000036887800000000000000009999123100000010000000000000BRUNIPACNOR7204
012024021902UNIP6       010UNIPAR      PNB          R$  000000000684000000000068560000000006694000000000673600000000066940000000006694000000000670000842000000000000126900000000000854881700000000000000009999123100000010000000000000BRUNIPACNPB8204
012024021902WEST3       010WESTWING    ON      NM   R$  000000000012400000000001240000000000120000000000012000000000001210000000000121000000000012300053000000000000066800000000000008048700000000000000009999123100000010000000000000BRWESTACNOR3100
012024021902WHRL3       010WHIRLPOOL   ON           R$  000000000042200000000004250000000000422000000000042300000000004250000000000421000000000042700003000000000000000700000000000000296600000000000000009999123100000010000000000000BRWHRLACNOR5128
012024021902WHRL4       010WHIRLPOOL   PN           R$  000000000045800000000004650000000000456000000000046300000000004650000000000465000000000046700025000000000000007500000000000003473200000000000000009999123100000010000000000000BRWHRLACNPR2128
012024021902WIZC3       010WIZ CO      ON      NM   R$  000000000062100000000006210000000000612000000000061600000000006190000000000618000000000061900917000000000000155900000000000096172500000000000000009999123100000010000000000000BRWIZCACNOR5101
012024021902WLMM3       010WLM IND COM ON  EJ       R$  000000000240000000000024000000000002370000000000238500000000023700000000002311000000000243500002000000000000000200000000000000477000000000000000009999123100000010000000000000BRWLMMACNOR6117
012024021902WLMM4       010WLM IND COM PN  EJ       R$  000000000290000000000029000000000002800000000000285700000000029000000000002782000000000299800015000000000000001900000000000005429200000000000000009999123100000010000000000000BRWLMMACNPR3117
012024021902YDUQ3       010YDUQS PART  ON      NM   R$  000000000190100000000019600000000001900000000000193500000000019270000000001923000000000192808983000000000002039200000000003946540300000000000000009999123100000010000000000000BRYDUQACNOR3104
012024021902ZAMP3       010ZAMP S.A.   ON           R$  000000000040800000000004320000000000400000000000042000000000004300000000000430000000000043102686000000000001290400000000000542772300000000000000009999123100000010000000000000BRZAMPACNOR5100
012024021902RCSL3       010RECRUSUL    ON           R$  000000000017400000000001820000000000172000000000017800000000001790000000000179000000000018003896000000000003345000000000000597899200000000000000009999123100000010000000000000BRRCSLACNOR4133
012024021902RCSL4       010RECRUSUL    PN           R$  000000000007200000000000730000000000071000000000007200000000000720000000000071000000000007201205000000000001425600000000000102769700000000000000009999123100000010000000000000BRRCSLACNPR1133
012024021902RDNI3       010RNI         ON      NM   R$  000000000043300000000004430000000000433000000000044000000000004430000000000443000000000044600018000000000000005100000000000002247500000000000000009999123100000010000000000000BRRDNIACNOR9116
012024021902RDOR3       010REDE D OR   ON      NM   R$  000000000263800000000026460000000002522000000000255500000000025320000000002532000000000253510658000000000004465000000000011412479400000000000000009999123100000010000000000000BRRDORACNOR8111
012024021902RECV3       010PETRORECSA  ON      NM   R$  000000000233500000000023520000000002298000000000232400000000023040000000002303000000000232407375000000000001566200000000003640917100000000000000009999123100000010000000000000BRRECVACNOR3105
012024021902ROMI3       010ROMI        ON      NM   R$  000000000124100000000012460000000001228000000000123500000000012360000000001236000000000123901052000000000000201200000000000248538400000000000000009999123100000010000000000000BRROMIACNOR8192
012024021902RPAD6       010ALFA HOLDINGPNB          R$  000000000081000000000008100000000000810000000000081000000000008100000000000810000000000085000002000000000000001500000000000001215000000000000000009999123100000010000000000000BRRPADACNPB2198
012024021902REDE3       010REDE ENERGIAON           R$  000000000069000000000006980000000000690000000000069300000000006980000000000690000000000069700011000000000000001600000000000001109000000000000000009999123100000010000000000000BRREDEACNOR7126
012024021902RENT3       010LOCALIZA    ON      NM   R$  000000000514300000000052570000000005143000000000521200000000052560000000005252000000000525914952000000000002846100000000014835148600000000000000009999123100000010000000000000BRRENTACNOR4194
012024021902TECN3       010TECHNOS     ON      NM   R$  000000000033700000000003470000000000333000000000033900000000003470000000000336000000000034700175000000000000120100000000000040731300000000000000009999123100000010000000000000BRTECNACNOR6109
012024021902TELB3       010TELEBRAS    ON           R$  000000000151800000000015780000000001518000000000155200000000015600000000001533000000000156000015000000000000003300000000000005122700000000000000009999123100000010000000000000BRTELBACNOR2140
012024021902TELB4       010TELEBRAS    PN           R$  000000000109400000000011150000000001081000000000109900000000011120000000001101000000000111300022000000000000004900000000000005387700000000000000009999123100000010000000000000BRTELBACNPR9140
012024021902TEND3       010TENDA       ON      NM   R$  000000000104800000000010900000000001038000000000106700000000010720000000001069000000000107210660000000000003267900000000003486960600000000000000009999123100000010000000000000BRTENDACNOR4111
012024021902TFCO4       010TRACK FIELD PN      N2   R$  000000000142800000000014450000000001415000000000143800000000014450000000001424000000000144500180000000000000091400000000000131466500000000000000009999123100000010000000000000BRTFCOACNPR8111
012024021902RRRP3       0103R PETROLEUMON      NM   R$  000000000292600000000029280000000002874000000000289700000000029190000000002914000000000291905507000000000001698200000000004920390900000000000000009999123100000010000000000000BRRRRPACNOR5102
012024021902TTEN3       0103TENTOS     ON      NM   R$  000000000096100000000009690000000000949000000000095400000000009570000000000956000000000095704416000000000001267100000000001209600700000000000000009999123100000010000000000000BRTTENACNOR0102
012024021902TUPY3       010TUPY        ON      NM   R$  000000000252200000000025290000000002508000000000251700000000025290000000002517000000000252901488000000000000259700000000000653813900000000000000009999123100000010000000000000BRTUPYACNOR1183
012024021902TGMA3       010TEGMA       ON      NM   R$  000000000257200000000025950000000002547000000000256300000000025650000000002565000000000257300701000000000000081100000000000207920800000000000000009999123100000010000000000000BRTGMAACNOR7143
012024021902TIMS3       010TIM         ON      NM   R$  000000000173500000000017730000000001721000000000174800000000017480000000001744000000000174810039000000000003560400000000006226493500000000000000009999123100000010000000000000BRTIMSACNOR5114
012024021902TOTS3       010TOTVS       ON      NM   R$  000000000306200000000030930000000003033000000000306200000000030870000000003063000000000308912021000000000002262100000000006927308800000000000000009999123100000010000000000000BRTOTSACNOR8144
012024021902TPIS3       010TRIUNFO PARTON      NM   R$  000000000037000000000003730000000000367000000000037100000000003720000000000372000000000037300041000000000000035500000000000013196300000000000000009999123100000010000000000000BRTPISACNOR8118
012024021902TRAD3       010TC          ON      NM   R$  000000000007400000000000760000000000074000000000007400000000000740000000000074000000000007500122000000000000248600000000000018516500000000000000009999123100000010000000000000BRTRADACNOR3101
012024021902TRIS3       010TRISUL      ON      NM   R$  000000000043000000000004360000000000428000000000043100000000004290000000000429000000000043000783000000000000278400000000000120135400000000000000009999123100000010000000000000BRTRISACNOR4116
012024021902TRPL3       010TRAN PAULISTON      N1   R$  000000000321000000000032100000000003139000000000315600000000031450000000003140000000000316200025000000000000003100000000000009783800000000000000009999123100000010000000000000BRTRPLACNOR4185
012024021902MSPA3       010MELHOR SP   ON           R$  000000000462000000000046200000000004620000000000462000000000046200000000000000000000000000000001000000000000000100000000000000462000000000000000009999123100000010000000000000BRMSPAACNOR0126
012024021902MSPA4       010MELHOR SP   PN           R$  000000000400000000000040000000000004000000000000400000000000040000000000000000000000000000000001000000000000000100000000000000400000000000000000009999123100000010000000000000BRMSPAACNPR7126
012024021902MTRE3       010MITRE REALTYON      NM   R$  000000000048500000000004980000000000484000000000049300000000004950000000000495000000000049603442000000000000996600000000000491553800000000000000009999123100000010000000000000BRMTREACNOR6109
012024021902MTSA4       010METISA      PN           R$  000000000477300000000047960000000004748000000000476800000000047900000000004743000000000479000022000000000000003800000000000018120700000000000000009999123100000010000000000000BRMTSAACNPR9071
012024021902MULT3       010MULTIPLAN   ON      N2   R$  000000000259000000000025960000000002562000000000257900000000025820000000002577000000000259119021000000000003177800000000008197086900000000000000009999123100000010000000000000BRMULTACNOR5137
012024021902MWET4       010WETZEL S/A  PN           R$  000000000055900000000005590000000000558000000000055800000000005580000000000559000000000058200002000000000000000400000000000000223500000000000000009999123100000010000000000000BRMWETACNPR3118
012024021902MYPK3       010IOCHP-MAXIONON      NM   R$  000000000122300000000012270000000001201000000000121200000000012100000000001202000000000121102101000000000000483000000000000585621100000000000000009999123100000010000000000000BRMYPKACNOR7153
012024021902NEOE3       010NEOENERGIA  ON      NM   R$  000000000210600000000021210000000002063000000000209300000000020910000000002090000000000209102670000000000001023900000000002143957900000000000000009999123100000010000000000000BRNEOEACNOR3121
012024021902NGRD3       010NEOGRID     ON      NM   R$  000000000010800000000001120000000000107000000000010800000000001070000000000107000000000010900442000000000000732300000000000079304900000000000000009999123100000010000000000000BRNGRDACNOR3103
012024021902NINJ3       010GETNINJAS   ON      NM   R$  000000000050600000000005090000000000505000000000050700000000005090000000000505000000000050900019000000000000008900000000000004514800000000000000009999123100000010000000000000BRNINJACNOR5101
012024021902BAHI3       010BAHEMA      ON      MA   R$  000000000065300000000006650000000000650000000000065200000000006520000000000650000000000066700009000000000000001400000000000000914000000000000000009999123100000010000000000000BRBAHIACNOR1074
012024021902BALM4       010BAUMER      PN           R$  000000000097600000000009760000000000975000000000097500000000009750000000000976000000000100000002000000000000000300000000000000292700000000000000009999123100000010000000000000BRBALMACNPR2056
012024021902BAZA3       010AMAZONIA    ON           R$  000000000882900000000089440000000008829000000000885000000000089440000000008701000000000895100010000000000000001200000000000010620500000000000000009999123100000010000000000000BRBAZAACNOR0178
012024021902BBAS3       010BRASIL      ON      NM   R$  000000000579200000000059050000000005760000000000584800000000058920000000005892000000000589527529000000000009131800000000053404302200000000000000009999123100000010000000000000BRBBASACNOR3319
012024021902BHIA3       010CASAS BAHIA ON      NM   R$  000000000082600000000008610000000000820000000000084200000000008410000000000840000000000084208568000000000005395900000000004546905400000000000000009999123100000010000000000000BRBHIAACNOR1101
012024021902BRKM3       010BRASKEM     ON      N1   R$  000000000197900000000019900000000001939000000000197100000000019860000000001972000000000198800095000000000000016700000000000032916700000000000000009999123100000010000000000000BRBRKMACNOR1119
012024021902BRKM5       010BRASKEM     PNA     N1   R$  000000000192500000000019420000000001883000000000190400000000019060000000001905000000000190705499000000000002096400000000003991897000000000000000009999123100000010000000000000BRBRKMACNPA4121
012024021902BRSR3       010BANRISUL    ON      N1   R$  000000000147000000000014890000000001470000000000147900000000014800000000001461000000000148800026000000000000003500000000000005177400000000000000009999123100000010000000000000BRBRSRACNOR3185
012024021902BRSR5       010BANRISUL    PNA     N1   R$  000000000184700000000018470000000001847000000000184700000000018470000000001200000000000184700001000000000000000100000000000000184700000000000000009999123100000010000000000000BRBRSRACNPA6189
012024021902BRSR6       010BANRISUL    PNB     N1   R$  000000000147400000000015100000000001471000000000149500000000015060000000001503000000000150702581000000000000573900000000000858197100000000000000009999123100000010000000000000BRBRSRACNPB4188
012024021902CXSE3       010CAIXA SEGURION      NM   R$  000000000137800000000014170000000001378000000000140400000000014120000000001410000000000141409622000000000004048200000000005684451100000000000000009999123100000010000000000000BRCXSEACNOR7105
012024021902CYRE3       010CYRELA REALTON      NM   R$  000000000220000000000022000000000002162000000000218100000000021850000000002182000000000218508789000000000002068400000000004512293500000000000000009999123100000010000000000000BRCYREACNOR7139
012024021902GGPS3       010GPS         ON      NM   R$  000000000182900000000018540000000001826000000000184200000000018430000000001836000000000184304663000000000000812000000000001496182900000000000000009999123100000010000000000000BRGGPSACNOR9102
012024021902GMAT3       010GRUPO MATEUSON      NM   R$  000000000072300000000007370000000000716000000000072500000000007240000000000724000000000072507275000000000002977000000000002158346400000000000000009999123100000010000000000000BRGMATACNOR7100
012024021902GOAU3       010GERDAU MET  ON      N1   R$  000000000103300000000010370000000001020000000000102700000000010320000000001031000000000103300220000000000000048400000000000049717800000000000000009999123100000010000000000000BRGOAUACNOR1265
012024021902GOAU4       010GERDAU MET  PN      N1   R$  000000000100100000000010020000000000990000000000099600000000009980000000000998000000000099905911000000000003448100000000003436602700000000000000009999123100000010000000000000BRGOAUACNPR8266
012024021902JALL3       010JALLESMACHADON      NM   R$  000000000074500000000007470000000000733000000000073900000000007420000000000738000000000074201306000000000000368500000000000272538600000000000000009999123100000010000000000000BRJALLACNOR0105
012024021902JBSS3       010JBS         ON      NM   R$  000000000222700000000022390000000002191000000000220800000000022210000000002218000000000222109008000000000003234200000000007142584700000000000000009999123100000010000000000000BRJBSSACNOR8121
012024021902JHSF3       010JHSF PART   ON      NM   R$  000000000042600000000004280000000000422000000000042400000000004250000000000424000000000042504184000000000002963000000000001257613400000000000000009999123100000010000000000000BRJHSFACNOR2132
012024021902MRVE3       010MRV         ON      NM   R$  000000000072800000000007390000000000721000000000073100000000007320000000000731000000000073211105000000000011110900000000008122933500000000000000009999123100000010000000000000BRMRVEACNOR2126
012024021902RSUL4       010RIOSULENSE  PN           R$  000000000766100000000078490000000007660000000000773800000000078490000000007605000000000785000015000000000000001900000000000014703800000000000000009999123100000010000000000000BRRSULACNPR3113
012024021902ESPA3       010ESPACOLASER ON      NM   R$  000000000009900000000001000000000000097000000000009700000000000990000000000098000000000009900754000000000000739000000000000072375100000000000000009999123100000010000000000000BRESPAACNOR7103
012024021902ESTR4       010ESTRELA     PN           R$  000000000036500000000003650000000000364000000000036400000000003640000000000358000000000036500002000000000000000400000000000000145900000000000000009999123100000010000000000000BRESTRACNPR0144
012024021902EUCA3       010EUCATEX     ON      N1   R$  000000000158100000000016320000000001581000000000159600000000016320000000001610000000000164900006000000000000000600000000000000958100000000000000009999123100000010000000000000BREUCAACNOR1157
012024021902EUCA4       010EUCATEX     PN      N1   R$  000000000161000000000016370000000001602000000000162500000000016310000000001614000000000163100195000000000000064100000000000104168500000000000000009999123100000010000000000000BREUCAACNPR8044
012024021902EVEN3       010EVEN        ON      NM   R$  000000000075100000000007840000000000751000000000077200000000007630000000000763000000000076801998000000000000649300000000000501343700000000000000009999123100000010000000000000BREVENACNOR8118
012024021902EZTC3       010EZTEC       ON      NM   R$  000000000151200000000015290000000001496000000000150500000000015020000000001502000000000150405338000000000001318100000000001984551100000000000000009999123100000010000000000000BREZTCACNOR0123
012024021902ITSA3       010ITAUSA      ON      N1   R$  000000000104300000000010570000000001042000000000105000000000010480000000001048000000000105000210000000000000082400000000000086584300000000000000009999123100000010000000000000BRITSAACNOR0436
012024021902ITSA4       010ITAUSA      PN      N1   R$  000000000104600000000010570000000001044000000000105200000000010540000000001053000000000105523508000000000012006600000000012634441200000000000000009999123100000010000000000000BRITSAACNPR7436
012024021902ALPA3       010ALPARGATAS  ON      N1   R$  000000000095600000000009560000000000956000000000095600000000009560000000000920000000000095700001000000000000000300000000000000286800000000000000009999123100000010000000000000BRALPAACNOR0231
012024021902ALPA4       010ALPARGATAS  PN      N1   R$  000000000092900000000009410000000000910000000000092800000000009400000000000937000000000094009616000000000003295900000000003060656100000000000000009999123100000010000000000000BRALPAACNPR7232
012024021902ALPK3       010ESTAPAR     ON      NM   R$  000000000045000000000004500000000000430000000000043800000000004440000000000441000000000044400481000000000000221500000000000097045700000000000000009999123100000010000000000000BRALPKACNOR9101
012024021902ALUP11      010ALUPAR      UNT     N2   R$  000000000290100000000029530000000002895000000000292500000000029250000000002915000000000292501778000000000000529000000000001547718500000000000000009999123100000010000000000000BRALUPCDAM15117
012024021902ALUP3       010ALUPAR      ON      N2   R$  000000000097000000000009840000000000951000000000096800000000009750000000000962000000000097500125000000000000020800000000000020138900000000000000009999123100000010000000000000BRALUPACNOR8117
012024021902ALUP4       010ALUPAR      PN      N2   R$  000000000097500000000009850000000000963000000000097600000000009680000000000967000000000097800139000000000000023500000000000022936100000000000000009999123100000010000000000000BRALUPACNPR5117
012024021902AMAR3       010LOJAS MARISAON      NM   R$  000000000027200000000002720000000000263000000000026800000000002630000000000263000000000026600843000000000000488300000000000130883300000000000000009999123100000010000000000000BRAMARACNOR4114
012024021902AMBP3       010AMBIPAR     ON      NM   R$  000000000142100000000014660000000001398000000000143400000000014570000000001457000000000145803683000000000000769900000000001104618300000000000000009999123100000010000000000000BRAMBPACNOR6103
012024021902RADL3       010RAIADROGASILON      NM   R$  000000000252400000000025300000000002481000000000249800000000024900000000002488000000000249010971000000000002992400000000007475287500000000000000009999123100000010000000000000BRRADLACNOR0154
012024021902SUZB3       010SUZANO S.A. ON      NM   R$  000000000529000000000053290000000005223000000000529400000000053040000000005301000000000530406596000000000001747600000000009252325400000000000000009999123100000010000000000000BRSUZBACNOR0129
012024021902PRNR3       010PRINER      ON      NM   R$  000000000109200000000010920000000001062000000000107200000000010700000000001069000000000107401756000000000000688200000000000738211000000000000000009999123100000010000000000000BRPRNRACNOR4108
012024021902PSSA3       010PORTO SEGUROON      NM   R$  000000000260400000000026130000000002582000000000259800000000026000000000002596000000000260004593000000000000932300000000002422556400000000000000009999123100000010000000000000BRPSSAACNOR7153
012024021902PTBL3       010PORTOBELLO  ON      NM   R$  000000000058600000000005870000000000573000000000057700000000005730000000000573000000000057500635000000000000197800000000000114138400000000000000009999123100000010000000000000BRPTBLACNOR8132
012024021902PTNT3       010PETTENATI   ON           R$  000000000117900000000012000000000001179000000000119100000000011990000000001144000000000119900005000000000000000500000000000000595700000000000000009999123100000010000000000000BRPTNTACNOR6042
012024021902PTNT4       010PETTENATI   PN           R$  000000000079100000000007910000000000750000000000075900000000007650000000000752000000000076900041000000000000019000000000000014431000000000000000009999123100000010000000000000BRPTNTACNPR3047
012024021902ANIM3       010ANIMA       ON      NM   R$  000000000044700000000004580000000000429000000000043900000000004310000000000430000000000043106375000000000005228300000000002299757000000000000000009999123100000010000000000000BRANIMACNOR6107
012024021902APER3       010ALPER S.A.  ON           R$  000000000439900000000045000000000004300000000000441300000000044050000000004405000000000445000045000000000000010500000000000046343700000000000000009999123100000010000000000000BRAPERACNOR9106
012024021902ARML3       010ARMAC       ON      NM   R$  000000000135500000000013570000000001309000000000132800000000013290000000001316000000000133102168000000000000350800000000000465909500000000000000009999123100000010000000000000BRARMLACNOR1110
012024021902COCE5       010COELCE      PNA          R$  000000000418400000000042350000000004170000000000420300000000042310000000004183000000000423100303000000000000037600000000000158067200000000000000009999123100000010000000000000BRCOCEACNPA3146
012024021902COGN3       010COGNA ON    ON      NM   R$  000000000024100000000002510000000000241000000000024700000000002480000000000248000000000024919638000000000027822500000000006887296700000000000000009999123100000010000000000000BRCOGNACNOR2104
012024021902ENAT3       010ENAUTA PART ON      NM   R$  000000000220000000000023520000000002163000000000221200000000021830000000002182000000000218609460000000000002630200000000005819031300000000000000009999123100000010000000000000BRENATACNOR0104
012024021902ENEV3       010ENEVA       ON      NM   R$  000000000123500000000012420000000001218000000000123100000000012340000000001233000000000123808313000000000002935100000000003615785200000000000000009999123100000010000000000000BRENEVACNOR8105
012024021902ENGI11      010ENERGISA    UNT     N2   R$  000000000504600000000050790000000005035000000000505200000000050450000000005041000000000504506074000000000001172200000000005922966600000000000000009999123100000010000000000000BRENGICDAM16135
012024021902ENGI3       010ENERGISA    ON      N2   R$  000000000167000000000016730000000001641000000000165400000000016410000000001641000000000165600065000000000000009300000000000015390200000000000000009999123100000010000000000000BRENGIACNOR0145
012024021902ENGI4       010ENERGISA    PN      N2   R$  000000000085000000000008570000000000845000000000085200000000008570000000000845000000000085700046000000000000008200000000000006993100000000000000009999123100000010000000000000BRENGIACNPR7141
012024021902ENJU3       010ENJOEI      ON      NM   R$  000000000015500000000001550000000000151000000000015200000000001530000000000153000000000015400107000000000000106700000000000016294700000000000000009999123100000010000000000000BRENJUACNOR9100
012024021902EPAR3       010EMBPAR S/A  ON           R$  000000000097000000000009780000000000969000000000097200000000009700000000000965000000000097500020000000000000006800000000000006615500000000000000009999123100000010000000000000BREPARACNOR9104
012024021902EQPA3       010EQTL PARA   ON           R$  000000000081800000000008180000000000786000000000079700000000007950000000000788000000000079800007000000000000001000000000000000797800000000000000009999123100000010000000000000BREQPAACNOR1110
012024021902EQTL3       010EQUATORIAL  ON      NM   R$  000000000338400000000034210000000003384000000000340000000000033990000000003397000000000339910360000000000003321300000000011295184700000000000000009999123100000010000000000000BREQTLACNOR0129
012024021902INEP3       010INEPAR      ON           R$  000000000039000000000003900000000000381000000000038300000000003810000000000381000000000038300047000000000000007000000000000002685300000000000000009999123100000010000000000000BRINEPACNOR1143
012024021902INEP4       010INEPAR      PN           R$  000000000031400000000003280000000000314000000000032100000000003170000000000316000000000032400239000000000000030500000000000009793100000000000000009999123100000010000000000000BRINEPACNPR8143
012024021902INTB3       010INTELBRAS   ON      NM   R$  000000000197200000000019970000000001934000000000196000000000019850000000001985000000000199203178000000000000727900000000001427365300000000000000009999123100000010000000000000BRINTBACNOR9109
012024021902IRBR3       010IRBBRASIL REON      NM   R$  000000000403400000000041680000000004015000000000410900000000041170000000004116000000000412103374000000000000866200000000003559424800000000000000009999123100000010000000000000BRIRBRACNOR4110
012024021902MATD3       010MATER DEI   ON      NM   R$  000000000065600000000006650000000000636000000000064600000000006400000000000640000000000064801484000000000000309300000000000199863100000000000000009999123100000010000000000000BRMATDACNOR4103
012024021902MBLY3       010MOBLY       ON      NM   R$  000000000021800000000002240000000000215000000000022100000000002210000000000221000000000022300486000000000000549700000000000121501800000000000000009999123100000010000000000000BRMBLYACNOR5100
012024021902MDIA3       010M.DIASBRANCOON      NM   R$  000000000390000000000039000000000003785000000000383600000000038430000000003828000000000384302880000000000000686300000000002632992300000000000000009999123100000010000000000000BRMDIAACNOR7133
012024021902MDNE3       010MOURA DUBEUXON      NM   R$  000000000109800000000011130000000001086000000000109800000000011090000000001109000000000111000963000000000000212200000000000233067600000000000000009999123100000010000000000000BRMDNEACNOR9100
012024021902MEAL3       010IMC S/A     ON      NM   R$  000000000018300000000001830000000000179000000000018100000000001830000000000182000000000018300242000000000000333900000000000060500800000000000000009999123100000010000000000000BRMEALACNOR9105
012024021902MELK3       010MELNICK     ON      NM   R$  000000000044300000000004520000000000437000000000044700000000004470000000000446000000000044700305000000000000286400000000000128249400000000000000009999123100000010000000000000BRMELKACNOR8110
012024021902MERC4       010MERC FINANC PN           R$  000000000095000000000009500000000000950000000000095000000000009500000000000950000000000109000003000000000000000500000000000000475000000000000000009999123100000010000000000000BRMERCACNPR9180
012024021902MGEL4       010MANGELS INDLPN           R$  000000000132700000000013490000000001327000000000133100000000013330000000001327000000000135900005000000000000000600000000000000799000000000000000009999123100000010000000000000BRMGELACNPR3147
012024021902MGLU3       010MAGAZ LUIZA ON      NM   R$  000000000020300000000002100000000000202000000000020700000000002090000000000209000000000021013242000000000076165900000000015779498000000000000000009999123100000010000000000000BRMGLUACNOR2123
012024021902AERI3       010AERIS       ON      NM   R$  000000000007700000000000800000000000076000000000007800000000000800000000000079000000000008002995000000000006794600000000000534792800000000000000009999123100000010000000000000BRAERIACNOR4101
012024021902AESB3       010AES BRASIL  ON      NM   R$  000000000103500000000010360000000001025000000000102700000000010310000000001029000000000103205137000000000001477300000000001518515700000000000000009999123100000010000000000000BRAESBACNOR7105
012024021902AFLT3       010AFLUENTE T  ON           R$  000000000078900000000007890000000000789000000000078900000000007890000000000755000000000078400001000000000000000100000000000000078900000000000000009999123100000010000000000000BRAFLTACNOR1120
012024021902SMFT3       010SMART FIT   ON      NM   R$  000000000244500000000024760000000002412000000000243700000000024260000000002426000000000243404216000000000000910900000000002220041500000000000000009999123100000010000000000000BRSMFTACNOR1111
012024021902SMTO3       010SAO MARTINHOON      NM   R$  000000000258500000000025960000000002543000000000256700000000025800000000002572000000000258005436000000000001513800000000003886618200000000000000009999123100000010000000000000BRSMTOACNOR3125
012024021902PFRM3       010PROFARMA    ON      NM   R$  000000000047900000000004950000000000468000000000048100000000004950000000000489000000000049500486000000000000251400000000000121112200000000000000009999123100000010000000000000BRPFRMACNOR1116
012024021902PGMN3       010PAGUE MENOS ON      NM   R$  000000000029100000000002940000000000286000000000028800000000002870000000000287000000000028801168000000000000908600000000000262160200000000000000009999123100000010000000000000BRPGMNACNOR8103
012024021902PINE3       010PINE        ON      N2   R$  000000000049000000000004900000000000490000000000049000000000004900000000000435000000000049000009000000000000003400000000000001666000000000000000009999123100000010000000000000BRPINEACNOR1148
012024021902PINE4       010PINE        PN      N2   R$  000000000044300000000004510000000000435000000000044300000000004510000000000449000000000045100701000000000000356600000000000158201400000000000000009999123100000010000000000000BRPINEACNPR8148
012024021902PLAS3       010PLASCAR PARTON           R$  000000000070000000000007000000000000700000000000070000000000007000000000000701000000000074800001000000000000000100000000000000070000000000000000009999123100000010000000000000BRPLASACNOR2106
012024021902SAPR11      010SANEPAR     UNT     N2   R$  000000000264200000000026610000000002603000000000262000000000026300000000002620000000000263002588000000000000523700000000001372353400000000000000009999123100000010000000000000BRSAPRCDAM13117
012024021902SAPR3       010SANEPAR     ON      N2   R$  000000000050800000000005080000000000499000000000050200000000005020000000000500000000000050200817000000000000248700000000000125016500000000000000009999123100000010000000000000BRSAPRACNOR9158
012024021902SAPR4       010SANEPAR     PN      N2   R$  000000000053700000000005380000000000525000000000052800000000005280000000000527000000000052802271000000000001594600000000000842698000000000000000009999123100000010000000000000BRSAPRACNPR6158
012024021902SBFG3       010GRUPO SBF   ON      NM   R$  000000000117000000000011840000000001153000000000117100000000011810000000001181000000000118304177000000000001427100000000001671624100000000000000009999123100000010000000000000BRSBFGACNOR1102
012024021902SBSP3       010SABESP      ON      NM   R$  000000000818000000000082160000000008110000000000817500000000081880000000008185000000000818905422000000000001102200000000009011331300000000000000009999123100000010000000000000BRSBSPACNOR5160
012024021902SCAR3       010SAO CARLOS  ON      NM   R$  000000000272000000000027210000000002700000000000271000000000027000000000002700000000000274400008000000000000000900000000000002439300000000000000009999123100000010000000000000BRSCARACNOR7130
012024021902SEER3       010SER EDUCA   ON      NM   R$  000000000055500000000005990000000000551000000000058700000000005880000000000588000000000059502815000000000001463400000000000860095600000000000000009999123100000010000000000000BRSEERACNOR5119
012024021902SEQL3       010SEQUOIA LOG ON      NM   R$  000000000004900000000000510000000000048000000000004900000000000500000000000049000000000005003594000000000006852600000000000339301400000000000000009999123100000010000000000000BRSEQLACNOR2101
012024021902VALE3       010VALE        ON      NM   R$  000000000670400000000067590000000006664000000000671800000000067490000000006745000000000674925565000000000012571600000000084466133800000000000000009999123100000010000000000000BRVALEACNOR0209
012024021902SNSY3       010SANSUY      ON           R$  000000000114500000000011470000000001060000000000111100000000010970000000001097000000000113200054000000000000008400000000000009332900000000000000009999123100000010000000000000BRSNSYACNOR2113
012024021902SNSY5       010SANSUY      PNA          R$  000000000052300000000005230000000000503000000000051600000000005130000000000503000000000051400007000000000000001500000000000000774400000000000000009999123100000010000000000000BRSNSYACNPA5111
012024021902SOJA3       010BOA SAFRA   ON      NM   R$  000000000157300000000015830000000001525000000000155300000000015290000000001529000000000153800826000000000000185700000000000288425000000000000000009999123100000010000000000000BRSOJAACNOR9105
012024021902SOMA3       010GRUPO SOMA  ON      NM   R$  000000000070900000000007110000000000700000000000070300000000007030000000000702000000000070305387000000000004335700000000003051424400000000000000009999123100000010000000000000BRSOMAACNOR3102
012024021902SRNA3       010SERENA      ON      NM   R$  000000000100300000000010030000000000990000000000099600000000009970000000000990000000000099801280000000000000505700000000000504121200000000000000009999123100000010000000000000BRSRNAACNOR4100
012024021902STBP3       010SANTOS BRP  ON      NM   R$  000000000108000000000010960000000001065000000000108300000000010920000000001092000000000109305458000000000002297400000000002490334600000000000000009999123100000010000000000000BRSTBPACNOR3128
012024021902PETZ3       010PETZ        ON      NM   R$  000000000035300000000003540000000000348000000000034900000000003490000000000348000000000035004504000000000024633600000000008604472800000000000000009999123100000010000000000000BRPETZACNOR2109
012024021902PLPL3       010PLANOEPLANO ON      NM   R$  000000000121300000000012530000000001206000000000123500000000012530000000001250000000000125302328000000000000761200000000000940231600000000000000009999123100000010000000000000BRPLPLACNOR5104
012024021902PNVL3       010DIMED       ON      NM   R$  000000000112400000000011500000000001120000000000114100000000011480000000001140000000000114801309000000000000300100000000000342646500000000000000009999123100000010000000000000BRPNVLACNOR9205
012024021902POMO3       010MARCOPOLO   ON      N2   R$  000000000063100000000006510000000000631000000000064400000000006430000000000643000000000064901752000000000000329700000000000212594400000000000000009999123100000010000000000000BRPOMOACNOR0095
012024021902POMO4       010MARCOPOLO   PN      N2   R$  000000000082800000000008380000000000821000000000083200000000008350000000000833000000000083605756000000000002298200000000001913178100000000000000009999123100000010000000000000BRPOMOACNPR7095
012024021902PORT3       010WILSON SONS ON      NM   R$  000000000169400000000017210000000001672000000000168700000000016900000000001681000000000169000528000000000000338500000000000571387200000000000000009999123100000010000000000000BRPORTACNOR8106
012024021902POSI3       010POSITIVO TECON      NM   R$  000000000071700000000007320000000000715000000000072300000000007320000000000730000000000073201344000000000000593000000000000429211900000000000000009999123100000010000000000000BRPOSIACNOR9115
012024021902PRIO3       010PETRORIO    ON      NM   R$  000000000455300000000045960000000004486000000000454400000000045890000000004585000000000458915026000000000004924500000000022377087100000000000000009999123100000010000000000000BRPRIOACNOR1106
012024021902GEPA4       010GER PARANAP PN           R$  000000000252700000000025500000000002526000000000253400000000025500000000002502000000000257600003000000000000000300000000000000760300000000000000009999123100000010000000000000BRGEPAACNPR9159
012024021902GFSA3       010GAFISA      ON      NM   R$  000000000060600000000006350000000000593000000000062000000000006260000000000625000000000062706075000000000004737000000000002937666400000000000000009999123100000010000000000000BRGFSAACNOR3123
012024021902ITUB3       010ITAUUNIBANCOON      N1   R$  000000000297300000000030000000000002966000000000298700000000029950000000002992000000000299701819000000000000509700000000001522850100000000000000009999123100000010000000000000BRITUBACNOR4330
012024021902ITUB4       010ITAUUNIBANCOPN      N1   R$  000000000345800000000034940000000003455000000000347700000000034920000000003490000000000349232952000000000028274900000000098318853600000000000000009999123100000010000000000000BRITUBACNPR1330
012024021902MILS3       010MILLS       ON      NM   R$  000000000119100000000012310000000001181000000000121200000000012250000000001223000000000123002769000000000000856600000000001038493600000000000000009999123100000010000000000000BRMILSACNOR2124
012024021902ARZZ3       010AREZZO CO   ON      NM   R$  000000000587800000000059520000000005840000000000588700000000059000000000005900000000000590105573000000000001139900000000006711127100000000000000009999123100000010000000000000BRARZZACNOR3146
012024021902ASAI3       010ASSAI       ON      NM   R$  000000000135900000000013670000000001328000000000135000000000013540000000001353000000000135408316000000000006978200000000009421721400000000000000009999123100000010000000000000BRASAIACNOR0106
012024021902ATOM3       010ATOMPAR     ON           R$  000000000020000000000002000000000000199000000000019900000000002000000000000199000000000020000023000000000000017600000000000003519900000000000000009999123100000010000000000000BRATOMACNOR1106
012024021902AURE3       010AUREN       ON      NM   R$  000000000130300000000013360000000001302000000000132200000000013270000000001325000000000132705433000000000004786000000000006329820900000000000000009999123100000010000000000000BRAUREACNOR9103
012024021902AVLL3       010ALPHAVILLE  ON      NM   R$  000000000049000000000004950000000000490000000000049100000000004950000000000486000000000049500020000000000000005500000000000002703500000000000000009999123100000010000000000000BRAVLLACNOR5103
012024021902AZEV3       010AZEVEDO     ON           R$  000000000015400000000001640000000000151000000000015700000000001620000000000160000000000016200541000000000000476400000000000075170100000000000000009999123100000010000000000000BRAZEVACNOR0121
012024021902AZEV4       010AZEVEDO     PN           R$  000000000015100000000001650000000000150000000000015800000000001580000000000158000000000015902094000000000002222600000000000351972200000000000000009999123100000010000000000000BRAZEVACNPR7121
012024021902AZUL4       010AZUL        PN      N2   R$  000000000121700000000012170000000001191000000000119800000000011970000000001195000000000119708874000000000007331800000000008786254400000000000000009999123100000010000000000000BRAZULACNPR4102
012024021902BPAC11      010BTGP BANCO  UNT     N2   R$  000000000361100000000036960000000003601000000000366600000000036890000000003673000000000368912852000000000003649700000000013383344500000000000000009999123100000010000000000000BRBPACUNT006118
012024021902BPAC3       010BTGP BANCO  ON      N2   R$  000000000181000000000018700000000001810000000000184800000000018260000000001825000000000186600051000000000000006200000000000011462400000000000000009999123100000010000000000000BRBPACACNOR7133
012024021902BPAC5       010BTGP BANCO  PNA     N2   R$  000000000090100000000009140000000000890000000000090200000000009110000000000910000000000091100057000000000000010100000000000009110200000000000000009999123100000010000000000000BRBPACACNPA0133
012024021902CPFE3       010CPFL ENERGIAON      NM   R$  000000000358600000000036160000000003579000000000359200000000035860000000003584000000000359303457000000000000572100000000002055170000000000000000009999123100000010000000000000BRCPFEACNOR0136
012024021902CPLE3       010COPEL       ON      N2   R$  000000000092000000000009390000000000919000000000093200000000009390000000000934000000000093904606000000000002738600000000002553603200000000000000009999123100000010000000000000BRCPLEACNOR8148
012024021902CPLE6       010COPEL       PNB     N2   R$  000000000102100000000010360000000001021000000000103100000000010330000000001032000000000103311920000000000008078500000000008333630400000000000000009999123100000010000000000000BRCPLEACNPB9145
012024021902CRFB3       010CARREFOUR BRON      NM   R$  000000000109900000000011080000000001076000000000108700000000010840000000001084000000000108516357000000000008531700000000009277088900000000000000009999123100000010000000000000BRCRFBACNOR2116
012024021902CRIV3       010ALFA FINANC ON           R$  000000000061200000000006120000000000612000000000061200000000006120000000000612000000000065000002000000000000027000000000000016524000000000000000009999123100000010000000000000BRCRIVACNOR4195
012024021902BRAP3       010BRADESPAR   ON      N1   R$  000000000209700000000020970000000002056000000000206600000000020690000000002069000000000207400213000000000000057700000000000119210000000000000000009999123100000010000000000000BRBRAPACNOR5147
012024021902BRAP4       010BRADESPAR   PN      N1   R$  000000000221700000000022230000000002197000000000220800000000022150000000002210000000000221505536000000000002701000000000005964713600000000000000009999123100000010000000000000BRBRAPACNPR2147
012024021902CRIV4       010ALFA FINANC PN           R$  000000000059400000000005940000000000590000000000059200000000005940000000000594000000000061200003000000000000000300000000000000177800000000000000009999123100000010000000000000BRCRIVACNPR1211
012024021902CRPG3       010CRISTAL     ON           R$  000000000373000000000037300000000003729000000000372900000000037290000000003333000000000400000002000000000000000200000000000000745900000000000000009999123100000010000000000000BRCRPGACNOR0118
012024021902CRPG5       010CRISTAL     PNA          R$  000000000362500000000036250000000003611000000000361800000000036110000000003576000000000361100005000000000000000500000000000001809200000000000000009999123100000010000000000000BRCRPGACNPA3118
012024021902CSAN3       010COSAN       ON      NM   R$  000000000190000000000019080000000001862000000000188500000000018810000000001876000000000188112270000000000004330900000000008166660800000000000000009999123100000010000000000000BRCSANACNOR6124
012024021902CSED3       010CRUZEIRO EDUON      NM   R$  000000000041900000000004310000000000413000000000042400000000004290000000000422000000000043001685000000000000483700000000000205515800000000000000009999123100000010000000000000BRCSEDACNOR9104
012024021902CSMG3       010COPASA      ON      NM   R$  000000000218100000000022000000000002157000000000218500000000021920000000002184000000000219303962000000000001155100000000002524175600000000000000009999123100000010000000000000BRCSMGACNOR5171
012024021902CSNA3       010SID NACIONALON           R$  000000000188500000000019010000000001856000000000187900000000018920000000001892000000000189309397000000000004581600000000008609079400000000000000009999123100000010000000000000BRCSNAACNOR6260
012024021902FESA3       010FERBASA     ON      N1   R$  000000000149100000000014910000000001426000000000144000000000014620000000001462000000000147700029000000000000005700000000000008211800000000000000009999123100000010000000000000BRFESAACNOR8187
012024021902FESA4       010FERBASA     PN      N1   R$  000000000095100000000009600000000000939000000000094700000000009430000000000943000000000094501439000000000000377100000000000357431600000000000000009999123100000010000000000000BRFESAACNPR5083
012024021902FHER3       010FER HERINGERON      NM   R$  000000000059900000000006030000000000580000000000058700000000005880000000000581000000000058800050000000000000029300000000000017207500000000000000009999123100000010000000000000BRFHERACNOR5103
012024021902FIQE3       010UNIFIQUE    ON  EJ  NM   R$  000000000039200000000004000000000000387000000000039400000000003990000000000396000000000039900374000000000000184300000000000072729100000000000000009999123100000010000000000000BRFIQEACNOR5106
012024021902FLRY3       010FLEURY      ON      NM   R$  000000000158200000000015880000000001573000000000157600000000015750000000001575000000000157810461000000000003679700000000005799424000000000000000009999123100000010000000000000BRFLRYACNOR5137
012024021902BEEF3       010MINERVA     ON      NM   R$  000000000065000000000006610000000000648000000000065100000000006540000000000652000000000065408339000000000005403900000000003522761200000000000000009999123100000010000000000000BRBEEFACNOR6116
012024021902BEES3       010BANESTES    ON           R$  000000000095800000000009680000000000953000000000096000000000009650000000000960000000000096500056000000000000010200000000000009801800000000000000009999123100000010000000000000BRBEESACNOR9387
012024021902TRPL4       010TRAN PAULISTPN      N1   R$  000000000264200000000026490000000002621000000000263700000000026460000000002645000000000264606095000000000001138500000000003003240600000000000000009999123100000010000000000000BRTRPLACNPR1185
012024021902VVEO3       010VIVEO       ON      NM   R$  000000000079000000000007900000000000757000000000076600000000007680000000000760000000000076806357000000000001842400000000001412295400000000000000009999123100000010000000000000BRVVEOACNOR0103
012024021902WEGE3       010WEG         ON      NM   R$  000000000333300000000033490000000003305000000000332900000000033490000000003340000000000334909380000000000002780000000000009256740100000000000000009999123100000010000000000000BRWEGEACNOR0220
012024021902RAIL3       010RUMO S.A.   ON      NM   R$  000000000233500000000023450000000002312000000000232300000000023240000000002315000000000232611421000000000005571200000000012942061600000000000000009999123100000010000000000000BRRAILACNOR9104
012024021902RAIZ4       010RAIZEN      PN      N2   R$  000000000039000000000003930000000000382000000000038400000000003850000000000384000000000038612242000000000007637600000000002939277700000000000000009999123100000010000000000000BRRAIZACNPR6109
012024021902ODPV3       010ODONTOPREV  ON      NM   R$  000000000132000000000013220000000001288000000000129900000000013000000000001299000000000130001973000000000000636900000000000827677000000000000000009999123100000010000000000000BRODPVACNOR4198
012024021902OFSA3       010OUROFINO S/AON      NM   R$  000000000210000000000021000000000002077000000000208000000000020990000000002077000000000210000013000000000000010400000000000021638900000000000000009999123100000010000000000000BROFSAACNOR7117
012024021902ONCO3       010ONCOCLINICASON      NM   R$  000000000101500000000010260000000001001000000000101200000000010100000000001010000000000101105188000000000001530700000000001549378300000000000000009999123100000010000000000000BRONCOACNOR6100
012024021902OPCT3       010OCEANPACT   ON      NM   R$  000000000054500000000005450000000000529000000000053500000000005370000000000537000000000053902031000000000001014200000000000542657600000000000000009999123100000010000000000000BROPCTACNOR0100
012024021902ORVR3       010ORIZON      ON      NM   R$  000000000330700000000033940000000003300000000000335700000000033690000000003365000000000337201705000000000000514000000000001725580700000000000000009999123100000010000000000000BRORVRACNOR0101
012024021902PCAR3       010P.ACUCAR-CBDON      NM   R$  000000000039000000000003980000000000388000000000039100000000003900000000000389000000000039104923000000000003394000000000001330349800000000000000009999123100000010000000000000BRPCARACNOR3167
012024021902BIOM3       010BIOMM       ON      MA   R$  000000000053900000000005790000000000527000000000054500000000005590000000000548000000000055500063000000000000020500000000000011187600000000000000009999123100000010000000000000BRBIOMACNOR2112
012024021902BSLI3       010BRB BANCO   ON           R$  000000000127500000000012750000000001275000000000127500000000012750000000001250000000000129800001000000000000000100000000000000127500000000000000009999123100000010000000000000BRBSLIACNOR5192
012024021902BSLI4       010BRB BANCO   PN           R$  000000000113200000000011320000000001132000000000113200000000011320000000001132000000000117400001000000000000000200000000000000226400000000000000009999123100000010000000000000BRBSLIACNPR2192
012024021902CAMB3       010CAMBUCI     ON           R$  000000000109900000000011250000000001085000000000110500000000011070000000001100000000000110800172000000000000052100000000000057592100000000000000009999123100000010000000000000BRCAMBACNOR4127
012024021902CAML3       010CAMIL       ON      NM   R$  000000000088300000000008830000000000845000000000085300000000008530000000000851000000000085502002000000000000568400000000000485018600000000000000009999123100000010000000000000BRCAMLACNOR3126
012024021902CASH3       010MELIUZ      ON      NM   R$  000000000070400000000007160000000000688000000000070000000000007060000000000706000000000070705257000000000003755800000000002629532900000000000000009999123100000010000000000000BRCASHACNOR8105
012024021902CBAV3       010CBA         ON      NM   R$  000000000038900000000004010000000000381000000000039300000000003960000000000394000000000039707089000000000003915500000000001539573500000000000000009999123100000010000000000000BRCBAVACNOR5104
012024021902CBEE3       010AMPLA ENERG ON           R$  000000000120000000000012000000000001200000000000120000000000012000000000001200000000000148400001000000000000000100000000000000120000000000000000009999123100000010000000000000BRCBEEACNOR3159
012024021902CCRO3       010CCR SA      ON      NM   R$  000000000132300000000013250000000001304000000000131500000000013190000000001319000000000132007036000000000003983000000000005238100900000000000000009999123100000010000000000000BRCCROACNOR2144
012024021902DASA3       010DASA        ON      NM   R$  000000000072400000000007360000000000717000000000072200000000007200000000000720000000000072400723000000000000246600000000000178224100000000000000009999123100000010000000000000BRDASAACNOR1122
012024021902EALT3       010ACO ALTONA  ON           R$  000000000093100000000009310000000000911000000000091600000000009110000000000911000000000095000003000000000000000900000000000000824600000000000000009999123100000010000000000000BREALTACNOR4137
012024021902EALT4       010ACO ALTONA  PN           R$  000000000100000000000010090000000000975000000000098500000000010090000000000982000000000100900026000000000000006400000000000006305200000000000000009999123100000010000000000000BREALTACNPR1137
012024021902ECOR3       010ECORODOVIAS ON      NM   R$  000000000089100000000008950000000000873000000000087900000000008760000000000875000000000087703686000000000001634700000000001438493700000000000000009999123100000010000000000000BRECORACNOR8119
012024021902GRND3       010GRENDENE    ON      NM   R$  000000000064500000000006450000000000637000000000064000000000006370000000000637000000000064001929000000000000727100000000000465512300000000000000009999123100000010000000000000BRGRNDACNOR3172
012024021902GUAR3       010GUARARAPES  ON      NM   R$  000000000050100000000005070000000000492000000000049800000000005040000000000501000000000050403766000000000001207400000000000602314900000000000000009999123100000010000000000000BRGUARACNOR4172
012024021902HAGA3       010HAGA S/A    ON           R$  000000000024300000000002480000000000242000000000024600000000002480000000000243000000000024900005000000000000001400000000000000344600000000000000009999123100000010000000000000BRHAGAACNOR7103
012024021902HAGA4       010HAGA S/A    PN           R$  000000000010500000000001080000000000105000000000010600000000001070000000000107000000000010800011000000000000013900000000000001477700000000000000009999123100000010000000000000BRHAGAACNPR4103
012024021902HAPV3       010HAPVIDA     ON      NM   R$  000000000034700000000003510000000000343000000000034600000000003490000000000348000000000034920255000000000020860100000000007224426000000000000000009999123100000010000000000000BRHAPVACNOR4113
012024021902JSLG3       010JSL         ON      NM   R$  000000000108000000000010800000000001060000000000106600000000010660000000001066000000000107500547000000000000130400000000000139104100000000000000009999123100000010000000000000BRJSLGACNOR2121
012024021902KEPL3       010KEPLER WEBERON      NM   R$  000000000093600000000009430000000000926000000000093300000000009350000000000933000000000093602925000000000000672900000000000628067900000000000000009999123100000010000000000000BRKEPLACNOR1061
012024021902KLBN11      010KLABIN S/A  UNT ED  N2   R$  000000000216500000000021690000000002136000000000214900000000021530000000002152000000000215405606000000000001793400000000003854448600000000000000009999123100000010000000000000BRKLBNCDAM18140
012024021902KLBN3       010KLABIN S/A  ON  ED  N2   R$  000000000043400000000004340000000000426000000000042900000000004260000000000426000000000042900630000000000000228800000000000098253500000000000000009999123100000010000000000000BRKLBNACNOR2168
012024021902KLBN4       010KLABIN S/A  PN  ED  N2   R$  000000000043100000000004320000000000426000000000042800000000004280000000000428000000000043001877000000000001746600000000000748863600000000000000009999123100000010000000000000BRKLBNACNPR9168
012024021902SANB11      010SANTANDER BRUNT          R$  000000000293500000000029360000000002883000000000291200000000029090000000002908000000000291305033000000000001364200000000003973634400000000000000009999123100000010000000000000BRSANBCDAM13163
012024021902SANB3       010SANTANDER BRON           R$  000000000137300000000013790000000001358000000000136700000000013650000000001363000000000136500487000000000000094000000000000128566500000000000000009999123100000010000000000000BRSANBACNOR8170
012024021902SANB4       010SANTANDER BRPN           R$  000000000154100000000015500000000001525000000000154000000000015480000000001539000000000155000549000000000000091600000000000141106000000000000000009999123100000010000000000000BRSANBACNPR5170
012024021902USIM3       010USIMINAS    ON      N1   R$  000000000098900000000009900000000000966000000000097900000000009900000000000981000000000099502476000000000001510700000000001479156000000000000000009999123100000010000000000000BRUSIMACNOR3166
012024021902USIM5       010USIMINAS    PNA     N1   R$  000000000100000000000010210000000000982000000000100300000000010160000000001013000000000101610274000000000009529400000000009561959000000000000000009999123100000010000000000000BRUSIMACNPA6168
012024021902MOVI3       010MOVIDA      ON      NM   R$  000000000080300000000008240000000000800000000000080800000000008200000000000820000000000082506311000000000003168700000000002562827900000000000000009999123100000010000000000000BRMOVIACNOR0122
012024021902MRFG3       010MARFRIG     ON      NM   R$  000000000090600000000009060000000000858000000000087000000000008680000000000868000000000086913188000000000009588700000000008344145600000000000000009999123100000010000000000000BRMRFGACNOR0116
012024021902BRFS3       010BRF SA      ON      NM   R$  000000000141800000000014300000000001401000000000141100000000014150000000001413000000000141807844000000000002522700000000003561607000000000000000009999123100000010000000000000BRBRFSACNOR8121
012024021902BRGE11      010ALFA CONSORCPNE          R$  000000000115100000000011510000000001151000000000115100000000011510000000001156000000000118000001000000000000001000000000000001151000000000000000009999123100000010000000000000BRBRGEACNPE1112
012024021902BRGE12      010ALFA CONSORCPNF          R$  000000000115200000000011520000000001152000000000115200000000011520000000001161000000000118500001000000000000001000000000000001152000000000000000009999123100000010000000000000BRBRGEACNPF8098
012024021902BRGE3       010ALFA CONSORCON           R$  000000000117900000000011840000000001179000000000118000000000011840000000001184000000000180000002000000000000000400000000000000472100000000000000009999123100000010000000000000BRBRGEACNOR6204
012024021902BRIT3       010BRISANET    ON      NM   R$  000000000028700000000002900000000000283000000000028600000000002840000000000284000000000028700446000000000000272600000000000078086400000000000000009999123100000010000000000000BRBRITACNOR0102
012024021902BRIV3       010ALFA INVEST ON           R$  000000000112800000000011280000000001128000000000112800000000011280000000001032000000000139900003000000000000013200000000000014889600000000000000009999123100000010000000000000BRBRIVACNOR6209
012024021902BRIV4       010ALFA INVEST PN           R$  000000000111900000000011260000000001100000000000111800000000011260000000001101000000000112700014000000000000007200000000000008049800000000000000009999123100000010000000000000BRBRIVACNPR3218
012024021902CSUD3       010CSU DIGITAL ON      NM   R$  000000000186700000000018900000000001833000000000186800000000018860000000001863000000000188800223000000000000033000000000000061650600000000000000009999123100000010000000000000BRCSUDACNOR5107
012024021902CTNM4       010COTEMINAS   PN           R$  000000000013800000000001480000000000138000000000014400000000001440000000000142000000000014400177000000000000140100000000000020188100000000000000009999123100000010000000000000BRCTNMACNPR6129
012024021902CTSA3       010SANTANENSE  ON           R$  000000000031700000000003220000000000311000000000031600000000003160000000000319000000000032200013000000000000005700000000000001804800000000000000009999123100000010000000000000BRCTSAACNOR3062
012024021902CTSA4       010SANTANENSE  PN           R$  000000000017300000000001780000000000168000000000017400000000001760000000000172000000000017700174000000000000035900000000000006263500000000000000009999123100000010000000000000BRCTSAACNPR0062
012024021902CURY3       010CURY S/A    ON      NM   R$  000000000180100000000018320000000001789000000000181800000000018160000000001814000000000182104307000000000001050700000000001910222500000000000000009999123100000010000000000000BRCURYACNOR3107
012024021902CVCB3       010CVC BRASIL  ON      NM   R$  000000000031400000000003300000000000312000000000032100000000003300000000000329000000000033004808000000000015195400000000004879688600000000000000009999123100000010000000000000BRCVCBACNOR1115
012024021902GGBR3       010GERDAU      ON      N1   R$  000000000199900000000020090000000001975000000000199400000000020000000000001994000000000200000187000000000000041400000000000082592500000000000000009999123100000010000000000000BRGGBRACNOR1189
012024021902GGBR4       010GERDAU      PN      N1   R$  000000000211700000000021320000000002094000000000211700000000021260000000002125000000000212611745000000000003876700000000008208721600000000000000009999123100000010000000000000BRGGBRACNPR8189
012024021902MLAS3       010MULTILASER  ON      NM   R$  000000000019100000000002000000000000189000000000019400000000001970000000000197000000000019802345000000000001552200000000000301775100000000000000009999123100000010000000000000BRMLASACNOR9101
012024021902MNDL3       010MUNDIAL     ON           R$  000000000400000000000041000000000004000000000000406200000000040800000000004050000000000429900007000000000000000700000000000002843600000000000000009999123100000010000000000000BRMNDLACNOR4107
012024021902MNPR3       010MINUPAR     ON           R$  000000000190200000000019840000000001902000000000194800000000019840000000001900000000000198400003000000000000000300000000000000584600000000000000009999123100000010000000000000BRMNPRACNOR5122
012024021902BEES4       010BANESTES    PN           R$  000000000099700000000010020000000000997000000000099900000000010000000000000998000000000100000024000000000000002900000000000002898500000000000000009999123100000010000000000000BRBEESACNPR6312
012024021902BGIP3       010BANESE      ON           R$  000000000268900000000027000000000002650000000000267600000000026500000000002630000000000270500005000000000000000500000000000001338000000000000000009999123100000010000000000000BRBGIPACNOR1206
012024021902BGIP4       010BANESE      PN           R$  000000000263800000000026500000000002637000000000264100000000026500000000002600000000000268900006000000000000000700000000000001848800000000000000009999123100000010000000000000BRBGIPACNPR8206
012024021902BRBI11      010BR PARTNERS UNT     N2   R$  000000000157800000000015890000000001553000000000157000000000015550000000001555000000000157901025000000000000206400000000000324232800000000000000009999123100000010000000000000BRBRBICDAM10107
012024021902SGPS3       010SPRINGS     ON      NM   R$  000000000010100000000001030000000000097000000000009900000000000970000000000097000000000009900223000000000000363300000000000036213700000000000000009999123100000010000000000000BRSGPSACNOR4104
012024021902SHOW3       010TIME FOR FUNON      NM   R$  000000000020300000000002030000000000200000000000020100000000002020000000000202000000000020300201000000000000114100000000000023039500000000000000009999123100000010000000000000BRSHOWACNOR7105
012024021902SHUL4       010SCHULZ      PN           R$  000000000064300000000006750000000000641000000000066200000000006580000000000658000000000066502574000000000000719900000000000476927200000000000000009999123100000010000000000000BRSHULACNPR4154
012024021902SIMH3       010SIMPAR      ON      NM   R$  000000000074300000000007440000000000722000000000072700000000007260000000000726000000000072904215000000000002104500000000001531843900000000000000009999123100000010000000000000BRSIMHACNOR0107
012024021902SLCE3       010SLC AGRICOLAON      NM   R$  000000000195500000000019620000000001898000000000191700000000019180000000001912000000000192006945000000000001899100000000003640755700000000000000009999123100000010000000000000BRSLCEACNOR2124
012024021902B3SA3       010B3          ON      NM   R$  000000000127100000000012770000000001257000000000126600000000012690000000001268000000000126919691000000000014486700000000018350468400000000000000009999123100000010000000000000BRB3SAACNOR6130
012024021902BBSE3       010BBSEGURIDADEON  EDR NM   R$  000000000327800000000033090000000003242000000000327700000000032770000000003276000000000328207597000000000003584300000000011747165300000000000000009999123100000010000000000000BRBBSEACNOR5124
012024021902BPAN4       010BANCO PAN   PN      N1   R$  000000000090900000000009190000000000901000000000090900000000009030000000000902000000000090605524000000000001848800000000001680665100000000000000009999123100000010000000000000BRBPANACNPR1115
012024021907TXRX4       010TEX RENAUX  PN           R$  000000000029300000000002970000000000265000000000027500000000002790000000000270000000000028100052000000000000015200000000000004191700000000000000009999123100000010000000000000BRTXRXACNPR0142
012024021907NUTR3       010NUTRIPLANT  ON      MA   R$  000000000052000000000005740000000000520000000000054900000000005400000000000540000000000055800040000000000000005300000000000002913700000000000000009999123100000010000000000000BRNUTRACNOR0104
012024021908FRTA3       010POMIFRUTAS  ON      NM   R$  000000000015000000000001500000000000148000000000014900000000001490000000000148000000000014900010000000000000002600000000000000387500000000000000009999123100000010000000000000BRFRTAACNOR8103
012024021908HOOT4       010HOTEIS OTHONPN           R$  000000000028300000000002850000000000283000000000028300000000002840000000000284000000000029000018000000000000007700000000000002182800000000000000009999123100000010000000000000BRHOOTACNPR9015
012024021908LIGT3       010LIGHT S/A   ON      NM   R$  000000000055100000000005580000000000547000000000055100000000005500000000000550000000000055401409000000000000353400000000000194896400000000000000009999123100000010000000000000BRLIGTACNOR2124
012024021908RNEW11      010RENOVA      UNT     N2   R$  000000000040800000000004150000000000391000000000040600000000004120000000000396000000000041200058000000000000008100000000000003292300000000000000009999123100000010000000000000BRRNEWCDAM15110
012024021908RNEW3       010RENOVA      ON      N2   R$  000000000013600000000001390000000000133000000000013600000000001380000000000135000000000013800110000000000000066900000000000009120700000000000000009999123100000010000000000000BRRNEWACNOR8110
012024021908RNEW4       010RENOVA      PN      N2   R$  000000000013200000000001360000000000132000000000013300000000001360000000000133000000000013600190000000000000094900000000000012700400000000000000009999123100000010000000000000BRRNEWACNPR5110
012024021908RPMG3       010PET MANGUINHON           R$  000000000020700000000002090000000000205000000000020600000000002050000000000205000000000020900013000000000000003700000000000000763300000000000000009999123100000010000000000000BRRPMGACNOR9194
012024021908TEKA4       010TEKA        PN           R$  000000000319900000000031990000000002900000000000291500000000031500000000002905000000000320000009000000000000012500000000000036444900000000000000009999123100000010000000000000BRTEKAACNPR3140
012024021908NEXP3       010NEXPE       ON      NM   R$  000000000049700000000004970000000000486000000000049400000000004860000000000475000000000048600006000000000000000800000000000000395900000000000000009999123100000010000000000000BRNEXPACNOR0101
012024021908JFEN3       010JOAO FORTES ON           R$  000000000017300000000001820000000000173000000000017900000000001810000000000178000000000018100014000000000000001500000000000000268500000000000000009999123100000010000000000000BRJFENACNOR0058
012024021908RSID3       010ROSSI RESID ON      NM   R$  000000000036000000000003700000000000352000000000036200000000003580000000000357000000000036600157000000000000064100000000000023246300000000000000009999123100000010000000000000BRRSIDACNOR8120
012024021908ETER3       010ETERNIT     ON      NM   R$  000000000071000000000007270000000000691000000000070200000000007270000000000703000000000072700770000000000000160200000000000112549600000000000000009999123100000010000000000000BRETERACNOR3242
012024021908AMER3       010AMERICANAS  ON      NM   R$  000000000005800000000000630000000000058000000000006000000000000600000000000060000000000006103965000000000017772400000000001082277300000000000000009999123100000010000000000000BRAMERACNOR6101
012024021908PMAM3       010PARANAPANEMAON      NM   R$  000000000037600000000003930000000000376000000000038000000000003790000000000379000000000038500097000000000000029700000000000011295900000000000000009999123100000010000000000000BRPMAMACNOR3038
012024021908ATMP3       010ATMASA      ON           R$  000000000030000000000003000000000000300000000000030000000000003000000000000298000000000030700004000000000000002200000000000000660000000000000000009999123100000010000000000000BRATMPACNOR8100
012024021908OIBR3       010OI          ON      N1   R$  000000000010600000000001210000000000105000000000011400000000001170000000000116000000000011706515000000000045872100000000005241880400000000000000009999123100000010000000000000BROIBRACNOR1110
012024021908OIBR4       010OI          PN      N1   R$  000000000021200000000002220000000000203000000000021600000000002150000000000215000000000021700468000000000000453800000000000098293400000000000000009999123100000010000000000000BROIBRACNPR8109
012024021908OSXB3       010OSX BRASIL  ON      NM   R$  000000000050100000000005210000000000500000000000050900000000005170000000000515000000000051700084000000000000012100000000000006160800000000000000009999123100000010000000000000BROSXBACNOR8109
012024021910CDII12      010SPARTA CDII DIR          R$  000000000000900000000000130000000000006000000000000900000000000100000000000009000000000001000165000000000000022248000000000000205869000000000000009999123100000010000000000000BRCDIID03M11111
012024021910LJQQ9       010QUERO-QUERO ON  REC NM   R$  000000000045100000000004800000000000442000000000046600000000004790000000000450000000000048500038000000000000004600000000000002145400000000000000009999123100000010000000000000BRLJQQR01OR0103
012024021910VIVR12      010VIVER       DIR     NM   R$  000000000000300000000000030000000000002000000000000200000000000030000000000002000000000000300132000000000000121300000000000000263900000000000000009999123100000010000000000000BRVIVRD02M16121
012024021910RENT9       010LOCALIZA    ON  REC NM   R$  000000000509900000000051400000000005080000000000510300000000051340000000005000000000000519900027000000000000002900000000000014801300000000000000009999123100000010000000000000BRRENTR05OR0193
012024021910MGLU1       010MAGAZ LUIZA DIR ORD NM   R$  000000000001200000000000160000000000012000000000001400000000000150000000000015000000000001601778000000000007760500000000000108731500000000000000009999123100000010000000000000BRMGLUD01OR7122
012024021910PGMN1       010PAGUE MENOS DIR ORD NM   R$  000000000000600000000000070000000000005000000000000600000000000070000000000007000000000000800103000000000000158200000000000001077400000000000000009999123100000010000000000000BRPGMND03OR9102
012024021912CNES11      010FII CENESP  CI           R$  000000000250000000000026790000000002500000000000266600000000025010000000002500000000000267700011000000000000001203000000000003207523000000000000009999123100000010000000000000BRCNESCTF001254
012024021912IBCR11      010FII BREI    CI  ER       R$  000000000809600000000081150000000008031000000000807500000000080870000000008087000000000808900150000000000000001777000000000014349903000000000000009999123100000010000000000000BRIBCRCTF009133
012024021912ICRI11      010FII CI IPCA CI           R$  000000001000000000000100000000000009867000000000995300000000099650000000009878000000000996500085000000000000002003000000000019937491000000000000009999123100000010000000000000BRICRICTF004100
012024021912IDFI11      010FII UNIDADESCI           R$  000000000200000000000020000000000001970000000000198900000000019800000000001951000000000198000019000000000000000074000000000000147212000000000000009999123100000010000000000000BRIDFICTF007128
012024021912IDGR11      010FII UNID II CI           R$  000000000150000000000015500000000001500000000000150200000000015000000000000000000000000155000005000000000000000075000000000000112650000000000000009999123100000010000000000000BRIDGRCTF006123
012024021912LSPA11      010FII LESTE PACI           R$  000000001040000000000104000000000010400000000001040000000000104000000000010400000000000000000001000000000000000001000000000000010400000000000000009999123100000010000000000000BRLSPACTF005135
012024021912LUGG11      010FII LUGGO   CI           R$  000000000799900000000080500000000007951000000000801200000000080400000000007979000000000804000105000000000000000755000000000006049068000000000000009999123100000010000000000000BRLUGGCTF007151
012024021912LVBI11      010FII VBI LOG CI           R$  000000001187800000000119000000000011790000000001185400000000118490000000011848000000001184909786000000000000043302000000000513316000000000000000009999123100000010000000000000BRLVBICTF002164
012024021912ABCP11      010FII ABC IMOBCI           R$  000000000794100000000080660000000007920000000000797300000000080010000000008001000000000800200152000000000000001073000000000008555783000000000000009999123100000010000000000000BRABCPCTF000335
012024021912BLCA11      010FII BLUE AAACI  ER       R$  000000001099900000000110000000000010953000000001099700000000110000000000010970000000001100000050000000000000002798000000000030770880000000000000009999123100000010000000000000BRBLCACTF009127
012024021912BLMG11      010FII BLUE LOGCI  ER       R$  000000000395800000000039860000000003942000000000396400000000039810000000003960000000000398201571000000000000016201000000000064225782000000000000009999123100000010000000000000BRBLMGCTF005143
012024021912BLMO11      010FII BLUEMAC CI           R$  000000000899800000000089980000000008940000000000898900000000089410000000008941000000000899800008000000000000000028000000000000251714000000000000009999123100000010000000000000BRBLMOCTF009127
012024021912BLUR11      010FII BLUE RECCI  ER       R$  000000000900300000000100000000000009003000000000980000000000100000000000009103000000000990000004000000000000000015000000000000147009000000000000009999123100000010000000000000BRBLURCTF005123
012024021912BMLC11      010FII BMBRC LCCI  ER       R$  000000001059700000000105970000000010595000000001059500000000105950000000010590000000001059500006000000000000000009000000000000095360000000000000009999123100000010000000000000BRBMLCCTF004246
012024021912BNFS11      010FII BANRISULCI           R$  000000001210000000000121050000000012016000000001208500000000120620000000012081000000001210300121000000000000001455000000000017584828000000000000009999123100000010000000000000BRBNFSCTF000237
012024021912CEOC11      010FII CEO CCP CI  ER       R$  000000000474800000000048490000000004704000000000477400000000048450000000004761000000000484600123000000000000001942000000000009272462000000000000009999123100000010000000000000BRCEOCCTF003211
012024021912EGYR11      010FII ENERGY  CI           R$  000000000055400000000005610000000000542000000000055200000000005540000000000552000000000055400025000000000000000360000000000000199053000000000000009999123100000010000000000000BREGYRCTF001102
012024021912FPAB11      010FII A BRANCACI  ER       R$  000000001815000000000182010000000018150000000001819800000000182000000000017601000000001949900033000000000000000107000000000001947198000000000000009999123100000010000000000000BRFPABCTF011310
012024021912FVPQ11      010FII V PARQUECI           R$  000000001057500000000106850000000010501000000001056900000000106350000000010550000000001063500061000000000000000686000000000007250676000000000000009999123100000010000000000000BRFVPQCTF015255
012024021912AIEC11      010FII AUTONOMYCI           R$  000000000523600000000053000000000005229000000000524300000000052320000000005232000000000523500965000000000000014713000000000077147163000000000000009999123100000010000000000000BRAIECCTF009141
012024021912AJFI11      010FII AJ MALLSCI  ER       R$  000000000097800000000009900000000000978000000000098600000000009890000000000981000000000098904672000000000000094237000000000092946062000000000000009999123100000010000000000000BRAJFICTF001103
012024021912ALMI11      010FII TORRE ALCI           R$  000000006433400000000660000000000064333000000006588000000000660000000000064666000000006799900023000000000000000147000000000009684498000000000000009999123100000010000000000000BRALMICTF003250
