00COTAHIST.2024BOVESPA 20240621                                                                                                                                                                                                                      
012024062102CLSC4       010CELESC      PN      N2   R$  000000000690400000000070430000000006722000000000680600000000067220000000006721000000000684000047000000000000006600000000000044920800000000000000009999123100000010000000000000BRCLSCACNPR3130
012024062102CMIG3       010CEMIG       ON      N1   R$  000000000125400000000012890000000001243000000000127300000000012890000000001260000000000128900810000000000000235400000000000299792200000000000000009999123100000010000000000000BRCMIGACNOR6241
012024062102CMIG4       010CEMIG       PN      N1   R$  000000000102500000000010550000000001025000000000104800000000010510000000001051000000000105319124000000000019013500000000019933966300000000000000009999123100000010000000000000BRCMIGACNPR3242
012024062102GGPS3       010GPS         ON      NM   R$  000000000170600000000017440000000001697000000000172500000000017240000000001724000000000172905891000000000002122000000000003661110500000000000000009999123100000010000000000000BRGGPSACNOR9103
012024062102GMAT3       010GRUPO MATEUSON  EJ  NM   R$  000000000070800000000007230000000000706000000000071500000000007150000000000712000000000071506810000000000002185100000000001564104400000000000000009999123100000010000000000000BRGMATACNOR7102
012024062102GOAU3       010GERDAU MET  ON      N1   R$  000000000103900000000010470000000001032000000000103700000000010430000000001040000000000104300251000000000000053800000000000055821500000000000000009999123100000010000000000000BRGOAUACNOR1267
012024062102GOAU4       010GERDAU MET  PN      N1   R$  000000000101900000000010350000000001014000000000102700000000010340000000001031000000000103513474000000000008596300000000008829881200000000000000009999123100000010000000000000BRGOAUACNPR8268
012024062102ODPV3       010ODONTOPREV  ON      NM   R$  000000000112500000000011540000000001118000000000114100000000011540000000001145000000000115404021000000000000896300000000001023260200000000000000009999123100000010000000000000BRODPVACNOR4201
012024062102OFSA3       010OUROFINO S/AON      NM   R$  000000000187100000000018730000000001850000000000185400000000018500000000001850000000000188200019000000000000005300000000000009830700000000000000009999123100000010000000000000BROFSAACNOR7118
012024062102ONCO3       010ONCOCLINICASON      NM   R$  000000000056800000000005870000000000554000000000056800000000005800000000000580000000000058211223000000000004206500000000002393087800000000000000009999123100000010000000000000BRONCOACNOR6101
012024062102OPCT3       010OCEANPACT   ON      NM   R$  000000000064300000000006500000000000637000000000064300000000006500000000000642000000000065001532000000000000372000000000000239451700000000000000009999123100000010000000000000BROPCTACNOR0100
012024062102ANIM3       010ANIMA       ON      NM   R$  000000000030300000000003160000000000297000000000031000000000003100000000000309000000000031018992000000000014322100000000004442546600000000000000009999123100000010000000000000BRANIMACNOR6107
012024062102APER3       010ALPER S.A.  ON           R$  000000000428400000000042900000000004283000000000428400000000042830000000004283000000000437000009000000000000001100000000000004712700000000000000009999123100000010000000000000BRAPERACNOR9106
012024062102ARML3       010ARMAC       ON      NM   R$  000000000098400000000010040000000000972000000000098800000000009880000000000978000000000098808508000000000001528800000000001511304300000000000000009999123100000010000000000000BRARMLACNOR1111
012024062102ARZZ3       010AREZZO CO   ON      NM   R$  000000000498500000000050670000000004941000000000498200000000049590000000004958000000000495912514000000000003004000000000014967074000000000000000009999123100000010000000000000BRARZZACNOR3146
012024062102BEES4       010BANESTES    PN           R$  000000000093700000000009590000000000937000000000094300000000009590000000000931000000000095900013000000000000004600000000000004339300000000000000009999123100000010000000000000BRBEESACNPR6316
012024062102BGIP3       010BANESE      ON           R$  000000000260000000000026000000000002459000000000250500000000024600000000002460000000000251900006000000000000000600000000000001503000000000000000009999123100000010000000000000BRBGIPACNOR1208
012024062102BHIA3       010CASAS BAHIA ON      NM   R$  000000000057300000000005900000000000565000000000057700000000005710000000000570000000000057102399000000000002220000000000001281364500000000000000009999123100000010000000000000BRBHIAACNOR1101
012024062102BPAN4       010BANCO PAN   PN      N1   R$  000000000081800000000008300000000000809000000000081500000000008180000000000817000000000081806956000000000001939400000000001581682700000000000000009999123100000010000000000000BRBPANACNPR1115
012024062102ORVR3       010ORIZON      ON      NM   R$  000000000374300000000037650000000003697000000000373300000000037500000000003749000000000375001613000000000000261000000000000974318000000000000000009999123100000010000000000000BRORVRACNOR0101
012024062102RADL3       010RAIADROGASILON      NM   R$  000000000247600000000025800000000002465000000000256000000000025800000000002580000000000258122663000000000010545000000000026996757600000000000000009999123100000010000000000000BRRADLACNOR0156
012024062102BRAP3       010BRADESPAR   ON      N1   R$  000000000175600000000017570000000001741000000000174700000000017440000000001743000000000174800370000000000000073100000000000127731600000000000000009999123100000010000000000000BRBRAPACNOR5148
012024062102BRAP4       010BRADESPAR   PN      N1   R$  000000000181500000000018190000000001797000000000180200000000017970000000001796000000000179808052000000000003205700000000005778713300000000000000009999123100000010000000000000BRBRAPACNPR2148
012024062102CEAB3       010CEA MODAS   ON      NM   R$  000000000093000000000009680000000000929000000000095200000000009650000000000952000000000096504874000000000002439500000000002322528500000000000000009999123100000010000000000000BRCEABACNOR1102
012024062102CEBR3       010CEB         ON           R$  000000000204700000000020470000000002047000000000204700000000020470000000002035000000000204700002000000000000000200000000000000409400000000000000009999123100000010000000000000BRCEBRACNOR5125
012024062102CEBR5       010CEB         PNA          R$  000000000184500000000018450000000001845000000000184500000000018450000000001831000000000184500001000000000000000100000000000000184500000000000000009999123100000010000000000000BRCEBRACNPA8124
012024062102CEBR6       010CEB         PNB          R$  000000000193000000000019440000000001930000000000193700000000019440000000001920000000000199500005000000000000000800000000000001549800000000000000009999123100000010000000000000BRCEBRACNPB6124
012024062102CEDO3       010CEDRO       ON      N1   R$  000000000267500000000026780000000002675000000000267700000000026780000000002500000000000275000004000000000000000700000000000001874000000000000000009999123100000010000000000000BRCEDOACNOR8096
012024062102CGAS5       010COMGAS      PNA          R$  000000001140000000000114000000000011400000000001140000000000114000000000011000000000001150000003000000000000000300000000000003420000000000000000009999123100000010000000000000BRCGASACNPA3160
012024062102CGRA3       010GRAZZIOTIN  ON           R$  000000000254900000000026100000000002549000000000259100000000026000000000002600000000000261000022000000000000003700000000000009589700000000000000009999123100000010000000000000BRCGRAACNOR2082
012024062102CGRA4       010GRAZZIOTIN  PN           R$  000000000261200000000026850000000002612000000000266400000000026850000000002662000000000268700043000000000000010400000000000027714800000000000000009999123100000010000000000000BRCGRAACNPR9082
012024062102CIEL3       010CIELO       ON      NM   R$  000000000056400000000005650000000000561000000000056300000000005640000000000563000000000056411428000000000045118800000000025405539900000000000000009999123100000010000000000000BRCIELACNOR3157
012024062102CSED3       010CRUZEIRO EDUON      NM   R$  000000000036700000000003750000000000360000000000036900000000003750000000000369000000000037500883000000000000317200000000000117163400000000000000009999123100000010000000000000BRCSEDACNOR9104
012024062102CSMG3       010COPASA      ON      NM   R$  000000000200300000000020650000000002000000000000202900000000020650000000002059000000000206705489000000000005118700000000010388489300000000000000009999123100000010000000000000BRCSMGACNOR5173
012024062102CSNA3       010SID NACIONALON           R$  000000000128900000000012910000000001256000000000126800000000012650000000001264000000000126715628000000000009669500000000012266203000000000000000009999123100000010000000000000BRCSNAACNOR6261
012024062102ALPA3       010ALPARGATAS  ON      N1   R$  000000000091100000000009110000000000911000000000091100000000009110000000000912000000000092100005000000000000000700000000000000638200000000000000009999123100000010000000000000BRALPAACNOR0231
012024062102ALPA4       010ALPARGATAS  PN      N1   R$  000000000089900000000009070000000000881000000000089100000000008850000000000885000000000088910542000000000004254900000000003794637200000000000000009999123100000010000000000000BRALPAACNPR7232
012024062102ALPK3       010ESTAPAR     ON      NM   R$  000000000031500000000003290000000000301000000000031600000000003290000000000326000000000032900723000000000000203400000000000064302500000000000000009999123100000010000000000000BRALPKACNOR9101
012024062102ALUP11      010ALUPAR      UNT     N2   R$  000000000299800000000030070000000002979000000000299300000000030040000000002985000000000300404027000000000000923000000000002763239600000000000000009999123100000010000000000000BRALUPCDAM15119
012024062102ALUP3       010ALUPAR      ON      N2   R$  000000000100700000000010100000000000998000000000100500000000009980000000000998000000000101600038000000000000004900000000000004927600000000000000009999123100000010000000000000BRALUPACNOR8119
012024062102ALUP4       010ALUPAR      PN      N2   R$  000000000099400000000009980000000000990000000000099300000000009930000000000991000000000099200049000000000000006500000000000006455800000000000000009999123100000010000000000000BRALUPACNPR5119
012024062102AMAR3       010LOJAS MARISAON  ES  NM   R$  000000000014400000000001490000000000143000000000014400000000001430000000000143000000000014400565000000000000294600000000000042619700000000000000009999123100000010000000000000BRAMARACNOR4115
012024062102AMBP3       010AMBIPAR     ON      NM   R$  000000000090000000000009680000000000900000000000094300000000009530000000000952000000000095404722000000000001716800000000001619829500000000000000009999123100000010000000000000BRAMBPACNOR6103
012024062102BEES3       010BANESTES    ON           R$  000000000087200000000008810000000000871000000000087400000000008720000000000871000000000087500057000000000000008200000000000007173600000000000000009999123100000010000000000000BRBEESACNOR9391
012024062102BPAC11      010BTGP BANCO  UNT     N2   R$  000000000315900000000032550000000003151000000000323100000000032480000000003246000000000324916284000000000017137100000000055382619400000000000000009999123100000010000000000000BRBPACUNT006118
012024062102BPAC3       010BTGP BANCO  ON      N2   R$  000000000156000000000015720000000001552000000000156200000000015560000000001555000000000167000012000000000000001200000000000001875100000000000000009999123100000010000000000000BRBPACACNOR7133
012024062102BPAC5       010BTGP BANCO  PNA     N2   R$  000000000079600000000008370000000000796000000000079900000000007960000000000796000000000079900028000000000000006600000000000005276400000000000000009999123100000010000000000000BRBPACACNPA0133
012024062102USIM3       010USIMINAS    ON      N1   R$  000000000072300000000007260000000000713000000000072100000000007170000000000717000000000072300999000000000000719900000000000519668100000000000000009999123100000010000000000000BRUSIMACNOR3167
012024062102USIM5       010USIMINAS    PNA     N1   R$  000000000075600000000007600000000000746000000000075300000000007540000000000753000000000075515366000000000008415800000000006342802300000000000000009999123100000010000000000000BRUSIMACNPA6169
012024062102GUAR3       010GUARARAPES  ON      NM   R$  000000000064400000000006570000000000637000000000064500000000006450000000000644000000000064503774000000000000926200000000000598042800000000000000009999123100000010000000000000BRGUARACNOR4173
012024062102KLBN11      010KLABIN S/A  UNT     N2   R$  000000000206600000000020820000000002045000000000206400000000020590000000002059000000000206012819000000000006927300000000014300556900000000000000009999123100000010000000000000BRKLBNCDAM18142
012024062102KLBN3       010KLABIN S/A  ON      N2   R$  000000000041300000000004200000000000412000000000041500000000004190000000000419000000000042000474000000000000322100000000000133680100000000000000009999123100000010000000000000BRKLBNACNOR2170
012024062102KLBN4       010KLABIN S/A  PN      N2   R$  000000000041100000000004170000000000409000000000041400000000004170000000000415000000000041701246000000000000832500000000000344672500000000000000009999123100000010000000000000BRKLBNACNPR9170
012024062102MILS3       010MILLS       ON      NM   R$  000000000102800000000010610000000001028000000000104500000000010480000000001048000000000105102505000000000000584600000000000611390800000000000000009999123100000010000000000000BRMILSACNOR2126
012024062102MLAS3       010MULTILASER  ON      NM   R$  000000000019000000000001950000000000187000000000018900000000001910000000000190000000000019103035000000000002510600000000000476098300000000000000009999123100000010000000000000BRMLASACNOR9101
012024062102MNDL3       010MUNDIAL     ON           R$  000000000123600000000012360000000001135000000000118700000000011350000000001138000000000119000003000000000000000400000000000000475100000000000000009999123100000010000000000000BRMNDLACNOR4109
012024062102MNPR3       010MINUPAR     ON           R$  000000000111000000000011440000000001087000000000110400000000011100000000001070000000000114400027000000000000004000000000000004419200000000000000009999123100000010000000000000BRMNPRACNOR5122
012024062102MOVI3       010MOVIDA      ON      NM   R$  000000000059700000000006160000000000588000000000059800000000005940000000000593000000000059406671000000000002795000000000001673525900000000000000009999123100000010000000000000BRMOVIACNOR0122
012024062102FRAS3       010FRAS-LE     ON      N1   R$  000000000175900000000017730000000001735000000000175700000000017700000000001760000000000177001677000000000000543000000000000954373800000000000000009999123100000010000000000000BRFRASACNOR0159
012024062102FRIO3       010METALFRIO   ON      NM   R$  000000002840000000000285000000000028400000000002843300000000285000000000026100000000002860000003000000000000000300000000000008530000000000000000009999123100000010000000000000BRFRIOACNOR2111
012024062102JALL3       010JALLESMACHADON      NM   R$  000000000063800000000006870000000000638000000000067400000000006840000000000676000000000068403468000000000001283800000000000866191800000000000000009999123100000010000000000000BRJALLACNOR0105
012024062102JBSS3       010JBS         ON      NM   R$  000000000293600000000030900000000002927000000000304400000000030670000000003066000000000307531060000000000014539700000000044270299600000000000000009999123100000010000000000000BRJBSSACNOR8121
012024062102IRBR3       010IRBBRASIL REON      NM   R$  000000000313200000000031660000000003083000000000312200000000031630000000003161000000000316303649000000000001035900000000003234636900000000000000009999123100000010000000000000BRIRBRACNOR4111
012024062102JHSF3       010JHSF PART   ON      NM   R$  000000000037900000000003850000000000376000000000038100000000003850000000000384000000000038505294000000000002254000000000000861002200000000000000009999123100000010000000000000BRJHSFACNOR2136
012024062102RANI3       010IRANI       ON      NM   R$  000000000084000000000008430000000000826000000000083300000000008370000000000836000000000083702566000000000000527800000000000439936500000000000000009999123100000010000000000000BRRANIACNOR5072
012024062102RAPT3       010RANDON PART ON      N1   R$  000000000084900000000008630000000000835000000000085200000000008630000000000853000000000086300081000000000000037900000000000032324500000000000000009999123100000010000000000000BRRAPTACNOR7162
012024062102RAPT4       010RANDON PART PN      N1   R$  000000000102300000000010390000000001007000000000102100000000010150000000001015000000000102310539000000000002626500000000002684164100000000000000009999123100000010000000000000BRRAPTACNPR4162
012024062102SCAR3       010SAO CARLOS  ON      NM   R$  000000000215100000000022440000000002140000000000219900000000022440000000002126000000000224400017000000000000003100000000000006817900000000000000009999123100000010000000000000BRSCARACNOR7131
012024062102SEER3       010SER EDUCA   ON      NM   R$  000000000052300000000005270000000000504000000000051500000000005100000000000510000000000051301960000000000000818700000000000421688100000000000000009999123100000010000000000000BRSEERACNOR5119
012024062102TASA3       010TAURUS ARMASON      N2   R$  000000000112000000000011550000000001115000000000113600000000011500000000001135000000000115100051000000000000012900000000000014655000000000000000009999123100000010000000000000BRTASAACNOR7104
012024062102TASA4       010TAURUS ARMASPN      N2   R$  000000000108100000000011320000000001080000000000110500000000010930000000001093000000000110101658000000000000483000000000000534145500000000000000009999123100000010000000000000BRTASAACNPR4104
012024062102TCSA3       010TECNISA     ON      NM   R$  000000000019700000000002020000000000194000000000019900000000002000000000000198000000000020000125000000000000030600000000000006112000000000000000009999123100000010000000000000BRTCSAACNOR3112
012024062102TECN3       010TECHNOS     ON      NM   R$  000000000046200000000004800000000000455000000000047500000000004770000000000477000000000048000767000000000000440100000000000209299700000000000000009999123100000010000000000000BRTECNACNOR6109
012024062102TELB4       010TELEBRAS    PN           R$  000000000087900000000008820000000000872000000000087600000000008770000000000860000000000087900020000000000000003500000000000003066200000000000000009999123100000010000000000000BRTELBACNPR9140
012024062102TEND3       010TENDA       ON      NM   R$  000000000106100000000010800000000001038000000000106200000000010620000000001061000000000106204132000000000001323200000000001405428300000000000000009999123100000010000000000000BRTENDACNOR4111
012024062102MTRE3       010MITRE REALTYON  ED  NM   R$  000000000034100000000003440000000000334000000000033700000000003360000000000336000000000033702473000000000000922500000000000311256600000000000000009999123100000010000000000000BRMTREACNOR6112
012024062102MTSA4       010METISA      PN           R$  000000000405000000000041580000000004050000000000409100000000041000000000004000000000000414900023000000000000003400000000000013910800000000000000009999123100000010000000000000BRMTSAACNPR9072
012024062102MULT3       010MULTIPLAN   ON      N2   R$  000000000222900000000022450000000002199000000000221900000000022200000000002220000000000223223009000000000007035500000000015612294500000000000000009999123100000010000000000000BRMULTACNOR5138
012024062102PRNR3       010PRINER      ON      NM   R$  000000000100600000000010220000000000984000000000100400000000010190000000001011000000000101900754000000000000188400000000000189332200000000000000009999123100000010000000000000BRPRNRACNOR4109
012024062102PSSA3       010PORTO SEGUROON      NM   R$  000000000295000000000029860000000002942000000000296400000000029750000000002973000000000297809153000000000002156000000000006391618800000000000000009999123100000010000000000000BRPSSAACNOR7154
012024062102ROMI3       010ROMI        ON  EJ  NM   R$  000000000102400000000010300000000001010000000000101600000000010100000000001010000000000102200958000000000000192700000000000195827800000000000000009999123100000010000000000000BRROMIACNOR8195
012024062102RPAD5       010ALFA HOLDINGPNA          R$  000000000086800000000008800000000000868000000000087300000000008800000000000851000000000088000004000000000000000500000000000000436800000000000000009999123100000010000000000000BRRPADACNPA4218
012024062102RRRP3       0103R PETROLEUMON      NM   R$  000000000254200000000025650000000002520000000000254000000000025610000000002537000000000256211928000000000003614500000000009183527500000000000000009999123100000010000000000000BRRRRPACNOR5103
012024062102SOMA3       010GRUPO SOMA  ON      NM   R$  000000000058400000000006030000000000579000000000059000000000005860000000000586000000000058723038000000000016702600000000009860306300000000000000009999123100000010000000000000BRSOMAACNOR3102
012024062102ITSA3       010ITAUSA      ON  EJ  N1   R$  000000000097400000000009820000000000970000000000097400000000009700000000000970000000000097100486000000000000227500000000000221761900000000000000009999123100000010000000000000BRITSAACNOR0441
012024062102ITSA4       010ITAUSA      PN  EJ  N1   R$  000000000096800000000009820000000000965000000000097100000000009680000000000967000000000096921461000000000047990100000000046622362300000000000000009999123100000010000000000000BRITSAACNPR7441
012024062102ESTR4       010ESTRELA     PN           R$  000000000017800000000001840000000000177000000000017800000000001770000000000177000000000017900005000000000000000900000000000000161000000000000000009999123100000010000000000000BRESTRACNPR0144
012024062102EUCA4       010EUCATEX     PN      N1   R$  000000000150100000000015110000000001468000000000148700000000014730000000001473000000000149000289000000000000044700000000000066470600000000000000009999123100000010000000000000BREUCAACNPR8044
012024062102EVEN3       010EVEN        ON      NM   R$  000000000062000000000006330000000000614000000000062400000000006290000000000629000000000063102900000000000000484800000000000302922100000000000000009999123100000010000000000000BREVENACNOR8119
012024062102EZTC3       010EZTEC       ON      NM   R$  000000000129000000000013080000000001275000000000128900000000012900000000001289000000000130208919000000000002232200000000002878407100000000000000009999123100000010000000000000BREZTCACNOR0125
012024062102PFRM3       010PROFARMA    ON      NM   R$  000000000051600000000005340000000000510000000000052000000000005100000000000510000000000051100613000000000000206500000000000107508700000000000000009999123100000010000000000000BRPFRMACNOR1116
012024062102PGMN3       010PAGUE MENOS ON      NM   R$  000000000022300000000002300000000000221000000000022500000000002300000000000228000000000023001163000000000000446500000000000100901700000000000000009999123100000010000000000000BRPGMNACNOR8103
012024062102PINE3       010PINE        ON      N2   R$  000000000051100000000005110000000000502000000000050300000000005040000000000503000000000054000010000000000000001500000000000000754800000000000000009999123100000010000000000000BRPINEACNOR1149
012024062102PINE4       010PINE        PN      N2   R$  000000000041000000000004170000000000407000000000041200000000004130000000000412000000000041500472000000000000102000000000000042056600000000000000009999123100000010000000000000BRPINEACNPR8149
012024062102PLPL3       010PLANOEPLANO ON      NM   R$  000000000092900000000009580000000000922000000000094200000000009450000000000945000000000094801697000000000000278500000000000262445900000000000000009999123100000010000000000000BRPLPLACNOR5104
012024062102PNVL3       010DIMED       ON      NM   R$  000000000095600000000009690000000000950000000000096100000000009680000000000960000000000096800931000000000000129900000000000124843600000000000000009999123100000010000000000000BRPNVLACNOR9206
012024062102POMO3       010MARCOPOLO   ON      N2   R$  000000000049000000000004910000000000478000000000048600000000004890000000000488000000000048901001000000000000282100000000000137134900000000000000009999123100000010000000000000BRPOMOACNOR0098
012024062102POMO4       010MARCOPOLO   PN      N2   R$  000000000063600000000006420000000000622000000000063000000000006260000000000626000000000063021473000000000010635800000000006708979000000000000000009999123100000010000000000000BRPOMOACNPR7098
012024062102PORT3       010WILSON SONS ON      NM   R$  000000000145100000000014630000000001439000000000145700000000014630000000001451000000000146302006000000000000633300000000000922728100000000000000009999123100000010000000000000BRPORTACNOR8108
012024062102POSI3       010POSITIVO TECON      NM   R$  000000000082400000000008550000000000816000000000083900000000008550000000000849000000000085504942000000000001017900000000000854307400000000000000009999123100000010000000000000BRPOSIACNOR9116
012024062102PRIO3       010PETRORIO    ON      NM   R$  000000000409900000000041750000000004090000000000413800000000041330000000004132000000000413832538000000000013307600000000055077165100000000000000009999123100000010000000000000BRPRIOACNOR1106
012024062102RCSL3       010RECRUSUL    ON           R$  000000000028500000000002970000000000279000000000028800000000002840000000000284000000000028600506000000000000227200000000000065633300000000000000009999123100000010000000000000BRRCSLACNOR4134
012024062102RCSL4       010RECRUSUL    PN           R$  000000000010000000000001020000000000099000000000010000000000001000000000000099000000000010000551000000000000303600000000000030529900000000000000009999123100000010000000000000BRRCSLACNPR1134
012024062102RDNI3       010RNI         ON      NM   R$  000000000030900000000003120000000000308000000000030900000000003080000000000307000000000030800012000000000000001200000000000000371700000000000000009999123100000010000000000000BRRDNIACNOR9116
012024062102RDOR3       010REDE D OR   ON      NM   R$  000000000254500000000026380000000002536000000000261500000000026350000000002634000000000263916136000000000006771800000000017714013100000000000000009999123100000010000000000000BRRDORACNOR8112
012024062102RECV3       010PETRORECSA  ON      NM   R$  000000000187300000000018940000000001825000000000184900000000018250000000001825000000000183505429000000000001413600000000002614720700000000000000009999123100000010000000000000BRRECVACNOR3107
012024062102REDE3       010REDE ENERGIAON           R$  000000000066200000000006680000000000658000000000066100000000006670000000000662000000000066700015000000000000002500000000000001653200000000000000009999123100000010000000000000BRREDEACNOR7127
012024062102RENT3       010LOCALIZA    ON      NM   R$  000000000395100000000041980000000003925000000000413900000000041700000000004169000000000417540262000000000014743700000000061032209300000000000000009999123100000010000000000000BRRENTACNOR4195
012024062102SEQL3       010SEQUOIA LOG ON      NM   R$  000000000051400000000005200000000000478000000000050000000000005150000000000510000000000051501253000000000000497300000000000248785500000000000000009999123100000010000000000000BRSEQLACNOR2103
012024062102CAMB3       010CAMBUCI     ON  EJ       R$  000000000103800000000010640000000001037000000000104900000000010640000000001047000000000106400130000000000000021000000000000022042900000000000000009999123100000010000000000000BRCAMBACNOR4130
012024062102CAML3       010CAMIL       ON      NM   R$  000000000084800000000008560000000000827000000000083600000000008270000000000827000000000082803471000000000000892400000000000746324800000000000000009999123100000010000000000000BRCAMLACNOR3128
012024062102CASH3       010MELIUZ      ON      NM   R$  000000000053500000000005450000000000525000000000053600000000005380000000000538000000000054203714000000000002049900000000001099250300000000000000009999123100000010000000000000BRCASHACNOR8106
012024062102CBAV3       010CBA         ON      NM   R$  000000000062700000000006470000000000607000000000062900000000006470000000000643000000000064709316000000000005493700000000003456791200000000000000009999123100000010000000000000BRCBAVACNOR5104
012024062102CBEE3       010AMPLA ENERG ON           R$  000000000093300000000009340000000000933000000000093300000000009340000000000941000000000115000006000000000000000800000000000000746500000000000000009999123100000010000000000000BRCBEEACNOR3159
012024062102CCRO3       010CCR SA      ON      NM   R$  000000000118500000000012190000000001185000000000120400000000012030000000001202000000000120311359000000000013044400000000015714566600000000000000009999123100000010000000000000BRCCROACNOR2145
012024062102EKTR4       010ELEKTRO     PN           R$  000000000390000000000039000000000003900000000000390000000000039000000000003885000000000393900001000000000000000100000000000000390000000000000000009999123100000010000000000000BREKTRACNPR7162
012024062102ELET3       010ELETROBRAS  ON      N1   R$  000000000344200000000034840000000003415000000000346000000000034690000000003469000000000347022233000000000010254900000000035490715100000000000000009999123100000010000000000000BRELETACNOR6160
012024062102ELET6       010ELETROBRAS  PNB     N1   R$  000000000385000000000039040000000003835000000000388000000000038910000000003890000000000389704508000000000001949200000000007564299300000000000000009999123100000010000000000000BRELETACNPB7077
012024062102VALE3       010VALE        ON      NM   R$  000000000610300000000061360000000006074000000000609300000000060830000000006083000000000608548694000000000039129500000000238425692700000000000000009999123100000010000000000000BRVALEACNOR0210
012024062102VIVR3       010VIVER       ON  ES  NM   R$  000000000024300000000002430000000000225000000000023300000000002300000000000228000000000023000235000000000000109700000000000025585200000000000000009999123100000010000000000000BRVIVRACNOR4123
012024062102VIVT3       010TELEF BRASILON           R$  000000000444000000000044800000000004425000000000445200000000044490000000004447000000000447608077000000000003295500000000014673347800000000000000009999123100000010000000000000BRVIVTACNOR0181
012024062102VLID3       010VALID       ON      NM   R$  000000000152400000000015490000000001511000000000152500000000015180000000001518000000000153701675000000000000272000000000000414971400000000000000009999123100000010000000000000BRVLIDACNOR5143
012024062102AERI3       010AERIS       ON      NM   R$  000000000051200000000005380000000000512000000000052200000000005210000000000521000000000052200884000000000000371400000000000194209900000000000000009999123100000010000000000000BRAERIACNOR4102
012024062102AESB3       010AES BRASIL  ON      NM   R$  000000000113500000000011480000000001135000000000114000000000011430000000001136000000000114304344000000000002879800000000003283884100000000000000009999123100000010000000000000BRAESBACNOR7106
012024062102AFLT3       010AFLUENTE T  ON           R$  000000000072800000000007490000000000728000000000073400000000007490000000000729000000000074900008000000000000001800000000000001321400000000000000009999123100000010000000000000BRAFLTACNOR1121
012024062102AGRO3       010BRASILAGRO  ON      NM   R$  000000000256600000000025710000000002538000000000255000000000025430000000002543000000000255001386000000000000227400000000000579942500000000000000009999123100000010000000000000BRAGROACNOR7114
012024062102AGXY3       010AGROGALAXY  ON      NM   R$  000000000008500000000000900000000000085000000000008700000000000890000000000088000000000008900235000000000000216500000000000018905000000000000000009999123100000010000000000000BRAGXYACNOR4103
012024062102ALLD3       010ALLIED      ON      NM   R$  000000000072300000000007250000000000714000000000071800000000007180000000000715000000000071900187000000000000043100000000000030987000000000000000009999123100000010000000000000BRALLDACNOR3106
012024062102ALOS3       010ALLOS       ON      NM   R$  000000000205900000000021070000000002055000000000208100000000020830000000002077000000000208308834000000000006186500000000012875950900000000000000009999123100000010000000000000BRALOSACNOR5101
012024062102BAZA3       010AMAZONIA    ON           R$  000000000861000000000086100000000008572000000000860200000000085760000000008521000000000861200014000000000000003400000000000029249200000000000000009999123100000010000000000000BRBAZAACNOR0179
012024062102BBAS3       010BRASIL      ON  EDJ NM   R$  000000000264000000000026620000000002628000000000265300000000026610000000002660000000000266232914000000000034466700000000091451293500000000000000009999123100000010000000000000BRBBASACNOR3324
012024062102BEEF3       010MINERVA     ON      NM   R$  000000000065400000000006600000000000644000000000064900000000006450000000000645000000000064610592000000000006194200000000004024364100000000000000009999123100000010000000000000BRBEEFACNOR6116
012024062102BRSR3       010BANRISUL    ON  EJ  N1   R$  000000000115000000000011600000000001147000000000115400000000011590000000001146000000000115900023000000000000003800000000000004385500000000000000009999123100000010000000000000BRBRSRACNOR3188
012024062102BRSR6       010BANRISUL    PNB EJ  N1   R$  000000000111000000000011130000000001086000000000109700000000010990000000001099000000000110005849000000000002022300000000002220113800000000000000009999123100000010000000000000BRBRSRACNPB4191
012024062102BSLI3       010BRB BANCO   ON           R$  000000000094400000000009440000000000944000000000094400000000009440000000000920000000000094500001000000000000000100000000000000094400000000000000009999123100000010000000000000BRBSLIACNOR5194
012024062102BSLI4       010BRB BANCO   PN           R$  000000000106000000000010600000000001016000000000104600000000010300000000000951000000000105900005000000000000001200000000000001255600000000000000009999123100000010000000000000BRBSLIACNPR2194
012024062102CRFB3       010CARREFOUR BRON      NM   R$  000000000088500000000008990000000000869000000000089000000000008910000000000891000000000089515309000000000010183700000000009066114700000000000000009999123100000010000000000000BRCRFBACNOR2116
012024062102CRPG5       010CRISTAL     PNA          R$  000000000293900000000029490000000002939000000000295600000000029490000000002931000000000297000008000000000000001000000000000002956900000000000000009999123100000010000000000000BRCRPGACNPA3119
012024062102CSAN3       010COSAN       ON      NM   R$  000000000126800000000013020000000001257000000000129000000000012890000000001289000000000129024590000000000019453400000000025106138300000000000000009999123100000010000000000000BRCSANACNOR6126
012024062102PCAR3       010P.ACUCAR-CBDON      NM   R$  000000000030000000000003050000000000292000000000029500000000002920000000000291000000000029208686000000000017265700000000005094232600000000000000009999123100000010000000000000BRPCARACNOR3167
012024062102PDGR3       010PDG REALT   ON      NM   R$  000000000001800000000000180000000000017000000000001700000000000180000000000017000000000001800198000000000000326800000000000005759600000000000000009999123100000010000000000000BRPDGRACNOR8118
012024062102PDTC3       010PADTEC      ON      NM   R$  000000000018200000000001840000000000181000000000018100000000001830000000000182000000000018500044000000000000027400000000000004981600000000000000009999123100000010000000000000BRPDTCACNOR3101
012024062102PEAB3       010PAR AL BAHIAON           R$  000000000435000000000043500000000004350000000000435000000000043500000000000000000000000450500001000000000000000800000000000003480000000000000000009999123100000010000000000000BRPEABACNOR3133
012024062102PETR3       010PETROBRAS   ON  EDJ N2   R$  000000000383900000000038700000000003825000000000383500000000038310000000003831000000000384114045000000000016700500000000064050891100000000000000009999123100000010000000000000BRPETRACNOR9205
012024062102PETR4       010PETROBRAS   PN  EDJ N2   R$  000000000365500000000036960000000003638000000000367100000000036720000000003671000000000367238278000000000043326000000000159090159000000000000000009999123100000010000000000000BRPETRACNPR6213
012024062102PETZ3       010PETZ        ON      NM   R$  000000000034400000000003500000000000339000000000034600000000003450000000000345000000000034705789000000000008090100000000002803730200000000000000009999123100000010000000000000BRPETZACNOR2110
012024062102RAIL3       010RUMO S.A.   ON      NM   R$  000000000196400000000020080000000001955000000000199000000000020050000000002004000000000200737189000000000016797700000000033439089100000000000000009999123100000010000000000000BRRAILACNOR9105
012024062102RAIZ4       010RAIZEN      PN      N2   R$  000000000027600000000002890000000000275000000000028500000000002890000000000289000000000029013276000000000029114900000000008306467500000000000000009999123100000010000000000000BRRAIZACNPR6110
012024062102SAPR3       010SANEPAR     ON      N2   R$  000000000049600000000005040000000000496000000000050000000000005020000000000501000000000050301083000000000000311900000000000156165700000000000000009999123100000010000000000000BRSAPRACNOR9158
012024062102SAPR4       010SANEPAR     PN      N2   R$  000000000053500000000005500000000000534000000000054400000000005500000000000544000000000055004982000000000002567000000000001398995700000000000000009999123100000010000000000000BRSAPRACNPR6158
012024062102SBFG3       010GRUPO SBF   ON      NM   R$  000000000113900000000011500000000001122000000000113100000000011320000000001132000000000113502581000000000000996800000000001127942800000000000000009999123100000010000000000000BRSBFGACNOR1103
012024062102SBSP3       010SABESP      ON      NM   R$  000000000736400000000075550000000007302000000000747900000000074850000000007485000000000749027060000000000007516800000000056218556000000000000000009999123100000010000000000000BRSBSPACNOR5161
012024062102FESA4       010FERBASA     PN      N1   R$  000000000079700000000008090000000000780000000000078700000000007820000000000781000000000078203114000000000000850200000000000669467600000000000000009999123100000010000000000000BRFESAACNPR5084
012024062102FHER3       010FER HERINGERON      NM   R$  000000000037300000000003770000000000370000000000037200000000003770000000000372000000000037800008000000000000001300000000000000484700000000000000009999123100000010000000000000BRFHERACNOR5103
012024062102FIEI3       010FICA        ON           R$  000000000100000000000010000000000001000000000000100000000000010000000000000000000000000120000005000000000000000900000000000000900000000000000000009999123100000010000000000000BRFIEIACNOR2100
012024062102FIQE3       010UNIFIQUE    ON  EDJ NM   R$  000000000033600000000003390000000000331000000000033400000000003330000000000333000000000033400496000000000000268800000000000090004100000000000000009999123100000010000000000000BRFIQEACNOR5107
012024062102FLRY3       010FLEURY      ON      NM   R$  000000000140800000000014300000000001405000000000141900000000014210000000001420000000000142111892000000000003996000000000005671518400000000000000009999123100000010000000000000BRFLRYACNOR5138
012024062102YDUQ3       010YDUQS PART  ON      NM   R$  000000000108400000000011040000000001059000000000108400000000010840000000001082000000000108509928000000000005256300000000005702617300000000000000009999123100000010000000000000BRYDUQACNOR3105
012024062102SYNE3       010SYN PROP TECON      NM   R$  000000000087400000000008990000000000870000000000088500000000008920000000000891000000000089600350000000000000331700000000000293562100000000000000009999123100000010000000000000BRSYNEACNOR2102
012024062102WEGE3       010WEG         ON      NM   R$  000000000407200000000041410000000004047000000000410900000000041080000000004107000000000411024467000000000012574000000000051676125200000000000000009999123100000010000000000000BRWEGEACNOR0222
012024062102VSTE3       010VESTE       ON      NM   R$  000000000169400000000017180000000001694000000000170500000000017050000000001677000000000170500043000000000000009200000000000015692200000000000000009999123100000010000000000000BRVSTEACNOR5103
012024062102VTRU3       010VITRUEDUCA  ON      NM   R$  000000000140400000000014450000000001401000000000141900000000014070000000001407000000000142800223000000000000028100000000000039885100000000000000009999123100000010000000000000BRVTRUACNOR3100
012024062102VULC3       010VULCABRAS   ON      NM   R$  000000000144700000000014560000000001430000000000144300000000014460000000001438000000000144602892000000000000995300000000001436383400000000000000009999123100000010000000000000BRVULCACNOR2159
012024062102VITT3       010VITTIA      ON      NM   R$  000000000055600000000005840000000000554000000000057300000000005820000000000579000000000058201166000000000000315100000000000180588200000000000000009999123100000010000000000000BRVITTACNOR4107
012024062102VIVA3       010VIVARA S.A. ON      NM   R$  000000000200700000000020800000000002000000000000205000000000020450000000002044000000000205310413000000000003086100000000006327941800000000000000009999123100000010000000000000BRVIVAACNOR0107
012024062102VAMO3       010VAMOS       ON      NM   R$  000000000073300000000007590000000000721000000000074600000000007500000000000749000000000075119313000000000006960600000000005194349300000000000000009999123100000010000000000000BRVAMOACNOR7105
012024062102VBBR3       010VIBRA       ON      NM   R$  000000000204200000000021110000000002036000000000209100000000020930000000002092000000000209419772000000000008805400000000018419668000000000000000009999123100000010000000000000BRVBBRACNOR1107
012024062102AALR3       010ALLIAR      ON      NM   R$  000000000101500000000010160000000000987000000000099900000000010000000000000989000000000100000041000000000000007100000000000007094900000000000000009999123100000010000000000000BRAALRACNOR6102
012024062102ABCB4       010ABC BRASIL  PN      N2   R$  000000000210100000000021080000000002081000000000209100000000020930000000002093000000000209702116000000000000386700000000000808925500000000000000009999123100000010000000000000BRABCBACNPR4145
012024062102TAEE11      010TAESA       UNT     N2   R$  000000000335500000000033910000000003337000000000337100000000033600000000003360000000000337512574000000000004801000000000016186043300000000000000009999123100000010000000000000BRTAEECDAM10147
012024062102TAEE3       010TAESA       ON      N2   R$  000000000111300000000011260000000001108000000000111900000000011190000000001119000000000112000469000000000000081000000000000090652400000000000000009999123100000010000000000000BRTAEEACNOR9147
012024062102TAEE4       010TAESA       PN      N2   R$  000000000112300000000011340000000001116000000000112800000000011330000000001132000000000113300703000000000000170100000000000192035500000000000000009999123100000010000000000000BRTAEEACNPR6147
012024062102VVEO3       010VIVEO       ON      NM   R$  000000000020100000000002110000000000198000000000020400000000002030000000000203000000000020505393000000000001823900000000000373165500000000000000009999123100000010000000000000BRVVEOACNOR0104
012024062102ABEV3       010AMBEV S/A   ON           R$  000000000112100000000011380000000001121000000000112800000000011280000000001128000000000112951794000000000053470400000000060345672700000000000000009999123100000010000000000000BRABEVACNOR1127
012024062102B3SA3       010B3          ON  EDJ NM   R$  000000000103300000000010440000000001028000000000103700000000010390000000001039000000000104052574000000000052259900000000054220326300000000000000009999123100000010000000000000BRB3SAACNOR6133
012024062102AZEV3       010AZEVEDO     ON           R$  000000000013800000000001510000000000138000000000014400000000001420000000000142000000000014300502000000000000397700000000000057484900000000000000009999123100000010000000000000BRAZEVACNOR0121
012024062102AZEV4       010AZEVEDO     PN           R$  000000000013600000000001480000000000134000000000014000000000001340000000000134000000000013601774000000000005172900000000000729323200000000000000009999123100000010000000000000BRAZEVACNPR7121
012024062102AZUL4       010AZUL        PN      N2   R$  000000000077700000000007990000000000764000000000077500000000007680000000000767000000000076813938000000000018344200000000014224988500000000000000009999123100000010000000000000BRAZULACNPR4102
012024062102BLAU3       010BLAU        ON      NM   R$  000000000094100000000009800000000000939000000000096000000000009640000000000961000000000096501221000000000000180800000000000173685800000000000000009999123100000010000000000000BRBLAUACNOR8113
012024062102BMEB3       010MERCANTIL   ON      N1   R$  000000000252000000000025200000000002520000000000252000000000025200000000002530000000000268000001000000000000000100000000000000252000000000000000009999123100000010000000000000BRBMEBACNOR8205
012024062102BMEB4       010MERCANTIL   PN      N1   R$  000000000262200000000027990000000002570000000000266100000000026200000000002616000000000262000140000000000000030200000000000080365400000000000000009999123100000010000000000000BRBMEBACNPR5210
012024062102BMGB4       010BANCO BMG   PN      N1   R$  000000000031000000000003140000000000306000000000031000000000003100000000000310000000000031200713000000000000242700000000000075408700000000000000009999123100000010000000000000BRBMGBACNPR0109
012024062102BMIN4       010MERC INVEST PN           R$  000000000155100000000015510000000001530000000000153500000000015300000000001538000000000161100002000000000000000400000000000000614100000000000000009999123100000010000000000000BRBMINACNPR1176
012024062102BMKS3       010BIC MONARK  ON           R$  000000003400000000000340000000000032900000000003351900000000329000000000032900000000003489900007000000000000000042000000000001407801000000000000009999123100000010000000000000BRBMKSACNOR9166
012024062102BMOB3       010BEMOBI TECH ON      NM   R$  000000000128300000000013080000000001282000000000129600000000013010000000001300000000000130401287000000000000221000000000000286454100000000000000009999123100000010000000000000BRBMOBACNOR7103
012024062102BNBR3       010NORD BRASIL ON           R$  000000001160000000000116000000000011600000000001160000000000116000000000011150000000001165000001000000000000000100000000000001160000000000000000009999123100000010000000000000BRBNBRACNOR8208
012024062102CYRE3       010CYRELA REALTON      NM   R$  000000000186000000000019130000000001845000000000188800000000018980000000001898000000000190025370000000000009368000000000017687799500000000000000009999123100000010000000000000BRCYREACNOR7140
012024062102ENJU3       010ENJOEI      ON      NM   R$  000000000020900000000002140000000000206000000000020900000000002060000000000205000000000020800926000000000000477600000000000100153500000000000000009999123100000010000000000000BRENJUACNOR9100
012024062102EPAR3       010EMBPAR S/A  ON           R$  000000000060900000000006110000000000600000000000060400000000006040000000000604000000000060800033000000000000006000000000000003626000000000000000009999123100000010000000000000BREPARACNOR9105
012024062102EQPA3       010EQTL PARA   ON           R$  000000000068300000000007120000000000682000000000069000000000006900000000000683000000000069900008000000000000001000000000000000690100000000000000009999123100000010000000000000BREQPAACNOR1111
012024062102EQTL3       010EQUATORIAL  ON      NM   R$  000000000287600000000029310000000002876000000000291700000000029270000000002917000000000292720714000000000009898800000000028883061000000000000000009999123100000010000000000000BREQTLACNOR0130
012024062102HBOR3       010HELBOR      ON      NM   R$  000000000020700000000002130000000000204000000000020600000000002060000000000206000000000020700556000000000000732300000000000150985300000000000000009999123100000010000000000000BRHBORACNOR3118
012024062102HBRE3       010HBR REALTY  ON      NM   R$  000000000049600000000005160000000000493000000000050800000000005160000000000516000000000051700972000000000000455500000000000231498800000000000000009999123100000010000000000000BRHBREACNOR4100
012024062102HBSA3       010HIDROVIAS   ON      NM   R$  000000000034300000000003770000000000342000000000035900000000003770000000000375000000000037807206000000000003069400000000001102778500000000000000009999123100000010000000000000BRHBSAACNOR0100
012024062102BOBR4       010BOMBRIL     PN           R$  000000000020700000000002070000000000202000000000020200000000002050000000000205000000000020600014000000000000006700000000000001357100000000000000009999123100000010000000000000BRBOBRACNPR3128
012024062102BRBI11      010BR PARTNERS UNT     N2   R$  000000000133100000000013870000000001319000000000134300000000013870000000001372000000000138701325000000000000241700000000000324782200000000000000009999123100000010000000000000BRBRBICDAM10109
012024062102BRFS3       010BRF SA      ON      NM   R$  000000000203600000000020710000000002019000000000205200000000020550000000002055000000000206226369000000000011526500000000023658375400000000000000009999123100000010000000000000BRBRFSACNOR8122
012024062102CMIN3       010CSNMINERACAOON      N2   R$  000000000051100000000005200000000000508000000000051500000000005190000000000518000000000051916493000000000016596600000000008548384800000000000000009999123100000010000000000000BRCMINACNOR2111
012024062102COCE5       010COELCE      PNA          R$  000000000298200000000029930000000002960000000000298300000000029900000000002977000000000299200086000000000000014700000000000043852200000000000000009999123100000010000000000000BRCOCEACNPA3147
012024062102COGN3       010COGNA ON    ON      NM   R$  000000000016100000000001740000000000158000000000016900000000001740000000000173000000000017428078000000000055912400000000009465642000000000000000009999123100000010000000000000BRCOGNACNOR2104
012024062102CSRN3       010COSERN      ON           R$  000000000224900000000023000000000002133000000000220600000000021730000000002172000000000224700008000000000000000800000000000001765500000000000000009999123100000010000000000000BRCSRNACNOR0192
012024062102CSUD3       010CSU DIGITAL ON      NM   R$  000000000180000000000018200000000001798000000000180300000000017990000000001799000000000181400081000000000000015400000000000027771600000000000000009999123100000010000000000000BRCSUDACNOR5109
012024062102CURY3       010CURY S/A    ON      NM   R$  000000000188200000000019290000000001869000000000190200000000018950000000001893000000000189605638000000000001488100000000002831553600000000000000009999123100000010000000000000BRCURYACNOR3109
012024062102CVCB3       010CVC BRASIL  ON      NM   R$  000000000019000000000001930000000000188000000000018900000000001900000000000189000000000019006882000000000009599800000000001822161500000000000000009999123100000010000000000000BRCVCBACNOR1115
012024062102ELMD3       010ELETROMIDIA ON      NM   R$  000000000168900000000017450000000001675000000000171200000000017440000000001725000000000174400175000000000000030300000000000051891000000000000000009999123100000010000000000000BRELMDACNOR3101
012024062102EMAE4       010EMAE        PN           R$  000000000436500000000047460000000004365000000000465200000000047390000000004643000000000474000022000000000000004600000000000021402100000000000000009999123100000010000000000000BREMAEACNPR1125
012024062102EMBR3       010EMBRAER     ON      NM   R$  000000000364800000000037870000000003623000000000373000000000037870000000003775000000000378830429000000000007727900000000028829678000000000000000009999123100000010000000000000BREMBRACNOR4191
012024062102GRND3       010GRENDENE    ON      NM   R$  000000000059500000000006010000000000590000000000059300000000005920000000000592000000000059505306000000000001572000000000000933339000000000000000009999123100000010000000000000BRGRNDACNOR3174
012024062102HYPE3       010HYPERA      ON      NM   R$  000000000289200000000029050000000002838000000000288500000000029050000000002896000000000290511692000000000004962500000000014316871200000000000000009999123100000010000000000000BRHYPEACNOR0141
012024062102BRIT3       010BRISANET    ON      NM   R$  000000000041200000000004150000000000404000000000040800000000004130000000000409000000000041300548000000000000420000000000000171622400000000000000009999123100000010000000000000BRBRITACNOR0103
012024062102BRKM3       010BRASKEM     ON      N1   R$  000000000179500000000018330000000001774000000000182000000000018330000000001781000000000183400038000000000000006800000000000012381400000000000000009999123100000010000000000000BRBRKMACNOR1119
012024062102BRKM5       010BRASKEM     PNA     N1   R$  000000000179000000000018200000000001741000000000177800000000017950000000001795000000000179715939000000000004694500000000008350822500000000000000009999123100000010000000000000BRBRKMACNPA4121
012024062102CXSE3       010CAIXA SEGURION      NM   R$  000000000144000000000014400000000001412000000000142100000000014200000000001420000000000142815347000000000005419200000000007703883600000000000000009999123100000010000000000000BRCXSEACNOR7106
012024062102ENAT3       010ENAUTA PART ON      NM   R$  000000000207400000000020740000000002009000000000203500000000020460000000002032000000000204707570000000000001971900000000004014460000000000000000009999123100000010000000000000BRENATACNOR0104
012024062102ENEV3       010ENEVA       ON      NM   R$  000000000122000000000012490000000001216000000000123800000000012430000000001242000000000124512652000000000005078000000000006287853300000000000000009999123100000010000000000000BRENEVACNOR8106
012024062102ASAI3       010ASSAI       ON      NM   R$  000000000108300000000010930000000001067000000000107800000000010790000000001079000000000108018215000000000014554700000000015703153900000000000000009999123100000010000000000000BRASAIACNOR0106
012024062102ATOM3       010ATOMPAR     ON           R$  000000000019200000000001950000000000192000000000019400000000001950000000000194000000000019600008000000000000001300000000000000252200000000000000009999123100000010000000000000BRATOMACNOR1106
012024062102BBDC3       010BRADESCO    ON  EJ  N1   R$  000000000110700000000011200000000001103000000000111400000000011140000000001114000000000111709572000000000011835100000000013186812800000000000000009999123100000010000000000000BRBBDCACNOR1771
012024062102BBDC4       010BRADESCO    PN  EJ  N1   R$  000000000123300000000012500000000001233000000000124100000000012400000000001240000000000124138598000000000063793200000000079172330000000000000000009999123100000010000000000000BRBBDCACNPR8771
012024062102ENGI11      010ENERGISA    UNT     N2   R$  000000000437600000000045250000000004376000000000449600000000044990000000004497000000000450111990000000000004684800000000021062905200000000000000009999123100000010000000000000BRENGICDAM16135
012024062102ENGI3       010ENERGISA    ON      N2   R$  000000000133600000000013410000000001336000000000133800000000013400000000001342000000000135200015000000000000001900000000000002543600000000000000009999123100000010000000000000BRENGIACNOR0145
012024062102ENGI4       010ENERGISA    PN      N2   R$  000000000076300000000007940000000000763000000000078400000000007820000000000777000000000078300028000000000000005800000000000004548200000000000000009999123100000010000000000000BRENGIACNPR7141
012024062102HAGA3       010HAGA S/A    ON           R$  000000000026600000000002860000000000264000000000027400000000002810000000000269000000000028200041000000000000017000000000000004664100000000000000009999123100000010000000000000BRHAGAACNOR7103
012024062102HAGA4       010HAGA S/A    PN           R$  000000000011900000000001210000000000117000000000011800000000001190000000000119000000000012000024000000000000005800000000000000687400000000000000009999123100000010000000000000BRHAGAACNPR4103
012024062102HAPV3       010HAPVIDA     ON      NM   R$  000000000036200000000003690000000000356000000000036400000000003670000000000367000000000036836044000000000084180300000000030667881500000000000000009999123100000010000000000000BRHAPVACNOR4114
012024062102BIOM3       010BIOMM       ON      MA   R$  000000000137000000000014370000000001370000000000140100000000013900000000001388000000000139000654000000000000172400000000000241615900000000000000009999123100000010000000000000BRBIOMACNOR2112
012024062102CLSA3       010CLEARSALE   ON      NM   R$  000000000068400000000007720000000000678000000000073500000000007300000000000730000000000073105678000000000003062900000000002253551600000000000000009999123100000010000000000000BRCLSAACNOR0100
012024062102AURE3       010AUREN       ON      NM   R$  000000000122000000000012330000000001217000000000122400000000012270000000001223000000000122805546000000000003587800000000004394699500000000000000009999123100000010000000000000BRAUREACNOR9104
012024062102EALT4       010ACO ALTONA  PN           R$  000000000110700000000011450000000001088000000000112500000000011450000000001085000000000114500044000000000000008200000000000009230000000000000000009999123100000010000000000000BREALTACNPR1138
012024062102ECOR3       010ECORODOVIAS ON      NM   R$  000000000061600000000006350000000000610000000000062700000000006270000000000626000000000062709011000000000004463300000000002798687800000000000000009999123100000010000000000000BRECORACNOR8120
012024062102EGIE3       010ENGIE BRASILON      NM   R$  000000000439600000000044270000000004365000000000440800000000044120000000004412000000000441708329000000000002516600000000011095382000000000000000009999123100000010000000000000BREGIEACNOR9126
012024062102BBSE3       010BBSEGURIDADEON      NM   R$  000000000326600000000033060000000003251000000000329200000000032900000000003290000000000329515048000000000007546500000000024848302500000000000000009999123100000010000000000000BRBBSEACNOR5124
012024062102CPFE3       010CPFL ENERGIAON      NM   R$  000000000325200000000032690000000003236000000000325600000000032630000000003260000000000326307559000000000002502400000000008148598700000000000000009999123100000010000000000000BRCPFEACNOR0137
012024062102MAPT4       010CEMEPE      PN           R$  000000000052100000000006100000000000521000000000055700000000005600000000000530000000000059900015000000000000001600000000000000892600000000000000009999123100000010000000000000BRMAPTACNPR5106
012024062102MATD3       010MATER DEI   ON      NM   R$  000000000045800000000004720000000000458000000000046400000000004660000000000466000000000046701016000000000000351300000000000163111600000000000000009999123100000010000000000000BRMATDACNOR4104
012024062102MBLY3       010MOBLY       ON      NM   R$  000000000021200000000002160000000000210000000000021100000000002120000000000211000000000021200178000000000000228300000000000048394200000000000000009999123100000010000000000000BRMBLYACNOR5100
012024062102MDIA3       010M.DIASBRANCOON  EJ  NM   R$  000000000308400000000031050000000003050000000000307300000000030960000000003095000000000310205497000000000001222800000000003758598900000000000000009999123100000010000000000000BRMDIAACNOR7135
012024062102MDNE3       010MOURA DUBEUXON      NM   R$  000000000106600000000010800000000001047000000000105900000000010650000000001065000000000106601285000000000000333200000000000353099100000000000000009999123100000010000000000000BRMDNEACNOR9100
012024062102MEAL3       010IMC S/A     ON      NM   R$  000000000012200000000001240000000000121000000000012200000000001240000000000123000000000012400542000000000000384200000000000047131100000000000000009999123100000010000000000000BRMEALACNOR9105
012024062102MELK3       010MELNICK     ON      NM   R$  000000000035300000000003590000000000350000000000035400000000003560000000000356000000000035800782000000000000242700000000000085994300000000000000009999123100000010000000000000BRMELKACNOR8111
012024062102MGLU3       010MAGAZ LUIZA ON      NM   R$  000000000107000000000010990000000001056000000000108000000000010830000000001083000000000108420496000000000021827000000000023584265500000000000000009999123100000010000000000000BRMGLUACNOR2124
012024062102MYPK3       010IOCHP-MAXIONON      NM   R$  000000000116000000000011600000000001137000000000114700000000011430000000001143000000000114503839000000000000778400000000000892843700000000000000009999123100000010000000000000BRMYPKACNOR7154
012024062102NEOE3       010NEOENERGIA  ON      NM   R$  000000000178600000000018330000000001775000000000181400000000018160000000001815000000000182002977000000000001064500000000001931598800000000000000009999123100000010000000000000BRNEOEACNOR3122
012024062102NGRD3       010NEOGRID     ON      NM   R$  000000000007900000000000820000000000078000000000007900000000000790000000000079000000000008000435000000000000354900000000000028207200000000000000009999123100000010000000000000BRNGRDACNOR3104
012024062102NINJ3       010GETNINJAS   ON      NM   R$  000000000045400000000004610000000000449000000000045300000000004490000000000448000000000044900076000000000000023800000000000010785000000000000000009999123100000010000000000000BRNINJACNOR5101
012024062102NORD3       010NORDON MET  ON           R$  000000000069300000000006930000000000685000000000068700000000006850000000000605000000000068500002000000000000000400000000000000274800000000000000009999123100000010000000000000BRNORDACNOR7135
012024062102NTCO3       010GRUPO NATURAON      NM   R$  000000000148100000000015290000000001480000000000151300000000015110000000001511000000000151809016000000000008210700000000012428853600000000000000009999123100000010000000000000BRNTCOACNOR5106
012024062102PTBL3       010PORTOBELLO  ON      NM   R$  000000000040500000000004210000000000400000000000041400000000004150000000000415000000000041801494000000000000461400000000000191393900000000000000009999123100000010000000000000BRPTBLACNOR8132
012024062102PTNT3       010PETTENATI   ON           R$  000000000097500000000009750000000000975000000000097500000000009750000000000000000000000097500001000000000000000100000000000000097500000000000000009999123100000010000000000000BRPTNTACNOR6042
012024062102PTNT4       010PETTENATI   PN           R$  000000000060700000000006070000000000604000000000060400000000006040000000000590000000000060500003000000000000001100000000000000664700000000000000009999123100000010000000000000BRPTNTACNPR3047
012024062102GEPA4       010GER PARANAP PN           R$  000000000250000000000025390000000002476000000000250200000000024760000000002475000000000253900008000000000000000800000000000002001600000000000000009999123100000010000000000000BRGEPAACNPR9160
012024062102GFSA3       010GAFISA      ON      NM   R$  000000000034300000000003960000000000340000000000038000000000003790000000000379000000000038004923000000000005733600000000002183919200000000000000009999123100000010000000000000BRGFSAACNOR3124
012024062102GGBR3       010GERDAU      ON      N1   R$  000000000156700000000016100000000001549000000000158200000000016020000000001601000000000160300194000000000000038600000000000061086800000000000000009999123100000010000000000000BRGGBRACNOR1192
012024062102GGBR4       010GERDAU      PN      N1   R$  000000000172800000000017830000000001721000000000176500000000017740000000001774000000000177524763000000000017707600000000031264646000000000000000009999123100000010000000000000BRGGBRACNPR8192
012024062102IFCM3       010INFRACOMM   ON      NM   R$  000000000003300000000000340000000000032000000000003300000000000330000000000032000000000003306914000000000004715800000000000156288400000000000000009999123100000010000000000000BRIFCMACNOR8101
012024062102IGTI11      010IGUATEMI S.AUNT     N1   R$  000000000195000000000020040000000001943000000000197300000000019720000000001970000000000197323803000000000016682100000000032918028800000000000000009999123100000010000000000000BRIGTICDAM16106
012024062102IGTI3       010IGUATEMI S.AON      N1   R$  000000000026200000000002730000000000260000000000026400000000002630000000000262000000000026300298000000000000111600000000000029476800000000000000009999123100000010000000000000BRIGTIACNOR8106
012024062102IGTI4       010IGUATEMI S.APN      N1   R$  000000000086100000000008650000000000861000000000086300000000008650000000000777000000000092500002000000000000000200000000000000172600000000000000009999123100000010000000000000BRIGTIACNPR5106
012024062102UCAS3       010UNICASA     ON      NM   R$  000000000021900000000002190000000000213000000000021500000000002130000000000213000000000021800069000000000000030100000000000006474400000000000000009999123100000010000000000000BRUCASACNOR1113
012024062102UGPA3       010ULTRAPAR    ON      NM   R$  000000000213500000000021870000000002135000000000216200000000021590000000002159000000000216513347000000000006131000000000013255811100000000000000009999123100000010000000000000BRUGPAACNOR8155
012024062102ZAMP3       010ZAMP S.A.   ON           R$  000000000033000000000003920000000000330000000000037200000000003700000000000370000000000037105699000000000003186200000000001186043700000000000000009999123100000010000000000000BRZAMPACNOR5100
012024062102WEST3       010WESTWING    ON      NM   R$  000000000009200000000000920000000000090000000000009000000000000900000000000090000000000009100058000000000000142300000000000012861500000000000000009999123100000010000000000000BRWESTACNOR3100
012024062102WHRL4       010WHIRLPOOL   PN           R$  000000000044800000000004520000000000445000000000044600000000004500000000000447000000000045000026000000000000012800000000000005709000000000000000009999123100000010000000000000BRWHRLACNPR2128
012024062102WIZC3       010WIZ CO      ON      NM   R$  000000000056800000000005750000000000555000000000056300000000005740000000000574000000000057802191000000000000433400000000000244037500000000000000009999123100000010000000000000BRWIZCACNOR5102
012024062102WLMM4       010WLM IND COM PN           R$  000000000299900000000030590000000002975000000000301500000000030290000000002700000000000303000004000000000000000400000000000001206200000000000000009999123100000010000000000000BRWLMMACNPR3118
012024062102CPLE3       010COPEL       ON      N2   R$  000000000080900000000008200000000000800000000000081500000000008200000000000819000000000082107471000000000009992500000000008150956300000000000000009999123100000010000000000000BRCPLEACNOR8149
012024062102CPLE6       010COPEL       PNB     N2   R$  000000000090100000000009210000000000899000000000091600000000009210000000000917000000000092120323000000000024766800000000022690072400000000000000009999123100000010000000000000BRCPLEACNPB9146
012024062102DASA3       010DASA        ON      NM   R$  000000000030300000000003110000000000294000000000030200000000002980000000000298000000000029902468000000000001550700000000000468313700000000000000009999123100000010000000000000BRDASAACNOR1122
012024062102DESK3       010DESKTOP     ON      NM   R$  000000000142100000000014850000000001412000000000143600000000014790000000001477000000000147900675000000000000216800000000000311326200000000000000009999123100000010000000000000BRDESKACNOR2104
012024062102DEXP3       010DEXXOS PAR  ON      N1   R$  000000000100000000000010190000000001000000000000101100000000010100000000001010000000000101600366000000000000052400000000000053004500000000000000009999123100000010000000000000BRDEXPACNOR1105
012024062102DEXP4       010DEXXOS PAR  PN      N1   R$  000000000101300000000010130000000001000000000000100600000000010000000000000991000000000100600004000000000000000500000000000000503400000000000000009999123100000010000000000000BRDEXPACNPR8105
012024062102DIRR3       010DIRECIONAL  ON      NM   R$  000000000250600000000025350000000002479000000000251100000000025260000000002522000000000252605047000000000001406900000000003533470100000000000000009999123100000010000000000000BRDIRRACNOR0117
012024062102SRNA3       010SERENA      ON      NM   R$  000000000080800000000008410000000000808000000000083400000000008410000000000837000000000084103886000000000001855300000000001548275500000000000000009999123100000010000000000000BRSRNAACNOR4100
012024062102STBP3       010SANTOS BRP  ON      NM   R$  000000000133500000000013380000000001285000000000129800000000013060000000001306000000000130924711000000000009053800000000011756724500000000000000009999123100000010000000000000BRSTBPACNOR3130
012024062102SUZB3       010SUZANO S.A. ON      NM   R$  000000000481500000000049130000000004792000000000487300000000048850000000004884000000000488525724000000000013713700000000066836554300000000000000009999123100000010000000000000BRSUZBACNOR0130
012024062102ITUB3       010ITAUUNIBANCOON  EJ  N1   R$  000000000277000000000028100000000002750000000000279900000000028100000000002799000000000281602015000000000001008300000000002823226200000000000000009999123100000010000000000000BRITUBACNOR4337
012024062102ITUB4       010ITAUUNIBANCOPN  EJ  N1   R$  000000000318800000000032180000000003164000000000319500000000031880000000003188000000000319235455000000000051730900000000165308730900000000000000009999123100000010000000000000BRITUBACNPR1337
012024062102KRSA3       010KORA SAUDE  ON      NM   R$  000000000005600000000000560000000000053000000000005400000000000540000000000053000000000005400101000000000000298500000000000016135900000000000000009999123100000010000000000000BRKRSAACNOR0100
012024062102LAND3       010TERRASANTAPAON      NM   R$  000000000156200000000015620000000001501000000000154800000000015620000000001551000000000156300130000000000000044000000000000068117500000000000000009999123100000010000000000000BRLANDACNOR9103
012024062102LAVV3       010LAVVI       ON      NM   R$  000000000079800000000008040000000000784000000000079700000000008040000000000804000000000080501368000000000000343600000000000273872100000000000000009999123100000010000000000000BRLAVVACNOR4112
012024062102LEVE3       010METAL LEVE  ON      NM   R$  000000000307600000000031100000000003067000000000308500000000031010000000003091000000000310201465000000000000238800000000000736850400000000000000009999123100000010000000000000BRLEVEACNOR2197
012024062102LJQQ3       010QUERO-QUERO ON      NM   R$  000000000037200000000003830000000000369000000000037600000000003820000000000380000000000038209175000000000003471900000000001306912700000000000000009999123100000010000000000000BRLJQQACNOR5104
012024062102MRFG3       010MARFRIG     ON      NM   R$  000000000110600000000011250000000001099000000000111400000000011250000000001123000000000112522238000000000007806100000000008697570500000000000000009999123100000010000000000000BRMRFGACNOR0116
012024062102TRPL3       010TRAN PAULISTON      N1   R$  000000000332400000000034440000000003324000000000337600000000034440000000003395000000000344400018000000000000002000000000000006753600000000000000009999123100000010000000000000BRTRPLACNOR4185
012024062102TRPL4       010TRAN PAULISTPN      N1   R$  000000000254800000000026720000000002542000000000264900000000026470000000002646000000000265620633000000000009147700000000024237174800000000000000009999123100000010000000000000BRTRPLACNPR1185
012024062102TTEN3       0103TENTOS     ON      NM   R$  000000000100000000000010130000000000981000000000100000000000010050000000001005000000000100704313000000000001377300000000001377527300000000000000009999123100000010000000000000BRTTENACNOR0103
012024062102TUPY3       010TUPY        ON      NM   R$  000000000221100000000022210000000002187000000000220500000000022020000000002201000000000220602210000000000000395400000000000871910700000000000000009999123100000010000000000000BRTUPYACNOR1184
012024062102JOPA3       010JOSAPAR     ON           R$  000000000210000000000021000000000002100000000000210000000000021000000000002100000000000230000001000000000000000300000000000000630000000000000000009999123100000010000000000000BRJOPAACNOR5135
012024062102JSLG3       010JSL         ON      NM   R$  000000000092100000000009440000000000915000000000093100000000009440000000000936000000000094401262000000000000231200000000000215456100000000000000009999123100000010000000000000BRJSLGACNOR2121
012024062102KEPL3       010KEPLER WEBERON      NM   R$  000000000090000000000009060000000000890000000000089800000000009000000000000900000000000090303914000000000000986600000000000886686100000000000000009999123100000010000000000000BRKEPLACNOR1062
012024062102DMVF3       010D1000VFARMA ON      NM   R$  000000000069000000000007390000000000690000000000072600000000007000000000000698000000000070700536000000000000098900000000000071808300000000000000009999123100000010000000000000BRDMVFACNOR9100
012024062102DOHL4       010DOHLER      PN           R$  000000000041000000000004100000000000402000000000040700000000004020000000000400000000000040600012000000000000020200000000000008230400000000000000009999123100000010000000000000BRDOHLACNPR9066
012024062102DOTZ3       010DOTZ SA     ON      NM   R$  000000000071900000000007190000000000685000000000069900000000006920000000000688000000000071600054000000000000009400000000000006576600000000000000009999123100000010000000000000BRDOTZACNOR7101
012024062102DXCO3       010DEXCO       ON      NM   R$  000000000066200000000006720000000000653000000000065800000000006600000000000660000000000066110966000000000003357800000000002212626800000000000000009999123100000010000000000000BRDXCOACNOR8105
012024062102ESPA3       010ESPACOLASER ON      NM   R$  000000000010100000000001020000000000099000000000010100000000001020000000000100000000000010200189000000000000363800000000000036761500000000000000009999123100000010000000000000BRESPAACNOR7103
012024062102SANB11      010SANTANDER BRUNT          R$  000000000274000000000027590000000002728000000000274300000000027540000000002753000000000275513742000000000005211600000000014295728200000000000000009999123100000010000000000000BRSANBCDAM13164
012024062102SANB3       010SANTANDER BRON           R$  000000000130700000000013080000000001295000000000130200000000013060000000001300000000000131000236000000000000040200000000000052348700000000000000009999123100000010000000000000BRSANBACNOR8171
012024062102SANB4       010SANTANDER BRPN           R$  000000000144600000000014550000000001438000000000144200000000014400000000001440000000000144500276000000000000042700000000000061585500000000000000009999123100000010000000000000BRSANBACNPR5171
012024062102SAPR11      010SANEPAR     UNT     N2   R$  000000000261500000000026800000000002602000000000266700000000026800000000002680000000000268104275000000000003962700000000010570422600000000000000009999123100000010000000000000BRSAPRCDAM13117
012024062102TOTS3       010TOTVS       ON      NM   R$  000000000293400000000029890000000002916000000000297100000000029830000000002983000000000298912253000000000004794900000000014249588700000000000000009999123100000010000000000000BRTOTSACNOR8144
012024062102TPIS3       010TRIUNFO PARTON      NM   R$  000000000037600000000003760000000000368000000000037400000000003680000000000368000000000037300018000000000000014800000000000005545800000000000000009999123100000010000000000000BRTPISACNOR8118
012024062102TRAD3       010TC          ON      NM   R$  000000000006300000000000640000000000059000000000006100000000000610000000000060000000000006100220000000000000718200000000000043871500000000000000009999123100000010000000000000BRTRADACNOR3101
012024062102TRIS3       010TRISUL      ON      NM   R$  000000000045700000000004660000000000452000000000045900000000004650000000000461000000000046600972000000000000462800000000000212663800000000000000009999123100000010000000000000BRTRISACNOR4118
012024062102INEP3       010INEPAR      ON           R$  000000000018200000000002010000000000181000000000019100000000002010000000000200000000000020200087000000000000095600000000000018346200000000000000009999123100000010000000000000BRINEPACNOR1143
012024062102INEP4       010INEPAR      PN           R$  000000000017100000000001790000000000168000000000017400000000001790000000000173000000000017900030000000000000057800000000000010068000000000000000009999123100000010000000000000BRINEPACNPR8143
012024062102INTB3       010INTELBRAS   ON      NM   R$  000000000221700000000022660000000002206000000000224300000000022650000000002260000000000226506256000000000001538500000000003450941500000000000000009999123100000010000000000000BRINTBACNOR9111
012024062102SHOW3       010TIME FOR FUNON      NM   R$  000000000015000000000001560000000000148000000000015000000000001520000000000150000000000015200321000000000000368200000000000055541700000000000000009999123100000010000000000000BRSHOWACNOR7105
012024062102SHUL4       010SCHULZ      PN           R$  000000000058200000000006060000000000581000000000059500000000005980000000000597000000000059802216000000000000582100000000000346523600000000000000009999123100000010000000000000BRSHULACNPR4155
012024062102SIMH3       010SIMPAR      ON      NM   R$  000000000053600000000005540000000000533000000000054300000000005490000000000547000000000054907452000000000002494100000000001356227600000000000000009999123100000010000000000000BRSIMHACNOR0107
012024062102SLCE3       010SLC AGRICOLAON      NM   R$  000000000176300000000017670000000001738000000000174700000000017460000000001743000000000174710828000000000004848300000000008470436000000000000000009999123100000010000000000000BRSLCEACNOR2125
012024062102TFCO4       010TRACK FIELD PN      N2   R$  000000000101400000000010400000000000995000000000102100000000010300000000001010000000000103100403000000000000259800000000000265408300000000000000009999123100000010000000000000BRTFCOACNPR8113
012024062102TGMA3       010TEGMA       ON      NM   R$  000000000235500000000023880000000002345000000000236900000000023880000000002374000000000238802731000000000000444100000000001052280800000000000000009999123100000010000000000000BRTGMAACNOR7144
012024062102TIMS3       010TIM         ON      NM   R$  000000000156900000000015870000000001563000000000157600000000015780000000001577000000000157823340000000000010389300000000016377182700000000000000009999123100000010000000000000BRTIMSACNOR5116
012024062102QUAL3       010QUALICORP   ON      NM   R$  000000000014300000000001430000000000137000000000013900000000001390000000000139000000000014005416000000000004115700000000000574119700000000000000009999123100000010000000000000BRQUALACNOR6120
012024062102RSUL4       010RIOSULENSE  PN           R$  000000000660000000000066000000000006401000000000648700000000065410000000006541000000000655000015000000000000001700000000000011029000000000000000009999123100000010000000000000BRRSULACNPR3114
012024062102LUPA3       010LUPATECH    ON      NM   R$  000000000015600000000001570000000000155000000000015500000000001550000000000155000000000015600046000000000000048800000000000007584300000000000000009999123100000010000000000000BRLUPAACNOR8112
012024062102LVTC3       010WDC NETWORKSON      NM   R$  000000000033900000000003530000000000339000000000034300000000003420000000000342000000000034300050000000000000016200000000000005566900000000000000009999123100000010000000000000BRLVTCACNOR4102
012024062102LWSA3       010LWSA        ON      NM   R$  000000000040100000000004090000000000395000000000040000000000003990000000000399000000000040006983000000000005207300000000002083346400000000000000009999123100000010000000000000BRLWSAACNOR8103
012024062102LOGG3       010LOG COM PROPON      NM   R$  000000000222400000000022890000000002206000000000225800000000022890000000002237000000000228901687000000000000280500000000000633470800000000000000009999123100000010000000000000BRLOGGACNOR7107
012024062102LOGN3       010LOG-IN      ON      NM   R$  000000000346400000000036050000000003464000000000350800000000035000000000003500000000000356000149000000000000052500000000000184181800000000000000009999123100000010000000000000BRLOGNACNOR3105
012024062102LPSB3       010LOPES BRASILON      NM   R$  000000000017000000000001790000000000170000000000017600000000001790000000000178000000000017900146000000000000058200000000000010285900000000000000009999123100000010000000000000BRLPSBACNOR0114
012024062102LREN3       010LOJAS RENNERON      NM   R$  000000000124800000000012650000000001233000000000125000000000012530000000001252000000000125529520000000000021145700000000026438624500000000000000009999123100000010000000000000BRLRENACNOR1220
012024062102MRSA6B      010MRS LOGIST  PNB     MB   R$  000000000285000000000028500000000002850000000000285000000000028500000000002850000000000000000001000000000000000100000000000000285000000000000000009999123100000010000000000000BRMRSAACNPB7125
012024062102MRVE3       010MRV         ON      NM   R$  000000000065500000000006770000000000645000000000066000000000006630000000000663000000000066514568000000000013317000000000008794162500000000000000009999123100000010000000000000BRMRVEACNOR2127
012024062102SMFT3       010SMART FIT   ON      NM   R$  000000000216500000000022030000000002143000000000217300000000021900000000002190000000000219206855000000000003275800000000007121124200000000000000009999123100000010000000000000BRSMFTACNOR1111
012024062102SMTO3       010SAO MARTINHOON  EJ  NM   R$  000000000325000000000032760000000003211000000000324000000000032370000000003237000000000324006663000000000001398900000000004533638000000000000000009999123100000010000000000000BRSMTOACNOR3126
012024062102SNSY3       010SANSUY      ON           R$  000000000108000000000011100000000001080000000000108500000000011100000000001072000000000111000004000000000000000600000000000000651000000000000000009999123100000010000000000000BRSNSYACNOR2113
012024062102SOJA3       010BOA SAFRA   ON      NM   R$  000000000145400000000014580000000001424000000000144300000000014390000000001438000000000144001392000000000000297800000000000429923400000000000000009999123100000010000000000000BRSOJAACNOR9105
012024062102UNIP3       010UNIPAR      ON           R$  000000000476300000000048950000000004762000000000482600000000048940000000004825000000000489400047000000000000005700000000000027508700000000000000009999123100000010000000000000BRUNIPACNOR7206
012024062102UNIP5       010UNIPAR      PNA          R$  000000000551900000000055190000000005519000000000551900000000055190000000005415000000000551900002000000000000000300000000000001655700000000000000009999123100000010000000000000BRUNIPACNPA0208
012024062102UNIP6       010UNIPAR      PNB          R$  000000000477500000000049000000000004775000000000482700000000048300000000004829000000000485601629000000000000312200000000001507211600000000000000009999123100000010000000000000BRUNIPACNPB8206
012024062107NUTR3       010NUTRIPLANT  ON      MA   R$  000000000053700000000005370000000000519000000000053000000000005210000000000520000000000053800024000000000000005300000000000002809800000000000000009999123100000010000000000000BRNUTRACNOR0104
012024062107TXRX3       010TEX RENAUX  ON           R$  000000000090000000000009000000000000900000000000090000000000009000000000000200000000000095000001000000000000000100000000000000090000000000000000009999123100000010000000000000BRTXRXACNOR3142
012024062107TXRX4       010TEX RENAUX  PN           R$  000000000022800000000002280000000000227000000000022700000000002270000000000227000000000023700002000000000000001000000000000000227100000000000000009999123100000010000000000000BRTXRXACNPR0142
012024062108AMER3       010AMERICANAS  ON      NM   R$  000000000004000000000000410000000000039000000000003900000000000400000000000039000000000004000980000000000004285300000000000170992500000000000000009999123100000010000000000000BRAMERACNOR6102
012024062108OIBR3       010OI          ON  EG  N1   R$  000000000045000000000004620000000000430000000000044100000000004340000000000434000000000043601318000000000000729700000000000322268000000000000000009999123100000010000000000000BROIBRACNOR1111
012024062108OIBR4       010OI          PN  EG  N1   R$  000000000126600000000012660000000001228000000000125900000000012600000000001200000000000126000018000000000000002900000000000003651500000000000000009999123100000010000000000000BROIBRACNPR8110
012024062108OSXB3       010OSX BRASIL  ON      NM   R$  000000000037600000000003890000000000376000000000038000000000003890000000000382000000000038900018000000000000006500000000000002472400000000000000009999123100000010000000000000BROSXBACNOR8109
012024062108JFEN3       010JOAO FORTES ON           R$  000000000010700000000001070000000000090000000000009700000000000900000000000089000000000009000374000000000000233800000000000022725600000000000000009999123100000010000000000000BRJFENACNOR0059
012024062108RNEW11      010RENOVA      UNT     N2   R$  000000000027700000000002790000000000275000000000027700000000002790000000000272000000000027900007000000000000001200000000000000332400000000000000009999123100000010000000000000BRRNEWCDAM15110
012024062108RNEW3       010RENOVA      ON      N2   R$  000000000009200000000000980000000000091000000000009300000000000950000000000092000000000009500046000000000000034300000000000003206900000000000000009999123100000010000000000000BRRNEWACNOR8110
012024062108RNEW4       010RENOVA      PN      N2   R$  000000000009200000000000920000000000090000000000009100000000000910000000000091000000000009200058000000000000066900000000000006110000000000000000009999123100000010000000000000BRRNEWACNPR5110
012024062108RPMG3       010PET MANGUINHON           R$  000000000022800000000002380000000000226000000000023100000000002360000000000229000000000023700179000000000000034000000000000007886000000000000000009999123100000010000000000000BRRPMGACNOR9194
012024062108ETER3       010ETERNIT     ON      NM   R$  000000000057300000000005890000000000573000000000058100000000005890000000000587000000000058900498000000000000156900000000000091305400000000000000009999123100000010000000000000BRETERACNOR3243
012024062108PMAM3       010PARANAPANEMAON      NM   R$  000000000023900000000002440000000000239000000000023900000000002390000000000238000000000023900059000000000000012600000000000003019300000000000000009999123100000010000000000000BRPMAMACNOR3039
012024062108SGPS3       010SPRINGS     ON      NM   R$  000000000003600000000000360000000000036000000000003600000000000360000000000036000000000003700019000000000000013100000000000000471600000000000000009999123100000010000000000000BRSGPSACNOR4104
012024062108CTNM4       010COTEMINAS   PN           R$  000000000007400000000000740000000000074000000000007400000000000740000000000073000000000007400011000000000000020300000000000001502200000000000000009999123100000010000000000000BRCTNMACNPR6129
012024062108CTSA3       010SANTANENSE  ON           R$  000000000021900000000002220000000000219000000000022000000000002220000000000218000000000022300002000000000000000200000000000000044100000000000000009999123100000010000000000000BRCTSAACNOR3062
012024062108CTSA4       010SANTANENSE  PN           R$  000000000008500000000000870000000000084000000000008400000000000850000000000084000000000008700024000000000000016500000000000001399200000000000000009999123100000010000000000000BRCTSAACNPR0062
012024062108HOOT4       010HOTEIS OTHONPN           R$  000000000025600000000002610000000000256000000000025800000000002610000000000256000000000027600002000000000000000200000000000000051700000000000000009999123100000010000000000000BRHOOTACNPR9015
012024062108ATMP3       010ATMASA      ON           R$  000000000022500000000002260000000000223000000000022500000000002260000000000219000000000022600007000000000000002900000000000000653800000000000000009999123100000010000000000000BRATMPACNOR8100
012024062108NEXP3       010NEXPE       ON           R$  000000000041800000000004190000000000411000000000041500000000004150000000000411000000000041500009000000000000001900000000000000789800000000000000009999123100000010000000000000BRNEXPACNOR0101
012024062108LIGT3       010LIGHT S/A   ON      NM   R$  000000000050800000000005130000000000505000000000050700000000005070000000000506000000000050802367000000000000593500000000000301343400000000000000009999123100000010000000000000BRLIGTACNOR2124
012024062108RSID3       010ROSSI RESID ON      NM   R$  000000000050000000000005370000000000492000000000050800000000005300000000000520000000000053500592000000000000109500000000000055641100000000000000009999123100000010000000000000BRRSIDACNOR8120
012024062110ONCO1       010ONCOCLINICASDIR ORD NM   R$  000000000000100000000000010000000000001000000000000100000000000010000000000000000000000000100006000000000000002300000000000000002300000000000000009999123100000010000000000000BRONCOD01OR1100
012024062110AMAR1       010LOJAS MARISADIR ORD NM   R$  000000000000200000000000030000000000002000000000000200000000000030000000000002000000000000304656000000000005212800000000000014185700000000000000009999123100000010000000000000BRAMARD02OR7114
012024062110RBIF12      010FIC FI RB ESDIR          R$  000000000001500000000000160000000000007000000000001400000000000140000000000014000000000001700062000000000000005748000000000000083608000000000000009999123100000010000000000000BRRBIFD02M10124
012024062110VIVR1       010VIVER       DIR ORD NM   R$  000000000000100000000000010000000000001000000000000100000000000010000000000000000000000000100059000000000000784800000000000000784800000000000000009999123100000010000000000000BRVIVRD18OR3122
012024062110EQTL9       010EQUATORIAL  ON  REC NM   R$  000000000287500000000029470000000002875000000000288300000000028760000000002876000000000291900055000000000000014000000000000040362100000000000000009999123100000010000000000000BREQTLR03OR1129
012024062112GGRC11      010FII GGRCOVEPCI           R$  000000000107600000000010840000000001076000000000107900000000010840000000001083000000000108405226000000000000111754000000000120648479000000000000009999123100000010000000000000BRGGRCCTF002194
012024062112GLOG11      010FII PLURAL LCI           R$  000000000621600000000062190000000006160000000000618400000000061770000000006161000000000621900120000000000000000938000000000005800636000000000000009999123100000010000000000000BRGLOGCTF000113
012024062112NVHO11      010FII NOVOHORICI           R$  000000000113800000000011380000000001110000000000111100000000011250000000001112000000000118000005000000000000000054000000000000060037000000000000009999123100000010000000000000BRNVHOCTF003228
012024062112APTO11      010FII NAVI RSDCI           R$  000000000094500000000009540000000000944000000000094900000000009500000000000950000000000095400132000000000000000702000000000000666461000000000000009999123100000010000000000000BRAPTOCTF007131
012024062112AROA11      010FII AROA    CI           R$  000000000009800000000000990000000000097000000000009700000000000980000000000098000000000009900092000000000000010496000000000001028266000000000000009999123100000010000000000000BRAROACTF003118
012024062112ARRI11      010FII ATRIO   CI           R$  000000000090500000000009050000000000901000000000090300000000009050000000000902000000000090500947000000000000013670000000000012354116000000000000009999123100000010000000000000BRARRICTF009161
012024062112ARXD11      010FII ARXD R  CI           R$  000000000944500000000095900000000009445000000000953700000000095900000000009590000000000969900004000000000000000311000000000002966149000000000000009999123100000010000000000000BRARXDCTF008115
012024062112BPFF11      010FII ABSOLUTOCI           R$  000000000692000000000070290000000006808000000000688600000000068970000000006882000000000689703263000000000000009672000000000066610811000000000000009999123100000010000000000000BRBPFFCTF002236
012024062112BPML11      010FII BTG SHOPCI  ER       R$  000000000875100000000095940000000008750000000000907700000000092680000000009000000000000936704339000000000000012198000000000110723746000000000000009999123100000010000000000000BRBPMLCTF006131
012024062112BPRP11      010FII BRLPROP CI           R$  000000001079800000000107980000000010798000000001079800000000107980000000010200000000001080400001000000000000000002000000000000021596000000000000009999123100000010000000000000BRBPRPCTF006159
012024062112OUFF11      010FII OURI FOFCI  ER       R$  000000000599400000000060040000000005950000000000597400000000059600000000005960000000000598500341000000000000012379000000000073960252000000000000009999123100000010000000000000BROUFFCTF005160
012024062112OUJP11      010FII OURI JPPCI           R$  000000000841900000000084450000000008360000000000839600000000084280000000008377000000000842801211000000000000008620000000000072377912000000000000009999123100000010000000000000BROUJPCTF006187
012024062112OULG11      010FII OURILOG CI           R$  000000000288500000000028900000000002885000000000288500000000028850000000002885000000000289000072000000000000000609000000000001757220000000000000009999123100000010000000000000BROULGCTF001153
012024062112OURE11      010FII OU RENDACI  ER       R$  000000000766700000000076670000000007596000000000765300000000076270000000007625000000000762800214000000000000004443000000000034004217000000000000009999123100000010000000000000BROURECTF003143
012024062112CEOC11      010FII CEO CCP CI           R$  000000000438000000000043800000000004339000000000435100000000043390000000004339000000000434000047000000000000001054000000000004586395000000000000009999123100000010000000000000BRCEOCCTF003215
012024062112ALZC11      010FII ALIANZACCI  ER       R$  000000000980000000000098000000000009120000000000956300000000098000000000009121000000000980000009000000000000000158000000000001510976000000000000009999123100000010000000000000BRALZCCTF016104
012024062112ALZM11      010FII ALIANZMECI  ER       R$  000000000081800000000008190000000000809000000000081300000000008120000000000810000000000081200713000000000000019640000000000015975755000000000000009999123100000010000000000000BRALZMCTF007123
012024062112ALZR11      010FII ALIANZA CI  ER       R$  000000001083000000000108430000000010824000000001083900000000108380000000010837000000001083802137000000000000012542000000000135946278000000000000009999123100000010000000000000BRALZRCTF006183
012024062112GZIT11      010FII GAZIT   CI           R$  000000000599900000000059990000000005917000000000594200000000059170000000005917000000000599001149000000000000007770000000000046176648000000000000009999123100000010000000000000BRGZITCTF005107
012024062112IRDM11      010FII IRIDIUM CI  ER       R$  000000000724900000000072720000000007216000000000722900000000072160000000007215000000000722705522000000000000081116000000000586420696000000000000009999123100000010000000000000BRIRDMCTF004186
012024062112IRIM11      010FII IRIM    CI  ER       R$  000000000751700000000076430000000007498000000000755000000000076110000000007499000000000761100108000000000000000702000000000005300691000000000000009999123100000010000000000000BRIRIMCTF003135
012024062112ITIP11      010FII INTER IPCI           R$  000000000839300000000084470000000008175000000000829600000000083490000000008297000000000834900227000000000000002724000000000022598422000000000000009999123100000010000000000000BRITIPCTF002129
012024062112ITIT11      010FII INTER ITCI           R$  000000000769000000000076910000000007615000000000762500000000076480000000007616000000000764800380000000000000002757000000000021024076000000000000009999123100000010000000000000BRITITCTF004129
012024062112ITRI11      010FII ITRI    CI           R$  000000000910000000000091080000000009027000000000907600000000090550000000009054000000000905501037000000000000018137000000000164611618000000000000009999123100000010000000000000BRITRICTF008102
012024062112KISU11      010FII KILIMA  CI           R$  000000000083100000000008350000000000829000000000083200000000008310000000000830000000000083101697000000000000046801000000000038980443000000000000009999123100000010000000000000BRKISUCTF000144
012024062112KIVO11      010FII KIVO    CI           R$  000000000844500000000084450000000008355000000000840600000000084000000000008400000000000844301581000000000000007672000000000064492166000000000000009999123100000010000000000000BRKIVOCTF007127
012024062112FPAB11      010FII A BRANCACI           R$  000000002162500000000220010000000021625000000002173200000000220000000000022000000000002200100009000000000000000025000000000000543303000000000000009999123100000010000000000000BRFPABCTF011314
012024062112FTCE11      010FII OPPORTUNCI           R$  000000028560500000002856050000000285605000000028560500000002856050000000000000000000000000000003000000000000006945000000001983526725000000000000009999123100000010000000000000BRFTCECTF005131
012024062112JFLL11      010FII JFL LIV CI           R$  000000000748200000000074820000000007400000000000745800000000074000000000007400000000000746900051000000000000000298000000000002222554000000000000009999123100000010000000000000BRJFLLCTF002140
012024062112RBED11      010FII RIOB ED CI           R$  000000001382900000000138910000000013800000000001384000000000138080000000013808000000001385000150000000000000000708000000000009798858000000000000009999123100000010000000000000BRRBEDCTF006164
012024062112RBFF11      010FII RIOB FF CI           R$  000000000617300000000062780000000006157000000000621800000000061750000000006175000000000620300945000000000000005178000000000032199846000000000000009999123100000010000000000000BRRBFFCTF008160
012024062112RBHG11      010FII RBCRI IVCI           R$  000000000865000000000087020000000008615000000000867100000000086330000000008633000000000866901236000000000000003916000000000033958439000000000000009999123100000010000000000000BRRBHGCTF002134
012024062112RBHY11      010FII RB YIELDCI           R$  000000000897000000000090090000000008968000000000898400000000089940000000008994000000000899800058000000000000000259000000000002326998000000000000009999123100000010000000000000BRRBHYCTF005144
012024062112RBIR11      010FII RBRES IVCI           R$  000000000831600000000083970000000008309000000000834100000000083090000000008309000000000839000026000000000000000633000000000005280046000000000000009999123100000010000000000000BRRBIRCTF007111
012024062112RBLG11      010FII RBCAP LGCI           R$  000000001000000000000100000000000010000000000001000000000000100000000000008700000000000990000002000000000000000004000000000000040000000000000000009999123100000010000000000000BRRBLGCTF004145
012024062112RBOP11      010FII MERC BR CI           R$  000000002999700000000299970000000029501000000002979900000000299960000000029996000000002999700024000000000000000038000000000001132364000000000000009999123100000010000000000000BRRBOPCTF009121
012024062112RBRD11      010FII RB II   CI           R$  000000000376100000000037700000000003758000000000376300000000037680000000003761000000000376800043000000000000000310000000000001166693000000000000009999123100000010000000000000BRRBRDCTF008263
012024062112RBRF11      010FII RBRALPHACI  ER       R$  000000000073800000000007520000000000723000000000074000000000007300000000000730000000000073422401000000000000440437000000000325958327000000000000009999123100000010000000000000BRRBRFCTF003187
012024062112RBRL11      010FII RBR LOG CI           R$  000000000771800000000077180000000007604000000000764300000000076480000000007606000000000764901331000000000000004327000000000033074048000000000000009999123100000010000000000000BRRBRLCTF001154
012024062112RBRP11      010FII RBR PROPCI           R$  000000000565000000000057280000000005611000000000566900000000056560000000005629000000000565604495000000000000012066000000000068412506000000000000009999123100000010000000000000BRRBRPCTF002173
012024062112RBRR11      010FII RBRHGRADCI  ER       R$  000000000899700000000090460000000008995000000000902600000000090230000000009023000000000904212661000000000000030477000000000275102272000000000000009999123100000010000000000000BRRBRRCTF008180
012024062112RBRS11      010FII RIOB RR CI           R$  000000000450000000000045000000000004475000000000448200000000044750000000004475000000000452000025000000000000000250000000000001120575000000000000009999123100000010000000000000BRRBRSCTF006138
012024062112RBRX11      010FII RBR MULTCI  ER       R$  000000000090400000000009040000000000898000000000090000000000008990000000000899000000000090008905000000000000073775000000000066462412000000000000009999123100000010000000000000BRRBRXCTF006129
012024062112RBRY11      010FII RBR PCRICI  ER       R$  000000000974400000000098400000000009701000000000975600000000097010000000009701000000000971918765000000000000055751000000000543943557000000000000009999123100000010000000000000BRRBRYCTF004168
012024062112RBVA11      010FII RIOB VA CI           R$  000000001079900000000108290000000010765000000001080000000000107890000000010772000000001078903437000000000000009478000000000102367468000000000000009999123100000010000000000000BRRBVACTF006165
012024062112RBVO11      010FII RIOBCRI2CI           R$  000000000179100000000019250000000001572000000000168000000000017000000000001700000000000170100725000000000000020213000000000033964967000000000000009999123100000010000000000000BRRBVOCTF007243
