00COTAHIST.2024BOVESPA 20240401                                                                                                                                                                                                                      
012024040102EQPA3       010EQTL PARA   ON           R$  000000000079900000000008010000000000770000000000077600000000007760000000000772000000000078300028000000000000004500000000000003493300000000000000009999123100000010000000000000BREQPAACNOR1110
012024040102EQTL3       010EQUATORIAL  ON      NM   R$  000000000321000000000032370000000003180000000000320500000000031970000000003196000000000320620929000000000014588500000000046758361800000000000000009999123100000010000000000000BREQTLACNOR0129
012024040102ESPA3       010ESPACOLASER ON      NM   R$  000000000010200000000001030000000000098000000000009900000000000980000000000098000000000010000773000000000000341100000000000033952500000000000000009999123100000010000000000000BRESPAACNOR7103
012024040102ESTR4       010ESTRELA     PN           R$  000000000020000000000002000000000000183000000000018800000000001840000000000180000000000020000006000000000000001700000000000000320200000000000000009999123100000010000000000000BRESTRACNPR0144
012024040102EUCA3       010EUCATEX     ON      N1   R$  000000000168900000000016890000000001681000000000168600000000016850000000001680000000000168900006000000000000000800000000000001348800000000000000009999123100000010000000000000BREUCAACNOR1157
012024040102EUCA4       010EUCATEX     PN      N1   R$  000000000175000000000017670000000001612000000000168500000000016340000000001633000000000164400767000000000000204200000000000344180100000000000000009999123100000010000000000000BREUCAACNPR8044
012024040102EVEN3       010EVEN        ON      NM   R$  000000000083900000000008540000000000833000000000084200000000008460000000000844000000000084604687000000000001479600000000001246605200000000000000009999123100000010000000000000BREVENACNOR8118
012024040102EZTC3       010EZTEC       ON  ED  NM   R$  000000000163400000000016620000000001627000000000164400000000016470000000001641000000000164804129000000000001227800000000002019399000000000000000009999123100000010000000000000BREZTCACNOR0124
012024040102LWSA3       010LWSA        ON      NM   R$  000000000057300000000005750000000000547000000000055700000000005470000000000546000000000054811543000000000014228800000000007934310100000000000000009999123100000010000000000000BRLWSAACNOR8103
012024040102MAPT4       010CEMEPE      PN           R$  000000000052000000000005200000000000520000000000052000000000005200000000000461000000000054000001000000000000000100000000000000052000000000000000009999123100000010000000000000BRMAPTACNPR5106
012024040102MATD3       010MATER DEI   ON      NM   R$  000000000060000000000006000000000000564000000000057500000000005660000000000566000000000056901657000000000000692900000000000398513000000000000000009999123100000010000000000000BRMATDACNOR4103
012024040102MBLY3       010MOBLY       ON      NM   R$  000000000021300000000002200000000000212000000000021500000000002200000000000214000000000022001127000000000000870900000000000188014300000000000000009999123100000010000000000000BRMBLYACNOR5100
012024040102MDIA3       010M.DIASBRANCOON      NM   R$  000000000382100000000038340000000003772000000000379800000000038090000000003791000000000381002515000000000000492800000000001871674900000000000000009999123100000010000000000000BRMDIAACNOR7134
012024040102MDNE3       010MOURA DUBEUXON      NM   R$  000000000127000000000013040000000001250000000000129000000000013040000000001300000000000130402974000000000000814300000000001050611500000000000000009999123100000010000000000000BRMDNEACNOR9100
012024040102MEAL3       010IMC S/A     ON      NM   R$  000000000016600000000001720000000000165000000000016700000000001700000000000169000000000017005799000000000002568100000000000429407200000000000000009999123100000010000000000000BRMEALACNOR9105
012024040102MELK3       010MELNICK     ON      NM   R$  000000000047100000000004910000000000471000000000048700000000004870000000000487000000000049001788000000000000430200000000000209769300000000000000009999123100000010000000000000BRMELKACNOR8110
012024040102MGEL4       010MANGELS INDLPN           R$  000000000165000000000017500000000001650000000000165600000000016660000000001660000000000184000016000000000000008300000000000013746300000000000000009999123100000010000000000000BRMGELACNPR3147
012024040102MGLU3       010MAGAZ LUIZA ON      NM   R$  000000000018100000000001830000000000176000000000017900000000001780000000000177000000000017833640000000000047538300000000008513823200000000000000009999123100000010000000000000BRMGLUACNOR2123
012024040102AALR3       010ALLIAR      ON      NM   R$  000000000091700000000009220000000000902000000000091400000000009200000000000913000000000092000407000000000000051900000000000047482200000000000000009999123100000010000000000000BRAALRACNOR6102
012024040102ABCB4       010ABC BRASIL  PN      N2   R$  000000000248300000000025830000000002478000000000254500000000025420000000002542000000000254807582000000000001935700000000004928065400000000000000009999123100000010000000000000BRABCBACNPR4145
012024040102ABEV3       010AMBEV S/A   ON           R$  000000000125000000000012540000000001227000000000123300000000012330000000001231000000000123327166000000000021031000000000025937734700000000000000009999123100000010000000000000BRABEVACNOR1127
012024040102BAHI3       010BAHEMA      ON      MA   R$  000000000092900000000009290000000000891000000000090700000000009100000000000881000000000092500016000000000000002700000000000002449500000000000000009999123100000010000000000000BRBAHIACNOR1074
012024040102BALM3       010BAUMER      ON           R$  000000000122000000000012200000000001123000000000119500000000011230000000000991000000000119500004000000000000000400000000000000478300000000000000009999123100000010000000000000BRBALMACNOR5055
012024040102BALM4       010BAUMER      PN           R$  000000000100000000000010000000000000971000000000099200000000009990000000000970000000000103900004000000000000000500000000000000496000000000000000009999123100000010000000000000BRBALMACNPR2056
012024040102BAZA3       010AMAZONIA    ON           R$  000000001010000000000103000000000010100000000001020500000000102200000000010200000000001029000018000000000000001800000000000018369500000000000000009999123100000010000000000000BRBAZAACNOR0178
012024040102BBAS3       010BRASIL      ON      NM   R$  000000000567000000000056920000000005571000000000561500000000056080000000005607000000000561018113000000000005455400000000030636292300000000000000009999123100000010000000000000BRBBASACNOR3321
012024040102BIOM3       010BIOMM       ON      MA   R$  000000000104500000000010450000000000942000000000099000000000009910000000000965000000000099600084000000000001959700000000001941690300000000000000009999123100000010000000000000BRBIOMACNOR2112
012024040102BLAU3       010BLAU        ON  EJ  NM   R$  000000000125700000000012750000000001188000000000122900000000011880000000001188000000000119701195000000000000258500000000000317731000000000000000009999123100000010000000000000BRBLAUACNOR8112
012024040102BRSR3       010BANRISUL    ON      N1   R$  000000000132400000000013310000000001301000000000131200000000013010000000001302000000000130900065000000000000009500000000000012466800000000000000009999123100000010000000000000BRBRSRACNOR3186
012024040102BRSR6       010BANRISUL    PNB     N1   R$  000000000133700000000013480000000001303000000000131600000000013170000000001316000000000131706152000000000001729600000000002277548300000000000000009999123100000010000000000000BRBRSRACNPB4189
012024040102BSLI4       010BRB BANCO   PN           R$  000000000103100000000010830000000001031000000000104000000000010830000000001059000000000107900011000000000000002100000000000002184900000000000000009999123100000010000000000000BRBSLIACNPR2192
012024040102CXSE3       010CAIXA SEGURION      NM   R$  000000000156000000000015750000000001495000000000153100000000015350000000001535000000000153614642000000000005957300000000009120870300000000000000009999123100000010000000000000BRCXSEACNOR7105
012024040102CYRE3       010CYRELA REALTON      NM   R$  000000000250000000000025220000000002440000000000246700000000024450000000002443000000000245013436000000000005972800000000014739974700000000000000009999123100000010000000000000BRCYREACNOR7139
012024040102ENAT3       010ENAUTA PART ON      NM   R$  000000000296700000000029670000000002883000000000290600000000028940000000002894000000000289503859000000000001022500000000002971565400000000000000009999123100000010000000000000BRENATACNOR0104
012024040102ENEV3       010ENEVA       ON      NM   R$  000000000127500000000012770000000001260000000000126600000000012690000000001268000000000126913908000000000006554700000000008299880000000000000000009999123100000010000000000000BRENEVACNOR8105
012024040102ENGI11      010ENERGISA    UNT     N2   R$  000000000481000000000048210000000004723000000000475100000000047230000000004723000000000475308534000000000001806500000000008583426100000000000000009999123100000010000000000000BRENGICDAM16135
012024040102ENGI3       010ENERGISA    ON      N2   R$  000000000154500000000015500000000001527000000000154100000000015430000000001530000000000154200037000000000000005300000000000008171700000000000000009999123100000010000000000000BRENGIACNOR0145
012024040102ENGI4       010ENERGISA    PN      N2   R$  000000000081800000000008180000000000800000000000080500000000008000000000000799000000000080000061000000000000009500000000000007653600000000000000009999123100000010000000000000BRENGIACNPR7141
012024040102ENJU3       010ENJOEI      ON      NM   R$  000000000017600000000001870000000000174000000000018200000000001820000000000182000000000018301370000000000000585700000000000106916800000000000000009999123100000010000000000000BRENJUACNOR9100
012024040102IFCM3       010INFRACOMM   ON      NM   R$  000000000009900000000000990000000000091000000000009400000000000910000000000090000000000009104697000000000008247000000000000775231500000000000000009999123100000010000000000000BRIFCMACNOR8101
012024040102IGTI11      010IGUATEMI S.AUNT     N1   R$  000000000230000000000023210000000002263000000000229500000000022880000000002281000000000228919375000000000005802100000000013320931200000000000000009999123100000010000000000000BRIGTICDAM16105
012024040102IGTI3       010IGUATEMI S.AON      N1   R$  000000000033000000000003340000000000325000000000032700000000003270000000000325000000000032700114000000000000033500000000000010985700000000000000009999123100000010000000000000BRIGTIACNOR8105
012024040102IGTI4       010IGUATEMI S.APN      N1   R$  000000000097900000000009790000000000965000000000097200000000009650000000000953000000000098900003000000000000000400000000000000388800000000000000009999123100000010000000000000BRIGTIACNPR5105
012024040102INEP3       010INEPAR      ON           R$  000000000033200000000003490000000000325000000000033900000000003380000000000335000000000033800378000000000000165400000000000056212100000000000000009999123100000010000000000000BRINEPACNOR1143
012024040102INEP4       010INEPAR      PN           R$  000000000027900000000003000000000000273000000000028300000000002740000000000270000000000027400237000000000000102800000000000029170100000000000000009999123100000010000000000000BRINEPACNPR8143
012024040102INTB3       010INTELBRAS   ON  EJ  NM   R$  000000000209900000000021000000000002055000000000206800000000020580000000002057000000000205902722000000000000601400000000001243952600000000000000009999123100000010000000000000BRINTBACNOR9111
012024040102IRBR3       010IRBBRASIL REON      NM   R$  000000000381500000000039770000000003798000000000386500000000038260000000003821000000000382711439000000000003669400000000014182571000000000000000009999123100000010000000000000BRIRBRACNOR4111
012024040102LIPR3       010ELETROPAR   ON           R$  000000000524700000000052470000000005246000000000524600000000052460000000005001000000000549000003000000000000000300000000000001573900000000000000009999123100000010000000000000BRLIPRACNOR7121
012024040102LJQQ3       010QUERO-QUERO ON      NM   R$  000000000057800000000005840000000000568000000000057500000000005750000000000575000000000057608606000000000002633700000000001516128800000000000000009999123100000010000000000000BRLJQQACNOR5104
012024040102LOGG3       010LOG COM PROPON      NM   R$  000000000227000000000022860000000002197000000000223600000000021970000000002197000000000220001091000000000000171200000000000382822000000000000000009999123100000010000000000000BRLOGGACNOR7107
012024040102LOGN3       010LOG-IN      ON      NM   R$  000000000389400000000039030000000003475000000000357600000000034750000000003475000000000349900764000000000000155100000000000554762700000000000000009999123100000010000000000000BRLOGNACNOR3105
012024040102LPSB3       010LOPES BRASILON      NM   R$  000000000021900000000002240000000000209000000000021300000000002210000000000215000000000022100659000000000000294200000000000062742100000000000000009999123100000010000000000000BRLPSBACNOR0113
012024040102LREN3       010LOJAS RENNERON  EJ  NM   R$  000000000169100000000017040000000001670000000000168200000000016840000000001683000000000168419079000000000014675000000000024696302800000000000000009999123100000010000000000000BRLRENACNOR1220
012024040102LUPA3       010LUPATECH    ON      NM   R$  000000000018600000000001900000000000180000000000018200000000001800000000000180000000000018100930000000000000492200000000000089601800000000000000009999123100000010000000000000BRLUPAACNOR8112
012024040102LVTC3       010WDC NETWORKSON      NM   R$  000000000038900000000003930000000000378000000000038600000000003780000000000378000000000038500062000000000000014800000000000005722500000000000000009999123100000010000000000000BRLVTCACNOR4102
012024040102QUAL3       010QUALICORP   ON      NM   R$  000000000020600000000002060000000000183000000000018800000000001840000000000183000000000018409385000000000021941800000000004136866100000000000000009999123100000010000000000000BRQUALACNOR6119
012024040102SCAR3       010SAO CARLOS  ON      NM   R$  000000000271000000000027390000000002670000000000271400000000027200000000002694000000000272000022000000000000003100000000000008416200000000000000009999123100000010000000000000BRSCARACNOR7130
012024040102SEER3       010SER EDUCA   ON      NM   R$  000000000066700000000006990000000000667000000000068700000000006860000000000686000000000068702434000000000000652900000000000449164700000000000000009999123100000010000000000000BRSEERACNOR5119
012024040102SEQL3       010SEQUOIA LOG ON      NM   R$  000000000003900000000000400000000000038000000000003900000000000390000000000038000000000003902881000000000008853900000000000346839200000000000000009999123100000010000000000000BRSEQLACNOR2101
012024040102SGPS3       010SPRINGS     ON      NM   R$  000000000008100000000000840000000000079000000000008100000000000810000000000081000000000008300268000000000000325400000000000026524100000000000000009999123100000010000000000000BRSGPSACNOR4104
012024040102SHOW3       010TIME FOR FUNON      NM   R$  000000000029800000000002990000000000276000000000028500000000002760000000000275000000000027600476000000000000276200000000000078891600000000000000009999123100000010000000000000BRSHOWACNOR7105
012024040102SHUL4       010SCHULZ      PN  EJ       R$  000000000067200000000006770000000000660000000000066900000000006620000000000662000000000066501738000000000000607900000000000406740400000000000000009999123100000010000000000000BRSHULACNPR4155
012024040102SIMH3       010SIMPAR      ON      NM   R$  000000000074300000000007540000000000719000000000072500000000007200000000000720000000000072209922000000000003440900000000002497719900000000000000009999123100000010000000000000BRSIMHACNOR0107
012024040102SLCE3       010SLC AGRICOLAON      NM   R$  000000000197600000000020200000000001971000000000199500000000020000000000001998000000000200207215000000000002439600000000004868665600000000000000009999123100000010000000000000BRSLCEACNOR2124
012024040102SANB11      010SANTANDER BRUNT          R$  000000000285500000000028800000000002811000000000282700000000028150000000002814000000000281705198000000000001405700000000003974098400000000000000009999123100000010000000000000BRSANBCDAM13163
012024040102SANB3       010SANTANDER BRON           R$  000000000133700000000013590000000001324000000000134700000000013260000000001326000000000133100954000000000000154800000000000208650100000000000000009999123100000010000000000000BRSANBACNOR8170
012024040102SANB4       010SANTANDER BRPN           R$  000000000150300000000015230000000001485000000000149800000000014850000000001485000000000149100831000000000000157500000000000236068000000000000000009999123100000010000000000000BRSANBACNPR5170
012024040102SAPR11      010SANEPAR     UNT     N2   R$  000000000260300000000026180000000002568000000000258500000000025800000000002580000000000258705533000000000000983600000000002543142400000000000000009999123100000010000000000000BRSAPRCDAM13117
012024040102SAPR3       010SANEPAR     ON      N2   R$  000000000050400000000005060000000000498000000000050100000000004990000000000498000000000049900629000000000000201600000000000101073900000000000000009999123100000010000000000000BRSAPRACNOR9158
012024040102SAPR4       010SANEPAR     PN      N2   R$  000000000052200000000005250000000000517000000000052100000000005190000000000519000000000052002094000000000001449100000000000755510700000000000000009999123100000010000000000000BRSAPRACNPR6158
012024040102SBFG3       010GRUPO SBF   ON      NM   R$  000000000130000000000013260000000001286000000000130800000000013170000000001314000000000131711107000000000002770400000000003625017900000000000000009999123100000010000000000000BRSBFGACNOR1102
012024040102SBSP3       010SABESP      ON      NM   R$  000000000847000000000084700000000008310000000000837000000000083900000000008373000000000839011080000000000002340800000000019593115500000000000000009999123100000010000000000000BRSBSPACNOR5160
012024040102PFRM3       010PROFARMA    ON      NM   R$  000000000056900000000005720000000000546000000000055900000000005620000000000559000000000056201177000000000000283200000000000158375000000000000000009999123100000010000000000000BRPFRMACNOR1116
012024040102PGMN3       010PAGUE MENOS ON      NM   R$  000000000027600000000002770000000000266000000000026900000000002670000000000267000000000026802484000000000001030900000000000277470900000000000000009999123100000010000000000000BRPGMNACNOR8103
012024040102PINE3       010PINE        ON      N2   R$  000000000077300000000008380000000000773000000000080000000000008000000000000740000000000083000013000000000000002800000000000002240700000000000000009999123100000010000000000000BRPINEACNOR1148
012024040102PINE4       010PINE        PN      N2   R$  000000000046000000000004690000000000453000000000046000000000004590000000000455000000000046001100000000000003017200000000001390848900000000000000009999123100000010000000000000BRPINEACNPR8148
012024040102PLAS3       010PLASCAR PARTON           R$  000000000095000000000009500000000000900000000000092200000000009000000000000810000000000093900004000000000000001200000000000001107000000000000000009999123100000010000000000000BRPLASACNOR2106
012024040102PLPL3       010PLANOEPLANO ON      NM   R$  000000000140000000000014040000000001357000000000137300000000013590000000001357000000000135902448000000000000541700000000000744041600000000000000009999123100000010000000000000BRPLPLACNOR5104
012024040102PNVL3       010DIMED       ON      NM   R$  000000000120000000000012190000000001180000000000119300000000011800000000001180000000000119301838000000000000418700000000000499743600000000000000009999123100000010000000000000BRPNVLACNOR9205
012024040102POMO3       010MARCOPOLO   ON      N2   R$  000000000058800000000006000000000000578000000000058700000000005830000000000578000000000058301514000000000000372500000000000218762000000000000000009999123100000010000000000000BRPOMOACNOR0097
012024040102POMO4       010MARCOPOLO   PN      N2   R$  000000000075700000000007780000000000751000000000076500000000007520000000000751000000000075312086000000000007073600000000005415611100000000000000009999123100000010000000000000BRPOMOACNPR7097
012024040102PORT3       010WILSON SONS ON      NM   R$  000000000179800000000017980000000001784000000000178900000000017850000000001785000000000178902075000000000000634400000000001134960500000000000000009999123100000010000000000000BRPORTACNOR8106
012024040102POSI3       010POSITIVO TECON      NM   R$  000000000100000000000010540000000000994000000000103600000000010500000000001045000000000105008539000000000002258200000000002339985300000000000000009999123100000010000000000000BRPOSIACNOR9115
012024040102PRIO3       010PETRORIO    ON      NM   R$  000000000489200000000048940000000004821000000000484900000000048390000000004839000000000484015674000000000004737400000000022971899500000000000000009999123100000010000000000000BRPRIOACNOR1106
012024040102RSUL4       010RIOSULENSE  PN           R$  000000000805000000000080500000000007801000000000793300000000080000000000008000000000000809900032000000000000003700000000000029354300000000000000009999123100000010000000000000BRRSULACNPR3113
012024040102USIM5       010USIMINAS    PNA     N1   R$  000000000100700000000010210000000001002000000000101000000000010090000000001007000000000100910462000000000006928200000000007003004200000000000000009999123100000010000000000000BRUSIMACNPA6168
012024040102VALE3       010VALE        ON      NM   R$  000000000616000000000061900000000006100000000000613000000000061220000000006122000000000612336802000000000016740100000000102621606700000000000000009999123100000010000000000000BRVALEACNOR0210
012024040102ZAMP3       010ZAMP S.A.   ON           R$  000000000034100000000003440000000000324000000000032900000000003260000000000326000000000032702648000000000000931900000000000307120400000000000000009999123100000010000000000000BRZAMPACNOR5100
012024040102TPIS3       010TRIUNFO PARTON      NM   R$  000000000039800000000003990000000000392000000000039500000000003950000000000395000000000039700097000000000000035100000000000013886200000000000000009999123100000010000000000000BRTPISACNOR8118
012024040102TRAD3       010TC          ON      NM   R$  000000000008100000000000810000000000075000000000007600000000000750000000000075000000000007600339000000000000382900000000000029457600000000000000009999123100000010000000000000BRTRADACNOR3101
012024040102TRIS3       010TRISUL      ON      NM   R$  000000000056500000000005740000000000561000000000056800000000005660000000000565000000000057001424000000000000416300000000000236607700000000000000009999123100000010000000000000BRTRISACNOR4116
012024040102TRPL3       010TRAN PAULISTON      N1   R$  000000000330800000000033480000000003308000000000332000000000033290000000003329000000000334900016000000000000001800000000000005976200000000000000009999123100000010000000000000BRTRPLACNOR4185
012024040102TRPL4       010TRAN PAULISTPN      N1   R$  000000000248500000000025090000000002479000000000249500000000024890000000002489000000000249008149000000000002082700000000005197929600000000000000009999123100000010000000000000BRTRPLACNPR1185
012024040102TTEN3       0103TENTOS     ON      NM   R$  000000000105900000000010660000000001036000000000104700000000010490000000001048000000000105003976000000000000780200000000000816920200000000000000009999123100000010000000000000BRTTENACNOR0103
012024040102TUPY3       010TUPY        ON      NM   R$  000000000277900000000028090000000002752000000000277300000000027650000000002754000000000276603221000000000000571000000000001583847700000000000000009999123100000010000000000000BRTUPYACNOR1183
012024040102JSLG3       010JSL         ON      NM   R$  000000000123800000000012490000000001214000000000123200000000012200000000001220000000000122201658000000000000530800000000000654472100000000000000009999123100000010000000000000BRJSLGACNOR2121
012024040102KEPL3       010KEPLER WEBERON      NM   R$  000000000106000000000010740000000001051000000000105900000000010550000000001055000000000105903442000000000001056800000000001119411700000000000000009999123100000010000000000000BRKEPLACNOR1061
012024040102KLBN4       010KLABIN S/A  PN      N2   R$  000000000050400000000005060000000000496000000000050100000000004990000000000499000000000050102331000000000001301000000000000651967300000000000000009999123100000010000000000000BRKLBNACNPR9168
012024040102UCAS3       010UNICASA     ON      NM   R$  000000000026800000000002700000000000264000000000026500000000002640000000000263000000000026400071000000000000020100000000000005340800000000000000009999123100000010000000000000BRUCASACNOR1113
012024040102UGPA3       010ULTRAPAR    ON      NM   R$  000000000282100000000028640000000002796000000000282000000000028130000000002811000000000281310760000000000002443200000000006891453200000000000000009999123100000010000000000000BRUGPAACNOR8155
012024040102UNIP3       010UNIPAR      ON  ED       R$  000000000626000000000062790000000006200000000000623000000000062000000000006198000000000620000090000000000000013600000000000084729100000000000000009999123100000010000000000000BRUNIPACNOR7205
012024040102UNIP5       010UNIPAR      PNA ED       R$  000000000693000000000069350000000006930000000000693200000000069350000000006704000000000719400002000000000000000200000000000001386500000000000000009999123100000010000000000000BRUNIPACNPA0207
012024040102UNIP6       010UNIPAR      PNB ED       R$  000000000667600000000067350000000006611000000000664400000000066150000000006611000000000663001044000000000000167300000000001111604100000000000000009999123100000010000000000000BRUNIPACNPB8205
012024040102PCAR3       010P.ACUCAR-CBDON      NM   R$  000000000029900000000002990000000000281000000000028600000000002850000000000284000000000028515955000000000019742600000000005659902100000000000000009999123100000010000000000000BRPCARACNOR3167
012024040102PETZ3       010PETZ        ON      NM   R$  000000000043800000000004400000000000410000000000042100000000004130000000000413000000000041412431000000000009395200000000003958427800000000000000009999123100000010000000000000BRPETZACNOR2109
012024040102USIM3       010USIMINAS    ON      N1   R$  000000000095000000000009600000000000942000000000095200000000009520000000000951000000000095301082000000000000311800000000000296881100000000000000009999123100000010000000000000BRUSIMACNOR3166
012024040102WEST3       010WESTWING    ON      NM   R$  000000000012700000000001390000000000123000000000013100000000001270000000000126000000000012700395000000000000481100000000000063025600000000000000009999123100000010000000000000BRWESTACNOR3100
012024040102WHRL3       010WHIRLPOOL   ON           R$  000000000045500000000004640000000000455000000000045600000000004640000000000455000000000046400015000000000000004000000000000001824700000000000000009999123100000010000000000000BRWHRLACNOR5128
012024040102WHRL4       010WHIRLPOOL   PN           R$  000000000046700000000004670000000000461000000000046500000000004650000000000465000000000046700016000000000000008000000000000003725900000000000000009999123100000010000000000000BRWHRLACNPR2128
012024040102WIZC3       010WIZ CO      ON      NM   R$  000000000073200000000007610000000000715000000000074200000000007320000000000732000000000074405352000000000001887900000000001402243600000000000000009999123100000010000000000000BRWIZCACNOR5101
012024040102WLMM4       010WLM IND COM PN           R$  000000000231000000000023290000000002250000000000226400000000022610000000002261000000000227700019000000000000002200000000000004981900000000000000009999123100000010000000000000BRWLMMACNPR3117
012024040102CGAS3       010COMGAS      ON           R$  000000001264900000000135890000000012649000000001313700000000135000000000013500000000001380000046000000000000006100000000000080141400000000000000009999123100000010000000000000BRCGASACNOR0162
012024040102CGAS5       010COMGAS      PNA          R$  000000001300100000000150000000000013001000000001442900000000143700000000014351000000001456000169000000000000022400000000000323209900000000000000009999123100000010000000000000BRCGASACNPA3159
012024040102CGRA3       010GRAZZIOTIN  ON           R$  000000000269400000000026960000000002640000000000269000000000026920000000002667000000000269400011000000000000001300000000000003497200000000000000009999123100000010000000000000BRCGRAACNOR2081
012024040102CGRA4       010GRAZZIOTIN  PN           R$  000000000282000000000028200000000002767000000000279600000000027790000000002770000000000278100030000000000000004500000000000012583100000000000000009999123100000010000000000000BRCGRAACNPR9081
012024040102CIEL3       010CIELO       ON      NM   R$  000000000054100000000005470000000000538000000000054200000000005420000000000540000000000054311931000000000017396800000000009438226000000000000000009999123100000010000000000000BRCIELACNOR3157
012024040102CLSA3       010CLEARSALE   ON      NM   R$  000000000052100000000005390000000000518000000000053200000000005390000000000531000000000053903225000000000001851700000000000986522200000000000000009999123100000010000000000000BRCLSAACNOR0100
012024040102CLSC4       010CELESC      PN  EJ  N2   R$  000000000670300000000067800000000006600000000000665400000000066550000000006667000000000670400041000000000000007200000000000047911700000000000000009999123100000010000000000000BRCLSCACNPR3129
012024040102CMIG3       010CEMIG       ON  EJ  N1   R$  000000000146000000000014900000000001455000000000147300000000014840000000001478000000000148600963000000000000274600000000000404515800000000000000009999123100000010000000000000BRCMIGACNOR6240
012024040102CMIG4       010CEMIG       PN  EJ  N1   R$  000000000126000000000012870000000001258000000000127400000000012690000000001269000000000127019674000000000019237400000000024516502500000000000000009999123100000010000000000000BRCMIGACNPR3241
012024040102YDUQ3       010YDUQS PART  ON      NM   R$  000000000181800000000018590000000001798000000000182900000000017980000000001797000000000179810894000000000004167900000000007624586200000000000000009999123100000010000000000000BRYDUQACNOR3104
012024040102PDGR3       010PDG REALT   ON      NM   R$  000000000003600000000000370000000000031000000000003400000000000310000000000031000000000003201031000000000009198900000000000312921800000000000000009999123100000010000000000000BRPDGRACNOR8118
012024040102PDTC3       010PADTEC      ON      NM   R$  000000000026500000000002680000000000257000000000026100000000002650000000000264000000000026500256000000000000111400000000000029149100000000000000009999123100000010000000000000BRPDTCACNOR3100
012024040102PEAB4       010PAR AL BAHIAPN  ED       R$  000000000459200000000045920000000004592000000000459200000000045920000000000000000000000459200006000000000000001000000000000004592000000000000000009999123100000010000000000000BRPEABACNPR0132
012024040102PETR3       010PETROBRAS   ON      N2   R$  000000000383300000000038700000000003806000000000383900000000038560000000003851000000000386115668000000000007829200000000030056302700000000000000009999123100000010000000000000BRPETRACNOR9202
012024040102PETR4       010PETROBRAS   PN      N2   R$  000000000375000000000037710000000003721000000000374900000000037650000000003764000000000376543361000000000023697800000000088852737500000000000000009999123100000010000000000000BRPETRACNPR6210
012024040102BRAP3       010BRADESPAR   ON      N1   R$  000000000200800000000020370000000001974000000000200100000000020000000000001999000000000200000817000000000000209900000000000420039200000000000000009999123100000010000000000000BRBRAPACNOR5147
012024040102BRAP4       010BRADESPAR   PN      N1   R$  000000000208100000000021200000000002068000000000208200000000020760000000002075000000000207709046000000000003996200000000008323419900000000000000009999123100000010000000000000BRBRAPACNPR2147
012024040102BRBI11      010BR PARTNERS UNT ED  N2   R$  000000000166500000000016850000000001640000000000165700000000016500000000001650000000000165901397000000000000196500000000000325793600000000000000009999123100000010000000000000BRBRBICDAM10108
012024040102BRFS3       010BRF SA      ON      NM   R$  000000000163700000000016470000000001598000000000161000000000016000000000001598000000000160013066000000000005723800000000009215520400000000000000009999123100000010000000000000BRBRFSACNOR8121
012024040102CSED3       010CRUZEIRO EDUON      NM   R$  000000000049200000000004940000000000450000000000045900000000004550000000000454000000000045602871000000000000736100000000000337978100000000000000009999123100000010000000000000BRCSEDACNOR9104
012024040102CSMG3       010COPASA      ON  EDJ NM   R$  000000000217800000000022080000000002148000000000217300000000021500000000002149000000000216106912000000000001907600000000004146975800000000000000009999123100000010000000000000BRCSMGACNOR5172
012024040102CSNA3       010SID NACIONALON           R$  000000000158400000000016080000000001562000000000157800000000015720000000001570000000000157214126000000000007351300000000011605538500000000000000009999123100000010000000000000BRCSNAACNOR6260
012024040102TGMA3       010TEGMA       ON      NM   R$  000000000275000000000028220000000002745000000000279000000000027650000000002765000000000276602084000000000000432500000000001206882900000000000000009999123100000010000000000000BRTGMAACNOR7143
012024040102TIMS3       010TIM         ON  EJ  NM   R$  000000000179100000000018020000000001778000000000178600000000017810000000001781000000000178610790000000000004859400000000008682929400000000000000009999123100000010000000000000BRTIMSACNOR5115
012024040102TOTS3       010TOTVS       ON      NM   R$  000000000283800000000028550000000002787000000000280600000000028130000000002810000000000281517968000000000003829600000000010748350500000000000000009999123100000010000000000000BRTOTSACNOR8144
012024040102VVEO3       010VIVEO       ON      NM   R$  000000000061600000000006670000000000610000000000063900000000006510000000000647000000000065108297000000000004329500000000002770871700000000000000009999123100000010000000000000BRVVEOACNOR0103
012024040102KRSA3       010KORA SAUDE  ON      NM   R$  000000000008300000000000840000000000080000000000008100000000000820000000000081000000000008200436000000000000289000000000000023594400000000000000009999123100000010000000000000BRKRSAACNOR0100
012024040102LAND3       010TERRASANTAPAON      NM   R$  000000000148800000000015040000000001442000000000147600000000014420000000001442000000000148700182000000000000029600000000000043701200000000000000009999123100000010000000000000BRLANDACNOR9102
012024040102LAVV3       010LAVVI       ON      NM   R$  000000000095100000000009540000000000924000000000094000000000009460000000000938000000000094607052000000000001428200000000001342808100000000000000009999123100000010000000000000BRLAVVACNOR4111
012024040102LEVE3       010METAL LEVE  ON      NM   R$  000000000350500000000035860000000003387000000000345300000000033910000000003391000000000340004099000000000000826900000000002856084600000000000000009999123100000010000000000000BRLEVEACNOR2196
012024040102ODPV3       010ODONTOPREV  ON      NM   R$  000000000121600000000012220000000001203000000000121600000000012210000000001215000000000122102971000000000000905500000000001101516200000000000000009999123100000010000000000000BRODPVACNOR4198
012024040102OFSA3       010OUROFINO S/AON      NM   R$  000000000247000000000025170000000002465000000000247500000000024700000000002470000000000251700041000000000000008400000000000020795100000000000000009999123100000010000000000000BROFSAACNOR7117
012024040102ONCO3       010ONCOCLINICASON      NM   R$  000000000088500000000009060000000000848000000000086200000000008520000000000852000000000085316741000000000007358100000000006345332100000000000000009999123100000010000000000000BRONCOACNOR6100
012024040102OPCT3       010OCEANPACT   ON      NM   R$  000000000059900000000006050000000000592000000000059700000000006000000000000595000000000060001262000000000000381700000000000228254200000000000000009999123100000010000000000000BROPCTACNOR0100
012024040102ORVR3       010ORIZON      ON      NM   R$  000000000376800000000038030000000003710000000000373500000000037430000000003739000000000375001582000000000000260500000000000973059200000000000000009999123100000010000000000000BRORVRACNOR0101
012024040102NEOE3       010NEOENERGIA  ON      NM   R$  000000000203400000000020500000000002025000000000203900000000020440000000002044000000000204502598000000000000961800000000001961229900000000000000009999123100000010000000000000BRNEOEACNOR3121
012024040102FESA3       010FERBASA     ON      N1   R$  000000000159000000000015900000000001590000000000159000000000015900000000001504000000000159700001000000000000000100000000000000159000000000000000009999123100000010000000000000BRFESAACNOR8187
012024040102FESA4       010FERBASA     PN      N1   R$  000000000086900000000008810000000000850000000000085700000000008500000000000850000000000085103766000000000001381000000000001184839500000000000000009999123100000010000000000000BRFESAACNPR5083
012024040102FHER3       010FER HERINGERON      NM   R$  000000000057200000000005730000000000561000000000056600000000005660000000000565000000000057400039000000000000011700000000000006629100000000000000009999123100000010000000000000BRFHERACNOR5103
012024040102FIEI3       010FICA        ON           R$  000000000127800000000012780000000001278000000000127800000000012780000000000000000000000127800001000000000000000100000000000000127800000000000000009999123100000010000000000000BRFIEIACNOR2100
012024040102FIQE3       010UNIFIQUE    ON      NM   R$  000000000041900000000004190000000000404000000000040600000000004050000000000405000000000040701281000000000000273900000000000111449800000000000000009999123100000010000000000000BRFIQEACNOR5106
012024040102FLRY3       010FLEURY      ON  ED  NM   R$  000000000149700000000015030000000001486000000000149000000000014880000000001488000000000149004572000000000001290300000000001922768400000000000000009999123100000010000000000000BRFLRYACNOR5138
012024040102FRAS3       010FRAS-LE     ON      N1   R$  000000000179900000000017990000000001754000000000176800000000017750000000001764000000000177701548000000000000258900000000000457984100000000000000009999123100000010000000000000BRFRASACNOR0158
012024040102FRIO3       010METALFRIO   ON      NM   R$  000000002900000000000290000000000027350000000002821200000000273500000000024500000000003000000004000000000000000400000000000011285000000000000000009999123100000010000000000000BRFRIOACNOR2111
012024040102ITSA3       010ITAUSA      ON  EJ  N1   R$  000000000104700000000010540000000001019000000000103300000000010290000000001029000000000103000409000000000000112200000000000115919400000000000000009999123100000010000000000000BRITSAACNOR0439
012024040102ITSA4       010ITAUSA      PN  EJ  N1   R$  000000000105000000000010550000000001017000000000102800000000010220000000001022000000000102322364000000000016297100000000016759174000000000000000009999123100000010000000000000BRITSAACNPR7439
012024040102AERI3       010AERIS       ON      NM   R$  000000000005600000000000560000000000055000000000005500000000000550000000000055000000000005603715000000000002095700000000000116106500000000000000009999123100000010000000000000BRAERIACNOR4101
012024040102AESB3       010AES BRASIL  ON      NM   R$  000000000100900000000010120000000000955000000000097400000000009550000000000955000000000096014573000000000006591800000000006423301000000000000000009999123100000010000000000000BRAESBACNOR7105
012024040102AFLT3       010AFLUENTE T  ON           R$  000000000072800000000007290000000000721000000000072700000000007210000000000721000000000077700003000000000000000700000000000000509400000000000000009999123100000010000000000000BRAFLTACNOR1120
012024040102AGRO3       010BRASILAGRO  ON      NM   R$  000000000246400000000025270000000002464000000000250500000000025010000000002500000000000250301774000000000000304000000000000761630800000000000000009999123100000010000000000000BRAGROACNOR7114
012024040102ROMI3       010ROMI        ON  EJ  NM   R$  000000000133500000000013670000000001313000000000133100000000013130000000001313000000000131901579000000000000411300000000000547656100000000000000009999123100000010000000000000BRROMIACNOR8193
012024040102RPAD5       010ALFA HOLDINGPNA          R$  000000000079200000000007920000000000792000000000079200000000007920000000000792000000000083000001000000000000000100000000000000079200000000000000009999123100000010000000000000BRRPADACNPA4218
012024040102AGXY3       010AGROGALAXY  ON      NM   R$  000000000022500000000002360000000000208000000000022500000000002250000000000225000000000022601228000000000000852600000000000192576600000000000000009999123100000010000000000000BRAGXYACNOR4102
012024040102AHEB3       010SPTURIS     ON           R$  000000000190000000000019000000000001900000000000190000000000019000000000001620000000000280000001000000000000000100000000000000190000000000000000009999123100000010000000000000BRAHEBACNOR0106
012024040102ALLD3       010ALLIED      ON      NM   R$  000000000097000000000009800000000000907000000000092900000000009330000000000932000000000093300724000000000000325500000000000302391300000000000000009999123100000010000000000000BRALLDACNOR3105
012024040102ALOS3       010ALLOS       ON      NM   R$  000000000239200000000024040000000002359000000000237700000000023680000000002366000000000237106420000000000002320600000000005516592800000000000000009999123100000010000000000000BRALOSACNOR5100
012024040102BMEB3       010MERCANTIL   ON      N1   R$  000000000227100000000022710000000002271000000000227100000000022710000000002207000000000230000001000000000000000100000000000000227100000000000000009999123100000010000000000000BRBMEBACNOR8205
012024040102BMEB4       010MERCANTIL   PN      N1   R$  000000000240000000000024710000000002400000000000243600000000024710000000002435000000000247200081000000000000015500000000000037765400000000000000009999123100000010000000000000BRBMEBACNPR5210
012024040102BMGB4       010BANCO BMG   PN      N1   R$  000000000035000000000003610000000000340000000000034800000000003410000000000341000000000034302514000000000001217600000000000424243100000000000000009999123100000010000000000000BRBMGBACNPR0108
012024040102BMIN4       010MERC INVEST PN           R$  000000000160000000000016000000000001541000000000155700000000015550000000001516000000000159900005000000000000000800000000000001246000000000000000009999123100000010000000000000BRBMINACNPR1176
012024040102BMKS3       010BIC MONARK  ON           R$  000000003969700000000396990000000037501000000003956900000000396980000000037751000000003969800008000000000000000034000000000001345352000000000000009999123100000010000000000000BRBMKSACNOR9165
012024040102AZEV4       010AZEVEDO     PN           R$  000000000012000000000001220000000000108000000000011100000000001100000000000109000000000011002325000000000004006500000000000447693400000000000000009999123100000010000000000000BRAZEVACNPR7121
012024040102AZUL4       010AZUL        PN      N2   R$  000000000133600000000013390000000001266000000000129300000000012970000000001296000000000129922966000000000014208200000000018382830800000000000000009999123100000010000000000000BRAZULACNPR4102
012024040102BMOB3       010BEMOBI TECH ON      NM   R$  000000000137100000000013880000000001358000000000137800000000013790000000001378000000000137901915000000000001373700000000001893075500000000000000009999123100000010000000000000BRBMOBACNOR7103
012024040102BOBR4       010BOMBRIL     PN           R$  000000000022900000000002320000000000226000000000022900000000002270000000000227000000000023100037000000000000021300000000000004883800000000000000009999123100000010000000000000BRBOBRACNPR3128
012024040102B3SA3       010B3          ON  EJ  NM   R$  000000000120600000000012110000000001173000000000118300000000011770000000001176000000000117843751000000000048653200000000057561041600000000000000009999123100000010000000000000BRB3SAACNOR6132
012024040102BBSE3       010BBSEGURIDADEON      NM   R$  000000000325800000000032800000000003238000000000326700000000032680000000003265000000000327112044000000000004196800000000013713504400000000000000009999123100000010000000000000BRBBSEACNOR5124
012024040102CAMB3       010CAMBUCI     ON           R$  000000000111900000000011390000000001100000000000111300000000011110000000001110000000000112300182000000000000051600000000000057469400000000000000009999123100000010000000000000BRCAMBACNOR4127
012024040102CAML3       010CAMIL       ON      NM   R$  000000000090000000000009190000000000881000000000089100000000008840000000000883000000000088402101000000000000501900000000000447602400000000000000009999123100000010000000000000BRCAMLACNOR3127
012024040102CASH3       010MELIUZ      ON      NM   R$  000000000077700000000008150000000000765000000000078800000000007700000000000769000000000077009635000000000004239100000000003341775500000000000000009999123100000010000000000000BRCASHACNOR8105
012024040102CBAV3       010CBA         ON      NM   R$  000000000041000000000004140000000000403000000000040600000000004060000000000405000000000040702231000000000001676800000000000681054500000000000000009999123100000010000000000000BRCBAVACNOR5104
012024040102CCRO3       010CCR SA      ON      NM   R$  000000000139100000000013910000000001358000000000136600000000013650000000001365000000000136611784000000000008515700000000011633605400000000000000009999123100000010000000000000BRCCROACNOR2144
012024040102BPAC11      010BTGP BANCO  UNT     N2   R$  000000000365500000000036640000000003551000000000357500000000035510000000003550000000000356017816000000000006764500000000024185800100000000000000009999123100000010000000000000BRBPACUNT006118
012024040102BPAC3       010BTGP BANCO  ON      N2   R$  000000000181000000000018200000000001738000000000176700000000017380000000001732000000000174300043000000000000008200000000000014494100000000000000009999123100000010000000000000BRBPACACNOR7133
012024040102BPAC5       010BTGP BANCO  PNA     N2   R$  000000000093200000000009320000000000898000000000090400000000009020000000000902000000000091400059000000000000014800000000000013387600000000000000009999123100000010000000000000BRBPACACNPA0133
012024040102CRFB3       010CARREFOUR BRON      NM   R$  000000000136500000000013700000000001320000000000133400000000013430000000001342000000000134408427000000000003302300000000004406529200000000000000009999123100000010000000000000BRCRFBACNOR2116
012024040102CRPG5       010CRISTAL     PNA          R$  000000000324900000000032490000000003181000000000320400000000031970000000003180000000000319900035000000000000004600000000000014742300000000000000009999123100000010000000000000BRCRPGACNPA3118
012024040102CRPG6       010CRISTAL     PNB          R$  000000000323400000000032490000000003234000000000324400000000032490000000003201000000000327700005000000000000000500000000000001622000000000000000009999123100000010000000000000BRCRPGACNPB1118
012024040102AURE3       010AUREN       ON      NM   R$  000000000119500000000012010000000001185000000000119200000000011950000000001195000000000119807644000000000005322200000000006348926400000000000000009999123100000010000000000000BRAUREACNOR9104
012024040102CPFE3       010CPFL ENERGIAON      NM   R$  000000000349000000000034990000000003421000000000346500000000034620000000003461000000000346208858000000000001515500000000005252133200000000000000009999123100000010000000000000BRCPFEACNOR0136
012024040102CPLE3       010COPEL       ON      N2   R$  000000000086700000000008680000000000848000000000085200000000008480000000000848000000000085206676000000000006213300000000005296226900000000000000009999123100000010000000000000BRCPLEACNOR8148
012024040102CPLE5       010COPEL       PNA     N2   R$  000000000200000000000020000000000002000000000000200000000000020000000000002000000000000214400003000000000000000800000000000001600000000000000000009999123100000010000000000000BRCPLEACNPA1146
012024040102CPLE6       010COPEL       PNB     N2   R$  000000000096400000000009680000000000950000000000095400000000009550000000000954000000000095529619000000000020948600000000020001010400000000000000009999123100000010000000000000BRCPLEACNPB9145
012024040102GGPS3       010GPS         ON      NM   R$  000000000208200000000020860000000002048000000000205600000000020500000000002050000000000205507575000000000001893300000000003892861800000000000000009999123100000010000000000000BRGGPSACNOR9102
012024040102GMAT3       010GRUPO MATEUSON  EJ  NM   R$  000000000087300000000008780000000000841000000000085500000000008470000000000847000000000084812326000000000006161100000000005273264000000000000000009999123100000010000000000000BRGMATACNOR7101
012024040102EKTR4       010ELEKTRO     PN  EJ       R$  000000000470000000000047000000000004700000000000472800000000047000000000004756000000000480500002000000000000000200000000000000945600000000000000009999123100000010000000000000BREKTRACNPR7160
012024040102ELET3       010ELETROBRAS  ON      N1   R$  000000000418000000000042190000000004083000000000412200000000040910000000004090000000000409321519000000000007117700000000029344246100000000000000009999123100000010000000000000BRELETACNOR6159
012024040102ELET6       010ELETROBRAS  PNB     N1   R$  000000000466500000000047090000000004576000000000460800000000046000000000004600000000000460204844000000000000815100000000003756604400000000000000009999123100000010000000000000BRELETACNPB7076
012024040102HBOR3       010HELBOR      ON      NM   R$  000000000030900000000003250000000000295000000000031300000000003000000000000298000000000030003102000000000003344300000000001047425800000000000000009999123100000010000000000000BRHBORACNOR3117
012024040102HBRE3       010HBR REALTY  ON      NM   R$  000000000063700000000006380000000000611000000000062100000000006110000000000611000000000061403625000000000001156200000000000718363800000000000000009999123100000010000000000000BRHBREACNOR4100
012024040102HBSA3       010HIDROVIAS   ON      NM   R$  000000000042900000000004360000000000424000000000043000000000004280000000000428000000000043105506000000000005123000000000002203404300000000000000009999123100000010000000000000BRHBSAACNOR0100
012024040102HBTS5       010HABITASUL   PNA          R$  000000000403100000000042000000000004031000000000409100000000040500000000003500000000000450000008000000000000001100000000000004500400000000000000009999123100000010000000000000BRHBTSACNPA3127
012024040102HETA4       010HERCULES    PN           R$  000000000063900000000006390000000000639000000000063900000000006390000000000601000000000065600001000000000000000100000000000000063900000000000000009999123100000010000000000000BRHETAACNPR9136
012024040102WEGE3       010WEG         ON  EJ  NM   R$  000000000382000000000038340000000003757000000000378200000000037990000000003790000000000380012620000000000006335000000000023962581700000000000000009999123100000010000000000000BRWEGEACNOR0222
012024040102BGIP3       010BANESE      ON           R$  000000000272900000000027290000000002729000000000272900000000027290000000002700000000000299600001000000000000000100000000000000272900000000000000009999123100000010000000000000BRBGIPACNOR1208
012024040102BGIP4       010BANESE      PN           R$  000000000236500000000023650000000002300000000000231300000000023000000000002300000000000233400004000000000000000500000000000001156500000000000000009999123100000010000000000000BRBGIPACNPR8208
012024040102BHIA3       010CASAS BAHIA ON      NM   R$  000000000068200000000007100000000000676000000000069000000000006940000000000690000000000069406221000000000004560000000000003148869300000000000000009999123100000010000000000000BRBHIAACNOR1101
012024040102BRIT3       010BRISANET    ON      NM   R$  000000000045000000000004600000000000447000000000045400000000004540000000000454000000000045801439000000000000524700000000000238341800000000000000009999123100000010000000000000BRBRITACNOR0102
012024040102BRKM3       010BRASKEM     ON      N1   R$  000000000257000000000025810000000002521000000000254600000000025810000000002550000000000258100282000000000000063900000000000162693900000000000000009999123100000010000000000000BRBRKMACNOR1119
012024040102BRKM5       010BRASKEM     PNA     N1   R$  000000000263000000000026540000000002602000000000262600000000026300000000002630000000000263106835000000000001750300000000004596801600000000000000009999123100000010000000000000BRBRKMACNPA4121
012024040102CSRN3       010COSERN      ON  EJ       R$  000000000245000000000024500000000002450000000000245000000000024500000000002333000000000269000005000000000000000500000000000001225000000000000000009999123100000010000000000000BRCSRNACNOR0191
012024040102CSRN6       010COSERN      PNB EJ       R$  000000000239000000000023900000000002390000000000239000000000023900000000002150000000000279500001000000000000000100000000000000239000000000000000009999123100000010000000000000BRCSRNACNPB1192
012024040102CSUD3       010CSU DIGITAL ON  EJ  NM   R$  000000000206500000000020910000000002045000000000206200000000020570000000002055000000000208300337000000000000065300000000000134665100000000000000009999123100000010000000000000BRCSUDACNOR5108
012024040102CTKA4       010KARSTEN     PN           R$  000000000193500000000020980000000001933000000000197200000000019330000000001933000000000215100004000000000000000600000000000001183200000000000000009999123100000010000000000000BRCTKAACNPR7043
012024040102CTNM3       010COTEMINAS   ON           R$  000000000086900000000008890000000000868000000000086900000000008890000000000800000000000088000006000000000000002200000000000001913700000000000000009999123100000010000000000000BRCTNMACNOR9130
012024040102CTNM4       010COTEMINAS   PN           R$  000000000011900000000001250000000000117000000000012100000000001240000000000121000000000012400112000000000000081100000000000009827400000000000000009999123100000010000000000000BRCTNMACNPR6129
012024040102CTSA3       010SANTANENSE  ON           R$  000000000030100000000003060000000000281000000000029400000000003060000000000306000000000030900047000000000000012200000000000003591600000000000000009999123100000010000000000000BRCTSAACNOR3062
012024040102CTSA4       010SANTANENSE  PN           R$  000000000015600000000001600000000000150000000000015400000000001600000000000149000000000016000108000000000000053400000000000008270200000000000000009999123100000010000000000000BRCTSAACNPR0062
012024040102CURY3       010CURY S/A    ON      NM   R$  000000000203400000000020590000000002021000000000204500000000020250000000002021000000000202506607000000000001452200000000002971060700000000000000009999123100000010000000000000BRCURYACNOR3107
012024040102CVCB3       010CVC BRASIL  ON      NM   R$  000000000028900000000002940000000000270000000000027800000000002730000000000273000000000027416777000000000036517600000000010183065900000000000000009999123100000010000000000000BRCVCBACNOR1115
012024040102ELMD3       010ELETROMIDIA ON      NM   R$  000000000186900000000018980000000001855000000000187400000000018800000000001864000000000188000487000000000000085900000000000161048000000000000000009999123100000010000000000000BRELMDACNOR3100
012024040102EMAE4       010EMAE        PN           R$  000000000699800000000072480000000006998000000000715500000000071000000000007050000000000717200023000000000000002700000000000019318500000000000000009999123100000010000000000000BREMAEACNPR1124
012024040102EMBR3       010EMBRAER     ON      NM   R$  000000000335100000000033600000000003229000000000326400000000032390000000003237000000000323918725000000000006170700000000020141296600000000000000009999123100000010000000000000BREMBRACNOR4191
012024040102BBDC3       010BRADESCO    ON      N1   R$  000000000127600000000012870000000001252000000000126300000000012570000000001257000000000125806613000000000006401200000000008088833300000000000000009999123100000010000000000000BRBBDCACNOR1767
012024040102BBDC4       010BRADESCO    PN      N1   R$  000000000143600000000014390000000001404000000000141300000000014130000000001412000000000141317954000000000024308100000000034354487200000000000000009999123100000010000000000000BRBBDCACNPR8767
012024040102CMIN3       010CSNMINERACAOON      N2   R$  000000000053500000000005420000000000531000000000053400000000005310000000000531000000000053219485000000000009838900000000005257963400000000000000009999123100000010000000000000BRCMINACNOR2110
012024040102COCE5       010COELCE      PNA          R$  000000000371600000000037390000000003543000000000360700000000035430000000003543000000000360000124000000000000015100000000000054467200000000000000009999123100000010000000000000BRCOCEACNPA3146
012024040102COGN3       010COGNA ON    ON      NM   R$  000000000023800000000002460000000000236000000000024000000000002360000000000236000000000023711238000000000021089000000000005063689100000000000000009999123100000010000000000000BRCOGNACNOR2104
012024040102GEPA4       010GER PARANAP PN           R$  000000000259400000000026000000000002594000000000259900000000026000000000002555000000000260000003000000000000001200000000000003118800000000000000009999123100000010000000000000BRGEPAACNPR9159
012024040102GFSA3       010GAFISA      ON      NM   R$  000000000066800000000006840000000000645000000000066900000000006770000000000673000000000067702918000000000002848200000000001906214300000000000000009999123100000010000000000000BRGFSAACNOR3124
012024040102GGBR3       010GERDAU      ON      N1   R$  000000000200000000000020220000000001999000000000200800000000020140000000002004000000000201400461000000000000074000000000000148627300000000000000009999123100000010000000000000BRGGBRACNOR1190
012024040102GGBR4       010GERDAU      PN      N1   R$  000000000223000000000022490000000002211000000000223300000000022300000000002230000000000223219318000000000008691300000000019411952900000000000000009999123100000010000000000000BRGGBRACNPR8190
012024040102ITUB3       010ITAUUNIBANCOON  EJ  N1   R$  000000000299200000000029980000000002895000000000291800000000028980000000002897000000000290201662000000000000460000000000001342508200000000000000009999123100000010000000000000BRITUBACNOR4334
012024040102ITUB4       010ITAUUNIBANCOPN  EJ  N1   R$  000000000345800000000034790000000003343000000000337000000000033440000000003344000000000334533207000000000031425600000000105929179400000000000000009999123100000010000000000000BRITUBACNPR1334
012024040102ALPA3       010ALPARGATAS  ON      N1   R$  000000000100500000000010050000000000970000000000097100000000009700000000000970000000000098600020000000000000011500000000000011176600000000000000009999123100000010000000000000BRALPAACNOR0231
012024040102ALPA4       010ALPARGATAS  PN      N1   R$  000000000095600000000009580000000000920000000000093100000000009300000000000929000000000093406919000000000003393800000000003160941600000000000000009999123100000010000000000000BRALPAACNPR7232
012024040102ALPK3       010ESTAPAR     ON      NM   R$  000000000044300000000004500000000000439000000000044200000000004460000000000446000000000044700353000000000000113900000000000050445000000000000000009999123100000010000000000000BRALPKACNOR9101
012024040102ALUP11      010ALUPAR      UNT     N2   R$  000000000305200000000031050000000003052000000000307900000000030790000000003078000000000308002333000000000001569300000000004832573900000000000000009999123100000010000000000000BRALUPCDAM15117
012024040102ALUP3       010ALUPAR      ON      N2   R$  000000000103500000000010540000000001032000000000103900000000010340000000001033000000000103800092000000000000016800000000000017455400000000000000009999123100000010000000000000BRALUPACNOR8117
012024040102ALUP4       010ALUPAR      PN      N2   R$  000000000103400000000010340000000001012000000000102000000000010240000000001018000000000102500129000000000000023400000000000023883200000000000000009999123100000010000000000000BRALUPACNPR5117
012024040102AMAR3       010LOJAS MARISAON      NM   R$  000000000018900000000001890000000000184000000000018500000000001850000000000185000000000018600406000000000000323800000000000059980800000000000000009999123100000010000000000000BRAMARACNOR4114
012024040102AMBP3       010AMBIPAR     ON      NM   R$  000000000157600000000015760000000001387000000000143300000000014000000000001400000000000140309431000000000003947400000000005659545500000000000000009999123100000010000000000000BRAMBPACNOR6103
012024040102CEEB3       010COELBA      ON  EJ       R$  000000000391200000000039590000000003861000000000391500000000039000000000003844000000000392400007000000000000000900000000000003524000000000000000009999123100000010000000000000BRCEEBACNOR3197
012024040102CEAB3       010CEA MODAS   ON      NM   R$  000000000107000000000011110000000001052000000000108700000000010780000000001070000000000107811678000000000005284900000000005745774500000000000000009999123100000010000000000000BRCEABACNOR1102
012024040102CEBR3       010CEB         ON           R$  000000000215100000000021510000000002087000000000210800000000020900000000002090000000000213000030000000000000004000000000000008435600000000000000009999123100000010000000000000BRCEBRACNOR5124
012024040102CEBR5       010CEB         PNA          R$  000000000188900000000018920000000001842000000000185800000000018650000000001844000000000186500045000000000000009500000000000017657500000000000000009999123100000010000000000000BRCEBRACNPA8123
012024040102CEBR6       010CEB         PNB          R$  000000000205100000000020750000000002051000000000206700000000020700000000002069000000000207000019000000000000003900000000000008064500000000000000009999123100000010000000000000BRCEBRACNPB6123
012024040102CEDO3       010CEDRO       ON      N1   R$  000000000325500000000032550000000003200000000000322300000000032000000000003000000000000330000008000000000000000800000000000002578500000000000000009999123100000010000000000000BRCEDOACNOR8096
012024040102CEDO4       010CEDRO       PN      N1   R$  000000000276600000000029000000000002766000000000285500000000028000000000002800000000000289500018000000000000003400000000000009707000000000000000009999123100000010000000000000BRCEDOACNPR5128
012024040102BEEF3       010MINERVA     ON      NM   R$  000000000067500000000006920000000000673000000000068500000000006850000000000685000000000068812206000000000009920100000000006795292000000000000000009999123100000010000000000000BRBEEFACNOR6116
012024040102BEES3       010BANESTES    ON           R$  000000000086600000000008840000000000851000000000086900000000008600000000000858000000000086000227000000000000036500000000000031723000000000000000009999123100000010000000000000BRBEESACNOR9388
012024040102BEES4       010BANESTES    PN           R$  000000000099800000000010010000000000972000000000099300000000009840000000000971000000000098500043000000000000008800000000000008739000000000000000009999123100000010000000000000BRBEESACNPR6313
012024040102BPAN4       010BANCO PAN   PN      N1   R$  000000000095100000000009600000000000929000000000094300000000009440000000000939000000000094403997000000000002823300000000002663260900000000000000009999123100000010000000000000BRBPANACNPR1115
012024040102DASA3       010DASA        ON      NM   R$  000000000063200000000006320000000000592000000000060500000000005920000000000592000000000059501893000000000000463500000000000280845000000000000000009999123100000010000000000000BRDASAACNOR1122
012024040102DESK3       010DESKTOP     ON      NM   R$  000000000152000000000015570000000001517000000000153800000000015400000000001540000000000155401019000000000000248400000000000382187800000000000000009999123100000010000000000000BRDESKACNOR2103
012024040102DEXP3       010DEXXOS PAR  ON      N1   R$  000000000115000000000011690000000001123000000000114000000000011350000000001135000000000113600817000000000000168000000000000191633900000000000000009999123100000010000000000000BRDEXPACNOR1104
012024040102DEXP4       010DEXXOS PAR  PN      N1   R$  000000000115100000000011510000000001122000000000113300000000011230000000001122000000000115000012000000000000001800000000000002040600000000000000009999123100000010000000000000BRDEXPACNPR8104
012024040102DIRR3       010DIRECIONAL  ON      NM   R$  000000000257000000000025740000000002530000000000254800000000025520000000002549000000000255204715000000000000974800000000002484221000000000000000009999123100000010000000000000BRDIRRACNOR0117
012024040102RRRP3       0103R PETROLEUMON      NM   R$  000000000330000000000033400000000003287000000000330800000000033100000000003306000000000331312735000000000004886200000000016163972200000000000000009999123100000010000000000000BRRRRPACNOR5102
012024040102TASA3       010TAURUS ARMASON      N2   R$  000000000137400000000013860000000001330000000000135400000000013610000000001349000000000136100175000000000000040500000000000054853200000000000000009999123100000010000000000000BRTASAACNOR7103
012024040102TASA4       010TAURUS ARMASPN      N2   R$  000000000134600000000013540000000001304000000000131300000000013080000000001307000000000130802814000000000000561900000000000738131500000000000000009999123100000010000000000000BRTASAACNPR4103
012024040102TCSA3       010TECNISA     ON      NM   R$  000000000029700000000002970000000000286000000000029200000000002860000000000286000000000029000268000000000000126200000000000036891000000000000000009999123100000010000000000000BRTCSAACNOR3112
012024040102TECN3       010TECHNOS     ON      NM   R$  000000000045000000000004870000000000441000000000046700000000004670000000000467000000000047502148000000000000520200000000000243267000000000000000009999123100000010000000000000BRTECNACNOR6109
012024040102TELB4       010TELEBRAS    PN           R$  000000000100000000000010190000000000999000000000100100000000010190000000001000000000000103000011000000000000003000000000000003003300000000000000009999123100000010000000000000BRTELBACNPR9140
012024040102TEND3       010TENDA       ON      NM   R$  000000000128300000000012990000000001223000000000124100000000012340000000001233000000000123407858000000000002288100000000002841643100000000000000009999123100000010000000000000BRTENDACNOR4111
012024040102TFCO4       010TRACK FIELD PN  EJ  N2   R$  000000000120600000000012140000000001172000000000118700000000011820000000001182000000000118400848000000000000234800000000000278814600000000000000009999123100000010000000000000BRTFCOACNPR8112
012024040102DMVF3       010D1000VFARMA ON      NM   R$  000000000067500000000006880000000000660000000000067100000000006640000000000661000000000066400383000000000000122300000000000082091300000000000000009999123100000010000000000000BRDMVFACNOR9100
012024040102DOHL3       010DOHLER      ON           R$  000000000064900000000006490000000000649000000000064900000000006490000000000647000000000099900001000000000000000100000000000000064900000000000000009999123100000010000000000000BRDOHLACNOR2063
012024040102DOHL4       010DOHLER      PN           R$  000000000047100000000004710000000000471000000000047100000000004710000000000446000000000047100001000000000000000100000000000000047100000000000000009999123100000010000000000000BRDOHLACNPR9066
012024040102DOTZ3       010DOTZ SA     ON      NM   R$  000000000058800000000005950000000000551000000000057900000000005510000000000546000000000056600076000000000000015400000000000008924600000000000000009999123100000010000000000000BRDOTZACNOR7101
012024040102DXCO3       010DEXCO       ON      NM   R$  000000000076700000000007710000000000750000000000075700000000007530000000000752000000000075411662000000000004958900000000003755850500000000000000009999123100000010000000000000BRDXCOACNOR8105
012024040102EPAR3       010EMBPAR S/A  ON           R$  000000000082500000000008320000000000802000000000081400000000008150000000000812000000000081500054000000000000009400000000000007660200000000000000009999123100000010000000000000BREPARACNOR9104
012024040102CSAN3       010COSAN       ON      NM   R$  000000000163600000000016400000000001568000000000157800000000015740000000001574000000000157538004000000000017546400000000027701217800000000000000009999123100000010000000000000BRCSANACNOR6124
012024040102EALT3       010ACO ALTONA  ON           R$  000000000099900000000009990000000000988000000000099300000000009880000000000976000000000103800002000000000000000200000000000000198700000000000000009999123100000010000000000000BREALTACNOR4137
012024040102EALT4       010ACO ALTONA  PN           R$  000000000109700000000010990000000001074000000000108600000000010740000000001073000000000108900024000000000000004100000000000004452900000000000000009999123100000010000000000000BREALTACNPR1137
012024040102ECOR3       010ECORODOVIAS ON      NM   R$  000000000081000000000008220000000000790000000000080000000000007950000000000794000000000079509805000000000004273700000000003423121900000000000000009999123100000010000000000000BRECORACNOR8119
012024040102EGIE3       010ENGIE BRASILON      NM   R$  000000000402600000000040350000000003932000000000395100000000039450000000003944000000000394810915000000000004024500000000015902837500000000000000009999123100000010000000000000BREGIEACNOR9125
012024040102GRND3       010GRENDENE    ON      NM   R$  000000000066000000000006650000000000654000000000065600000000006540000000000653000000000065704260000000000001768600000000001161184500000000000000009999123100000010000000000000BRGRNDACNOR3172
012024040102GUAR3       010GUARARAPES  ON      NM   R$  000000000083500000000008530000000000820000000000083900000000008410000000000838000000000084108796000000000002465300000000002069770900000000000000009999123100000010000000000000BRGUARACNOR4172
012024040102HAGA3       010HAGA S/A    ON           R$  000000000026700000000002670000000000267000000000026700000000002670000000000256000000000026600001000000000000000100000000000000026700000000000000009999123100000010000000000000BRHAGAACNOR7103
012024040102HAGA4       010HAGA S/A    PN           R$  000000000011600000000001180000000000115000000000011600000000001170000000000116000000000011800012000000000000011900000000000001381100000000000000009999123100000010000000000000BRHAGAACNPR4103
012024040102HAPV3       010HAPVIDA     ON      NM   R$  000000000038300000000003950000000000366000000000038200000000003940000000000393000000000039444099000000000131956200000000050534857200000000000000009999123100000010000000000000BRHAPVACNOR4113
012024040102ARML3       010ARMAC       ON      NM   R$  000000000127700000000012770000000001209000000000122100000000012090000000001208000000000121602123000000000000446200000000000544896300000000000000009999123100000010000000000000BRARMLACNOR1110
012024040102ARZZ3       010AREZZO CO   ON      NM   R$  000000000640100000000064260000000006235000000000629400000000062350000000006235000000000624608810000000000001442300000000009077849900000000000000009999123100000010000000000000BRARZZACNOR3146
012024040102ASAI3       010ASSAI       ON      NM   R$  000000000146600000000014710000000001409000000000142600000000014180000000001418000000000141917426000000000014371700000000020494418800000000000000009999123100000010000000000000BRASAIACNOR0106
012024040102ATOM3       010ATOMPAR     ON           R$  000000000019800000000002670000000000198000000000023600000000002350000000000235000000000023700553000000000000319500000000000075423400000000000000009999123100000010000000000000BRATOMACNOR1106
012024040102JHSF3       010JHSF PART   ON  ED  NM   R$  000000000048200000000004890000000000461000000000047300000000004610000000000461000000000046305572000000000003194600000000001514083100000000000000009999123100000010000000000000BRJHSFACNOR2134
012024040102NGRD3       010NEOGRID     ON      NM   R$  000000000010900000000001090000000000105000000000010700000000001080000000000106000000000010801355000000000000788200000000000084399700000000000000009999123100000010000000000000BRNGRDACNOR3103
012024040102NINJ3       010GETNINJAS   ON      NM   R$  000000000051300000000005130000000000510000000000051000000000005100000000000510000000000051300120000000000000043300000000000022095400000000000000009999123100000010000000000000BRNINJACNOR5101
012024040102NORD3       010NORDON MET  ON           R$  000000000091100000000011000000000000901000000000101900000000009010000000000891000000000093500025000000000000004100000000000004179600000000000000009999123100000010000000000000BRNORDACNOR7135
012024040102NTCO3       010GRUPO NATURAON  ED  NM   R$  000000000178500000000017970000000001725000000000174300000000017390000000001736000000000173915452000000000011831800000000020633503800000000000000009999123100000010000000000000BRNTCOACNOR5105
012024040102AVLL3       010ALPHAVILLE  ON      NM   R$  000000000041400000000004140000000000380000000000040400000000003800000000000379000000000040000008000000000000001700000000000000688000000000000000009999123100000010000000000000BRAVLLACNOR5103
012024040102AZEV3       010AZEVEDO     ON           R$  000000000012800000000001400000000000124000000000012900000000001320000000000133000000000013500818000000000000687800000000000089046100000000000000009999123100000010000000000000BRAZEVACNOR0121
012024040102MWET4       010WETZEL S/A  PN           R$  000000000059100000000005910000000000557000000000057400000000005740000000000556000000000059100004000000000000000500000000000000287100000000000000009999123100000010000000000000BRMWETACNPR3118
012024040102MYPK3       010IOCHP-MAXIONON      NM   R$  000000000144100000000014460000000001395000000000141200000000014240000000001419000000000142405247000000000001129400000000001595770900000000000000009999123100000010000000000000BRMYPKACNOR7154
012024040102RCSL3       010RECRUSUL    ON           R$  000000000017800000000001830000000000176000000000017900000000001800000000000180000000000018104295000000000004514500000000000811783200000000000000009999123100000010000000000000BRRCSLACNOR4133
012024040102RCSL4       010RECRUSUL    PN           R$  000000000007000000000000700000000000069000000000006900000000000690000000000069000000000007000950000000000000920300000000000063681000000000000000009999123100000010000000000000BRRCSLACNPR1133
012024040102RDNI3       010RNI         ON      NM   R$  000000000037400000000003780000000000373000000000037500000000003750000000000373000000000037700017000000000000006600000000000002475300000000000000009999123100000010000000000000BRRDNIACNOR9116
012024040102RDOR3       010REDE D OR   ON  EJ  NM   R$  000000000253100000000025340000000002490000000000251300000000025280000000002511000000000252811137000000000003450500000000008672942200000000000000009999123100000010000000000000BRRDORACNOR8112
012024040102RECV3       010PETRORECSA  ON      NM   R$  000000000237000000000023770000000002310000000000232800000000023160000000002315000000000231810175000000000003534600000000008229356000000000000000009999123100000010000000000000BRRECVACNOR3105
012024040102REDE3       010REDE ENERGIAON           R$  000000000069500000000007090000000000686000000000069000000000006960000000000687000000000069800022000000000000003400000000000002346200000000000000009999123100000010000000000000BRREDEACNOR7127
012024040102RENT3       010LOCALIZA    ON      NM   R$  000000000549000000000055090000000005262000000000531800000000052650000000005262000000000526623869000000000006815900000000036248950200000000000000009999123100000010000000000000BRRENTACNOR4194
012024040102SYNE3       010SYN PROP TECON      NM   R$  000000000088600000000008890000000000862000000000086900000000008670000000000867000000000086901370000000000000393900000000000342575600000000000000009999123100000010000000000000BRSYNEACNOR2102
012024040102TAEE11      010TAESA       UNT     N2   R$  000000000363100000000036590000000003611000000000363700000000036340000000003632000000000363608681000000000002070400000000007531559700000000000000009999123100000010000000000000BRTAEECDAM10145
012024040102TAEE3       010TAESA       ON      N2   R$  000000000120000000000012140000000001195000000000120500000000012070000000001204000000000120700674000000000000122500000000000147656300000000000000009999123100000010000000000000BRTAEEACNOR9145
012024040102TAEE4       010TAESA       PN      N2   R$  000000000121800000000012210000000001209000000000121600000000012160000000001216000000000121700813000000000000191600000000000233036100000000000000009999123100000010000000000000BRTAEEACNPR6145
012024040102VITT3       010VITTIA      ON      NM   R$  000000000068900000000007000000000000674000000000068200000000006740000000000673000000000068001752000000000000558500000000000381071500000000000000009999123100000010000000000000BRVITTACNOR4106
012024040102VIVA3       010VIVARA S.A. ON      NM   R$  000000000259100000000025950000000002484000000000251700000000025000000000002500000000000250413855000000000003905200000000009830756700000000000000009999123100000010000000000000BRVIVAACNOR0106
012024040102VIVR3       010VIVER       ON      NM   R$  000000000031400000000003290000000000306000000000031400000000003080000000000308000000000031100215000000000000122400000000000038476900000000000000009999123100000010000000000000BRVIVRACNOR4122
012024040102VIVT3       010TELEF BRASILON  EJ       R$  000000000505100000000051590000000005051000000000510500000000050810000000005080000000000510308358000000000003334600000000017024447800000000000000009999123100000010000000000000BRVIVTACNOR0179
012024040102VLID3       010VALID       ON      NM   R$  000000000183600000000018700000000001813000000000183500000000018370000000001833000000000183702671000000000000425400000000000780742400000000000000009999123100000010000000000000BRVLIDACNOR5141
012024040102VSTE3       010VESTE       ON      NM   R$  000000000170000000000017820000000001665000000000170400000000017000000000001667000000000174900080000000000000020300000000000034594600000000000000009999123100000010000000000000BRVSTEACNOR5102
012024040102VULC3       010VULCABRAS   ON      NM   R$  000000000173200000000017320000000001660000000000167900000000016860000000001686000000000169204619000000000002485800000000004175650200000000000000009999123100000010000000000000BRVULCACNOR2158
012024040102RAIZ4       010RAIZEN      PN  ED  N2   R$  000000000035300000000003530000000000334000000000033700000000003360000000000336000000000033725283000000000029549500000000009987470500000000000000009999123100000010000000000000BRRAIZACNPR6110
012024040102RANI3       010IRANI       ON      NM   R$  000000000092700000000009450000000000924000000000093000000000009260000000000926000000000092704706000000000001328400000000001236448300000000000000009999123100000010000000000000BRRANIACNOR5070
012024040102RAPT3       010RANDON PART ON      N1   R$  000000000107100000000010760000000001040000000000105900000000010400000000001040000000000105200261000000000000103100000000000109189800000000000000009999123100000010000000000000BRRAPTACNOR7162
012024040102RAPT4       010RANDON PART PN      N1   R$  000000000128900000000013170000000001268000000000128900000000012780000000001276000000000127807479000000000002370600000000003056505600000000000000009999123100000010000000000000BRRAPTACNPR4162
012024040102SNSY5       010SANSUY      PNA          R$  000000000064000000000006600000000000640000000000065100000000006500000000000641000000000065400034000000000000022800000000000014856500000000000000009999123100000010000000000000BRSNSYACNPA5111
012024040102SOJA3       010BOA SAFRA   ON      NM   R$  000000000182200000000018530000000001801000000000183500000000018400000000001825000000000184001954000000000000402800000000000739494500000000000000009999123100000010000000000000BRSOJAACNOR9105
012024040102SOMA3       010GRUPO SOMA  ON      NM   R$  000000000076100000000007630000000000739000000000074500000000007430000000000742000000000074312940000000000007860400000000005858902400000000000000009999123100000010000000000000BRSOMAACNOR3102
012024040102SOND5       010SONDOTECNICAPNA          R$  000000000540000000000054000000000005400000000000540000000000054000000000005313000000000540000003000000000000000300000000000001620000000000000000009999123100000010000000000000BRSONDACNPA8165
012024040102SRNA3       010SERENA      ON      NM   R$  000000000094000000000009560000000000918000000000093700000000009520000000000945000000000095211375000000000004653800000000004363551200000000000000009999123100000010000000000000BRSRNAACNOR4100
012024040102STBP3       010SANTOS BRP  ON  ED  NM   R$  000000000133400000000013350000000001294000000000130200000000013070000000001304000000000130816924000000000006837000000000008906678900000000000000009999123100000010000000000000BRSTBPACNOR3129
012024040102SUZB3       010SUZANO S.A. ON      NM   R$  000000000640000000000065300000000006400000000000645700000000064890000000006486000000000649021988000000000005495900000000035488604300000000000000009999123100000010000000000000BRSUZBACNOR0129
012024040102GOAU3       010GERDAU MET  ON      N1   R$  000000000105500000000010690000000001054000000000106100000000010690000000001059000000000106900217000000000000054000000000000057312100000000000000009999123100000010000000000000BRGOAUACNOR1266
012024040102GOAU4       010GERDAU MET  PN      N1   R$  000000000103400000000010350000000001024000000000103100000000010350000000001034000000000103608245000000000004202400000000004333373200000000000000009999123100000010000000000000BRGOAUACNPR8267
012024040102MILS3       010MILLS       ON  EJ  NM   R$  000000000134500000000013710000000001345000000000136200000000013580000000001354000000000135903466000000000000731400000000000996242800000000000000009999123100000010000000000000BRMILSACNOR2125
012024040102MLAS3       010MULTILASER  ON      NM   R$  000000000024200000000002470000000000239000000000024300000000002450000000000245000000000024602987000000000001917500000000000466006700000000000000009999123100000010000000000000BRMLASACNOR9101
012024040102MNDL3       010MUNDIAL     ON           R$  000000000469400000000046940000000004694000000000469400000000046940000000004250000000000469400002000000000000000200000000000000938800000000000000009999123100000010000000000000BRMNDLACNOR4107
012024040102MNPR3       010MINUPAR     ON           R$  000000000204500000000020450000000001952000000000195800000000019660000000001965000000000207000007000000000000002900000000000005680800000000000000009999123100000010000000000000BRMNPRACNOR5122
012024040102MOVI3       010MOVIDA      ON      NM   R$  000000000084900000000008820000000000849000000000086300000000008510000000000850000000000085112241000000000004331000000000003739877300000000000000009999123100000010000000000000BRMOVIACNOR0122
012024040102MRFG3       010MARFRIG     ON      NM   R$  000000000102800000000010350000000001009000000000102300000000010310000000001028000000000103116475000000000007184200000000007354369900000000000000009999123100000010000000000000BRMRFGACNOR0116
012024040102VAMO3       010VAMOS       ON      NM   R$  000000000084000000000008520000000000816000000000083000000000008280000000000828000000000082910005000000000007283000000000006046251800000000000000009999123100000010000000000000BRVAMOACNOR7105
012024040102VBBR3       010VIBRA       ON      NM   R$  000000000250000000000025390000000002500000000000251800000000025200000000002518000000000252026570000000000010785700000000027162297300000000000000009999123100000010000000000000BRVBBRACNOR1106
012024040102RADL3       010RAIADROGASILON      NM   R$  000000000275500000000027580000000002650000000000267400000000026800000000002680000000000268212846000000000009721200000000025999333800000000000000009999123100000010000000000000BRRADLACNOR0154
012024040102RAIL3       010RUMO S.A.   ON      NM   R$  000000000223000000000022300000000002195000000000220500000000022050000000002205000000000220720413000000000006426700000000014173607800000000000000009999123100000010000000000000BRRAILACNOR9104
012024040102SMFT3       010SMART FIT   ON      NM   R$  000000000258900000000026150000000002554000000000258900000000025820000000002582000000000260004297000000000001140800000000002954394400000000000000009999123100000010000000000000BRSMFTACNOR1111
012024040102SMTO3       010SAO MARTINHOON      NM   R$  000000000310000000000031250000000003025000000000305100000000030370000000003035000000000306105875000000000001224300000000003736388300000000000000009999123100000010000000000000BRSMTOACNOR3125
012024040102JALL3       010JALLESMACHADON      NM   R$  000000000079000000000007950000000000764000000000077300000000007640000000000764000000000077102480000000000000671500000000000519611600000000000000009999123100000010000000000000BRJALLACNOR0105
012024040102JBSS3       010JBS         ON      NM   R$  000000000212900000000021370000000002084000000000209600000000020860000000002085000000000208726434000000000010333600000000021660198900000000000000009999123100000010000000000000BRJBSSACNOR8121
012024040102MRSA3B      010MRS LOGIST  ON      MB   R$  000000000280000000000028000000000002800000000000280000000000028000000000002606000000000445000006000000000000000700000000000001960000000000000000009999123100000010000000000000BRMRSAACNOR6124
012024040102MRSA5B      010MRS LOGIST  PNA     MB   R$  000000000278500000000027850000000002785000000000278500000000027850000000002606000000000800000001000000000000000100000000000000278500000000000000009999123100000010000000000000BRMRSAACNPA9124
012024040102MRVE3       010MRV         ON      NM   R$  000000000078200000000007850000000000762000000000077100000000007630000000000763000000000076408562000000000007749600000000005979591700000000000000009999123100000010000000000000BRMRVEACNOR2126
012024040102MTRE3       010MITRE REALTYON      NM   R$  000000000050500000000005450000000000505000000000052900000000005190000000000516000000000052005130000000000003579800000000001895423700000000000000009999123100000010000000000000BRMTREACNOR6109
012024040102MTSA4       010METISA      PN           R$  000000000494900000000049970000000004865000000000492000000000048650000000004810000000000494900033000000000000003500000000000017222900000000000000009999123100000010000000000000BRMTSAACNPR9071
012024040102MULT3       010MULTIPLAN   ON      N2   R$  000000000257400000000025740000000002513000000000253300000000025330000000002530000000000253315599000000000003579700000000009069652700000000000000009999123100000010000000000000BRMULTACNOR5137
012024040102ANIM3       010ANIMA       ON      NM   R$  000000000049100000000004990000000000485000000000049000000000004880000000000487000000000049110691000000000004037300000000001981741800000000000000009999123100000010000000000000BRANIMACNOR6107
012024040102APER3       010ALPER S.A.  ON           R$  000000000435000000000044320000000004318000000000439200000000044320000000004350000000000444000005000000000000000500000000000002196400000000000000009999123100000010000000000000BRAPERACNOR9106
012024040102SNSY3       010SANSUY      ON           R$  000000000105000000000010500000000000996000000000103000000000010390000000001000000000000103900004000000000000000900000000000000927200000000000000009999123100000010000000000000BRSNSYACNOR2113
012024040102PRNR3       010PRINER      ON      NM   R$  000000000122400000000012240000000001186000000000120100000000011910000000001191000000000119601677000000000000445100000000000534796800000000000000009999123100000010000000000000BRPRNRACNOR4108
012024040102PSSA3       010PORTO SEGUROON  EDJ NM   R$  000000000308900000000031100000000003073000000000309000000000030860000000003083000000000308904688000000000001382700000000004273378600000000000000009999123100000010000000000000BRPSSAACNOR7154
012024040102PTBL3       010PORTOBELLO  ON      NM   R$  000000000069900000000007140000000000681000000000069600000000006810000000000681000000000068701651000000000000530500000000000369555500000000000000009999123100000010000000000000BRPTBLACNOR8132
012024040102PTNT3       010PETTENATI   ON           R$  000000000123300000000012330000000001221000000000122500000000012210000000001194000000000125000005000000000000000500000000000000612800000000000000009999123100000010000000000000BRPTNTACNOR6042
012024040102PTNT4       010PETTENATI   PN           R$  000000000077700000000007830000000000756000000000076800000000007560000000000756000000000077400016000000000000005200000000000003994400000000000000009999123100000010000000000000BRPTNTACNPR3047
012024040102HYPE3       010HYPERA      ON  EJ  NM   R$  000000000330600000000033060000000003230000000000323700000000032310000000003227000000000323106151000000000002176400000000007046883300000000000000009999123100000010000000000000BRHYPEACNOR0139
012024040102KLBN11      010KLABIN S/A  UNT     N2   R$  000000000252600000000025310000000002484000000000250800000000025070000000002506000000000251712915000000000003133300000000007858829100000000000000009999123100000010000000000000BRKLBNCDAM18140
012024040102KLBN3       010KLABIN S/A  ON      N2   R$  000000000050500000000005080000000000497000000000050200000000005050000000000502000000000050500845000000000000321300000000000161562700000000000000009999123100000010000000000000BRKLBNACNOR2168
012024040105BZLI11      010FII BRREALTYCI           R$  000000000197800000000019780000000001978000000000197800000000019780000000001701000000000197900001000000000000000002000000000000003956000000000000009999123100000010000000000000BRBZLICTF003100
012024040107TXRX4       010TEX RENAUX  PN           R$  000000000025900000000002590000000000259000000000025700000000002590000000000254000000000025900005000000000000000700000000000000180300000000000000009999123100000010000000000000BRTXRXACNPR0142
012024040107NUTR3       010NUTRIPLANT  ON      MA   R$  000000000054100000000005410000000000526000000000053100000000005390000000000530000000000053700033000000000000010000000000000005319600000000000000009999123100000010000000000000BRNUTRACNOR0104
012024040108ETER3       010ETERNIT     ON      NM   R$  000000000071700000000007280000000000706000000000071700000000007140000000000714000000000071800865000000000000140400000000000100759500000000000000009999123100000010000000000000BRETERACNOR3243
012024040108LIGT3       010LIGHT S/A   ON      NM   R$  000000000051600000000005220000000000510000000000051500000000005100000000000510000000000051701837000000000000473700000000000244325200000000000000009999123100000010000000000000BRLIGTACNOR2124
012024040108PMAM3       010PARANAPANEMAON      NM   R$  000000000033800000000003400000000000329000000000033400000000003320000000000332000000000033400127000000000000038800000000000012994500000000000000009999123100000010000000000000BRPMAMACNOR3038
012024040108RSID3       010ROSSI RESID ON      NM   R$  000000000039500000000004030000000000385000000000039200000000003850000000000385000000000039100195000000000000028700000000000011275500000000000000009999123100000010000000000000BRRSIDACNOR8120
012024040108OIBR3       010OI          ON      N1   R$  000000000006500000000000670000000000064000000000006500000000000660000000000065000000000006601410000000000006604700000000000432730600000000000000009999123100000010000000000000BROIBRACNOR1110
012024040108OIBR4       010OI          PN      N1   R$  000000000018800000000001890000000000185000000000018600000000001850000000000185000000000018600072000000000000029300000000000005451800000000000000009999123100000010000000000000BROIBRACNPR8109
012024040108OSXB3       010OSX BRASIL  ON      NM   R$  000000000041800000000004180000000000405000000000040900000000004130000000000409000000000041300031000000000000009200000000000003767700000000000000009999123100000010000000000000BROSXBACNOR8109
012024040108HOOT4       010HOTEIS OTHONPN           R$  000000000027800000000002810000000000278000000000027900000000002780000000000278000000000028000023000000000000005600000000000001563000000000000000009999123100000010000000000000BRHOOTACNPR9015
012024040108FRTA3       010POMIFRUTAS  ON      NM   R$  000000000013300000000001360000000000130000000000013100000000001310000000000132000000000013600009000000000000002600000000000000343000000000000000009999123100000010000000000000BRFRTAACNOR8103
012024040108RNEW11      010RENOVA      UNT     N2   R$  000000000035400000000003700000000000342000000000035300000000003550000000000353000000000036500084000000000000018000000000000006362900000000000000009999123100000010000000000000BRRNEWCDAM15110
012024040108RNEW3       010RENOVA      ON      N2   R$  000000000011700000000001200000000000115000000000011600000000001180000000000115000000000011800138000000000000111500000000000013045400000000000000009999123100000010000000000000BRRNEWACNOR8110
012024040108RNEW4       010RENOVA      PN      N2   R$  000000000011700000000001220000000000115000000000011700000000001160000000000115000000000011600279000000000000225600000000000026560000000000000000009999123100000010000000000000BRRNEWACNPR5110
012024040108AMER3       010AMERICANAS  ON      NM   R$  000000000006600000000000670000000000059000000000006100000000000610000000000061000000000006203889000000000030922000000000001916762600000000000000009999123100000010000000000000BRAMERACNOR6101
012024040108RPMG3       010PET MANGUINHON           R$  000000000020800000000002120000000000207000000000020800000000002070000000000205000000000021200011000000000000004200000000000000873600000000000000009999123100000010000000000000BRRPMGACNOR9194
012024040108ATMP3       010ATMASA      ON           R$  000000000021600000000002160000000000201000000000020600000000002010000000000201000000000020800047000000000000016500000000000003403100000000000000009999123100000010000000000000BRATMPACNOR8100
012024040108JFEN3       010JOAO FORTES ON           R$  000000000024500000000002450000000000210000000000022300000000002100000000000210000000000021800209000000000000110300000000000024602800000000000000009999123100000010000000000000BRJFENACNOR0058
012024040108NEXP3       010NEXPE       ON      NM   R$  000000000045900000000004810000000000459000000000046400000000004600000000000459000000000048000003000000000000000400000000000000185900000000000000009999123100000010000000000000BRNEXPACNOR0101
012024040110ABCB10      010ABC BRASIL  PN  REC N2   R$  000000000251600000000025620000000002515000000000252500000000025400000000002447000000000256200012000000000000001200000000000003030700000000000000009999123100000010000000000000BRABCBR19PR1144
012024040110BGIP2       010BANESE      DIR PRE      R$  000000000000400000000000040000000000004000000000000400000000000040000000000004000000000001000001000000000000000200000000000000000800000000000000009999123100000010000000000000BRBGIPD07PR0207
012024040110GFSA1       010GAFISA      DIR ORD NM   R$  000000000000400000000000040000000000003000000000000300000000000030000000000003000000000000400079000000000000510900000000000001665100000000000000009999123100000010000000000000BRGFSAD10OR9123
012024040110DMFN1       010DMFINANCEIRADIR ORD      R$  000000000002100000000000480000000000018000000000002600000000000180000000000017000000000002400057000000000000014900000000000000397900000000000000009999123100000010000000000000BRDMFND01OR1101
012024040112EURO11      010FII EUROPAR CI  ER       R$  000000002511000000000258990000000024901000000002508000000000252000000000024901000000002519700035000000000000000366000000000009179488000000000000009999123100000010000000000000BREUROCTF011357
012024040112EVBI11      010FII VBI CON CI  ER       R$  000000000985000000000098890000000009401000000000977500000000098680000000009703000000000988900024000000000000000793000000000007751909000000000000009999123100000010000000000000BREVBICTF007147
012024040112MALL11      010FII MALLS BPCI  ER       R$  000000001185700000000118740000000011500000000001175100000000117800000000011778000000001178005499000000000000027566000000000323942599000000000000009999123100000010000000000000BRMALLCTF007179
012024040112MANA11      010FII MANATI  CI  ER       R$  000000000094300000000009430000000000932000000000093600000000009370000000000933000000000093703723000000000000070332000000000065856960000000000000009999123100000010000000000000BRMANACTF006122
012024040112MAXR11      010FII MAX RET CI           R$  000000000839000000000084330000000008217000000000837200000000084330000000008303000000000843300060000000000000000792000000000006630886000000000000009999123100000010000000000000BRMAXRCTF009265
012024040112MCCI11      010FII MAUA    CI           R$  000000000933200000000093850000000009024000000000918300000000091140000000009114000000000911520003000000000000223823000000002055587166000000000000009999123100000010000000000000BRMCCICTF008159
012024040112MCEM11      010FII MCEM    CI           R$  000000001089600000000108960000000010896000000001089600000000108960000000010701000000001100000001000000000000000019000000000000207024000000000000009999123100000010000000000000BRMCEMCTF006100
012024040112MCHY11      010FII MAUA HY CI           R$  000000000098500000000010140000000000969000000000100300000000009830000000000982000000000098530400000000000002451471000000002460972754000000000000009999123100000010000000000000BRMCHYCTF004135
012024040112MFAI11      010FII MERITOFACI  ER       R$  000000000645800000000065190000000006439000000000644900000000064400000000006440000000000653800015000000000000000108000000000000696510000000000000009999123100000010000000000000BRMFAICTF005149
012024040112MFCR11      010FII MERITO RCI  ER       R$  000000000275100000000028480000000002750000000000280100000000028400000000002800000000000284500056000000000000000620000000000001736791000000000000009999123100000010000000000000BRMFCRCTF002122
012024040112MFII11      010FII MERITO ICI  ER       R$  000000001044900000000104490000000010371000000001040300000000104100000000010410000000001041100421000000000000006214000000000064644813000000000000009999123100000010000000000000BRMFIICTF008233
012024040112MGHT11      010FII MOGNO HTCI           R$  000000000440000000000045000000000004399000000000443700000000044540000000004415000000000445400723000000000000003085000000000013690121000000000000009999123100000010000000000000BRMGHTCTF005151
012024040112ABCP11      010FII ABC IMOBCI  ER       R$  000000000777400000000077740000000007677000000000771500000000076910000000007690000000000769100133000000000000000744000000000005740452000000000000009999123100000010000000000000BRABCPCTF000337
012024040112BARI11      010FII BARIGUI CI  ER       R$  000000000844900000000084490000000008358000000000839600000000083910000000008390000000000839101602000000000000010333000000000086761602000000000000009999123100000010000000000000BRBARICTF003160
012024040112BICR11      010FII INTER   CI  ER       R$  000000000560200000000056040000000004999000000000555400000000050000000000004999000000000500000011000000000000000038000000000000211073000000000000009999123100000010000000000000BRBICRCTF009150
012024040112BIME11      010FII BRIO ME CI           R$  000000000073200000000007350000000000730000000000073200000000007340000000000733000000000073400259000000000000010308000000000007551333000000000000009999123100000010000000000000BRBIMECTF006129
012024040112BLCA11      010FII BLUE AAACI           R$  000000001132600000000113260000000011299000000001130100000000113000000000010923000000001130000008000000000000000038000000000000429474000000000000009999123100000010000000000000BRBLCACTF009128
012024040112BLMG11      010FII BLUE LOGCI           R$  000000000391700000000039450000000003894000000000392500000000039300000000003924000000000393001258000000000000017505000000000068714702000000000000009999123100000010000000000000BRBLMGCTF005144
012024040112BLMO11      010FII BLUEMAC CI  ER       R$  000000000871800000000087180000000008700000000000870400000000087000000000008200000000000870000005000000000000000012000000000000104454000000000000009999123100000010000000000000BRBLMOCTF009129
012024040112BROF11      010FII BROF    CI           R$  000000000580000000000058080000000005700000000000575200000000057770000000005777000000000579800194000000000000006136000000000035299888000000000000009999123100000010000000000000BRBROFCTF000111
012024040112BTAL11      010FII BTG AGROCI  ER       R$  000000000700900000000070300000000006953000000000699400000000069990000000006999000000000702402959000000000000012148000000000084973663000000000000009999123100000010000000000000BRBTALCTF003137
012024040112BTCI11      010FII BTG CRI CI           R$  000000000102300000000010250000000001011000000000101800000000010180000000001015000000000101809502000000000000424843000000000432619077000000000000009999123100000010000000000000BRBTCICTF005117
012024040112BTHI11      010BTG HOTEL FICI           R$  000000000448000000000044890000000004383000000000447300000000044220000000004396000000000448500027000000000000000140000000000000626315000000000000009999123100000010000000000000BRBTHICTF004106
