00COTAHIST.2024BOVESPA 20240122                                                                                                                                                                                                                      
012024012202JHSF3       010JHSF PART   ON      NM   R$  000000000049900000000005010000000000480000000000048700000000004860000000000485000000000048605603000000000002431700000000001185985900000000000000009999123100000010000000000000BRJHSFACNOR2131
012024012202JSLG3       010JSL         ON      NM   R$  000000000116100000000011770000000001096000000000112900000000011130000000001113000000000112802520000000000000527600000000000595968500000000000000009999123100000010000000000000BRJSLGACNOR2121
012024012202KEPL3       010KEPLER WEBERON      NM   R$  000000000100000000000010070000000000984000000000099300000000009840000000000983000000000098403037000000000000810100000000000805102800000000000000009999123100000010000000000000BRKEPLACNOR1061
012024012202KLBN11      010KLABIN S/A  UNT     N2   R$  000000000219200000000021920000000002145000000000215700000000021490000000002148000000000214908950000000000002406200000000005191738300000000000000009999123100000010000000000000BRKLBNCDAM18139
012024012202KLBN3       010KLABIN S/A  ON      N2   R$  000000000043400000000004360000000000427000000000043100000000004290000000000428000000000042901018000000000000377400000000000162892800000000000000009999123100000010000000000000BRKLBNACNOR2167
012024012202KLBN4       010KLABIN S/A  PN      N2   R$  000000000043600000000004380000000000430000000000043300000000004320000000000431000000000043203181000000000001741300000000000754658700000000000000009999123100000010000000000000BRKLBNACNPR9167
012024012202MTRE3       010MITRE REALTYON      NM   R$  000000000051200000000005290000000000508000000000051700000000005180000000000516000000000051802245000000000000975800000000000504691300000000000000009999123100000010000000000000BRMTREACNOR6109
012024012202MTSA4       010METISA      PN           R$  000000000501200000000050940000000005011000000000506000000000050800000000005001000000000508400009000000000000001100000000000005567000000000000000009999123100000010000000000000BRMTSAACNPR9071
012024012202MULT3       010MULTIPLAN   ON      N2   R$  000000000277500000000027750000000002697000000000272300000000027200000000002715000000000272019262000000000003582000000000009755878600000000000000009999123100000010000000000000BRMULTACNOR5137
012024012202MWET4       010WETZEL S/A  PN           R$  000000000073800000000007410000000000738000000000073900000000007410000000000743000000000077700002000000000000000500000000000000369600000000000000009999123100000010000000000000BRMWETACNPR3118
012024012202MYPK3       010IOCHP-MAXIONON      NM   R$  000000000120900000000012170000000001192000000000120100000000011970000000001195000000000120002987000000000000563400000000000677195500000000000000009999123100000010000000000000BRMYPKACNOR7153
012024012202NEOE3       010NEOENERGIA  ON      NM   R$  000000000207000000000020770000000002024000000000204600000000020490000000002039000000000205003141000000000000746000000000001526511400000000000000009999123100000010000000000000BRNEOEACNOR3121
012024012202PFRM3       010PROFARMA    ON      NM   R$  000000000047300000000004750000000000451000000000046500000000004700000000000468000000000047000750000000000000362900000000000168748500000000000000009999123100000010000000000000BRPFRMACNOR1116
012024012202PGMN3       010PAGUE MENOS ON      NM   R$  000000000034600000000003540000000000343000000000034700000000003470000000000344000000000034702303000000000001435900000000000498903600000000000000009999123100000010000000000000BRPGMNACNOR8102
012024012202AALR3       010ALLIAR      ON      NM   R$  000000000085400000000008540000000000835000000000084200000000008350000000000835000000000084000243000000000000042900000000000036135700000000000000009999123100000010000000000000BRAALRACNOR6102
012024012202ABCB4       010ABC BRASIL  PN      N2   R$  000000000236400000000023700000000002294000000000232200000000023060000000002306000000000232402290000000000000422300000000000980798200000000000000009999123100000010000000000000BRABCBACNPR4145
012024012202ABEV3       010AMBEV S/A   ON           R$  000000000133800000000013450000000001323000000000133200000000013360000000001335000000000133716670000000000016245600000000021649686600000000000000009999123100000010000000000000BRABEVACNOR1127
012024012202CMIN3       010CSNMINERACAOON      N2   R$  000000000066300000000006650000000000646000000000065200000000006490000000000649000000000065011334000000000007356700000000004802176100000000000000009999123100000010000000000000BRCMINACNOR2110
012024012202COCE5       010COELCE      PNA          R$  000000000413700000000042620000000004098000000000418200000000041750000000004175000000000420000123000000000000020400000000000085319000000000000000009999123100000010000000000000BRCOCEACNPA3146
012024012202COGN3       010COGNA ON    ON      NM   R$  000000000032000000000003240000000000303000000000031100000000003060000000000306000000000030711641000000000021234200000000006604430200000000000000009999123100000010000000000000BRCOGNACNOR2104
012024012202ELMD3       010ELETROMIDIA ON      NM   R$  000000000175000000000017500000000001679000000000170300000000017090000000001694000000000170900181000000000000033700000000000057395000000000000000009999123100000010000000000000BRELMDACNOR3100
012024012202EMAE4       010EMAE        PN           R$  000000000565000000000056500000000005650000000000565000000000056500000000005610000000000574800001000000000000000300000000000001695000000000000000009999123100000010000000000000BREMAEACNPR1124
012024012202HETA4       010HERCULES    PN           R$  000000000064000000000006400000000000640000000000064000000000006400000000000626000000000068600001000000000000000100000000000000064000000000000000009999123100000010000000000000BRHETAACNPR9136
012024012202PINE4       010PINE        PN      N2   R$  000000000043500000000004350000000000403000000000041700000000004130000000000412000000000041301618000000000001190400000000000496732200000000000000009999123100000010000000000000BRPINEACNPR8148
012024012202PLAS3       010PLASCAR PARTON           R$  000000000073100000000007310000000000731000000000073100000000007310000000000690000000000073000001000000000000000100000000000000073100000000000000009999123100000010000000000000BRPLASACNOR2106
012024012202PLPL3       010PLANOEPLANO ON  ED  NM   R$  000000000120500000000012120000000001133000000000116900000000011570000000001156000000000116702331000000000000637800000000000746200000000000000000009999123100000010000000000000BRPLPLACNOR5104
012024012202EALT3       010ACO ALTONA  ON           R$  000000000098900000000012000000000000989000000000104600000000009920000000000992000000000110000019000000000000004400000000000004606200000000000000009999123100000010000000000000BREALTACNOR4137
012024012202EALT4       010ACO ALTONA  PN           R$  000000000102800000000010480000000000985000000000101200000000009900000000000990000000000100800045000000000000013000000000000013165000000000000000009999123100000010000000000000BREALTACNPR1137
012024012202ECOR3       010ECORODOVIAS ON      NM   R$  000000000091600000000009190000000000878000000000089300000000008910000000000887000000000089207859000000000002760100000000002466109300000000000000009999123100000010000000000000BRECORACNOR8119
012024012202EGIE3       010ENGIE BRASILON      NM   R$  000000000409000000000041110000000004049000000000407200000000040490000000004048000000000406307238000000000001790700000000007291752000000000000000009999123100000010000000000000BREGIEACNOR9125
012024012202GOLL4       010GOL         PN      N2   R$  000000000072000000000007240000000000673000000000069700000000006820000000000680000000000068209327000000000010450600000000007286502400000000000000009999123100000010000000000000BRGOLLACNPR4128
012024012202GRND3       010GRENDENE    ON      NM   R$  000000000068400000000006890000000000668000000000067500000000006720000000000672000000000067602702000000000000751100000000000507514000000000000000009999123100000010000000000000BRGRNDACNOR3172
012024012202GUAR3       010GUARARAPES  ON      NM   R$  000000000055900000000005600000000000526000000000053800000000005350000000000532000000000053505754000000000001634500000000000880978700000000000000009999123100000010000000000000BRGUARACNOR4172
012024012202JALL3       010JALLESMACHADON      NM   R$  000000000075400000000007600000000000737000000000074400000000007430000000000742000000000074302938000000000000764300000000000568828300000000000000009999123100000010000000000000BRJALLACNOR0105
012024012202JBSS3       010JBS         ON      NM   R$  000000000237500000000023950000000002353000000000237400000000023700000000002370000000000237111918000000000004399700000000010447625900000000000000009999123100000010000000000000BRJBSSACNOR8121
012024012202MRVE3       010MRV         ON      NM   R$  000000000080200000000008050000000000773000000000078700000000007840000000000783000000000078518696000000000019244000000000015154478200000000000000009999123100000010000000000000BRMRVEACNOR2126
012024012202PETZ3       010PETZ        ON      NM   R$  000000000035600000000003590000000000341000000000034800000000003460000000000345000000000034606921000000000014772000000000005146966400000000000000009999123100000010000000000000BRPETZACNOR2109
012024012202SAPR11      010SANEPAR     UNT     N2   R$  000000000284500000000028590000000002791000000000282200000000028230000000002818000000000282303872000000000000798400000000002253307900000000000000009999123100000010000000000000BRSAPRCDAM13117
012024012202SAPR3       010SANEPAR     ON      N2   R$  000000000054000000000005400000000000526000000000053200000000005360000000000530000000000053600995000000000000404000000000000215309000000000000000009999123100000010000000000000BRSAPRACNOR9158
012024012202SAPR4       010SANEPAR     PN      N2   R$  000000000057800000000005790000000000563000000000057000000000005710000000000570000000000057104091000000000002279400000000001300861400000000000000009999123100000010000000000000BRSAPRACNPR6158
012024012202SBFG3       010GRUPO SBF   ON      NM   R$  000000000117900000000012070000000001157000000000117700000000011710000000001170000000000117607632000000000001809400000000002130702600000000000000009999123100000010000000000000BRSBFGACNOR1102
012024012202SBSP3       010SABESP      ON      NM   R$  000000000760000000000076680000000007538000000000761000000000076170000000007603000000000762009583000000000003104600000000023628783300000000000000009999123100000010000000000000BRSBSPACNOR5160
012024012202SCAR3       010SAO CARLOS  ON      NM   R$  000000000265600000000026990000000002630000000000266400000000026990000000002599000000000270000047000000000000008500000000000022650000000000000000009999123100000010000000000000BRSCARACNOR7130
012024012202SEER3       010SER EDUCA   ON      NM   R$  000000000066600000000006700000000000616000000000063500000000006170000000000617000000000061802414000000000000794600000000000504623900000000000000009999123100000010000000000000BRSEERACNOR5119
012024012202SEQL3       010SEQUOIA LOG ON      NM   R$  000000000005300000000000540000000000049000000000005000000000000490000000000049000000000005005382000000000009632500000000000484778400000000000000009999123100000010000000000000BRSEQLACNOR2101
012024012202RSUL4       010RIOSULENSE  PN           R$  000000000798900000000079890000000007989000000000798900000000079890000000007905000000000798900001000000000000000200000000000001597800000000000000009999123100000010000000000000BRRSULACNPR3113
012024012202SANB11      010SANTANDER BRUNT EJ       R$  000000000297500000000030000000000002953000000000298200000000029910000000002990000000000299908418000000000002226400000000006639169300000000000000009999123100000010000000000000BRSANBCDAM13163
012024012202SANB3       010SANTANDER BRON  EJ       R$  000000000139500000000014050000000001381000000000139400000000013950000000001395000000000140600867000000000000135400000000000188754300000000000000009999123100000010000000000000BRSANBACNOR8170
012024012202SANB4       010SANTANDER BRPN  EJ       R$  000000000157500000000016000000000001572000000000158600000000015900000000001585000000000159001064000000000000213300000000000338396800000000000000009999123100000010000000000000BRSANBACNPR5170
012024012202VALE3       010VALE        ON      NM   R$  000000000675000000000067980000000006711000000000677200000000067800000000006779000000000678046044000000000023318900000000157918955000000000000000009999123100000010000000000000BRVALEACNOR0209
012024012202YDUQ3       010YDUQS PART  ON      NM   R$  000000000210200000000021450000000002068000000000209600000000020850000000002085000000000208615592000000000003417200000000007164924600000000000000009999123100000010000000000000BRYDUQACNOR3104
012024012202ZAMP3       010ZAMP S.A.   ON           R$  000000000058100000000005850000000000540000000000055300000000005410000000000540000000000054102798000000000000797600000000000441395500000000000000009999123100000010000000000000BRZAMPACNOR5100
012024012202ROMI3       010ROMI        ON      NM   R$  000000000128000000000012820000000001260000000000127200000000012750000000001273000000000127501399000000000000234900000000000298968700000000000000009999123100000010000000000000BRROMIACNOR8192
012024012202RPAD3       010ALFA HOLDINGON           R$  000000000079400000000007940000000000794000000000079400000000007940000000000794000000000081800003000000000000003400000000000002699600000000000000009999123100000010000000000000BRRPADACNOR1198
012024012202RPAD5       010ALFA HOLDINGPNA          R$  000000000082800000000008400000000000800000000000082900000000008000000000000782000000000082400009000000000000001500000000000001244200000000000000009999123100000010000000000000BRRPADACNPA4217
012024012202RPAD6       010ALFA HOLDINGPNB          R$  000000000074800000000007510000000000747000000000074800000000007470000000000746000000000077000007000000000000002300000000000001721500000000000000009999123100000010000000000000BRRPADACNPB2198
012024012202RRRP3       0103R PETROLEUMON      NM   R$  000000000294300000000029700000000002860000000000292000000000029150000000002915000000000291914356000000000004386800000000012810649600000000000000009999123100000010000000000000BRRRRPACNOR5102
012024012202TTEN3       0103TENTOS     ON      NM   R$  000000000114400000000011440000000001096000000000111300000000011070000000001105000000000110806176000000000001557500000000001734019000000000000000009999123100000010000000000000BRTTENACNOR0102
012024012202TUPY3       010TUPY        ON      NM   R$  000000000264300000000026550000000002581000000000261300000000026060000000002603000000000261002644000000000000504300000000001318019600000000000000009999123100000010000000000000BRTUPYACNOR1182
012024012202UCAS3       010UNICASA     ON      NM   R$  000000000026900000000002750000000000267000000000026800000000002670000000000267000000000027300067000000000000032400000000000008706000000000000000009999123100000010000000000000BRUCASACNOR1113
012024012202UGPA3       010ULTRAPAR    ON      NM   R$  000000000276500000000027800000000002735000000000276400000000027650000000002757000000000276509802000000000003560200000000009842129100000000000000009999123100000010000000000000BRUGPAACNOR8154
012024012202UNIP3       010UNIPAR      ON           R$  000000000673000000000067300000000006650000000000669500000000067010000000006695000000000670100066000000000000009200000000000061595300000000000000009999123100000010000000000000BRUNIPACNOR7204
012024012202UNIP6       010UNIPAR      PNB          R$  000000000721100000000072350000000007111000000000716100000000071370000000007133000000000715501181000000000000161100000000001153777100000000000000009999123100000010000000000000BRUNIPACNPB8204
012024012202USIM3       010USIMINAS    ON      N1   R$  000000000080500000000008210000000000800000000000080900000000008100000000000804000000000081103535000000000001880900000000001522076300000000000000009999123100000010000000000000BRUSIMACNOR3166
012024012202USIM5       010USIMINAS    PNA     N1   R$  000000000084700000000008700000000000845000000000085900000000008600000000000858000000000086113547000000000010867600000000009345686900000000000000009999123100000010000000000000BRUSIMACNPA6168
012024012202WEST3       010WESTWING    ON      NM   R$  000000000012800000000001290000000000125000000000012500000000001250000000000125000000000012700071000000000000178400000000000022402900000000000000009999123100000010000000000000BRWESTACNOR3100
012024012202WHRL3       010WHIRLPOOL   ON           R$  000000000042000000000004200000000000420000000000042000000000004200000000000415000000000041800006000000000000001000000000000000420000000000000000009999123100000010000000000000BRWHRLACNOR5128
012024012202WHRL4       010WHIRLPOOL   PN           R$  000000000043500000000004420000000000433000000000043600000000004380000000000434000000000043800025000000000000003000000000000001309100000000000000009999123100000010000000000000BRWHRLACNPR2128
012024012202WIZC3       010WIZ CO      ON      NM   R$  000000000065200000000006630000000000645000000000065200000000006450000000000645000000000064701450000000000000292800000000000191155000000000000000009999123100000010000000000000BRWIZCACNOR5101
012024012202WLMM4       010WLM IND COM PN           R$  000000000256400000000025640000000002564000000000256400000000025640000000002564000000000266800001000000000000000100000000000000256400000000000000009999123100000010000000000000BRWLMMACNPR3116
012024012202RAPT3       010RANDON PART ON      N1   R$  000000000114200000000011450000000001093000000000111900000000011220000000001096000000000112200101000000000000037000000000000041410100000000000000009999123100000010000000000000BRRAPTACNOR7162
012024012202RAPT4       010RANDON PART PN      N1   R$  000000000117500000000011830000000001138000000000115100000000011460000000001145000000000114806175000000000002117600000000002439183300000000000000009999123100000010000000000000BRRAPTACNPR4162
012024012202RCSL3       010RECRUSUL    ON           R$  000000000032400000000003300000000000307000000000031700000000003170000000000316000000000031703308000000000003441900000000001092734300000000000000009999123100000010000000000000BRRCSLACNOR4133
012024012202RCSL4       010RECRUSUL    PN           R$  000000000007400000000000750000000000069000000000007100000000000690000000000069000000000007000929000000000000621400000000000044224400000000000000009999123100000010000000000000BRRCSLACNPR1133
012024012202RDNI3       010RNI         ON      NM   R$  000000000048500000000004850000000000473000000000048200000000004830000000000466000000000048300011000000000000005000000000000002410600000000000000009999123100000010000000000000BRRDNIACNOR9116
012024012202RDOR3       010REDE D OR   ON      NM   R$  000000000267800000000026870000000002614000000000264600000000026470000000002645000000000265108673000000000002058500000000005447748300000000000000009999123100000010000000000000BRRDORACNOR8111
012024012202RECV3       010PETRORECSA  ON      NM   R$  000000000234800000000024020000000002287000000000234200000000023500000000002333000000000235013565000000000003576800000000008377351400000000000000009999123100000010000000000000BRRECVACNOR3105
012024012202REDE3       010REDE ENERGIAON           R$  000000000065800000000006670000000000658000000000066300000000006650000000000662000000000066600018000000000000002300000000000001525800000000000000009999123100000010000000000000BRREDEACNOR7126
012024012202RENT3       010LOCALIZA    ON      NM   R$  000000000602100000000060610000000005843000000000591900000000058710000000005864000000000587217685000000000004311600000000025523237300000000000000009999123100000010000000000000BRRENTACNOR4194
012024012202TFCO4       010TRACK FIELD PN      N2   R$  000000000139000000000013970000000001369000000000138300000000013870000000001377000000000138700319000000000000057000000000000078845100000000000000009999123100000010000000000000BRTFCOACNPR8111
012024012202TGMA3       010TEGMA       ON      NM   R$  000000000265800000000026580000000002569000000000259700000000025900000000002575000000000259201065000000000000183600000000000476968400000000000000009999123100000010000000000000BRTGMAACNOR7143
012024012202TIMS3       010TIM         ON      NM   R$  000000000177100000000017720000000001737000000000175200000000017500000000001749000000000175306672000000000002864400000000005018724200000000000000009999123100000010000000000000BRTIMSACNOR5114
012024012202BAHI3       010BAHEMA      ON      MA   R$  000000000078400000000007880000000000772000000000078200000000007880000000000772000000000078700007000000000000003900000000000003052300000000000000009999123100000010000000000000BRBAHIACNOR1074
012024012202BAUH4       010EXCELSIOR   PN           R$  000000000799000000000079900000000007990000000000799000000000079900000000007300000000000799500001000000000000000100000000000000799000000000000000009999123100000010000000000000BRBAUHACNPR3117
012024012202BAZA3       010AMAZONIA    ON           R$  000000000916700000000092210000000009101000000000916000000000092000000000009064000000000920000010000000000000001100000000000010077000000000000000009999123100000010000000000000BRBAZAACNOR0178
012024012202BBAS3       010BRASIL      ON      NM   R$  000000000560700000000056130000000005536000000000556700000000055550000000005553000000000555620792000000000006545700000000036444248200000000000000009999123100000010000000000000BRBBASACNOR3319
012024012202BMKS3       010BIC MONARK  ON           R$  000000003648900000000364890000000034905000000003506400000000364500000000034930000000003643700007000000000000000030000000000001051920000000000000009999123100000010000000000000BRBMKSACNOR9165
012024012202CRIV4       010ALFA FINANC PN           R$  000000000055500000000005680000000000555000000000055700000000005600000000000555000000000056700003000000000000000700000000000000390300000000000000009999123100000010000000000000BRCRIVACNPR1211
012024012202CRPG5       010CRISTAL     PNA          R$  000000000365900000000036590000000003621000000000364600000000036210000000003601000000000365800002000000000000000300000000000001093900000000000000009999123100000010000000000000BRCRPGACNPA3118
012024012202ENJU3       010ENJOEI      ON      NM   R$  000000000017300000000001730000000000165000000000016700000000001700000000000167000000000017000439000000000000428600000000000071712100000000000000009999123100000010000000000000BRENJUACNOR9100
012024012202EPAR3       010EMBPAR S/A  ON           R$  000000000098200000000009940000000000981000000000098300000000009920000000000983000000000099200051000000000000020100000000000019773300000000000000009999123100000010000000000000BREPARACNOR9104
012024012202EQMA3B      010EQTLMARANHAOON      MB   R$  000000000294900000000029490000000002801000000000288500000000029000000000002851000000000294900008000000000000000800000000000002308000000000000000009999123100000010000000000000BREQMAACNOR8107
012024012202EQPA3       010EQTL PARA   ON  EJ       R$  000000000077500000000007750000000000751000000000076300000000007550000000000755000000000076400013000000000000002700000000000002062000000000000000009999123100000010000000000000BREQPAACNOR1110
012024012202EQPA5       010EQTL PARA   PNA EJ       R$  000000000077300000000007730000000000773000000000077300000000007730000000000775000000000110000001000000000000007400000000000005720200000000000000009999123100000010000000000000BREQPAACNPA4110
012024012202EQPA6       010EQTL PARA   PNB EJ       R$  000000000076100000000007610000000000761000000000076100000000007610000000000752000000000000000001000000000000001000000000000000761000000000000000009999123100000010000000000000BREQPAACNPB2110
012024012202EQPA7       010EQTL PARA   PNC EJ       R$  000000000075000000000007500000000000750000000000075000000000007500000000000751000000000100000001000000000000000100000000000000075000000000000000009999123100000010000000000000BREQPAACNPC0110
012024012202EQTL3       010EQUATORIAL  ON      NM   R$  000000000344000000000034510000000003374000000000340300000000033990000000003396000000000339912551000000000003834100000000013050133600000000000000009999123100000010000000000000BREQTLACNOR0129
012024012202ESPA3       010ESPACOLASER ON      NM   R$  000000000010900000000001100000000000102000000000010400000000001040000000000103000000000010401088000000000001931100000000000201639100000000000000009999123100000010000000000000BRESPAACNOR7103
012024012202EUCA3       010EUCATEX     ON      N1   R$  000000000160000000000016780000000001600000000000163900000000016780000000001650000000000167500014000000000000002400000000000003934900000000000000009999123100000010000000000000BREUCAACNOR1157
012024012202EUCA4       010EUCATEX     PN      N1   R$  000000000168900000000016890000000001622000000000164500000000016420000000001634000000000164300218000000000000054300000000000089362700000000000000009999123100000010000000000000BREUCAACNPR8044
012024012202EVEN3       010EVEN        ON      NM   R$  000000000075600000000007590000000000734000000000074300000000007440000000000740000000000074502156000000000000552500000000000410675800000000000000009999123100000010000000000000BREVENACNOR8118
012024012202EZTC3       010EZTEC       ON      NM   R$  000000000162500000000016590000000001571000000000160400000000016050000000001600000000000160808092000000000001592600000000002555105800000000000000009999123100000010000000000000BREZTCACNOR0123
012024012202INEP3       010INEPAR      ON           R$  000000000040700000000004070000000000397000000000039900000000003980000000000396000000000039800074000000000000026800000000000010718500000000000000009999123100000010000000000000BRINEPACNOR1143
012024012202INEP4       010INEPAR      PN           R$  000000000032000000000003220000000000311000000000031300000000003150000000000311000000000031500201000000000000027100000000000008507900000000000000009999123100000010000000000000BRINEPACNPR8143
012024012202INTB3       010INTELBRAS   ON      NM   R$  000000000217200000000021740000000002090000000000213700000000021590000000002159000000000216204837000000000001110100000000002372515900000000000000009999123100000010000000000000BRINTBACNOR9109
012024012202IRBR3       010IRBBRASIL REON      NM   R$  000000000386200000000038810000000003751000000000379900000000037830000000003781000000000378504881000000000001075100000000004084959100000000000000009999123100000010000000000000BRIRBRACNOR4110
012024012202LUPA3       010LUPATECH    ON      NM   R$  000000000021800000000002180000000000206000000000021000000000002060000000000206000000000020900591000000000000759300000000000159733100000000000000009999123100000010000000000000BRLUPAACNOR8112
012024012202LUXM4       010TREVISA     PN           R$  000000000150500000000015990000000001505000000000157900000000015980000000001449000000000159900009000000000000001200000000000001895100000000000000009999123100000010000000000000BRLUXMACNPR4051
012024012202LVTC3       010WDC NETWORKSON      NM   R$  000000000039900000000004030000000000388000000000039200000000003900000000000388000000000039000060000000000000014700000000000005765900000000000000009999123100000010000000000000BRLVTCACNOR4102
012024012202LWSA3       010LWSA        ON      NM   R$  000000000057700000000005790000000000542000000000055500000000005490000000000549000000000055010590000000000012140900000000006743493800000000000000009999123100000010000000000000BRLWSAACNOR8103
012024012202MAPT4       010CEMEPE      PN           R$  000000000200000000000020300000000002000000000000202200000000020300000000001301000000000203000004000000000000000400000000000000808900000000000000009999123100000010000000000000BRMAPTACNPR5106
012024012202MATD3       010MATER DEI   ON      NM   R$  000000000072700000000007270000000000690000000000070100000000006950000000000695000000000069901861000000000000417000000000000292431400000000000000009999123100000010000000000000BRMATDACNOR4103
012024012202MBLY3       010MOBLY       ON      NM   R$  000000000018900000000001910000000000178000000000018100000000001830000000000183000000000018402352000000000001087400000000000197856000000000000000009999123100000010000000000000BRMBLYACNOR5100
012024012202MDIA3       010M.DIASBRANCOON      NM   R$  000000000383400000000038860000000003792000000000383100000000038400000000003831000000000384102337000000000000366900000000001405947500000000000000009999123100000010000000000000BRMDIAACNOR7133
012024012202MDNE3       010MOURA DUBEUXON      NM   R$  000000000119000000000011900000000001142000000000116200000000011580000000001145000000000115800480000000000000168600000000000195945800000000000000009999123100000010000000000000BRMDNEACNOR9100
012024012202PETR3       010PETROBRAS   ON      N2   R$  000000000388100000000039250000000003860000000000390200000000039040000000003902000000000390512814000000000006141100000000023967164400000000000000009999123100000010000000000000BRPETRACNOR9202
012024012202PETR4       010PETROBRAS   PN      N2   R$  000000000375000000000037810000000003723000000000376200000000037700000000003769000000000377035025000000000022753700000000085609236700000000000000009999123100000010000000000000BRPETRACNPR6209
012024012202MEAL3       010IMC S/A     ON      NM   R$  000000000018400000000001840000000000175000000000017800000000001780000000000177000000000017800614000000000001054400000000000187997500000000000000009999123100000010000000000000BRMEALACNOR9105
012024012202MELK3       010MELNICK     ON      NM   R$  000000000043400000000004400000000000428000000000043000000000004280000000000427000000000043100290000000000000144400000000000062198500000000000000009999123100000010000000000000BRMELKACNOR8110
012024012202AERI3       010AERIS       ON      NM   R$  000000000008300000000000840000000000080000000000008100000000000810000000000081000000000008204785000000000004124300000000000337737100000000000000009999123100000010000000000000BRAERIACNOR4101
012024012202AESB3       010AES BRASIL  ON      NM   R$  000000000112200000000011380000000001114000000000112400000000011160000000001116000000000111705275000000000002538500000000002855266000000000000000009999123100000010000000000000BRAESBACNOR7105
012024012202AFLT3       010AFLUENTE T  ON           R$  000000000079900000000007990000000000760000000000078500000000007600000000000776000000000081700005000000000000000500000000000000392900000000000000009999123100000010000000000000BRAFLTACNOR1120
012024012202AGRO3       010BRASILAGRO  ON      NM   R$  000000000250000000000025080000000002468000000000248000000000024690000000002469000000000247101474000000000000217700000000000540097900000000000000009999123100000010000000000000BRAGROACNOR7114
012024012202AGXY3       010AGROGALAXY  ON      NM   R$  000000000028400000000003000000000000284000000000029400000000002940000000000292000000000029400348000000000000132200000000000038913600000000000000009999123100000010000000000000BRAGXYACNOR4102
012024012202ALLD3       010ALLIED      ON      NM   R$  000000000072100000000007320000000000703000000000071200000000007060000000000706000000000071000087000000000000023200000000000016520600000000000000009999123100000010000000000000BRALLDACNOR3105
012024012202ALOS3       010ALLOS       ON      NM   R$  000000000245500000000024690000000002416000000000243500000000024420000000002438000000000244212086000000000004175600000000010171132700000000000000009999123100000010000000000000BRALOSACNOR5100
012024012202BPAC11      010BTGP BANCO  UNT     N2   R$  000000000368300000000037000000000003610000000000365500000000036860000000003684000000000368620723000000000008042700000000029400596900000000000000009999123100000010000000000000BRBPACUNT006118
012024012202BPAC3       010BTGP BANCO  ON      N2   R$  000000000180700000000018390000000001785000000000180300000000018390000000001740000000000184000057000000000000006000000000000010819800000000000000009999123100000010000000000000BRBPACACNOR7133
012024012202KRSA3       010KORA SAUDE  ON      NM   R$  000000000010900000000001110000000000102000000000010400000000001030000000000102000000000010301317000000000000464300000000000048718100000000000000009999123100000010000000000000BRKRSAACNOR0100
012024012202BPAC5       010BTGP BANCO  PNA     N2   R$  000000000092100000000009350000000000911000000000092100000000009170000000000916000000000092500072000000000000012300000000000011335700000000000000009999123100000010000000000000BRBPACACNPA0133
012024012202EMBR3       010EMBRAER     ON      NM   R$  000000000214200000000021780000000002128000000000216100000000021750000000002174000000000217710827000000000004989100000000010782495300000000000000009999123100000010000000000000BREMBRACNOR4191
012024012202ENAT3       010ENAUTA PART ON      NM   R$  000000000192900000000019430000000001890000000000191900000000019430000000001943000000000194407628000000000002757800000000005292647400000000000000009999123100000010000000000000BRENATACNOR0104
012024012202ENEV3       010ENEVA       ON      NM   R$  000000000127500000000012810000000001253000000000126800000000012720000000001272000000000127309666000000000004697800000000005959927600000000000000009999123100000010000000000000BRENEVACNOR8105
012024012202ENGI11      010ENERGISA    UNT     N2   R$  000000000495100000000049930000000004916000000000495400000000049570000000004957000000000495806684000000000003285300000000016277377400000000000000009999123100000010000000000000BRENGICDAM16135
012024012202ENGI3       010ENERGISA    ON      N2   R$  000000000170700000000017090000000001675000000000169100000000016890000000001690000000000169900035000000000000004900000000000008289600000000000000009999123100000010000000000000BRENGIACNOR0145
012024012202ENGI4       010ENERGISA    PN      N2   R$  000000000081200000000008700000000000811000000000082600000000008150000000000812000000000082400040000000000000009000000000000007435000000000000000009999123100000010000000000000BRENGIACNPR7141
012024012202PATI3       010PANATLANTICAON           R$  000000000295500000000030000000000002940000000000297300000000029400000000002810000000000300000004000000000000000400000000000001189400000000000000009999123100000010000000000000BRPATIACNOR6064
012024012202PCAR3       010P.ACUCAR-CBDON      NM   R$  000000000044100000000004470000000000430000000000043600000000004300000000000429000000000043005486000000000003892600000000001700412300000000000000009999123100000010000000000000BRPCARACNOR3167
012024012202PDGR3       010PDG REALT   ON      NM   R$  000000000004100000000000420000000000040000000000004000000000000400000000000040000000000004100434000000000001796400000000000072566300000000000000009999123100000010000000000000BRPDGRACNOR8118
012024012202PDTC3       010PADTEC      ON      NM   R$  000000000030200000000003050000000000293000000000029900000000002930000000000293000000000030400129000000000000048900000000000014650900000000000000009999123100000010000000000000BRPDTCACNOR3100
012024012202BMOB3       010BEMOBI TECH ON      NM   R$  000000000121200000000012350000000001201000000000121800000000012320000000001216000000000123201771000000000000296000000000000360583400000000000000009999123100000010000000000000BRBMOBACNOR7103
012024012202BNBR3       010NORD BRASIL ON           R$  000000001200000000000120000000000011950000000001197500000000119500000000011700000000001200000002000000000000000400000000000004790000000000000000009999123100000010000000000000BRBNBRACNOR8206
012024012202BOBR4       010BOMBRIL     PN           R$  000000000022800000000002330000000000225000000000022900000000002260000000000222000000000022600026000000000000017400000000000003987300000000000000009999123100000010000000000000BRBOBRACNPR3128
012024012202CBAV3       010CBA         ON      NM   R$  000000000041900000000004190000000000391000000000040000000000003920000000000392000000000039307566000000000005556300000000002223445200000000000000009999123100000010000000000000BRCBAVACNOR5104
012024012202CBEE3       010AMPLA ENERG ON           R$  000000000130000000000013000000000001300000000000130000000000013000000000000000000000000148700001000000000000000200000000000000260000000000000000009999123100000010000000000000BRCBEEACNOR3159
012024012202CCRO3       010CCR SA      ON      NM   R$  000000000135000000000013550000000001328000000000134100000000013400000000001338000000000134108070000000000003547600000000004760182500000000000000009999123100000010000000000000BRCCROACNOR2144
012024012202CEAB3       010CEA MODAS   ON      NM   R$  000000000072400000000007430000000000708000000000072400000000007160000000000716000000000071904579000000000002392700000000001733618400000000000000009999123100000010000000000000BRCEABACNOR1101
012024012202CEBR3       010CEB         ON           R$  000000000177600000000018020000000001741000000000175500000000017410000000001741000000000176000031000000000000012400000000000021763200000000000000009999123100000010000000000000BRCEBRACNOR5124
012024012202CEBR5       010CEB         PNA          R$  000000000173800000000017400000000001704000000000170900000000017340000000001690000000000173600012000000000000005500000000000009401400000000000000009999123100000010000000000000BRCEBRACNPA8123
012024012202CEBR6       010CEB         PNB          R$  000000000199900000000020500000000001996000000000202200000000020500000000001998000000000205000030000000000000004000000000000008089700000000000000009999123100000010000000000000BRCEBRACNPB6123
012024012202CEDO4       010CEDRO       PN      N1   R$  000000000295300000000029530000000002808000000000287900000000028740000000002808000000000287500008000000000000001600000000000004606500000000000000009999123100000010000000000000BRCEDOACNPR5128
012024012202CEEB5       010COELBA      PNA          R$  000000000381000000000038100000000003502000000000360600000000036110000000003621000000000433300008000000000000001600000000000005770500000000000000009999123100000010000000000000BRCEEBACNPA6190
012024012202CEED3       010CEEE-D      ON           R$  000000000229000000000022900000000002290000000000229000000000022900000000002022000000000271000001000000000000000100000000000000229000000000000000009999123100000010000000000000BRCEEDACNOR9103
012024012202CAMB3       010CAMBUCI     ON           R$  000000000110900000000011090000000001089000000000109600000000010890000000001086000000000109600074000000000000020000000000000021923300000000000000009999123100000010000000000000BRCAMBACNOR4127
012024012202CAML3       010CAMIL       ON      NM   R$  000000000086000000000008620000000000837000000000084600000000008490000000000848000000000085003804000000000000890800000000000753854400000000000000009999123100000010000000000000BRCAMLACNOR3126
012024012202CASH3       010MELIUZ      ON      NM   R$  000000000074500000000007490000000000726000000000073700000000007440000000000735000000000074402712000000000002023700000000001491579600000000000000009999123100000010000000000000BRCASHACNOR8105
012024012202BMEB4       010MERCANTIL   PN      N1   R$  000000000192000000000019240000000001830000000000188500000000019200000000001905000000000192000067000000000000013400000000000025272300000000000000009999123100000010000000000000BRBMEBACNPR5210
012024012202BMGB4       010BANCO BMG   PN      N1   R$  000000000033300000000003490000000000332000000000033900000000003340000000000333000000000033402571000000000001259000000000000427571200000000000000009999123100000010000000000000BRBMGBACNPR0108
012024012202BRSR3       010BANRISUL    ON      N1   R$  000000000140900000000014090000000001375000000000138400000000013830000000001379000000000140100070000000000000021800000000000030186200000000000000009999123100000010000000000000BRBRSRACNOR3185
012024012202BRSR6       010BANRISUL    PNB     N1   R$  000000000139300000000013930000000001344000000000135800000000013530000000001349000000000135404693000000000001220400000000001657402100000000000000009999123100000010000000000000BRBRSRACNPB4188
012024012202BSLI4       010BRB BANCO   PN           R$  000000000117300000000011800000000001170000000000117400000000011800000000001162000000000119800006000000000000000600000000000000704800000000000000009999123100000010000000000000BRBSLIACNPR2192
012024012202BLAU3       010BLAU        ON      NM   R$  000000000132200000000013450000000001253000000000128400000000012730000000001266000000000127305142000000000000916300000000001176936200000000000000009999123100000010000000000000BRBLAUACNOR8111
012024012202NINJ3       010GETNINJAS   ON  ATZ NM   R$  000000000049200000000004970000000000490000000000049200000000004970000000000491000000000049600059000000000000026600000000000013100900000000000000009999123100000010000000000000BRNINJACNOR5101
012024012202NORD3       010NORDON MET  ON           R$  000000000181100000000018110000000001540000000000165500000000015980000000001511000000000159900060000000000000006400000000000010597300000000000000009999123100000010000000000000BRNORDACNOR7135
012024012202NTCO3       010GRUPO NATURAON      NM   R$  000000000173200000000017730000000001686000000000172300000000016980000000001696000000000169919255000000000009762200000000016828599500000000000000009999123100000010000000000000BRNTCOACNOR5104
012024012202ODPV3       010ODONTOPREV  ON      NM   R$  000000000120600000000012060000000001162000000000117300000000011630000000001162000000000117004505000000000001375500000000001614349100000000000000009999123100000010000000000000BRODPVACNOR4198
012024012202BBDC3       010BRADESCO    ON      N1   R$  000000000138700000000013980000000001371000000000138200000000013780000000001378000000000138308779000000000004464500000000006172748600000000000000009999123100000010000000000000BRBBDCACNOR1765
012024012202BBDC4       010BRADESCO    PN      N1   R$  000000000156500000000015770000000001532000000000154900000000015460000000001545000000000154738998000000000030906700000000047876056000000000000000009999123100000010000000000000BRBBDCACNPR8765
012024012202CLSA3       010CLEARSALE   ON      NM   R$  000000000032000000000003280000000000307000000000031500000000003090000000000309000000000031201356000000000001846600000000000582567400000000000000009999123100000010000000000000BRCLSAACNOR0100
012024012202CLSC4       010CELESC      PN      N2   R$  000000000669400000000068000000000006650000000000670800000000066500000000006610000000000675300044000000000000007500000000000050312900000000000000009999123100000010000000000000BRCLSCACNPR3128
012024012202CMIG3       010CEMIG       ON      N1   R$  000000000152000000000015200000000001494000000000150400000000015090000000001508000000000151001800000000000000448600000000000674803300000000000000009999123100000010000000000000BRCMIGACNOR6239
012024012202CMIG4       010CEMIG       PN      N1   R$  000000000115500000000011650000000001137000000000114800000000011430000000001142000000000114312850000000000006114100000000007020796800000000000000009999123100000010000000000000BRCMIGACNPR3240
012024012202EKTR4       010ELEKTRO     PN           R$  000000000388400000000038840000000003884000000000388400000000038840000000003810000000000388000001000000000000000100000000000000388400000000000000009999123100000010000000000000BREKTRACNPR7159
012024012202ELET3       010ELETROBRAS  ON      N1   R$  000000000420000000000042060000000004046000000000409500000000040780000000004075000000000407826764000000000007652200000000031336313400000000000000009999123100000010000000000000BRELETACNOR6159
012024012202ELET6       010ELETROBRAS  PNB     N1   R$  000000000467000000000047020000000004553000000000459600000000045950000000004587000000000459507190000000000001671700000000007683635100000000000000009999123100000010000000000000BRELETACNPB7076
012024012202HAGA3       010HAGA S/A    ON           R$  000000000026000000000002600000000000246000000000025300000000002550000000000248000000000025500004000000000000000500000000000000126900000000000000009999123100000010000000000000BRHAGAACNOR7103
012024012202HAGA4       010HAGA S/A    PN           R$  000000000011100000000001110000000000108000000000010900000000001090000000000108000000000010900013000000000000001900000000000000207100000000000000009999123100000010000000000000BRHAGAACNPR4103
012024012202HAPV3       010HAPVIDA     ON      NM   R$  000000000040200000000004040000000000377000000000038500000000003790000000000379000000000038038325000000000137894700000000053184412700000000000000009999123100000010000000000000BRHAPVACNOR4113
012024012202HBOR3       010HELBOR      ON      NM   R$  000000000027700000000002790000000000266000000000027100000000002680000000000268000000000026900587000000000000392900000000000106700200000000000000009999123100000010000000000000BRHBORACNOR3117
012024012202HBRE3       010HBR REALTY  ON      NM   R$  000000000052400000000005270000000000495000000000050400000000004950000000000495000000000049601439000000000000694400000000000350368100000000000000009999123100000010000000000000BRHBREACNOR4100
012024012202HBSA3       010HIDROVIAS   ON      NM   R$  000000000037900000000003830000000000370000000000037400000000003730000000000371000000000037306662000000000002919800000000001093908800000000000000009999123100000010000000000000BRHBSAACNOR0100
012024012202HBTS5       010HABITASUL   PNA          R$  000000000490000000000049000000000004600000000000469200000000046000000000004200000000000460000006000000000000001300000000000006100000000000000000009999123100000010000000000000BRHBTSACNPA3127
012024012202RADL3       010RAIADROGASILON      NM   R$  000000000268000000000026820000000002631000000000265200000000026490000000002642000000000265112103000000000004622200000000012260287300000000000000009999123100000010000000000000BRRADLACNOR0154
012024012202RAIL3       010RUMO S.A.   ON      NM   R$  000000000225000000000022620000000002215000000000223100000000022280000000002226000000000223418989000000000009350900000000020869255300000000000000009999123100000010000000000000BRRAILACNOR9104
012024012202SRNA3       010SERENA      ON      NM   R$  000000000095800000000009710000000000921000000000094000000000009300000000000930000000000093603190000000000000685900000000000645296100000000000000009999123100000010000000000000BRSRNAACNOR4100
012024012202STBP3       010SANTOS BRP  ON      NM   R$  000000000096900000000009710000000000944000000000095000000000009480000000000948000000000094905892000000000002099600000000001995379500000000000000009999123100000010000000000000BRSTBPACNOR3128
012024012202SUZB3       010SUZANO S.A. ON      NM   R$  000000000519200000000052070000000005142000000000516700000000051670000000005164000000000516709168000000000001977100000000010216361900000000000000009999123100000010000000000000BRSUZBACNOR0129
012024012202SYNE3       010SYN PROP TECON      NM   R$  000000000044200000000004420000000000413000000000042200000000004170000000000414000000000041701399000000000000434200000000000183616100000000000000009999123100000010000000000000BRSYNEACNOR2102
012024012202PNVL3       010DIMED       ON      NM   R$  000000000122000000000012300000000001178000000000119500000000011900000000001188000000000119201886000000000000330300000000000395022300000000000000009999123100000010000000000000BRPNVLACNOR9205
012024012202POMO3       010MARCOPOLO   ON      N2   R$  000000000055600000000005640000000000548000000000055600000000005570000000000557000000000056300658000000000000202500000000000112687700000000000000009999123100000010000000000000BRPOMOACNOR0095
012024012202PRNR3       010PRINER      ON      NM   R$  000000000112000000000011300000000001094000000000110900000000011250000000001125000000000113000625000000000000152200000000000168910600000000000000009999123100000010000000000000BRPRNRACNOR4108
012024012202PSSA3       010PORTO SEGUROON      NM   R$  000000000277000000000027840000000002749000000000276600000000027650000000002764000000000276605333000000000000972200000000002689697900000000000000009999123100000010000000000000BRPSSAACNOR7153
012024012202PTBL3       010PORTOBELLO  ON      NM   R$  000000000064500000000006590000000000638000000000064900000000006530000000000651000000000065301457000000000000421800000000000273788700000000000000009999123100000010000000000000BRPTBLACNOR8132
012024012202PTNT3       010PETTENATI   ON           R$  000000000117600000000012170000000001175000000000118700000000012170000000001141000000000121700017000000000000003100000000000003681200000000000000009999123100000010000000000000BRPTNTACNOR6042
012024012202PTNT4       010PETTENATI   PN           R$  000000000082400000000008240000000000820000000000082200000000008200000000000810000000000082400011000000000000004300000000000003534900000000000000009999123100000010000000000000BRPTNTACNPR3047
012024012202QUAL3       010QUALICORP   ON      NM   R$  000000000026800000000002760000000000254000000000026400000000002580000000000257000000000025907601000000000012548400000000003321422300000000000000009999123100000010000000000000BRQUALACNOR6119
012024012202SMFT3       010SMART FIT   ON      NM   R$  000000000260500000000026050000000002449000000000248700000000024700000000002467000000000247007745000000000002199700000000005471192200000000000000009999123100000010000000000000BRSMFTACNOR1111
012024012202SMTO3       010SAO MARTINHOON      NM   R$  000000000280100000000028290000000002777000000000280900000000028150000000002813000000000281509845000000000002127500000000005976752600000000000000009999123100000010000000000000BRSMTOACNOR3125
012024012202SNSY3       010SANSUY      ON           R$  000000000210000000000032000000000001241000000000220100000000018400000000001660000000000184000433000000000000070100000000000154321900000000000000009999123100000010000000000000BRSNSYACNOR2113
012024012202SNSY5       010SANSUY      PNA          R$  000000000055000000000006240000000000447000000000052800000000004470000000000447000000000046501066000000000000321700000000000169947700000000000000009999123100000010000000000000BRSNSYACNPA5111
012024012202SOJA3       010BOA SAFRA   ON      NM   R$  000000000163800000000016590000000001601000000000162500000000016290000000001615000000000163101143000000000000179900000000000292340200000000000000009999123100000010000000000000BRSOJAACNOR9105
012024012202SOMA3       010GRUPO SOMA  ON      NM   R$  000000000070000000000007050000000000661000000000067800000000006720000000000671000000000067413512000000000010948900000000007424122100000000000000009999123100000010000000000000BRSOMAACNOR3102
012024012202POMO4       010MARCOPOLO   PN      N2   R$  000000000072400000000007290000000000714000000000072300000000007280000000000723000000000072809321000000000004041200000000002925150200000000000000009999123100000010000000000000BRPOMOACNPR7095
012024012202PORT3       010WILSON SONS ON      NM   R$  000000000170700000000017160000000001683000000000169100000000016880000000001684000000000168800498000000000000183000000000000309539900000000000000009999123100000010000000000000BRPORTACNOR8105
012024012202CXSE3       010CAIXA SEGURION      NM   R$  000000000138500000000014030000000001380000000000139000000000013930000000001393000000000139412254000000000005905000000000008211973700000000000000009999123100000010000000000000BRCXSEACNOR7105
012024012202CYRE3       010CYRELA REALTON      NM   R$  000000000224200000000022650000000002192000000000222200000000022250000000002222000000000222716343000000000006595600000000014655433500000000000000009999123100000010000000000000BRCYREACNOR7139
012024012202GGPS3       010GPS         ON      NM   R$  000000000183900000000018390000000001792000000000180700000000018190000000001816000000000181905202000000000001254000000000002266168600000000000000009999123100000010000000000000BRGGPSACNOR9102
012024012202GMAT3       010GRUPO MATEUSON      NM   R$  000000000070000000000007050000000000658000000000066900000000006590000000000659000000000066208073000000000005298600000000003546706500000000000000009999123100000010000000000000BRGMATACNOR7100
012024012202GOAU3       010GERDAU MET  ON      N1   R$  000000000101200000000010190000000001005000000000101200000000010100000000001008000000000101000338000000000000082600000000000083643200000000000000009999123100000010000000000000BRGOAUACNOR1265
012024012202GOAU4       010GERDAU MET  PN      N1   R$  000000000097300000000009830000000000966000000000097400000000009710000000000971000000000097314601000000000007418700000000007231031900000000000000009999123100000010000000000000BRGOAUACNPR8266
012024012202MILS3       010MILLS       ON      NM   R$  000000000131100000000013150000000001265000000000128400000000012780000000001270000000000127803047000000000000741900000000000952623800000000000000009999123100000010000000000000BRMILSACNOR2124
012024012202MLAS3       010MULTILASER  ON      NM   R$  000000000019500000000001980000000000187000000000019000000000001890000000000187000000000018905333000000000003139700000000000599000700000000000000009999123100000010000000000000BRMLASACNOR9101
012024012202MNDL3       010MUNDIAL     ON           R$  000000000460100000000048460000000004581000000000468500000000048170000000004562000000000481700005000000000000000500000000000002342800000000000000009999123100000010000000000000BRMNDLACNOR4107
012024012202MNPR3       010MINUPAR     ON           R$  000000000216100000000021800000000002160000000000216700000000021800000000001900000000000226200003000000000000000300000000000000650100000000000000009999123100000010000000000000BRMNPRACNOR5122
012024012202MOVI3       010MOVIDA      ON      NM   R$  000000000099700000000009990000000000947000000000096400000000009500000000000950000000000095107219000000000003191600000000003078742100000000000000009999123100000010000000000000BRMOVIACNOR0122
012024012202MRFG3       010MARFRIG     ON      NM   R$  000000000092400000000009330000000000907000000000091700000000009180000000000918000000000092110076000000000010356000000000009500700000000000000000009999123100000010000000000000BRMRFGACNOR0116
012024012202AVLL3       010ALPHAVILLE  ON      NM   R$  000000000051700000000005170000000000517000000000051700000000005170000000000485000000000051700001000000000000000200000000000000103400000000000000009999123100000010000000000000BRAVLLACNOR5103
012024012202AZEV3       010AZEVEDO     ON           R$  000000000016500000000001690000000000156000000000016100000000001560000000000156000000000015800575000000000000486200000000000078281000000000000000009999123100000010000000000000BRAZEVACNOR0121
012024012202AZEV4       010AZEVEDO     PN           R$  000000000016200000000001620000000000150000000000015300000000001520000000000151000000000015202270000000000003911000000000000600873700000000000000009999123100000010000000000000BRAZEVACNPR7121
012024012202AZUL4       010AZUL        PN      N2   R$  000000000134200000000013930000000001315000000000134400000000013250000000001325000000000132621595000000000016416400000000022073330500000000000000009999123100000010000000000000BRAZULACNPR4102
012024012202B3SA3       010B3          ON      NM   R$  000000000137900000000013850000000001337000000000135500000000013480000000001347000000000134928913000000000022740300000000030813193800000000000000009999123100000010000000000000BRB3SAACNOR6130
012024012202BRGE12      010ALFA CONSORCPNF          R$  000000000107700000000010770000000001061000000000107000000000010610000000001060000000000109900002000000000000000500000000000000535300000000000000009999123100000010000000000000BRBRGEACNPF8097
012024012202BRGE6       010ALFA CONSORCPNB          R$  000000000114700000000011470000000001140000000000114600000000011400000000001111000000000116900003000000000000002700000000000003096200000000000000009999123100000010000000000000BRBRGEACNPB7218
012024012202BRIT3       010BRISANET    ON      NM   R$  000000000032200000000003250000000000307000000000031400000000003120000000000312000000000031401118000000000000424000000000000133397400000000000000009999123100000010000000000000BRBRITACNOR0102
012024012202BRIV3       010ALFA INVEST ON           R$  000000000107600000000010760000000001076000000000107600000000010760000000001076000000000108800002000000000000000400000000000000430400000000000000009999123100000010000000000000BRBRIVACNOR6209
012024012202BRIV4       010ALFA INVEST PN           R$  000000000103200000000010320000000001032000000000103200000000010320000000001032000000000105900001000000000000000300000000000000309600000000000000009999123100000010000000000000BRBRIVACNPR3218
012024012202BRKM3       010BRASKEM     ON      N1   R$  000000000183600000000018400000000001786000000000180900000000017930000000001792000000000180500078000000000000009800000000000017732000000000000000009999123100000010000000000000BRBRKMACNOR1119
012024012202BRKM5       010BRASKEM     PNA     N1   R$  000000000176000000000017750000000001711000000000173800000000017260000000001726000000000172710111000000000004073200000000007083180200000000000000009999123100000010000000000000BRBRKMACNPA4121
012024012202CSRN3       010COSERN      ON           R$  000000000280000000000028850000000002660000000000274300000000027260000000002725000000000289900008000000000000001000000000000002743800000000000000009999123100000010000000000000BRCSRNACNOR0190
012024012202CSRN5       010COSERN      PNA          R$  000000000252100000000025210000000002521000000000252100000000025210000000002351000000000280000001000000000000000100000000000000252100000000000000009999123100000010000000000000BRCSRNACNPA3190
012024012202IFCM3       010INFRACOMM   ON      NM   R$  000000000016400000000001660000000000153000000000015800000000001550000000000155000000000015604277000000000008005300000000001272653600000000000000009999123100000010000000000000BRIFCMACNOR8101
012024012202IGTI11      010IGUATEMI S.AUNT     N1   R$  000000000238600000000023860000000002315000000000234900000000023360000000002334000000000233710904000000000002249000000000005285021100000000000000009999123100000010000000000000BRIGTICDAM16104
012024012202IGTI3       010IGUATEMI S.AON      N1   R$  000000000029300000000002930000000000281000000000028800000000002880000000000286000000000028800199000000000000164500000000000047474600000000000000009999123100000010000000000000BRIGTIACNOR8104
012024012202IGTI4       010IGUATEMI S.APN      N1   R$  000000000102000000000010200000000001015000000000101600000000010150000000001000000000000109300003000000000000000400000000000000406500000000000000009999123100000010000000000000BRIGTIACNPR5104
012024012202LPSB3       010LOPES BRASILON      NM   R$  000000000023200000000002360000000000229000000000023300000000002340000000000233000000000023600208000000000000088500000000000020671100000000000000009999123100000010000000000000BRLPSBACNOR0113
012024012202LREN3       010LOJAS RENNERON      NM   R$  000000000163700000000016500000000001564000000000159800000000015810000000001575000000000158132650000000000025928500000000041443285900000000000000009999123100000010000000000000BRLRENACNOR1219
012024012202OFSA3       010OUROFINO S/AON      NM   R$  000000000235200000000023520000000002331000000000234500000000023310000000002331000000000236900004000000000000000400000000000000938300000000000000009999123100000010000000000000BROFSAACNOR7117
012024012202ONCO3       010ONCOCLINICASON      NM   R$  000000000117000000000011800000000001140000000000115900000000011480000000001143000000000114904521000000000001622900000000001882260100000000000000009999123100000010000000000000BRONCOACNOR6100
012024012202OPCT3       010OCEANPACT   ON      NM   R$  000000000055400000000005580000000000537000000000054500000000005440000000000543000000000054501391000000000000686700000000000374736600000000000000009999123100000010000000000000BROPCTACNOR0100
012024012202ORVR3       010ORIZON      ON      NM   R$  000000000355900000000035600000000003424000000000347000000000034650000000003465000000000347101259000000000000315300000000001094351700000000000000009999123100000010000000000000BRORVRACNOR0101
012024012202OSXB3       010OSX BRASIL  ON      NM   R$  000000000053100000000005450000000000450000000000049300000000004500000000000450000000000046700156000000000000034300000000000016924000000000000000009999123100000010000000000000BROSXBACNOR8109
012024012202LAND3       010TERRASANTAPAON      NM   R$  000000000160300000000016870000000001603000000000164200000000016650000000001664000000000166600181000000000000059500000000000097742200000000000000009999123100000010000000000000BRLANDACNOR9102
012024012202LAVV3       010LAVVI       ON      NM   R$  000000000076500000000007710000000000743000000000075400000000007550000000000752000000000075501283000000000000330300000000000249239900000000000000009999123100000010000000000000BRLAVVACNOR4110
012024012202LEVE3       010METAL LEVE  ON      NM   R$  000000000350300000000035280000000003425000000000345800000000034470000000003447000000000345002434000000000000487600000000001686604500000000000000009999123100000010000000000000BRLEVEACNOR2196
012024012202LJQQ3       010QUERO-QUERO ON      NM   R$  000000000054700000000005530000000000517000000000052800000000005210000000000520000000000052105705000000000002910300000000001538098200000000000000009999123100000010000000000000BRLJQQACNOR5104
012024012202LOGG3       010LOG COM PROPON      NM   R$  000000000209600000000020990000000002018000000000204700000000020550000000002040000000000205601198000000000000176700000000000361735100000000000000009999123100000010000000000000BRLOGGACNOR7106
012024012202LOGN3       010LOG-IN      ON      NM   R$  000000000388600000000038860000000003664000000000372600000000036640000000003663000000000370000305000000000000049400000000000184112800000000000000009999123100000010000000000000BRLOGNACNOR3105
012024012202NGRD3       010NEOGRID     ON      NM   R$  000000000012300000000001230000000000118000000000011900000000001180000000000118000000000011900342000000000000298700000000000035732200000000000000009999123100000010000000000000BRNGRDACNOR3103
012024012202BIOM3       010BIOMM       ON      MA   R$  000000000056100000000005710000000000541000000000054900000000005420000000000538000000000054800200000000000000023800000000000013088200000000000000009999123100000010000000000000BRBIOMACNOR2112
012024012202BRAP3       010BRADESPAR   ON      N1   R$  000000000210000000000021000000000002062000000000207200000000020660000000002066000000000207400568000000000000092700000000000192159900000000000000009999123100000010000000000000BRBRAPACNOR5147
012024012202BRAP4       010BRADESPAR   PN      N1   R$  000000000226400000000022690000000002240000000000225600000000022580000000002256000000000225809311000000000002736700000000006175901500000000000000009999123100000010000000000000BRBRAPACNPR2147
012024012202CPFE3       010CPFL ENERGIAON      NM   R$  000000000363600000000036440000000003581000000000360800000000036030000000003600000000000360305354000000000000797400000000002877206700000000000000009999123100000010000000000000BRCPFEACNOR0136
012024012202CPLE3       010COPEL       ON      N2   R$  000000000089800000000009010000000000881000000000088900000000008900000000000888000000000089005191000000000003193200000000002841349700000000000000009999123100000010000000000000BRCPLEACNOR8148
012024012202CPLE6       010COPEL       PNB     N2   R$  000000000099800000000010030000000000981000000000099000000000009860000000000986000000000098813860000000000012240100000000012120602300000000000000009999123100000010000000000000BRCPLEACNPB9145
012024012202CRFB3       010CARREFOUR BRON      NM   R$  000000000118300000000011830000000001125000000000114400000000011310000000001131000000000113509244000000000005119500000000005860947000000000000000009999123100000010000000000000BRCRFBACNOR2116
012024012202CSRN6       010COSERN      PNB          R$  000000000253800000000025380000000002538000000000253800000000025380000000002543000000000300000001000000000000000100000000000000253800000000000000009999123100000010000000000000BRCSRNACNPB1191
012024012202CSUD3       010CSU DIGITAL ON      NM   R$  000000000195000000000019500000000001863000000000188300000000018630000000001863000000000187900261000000000000052600000000000099076100000000000000009999123100000010000000000000BRCSUDACNOR5107
012024012202CTKA3       010KARSTEN     ON           R$  000000000148300000000014830000000001483000000000148300000000014830000000001482000000000340900003000000000000000400000000000000593200000000000000009999123100000010000000000000BRCTKAACNOR0043
012024012202CTKA4       010KARSTEN     PN           R$  000000000180000000000018000000000001800000000000180000000000018000000000001721000000000180000004000000000000001600000000000002880000000000000000009999123100000010000000000000BRCTKAACNPR7043
012024012202CTNM3       010COTEMINAS   ON           R$  000000000077400000000011600000000000773000000000101700000000010000000000001000000000000101500342000000000000055200000000000056150900000000000000009999123100000010000000000000BRCTNMACNOR9130
012024012202CTNM4       010COTEMINAS   PN           R$  000000000014700000000001690000000000144000000000015700000000001510000000000149000000000015100983000000000000697900000000000109893000000000000000009999123100000010000000000000BRCTNMACNPR6129
012024012202CTSA3       010SANTANENSE  ON           R$  000000000042700000000005150000000000413000000000046600000000004130000000000413000000000044900184000000000000072200000000000033708200000000000000009999123100000010000000000000BRCTSAACNOR3062
012024012202CTSA4       010SANTANENSE  PN           R$  000000000021000000000002200000000000195000000000021000000000001970000000000197000000000020300183000000000000085800000000000018021800000000000000009999123100000010000000000000BRCTSAACNPR0062
012024012202CURY3       010CURY S/A    ON      NM   R$  000000000185100000000018510000000001820000000000183500000000018430000000001841000000000184307095000000000001318000000000002419081800000000000000009999123100000010000000000000BRCURYACNOR3107
012024012202CVCB3       010CVC BRASIL  ON      NM   R$  000000000032700000000003300000000000313000000000031800000000003170000000000317000000000031911607000000000017164400000000005467732300000000000000009999123100000010000000000000BRCVCBACNOR1115
012024012202MGEL4       010MANGELS INDLPN           R$  000000000143000000000014300000000001430000000000143000000000014300000000001424000000000153000002000000000000000300000000000000429000000000000000009999123100000010000000000000BRMGELACNPR3147
012024012202MGLU3       010MAGAZ LUIZA ON      NM   R$  000000000020500000000002060000000000193000000000019800000000001950000000000194000000000019545984000000000144213800000000028594403800000000000000009999123100000010000000000000BRMGLUACNOR2122
012024012202ALPA3       010ALPARGATAS  ON      N1   R$  000000000090200000000009020000000000889000000000089600000000008960000000000886000000000089700017000000000000006100000000000005469800000000000000009999123100000010000000000000BRALPAACNOR0231
012024012202ALPA4       010ALPARGATAS  PN      N1   R$  000000000083500000000008390000000000802000000000081100000000008110000000000810000000000081205788000000000004298400000000003486173200000000000000009999123100000010000000000000BRALPAACNPR7232
012024012202ALPK3       010ESTAPAR     ON      NM   R$  000000000046700000000004710000000000451000000000046000000000004620000000000453000000000046200166000000000000057300000000000026410300000000000000009999123100000010000000000000BRALPKACNOR9101
012024012202ALUP11      010ALUPAR      UNT     N2   R$  000000000292900000000029520000000002892000000000291100000000029040000000002903000000000291703096000000000000541700000000001577171100000000000000009999123100000010000000000000BRALUPCDAM15117
012024012202ALUP3       010ALUPAR      ON      N2   R$  000000000098500000000009980000000000967000000000097700000000009700000000000967000000000098200148000000000000019800000000000019358400000000000000009999123100000010000000000000BRALUPACNOR8117
012024012202ALUP4       010ALUPAR      PN      N2   R$  000000000097700000000009860000000000966000000000097300000000009790000000000968000000000098000178000000000000033400000000000032498700000000000000009999123100000010000000000000BRALUPACNPR5117
012024012202AMAR3       010LOJAS MARISAON      NM   R$  000000000028100000000002990000000000272000000000028200000000002820000000000281000000000028201360000000000000743300000000000209620800000000000000009999123100000010000000000000BRAMARACNOR4114
012024012202AMBP3       010AMBIPAR     ON      NM   R$  000000000144000000000014640000000001425000000000144100000000014360000000001436000000000143903209000000000000816200000000001176239200000000000000009999123100000010000000000000BRAMBPACNOR6103
012024012202ANIM3       010ANIMA       ON      NM   R$  000000000045500000000004640000000000440000000000045000000000004450000000000444000000000044710621000000000004600900000000002072538100000000000000009999123100000010000000000000BRANIMACNOR6107
012024012202APER3       010ALPER S.A.  ON           R$  000000000436900000000043900000000004369000000000437400000000043710000000004371000000000439400013000000000000002100000000000009186200000000000000009999123100000010000000000000BRAPERACNOR9106
012024012202ARML3       010ARMAC       ON      NM   R$  000000000149000000000015030000000001443000000000146100000000014480000000001442000000000144802628000000000000485100000000000708874100000000000000009999123100000010000000000000BRARMLACNOR1110
012024012202ARZZ3       010AREZZO CO   ON      NM   R$  000000000584700000000058940000000005690000000000575200000000057190000000005719000000000572007482000000000001969500000000011330489500000000000000009999123100000010000000000000BRARZZACNOR3146
012024012202BBSE3       010BBSEGURIDADEON      NM   R$  000000000347300000000034980000000003447000000000346400000000034630000000003457000000000346419738000000000005309000000000018394787400000000000000009999123100000010000000000000BRBBSEACNOR5123
012024012202BPAN4       010BANCO PAN   PN      N1   R$  000000000080100000000008100000000000775000000000078900000000007870000000000785000000000078805397000000000002258400000000001782772000000000000000009999123100000010000000000000BRBPANACNPR1115
012024012202CGAS5       010COMGAS      PNA          R$  000000001210000000000121950000000012000000000001206200000000121950000000011865000000001210000005000000000000000600000000000007237700000000000000009999123100000010000000000000BRCGASACNPA3159
012024012202CGRA3       010GRAZZIOTIN  ON           R$  000000000260000000000026000000000002558000000000257400000000025650000000002559000000000259900010000000000000001600000000000004119900000000000000009999123100000010000000000000BRCGRAACNOR2081
012024012202CGRA4       010GRAZZIOTIN  PN           R$  000000000258100000000025970000000002553000000000257000000000025790000000002554000000000258000041000000000000005300000000000013621100000000000000009999123100000010000000000000BRCGRAACNPR9081
012024012202CIEL3       010CIELO       ON      NM   R$  000000000045000000000004690000000000450000000000045900000000004620000000000461000000000046218614000000000030760500000000014143491100000000000000009999123100000010000000000000BRCIELACNOR3156
012024012202DASA3       010DASA        ON      NM   R$  000000000090600000000009060000000000870000000000087400000000008730000000000873000000000087701349000000000000290700000000000254275600000000000000009999123100000010000000000000BRDASAACNOR1122
012024012202DESK3       010DESKTOP     ON      NM   R$  000000000132400000000013240000000001289000000000130100000000012980000000001298000000000129900866000000000000121000000000000157492900000000000000009999123100000010000000000000BRDESKACNOR2103
012024012202DEXP3       010DEXXOS PAR  ON      N1   R$  000000000112500000000011420000000001103000000000111600000000011030000000001103000000000110800212000000000000049700000000000055488400000000000000009999123100000010000000000000BRDEXPACNOR1104
012024012202DEXP4       010DEXXOS PAR  PN      N1   R$  000000000111100000000011580000000001110000000000113600000000011100000000001089000000000111900013000000000000001700000000000001931600000000000000009999123100000010000000000000BRDEXPACNPR8104
012024012202DIRR3       010DIRECIONAL  ON      NM   R$  000000000214100000000021720000000002105000000000213100000000021320000000002116000000000213205906000000000001063900000000002267832000000000000000009999123100000010000000000000BRDIRRACNOR0117
012024012202DMVF3       010D1000VFARMA ON      NM   R$  000000000059900000000006050000000000592000000000059500000000005980000000000590000000000059700169000000000000038700000000000023050600000000000000009999123100000010000000000000BRDMVFACNOR9100
012024012202DOTZ3       010DOTZ SA     ON      NM   R$  000000000075900000000007800000000000743000000000076700000000007430000000000743000000000076700011000000000000002300000000000001764400000000000000009999123100000010000000000000BRDOTZACNOR7101
012024012202DXCO3       010DEXCO       ON      NM   R$  000000000076100000000007640000000000735000000000074700000000007460000000000745000000000074704875000000000001672000000000001249036400000000000000009999123100000010000000000000BRDXCOACNOR8104
012024012202GEPA4       010GER PARANAP PN           R$  000000000258000000000026100000000002580000000000259800000000026100000000002610000000000263900007000000000000001800000000000004676900000000000000009999123100000010000000000000BRGEPAACNPR9159
012024012202GFSA3       010GAFISA      ON      NM   R$  000000000135500000000013970000000001295000000000134600000000013790000000001370000000000137906998000000000003859200000000005195012400000000000000009999123100000010000000000000BRGFSAACNOR3123
012024012202GGBR3       010GERDAU      ON      N1   R$  000000000197500000000019750000000001948000000000195700000000019540000000001951000000000195400222000000000000060000000000000117478300000000000000009999123100000010000000000000BRGGBRACNOR1189
012024012202GGBR4       010GERDAU      PN      N1   R$  000000000210500000000021160000000002074000000000209300000000020860000000002085000000000208818797000000000007504000000000015710096300000000000000009999123100000010000000000000BRGGBRACNPR8189
012024012202ITUB3       010ITAUUNIBANCOON      N1   R$  000000000280000000000028170000000002739000000000277300000000027710000000002763000000000277302468000000000000531900000000001475385900000000000000009999123100000010000000000000BRITUBACNOR4329
012024012202ITUB4       010ITAUUNIBANCOPN      N1   R$  000000000329500000000033170000000003197000000000325400000000032400000000003238000000000324040755000000000036322300000000118202551300000000000000009999123100000010000000000000BRITUBACNPR1329
012024012202ASAI3       010ASSAI       ON      NM   R$  000000000143100000000014380000000001360000000000138600000000013610000000001361000000000136616961000000000006914100000000009584889400000000000000009999123100000010000000000000BRASAIACNOR0106
012024012202ATOM3       010ATOMPAR     ON           R$  000000000021400000000002140000000000213000000000021300000000002140000000000213000000000021400012000000000000002400000000000000512800000000000000009999123100000010000000000000BRATOMACNOR1106
012024012202AURE3       010AUREN       ON      NM   R$  000000000131000000000013150000000001306000000000131000000000013110000000001310000000000131106785000000000004490300000000005884395600000000000000009999123100000010000000000000BRAUREACNOR9103
012024012202BEEF3       010MINERVA     ON      NM   R$  000000000068000000000006910000000000674000000000068000000000006750000000000675000000000067808766000000000008518400000000005796184400000000000000009999123100000010000000000000BRBEEFACNOR6116
012024012202BEES3       010BANESTES    ON           R$  000000000093500000000009560000000000930000000000094300000000009500000000000948000000000095000071000000000000010400000000000009810500000000000000009999123100000010000000000000BRBEESACNOR9386
012024012202BEES4       010BANESTES    PN           R$  000000000099500000000009990000000000990000000000099200000000009910000000000987000000000099500027000000000000003900000000000003871700000000000000009999123100000010000000000000BRBEESACNPR6311
012024012202BGIP4       010BANESE      PN           R$  000000000261100000000026110000000002600000000000260900000000026000000000002591000000000262500008000000000000000900000000000002348200000000000000009999123100000010000000000000BRBGIPACNPR8206
012024012202BHIA3       010CASAS BAHIA ON      NM   R$  000000000093700000000009650000000000908000000000092900000000009240000000000924000000000092507041000000000003672700000000003414795600000000000000009999123100000010000000000000BRBHIAACNOR1101
012024012202BRBI11      010BR PARTNERS UNT     N2   R$  000000000153000000000015450000000001505000000000152700000000015330000000001519000000000153301517000000000000232500000000000355161400000000000000009999123100000010000000000000BRBRBICDAM10107
012024012202BRFS3       010BRF SA      ON      NM   R$  000000000131500000000013970000000001308000000000135500000000013640000000001363000000000136434244000000000018872500000000025586232100000000000000009999123100000010000000000000BRBRFSACNOR8121
012024012202CRPG6       010CRISTAL     PNB          R$  000000000366100000000036610000000003620000000000365300000000036200000000003620000000000364900009000000000000005600000000000020457200000000000000009999123100000010000000000000BRCRPGACNPB1118
012024012202CSAN3       010COSAN       ON      NM   R$  000000000181300000000018330000000001792000000000181100000000018080000000001806000000000181010968000000000005845900000000010587198400000000000000009999123100000010000000000000BRCSANACNOR6124
012024012202CSED3       010CRUZEIRO EDUON      NM   R$  000000000045500000000004610000000000437000000000044900000000004370000000000437000000000044201248000000000000478300000000000214829200000000000000009999123100000010000000000000BRCSEDACNOR9104
012024012202CSMG3       010COPASA      ON      NM   R$  000000000221400000000022400000000002208000000000222300000000022290000000002228000000000223003823000000000000925700000000002058351800000000000000009999123100000010000000000000BRCSMGACNOR5171
012024012202CSNA3       010SID NACIONALON           R$  000000000172300000000017350000000001703000000000171700000000017130000000001713000000000171411256000000000004894400000000008404275600000000000000009999123100000010000000000000BRCSNAACNOR6260
012024012202FESA4       010FERBASA     PN      N1   R$  000000000429800000000043000000000004235000000000425800000000042510000000004242000000000425500794000000000000118900000000000506293100000000000000009999123100000010000000000000BRFESAACNPR5082
012024012202FHER3       010FER HERINGERON      NM   R$  000000000072400000000007400000000000724000000000072700000000007400000000000737000000000074400020000000000000005700000000000004148100000000000000009999123100000010000000000000BRFHERACNOR5103
012024012202FIQE3       010UNIFIQUE    ON      NM   R$  000000000037700000000003850000000000376000000000038000000000003850000000000382000000000038501097000000000000358900000000000136519800000000000000009999123100000010000000000000BRFIQEACNOR5105
012024012202FLRY3       010FLEURY      ON      NM   R$  000000000163100000000016370000000001616000000000162600000000016290000000001628000000000162905215000000000002159400000000003513277000000000000000009999123100000010000000000000BRFLRYACNOR5137
012024012202FRAS3       010FRAS-LE     ON      N1   R$  000000000155000000000015670000000001516000000000153100000000015200000000001515000000000152001315000000000000282500000000000432731300000000000000009999123100000010000000000000BRFRASACNOR0158
012024012202ITSA3       010ITAUSA      ON      N1   R$  000000000099900000000010080000000000983000000000099700000000009950000000000993000000000099600662000000000000211200000000000210716300000000000000009999123100000010000000000000BRITSAACNOR0436
012024012202ITSA4       010ITAUSA      PN      N1   R$  000000000100400000000010070000000000983000000000099400000000009910000000000990000000000099219116000000000010168000000000010113803700000000000000009999123100000010000000000000BRITSAACNPR7436
012024012202TOTS3       010TOTVS       ON      NM   R$  000000000317000000000031730000000003025000000000307700000000030410000000003039000000000304620178000000000004855100000000014940210100000000000000009999123100000010000000000000BRTOTSACNOR8144
012024012202TPIS3       010TRIUNFO PARTON      NM   R$  000000000041100000000004120000000000395000000000040400000000004090000000000403000000000041000155000000000000037000000000000014954200000000000000009999123100000010000000000000BRTPISACNOR8118
012024012202TRAD3       010TC          ON      NM   R$  000000000007400000000000760000000000073000000000007400000000000730000000000073000000000007400222000000000002240000000000000167547100000000000000009999123100000010000000000000BRTRADACNOR3101
012024012202TRIS3       010TRISUL      ON      NM   R$  000000000049400000000004940000000000474000000000048100000000004750000000000475000000000047701831000000000000601900000000000289818800000000000000009999123100000010000000000000BRTRISACNOR4116
012024012202TRPL3       010TRAN PAULISTON      N1   R$  000000000372900000000037520000000003729000000000374900000000037500000000003746000000000375000007000000000000002200000000000008247900000000000000009999123100000010000000000000BRTRPLACNOR4185
012024012202TRPL4       010TRAN PAULISTPN      N1   R$  000000000264400000000026690000000002628000000000264300000000026340000000002634000000000264506173000000000001076300000000002844722700000000000000009999123100000010000000000000BRTRPLACNPR1185
012024012202VIVA3       010VIVARA S.A. ON      NM   R$  000000000357400000000035740000000003490000000000351800000000035260000000003526000000000352808913000000000003014300000000010606397600000000000000009999123100000010000000000000BRVIVAACNOR0106
012024012202VIVR3       010VIVER       ON  ES  NM   R$  000000000049000000000004900000000000464000000000047400000000004700000000000470000000000047100293000000000000247400000000000117420100000000000000009999123100000010000000000000BRVIVRACNOR4121
012024012202VIVT3       010TELEF BRASILON           R$  000000000508700000000051010000000005042000000000507800000000050840000000005079000000000509007400000000000001671700000000008489616200000000000000009999123100000010000000000000BRVIVTACNOR0178
012024012202VLID3       010VALID       ON      NM   R$  000000000209600000000021000000000002028000000000206100000000020710000000002056000000000207202090000000000000353000000000000727612200000000000000009999123100000010000000000000BRVLIDACNOR5141
012024012202VSTE3       010VESTE       ON  ES  NM   R$  000000000189000000000019000000000001870000000000189400000000019000000000001900000000000190200042000000000000012000000000000022736700000000000000009999123100000010000000000000BRVSTEACNOR5102
012024012202VULC3       010VULCABRAS   ON      NM   R$  000000000196000000000019790000000001901000000000193100000000019170000000001915000000000192703860000000000000585300000000001130657100000000000000009999123100000010000000000000BRVULCACNOR2156
012024012202VVEO3       010VIVEO       ON      NM   R$  000000000123500000000012360000000001158000000000118400000000011580000000001158000000000116302203000000000000504100000000000596879500000000000000009999123100000010000000000000BRVVEOACNOR0103
012024012202WEGE3       010WEG         ON      NM   R$  000000000334900000000033660000000003320000000000333900000000033380000000003337000000000334111734000000000003767000000000012579460800000000000000009999123100000010000000000000BRWEGEACNOR0220
012024012202RAIZ4       010RAIZEN      PN      N2   R$  000000000037400000000003750000000000360000000000036600000000003650000000000365000000000036622697000000000010654600000000003899736400000000000000009999123100000010000000000000BRRAIZACNPR6109
012024012202RANI3       010IRANI       ON      NM   R$  000000000101000000000010120000000000985000000000099200000000009850000000000984000000000098504126000000000001121900000000001113985100000000000000009999123100000010000000000000BRRANIACNOR5069
012024012202TAEE11      010TAESA       UNT     N2   R$  000000000374000000000037530000000003667000000000370100000000036920000000003690000000000369506330000000000001357100000000005023181900000000000000009999123100000010000000000000BRTAEECDAM10145
012024012202TAEE3       010TAESA       ON      N2   R$  000000000123300000000012390000000001213000000000122400000000012170000000001217000000000121800893000000000000140200000000000171669600000000000000009999123100000010000000000000BRTAEEACNOR9145
012024012202TAEE4       010TAESA       PN      N2   R$  000000000125400000000012590000000001229000000000124300000000012390000000001235000000000123901346000000000000303500000000000377419700000000000000009999123100000010000000000000BRTAEEACNPR6145
012024012202TASA3       010TAURUS ARMASON      N2   R$  000000000147600000000014950000000001468000000000148200000000014710000000001470000000000148900070000000000000010700000000000015859900000000000000009999123100000010000000000000BRTASAACNOR7103
012024012202TASA4       010TAURUS ARMASPN      N2   R$  000000000149000000000014990000000001461000000000147800000000014710000000001471000000000147301160000000000000225000000000000332726500000000000000009999123100000010000000000000BRTASAACNPR4103
012024012202TCSA3       010TECNISA     ON      NM   R$  000000000034000000000003430000000000334000000000033800000000003410000000000337000000000034100146000000000000075200000000000025422600000000000000009999123100000010000000000000BRTCSAACNOR3112
012024012202TECN3       010TECHNOS     ON      NM   R$  000000000036100000000003620000000000352000000000035500000000003560000000000355000000000036100198000000000000111700000000000039751400000000000000009999123100000010000000000000BRTECNACNOR6108
012024012202TELB3       010TELEBRAS    ON           R$  000000000152500000000015250000000001525000000000152500000000015250000000001485000000000154000002000000000000000300000000000000457500000000000000009999123100000010000000000000BRTELBACNOR2140
012024012202TELB4       010TELEBRAS    PN           R$  000000000117000000000011700000000001170000000000117000000000011700000000001165000000000118700003000000000000000400000000000000468000000000000000009999123100000010000000000000BRTELBACNPR9140
012024012202TEND3       010TENDA       ON      NM   R$  000000000098200000000009940000000000958000000000097500000000009760000000000976000000000097806550000000000002166000000000002113094600000000000000009999123100000010000000000000BRTENDACNOR4111
012024012202VAMO3       010VAMOS       ON      NM   R$  000000000085400000000008580000000000808000000000082300000000008140000000000814000000000081512840000000000006127200000000005046258500000000000000009999123100000010000000000000BRVAMOACNOR7105
012024012202VBBR3       010VIBRA       ON      NM   R$  000000000226800000000022970000000002232000000000226700000000022810000000002275000000000228217289000000000005467800000000012400348500000000000000009999123100000010000000000000BRVBBRACNOR1106
012024012202VITT3       010VITTIA      ON      NM   R$  000000000092400000000009240000000000881000000000089000000000008930000000000893000000000089700999000000000000387300000000000345079100000000000000009999123100000010000000000000BRVITTACNOR4106
012024012202POSI3       010POSITIVO TECON      NM   R$  000000000066500000000006770000000000657000000000066800000000006690000000000664000000000067002234000000000000842200000000000563146100000000000000009999123100000010000000000000BRPOSIACNOR9115
012024012202PRIO3       010PETRORIO    ON      NM   R$  000000000446500000000044770000000004380000000000442500000000044160000000004416000000000441713085000000000005355200000000023697460200000000000000009999123100000010000000000000BRPRIOACNOR1106
012024012202SGPS3       010SPRINGS     ON      NM   R$  000000000012300000000001290000000000117000000000012200000000001180000000000118000000000011900619000000000000886300000000000108349500000000000000009999123100000010000000000000BRSGPSACNOR4104
012024012202SHOW3       010TIME FOR FUNON      NM   R$  000000000020700000000002100000000000201000000000020400000000002070000000000202000000000020700284000000000000275100000000000056299600000000000000009999123100000010000000000000BRSHOWACNOR7105
012024012202SHUL4       010SCHULZ      PN           R$  000000000068100000000006840000000000665000000000067300000000006710000000000668000000000067201133000000000000242200000000000163180300000000000000009999123100000010000000000000BRSHULACNPR4154
012024012202SIMH3       010SIMPAR      ON      NM   R$  000000000082500000000008280000000000783000000000079700000000007890000000000789000000000079007499000000000003838700000000003061654700000000000000009999123100000010000000000000BRSIMHACNOR0107
012024012202SLCE3       010SLC AGRICOLAON      NM   R$  000000000189100000000018960000000001865000000000187800000000018820000000001880000000000188309902000000000002394600000000004498015700000000000000009999123100000010000000000000BRSLCEACNOR2124
012024012202HYPE3       010HYPERA      ON      NM   R$  000000000326600000000033010000000003212000000000324500000000032390000000003235000000000324208107000000000001874800000000006083946500000000000000009999123100000010000000000000BRHYPEACNOR0136
012024012207TXRX4       010TEX RENAUX  PN           R$  000000000027000000000003650000000000270000000000034100000000003650000000000360000000000037200065000000000000029200000000000009976100000000000000009999123100000010000000000000BRTXRXACNPR0142
012024012207NUTR3       010NUTRIPLANT  ON      MA   R$  000000000055800000000005840000000000520000000000054300000000005400000000000526000000000054000068000000000000013800000000000007503400000000000000009999123100000010000000000000BRNUTRACNOR0104
012024012208RSID3       010ROSSI RESID ON      NM   R$  000000000036400000000003770000000000357000000000036900000000003750000000000375000000000037600152000000000000053900000000000019927000000000000000009999123100000010000000000000BRRSIDACNOR8120
012024012208RNEW11      010RENOVA      UNT     N2   R$  000000000039200000000004040000000000371000000000038500000000003860000000000385000000000039300102000000000000014600000000000005621600000000000000009999123100000010000000000000BRRNEWCDAM15110
012024012208RNEW3       010RENOVA      ON      N2   R$  000000000013300000000001350000000000128000000000013100000000001310000000000128000000000013100167000000000000059500000000000007804900000000000000009999123100000010000000000000BRRNEWACNOR8110
012024012208RNEW4       010RENOVA      PN      N2   R$  000000000013400000000001340000000000128000000000013000000000001310000000000130000000000013200213000000000000121900000000000015917800000000000000009999123100000010000000000000BRRNEWACNPR5110
012024012208RPMG3       010PET MANGUINHON           R$  000000000020600000000002070000000000205000000000020600000000002070000000000205000000000020800004000000000000000400000000000000082400000000000000009999123100000010000000000000BRRPMGACNOR9194
012024012208ETER3       010ETERNIT     ON      NM   R$  000000000077500000000007890000000000760000000000077400000000007600000000000760000000000076400577000000000000271300000000000210058300000000000000009999123100000010000000000000BRETERACNOR3242
012024012208JFEN3       010JOAO FORTES ON           R$  000000000021200000000002190000000000205000000000021100000000002050000000000205000000000020700122000000000000023800000000000005029000000000000000009999123100000010000000000000BRJFENACNOR0058
012024012208PMAM3       010PARANAPANEMAON      NM   R$  000000000041300000000004190000000000405000000000040800000000004090000000000407000000000041200072000000000000018300000000000007466700000000000000009999123100000010000000000000BRPMAMACNOR3038
012024012208OIBR3       010OI          ON      N1   R$  000000000006000000000000640000000000060000000000006200000000000620000000000061000000000006301002000000000007173100000000000447645000000000000000009999123100000010000000000000BROIBRACNOR1110
012024012208OIBR4       010OI          PN      N1   R$  000000000015400000000001560000000000153000000000015400000000001540000000000153000000000015400050000000000000016800000000000002599300000000000000009999123100000010000000000000BROIBRACNPR8109
012024012208LIGT3       010LIGHT S/A   ON      NM   R$  000000000061800000000006260000000000611000000000061800000000006110000000000611000000000061502319000000000000376800000000000232968600000000000000009999123100000010000000000000BRLIGTACNOR2124
012024012208NEXP3       010NEXPE       ON      NM   R$  000000000050400000000005060000000000504000000000050400000000005060000000000501000000000050600003000000000000000300000000000000151400000000000000009999123100000010000000000000BRNEXPACNOR0101
012024012208AMER3       010AMERICANAS  ON      NM   R$  000000000008300000000000840000000000081000000000008200000000000820000000000081000000000008203645000000000008024300000000000661887400000000000000009999123100000010000000000000BRAMERACNOR6101
012024012208ATMP3       010ATMASA      ON           R$  000000000028400000000002930000000000277000000000028600000000002860000000000285000000000029200303000000000000035600000000000010194900000000000000009999123100000010000000000000BRATMPACNOR8100
012024012208BDLL4       010BARDELLA    PN           R$  000000000090000000000009000000000000900000000000090000000000009000000000000855000000000093000002000000000000000300000000000000270000000000000000009999123100000010000000000000BRBDLLACNPR8151
012024012208FRTA3       010POMIFRUTAS  ON      NM   R$  000000000017300000000001800000000000169000000000017300000000001700000000000170000000000017300123000000000000081900000000000014171800000000000000009999123100000010000000000000BRFRTAACNOR8103
012024012208HOOT4       010HOTEIS OTHONPN           R$  000000000028200000000002830000000000270000000000027900000000002700000000000279000000000028500007000000000000004600000000000001284000000000000000009999123100000010000000000000BRHOOTACNPR9015
012024012210ABCB2       010ABC BRASIL  DIR PRE N2   R$  000000000047900000000004790000000000400000000000042800000000004040000000000401000000000044000083000000000000010500000000000004499700000000000000009999123100000010000000000000BRABCBD18PR3144
012024012210RENT1       010LOCALIZA    DIR ORD NM   R$  000000000161500000000016920000000001418000000000156700000000014180000000001301000000000161000058000000000000015000000000000023506500000000000000009999123100000010000000000000BRRENTD05OR0193
012024012210PMAM1       010PARANAPANEMADIR ORD NM   R$  000000000000100000000000010000000000001000000000000100000000000010000000000000000000000000100035000000000000298800000000000000298800000000000000009999123100000010000000000000BRPMAMD03OR4037
012024012210LJQQ1       010QUERO-QUERO DIR ORD NM   R$  000000000015900000000001590000000000130000000000014100000000001300000000000128000000000013300034000000000000006000000000000000850700000000000000009999123100000010000000000000BRLJQQD01OR0103
012024012210VIVR1       010VIVER       DIR ORD NM   R$  000000000002600000000000260000000000011000000000001500000000000120000000000011000000000001200586000000000000488400000000000007365000000000000000009999123100000010000000000000BRVIVRD17OR5120
012024012212JPPA11      010FII JPPA CRICI           R$  000000000952200000000095600000000009329000000000944400000000094600000000009381000000000946000489000000000000003149000000000029742164000000000000009999123100000010000000000000BRJPPACTF005156
012024012212JSAF11      010FII JS A FINCI           R$  000000001022600000000103280000000010163000000001023100000000102490000000010219000000001026503217000000000000012679000000000129729636000000000000009999123100000010000000000000BRJSAFCTF000127
012024012212JSRE11      010FII JS REAL CI           R$  000000000774400000000077440000000007633000000000766600000000076800000000007660000000000768005977000000000000029848000000000228822689000000000000009999123100000010000000000000BRJSRECTF007257
012024012212KCRE11      010FII KINEA CRCI           R$  000000001001100000000101560000000009940000000001004800000000099580000000009958000000000999802336000000000000007143000000000071773636000000000000009999123100000010000000000000BRKCRECTF009119
012024012212KEVE11      010FII EVEN II CI           R$  000000011620000000001162000000000115000000000011537700000001152000000000115200000000011799800003000000000000000018000000000002076800000000000000009999123100000010000000000000BRKEVECTF007110
012024012212KFOF11      010FII KINEAFOFCI           R$  000000001010900000000101960000000010015000000001010800000000100750000000010075000000001013104423000000000000026436000000000267241090000000000000009999123100000010000000000000BRKFOFCTF006164
012024012212KISU11      010FII KILIMA  CI           R$  000000000084900000000008490000000000845000000000084700000000008460000000000845000000000084602978000000000000098880000000000083760950000000000000009999123100000010000000000000BRKISUCTF000139
012024012212KIVO11      010FII KIVO    CI           R$  000000000944200000000097150000000009386000000000947100000000095910000000009469000000000959101081000000000000002799000000000026510088000000000000009999123100000010000000000000BRKIVOCTF007122
012024012212MXRF11      010FII MAXI RENCI           R$  000000000107000000000010700000000001051000000000106700000000010690000000001069000000000107033979000000000001515236000000001617873584000000000000009999123100000010000000000000BRMXRFCTF008247
012024012212NAVT11      010FII NAVI TOTCI  ER       R$  000000000909100000000090910000000009080000000000908900000000090910000000009090000000000909101392000000000000002877000000000026151000000000000000009999123100000010000000000000BRNAVTCTF015134
012024012212NCHB11      010FII NCH BR  CI  EB       R$  000000000092300000000009330000000000919000000000092300000000009190000000000919000000000092100545000000000000033312000000000030764838000000000000009999123100000010000000000000BRNCHBCTF000225
012024012212NCRI11      010FII NAVI CRICI           R$  000000000093400000000009790000000000915000000000092300000000009740000000000916000000000097400044000000000000000479000000000000442543000000000000009999123100000010000000000000BRNCRICTF004113
012024012212ABCP11      010FII ABC IMOBCI           R$  000000000740900000000074360000000007366000000000739900000000073790000000007379000000000740900155000000000000001151000000000008517255000000000000009999123100000010000000000000BRABCPCTF000334
012024012212CNES11      010FII CENESP  CI           R$  000000000247900000000024790000000002314000000000236400000000023220000000002321000000000234900015000000000000000042000000000000099289000000000000009999123100000010000000000000BRCNESCTF001253
012024012212HCHG11      010FII HECT CRICI           R$  000000000769000000000076900000000007600000000000761700000000076690000000007600000000000766900003000000000000000009000000000000068559000000000000009999123100000010000000000000BRHCHGCTF001132
012024012212HCRI11      010FII CRIANCA CI  ER       R$  000000003048700000000304880000000030372000000003044500000000304830000000030373000000003048200027000000000000000122000000000003714385000000000000009999123100000010000000000000BRHCRICTF006324
012024012212HCTR11      010FII HECTARE CI           R$  000000000382800000000038350000000003760000000000378200000000037800000000003780000000000378503333000000000000037424000000000141548420000000000000009999123100000010000000000000BRHCTRCTF003165
012024012212HFOF11      010FII HTOPFOF3CI           R$  000000000780000000000078150000000007769000000000780100000000078130000000007805000000000781306362000000000000024651000000000192316709000000000000009999123100000010000000000000BRHFOFCTF002184
012024012212PLCR11      010FII PLURAL RCI           R$  000000000880000000000088000000000008760000000000877500000000087700000000008766000000000877000234000000000000003782000000000033187183000000000000009999123100000010000000000000BRPLCRCTF003150
012024012212PLRI11      010FII POLO I  CI           R$  000000000160000000000016000000000001600000000000160000000000016000000000001600000000000163900001000000000000000024000000000000038400000000000000009999123100000010000000000000BRPLRICTF000239
012024012212EDGA11      010FII GALERIA CI           R$  000000000215100000000021510000000002106000000000211200000000021190000000002110000000000211900031000000000000000211000000000000445658000000000000009999123100000010000000000000BREDGACTF001236
012024012212GSFI11      010FII GENERAL CI           R$  000000000079000000000007900000000000782000000000078400000000007900000000000787000000000079000135000000000000098068000000000076981601000000000000009999123100000010000000000000BRGSFICTF009101
012024012212GTWR11      010FII G TOWERSCI           R$  000000000871200000000087160000000008620000000000864700000000086280000000008628000000000865904091000000000000012816000000000110828885000000000000009999123100000010000000000000BRGTWRCTF003158
