00COTAHIST.2024BOVESPA 20240226                                                                                                                                                                                                                      
012024022602DXCO3       010DEXCO       ON      NM   R$  000000000080300000000008090000000000758000000000077200000000007580000000000757000000000075810875000000000004764900000000003683120600000000000000009999123100000010000000000000BRDXCOACNOR8104
012024022602EALT3       010ACO ALTONA  ON           R$  000000000094000000000009600000000000940000000000095300000000009600000000000940000000000097500006000000000000001000000000000000953000000000000000009999123100000010000000000000BREALTACNOR4137
012024022602EALT4       010ACO ALTONA  PN           R$  000000000101100000000011000000000001007000000000103500000000010860000000001011000000000108300026000000000000007200000000000007455900000000000000009999123100000010000000000000BREALTACNPR1137
012024022602ECOR3       010ECORODOVIAS ON      NM   R$  000000000090500000000009460000000000905000000000092400000000009130000000000912000000000091504391000000000002501800000000002312644300000000000000009999123100000010000000000000BRECORACNOR8119
012024022602GRND3       010GRENDENE    ON      NM   R$  000000000065000000000006530000000000636000000000064100000000006370000000000637000000000063902316000000000000776700000000000498268900000000000000009999123100000010000000000000BRGRNDACNOR3172
012024022602GUAR3       010GUARARAPES  ON      NM   R$  000000000057900000000005820000000000562000000000057000000000005690000000000566000000000056903771000000000001419700000000000809861400000000000000009999123100000010000000000000BRGUARACNOR4172
012024022602HAGA4       010HAGA S/A    PN           R$  000000000010500000000001050000000000103000000000010400000000001050000000000103000000000010500021000000000000030200000000000003151400000000000000009999123100000010000000000000BRHAGAACNPR4103
012024022602HAPV3       010HAPVIDA     ON      NM   R$  000000000035700000000003630000000000353000000000035700000000003580000000000358000000000035917343000000000027303700000000009763342800000000000000009999123100000010000000000000BRHAPVACNOR4113
012024022602HBOR3       010HELBOR      ON      NM   R$  000000000028800000000002950000000000284000000000029000000000002900000000000290000000000029100477000000000000382200000000000111004400000000000000009999123100000010000000000000BRHBORACNOR3117
012024022602KLBN11      010KLABIN S/A  UNT ED  N2   R$  000000000217200000000022150000000002161000000000219500000000022020000000002201000000000220506615000000000002143900000000004707690000000000000000009999123100000010000000000000BRKLBNCDAM18140
012024022602KLBN3       010KLABIN S/A  ON  ED  N2   R$  000000000043400000000004430000000000432000000000043800000000004390000000000439000000000044301210000000000000467800000000000205010500000000000000009999123100000010000000000000BRKLBNACNOR2168
012024022602KLBN4       010KLABIN S/A  PN  ED  N2   R$  000000000043200000000004420000000000430000000000043800000000004420000000000441000000000044203469000000000001910200000000000837225400000000000000009999123100000010000000000000BRKLBNACNPR9168
012024022602BSLI3       010BRB BANCO   ON           R$  000000000122700000000012490000000001226000000000123100000000012490000000001130000000000124800005000000000000000500000000000000615700000000000000009999123100000010000000000000BRBSLIACNOR5192
012024022602BSLI4       010BRB BANCO   PN           R$  000000000117200000000011720000000001172000000000117200000000011720000000001135000000000116700001000000000000000100000000000000117200000000000000009999123100000010000000000000BRBSLIACNPR2192
012024022602CXSE3       010CAIXA SEGURION      NM   R$  000000000147700000000014900000000001461000000000147900000000014770000000001476000000000147713625000000000004348400000000006431854500000000000000009999123100000010000000000000BRCXSEACNOR7105
012024022602UCAS3       010UNICASA     ON      NM   R$  000000000026300000000002650000000000261000000000026200000000002610000000000260000000000026500048000000000000007500000000000001968300000000000000009999123100000010000000000000BRUCASACNOR1113
012024022602UGPA3       010ULTRAPAR    ON      NM   R$  000000000304000000000030870000000003040000000000306900000000030870000000003077000000000308713113000000000003410300000000010467637800000000000000009999123100000010000000000000BRUGPAACNOR8154
012024022602UNIP3       010UNIPAR      ON           R$  000000000633800000000063830000000006290000000000632700000000062900000000006288000000000634200042000000000000004400000000000027839100000000000000009999123100000010000000000000BRUNIPACNOR7204
012024022602UNIP6       010UNIPAR      PNB          R$  000000000667100000000067680000000006653000000000670900000000066900000000006690000000000671900575000000000000113500000000000761543500000000000000009999123100000010000000000000BRUNIPACNPB8204
012024022602USIM3       010USIMINAS    ON      N1   R$  000000000104400000000010540000000001035000000000104800000000010510000000001044000000000105101889000000000001294600000000001357576100000000000000009999123100000010000000000000BRUSIMACNOR3166
012024022602USIM5       010USIMINAS    PNA     N1   R$  000000000105800000000010800000000001054000000000106700000000010670000000001066000000000106712001000000000013929700000000014865790600000000000000009999123100000010000000000000BRUSIMACNPA6168
012024022602CYRE3       010CYRELA REALTON      NM   R$  000000000227900000000023280000000002273000000000229500000000022890000000002288000000000229504640000000000001900300000000004362013300000000000000009999123100000010000000000000BRCYREACNOR7139
012024022602GGPS3       010GPS         ON      NM   R$  000000000182100000000018360000000001803000000000181600000000018090000000001808000000000181301780000000000000615000000000001117127800000000000000009999123100000010000000000000BRGGPSACNOR9102
012024022602GMAT3       010GRUPO MATEUSON      NM   R$  000000000079300000000008120000000000791000000000080600000000008090000000000807000000000080907197000000000003586800000000002891294300000000000000009999123100000010000000000000BRGMATACNOR7100
012024022602GOAU3       010GERDAU MET  ON      N1   R$  000000000101100000000010150000000001001000000000100800000000010090000000001008000000000101200297000000000000079200000000000079846900000000000000009999123100000010000000000000BRGOAUACNOR1265
012024022602GOAU4       010GERDAU MET  PN      N1   R$  000000000100100000000010050000000000991000000000099600000000009970000000000996000000000099708669000000000005679100000000005659771700000000000000009999123100000010000000000000BRGOAUACNPR8266
012024022602FESA4       010FERBASA     PN      N1   R$  000000000097000000000009700000000000952000000000095700000000009560000000000953000000000095701565000000000000389100000000000372650400000000000000009999123100000010000000000000BRFESAACNPR5083
012024022602FHER3       010FER HERINGERON      NM   R$  000000000058100000000005990000000000577000000000058200000000005800000000000577000000000058000024000000000000007500000000000004368900000000000000009999123100000010000000000000BRFHERACNOR5103
012024022602FIQE3       010UNIFIQUE    ON      NM   R$  000000000040500000000004050000000000397000000000040000000000004000000000000397000000000040000343000000000000103800000000000041571500000000000000009999123100000010000000000000BRFIQEACNOR5106
012024022602ODPV3       010ODONTOPREV  ON      NM   R$  000000000128000000000012800000000001213000000000122200000000012150000000001211000000000121903752000000000001092100000000001335245600000000000000009999123100000010000000000000BRODPVACNOR4198
012024022602OFSA3       010OUROFINO S/AON      NM   R$  000000000210000000000021150000000002100000000000210300000000021150000000002079000000000217400003000000000000000900000000000001893000000000000000009999123100000010000000000000BROFSAACNOR7117
012024022602KRSA3       010KORA SAUDE  ON      NM   R$  000000000009100000000000920000000000089000000000009000000000000890000000000089000000000009000269000000000000264400000000000023814300000000000000009999123100000010000000000000BRKRSAACNOR0100
012024022602LAND3       010TERRASANTAPAON      NM   R$  000000000159000000000016240000000001563000000000158200000000015880000000001588000000000162000117000000000000042000000000000066470300000000000000009999123100000010000000000000BRLANDACNOR9102
012024022602LAVV3       010LAVVI       ON      NM   R$  000000000078800000000008070000000000778000000000079500000000008000000000000795000000000080001896000000000000754400000000000600370000000000000000009999123100000010000000000000BRLAVVACNOR4110
012024022602LEVE3       010METAL LEVE  ON      NM   R$  000000000349300000000035670000000003476000000000352800000000035200000000003520000000000353601605000000000000390200000000001376836100000000000000009999123100000010000000000000BRLEVEACNOR2196
012024022602LJQQ3       010QUERO-QUERO ON      NM   R$  000000000052100000000005230000000000508000000000051400000000005180000000000517000000000051803092000000000001579400000000000813281400000000000000009999123100000010000000000000BRLJQQACNOR5104
012024022602ONCO3       010ONCOCLINICASON      NM   R$  000000000099400000000010110000000000990000000000099900000000010020000000000995000000000100202443000000000003679500000000003677096700000000000000009999123100000010000000000000BRONCOACNOR6100
012024022602OPCT3       010OCEANPACT   ON      NM   R$  000000000053800000000005470000000000534000000000054000000000005470000000000542000000000054701440000000000000444400000000000240213700000000000000009999123100000010000000000000BROPCTACNOR0100
012024022602ORVR3       010ORIZON      ON      NM   R$  000000000327100000000033090000000003266000000000329700000000032990000000003295000000000330000858000000000000159500000000000525896900000000000000009999123100000010000000000000BRORVRACNOR0101
012024022602PCAR3       010P.ACUCAR-CBDON      NM   R$  000000000037800000000003870000000000350000000000036300000000003500000000000350000000000035113422000000000015645700000000005693163800000000000000009999123100000010000000000000BRPCARACNOR3167
012024022602BIOM3       010BIOMM       ON      MA   R$  000000000099400000000012220000000000961000000000115700000000011570000000001157000000000117801231000000000000311200000000000360092200000000000000009999123100000010000000000000BRBIOMACNOR2112
012024022602BLAU3       010BLAU        ON      NM   R$  000000000124000000000012400000000001201000000000121200000000012190000000001210000000000122001691000000000000227700000000000276192700000000000000009999123100000010000000000000BRBLAUACNOR8111
012024022602BRSR3       010BANRISUL    ON      N1   R$  000000000149400000000015290000000001491000000000151000000000015000000000001493000000000151400014000000000000001800000000000002719500000000000000009999123100000010000000000000BRBRSRACNOR3185
012024022602BRSR5       010BANRISUL    PNA     N1   R$  000000000184600000000018460000000001846000000000184600000000018460000000000000000000000184700001000000000000000100000000000000184600000000000000009999123100000010000000000000BRBRSRACNPA6189
012024022602BRSR6       010BANRISUL    PNB     N1   R$  000000000150900000000015210000000001503000000000151100000000015210000000001517000000000152202302000000000000553100000000000836253900000000000000009999123100000010000000000000BRBRSRACNPB4188
012024022602FLRY3       010FLEURY      ON      NM   R$  000000000157200000000015860000000001564000000000157500000000015780000000001578000000000158205751000000000002045600000000003223225100000000000000009999123100000010000000000000BRFLRYACNOR5137
012024022602FRAS3       010FRAS-LE     ON      N1   R$  000000000163700000000016530000000001625000000000164600000000016460000000001645000000000165400891000000000000187300000000000308479800000000000000009999123100000010000000000000BRFRASACNOR0158
012024022602FRIO3       010METALFRIO   ON      NM   R$  000000003411000000000350000000000034110000000003477700000000350000000000034100000000003700000004000000000000000400000000000013911000000000000000009999123100000010000000000000BRFRIOACNOR2111
012024022602PTBL3       010PORTOBELLO  ON      NM   R$  000000000058200000000005920000000000571000000000058000000000005760000000000576000000000057901046000000000000351800000000000204311900000000000000009999123100000010000000000000BRPTBLACNOR8132
012024022602PTNT3       010PETTENATI   ON           R$  000000000119400000000012400000000001180000000000120400000000012400000000001141000000000123000003000000000000000300000000000000361400000000000000009999123100000010000000000000BRPTNTACNOR6042
012024022602PTNT4       010PETTENATI   PN           R$  000000000075500000000007650000000000746000000000075800000000007520000000000743000000000076900009000000000000001400000000000001061300000000000000009999123100000010000000000000BRPTNTACNPR3047
012024022602QUAL3       010QUALICORP   ON      NM   R$  000000000022900000000002350000000000225000000000022900000000002310000000000231000000000023202783000000000002826600000000000649806000000000000000009999123100000010000000000000BRQUALACNOR6119
012024022602SRNA3       010SERENA      ON      NM   R$  000000000096600000000009710000000000926000000000095500000000009260000000000925000000000092802023000000000001251600000000001195281900000000000000009999123100000010000000000000BRSRNAACNOR4100
012024022602STBP3       010SANTOS BRP  ON      NM   R$  000000000106000000000010700000000001055000000000106300000000010640000000001063000000000106508740000000000002360700000000002509936000000000000000009999123100000010000000000000BRSTBPACNOR3128
012024022602SUZB3       010SUZANO S.A. ON      NM   R$  000000000554100000000056150000000005493000000000556500000000056120000000005600000000000561311113000000000003560300000000019813364100000000000000009999123100000010000000000000BRSUZBACNOR0129
012024022602PINE3       010PINE        ON      N2   R$  000000000079900000000009300000000000799000000000087300000000009300000000000851000000000000000044000000000000006300000000000005499900000000000000009999123100000010000000000000BRPINEACNOR1148
012024022602PINE4       010PINE        PN      N2   R$  000000000046800000000004680000000000450000000000045800000000004530000000000453000000000045400306000000000000234800000000000107640000000000000000009999123100000010000000000000BRPINEACNPR8148
012024022602PLPL3       010PLANOEPLANO ON      NM   R$  000000000129000000000013340000000001275000000000131800000000013250000000001325000000000132801601000000000000452800000000000596908600000000000000009999123100000010000000000000BRPLPLACNOR5104
012024022602PNVL3       010DIMED       ON      NM   R$  000000000116700000000011810000000001160000000000117300000000011690000000001169000000000117300886000000000000147000000000000172542800000000000000009999123100000010000000000000BRPNVLACNOR9205
012024022602POMO3       010MARCOPOLO   ON      N2   R$  000000000064500000000006700000000000640000000000066100000000006680000000000667000000000066802732000000000001136200000000000751363600000000000000009999123100000010000000000000BRPOMOACNOR0095
012024022602POMO4       010MARCOPOLO   PN      N2   R$  000000000080000000000008290000000000795000000000081900000000008210000000000821000000000082313438000000000007139000000000005847520300000000000000009999123100000010000000000000BRPOMOACNPR7095
012024022602PORT3       010WILSON SONS ON      NM   R$  000000000169000000000017160000000001685000000000170400000000017000000000001700000000000171101264000000000000336600000000000573837200000000000000009999123100000010000000000000BRPORTACNOR8106
012024022602POSI3       010POSITIVO TECON      NM   R$  000000000077400000000007900000000000762000000000077400000000007750000000000771000000000077501758000000000000617000000000000477881200000000000000009999123100000010000000000000BRPOSIACNOR9115
012024022602PRIO3       010PETRORIO    ON      NM   R$  000000000455600000000046500000000004532000000000459600000000045860000000004585000000000458812621000000000004394700000000020199856600000000000000009999123100000010000000000000BRPRIOACNOR1106
012024022602SLCE3       010SLC AGRICOLAON      NM   R$  000000000193700000000019590000000001930000000000193900000000019370000000001936000000000194004879000000000001128200000000002187680400000000000000009999123100000010000000000000BRSLCEACNOR2124
012024022602CSAN3       010COSAN       ON      NM   R$  000000000177400000000018000000000001772000000000179000000000017940000000001791000000000179409057000000000004320200000000007734459200000000000000009999123100000010000000000000BRCSANACNOR6124
012024022602ESPA3       010ESPACOLASER ON      NM   R$  000000000010100000000001020000000000099000000000009900000000000990000000000098000000000009900447000000000000532200000000000053060800000000000000009999123100000010000000000000BRESPAACNOR7103
012024022602ESTR4       010ESTRELA     PN           R$  000000000029300000000002930000000000275000000000028000000000002750000000000250000000000027500010000000000000001900000000000000533700000000000000009999123100000010000000000000BRESTRACNPR0144
012024022602EUCA3       010EUCATEX     ON      N1   R$  000000000161000000000016100000000001610000000000161000000000016100000000001610000000000168900001000000000000000100000000000000161000000000000000009999123100000010000000000000BREUCAACNOR1157
012024022602EUCA4       010EUCATEX     PN      N1   R$  000000000168300000000016830000000001658000000000167300000000016790000000001666000000000168000122000000000000023800000000000039823600000000000000009999123100000010000000000000BREUCAACNPR8044
012024022602EVEN3       010EVEN        ON      NM   R$  000000000080400000000008060000000000790000000000079600000000007950000000000795000000000079902387000000000000462100000000000368199900000000000000009999123100000010000000000000BREVENACNOR8118
012024022602EZTC3       010EZTEC       ON      NM   R$  000000000168400000000017050000000001668000000000168300000000016750000000001675000000000168505700000000000001536600000000002586934400000000000000009999123100000010000000000000BREZTCACNOR0123
012024022602ITSA3       010ITAUSA      ON  ED  N1   R$  000000000103100000000010390000000001030000000000103500000000010330000000001033000000000103800325000000000000085200000000000088190500000000000000009999123100000010000000000000BRITSAACNOR0437
012024022602ITSA4       010ITAUSA      PN  ED  N1   R$  000000000103200000000010400000000001026000000000103200000000010310000000001031000000000103216108000000000020967900000000021653667800000000000000009999123100000010000000000000BRITSAACNPR7437
012024022602ITUB3       010ITAUUNIBANCOON  ED  N1   R$  000000000296500000000029790000000002946000000000296100000000029620000000002962000000000296801381000000000000355900000000001054051100000000000000009999123100000010000000000000BRITUBACNOR4331
012024022602ITUB4       010ITAUUNIBANCOPN  ED  N1   R$  000000000342900000000034440000000003416000000000343400000000034360000000003432000000000343618079000000000013553700000000046545578600000000000000009999123100000010000000000000BRITUBACNPR1331
012024022602SBFG3       010GRUPO SBF   ON      NM   R$  000000000126000000000012670000000001234000000000125200000000012550000000001250000000000125901794000000000000593900000000000744139300000000000000009999123100000010000000000000BRSBFGACNOR1102
012024022602SBSP3       010SABESP      ON      NM   R$  000000000802300000000081140000000008006000000000804400000000080260000000008024000000000802808949000000000001920100000000015446372300000000000000009999123100000010000000000000BRSBSPACNOR5160
012024022602SCAR3       010SAO CARLOS  ON      NM   R$  000000000262200000000026580000000002480000000000251000000000026580000000002487000000000265800128000000000000103900000000000260835900000000000000009999123100000010000000000000BRSCARACNOR7130
012024022602SEER3       010SER EDUCA   ON      NM   R$  000000000061600000000006250000000000607000000000061500000000006070000000000607000000000061201282000000000000322100000000000198176100000000000000009999123100000010000000000000BRSEERACNOR5119
012024022602SEQL3       010SEQUOIA LOG ON      NM   R$  000000000004700000000000490000000000044000000000004600000000000450000000000045000000000004604195000000000020721100000000000962893300000000000000009999123100000010000000000000BRSEQLACNOR2101
012024022602SGPS3       010SPRINGS     ON      NM   R$  000000000010000000000001010000000000097000000000009800000000000980000000000097000000000009800128000000000000194200000000000019119700000000000000009999123100000010000000000000BRSGPSACNOR4104
012024022602SHOW3       010TIME FOR FUNON      NM   R$  000000000020100000000002030000000000197000000000020000000000002020000000000197000000000020201072000000000000347400000000000069513700000000000000009999123100000010000000000000BRSHOWACNOR7105
012024022602SHUL4       010SCHULZ      PN           R$  000000000067900000000006790000000000668000000000067400000000006700000000000670000000000067401233000000000000247400000000000166760700000000000000009999123100000010000000000000BRSHULACNPR4154
012024022602SIMH3       010SIMPAR      ON      NM   R$  000000000076100000000007800000000000753000000000077200000000007670000000000766000000000076804744000000000002274400000000001757703400000000000000009999123100000010000000000000BRSIMHACNOR0107
012024022602RSUL4       010RIOSULENSE  PN           R$  000000000809900000000080990000000007907000000000800900000000080560000000007600000000000814800017000000000000001700000000000013616900000000000000009999123100000010000000000000BRRSULACNPR3113
012024022602VITT3       010VITTIA      ON      NM   R$  000000000073100000000007400000000000714000000000073000000000007360000000000736000000000073901527000000000000270200000000000197371400000000000000009999123100000010000000000000BRVITTACNOR4106
012024022602VIVA3       010VIVARA S.A. ON      NM   R$  000000000328500000000033750000000003279000000000334600000000033510000000003347000000000335207146000000000001543200000000005164814400000000000000009999123100000010000000000000BRVIVAACNOR0106
012024022602VIVR3       010VIVER       ON      NM   R$  000000000035700000000003590000000000338000000000034400000000003460000000000345000000000034700213000000000000088700000000000030581400000000000000009999123100000010000000000000BRVIVRACNOR4122
012024022602VIVT3       010TELEF BRASILON           R$  000000000551900000000055260000000005440000000000547000000000054700000000005462000000000547011952000000000002476000000000013545910100000000000000009999123100000010000000000000BRVIVTACNOR0178
012024022602VLID3       010VALID       ON      NM   R$  000000000189200000000019240000000001881000000000190200000000019040000000001896000000000190400928000000000000184600000000000351209100000000000000009999123100000010000000000000BRVLIDACNOR5141
012024022602VSTE3       010VESTE       ON      NM   R$  000000000141800000000014380000000001378000000000140700000000014020000000001401000000000143700012000000000000001300000000000001830300000000000000009999123100000010000000000000BRVSTEACNOR5102
012024022602VULC3       010VULCABRAS   ON      NM   R$  000000000187100000000019190000000001864000000000187700000000018780000000001873000000000187804348000000000001561100000000002931026400000000000000009999123100000010000000000000BRVULCACNOR2157
012024022602VVEO3       010VIVEO       ON      NM   R$  000000000080900000000008380000000000798000000000082100000000008310000000000825000000000083203096000000000001638700000000001346933300000000000000009999123100000010000000000000BRVVEOACNOR0103
012024022602SANB11      010SANTANDER BRUNT          R$  000000000285200000000028600000000002836000000000284800000000028390000000002839000000000284404984000000000002251200000000006411852200000000000000009999123100000010000000000000BRSANBCDAM13163
012024022602SANB3       010SANTANDER BRON           R$  000000000133100000000013440000000001331000000000133700000000013340000000001334000000000133900318000000000000045100000000000060326800000000000000009999123100000010000000000000BRSANBACNOR8170
012024022602SANB4       010SANTANDER BRPN           R$  000000000153000000000015300000000001501000000000150900000000015080000000001506000000000151100384000000000000101800000000000153704600000000000000009999123100000010000000000000BRSANBACNPR5170
012024022602SAPR11      010SANEPAR     UNT     N2   R$  000000000258000000000026020000000002559000000000257600000000025710000000002570000000000258401793000000000000470900000000001213096000000000000000009999123100000010000000000000BRSAPRCDAM13117
012024022602SAPR3       010SANEPAR     ON      N2   R$  000000000049900000000005010000000000494000000000049600000000004960000000000496000000000049900516000000000000131800000000000065499500000000000000009999123100000010000000000000BRSAPRACNOR9158
012024022602SAPR4       010SANEPAR     PN      N2   R$  000000000051900000000005230000000000515000000000051800000000005150000000000515000000000051802178000000000001103300000000000571682700000000000000009999123100000010000000000000BRSAPRACNPR6158
012024022602VALE3       010VALE        ON      NM   R$  000000000665400000000066550000000006545000000000657900000000065750000000006575000000000657657448000000000033864400000000222797197800000000000000009999123100000010000000000000BRVALEACNOR0209
012024022602BEES3       010BANESTES    ON           R$  000000000095500000000009600000000000954000000000095500000000009540000000000953000000000096000065000000000000013500000000000012898100000000000000009999123100000010000000000000BRBEESACNOR9387
012024022602BEES4       010BANESTES    PN           R$  000000000101000000000010100000000000995000000000100300000000010040000000000999000000000100400029000000000000003400000000000003412200000000000000009999123100000010000000000000BRBEESACNPR6312
012024022602BGIP3       010BANESE      ON           R$  000000000273200000000031000000000002732000000000290300000000028010000000002800000000000309900010000000000000001000000000000002903500000000000000009999123100000010000000000000BRBGIPACNOR1206
012024022602IFCM3       010INFRACOMM   ON      NM   R$  000000000013800000000001400000000000135000000000013700000000001360000000000135000000000013604569000000000005239800000000000719520600000000000000009999123100000010000000000000BRIFCMACNOR8101
012024022602IGTI11      010IGUATEMI S.AUNT ED  N1   R$  000000000233300000000023710000000002316000000000234100000000023320000000002331000000000233911311000000000002165000000000005069684600000000000000009999123100000010000000000000BRIGTICDAM16105
012024022602IGTI3       010IGUATEMI S.AON  ED  N1   R$  000000000028700000000002930000000000287000000000029100000000002920000000000289000000000029200138000000000000064400000000000018749800000000000000009999123100000010000000000000BRIGTIACNOR8105
012024022602IGTI4       010IGUATEMI S.APN  ED  N1   R$  000000000101800000000010330000000001011000000000102800000000010200000000000009000000000108000012000000000000002000000000000002057800000000000000009999123100000010000000000000BRIGTIACNPR5105
012024022602INEP3       010INEPAR      ON           R$  000000000037800000000003810000000000366000000000037000000000003660000000000366000000000036900107000000000000039200000000000014533100000000000000009999123100000010000000000000BRINEPACNOR1143
012024022602INEP4       010INEPAR      PN           R$  000000000031700000000003240000000000311000000000031700000000003140000000000311000000000031400109000000000000025100000000000007967100000000000000009999123100000010000000000000BRINEPACNPR8143
012024022602INTB3       010INTELBRAS   ON      NM   R$  000000000212000000000021590000000002100000000000214600000000021440000000002140000000000215006193000000000001325600000000002845156200000000000000009999123100000010000000000000BRINTBACNOR9109
012024022602LVTC3       010WDC NETWORKSON      NM   R$  000000000039000000000003950000000000384000000000039200000000003920000000000388000000000039200077000000000000017600000000000006914300000000000000009999123100000010000000000000BRLVTCACNOR4102
012024022602LWSA3       010LWSA        ON      NM   R$  000000000054400000000005590000000000541000000000055100000000005520000000000551000000000055404431000000000003405100000000001878865900000000000000009999123100000010000000000000BRLWSAACNOR8103
012024022602CMIG3       010CEMIG       ON      N1   R$  000000000150500000000015200000000001500000000000150600000000015010000000001501000000000151001208000000000000308600000000000465029700000000000000009999123100000010000000000000BRCMIGACNOR6239
012024022602CMIG4       010CEMIG       PN      N1   R$  000000000116000000000011680000000001157000000000116300000000011640000000001163000000000116609792000000000008798500000000010233804400000000000000009999123100000010000000000000BRCMIGACNPR3240
012024022602CMIN3       010CSNMINERACAOON      N2   R$  000000000061300000000006200000000000606000000000061200000000006180000000000616000000000061808487000000000007280300000000004455890100000000000000009999123100000010000000000000BRCMINACNOR2110
012024022602COCE3       010COELCE      ON           R$  000000000509900000000050990000000005099000000000509900000000050990000000004000000000000509900001000000000000000100000000000000509900000000000000009999123100000010000000000000BRCOCEACNOR0145
012024022602COCE5       010COELCE      PNA          R$  000000000446500000000045700000000004465000000000454800000000045700000000004488000000000457000138000000000000027700000000000125984600000000000000009999123100000010000000000000BRCOCEACNPA3146
012024022602ELMD3       010ELETROMIDIA ON      NM   R$  000000000168100000000017220000000001656000000000168700000000016560000000001652000000000168700325000000000000051400000000000086759700000000000000009999123100000010000000000000BRELMDACNOR3100
012024022602EMAE4       010EMAE        PN           R$  000000000628700000000064300000000006287000000000638000000000064020000000006270000000000640000022000000000000003700000000000023606000000000000000009999123100000010000000000000BREMAEACNPR1124
012024022602EMBR3       010EMBRAER     ON      NM   R$  000000000226700000000023130000000002260000000000228200000000022840000000002280000000000228605723000000000004710200000000010750100100000000000000009999123100000010000000000000BREMBRACNOR4191
012024022602BGIP4       010BANESE      PN           R$  000000000271100000000029400000000002700000000000282900000000028800000000002820000000000288000110000000000000019000000000000053756000000000000000009999123100000010000000000000BRBGIPACNPR8206
012024022602BRBI11      010BR PARTNERS UNT     N2   R$  000000000155100000000015850000000001535000000000155900000000015350000000001535000000000156301080000000000000287600000000000448373800000000000000009999123100000010000000000000BRBRBICDAM10107
012024022602BRFS3       010BRF SA      ON      NM   R$  000000000135100000000014270000000001350000000000140300000000014010000000001400000000000140320971000000000014325100000000020099932700000000000000009999123100000010000000000000BRBRFSACNOR8121
012024022602CSED3       010CRUZEIRO EDUON      NM   R$  000000000042500000000004340000000000420000000000042900000000004310000000000428000000000043200514000000000000172900000000000074221100000000000000009999123100000010000000000000BRCSEDACNOR9104
012024022602CSMG3       010COPASA      ON      NM   R$  000000000209500000000021300000000002086000000000210300000000020880000000002088000000000209803313000000000000843800000000001774821100000000000000009999123100000010000000000000BRCSMGACNOR5171
012024022602CSNA3       010SID NACIONALON           R$  000000000173700000000017510000000001701000000000172200000000017170000000001716000000000171817656000000000009731600000000016763165000000000000000009999123100000010000000000000BRCSNAACNOR6260
012024022602AGXY3       010AGROGALAXY  ON      NM   R$  000000000016700000000001740000000000165000000000016800000000001690000000000169000000000017100437000000000000297500000000000050256700000000000000009999123100000010000000000000BRAGXYACNOR4102
012024022602ALLD3       010ALLIED      ON      NM   R$  000000000068700000000006910000000000681000000000068400000000006910000000000688000000000069300022000000000000007000000000000004790700000000000000009999123100000010000000000000BRALLDACNOR3105
012024022602ALOS3       010ALLOS       ON      NM   R$  000000000238500000000024280000000002384000000000240400000000024050000000002400000000000240507804000000000002262400000000005439980400000000000000009999123100000010000000000000BRALOSACNOR5100
012024022602ALPA3       010ALPARGATAS  ON      N1   R$  000000000102900000000010500000000000982000000000100600000000010500000000000926000000000107900120000000000000013800000000000013894300000000000000009999123100000010000000000000BRALPAACNOR0231
012024022602ALPA4       010ALPARGATAS  PN      N1   R$  000000000100100000000010270000000000978000000000100200000000010170000000001016000000000101707609000000000004585600000000004596679600000000000000009999123100000010000000000000BRALPAACNPR7232
012024022602CLSA3       010CLEARSALE   ON      NM   R$  000000000040800000000004160000000000391000000000040000000000003910000000000390000000000039105144000000000001654000000000000662344700000000000000009999123100000010000000000000BRCLSAACNOR0100
012024022602CLSC3       010CELESC      ON      N2   R$  000000000665000000000066500000000006300000000000644600000000063000000000006318000000000694800006000000000000000700000000000004512300000000000000009999123100000010000000000000BRCLSCACNOR6149
012024022602CLSC4       010CELESC      PN      N2   R$  000000000667000000000067880000000006604000000000675200000000067850000000006606000000000678500035000000000000005600000000000037815900000000000000009999123100000010000000000000BRCLSCACNPR3128
012024022602TAEE11      010TAESA       UNT     N2   R$  000000000352000000000035320000000003491000000000350800000000035060000000003505000000000351806332000000000001551100000000005442309300000000000000009999123100000010000000000000BRTAEECDAM10145
012024022602TAEE3       010TAESA       ON      N2   R$  000000000116400000000011640000000001151000000000115600000000011560000000001156000000000115900820000000000000136200000000000157479300000000000000009999123100000010000000000000BRTAEEACNOR9145
012024022602TAEE4       010TAESA       PN      N2   R$  000000000118000000000011850000000001171000000000117700000000011800000000001180000000000118100906000000000000250200000000000294524200000000000000009999123100000010000000000000BRTAEEACNPR6145
012024022602VAMO3       010VAMOS       ON      NM   R$  000000000086900000000008830000000000861000000000087600000000008820000000000877000000000088209415000000000006661000000000005840278700000000000000009999123100000010000000000000BRVAMOACNOR7105
012024022602VBBR3       010VIBRA       ON      NM   R$  000000000256900000000026080000000002552000000000258500000000025900000000002587000000000259008635000000000006178100000000015972118100000000000000009999123100000010000000000000BRVBBRACNOR1106
012024022602PRNR3       010PRINER      ON      NM   R$  000000000114400000000011580000000001106000000000113100000000011480000000001148000000000115001742000000000000535800000000000606064400000000000000009999123100000010000000000000BRPRNRACNOR4108
012024022602PSSA3       010PORTO SEGUROON      NM   R$  000000000267500000000026930000000002665000000000267700000000026700000000002669000000000267005539000000000001424200000000003813149300000000000000009999123100000010000000000000BRPSSAACNOR7153
012024022602ALPK3       010ESTAPAR     ON      NM   R$  000000000047100000000004740000000000452000000000045900000000004570000000000455000000000045700374000000000000103500000000000047528900000000000000009999123100000010000000000000BRALPKACNOR9101
012024022602ALUP11      010ALUPAR      UNT     N2   R$  000000000299000000000030140000000002970000000000298600000000029840000000002971000000000298401734000000000000395700000000001181885500000000000000009999123100000010000000000000BRALUPCDAM15117
012024022602ALUP3       010ALUPAR      ON      N2   R$  000000000099900000000010050000000000987000000000099500000000009940000000000980000000000099800045000000000000006600000000000006570000000000000000009999123100000010000000000000BRALUPACNOR8117
012024022602ALUP4       010ALUPAR      PN      N2   R$  000000000099800000000010040000000000975000000000099200000000009810000000000981000000000099800069000000000000010200000000000010126500000000000000009999123100000010000000000000BRALUPACNPR5117
012024022602AMAR3       010LOJAS MARISAON      NM   R$  000000000023200000000002340000000000223000000000022900000000002280000000000227000000000022901593000000000000752600000000000172523000000000000000009999123100000010000000000000BRAMARACNOR4114
012024022602AMBP3       010AMBIPAR     ON      NM   R$  000000000153700000000015460000000001489000000000150700000000015000000000001500000000000150602412000000000000689700000000001039954400000000000000009999123100000010000000000000BRAMBPACNOR6103
012024022602ANIM3       010ANIMA       ON      NM   R$  000000000045600000000004730000000000456000000000046700000000004700000000000469000000000047206243000000000003224200000000001507328600000000000000009999123100000010000000000000BRANIMACNOR6107
012024022602APER3       010ALPER S.A.  ON           R$  000000000444900000000044490000000004414000000000441700000000044140000000004414000000000450000016000000000000002300000000000010160600000000000000009999123100000010000000000000BRAPERACNOR9106
012024022602ARML3       010ARMAC       ON      NM   R$  000000000130100000000013090000000001275000000000129200000000012820000000001282000000000128402172000000000000379700000000000490912500000000000000009999123100000010000000000000BRARMLACNOR1110
012024022602ARZZ3       010AREZZO CO   ON      NM   R$  000000000599700000000060250000000005761000000000585000000000058290000000005826000000000583014018000000000003189500000000018661336400000000000000009999123100000010000000000000BRARZZACNOR3146
012024022602BPAC11      010BTGP BANCO  UNT     N2   R$  000000000369000000000037300000000003669000000000369900000000036950000000003695000000000370009943000000000003837500000000014196349100000000000000009999123100000010000000000000BRBPACUNT006118
012024022602COGN3       010COGNA ON    ON      NM   R$  000000000023600000000002410000000000236000000000023800000000002380000000000238000000000023909271000000000016307200000000003887473600000000000000009999123100000010000000000000BRCOGNACNOR2104
012024022602LOGG3       010LOG COM PROPON      NM   R$  000000000207100000000021320000000002071000000000210000000000020910000000002091000000000210400785000000000000199600000000000419350900000000000000009999123100000010000000000000BRLOGGACNOR7107
012024022602LOGN3       010LOG-IN      ON      NM   R$  000000000367800000000037330000000003670000000000369800000000036700000000003670000000000372000068000000000000008600000000000031810300000000000000009999123100000010000000000000BRLOGNACNOR3105
012024022602LPSB3       010LOPES BRASILON      NM   R$  000000000019700000000002000000000000196000000000019800000000001980000000000197000000000020000124000000000000051000000000000010148200000000000000009999123100000010000000000000BRLPSBACNOR0113
012024022602LREN3       010LOJAS RENNERON      NM   R$  000000000152500000000015430000000001517000000000152700000000015280000000001528000000000153114818000000000007293000000000011140388800000000000000009999123100000010000000000000BRLRENACNOR1219
012024022602LUPA3       010LUPATECH    ON      NM   R$  000000000019200000000001940000000000189000000000019200000000001930000000000193000000000019400172000000000000100600000000000019347700000000000000009999123100000010000000000000BRLUPAACNOR8112
012024022602LUXM4       010TREVISA     PN           R$  000000000157900000000015790000000001579000000000157900000000015790000000001438000000000158000001000000000000000100000000000000157900000000000000009999123100000010000000000000BRLUXMACNPR4051
012024022602PDGR3       010PDG REALT   ON      NM   R$  000000000003300000000000330000000000031000000000003200000000000320000000000031000000000003200324000000000001277500000000000041052200000000000000009999123100000010000000000000BRPDGRACNOR8118
012024022602PDTC3       010PADTEC      ON      NM   R$  000000000032000000000003940000000000320000000000035300000000003600000000000360000000000036400873000000000000619600000000000218940400000000000000009999123100000010000000000000BRPDTCACNOR3100
012024022602PETR3       010PETROBRAS   ON      N2   R$  000000000436000000000044290000000004344000000000439000000000044080000000004405000000000440812790000000000006699800000000029418443300000000000000009999123100000010000000000000BRPETRACNOR9202
012024022602PETR4       010PETROBRAS   PN  ATZ N2   R$  000000000419000000000042730000000004183000000000424600000000042690000000004269000000000427039980000000000025885700000000109915278600000000000000009999123100000010000000000000BRPETRACNPR6210
012024022602BMEB3       010MERCANTIL   ON      N1   R$  000000000265000000000026500000000002650000000000265000000000026500000000002651000000000274900002000000000000000200000000000000530000000000000000009999123100000010000000000000BRBMEBACNOR8205
012024022602BMEB4       010MERCANTIL   PN      N1   R$  000000000289900000000030310000000002856000000000296000000000029900000000002955000000000299100087000000000000014300000000000042330000000000000000009999123100000010000000000000BRBMEBACNPR5210
012024022602BMGB4       010BANCO BMG   PN      N1   R$  000000000040000000000004010000000000382000000000039200000000003900000000000387000000000039001557000000000000808900000000000317123900000000000000009999123100000010000000000000BRBMGBACNPR0108
012024022602BMIN3       010MERC INVEST ON           R$  000000000200100000000020010000000002001000000000200100000000020010000000002001000000000284800001000000000000000100000000000000200100000000000000009999123100000010000000000000BRBMINACNOR4170
012024022602BMKS3       010BIC MONARK  ON           R$  000000003650000000000365000000000035500000000003566800000000355000000000035000000000003600000007000000000000000042000000000001498060000000000000009999123100000010000000000000BRBMKSACNOR9165
012024022602BMOB3       010BEMOBI TECH ON      NM   R$  000000000131200000000013170000000001291000000000130400000000013050000000001299000000000130500703000000000000156100000000000203653300000000000000009999123100000010000000000000BRBMOBACNOR7103
012024022602BNBR3       010NORD BRASIL ON           R$  000000001195000000000119500000000011950000000001195000000000119500000000011501000000001195000002000000000000000200000000000002390000000000000000009999123100000010000000000000BRBNBRACNOR8206
012024022602BOBR4       010BOMBRIL     PN           R$  000000000024400000000002440000000000235000000000023600000000002380000000000236000000000023800048000000000000027700000000000006562200000000000000009999123100000010000000000000BRBOBRACNPR3128
012024022602RAPT4       010RANDON PART PN      N1   R$  000000000106000000000010930000000001058000000000108300000000010780000000001078000000000108004498000000000001430200000000001549315200000000000000009999123100000010000000000000BRRAPTACNPR4162
012024022602CAMB3       010CAMBUCI     ON           R$  000000000113300000000011600000000001122000000000113600000000011400000000001130000000000114000206000000000000056200000000000063870500000000000000009999123100000010000000000000BRCAMBACNOR4127
012024022602CAML3       010CAMIL       ON  EDJ NM   R$  000000000086100000000008640000000000848000000000085500000000008530000000000849000000000085302308000000000000555000000000000474797600000000000000009999123100000010000000000000BRCAMLACNOR3127
012024022602CASH3       010MELIUZ      ON      NM   R$  000000000076200000000007940000000000759000000000078200000000007870000000000786000000000078704296000000000002198800000000001719855400000000000000009999123100000010000000000000BRCASHACNOR8105
012024022602CBAV3       010CBA         ON      NM   R$  000000000039200000000003930000000000383000000000038700000000003870000000000386000000000038904834000000000003446700000000001335034300000000000000009999123100000010000000000000BRCBAVACNOR5104
012024022602CBEE3       010AMPLA ENERG ON           R$  000000000120000000000012000000000001200000000000120000000000012000000000001200000000000148400001000000000000000100000000000000120000000000000000009999123100000010000000000000BRCBEEACNOR3159
012024022602CCRO3       010CCR SA      ON      NM   R$  000000000136800000000013870000000001362000000000137300000000013740000000001371000000000137510022000000000006321700000000008683054800000000000000009999123100000010000000000000BRCCROACNOR2144
012024022602CEAB3       010CEA MODAS   ON      NM   R$  000000000086300000000008850000000000854000000000087700000000008820000000000882000000000088302819000000000001473000000000001292332400000000000000009999123100000010000000000000BRCEABACNOR1101
012024022602DASA3       010DASA        ON      NM   R$  000000000070200000000007190000000000701000000000070700000000007050000000000704000000000070500583000000000000098500000000000069666900000000000000009999123100000010000000000000BRDASAACNOR1122
012024022602DESK3       010DESKTOP     ON      NM   R$  000000000134600000000013600000000001331000000000134600000000013500000000001350000000000135500444000000000000064900000000000087378700000000000000009999123100000010000000000000BRDESKACNOR2103
012024022602DEXP3       010DEXXOS PAR  ON      N1   R$  000000000122000000000012500000000001219000000000123900000000012500000000001236000000000125000147000000000000044000000000000054527400000000000000009999123100000010000000000000BRDEXPACNOR1104
012024022602DIRR3       010DIRECIONAL  ON      NM   R$  000000000233000000000023710000000002316000000000233500000000023230000000002322000000000232804826000000000000974100000000002274832700000000000000009999123100000010000000000000BRDIRRACNOR0117
012024022602DMVF3       010D1000VFARMA ON      NM   R$  000000000057600000000005980000000000571000000000058700000000005970000000000593000000000059700349000000000000062000000000000036432700000000000000009999123100000010000000000000BRDMVFACNOR9100
012024022602DOHL4       010DOHLER      PN           R$  000000000049000000000004990000000000489000000000049100000000004990000000000486000000000049900004000000000000000500000000000000245800000000000000009999123100000010000000000000BRDOHLACNPR9066
012024022602DOTZ3       010DOTZ SA     ON      NM   R$  000000000073900000000007390000000000708000000000072200000000007240000000000716000000000073400044000000000000013000000000000009387100000000000000009999123100000010000000000000BRDOTZACNOR7101
012024022602DTCY3       010DTCOM-DIRECTON           R$  000000000052000000000005200000000000520000000000052000000000005200000000000385000000000054000001000000000000000100000000000000052000000000000000009999123100000010000000000000BRDTCYACNOR5109
012024022602EQPA3       010EQTL PARA   ON           R$  000000000079700000000008000000000000796000000000079700000000007960000000000791000000000080200009000000000000001500000000000001196200000000000000009999123100000010000000000000BREQPAACNOR1110
012024022602EQTL3       010EQUATORIAL  ON      NM   R$  000000000337000000000034340000000003346000000000337800000000033570000000003356000000000336515318000000000004619600000000015607822600000000000000009999123100000010000000000000BREQTLACNOR0129
012024022602IRBR3       010IRBBRASIL REON  ATZ NM   R$  000000000410800000000041640000000003966000000000407000000000039700000000003969000000000397606676000000000001504200000000006123374500000000000000009999123100000010000000000000BRIRBRACNOR4111
012024022602AERI3       010AERIS       ON      NM   R$  000000000007300000000000740000000000065000000000006800000000000660000000000066000000000006704155000000000017023900000000001164647200000000000000009999123100000010000000000000BRAERIACNOR4101
012024022602AESB3       010AES BRASIL  ON      NM   R$  000000000106900000000010800000000001046000000000105500000000010530000000001050000000000105505247000000000001848900000000001952058500000000000000009999123100000010000000000000BRAESBACNOR7105
012024022602AFLT3       010AFLUENTE T  ON           R$  000000000077500000000007850000000000771000000000078100000000007710000000000770000000000081400006000000000000000800000000000000624800000000000000009999123100000010000000000000BRAFLTACNOR1120
012024022602AGRO3       010BRASILAGRO  ON      NM   R$  000000000236100000000023790000000002354000000000236200000000023700000000002361000000000237102283000000000000400000000000000944957600000000000000009999123100000010000000000000BRAGROACNOR7114
012024022602MAPT4       010CEMEPE      PN           R$  000000000067000000000007500000000000660000000000070500000000007260000000000725000000000084900016000000000000001800000000000001269600000000000000009999123100000010000000000000BRMAPTACNPR5106
012024022602MATD3       010MATER DEI   ON      NM   R$  000000000062700000000006310000000000618000000000062300000000006190000000000618000000000061901257000000000000356300000000000222207900000000000000009999123100000010000000000000BRMATDACNOR4103
012024022602MBLY3       010MOBLY       ON      NM   R$  000000000024100000000002410000000000224000000000023200000000002390000000000239000000000024001858000000000001502600000000000348878700000000000000009999123100000010000000000000BRMBLYACNOR5100
012024022602MDIA3       010M.DIASBRANCOON      NM   R$  000000000411100000000041710000000004008000000000410200000000040980000000004091000000000410008319000000000001735000000000007118148400000000000000009999123100000010000000000000BRMDIAACNOR7133
012024022602MDNE3       010MOURA DUBEUXON      NM   R$  000000000122500000000012500000000001213000000000123400000000012370000000001230000000000123701014000000000000256900000000000317018100000000000000009999123100000010000000000000BRMDNEACNOR9100
012024022602MEAL3       010IMC S/A     ON      NM   R$  000000000019100000000001950000000000191000000000019200000000001940000000000193000000000019400370000000000000406600000000000078418200000000000000009999123100000010000000000000BRMEALACNOR9105
012024022602MELK3       010MELNICK     ON      NM   R$  000000000048000000000004800000000000468000000000047500000000004770000000000477000000000048000222000000000000065900000000000031338100000000000000009999123100000010000000000000BRMELKACNOR8110
012024022602MGLU3       010MAGAZ LUIZA ON      NM   R$  000000000021500000000002200000000000209000000000021300000000002110000000000211000000000021224394000000000095434800000000020415123800000000000000009999123100000010000000000000BRMGLUACNOR2123
012024022602AALR3       010ALLIAR      ON      NM   R$  000000000087100000000008900000000000863000000000087600000000008870000000000873000000000088700355000000000000050200000000000043982400000000000000009999123100000010000000000000BRAALRACNOR6102
012024022602ABCB4       010ABC BRASIL  PN      N2   R$  000000000246400000000024700000000002420000000000244400000000024520000000002437000000000245202177000000000000426100000000001041410900000000000000009999123100000010000000000000BRABCBACNPR4145
012024022602ABEV3       010AMBEV S/A   ON           R$  000000000128300000000013100000000001283000000000130200000000013040000000001303000000000130613264000000000012942000000000016851038200000000000000009999123100000010000000000000BRABEVACNOR1127
012024022602BBDC3       010BRADESCO    ON      N1   R$  000000000124900000000012490000000001231000000000124000000000012410000000001240000000000124206366000000000006463600000000008018706600000000000000009999123100000010000000000000BRBBDCACNOR1766
012024022602BBDC4       010BRADESCO    PN      N1   R$  000000000138500000000013850000000001366000000000137600000000013800000000001378000000000138030166000000000021888800000000030124404700000000000000009999123100000010000000000000BRBBDCACNPR8766
012024022602CEBR3       010CEB         ON           R$  000000000203000000000020300000000001971000000000200400000000019960000000001996000000000202400028000000000000003700000000000007417200000000000000009999123100000010000000000000BRCEBRACNOR5124
012024022602CEBR5       010CEB         PNA          R$  000000000186000000000018800000000001850000000000186300000000018790000000001877000000000188000034000000000000027200000000000050680800000000000000009999123100000010000000000000BRCEBRACNPA8123
012024022602CEBR6       010CEB         PNB          R$  000000000227500000000022840000000002227000000000226800000000022820000000002230000000000228300013000000000000001600000000000003630300000000000000009999123100000010000000000000BRCEBRACNPB6123
012024022602CEDO3       010CEDRO       ON      N1   R$  000000000248400000000024840000000002484000000000248400000000024840000000002484000000000258800003000000000000003300000000000008197200000000000000009999123100000010000000000000BRCEDOACNOR8096
012024022602CEDO4       010CEDRO       PN      N1   R$  000000000249400000000025000000000002490000000000249400000000025000000000002500000000000255200011000000000000002400000000000005987000000000000000009999123100000010000000000000BRCEDOACNPR5128
012024022602CGAS5       010COMGAS      PNA          R$  000000001109800000000112990000000011098000000001118200000000112300000000011099000000001140000007000000000000000700000000000007827900000000000000009999123100000010000000000000BRCGASACNPA3159
012024022602CGRA3       010GRAZZIOTIN  ON           R$  000000000255500000000025770000000002554000000000256600000000025770000000002553000000000257600009000000000000001200000000000003079800000000000000009999123100000010000000000000BRCGRAACNOR2081
012024022602CGRA4       010GRAZZIOTIN  PN           R$  000000000266400000000027000000000002664000000000267600000000026850000000002681000000000268500020000000000000003900000000000010440100000000000000009999123100000010000000000000BRCGRAACNPR9081
012024022602CIEL3       010CIELO       ON      NM   R$  000000000053300000000005490000000000533000000000054100000000005430000000000542000000000054315074000000000029779900000000016127113200000000000000009999123100000010000000000000BRCIELACNOR3156
012024022602EGIE3       010ENGIE BRASILON      NM   R$  000000000412600000000041770000000004091000000000413500000000040910000000004090000000000411206084000000000001358100000000005616809800000000000000009999123100000010000000000000BREGIEACNOR9125
012024022602EKTR4       010ELEKTRO     PN           R$  000000000399200000000039920000000003992000000000399200000000039920000000003890000000000400900001000000000000000100000000000000399200000000000000009999123100000010000000000000BREKTRACNPR7159
012024022602ELET3       010ELETROBRAS  ON      N1   R$  000000000431300000000043680000000004292000000000432500000000043200000000004320000000000432212477000000000003294800000000014250128300000000000000009999123100000010000000000000BRELETACNOR6159
012024022602ELET6       010ELETROBRAS  PNB     N1   R$  000000000475600000000047990000000004734000000000476200000000047610000000004759000000000476203594000000000000708200000000003372966700000000000000009999123100000010000000000000BRELETACNPB7076
012024022602HBRE3       010HBR REALTY  ON      NM   R$  000000000049000000000004930000000000476000000000048200000000004760000000000476000000000047900236000000000000099700000000000048059100000000000000009999123100000010000000000000BRHBREACNOR4100
012024022602HBSA3       010HIDROVIAS   ON      NM   R$  000000000037500000000003800000000000373000000000037700000000003780000000000376000000000037804006000000000002491100000000000941149500000000000000009999123100000010000000000000BRHBSAACNOR0100
012024022602HETA4       010HERCULES    PN           R$  000000000063500000000006950000000000601000000000063200000000006950000000000630000000000068200011000000000000001600000000000001011600000000000000009999123100000010000000000000BRHETAACNPR9136
012024022602HYPE3       010HYPERA      ON  EJ  NM   R$  000000000335000000000033960000000003324000000000335800000000033250000000003323000000000332510591000000000001810600000000006080611100000000000000009999123100000010000000000000BRHYPEACNOR0138
012024022602TRPL3       010TRAN PAULISTON      N1   R$  000000000321800000000032710000000003186000000000324000000000032710000000003250000000000327400021000000000000002400000000000007777700000000000000009999123100000010000000000000BRTRPLACNOR4185
012024022602TRPL4       010TRAN PAULISTPN      N1   R$  000000000253400000000025520000000002515000000000253000000000025210000000002521000000000252609459000000000001930400000000004885490100000000000000009999123100000010000000000000BRTRPLACNPR1185
012024022602GEPA4       010GER PARANAP PN           R$  000000000252100000000025210000000002500000000000250500000000025000000000002478000000000254900005000000000000000800000000000002004200000000000000009999123100000010000000000000BRGEPAACNPR9159
012024022602GFSA3       010GAFISA      ON      NM   R$  000000000073900000000007460000000000707000000000072600000000007390000000000732000000000073905100000000000003682600000000002675555000000000000000009999123100000010000000000000BRGFSAACNOR3123
012024022602MILS3       010MILLS       ON      NM   R$  000000000122000000000012330000000001218000000000122600000000012250000000001224000000000123001413000000000000336900000000000413105900000000000000009999123100000010000000000000BRMILSACNOR2124
012024022602MLAS3       010MULTILASER  ON      NM   R$  000000000020300000000002090000000000202000000000020600000000002060000000000205000000000020702930000000000001506400000000000311493200000000000000009999123100000010000000000000BRMLASACNOR9101
012024022602MNDL3       010MUNDIAL     ON           R$  000000000439900000000045000000000004055000000000429300000000040550000000004055000000000434900009000000000000000900000000000003864200000000000000009999123100000010000000000000BRMNDLACNOR4107
012024022602MNPR3       010MINUPAR     ON           R$  000000000189900000000020500000000001899000000000193600000000020490000000001900000000000205000020000000000000012900000000000024979400000000000000009999123100000010000000000000BRMNPRACNOR5122
012024022602MOAR3       010MONT ARANHA ON           R$  000000003950000000000395000000000039500000000003950000000000395000000000020002000000003989900001000000000000000100000000000003950000000000000000009999123100000010000000000000BRMOARACNOR5233
012024022602MOVI3       010MOVIDA      ON      NM   R$  000000000082000000000008380000000000812000000000082300000000008130000000000813000000000081406104000000000002483300000000002044347100000000000000009999123100000010000000000000BRMOVIACNOR0122
012024022602MRFG3       010MARFRIG     ON      NM   R$  000000000084900000000008960000000000842000000000088000000000008850000000000884000000000088609204000000000006370900000000005610268700000000000000009999123100000010000000000000BRMRFGACNOR0116
012024022602ASAI3       010ASSAI       ON      NM   R$  000000000147800000000014900000000001458000000000147200000000014610000000001460000000000146114066000000000006009200000000008850041200000000000000009999123100000010000000000000BRASAIACNOR0106
012024022602ATOM3       010ATOMPAR     ON           R$  000000000019500000000001980000000000190000000000019100000000001910000000000191000000000019400054000000000000018100000000000003467900000000000000009999123100000010000000000000BRATOMACNOR1106
012024022602AURE3       010AUREN       ON      NM   R$  000000000129400000000012970000000001282000000000128700000000012840000000001283000000000128509666000000000006964500000000008966056300000000000000009999123100000010000000000000BRAUREACNOR9103
012024022602AVLL3       010ALPHAVILLE  ON      NM   R$  000000000049500000000004950000000000484000000000049100000000004840000000000469000000000049400003000000000000000300000000000000147300000000000000009999123100000010000000000000BRAVLLACNOR5103
012024022602AZEV3       010AZEVEDO     ON           R$  000000000015100000000001520000000000145000000000014700000000001470000000000146000000000014700433000000000000419700000000000062030600000000000000009999123100000010000000000000BRAZEVACNOR0121
012024022602AZEV4       010AZEVEDO     PN           R$  000000000014900000000001500000000000143000000000014500000000001450000000000144000000000014500987000000000002133700000000000310519000000000000000009999123100000010000000000000BRAZEVACNPR7121
012024022602AZUL4       010AZUL        PN      N2   R$  000000000117500000000011950000000001162000000000117700000000011730000000001172000000000117307211000000000010429500000000012278524000000000000000009999123100000010000000000000BRAZULACNPR4102
012024022602BBSE3       010BBSEGURIDADEON      NM   R$  000000000330500000000033100000000003275000000000329700000000033070000000003304000000000330910432000000000003062700000000010098693100000000000000009999123100000010000000000000BRBBSEACNOR5124
012024022602BPAC3       010BTGP BANCO  ON      N2   R$  000000000178100000000018060000000001773000000000179300000000017950000000001795000000000183700024000000000000002700000000000004841600000000000000009999123100000010000000000000BRBPACACNOR7133
012024022602BPAC5       010BTGP BANCO  PNA     N2   R$  000000000096800000000009770000000000940000000000094900000000009400000000000940000000000097600036000000000000005600000000000005317800000000000000009999123100000010000000000000BRBPACACNPA0133
012024022602BPAN4       010BANCO PAN   PN      N1   R$  000000000086500000000008800000000000861000000000087200000000008730000000000872000000000087302314000000000000995500000000000868664600000000000000009999123100000010000000000000BRBPANACNPR1115
012024022602BRAP3       010BRADESPAR   ON      N1   R$  000000000205600000000020560000000002027000000000203500000000020280000000002028000000000203700548000000000000111300000000000226524800000000000000009999123100000010000000000000BRBRAPACNOR5147
012024022602BRAP4       010BRADESPAR   PN      N1   R$  000000000216500000000021650000000002121000000000213400000000021330000000002130000000000213412561000000000007286200000000015548915800000000000000009999123100000010000000000000BRBRAPACNPR2147
012024022602CPLE3       010COPEL       ON      N2   R$  000000000092400000000009280000000000913000000000091900000000009160000000000914000000000091706066000000000006148900000000005655010400000000000000009999123100000010000000000000BRCPLEACNOR8148
012024022602CPLE5       010COPEL       PNA     N2   R$  000000000219300000000021930000000002193000000000219300000000021930000000002109000000000219300001000000000000000100000000000000219300000000000000009999123100000010000000000000BRCPLEACNPA1146
012024022602CPLE6       010COPEL       PNB     N2   R$  000000000101700000000010330000000001013000000000102100000000010170000000001017000000000101812356000000000011675600000000011922055400000000000000009999123100000010000000000000BRCPLEACNPB9145
012024022602CRFB3       010CARREFOUR BRON      NM   R$  000000000123100000000012540000000001223000000000123800000000012350000000001234000000000123505187000000000002305600000000002856096100000000000000009999123100000010000000000000BRCRFBACNOR2116
012024022602CRIV3       010ALFA FINANC ON           R$  000000000058600000000005860000000000586000000000058600000000005860000000000600000000000061500001000000000000000100000000000000058600000000000000009999123100000010000000000000BRCRIVACNOR4195
012024022602CRIV4       010ALFA FINANC PN           R$  000000000060400000000006040000000000590000000000059600000000005900000000000585000000000059000012000000000000005000000000000002982200000000000000009999123100000010000000000000BRCRIVACNPR1211
012024022602CRPG5       010CRISTAL     PNA          R$  000000000350100000000035610000000003451000000000349900000000035000000000003500000000000354400038000000000000004600000000000016098200000000000000009999123100000010000000000000BRCRPGACNPA3118
012024022602JHSF3       010JHSF PART   ON      NM   R$  000000000043500000000004390000000000427000000000043100000000004290000000000429000000000043004607000000000003089800000000001332259700000000000000009999123100000010000000000000BRJHSFACNOR2132
012024022602JOPA3       010JOSAPAR     ON           R$  000000000210000000000021000000000002100000000000210000000000021000000000002100000000000225000001000000000000000200000000000000420000000000000000009999123100000010000000000000BRJOPAACNOR5134
012024022602JSLG3       010JSL         ON      NM   R$  000000000118000000000011800000000001159000000000116900000000011590000000001158000000000116401140000000000000382300000000000447262300000000000000009999123100000010000000000000BRJSLGACNOR2121
012024022602MYPK3       010IOCHP-MAXIONON      NM   R$  000000000125500000000012680000000001239000000000125500000000012520000000001246000000000125401828000000000000451900000000000567490600000000000000009999123100000010000000000000BRMYPKACNOR7153
012024022602NEOE3       010NEOENERGIA  ON      NM   R$  000000000211700000000021600000000002113000000000214000000000021300000000002129000000000213102823000000000000624300000000001336410200000000000000009999123100000010000000000000BRNEOEACNOR3121
012024022602NGRD3       010NEOGRID     ON      NM   R$  000000000010900000000001090000000000106000000000010700000000001070000000000107000000000010800269000000000000430900000000000046303200000000000000009999123100000010000000000000BRNGRDACNOR3103
012024022602NINJ3       010GETNINJAS   ON      NM   R$  000000000050500000000005070000000000505000000000050600000000005070000000000505000000000050700037000000000000013900000000000007035100000000000000009999123100000010000000000000BRNINJACNOR5101
012024022602NORD3       010NORDON MET  ON           R$  000000000121500000000012200000000001205000000000121300000000012050000000001172000000000121000003000000000000000300000000000000364000000000000000009999123100000010000000000000BRNORDACNOR7135
012024022602NTCO3       010GRUPO NATURAON      NM   R$  000000000165500000000016770000000001625000000000164800000000016470000000001647000000000164913513000000000006383800000000010521059600000000000000009999123100000010000000000000BRNTCOACNOR5104
012024022602BAHI3       010BAHEMA      ON      MA   R$  000000000068000000000006800000000000644000000000064900000000006520000000000640000000000067000006000000000000002300000000000001494800000000000000009999123100000010000000000000BRBAHIACNOR1074
012024022602BALM4       010BAUMER      PN           R$  000000000100000000000010000000000001000000000000100000000000010000000000000977000000000102500001000000000000000100000000000000100000000000000000009999123100000010000000000000BRBALMACNPR2056
012024022602BAZA3       010AMAZONIA    ON           R$  000000000907800000000090780000000009000000000000902800000000090300000000008703000000000914800017000000000000001800000000000016252100000000000000009999123100000010000000000000BRBAZAACNOR0178
012024022602BBAS3       010BRASIL      ON  EX  NM   R$  000000000574100000000058190000000005725000000000579000000000057930000000005793000000000579417012000000000006720900000000038918330000000000000000009999123100000010000000000000BRBBASACNOR3320
012024022602BHIA3       010CASAS BAHIA ON      NM   R$  000000000083300000000008500000000000817000000000083000000000008340000000000832000000000083505812000000000003959000000000003288415800000000000000009999123100000010000000000000BRBHIAACNOR1101
012024022602BRGE3       010ALFA CONSORCON           R$  000000000115000000000011900000000001150000000000115300000000011900000000001132000000000119000003000000000000001100000000000001269000000000000000009999123100000010000000000000BRBRGEACNOR6204
012024022602BRGE6       010ALFA CONSORCPNB          R$  000000000149700000000014980000000001363000000000148700000000013630000000001300000000000000000013000000000000007800000000000011606200000000000000009999123100000010000000000000BRBRGEACNPB7219
012024022602BRGE7       010ALFA CONSORCPNC          R$  000000000135500000000013550000000001355000000000135500000000013550000000000000000000000135500001000000000000000400000000000000542000000000000000009999123100000010000000000000BRBRGEACNPC5220
012024022602BRIT3       010BRISANET    ON      NM   R$  000000000034900000000003500000000000336000000000034300000000003410000000000336000000000034100429000000000000324000000000000111330500000000000000009999123100000010000000000000BRBRITACNOR0102
012024022602BRIV3       010ALFA INVEST ON           R$  000000000112500000000011250000000001079000000000111500000000010790000000001095000000000110700003000000000000002300000000000002564500000000000000009999123100000010000000000000BRBRIVACNOR6209
012024022602BRIV4       010ALFA INVEST PN           R$  000000000110000000000011200000000001051000000000109100000000011020000000001062000000000110300013000000000000008800000000000009607100000000000000009999123100000010000000000000BRBRIVACNPR3218
012024022602BRKM3       010BRASKEM     ON      N1   R$  000000000207000000000021300000000002070000000000211300000000020760000000002075000000000208500097000000000000021600000000000045659800000000000000009999123100000010000000000000BRBRKMACNOR1119
012024022602BRKM5       010BRASKEM     PNA     N1   R$  000000000201300000000021060000000002010000000000206700000000020880000000002088000000000209007580000000000003399900000000007030620800000000000000009999123100000010000000000000BRBRKMACNPA4121
012024022602CSUD3       010CSU DIGITAL ON      NM   R$  000000000191900000000019260000000001890000000000190800000000019100000000001906000000000191000292000000000000043200000000000082434500000000000000009999123100000010000000000000BRCSUDACNOR5107
012024022602CTKA3       010KARSTEN     ON           R$  000000000140000000000014000000000001400000000000140000000000014000000000001400000000000148000001000000000000000100000000000000140000000000000000009999123100000010000000000000BRCTKAACNOR0043
012024022602CTKA4       010KARSTEN     PN           R$  000000000150000000000016310000000001500000000000156500000000016310000000001502000000000180000002000000000000000200000000000000313100000000000000009999123100000010000000000000BRCTKAACNPR7043
012024022602CTNM3       010COTEMINAS   ON           R$  000000000095000000000009500000000000920000000000093000000000009200000000000868000000000091800003000000000000000300000000000000279000000000000000009999123100000010000000000000BRCTNMACNOR9130
012024022602CTNM4       010COTEMINAS   PN           R$  000000000013100000000001340000000000130000000000013200000000001320000000000132000000000013300045000000000000078500000000000010362900000000000000009999123100000010000000000000BRCTNMACNPR6129
012024022602CTSA3       010SANTANENSE  ON           R$  000000000031900000000003190000000000312000000000031500000000003120000000000311000000000031600006000000000000000600000000000000189400000000000000009999123100000010000000000000BRCTSAACNOR3062
012024022602CTSA4       010SANTANENSE  PN           R$  000000000017500000000001770000000000167000000000017000000000001670000000000166000000000017000117000000000000044000000000000007523700000000000000009999123100000010000000000000BRCTSAACNPR0062
012024022602CURY3       010CURY S/A    ON      NM   R$  000000000189900000000019410000000001899000000000192000000000019150000000001915000000000191703233000000000000668200000000001283422700000000000000009999123100000010000000000000BRCURYACNOR3107
012024022602CVCB3       010CVC BRASIL  ON      NM   R$  000000000031600000000003200000000000313000000000031600000000003160000000000315000000000031603564000000000004996000000000001583156200000000000000009999123100000010000000000000BRCVCBACNOR1115
012024022602GGBR3       010GERDAU      ON      N1   R$  000000000200000000000020000000000001970000000000197600000000019850000000001975000000000198700152000000000000042900000000000084788300000000000000009999123100000010000000000000BRGGBRACNOR1189
012024022602GGBR4       010GERDAU      PN      N1   R$  000000000214000000000021420000000002104000000000212100000000021200000000002119000000000212117033000000000008914300000000018912330500000000000000009999123100000010000000000000BRGGBRACNPR8189
012024022602JALL3       010JALLESMACHADON      NM   R$  000000000074300000000007490000000000734000000000074300000000007430000000000743000000000074601137000000000000289600000000000215311700000000000000009999123100000010000000000000BRJALLACNOR0105
012024022602JBSS3       010JBS         ON      NM   R$  000000000212500000000022380000000002121000000000221100000000022140000000002212000000000221515411000000000008784300000000019428486300000000000000009999123100000010000000000000BRJBSSACNOR8121
012024022602MRSA3B      010MRS LOGIST  ON      MB   R$  000000000235700000000023570000000002357000000000235700000000023570000000002357000000000800000001000000000000000100000000000000235700000000000000009999123100000010000000000000BRMRSAACNOR6124
012024022602MRVE3       010MRV         ON      NM   R$  000000000076900000000007770000000000755000000000076600000000007640000000000763000000000076408698000000000009237700000000007076355000000000000000009999123100000010000000000000BRMRVEACNOR2126
012024022602B3SA3       010B3          ON      NM   R$  000000000124500000000012580000000001243000000000124900000000012480000000001248000000000125020624000000000031223700000000039016775300000000000000009999123100000010000000000000BRB3SAACNOR6130
012024022602BEEF3       010MINERVA     ON      NM   R$  000000000064800000000006840000000000646000000000066900000000006630000000000662000000000066311017000000000014084100000000009435602500000000000000009999123100000010000000000000BRBEEFACNOR6116
012024022602KEPL3       010KEPLER WEBERON      NM   R$  000000000099400000000010100000000000984000000000099800000000009910000000000990000000000099602245000000000000710500000000000709144600000000000000009999123100000010000000000000BRKEPLACNOR1061
012024022602MTRE3       010MITRE REALTYON      NM   R$  000000000050400000000005240000000000504000000000051700000000005190000000000519000000000052001360000000000000762100000000000394140100000000000000009999123100000010000000000000BRMTREACNOR6109
012024022602MTSA4       010METISA      PN           R$  000000000470000000000047500000000004542000000000466700000000047000000000004501000000000468000016000000000000002100000000000009801000000000000000009999123100000010000000000000BRMTSAACNPR9071
012024022602MULT3       010MULTIPLAN   ON      N2   R$  000000000257100000000026100000000002566000000000258900000000025890000000002587000000000259619308000000000003426800000000008875361200000000000000009999123100000010000000000000BRMULTACNOR5137
012024022602WEST3       010WESTWING    ON      NM   R$  000000000012100000000001220000000000120000000000012000000000001210000000000120000000000012100041000000000000023000000000000002780700000000000000009999123100000010000000000000BRWESTACNOR3100
012024022602WHRL3       010WHIRLPOOL   ON           R$  000000000042200000000004270000000000422000000000042300000000004230000000000425000000000042900006000000000000001000000000000000423500000000000000009999123100000010000000000000BRWHRLACNOR5128
012024022602WHRL4       010WHIRLPOOL   PN           R$  000000000046300000000004700000000000458000000000046200000000004620000000000462000000000046500024000000000000007400000000000003424700000000000000009999123100000010000000000000BRWHRLACNPR2128
012024022602WIZC3       010WIZ CO      ON      NM   R$  000000000062800000000006430000000000609000000000062400000000006270000000000624000000000062701738000000000000684500000000000427282800000000000000009999123100000010000000000000BRWIZCACNOR5101
012024022602WLMM4       010WLM IND COM PN           R$  000000000248300000000025500000000002450000000000248600000000025390000000002500000000000254000015000000000000003200000000000007955900000000000000009999123100000010000000000000BRWLMMACNPR3117
012024022602YDUQ3       010YDUQS PART  ON      NM   R$  000000000194600000000019860000000001932000000000196900000000019670000000001967000000000197005009000000000001295000000000002550930300000000000000009999123100000010000000000000BRYDUQACNOR3104
012024022602CPFE3       010CPFL ENERGIAON      NM   R$  000000000360000000000036660000000003537000000000358100000000035370000000003536000000000354510016000000000002525100000000009042935900000000000000009999123100000010000000000000BRCPFEACNOR0136
012024022602ENAT3       010ENAUTA PART ON      NM   R$  000000000238200000000024820000000002380000000000245200000000024700000000002470000000000247305731000000000001339500000000003285349900000000000000009999123100000010000000000000BRENATACNOR0104
012024022602ENEV3       010ENEVA       ON      NM   R$  000000000122000000000012630000000001216000000000123900000000012480000000001247000000000124912525000000000008620000000000010682057900000000000000009999123100000010000000000000BRENEVACNOR8105
012024022602ENGI11      010ENERGISA    UNT     N2   R$  000000000503600000000051600000000005023000000000510400000000050880000000005075000000000508808448000000000001666300000000008506429200000000000000009999123100000010000000000000BRENGICDAM16135
012024022602ENGI3       010ENERGISA    ON      N2   R$  000000000162900000000016480000000001612000000000162600000000016230000000001622000000000163500020000000000000002100000000000003416200000000000000009999123100000010000000000000BRENGIACNOR0145
012024022602ENGI4       010ENERGISA    PN      N2   R$  000000000086000000000008770000000000860000000000086800000000008750000000000859000000000087500021000000000000003000000000000002605100000000000000009999123100000010000000000000BRENGIACNPR7141
012024022602ENJU3       010ENJOEI      ON      NM   R$  000000000016600000000001690000000000164000000000016600000000001670000000000165000000000016700402000000000000407800000000000068022200000000000000009999123100000010000000000000BRENJUACNOR9100
012024022602ENMT4       010ENERGISA MT PN           R$  000000000717000000000071700000000007170000000000717000000000071700000000006800000000000800000002000000000000000200000000000001434000000000000000009999123100000010000000000000BRENMTACNPR2124
012024022602EPAR3       010EMBPAR S/A  ON           R$  000000000096900000000009700000000000950000000000095600000000009500000000000950000000000095700057000000000000009400000000000008991300000000000000009999123100000010000000000000BREPARACNOR9104
012024022602WEGE3       010WEG         ON  ED  NM   R$  000000000358700000000036890000000003566000000000364900000000036570000000003656000000000365821867000000000008763800000000031986681900000000000000009999123100000010000000000000BRWEGEACNOR0221
012024022602PETZ3       010PETZ        ON      NM   R$  000000000038100000000003910000000000373000000000038300000000003860000000000385000000000038706566000000000006208200000000002378123500000000000000009999123100000010000000000000BRPETZACNOR2109
012024022602RAIZ4       010RAIZEN      PN      N2   R$  000000000036800000000003730000000000361000000000036800000000003690000000000369000000000037007012000000000008341900000000003076653700000000000000009999123100000010000000000000BRRAIZACNPR6109
012024022602RANI3       010IRANI       ON      NM   R$  000000000093700000000009420000000000893000000000092000000000009360000000000936000000000093706446000000000002523000000000002322542400000000000000009999123100000010000000000000BRRANIACNOR5069
012024022602RAPT3       010RANDON PART ON      N1   R$  000000000105100000000010640000000001046000000000105500000000010460000000001046000000000106000022000000000000005100000000000005380500000000000000009999123100000010000000000000BRRAPTACNOR7162
012024022602TASA3       010TAURUS ARMASON      N2   R$  000000000141700000000014210000000001405000000000141300000000014080000000001408000000000141100046000000000000008300000000000011734200000000000000009999123100000010000000000000BRTASAACNOR7103
012024022602TASA4       010TAURUS ARMASPN      N2   R$  000000000140800000000014190000000001401000000000140600000000014010000000001401000000000140600797000000000000172100000000000242090800000000000000009999123100000010000000000000BRTASAACNPR4103
012024022602TCSA3       010TECNISA     ON      NM   R$  000000000028600000000002910000000000283000000000028500000000002830000000000283000000000028500137000000000000070800000000000020192700000000000000009999123100000010000000000000BRTCSAACNOR3112
012024022602TECN3       010TECHNOS     ON      NM   R$  000000000033600000000003360000000000326000000000033000000000003300000000000329000000000033200237000000000000154500000000000051087100000000000000009999123100000010000000000000BRTECNACNOR6109
012024022602TELB3       010TELEBRAS    ON           R$  000000000155100000000015510000000001551000000000155100000000015510000000001515000000000155700001000000000000000100000000000000155100000000000000009999123100000010000000000000BRTELBACNOR2140
012024022602TELB4       010TELEBRAS    PN           R$  000000000104000000000010500000000001040000000000104000000000010500000000001018000000000104900003000000000000001500000000000001561000000000000000009999123100000010000000000000BRTELBACNPR9140
012024022602TEND3       010TENDA       ON      NM   R$  000000000110600000000011320000000001096000000000111400000000011020000000001102000000000110804373000000000001225000000000001365330400000000000000009999123100000010000000000000BRTENDACNOR4111
012024022602TFCO4       010TRACK FIELD PN      N2   R$  000000000135900000000013670000000001333000000000134700000000013500000000001340000000000135100477000000000000070700000000000095288000000000000000009999123100000010000000000000BRTFCOACNPR8111
012024022602TGMA3       010TEGMA       ON      NM   R$  000000000258000000000026430000000002576000000000261900000000026250000000002625000000000264500812000000000000123600000000000323770700000000000000009999123100000010000000000000BRTGMAACNOR7143
012024022602TIMS3       010TIM         ON      NM   R$  000000000184200000000018500000000001820000000000183500000000018380000000001837000000000183808247000000000003717400000000006823085600000000000000009999123100000010000000000000BRTIMSACNOR5114
012024022602TKNO4       010TEKNO       PN           R$  000000000660000000000066000000000006600000000000660000000000066000000000000000000000000696500001000000000000000100000000000000660000000000000000009999123100000010000000000000BRTKNOACNPR5074
012024022602TOTS3       010TOTVS       ON      NM   R$  000000000315300000000031980000000003147000000000316700000000031520000000003149000000000316208019000000000002013400000000006378307300000000000000009999123100000010000000000000BRTOTSACNOR8144
012024022602TPIS3       010TRIUNFO PARTON      NM   R$  000000000037600000000003800000000000375000000000037600000000003800000000000374000000000038000083000000000000040700000000000015321300000000000000009999123100000010000000000000BRTPISACNOR8118
012024022602TRAD3       010TC          ON      NM   R$  000000000008300000000000840000000000079000000000008100000000000790000000000079000000000008100238000000000000408200000000000033104600000000000000009999123100000010000000000000BRTRADACNOR3101
012024022602TRIS3       010TRISUL      ON      NM   R$  000000000046100000000004730000000000456000000000046200000000004560000000000456000000000046001167000000000000457400000000000211529300000000000000009999123100000010000000000000BRTRISACNOR4116
012024022602RADL3       010RAIADROGASILON      NM   R$  000000000262300000000026850000000002611000000000266500000000026600000000002660000000000266319368000000000007904200000000021066051900000000000000009999123100000010000000000000BRRADLACNOR0154
012024022602RAIL3       010RUMO S.A.   ON      NM   R$  000000000228500000000022950000000002260000000000227200000000022730000000002269000000000227409277000000000011421500000000025957478900000000000000009999123100000010000000000000BRRAILACNOR9104
012024022602SYNE3       010SYN PROP TECON      NM   R$  000000000045100000000004690000000000451000000000046300000000004690000000000465000000000046900875000000000000445400000000000206336600000000000000009999123100000010000000000000BRSYNEACNOR2102
012024022602SMFT3       010SMART FIT   ON      NM   R$  000000000245700000000024680000000002421000000000243400000000024260000000002421000000000243302700000000000000832800000000002027265800000000000000009999123100000010000000000000BRSMFTACNOR1111
012024022602SMTO3       010SAO MARTINHOON      NM   R$  000000000269000000000027940000000002677000000000274200000000027280000000002725000000000273906409000000000001703200000000004670193700000000000000009999123100000010000000000000BRSMTOACNOR3125
012024022602SNSY3       010SANSUY      ON           R$  000000000106000000000011200000000001000000000000105700000000010510000000001051000000000105400046000000000000006900000000000007294100000000000000009999123100000010000000000000BRSNSYACNOR2113
012024022602SNSY5       010SANSUY      PNA          R$  000000000048900000000004890000000000465000000000047100000000004800000000000452000000000048400016000000000000005500000000000002595300000000000000009999123100000010000000000000BRSNSYACNPA5111
012024022602SOJA3       010BOA SAFRA   ON      NM   R$  000000000151600000000015400000000001492000000000150800000000015180000000001512000000000151801142000000000000294800000000000444569500000000000000009999123100000010000000000000BRSOJAACNOR9105
012024022602SOMA3       010GRUPO SOMA  ON      NM   R$  000000000070600000000007130000000000681000000000068900000000006870000000000687000000000068814404000000000022915300000000015810845300000000000000009999123100000010000000000000BRSOMAACNOR3102
012024022602MAPT3       010CEMEPE      ON           R$  000000000090000000000009000000000000720000000000080700000000008250000000000779000000000093000024000000000000002800000000000002261500000000000000009999123100000010000000000000BRMAPTACNOR8106
012024022602ZAMP3       010ZAMP S.A.   ON           R$  000000000041600000000004180000000000406000000000040900000000004060000000000406000000000040802272000000000000564800000000000231291000000000000000009999123100000010000000000000BRZAMPACNOR5100
012024022602ROMI3       010ROMI        ON      NM   R$  000000000125300000000012600000000001246000000000125200000000012460000000001246000000000125100718000000000000115100000000000144112700000000000000009999123100000010000000000000BRROMIACNOR8192
012024022602RPAD5       010ALFA HOLDINGPNA          R$  000000000082500000000008350000000000825000000000083000000000008300000000000800000000000083400008000000000000002700000000000002241100000000000000009999123100000010000000000000BRRPADACNPA4218
012024022602RPAD6       010ALFA HOLDINGPNB          R$  000000000078100000000007810000000000781000000000078100000000007810000000000785000000000082700001000000000000000100000000000000078100000000000000009999123100000010000000000000BRRPADACNPB2198
012024022602RRRP3       0103R PETROLEUMON      NM   R$  000000000281600000000028480000000002785000000000281700000000028110000000002811000000000281607417000000000003237500000000009120487000000000000000009999123100000010000000000000BRRRRPACNOR5102
012024022602PFRM3       010PROFARMA    ON      NM   R$  000000000051700000000005380000000000514000000000052800000000005340000000000531000000000053400687000000000000275600000000000145707900000000000000009999123100000010000000000000BRPFRMACNOR1116
012024022602PGMN3       010PAGUE MENOS ON      NM   R$  000000000028500000000002870000000000282000000000028400000000002840000000000283000000000028504418000000000001292600000000000367794500000000000000009999123100000010000000000000BRPGMNACNOR8103
012024022602RCSL3       010RECRUSUL    ON           R$  000000000016700000000001730000000000167000000000017000000000001710000000000170000000000017101525000000000000972100000000000166034600000000000000009999123100000010000000000000BRRCSLACNOR4133
012024022602RCSL4       010RECRUSUL    PN           R$  000000000008500000000000950000000000085000000000009000000000000920000000000092000000000009309597000000000016722600000000001510313400000000000000009999123100000010000000000000BRRCSLACNPR1133
012024022602RDNI3       010RNI         ON      NM   R$  000000000042500000000004330000000000420000000000042200000000004200000000000420000000000042200025000000000000004200000000000001775100000000000000009999123100000010000000000000BRRDNIACNOR9116
012024022602RDOR3       010REDE D OR   ON      NM   R$  000000000243400000000025000000000002428000000000247600000000025000000000002500000000000250219308000000000007140000000000017679912600000000000000009999123100000010000000000000BRRDORACNOR8111
012024022602RECV3       010PETRORECSA  ON      NM   R$  000000000232800000000023540000000002295000000000232800000000023410000000002339000000000234107668000000000002917900000000006795341100000000000000009999123100000010000000000000BRRECVACNOR3105
012024022602REDE3       010REDE ENERGIAON           R$  000000000069700000000006980000000000690000000000069600000000006930000000000692000000000069900018000000000000003200000000000002227400000000000000009999123100000010000000000000BRREDEACNOR7126
012024022602RENT3       010LOCALIZA    ON      NM   R$  000000000531800000000053730000000005209000000000527500000000052090000000005208000000000521720943000000000005304500000000027986414100000000000000009999123100000010000000000000BRRENTACNOR4194
012024022602TTEN3       0103TENTOS     ON  ED  NM   R$  000000000097700000000009920000000000969000000000098300000000009820000000000982000000000098307971000000000001338900000000001317321800000000000000009999123100000010000000000000BRTTENACNOR0103
012024022602TUPY3       010TUPY        ON      NM   R$  000000000249100000000024910000000002450000000000246500000000024700000000002465000000000247503125000000000000696900000000001718178000000000000000009999123100000010000000000000BRTUPYACNOR1183
012024022607NUTR3       010NUTRIPLANT  ON      MA   R$  000000000058100000000005810000000000560000000000056400000000005600000000000559000000000057100016000000000000003500000000000001976600000000000000009999123100000010000000000000BRNUTRACNOR0104
012024022607TXRX4       010TEX RENAUX  PN           R$  000000000027500000000002800000000000261000000000027000000000002800000000000266000000000028000007000000000000000800000000000000216000000000000000009999123100000010000000000000BRTXRXACNPR0142
012024022608JFEN3       010JOAO FORTES ON           R$  000000000018700000000001940000000000184000000000018500000000001840000000000182000000000018800021000000000000004100000000000000760500000000000000009999123100000010000000000000BRJFENACNOR0058
012024022608LIGT3       010LIGHT S/A   ON      NM   R$  000000000053200000000005390000000000506000000000051600000000005060000000000506000000000050904305000000000001393900000000000719544500000000000000009999123100000010000000000000BRLIGTACNOR2124
012024022608OIBR3       010OI          ON      N1   R$  000000000012300000000001280000000000102000000000010900000000001040000000000103000000000010409290000000000053634500000000005886768100000000000000009999123100000010000000000000BROIBRACNOR1110
012024022608OIBR4       010OI          PN      N1   R$  000000000026800000000002740000000000217000000000023800000000002230000000000222000000000022301176000000000001031000000000000245724300000000000000009999123100000010000000000000BROIBRACNPR8109
012024022608OSXB3       010OSX BRASIL  ON      NM   R$  000000000051400000000005150000000000505000000000050900000000005050000000000505000000000051500012000000000000003500000000000001781600000000000000009999123100000010000000000000BROSXBACNOR8109
012024022608FRTA3       010POMIFRUTAS  ON      NM   R$  000000000014800000000001570000000000142000000000014700000000001420000000000141000000000014500029000000000000013400000000000001977500000000000000009999123100000010000000000000BRFRTAACNOR8103
012024022608PMAM3       010PARANAPANEMAON      NM   R$  000000000037700000000004000000000000375000000000038500000000003770000000000376000000000037900116000000000000025500000000000009829100000000000000009999123100000010000000000000BRPMAMACNOR3038
012024022608ETER3       010ETERNIT     ON      NM   R$  000000000073200000000007390000000000716000000000073000000000007260000000000725000000000072600689000000000000201200000000000146963200000000000000009999123100000010000000000000BRETERACNOR3242
012024022608RSID3       010ROSSI RESID ON      NM   R$  000000000037300000000003910000000000368000000000037900000000003890000000000379000000000039000335000000000000196800000000000074660400000000000000009999123100000010000000000000BRRSIDACNOR8120
012024022608AMER3       010AMERICANAS  ON      NM   R$  000000000005600000000000560000000000050000000000005200000000000500000000000050000000000005106170000000000041489100000000002186062300000000000000009999123100000010000000000000BRAMERACNOR6101
012024022608HOOT4       010HOTEIS OTHONPN           R$  000000000028400000000002840000000000283000000000028300000000002830000000000277000000000028500002000000000000001400000000000000396600000000000000009999123100000010000000000000BRHOOTACNPR9015
012024022608ATMP3       010ATMASA      ON           R$  000000000029500000000003030000000000289000000000029400000000003030000000000292000000000030300019000000000000005600000000000001647700000000000000009999123100000010000000000000BRATMPACNOR8100
012024022608NEXP3       010NEXPE       ON      NM   R$  000000000048600000000004860000000000484000000000048500000000004840000000000473000000000048400002000000000000000200000000000000097000000000000000009999123100000010000000000000BRNEXPACNOR0101
012024022608TEKA3       010TEKA        ON           R$  000000000092300000000009230000000000923000000000092300000000009230000000000922000000000385900001000000000000000200000000000000184600000000000000009999123100000010000000000000BRTEKAACNOR6140
012024022608TEKA4       010TEKA        PN           R$  000000000409900000000043990000000004046000000000409100000000043990000000003600000000000440000019000000000000004700000000000019231300000000000000009999123100000010000000000000BRTEKAACNPR3140
012024022608RNEW11      010RENOVA      UNT     N2   R$  000000000042100000000004240000000000394000000000040000000000004230000000000387000000000042300044000000000000006900000000000002763700000000000000009999123100000010000000000000BRRNEWCDAM15110
012024022608RNEW3       010RENOVA      ON      N2   R$  000000000013800000000001390000000000130000000000013200000000001320000000000131000000000013300257000000000000273200000000000036078400000000000000009999123100000010000000000000BRRNEWACNOR8110
012024022608RNEW4       010RENOVA      PN      N2   R$  000000000013900000000001400000000000130000000000013400000000001320000000000131000000000013200268000000000000230400000000000030930700000000000000009999123100000010000000000000BRRNEWACNPR5110
012024022608RPMG3       010PET MANGUINHON           R$  000000000020100000000002050000000000201000000000020300000000002040000000000202000000000020400014000000000000009800000000000001998400000000000000009999123100000010000000000000BRRPMGACNOR9194
012024022610LJQQ9       010QUERO-QUERO ON  REC NM   R$  000000000051000000000005130000000000500000000000050500000000005070000000000480000000000060000005000000000000000600000000000000303100000000000000009999123100000010000000000000BRLJQQR01OR0103
012024022610VIVR12      010VIVER       DIR     NM   R$  000000000000100000000000030000000000001000000000000200000000000020000000000002000000000000300143000000000000134800000000000000298000000000000000009999123100000010000000000000BRVIVRD02M16121
012024022610MGLU1       010MAGAZ LUIZA DIR ORD NM   R$  000000000001400000000000150000000000012000000000001300000000000120000000000012000000000001302174000000000011404800000000000154289100000000000000009999123100000010000000000000BRMGLUD01OR7122
012024022610ABCB10      010ABC BRASIL  PN  REC N2   R$  000000000243500000000024350000000002410000000000241700000000024120000000002301000000000243800003000000000000000400000000000000966900000000000000009999123100000010000000000000BRABCBR19PR1144
012024022610RENT9       010LOCALIZA    ON  REC NM   R$  000000000524100000000054000000000005241000000000528800000000052430000000000000000000000000000007000000000000000700000000000003701600000000000000009999123100000010000000000000BRRENTR05OR0193
012024022612DVFF11      010FII DEVA FOFCI           R$  000000000081100000000008120000000000796000000000080300000000008080000000000803000000000080800112000000000000001104000000000000887408000000000000009999123100000010000000000000BRDVFFCTF006134
012024022612GSFI11      010FII GENERAL CI           R$  000000000078700000000007890000000000781000000000078600000000007890000000000784000000000078900117000000000000006927000000000005446957000000000000009999123100000010000000000000BRGSFICTF009102
012024022612GTWR11      010FII G TOWERSCI           R$  000000000863500000000086350000000008585000000000861400000000086040000000008585000000000860400926000000000000008448000000000072776924000000000000009999123100000010000000000000BRGTWRCTF003159
012024022612GZIT11      010FII GAZIT   CI  ER       R$  000000000714900000000071490000000007050000000000708700000000071230000000007060000000000712300191000000000000012469000000000088378776000000000000009999123100000010000000000000BRGZITCTF005104
012024022612HAAA11      010FII HEDGEAAACI           R$  000000000443000000000044470000000004401000000000443200000000044010000000004401000000000444600011000000000000000023000000000000101953000000000000009999123100000010000000000000BRHAAACTF003139
012024022612HABT11      010FII HABIT IICI           R$  000000000915500000000092000000000009120000000000916900000000091860000000009185000000000919804511000000000000027265000000000250005162000000000000009999123100000010000000000000BRHABTCTF001156
012024022612KISU11      010FII KILIMA  CI           R$  000000000084100000000008450000000000832000000000083600000000008340000000000833000000000083405513000000000000186577000000000156154150000000000000009999123100000010000000000000BRKISUCTF000140
012024022612KIVO11      010FII KIVO    CI           R$  000000000935000000000093500000000009167000000000922800000000091990000000009168000000000919900321000000000000006152000000000056771619000000000000009999123100000010000000000000BRKIVOCTF007123
012024022612KNCR11      010FII KINEA RICI           R$  000000001039200000000104400000000010385000000001041200000000104260000000010407000000001042618971000000000000085055000000000885657509000000000000009999123100000010000000000000BRKNCRCTF000235
012024022612KNHF11      010FII KINEA HFCI           R$  000000001030200000000103460000000010292000000001031500000000102960000000010298000000001030501354000000000000011996000000000123748471000000000000009999123100000010000000000000BRKNHFCTF004107
012024022612KNHY11      010FII KINEA HYCI           R$  000000001061500000000106200000000010580000000001060000000000106200000000010593000000001062001283000000000000029228000000000309818934000000000000009999123100000010000000000000BRKNHYCTF005167
012024022612KNIP11      010FII KINEA IPCI           R$  000000000968400000000096850000000009620000000000964700000000096570000000009645000000000965707386000000000000100038000000000965142112000000000000009999123100000010000000000000BRKNIPCTF001189
012024022612CXAG11      010FII CAIXA AGCI           R$  000000000811500000000081510000000007999000000000803800000000080000000000008000000000000800300263000000000000003867000000000031086021000000000000009999123100000010000000000000BRCXAGCTF003124
012024022612CXCE11B     010FII CX CEDAECI      MB   R$  000000000440500000000045320000000004383000000000444000000000044460000000004405000000000449500038000000000000000293000000000001300961000000000000009999123100000010000000000000BRCXCECTF004264
012024022612CXCI11      010FII CAIXA CICI           R$  000000000845000000000084950000000008448000000000848000000000084800000000008451000000000848000085000000000000001047000000000008878784000000000000009999123100000010000000000000BRCXCICTF005123
012024022612CXCO11      010FII CEF CORPCI           R$  000000000831500000000083180000000008267000000000830400000000083000000000008275000000000830000121000000000000001445000000000011999982000000000000009999123100000010000000000000BRCXCOCTF003134
012024022612CXRI11      010FII CX RBRAVCI           R$  000000000814900000000081490000000008010000000000808700000000081010000000008112000000000812300013000000000000000135000000000001091834000000000000009999123100000010000000000000BRCXRICTF003224
012024022612CXTL11      010FII CX TRX  CI           R$  000000002490000000000254990000000024900000000002534900000000254990000000024848000000002580000004000000000000000004000000000000101397000000000000009999123100000010000000000000BRCXTLCTF003233
012024022612CYCR11      010FII CYRELA  CI           R$  000000000096500000000009710000000000955000000000096300000000009630000000000963000000000096909653000000000000105042000000000101219235000000000000009999123100000010000000000000BRCYCRCTF004134
