00COTAHIST.2024BOVESPA 20240126                                                                                                                                                                                                                      
012024012602YDUQ3       010YDUQS PART  ON      NM   R$  000000000195300000000019780000000001899000000000195000000000019770000000001977000000000197813350000000000003254600000000006348262500000000000000009999123100000010000000000000BRYDUQACNOR3104
012024012602VLID3       010VALID       ON      NM   R$  000000000223100000000022310000000002161000000000217700000000021610000000002160000000000216202097000000000000418000000000000910388600000000000000009999123100000010000000000000BRVLIDACNOR5141
012024012602KRSA3       010KORA SAUDE  ON      NM   R$  000000000010100000000001010000000000098000000000009900000000000990000000000099000000000010000438000000000000218700000000000021716300000000000000009999123100000010000000000000BRKRSAACNOR0100
012024012602SNSY3       010SANSUY      ON           R$  000000000155000000000019100000000001400000000000169200000000014210000000001420000000000149700237000000000000032400000000000054839200000000000000009999123100000010000000000000BRSNSYACNOR2113
012024012602SNSY5       010SANSUY      PNA          R$  000000000045500000000004850000000000440000000000045800000000004480000000000442000000000044900102000000000000027600000000000012661100000000000000009999123100000010000000000000BRSNSYACNPA5111
012024012602SOJA3       010BOA SAFRA   ON      NM   R$  000000000162100000000016210000000001565000000000158800000000015800000000001580000000000159101180000000000000671200000000001066463300000000000000009999123100000010000000000000BRSOJAACNOR9105
012024012602SOMA3       010GRUPO SOMA  ON      NM   R$  000000000070700000000007140000000000687000000000069600000000006950000000000692000000000069610432000000000008731400000000006082699800000000000000009999123100000010000000000000BRSOMAACNOR3102
012024012602SRNA3       010SERENA      ON      NM   R$  000000000093900000000009580000000000921000000000093400000000009340000000000933000000000093401671000000000000728100000000000680299400000000000000009999123100000010000000000000BRSRNAACNOR4100
012024012602STBP3       010SANTOS BRP  ON      NM   R$  000000000097700000000009870000000000964000000000097800000000009750000000000974000000000097506474000000000002218900000000002170133700000000000000009999123100000010000000000000BRSTBPACNOR3128
012024012602SUZB3       010SUZANO S.A. ON      NM   R$  000000000519200000000053170000000005189000000000527200000000052910000000005290000000000529413602000000000003083300000000016255708200000000000000009999123100000010000000000000BRSUZBACNOR0129
012024012602ODPV3       010ODONTOPREV  ON      NM   R$  000000000118300000000012030000000001174000000000118600000000011830000000001182000000000118803755000000000001216900000000001443584400000000000000009999123100000010000000000000BRODPVACNOR4198
012024012602OFSA3       010OUROFINO S/AON      NM   R$  000000000232100000000023210000000002320000000000232000000000023200000000002294000000000234800043000000000000008400000000000019490000000000000000009999123100000010000000000000BROFSAACNOR7117
012024012602RPAD5       010ALFA HOLDINGPNA ED       R$  000000000076700000000007680000000000762000000000076500000000007680000000000763000000000077000012000000000000003000000000000002296500000000000000009999123100000010000000000000BRRPADACNPA4218
012024012602SEQL3       010SEQUOIA LOG ON      NM   R$  000000000005400000000000550000000000051000000000005200000000000530000000000052000000000005300998000000000008046300000000000422200900000000000000009999123100000010000000000000BRSEQLACNOR2101
012024012602SGPS3       010SPRINGS     ON      NM   R$  000000000011800000000001220000000000116000000000011800000000001190000000000118000000000011900162000000000000252500000000000029936800000000000000009999123100000010000000000000BRSGPSACNOR4104
012024012602SHOW3       010TIME FOR FUNON      NM   R$  000000000020700000000002130000000000203000000000020700000000002130000000000208000000000021300372000000000000298900000000000062101000000000000000009999123100000010000000000000BRSHOWACNOR7105
012024012602SHUL4       010SCHULZ      PN           R$  000000000067500000000006780000000000667000000000067100000000006740000000000670000000000067400760000000000000253300000000000170204700000000000000009999123100000010000000000000BRSHULACNPR4154
012024012602SIMH3       010SIMPAR      ON      NM   R$  000000000079000000000007970000000000775000000000078600000000007850000000000782000000000078504468000000000002499700000000001966372300000000000000009999123100000010000000000000BRSIMHACNOR0107
012024012602LOGG3       010LOG COM PROPON      NM   R$  000000000206700000000020780000000002041000000000206300000000020630000000002048000000000206500797000000000000105200000000000217035900000000000000009999123100000010000000000000BRLOGGACNOR7106
012024012602LOGN3       010LOG-IN      ON      NM   R$  000000000387700000000039210000000003850000000000387600000000038930000000003875000000000389500127000000000000016600000000000064352700000000000000009999123100000010000000000000BRLOGNACNOR3105
012024012602LPSB3       010LOPES BRASILON      NM   R$  000000000023000000000002320000000000224000000000022600000000002250000000000224000000000022500188000000000000061000000000000013786600000000000000009999123100000010000000000000BRLPSBACNOR0113
012024012602LREN3       010LOJAS RENNERON      NM   R$  000000000162300000000016230000000001570000000000158300000000015780000000001577000000000158020017000000000012265900000000019420221700000000000000009999123100000010000000000000BRLRENACNOR1219
012024012602NEOE3       010NEOENERGIA  ON      NM   R$  000000000209700000000021090000000002072000000000208300000000020760000000002076000000000208202324000000000000468100000000000975283400000000000000009999123100000010000000000000BRNEOEACNOR3121
012024012602SANB11      010SANTANDER BRUNT EJ       R$  000000000290200000000029670000000002902000000000293800000000029380000000002935000000000294105921000000000001888500000000005548751400000000000000009999123100000010000000000000BRSANBCDAM13163
012024012602SANB3       010SANTANDER BRON  EJ       R$  000000000137900000000013930000000001370000000000137900000000013810000000001380000000000139000524000000000000077800000000000107288100000000000000009999123100000010000000000000BRSANBACNOR8170
012024012602SANB4       010SANTANDER BRPN  EJ       R$  000000000154400000000015670000000001536000000000155100000000015630000000001556000000000156300574000000000000090600000000000140589500000000000000009999123100000010000000000000BRSANBACNPR5170
012024012602VALE3       010VALE        ON      NM   R$  000000000679000000000069810000000006750000000000691000000000069500000000006950000000000695555520000000000027397200000000189315235600000000000000009999123100000010000000000000BRVALEACNOR0209
012024012602MATD3       010MATER DEI   ON      NM   R$  000000000068400000000006940000000000673000000000068100000000006790000000000676000000000067901884000000000000476900000000000324934200000000000000009999123100000010000000000000BRMATDACNOR4103
012024012602MBLY3       010MOBLY       ON      NM   R$  000000000019800000000001980000000000186000000000019100000000001930000000000192000000000019301329000000000001365600000000000262137900000000000000009999123100000010000000000000BRMBLYACNOR5100
012024012602MDIA3       010M.DIASBRANCOON      NM   R$  000000000386000000000038770000000003801000000000384300000000038340000000003834000000000385501591000000000000321200000000001234576600000000000000009999123100000010000000000000BRMDIAACNOR7133
012024012602MDNE3       010MOURA DUBEUXON      NM   R$  000000000117100000000011930000000001156000000000117400000000011840000000001171000000000118401741000000000000478100000000000561482800000000000000009999123100000010000000000000BRMDNEACNOR9100
012024012602MEAL3       010IMC S/A     ON      NM   R$  000000000018300000000001860000000000182000000000018300000000001850000000000185000000000018601390000000000000693200000000000127415700000000000000009999123100000010000000000000BRMEALACNOR9105
012024012602FRAS3       010FRAS-LE     ON      N1   R$  000000000152000000000015320000000001502000000000151700000000015050000000001505000000000150902038000000000000342000000000000518963900000000000000009999123100000010000000000000BRFRASACNOR0158
012024012602FRIO3       010METALFRIO   ON      NM   R$  000000002540000000000255000000000025300000000002540000000000254000000000025400000000002550000005000000000000000500000000000012700000000000000000009999123100000010000000000000BRFRIOACNOR2111
012024012602GFSA3       010GAFISA      ON      NM   R$  000000000113400000000011500000000001073000000000110900000000010980000000001097000000000110507337000000000003840800000000004262327300000000000000009999123100000010000000000000BRGFSAACNOR3123
012024012602IFCM3       010INFRACOMM   ON      NM   R$  000000000016400000000001690000000000161000000000016500000000001630000000000163000000000016402557000000000005392800000000000889870100000000000000009999123100000010000000000000BRIFCMACNOR8101
012024012602IGTI11      010IGUATEMI S.AUNT     N1   R$  000000000236000000000023710000000002335000000000235100000000023550000000002350000000000235508933000000000001972800000000004639810300000000000000009999123100000010000000000000BRIGTICDAM16104
012024012602IGTI3       010IGUATEMI S.AON      N1   R$  000000000029200000000002920000000000287000000000029000000000002920000000000289000000000029200283000000000000137800000000000039975300000000000000009999123100000010000000000000BRIGTIACNOR8104
012024012602INEP3       010INEPAR      ON           R$  000000000042700000000004330000000000415000000000042300000000004330000000000430000000000043300215000000000000136100000000000057610700000000000000009999123100000010000000000000BRINEPACNOR1143
012024012602INEP4       010INEPAR      PN           R$  000000000034000000000003420000000000329000000000033600000000003420000000000333000000000034200183000000000000048600000000000016349300000000000000009999123100000010000000000000BRINEPACNPR8143
012024012602INTB3       010INTELBRAS   ON      NM   R$  000000000217200000000022130000000002151000000000218900000000021810000000002181000000000218704267000000000000995400000000002179245200000000000000009999123100000010000000000000BRINTBACNOR9109
012024012602IRBR3       010IRBBRASIL REON      NM   R$  000000000411000000000041400000000004009000000000405900000000040650000000004057000000000406506928000000000001830900000000007433417600000000000000009999123100000010000000000000BRIRBRACNOR4110
012024012602LAND3       010TERRASANTAPAON      NM   R$  000000000163500000000016880000000001630000000000165000000000016630000000001662000000000168600183000000000000042100000000000069487300000000000000009999123100000010000000000000BRLANDACNOR9102
012024012602LAVV3       010LAVVI       ON      NM   R$  000000000075700000000007670000000000751000000000075600000000007560000000000751000000000075701138000000000000196600000000000148727100000000000000009999123100000010000000000000BRLAVVACNOR4110
012024012602LEVE3       010METAL LEVE  ON      NM   R$  000000000348500000000035020000000003426000000000345400000000034280000000003428000000000343602050000000000000397700000000001373735200000000000000009999123100000010000000000000BRLEVEACNOR2196
012024012602LJQQ3       010QUERO-QUERO ON      NM   R$  000000000050900000000005200000000000492000000000050800000000005120000000000511000000000051504109000000000002017500000000001026440000000000000000009999123100000010000000000000BRLJQQACNOR5104
012024012602PRIO3       010PETRORIO    ON      NM   R$  000000000446000000000045690000000004425000000000450700000000045690000000004550000000000456918582000000000007097400000000031992909000000000000000009999123100000010000000000000BRPRIOACNOR1106
012024012602TASA3       010TAURUS ARMASON      N2   R$  000000000145900000000014650000000001455000000000145900000000014550000000001455000000000145900059000000000000008500000000000012405700000000000000009999123100000010000000000000BRTASAACNOR7103
012024012602TASA4       010TAURUS ARMASPN      N2   R$  000000000146000000000014670000000001452000000000145800000000014590000000001457000000000145901021000000000000202900000000000295829900000000000000009999123100000010000000000000BRTASAACNPR4103
012024012602TCSA3       010TECNISA     ON      NM   R$  000000000032900000000003300000000000306000000000032100000000003300000000000326000000000033000246000000000000146700000000000047098100000000000000009999123100000010000000000000BRTCSAACNOR3112
012024012602TECN3       010TECHNOS     ON      NM   R$  000000000036100000000003660000000000359000000000036100000000003620000000000360000000000036200186000000000000046400000000000016761000000000000000009999123100000010000000000000BRTECNACNOR6108
012024012602TELB4       010TELEBRAS    PN           R$  000000000116800000000011680000000001168000000000116800000000011680000000001155000000000116800002000000000000001100000000000001284800000000000000009999123100000010000000000000BRTELBACNPR9140
012024012602TEND3       010TENDA       ON      NM   R$  000000000107000000000010790000000001032000000000104700000000010370000000001035000000000103708601000000000003457900000000003621453300000000000000009999123100000010000000000000BRTENDACNOR4111
012024012602TFCO4       010TRACK FIELD PN      N2   R$  000000000142000000000014280000000001400000000000140600000000014030000000001402000000000141000194000000000000051000000000000071745600000000000000009999123100000010000000000000BRTFCOACNPR8111
012024012602TGMA3       010TEGMA       ON      NM   R$  000000000260200000000026020000000002546000000000256600000000025560000000002545000000000255600973000000000000141400000000000362908000000000000000009999123100000010000000000000BRTGMAACNOR7143
012024012602TIMS3       010TIM         ON      NM   R$  000000000174800000000017580000000001736000000000174800000000017520000000001752000000000175305733000000000003576000000000006254135700000000000000009999123100000010000000000000BRTIMSACNOR5114
012024012602TOTS3       010TOTVS       ON      NM   R$  000000000311300000000031340000000003065000000000310800000000030880000000003086000000000310007879000000000001378000000000004283287400000000000000009999123100000010000000000000BRTOTSACNOR8144
012024012602TPIS3       010TRIUNFO PARTON      NM   R$  000000000041600000000004170000000000409000000000041300000000004160000000000411000000000041600118000000000000028100000000000011609600000000000000009999123100000010000000000000BRTPISACNOR8118
012024012602TRAD3       010TC          ON      NM   R$  000000000007200000000000730000000000071000000000007200000000000710000000000071000000000007300102000000000000198000000000000014280700000000000000009999123100000010000000000000BRTRADACNOR3101
012024012602TRIS3       010TRISUL      ON      NM   R$  000000000049300000000004930000000000480000000000048300000000004830000000000483000000000048601206000000000000471100000000000227819800000000000000009999123100000010000000000000BRTRISACNOR4116
012024012602NGRD3       010NEOGRID     ON      NM   R$  000000000011800000000001190000000000115000000000011600000000001160000000000116000000000011700332000000000000322000000000000037555100000000000000009999123100000010000000000000BRNGRDACNOR3103
012024012602NINJ3       010GETNINJAS   ON  ATZ NM   R$  000000000049300000000004930000000000488000000000049000000000004930000000000491000000000049300093000000000000203600000000000099894600000000000000009999123100000010000000000000BRNINJACNOR5101
012024012602NORD3       010NORDON MET  ON           R$  000000000136500000000013810000000001331000000000135000000000013400000000001335000000000138000026000000000000002900000000000003917100000000000000009999123100000010000000000000BRNORDACNOR7135
012024012602NTCO3       010GRUPO NATURAON      NM   R$  000000000162900000000016430000000001584000000000160700000000015970000000001597000000000159818850000000000013267900000000021323191200000000000000009999123100000010000000000000BRNTCOACNOR5104
012024012602RANI3       010IRANI       ON      NM   R$  000000000100900000000010140000000001001000000000100600000000010010000000001000000000000100602119000000000000563500000000000567335600000000000000009999123100000010000000000000BRRANIACNOR5069
012024012602RAPT3       010RANDON PART ON      N1   R$  000000000113100000000011550000000001120000000000114200000000011550000000001125000000000115500101000000000000034600000000000039514600000000000000009999123100000010000000000000BRRAPTACNOR7162
012024012602RAPT4       010RANDON PART PN      N1   R$  000000000116300000000011700000000001143000000000115400000000011430000000001143000000000114504103000000000001395900000000001611008700000000000000009999123100000010000000000000BRRAPTACNPR4162
012024012602TRPL3       010TRAN PAULISTON      N1   R$  000000000367800000000036780000000003550000000000359900000000035500000000003554000000000365500020000000000000002400000000000008639100000000000000009999123100000010000000000000BRTRPLACNOR4185
012024012602TRPL4       010TRAN PAULISTPN      N1   R$  000000000262300000000026400000000002609000000000261700000000026120000000002611000000000261806549000000000001054300000000002759837800000000000000009999123100000010000000000000BRTRPLACNPR1185
012024012602ATOM3       010ATOMPAR     ON           R$  000000000022600000000002260000000000220000000000022000000000002200000000000220000000000022600028000000000000013900000000000003068100000000000000009999123100000010000000000000BRATOMACNOR1106
012024012602AURE3       010AUREN       ON      NM   R$  000000000132900000000013320000000001314000000000132200000000013190000000001317000000000131904396000000000002783300000000003680489000000000000000009999123100000010000000000000BRAUREACNOR9103
012024012602AVLL3       010ALPHAVILLE  ON      NM   R$  000000000051900000000005190000000000519000000000051900000000005190000000000481000000000051900004000000000000000400000000000000207600000000000000009999123100000010000000000000BRAVLLACNOR5103
012024012602RENT3       010LOCALIZA    ON      NM   R$  000000000589000000000058900000000005604000000000570200000000056240000000005618000000000562431598000000000010955800000000062474891300000000000000009999123100000010000000000000BRRENTACNOR4194
012024012602SAPR11      010SANEPAR     UNT     N2   R$  000000000281800000000028270000000002782000000000280900000000028140000000002804000000000281503646000000000000702500000000001973713900000000000000009999123100000010000000000000BRSAPRCDAM13117
012024012602SAPR3       010SANEPAR     ON      N2   R$  000000000053400000000005340000000000523000000000052700000000005260000000000526000000000052900800000000000000336100000000000177373200000000000000009999123100000010000000000000BRSAPRACNOR9158
012024012602SAPR4       010SANEPAR     PN      N2   R$  000000000056900000000005710000000000563000000000056600000000005650000000000565000000000056605627000000000001626700000000000922206000000000000000009999123100000010000000000000BRSAPRACNPR6158
012024012602SBFG3       010GRUPO SBF   ON      NM   R$  000000000132500000000013640000000001315000000000134100000000013360000000001336000000000134408973000000000003072700000000004120872400000000000000009999123100000010000000000000BRSBFGACNOR1102
012024012602SBSP3       010SABESP      ON      NM   R$  000000000770300000000077690000000007652000000000770600000000077040000000007703000000000771408169000000000001669500000000012866686600000000000000009999123100000010000000000000BRSBSPACNOR5160
012024012602SCAR3       010SAO CARLOS  ON      NM   R$  000000000269900000000027400000000002687000000000271600000000027400000000002625000000000274000045000000000000009100000000000024724000000000000000009999123100000010000000000000BRSCARACNOR7130
012024012602SEER3       010SER EDUCA   ON      NM   R$  000000000066600000000006710000000000640000000000065300000000006570000000000657000000000065802665000000000000974000000000000636913700000000000000009999123100000010000000000000BRSEERACNOR5119
012024012602AZEV3       010AZEVEDO     ON           R$  000000000016400000000001650000000000162000000000016300000000001630000000000162000000000016300337000000000000247500000000000040481200000000000000009999123100000010000000000000BRAZEVACNOR0121
012024012602AZEV4       010AZEVEDO     PN           R$  000000000015900000000001620000000000158000000000016000000000001600000000000160000000000016100553000000000000757500000000000121464800000000000000009999123100000010000000000000BRAZEVACNPR7121
012024012602AZUL4       010AZUL        PN      N2   R$  000000000141800000000014360000000001380000000000140700000000014270000000001427000000000142831702000000000019202600000000027024403800000000000000009999123100000010000000000000BRAZULACNPR4102
012024012602RRRP3       0103R PETROLEUMON      NM   R$  000000000281500000000028750000000002800000000000284000000000028750000000002865000000000287806712000000000002761100000000007844105900000000000000009999123100000010000000000000BRRRRPACNOR5102
012024012602RSUL4       010RIOSULENSE  PN           R$  000000000794200000000082000000000007903000000000799700000000080000000000007960000000000819700025000000000000002600000000000020793600000000000000009999123100000010000000000000BRRSULACNPR3113
012024012602BEEF3       010MINERVA     ON      NM   R$  000000000071300000000007240000000000711000000000071900000000007190000000000718000000000072006838000000000005902500000000004244832200000000000000009999123100000010000000000000BRBEEFACNOR6116
012024012602BPAC11      010BTGP BANCO  UNT     N2   R$  000000000373600000000037370000000003683000000000370500000000037040000000003699000000000370413006000000000006624200000000024547763900000000000000009999123100000010000000000000BRBPACUNT006118
012024012602RCSL3       010RECRUSUL    ON           R$  000000000027800000000002790000000000227000000000025000000000002400000000000239000000000024004428000000000004117500000000001031255100000000000000009999123100000010000000000000BRRCSLACNOR4133
012024012602RCSL4       010RECRUSUL    PN           R$  000000000007500000000000800000000000068000000000007300000000000690000000000069000000000007002617000000000006384000000000000471566900000000000000009999123100000010000000000000BRRCSLACNPR1133
012024012602RDNI3       010RNI         ON      NM   R$  000000000047500000000004810000000000471000000000047500000000004710000000000471000000000047700008000000000000000800000000000000380300000000000000009999123100000010000000000000BRRDNIACNOR9116
012024012602RDOR3       010REDE D OR   ON      NM   R$  000000000273000000000027910000000002690000000000274200000000027560000000002756000000000275908311000000000002611900000000007162735200000000000000009999123100000010000000000000BRRDORACNOR8111
012024012602RECV3       010PETRORECSA  ON      NM   R$  000000000236500000000023990000000002336000000000237900000000023830000000002375000000000238508517000000000002475700000000005890694100000000000000009999123100000010000000000000BRRECVACNOR3105
012024012602REDE3       010REDE ENERGIAON           R$  000000000068800000000007190000000000676000000000068900000000006930000000000694000000000071300032000000000000004400000000000003034800000000000000009999123100000010000000000000BRREDEACNOR7126
012024012602USIM3       010USIMINAS    ON      N1   R$  000000000087600000000009040000000000874000000000089500000000009020000000000901000000000090303487000000000001849500000000001656292700000000000000009999123100000010000000000000BRUSIMACNOR3166
012024012602USIM5       010USIMINAS    PNA     N1   R$  000000000094000000000009560000000000918000000000094100000000009500000000000950000000000095123875000000000033917500000000031916714300000000000000009999123100000010000000000000BRUSIMACNPA6168
012024012602WEST3       010WESTWING    ON      NM   R$  000000000012600000000001290000000000125000000000012500000000001260000000000126000000000012700044000000000000060500000000000007594700000000000000009999123100000010000000000000BRWESTACNOR3100
012024012602WHRL3       010WHIRLPOOL   ON           R$  000000000041500000000004170000000000415000000000041500000000004150000000000415000000000042200006000000000000003400000000000001411700000000000000009999123100000010000000000000BRWHRLACNOR5128
012024012602WHRL4       010WHIRLPOOL   PN           R$  000000000044100000000004450000000000441000000000044100000000004450000000000441000000000044500005000000000000001100000000000000485800000000000000009999123100000010000000000000BRWHRLACNPR2128
012024012602WIZC3       010WIZ CO      ON      NM   R$  000000000068300000000006830000000000659000000000067000000000006590000000000659000000000066401069000000000000222100000000000148885100000000000000009999123100000010000000000000BRWIZCACNOR5101
012024012602WLMM4       010WLM IND COM PN           R$  000000000269000000000026910000000002690000000000269000000000026900000000002690000000000271000007000000000000000700000000000001883100000000000000009999123100000010000000000000BRWLMMACNPR3116
012024012602BPAC3       010BTGP BANCO  ON      N2   R$  000000000179400000000018080000000001792000000000180000000000018020000000001760000000000181000018000000000000001800000000000003240100000000000000009999123100000010000000000000BRBPACACNOR7133
012024012602BPAC5       010BTGP BANCO  PNA     N2   R$  000000000095300000000009600000000000936000000000094400000000009450000000000931000000000094500030000000000000004900000000000004626300000000000000009999123100000010000000000000BRBPACACNPA0133
012024012602BPAN4       010BANCO PAN   PN      N1   R$  000000000080800000000008080000000000789000000000079700000000007990000000000799000000000080001595000000000000722700000000000576095500000000000000009999123100000010000000000000BRBPANACNPR1115
012024012602BRAP3       010BRADESPAR   ON      N1   R$  000000000210000000000021750000000002080000000000211100000000021750000000002121000000000217500205000000000000030400000000000064188200000000000000009999123100000010000000000000BRBRAPACNOR5147
012024012602BRAP4       010BRADESPAR   PN      N1   R$  000000000229500000000023280000000002269000000000230700000000023220000000002322000000000232307064000000000003009300000000006945204200000000000000009999123100000010000000000000BRBRAPACNPR2147
012024012602CLSA3       010CLEARSALE   ON      NM   R$  000000000032300000000003230000000000310000000000031300000000003100000000000310000000000031601034000000000000918700000000000287974200000000000000009999123100000010000000000000BRCLSAACNOR0100
012024012602CLSC4       010CELESC      PN      N2   R$  000000000669500000000067480000000006646000000000669500000000067090000000006603000000000670900017000000000000002100000000000014060100000000000000009999123100000010000000000000BRCLSCACNPR3128
012024012602CMIG3       010CEMIG       ON      N1   R$  000000000152300000000015290000000001497000000000151000000000014970000000001496000000000150301518000000000000417500000000000630638200000000000000009999123100000010000000000000BRCMIGACNOR6239
012024012602CMIG4       010CEMIG       PN      N1   R$  000000000117100000000011800000000001164000000000116800000000011640000000001164000000000116911983000000000005418100000000006332216600000000000000009999123100000010000000000000BRCMIGACNPR3240
012024012602CYRE3       010CYRELA REALTON      NM   R$  000000000232500000000023340000000002262000000000229200000000022840000000002280000000000228514588000000000004548400000000010426453400000000000000009999123100000010000000000000BRCYREACNOR7139
012024012602DASA3       010DASA        ON      NM   R$  000000000088200000000008840000000000857000000000086700000000008590000000000857000000000086201098000000000000209400000000000181585400000000000000009999123100000010000000000000BRDASAACNOR1122
012024012602DESK3       010DESKTOP     ON      NM   R$  000000000133300000000013550000000001282000000000131400000000013350000000001326000000000133501321000000000000473600000000000622708000000000000000009999123100000010000000000000BRDESKACNOR2103
012024012602DEXP3       010DEXXOS PAR  ON      N1   R$  000000000116900000000011880000000001149000000000117200000000011810000000001165000000000118100285000000000000070000000000000082078800000000000000009999123100000010000000000000BRDEXPACNOR1104
012024012602DEXP4       010DEXXOS PAR  PN      N1   R$  000000000118500000000011850000000001185000000000118500000000011850000000001180000000000118500001000000000000000100000000000000118500000000000000009999123100000010000000000000BRDEXPACNPR8104
012024012602DIRR3       010DIRECIONAL  ON      NM   R$  000000000223800000000022380000000002184000000000221100000000022090000000002203000000000221205417000000000000893600000000001976573700000000000000009999123100000010000000000000BRDIRRACNOR0117
012024012602DMVF3       010D1000VFARMA ON      NM   R$  000000000060900000000006100000000000600000000000060600000000006050000000000603000000000060500211000000000000036700000000000022246800000000000000009999123100000010000000000000BRDMVFACNOR9100
012024012602DOHL4       010DOHLER      PN           R$  000000000050000000000005070000000000497000000000049900000000005070000000000495000000000050700005000000000000001900000000000000949300000000000000009999123100000010000000000000BRDOHLACNPR9066
012024012602DOTZ3       010DOTZ SA     ON      NM   R$  000000000073000000000007950000000000724000000000076700000000007240000000000715000000000074300046000000000000017700000000000013584100000000000000009999123100000010000000000000BRDOTZACNOR7101
012024012602DTCY3       010DTCOM-DIRECTON           R$  000000000049900000000005000000000000499000000000049900000000005000000000000453000000000053600004000000000000000400000000000000199800000000000000009999123100000010000000000000BRDTCYACNOR5109
012024012602LUPA3       010LUPATECH    ON      NM   R$  000000000021000000000002110000000000205000000000020800000000002080000000000208000000000021001391000000000000494400000000000102880100000000000000009999123100000010000000000000BRLUPAACNOR8112
012024012602LVTC3       010WDC NETWORKSON      NM   R$  000000000039200000000003970000000000388000000000039000000000003940000000000392000000000039400042000000000000048300000000000018842900000000000000009999123100000010000000000000BRLVTCACNOR4102
012024012602LWSA3       010LWSA        ON      NM   R$  000000000055400000000005600000000000546000000000055300000000005550000000000555000000000055610102000000000010197200000000005640702900000000000000009999123100000010000000000000BRLWSAACNOR8103
012024012602ONCO3       010ONCOCLINICASON      NM   R$  000000000119100000000012080000000001166000000000119400000000011970000000001197000000000119803698000000000001222100000000001459345000000000000000009999123100000010000000000000BRONCOACNOR6100
012024012602OPCT3       010OCEANPACT   ON      NM   R$  000000000056600000000005860000000000560000000000057500000000005830000000000576000000000058301172000000000000529400000000000304659100000000000000009999123100000010000000000000BROPCTACNOR0100
012024012602ORVR3       010ORIZON      ON      NM   R$  000000000354900000000035700000000003517000000000353800000000035320000000003532000000000353600571000000000000210000000000000743078300000000000000009999123100000010000000000000BRORVRACNOR0101
012024012602SLCE3       010SLC AGRICOLAON      NM   R$  000000000193700000000019510000000001910000000000192700000000019300000000001930000000000193407236000000000001542800000000002974484200000000000000009999123100000010000000000000BRSLCEACNOR2124
012024012602SMFT3       010SMART FIT   ON      NM   R$  000000000248300000000025100000000002448000000000248900000000025010000000002501000000000250205345000000000001134200000000002824041800000000000000009999123100000010000000000000BRSMFTACNOR1111
012024012602SMTO3       010SAO MARTINHOON      NM   R$  000000000289300000000028970000000002813000000000283300000000028200000000002817000000000282005109000000000002595600000000007355037800000000000000009999123100000010000000000000BRSMTOACNOR3125
012024012602AESB3       010AES BRASIL  ON      NM   R$  000000000113500000000011430000000001129000000000113500000000011340000000001132000000000113404346000000000001227800000000001394441600000000000000009999123100000010000000000000BRAESBACNOR7105
012024012602AFLT3       010AFLUENTE T  ON           R$  000000000078600000000008000000000000786000000000079100000000008000000000000780000000000080000005000000000000001400000000000001107800000000000000009999123100000010000000000000BRAFLTACNOR1120
012024012602AGRO3       010BRASILAGRO  ON      NM   R$  000000000253600000000025360000000002499000000000251900000000025350000000002526000000000253501204000000000000180800000000000455546600000000000000009999123100000010000000000000BRAGROACNOR7114
012024012602AGXY3       010AGROGALAXY  ON      NM   R$  000000000028700000000002910000000000283000000000028500000000002860000000000284000000000028600286000000000000080700000000000023053800000000000000009999123100000010000000000000BRAGXYACNOR4102
012024012602ALLD3       010ALLIED      ON      NM   R$  000000000070500000000007290000000000704000000000071000000000007040000000000704000000000071800095000000000000034300000000000024384600000000000000009999123100000010000000000000BRALLDACNOR3105
012024012602ALOS3       010ALLOS       ON      NM   R$  000000000248000000000024920000000002453000000000247000000000024620000000002462000000000246306344000000000001390100000000003433744100000000000000009999123100000010000000000000BRALOSACNOR5100
012024012602ALPA3       010ALPARGATAS  ON      N1   R$  000000000095000000000009500000000000950000000000095000000000009500000000000916000000000094600001000000000000000100000000000000095000000000000000009999123100000010000000000000BRALPAACNOR0231
012024012602VSTE3       010VESTE       ON  ES  NM   R$  000000000177900000000017840000000001752000000000177400000000017800000000001780000000000179700025000000000000004100000000000007275700000000000000009999123100000010000000000000BRVSTEACNOR5102
012024012602VULC3       010VULCABRAS   ON  ED  NM   R$  000000000194000000000019440000000001841000000000187800000000018450000000001844000000000185606994000000000002431200000000004567270300000000000000009999123100000010000000000000BRVULCACNOR2157
012024012602VVEO3       010VIVEO       ON      NM   R$  000000000114800000000011480000000001122000000000113000000000011250000000001125000000000113201596000000000000251400000000000284297800000000000000009999123100000010000000000000BRVVEOACNOR0103
012024012602WEGE3       010WEG         ON      NM   R$  000000000334000000000033500000000003304000000000332600000000033170000000003316000000000331909388000000000003828900000000012736143300000000000000009999123100000010000000000000BRWEGEACNOR0220
012024012602SYNE3       010SYN PROP TECON      NM   R$  000000000042300000000004350000000000423000000000043100000000004320000000000432000000000043500696000000000000181200000000000078217900000000000000009999123100000010000000000000BRSYNEACNOR2102
012024012602TAEE11      010TAESA       UNT     N2   R$  000000000367900000000036980000000003677000000000368800000000036900000000003680000000000369205185000000000000827100000000003050892500000000000000009999123100000010000000000000BRTAEECDAM10145
012024012602TAEE3       010TAESA       ON      N2   R$  000000000121900000000012240000000001215000000000122000000000012220000000001218000000000122200440000000000000063400000000000077367100000000000000009999123100000010000000000000BRTAEEACNOR9145
012024012602TAEE4       010TAESA       PN      N2   R$  000000000123300000000012380000000001230000000000123400000000012350000000001230000000000123500687000000000000171300000000000211527300000000000000009999123100000010000000000000BRTAEEACNPR6145
012024012602VAMO3       010VAMOS       ON      NM   R$  000000000082000000000008270000000000811000000000082000000000008180000000000818000000000082111667000000000005075500000000004164533900000000000000009999123100000010000000000000BRVAMOACNOR7105
012024012602VBBR3       010VIBRA       ON      NM   R$  000000000233900000000023400000000002297000000000231700000000023230000000002322000000000232708326000000000002512100000000005822399800000000000000009999123100000010000000000000BRVBBRACNOR1106
012024012602ROMI3       010ROMI        ON      NM   R$  000000000132200000000013220000000001292000000000130100000000012950000000001295000000000129801069000000000000193500000000000251789300000000000000009999123100000010000000000000BRROMIACNOR8192
012024012602CAMB3       010CAMBUCI     ON           R$  000000000113500000000011490000000001130000000000113800000000011450000000001134000000000114500058000000000000019600000000000022310900000000000000009999123100000010000000000000BRCAMBACNOR4127
012024012602CAML3       010CAMIL       ON      NM   R$  000000000089400000000009100000000000886000000000089700000000008940000000000894000000000089502561000000000000637700000000000572479500000000000000009999123100000010000000000000BRCAMLACNOR3126
012024012602CASH3       010MELIUZ      ON      NM   R$  000000000080100000000008320000000000795000000000081600000000008090000000000809000000000081004451000000000002778000000000002268985900000000000000009999123100000010000000000000BRCASHACNOR8105
012024012602CBAV3       010CBA         ON      NM   R$  000000000040600000000004200000000000406000000000041500000000004150000000000415000000000041603601000000000002891100000000001202545900000000000000009999123100000010000000000000BRCBAVACNOR5104
012024012602CSNA3       010SID NACIONALON           R$  000000000180100000000018490000000001800000000000182700000000018160000000001815000000000181710750000000000006010700000000010986510900000000000000009999123100000010000000000000BRCSNAACNOR6260
012024012602CSUD3       010CSU DIGITAL ON      NM   R$  000000000194400000000019440000000001875000000000189500000000019080000000001887000000000190800254000000000000046900000000000088911100000000000000009999123100000010000000000000BRCSUDACNOR5107
012024012602CTKA4       010KARSTEN     PN           R$  000000000180000000000018000000000001750000000000177500000000017500000000001700000000000175000002000000000000000200000000000000355000000000000000009999123100000010000000000000BRCTKAACNPR7043
012024012602HBOR3       010HELBOR      ON      NM   R$  000000000027200000000002730000000000265000000000026800000000002660000000000266000000000026800936000000000000362800000000000097357100000000000000009999123100000010000000000000BRHBORACNOR3117
012024012602HBRE3       010HBR REALTY  ON      NM   R$  000000000050700000000005080000000000486000000000049100000000004870000000000487000000000048801084000000000000772400000000000379834700000000000000009999123100000010000000000000BRHBREACNOR4100
012024012602HBSA3       010HIDROVIAS   ON      NM   R$  000000000037700000000003780000000000369000000000037100000000003700000000000369000000000037004483000000000002927700000000001088159400000000000000009999123100000010000000000000BRHBSAACNOR0100
012024012602HBTS5       010HABITASUL   PNA          R$  000000000420000000000042000000000003900000000000392700000000039000000000003751000000000390000007000000000000001100000000000004320100000000000000009999123100000010000000000000BRHBTSACNPA3127
012024012602HETA4       010HERCULES    PN           R$  000000000062900000000006290000000000629000000000062900000000006290000000000583000000000062500001000000000000000100000000000000062900000000000000009999123100000010000000000000BRHETAACNPR9136
012024012602HYPE3       010HYPERA      ON      NM   R$  000000000315900000000031720000000003091000000000312500000000031080000000003107000000000310811580000000000003446700000000010771841900000000000000009999123100000010000000000000BRHYPEACNOR0136
012024012602KLBN4       010KLABIN S/A  PN      N2   R$  000000000043800000000004450000000000437000000000044100000000004400000000000440000000000044201747000000000001207200000000000532581100000000000000009999123100000010000000000000BRKLBNACNPR9167
012024012602VITT3       010VITTIA      ON      NM   R$  000000000080600000000008200000000000730000000000076200000000007700000000000770000000000077105865000000000003388100000000002582832600000000000000009999123100000010000000000000BRVITTACNOR4106
012024012602VIVA3       010VIVARA S.A. ON      NM   R$  000000000346600000000035170000000003447000000000349400000000034950000000003487000000000349504341000000000000948200000000003313624700000000000000009999123100000010000000000000BRVIVAACNOR0106
012024012602VIVR3       010VIVER       ON  ES  NM   R$  000000000047800000000004820000000000463000000000047100000000004720000000000472000000000047400312000000000000198600000000000093563600000000000000009999123100000010000000000000BRVIVRACNOR4121
012024012602VIVT3       010TELEF BRASILON           R$  000000000508500000000051260000000005062000000000510500000000051200000000005097000000000512105015000000000001271800000000006492896200000000000000009999123100000010000000000000BRVIVTACNOR0178
012024012602BIOM3       010BIOMM       ON      MA   R$  000000000054200000000005590000000000538000000000054000000000005380000000000536000000000054700039000000000000003900000000000002106400000000000000009999123100000010000000000000BRBIOMACNOR2112
012024012602BLAU3       010BLAU        ON      NM   R$  000000000129500000000013000000000001267000000000127600000000012750000000001269000000000127501475000000000000290800000000000371322000000000000000009999123100000010000000000000BRBLAUACNOR8111
012024012602BRBI11      010BR PARTNERS UNT     N2   R$  000000000158000000000015910000000001560000000000157700000000015830000000001574000000000158400742000000000000098100000000000154744500000000000000009999123100000010000000000000BRBRBICDAM10107
012024012602BRFS3       010BRF SA      ON      NM   R$  000000000144600000000014930000000001446000000000146500000000014610000000001458000000000146211525000000000006917600000000010138284400000000000000009999123100000010000000000000BRBRFSACNOR8121
012024012602CPFE3       010CPFL ENERGIAON      NM   R$  000000000363700000000037320000000003637000000000370100000000037100000000003710000000000371507164000000000001983700000000007342122500000000000000009999123100000010000000000000BRCPFEACNOR0136
012024012602CPLE3       010COPEL       ON      N2   R$  000000000091200000000009160000000000895000000000090100000000009030000000000902000000000090506400000000000006919600000000006240540400000000000000009999123100000010000000000000BRCPLEACNOR8148
012024012602CPLE5       010COPEL       PNA     N2   R$  000000000245000000000024500000000002450000000000245000000000024500000000002303000000000245000001000000000000000100000000000000245000000000000000009999123100000010000000000000BRCPLEACNPA1146
012024012602CPLE6       010COPEL       PNB     N2   R$  000000000100600000000010130000000000996000000000100400000000010070000000001007000000000100809761000000000009662000000000009705106800000000000000009999123100000010000000000000BRCPLEACNPB9145
012024012602ELET3       010ELETROBRAS  ON      N1   R$  000000000413100000000041440000000004086000000000410100000000040860000000004085000000000410010583000000000002678800000000010987624600000000000000009999123100000010000000000000BRELETACNOR6159
012024012602ELET6       010ELETROBRAS  PNB     N1   R$  000000000463900000000046420000000004591000000000460600000000046040000000004600000000000460402115000000000000413500000000001904784500000000000000009999123100000010000000000000BRELETACNPB7076
012024012602ELMD3       010ELETROMIDIA ON      NM   R$  000000000172200000000017400000000001690000000000171900000000017300000000001707000000000173100160000000000000035100000000000060347100000000000000009999123100000010000000000000BRELMDACNOR3100
012024012602EMAE4       010EMAE        PN           R$  000000000570000000000057890000000005676000000000571800000000057890000000005615000000000578900011000000000000001500000000000008578000000000000000009999123100000010000000000000BREMAEACNPR1124
012024012602EMBR3       010EMBRAER     ON      NM   R$  000000000227200000000022920000000002226000000000224700000000022400000000002238000000000224008611000000000002708400000000006086006200000000000000009999123100000010000000000000BREMBRACNOR4191
012024012602ITSA3       010ITAUSA      ON      N1   R$  000000000098800000000010020000000000988000000000099500000000009930000000000993000000000099900457000000000000142200000000000141562600000000000000009999123100000010000000000000BRITSAACNOR0436
012024012602ITSA4       010ITAUSA      PN      N1   R$  000000000099600000000010060000000000993000000000100000000000010010000000001001000000000100227435000000000016850900000000016856193600000000000000009999123100000010000000000000BRITSAACNPR7436
012024012602BEES3       010BANESTES    ON           R$  000000000096500000000009690000000000965000000000096500000000009650000000000964000000000096800049000000000000007300000000000007050700000000000000009999123100000010000000000000BRBEESACNOR9386
012024012602BEES4       010BANESTES    PN           R$  000000000099800000000010000000000000998000000000099900000000009990000000000998000000000099900012000000000000001200000000000001198800000000000000009999123100000010000000000000BRBEESACNPR6311
012024012602BGIP4       010BANESE      PN           R$  000000000255000000000026030000000002525000000000257000000000025300000000002525000000000269900012000000000000001800000000000004627100000000000000009999123100000010000000000000BRBGIPACNPR8206
012024012602BHIA3       010CASAS BAHIA ON      NM   R$  000000000089400000000008950000000000867000000000087700000000008700000000000870000000000087105528000000000003139500000000002754294100000000000000009999123100000010000000000000BRBHIAACNOR1101
012024012602CMIN3       010CSNMINERACAOON      N2   R$  000000000066600000000006860000000000666000000000067700000000006820000000000680000000000068207809000000000004822300000000003265007800000000000000009999123100000010000000000000BRCMINACNOR2110
012024012602COCE5       010COELCE      PNA          R$  000000000413100000000041400000000004088000000000411200000000040880000000004087000000000414500036000000000000004000000000000016450900000000000000009999123100000010000000000000BRCOCEACNPA3146
012024012602COGN3       010COGNA ON    ON      NM   R$  000000000030400000000003060000000000297000000000030100000000003030000000000302000000000030311905000000000018594700000000005612881500000000000000009999123100000010000000000000BRCOGNACNOR2104
012024012602DXCO3       010DEXCO       ON      NM   R$  000000000077500000000007850000000000770000000000077800000000007810000000000780000000000078304872000000000002763100000000002150343400000000000000009999123100000010000000000000BRDXCOACNOR8104
012024012602EALT3       010ACO ALTONA  ON           R$  000000000096000000000009600000000000941000000000095000000000009410000000000942000000000098000002000000000000000200000000000000190100000000000000009999123100000010000000000000BREALTACNOR4137
012024012602EALT4       010ACO ALTONA  PN           R$  000000000101900000000010300000000001013000000000102400000000010250000000001015000000000102500016000000000000001700000000000001740800000000000000009999123100000010000000000000BREALTACNPR1137
012024012602ECOR3       010ECORODOVIAS ON      NM   R$  000000000091000000000009180000000000895000000000090900000000009060000000000906000000000091303469000000000002272300000000002066684300000000000000009999123100000010000000000000BRECORACNOR8119
012024012602EGIE3       010ENGIE BRASILON      NM   R$  000000000414300000000041590000000004092000000000412200000000041040000000004103000000000410803928000000000001054100000000004345156400000000000000009999123100000010000000000000BREGIEACNOR9125
012024012602ZAMP3       010ZAMP S.A.   ON           R$  000000000053300000000005390000000000515000000000052800000000005220000000000521000000000052302452000000000000608300000000000321283200000000000000009999123100000010000000000000BRZAMPACNOR5100
012024012602TTEN3       0103TENTOS     ON      NM   R$  000000000111100000000011230000000001102000000000111000000000011090000000001107000000000111004435000000000000900100000000000999306400000000000000009999123100000010000000000000BRTTENACNOR0102
012024012602TUPY3       010TUPY        ON  EJ  NM   R$  000000000260100000000026110000000002590000000000259900000000026010000000002591000000000260201844000000000000317700000000000825922000000000000000009999123100000010000000000000BRTUPYACNOR1183
012024012602UCAS3       010UNICASA     ON      NM   R$  000000000028400000000002840000000000269000000000027300000000002810000000000271000000000028100186000000000000127500000000000034886400000000000000009999123100000010000000000000BRUCASACNOR1113
012024012602UGPA3       010ULTRAPAR    ON      NM   R$  000000000279500000000028390000000002784000000000282400000000028310000000002827000000000283210797000000000003700900000000010452259200000000000000009999123100000010000000000000BRUGPAACNOR8154
012024012602UNIP3       010UNIPAR      ON           R$  000000000674000000000067400000000006694000000000671300000000067070000000006700000000000671200104000000000000014600000000000098018100000000000000009999123100000010000000000000BRUNIPACNOR7204
012024012602UNIP6       010UNIPAR      PNB          R$  000000000713300000000071480000000007080000000000711200000000071250000000007124000000000712801088000000000000178800000000001271742400000000000000009999123100000010000000000000BRUNIPACNPB8204
012024012602HAPV3       010HAPVIDA     ON      NM   R$  000000000040300000000004060000000000389000000000039600000000003930000000000392000000000039337364000000000070017700000000027757173800000000000000009999123100000010000000000000BRHAPVACNOR4113
012024012602JHSF3       010JHSF PART   ON      NM   R$  000000000048800000000004940000000000482000000000048800000000004870000000000487000000000049005774000000000002557700000000001249098600000000000000009999123100000010000000000000BRJHSFACNOR2131
012024012602JSLG3       010JSL         ON      NM   R$  000000000111700000000011250000000001098000000000110900000000011060000000001099000000000110600515000000000000105000000000000116534200000000000000009999123100000010000000000000BRJSLGACNOR2121
012024012602AALR3       010ALLIAR      ON      NM   R$  000000000084000000000008490000000000831000000000083800000000008440000000000835000000000084500253000000000000031800000000000026662800000000000000009999123100000010000000000000BRAALRACNOR6102
012024012602ABCB4       010ABC BRASIL  PN      N2   R$  000000000231900000000023320000000002300000000000231300000000023220000000002305000000000232201967000000000000377800000000000874147200000000000000009999123100000010000000000000BRABCBACNPR4145
012024012602KEPL3       010KEPLER WEBERON      NM   R$  000000000099200000000009920000000000977000000000098200000000009850000000000985000000000098603579000000000001106500000000001087190800000000000000009999123100000010000000000000BRKEPLACNOR1061
012024012602CRPG5       010CRISTAL     PNA          R$  000000000361400000000037090000000003600000000000364200000000036590000000003612000000000366000037000000000000004800000000000017484100000000000000009999123100000010000000000000BRCRPGACNPA3118
012024012602CRPG6       010CRISTAL     PNB          R$  000000000369900000000036990000000003644000000000366200000000036600000000003660000000000375000005000000000000000500000000000001831400000000000000009999123100000010000000000000BRCRPGACNPB1118
012024012602CSAN3       010COSAN       ON      NM   R$  000000000185500000000018660000000001830000000000185300000000018570000000001855000000000185807656000000000002343100000000004343405400000000000000009999123100000010000000000000BRCSANACNOR6124
012024012602CSED3       010CRUZEIRO EDUON      NM   R$  000000000042300000000004240000000000408000000000041400000000004080000000000408000000000041301399000000000000477100000000000197872600000000000000009999123100000010000000000000BRCSEDACNOR9104
012024012602CSMG3       010COPASA      ON      NM   R$  000000000223900000000022390000000002158000000000218400000000021580000000002156000000000217207420000000000001425800000000003114183800000000000000009999123100000010000000000000BRCSMGACNOR5171
012024012602GRND3       010GRENDENE    ON      NM   R$  000000000068600000000006860000000000672000000000067900000000006800000000000678000000000068003526000000000000876400000000000595612200000000000000009999123100000010000000000000BRGRNDACNOR3172
012024012602ABEV3       010AMBEV S/A   ON           R$  000000000132600000000013290000000001315000000000132300000000013200000000001319000000000132212278000000000006568000000000008692351900000000000000009999123100000010000000000000BRABEVACNOR1127
012024012602BBDC3       010BRADESCO    ON      N1   R$  000000000137200000000013900000000001367000000000138000000000013750000000001374000000000137905220000000000003322500000000004586968200000000000000009999123100000010000000000000BRBBDCACNOR1765
012024012602BBDC4       010BRADESCO    PN      N1   R$  000000000154000000000015620000000001535000000000155200000000015520000000001549000000000155224121000000000022825700000000035430277900000000000000009999123100000010000000000000BRBBDCACNPR8765
012024012602CRFB3       010CARREFOUR BRON      NM   R$  000000000110200000000011080000000001070000000000108000000000010710000000001071000000000107208517000000000003534200000000003819979300000000000000009999123100000010000000000000BRCRFBACNOR2116
012024012602CRIV3       010ALFA FINANC ON           R$  000000000059800000000005980000000000598000000000059800000000005980000000000591000000000059800003000000000000000400000000000000239200000000000000009999123100000010000000000000BRCRIVACNOR4195
012024012602CRIV4       010ALFA FINANC PN           R$  000000000055500000000005580000000000555000000000055700000000005580000000000556000000000056600003000000000000000300000000000000167100000000000000009999123100000010000000000000BRCRIVACNPR1211
012024012602GUAR3       010GUARARAPES  ON      NM   R$  000000000053600000000005410000000000525000000000053200000000005330000000000533000000000053403321000000000001949300000000001038225400000000000000009999123100000010000000000000BRGUARACNOR4172
012024012602HAGA3       010HAGA S/A    ON           R$  000000000026600000000002660000000000259000000000026000000000002590000000000259000000000026500007000000000000001800000000000000469600000000000000009999123100000010000000000000BRHAGAACNOR7103
012024012602HAGA4       010HAGA S/A    PN           R$  000000000011200000000001130000000000110000000000011100000000001120000000000110000000000011300011000000000000004400000000000000491500000000000000009999123100000010000000000000BRHAGAACNPR4103
012024012602ALPA4       010ALPARGATAS  PN      N1   R$  000000000087800000000008800000000000862000000000086900000000008670000000000867000000000087005954000000000001610200000000001400613700000000000000009999123100000010000000000000BRALPAACNPR7232
012024012602ALPK3       010ESTAPAR     ON      NM   R$  000000000046700000000004750000000000459000000000046700000000004600000000000460000000000046700453000000000000130100000000000060876700000000000000009999123100000010000000000000BRALPKACNOR9101
012024012602ALUP11      010ALUPAR      UNT     N2   R$  000000000292400000000029540000000002923000000000293700000000029320000000002925000000000293401915000000000000464200000000001363489300000000000000009999123100000010000000000000BRALUPCDAM15117
012024012602BRSR3       010BANRISUL    ON      N1   R$  000000000142800000000014500000000001419000000000143200000000014350000000001425000000000143900045000000000000006700000000000009594400000000000000009999123100000010000000000000BRBRSRACNOR3185
012024012602BRSR6       010BANRISUL    PNB     N1   R$  000000000142600000000014400000000001419000000000143200000000014400000000001430000000000144003457000000000000923600000000001322938900000000000000009999123100000010000000000000BRBRSRACNPB4188
012024012602BSLI3       010BRB BANCO   ON           R$  000000000132100000000013210000000001321000000000132100000000013210000000001261000000000132100001000000000000000100000000000000132100000000000000009999123100000010000000000000BRBSLIACNOR5192
012024012602BSLI4       010BRB BANCO   PN           R$  000000000116000000000012100000000001160000000000117000000000011900000000001190000000000121900008000000000000000800000000000000936000000000000000009999123100000010000000000000BRBSLIACNPR2192
012024012602ESPA3       010ESPACOLASER ON      NM   R$  000000000011000000000001120000000000107000000000010900000000001080000000000108000000000010900590000000000001075300000000000117368900000000000000009999123100000010000000000000BRESPAACNOR7103
012024012602EUCA3       010EUCATEX     ON      N1   R$  000000000174000000000017490000000001740000000000174400000000017450000000001740000000000179400003000000000000000300000000000000523400000000000000009999123100000010000000000000BREUCAACNOR1157
012024012602EUCA4       010EUCATEX     PN      N1   R$  000000000168500000000017090000000001650000000000166900000000016560000000001655000000000165800187000000000000038300000000000063944100000000000000009999123100000010000000000000BREUCAACNPR8044
012024012602EVEN3       010EVEN        ON      NM   R$  000000000077000000000007700000000000743000000000075200000000007450000000000745000000000074601591000000000000467400000000000351493000000000000000009999123100000010000000000000BREVENACNOR8118
012024012602EZTC3       010EZTEC       ON      NM   R$  000000000160800000000016310000000001585000000000159900000000015910000000001590000000000159206066000000000001385200000000002215396500000000000000009999123100000010000000000000BREZTCACNOR0123
012024012602GGPS3       010GPS         ON      NM   R$  000000000192000000000019360000000001890000000000191700000000019130000000001910000000000191303810000000000000928600000000001780639500000000000000009999123100000010000000000000BRGGPSACNOR9102
012024012602GMAT3       010GRUPO MATEUSON      NM   R$  000000000067800000000006950000000000674000000000068800000000006880000000000687000000000068809762000000000004371100000000003010198000000000000000009999123100000010000000000000BRGMATACNOR7100
012024012602GOAU3       010GERDAU MET  ON      N1   R$  000000000103300000000010390000000001019000000000103000000000010360000000001032000000000103700234000000000000043200000000000044523300000000000000009999123100000010000000000000BRGOAUACNOR1265
012024012602GOAU4       010GERDAU MET  PN      N1   R$  000000000100300000000010140000000001003000000000100900000000010080000000001007000000000100907139000000000003667400000000003701638400000000000000009999123100000010000000000000BRGOAUACNPR8266
012024012602GOLL4       010GOL         PN      N2   R$  000000000056300000000006020000000000551000000000057100000000005920000000000592000000000059321147000000000027024400000000015436644400000000000000009999123100000010000000000000BRGOLLACNPR4128
012024012602JALL3       010JALLESMACHADON      NM   R$  000000000076400000000007640000000000752000000000075500000000007540000000000754000000000075601002000000000000576700000000000435817900000000000000009999123100000010000000000000BRJALLACNOR0105
012024012602JBSS3       010JBS         ON      NM   R$  000000000242500000000024560000000002417000000000243700000000024340000000002430000000000243504677000000000001670500000000004071717300000000000000009999123100000010000000000000BRJBSSACNOR8121
012024012602MRVE3       010MRV         ON      NM   R$  000000000080200000000008230000000000793000000000080800000000008080000000000808000000000080913830000000000013544600000000010948440500000000000000009999123100000010000000000000BRMRVEACNOR2126
012024012602RADL3       010RAIADROGASILON      NM   R$  000000000261300000000026380000000002587000000000261800000000026160000000002612000000000261610961000000000003835700000000010044957500000000000000009999123100000010000000000000BRRADLACNOR0154
012024012602RAIL3       010RUMO S.A.   ON      NM   R$  000000000225600000000022830000000002232000000000225900000000022640000000002253000000000226417430000000000007899100000000017844227400000000000000009999123100000010000000000000BRRAILACNOR9104
012024012602RAIZ4       010RAIZEN      PN      N2   R$  000000000037300000000003780000000000371000000000037500000000003740000000000374000000000037506524000000000005289300000000001984218200000000000000009999123100000010000000000000BRRAIZACNPR6109
012024012602BAZA3       010AMAZONIA    ON           R$  000000000910900000000091320000000009100000000000911400000000091320000000008890000000000914500011000000000000001300000000000011849300000000000000009999123100000010000000000000BRBAZAACNOR0178
012024012602BBAS3       010BRASIL      ON      NM   R$  000000000566400000000056990000000005655000000000568100000000056970000000005690000000000569818474000000000008196100000000046562196200000000000000009999123100000010000000000000BRBBASACNOR3319
012024012602BMEB3       010MERCANTIL   ON      N1   R$  000000000212500000000021600000000002100000000000210900000000021600000000002090000000000217900006000000000000000900000000000001898600000000000000009999123100000010000000000000BRBMEBACNOR8205
012024012602BMEB4       010MERCANTIL   PN      N1   R$  000000000195900000000019790000000001890000000000193500000000019760000000001954000000000197600069000000000000012700000000000024576900000000000000009999123100000010000000000000BRBMEBACNPR5210
012024012602BMGB4       010BANCO BMG   PN      N1   R$  000000000032500000000003300000000000323000000000032600000000003280000000000327000000000032801090000000000000635600000000000207731400000000000000009999123100000010000000000000BRBMGBACNPR0108
012024012602BMIN3       010MERC INVEST ON           R$  000000000220000000000024000000000002200000000000225400000000022040000000002202000000000240000016000000000000001700000000000003832100000000000000009999123100000010000000000000BRBMINACNOR4169
012024012602BMIN4       010MERC INVEST PN           R$  000000000176000000000020000000000001760000000000189000000000018800000000001880000000000199000136000000000000028300000000000053508700000000000000009999123100000010000000000000BRBMINACNPR1175
012024012602BMKS3       010BIC MONARK  ON           R$  000000003604000000000360400000000035999000000003601300000000360000000000035500000000003600000003000000000000000003000000000000108039000000000000009999123100000010000000000000BRBMKSACNOR9165
012024012602BMOB3       010BEMOBI TECH ON      NM   R$  000000000125200000000012520000000001231000000000123900000000012370000000001231000000000123700815000000000000192000000000000238064900000000000000009999123100000010000000000000BRBMOBACNOR7103
012024012602BOBR4       010BOMBRIL     PN           R$  000000000022700000000002310000000000225000000000022800000000002300000000000225000000000023000031000000000000025900000000000005920800000000000000009999123100000010000000000000BRBOBRACNPR3128
012024012602BRGE3       010ALFA CONSORCON  ED       R$  000000000114600000000011460000000001146000000000114600000000011460000000001143000000000117000002000000000000000200000000000000229200000000000000009999123100000010000000000000BRBRGEACNOR6204
012024012602BRIT3       010BRISANET    ON      NM   R$  000000000031700000000003230000000000314000000000031900000000003220000000000315000000000032200496000000000000525800000000000168012800000000000000009999123100000010000000000000BRBRITACNOR0102
012024012602BRIV3       010ALFA INVEST ON           R$  000000000108900000000010900000000001089000000000108900000000010900000000001090000000000109700006000000000000011800000000000012860200000000000000009999123100000010000000000000BRBRIVACNOR6209
012024012602BRIV4       010ALFA INVEST PN           R$  000000000103300000000010330000000001033000000000103300000000010330000000001042000000000107000001000000000000000200000000000000206600000000000000009999123100000010000000000000BRBRIVACNPR3218
012024012602BRKM3       010BRASKEM     ON      N1   R$  000000000192200000000019690000000001907000000000194500000000019310000000001910000000000194500240000000000000029200000000000056803200000000000000009999123100000010000000000000BRBRKMACNOR1119
012024012602BRKM5       010BRASKEM     PNA     N1   R$  000000000182900000000018730000000001829000000000185400000000018550000000001852000000000185506577000000000002336100000000004331596300000000000000009999123100000010000000000000BRBRKMACNPA4121
012024012602ENAT3       010ENAUTA PART ON      NM   R$  000000000196000000000019700000000001924000000000194800000000019700000000001962000000000197003346000000000000736000000000001434315900000000000000009999123100000010000000000000BRENATACNOR0104
012024012602ENEV3       010ENEVA       ON      NM   R$  000000000129700000000013090000000001284000000000129300000000012870000000001285000000000129409376000000000002476400000000003203640300000000000000009999123100000010000000000000BRENEVACNOR8105
012024012602ENGI11      010ENERGISA    UNT     N2   R$  000000000507500000000050750000000004990000000000502100000000049900000000004987000000000501906979000000000001081900000000005432786300000000000000009999123100000010000000000000BRENGICDAM16135
012024012602ENGI3       010ENERGISA    ON      N2   R$  000000000171200000000017150000000001651000000000168200000000016510000000001651000000000166000049000000000000005700000000000009588000000000000000009999123100000010000000000000BRENGIACNOR0145
012024012602ENGI4       010ENERGISA    PN      N2   R$  000000000083000000000008400000000000830000000000083500000000008390000000000835000000000084000062000000000000020200000000000016874400000000000000009999123100000010000000000000BRENGIACNPR7141
012024012602ENJU3       010ENJOEI      ON      NM   R$  000000000017500000000001820000000000173000000000017500000000001740000000000174000000000017600438000000000000555800000000000097755800000000000000009999123100000010000000000000BRENJUACNOR9100
012024012602EPAR3       010EMBPAR S/A  ON           R$  000000000098300000000009910000000000982000000000098600000000009850000000000985000000000099000020000000000000002700000000000002662300000000000000009999123100000010000000000000BREPARACNOR9104
012024012602EQPA3       010EQTL PARA   ON           R$  000000000077500000000008000000000000775000000000079800000000008000000000000771000000000080000006000000000000003300000000000002633700000000000000009999123100000010000000000000BREQPAACNOR1110
012024012602GGBR3       010GERDAU      ON      N1   R$  000000000203200000000020450000000002008000000000202400000000020150000000002015000000000202300310000000000000053200000000000107701100000000000000009999123100000010000000000000BRGGBRACNOR1189
012024012602GGBR4       010GERDAU      PN      N1   R$  000000000217600000000021940000000002170000000000218100000000021840000000002182000000000218412660000000000004998300000000010902058000000000000000009999123100000010000000000000BRGGBRACNPR8189
012024012602ITUB3       010ITAUUNIBANCOON      N1   R$  000000000276600000000028160000000002765000000000280000000000028020000000002802000000000280301897000000000000644500000000001804754900000000000000009999123100000010000000000000BRITUBACNOR4329
012024012602ITUB4       010ITAUUNIBANCOPN      N1   R$  000000000323800000000032910000000003235000000000327000000000032810000000003280000000000328134981000000000014469000000000047320037200000000000000009999123100000010000000000000BRITUBACNPR1329
012024012602MILS3       010MILLS       ON      NM   R$  000000000132200000000013220000000001268000000000128700000000012820000000001274000000000128202774000000000000918300000000001182046500000000000000009999123100000010000000000000BRMILSACNOR2124
012024012602MLAS3       010MULTILASER  ON      NM   R$  000000000019700000000001970000000000187000000000018900000000001880000000000188000000000018904692000000000006107400000000001159573400000000000000009999123100000010000000000000BRMLASACNOR9101
012024012602MOVI3       010MOVIDA      ON      NM   R$  000000000097000000000009860000000000933000000000095900000000009420000000000941000000000094306851000000000003537400000000003393024600000000000000009999123100000010000000000000BRMOVIACNOR0122
012024012602MRFG3       010MARFRIG     ON      NM   R$  000000000097700000000009860000000000961000000000097500000000009740000000000974000000000097509695000000000004064000000000003965432000000000000000009999123100000010000000000000BRMRFGACNOR0116
012024012602PRNR3       010PRINER      ON      NM   R$  000000000120000000000012050000000001180000000000119400000000012000000000001185000000000120100574000000000000165300000000000197488300000000000000009999123100000010000000000000BRPRNRACNOR4108
012024012602PSSA3       010PORTO SEGUROON      NM   R$  000000000271200000000027290000000002678000000000269800000000026820000000002679000000000268208503000000000001675600000000004522267500000000000000009999123100000010000000000000BRPSSAACNOR7153
012024012602PTBL3       010PORTOBELLO  ON      NM   R$  000000000066600000000006710000000000631000000000065100000000006450000000000645000000000065001392000000000000583400000000000380142500000000000000009999123100000010000000000000BRPTBLACNOR8132
012024012602PTNT3       010PETTENATI   ON           R$  000000000117900000000012440000000001178000000000120000000000012440000000001144000000000124500020000000000000002300000000000002760000000000000000009999123100000010000000000000BRPTNTACNOR6042
012024012602PTNT4       010PETTENATI   PN           R$  000000000082400000000008340000000000824000000000082900000000008340000000000826000000000083600003000000000000000300000000000000248900000000000000009999123100000010000000000000BRPTNTACNPR3047
012024012602QUAL3       010QUALICORP   ON      NM   R$  000000000025800000000002590000000000245000000000025000000000002450000000000245000000000024704260000000000006398400000000001600986700000000000000009999123100000010000000000000BRQUALACNOR6119
012024012602B3SA3       010B3          ON      NM   R$  000000000132400000000013420000000001318000000000132600000000013220000000001322000000000132334113000000000036744500000000048727914700000000000000009999123100000010000000000000BRB3SAACNOR6130
012024012602FESA3       010FERBASA     ON  EB  N1   R$  000000000160000000000016000000000001501000000000153300000000015500000000001504000000000158500008000000000000001000000000000001533500000000000000009999123100000010000000000000BRFESAACNOR8187
012024012602FESA4       010FERBASA     PN  EB  N1   R$  000000000108100000000011110000000001079000000000108900000000010790000000001079000000000108002638000000000000517800000000000564308600000000000000009999123100000010000000000000BRFESAACNPR5083
012024012602FHER3       010FER HERINGERON      NM   R$  000000000072100000000007210000000000715000000000071900000000007210000000000716000000000071900014000000000000002900000000000002087700000000000000009999123100000010000000000000BRFHERACNOR5103
012024012602FIQE3       010UNIFIQUE    ON      NM   R$  000000000037900000000003810000000000377000000000037800000000003800000000000378000000000038000779000000000000178700000000000067710400000000000000009999123100000010000000000000BRFIQEACNOR5105
012024012602FLRY3       010FLEURY      ON      NM   R$  000000000166800000000016710000000001640000000000164900000000016490000000001642000000000165006070000000000002244200000000003701125200000000000000009999123100000010000000000000BRFLRYACNOR5137
012024012602MAPT4       010CEMEPE      PN           R$  000000000126000000000012600000000001050000000000113500000000010500000000001050000000000115900021000000000000002500000000000002838300000000000000009999123100000010000000000000BRMAPTACNPR5106
012024012602MELK3       010MELNICK     ON      NM   R$  000000000043700000000004370000000000431000000000043400000000004340000000000432000000000043500156000000000000064200000000000027875800000000000000009999123100000010000000000000BRMELKACNOR8110
012024012602MERC4       010MERC FINANC PN           R$  000000000085100000000013000000000000851000000000120000000000011990000000000965000000000119900031000000000000006300000000000007561800000000000000009999123100000010000000000000BRMERCACNPR9179
012024012602MGEL4       010MANGELS INDLPN           R$  000000000144700000000014470000000001447000000000144700000000014470000000001400000000000144600002000000000000000200000000000000289400000000000000009999123100000010000000000000BRMGELACNPR3147
012024012602MGLU3       010MAGAZ LUIZA ON      NM   R$  000000000020900000000002100000000000202000000000020500000000002080000000000207000000000020818643000000000134991900000000027734586400000000000000009999123100000010000000000000BRMGLUACNOR2122
012024012602PFRM3       010PROFARMA    ON      NM   R$  000000000048500000000004890000000000467000000000047300000000004760000000000473000000000047600542000000000000223700000000000105983800000000000000009999123100000010000000000000BRPFRMACNOR1116
012024012602PGMN3       010PAGUE MENOS ON      NM   R$  000000000035300000000003540000000000346000000000034900000000003470000000000346000000000034701895000000000003005900000000001050241400000000000000009999123100000010000000000000BRPGMNACNOR8102
012024012602PINE3       010PINE        ON      N2   R$  000000000049900000000004990000000000499000000000049900000000004990000000000363000000000049900002000000000000001900000000000000948100000000000000009999123100000010000000000000BRPINEACNOR1148
012024012602PINE4       010PINE        PN      N2   R$  000000000041000000000004150000000000400000000000040600000000004070000000000407000000000040901404000000000000633000000000000257247200000000000000009999123100000010000000000000BRPINEACNPR8148
012024012602PLAS3       010PLASCAR PARTON           R$  000000000071000000000007100000000000710000000000071000000000007100000000000710000000000077000001000000000000000100000000000000071000000000000000009999123100000010000000000000BRPLASACNOR2106
012024012602PLPL3       010PLANOEPLANO ON  ED  NM   R$  000000000123500000000012420000000001191000000000121500000000012120000000001212000000000121402001000000000000371300000000000451459500000000000000009999123100000010000000000000BRPLPLACNOR5104
012024012602PNVL3       010DIMED       ON      NM   R$  000000000121000000000012240000000001190000000000121200000000012160000000001208000000000121601427000000000000261000000000000316586500000000000000009999123100000010000000000000BRPNVLACNOR9205
012024012602POMO3       010MARCOPOLO   ON      N2   R$  000000000061000000000006110000000000591000000000059800000000006000000000000594000000000060000599000000000000152700000000000091439300000000000000009999123100000010000000000000BRPOMOACNOR0095
012024012602POMO4       010MARCOPOLO   PN      N2   R$  000000000078700000000007950000000000770000000000077700000000007770000000000775000000000077809134000000000004893600000000003806734300000000000000009999123100000010000000000000BRPOMOACNPR7095
012024012602PORT3       010WILSON SONS ON  ED  NM   R$  000000000165200000000016580000000001638000000000165000000000016490000000001649000000000165600777000000000000198700000000000327887600000000000000009999123100000010000000000000BRPORTACNOR8106
012024012602POSI3       010POSITIVO TECON      NM   R$  000000000073300000000007460000000000712000000000072800000000007180000000000717000000000071803203000000000001304500000000000950736600000000000000009999123100000010000000000000BRPOSIACNOR9115
012024012602ALUP3       010ALUPAR      ON      N2   R$  000000000098200000000009840000000000971000000000097700000000009800000000000972000000000098100081000000000000014500000000000014178900000000000000009999123100000010000000000000BRALUPACNOR8117
012024012602ALUP4       010ALUPAR      PN      N2   R$  000000000098800000000009880000000000974000000000097900000000009740000000000974000000000097800104000000000000013900000000000013618900000000000000009999123100000010000000000000BRALUPACNPR5117
012024012602AMAR3       010LOJAS MARISAON      NM   R$  000000000028400000000002840000000000274000000000027700000000002750000000000274000000000027500870000000000000419800000000000116401700000000000000009999123100000010000000000000BRAMARACNOR4114
012024012602AMBP3       010AMBIPAR     ON      NM   R$  000000000144700000000014560000000001428000000000144100000000014390000000001438000000000144402032000000000000477600000000000688330300000000000000009999123100000010000000000000BRAMBPACNOR6103
012024012602ANIM3       010ANIMA       ON      NM   R$  000000000044400000000004530000000000436000000000044300000000004410000000000439000000000044106594000000000004590400000000002035748600000000000000009999123100000010000000000000BRANIMACNOR6107
012024012602APER3       010ALPER S.A.  ON           R$  000000000438800000000043990000000004383000000000439000000000043840000000004381000000000439600011000000000000001300000000000005707100000000000000009999123100000010000000000000BRAPERACNOR9106
012024012602ARML3       010ARMAC       ON      NM   R$  000000000146500000000014930000000001405000000000146500000000014730000000001463000000000147302512000000000000367400000000000538525800000000000000009999123100000010000000000000BRARMLACNOR1110
012024012602ARZZ3       010AREZZO CO   ON      NM   R$  000000000577100000000059290000000005622000000000577600000000057910000000005791000000000579212569000000000003511600000000020283310400000000000000009999123100000010000000000000BRARZZACNOR3146
012024012602ASAI3       010ASSAI       ON      NM   R$  000000000140000000000014000000000001363000000000137900000000013800000000001380000000000138410933000000000005774000000000007967396500000000000000009999123100000010000000000000BRASAIACNOR0106
012024012602BBSE3       010BBSEGURIDADEON      NM   R$  000000000338700000000034030000000003373000000000338200000000033730000000003372000000000337310493000000000002944900000000009961078400000000000000009999123100000010000000000000BRBBSEACNOR5123
012024012602CCRO3       010CCR SA      ON      NM   R$  000000000133200000000013410000000001323000000000132900000000013270000000001326000000000132806374000000000002410400000000003204887200000000000000009999123100000010000000000000BRCCROACNOR2144
012024012602CEAB3       010CEA MODAS   ON      NM   R$  000000000075900000000007830000000000733000000000076700000000007740000000000774000000000077505157000000000002582000000000001982380600000000000000009999123100000010000000000000BRCEABACNOR1101
012024012602CEBR3       010CEB         ON           R$  000000000184400000000018810000000001803000000000184300000000018810000000001850000000000188100044000000000000008500000000000015665700000000000000009999123100000010000000000000BRCEBRACNOR5124
012024012602CEBR5       010CEB         PNA          R$  000000000175700000000017580000000001732000000000175300000000017530000000001753000000000175800026000000000000007300000000000012801100000000000000009999123100000010000000000000BRCEBRACNPA8123
012024012602CEBR6       010CEB         PNB          R$  000000000210700000000021600000000002104000000000214000000000021400000000002133000000000214000047000000000000010000000000000021408600000000000000009999123100000010000000000000BRCEBRACNPB6123
012024012602CEDO4       010CEDRO       PN      N1   R$  000000000275000000000027500000000002720000000000273600000000027200000000002390000000000283900008000000000000001100000000000003010100000000000000009999123100000010000000000000BRCEDOACNPR5128
012024012602CEEB3       010COELBA      ON           R$  000000000399900000000039990000000003930000000000395300000000039300000000003925000000000399600005000000000000000600000000000002372300000000000000009999123100000010000000000000BRCEEBACNOR3196
012024012602CEEB5       010COELBA      PNA          R$  000000000368500000000036850000000003685000000000368500000000036850000000003700000000000433300001000000000000000100000000000000368500000000000000009999123100000010000000000000BRCEEBACNPA6190
012024012602CGAS5       010COMGAS      PNA          R$  000000001176200000000117660000000011700000000001173700000000117000000000011700000000001210600009000000000000000900000000000010563800000000000000009999123100000010000000000000BRCGASACNPA3159
012024012602CGRA3       010GRAZZIOTIN  ON           R$  000000000257500000000025870000000002563000000000257100000000025630000000002515000000000258200005000000000000000600000000000001543000000000000000009999123100000010000000000000BRCGRAACNOR2081
012024012602CGRA4       010GRAZZIOTIN  PN           R$  000000000255700000000025710000000002535000000000255100000000025500000000002536000000000256200053000000000000011900000000000030357900000000000000009999123100000010000000000000BRCGRAACNPR9081
012024012602CIEL3       010CIELO       ON      NM   R$  000000000048600000000004970000000000482000000000049200000000004900000000000490000000000049120206000000000029352600000000014447633300000000000000009999123100000010000000000000BRCIELACNOR3156
012024012602CTNM3       010COTEMINAS   ON           R$  000000000099500000000009950000000000995000000000099500000000009950000000000885000000000097500001000000000000000100000000000000099500000000000000009999123100000010000000000000BRCTNMACNOR9130
012024012602CTNM4       010COTEMINAS   PN           R$  000000000014800000000001580000000000147000000000015300000000001490000000000149000000000015500245000000000000145600000000000022277300000000000000009999123100000010000000000000BRCTNMACNPR6129
012024012602CTSA3       010SANTANENSE  ON           R$  000000000042200000000004270000000000420000000000042200000000004230000000000422000000000042300028000000000000005000000000000002113600000000000000009999123100000010000000000000BRCTSAACNOR3062
012024012602CTSA4       010SANTANENSE  PN           R$  000000000021200000000002120000000000198000000000020200000000001980000000000198000000000020200093000000000000035800000000000007257600000000000000009999123100000010000000000000BRCTSAACNPR0062
012024012602CURY3       010CURY S/A    ON      NM   R$  000000000183800000000018640000000001831000000000184500000000018450000000001842000000000184506014000000000001346400000000002484407000000000000000009999123100000010000000000000BRCURYACNOR3107
012024012602CVCB3       010CVC BRASIL  ON      NM   R$  000000000032100000000003230000000000305000000000031000000000003070000000000307000000000030820334000000000032652400000000010146664300000000000000009999123100000010000000000000BRCVCBACNOR1115
012024012602CXSE3       010CAIXA SEGURION      NM   R$  000000000143500000000014450000000001368000000000139700000000013970000000001397000000000140017359000000000009170400000000012817591500000000000000009999123100000010000000000000BRCXSEACNOR7105
012024012602PATI3       010PANATLANTICAON           R$  000000000277300000000027730000000002773000000000277300000000027730000000002775000000000299000001000000000000000100000000000000277300000000000000009999123100000010000000000000BRPATIACNOR6064
012024012602PCAR3       010P.ACUCAR-CBDON      NM   R$  000000000041100000000004200000000000408000000000041300000000004140000000000413000000000041403687000000000005119600000000002118551900000000000000009999123100000010000000000000BRPCARACNOR3167
012024012602PDGR3       010PDG REALT   ON      NM   R$  000000000004000000000000410000000000039000000000003900000000000400000000000040000000000004100553000000000001799400000000000071858600000000000000009999123100000010000000000000BRPDGRACNOR8118
012024012602PDTC3       010PADTEC      ON      NM   R$  000000000032200000000003300000000000313000000000032400000000003300000000000325000000000033000205000000000000077000000000000024950200000000000000009999123100000010000000000000BRPDTCACNOR3100
012024012602PEAB3       010PAR AL BAHIAON           R$  000000000400000000000040000000000003900000000000396600000000039000000000002900000000000400000002000000000000000300000000000001190000000000000000009999123100000010000000000000BRPEABACNOR3131
012024012602PEAB4       010PAR AL BAHIAPN           R$  000000000480000000000048000000000004800000000000480000000000048000000000000100000000000479000011000000000000001100000000000005280000000000000000009999123100000010000000000000BRPEABACNPR0131
012024012602PETR3       010PETROBRAS   ON      N2   R$  000000000408900000000042340000000004081000000000417400000000041960000000004192000000000419824230000000000010461500000000043669178400000000000000009999123100000010000000000000BRPETRACNOR9202
012024012602PETR4       010PETROBRAS   PN      N2   R$  000000000391000000000040090000000003891000000000397200000000039960000000003995000000000399757727000000000041378200000000164370199000000000000000009999123100000010000000000000BRPETRACNPR6209
012024012602PETZ3       010PETZ        ON      NM   R$  000000000034600000000003470000000000335000000000033900000000003400000000000340000000000034207443000000000014441600000000004903310300000000000000009999123100000010000000000000BRPETZACNOR2109
012024012602AERI3       010AERIS       ON      NM   R$  000000000008000000000000810000000000079000000000007900000000000790000000000079000000000008001790000000000003211000000000000255524600000000000000009999123100000010000000000000BRAERIACNOR4101
012024012602KLBN11      010KLABIN S/A  UNT     N2   R$  000000000218100000000022220000000002180000000000220300000000021930000000002192000000000220005898000000000001415100000000003117760000000000000000009999123100000010000000000000BRKLBNCDAM18139
012024012602KLBN3       010KLABIN S/A  ON      N2   R$  000000000043600000000004430000000000434000000000043800000000004380000000000438000000000044000502000000000000250200000000000109696100000000000000009999123100000010000000000000BRKLBNACNOR2167
012024012602MTRE3       010MITRE REALTYON      NM   R$  000000000053500000000005350000000000496000000000050600000000004980000000000498000000000049904929000000000004782400000000002422653500000000000000009999123100000010000000000000BRMTREACNOR6109
012024012602MTSA4       010METISA      PN           R$  000000000500500000000050050000000005000000000000500100000000050000000000005000000000000503300006000000000000001500000000000007501900000000000000009999123100000010000000000000BRMTSAACNPR9071
012024012602MULT3       010MULTIPLAN   ON      N2   R$  000000000277500000000028360000000002771000000000281500000000028190000000002812000000000282119512000000000003699800000000010416544200000000000000009999123100000010000000000000BRMULTACNOR5137
012024012602MWET4       010WETZEL S/A  PN           R$  000000000076700000000007670000000000732000000000074000000000007580000000000743000000000075800006000000000000000700000000000000518500000000000000009999123100000010000000000000BRMWETACNPR3118
012024012602MYPK3       010IOCHP-MAXIONON      NM   R$  000000000119400000000011980000000001170000000000118200000000011790000000001178000000000117903373000000000001186300000000001402287700000000000000009999123100000010000000000000BRMYPKACNOR7153
012024012602EQTL3       010EQUATORIAL  ON      NM   R$  000000000349100000000035760000000003485000000000354800000000035320000000003532000000000355322552000000000011618200000000041231930700000000000000009999123100000010000000000000BREQTLACNOR0129
012024012607NUTR3       010NUTRIPLANT  ON      MA   R$  000000000054000000000005700000000000540000000000055500000000005700000000000546000000000056000064000000000000010800000000000006000200000000000000009999123100000010000000000000BRNUTRACNOR0104
012024012607TXRX3       010TEX RENAUX  ON           R$  000000000125000000000012500000000001200000000000122000000000012000000000001100000000000240000004000000000000000500000000000000610000000000000000009999123100000010000000000000BRTXRXACNOR3142
012024012607TXRX4       010TEX RENAUX  PN           R$  000000000039000000000004040000000000359000000000037300000000003680000000000367000000000036800027000000000000012300000000000004590700000000000000009999123100000010000000000000BRTXRXACNPR0142
012024012608RPMG3       010PET MANGUINHON           R$  000000000020700000000002090000000000207000000000020700000000002090000000000207000000000020900003000000000000002100000000000000434900000000000000009999123100000010000000000000BRRPMGACNOR9194
012024012608NEXP3       010NEXPE       ON      NM   R$  000000000049600000000005050000000000496000000000050300000000005020000000000495000000000050200006000000000000001800000000000000905900000000000000009999123100000010000000000000BRNEXPACNOR0101
012024012608FRTA3       010POMIFRUTAS  ON      NM   R$  000000000017100000000001750000000000165000000000016800000000001720000000000169000000000017200033000000000000017900000000000003011700000000000000009999123100000010000000000000BRFRTAACNOR8103
012024012608LIGT3       010LIGHT S/A   ON      NM   R$  000000000063500000000006350000000000623000000000062800000000006300000000000629000000000063001049000000000000223600000000000140453600000000000000009999123100000010000000000000BRLIGTACNOR2124
012024012608TEKA4       010TEKA        PN           R$  000000000278000000000027800000000002780000000000278000000000027800000000002150000000000274500001000000000000000100000000000000278000000000000000009999123100000010000000000000BRTEKAACNPR3140
012024012608ATMP3       010ATMASA      ON           R$  000000000030400000000003090000000000300000000000030300000000003050000000000299000000000030500064000000000000022400000000000006788700000000000000009999123100000010000000000000BRATMPACNOR8100
012024012608RSID3       010ROSSI RESID ON      NM   R$  000000000037500000000003900000000000370000000000037700000000003730000000000369000000000037400153000000000000073800000000000027840700000000000000009999123100000010000000000000BRRSIDACNOR8120
012024012608OIBR4       010OI          PN      N1   R$  000000000015800000000001690000000000156000000000015900000000001570000000000156000000000015800264000000000000183400000000000029309200000000000000009999123100000010000000000000BROIBRACNPR8109
012024012608OSXB3       010OSX BRASIL  ON      NM   R$  000000000066200000000007680000000000625000000000069500000000006420000000000642000000000068200611000000000000149400000000000103964100000000000000009999123100000010000000000000BROSXBACNOR8109
012024012608OIBR3       010OI          ON      N1   R$  000000000006400000000000660000000000063000000000006400000000000640000000000063000000000006410016000000000010805900000000000699653500000000000000009999123100000010000000000000BROIBRACNOR1110
012024012608RNEW11      010RENOVA      UNT     N2   R$  000000000037900000000003800000000000372000000000037900000000003800000000000375000000000038000014000000000000003700000000000001403000000000000000009999123100000010000000000000BRRNEWCDAM15110
012024012608RNEW3       010RENOVA      ON      N2   R$  000000000012900000000001320000000000125000000000012600000000001290000000000126000000000012900070000000000000040700000000000005161900000000000000009999123100000010000000000000BRRNEWACNOR8110
012024012608RNEW4       010RENOVA      PN      N2   R$  000000000012700000000001280000000000123000000000012500000000001240000000000124000000000012500184000000000000210000000000000026259000000000000000009999123100000010000000000000BRRNEWACNPR5110
012024012608HOOT4       010HOTEIS OTHONPN           R$  000000000028500000000002970000000000280000000000028500000000002840000000000284000000000028800041000000000000011800000000000003368900000000000000009999123100000010000000000000BRHOOTACNPR9015
012024012608JFEN3       010JOAO FORTES ON           R$  000000000020900000000002100000000000205000000000020700000000002060000000000205000000000020600011000000000000002400000000000000497100000000000000009999123100000010000000000000BRJFENACNOR0058
012024012608ETER3       010ETERNIT     ON      NM   R$  000000000077800000000007870000000000750000000000076600000000007560000000000756000000000076301076000000000000329700000000000252581400000000000000009999123100000010000000000000BRETERACNOR3242
012024012608PMAM3       010PARANAPANEMAON      NM   R$  000000000041500000000004300000000000408000000000041800000000004300000000000416000000000043000119000000000000035000000000000014659500000000000000009999123100000010000000000000BRPMAMACNOR3038
012024012608AMER3       010AMERICANAS  ON      NM   R$  000000000008000000000000830000000000079000000000008100000000000830000000000082000000000008303105000000000010647900000000000864786300000000000000009999123100000010000000000000BRAMERACNOR6101
012024012610VSTE1       010VESTE       DIR ORD NM   R$  000000000001800000000000180000000000018000000000001800000000000180000000000003000000000001800001000000000000000100000000000000001800000000000000009999123100000010000000000000BRVSTED02OR8101
012024012610LJQQ1       010QUERO-QUERO DIR ORD NM   R$  000000000009700000000001150000000000090000000000010500000000001000000000000090000000000011000428000000000000060600000000000006408700000000000000009999123100000010000000000000BRLJQQD01OR0103
012024012610RENT1       010LOCALIZA    DIR ORD NM   R$  000000000145400000000014540000000001213000000000136000000000014000000000001201000000000140000210000000000000053700000000000073050300000000000000009999123100000010000000000000BRRENTD05OR0193
012024012610VIVR1       010VIVER       DIR ORD NM   R$  000000000000800000000000090000000000004000000000000500000000000040000000000004000000000000500126000000000000246200000000000001305100000000000000009999123100000010000000000000BRVIVRD17OR5120
012024012610ABCB2       010ABC BRASIL  DIR PRE N2   R$  000000000041000000000004190000000000390000000000040500000000003900000000000390000000000041600224000000000000033400000000000013530600000000000000009999123100000010000000000000BRABCBD18PR3144
012024012612XPML11      010FII XP MALLSCI  ER       R$  000000001147200000000114970000000011451000000001147100000000114790000000011461000000001147914022000000000000108901000000001249310055000000000000009999123100000010000000000000BRXPMLCTF000179
012024012612XPPR11      010FII XP PROP CI           R$  000000000210300000000021090000000002103000000000210300000000021030000000002103000000000210701697000000000000006719000000000014133304000000000000009999123100000010000000000000BRXPPRCTF000150
012024012612XPSF11      010FII XP SELECCI           R$  000000000085600000000008570000000000840000000000085100000000008490000000000847000000000084903517000000000000096697000000000082358696000000000000009999123100000010000000000000BRXPSFCTF009151
012024012612VOTS11      010FII V MASTERCI           R$  000000000849800000000085000000000008237000000000839200000000082370000000008237000000000849700079000000000000000392000000000003289915000000000000009999123100000010000000000000BRVOTSCTF007165
012024012612VRTA11      010FII FATOR VECI           R$  000000000875900000000087980000000008705000000000874000000000087870000000008787000000000879703362000000000000026313000000000229988126000000000000009999123100000010000000000000BRVRTACTF008255
012024012612VRTM11      010FII VRTM    CI           R$  000000000104500000000010500000000001036000000000103700000000010360000000001035000000000104000003000000000000000023000000000000023860000000000000009999123100000010000000000000BRVRTMCTF003102
012024012612VSHO11      010FII VOT SHOPCI           R$  000000000829600000000083430000000008255000000000829400000000082910000000008291000000000834200037000000000000000203000000000001683800000000000000009999123100000010000000000000BRVSHOCTF002156
012024012612VSLH11      010FII VERS CRICI           R$  000000000041400000000004180000000000409000000000041100000000004120000000000411000000000041201882000000000000075170000000000030945655000000000000009999123100000010000000000000BRVSLHCTF008138
012024012612KNHF11      010FII KINEA HFCI           R$  000000001040600000000104250000000010390000000001040300000000104100000000010405000000001041001853000000000000010546000000000109717050000000000000009999123100000010000000000000BRKNHFCTF004106
012024012612KNHY11      010FII KINEA HYCI           R$  000000001059900000000105990000000010510000000001054300000000105100000000010505000000001051005452000000000000020002000000000210886306000000000000009999123100000010000000000000BRKNHYCTF005166
012024012612KNIP11      010FII KINEA IPCI           R$  000000000966700000000096800000000009645000000000965300000000096520000000009647000000000965217955000000000000084462000000000815312437000000000000009999123100000010000000000000BRKNIPCTF001188
012024012612KNRE11      010FII KII REALCI           R$  000000000004000000000000400000000000039000000000003900000000000400000000000040000000000004100042000000000000044212000000000001768373000000000000009999123100000010000000000000BRKNRECTF006129
012024012612KNRI11      010FII KINEA   CI           R$  000000001645900000000166490000000016459000000001656300000000166350000000016594000000001663503493000000000000021206000000000351255642000000000000009999123100000010000000000000BRKNRICTF007258
012024012612KNSC11      010FII KINEA SCCI           R$  000000000091700000000009190000000000910000000000091500000000009170000000000915000000000091731995000000000000342060000000000313002334000000000000009999123100000010000000000000BRKNSCCTF008142
012024012612KNUQ11      010FII KINEA UNCI           R$  000000001042700000000104830000000010413000000001043000000000104500000000010435000000001045002467000000000000008260000000000086157678000000000000009999123100000010000000000000BRKNUQCTF004107
012024012612KORE11      010FII KORE    CI           R$  000000001105000000000110500000000010850000000001096500000000109250000000010887000000001098505748000000000000034024000000000373096673000000000000009999123100000010000000000000BRKORECTF012101
012024012612SNEL11      010FII SUNO EL CI           R$  000000001275000000000127500000000012523000000001260900000000125500000000012550000000001264900384000000000000004960000000000062544277000000000000009999123100000010000000000000BRSNELCTF010103
012024012612SNFF11      010FII SUNOFOFICI           R$  000000000860600000000086060000000008568000000000859300000000086050000000008605000000000860600285000000000000002719000000000023364543000000000000009999123100000010000000000000BRSNFFCTF001133
012024012612SNLG11      010FII SUNO LG CI           R$  000000000234800000000023480000000002300000000000230900000000023080000000002306000000000233100054000000000000001050000000000002424819000000000000009999123100000010000000000000BRSNLGCTF007103
012024012612SNME11      010FII SNME    CI           R$  000000000104500000000010450000000001034000000000103500000000010400000000001034000000000103900053000000000000003734000000000003866144000000000000009999123100000010000000000000BRSNMECTF000102
012024012612SPTW11      010FII SP DOWNTCI           R$  000000000437500000000044980000000004375000000000442900000000044650000000004465000000000446600218000000000000001854000000000008212053000000000000009999123100000010000000000000BRSPTWCTF002230
012024012612SPXS11      010FII SPX SYN CI           R$  000000000093800000000009390000000000921000000000093000000000009360000000000934000000000093612069000000000000115701000000000107681716000000000000009999123100000010000000000000BRSPXSCTF002119
012024012612NVHO11      010FII NOVOHORICI           R$  000000000119600000000012000000000001180000000000118400000000011800000000001166000000000118100010000000000000000055000000000000065163000000000000009999123100000010000000000000BRNVHOCTF003223
012024012612OGHY11      010FII ORAMA   CI           R$  000000000088000000000008910000000000850000000000085500000000008680000000000853000000000086800187000000000000000730000000000000624311000000000000009999123100000010000000000000BROGHYCTF001113
012024012612RPRI11      010FII RBR PR  CI           R$  000000001031200000000103120000000010256000000001027300000000102850000000010280000000001028500126000000000000000397000000000004078634000000000000009999123100000010000000000000BRRPRICTF007123
012024012612SEQR11      010FII SEQUOIA CI           R$  000000000590800000000059080000000005808000000000584800000000058890000000005833000000000588300147000000000000001577000000000009223252000000000000009999123100000010000000000000BRSEQRCTF002138
012024012612SHPH11      010FII HIGIENOPCI           R$  000000008750100000000880010000000084801000000008614900000000879700000000085402000000008797000072000000000000000224000000000019297387000000000000009999123100000010000000000000BRSHPHCTF008345
012024012612SIGR11      010FII SIG CAP CI  ER       R$  000000000960000000000096000000000009550000000000955100000000095500000000009356000000000950000003000000000000000410000000000003916000000000000000009999123100000010000000000000BRSIGRCTF004115
012024012612NCHB11      010FII NCH BR  CI  EB       R$  000000000091300000000009210000000000911000000000091700000000009190000000000917000000000091900312000000000000017100000000000015681932000000000000009999123100000010000000000000BRNCHBCTF000225
012024012612NCRI11      010FII NAVI CRICI           R$  000000000091900000000009910000000000919000000000095800000000009200000000000920000000000098000030000000000000000348000000000000333628000000000000009999123100000010000000000000BRNCRICTF004113
