00COTAHIST.2024BOVESPA 20240610                                                                                                                                                                                                                      
012024061002AFLT3       010AFLUENTE T  ON           R$  000000000071700000000007170000000000717000000000071700000000007170000000000703000000000077900001000000000000000100000000000000071700000000000000009999123100000010000000000000BRAFLTACNOR1121
012024061002AGRO3       010BRASILAGRO  ON      NM   R$  000000000248600000000025590000000002480000000000251900000000024990000000002499000000000250101541000000000000252500000000000636094500000000000000009999123100000010000000000000BRAGROACNOR7114
012024061002AGXY3       010AGROGALAXY  ON      NM   R$  000000000012000000000001200000000000117000000000011800000000001190000000000117000000000011900203000000000000129800000000000015355100000000000000009999123100000010000000000000BRAGXYACNOR4103
012024061002ALLD3       010ALLIED      ON      NM   R$  000000000072800000000007280000000000710000000000071700000000007230000000000715000000000072300191000000000000030400000000000021822700000000000000009999123100000010000000000000BRALLDACNOR3106
012024061002ALOS3       010ALLOS       ON      NM   R$  000000000212700000000021380000000002091000000000210800000000021130000000002112000000000211212080000000000004727500000000009967875000000000000000009999123100000010000000000000BRALOSACNOR5101
012024061002BBDC3       010BRADESCO    ON  EJ  N1   R$  000000000115000000000011550000000001144000000000114600000000011490000000001148000000000115007361000000000015528400000000017796553700000000000000009999123100000010000000000000BRBBDCACNOR1770
012024061002BBDC4       010BRADESCO    PN  EJ  N1   R$  000000000129500000000012980000000001282000000000128700000000012860000000001287000000000128769401000000000024749200000000031867804800000000000000009999123100000010000000000000BRBBDCACNPR8770
012024061002CMIN3       010CSNMINERACAOON      N2   R$  000000000048800000000004970000000000479000000000048700000000004890000000000488000000000048812180000000000008076900000000003935742500000000000000009999123100000010000000000000BRCMINACNOR2111
012024061002COCE5       010COELCE      PNA          R$  000000000336800000000033680000000003112000000000323500000000031550000000003155000000000319100425000000000000252200000000000816061600000000000000009999123100000010000000000000BRCOCEACNPA3147
012024061002MILS3       010MILLS       ON      NM   R$  000000000111100000000011110000000001063000000000108000000000010700000000001069000000000107003112000000000001063000000000001148768400000000000000009999123100000010000000000000BRMILSACNOR2126
012024061002MLAS3       010MULTILASER  ON      NM   R$  000000000020600000000002070000000000197000000000020100000000002070000000000205000000000020702547000000000002261700000000000456113900000000000000009999123100000010000000000000BRMLASACNOR9101
012024061002MNDL3       010MUNDIAL     ON  EBG      R$  000000000117900000000012000000000001179000000000119300000000011820000000001180000000000122900004000000000000000600000000000000716000000000000000009999123100000010000000000000BRMNDLACNOR4109
012024061002MNPR3       010MINUPAR     ON           R$  000000000111400000000011140000000001038000000000109300000000010410000000001000000000000109700005000000000000001500000000000001639800000000000000009999123100000010000000000000BRMNPRACNOR5122
012024061002MOVI3       010MOVIDA      ON      NM   R$  000000000063900000000006390000000000612000000000062000000000006130000000000612000000000061307588000000000004291100000000002662347700000000000000009999123100000010000000000000BRMOVIACNOR0122
012024061002MRFG3       010MARFRIG     ON      NM   R$  000000000111100000000011220000000001086000000000109900000000011080000000001107000000000109112254000000000005342900000000005873985100000000000000009999123100000010000000000000BRMRFGACNOR0116
012024061002AALR3       010ALLIAR      ON      NM   R$  000000000105700000000010570000000001007000000000102400000000010220000000001021000000000102400144000000000000021300000000000021814900000000000000009999123100000010000000000000BRAALRACNOR6102
012024061002ABCB4       010ABC BRASIL  PN      N2   R$  000000000210500000000021050000000002070000000000208100000000020750000000002073000000000207703314000000000000871800000000001814765300000000000000009999123100000010000000000000BRABCBACNPR4145
012024061002ABEV3       010AMBEV S/A   ON           R$  000000000115200000000011580000000001143000000000114900000000011460000000001146000000000114826785000000000023774700000000027329602700000000000000009999123100000010000000000000BRABEVACNOR1127
012024061002CBAV3       010CBA         ON      NM   R$  000000000070100000000007250000000000697000000000070600000000007010000000000701000000000070205737000000000003634900000000002569330500000000000000009999123100000010000000000000BRCBAVACNOR5104
012024061002CCRO3       010CCR SA      ON      NM   R$  000000000119100000000011930000000001160000000000117400000000011730000000001183000000000116111599000000000009353300000000010985221200000000000000009999123100000010000000000000BRCCROACNOR2145
012024061002CEAB3       010CEA MODAS   ON      NM   R$  000000000097500000000009900000000000958000000000097200000000009660000000000966000000000097004781000000000001908300000000001855068800000000000000009999123100000010000000000000BRCEABACNOR1102
012024061002CEBR3       010CEB         ON           R$  000000000222100000000022440000000002172000000000220600000000021740000000002173000000000222000029000000000000004400000000000009707100000000000000009999123100000010000000000000BRCEBRACNOR5125
012024061002CEBR5       010CEB         PNA          R$  000000000185300000000018530000000001834000000000184400000000018340000000001834000000000185300007000000000000000900000000000001660000000000000000009999123100000010000000000000BRCEBRACNPA8124
012024061002CEBR6       010CEB         PNB          R$  000000000201800000000020490000000001985000000000201000000000020290000000001990000000000202900013000000000000001400000000000002814800000000000000009999123100000010000000000000BRCEBRACNPB6124
012024061002CEEB3       010COELBA      ON           R$  000000000390900000000039090000000003904000000000390600000000039040000000003902000000000399000002000000000000000200000000000000781300000000000000009999123100000010000000000000BRCEEBACNOR3198
012024061002CGAS5       010COMGAS      PNA          R$  000000001190000000000119000000000011900000000001190000000000119000000000011233000000001200000001000000000000000100000000000001190000000000000000009999123100000010000000000000BRCGASACNPA3160
012024061002CGRA3       010GRAZZIOTIN  ON           R$  000000000247900000000024990000000002474000000000247800000000024750000000002470000000000249900020000000000000003200000000000007932300000000000000009999123100000010000000000000BRCGRAACNOR2082
012024061002CGRA4       010GRAZZIOTIN  PN           R$  000000000253400000000025340000000002520000000000252700000000025200000000002502000000000254000002000000000000000200000000000000505400000000000000009999123100000010000000000000BRCGRAACNPR9082
012024061002CIEL3       010CIELO       ON      NM   R$  000000000056300000000005640000000000562000000000056200000000005640000000000563000000000056208632000000000016166800000000009097880300000000000000009999123100000010000000000000BRCIELACNOR3157
012024061002CLSA3       010CLEARSALE   ON      NM   R$  000000000089400000000009040000000000810000000000083900000000008300000000000829000000000083008058000000000003482700000000002922602300000000000000009999123100000010000000000000BRCLSAACNOR0100
012024061002CLSC3       010CELESC      ON      N2   R$  000000000667000000000066700000000006670000000000667000000000066700000000006487000000000670000001000000000000000100000000000000667000000000000000009999123100000010000000000000BRCLSCACNOR6151
012024061002CLSC4       010CELESC      PN      N2   R$  000000000720800000000072080000000007017000000000708800000000070360000000007035000000000714000055000000000000008800000000000062376600000000000000009999123100000010000000000000BRCLSCACNPR3130
012024061002CMIG3       010CEMIG       ON      N1   R$  000000000124400000000012490000000001219000000000123300000000012410000000001233000000000124100738000000000000207000000000000255367300000000000000009999123100000010000000000000BRCMIGACNOR6241
012024061002CMIG4       010CEMIG       PN      N1   R$  000000000101700000000010190000000001005000000000101300000000010150000000001014000000000101613331000000000007718900000000007819720100000000000000009999123100000010000000000000BRCMIGACNPR3242
012024061002DESK3       010DESKTOP     ON      NM   R$  000000000154400000000015710000000001508000000000152600000000015100000000001510000000000151500728000000000000173600000000000264986400000000000000009999123100000010000000000000BRDESKACNOR2104
012024061002DEXP3       010DEXXOS PAR  ON      N1   R$  000000000103900000000010460000000001011000000000102500000000010220000000001022000000000102800236000000000000055600000000000056990500000000000000009999123100000010000000000000BRDEXPACNOR1105
012024061002DEXP4       010DEXXOS PAR  PN      N1   R$  000000000103200000000010320000000001032000000000103200000000010320000000001001000000000104100001000000000000000400000000000000412800000000000000009999123100000010000000000000BRDEXPACNPR8105
012024061002DIRR3       010DIRECIONAL  ON      NM   R$  000000000262400000000026360000000002545000000000258100000000025650000000002562000000000256909799000000000001963600000000005069956700000000000000009999123100000010000000000000BRDIRRACNOR0117
012024061002DMVF3       010D1000VFARMA ON      NM   R$  000000000068500000000007010000000000680000000000069000000000006970000000000686000000000069800375000000000000079200000000000054703700000000000000009999123100000010000000000000BRDMVFACNOR9100
012024061002DOHL3       010DOHLER      ON           R$  000000000105000000000010500000000001050000000000105000000000010500000000000650000000000103000002000000000000000200000000000000210000000000000000009999123100000010000000000000BRDOHLACNOR2063
012024061002DOHL4       010DOHLER      PN           R$  000000000040600000000004190000000000400000000000040400000000004190000000000401000000000041400012000000000000003100000000000001253200000000000000009999123100000010000000000000BRDOHLACNPR9066
012024061002DOTZ3       010DOTZ SA     ON      NM   R$  000000000080000000000008310000000000795000000000081300000000008120000000000797000000000083100049000000000000014300000000000011632500000000000000009999123100000010000000000000BRDOTZACNOR7101
012024061002DXCO3       010DEXCO       ON      NM   R$  000000000069900000000007090000000000691000000000069700000000006960000000000693000000000069612557000000000003340700000000002331289600000000000000009999123100000010000000000000BRDXCOACNOR8105
012024061002EALT4       010ACO ALTONA  PN           R$  000000000116300000000011630000000001119000000000114300000000011190000000001106000000000112000034000000000000004400000000000005032900000000000000009999123100000010000000000000BREALTACNPR1138
012024061002ECOR3       010ECORODOVIAS ON      NM   R$  000000000067000000000006700000000000639000000000064700000000006400000000000639000000000064007049000000000003496600000000002264898800000000000000009999123100000010000000000000BRECORACNOR8120
012024061002LAND3       010TERRASANTAPAON      NM   R$  000000000162000000000016200000000001576000000000159900000000016050000000001591000000000160800111000000000000030900000000000049437100000000000000009999123100000010000000000000BRLANDACNOR9103
012024061002LAVV3       010LAVVI       ON      NM   R$  000000000083900000000008490000000000827000000000083400000000008280000000000826000000000083302976000000000000669800000000000559135300000000000000009999123100000010000000000000BRLAVVACNOR4112
012024061002LEVE3       010METAL LEVE  ON      NM   R$  000000000311400000000031200000000003070000000000308500000000030800000000003079000000000308201750000000000000321400000000000991767300000000000000009999123100000010000000000000BRLEVEACNOR2197
012024061002BRSR3       010BANRISUL    ON      N1   R$  000000000116100000000011610000000001140000000000115200000000011500000000001141000000000115900026000000000000002800000000000003226800000000000000009999123100000010000000000000BRBRSRACNOR3187
012024061002BRSR6       010BANRISUL    PNB     N1   R$  000000000110100000000011020000000001084000000000108900000000010910000000001089000000000108703508000000000001013200000000001103844100000000000000009999123100000010000000000000BRBRSRACNPB4190
012024061002BSLI3       010BRB BANCO   ON           R$  000000000098000000000009800000000000925000000000093200000000009270000000000926000000000097800007000000000000001200000000000001119500000000000000009999123100000010000000000000BRBSLIACNOR5194
012024061002CAMB3       010CAMBUCI     ON           R$  000000000106900000000010780000000001042000000000105700000000010770000000001076000000000107800116000000000000027500000000000029074200000000000000009999123100000010000000000000BRCAMBACNOR4129
012024061002CAML3       010CAMIL       ON      NM   R$  000000000097000000000009720000000000904000000000092500000000009040000000000904000000000090703405000000000000969800000000000897717600000000000000009999123100000010000000000000BRCAMLACNOR3128
012024061002CASH3       010MELIUZ      ON      NM   R$  000000000053800000000005430000000000528000000000053400000000005320000000000531000000000053403547000000000001480700000000000792017800000000000000009999123100000010000000000000BRCASHACNOR8106
012024061002CXSE3       010CAIXA SEGURION      NM   R$  000000000145500000000014570000000001416000000000142900000000014200000000001419000000000142009793000000000003253600000000004651946600000000000000009999123100000010000000000000BRCXSEACNOR7106
012024061002CYRE3       010CYRELA REALTON      NM   R$  000000000195000000000019700000000001921000000000193900000000019340000000001934000000000193509700000000000002645300000000005131700400000000000000009999123100000010000000000000BRCYREACNOR7140
012024061002CSAN3       010COSAN       ON  ED  NM   R$  000000000127200000000012870000000001260000000000127500000000012740000000001276000000000127515197000000000005704400000000007277446200000000000000009999123100000010000000000000BRCSANACNOR6126
012024061002EKTR4       010ELEKTRO     PN           R$  000000000395500000000039550000000003825000000000392500000000038250000000003826000000000395400005000000000000000500000000000001962500000000000000009999123100000010000000000000BREKTRACNPR7162
012024061002ELET3       010ELETROBRAS  ON      N1   R$  000000000359300000000036300000000003552000000000360000000000035980000000003597000000000360215898000000000005790400000000020851125000000000000000009999123100000010000000000000BRELETACNOR6160
012024061002ELET6       010ELETROBRAS  PNB     N1   R$  000000000398300000000040450000000003958000000000400800000000040050000000004004000000000400504504000000000001038800000000004163628200000000000000009999123100000010000000000000BRELETACNPB7077
012024061002HYPE3       010HYPERA      ON      NM   R$  000000000286100000000028910000000002837000000000286900000000028800000000002879000000000288204575000000000001258700000000003612395400000000000000009999123100000010000000000000BRHYPEACNOR0141
012024061002KLBN11      010KLABIN S/A  UNT     N2   R$  000000000199400000000020010000000001980000000000198900000000019960000000001996000000000198007446000000000002467800000000004908748100000000000000009999123100000010000000000000BRKLBNCDAM18142
012024061002KLBN3       010KLABIN S/A  ON      N2   R$  000000000040300000000004070000000000399000000000040100000000004030000000000402000000000040300703000000000000395700000000000158918800000000000000009999123100000010000000000000BRKLBNACNOR2170
012024061002KLBN4       010KLABIN S/A  PN      N2   R$  000000000039900000000004000000000000395000000000039700000000003970000000000396000000000039803212000000000002679200000000001064087700000000000000009999123100000010000000000000BRKLBNACNPR9170
012024061002PLPL3       010PLANOEPLANO ON      NM   R$  000000000098200000000009870000000000929000000000095600000000009440000000000944000000000094605120000000000001237200000000001183304200000000000000009999123100000010000000000000BRPLPLACNOR5104
012024061002PNVL3       010DIMED       ON      NM   R$  000000000101200000000010120000000000978000000000099000000000009860000000000985000000000099302536000000000000604200000000000598560800000000000000009999123100000010000000000000BRPNVLACNOR9206
012024061002POMO3       010MARCOPOLO   ON      N2   R$  000000000049000000000004940000000000476000000000048500000000004820000000000482000000000048401093000000000000229400000000000111437200000000000000009999123100000010000000000000BRPOMOACNOR0098
012024061002POMO4       010MARCOPOLO   PN      N2   R$  000000000063000000000006380000000000614000000000062400000000006170000000000616000000000061705748000000000004854000000000003029179000000000000000009999123100000010000000000000BRPOMOACNPR7098
012024061002PORT3       010WILSON SONS ON      NM   R$  000000000150600000000015150000000001489000000000149700000000014950000000001494000000000150101616000000000000460400000000000689334300000000000000009999123100000010000000000000BRPORTACNOR8108
012024061002POSI3       010POSITIVO TECON      NM   R$  000000000090000000000009040000000000880000000000088800000000008820000000000882000000000088802824000000000000780100000000000693423500000000000000009999123100000010000000000000BRPOSIACNOR9116
012024061002MATD3       010MATER DEI   ON      NM   R$  000000000049800000000005040000000000487000000000049400000000004980000000000496000000000049802520000000000000701700000000000347229600000000000000009999123100000010000000000000BRMATDACNOR4104
012024061002MBLY3       010MOBLY       ON      NM   R$  000000000021600000000002170000000000202000000000020900000000002100000000000208000000000021000392000000000000175300000000000036644700000000000000009999123100000010000000000000BRMBLYACNOR5100
012024061002MDIA3       010M.DIASBRANCOON      NM   R$  000000000322200000000032220000000003103000000000312300000000031200000000003119000000000312402950000000000000713100000000002227415200000000000000009999123100000010000000000000BRMDIAACNOR7134
012024061002RSUL4       010RIOSULENSE  PN           R$  000000000681500000000068930000000006800000000000686400000000068930000000006650000000000689800006000000000000000600000000000004118700000000000000009999123100000010000000000000BRRSULACNPR3114
012024061002TASA3       010TAURUS ARMASON      N2   R$  000000000112500000000011330000000001110000000000111700000000011140000000001114000000000112000076000000000000010000000000000011175400000000000000009999123100000010000000000000BRTASAACNOR7104
012024061002TASA4       010TAURUS ARMASPN      N2   R$  000000000108900000000010900000000001063000000000107000000000010650000000001064000000000106501194000000000000286500000000000306686800000000000000009999123100000010000000000000BRTASAACNPR4104
012024061002TCSA3       010TECNISA     ON      NM   R$  000000000021000000000002160000000000204000000000020800000000002040000000000204000000000020600205000000000000073000000000000015184800000000000000009999123100000010000000000000BRTCSAACNOR3112
012024061002TECN3       010TECHNOS     ON      NM   R$  000000000039600000000004190000000000395000000000040200000000003980000000000398000000000040300295000000000000119500000000000048141200000000000000009999123100000010000000000000BRTECNACNOR6109
012024061002TELB3       010TELEBRAS    ON           R$  000000000129500000000013400000000001295000000000130500000000013330000000001302000000000133600016000000000000008800000000000011486500000000000000009999123100000010000000000000BRTELBACNOR2140
012024061002TELB4       010TELEBRAS    PN           R$  000000000089600000000009490000000000896000000000091600000000009330000000000900000000000093400028000000000000004000000000000003667900000000000000009999123100000010000000000000BRTELBACNPR9140
012024061002TEND3       010TENDA       ON      NM   R$  000000000111900000000011420000000001104000000000111700000000011090000000001104000000000111005218000000000001276800000000001427123000000000000000009999123100000010000000000000BRTENDACNOR4111
012024061002TFCO4       010TRACK FIELD PN      N2   R$  000000000117100000000011860000000001156000000000116200000000011590000000001158000000000115900269000000000000091000000000000105742600000000000000009999123100000010000000000000BRTFCOACNPR8113
012024061002TGMA3       010TEGMA       ON      NM   R$  000000000234100000000023410000000002299000000000231700000000023200000000002304000000000232001116000000000000171100000000000396554700000000000000009999123100000010000000000000BRTGMAACNOR7144
012024061002TIMS3       010TIM         ON      NM   R$  000000000160800000000016180000000001589000000000160200000000015900000000001590000000000159416139000000000005492200000000008799516100000000000000009999123100000010000000000000BRTIMSACNOR5116
012024061002TOTS3       010TOTVS       ON      NM   R$  000000000283100000000028700000000002821000000000285400000000028540000000002852000000000285405954000000000001683200000000004804578000000000000000009999123100000010000000000000BRTOTSACNOR8144
012024061002TPIS3       010TRIUNFO PARTON      NM   R$  000000000042100000000004210000000000409000000000041400000000004090000000000409000000000041500098000000000000042100000000000017444000000000000000009999123100000010000000000000BRTPISACNOR8118
012024061002TRAD3       010TC          ON      NM   R$  000000000006100000000000620000000000057000000000005900000000000600000000000060000000000006200237000000000000623400000000000037081600000000000000009999123100000010000000000000BRTRADACNOR3101
012024061002TRIS3       010TRISUL      ON      NM   R$  000000000047000000000004710000000000460000000000046600000000004660000000000462000000000046601024000000000000454900000000000212067700000000000000009999123100000010000000000000BRTRISACNOR4118
012024061002EQPA3       010EQTL PARA   ON           R$  000000000069400000000006940000000000670000000000067600000000006820000000000681000000000068700015000000000000004900000000000003316300000000000000009999123100000010000000000000BREQPAACNOR1111
012024061002EQTL3       010EQUATORIAL  ON      NM   R$  000000000294700000000029470000000002892000000000291500000000029180000000002917000000000291917053000000000006354100000000018527371300000000000000009999123100000010000000000000BREQTLACNOR0130
012024061002IFCM3       010INFRACOMM   ON      NM   R$  000000000003700000000000380000000000035000000000003600000000000360000000000035000000000003604031000000000005662400000000000205439700000000000000009999123100000010000000000000BRIFCMACNOR8101
012024061002IGTI11      010IGUATEMI S.AUNT     N1   R$  000000000201900000000020190000000001979000000000200000000000019980000000002011000000000200013435000000000003501100000000007003229600000000000000009999123100000010000000000000BRIGTICDAM16106
012024061002IGTI3       010IGUATEMI S.AON      N1   R$  000000000028500000000002870000000000276000000000028200000000002810000000000280000000000028100087000000000000050900000000000014364900000000000000009999123100000010000000000000BRIGTIACNOR8106
012024061002INEP3       010INEPAR      ON           R$  000000000017700000000001780000000000172000000000017400000000001770000000000171000000000017700025000000000000008000000000000001396400000000000000009999123100000010000000000000BRINEPACNOR1143
012024061002INEP4       010INEPAR      PN           R$  000000000016100000000001680000000000161000000000016400000000001650000000000160000000000016500032000000000000020600000000000003394300000000000000009999123100000010000000000000BRINEPACNPR8143
012024061002INTB3       010INTELBRAS   ON      NM   R$  000000000234700000000023520000000002281000000000231600000000023210000000002311000000000232103099000000000000739600000000001712926000000000000000009999123100000010000000000000BRINTBACNOR9111
012024061002IRBR3       010IRBBRASIL REON      NM   R$  000000000318400000000031860000000003146000000000316600000000031690000000003167000000000316902740000000000000507300000000001606297800000000000000009999123100000010000000000000BRIRBRACNOR4111
012024061002LUPA3       010LUPATECH    ON      NM   R$  000000000015500000000001570000000000152000000000015400000000001570000000000152000000000015700101000000000000100500000000000015549700000000000000009999123100000010000000000000BRLUPAACNOR8112
012024061002LVTC3       010WDC NETWORKSON      NM   R$  000000000037600000000003800000000000368000000000037000000000003690000000000368000000000037200057000000000000068100000000000025235300000000000000009999123100000010000000000000BRLVTCACNOR4102
012024061002LWSA3       010LWSA        ON      NM   R$  000000000042200000000004380000000000418000000000042500000000004190000000000419000000000042010867000000000010557000000000004494995100000000000000009999123100000010000000000000BRLWSAACNOR8103
012024061002CVCB3       010CVC BRASIL  ON      NM   R$  000000000019100000000001930000000000186000000000018900000000001870000000000186000000000018807164000000000006917000000000001311073600000000000000009999123100000010000000000000BRCVCBACNOR1115
012024061002ENAT3       010ENAUTA PART ON      NM   R$  000000000206900000000021300000000002056000000000210200000000021190000000002112000000000211905181000000000001436000000000003019875100000000000000009999123100000010000000000000BRENATACNOR0104
012024061002ENEV3       010ENEVA       ON  ATZ NM   R$  000000000127300000000012770000000001246000000000125400000000012460000000001264000000000125011863000000000003564600000000004472847900000000000000009999123100000010000000000000BRENEVACNOR8106
012024061002ENGI11      010ENERGISA    UNT     N2   R$  000000000462000000000046300000000004563000000000459300000000045850000000004580000000000459806502000000000001315600000000006042779700000000000000009999123100000010000000000000BRENGICDAM16135
012024061002ENGI3       010ENERGISA    ON      N2   R$  000000000145800000000014770000000001441000000000145200000000014410000000001440000000000145500021000000000000002200000000000003194900000000000000009999123100000010000000000000BRENGIACNOR0145
012024061002ENGI4       010ENERGISA    PN      N2   R$  000000000079200000000007920000000000765000000000078100000000007790000000000779000000000078800029000000000000008700000000000006795100000000000000009999123100000010000000000000BRENGIACNPR7141
012024061002ENJU3       010ENJOEI      ON      NM   R$  000000000022100000000002240000000000211000000000021500000000002110000000000211000000000021301027000000000000802100000000000172857200000000000000009999123100000010000000000000BRENJUACNOR9100
012024061002ENMT4       010ENERGISA MT PN           R$  000000000557000000000055700000000004600000000000492000000000049000000000004900000000000510000090000000000000020700000000000101859400000000000000009999123100000010000000000000BRENMTACNPR2125
012024061002EPAR3       010EMBPAR S/A  ON           R$  000000000070000000000007150000000000685000000000070300000000007130000000000712000000000071300139000000000000032600000000000022920800000000000000009999123100000010000000000000BREPARACNOR9105
012024061002EQMA3B      010EQTLMARANHAOON      MB   R$  000000000269900000000026990000000002699000000000269900000000026990000000002601000000000275500001000000000000000100000000000000269900000000000000009999123100000010000000000000BREQMAACNOR8108
012024061002B3SA3       010B3          ON      NM   R$  000000000107500000000010770000000001049000000000106000000000010490000000001071000000000105242160000000000031506500000000033410537500000000000000009999123100000010000000000000BRB3SAACNOR6132
012024061002AURE3       010AUREN       ON      NM   R$  000000000121800000000012260000000001201000000000121700000000012210000000001221000000000122211629000000000004736300000000005766401200000000000000009999123100000010000000000000BRAUREACNOR9104
012024061002AVLL3       010ALPHAVILLE  ON      NM   R$  000000000034000000000003400000000000340000000000034000000000003400000000000335000000000034000001000000000000000100000000000000034000000000000000009999123100000010000000000000BRAVLLACNOR5103
012024061002AZEV3       010AZEVEDO     ON           R$  000000000012300000000001270000000000122000000000012400000000001250000000000125000000000012600398000000000000311800000000000038683400000000000000009999123100000010000000000000BRAZEVACNOR0121
012024061002AZEV4       010AZEVEDO     PN           R$  000000000011900000000001230000000000115000000000011900000000001190000000000119000000000012001390000000000004130200000000000493028500000000000000009999123100000010000000000000BRAZEVACNPR7121
012024061002AZUL4       010AZUL        PN      N2   R$  000000000092500000000009340000000000914000000000092300000000009180000000000918000000000092006346000000000005693300000000005255079700000000000000009999123100000010000000000000BRAZULACNPR4102
012024061002BBSE3       010BBSEGURIDADEON      NM   R$  000000000327400000000032840000000003236000000000326300000000032620000000003262000000000326411408000000000003482500000000011366862100000000000000009999123100000010000000000000BRBBSEACNOR5124
012024061002BPAN4       010BANCO PAN   PN      N1   R$  000000000089600000000009000000000000874000000000088100000000008770000000000876000000000088003934000000000001267000000000001117467300000000000000009999123100000010000000000000BRBPANACNPR1115
012024061002USIM3       010USIMINAS    ON      N1   R$  000000000066700000000006680000000000650000000000065500000000006520000000000652000000000065601120000000000000289000000000000189332500000000000000009999123100000010000000000000BRUSIMACNOR3167
012024061002USIM5       010USIMINAS    PNA     N1   R$  000000000071600000000007160000000000702000000000070600000000007050000000000704000000000070612279000000000005101300000000003603243300000000000000009999123100000010000000000000BRUSIMACNPA6169
012024061002WLMM4       010WLM IND COM PN           R$  000000000320000000000032000000000003200000000000320000000000032000000000002700000000000319800001000000000000000100000000000000320000000000000000009999123100000010000000000000BRWLMMACNPR3118
012024061002SUZB3       010SUZANO S.A. ON  ATZ NM   R$  000000000486100000000049940000000004816000000000495600000000049690000000004969000000000497519925000000000007443400000000036894914500000000000000009999123100000010000000000000BRSUZBACNOR0130
012024061002NGRD3       010NEOGRID     ON      NM   R$  000000000008500000000000880000000000084000000000008400000000000840000000000084000000000008500432000000000000736900000000000062583700000000000000009999123100000010000000000000BRNGRDACNOR3104
012024061002NINJ3       010GETNINJAS   ON      NM   R$  000000000045400000000004540000000000439000000000044700000000004500000000000442000000000045300069000000000000015200000000000006795600000000000000009999123100000010000000000000BRNINJACNOR5101
012024061002NORD3       010NORDON MET  ON           R$  000000000078000000000007800000000000780000000000078000000000007800000000000740000000000079500001000000000000000100000000000000078000000000000000009999123100000010000000000000BRNORDACNOR7135
012024061002NTCO3       010GRUPO NATURAON      NM   R$  000000000150800000000015250000000001485000000000149100000000014850000000001485000000000148812452000000000007427400000000011081660300000000000000009999123100000010000000000000BRNTCOACNOR5106
012024061002ODPV3       010ODONTOPREV  ON      NM   R$  000000000114300000000011430000000001096000000000111100000000011110000000001107000000000111204933000000000001441500000000001602273900000000000000009999123100000010000000000000BRODPVACNOR4201
012024061002OFSA3       010OUROFINO S/AON      NM   R$  000000000196900000000019690000000001940000000000194500000000019400000000001911000000000195000006000000000000001800000000000003502000000000000000009999123100000010000000000000BROFSAACNOR7118
012024061002PRNR3       010PRINER      ON      NM   R$  000000000109700000000011020000000001074000000000108500000000010830000000001077000000000108300980000000000000269100000000000291977500000000000000009999123100000010000000000000BRPRNRACNOR4109
012024061002PSSA3       010PORTO SEGUROON      NM   R$  000000000299200000000029990000000002955000000000297200000000029800000000002970000000000298105012000000000001045300000000003107205300000000000000009999123100000010000000000000BRPSSAACNOR7154
012024061002PTBL3       010PORTOBELLO  ON      NM   R$  000000000042100000000004210000000000397000000000040300000000003990000000000399000000000040001317000000000000816300000000000329257700000000000000009999123100000010000000000000BRPTBLACNOR8132
012024061002PTNT4       010PETTENATI   PN           R$  000000000064200000000006540000000000636000000000064200000000006360000000000636000000000064500014000000000000003200000000000002055000000000000000009999123100000010000000000000BRPTNTACNPR3047
012024061002QUAL3       010QUALICORP   ON      NM   R$  000000000016700000000001710000000000164000000000016700000000001680000000000168000000000016901398000000000002379300000000000399477900000000000000009999123100000010000000000000BRQUALACNOR6120
012024061002RADL3       010RAIADROGASILON      NM   R$  000000000251200000000025320000000002500000000000251100000000025100000000002509000000000251709255000000000002497300000000006272150300000000000000009999123100000010000000000000BRRADLACNOR0156
012024061002SMFT3       010SMART FIT   ON      NM   R$  000000000226100000000022620000000002181000000000220300000000021940000000002192000000000219608703000000000001929300000000004251535900000000000000009999123100000010000000000000BRSMFTACNOR1111
012024061002SMTO3       010SAO MARTINHOON      NM   R$  000000000283000000000030000000000002794000000000290200000000030000000000002987000000000280609321000000000002450200000000007111951500000000000000009999123100000010000000000000BRSMTOACNOR3125
012024061002SNSY3       010SANSUY      ON           R$  000000000096500000000010250000000000950000000000097900000000010000000000000975000000000100000036000000000000003800000000000003721400000000000000009999123100000010000000000000BRSNSYACNOR2113
012024061002SNSY5       010SANSUY      PNA          R$  000000000056000000000005610000000000550000000000055900000000005610000000000561000000000059300011000000000000008200000000000004590300000000000000009999123100000010000000000000BRSNSYACNPA5111
012024061002SOJA3       010BOA SAFRA   ON      NM   R$  000000000149900000000015100000000001482000000000149300000000014820000000001482000000000148301505000000000000357900000000000534660300000000000000009999123100000010000000000000BRSOJAACNOR9105
012024061002SOMA3       010GRUPO SOMA  ON      NM   R$  000000000060100000000006010000000000569000000000057700000000005720000000000575000000000057211339000000000007397700000000004272862300000000000000009999123100000010000000000000BRSOMAACNOR3102
012024061002YDUQ3       010YDUQS PART  ON      NM   R$  000000000113400000000011510000000001113000000000113000000000011180000000001117000000000112414996000000000004972300000000005621507500000000000000009999123100000010000000000000BRYDUQACNOR3105
012024061002PRIO3       010PETRORIO    ON      NM   R$  000000000400300000000041450000000003995000000000408700000000040800000000004080000000000408226702000000000011133800000000045504817200000000000000009999123100000010000000000000BRPRIOACNOR1106
012024061002SANB11      010SANTANDER BRUNT          R$  000000000271800000000027240000000002693000000000270600000000027000000000002697000000000270309335000000000003815000000000010323814800000000000000009999123100000010000000000000BRSANBCDAM13164
012024061002SANB3       010SANTANDER BRON           R$  000000000128500000000012870000000001272000000000127700000000012760000000001274000000000127600292000000000000044600000000000056961200000000000000009999123100000010000000000000BRSANBACNOR8171
012024061002SANB4       010SANTANDER BRPN           R$  000000000143900000000014390000000001422000000000142800000000014340000000001425000000000143400277000000000000042300000000000060428000000000000000009999123100000010000000000000BRSANBACNPR5171
012024061002SAPR11      010SANEPAR     UNT     N2   R$  000000000272000000000027260000000002650000000000267200000000026750000000002675000000000267603197000000000000697900000000001864992500000000000000009999123100000010000000000000BRSAPRCDAM13117
012024061002SAPR3       010SANEPAR     ON      N2   R$  000000000051600000000005160000000000502000000000050500000000005060000000000503000000000050700573000000000000191000000000000096497400000000000000009999123100000010000000000000BRSAPRACNOR9158
012024061002SAPR4       010SANEPAR     PN      N2   R$  000000000055000000000005520000000000537000000000054000000000005400000000000539000000000054002009000000000001158800000000000626839400000000000000009999123100000010000000000000BRSAPRACNPR6158
012024061002SBFG3       010GRUPO SBF   ON      NM   R$  000000000122300000000012340000000001187000000000120200000000011910000000001191000000000119205307000000000001360700000000001636239900000000000000009999123100000010000000000000BRSBFGACNOR1103
012024061002SBSP3       010SABESP      ON      NM   R$  000000000739100000000075200000000007381000000000748700000000075100000000007510000000000751506283000000000001672700000000012523941300000000000000009999123100000010000000000000BRSBSPACNOR5161
012024061002KRSA3       010KORA SAUDE  ON      NM   R$  000000000005600000000000570000000000054000000000005500000000000560000000000055000000000005600136000000000000573500000000000031677400000000000000009999123100000010000000000000BRKRSAACNOR0100
012024061002GUAR3       010GUARARAPES  ON      NM   R$  000000000071100000000007190000000000676000000000069300000000006810000000000679000000000068303347000000000001485800000000001029842500000000000000009999123100000010000000000000BRGUARACNOR4173
012024061002HAGA3       010HAGA S/A    ON           R$  000000000025300000000002540000000000250000000000025300000000002530000000000253000000000025700015000000000000002500000000000000634000000000000000009999123100000010000000000000BRHAGAACNOR7103
012024061002HAGA4       010HAGA S/A    PN           R$  000000000011900000000001310000000000119000000000012500000000001190000000000119000000000012000039000000000000018700000000000002346600000000000000009999123100000010000000000000BRHAGAACNPR4103
012024061002HAPV3       010HAPVIDA     ON      NM   R$  000000000039100000000003930000000000385000000000038700000000003850000000000393000000000038619726000000000027173500000000010541003100000000000000009999123100000010000000000000BRHAPVACNOR4114
012024061002SEER3       010SER EDUCA   ON      NM   R$  000000000047700000000005160000000000467000000000049800000000005070000000000507000000000050802183000000000000888500000000000442727200000000000000009999123100000010000000000000BRSEERACNOR5119
012024061002SEQL3       010SEQUOIA LOG ON  EG  NM   R$  000000000071500000000007160000000000667000000000069200000000006980000000000689000000000069800679000000000000350200000000000242399800000000000000009999123100000010000000000000BRSEQLACNOR2103
012024061002SHOW3       010TIME FOR FUNON      NM   R$  000000000017200000000001720000000000162000000000016600000000001620000000000162000000000016300301000000000000158800000000000026432700000000000000009999123100000010000000000000BRSHOWACNOR7105
012024061002SHUL4       010SCHULZ      PN           R$  000000000059100000000006030000000000590000000000059300000000005930000000000593000000000059501000000000000000344500000000000204560300000000000000009999123100000010000000000000BRSHULACNPR4155
012024061002SIMH3       010SIMPAR      ON      NM   R$  000000000057700000000005790000000000551000000000056200000000005530000000000554000000000055308383000000000004657500000000002618398600000000000000009999123100000010000000000000BRSIMHACNOR0107
012024061002BRAP3       010BRADESPAR   ON      N1   R$  000000000176200000000017870000000001757000000000177500000000017800000000001774000000000178000206000000000000038700000000000068706200000000000000009999123100000010000000000000BRBRAPACNOR5148
012024061002BRAP4       010BRADESPAR   PN      N1   R$  000000000182900000000018450000000001824000000000183500000000018340000000001834000000000183506422000000000002187000000000004013408700000000000000009999123100000010000000000000BRBRAPACNPR2148
012024061002CRFB3       010CARREFOUR BRON      NM   R$  000000000097300000000009800000000000946000000000095400000000009460000000000945000000000094813026000000000005103300000000004871362300000000000000009999123100000010000000000000BRCRFBACNOR2116
012024061002CRPG6       010CRISTAL     PNB          R$  000000000298500000000030480000000002981000000000301700000000029920000000002996000000000304900009000000000000001700000000000005129300000000000000009999123100000010000000000000BRCRPGACNPB1119
012024061002ZAMP3       010ZAMP S.A.   ON           R$  000000000034000000000003440000000000326000000000033300000000003280000000000328000000000033202025000000000000609600000000000203319700000000000000009999123100000010000000000000BRZAMPACNOR5100
012024061002PFRM3       010PROFARMA    ON      NM   R$  000000000053800000000005420000000000515000000000052600000000005300000000000515000000000053000663000000000000192000000000000101076900000000000000009999123100000010000000000000BRPFRMACNOR1116
012024061002PGMN3       010PAGUE MENOS ON      NM   R$  000000000023800000000002380000000000225000000000022700000000002270000000000226000000000022702039000000000000653900000000000149019600000000000000009999123100000010000000000000BRPGMNACNOR8103
012024061002PINE3       010PINE        ON      N2   R$  000000000054100000000005410000000000541000000000054100000000005410000000000541000000000056000001000000000000000100000000000000054100000000000000009999123100000010000000000000BRPINEACNOR1149
012024061002PINE4       010PINE        PN      N2   R$  000000000041700000000004220000000000416000000000041800000000004160000000000416000000000042000213000000000000100400000000000042023600000000000000009999123100000010000000000000BRPINEACNPR8149
012024061002PLAS3       010PLASCAR PARTON           R$  000000000055000000000005600000000000550000000000055500000000005600000000000555000000000059800002000000000000000200000000000000111000000000000000009999123100000010000000000000BRPLASACNOR2106
012024061002MDNE3       010MOURA DUBEUXON      NM   R$  000000000110000000000011000000000001042000000000105700000000010470000000001047000000000105502303000000000000796000000000000841493300000000000000009999123100000010000000000000BRMDNEACNOR9100
012024061002MEAL3       010IMC S/A     ON      NM   R$  000000000012700000000001280000000000124000000000012500000000001240000000000124000000000012501031000000000000881100000000000110820600000000000000009999123100000010000000000000BRMEALACNOR9105
012024061002MELK3       010MELNICK     ON      NM   R$  000000000037300000000003740000000000363000000000036800000000003650000000000365000000000036600612000000000000201700000000000074330100000000000000009999123100000010000000000000BRMELKACNOR8111
012024061002MERC4       010MERC FINANC PN           R$  000000000082000000000008200000000000820000000000082000000000008200000000000750000000000119900002000000000000001000000000000000820000000000000000009999123100000010000000000000BRMERCACNPR9180
012024061002MGEL4       010MANGELS INDLPN           R$  000000000134900000000013490000000001349000000000134900000000013490000000001287000000000134900001000000000000000100000000000000134900000000000000009999123100000010000000000000BRMGELACNPR3147
012024061002MGLU3       010MAGAZ LUIZA ON      NM   R$  000000000117900000000011850000000001125000000000114900000000011520000000001152000000000113125052000000000019940100000000022929945100000000000000009999123100000010000000000000BRMGLUACNOR2124
012024061002TRPL3       010TRAN PAULISTON      N1   R$  000000000333700000000033470000000003315000000000332700000000033150000000003315000000000345300012000000000000001600000000000005323800000000000000009999123100000010000000000000BRTRPLACNOR4185
012024061002TRPL4       010TRAN PAULISTPN      N1   R$  000000000250400000000025130000000002478000000000249300000000024920000000002506000000000249408934000000000001819200000000004536557900000000000000009999123100000010000000000000BRTRPLACNPR1185
012024061002TTEN3       0103TENTOS     ON      NM   R$  000000000097800000000009780000000000950000000000096500000000009730000000000971000000000097303339000000000000564300000000000544799700000000000000009999123100000010000000000000BRTTENACNOR0103
012024061002TUPY3       010TUPY        ON  ED  NM   R$  000000000225000000000022550000000002180000000000219800000000021810000000002181000000000219506228000000000001393400000000003062696100000000000000009999123100000010000000000000BRTUPYACNOR1184
012024061002UCAS3       010UNICASA     ON      NM   R$  000000000021900000000002230000000000215000000000021700000000002170000000000217000000000022200205000000000000056300000000000012268100000000000000009999123100000010000000000000BRUCASACNOR1113
012024061002UGPA3       010ULTRAPAR    ON      NM   R$  000000000220800000000022670000000002208000000000224900000000022510000000002250000000000225113756000000000002990300000000006725569700000000000000009999123100000010000000000000BRUGPAACNOR8155
012024061002UNIP3       010UNIPAR      ON           R$  000000000486500000000049000000000004660000000000473400000000046600000000004660000000000469700169000000000000021400000000000101311300000000000000009999123100000010000000000000BRUNIPACNOR7206
012024061002UNIP6       010UNIPAR      PNB          R$  000000000476800000000048000000000004696000000000473400000000047070000000004699000000000470701253000000000000195500000000000925540900000000000000009999123100000010000000000000BRUNIPACNPB8206
012024061002WEGE3       010WEG         ON      NM   R$  000000000378400000000038270000000003778000000000379500000000037810000000003781000000000378214253000000000004491300000000017046824400000000000000009999123100000010000000000000BRWEGEACNOR0222
012024061002WEST3       010WESTWING    ON      NM   R$  000000000010100000000001010000000000097000000000009800000000000990000000000097000000000009900065000000000000030200000000000002971900000000000000009999123100000010000000000000BRWESTACNOR3100
012024061002WHRL3       010WHIRLPOOL   ON           R$  000000000045500000000004550000000000455000000000045500000000004550000000000455000000000046500004000000000000000900000000000000409500000000000000009999123100000010000000000000BRWHRLACNOR5128
012024061002WHRL4       010WHIRLPOOL   PN           R$  000000000047200000000004720000000000465000000000046700000000004710000000000466000000000047000007000000000000001500000000000000701900000000000000009999123100000010000000000000BRWHRLACNPR2128
012024061002WIZC3       010WIZ CO      ON      NM   R$  000000000059700000000006020000000000587000000000059400000000005960000000000595000000000059301419000000000000350600000000000208449700000000000000009999123100000010000000000000BRWIZCACNOR5102
012024061002BGIP3       010BANESE      ON           R$  000000000240200000000024020000000002402000000000240200000000024020000000002402000000000330300001000000000000000200000000000000480400000000000000009999123100000010000000000000BRBGIPACNOR1208
012024061002HBOR3       010HELBOR      ON      NM   R$  000000000022300000000002270000000000215000000000021900000000002170000000000216000000000021700544000000000000565500000000000124190200000000000000009999123100000010000000000000BRHBORACNOR3118
012024061002HBRE3       010HBR REALTY  ON      NM   R$  000000000045100000000004930000000000436000000000047700000000004840000000000483000000000048402012000000000001342700000000000641410400000000000000009999123100000010000000000000BRHBREACNOR4100
012024061002HBSA3       010HIDROVIAS   ON      NM   R$  000000000036900000000003690000000000357000000000035900000000003580000000000358000000000035908045000000000003237600000000001165144700000000000000009999123100000010000000000000BRHBSAACNOR0100
012024061002HBTS5       010HABITASUL   PNA          R$  000000000378000000000037800000000003780000000000378000000000037800000000003790000000000447800001000000000000000100000000000000378000000000000000009999123100000010000000000000BRHBTSACNPA3128
012024061002JHSF3       010JHSF PART   ON  ED  NM   R$  000000000039000000000003920000000000380000000000038400000000003830000000000382000000000038404568000000000004894200000000001880148800000000000000009999123100000010000000000000BRJHSFACNOR2136
012024061002JSLG3       010JSL         ON      NM   R$  000000000097300000000009750000000000943000000000095600000000009550000000000955000000000095602789000000000000739600000000000707483500000000000000009999123100000010000000000000BRJSLGACNOR2121
012024061002BPAC11      010BTGP BANCO  UNT     N2   R$  000000000327100000000032890000000003143000000000318900000000031600000000003158000000000316226305000000000010160000000000032403251800000000000000009999123100000010000000000000BRBPACUNT006118
012024061002BPAC3       010BTGP BANCO  ON      N2   R$  000000000162800000000016280000000001566000000000159100000000015750000000001550000000000161000057000000000000006300000000000010024700000000000000009999123100000010000000000000BRBPACACNOR7133
012024061002BPAC5       010BTGP BANCO  PNA     N2   R$  000000000082600000000008290000000000786000000000079900000000007860000000000786000000000079000089000000000000013600000000000010869300000000000000009999123100000010000000000000BRBPACACNPA0133
012024061002CPFE3       010CPFL ENERGIAON      NM   R$  000000000333500000000033430000000003265000000000328700000000032850000000003285000000000329306160000000000001433000000000004710842400000000000000009999123100000010000000000000BRCPFEACNOR0137
012024061002CPLE3       010COPEL       ON      N2   R$  000000000082400000000008320000000000812000000000082200000000008210000000000821000000000082304591000000000006278300000000005165805500000000000000009999123100000010000000000000BRCPLEACNOR8149
012024061002CPLE6       010COPEL       PNB     N2   R$  000000000092400000000009310000000000909000000000092000000000009190000000000919000000000092116271000000000014207400000000013080585400000000000000009999123100000010000000000000BRCPLEACNPB9146
012024061002FESA3       010FERBASA     ON  EJ  N1   R$  000000000135500000000013840000000001355000000000136400000000013840000000001384000000000145000003000000000000000300000000000000409400000000000000009999123100000010000000000000BRFESAACNOR8188
012024061002ITSA3       010ITAUSA      ON  EJ  N1   R$  000000000097100000000009740000000000961000000000096500000000009620000000000962000000000096300462000000000000162900000000000157286900000000000000009999123100000010000000000000BRITSAACNOR0440
012024061002ITSA4       010ITAUSA      PN  EJ  N1   R$  000000000097000000000009720000000000958000000000096200000000009620000000000961000000000096219615000000000021595800000000020779682100000000000000009999123100000010000000000000BRITSAACNPR7440
012024061002KEPL3       010KEPLER WEBERON      NM   R$  000000000098500000000010060000000000967000000000098300000000009720000000000972000000000097402998000000000000944200000000000928627300000000000000009999123100000010000000000000BRKEPLACNOR1062
012024061002MTRE3       010MITRE REALTYON      NM   R$  000000000035500000000003580000000000348000000000035200000000003530000000000353000000000035501542000000000000806300000000000284349700000000000000009999123100000010000000000000BRMTREACNOR6111
012024061002NEOE3       010NEOENERGIA  ON      NM   R$  000000000187000000000018750000000001815000000000183700000000018500000000001849000000000186104861000000000001640800000000003015062600000000000000009999123100000010000000000000BRNEOEACNOR3122
012024061002ALPA3       010ALPARGATAS  ON      N1   R$  000000000095100000000009930000000000951000000000096200000000009560000000000925000000000095900016000000000000003600000000000003463500000000000000009999123100000010000000000000BRALPAACNOR0231
012024061002ALPA4       010ALPARGATAS  PN      N1   R$  000000000095400000000009620000000000934000000000094700000000009420000000000942000000000094306616000000000003046800000000002887745300000000000000009999123100000010000000000000BRALPAACNPR7232
012024061002ALPK3       010ESTAPAR     ON      NM   R$  000000000032100000000003210000000000305000000000031200000000003050000000000305000000000031000189000000000000055900000000000017468100000000000000009999123100000010000000000000BRALPKACNOR9101
012024061002ALUP11      010ALUPAR      UNT     N2   R$  000000000298200000000029930000000002937000000000296000000000029750000000002973000000000298003701000000000001214200000000003594482500000000000000009999123100000010000000000000BRALUPCDAM15119
012024061002ALUP3       010ALUPAR      ON      N2   R$  000000000099500000000010090000000000983000000000099100000000009990000000000988000000000101800069000000000000009800000000000009713800000000000000009999123100000010000000000000BRALUPACNOR8119
012024061002ALUP4       010ALUPAR      PN      N2   R$  000000000098700000000009880000000000975000000000098100000000009810000000000980000000000098900092000000000000011200000000000010992100000000000000009999123100000010000000000000BRALUPACNPR5119
012024061002AMAR3       010LOJAS MARISAON      NM   R$  000000000017200000000001770000000000164000000000016800000000001640000000000164000000000016600585000000000000268400000000000045317500000000000000009999123100000010000000000000BRAMARACNOR4114
012024061002AMBP3       010AMBIPAR     ON      NM   R$  000000000091100000000009400000000000886000000000091400000000009000000000000899000000000090004521000000000001358700000000001242696400000000000000009999123100000010000000000000BRAMBPACNOR6103
012024061002MTSA4       010METISA      PN           R$  000000000437300000000043730000000002959000000000348300000000041500000000003681000000000429001483000000000000260800000000000908479100000000000000009999123100000010000000000000BRMTSAACNPR9072
012024061002MULT3       010MULTIPLAN   ON      N2   R$  000000000231000000000023100000000002234000000000225200000000022550000000002250000000000223609308000000000002194100000000004942873400000000000000009999123100000010000000000000BRMULTACNOR5138
012024061002MWET4       010WETZEL S/A  PN           R$  000000000080600000000008060000000000805000000000080500000000008050000000000805000000000085000003000000000000001500000000000001207600000000000000009999123100000010000000000000BRMWETACNPR3118
012024061002MYPK3       010IOCHP-MAXIONON      NM   R$  000000000107500000000010790000000001057000000000106900000000010690000000001066000000000107102306000000000000611800000000000654091200000000000000009999123100000010000000000000BRMYPKACNOR7154
012024061002BRIT3       010BRISANET    ON      NM   R$  000000000040500000000004050000000000395000000000039900000000003960000000000396000000000039800436000000000000233900000000000093425300000000000000009999123100000010000000000000BRBRITACNOR0103
012024061002BRKM3       010BRASKEM     ON      N1   R$  000000000178600000000018690000000001778000000000183500000000018490000000001839000000000185000102000000000000020300000000000037268300000000000000009999123100000010000000000000BRBRKMACNOR1119
012024061002BRKM5       010BRASKEM     PNA     N1   R$  000000000177300000000018360000000001760000000000180600000000017980000000001796000000000178806229000000000002422200000000004376285000000000000000009999123100000010000000000000BRBRKMACNPA4121
012024061002CSRN3       010COSERN      ON           R$  000000000230400000000023040000000002300000000000230100000000023000000000002230000000000230000005000000000000000700000000000001610700000000000000009999123100000010000000000000BRCSRNACNOR0192
012024061002CSUD3       010CSU DIGITAL ON      NM   R$  000000000181200000000018410000000001810000000000182200000000018170000000001816000000000181700166000000000000041500000000000075639400000000000000009999123100000010000000000000BRCSUDACNOR5109
012024061002CURY3       010CURY S/A    ON      NM   R$  000000000193000000000019590000000001892000000000191400000000019100000000001905000000000191005842000000000001432900000000002743348100000000000000009999123100000010000000000000BRCURYACNOR3109
012024061002BRBI11      010BR PARTNERS UNT     N2   R$  000000000138600000000013860000000001357000000000136800000000013570000000001356000000000137700927000000000000196200000000000268467000000000000000009999123100000010000000000000BRBRBICDAM10109
012024061002BRFS3       010BRF SA      ON      NM   R$  000000000184000000000018570000000001809000000000183200000000018390000000001838000000000181019073000000000008074200000000014795033300000000000000009999123100000010000000000000BRBRFSACNOR8122
012024061002CSED3       010CRUZEIRO EDUON      NM   R$  000000000041000000000004100000000000394000000000039800000000003990000000000399000000000039501733000000000001045000000000000416677600000000000000009999123100000010000000000000BRCSEDACNOR9104
012024061002CSMG3       010COPASA      ON      NM   R$  000000000197300000000019750000000001943000000000196100000000019700000000001966000000000195104634000000000001103800000000002165131600000000000000009999123100000010000000000000BRCSMGACNOR5173
012024061002CSNA3       010SID NACIONALON           R$  000000000124100000000012440000000001226000000000123200000000012350000000001235000000000123907854000000000003303800000000004072453100000000000000009999123100000010000000000000BRCSNAACNOR6261
012024061002ELMD3       010ELETROMIDIA ON      NM   R$  000000000182400000000018240000000001778000000000180700000000018070000000001789000000000180800220000000000000034100000000000061632300000000000000009999123100000010000000000000BRELMDACNOR3101
012024061002EMAE4       010EMAE        PN           R$  000000000498700000000049870000000004721000000000484100000000048170000000004730000000000488500003000000000000000300000000000001452500000000000000009999123100000010000000000000BREMAEACNPR1125
012024061002EMBR3       010EMBRAER     ON      NM   R$  000000000385000000000039300000000003800000000000388800000000039030000000003902000000000382619345000000000005296400000000020593931400000000000000009999123100000010000000000000BREMBRACNOR4191
012024061002LJQQ3       010QUERO-QUERO ON      NM   R$  000000000041400000000004210000000000406000000000041200000000004110000000000408000000000041105507000000000002072600000000000854456000000000000000009999123100000010000000000000BRLJQQACNOR5104
012024061002LOGG3       010LOG COM PROPON      NM   R$  000000000220200000000022070000000002155000000000218000000000021760000000002175000000000219101189000000000000190900000000000416215100000000000000009999123100000010000000000000BRLOGGACNOR7107
012024061002LOGN3       010LOG-IN      ON      NM   R$  000000000364700000000036520000000003520000000000357100000000035250000000003525000000000356000387000000000000059400000000000212172500000000000000009999123100000010000000000000BRLOGNACNOR3105
012024061002LPSB3       010LOPES BRASILON      NM   R$  000000000019300000000002010000000000191000000000019400000000001910000000000197000000000019500237000000000000112900000000000021949800000000000000009999123100000010000000000000BRLPSBACNOR0114
012024061002LREN3       010LOJAS RENNERON      NM   R$  000000000132100000000013310000000001276000000000129400000000012760000000001275000000000127916888000000000010513800000000013608275400000000000000009999123100000010000000000000BRLRENACNOR1220
012024061002ONCO3       010ONCOCLINICASON      NM   R$  000000000070500000000007310000000000686000000000070400000000007000000000000695000000000070005628000000000003320300000000002339091600000000000000009999123100000010000000000000BRONCOACNOR6101
012024061002OPCT3       010OCEANPACT   ON      NM   R$  000000000064700000000006490000000000625000000000063500000000006250000000000624000000000063501172000000000000538500000000000342358000000000000000009999123100000010000000000000BROPCTACNOR0100
012024061002ORVR3       010ORIZON      ON      NM   R$  000000000393400000000039420000000003844000000000387900000000038650000000003865000000000386601595000000000000332100000000001288363200000000000000009999123100000010000000000000BRORVRACNOR0101
012024061002PCAR3       010P.ACUCAR-CBDON      NM   R$  000000000029100000000002920000000000281000000000028500000000002830000000000283000000000028407102000000000008433500000000002403563700000000000000009999123100000010000000000000BRPCARACNOR3167
012024061002ASAI3       010ASSAI       ON      NM   R$  000000000119500000000012120000000001189000000000120100000000011930000000001193000000000119612985000000000012105900000000014544645700000000000000009999123100000010000000000000BRASAIACNOR0106
012024061002ATOM3       010ATOMPAR     ON           R$  000000000020100000000002020000000000200000000000020000000000002000000000000200000000000020100011000000000000006900000000000001380400000000000000009999123100000010000000000000BRATOMACNOR1106
012024061002BEEF3       010MINERVA     ON      NM   R$  000000000061200000000006120000000000591000000000059900000000005950000000000594000000000059507073000000000009211700000000005521645100000000000000009999123100000010000000000000BRBEEFACNOR6116
012024061002BEES3       010BANESTES    ON  EJ       R$  000000000088500000000009010000000000876000000000088600000000008800000000000879000000000088700088000000000000011100000000000009835000000000000000009999123100000010000000000000BRBEESACNOR9391
012024061002BEES4       010BANESTES    PN  EJ       R$  000000000094400000000009520000000000944000000000094900000000009500000000000945000000000095000019000000000000003000000000000002848000000000000000009999123100000010000000000000BRBEESACNPR6316
012024061002EGIE3       010ENGIE BRASILON      NM   R$  000000000434800000000043810000000004318000000000435300000000043480000000004348000000000435104439000000000000909100000000003957742300000000000000009999123100000010000000000000BREGIEACNOR9126
012024061002FESA4       010FERBASA     PN  EJ  N1   R$  000000000078000000000007800000000000767000000000077200000000007690000000000769000000000077301833000000000000669800000000000517140800000000000000009999123100000010000000000000BRFESAACNPR5084
012024061002FHER3       010FER HERINGERON      NM   R$  000000000038000000000003810000000000378000000000037900000000003810000000000378000000000038100014000000000000003700000000000001404500000000000000009999123100000010000000000000BRFHERACNOR5103
012024061002FIEI3       010FICA        ON           R$  000000000100000000000010000000000001000000000000100000000000010000000000000000000000000109000003000000000000000500000000000000500000000000000000009999123100000010000000000000BRFIEIACNOR2100
012024061002FIQE3       010UNIFIQUE    ON      NM   R$  000000000035800000000003650000000000354000000000035700000000003560000000000356000000000035700440000000000000229300000000000082070600000000000000009999123100000010000000000000BRFIQEACNOR5106
012024061002FLRY3       010FLEURY      ON      NM   R$  000000000144200000000014440000000001422000000000143500000000014390000000001437000000000142405145000000000001410300000000002024165300000000000000009999123100000010000000000000BRFLRYACNOR5138
012024061002FRAS3       010FRAS-LE     ON      N1   R$  000000000171700000000017340000000001700000000000171500000000017100000000001710000000000172701654000000000000381700000000000654768100000000000000009999123100000010000000000000BRFRASACNOR0159
012024061002FRIO3       010METALFRIO   ON      NM   R$  000000003029800000000302980000000028500000000002953900000000299930000000015301000000003000000004000000000000000400000000000011815900000000000000009999123100000010000000000000BRFRIOACNOR2111
012024061002GEPA3       010GER PARANAP ON           R$  000000000268000000000026800000000002680000000000268000000000026800000000002401000000000267800002000000000000000300000000000000804000000000000000009999123100000010000000000000BRGEPAACNOR2153
012024061002GEPA4       010GER PARANAP PN           R$  000000000249900000000025000000000002499000000000249900000000025000000000002451000000000253900002000000000000000200000000000000499900000000000000009999123100000010000000000000BRGEPAACNPR9160
012024061002GFSA3       010GAFISA      ON      NM   R$  000000000037800000000003790000000000358000000000036400000000003640000000000360000000000036402630000000000002109900000000000770037900000000000000009999123100000010000000000000BRGFSAACNOR3124
012024061002GGBR3       010GERDAU      ON      N1   R$  000000000153200000000015330000000001519000000000152300000000015190000000001519000000000152800233000000000000034700000000000052870300000000000000009999123100000010000000000000BRGGBRACNOR1192
012024061002GGBR4       010GERDAU      PN      N1   R$  000000000170100000000017080000000001685000000000169300000000016850000000001685000000000169211826000000000005398000000000009139224900000000000000009999123100000010000000000000BRGGBRACNPR8192
012024061002ITUB3       010ITAUUNIBANCOON  EJ  N1   R$  000000000274300000000027430000000002687000000000270400000000027140000000002712000000000271601446000000000000372100000000001006213800000000000000009999123100000010000000000000BRITUBACNOR4336
012024061002ITUB4       010ITAUUNIBANCOPN  EJ  N1   R$  000000000314900000000031600000000003091000000000311500000000031200000000003116000000000310828574000000000020354000000000063407151300000000000000009999123100000010000000000000BRITUBACNPR1336
012024061002BAHI3       010BAHEMA      ON      MA   R$  000000000062400000000006500000000000619000000000063200000000006400000000000620000000000064000040000000000000010700000000000006771400000000000000009999123100000010000000000000BRBAHIACNOR1074
012024061002BALM3       010BAUMER      ON           R$  000000000099000000000009900000000000990000000000099000000000009900000000000985000000000124800001000000000000000100000000000000099000000000000000009999123100000010000000000000BRBALMACNOR5055
012024061002BALM4       010BAUMER      PN           R$  000000000097300000000009730000000000970000000000097200000000009700000000000970000000000098800007000000000000001200000000000001166500000000000000009999123100000010000000000000BRBALMACNPR2056
012024061002BAUH4       010EXCELSIOR   PN           R$  000000000788800000000078880000000007888000000000788800000000078880000000007600000000000788900002000000000000000200000000000001577600000000000000009999123100000010000000000000BRBAUHACNPR3118
012024061002BAZA3       010AMAZONIA    ON           R$  000000000916100000000091610000000009000000000000909100000000090020000000009001000000000903800034000000000000005500000000000050001000000000000000009999123100000010000000000000BRBAZAACNOR0179
012024061002BBAS3       010BRASIL      ON      NM   R$  000000000272500000000027350000000002710000000000272100000000027210000000002725000000000272138103000000000012719000000000034615679500000000000000009999123100000010000000000000BRBBASACNOR3322
012024061002BIOM3       010BIOMM       ON      MA   R$  000000000153900000000015410000000001345000000000140000000000014000000000001356000000000140401142000000000000355300000000000497742100000000000000009999123100000010000000000000BRBIOMACNOR2112
012024061002BLAU3       010BLAU        ON      NM   R$  000000000102400000000010300000000000992000000000100400000000010030000000001002000000000100501152000000000000253700000000000254851500000000000000009999123100000010000000000000BRBLAUACNOR8113
012024061002BMEB3       010MERCANTIL   ON      N1   R$  000000000252100000000026790000000002521000000000263100000000026470000000002520000000000264700004000000000000000400000000000001052600000000000000009999123100000010000000000000BRBMEBACNOR8205
012024061002BMEB4       010MERCANTIL   PN      N1   R$  000000000276100000000027900000000002748000000000276900000000027900000000002757000000000279000043000000000000007400000000000020493700000000000000009999123100000010000000000000BRBMEBACNPR5210
012024061002BMGB4       010BANCO BMG   PN      N1   R$  000000000032800000000003290000000000321000000000032400000000003230000000000323000000000032400952000000000000428100000000000139065100000000000000009999123100000010000000000000BRBMGBACNPR0109
012024061002BMKS3       010BIC MONARK  ON           R$  000000003344700000000334470000000033447000000003344700000000334470000000033300000000003344700005000000000000000023000000000000769281000000000000009999123100000010000000000000BRBMKSACNOR9166
012024061002BMOB3       010BEMOBI TECH ON      NM   R$  000000000130000000000013050000000001270000000000128800000000012940000000001292000000000129601092000000000000199900000000000257526300000000000000009999123100000010000000000000BRBMOBACNOR7103
012024061002BOBR4       010BOMBRIL     PN           R$  000000000020500000000002110000000000205000000000020700000000002110000000000209000000000021000029000000000000012600000000000002610800000000000000009999123100000010000000000000BRBOBRACNPR3128
012024061002VITT3       010VITTIA      ON      NM   R$  000000000053200000000005570000000000514000000000053500000000005410000000000538000000000054102695000000000001460400000000000782486400000000000000009999123100000010000000000000BRVITTACNOR4107
012024061002VIVA3       010VIVARA S.A. ON      NM   R$  000000000217300000000021810000000002074000000000211100000000020950000000002095000000000210006173000000000002013300000000004250795600000000000000009999123100000010000000000000BRVIVAACNOR0107
012024061002VIVR3       010VIVER       ON      NM   R$  000000000025000000000002500000000000240000000000024500000000002450000000000240000000000024500079000000000000074000000000000018140900000000000000009999123100000010000000000000BRVIVRACNOR4122
012024061002VIVT3       010TELEF BRASILON           R$  000000000449300000000045240000000004421000000000446200000000044370000000004437000000000443014727000000000002387700000000010654878800000000000000009999123100000010000000000000BRVIVTACNOR0181
012024061002VLID3       010VALID       ON      NM   R$  000000000158400000000015920000000001538000000000155800000000015380000000001537000000000154002769000000000000466500000000000726815400000000000000009999123100000010000000000000BRVLIDACNOR5143
012024061002VSTE3       010VESTE       ON      NM   R$  000000000163400000000016700000000001618000000000165300000000016700000000001635000000000167000026000000000000004000000000000006615900000000000000009999123100000010000000000000BRVSTEACNOR5103
012024061002VTRU3       010VITRUEDUCA  ON      NM   R$  000000000140100000000014200000000001262000000000135000000000013490000000001272000000000134900261000000000000068600000000000092646300000000000000009999123100000010000000000000BRVTRUACNOR3100
012024061002VULC3       010VULCABRAS   ON      NM   R$  000000000150700000000015120000000001460000000000148900000000014800000000001480000000000149202210000000000000413000000000000615108100000000000000009999123100000010000000000000BRVULCACNOR2159
012024061002VVEO3       010VIVEO       ON      NM   R$  000000000024100000000002510000000000233000000000024400000000002500000000000248000000000024502810000000000001171200000000000286364600000000000000009999123100000010000000000000BRVVEOACNOR0104
012024061002PETZ3       010PETZ        ON      NM   R$  000000000035600000000003580000000000348000000000035300000000003540000000000354000000000035506483000000000006064000000000002144456100000000000000009999123100000010000000000000BRPETZACNOR2110
012024061002ROMI3       010ROMI        ON      NM   R$  000000000102300000000010240000000001002000000000100800000000010060000000001006000000000101201380000000000000211800000000000213551100000000000000009999123100000010000000000000BRROMIACNOR8194
012024061002RPAD3       010ALFA HOLDINGON           R$  000000000086300000000008630000000000863000000000086300000000008630000000000872000000000095500001000000000000000100000000000000086300000000000000009999123100000010000000000000BRRPADACNOR1198
012024061002RRRP3       0103R PETROLEUMON      NM   R$  000000000263400000000026680000000002602000000000263200000000026320000000002630000000000263208626000000000003692900000000009723102400000000000000009999123100000010000000000000BRRRRPACNOR5103
012024061002SYNE3       010SYN PROP TECON      NM   R$  000000000087000000000008950000000000867000000000088100000000008810000000000879000000000088500760000000000000302200000000000266403000000000000000009999123100000010000000000000BRSYNEACNOR2102
012024061002TAEE11      010TAESA       UNT     N2   R$  000000000337600000000033820000000003350000000000336300000000033530000000003364000000000335807129000000000002467200000000008299023800000000000000009999123100000010000000000000BRTAEECDAM10147
012024061002TAEE3       010TAESA       ON      N2   R$  000000000112400000000011250000000001111000000000111600000000011130000000001112000000000111300767000000000000189700000000000211830700000000000000009999123100000010000000000000BRTAEEACNOR9147
012024061002TAEE4       010TAESA       PN      N2   R$  000000000113100000000011320000000001122000000000112600000000011220000000001122000000000112501108000000000000262100000000000295302600000000000000009999123100000010000000000000BRTAEEACNPR6147
012024061002VAMO3       010VAMOS       ON      NM   R$  000000000076000000000007650000000000743000000000075300000000007580000000000753000000000075212240000000000007457900000000005620020700000000000000009999123100000010000000000000BRVAMOACNOR7105
012024061002VBBR3       010VIBRA       ON      NM   R$  000000000206400000000021300000000002059000000000211100000000021300000000002130000000000206827902000000000007442100000000015712044800000000000000009999123100000010000000000000BRVBBRACNOR1107
012024061002RCSL3       010RECRUSUL    ON  EG       R$  000000000043600000000004530000000000419000000000042700000000004200000000000420000000000042301025000000000000438400000000000187376800000000000000009999123100000010000000000000BRRCSLACNOR4134
012024061002RCSL4       010RECRUSUL    PN  EG       R$  000000000011700000000001260000000000116000000000011900000000001180000000000117000000000011800457000000000000359500000000000042865900000000000000009999123100000010000000000000BRRCSLACNPR1134
012024061002RDNI3       010RNI         ON      NM   R$  000000000033300000000003440000000000333000000000033900000000003380000000000332000000000033900019000000000000004700000000000001596700000000000000009999123100000010000000000000BRRDNIACNOR9116
012024061002RDOR3       010REDE D OR   ON      NM   R$  000000000269100000000027040000000002643000000000266500000000026550000000002655000000000266109370000000000002342500000000006243321400000000000000009999123100000010000000000000BRRDORACNOR8112
012024061002RECV3       010PETRORECSA  ON  EJ  NM   R$  000000000191000000000019320000000001872000000000189200000000018720000000001871000000000187907784000000000002083600000000003942459300000000000000009999123100000010000000000000BRRECVACNOR3107
012024061002REDE3       010REDE ENERGIAON           R$  000000000067300000000006750000000000667000000000067000000000006710000000000668000000000067100024000000000000008700000000000005834400000000000000009999123100000010000000000000BRREDEACNOR7127
012024061002RENT3       010LOCALIZA    ON      NM   R$  000000000423300000000042810000000004186000000000421600000000041860000000004225000000000419015509000000000004533800000000019115380800000000000000009999123100000010000000000000BRRENTACNOR4195
012024061002PDGR3       010PDG REALT   ON      NM   R$  000000000002000000000000200000000000019000000000001900000000000190000000000019000000000002000362000000000000597400000000000011557500000000000000009999123100000010000000000000BRPDGRACNOR8118
012024061002PDTC3       010PADTEC      ON      NM   R$  000000000018500000000001880000000000184000000000018500000000001850000000000184000000000018600040000000000000012600000000000002333200000000000000009999123100000010000000000000BRPDTCACNOR3101
012024061002PEAB3       010PAR AL BAHIAON           R$  000000000425000000000042500000000004250000000000425000000000042500000000000000000000000455000003000000000000000300000000000001275000000000000000009999123100000010000000000000BRPEABACNOR3133
012024061002PETR3       010PETROBRAS   ON      N2   R$  000000000388400000000039670000000003878000000000393400000000039300000000003929000000000389712437000000000007384200000000029055408900000000000000009999123100000010000000000000BRPETRACNOR9204
012024061002PETR4       010PETROBRAS   PN      N2   R$  000000000371900000000038060000000003712000000000376800000000037500000000003804000000000376257204000000000032560900000000122716653800000000000000009999123100000010000000000000BRPETRACNPR6212
012024061002RAIL3       010RUMO S.A.   ON      NM   R$  000000000197300000000019840000000001941000000000195900000000019600000000001954000000000196016882000000000008037700000000015748564000000000000000009999123100000010000000000000BRRAILACNOR9105
012024061002RAIZ4       010RAIZEN      PN      N2   R$  000000000027100000000002760000000000267000000000027200000000002720000000000272000000000027315838000000000013665800000000003728327800000000000000009999123100000010000000000000BRRAIZACNPR6110
012024061002RANI3       010IRANI       ON      NM   R$  000000000083100000000008340000000000824000000000082800000000008300000000000828000000000083001832000000000000401200000000000332230200000000000000009999123100000010000000000000BRRANIACNOR5072
012024061002RAPT3       010RANDON PART ON      N1   R$  000000000080100000000008020000000000785000000000079100000000007930000000000792000000000079300236000000000000048300000000000038210400000000000000009999123100000010000000000000BRRAPTACNOR7162
012024061002RAPT4       010RANDON PART PN      N1   R$  000000000093000000000009310000000000912000000000092000000000009150000000000915000000000091703296000000000000792500000000000729791400000000000000009999123100000010000000000000BRRAPTACNPR4162
012024061002SRNA3       010SERENA      ON      NM   R$  000000000087200000000008760000000000848000000000085900000000008560000000000852000000000085705231000000000001446200000000001243251600000000000000009999123100000010000000000000BRSRNAACNOR4100
012024061002STBP3       010SANTOS BRP  ON      NM   R$  000000000119500000000012010000000001166000000000117800000000011710000000001167000000000117409891000000000003523000000000004153323900000000000000009999123100000010000000000000BRSTBPACNOR3130
012024061002SLCE3       010SLC AGRICOLAON      NM   R$  000000000172600000000017440000000001710000000000172900000000017230000000001723000000000172707400000000000002106700000000003643490300000000000000009999123100000010000000000000BRSLCEACNOR2125
012024061002VALE3       010VALE        ON      NM   R$  000000000606000000000061310000000006040000000000608400000000061070000000006106000000000599434954000000000014762900000000089819662100000000000000009999123100000010000000000000BRVALEACNOR0210
012024061002SCAR3       010SAO CARLOS  ON      NM   R$  000000000232000000000023200000000002280000000000228500000000022890000000002270000000000228900051000000000000007900000000000018058700000000000000009999123100000010000000000000BRSCARACNOR7131
012024061002DASA3       010DASA        ON      NM   R$  000000000041500000000004290000000000389000000000040900000000004080000000000408000000000041006102000000000004408400000000001807314000000000000000009999123100000010000000000000BRDASAACNOR1122
012024061002ESPA3       010ESPACOLASER ON      NM   R$  000000000011100000000001120000000000108000000000010900000000001100000000000110000000000011100221000000000000798700000000000087651000000000000000009999123100000010000000000000BRESPAACNOR7103
012024061002EUCA4       010EUCATEX     PN      N1   R$  000000000145700000000014960000000001423000000000147000000000014560000000001455000000000146600443000000000000064400000000000094669600000000000000009999123100000010000000000000BREUCAACNPR8044
012024061002EVEN3       010EVEN        ON      NM   R$  000000000064200000000006430000000000616000000000062300000000006200000000000619000000000062302108000000000000763200000000000476203500000000000000009999123100000010000000000000BREVENACNOR8119
012024061002EZTC3       010EZTEC       ON      NM   R$  000000000134100000000013700000000001323000000000134200000000013290000000001326000000000133406210000000000002516000000000003378756600000000000000009999123100000010000000000000BREZTCACNOR0125
012024061002ANIM3       010ANIMA       ON      NM   R$  000000000034400000000003540000000000337000000000034200000000003410000000000340000000000034206563000000000004661300000000001597384000000000000000009999123100000010000000000000BRANIMACNOR6107
012024061002ARML3       010ARMAC       ON      NM   R$  000000000102600000000010360000000000992000000000101600000000010170000000001017000000000101903499000000000000917900000000000933416600000000000000009999123100000010000000000000BRARMLACNOR1111
012024061002ARZZ3       010AREZZO CO   ON      NM   R$  000000000501200000000050550000000004830000000000491700000000048400000000004837000000000484006256000000000001798300000000008842654600000000000000009999123100000010000000000000BRARZZACNOR3146
012024061002COGN3       010COGNA ON    ON      NM   R$  000000000018100000000001810000000000175000000000017700000000001790000000000178000000000017911571000000000028341300000000005041550600000000000000009999123100000010000000000000BRCOGNACNOR2104
012024061002GGPS3       010GPS         ON      NM   R$  000000000180700000000018070000000001750000000000176400000000017610000000001750000000000176103811000000000001261700000000002226363300000000000000009999123100000010000000000000BRGGPSACNOR9103
012024061002GMAT3       010GRUPO MATEUSON      NM   R$  000000000078000000000007800000000000757000000000076600000000007640000000000764000000000076502489000000000001235500000000000946728100000000000000009999123100000010000000000000BRGMATACNOR7101
012024061002GOAU3       010GERDAU MET  ON      N1   R$  000000000102900000000010540000000001014000000000102000000000010200000000001013000000000102100175000000000000034100000000000034796300000000000000009999123100000010000000000000BRGOAUACNOR1267
012024061002GOAU4       010GERDAU MET  PN      N1   R$  000000000100000000000010050000000000993000000000099700000000009970000000000996000000000099508659000000000006331800000000006313447400000000000000009999123100000010000000000000BRGOAUACNPR8268
012024061002GRND3       010GRENDENE    ON      NM   R$  000000000062300000000006260000000000615000000000061900000000006200000000000617000000000062002923000000000000855700000000000530520400000000000000009999123100000010000000000000BRGRNDACNOR3174
012024061002JALL3       010JALLESMACHADON      NM   R$  000000000065300000000006720000000000648000000000066200000000006660000000000663000000000066602890000000000000638000000000000422989900000000000000009999123100000010000000000000BRJALLACNOR0105
012024061002JBSS3       010JBS         ON      NM   R$  000000000292500000000029650000000002910000000000293400000000029250000000002923000000000292616000000000000005402100000000015852396000000000000000009999123100000010000000000000BRJBSSACNOR8121
012024061002MRVE3       010MRV         ON      NM   R$  000000000068500000000007020000000000678000000000068800000000006800000000000680000000000068211064000000000007496300000000005163710400000000000000009999123100000010000000000000BRMRVEACNOR2127
012024061002AERI3       010AERIS       ON      NM   R$  000000000068600000000006860000000000631000000000065300000000006400000000000633000000000064100745000000000000265500000000000173604300000000000000009999123100000010000000000000BRAERIACNOR4102
012024061002AESB3       010AES BRASIL  ON      NM   R$  000000000112300000000011260000000001121000000000112300000000011250000000001122000000000112503127000000000003890000000000004369134200000000000000009999123100000010000000000000BRAESBACNOR7106
012024061007NUTR3       010NUTRIPLANT  ON      MA   R$  000000000051900000000005470000000000519000000000053200000000005270000000000527000000000053800042000000000000009000000000000004794100000000000000009999123100000010000000000000BRNUTRACNOR0104
012024061007TXRX4       010TEX RENAUX  PN           R$  000000000023900000000002680000000000239000000000025100000000002640000000000242000000000026000019000000000000005400000000000001357800000000000000009999123100000010000000000000BRTXRXACNPR0142
012024061007BHIA3       010CASAS BAHIA ON      NM   R$  000000000065300000000006560000000000610000000000062500000000006100000000000609000000000061003817000000000003863900000000002418092400000000000000009999123100000010000000000000BRBHIAACNOR1101
012024061008LIGT3       010LIGHT S/A   ON      NM   R$  000000000056700000000005990000000000556000000000057700000000005900000000000575000000000059006213000000000001569800000000000907041900000000000000009999123100000010000000000000BRLIGTACNOR2124
012024061008HOOT4       010HOTEIS OTHONPN           R$  000000000027100000000002710000000000270000000000027000000000002700000000000270000000000028000005000000000000002700000000000000729700000000000000009999123100000010000000000000BRHOOTACNPR9015
012024061008PMAM3       010PARANAPANEMAON      NM   R$  000000000025000000000002540000000000248000000000025000000000002480000000000248000000000025000038000000000000020000000000000005011200000000000000009999123100000010000000000000BRPMAMACNOR3039
012024061008RSID3       010ROSSI RESID ON      NM   R$  000000000052800000000005310000000000480000000000049800000000005090000000000505000000000050900533000000000000188900000000000094102800000000000000009999123100000010000000000000BRRSIDACNOR8120
012024061008NEXP3       010NEXPE       ON           R$  000000000041400000000004220000000000414000000000042000000000004200000000000407000000000041800011000000000000002100000000000000883400000000000000009999123100000010000000000000BRNEXPACNOR0101
012024061008OIBR3       010OI          ON      N1   R$  000000000005800000000000590000000000057000000000005700000000000580000000000057000000000005800759000000000002057700000000000118510800000000000000009999123100000010000000000000BROIBRACNOR1110
012024061008OIBR4       010OI          PN      N1   R$  000000000016600000000001660000000000164000000000016400000000001640000000000164000000000016500034000000000000023200000000000003816100000000000000009999123100000010000000000000BROIBRACNPR8109
012024061008SGPS3       010SPRINGS     ON      NM   R$  000000000003800000000000380000000000038000000000003800000000000380000000000037000000000003800046000000000000098400000000000003739200000000000000009999123100000010000000000000BRSGPSACNOR4104
012024061008JFEN3       010JOAO FORTES ON           R$  000000000013200000000001370000000000132000000000013400000000001320000000000132000000000013300044000000000000015500000000000002078000000000000000009999123100000010000000000000BRJFENACNOR0059
012024061008AMER3       010AMERICANAS  ON      NM   R$  000000000003500000000000350000000000034000000000003400000000000340000000000034000000000003501233000000000008132700000000000278518100000000000000009999123100000010000000000000BRAMERACNOR6102
012024061008CTNM3       010COTEMINAS   ON           R$  000000000086700000000008670000000000867000000000086700000000008670000000000659000000000086800001000000000000000100000000000000086700000000000000009999123100000010000000000000BRCTNMACNOR9130
012024061008CTNM4       010COTEMINAS   PN           R$  000000000008000000000000800000000000080000000000008000000000000800000000000079000000000008000020000000000000020500000000000001640000000000000000009999123100000010000000000000BRCTNMACNPR6129
012024061008CTSA3       010SANTANENSE  ON           R$  000000000022300000000002230000000000223000000000022300000000002230000000000215000000000022300001000000000000000300000000000000066900000000000000009999123100000010000000000000BRCTSAACNOR3062
012024061008CTSA4       010SANTANENSE  PN           R$  000000000010100000000001010000000000096000000000009800000000000980000000000097000000000009900062000000000000031700000000000003120000000000000000009999123100000010000000000000BRCTSAACNPR0062
012024061008OSXB3       010OSX BRASIL  ON      NM   R$  000000000040000000000004090000000000397000000000040000000000003970000000000397000000000040100021000000000000003200000000000001280800000000000000009999123100000010000000000000BROSXBACNOR8109
012024061008ATMP3       010ATMASA      ON           R$  000000000022100000000002350000000000218000000000022900000000002310000000000220000000000023100017000000000000013500000000000003094900000000000000009999123100000010000000000000BRATMPACNOR8100
012024061008BDLL4       010BARDELLA    PN           R$  000000000096100000000010000000000000961000000000099300000000010000000000000952000000000105000003000000000000000600000000000000596100000000000000009999123100000010000000000000BRBDLLACNPR8151
012024061008RNEW11      010RENOVA      UNT     N2   R$  000000000029700000000002970000000000294000000000029400000000002940000000000294000000000029700008000000000000001900000000000000559500000000000000009999123100000010000000000000BRRNEWCDAM15110
012024061008RNEW3       010RENOVA      ON      N2   R$  000000000009900000000000990000000000096000000000009600000000000970000000000097000000000009800038000000000000054800000000000005300600000000000000009999123100000010000000000000BRRNEWACNOR8110
012024061008RNEW4       010RENOVA      PN      N2   R$  000000000009800000000001000000000000098000000000009800000000000980000000000098000000000009900057000000000000050100000000000004943500000000000000009999123100000010000000000000BRRNEWACNPR5110
012024061008RPMG3       010PET MANGUINHON           R$  000000000023100000000002700000000000228000000000024900000000002350000000000235000000000024300482000000000000203500000000000050751500000000000000009999123100000010000000000000BRRPMGACNOR9194
012024061008ETER3       010ETERNIT     ON      NM   R$  000000000062800000000006280000000000606000000000061200000000006100000000000610000000000061200502000000000000117500000000000071972900000000000000009999123100000010000000000000BRETERACNOR3243
012024061010BSLI2       010BRB BANCO   DIR PRE      R$  000000000002400000000000300000000000015000000000002100000000000300000000000021000000000003300010000000000000003200000000000000068500000000000000009999123100000010000000000000BRBSLID02PR5192
012024061010ONCO1       010ONCOCLINICASDIR ORD NM   R$  000000000000100000000000010000000000001000000000000100000000000010000000000000000000000000100050000000000000221000000000000000221000000000000000009999123100000010000000000000BRONCOD01OR1100
012024061010AMER95      010AMERICANAS  DIR     NM   R$  000000000000100000000000020000000000001000000000000100000000000010000000000001000000000000200193000000000000625416000000000000764301000000000000009999123100000010000000000000BRAMERD01M17100
012024061012AFHI11      010FII AFHI CRICI           R$  000000000972600000000097310000000009706000000000972200000000097240000000009713000000000972403643000000000000008747000000000085046067000000000000009999123100000010000000000000BRAFHICTF005142
012024061012AIEC11      010FII AUTONOMYCI  ER       R$  000000000538500000000053950000000005304000000000534600000000053630000000005361000000000536400648000000000000005552000000000029684283000000000000009999123100000010000000000000BRAIECCTF009145
012024061012AJFI11      010FII AJ MALLSCI  ER       R$  000000000087400000000008890000000000855000000000087000000000008660000000000866000000000086809146000000000000214474000000000186662882000000000000009999123100000010000000000000BRAJFICTF001107
012024061012ALMI11      010FII TORRE ALCI           R$  000000006514900000000651490000000064700000000006485000000000647000000000064700000000006514500003000000000000000003000000000000194550000000000000009999123100000010000000000000BRALMICTF003250
012024061012CNES11      010FII CENESP  CI           R$  000000000016000000000001640000000000157000000000015900000000001640000000000162000000000016400938000000000000065275000000000010427559000000000000009999123100000010000000000000BRCNESCTF001259
012024061012ABCP11      010FII ABC IMOBCI  ER       R$  000000000670200000000067590000000006700000000000674000000000067010000000006700000000000670400140000000000000000835000000000005628112000000000000009999123100000010000000000000BRABCPCTF000339
012024061012CBOP11      010FII C BRANCOCI  ER       R$  000000000279100000000028000000000002701000000000277700000000028000000000002711000000000282900035000000000000000352000000000000977792000000000000009999123100000010000000000000BRCBOPCTF001230
012024061012CCME11      010FII CANUMA  CI           R$  000000000123800000000012440000000001215000000000122700000000012390000000001239000000000000000439000000000000002766000000000003394855000000000000009999123100000010000000000000BRCCMECTF007122
012024061012CEOC11      010FII CEO CCP CI  ER       R$  000000000450000000000045000000000004451000000000446700000000044640000000004452000000000446300063000000000000000322000000000001438535000000000000009999123100000010000000000000BRCEOCCTF003215
012024061012CJCT11      010FII CJCTOWERCI  ER       R$  000000000645000000000064500000000006409000000000644900000000064090000000006408000000000640900002000000000000000301000000000001941409000000000000009999123100000010000000000000BRCJCTCTF001115
012024061012CLIN11      010FII CLAVE INCI           R$  000000000978100000000097810000000009654000000000970000000000096800000000009680000000000970503120000000000000012481000000000121066271000000000000009999123100000010000000000000BRCLINCTF007107
012024061012DEVA11      010FII DEVANT  CI  ER       R$  000000000433200000000044970000000004233000000000437400000000043100000000004309000000000431003505000000000000089427000000000391242788000000000000009999123100000010000000000000BRDEVACTF000149
012024061012DPRO11      010FII DEVA PROCI  ER       R$  000000000070500000000007050000000000683000000000069900000000006830000000000680000000000068300014000000000000000027000000000000018879000000000000009999123100000010000000000000BRDPROCTF005124
012024061012DRIT11      010FII MTGESTAOCI  ER       R$  000000000815000000000081550000000008150000000000815100000000081500000000007882000000000815500005000000000000000007000000000000057060000000000000009999123100000010000000000000BRDRITCTF009253
012024061012DVFF11      010FII DEVA FOFCI  ER       R$  000000000076200000000007620000000000741000000000074900000000007530000000000753000000000075401638000000000000006176000000000004630148000000000000009999123100000010000000000000BRDVFFCTF006138
012024061012EDGA11      010FII GALERIA CI           R$  000000000201700000000020280000000002006000000000201800000000020280000000002006000000000203300105000000000000002090000000000004217876000000000000009999123100000010000000000000BREDGACTF001241
012024061012LASC11      010FII LEGATUS CI  ER       R$  000000001104000000000110400000000011038000000001103900000000110390000000010903000000001103900074000000000000000268000000000002958456000000000000009999123100000010000000000000BRLASCCTF003153
012024061012LFTT11      010FII LOFT II CI  EA       R$  000000000230800000000023500000000002305000000000230900000000023500000000002350000000000244000009000000000000001038000000000002397452000000000000009999123100000010000000000000BRLFTTCTF004132
012024061012LGCP11      010FII LGCP INTCI  ER       R$  000000000848500000000085090000000008426000000000845800000000084970000000008479000000000849800203000000000000001982000000000016765449000000000000009999123100000010000000000000BRLGCPCTF006156
012024061012LIFE11      010FII LIFE    CI  ER       R$  000000000100500000000010050000000000999000000000100300000000010040000000001003000000000100400271000000000000004897000000000004912972000000000000009999123100000010000000000000BRLIFECTF017129
012024061012BROF11      010FII BROF    CI           R$  000000000557800000000057200000000005499000000000558900000000057200000000005599000000000572000500000000000000008683000000000048535612000000000000009999123100000010000000000000BRBROFCTF000113
012024061012BTAL11      010FII BTG AGROCI           R$  000000000747400000000075900000000007393000000000748900000000074000000000007400000000000741500693000000000000004703000000000035220823000000000000009999123100000010000000000000BRBTALCTF003139
012024061012BTCI11      010FII BTG CRI CI  ER       R$  000000000100700000000010070000000000994000000000099700000000009980000000000997000000000099809640000000000000202652000000000202169441000000000000009999123100000010000000000000BRBTCICTF005120
012024061012BTHI11      010BTG HOTEL FICI  ER       R$  000000000400000000000040260000000003991000000000400600000000040000000000004000000000000402700014000000000000000130000000000000520822000000000000009999123100000010000000000000BRBTHICTF004109
012024061012BTLG11      010FII BTLG    CI           R$  000000001006000000000100790000000010010000000001004900000000100430000000010043000000001005012437000000000000062590000000000629002187000000000000009999123100000010000000000000BRBTLGCTF000162
012024061012BTRA11      010FII BTG TAGRCI           R$  000000000510000000000051980000000004999000000000504200000000050110000000005011000000000514501157000000000000010840000000000054664581000000000000009999123100000010000000000000BRBTRACTF000136
012024061012CACR11      010CARTESIA FIICI  ER       R$  000000001026300000000103080000000010246000000001027900000000102490000000010249000000001029600746000000000000009655000000000099246824000000000000009999123100000010000000000000BRCACRCTF004133
012024061012CARE11      010FII DEA CARECI           R$  000000000017900000000001790000000000170000000000017300000000001730000000000173000000000017600114000000000000003575000000000000619006000000000000009999123100000010000000000000BRCARECTF000112
012024061012CXAG11      010FII CAIXA AGCI  ER       R$  000000000755100000000075510000000007529000000000753900000000075490000000007543000000000754900107000000000000000765000000000005768086000000000000009999123100000010000000000000BRCXAGCTF003128
012024061012CXCE11      010FII CX CEDAECI  ER       R$  000000000405000000000040500000000004008000000000403600000000040500000000004040000000000405000040000000000000000401000000000001618455000000000000009999123100000010000000000000BRCXCECTF004269
012024061012CXCI11      010FII CAIXA CICI  ER       R$  000000000815800000000081580000000008080000000000809900000000081000000000008101000000000815900027000000000000001305000000000010569838000000000000009999123100000010000000000000BRCXCICTF005127
012024061012CXCO11      010FII CEF CORPCI  ER       R$  000000000793500000000079350000000007809000000000786800000000078500000000007850000000000787400143000000000000001556000000000012243787000000000000009999123100000010000000000000BRCXCOCTF003138
012024061012CXRI11      010FII CX RBRAVCI  ER       R$  000000000779000000000077900000000007779000000000777900000000077800000000007780000000000779000007000000000000000201000000000001563598000000000000009999123100000010000000000000BRCXRICTF003228
012024061012CXTL11      010FII CX TRX  CI  ER       R$  000000002200000000000220030000000022000000000002200100000000220020000000022010000000002230000006000000000000000010000000000000220015000000000000009999123100000010000000000000BRCXTLCTF003237
012024061012CYCR11      010FII CYRELA  CI  ER       R$  000000000096400000000009700000000000964000000000096600000000009640000000000964000000000096600870000000000000014075000000000013598775000000000000009999123100000010000000000000BRCYCRCTF004138
012024061012EGYR11      010FII ENERGY  CI           R$  000000000033200000000003320000000000327000000000032800000000003270000000000325000000000032700020000000000000000205000000000000067286000000000000009999123100000010000000000000BREGYRCTF001102
012024061012HLOG11      010FII HEDGELOGCI  ER       R$  000000000780700000000078630000000007803000000000784000000000078610000000007808000000000786300420000000000000000785000000000006154968000000000000009999123100000010000000000000BRHLOGCTF008156
012024061012HOFC11      010FII HOFFICEICI           R$  000000000302100000000030590000000002923000000000297000000000029700000000002970000000000297601010000000000000001722000000000005115844000000000000009999123100000010000000000000BRHOFCCTF009114
012024061012HOSI11      010FII HOUSI   CI  ER       R$  000000001014500000000101450000000009801000000000985900000000098140000000009814000000001009900010000000000000000028000000000000276072000000000000009999123100000010000000000000BRHOSICTF009145
012024061012HPDP11      010FII HEDGEPDPCI  ER       R$  000000000873800000000087380000000008738000000000873800000000087380000000008737000000000884900001000000000000000002000000000000017476000000000000009999123100000010000000000000BRHPDPCTF003152
