00COTAHIST.2024BOVESPA 20240527                                                                                                                                                                                                                      
012024052702ESPA3       010ESPACOLASER ON      NM   R$  000000000011800000000001180000000000115000000000011600000000001160000000000116000000000011700306000000000000304200000000000035346400000000000000009999123100000010000000000000BRESPAACNOR7103
012024052702EUCA3       010EUCATEX     ON      N1   R$  000000000150500000000015050000000001505000000000150500000000015050000000001433000000000150500001000000000000000100000000000000150500000000000000009999123100000010000000000000BREUCAACNOR1157
012024052702EUCA4       010EUCATEX     PN      N1   R$  000000000138700000000014340000000001386000000000141300000000014200000000001420000000000142900396000000000000096800000000000136802500000000000000009999123100000010000000000000BREUCAACNPR8044
012024052702EVEN3       010EVEN        ON  ED  NM   R$  000000000066300000000006740000000000663000000000066800000000006640000000000664000000000066901438000000000000429300000000000286971100000000000000009999123100000010000000000000BREVENACNOR8119
012024052702TAEE11      010TAESA       UNT     N2   R$  000000000353000000000035440000000003500000000000351800000000035070000000003506000000000351604244000000000001124100000000003955085900000000000000009999123100000010000000000000BRTAEECDAM10147
012024052702TAEE3       010TAESA       ON      N2   R$  000000000117000000000011740000000001161000000000116600000000011740000000001162000000000117400484000000000000102400000000000119472300000000000000009999123100000010000000000000BRTAEEACNOR9147
012024052702TAEE4       010TAESA       PN      N2   R$  000000000118300000000011870000000001172000000000117700000000011760000000001176000000000117700656000000000000141800000000000167016400000000000000009999123100000010000000000000BRTAEEACNPR6147
012024052702TASA3       010TAURUS ARMASON      N2   R$  000000000122000000000012200000000001204000000000120700000000012050000000001205000000000120800072000000000000011600000000000014011800000000000000009999123100000010000000000000BRTASAACNOR7104
012024052702TASA4       010TAURUS ARMASPN      N2   R$  000000000115000000000011500000000001132000000000113800000000011340000000001133000000000113801069000000000000244200000000000278004300000000000000009999123100000010000000000000BRTASAACNPR4104
012024052702TCSA3       010TECNISA     ON      NM   R$  000000000022500000000002330000000000223000000000022600000000002320000000000226000000000023200146000000000000052600000000000011898300000000000000009999123100000010000000000000BRTCSAACNOR3112
012024052702TECN3       010TECHNOS     ON      NM   R$  000000000043200000000004320000000000400000000000041000000000004110000000000411000000000041200612000000000000423400000000000173899100000000000000009999123100000010000000000000BRTECNACNOR6109
012024052702TELB3       010TELEBRAS    ON           R$  000000000135600000000013690000000001331000000000135000000000013600000000001305000000000136800011000000000000001200000000000001620800000000000000009999123100000010000000000000BRTELBACNOR2140
012024052702TELB4       010TELEBRAS    PN           R$  000000000094400000000009670000000000914000000000094200000000009260000000000926000000000096300062000000000000019200000000000018088600000000000000009999123100000010000000000000BRTELBACNPR9140
012024052702TEND3       010TENDA       ON      NM   R$  000000000115800000000011900000000001158000000000117400000000011750000000001175000000000117602278000000000000578300000000000679391200000000000000009999123100000010000000000000BRTENDACNOR4111
012024052702VVEO3       010VIVEO       ON      NM   R$  000000000031100000000003110000000000288000000000029500000000003000000000000300000000000030102600000000000001596800000000000472232300000000000000009999123100000010000000000000BRVVEOACNOR0104
012024052702WEGE3       010WEG         ON      NM   R$  000000000383400000000038410000000003813000000000382900000000038350000000003834000000000383508108000000000001905700000000007297053400000000000000009999123100000010000000000000BRWEGEACNOR0222
012024052702WEST3       010WESTWING    ON      NM   R$  000000000011300000000001130000000000109000000000010900000000001090000000000108000000000010900092000000000000073900000000000008109900000000000000009999123100000010000000000000BRWESTACNOR3100
012024052702WHRL3       010WHIRLPOOL   ON           R$  000000000046100000000004610000000000458000000000045900000000004580000000000458000000000046000002000000000000000200000000000000091900000000000000009999123100000010000000000000BRWHRLACNOR5128
012024052702WHRL4       010WHIRLPOOL   PN           R$  000000000049300000000004950000000000487000000000049300000000004890000000000487000000000048900025000000000000015800000000000007792200000000000000009999123100000010000000000000BRWHRLACNPR2128
012024052702STBP3       010SANTOS BRP  ON      NM   R$  000000000120600000000012250000000001201000000000121500000000012190000000001219000000000122006082000000000001996300000000002426974800000000000000009999123100000010000000000000BRSTBPACNOR3129
012024052702SUZB3       010SUZANO S.A. ON      NM   R$  000000000494800000000049480000000004865000000000489400000000049000000000004898000000000490011621000000000002937600000000014378846900000000000000009999123100000010000000000000BRSUZBACNOR0129
012024052702VITT3       010VITTIA      ON      NM   R$  000000000052100000000005330000000000512000000000052000000000005330000000000520000000000053300854000000000000213900000000000111370600000000000000009999123100000010000000000000BRVITTACNOR4107
012024052702VIVA3       010VIVARA S.A. ON      NM   R$  000000000223100000000022530000000002211000000000223200000000022490000000002243000000000225002944000000000001520700000000003394869000000000000000009999123100000010000000000000BRVIVAACNOR0107
012024052702VIVR3       010VIVER       ON      NM   R$  000000000027500000000002790000000000270000000000027200000000002710000000000270000000000027200154000000000000061500000000000016746000000000000000009999123100000010000000000000BRVIVRACNOR4122
012024052702VIVT3       010TELEF BRASILON           R$  000000000459000000000045940000000004566000000000458200000000045930000000004573000000000459504479000000000000947400000000004341291100000000000000009999123100000010000000000000BRVIVTACNOR0181
012024052702VLID3       010VALID       ON      NM   R$  000000000169700000000017490000000001694000000000172700000000017410000000001740000000000174101600000000000000281600000000000486333800000000000000009999123100000010000000000000BRVLIDACNOR5142
012024052702VSTE3       010VESTE       ON      NM   R$  000000000129000000000013380000000001271000000000130600000000013350000000001335000000000134900048000000000000006700000000000008753400000000000000009999123100000010000000000000BRVSTEACNOR5103
012024052702VULC3       010VULCABRAS   ON      NM   R$  000000000152500000000015410000000001514000000000152400000000015340000000001533000000000153501753000000000000389100000000000593295500000000000000009999123100000010000000000000BRVULCACNOR2159
012024052702SBFG3       010GRUPO SBF   ON      NM   R$  000000000120600000000012430000000001206000000000123000000000012350000000001234000000000123603756000000000000765900000000000942557400000000000000009999123100000010000000000000BRSBFGACNOR1103
012024052702SBSP3       010SABESP      ON      NM   R$  000000000756400000000075730000000007478000000000751200000000075070000000007500000000000751206981000000000001556900000000011696775600000000000000009999123100000010000000000000BRSBSPACNOR5161
012024052702SMFT3       010SMART FIT   ON      NM   R$  000000000220000000000022100000000002160000000000217100000000021600000000002160000000000217304174000000000001429900000000003105206400000000000000009999123100000010000000000000BRSMFTACNOR1111
012024052702MLAS3       010MULTILASER  ON      NM   R$  000000000022000000000002260000000000218000000000022100000000002200000000000220000000000022202784000000000001454200000000000322122500000000000000009999123100000010000000000000BRMLASACNOR9101
012024052702RECV3       010PETRORECSA  ON      NM   R$  000000000197500000000020070000000001959000000000199000000000019980000000001998000000000200402955000000000000829400000000001651121600000000000000009999123100000010000000000000BRRECVACNOR3106
012024052702REDE3       010REDE ENERGIAON           R$  000000000069000000000006900000000000683000000000068600000000006830000000000685000000000068900006000000000000001000000000000000686700000000000000009999123100000010000000000000BRREDEACNOR7127
012024052702RENT3       010LOCALIZA    ON      NM   R$  000000000447500000000045390000000004461000000000449300000000044940000000004494000000000449513342000000000003542100000000015917441800000000000000009999123100000010000000000000BRRENTACNOR4195
012024052702RANI3       010IRANI       ON      NM   R$  000000000087700000000008780000000000860000000000086800000000008650000000000864000000000086501750000000000000561200000000000487174900000000000000009999123100000010000000000000BRRANIACNOR5072
012024052702RAPT3       010RANDON PART ON      N1   R$  000000000086400000000008700000000000858000000000086600000000008690000000000864000000000086900113000000000000026400000000000022874200000000000000009999123100000010000000000000BRRAPTACNOR7162
012024052702RAPT4       010RANDON PART PN      N1   R$  000000000099700000000010180000000000990000000000100600000000010090000000001009000000000101003883000000000002207500000000002221718700000000000000009999123100000010000000000000BRRAPTACNPR4162
012024052702SMTO3       010SAO MARTINHOON      NM   R$  000000000269000000000027290000000002661000000000269800000000027050000000002704000000000271002291000000000000566300000000001528084600000000000000009999123100000010000000000000BRSMTOACNOR3125
012024052702SNSY5       010SANSUY      PNA          R$  000000000062700000000006270000000000626000000000062600000000006260000000000606000000000062700002000000000000000200000000000000125300000000000000009999123100000010000000000000BRSNSYACNPA5111
012024052702SOJA3       010BOA SAFRA   ON      NM   R$  000000000166300000000016820000000001645000000000166600000000016670000000001667000000000167100709000000000000146800000000000244631900000000000000009999123100000010000000000000BRSOJAACNOR9105
012024052702SOMA3       010GRUPO SOMA  ON      NM   R$  000000000060700000000006180000000000603000000000060800000000006030000000000603000000000060513238000000000007596500000000004622619700000000000000009999123100000010000000000000BRSOMAACNOR3102
012024052702ZAMP3       010ZAMP S.A.   ON           R$  000000000029900000000003020000000000296000000000029800000000002990000000000299000000000030101346000000000000848800000000000253576800000000000000009999123100000010000000000000BRZAMPACNOR5100
012024052702SYNE3       010SYN PROP TECON      NM   R$  000000000093000000000009320000000000917000000000092400000000009320000000000925000000000093200426000000000000109900000000000101601000000000000000009999123100000010000000000000BRSYNEACNOR2102
012024052702SRNA3       010SERENA      ON      NM   R$  000000000092400000000009280000000000913000000000092000000000009180000000000917000000000092503271000000000000562100000000000517306600000000000000009999123100000010000000000000BRSRNAACNOR4100
012024052702VAMO3       010VAMOS       ON      NM   R$  000000000082000000000008200000000000804000000000081100000000008160000000000813000000000081707191000000000002664100000000002161469100000000000000009999123100000010000000000000BRVAMOACNOR7105
012024052702VBBR3       010VIBRA       ON      NM   R$  000000000224000000000022760000000002240000000000226300000000022690000000002263000000000227008697000000000002733300000000006186359300000000000000009999123100000010000000000000BRVBBRACNOR1107
012024052702SCAR3       010SAO CARLOS  ON      NM   R$  000000000241000000000024810000000002410000000000243400000000024330000000002360000000000246100026000000000000003000000000000007302000000000000000009999123100000010000000000000BRSCARACNOR7131
012024052702SEER3       010SER EDUCA   ON      NM   R$  000000000049100000000005110000000000487000000000049800000000004980000000000496000000000049802838000000000001282900000000000638937800000000000000009999123100000010000000000000BRSEERACNOR5119
012024052702SEQL3       010SEQUOIA LOG ON      NM   R$  000000000003500000000000350000000000033000000000003400000000000340000000000033000000000003400501000000000002545400000000000086775900000000000000009999123100000010000000000000BRSEQLACNOR2102
012024052702RCSL3       010RECRUSUL    ON           R$  000000000016500000000001770000000000165000000000017100000000001690000000000169000000000017002473000000000001608300000000000275201100000000000000009999123100000010000000000000BRRCSLACNOR4133
012024052702RCSL4       010RECRUSUL    PN           R$  000000000003700000000000380000000000036000000000003600000000000370000000000036000000000003700157000000000000237900000000000008649200000000000000009999123100000010000000000000BRRCSLACNPR1133
012024052702RDNI3       010RNI         ON      NM   R$  000000000033800000000003420000000000331000000000033600000000003380000000000331000000000033800018000000000000003400000000000001143200000000000000009999123100000010000000000000BRRDNIACNOR9116
012024052702RDOR3       010REDE D OR   ON      NM   R$  000000000290000000000029170000000002826000000000284700000000028540000000002850000000000285409639000000000002947200000000008393335800000000000000009999123100000010000000000000BRRDORACNOR8112
012024052702VALE3       010VALE        ON      NM   R$  000000000649100000000065300000000006471000000000650500000000065300000000006526000000000653113598000000000005119400000000033304627400000000000000009999123100000010000000000000BRVALEACNOR0210
012024052702UCAS3       010UNICASA     ON      NM   R$  000000000023400000000002350000000000232000000000023300000000002320000000000232000000000023400044000000000000008300000000000001939300000000000000009999123100000010000000000000BRUCASACNOR1113
012024052702UGPA3       010ULTRAPAR    ON      NM   R$  000000000238400000000024120000000002381000000000239700000000023970000000002389000000000239805135000000000001264600000000003031336700000000000000009999123100000010000000000000BRUGPAACNOR8155
012024052702UNIP3       010UNIPAR      ON           R$  000000000509400000000051310000000005066000000000508400000000050740000000005074000000000523300049000000000000006000000000000030508700000000000000009999123100000010000000000000BRUNIPACNOR7206
012024052702UNIP5       010UNIPAR      PNA          R$  000000000560000000000060000000000005595000000000584300000000055950000000005500000000000590000011000000000000001100000000000006427300000000000000009999123100000010000000000000BRUNIPACNPA0208
012024052702UNIP6       010UNIPAR      PNB          R$  000000000510800000000051080000000005044000000000506900000000050800000000005080000000000508400500000000000000080000000000000405571900000000000000009999123100000010000000000000BRUNIPACNPB8206
012024052702USIM3       010USIMINAS    ON      N1   R$  000000000073100000000007380000000000720000000000072700000000007380000000000737000000000073800698000000000000282600000000000205631200000000000000009999123100000010000000000000BRUSIMACNOR3167
012024052702USIM5       010USIMINAS    PNA     N1   R$  000000000079100000000008030000000000785000000000079400000000008010000000000801000000000080206074000000000004542200000000003610477400000000000000009999123100000010000000000000BRUSIMACNPA6169
012024052702TFCO4       010TRACK FIELD PN      N2   R$  000000000117600000000011800000000001163000000000117200000000011690000000001169000000000117000646000000000000129600000000000151966900000000000000009999123100000010000000000000BRTFCOACNPR8113
012024052702TGMA3       010TEGMA       ON      NM   R$  000000000244900000000024850000000002434000000000246700000000024850000000002469000000000248500448000000000000071800000000000177144700000000000000009999123100000010000000000000BRTGMAACNOR7144
012024052702TIMS3       010TIM         ON      NM   R$  000000000164000000000016500000000001632000000000164100000000016500000000001647000000000165006209000000000002752300000000004517853300000000000000009999123100000010000000000000BRTIMSACNOR5116
012024052702LJQQ3       010QUERO-QUERO ON      NM   R$  000000000047100000000004770000000000464000000000047100000000004770000000000476000000000047803385000000000001647400000000000776515600000000000000009999123100000010000000000000BRLJQQACNOR5104
012024052702LOGG3       010LOG COM PROPON      NM   R$  000000000219800000000022290000000002186000000000220800000000022190000000002205000000000222000709000000000000112500000000000248440700000000000000009999123100000010000000000000BRLOGGACNOR7107
012024052702LOGN3       010LOG-IN      ON      NM   R$  000000000384000000000038520000000003755000000000379200000000037550000000003755000000000378400197000000000000027000000000000102387200000000000000009999123100000010000000000000BRLOGNACNOR3105
012024052702LPSB3       010LOPES BRASILON      NM   R$  000000000022700000000002350000000000226000000000023100000000002320000000000227000000000023500172000000000000089400000000000020690900000000000000009999123100000010000000000000BRLPSBACNOR0114
012024052702LREN3       010LOJAS RENNERON      NM   R$  000000000134100000000013490000000001314000000000133000000000013340000000001333000000000133413975000000000007445600000000009902791400000000000000009999123100000010000000000000BRLRENACNOR1220
012024052702QUAL3       010QUALICORP   ON      NM   R$  000000000016500000000001690000000000161000000000016400000000001680000000000167000000000016802310000000000002670400000000000440354800000000000000009999123100000010000000000000BRQUALACNOR6120
012024052702AERI3       010AERIS       ON      NM   R$  000000000089300000000009000000000000842000000000085900000000008430000000000843000000000084600570000000000000188300000000000161929500000000000000009999123100000010000000000000BRAERIACNOR4102
012024052702AESB3       010AES BRASIL  ON      NM   R$  000000000111200000000011200000000001111000000000111700000000011190000000001116000000000111903663000000000004898300000000005471793700000000000000009999123100000010000000000000BRAESBACNOR7106
012024052702AFLT3       010AFLUENTE T  ON           R$  000000000071700000000007170000000000717000000000071700000000007170000000000702000000000077400001000000000000000200000000000000143400000000000000009999123100000010000000000000BRAFLTACNOR1121
012024052702AGRO3       010BRASILAGRO  ON      NM   R$  000000000252900000000025420000000002510000000000252800000000025270000000002527000000000253600991000000000000137400000000000347484300000000000000009999123100000010000000000000BRAGROACNOR7114
012024052702AGXY3       010AGROGALAXY  ON      NM   R$  000000000013600000000001360000000000130000000000013100000000001300000000000129000000000013000466000000000000302100000000000039790700000000000000009999123100000010000000000000BRAGXYACNOR4103
012024052702PGMN3       010PAGUE MENOS ON      NM   R$  000000000024400000000002500000000000244000000000024500000000002500000000000249000000000025000673000000000000289800000000000071274400000000000000009999123100000010000000000000BRPGMNACNOR8103
012024052702PINE4       010PINE        PN      N2   R$  000000000044800000000004570000000000448000000000045100000000004510000000000450000000000045100142000000000000096000000000000043340400000000000000009999123100000010000000000000BRPINEACNPR8149
012024052702PLAS3       010PLASCAR PARTON           R$  000000000055000000000006240000000000550000000000057200000000005500000000000526000000000060300009000000000000001200000000000000687400000000000000009999123100000010000000000000BRPLASACNOR2106
012024052702PLPL3       010PLANOEPLANO ON      NM   R$  000000000095400000000009940000000000947000000000097300000000009910000000000985000000000099202802000000000000617900000000000601831100000000000000009999123100000010000000000000BRPLPLACNOR5104
012024052702PNVL3       010DIMED       ON      NM   R$  000000000104600000000010690000000001040000000000105800000000010690000000001056000000000106900690000000000000179700000000000190224100000000000000009999123100000010000000000000BRPNVLACNOR9206
012024052702POMO3       010MARCOPOLO   ON  EJ  N2   R$  000000000053600000000005500000000000531000000000054400000000005500000000000546000000000055100589000000000000192900000000000104955200000000000000009999123100000010000000000000BRPOMOACNOR0098
012024052702POMO4       010MARCOPOLO   PN  EJ  N2   R$  000000000069600000000007140000000000693000000000070600000000007110000000000711000000000071203875000000000002241200000000001583250100000000000000009999123100000010000000000000BRPOMOACNPR7098
012024052702NEOE3       010NEOENERGIA  ON      NM   R$  000000000196000000000019740000000001949000000000196000000000019540000000001953000000000196001647000000000000279000000000000546948200000000000000009999123100000010000000000000BRNEOEACNOR3122
012024052702NGRD3       010NEOGRID     ON      NM   R$  000000000009500000000000970000000000094000000000009500000000000960000000000095000000000009600592000000000000776200000000000073901800000000000000009999123100000010000000000000BRNGRDACNOR3104
012024052702NINJ3       010GETNINJAS   ON      NM   R$  000000000048200000000004890000000000471000000000047300000000004710000000000471000000000048100066000000000000037900000000000017964100000000000000009999123100000010000000000000BRNINJACNOR5101
012024052702PETZ3       010PETZ        ON      NM   R$  000000000038000000000003850000000000375000000000037800000000003800000000000380000000000038105368000000000007200100000000002728740500000000000000009999123100000010000000000000BRPETZACNOR2110
012024052702RSUL4       010RIOSULENSE  PN           R$  000000000696600000000070500000000006890000000000693200000000068990000000006303000000000719000031000000000000003600000000000024955500000000000000009999123100000010000000000000BRRSULACNPR3114
012024052702JSLG3       010JSL         ON      NM   R$  000000000101200000000010120000000000996000000000100200000000010000000000001000000000000100500631000000000000131200000000000131560100000000000000009999123100000010000000000000BRJSLGACNOR2121
012024052702KEPL3       010KEPLER WEBERON      NM   R$  000000000098100000000009860000000000976000000000098000000000009760000000000975000000000097801053000000000000237600000000000233008900000000000000009999123100000010000000000000BRKEPLACNOR1062
012024052702PORT3       010WILSON SONS ON      NM   R$  000000000159300000000015950000000001576000000000159000000000015850000000001585000000000159500728000000000000215700000000000342981400000000000000009999123100000010000000000000BRPORTACNOR8107
012024052702POSI3       010POSITIVO TECON      NM   R$  000000000092200000000009280000000000907000000000091900000000009280000000000921000000000092801765000000000000640100000000000588678900000000000000009999123100000010000000000000BRPOSIACNOR9116
012024052702BBDC3       010BRADESCO    ON      N1   R$  000000000116500000000011680000000001160000000000116300000000011650000000001164000000000116503845000000000002248900000000002617307700000000000000009999123100000010000000000000BRBBDCACNOR1769
012024052702BBDC4       010BRADESCO    PN      N1   R$  000000000129500000000013030000000001290000000000129500000000012930000000001292000000000129311339000000000011028300000000014291519100000000000000009999123100000010000000000000BRBBDCACNPR8769
012024052702CPFE3       010CPFL ENERGIAON      NM   R$  000000000350500000000035180000000003477000000000349000000000034840000000003480000000000348403879000000000000693900000000002421880900000000000000009999123100000010000000000000BRCPFEACNOR0137
012024052702CPLE3       010COPEL       ON      N2   R$  000000000083700000000008430000000000832000000000083500000000008330000000000833000000000083502594000000000002165300000000001810124100000000000000009999123100000010000000000000BRCPLEACNOR8149
012024052702CPLE6       010COPEL       PNB     N2   R$  000000000093000000000009410000000000928000000000093500000000009300000000000928000000000093210767000000000005124700000000004791734000000000000000009999123100000010000000000000BRCPLEACNPB9146
012024052702MOVI3       010MOVIDA      ON      NM   R$  000000000064500000000006500000000000634000000000064000000000006460000000000643000000000064702533000000000002178000000000001394229500000000000000009999123100000010000000000000BRMOVIACNOR0122
012024052702MRFG3       010MARFRIG     ON      NM   R$  000000000117100000000011740000000001152000000000116100000000011620000000001162000000000116405733000000000001828500000000002123709600000000000000009999123100000010000000000000BRMRFGACNOR0116
012024052702MRSA3B      010MRS LOGIST  ON      MB   R$  000000000270600000000027060000000002700000000000270200000000027000000000002716000000000000000003000000000000001000000000000002702400000000000000009999123100000010000000000000BRMRSAACNOR6125
012024052702MRVE3       010MRV         ON      NM   R$  000000000068800000000006940000000000680000000000068600000000006820000000000682000000000068305388000000000005664900000000003886385200000000000000009999123100000010000000000000BRMRVEACNOR2127
012024052702CRFB3       010CARREFOUR BRON      NM   R$  000000000101800000000010330000000001012000000000102300000000010330000000001030000000000103405100000000000001819400000000001862578500000000000000009999123100000010000000000000BRCRFBACNOR2116
012024052702CRPG5       010CRISTAL     PNA ED       R$  000000000304800000000030500000000003001000000000303900000000030010000000002973000000000301700018000000000000003800000000000011551800000000000000009999123100000010000000000000BRCRPGACNPA3119
012024052702CRPG6       010CRISTAL     PNB ED       R$  000000000295500000000029980000000002952000000000296800000000029980000000002971000000000304700003000000000000000300000000000000890500000000000000009999123100000010000000000000BRCRPGACNPB1119
012024052702CSAN3       010COSAN       ON      NM   R$  000000000140300000000014200000000001402000000000140700000000014070000000001406000000000140812972000000000004163500000000005861654600000000000000009999123100000010000000000000BRCSANACNOR6125
012024052702ROMI3       010ROMI        ON      NM   R$  000000000105700000000010590000000001049000000000105300000000010510000000001051000000000105800721000000000000119000000000000125390400000000000000009999123100000010000000000000BRROMIACNOR8194
012024052702RRRP3       0103R PETROLEUMON      NM   R$  000000000276100000000027910000000002730000000000276500000000027800000000002780000000000278206846000000000002396600000000006628802300000000000000009999123100000010000000000000BRRRRPACNOR5103
012024052702BAHI3       010BAHEMA      ON      MA   R$  000000000074300000000007430000000000714000000000072700000000007150000000000713000000000071500038000000000000012500000000000009094300000000000000009999123100000010000000000000BRBAHIACNOR1074
012024052702FRAS3       010FRAS-LE     ON      N1   R$  000000000177700000000017900000000001757000000000177700000000017900000000001778000000000179000480000000000000078500000000000139561600000000000000009999123100000010000000000000BRFRASACNOR0159
012024052702FRIO3       010METALFRIO   ON      NM   R$  000000003050000000000317000000000029000000000003112500000000317000000000015301000000003179800008000000000000000800000000000024900000000000000000009999123100000010000000000000BRFRIOACNOR2111
012024052702GFSA3       010GAFISA      ON      NM   R$  000000000048300000000004850000000000455000000000046300000000004550000000000455000000000045603053000000000002993900000000001389111700000000000000009999123100000010000000000000BRGFSAACNOR3124
012024052702GGBR3       010GERDAU      ON  ED  N1   R$  000000000164100000000016450000000001620000000000162900000000016330000000001630000000000163700265000000000000057500000000000093711900000000000000009999123100000010000000000000BRGGBRACNOR1192
012024052702GGBR4       010GERDAU      PN  ED  N1   R$  000000000186200000000018670000000001819000000000183800000000018510000000001850000000000185312943000000000008512000000000015645203400000000000000009999123100000010000000000000BRGGBRACNPR8192
012024052702JALL3       010JALLESMACHADON      NM   R$  000000000069000000000006920000000000680000000000068300000000006850000000000684000000000068800889000000000000331800000000000226928600000000000000009999123100000010000000000000BRJALLACNOR0105
012024052702JBSS3       010JBS         ON      NM   R$  000000000293500000000029350000000002863000000000288800000000028960000000002896000000000289707570000000000003326900000000009609664500000000000000009999123100000010000000000000BRJBSSACNOR8121
012024052702MTRE3       010MITRE REALTYON  ED  NM   R$  000000000039500000000003990000000000391000000000039400000000003980000000000396000000000039801300000000000000642500000000000253172700000000000000009999123100000010000000000000BRMTREACNOR6111
012024052702MTSA4       010METISA      PN           R$  000000000438700000000044000000000004352000000000438100000000043520000000004351000000000439500013000000000000001700000000000007449000000000000000009999123100000010000000000000BRMTSAACNPR9072
012024052702MULT3       010MULTIPLAN   ON      N2   R$  000000000227500000000022970000000002264000000000228500000000022970000000002290000000000229706500000000000001251300000000002859365800000000000000009999123100000010000000000000BRMULTACNOR5138
012024052702MWET4       010WETZEL S/A  PN           R$  000000000082000000000008200000000000778000000000081000000000008200000000000771000000000084500015000000000000003200000000000002592300000000000000009999123100000010000000000000BRMWETACNPR3118
012024052702MYPK3       010IOCHP-MAXIONON      NM   R$  000000000112100000000011300000000001111000000000112100000000011230000000001123000000000112902666000000000000734600000000000824130400000000000000009999123100000010000000000000BRMYPKACNOR7154
012024052702BAUH4       010EXCELSIOR   PN           R$  000000000779000000000077900000000007790000000000779000000000077900000000000000000000000788900001000000000000000100000000000000779000000000000000009999123100000010000000000000BRBAUHACNPR3118
012024052702BAZA3       010AMAZONIA    ON           R$  000000000980000000000098480000000009750000000000980500000000097610000000009671000000000981000013000000000000001800000000000017649300000000000000009999123100000010000000000000BRBAZAACNOR0179
012024052702BBAS3       010BRASIL      ON      NM   R$  000000000271400000000027470000000002708000000000272600000000027410000000002740000000000274226372000000000031296700000000085339848000000000000000009999123100000010000000000000BRBBASACNOR3322
012024052702BOBR4       010BOMBRIL     PN           R$  000000000021600000000002160000000000210000000000021100000000002110000000000211000000000021500017000000000000006100000000000001292900000000000000009999123100000010000000000000BRBOBRACNPR3128
012024052702CLSA3       010CLEARSALE   ON      NM   R$  000000000071000000000007300000000000661000000000068800000000006700000000000669000000000067005446000000000003306200000000002275163800000000000000009999123100000010000000000000BRCLSAACNOR0100
012024052702CLSC3       010CELESC      ON      N2   R$  000000000665000000000067000000000006650000000000667500000000067000000000006630000000000675000003000000000000000400000000000002670000000000000000009999123100000010000000000000BRCLSCACNOR6151
012024052702CLSC4       010CELESC      PN      N2   R$  000000000736000000000073950000000007265000000000729900000000072650000000007260000000000736900018000000000000004700000000000034308700000000000000009999123100000010000000000000BRCLSCACNPR3130
012024052702CMIG3       010CEMIG       ON      N1   R$  000000000128000000000012920000000001272000000000127900000000012890000000001289000000000129401134000000000000352200000000000450729000000000000000009999123100000010000000000000BRCMIGACNOR6241
012024052702CMIG4       010CEMIG       PN      N1   R$  000000000103900000000010410000000001026000000000103300000000010390000000001038000000000103906983000000000004245400000000004388303800000000000000009999123100000010000000000000BRCMIGACNPR3242
012024052702CMIN3       010CSNMINERACAOON      N2   R$  000000000052800000000005340000000000522000000000052800000000005340000000000531000000000053403175000000000002937500000000001552045400000000000000009999123100000010000000000000BRCMINACNOR2111
012024052702COCE3       010COELCE      ON           R$  000000000352500000000035250000000003525000000000352500000000035250000000003521000000000430000001000000000000000100000000000000352500000000000000009999123100000010000000000000BRCOCEACNOR0146
012024052702ENAT3       010ENAUTA PART ON      NM   R$  000000000219000000000022160000000002169000000000219600000000022140000000002212000000000222003345000000000000979000000000002150609100000000000000009999123100000010000000000000BRENATACNOR0104
012024052702ENEV3       010ENEVA       ON      NM   R$  000000000128000000000012940000000001275000000000127900000000012770000000001277000000000128008602000000000004357200000000005573350800000000000000009999123100000010000000000000BRENEVACNOR8105
012024052702ENGI11      010ENERGISA    UNT     N2   R$  000000000466000000000047250000000004657000000000470400000000046770000000004677000000000470608151000000000002382900000000011210627600000000000000009999123100000010000000000000BRENGICDAM16135
012024052702PFRM3       010PROFARMA    ON      NM   R$  000000000054800000000005520000000000534000000000054100000000005380000000000538000000000054100756000000000000316600000000000171436500000000000000009999123100000010000000000000BRPFRMACNOR1116
012024052702PCAR3       010P.ACUCAR-CBDON      NM   R$  000000000030500000000003150000000000301000000000030900000000003100000000000310000000000031305294000000000006453000000000001995189300000000000000009999123100000010000000000000BRPCARACNOR3167
012024052702PDGR3       010PDG REALT   ON      NM   R$  000000000002600000000000270000000000024000000000002500000000000250000000000024000000000002500389000000000002671800000000000067894400000000000000009999123100000010000000000000BRPDGRACNOR8118
012024052702PDTC3       010PADTEC      ON      NM   R$  000000000019900000000001990000000000186000000000019200000000001890000000000187000000000019000190000000000000086900000000000016766800000000000000009999123100000010000000000000BRPDTCACNOR3101
012024052702PEAB4       010PAR AL BAHIAPN           R$  000000000433800000000043380000000004338000000000433800000000043380000000004031000000000459900003000000000000000300000000000001301400000000000000009999123100000010000000000000BRPEABACNPR0133
012024052702PETR3       010PETROBRAS   ON      N2   R$  000000000384100000000038770000000003839000000000386300000000038700000000003865000000000387207747000000000003062300000000011832674000000000000000009999123100000010000000000000BRPETRACNOR9204
012024052702PETR4       010PETROBRAS   PN      N2   R$  000000000367200000000037080000000003669000000000369300000000037010000000003700000000000370126995000000000013623300000000050313612900000000000000009999123100000010000000000000BRPETRACNPR6212
012024052702PRIO3       010PETRORIO    ON      NM   R$  000000000436400000000043940000000004351000000000437100000000043670000000004365000000000436713078000000000004407900000000019267779300000000000000009999123100000010000000000000BRPRIOACNOR1106
012024052702AALR3       010ALLIAR      ON      NM   R$  000000000102000000000010480000000000985000000000100800000000009940000000000992000000000099400278000000000000054100000000000054537400000000000000009999123100000010000000000000BRAALRACNOR6102
012024052702ABCB4       010ABC BRASIL  PN      N2   R$  000000000218500000000022100000000002159000000000218900000000022100000000002210000000000221201334000000000000334100000000000731429900000000000000009999123100000010000000000000BRABCBACNPR4145
012024052702ABEV3       010AMBEV S/A   ON           R$  000000000119300000000011950000000001179000000000118300000000011810000000001180000000000118212268000000000016530500000000019570086700000000000000009999123100000010000000000000BRABEVACNOR1127
012024052702CSED3       010CRUZEIRO EDUON      NM   R$  000000000044300000000004430000000000423000000000043100000000004340000000000433000000000043400888000000000000465000000000000200730500000000000000009999123100000010000000000000BRCSEDACNOR9104
012024052702CSMG3       010COPASA      ON      NM   R$  000000000205000000000020670000000002031000000000204800000000020610000000002058000000000206103932000000000000712000000000001458509000000000000000009999123100000010000000000000BRCSMGACNOR5173
012024052702CSNA3       010SID NACIONALON           R$  000000000134100000000013410000000001316000000000132600000000013360000000001336000000000133705627000000000003570700000000004736972200000000000000009999123100000010000000000000BRCSNAACNOR6261
012024052702GGPS3       010GPS         ON      NM   R$  000000000187100000000018750000000001857000000000186300000000018670000000001864000000000187003626000000000001013300000000001888737400000000000000009999123100000010000000000000BRGGPSACNOR9103
012024052702GRND3       010GRENDENE    ON  ED  NM   R$  000000000061600000000006190000000000613000000000061500000000006150000000000614000000000061801002000000000000565900000000000348241900000000000000009999123100000010000000000000BRGRNDACNOR3174
012024052702GUAR3       010GUARARAPES  ON  ED  NM   R$  000000000075200000000007800000000000741000000000076500000000007780000000000776000000000077902357000000000001461600000000001118693800000000000000009999123100000010000000000000BRGUARACNOR4173
012024052702B3SA3       010B3          ON      NM   R$  000000000111500000000011240000000001102000000000111200000000011100000000001109000000000111018113000000000014463100000000016096488200000000000000009999123100000010000000000000BRB3SAACNOR6132
012024052702HAGA3       010HAGA S/A    ON           R$  000000000025800000000002580000000000257000000000025700000000002570000000000249000000000025700002000000000000000200000000000000051500000000000000009999123100000010000000000000BRHAGAACNOR7103
012024052702HAGA4       010HAGA S/A    PN           R$  000000000013200000000001330000000000123000000000012700000000001290000000000126000000000012900019000000000000006600000000000000844000000000000000009999123100000010000000000000BRHAGAACNPR4103
012024052702HAPV3       010HAPVIDA     ON      NM   R$  000000000042700000000004300000000000420000000000042600000000004270000000000427000000000042812880000000000025370200000000010813604800000000000000009999123100000010000000000000BRHAPVACNOR4114
012024052702ARZZ3       010AREZZO CO   ON      NM   R$  000000000512200000000051870000000005064000000000511300000000050970000000005097000000000510004999000000000001027800000000005255155300000000000000009999123100000010000000000000BRARZZACNOR3146
012024052702ASAI3       010ASSAI       ON      NM   R$  000000000129800000000013180000000001294000000000130000000000012960000000001296000000000130009174000000000003827400000000004976698800000000000000009999123100000010000000000000BRASAIACNOR0106
012024052702BEEF3       010MINERVA     ON      NM   R$  000000000065800000000006600000000000642000000000064900000000006480000000000647000000000064804682000000000003730800000000002424460500000000000000009999123100000010000000000000BRBEEFACNOR6116
012024052702BRAP3       010BRADESPAR   ON      N1   R$  000000000193700000000019370000000001911000000000192800000000019350000000001935000000000193800174000000000000037200000000000071753800000000000000009999123100000010000000000000BRBRAPACNOR5148
012024052702BRAP4       010BRADESPAR   PN      N1   R$  000000000200300000000020160000000001995000000000200500000000020140000000002010000000000201404281000000000001629200000000003267570300000000000000009999123100000010000000000000BRBRAPACNPR2148
012024052702BRBI11      010BR PARTNERS UNT     N2   R$  000000000147500000000014750000000001429000000000144600000000014290000000001429000000000144800777000000000000182200000000000263488000000000000000009999123100000010000000000000BRBRBICDAM10109
012024052702BRFS3       010BRF SA      ON      NM   R$  000000000190500000000019450000000001903000000000193400000000019330000000001932000000000194110898000000000004458700000000008624153200000000000000009999123100000010000000000000BRBRFSACNOR8122
012024052702DASA3       010DASA        ON      NM   R$  000000000042600000000004430000000000413000000000042900000000004300000000000428000000000043002780000000000001172900000000000503544600000000000000009999123100000010000000000000BRDASAACNOR1122
012024052702DESK3       010DESKTOP     ON      NM   R$  000000000158500000000016310000000001529000000000159200000000016220000000001621000000000162601299000000000000396100000000000630769100000000000000009999123100000010000000000000BRDESKACNOR2104
012024052702DEXP3       010DEXXOS PAR  ON      N1   R$  000000000110000000000011000000000001058000000000107300000000010580000000001058000000000106600244000000000000075900000000000081486600000000000000009999123100000010000000000000BRDEXPACNOR1105
012024052702DEXP4       010DEXXOS PAR  PN      N1   R$  000000000109900000000010990000000001099000000000109900000000010990000000001075000000000108200001000000000000000100000000000000109900000000000000009999123100000010000000000000BRDEXPACNPR8105
012024052702DIRR3       010DIRECIONAL  ON      NM   R$  000000000251500000000025150000000002468000000000249100000000024940000000002491000000000249503865000000000000941700000000002346278000000000000000009999123100000010000000000000BRDIRRACNOR0117
012024052702DMVF3       010D1000VFARMA ON      NM   R$  000000000076200000000007730000000000727000000000074900000000007270000000000725000000000072700357000000000000054000000000000040472900000000000000009999123100000010000000000000BRDMVFACNOR9100
012024052702DOHL4       010DOHLER      PN           R$  000000000044000000000004400000000000425000000000042700000000004360000000000425000000000043600012000000000000002900000000000001240900000000000000009999123100000010000000000000BRDOHLACNPR9066
012024052702DOTZ3       010DOTZ SA     ON      NM   R$  000000000085000000000008660000000000838000000000084600000000008440000000000835000000000086700031000000000000009000000000000007621500000000000000009999123100000010000000000000BRDOTZACNOR7101
012024052702SANB11      010SANTANDER BRUNT          R$  000000000279500000000027950000000002762000000000277300000000027630000000002763000000000276607242000000000002754400000000007639550000000000000000009999123100000010000000000000BRSANBCDAM13164
012024052702SANB3       010SANTANDER BRON           R$  000000000131100000000013200000000001302000000000130800000000013020000000001302000000000130500338000000000000070900000000000092777100000000000000009999123100000010000000000000BRSANBACNOR8171
012024052702SANB4       010SANTANDER BRPN           R$  000000000147800000000014780000000001460000000000146600000000014620000000001462000000000146400292000000000000052700000000000077259400000000000000009999123100000010000000000000BRSANBACNPR5171
012024052702SAPR11      010SANEPAR     UNT     N2   R$  000000000281000000000028210000000002792000000000280600000000028130000000002810000000000281401181000000000000302300000000000848395500000000000000009999123100000010000000000000BRSAPRCDAM13117
012024052702SAPR3       010SANEPAR     ON      N2   R$  000000000053300000000005350000000000527000000000053000000000005320000000000530000000000053200338000000000000111800000000000059314000000000000000009999123100000010000000000000BRSAPRACNOR9158
012024052702SAPR4       010SANEPAR     PN      N2   R$  000000000056700000000005730000000000564000000000056700000000005700000000000568000000000057001320000000000000619900000000000351795200000000000000009999123100000010000000000000BRSAPRACNPR6158
012024052702COCE5       010COELCE      PNA          R$  000000000336300000000033750000000003181000000000323600000000032700000000003197000000000327100178000000000000025000000000000080920800000000000000009999123100000010000000000000BRCOCEACNPA3147
012024052702COGN3       010COGNA ON    ON      NM   R$  000000000019700000000001980000000000193000000000019400000000001940000000000194000000000019509879000000000018962700000000003691722000000000000000009999123100000010000000000000BRCOGNACNOR2104
012024052702DXCO3       010DEXCO       ON      NM   R$  000000000075900000000007600000000000747000000000075100000000007490000000000749000000000075202437000000000000965000000000000725158300000000000000009999123100000010000000000000BRDXCOACNOR8105
012024052702EALT3       010ACO ALTONA  ON           R$  000000000112000000000011200000000001086000000000110000000000010860000000001025000000000115000007000000000000000800000000000000880400000000000000009999123100000010000000000000BREALTACNOR4138
012024052702EALT4       010ACO ALTONA  PN           R$  000000000116300000000011640000000001120000000000113600000000011370000000001131000000000113800051000000000000018000000000000020451600000000000000009999123100000010000000000000BREALTACNPR1138
012024052702ECOR3       010ECORODOVIAS ON      NM   R$  000000000070900000000007180000000000704000000000071200000000007160000000000714000000000071602928000000000001735600000000001235821500000000000000009999123100000010000000000000BRECORACNOR8120
012024052702HBOR3       010HELBOR      ON      NM   R$  000000000024300000000002440000000000238000000000024000000000002440000000000242000000000024400554000000000000287000000000000069109100000000000000009999123100000010000000000000BRHBORACNOR3118
012024052702HBRE3       010HBR REALTY  ON      NM   R$  000000000048200000000004900000000000474000000000048000000000004900000000000486000000000049000408000000000000159100000000000076421700000000000000009999123100000010000000000000BRHBREACNOR4100
012024052702HBSA3       010HIDROVIAS   ON      NM   R$  000000000040100000000004040000000000397000000000039900000000004020000000000401000000000040402071000000000002938400000000001173943000000000000000009999123100000010000000000000BRHBSAACNOR0100
012024052702HBTS5       010HABITASUL   PNA          R$  000000000405100000000040510000000004051000000000405100000000040510000000003927000000000448000001000000000000000100000000000000405100000000000000009999123100000010000000000000BRHBTSACNPA3128
012024052702HETA4       010HERCULES    PN           R$  000000000056900000000005690000000000561000000000056700000000005610000000000530000000000057400002000000000000000400000000000000226800000000000000009999123100000010000000000000BRHETAACNPR9136
012024052702HYPE3       010HYPERA      ON  EJ  NM   R$  000000000297000000000030020000000002958000000000298600000000029950000000002976000000000299503032000000000001169700000000003493370400000000000000009999123100000010000000000000BRHYPEACNOR0141
012024052702LUPA3       010LUPATECH    ON      NM   R$  000000000016700000000001680000000000163000000000016500000000001650000000000163000000000016500379000000000000197200000000000032583500000000000000009999123100000010000000000000BRLUPAACNOR8112
012024052702LUXM4       010TREVISA     PN           R$  000000000145400000000014540000000001454000000000145400000000014540000000001301000000000145500001000000000000000100000000000000145400000000000000009999123100000010000000000000BRLUXMACNPR4052
012024052702LVTC3       010WDC NETWORKSON      NM   R$  000000000039100000000003960000000000377000000000038400000000003850000000000380000000000038500197000000000000042600000000000016393700000000000000009999123100000010000000000000BRLVTCACNOR4102
012024052702LWSA3       010LWSA        ON      NM   R$  000000000041400000000004300000000000412000000000041800000000004200000000000420000000000042104287000000000005352600000000002238641400000000000000009999123100000010000000000000BRLWSAACNOR8103
012024052702PRNR3       010PRINER      ON      NM   R$  000000000115900000000011680000000001150000000000115800000000011580000000001158000000000116200957000000000000402700000000000466335600000000000000009999123100000010000000000000BRPRNRACNOR4109
012024052702GMAT3       010GRUPO MATEUSON      NM   R$  000000000074900000000007630000000000741000000000075500000000007560000000000756000000000075802752000000000002002100000000001511792500000000000000009999123100000010000000000000BRGMATACNOR7101
012024052702GOAU3       010GERDAU MET  ON  ED  N1   R$  000000000109600000000010960000000001077000000000108600000000010950000000001087000000000109500193000000000000044200000000000048038200000000000000009999123100000010000000000000BRGOAUACNOR1267
012024052702GOAU4       010GERDAU MET  PN  ED  N1   R$  000000000109000000000010940000000001068000000000107600000000010880000000001087000000000108809787000000000007776800000000008370181500000000000000009999123100000010000000000000BRGOAUACNPR8268
012024052702JHSF3       010JHSF PART   ON      NM   R$  000000000040800000000004120000000000406000000000040800000000004090000000000409000000000041002912000000000001541300000000000629869700000000000000009999123100000010000000000000BRJHSFACNOR2135
012024052702JOPA3       010JOSAPAR     ON           R$  000000000210000000000021000000000002100000000000210000000000021000000000002100000000000227000003000000000000000500000000000001050000000000000000009999123100000010000000000000BRJOPAACNOR5135
012024052702ATOM3       010ATOMPAR     ON           R$  000000000021500000000002150000000000210000000000021000000000002100000000000210000000000021300016000000000000003200000000000000674700000000000000009999123100000010000000000000BRATOMACNOR1106
012024052702AURE3       010AUREN       ON      NM   R$  000000000121500000000012310000000001213000000000122200000000012260000000001225000000000122606043000000000002881900000000003522962200000000000000009999123100000010000000000000BRAUREACNOR9104
012024052702AVLL3       010ALPHAVILLE  ON      NM   R$  000000000035900000000003590000000000359000000000035900000000003590000000000330000000000034900002000000000000000600000000000000215400000000000000009999123100000010000000000000BRAVLLACNOR5103
012024052702AZEV3       010AZEVEDO     ON           R$  000000000013500000000001350000000000126000000000012800000000001260000000000126000000000012800539000000000000487700000000000062847300000000000000009999123100000010000000000000BRAZEVACNOR0121
012024052702AZEV4       010AZEVEDO     PN           R$  000000000012500000000001270000000000119000000000012100000000001190000000000119000000000012001030000000000002681400000000000326721000000000000000009999123100000010000000000000BRAZEVACNPR7121
012024052702AZUL4       010AZUL        PN      N2   R$  000000000104300000000010650000000000999000000000102100000000010120000000001012000000000101308297000000000007892500000000008059375400000000000000009999123100000010000000000000BRAZULACNPR4102
012024052702BEES3       010BANESTES    ON           R$  000000000090600000000009060000000000900000000000090200000000009030000000000900000000000090100048000000000000007800000000000007040200000000000000009999123100000010000000000000BRBEESACNOR9390
012024052702BEES4       010BANESTES    PN           R$  000000000097500000000009750000000000963000000000096600000000009700000000000963000000000097200016000000000000003600000000000003478500000000000000009999123100000010000000000000BRBEESACNPR6315
012024052702BGIP3       010BANESE      ON           R$  000000000240000000000024000000000002400000000000240000000000024000000000002293000000000236100001000000000000000100000000000000240000000000000000009999123100000010000000000000BRBGIPACNOR1208
012024052702BGIP4       010BANESE      PN           R$  000000000228900000000022890000000002289000000000228900000000022890000000002213000000000228900001000000000000000100000000000000228900000000000000009999123100000010000000000000BRBGIPACNPR8208
012024052702BRIT3       010BRISANET    ON      NM   R$  000000000040000000000004030000000000395000000000039700000000003950000000000394000000000039500635000000000000303300000000000120511800000000000000009999123100000010000000000000BRBRITACNOR0103
012024052702BRKM3       010BRASKEM     ON      N1   R$  000000000190400000000019250000000001904000000000191700000000019200000000001906000000000192000006000000000000000700000000000001341900000000000000009999123100000010000000000000BRBRKMACNOR1119
012024052702BRKM5       010BRASKEM     PNA     N1   R$  000000000192300000000019570000000001909000000000192300000000019150000000001915000000000191802390000000000000788100000000001516134000000000000000009999123100000010000000000000BRBRKMACNPA4121
012024052702BRSR3       010BANRISUL    ON      N1   R$  000000000120000000000012000000000001161000000000117000000000011610000000001161000000000116700041000000000000007300000000000008545000000000000000009999123100000010000000000000BRBRSRACNOR3187
012024052702BRSR6       010BANRISUL    PNB     N1   R$  000000000111600000000011330000000001116000000000112600000000011290000000001124000000000113002032000000000000771200000000000868900600000000000000009999123100000010000000000000BRBRSRACNPB4190
012024052702BSLI3       010BRB BANCO   ON  EX       R$  000000000102500000000010250000000001000000000000100200000000010000000000000990000000000108700011000000000000003900000000000003910100000000000000009999123100000010000000000000BRBSLIACNOR5194
012024052702BSLI4       010BRB BANCO   PN  EX       R$  000000000115900000000011590000000001001000000000103500000000010010000000001001000000000109900011000000000000001300000000000001346400000000000000009999123100000010000000000000BRBSLIACNPR2194
012024052702EGIE3       010ENGIE BRASILON      NM   R$  000000000439600000000044500000000004392000000000442300000000043980000000004397000000000440004629000000000000845300000000003739572900000000000000009999123100000010000000000000BREGIEACNOR9126
012024052702EKTR4       010ELEKTRO     PN           R$  000000000395500000000039550000000003955000000000395500000000039550000000003930000000000395500002000000000000000300000000000001186500000000000000009999123100000010000000000000BREKTRACNPR7162
012024052702ELET3       010ELETROBRAS  ON      N1   R$  000000000362200000000036440000000003606000000000362400000000036200000000003620000000000362107047000000000002205100000000007991677200000000000000009999123100000010000000000000BRELETACNOR6160
012024052702ELET6       010ELETROBRAS  PNB     N1   R$  000000000404700000000040680000000004019000000000403800000000040350000000004034000000000403503086000000000000687500000000002776149200000000000000009999123100000010000000000000BRELETACNPB7077
012024052702IFCM3       010INFRACOMM   ON      NM   R$  000000000005100000000000520000000000050000000000005100000000000520000000000051000000000005202540000000000004429800000000000226080000000000000000009999123100000010000000000000BRIFCMACNOR8101
012024052702IGTI11      010IGUATEMI S.AUNT     N1   R$  000000000204900000000020560000000002027000000000204400000000020460000000002045000000000206005393000000000000871400000000001781665000000000000000009999123100000010000000000000BRIGTICDAM16106
012024052702IGTI3       010IGUATEMI S.AON      N1   R$  000000000029000000000002930000000000287000000000028900000000002920000000000289000000000029100119000000000000063600000000000018427400000000000000009999123100000010000000000000BRIGTIACNOR8106
012024052702INEP3       010INEPAR      ON           R$  000000000020100000000002010000000000192000000000019500000000001970000000000196000000000019700139000000000000076000000000000014873900000000000000009999123100000010000000000000BRINEPACNOR1143
012024052702INEP4       010INEPAR      PN           R$  000000000019200000000001950000000000184000000000018900000000001920000000000186000000000019200053000000000000065300000000000012383600000000000000009999123100000010000000000000BRINEPACNPR8143
012024052702INTB3       010INTELBRAS   ON      NM   R$  000000000235700000000023740000000002305000000000232600000000023250000000002320000000000232502100000000000000448000000000001042183800000000000000009999123100000010000000000000BRINTBACNOR9111
012024052702MATD3       010MATER DEI   ON      NM   R$  000000000055400000000005540000000000526000000000053200000000005270000000000527000000000053501992000000000001047100000000000557677700000000000000009999123100000010000000000000BRMATDACNOR4104
012024052702MBLY3       010MOBLY       ON      NM   R$  000000000020600000000002070000000000202000000000020400000000002040000000000204000000000020600206000000000000184700000000000037734000000000000000009999123100000010000000000000BRMBLYACNOR5100
012024052702MDIA3       010M.DIASBRANCOON      NM   R$  000000000334500000000033520000000003280000000000331800000000033300000000003330000000000334802214000000000000441800000000001466193800000000000000009999123100000010000000000000BRMDIAACNOR7134
012024052702MDNE3       010MOURA DUBEUXON      NM   R$  000000000118000000000011910000000001163000000000117500000000011710000000001171000000000117901121000000000000270500000000000317979000000000000000009999123100000010000000000000BRMDNEACNOR9100
012024052702MEAL3       010IMC S/A     ON      NM   R$  000000000013900000000001430000000000134000000000013800000000001370000000000136000000000013700998000000000001366300000000000189359800000000000000009999123100000010000000000000BRMEALACNOR9105
012024052702MELK3       010MELNICK     ON      NM   R$  000000000038800000000003940000000000381000000000038600000000003870000000000387000000000039000354000000000000412100000000000159080000000000000000009999123100000010000000000000BRMELKACNOR8111
012024052702MGLU3       010MAGAZ LUIZA ON  EG  NM   R$  000000000128300000000013190000000001233000000000127400000000013150000000001313000000000131536759000000000027976500000000035662659200000000000000009999123100000010000000000000BRMGLUACNOR2124
012024052702RADL3       010RAIADROGASILON      NM   R$  000000000261500000000026250000000002576000000000259100000000025920000000002591000000000259408986000000000002607500000000006756374700000000000000009999123100000010000000000000BRRADLACNOR0156
012024052702RAIL3       010RUMO S.A.   ON      NM   R$  000000000202100000000020380000000002014000000000202700000000020310000000002027000000000203105034000000000002079100000000004215822400000000000000009999123100000010000000000000BRRAILACNOR9105
012024052702RAIZ4       010RAIZEN      PN      N2   R$  000000000028400000000002940000000000284000000000029000000000002900000000000290000000000029113498000000000011417300000000003317096000000000000000009999123100000010000000000000BRRAIZACNPR6110
012024052702ALPK3       010ESTAPAR     ON      NM   R$  000000000036700000000003680000000000362000000000036400000000003640000000000363000000000036500130000000000000041300000000000015049400000000000000009999123100000010000000000000BRALPKACNOR9101
012024052702ALUP11      010ALUPAR      UNT ED  N2   R$  000000000293200000000029510000000002914000000000293700000000029500000000002940000000000295301915000000000000424300000000001246431400000000000000009999123100000010000000000000BRALUPCDAM15119
012024052702ALUP3       010ALUPAR      ON  ED  N2   R$  000000000099600000000009980000000000988000000000099200000000009900000000000986000000000099800032000000000000003300000000000003273800000000000000009999123100000010000000000000BRALUPACNOR8119
012024052702ALUP4       010ALUPAR      PN  ED  N2   R$  000000000097600000000009830000000000967000000000097200000000009830000000000972000000000098600040000000000000004700000000000004572000000000000000009999123100000010000000000000BRALUPACNPR5119
012024052702AMAR3       010LOJAS MARISAON      NM   R$  000000000017700000000001810000000000175000000000017700000000001810000000000178000000000018200605000000000000233400000000000041544700000000000000009999123100000010000000000000BRAMARACNOR4114
012024052702AMBP3       010AMBIPAR     ON      NM   R$  000000000085600000000008730000000000852000000000086400000000008730000000000867000000000087302600000000000000968500000000000837460200000000000000009999123100000010000000000000BRAMBPACNOR6103
012024052702ANIM3       010ANIMA       ON      NM   R$  000000000038300000000003890000000000372000000000038100000000003850000000000384000000000038603053000000000004200800000000001602126400000000000000009999123100000010000000000000BRANIMACNOR6107
012024052702APER3       010ALPER S.A.  ON           R$  000000000453200000000045320000000004532000000000453200000000045320000000004528000000000455600001000000000000000100000000000000453200000000000000009999123100000010000000000000BRAPERACNOR9106
012024052702ARML3       010ARMAC       ON      NM   R$  000000000105600000000010610000000001041000000000105500000000010610000000001052000000000106101577000000000000393600000000000415604800000000000000009999123100000010000000000000BRARMLACNOR1111
012024052702TOTS3       010TOTVS       ON      NM   R$  000000000290800000000029200000000002881000000000289600000000028820000000002881000000000290206536000000000001486900000000004306382500000000000000009999123100000010000000000000BRTOTSACNOR8144
012024052702TPIS3       010TRIUNFO PARTON      NM   R$  000000000042000000000004430000000000412000000000043400000000004410000000000438000000000044301086000000000000166700000000000072394000000000000000009999123100000010000000000000BRTPISACNOR8118
012024052702TRAD3       010TC          ON      NM   R$  000000000007100000000000720000000000070000000000007000000000000720000000000070000000000007200184000000000000271900000000000019178100000000000000009999123100000010000000000000BRTRADACNOR3101
012024052702TRIS3       010TRISUL      ON      NM   R$  000000000046800000000004750000000000454000000000046500000000004680000000000468000000000047101336000000000000591200000000000274976300000000000000009999123100000010000000000000BRTRISACNOR4118
012024052702TRPL3       010TRAN PAULISTON      N1   R$  000000000359400000000035940000000003541000000000354900000000035410000000003541000000000355000007000000000000000700000000000002484900000000000000009999123100000010000000000000BRTRPLACNOR4185
012024052702TRPL4       010TRAN PAULISTPN      N1   R$  000000000270000000000027190000000002657000000000268000000000026570000000002656000000000266409332000000000001707000000000004575960400000000000000009999123100000010000000000000BRTRPLACNPR1185
012024052702TTEN3       0103TENTOS     ON      NM   R$  000000000099500000000010000000000000970000000000098300000000009970000000000996000000000099703989000000000000809200000000000795727300000000000000009999123100000010000000000000BRTTENACNOR0103
012024052702TUPY3       010TUPY        ON      NM   R$  000000000234900000000023490000000002328000000000233600000000023340000000002333000000000233901167000000000000190600000000000445367100000000000000009999123100000010000000000000BRTUPYACNOR1183
012024052702WIZC3       010WIZ CO      ON      NM   R$  000000000061400000000006250000000000610000000000061900000000006200000000000619000000000062201072000000000000255800000000000158457700000000000000009999123100000010000000000000BRWIZCACNOR5102
012024052702WLMM4       010WLM IND COM PN           R$  000000000307300000000030730000000003073000000000307300000000030730000000002936000000000307300001000000000000000100000000000000307300000000000000009999123100000010000000000000BRWLMMACNPR3118
012024052702YDUQ3       010YDUQS PART  ON      NM   R$  000000000137600000000013980000000001298000000000133200000000013090000000001308000000000131006292000000000003453600000000004601338500000000000000009999123100000010000000000000BRYDUQACNOR3105
012024052702ENGI3       010ENERGISA    ON      N2   R$  000000000148500000000015260000000001485000000000151000000000015240000000001470000000000152500038000000000000004300000000000006495600000000000000009999123100000010000000000000BRENGIACNOR0145
012024052702ENGI4       010ENERGISA    PN      N2   R$  000000000079500000000007990000000000785000000000079200000000007910000000000791000000000079800045000000000000007700000000000006105500000000000000009999123100000010000000000000BRENGIACNPR7141
012024052702ENJU3       010ENJOEI      ON      NM   R$  000000000026900000000002760000000000265000000000027100000000002740000000000273000000000027400507000000000000478200000000000129619200000000000000009999123100000010000000000000BRENJUACNOR9100
012024052702EPAR3       010EMBPAR S/A  ON           R$  000000000066600000000006660000000000658000000000066100000000006620000000000662000000000067700015000000000000003000000000000001983700000000000000009999123100000010000000000000BREPARACNOR9105
012024052702EQPA3       010EQTL PARA   ON           R$  000000000068200000000007650000000000679000000000071400000000007650000000000682000000000077000046000000000000007900000000000005640700000000000000009999123100000010000000000000BREQPAACNOR1111
012024052702EQTL3       010EQUATORIAL  ON      NM   R$  000000000301600000000030550000000003014000000000303800000000030430000000003043000000000304710841000000000005240900000000015922662900000000000000009999123100000010000000000000BREQTLACNOR0130
012024052702ITSA4       010ITAUSA      PN      N1   R$  000000000099700000000010020000000000994000000000099600000000009970000000000997000000000099808745000000000015850800000000015801134200000000000000009999123100000010000000000000BRITSAACNPR7439
012024052702ITUB3       010ITAUUNIBANCOON      N1   R$  000000000274900000000027490000000002724000000000273700000000027420000000002742000000000274701084000000000000264500000000000724064300000000000000009999123100000010000000000000BRITUBACNOR4335
012024052702ITUB4       010ITAUUNIBANCOPN      N1   R$  000000000318500000000031870000000003160000000000317000000000031740000000003173000000000317415602000000000012040200000000038170274900000000000000009999123100000010000000000000BRITUBACNPR1335
012024052702MILS3       010MILLS       ON      NM   R$  000000000123200000000012430000000001227000000000123700000000012370000000001237000000000123802094000000000000869900000000001076225000000000000000009999123100000010000000000000BRMILSACNOR2126
012024052702CEBR3       010CEB         ON           R$  000000000234800000000024400000000002348000000000242200000000024390000000002427000000000243900050000000000000008900000000000021563100000000000000009999123100000010000000000000BRCEBRACNOR5125
012024052702CEBR5       010CEB         PNA          R$  000000000204000000000020400000000002005000000000201100000000020180000000002006000000000202900010000000000000003600000000000007241600000000000000009999123100000010000000000000BRCEBRACNPA8124
012024052702CEBR6       010CEB         PNB          R$  000000000209600000000020960000000002068000000000207700000000020890000000002068000000000208900017000000000000002500000000000005194800000000000000009999123100000010000000000000BRCEBRACNPB6124
012024052702CEDO3       010CEDRO       ON      N1   R$  000000000290000000000029000000000002900000000000290000000000029000000000002800000000000319900001000000000000000100000000000000290000000000000000009999123100000010000000000000BRCEDOACNOR8096
012024052702CEDO4       010CEDRO       PN      N1   R$  000000000269800000000027990000000002698000000000275700000000027990000000002615000000000280000004000000000000000500000000000001378800000000000000009999123100000010000000000000BRCEDOACNPR5128
012024052702CEEB3       010COELBA      ON           R$  000000000395100000000039510000000003951000000000395100000000039510000000003921000000000400000001000000000000000100000000000000395100000000000000009999123100000010000000000000BRCEEBACNOR3198
012024052702CGAS5       010COMGAS      PNA          R$  000000001122500000000119190000000011225000000001169000000000118900000000011300000000001219900016000000000000002200000000000025718300000000000000009999123100000010000000000000BRCGASACNPA3160
012024052702CGRA3       010GRAZZIOTIN  ON           R$  000000000246600000000024660000000002450000000000245900000000024500000000002450000000000246000013000000000000003500000000000008608500000000000000009999123100000010000000000000BRCGRAACNOR2082
012024052702CGRA4       010GRAZZIOTIN  PN           R$  000000000256800000000025680000000002542000000000255200000000025420000000002523000000000254900009000000000000001100000000000002807200000000000000009999123100000010000000000000BRCGRAACNPR9082
012024052702CIEL3       010CIELO       ON      NM   R$  000000000055700000000005580000000000556000000000055700000000005560000000000556000000000055704272000000000008589400000000004784456400000000000000009999123100000010000000000000BRCIELACNOR3157
012024052702ELMD3       010ELETROMIDIA ON      NM   R$  000000000187900000000019220000000001827000000000184700000000018800000000001880000000000188900319000000000000038700000000000071485500000000000000009999123100000010000000000000BRELMDACNOR3101
012024052702EMAE4       010EMAE        PN           R$  000000000495200000000049990000000004945000000000497700000000049950000000004851000000000499500007000000000000001200000000000005972700000000000000009999123100000010000000000000BREMAEACNPR1125
012024052702BMEB4       010MERCANTIL   PN      N1   R$  000000000269900000000027000000000002673000000000268900000000026900000000002680000000000269000016000000000000002500000000000006722900000000000000009999123100000010000000000000BRBMEBACNPR5210
012024052702BMGB4       010BANCO BMG   PN      N1   R$  000000000033000000000003370000000000328000000000033200000000003360000000000335000000000033600467000000000000379600000000000126260400000000000000009999123100000010000000000000BRBMGBACNPR0109
012024052702BMIN4       010MERC INVEST PN           R$  000000000160000000000016000000000001560000000000157100000000015600000000001560000000000161000002000000000000000700000000000001100000000000000000009999123100000010000000000000BRBMINACNPR1176
012024052702BMKS3       010BIC MONARK  ON           R$  000000003560200000000356020000000035601000000003560100000000356010000000035307000000003619900003000000000000000003000000000000106805000000000000009999123100000010000000000000BRBMKSACNOR9166
012024052702BMOB3       010BEMOBI TECH ON      NM   R$  000000000129500000000013070000000001295000000000130200000000013030000000001299000000000130700741000000000000200900000000000261575600000000000000009999123100000010000000000000BRBMOBACNOR7103
012024052702BNBR3       010NORD BRASIL ON           R$  000000001150000000000116500000000011500000000001157500000000116500000000011150000000001165000002000000000000000200000000000002315000000000000000009999123100000010000000000000BRBNBRACNOR8208
012024052702BLAU3       010BLAU        ON      NM   R$  000000000105000000000010550000000001030000000000104100000000010520000000001048000000000105200485000000000000099800000000000103945800000000000000009999123100000010000000000000BRBLAUACNOR8113
012024052702BMEB3       010MERCANTIL   ON      N1   R$  000000000245000000000024500000000002450000000000245000000000024500000000002450000000000259800003000000000000001400000000000003430000000000000000009999123100000010000000000000BRBMEBACNOR8205
012024052702KLBN11      010KLABIN S/A  UNT     N2   R$  000000000210200000000021130000000002088000000000210000000000021030000000002102000000000210305937000000000001546600000000003248317300000000000000009999123100000010000000000000BRKLBNCDAM18142
012024052702KLBN3       010KLABIN S/A  ON      N2   R$  000000000041800000000004220000000000416000000000041800000000004190000000000417000000000041900473000000000000181600000000000076029300000000000000009999123100000010000000000000BRKLBNACNOR2170
012024052702KLBN4       010KLABIN S/A  PN      N2   R$  000000000042000000000004240000000000418000000000042000000000004210000000000420000000000042101376000000000000843200000000000354797200000000000000009999123100000010000000000000BRKLBNACNPR9170
012024052702NORD3       010NORDON MET  ON           R$  000000000080000000000008450000000000800000000000082600000000008250000000000825000000000086500021000000000000006300000000000005204300000000000000009999123100000010000000000000BRNORDACNOR7135
012024052702NTCO3       010GRUPO NATURAON      NM   R$  000000000154500000000015500000000001520000000000153000000000015280000000001528000000000153010864000000000002819700000000004314556600000000000000009999123100000010000000000000BRNTCOACNOR5106
012024052702ODPV3       010ODONTOPREV  ON  ED  NM   R$  000000000116700000000011670000000001121000000000113600000000011430000000001142000000000114502283000000000000789900000000000897533200000000000000009999123100000010000000000000BRODPVACNOR4201
012024052702OFSA3       010OUROFINO S/AON      NM   R$  000000000211000000000021300000000002090000000000211700000000021300000000002100000000000219900015000000000000003300000000000006986500000000000000009999123100000010000000000000BROFSAACNOR7118
012024052702ONCO3       010ONCOCLINICASON      NM   R$  000000000093000000000009720000000000905000000000093700000000009380000000000936000000000093812809000000000007884200000000007394622500000000000000009999123100000010000000000000BRONCOACNOR6100
012024052702OPCT3       010OCEANPACT   ON      NM   R$  000000000063300000000006460000000000624000000000063800000000006420000000000642000000000064701154000000000000360600000000000230292700000000000000009999123100000010000000000000BROPCTACNOR0100
012024052702ORVR3       010ORIZON      ON      NM   R$  000000000404100000000040580000000003956000000000400600000000040250000000004025000000000402800917000000000000195300000000000782485600000000000000009999123100000010000000000000BRORVRACNOR0101
012024052702CAMB3       010CAMBUCI     ON  ED       R$  000000000102500000000010350000000001022000000000103000000000010240000000001024000000000103300069000000000000016000000000000016492000000000000000009999123100000010000000000000BRCAMBACNOR4129
012024052702CAML3       010CAMIL       ON      NM   R$  000000000100000000000010120000000000989000000000100000000000010050000000001001000000000100501518000000000000562400000000000562926500000000000000009999123100000010000000000000BRCAMLACNOR3127
012024052702CASH3       010MELIUZ      ON      NM   R$  000000000053400000000005460000000000532000000000054100000000005440000000000541000000000054501455000000000000744200000000000403074400000000000000009999123100000010000000000000BRCASHACNOR8106
012024052702CBAV3       010CBA         ON      NM   R$  000000000067300000000006780000000000661000000000067000000000006770000000000676000000000067704384000000000001781400000000001194029000000000000000009999123100000010000000000000BRCBAVACNOR5104
012024052702CCRO3       010CCR SA      ON      NM   R$  000000000122000000000012340000000001214000000000122700000000012230000000001223000000000122610993000000000003933900000000004826897400000000000000009999123100000010000000000000BRCCROACNOR2145
012024052702CEAB3       010CEA MODAS   ON      NM   R$  000000000094700000000009640000000000941000000000095000000000009610000000000956000000000096103873000000000001394600000000001325790200000000000000009999123100000010000000000000BRCEABACNOR1102
012024052702BIOM3       010BIOMM       ON      MA   R$  000000000135000000000013890000000001267000000000133500000000013890000000001349000000000138900487000000000000071800000000000095858900000000000000009999123100000010000000000000BRBIOMACNOR2112
012024052702EMBR3       010EMBRAER     ON      NM   R$  000000000379900000000038160000000003727000000000377600000000038150000000003811000000000381506614000000000001740800000000006573578400000000000000009999123100000010000000000000BREMBRACNOR4191
012024052702IRBR3       010IRBBRASIL REON      NM   R$  000000000335600000000033780000000003309000000000333300000000033250000000003319000000000332804041000000000001685100000000005617471600000000000000009999123100000010000000000000BRIRBRACNOR4111
012024052702ITSA3       010ITAUSA      ON      N1   R$  000000000099800000000010030000000000994000000000099900000000010000000000000998000000000100000316000000000000114100000000000113991300000000000000009999123100000010000000000000BRITSAACNOR0439
012024052702SHOW3       010TIME FOR FUNON      NM   R$  000000000019500000000001960000000000192000000000019300000000001940000000000192000000000019400187000000000000049900000000000009632900000000000000009999123100000010000000000000BRSHOWACNOR7105
012024052702SHUL4       010SCHULZ      PN           R$  000000000061200000000006200000000000605000000000061300000000006130000000000612000000000061601950000000000000580700000000000356361300000000000000009999123100000010000000000000BRSHULACNPR4155
012024052702SIMH3       010SIMPAR      ON      NM   R$  000000000061100000000006140000000000602000000000060700000000006100000000000609000000000061002849000000000001764600000000001071846600000000000000009999123100000010000000000000BRSIMHACNOR0107
012024052702SLCE3       010SLC AGRICOLAON      NM   R$  000000000182900000000018380000000001815000000000182800000000018310000000001831000000000183604073000000000001089800000000001992783900000000000000009999123100000010000000000000BRSLCEACNOR2125
012024052702EZTC3       010EZTEC       ON      NM   R$  000000000130900000000013140000000001290000000000129900000000013030000000001302000000000130503240000000000001430000000000001858538600000000000000009999123100000010000000000000BREZTCACNOR0125
012024052702FESA3       010FERBASA     ON      N1   R$  000000000140100000000014010000000001401000000000140100000000014010000000001405000000000145400001000000000000000100000000000000140100000000000000009999123100000010000000000000BRFESAACNOR8187
012024052702FESA4       010FERBASA     PN      N1   R$  000000000082700000000008370000000000825000000000083000000000008320000000000832000000000083401024000000000000396000000000000329063200000000000000009999123100000010000000000000BRFESAACNPR5083
012024052702FHER3       010FER HERINGERON      NM   R$  000000000046300000000004660000000000462000000000046300000000004660000000000463000000000046600014000000000000003100000000000001436200000000000000009999123100000010000000000000BRFHERACNOR5103
012024052702FIQE3       010UNIFIQUE    ON      NM   R$  000000000036300000000003770000000000359000000000036800000000003740000000000374000000000037800769000000000000480400000000000176845200000000000000009999123100000010000000000000BRFIQEACNOR5106
012024052702FLRY3       010FLEURY      ON      NM   R$  000000000142200000000014370000000001418000000000142700000000014310000000001430000000000143203338000000000001254800000000001791691900000000000000009999123100000010000000000000BRFLRYACNOR5138
012024052702MNDL3       010MUNDIAL     ON           R$  000000000450000000000045500000000004500000000000451200000000045500000000004300000000000466000003000000000000000400000000000001805000000000000000009999123100000010000000000000BRMNDLACNOR4107
012024052702MNPR3       010MINUPAR     ON           R$  000000000122100000000012210000000001180000000000119900000000012000000000001152000000000120000024000000000000004300000000000005157300000000000000009999123100000010000000000000BRMNPRACNOR5122
012024052702PSSA3       010PORTO SEGUROON      NM   R$  000000000304500000000030580000000002997000000000302000000000030300000000003023000000000303003997000000000001031100000000003114661800000000000000009999123100000010000000000000BRPSSAACNOR7154
012024052702PTBL3       010PORTOBELLO  ON      NM   R$  000000000045300000000004530000000000441000000000044400000000004470000000000446000000000044900897000000000000299000000000000132905800000000000000009999123100000010000000000000BRPTBLACNOR8132
012024052702PTNT4       010PETTENATI   PN           R$  000000000072000000000007200000000000700000000000070800000000007050000000000690000000000070500013000000000000004300000000000003045800000000000000009999123100000010000000000000BRPTNTACNPR3047
012024052702CURY3       010CURY S/A    ON      NM   R$  000000000187800000000018910000000001866000000000187900000000018780000000001876000000000188403809000000000000928700000000001745640500000000000000009999123100000010000000000000BRCURYACNOR3109
012024052702CVCB3       010CVC BRASIL  ON      NM   R$  000000000020400000000002110000000000204000000000020700000000002110000000000210000000000021203891000000000007127900000000001481720700000000000000009999123100000010000000000000BRCVCBACNOR1115
012024052702CXSE3       010CAIXA SEGURION      NM   R$  000000000155500000000015670000000001543000000000155500000000015610000000001560000000000156206597000000000001943800000000003023013500000000000000009999123100000010000000000000BRCXSEACNOR7106
012024052702CYRE3       010CYRELA REALTON      NM   R$  000000000195600000000019820000000001944000000000196700000000019630000000001963000000000197106672000000000002303900000000004532040300000000000000009999123100000010000000000000BRCYREACNOR7140
012024052702ALLD3       010ALLIED      ON      NM   R$  000000000069200000000006970000000000667000000000067600000000006720000000000671000000000067200483000000000000171200000000000115872900000000000000009999123100000010000000000000BRALLDACNOR3106
012024052702ALOS3       010ALLOS       ON      NM   R$  000000000212000000000021460000000002118000000000213000000000021360000000002135000000000213604638000000000001848600000000003938158600000000000000009999123100000010000000000000BRALOSACNOR5101
012024052702ALPA3       010ALPARGATAS  ON      N1   R$  000000000102200000000010500000000001002000000000102300000000010150000000000957000000000102400011000000000000001900000000000001944700000000000000009999123100000010000000000000BRALPAACNOR0231
012024052702ALPA4       010ALPARGATAS  PN      N1   R$  000000000097400000000009940000000000974000000000098600000000009940000000000989000000000099403941000000000001711500000000001688332800000000000000009999123100000010000000000000BRALPAACNPR7232
012024052702BBSE3       010BBSEGURIDADEON      NM   R$  000000000326900000000032950000000003252000000000327600000000032860000000003286000000000328708563000000000003627100000000011884407900000000000000009999123100000010000000000000BRBBSEACNOR5124
012024052702BPAC11      010BTGP BANCO  UNT     N2   R$  000000000324500000000032480000000003183000000000320300000000032230000000003221000000000322512153000000000005587200000000017899226700000000000000009999123100000010000000000000BRBPACUNT006118
012024052702BPAC3       010BTGP BANCO  ON      N2   R$  000000000163000000000016300000000001607000000000161600000000016250000000001605000000000162500020000000000000002000000000000003233000000000000000009999123100000010000000000000BRBPACACNOR7133
012024052702BPAC5       010BTGP BANCO  PNA     N2   R$  000000000079800000000008000000000000784000000000079300000000007840000000000784000000000078500033000000000000006200000000000004918200000000000000009999123100000010000000000000BRBPACACNPA0133
012024052702BPAN4       010BANCO PAN   PN      N1   R$  000000000092400000000009350000000000919000000000092800000000009320000000000929000000000093202647000000000000929900000000000863442700000000000000009999123100000010000000000000BRBPANACNPR1115
012024052702CSRN3       010COSERN      ON           R$  000000000247400000000024750000000002472000000000247300000000024750000000002325000000000247500003000000000000000500000000000001236500000000000000009999123100000010000000000000BRCSRNACNOR0192
012024052702CSUD3       010CSU DIGITAL ON      NM   R$  000000000191000000000019100000000001882000000000189500000000018850000000001885000000000190000124000000000000028200000000000053463700000000000000009999123100000010000000000000BRCSUDACNOR5109
012024052702KRSA3       010KORA SAUDE  ON      NM   R$  000000000007100000000000710000000000068000000000006900000000000680000000000068000000000007000095000000000000524400000000000036521800000000000000009999123100000010000000000000BRKRSAACNOR0100
012024052702LAND3       010TERRASANTAPAON      NM   R$  000000000150900000000015090000000001473000000000147900000000014770000000001476000000000149500111000000000000038800000000000057411800000000000000009999123100000010000000000000BRLANDACNOR9103
012024052702LAVV3       010LAVVI       ON  ED  NM   R$  000000000088000000000008940000000000871000000000088000000000008940000000000879000000000089400990000000000000334300000000000294382300000000000000009999123100000010000000000000BRLAVVACNOR4112
012024052702LEVE3       010METAL LEVE  ON      NM   R$  000000000326000000000032750000000003232000000000325300000000032480000000003248000000000325801015000000000000158300000000000514974500000000000000009999123100000010000000000000BRLEVEACNOR2197
012024052707BHIA3       010CASAS BAHIA ON      NM   R$  000000000072100000000007400000000000702000000000071200000000007020000000000702000000000070404336000000000002555000000000001819272200000000000000009999123100000010000000000000BRBHIAACNOR1101
012024052707TXRX4       010TEX RENAUX  PN           R$  000000000023700000000002380000000000227000000000023200000000002270000000000227000000000023500004000000000000000400000000000000093000000000000000009999123100000010000000000000BRTXRXACNPR0142
012024052707NUTR3       010NUTRIPLANT  ON      MA   R$  000000000049300000000005240000000000486000000000050400000000005170000000000495000000000051800046000000000000010200000000000005149700000000000000009999123100000010000000000000BRNUTRACNOR0104
012024052708ETER3       010ETERNIT     ON      NM   R$  000000000066300000000006630000000000635000000000064000000000006360000000000636000000000064300869000000000000255100000000000163471900000000000000009999123100000010000000000000BRETERACNOR3243
012024052708LIGT3       010LIGHT S/A   ON      NM   R$  000000000050900000000005120000000000496000000000050100000000005040000000000498000000000050402267000000000000744900000000000373580400000000000000009999123100000010000000000000BRLIGTACNOR2124
012024052708PMAM3       010PARANAPANEMAON      NM   R$  000000000026100000000002730000000000261000000000026700000000002630000000000263000000000027000223000000000000030800000000000008232000000000000000009999123100000010000000000000BRPMAMACNOR3039
012024052708NEXP3       010NEXPE       ON           R$  000000000042200000000004270000000000421000000000042400000000004210000000000421000000000042500016000000000000002900000000000001231800000000000000009999123100000010000000000000BRNEXPACNOR0101
012024052708RSID3       010ROSSI RESID ON      NM   R$  000000000052000000000005390000000000520000000000052600000000005200000000000520000000000054001532000000000000164500000000000086595200000000000000009999123100000010000000000000BRRSIDACNOR8120
012024052708RNEW11      010RENOVA      UNT     N2   R$  000000000030300000000003160000000000297000000000030300000000002990000000000299000000000030300029000000000000009900000000000003006400000000000000009999123100000010000000000000BRRNEWCDAM15110
012024052708RNEW3       010RENOVA      ON      N2   R$  000000000009900000000001020000000000098000000000009900000000001010000000000098000000000010100066000000000000028000000000000002793800000000000000009999123100000010000000000000BRRNEWACNOR8110
012024052708RNEW4       010RENOVA      PN      N2   R$  000000000009900000000001020000000000098000000000009900000000000980000000000098000000000009900124000000000000133600000000000013327000000000000000009999123100000010000000000000BRRNEWACNPR5110
012024052708RPMG3       010PET MANGUINHON           R$  000000000025900000000002810000000000255000000000026700000000002760000000000272000000000027600179000000000000114300000000000030538700000000000000009999123100000010000000000000BRRPMGACNOR9194
012024052708HOOT4       010HOTEIS OTHONPN           R$  000000000027800000000002790000000000278000000000027800000000002790000000000278000000000028200003000000000000005800000000000001613200000000000000009999123100000010000000000000BRHOOTACNPR9015
012024052708JFEN3       010JOAO FORTES ON           R$  000000000014200000000001520000000000139000000000014300000000001390000000000139000000000014300142000000000000044400000000000006388000000000000000009999123100000010000000000000BRJFENACNOR0059
012024052708AMER3       010AMERICANAS  ON  ES  NM   R$  000000000005500000000000560000000000053000000000005400000000000550000000000055000000000005601528000000000021848400000000001193506400000000000000009999123100000010000000000000BRAMERACNOR6102
012024052708OIBR3       010OI          ON      N1   R$  000000000005900000000000600000000000058000000000005800000000000590000000000059000000000006001069000000000003157800000000000185581100000000000000009999123100000010000000000000BROIBRACNOR1110
012024052708OIBR4       010OI          PN      N1   R$  000000000017300000000001800000000000173000000000017400000000001740000000000174000000000017700057000000000000017100000000000002988800000000000000009999123100000010000000000000BROIBRACNPR8109
012024052708OSXB3       010OSX BRASIL  ON      NM   R$  000000000038900000000003970000000000389000000000039200000000003920000000000392000000000039800016000000000000003300000000000001296100000000000000009999123100000010000000000000BROSXBACNOR8109
012024052708ATMP3       010ATMASA      ON           R$  000000000021400000000002280000000000214000000000022100000000002280000000000221000000000022800020000000000000010300000000000002280900000000000000009999123100000010000000000000BRATMPACNOR8100
012024052708SGPS3       010SPRINGS     ON      NM   R$  000000000005300000000000540000000000051000000000005200000000000530000000000052000000000005300076000000000000190900000000000010021000000000000000009999123100000010000000000000BRSGPSACNOR4104
012024052708CTNM3       010COTEMINAS   ON           R$  000000000071100000000007760000000000711000000000073200000000007750000000000650000000000076900004000000000000000900000000000000659200000000000000009999123100000010000000000000BRCTNMACNOR9130
012024052708CTNM4       010COTEMINAS   PN           R$  000000000008800000000000900000000000085000000000008700000000000890000000000085000000000008900068000000000000063000000000000005516100000000000000009999123100000010000000000000BRCTNMACNPR6129
012024052708CTSA3       010SANTANENSE  ON           R$  000000000024900000000002490000000000245000000000024600000000002450000000000244000000000024900005000000000000001500000000000000369100000000000000009999123100000010000000000000BRCTSAACNOR3062
012024052708CTSA4       010SANTANENSE  PN           R$  000000000011800000000001180000000000112000000000011500000000001160000000000114000000000011600040000000000000015700000000000001806000000000000000009999123100000010000000000000BRCTSAACNPR0062
012024052710AGXY1       010AGROGALAXY  DIR ORD NM   R$  000000000000100000000000010000000000001000000000000100000000000010000000000000000000000000100036000000000000044100000000000000044100000000000000009999123100000010000000000000BRAGXYD01OR9102
012024052710PMAM1       010PARANAPANEMADIR ORD NM   R$  000000000000100000000000010000000000001000000000000100000000000010000000000000000000000000100015000000000000024400000000000000024400000000000000009999123100000010000000000000BRPMAMD04OR2038
012024052710BSLI2       010BRB BANCO   DIR PRE      R$  000000000009300000000000930000000000081000000000008800000000000900000000000082000000000009000004000000000000000600000000000000053200000000000000009999123100000010000000000000BRBSLID02PR5192
012024052710IFRA12      010FI ITAUINFRADIR          R$  000000000001400000000000240000000000010000000000001300000000000130000000000013000000000001400239000000000000057757000000000000800979000000000000009999123100000010000000000000BRIFRAD01M12137
012024052710AMER1       010AMERICANAS  DIR ORD NM   R$  000000000000100000000000010000000000001000000000000100000000000010000000000000000000000000100575000000000360555800000000000360555800000000000000009999123100000010000000000000BRAMERD02OR9101
012024052710EQTL1       010EQUATORIAL  DIR ORD NM   R$  000000000008800000000001250000000000088000000000011100000000001250000000000108000000000012500245000000000000404600000000000045238700000000000000009999123100000010000000000000BREQTLD03OR1129
012024052712EURO11      010FII EUROPAR CI           R$  000000002524800000000256820000000025247000000002549300000000252470000000025247000000002539700021000000000000000231000000000005888977000000000000009999123100000010000000000000BREUROCTF011358
012024052712EVBI11      010FII VBI CON CI           R$  000000000970000000000098500000000009700000000000977600000000098110000000009710000000000981100009000000000000000202000000000001974783000000000000009999123100000010000000000000BREVBICTF007148
012024052712EXES11      010FII EXES    CI  ER       R$  000000000096600000000009660000000000966000000000096600000000009660000000000966000000000098700002000000000000000150000000000000144900000000000000009999123100000010000000000000BREXESCTF006124
012024052712VVCO11      010FII V2EDCORPCI           R$  000000000135000000000013500000000001312000000000133700000000013500000000001312000000000135000064000000000000000686000000000000917315000000000000009999123100000010000000000000BRVVCOCTF007101
012024052712VVCR11      010FII V2 RECE CI  ER       R$  000000000097400000000009900000000000960000000000098500000000009740000000000973000000000098500054000000000000022502000000000022183766000000000000009999123100000010000000000000BRVVCRCTF000115
012024052712VVMR11      010FII MULT RENCI           R$  000000000909500000000090950000000008736000000000900100000000089990000000008734000000000900000015000000000000001213000000000010918392000000000000009999123100000010000000000000BRVVMRCTF009103
012024052712VVRI11      010FII V2 RENDACI  ER       R$  000000000911200000000091120000000009112000000000911200000000091120000000009111000000000950000001000000000000000001000000000000009112000000000000009999123100000010000000000000BRVVRICTF007115
012024052712WHGR11      010FII WHG REALCI           R$  000000000098200000000009820000000000970000000000097300000000009720000000000971000000000097204503000000000000107128000000000104284093000000000000009999123100000010000000000000BRWHGRCTF008124
012024052712VCJR11      010FII VECTIS  CI           R$  000000000924500000000092740000000009211000000000924700000000092290000000009229000000000924404766000000000000015507000000000143403940000000000000009999123100000010000000000000BRVCJRCTF005154
012024052712VCRI11      010FII VINCI CRCI           R$  000000000087200000000008730000000000867000000000087000000000008710000000000869000000000087103906000000000000035346000000000030772771000000000000009999123100000010000000000000BRVCRICTF007124
012024052712VCRR11      010FII VECT RENCI           R$  000000000663900000000066700000000006515000000000657000000000065980000000006555000000000659901667000000000000004012000000000026360879000000000000009999123100000010000000000000BRVCRRCTF008135
012024052712VGHF11      010FII VALOR HECI           R$  000000000089500000000008990000000000884000000000088700000000008860000000000886000000000088915031000000000000558716000000000496058401000000000000009999123100000010000000000000BRVGHFCTF005143
012024052712VGIP11      010FII VALORAIPCI           R$  000000000897800000000091900000000008960000000000909800000000091240000000009088000000000912410029000000000000060836000000000553536342000000000000009999123100000010000000000000BRVGIPCTF002155
012024052712VGIR11      010FII VALREIIICI           R$  000000000097100000000009730000000000970000000000097100000000009700000000000970000000000097224037000000000000357877000000000347624528000000000000009999123100000010000000000000BRVGIRCTF008175
012024052712VGRI11      010FII VGRI    CI           R$  000000000092600000000009370000000000921000000000092300000000009210000000000921000000000093303347000000000000034114000000000031513721000000000000009999123100000010000000000000BRVGRICTF008102
012024052712VIFI11      010FII VINCI IFCI           R$  000000000081900000000008190000000000813000000000081400000000008160000000000816000000000081700073000000000000002379000000000001936804000000000000009999123100000010000000000000BRVIFICTF009155
012024052712VILG11      010FII VINCI LGCI           R$  000000000888000000000088870000000008795000000000883300000000088060000000008806000000000882005212000000000000025182000000000222444673000000000000009999123100000010000000000000BRVILGCTF001170
012024052712VINO11      010FII VINCI OFCI           R$  000000000078500000000007870000000000778000000000078200000000007780000000000778000000000078603148000000000000073591000000000057559326000000000000009999123100000010000000000000BRVINOCTF001156
012024052712VISC11      010FII VINCI SCCI           R$  000000001217000000000121970000000012090000000001213800000000121000000000012092000000001210012625000000000000056703000000000688277930000000000000009999123100000010000000000000BRVISCCTF005185
012024052712VIUR11      010FII VINCI IUCI           R$  000000000064800000000006500000000000646000000000064800000000006490000000000648000000000064902908000000000000032826000000000021271576000000000000009999123100000010000000000000BRVIURCTF009136
012024052712VOTS11      010FII V MASTERCI           R$  000000000807900000000081980000000008079000000000817400000000081980000000008165000000000819800012000000000000000021000000000000171670000000000000009999123100000010000000000000BRVOTSCTF007169
012024052712VRTA11      010FII FATOR VECI           R$  000000000873500000000087360000000008660000000000870300000000086740000000008674000000000867602725000000000000021401000000000186261765000000000000009999123100000010000000000000BRVRTACTF008259
012024052712VRTM11      010FII VRTM    CI  ES       R$  000000000102300000000010230000000000997000000000100800000000010000000000000997000000000100000016000000000000000198000000000000199640000000000000009999123100000010000000000000BRVRTMCTF003107
012024052712VSHO11      010FII VOT SHOPCI           R$  000000000717500000000073990000000007141000000000733400000000073500000000007350000000000736400145000000000000003085000000000022626320000000000000009999123100000010000000000000BRVSHOCTF002160
012024052712VSLH11      010FII VERS CRICI           R$  000000000034900000000003490000000000347000000000034800000000003490000000000348000000000034901412000000000000035397000000000012325898000000000000009999123100000010000000000000BRVSLHCTF008142
012024052712VTLT11      010FII VOT LOG CI           R$  000000000965000000000096500000000009634000000000964700000000096470000000009646000000000964700062000000000000000417000000000004023212000000000000009999123100000010000000000000BRVTLTCTF001171
012024052712SARE11      010FII SANT RENCI           R$  000000000474000000000047580000000004700000000000471700000000047190000000004719000000000472004263000000000000014797000000000069804288000000000000009999123100000010000000000000BRSARECTF006155
012024052712RECR11      010FII REC RECECI           R$  000000000888900000000088980000000008826000000000885200000000088490000000008839000000000884903257000000000000035572000000000314889478000000000000009999123100000010000000000000BRRECRCTF004150
012024052712RECT11      010FII REC RENDCI           R$  000000000371800000000037300000000003701000000000371100000000037250000000003708000000000372500673000000000000010731000000000039826530000000000000009999123100000010000000000000BRRECTCTF000166
012024052712RECX11      010FII REC FOF CI  ER       R$  000000000679900000000068000000000006674000000000676400000000067580000000006573000000000679900006000000000000000030000000000000202930000000000000009999123100000010000000000000BRRECXCTF002138
012024052712RELG11      010FII REC LOG CI           R$  000000000497900000000050000000000004905000000000495300000000049950000000004947000000000498000147000000000000004316000000000021379841000000000000009999123100000010000000000000BRRELGCTF008134
012024052712RBDS11      010FII RBRESID2CI           R$  000000000019300000000002200000000000193000000000019300000000002200000000000191000000000021900003000000000000000551000000000000106370000000000000009999123100000010000000000000BRRBDSCTF006179
012024052712RBED11      010FII RIOB ED CI           R$  000000001446300000000144630000000014340000000001441500000000144590000000014445000000001446000120000000000000000711000000000010249170000000000000009999123100000010000000000000BRRBEDCTF006163
012024052712RBFF11      010FII RIOB FF CI           R$  000000000642500000000064250000000006355000000000639500000000063910000000006391000000000639500452000000000000007218000000000046162430000000000000009999123100000010000000000000BRRBFFCTF008159
012024052712RBHG11      010FII RBCRI IVCI           R$  000000000882000000000088430000000008800000000000882100000000088390000000008825000000000883900224000000000000001438000000000012685497000000000000009999123100000010000000000000BRRBHGCTF002133
012024052712SMRE11      010FII SMRE    CI           R$  000000001000000000000105000000000010000000000001001700000000100000000000000000000000000000000068000000000000004660000000000046680000000000000000009999123100000010000000000000BRSMRECTF001100
