00COTAHIST.2024BOVESPA 20240506                                                                                                                                                                                                                      
012024050602NTCO3       010GRUPO NATURAON      NM   R$  000000000171600000000017510000000001712000000000173300000000017270000000001725000000000172815390000000000005800800000000010053902100000000000000009999123100000010000000000000BRNTCOACNOR5106
012024050602ALPA3       010ALPARGATAS  ON      N1   R$  000000000101900000000010190000000000990000000000099900000000009900000000000968000000000099100005000000000000000900000000000000899700000000000000009999123100000010000000000000BRALPAACNOR0231
012024050602ALPA4       010ALPARGATAS  PN      N1   R$  000000000097300000000009910000000000960000000000097600000000009780000000000971000000000097806638000000000001881800000000001837155500000000000000009999123100000010000000000000BRALPAACNPR7232
012024050602ALPK3       010ESTAPAR     ON      NM   R$  000000000039000000000003980000000000389000000000039200000000003900000000000390000000000039700390000000000000157300000000000061817000000000000000009999123100000010000000000000BRALPKACNOR9101
012024050602ALUP11      010ALUPAR      UNT     N2   R$  000000000290400000000029600000000002897000000000294000000000029430000000002928000000000294305181000000000001502300000000004418120500000000000000009999123100000010000000000000BRALUPCDAM15118
012024050602ALUP3       010ALUPAR      ON      N2   R$  000000000098100000000010000000000000964000000000098700000000009830000000000983000000000099000144000000000000014800000000000014622300000000000000009999123100000010000000000000BRALUPACNOR8118
012024050602ALUP4       010ALUPAR      PN      N2   R$  000000000096500000000009830000000000959000000000097200000000009760000000000969000000000097900192000000000000028700000000000027900600000000000000009999123100000010000000000000BRALUPACNPR5118
012024050602AMAR3       010LOJAS MARISAON      NM   R$  000000000016500000000001670000000000160000000000016200000000001650000000000161000000000016500683000000000000296900000000000048358400000000000000009999123100000010000000000000BRAMARACNOR4114
012024050602AMBP3       010AMBIPAR     ON      NM   R$  000000000107700000000010850000000001050000000000106200000000010560000000001054000000000106002397000000000000722100000000000767574500000000000000009999123100000010000000000000BRAMBPACNOR6103
012024050602ANIM3       010ANIMA       ON      NM   R$  000000000037600000000003920000000000376000000000038500000000003800000000000379000000000038408927000000000004394400000000001692901300000000000000009999123100000010000000000000BRANIMACNOR6107
012024050602APER3       010ALPER S.A.  ON           R$  000000000434200000000043420000000004305000000000432900000000043050000000004290000000000440000003000000000000000300000000000001298900000000000000009999123100000010000000000000BRAPERACNOR9106
012024050602BAHI3       010BAHEMA      ON      MA   R$  000000000080000000000008000000000000790000000000079800000000007900000000000790000000000082300010000000000000003400000000000002715200000000000000009999123100000010000000000000BRBAHIACNOR1074
012024050602BAUH4       010EXCELSIOR   PN  ED       R$  000000000799900000000079990000000007999000000000799900000000079990000000007700000000000807900001000000000000000100000000000000799900000000000000009999123100000010000000000000BRBAUHACNPR3118
012024050602BAZA3       010AMAZONIA    ON  ERJ      R$  000000001010500000000102790000000010105000000001019300000000102510000000010131000000001027300018000000000000002500000000000025484100000000000000009999123100000010000000000000BRBAZAACNOR0179
012024050602BBAS3       010BRASIL      ON      NM   R$  000000000283000000000028440000000002816000000000283000000000028380000000002836000000000283823973000000000010006000000000028323132200000000000000009999123100000010000000000000BRBBASACNOR3322
012024050602EVEN3       010EVEN        ON      NM   R$  000000000071800000000007290000000000717000000000072200000000007190000000000718000000000072402443000000000000562900000000000406935200000000000000009999123100000010000000000000BREVENACNOR8118
012024050602EZTC3       010EZTEC       ON      NM   R$  000000000146600000000014950000000001451000000000147300000000014730000000001468000000000147506563000000000002750100000000004052301700000000000000009999123100000010000000000000BREZTCACNOR0124
012024050602ITSA3       010ITAUSA      ON      N1   R$  000000000098700000000009900000000000981000000000098400000000009880000000000982000000000098800311000000000000147800000000000145552200000000000000009999123100000010000000000000BRITSAACNOR0439
012024050602ITSA4       010ITAUSA      PN      N1   R$  000000000098200000000009930000000000979000000000098400000000009830000000000982000000000098322286000000000013400500000000013191537300000000000000009999123100000010000000000000BRITSAACNPR7439
012024050602MDIA3       010M.DIASBRANCOON      NM   R$  000000000342300000000034510000000003397000000000341400000000033970000000003395000000000339902670000000000000566000000000001932725000000000000000009999123100000010000000000000BRMDIAACNOR7134
012024050602MDNE3       010MOURA DUBEUXON      NM   R$  000000000129200000000013370000000001286000000000130800000000013120000000001302000000000131201807000000000000392400000000000513569300000000000000009999123100000010000000000000BRMDNEACNOR9100
012024050602MEAL3       010IMC S/A     ON      NM   R$  000000000015900000000001620000000000156000000000015900000000001570000000000157000000000015901539000000000001176500000000000187804500000000000000009999123100000010000000000000BRMEALACNOR9105
012024050602MELK3       010MELNICK     ON  ED  NM   R$  000000000045000000000004510000000000433000000000044000000000004370000000000437000000000044200546000000000000231100000000000101806800000000000000009999123100000010000000000000BRMELKACNOR8111
012024050602MERC4       010MERC FINANC PN           R$  000000000077000000000007710000000000770000000000077000000000007710000000000700000000000077100003000000000000000800000000000000616700000000000000009999123100000010000000000000BRMERCACNPR9180
012024050602MGEL4       010MANGELS INDLPN           R$  000000000172100000000017210000000001700000000000170700000000017000000000001700000000000182500006000000000000000800000000000001365900000000000000009999123100000010000000000000BRMGELACNPR3147
012024050602MGLU3       010MAGAZ LUIZA ON      NM   R$  000000000015800000000001610000000000154000000000015700000000001570000000000156000000000015722431000000000097166300000000015305338000000000000000009999123100000010000000000000BRMGLUACNOR2123
012024050602B3SA3       010B3          ON      NM   R$  000000000113600000000011580000000001134000000000115200000000011510000000001151000000000115229597000000000042966900000000049504469300000000000000009999123100000010000000000000BRB3SAACNOR6132
012024050602BRIT3       010BRISANET    ON  ED  NM   R$  000000000044600000000004560000000000435000000000044600000000004350000000000435000000000044201010000000000000327000000000000146153600000000000000009999123100000010000000000000BRBRITACNOR0103
012024050602BRKM3       010BRASKEM     ON      N1   R$  000000000204600000000020500000000001915000000000196400000000019760000000001975000000000197600415000000000000109200000000000214486700000000000000009999123100000010000000000000BRBRKMACNOR1119
012024050602BRKM5       010BRASKEM     PNA     N1   R$  000000000197900000000020180000000001930000000000196700000000019700000000001969000000000197037067000000000016646000000000032754434200000000000000009999123100000010000000000000BRBRKMACNPA4121
012024050602CSED3       010CRUZEIRO EDUON      NM   R$  000000000045200000000004570000000000439000000000044500000000004400000000000439000000000044000567000000000000216100000000000096327800000000000000009999123100000010000000000000BRCSEDACNOR9104
012024050602CSMG3       010COPASA      ON  ED  NM   R$  000000000193800000000020150000000001920000000000198800000000019860000000001985000000000198907496000000000001813700000000003605655600000000000000009999123100000010000000000000BRCSMGACNOR5173
012024050602CSNA3       010SID NACIONALON           R$  000000000143100000000014480000000001413000000000142600000000014220000000001420000000000142213149000000000005783900000000008253358300000000000000009999123100000010000000000000BRCSNAACNOR6260
012024050602STBP3       010SANTOS BRP  ON      NM   R$  000000000139400000000014050000000001340000000000137300000000013420000000001342000000000134510152000000000005240300000000007198904400000000000000009999123100000010000000000000BRSTBPACNOR3129
012024050602SUZB3       010SUZANO S.A. ON      NM   R$  000000000592500000000059810000000005888000000000594900000000059480000000005947000000000595513553000000000002909600000000017309817000000000000000009999123100000010000000000000BRSUZBACNOR0129
012024050602PRNR3       010PRINER      ON  ED  NM   R$  000000000131800000000013180000000001252000000000127600000000012600000000001259000000000126901486000000000000546800000000000697935800000000000000009999123100000010000000000000BRPRNRACNOR4109
012024050602PSSA3       010PORTO SEGUROON      NM   R$  000000000297700000000030150000000002971000000000298900000000029800000000002970000000000298305877000000000001484600000000004438257300000000000000009999123100000010000000000000BRPSSAACNOR7154
012024050602PTBL3       010PORTOBELLO  ON      NM   R$  000000000059700000000006230000000000583000000000061300000000006040000000000604000000000061201108000000000000390200000000000239389300000000000000009999123100000010000000000000BRPTBLACNOR8132
012024050602PTNT4       010PETTENATI   PN           R$  000000000076000000000007660000000000744000000000075000000000007440000000000744000000000075800005000000000000000700000000000000525200000000000000009999123100000010000000000000BRPTNTACNPR3047
012024050602ARML3       010ARMAC       ON      NM   R$  000000000106300000000010690000000001022000000000103700000000010230000000001023000000000102503851000000000000813500000000000843676700000000000000009999123100000010000000000000BRARMLACNOR1111
012024050602ARZZ3       010AREZZO CO   ON      NM   R$  000000000525200000000052720000000005175000000000521600000000051750000000005174000000000517909995000000000002125500000000011088632200000000000000009999123100000010000000000000BRARZZACNOR3146
012024050602QUAL3       010QUALICORP   ON  ATZ NM   R$  000000000017100000000001720000000000167000000000016900000000001690000000000168000000000016903742000000000003480600000000000589003100000000000000009999123100000010000000000000BRQUALACNOR6120
012024050602SMFT3       010SMART FIT   ON      NM   R$  000000000251100000000025540000000002440000000000246700000000024410000000002441000000000244507331000000000001583600000000003907509200000000000000009999123100000010000000000000BRSMFTACNOR1111
012024050602SMTO3       010SAO MARTINHOON      NM   R$  000000000289900000000028990000000002788000000000283500000000028560000000002856000000000285906151000000000001359000000000003854002400000000000000009999123100000010000000000000BRSMTOACNOR3125
012024050602BBSE3       010BBSEGURIDADEON      NM   R$  000000000328200000000033400000000003211000000000328800000000033260000000003325000000000332720032000000000006137400000000020180747400000000000000009999123100000010000000000000BRBBSEACNOR5124
012024050602COCE5       010COELCE      PNA ED       R$  000000000355100000000036370000000003470000000000355400000000036000000000003600000000000362500048000000000000006600000000000023458300000000000000009999123100000010000000000000BRCOCEACNPA3147
012024050602COGN3       010COGNA ON    ON      NM   R$  000000000022900000000002360000000000228000000000023100000000002300000000000229000000000023123924000000000017838100000000004126450200000000000000009999123100000010000000000000BRCOGNACNOR2104
012024050602EKTR4       010ELEKTRO     PN  ED       R$  000000000377900000000037790000000003779000000000377900000000037790000000003740000000000390000001000000000000000100000000000000377900000000000000009999123100000010000000000000BREKTRACNPR7162
012024050602ELET3       010ELETROBRAS  ON  ED  N1   R$  000000000386100000000039570000000003860000000000392400000000039180000000003916000000000391914219000000000004060100000000015932682300000000000000009999123100000010000000000000BRELETACNOR6160
012024050602ELET6       010ELETROBRAS  PNB ED  N1   R$  000000000430300000000043590000000004272000000000432400000000043180000000004317000000000431903426000000000000796800000000003445520100000000000000009999123100000010000000000000BRELETACNPB7077
012024050602SNSY3       010SANSUY      ON           R$  000000000121000000000012700000000001200000000000123000000000012700000000001215000000000128000004000000000000000400000000000000492000000000000000009999123100000010000000000000BRSNSYACNOR2113
012024050602PRIO3       010PETRORIO    ON      NM   R$  000000000470900000000047780000000004658000000000473400000000047190000000004716000000000472023091000000000011527200000000054574355900000000000000009999123100000010000000000000BRPRIOACNOR1106
012024050602SCAR3       010SAO CARLOS  ON  ED  NM   R$  000000000255100000000025900000000002426000000000252100000000025900000000002436000000000259000082000000000000015100000000000038079500000000000000009999123100000010000000000000BRSCARACNOR7131
012024050602SEER3       010SER EDUCA   ON      NM   R$  000000000059200000000006000000000000576000000000058800000000005820000000000578000000000058201035000000000000334000000000000196463700000000000000009999123100000010000000000000BRSEERACNOR5119
012024050602SEQL3       010SEQUOIA LOG ON      NM   R$  000000000004000000000000410000000000039000000000004000000000000400000000000040000000000004100477000000000002957700000000000118617100000000000000009999123100000010000000000000BRSEQLACNOR2102
012024050602SGPS3       010SPRINGS     ON      NM   R$  000000000007700000000000770000000000074000000000007400000000000750000000000074000000000007500110000000000000334700000000000024948900000000000000009999123100000010000000000000BRSGPSACNOR4104
012024050602SHOW3       010TIME FOR FUNON      NM   R$  000000000025500000000002640000000000252000000000025900000000002560000000000256000000000026000316000000000000093400000000000024201500000000000000009999123100000010000000000000BRSHOWACNOR7105
012024050602SHUL4       010SCHULZ      PN           R$  000000000062200000000006260000000000616000000000061900000000006160000000000616000000000062100794000000000000377500000000000233826400000000000000009999123100000010000000000000BRSHULACNPR4155
012024050602SIMH3       010SIMPAR      ON      NM   R$  000000000060100000000006120000000000585000000000059300000000005850000000000585000000000058706176000000000004373900000000002597861500000000000000009999123100000010000000000000BRSIMHACNOR0107
012024050602SLCE3       010SLC AGRICOLAON  ED  NM   R$  000000000182800000000018750000000001809000000000184900000000018590000000001859000000000186108126000000000002500300000000004624417500000000000000009999123100000010000000000000BRSLCEACNOR2125
012024050602PFRM3       010PROFARMA    ON      NM   R$  000000000060000000000006180000000000600000000000060700000000006000000000000600000000000060700423000000000000142300000000000086445100000000000000009999123100000010000000000000BRPFRMACNOR1116
012024050602PGMN3       010PAGUE MENOS ON      NM   R$  000000000026200000000002660000000000258000000000026200000000002620000000000262000000000026301294000000000000565800000000000148799600000000000000009999123100000010000000000000BRPGMNACNOR8103
012024050602PINE3       010PINE        ON      N2   R$  000000000062800000000006290000000000580000000000060100000000005800000000000580000000000062900004000000000000001800000000000001082500000000000000009999123100000010000000000000BRPINEACNOR1149
012024050602PINE4       010PINE        PN      N2   R$  000000000046800000000004780000000000456000000000046400000000004600000000000458000000000046000715000000000000230500000000000107141800000000000000009999123100000010000000000000BRPINEACNPR8149
012024050602PLAS3       010PLASCAR PARTON           R$  000000000063000000000006400000000000630000000000063900000000006400000000000601000000000066900004000000000000002900000000000001854200000000000000009999123100000010000000000000BRPLASACNOR2106
012024050602PLPL3       010PLANOEPLANO ON      NM   R$  000000000120600000000012060000000001135000000000115500000000011500000000001146000000000115303555000000000001041300000000001203637300000000000000009999123100000010000000000000BRPLPLACNOR5104
012024050602PNVL3       010DIMED       ON      NM   R$  000000000113000000000011330000000001090000000000109800000000010910000000001090000000000109703686000000000000962300000000001057541700000000000000009999123100000010000000000000BRPNVLACNOR9206
012024050602POMO3       010MARCOPOLO   ON      N2   R$  000000000054700000000005470000000000512000000000051900000000005190000000000514000000000052001019000000000000562800000000000292299600000000000000009999123100000010000000000000BRPOMOACNOR0097
012024050602POMO4       010MARCOPOLO   PN      N2   R$  000000000070300000000007080000000000652000000000067200000000006600000000000656000000000066015823000000000012534700000000008435560900000000000000009999123100000010000000000000BRPOMOACNPR7097
012024050602PORT3       010WILSON SONS ON  ED  NM   R$  000000000167000000000016850000000001665000000000167300000000016750000000001666000000000167503251000000000001358400000000002273743100000000000000009999123100000010000000000000BRPORTACNOR8107
012024050602POSI3       010POSITIVO TECON  ED  NM   R$  000000000100300000000010250000000000976000000000100100000000010190000000001015000000000101904522000000000001658500000000001660903600000000000000009999123100000010000000000000BRPOSIACNOR9116
012024050602SAPR11      010SANEPAR     UNT     N2   R$  000000000270600000000027370000000002648000000000270100000000027080000000002708000000000271605932000000000001483300000000004007089600000000000000009999123100000010000000000000BRSAPRCDAM13117
012024050602SAPR3       010SANEPAR     ON      N2   R$  000000000052100000000005360000000000505000000000051500000000005180000000000517000000000051802071000000000000709000000000000365642300000000000000009999123100000010000000000000BRSAPRACNOR9158
012024050602SAPR4       010SANEPAR     PN      N2   R$  000000000055600000000005650000000000540000000000054900000000005510000000000550000000000055106030000000000004199200000000002306100800000000000000009999123100000010000000000000BRSAPRACNPR6158
012024050602SBFG3       010GRUPO SBF   ON  ED  NM   R$  000000000124200000000012780000000001221000000000124700000000012310000000001230000000000123205911000000000001417200000000001768490900000000000000009999123100000010000000000000BRSBFGACNOR1103
012024050602SBSP3       010SABESP      ON  EJ  NM   R$  000000000802700000000081240000000007975000000000803100000000079750000000007973000000000797513031000000000002788700000000022396083400000000000000009999123100000010000000000000BRSBSPACNOR5161
012024050602VALE3       010VALE        ON      NM   R$  000000000642200000000064700000000006395000000000642600000000064180000000006414000000000641829955000000000013423600000000086267203300000000000000009999123100000010000000000000BRVALEACNOR0210
012024050602ZAMP3       010ZAMP S.A.   ON           R$  000000000036000000000003790000000000351000000000036300000000003550000000000355000000000035603543000000000001299700000000000472216500000000000000009999123100000010000000000000BRZAMPACNOR5100
012024050602PDGR3       010PDG REALT   ON      NM   R$  000000000002000000000000210000000000020000000000002000000000000200000000000020000000000002100262000000000000708800000000000014641400000000000000009999123100000010000000000000BRPDGRACNOR8118
012024050602PDTC3       010PADTEC      ON  ED  NM   R$  000000000022900000000002300000000000226000000000022800000000002270000000000227000000000023000059000000000000027900000000000006370900000000000000009999123100000010000000000000BRPDTCACNOR3101
012024050602PEAB3       010PAR AL BAHIAON  ED       R$  000000000500000000000050000000000005000000000000500000000000050000000000004000000000000520000001000000000000000100000000000000500000000000000000009999123100000010000000000000BRPEABACNOR3133
012024050602PETR3       010PETROBRAS   ON  EDR N2   R$  000000000420200000000042590000000004191000000000422900000000042220000000004220000000000422411826000000000007648200000000032349915200000000000000009999123100000010000000000000BRPETRACNOR9204
012024050602PETR4       010PETROBRAS   PN  EDR N2   R$  000000000398700000000040360000000003972000000000401300000000040160000000004016000000000401753802000000000022977200000000092230174600000000000000009999123100000010000000000000BRPETRACNPR6212
012024050602PETZ3       010PETZ        ON  ED  NM   R$  000000000048700000000005070000000000480000000000049500000000005070000000000505000000000050707299000000000010550700000000005227073100000000000000009999123100000010000000000000BRPETZACNOR2110
012024050602RSUL4       010RIOSULENSE  PN           R$  000000000780000000000079000000000007458000000000763400000000074580000000007225000000000760000015000000000000001500000000000011452100000000000000009999123100000010000000000000BRRSULACNPR3114
012024050602KRSA3       010KORA SAUDE  ON      NM   R$  000000000008300000000000840000000000065000000000007200000000000730000000000072000000000007302215000000000004362500000000000316778200000000000000009999123100000010000000000000BRKRSAACNOR0100
012024050602MRVE3       010MRV         ON  ATZ NM   R$  000000000070900000000007230000000000700000000000071400000000007130000000000711000000000071411811000000000008783900000000006276736400000000000000009999123100000010000000000000BRMRVEACNOR2127
012024050602MTRE3       010MITRE REALTYON  ED  NM   R$  000000000042000000000004250000000000390000000000040000000000004150000000000414000000000041506976000000000006709900000000002690148300000000000000009999123100000010000000000000BRMTREACNOR6110
012024050602MTSA4       010METISA      PN           R$  000000000482500000000048250000000004815000000000482300000000048240000000004659000000000482500010000000000000002400000000000011576100000000000000009999123100000010000000000000BRMTSAACNPR9071
012024050602MULT3       010MULTIPLAN   ON      N2   R$  000000000244500000000024630000000002415000000000243700000000024410000000002440000000000244419883000000000005632800000000013731776100000000000000009999123100000010000000000000BRMULTACNOR5138
012024050602AERI3       010AERIS       ON      NM   R$  000000000005700000000000570000000000055000000000005500000000000560000000000055000000000005702448000000000003258900000000000181884700000000000000009999123100000010000000000000BRAERIACNOR4101
012024050602AESB3       010AES BRASIL  ON      NM   R$  000000000095300000000009780000000000946000000000096600000000009600000000000960000000000096105708000000000002428100000000002347305600000000000000009999123100000010000000000000BRAESBACNOR7106
012024050602GRND3       010GRENDENE    ON  EDJ NM   R$  000000000060200000000006070000000000600000000000060300000000006010000000000601000000000060202553000000000000804500000000000485242700000000000000009999123100000010000000000000BRGRNDACNOR3173
012024050602BPAC11      010BTGP BANCO  UNT     N2   R$  000000000353200000000035620000000003485000000000352400000000035150000000003513000000000351513679000000000007293300000000025705872200000000000000009999123100000010000000000000BRBPACUNT006118
012024050602BPAC3       010BTGP BANCO  ON      N2   R$  000000000178900000000018050000000001766000000000178200000000017910000000001760000000000181300022000000000000003700000000000006593800000000000000009999123100000010000000000000BRBPACACNOR7133
012024050602BPAC5       010BTGP BANCO  PNA     N2   R$  000000000087200000000008940000000000859000000000087000000000008750000000000862000000000087500026000000000000003700000000000003222600000000000000009999123100000010000000000000BRBPACACNPA0133
012024050602CPFE3       010CPFL ENERGIAON  ED  NM   R$  000000000327600000000033100000000003266000000000328500000000032790000000003278000000000328006166000000000001219600000000004006407500000000000000009999123100000010000000000000BRCPFEACNOR0137
012024050602CPLE3       010COPEL       ON      N2   R$  000000000088800000000008900000000000866000000000087900000000008730000000000873000000000087413591000000000007758100000000006825937700000000000000009999123100000010000000000000BRCPLEACNOR8149
012024050602CPLE5       010COPEL       PNA     N2   R$  000000000204900000000020490000000002049000000000204900000000020490000000000800000000000204900003000000000000000300000000000000614700000000000000009999123100000010000000000000BRCPLEACNPA1147
012024050602GUAR3       010GUARARAPES  ON      NM   R$  000000000087500000000009080000000000844000000000087400000000008520000000000850000000000085306615000000000002710100000000002370371100000000000000009999123100000010000000000000BRGUARACNOR4172
012024050602HAGA3       010HAGA S/A    ON           R$  000000000026100000000002650000000000261000000000026200000000002640000000000264000000000027700003000000000000000800000000000000209900000000000000009999123100000010000000000000BRHAGAACNOR7103
012024050602HAGA4       010HAGA S/A    PN           R$  000000000013400000000001420000000000133000000000013400000000001330000000000133000000000013600035000000000000018800000000000002531500000000000000009999123100000010000000000000BRHAGAACNPR4103
012024050602HAPV3       010HAPVIDA     ON      NM   R$  000000000038600000000003960000000000385000000000039100000000003880000000000387000000000038922664000000000045227800000000017685313800000000000000009999123100000010000000000000BRHAPVACNOR4113
012024050602HYPE3       010HYPERA      ON  EJ  NM   R$  000000000301400000000030430000000002994000000000300900000000030030000000003001000000000300407403000000000001449900000000004363272800000000000000009999123100000010000000000000BRHYPEACNOR0140
012024050602KEPL3       010KEPLER WEBERON      NM   R$  000000000102600000000010350000000001016000000000102300000000010190000000001018000000000102403382000000000001168700000000001196068300000000000000009999123100000010000000000000BRKEPLACNOR1062
012024050602CPLE6       010COPEL       PNB     N2   R$  000000000096100000000009760000000000947000000000096300000000009550000000000954000000000095626250000000000028038200000000027012841600000000000000009999123100000010000000000000BRCPLEACNPB9146
012024050602HBOR3       010HELBOR      ON  ED  NM   R$  000000000028800000000002960000000000285000000000028900000000002870000000000286000000000028800687000000000000380100000000000110110500000000000000009999123100000010000000000000BRHBORACNOR3118
012024050602HBRE3       010HBR REALTY  ON      NM   R$  000000000053700000000005430000000000528000000000053200000000005290000000000529000000000053300797000000000000343200000000000182881700000000000000009999123100000010000000000000BRHBREACNOR4100
012024050602HBSA3       010HIDROVIAS   ON      NM   R$  000000000044000000000004490000000000437000000000044100000000004380000000000438000000000044005309000000000005171200000000002282741800000000000000009999123100000010000000000000BRHBSAACNOR0100
012024050602HBTS5       010HABITASUL   PNA ED       R$  000000000428500000000042850000000004006000000000423800000000040060000000003755000000000438000002000000000000000600000000000002543100000000000000009999123100000010000000000000BRHBTSACNPA3128
012024050602HETA4       010HERCULES    PN           R$  000000000058200000000006300000000000550000000000056600000000006300000000000558000000000063800004000000000000000700000000000000396200000000000000009999123100000010000000000000BRHETAACNPR9136
012024050602BLAU3       010BLAU        ON  ED  NM   R$  000000000105800000000010790000000001035000000000105500000000010350000000001035000000000104401403000000000000228500000000000241205000000000000000009999123100000010000000000000BRBLAUACNOR8113
012024050602CSRN3       010COSERN      ON           R$  000000000238000000000025100000000002380000000000244500000000025100000000002410000000000252800002000000000000000200000000000000489000000000000000009999123100000010000000000000BRCSRNACNOR0192
012024050602CSUD3       010CSU DIGITAL ON  ED  NM   R$  000000000183700000000018550000000001802000000000182300000000018020000000001802000000000182700352000000000000059700000000000108886800000000000000009999123100000010000000000000BRCSUDACNOR5109
012024050602CTKA4       010KARSTEN     PN           R$  000000000194400000000019440000000001944000000000194400000000019440000000001850000000000194400001000000000000002200000000000004276800000000000000009999123100000010000000000000BRCTKAACNPR7043
012024050602CTNM4       010COTEMINAS   PN           R$  000000000011200000000001150000000000109000000000011300000000001120000000000111000000000011300206000000000000141800000000000016099500000000000000009999123100000010000000000000BRCTNMACNPR6129
012024050602DIRR3       010DIRECIONAL  ON      NM   R$  000000000246300000000024920000000002442000000000247400000000024600000000002453000000000246009385000000000001892600000000004682698200000000000000009999123100000010000000000000BRDIRRACNOR0117
012024050602MILS3       010MILLS       ON  ED  NM   R$  000000000138500000000013980000000001373000000000138700000000013800000000001379000000000138302896000000000000621600000000000862431500000000000000009999123100000010000000000000BRMILSACNOR2126
012024050602MLAS3       010MULTILASER  ON      NM   R$  000000000021000000000002130000000000197000000000020300000000001970000000000197000000000019802279000000000001907500000000000388109900000000000000009999123100000010000000000000BRMLASACNOR9101
012024050602MNDL3       010MUNDIAL     ON           R$  000000000450000000000045000000000004500000000000450000000000045000000000004321000000000461000002000000000000000500000000000002250000000000000000009999123100000010000000000000BRMNDLACNOR4107
012024050602MNPR3       010MINUPAR     ON           R$  000000000163100000000016310000000001225000000000137200000000014360000000001436000000000150000088000000000000033200000000000045581400000000000000009999123100000010000000000000BRMNPRACNOR5122
012024050602MOAR3       010MONT ARANHA ON           R$  000000003900000000000399920000000039000000000003949600000000399920000000012100000000003999200004000000000000000600000000000023697600000000000000009999123100000010000000000000BRMOARACNOR5234
012024050602MOVI3       010MOVIDA      ON      NM   R$  000000000076000000000007630000000000723000000000073800000000007310000000000730000000000073105567000000000002657900000000001962953400000000000000009999123100000010000000000000BRMOVIACNOR0122
012024050602MRFG3       010MARFRIG     ON      NM   R$  000000000096000000000009600000000000905000000000091800000000009090000000000909000000000091022425000000000010943100000000010054165300000000000000009999123100000010000000000000BRMRFGACNOR0116
012024050602LAND3       010TERRASANTAPAON  ED  NM   R$  000000000155800000000015750000000001520000000000154400000000015400000000001520000000000154100152000000000000027000000000000041699000000000000000009999123100000010000000000000BRLANDACNOR9103
012024050602LAVV3       010LAVVI       ON      NM   R$  000000000093200000000009410000000000923000000000093200000000009310000000000930000000000093202542000000000000568700000000000530255900000000000000009999123100000010000000000000BRLAVVACNOR4111
012024050602LEVE3       010METAL LEVE  ON  ED  NM   R$  000000000315300000000032050000000003147000000000316900000000031620000000003162000000000316602000000000000000339900000000001077363100000000000000009999123100000010000000000000BRLEVEACNOR2197
012024050602MYPK3       010IOCHP-MAXIONON      NM   R$  000000000129800000000013230000000001265000000000129000000000012750000000001269000000000127703447000000000000744000000000000959770300000000000000009999123100000010000000000000BRMYPKACNOR7154
012024050602AFLT3       010AFLUENTE T  ON           R$  000000000073400000000007340000000000730000000000073100000000007300000000000725000000000076400004000000000000000400000000000000292700000000000000009999123100000010000000000000BRAFLTACNOR1121
012024050602AGRO3       010BRASILAGRO  ON      NM   R$  000000000256400000000025950000000002535000000000256100000000025500000000002542000000000255901683000000000000243700000000000624349500000000000000009999123100000010000000000000BRAGROACNOR7114
012024050602AGXY3       010AGROGALAXY  ON      NM   R$  000000000017000000000001720000000000168000000000016900000000001690000000000168000000000016900478000000000000278200000000000047290300000000000000009999123100000010000000000000BRAGXYACNOR4102
012024050602ALLD3       010ALLIED      ON      NM   R$  000000000074600000000007670000000000738000000000075200000000007570000000000757000000000076000608000000000000116900000000000087953000000000000000009999123100000010000000000000BRALLDACNOR3106
012024050602ALOS3       010ALLOS       ON  ED  NM   R$  000000000211800000000021230000000002080000000000209400000000020930000000002092000000000209510802000000000004547800000000009525068700000000000000009999123100000010000000000000BRALOSACNOR5101
012024050602CLSA3       010CLEARSALE   ON      NM   R$  000000000080000000000008260000000000781000000000080000000000008000000000000799000000000080003783000000000001942200000000001555507400000000000000009999123100000010000000000000BRCLSAACNOR0100
012024050602CLSC4       010CELESC      PN  ED  N2   R$  000000000727000000000072700000000007026000000000712300000000071480000000007010000000000714900036000000000000005600000000000039891900000000000000009999123100000010000000000000BRCLSCACNPR3130
012024050602CMIG3       010CEMIG       ON  EDB N1   R$  000000000120300000000012340000000001200000000000121900000000012100000000001210000000000122801697000000000000524000000000000639252300000000000000009999123100000010000000000000BRCMIGACNOR6241
012024050602CMIG4       010CEMIG       PN  EDB N1   R$  000000000105200000000010630000000001043000000000104900000000010430000000001043000000000104520436000000000012790100000000013425835500000000000000009999123100000010000000000000BRCMIGACNPR3242
012024050602CMIN3       010CSNMINERACAOON      N2   R$  000000000051900000000005290000000000511000000000051800000000005110000000000511000000000051213978000000000007448800000000003860064800000000000000009999123100000010000000000000BRCMINACNOR2110
012024050602DMVF3       010D1000VFARMA ON      NM   R$  000000000074500000000007650000000000737000000000074600000000007370000000000737000000000074900574000000000000104300000000000077859000000000000000009999123100000010000000000000BRDMVFACNOR9100
012024050602DOHL4       010DOHLER      PN           R$  000000000043100000000004570000000000431000000000043700000000004570000000000437000000000045700002000000000000000400000000000000175000000000000000009999123100000010000000000000BRDOHLACNPR9066
012024050602DOTZ3       010DOTZ SA     ON      NM   R$  000000000084900000000009090000000000839000000000087900000000008800000000000884000000000088600078000000000000016500000000000014518400000000000000009999123100000010000000000000BRDOTZACNOR7101
012024050602NEOE3       010NEOENERGIA  ON      NM   R$  000000000197600000000019870000000001964000000000197700000000019710000000001970000000000197803777000000000001628500000000003220368600000000000000009999123100000010000000000000BRNEOEACNOR3122
012024050602NGRD3       010NEOGRID     ON      NM   R$  000000000010800000000001120000000000107000000000010900000000001090000000000108000000000010901218000000000001021000000000000111617800000000000000009999123100000010000000000000BRNGRDACNOR3104
012024050602NINJ3       010GETNINJAS   ON      NM   R$  000000000047100000000004900000000000471000000000047800000000004900000000000473000000000049000101000000000000013600000000000006512200000000000000009999123100000010000000000000BRNINJACNOR5101
012024050602JHSF3       010JHSF PART   ON  ED  NM   R$  000000000043700000000004370000000000426000000000042900000000004260000000000425000000000042704980000000000003805300000000001635086300000000000000009999123100000010000000000000BRJHSFACNOR2135
012024050602JSLG3       010JSL         ON      NM   R$  000000000120000000000012000000000001157000000000117000000000011570000000001157000000000116301561000000000000343600000000000402312300000000000000009999123100000010000000000000BRJSLGACNOR2121
012024050602MAPT3       010CEMEPE      ON           R$  000000000070000000000007080000000000660000000000069300000000006600000000000668000000000070000009000000000000002700000000000001872700000000000000009999123100000010000000000000BRMAPTACNOR8106
012024050602MAPT4       010CEMEPE      PN           R$  000000000080000000000008000000000000655000000000071200000000006960000000000657000000000069700023000000000000002500000000000001780600000000000000009999123100000010000000000000BRMAPTACNPR5106
012024050602MATD3       010MATER DEI   ON  ED  NM   R$  000000000057900000000006040000000000578000000000059300000000005900000000000590000000000059401437000000000000446600000000000264855100000000000000009999123100000010000000000000BRMATDACNOR4104
012024050602MBLY3       010MOBLY       ON      NM   R$  000000000023000000000002400000000000230000000000023400000000002340000000000232000000000023400507000000000001022300000000000240030400000000000000009999123100000010000000000000BRMBLYACNOR5100
012024050602PCAR3       010P.ACUCAR-CBDON      NM   R$  000000000033800000000003490000000000331000000000034100000000003480000000000348000000000034910844000000000017121900000000005848607100000000000000009999123100000010000000000000BRPCARACNOR3167
012024050602ODPV3       010ODONTOPREV  ON      NM   R$  000000000120400000000012300000000001204000000000122000000000012200000000001217000000000122503379000000000001409900000000001721392600000000000000009999123100000010000000000000BRODPVACNOR4200
012024050602OFSA3       010OUROFINO S/AON  ED  NM   R$  000000000214100000000021860000000002000000000000208600000000021860000000002000000000000220000025000000000000007000000000000014603700000000000000009999123100000010000000000000BROFSAACNOR7118
012024050602ONCO3       010ONCOCLINICASON      NM   R$  000000000073800000000007460000000000719000000000072900000000007320000000000725000000000073207130000000000002502400000000001825872900000000000000009999123100000010000000000000BRONCOACNOR6100
012024050602OPCT3       010OCEANPACT   ON      NM   R$  000000000067200000000006720000000000649000000000065800000000006550000000000653000000000065501936000000000000668400000000000440181500000000000000009999123100000010000000000000BROPCTACNOR0100
012024050602ORVR3       010ORIZON      ON      NM   R$  000000000405900000000041070000000003890000000000395100000000039140000000003914000000000391802096000000000000519500000000002052619800000000000000009999123100000010000000000000BRORVRACNOR0101
012024050602ROMI3       010ROMI        ON      NM   R$  000000000104600000000010560000000001037000000000104800000000010370000000001037000000000104801027000000000000249200000000000261213900000000000000009999123100000010000000000000BRROMIACNOR8194
012024050602RPAD3       010ALFA HOLDINGON           R$  000000000100000000000010000000000001000000000000100000000000010000000000000805000000000100000003000000000000000400000000000000400000000000000000009999123100000010000000000000BRRPADACNOR1198
012024050602RRRP3       0103R PETROLEUMON  ED  NM   R$  000000000333700000000034250000000003301000000000338100000000033640000000003363000000000336512225000000000003609600000000012204833900000000000000009999123100000010000000000000BRRRRPACNOR5103
012024050602TPIS3       010TRIUNFO PARTON      NM   R$  000000000038700000000003990000000000385000000000039200000000003990000000000388000000000039900101000000000000041200000000000016181400000000000000009999123100000010000000000000BRTPISACNOR8118
012024050602TRAD3       010TC          ON      NM   R$  000000000008200000000000830000000000079000000000008000000000000810000000000080000000000008100174000000000000221800000000000017818800000000000000009999123100000010000000000000BRTRADACNOR3101
012024050602TRIS3       010TRISUL      ON  ED  NM   R$  000000000046400000000004780000000000464000000000047400000000004750000000000474000000000047700818000000000000359100000000000170225300000000000000009999123100000010000000000000BRTRISACNOR4118
012024050602TRPL3       010TRAN PAULISTON      N1   R$  000000000327800000000034920000000003278000000000343900000000034820000000003440000000000348800021000000000000002400000000000008254700000000000000009999123100000010000000000000BRTRPLACNOR4185
012024050602TRPL4       010TRAN PAULISTPN      N1   R$  000000000261400000000026690000000002603000000000264900000000026450000000002643000000000264710897000000000002484400000000006582521200000000000000009999123100000010000000000000BRTRPLACNPR1185
012024050602TTEN3       0103TENTOS     ON      NM   R$  000000000098900000000009890000000000903000000000093400000000009500000000000948000000000095013930000000000004805600000000004491613400000000000000009999123100000010000000000000BRTTENACNOR0103
012024050602TUPY3       010TUPY        ON      NM   R$  000000000264100000000026690000000002603000000000263000000000026030000000002603000000000261701766000000000000302600000000000796094300000000000000009999123100000010000000000000BRTUPYACNOR1183
012024050602UCAS3       010UNICASA     ON      NM   R$  000000000024400000000002440000000000237000000000024000000000002440000000000241000000000024400171000000000000024400000000000005872400000000000000009999123100000010000000000000BRUCASACNOR1113
012024050602UGPA3       010ULTRAPAR    ON      NM   R$  000000000266400000000026940000000002617000000000265400000000026190000000002618000000000262014876000000000005408700000000014357695400000000000000009999123100000010000000000000BRUGPAACNOR8155
012024050602VLID3       010VALID       ON      NM   R$  000000000176900000000018120000000001752000000000177300000000017570000000001753000000000176001718000000000000250600000000000444382900000000000000009999123100000010000000000000BRVLIDACNOR5142
012024050602VSTE3       010VESTE       ON  ED  NM   R$  000000000139500000000014090000000001382000000000138900000000013840000000001378000000000144700023000000000000002500000000000003473100000000000000009999123100000010000000000000BRVSTEACNOR5103
012024050602VULC3       010VULCABRAS   ON      NM   R$  000000000163700000000016520000000001620000000000163800000000016350000000001633000000000163802250000000000000360900000000000591299100000000000000009999123100000010000000000000BRVULCACNOR2158
012024050602VVEO3       010VIVEO       ON  ED  NM   R$  000000000053300000000005480000000000439000000000047300000000004670000000000467000000000047009734000000000004063100000000001925885600000000000000009999123100000010000000000000BRVVEOACNOR0104
012024050602SANB11      010SANTANDER BRUNT          R$  000000000297400000000030400000000002959000000000299200000000029600000000002958000000000296711129000000000003593200000000010753345600000000000000009999123100000010000000000000BRSANBCDAM13164
012024050602SANB3       010SANTANDER BRON           R$  000000000137900000000014250000000001379000000000140200000000013850000000001385000000000139000759000000000000147200000000000206499700000000000000009999123100000010000000000000BRSANBACNOR8171
012024050602SANB4       010SANTANDER BRPN           R$  000000000158000000000016110000000001558000000000158300000000015580000000001558000000000157700780000000000000189300000000000299695500000000000000009999123100000010000000000000BRSANBACNPR5171
012024050602UNIP3       010UNIPAR      ON           R$  000000000546900000000054690000000005361000000000540500000000053890000000005383000000000544000047000000000000007100000000000038379400000000000000009999123100000010000000000000BRUNIPACNOR7206
012024050602UNIP6       010UNIPAR      PNB          R$  000000000539900000000054810000000005391000000000544400000000054160000000005415000000000542701257000000000000186400000000001014881200000000000000009999123100000010000000000000BRUNIPACNPB8206
012024050602USIM3       010USIMINAS    ON  ED  N1   R$  000000000077000000000007730000000000755000000000076500000000007550000000000755000000000075701628000000000000591800000000000453204200000000000000009999123100000010000000000000BRUSIMACNOR3167
012024050602USIM5       010USIMINAS    PNA ED  N1   R$  000000000080200000000008200000000000802000000000080800000000008040000000000803000000000080521549000000000015486100000000012520875800000000000000009999123100000010000000000000BRUSIMACNPA6169
012024050602WEST3       010WESTWING    ON      NM   R$  000000000011900000000001210000000000118000000000011900000000001190000000000118000000000012000035000000000000017600000000000002110400000000000000009999123100000010000000000000BRWESTACNOR3100
012024050602WHRL3       010WHIRLPOOL   ON           R$  000000000046800000000004680000000000468000000000046800000000004680000000000467000000000047200004000000000000000400000000000000187200000000000000009999123100000010000000000000BRWHRLACNOR5128
012024050602WHRL4       010WHIRLPOOL   PN           R$  000000000047500000000004790000000000468000000000047400000000004680000000000468000000000047800030000000000000008300000000000003939000000000000000009999123100000010000000000000BRWHRLACNPR2128
012024050602WIZC3       010WIZ CO      ON  EDJ NM   R$  000000000072000000000007330000000000718000000000072400000000007180000000000718000000000072301252000000000000297600000000000215553100000000000000009999123100000010000000000000BRWIZCACNOR5102
012024050602WLMM4       010WLM IND COM PN  ED       R$  000000000320300000000034520000000003200000000000326200000000032600000000003259000000000335000013000000000000001700000000000005546000000000000000009999123100000010000000000000BRWLMMACNPR3118
012024050602YDUQ3       010YDUQS PART  ON  ED  NM   R$  000000000160100000000016730000000001600000000000164100000000016350000000001635000000000163913521000000000004467400000000007332710000000000000000009999123100000010000000000000BRYDUQACNOR3105
012024050602WEGE3       010WEG         ON      NM   R$  000000000386100000000038920000000003840000000000386800000000038630000000003863000000000386509942000000000002810000000000010869512300000000000000009999123100000010000000000000BRWEGEACNOR0222
012024050602RECV3       010PETRORECSA  ON  ED  NM   R$  000000000216000000000021990000000002143000000000217400000000021520000000002152000000000215608712000000000002596500000000005646939400000000000000009999123100000010000000000000BRRECVACNOR3106
012024050602REDE3       010REDE ENERGIAON           R$  000000000068500000000006860000000000685000000000068500000000006860000000000686000000000069200007000000000000000700000000000000479800000000000000009999123100000010000000000000BRREDEACNOR7127
012024050602RENT3       010LOCALIZA    ON      NM   R$  000000000495000000000049960000000004862000000000492600000000048880000000004886000000000489013228000000000005970600000000029414123100000000000000009999123100000010000000000000BRRENTACNOR4195
012024050602TASA3       010TAURUS ARMASON  ED  N2   R$  000000000125200000000012650000000001233000000000124500000000012330000000001233000000000124000068000000000000019000000000000023658500000000000000009999123100000010000000000000BRTASAACNOR7104
012024050602TASA4       010TAURUS ARMASPN  ED  N2   R$  000000000120300000000012100000000001176000000000118800000000011790000000001179000000000118202195000000000000443600000000000527009300000000000000009999123100000010000000000000BRTASAACNPR4104
012024050602TCSA3       010TECNISA     ON      NM   R$  000000000024300000000002470000000000243000000000024500000000002440000000000243000000000024700098000000000000032600000000000007988100000000000000009999123100000010000000000000BRTCSAACNOR3112
012024050602TECN3       010TECHNOS     ON      NM   R$  000000000044200000000004580000000000440000000000044900000000004540000000000454000000000045700205000000000000086600000000000038962100000000000000009999123100000010000000000000BRTECNACNOR6109
012024050602TELB3       010TELEBRAS    ON           R$  000000000144500000000014500000000001445000000000144000000000014500000000001430000000000147500004000000000000000500000000000000720200000000000000009999123100000010000000000000BRTELBACNOR2140
012024050602TELB4       010TELEBRAS    PN           R$  000000000096000000000009970000000000960000000000097500000000009700000000000969000000000099500010000000000000001200000000000001170700000000000000009999123100000010000000000000BRTELBACNPR9140
012024050602TEND3       010TENDA       ON      NM   R$  000000000134500000000013740000000001295000000000132800000000013110000000001310000000000131908434000000000002995100000000003978265000000000000000009999123100000010000000000000BRTENDACNOR4111
012024050602TFCO4       010TRACK FIELD PN  ED  N2   R$  000000000117000000000012160000000001162000000000117600000000011700000000001165000000000117000521000000000000114000000000000134130300000000000000009999123100000010000000000000BRTFCOACNPR8113
012024050602TGMA3       010TEGMA       ON      NM   R$  000000000258000000000026600000000002580000000000261500000000026360000000002614000000000263800894000000000000201700000000000527461600000000000000009999123100000010000000000000BRTGMAACNOR7144
012024050602TIMS3       010TIM         ON      NM   R$  000000000187200000000018720000000001842000000000185300000000018550000000001854000000000185511833000000000004946800000000009171034100000000000000009999123100000010000000000000BRTIMSACNOR5116
012024050602TOTS3       010TOTVS       ON      NM   R$  000000000281000000000028260000000002791000000000280400000000027910000000002790000000000280006640000000000002588900000000007260175000000000000000009999123100000010000000000000BRTOTSACNOR8144
012024050602VITT3       010VITTIA      ON      NM   R$  000000000056600000000005660000000000546000000000055200000000005500000000000550000000000055300851000000000000359700000000000198659600000000000000009999123100000010000000000000BRVITTACNOR4107
012024050602VIVA3       010VIVARA S.A. ON  ED  NM   R$  000000000226900000000023250000000002269000000000230300000000023070000000002305000000000230809071000000000004107000000000009458946500000000000000009999123100000010000000000000BRVIVAACNOR0107
012024050602VIVR3       010VIVER       ON      NM   R$  000000000029700000000003000000000000296000000000029700000000002970000000000297000000000029800031000000000000013400000000000003991700000000000000009999123100000010000000000000BRVIVRACNOR4122
012024050602VIVT3       010TELEF BRASILON  EJ       R$  000000000501000000000050810000000004989000000000505300000000050560000000005048000000000505608774000000000002272300000000011482489600000000000000009999123100000010000000000000BRVIVTACNOR0181
012024050602RANI3       010IRANI       ON  ED  NM   R$  000000000090900000000009160000000000898000000000090600000000008990000000000898000000000089901814000000000000573900000000000519955900000000000000009999123100000010000000000000BRRANIACNOR5071
012024050602RAPT3       010RANDON PART ON      N1   R$  000000000095000000000009600000000000940000000000095100000000009600000000000950000000000096000070000000000000017200000000000016369000000000000000009999123100000010000000000000BRRAPTACNOR7162
012024050602RAPT4       010RANDON PART PN      N1   R$  000000000112000000000011440000000001118000000000112800000000011210000000001120000000000112106021000000000002528900000000002853644900000000000000009999123100000010000000000000BRRAPTACNPR4162
012024050602RCSL3       010RECRUSUL    ON           R$  000000000016300000000001650000000000161000000000016200000000001610000000000160000000000016101648000000000001606000000000000260945200000000000000009999123100000010000000000000BRRCSLACNOR4133
012024050602RCSL4       010RECRUSUL    PN           R$  000000000005000000000000510000000000049000000000004900000000000490000000000049000000000005000553000000000001133400000000000056374900000000000000009999123100000010000000000000BRRCSLACNPR1133
012024050602RDNI3       010RNI         ON      NM   R$  000000000036200000000003620000000000356000000000035900000000003620000000000360000000000036900011000000000000003200000000000001150900000000000000009999123100000010000000000000BRRDNIACNOR9116
012024050602RDOR3       010REDE D OR   ON      NM   R$  000000000266000000000027450000000002659000000000272500000000027210000000002720000000000272215328000000000006168900000000016811898600000000000000009999123100000010000000000000BRRDORACNOR8112
012024050602SYNE3       010SYN PROP TECON      NM   R$  000000000093600000000009440000000000920000000000092600000000009200000000000919000000000092500552000000000000155900000000000144484300000000000000009999123100000010000000000000BRSYNEACNOR2102
012024050602TAEE11      010TAESA       UNT ED  N2   R$  000000000349600000000035780000000003452000000000352700000000035560000000003556000000000355913614000000000005025800000000017727037700000000000000009999123100000010000000000000BRTAEECDAM10146
012024050602TAEE3       010TAESA       ON  ED  N2   R$  000000000116800000000011860000000001145000000000116900000000011840000000001181000000000118400883000000000000215200000000000251764800000000000000009999123100000010000000000000BRTAEEACNOR9146
012024050602TAEE4       010TAESA       PN  ED  N2   R$  000000000118000000000011950000000001158000000000118000000000011900000000001190000000000119301172000000000000336000000000000396610400000000000000009999123100000010000000000000BRTAEEACNPR6146
012024050602VAMO3       010VAMOS       ON      NM   R$  000000000074600000000007510000000000723000000000073300000000007280000000000728000000000073312305000000000008751300000000006417922000000000000000009999123100000010000000000000BRVAMOACNOR7105
012024050602VBBR3       010VIBRA       ON      NM   R$  000000000241000000000024140000000002331000000000235900000000023470000000002345000000000234820099000000000006061200000000014301459400000000000000009999123100000010000000000000BRVBBRACNOR1107
012024050602RADL3       010RAIADROGASILON      NM   R$  000000000262000000000026380000000002599000000000262400000000026330000000002633000000000263511723000000000003734800000000009803273300000000000000009999123100000010000000000000BRRADLACNOR0156
012024050602RAIL3       010RUMO S.A.   ON  ED  NM   R$  000000000209000000000021090000000002072000000000208600000000020800000000002080000000000208712567000000000009489600000000019800883900000000000000009999123100000010000000000000BRRAILACNOR9105
012024050602RAIZ4       010RAIZEN      PN      N2   R$  000000000032100000000003280000000000316000000000032100000000003160000000000316000000000031718843000000000015719700000000005055870800000000000000009999123100000010000000000000BRRAIZACNPR6110
012024050602SNSY5       010SANSUY      PNA          R$  000000000061000000000006290000000000607000000000062200000000006280000000000609000000000062900009000000000000001700000000000001058500000000000000009999123100000010000000000000BRSNSYACNPA5111
012024050602SOJA3       010BOA SAFRA   ON      NM   R$  000000000181300000000018650000000001802000000000183600000000018300000000001828000000000183002502000000000000448400000000000823443900000000000000009999123100000010000000000000BRSOJAACNOR9105
012024050602SOMA3       010GRUPO SOMA  ON      NM   R$  000000000061700000000006210000000000607000000000061300000000006110000000000610000000000061111775000000000008555700000000005252620800000000000000009999123100000010000000000000BRSOMAACNOR3102
012024050602SRNA3       010SERENA      ON      NM   R$  000000000089500000000009250000000000881000000000090300000000008910000000000884000000000089114254000000000005345900000000004829761100000000000000009999123100000010000000000000BRSRNAACNOR4100
012024050602DXCO3       010DEXCO       ON      NM   R$  000000000077300000000007850000000000753000000000076300000000007550000000000755000000000075705133000000000003714200000000002837066700000000000000009999123100000010000000000000BRDXCOACNOR8105
012024050602EALT3       010ACO ALTONA  ON  EDJ      R$  000000000098800000000009880000000000988000000000098800000000009880000000000000000000000098800002000000000000000200000000000000197600000000000000009999123100000010000000000000BREALTACNOR4138
012024050602EALT4       010ACO ALTONA  PN  EDJ      R$  000000000097400000000009740000000000974000000000097400000000009740000000000973000000000098000001000000000000000100000000000000097400000000000000009999123100000010000000000000BREALTACNPR1138
012024050602ECOR3       010ECORODOVIAS ON      NM   R$  000000000073500000000007400000000000704000000000072200000000007090000000000709000000000071007498000000000005283800000000003815571300000000000000009999123100000010000000000000BRECORACNOR8119
012024050602EGIE3       010ENGIE BRASILON      NM   R$  000000000426300000000043290000000004234000000000430700000000043290000000004320000000000432909038000000000002468800000000010635141200000000000000009999123100000010000000000000BREGIEACNOR9125
012024050602GGPS3       010GPS         ON      NM   R$  000000000192000000000019560000000001901000000000192700000000019100000000001901000000000191106728000000000001641900000000003164979200000000000000009999123100000010000000000000BRGGPSACNOR9103
012024050602GMAT3       010GRUPO MATEUSON      NM   R$  000000000075800000000007680000000000745000000000075500000000007520000000000750000000000075307097000000000004062000000000003066971900000000000000009999123100000010000000000000BRGMATACNOR7101
012024050602GOAU3       010GERDAU MET  ON      N1   R$  000000000113500000000011720000000001132000000000114900000000011400000000001139000000000114200403000000000000111900000000000128589700000000000000009999123100000010000000000000BRGOAUACNOR1266
012024050602GOAU4       010GERDAU MET  PN      N1   R$  000000000114500000000011650000000001138000000000114900000000011410000000001141000000000114212848000000000014669600000000016861405100000000000000009999123100000010000000000000BRGOAUACNPR8267
012024050602JALL3       010JALLESMACHADON      NM   R$  000000000071800000000007180000000000702000000000070600000000007080000000000705000000000070801992000000000000832700000000000588551500000000000000009999123100000010000000000000BRJALLACNOR0105
012024050602JBSS3       010JBS         ON      NM   R$  000000000240000000000024180000000002340000000000237800000000023880000000002386000000000238919257000000000008086900000000019234993800000000000000009999123100000010000000000000BRJBSSACNOR8121
012024050602CGRA3       010GRAZZIOTIN  ON           R$  000000000267000000000026700000000002580000000000261900000000025800000000002550000000000258000039000000000000013100000000000034312000000000000000009999123100000010000000000000BRCGRAACNOR2082
012024050602CGRA4       010GRAZZIOTIN  PN           R$  000000000272100000000027230000000002641000000000268600000000027000000000002685000000000275000025000000000000005000000000000013433100000000000000009999123100000010000000000000BRCGRAACNPR9082
012024050602CIEL3       010CIELO       ON      NM   R$  000000000055900000000005600000000000556000000000055800000000005590000000000558000000000055909014000000000016040600000000008956124200000000000000009999123100000010000000000000BRCIELACNOR3157
012024050602DASA3       010DASA        ON      NM   R$  000000000046500000000004710000000000429000000000044400000000004290000000000428000000000043401937000000000000555700000000000247029800000000000000009999123100000010000000000000BRDASAACNOR1122
012024050602DESK3       010DESKTOP     ON      NM   R$  000000000136900000000013690000000001306000000000133200000000013410000000001338000000000134100730000000000000176700000000000235530900000000000000009999123100000010000000000000BRDESKACNOR2104
012024050602DEXP3       010DEXXOS PAR  ON  ED  N1   R$  000000000107100000000011300000000001068000000000111100000000011300000000001122000000000113000551000000000000088800000000000098697000000000000000009999123100000010000000000000BRDEXPACNOR1105
012024050602DEXP4       010DEXXOS PAR  PN  ED  N1   R$  000000000108400000000010850000000001052000000000107900000000010520000000001051000000000107900016000000000000003800000000000004102600000000000000009999123100000010000000000000BRDEXPACNPR8105
012024050602CRFB3       010CARREFOUR BRON      NM   R$  000000000114100000000011410000000001113000000000112400000000011220000000001122000000000112306415000000000003843900000000004321185800000000000000009999123100000010000000000000BRCRFBACNOR2116
012024050602CRPG5       010CRISTAL     PNA          R$  000000000299000000000030600000000002987000000000302900000000030520000000003021000000000309900020000000000000009800000000000029692600000000000000009999123100000010000000000000BRCRPGACNPA3118
012024050602CRPG6       010CRISTAL     PNB          R$  000000000293100000000030500000000002931000000000298300000000030500000000003001000000000305000013000000000000003900000000000011634500000000000000009999123100000010000000000000BRCRPGACNPB1118
012024050602CSAN3       010COSAN       ON  ATZ NM   R$  000000000147400000000014750000000001420000000000143700000000014230000000001422000000000142419946000000000018056100000000025950577900000000000000009999123100000010000000000000BRCSANACNOR6125
012024050602ELMD3       010ELETROMIDIA ON  ED  NM   R$  000000000176800000000018000000000001760000000000179100000000017950000000001795000000000179800175000000000000055300000000000099049300000000000000009999123100000010000000000000BRELMDACNOR3101
012024050602EMAE4       010EMAE        PN           R$  000000000574500000000057950000000005056000000000539900000000053500000000005289000000000539900202000000000000022400000000000120947600000000000000009999123100000010000000000000BREMAEACNPR1125
012024050602EMBR3       010EMBRAER     ON      NM   R$  000000000342500000000034820000000003402000000000344100000000034350000000003435000000000343619267000000000004857000000000016714312600000000000000009999123100000010000000000000BREMBRACNOR4191
012024050602ENAT3       010ENAUTA PART ON      NM   R$  000000000281100000000028690000000002761000000000281700000000027810000000002777000000000278806895000000000002027200000000005711443900000000000000009999123100000010000000000000BRENATACNOR0104
012024050602AZEV3       010AZEVEDO     ON           R$  000000000015000000000001510000000000141000000000014400000000001460000000000144000000000014600531000000000000457300000000000066034200000000000000009999123100000010000000000000BRAZEVACNOR0121
012024050602AZEV4       010AZEVEDO     PN           R$  000000000014900000000001490000000000136000000000014000000000001380000000000138000000000013901638000000000003787300000000000530269200000000000000009999123100000010000000000000BRAZEVACNPR7121
012024050602AZUL4       010AZUL        PN      N2   R$  000000000108000000000011110000000001077000000000109500000000010930000000001093000000000109409943000000000010929200000000011969657700000000000000009999123100000010000000000000BRAZULACNPR4102
012024050602BEES3       010BANESTES    ON  EDJ      R$  000000000091500000000009270000000000898000000000091500000000008980000000000896000000000090500131000000000000020500000000000018760500000000000000009999123100000010000000000000BRBEESACNOR9390
012024050602BEES4       010BANESTES    PN  EDJ      R$  000000000099100000000009910000000000963000000000096900000000009720000000000960000000000096700017000000000000002700000000000002618200000000000000009999123100000010000000000000BRBEESACNPR6315
012024050602BEEF3       010MINERVA     ON      NM   R$  000000000061800000000006210000000000590000000000059800000000006010000000000600000000000060118238000000000024416600000000014619958000000000000000009999123100000010000000000000BRBEEFACNOR6116
012024050602BRAP3       010BRADESPAR   ON  ED  N1   R$  000000000195300000000019700000000001943000000000195300000000019570000000001949000000000195800398000000000000067100000000000131111900000000000000009999123100000010000000000000BRBRAPACNOR5148
012024050602BRAP4       010BRADESPAR   PN  ED  N1   R$  000000000202800000000020390000000002011000000000202500000000020300000000002027000000000203006792000000000003794100000000007685860000000000000000009999123100000010000000000000BRBRAPACNPR2148
012024050602BRBI11      010BR PARTNERS UNT     N2   R$  000000000150100000000015030000000001473000000000148500000000014760000000001475000000000148400583000000000000092400000000000137295800000000000000009999123100000010000000000000BRBRBICDAM10108
012024050602BRFS3       010BRF SA      ON  ATZ NM   R$  000000000167000000000016700000000001581000000000161600000000016180000000001616000000000161934535000000000018798600000000030394558400000000000000009999123100000010000000000000BRBRFSACNOR8122
012024050602BGIP4       010BANESE      PN           R$  000000000235000000000023500000000002320000000000233200000000023200000000002251000000000239900003000000000000000300000000000000699600000000000000009999123100000010000000000000BRBGIPACNPR8208
012024050602BPAN4       010BANCO PAN   PN      N1   R$  000000000094000000000009640000000000934000000000094900000000009540000000000948000000000095502787000000000001216600000000001155399500000000000000009999123100000010000000000000BRBPANACNPR1115
012024050602LJQQ3       010QUERO-QUERO ON      NM   R$  000000000045500000000004700000000000419000000000043600000000004320000000000431000000000043510286000000000007629500000000003330416200000000000000009999123100000010000000000000BRLJQQACNOR5104
012024050602LOGG3       010LOG COM PROPON      NM   R$  000000000229000000000023090000000002262000000000228700000000022620000000002262000000000227100933000000000000127500000000000291597600000000000000009999123100000010000000000000BRLOGGACNOR7107
012024050602LOGN3       010LOG-IN      ON      NM   R$  000000000410300000000041030000000003970000000000400200000000039750000000003970000000000398000198000000000000031800000000000127273800000000000000009999123100000010000000000000BRLOGNACNOR3105
012024050602LPSB3       010LOPES BRASILON  ED  NM   R$  000000000021800000000002220000000000218000000000022000000000002200000000000220000000000022200122000000000000035900000000000007912500000000000000009999123100000010000000000000BRLPSBACNOR0114
012024050602LREN3       010LOJAS RENNERON      NM   R$  000000000162600000000016460000000001582000000000160100000000015950000000001594000000000159623418000000000017754800000000028433403300000000000000009999123100000010000000000000BRLRENACNOR1220
012024050602ASAI3       010ASSAI       ON      NM   R$  000000000135300000000013630000000001322000000000133800000000013340000000001331000000000133613028000000000007469100000000009999856600000000000000009999123100000010000000000000BRASAIACNOR0106
012024050602ATOM3       010ATOMPAR     ON           R$  000000000022900000000002290000000000218000000000022500000000002250000000000224000000000022600038000000000000008700000000000001958800000000000000009999123100000010000000000000BRATOMACNOR1106
012024050602AURE3       010AUREN       ON      NM   R$  000000000117100000000011880000000001164000000000117400000000011650000000001165000000000116608563000000000005841900000000006858991000000000000000009999123100000010000000000000BRAUREACNOR9104
012024050602AVLL3       010ALPHAVILLE  ON      NM   R$  000000000035800000000003790000000000356000000000036400000000003790000000000355000000000037900003000000000000000300000000000000109300000000000000009999123100000010000000000000BRAVLLACNOR5103
012024050602BMEB3       010MERCANTIL   ON      N1   R$  000000000246600000000024660000000002401000000000243400000000024010000000001701000000000249000004000000000000000400000000000000973900000000000000009999123100000010000000000000BRBMEBACNOR8205
012024050602BMEB4       010MERCANTIL   PN      N1   R$  000000000260000000000026270000000002524000000000258900000000026110000000002610000000000265800086000000000000020800000000000053867600000000000000009999123100000010000000000000BRBMEBACNPR5210
012024050602BMGB4       010BANCO BMG   PN      N1   R$  000000000033500000000003450000000000335000000000034000000000003350000000000335000000000034000894000000000000568900000000000193786200000000000000009999123100000010000000000000BRBMGBACNPR0109
012024050602BMKS3       010BIC MONARK  ON  ED       R$  000000003530100000000399700000000035301000000003894200000000395000000000035602000000003950000007000000000000000010000000000000389422000000000000009999123100000010000000000000BRBMKSACNOR9166
012024050602BMOB3       010BEMOBI TECH ON      NM   R$  000000000123000000000012370000000001194000000000120700000000011940000000001193000000000120201983000000000000387000000000000467112900000000000000009999123100000010000000000000BRBMOBACNOR7103
012024050602LVTC3       010WDC NETWORKSON      NM   R$  000000000038900000000003950000000000384000000000039100000000003920000000000391000000000039500045000000000000008700000000000003402500000000000000009999123100000010000000000000BRLVTCACNOR4102
012024050602LWSA3       010LWSA        ON      NM   R$  000000000049900000000005050000000000494000000000049800000000004950000000000494000000000049504764000000000003363200000000001676047100000000000000009999123100000010000000000000BRLWSAACNOR8103
012024050602KLBN11      010KLABIN S/A  UNT ED  N2   R$  000000000230700000000023240000000002284000000000229300000000022900000000002289000000000229010350000000000007783300000000017854648200000000000000009999123100000010000000000000BRKLBNCDAM18141
012024050602KLBN3       010KLABIN S/A  ON  ED  N2   R$  000000000046800000000004700000000000459000000000046300000000004590000000000459000000000046201015000000000000530800000000000245870600000000000000009999123100000010000000000000BRKLBNACNOR2169
012024050602KLBN4       010KLABIN S/A  PN  ED  N2   R$  000000000046900000000004700000000000459000000000046300000000004610000000000460000000000046102820000000000001986300000000000921238800000000000000009999123100000010000000000000BRKLBNACNPR9169
012024050602AALR3       010ALLIAR      ON      NM   R$  000000000104300000000010690000000001016000000000105200000000010640000000001064000000000106700647000000000000122500000000000128881200000000000000009999123100000010000000000000BRAALRACNOR6102
012024050602ABCB4       010ABC BRASIL  PN      N2   R$  000000000226800000000022960000000002245000000000227100000000022620000000002261000000000227703591000000000000698500000000001586976600000000000000009999123100000010000000000000BRABCBACNPR4145
012024050602ABEV3       010AMBEV S/A   ON           R$  000000000123900000000012510000000001229000000000124400000000012450000000001244000000000124522551000000000018713000000000023283230400000000000000009999123100000010000000000000BRABEVACNOR1127
012024050602BBDC3       010BRADESCO    ON  EJ  N1   R$  000000000124700000000012470000000001224000000000123300000000012320000000001231000000000123213755000000000008626300000000010640777900000000000000009999123100000010000000000000BRBBDCACNOR1769
012024050602BBDC4       010BRADESCO    PN  EJ  N1   R$  000000000137700000000013840000000001369000000000137700000000013770000000001377000000000137831561000000000030205500000000041619230800000000000000009999123100000010000000000000BRBBDCACNPR8769
012024050602CCRO3       010CCR SA      ON      NM   R$  000000000127200000000012860000000001250000000000126600000000012500000000001248000000000125113867000000000006717200000000008504720300000000000000009999123100000010000000000000BRCCROACNOR2145
012024050602CEAB3       010CEA MODAS   ON      NM   R$  000000000120000000000012330000000001181000000000120600000000012000000000001199000000000120108259000000000004218700000000005088310800000000000000009999123100000010000000000000BRCEABACNOR1102
012024050602CEBR3       010CEB         ON  ED       R$  000000000270300000000027480000000002700000000000273200000000027300000000002730000000000274000046000000000000007400000000000020217000000000000000009999123100000010000000000000BRCEBRACNOR5125
012024050602CEBR5       010CEB         PNA ED       R$  000000000226000000000022600000000002100000000000219800000000022420000000002215000000000224800035000000000000005900000000000012972400000000000000009999123100000010000000000000BRCEBRACNPA8124
012024050602CEBR6       010CEB         PNB ED       R$  000000000223000000000023200000000002230000000000229400000000023200000000002270000000000232000026000000000000003900000000000008946900000000000000009999123100000010000000000000BRCEBRACNPB6124
012024050602CEDO3       010CEDRO       ON      N1   R$  000000000319900000000031990000000003199000000000319900000000031990000000003100000000000320000001000000000000000100000000000000319900000000000000009999123100000010000000000000BRCEDOACNOR8096
012024050602CEDO4       010CEDRO       PN      N1   R$  000000000276000000000029980000000002760000000000282400000000029000000000002600000000000289000009000000000000001600000000000004519600000000000000009999123100000010000000000000BRCEDOACNPR5128
012024050602CEEB3       010COELBA      ON           R$  000000000392100000000039240000000003921000000000392200000000039240000000003860000000000392400002000000000000000200000000000000784500000000000000009999123100000010000000000000BRCEEBACNOR3198
012024050602CEEB5       010COELBA      PNA          R$  000000000370900000000037090000000003709000000000370900000000037090000000003515000000000410000001000000000000000100000000000000370900000000000000009999123100000010000000000000BRCEEBACNPA6192
012024050602CGAS5       010COMGAS      PNA          R$  000000001130000000000113490000000011300000000001133900000000113490000000011102000000001138000005000000000000000500000000000005669500000000000000009999123100000010000000000000BRCGASACNPA3160
012024050602BIOM3       010BIOMM       ON      MA   R$  000000000185000000000018890000000001829000000000185400000000018540000000001842000000000185400565000000000000089200000000000165441100000000000000009999123100000010000000000000BRBIOMACNOR2112
012024050602CTSA3       010SANTANENSE  ON           R$  000000000028800000000002900000000000286000000000028600000000002900000000000286000000000029000012000000000000003900000000000001118900000000000000009999123100000010000000000000BRCTSAACNOR3062
012024050602CTSA4       010SANTANENSE  PN           R$  000000000015500000000001630000000000153000000000015400000000001580000000000155000000000015900061000000000000030700000000000004757300000000000000009999123100000010000000000000BRCTSAACNPR0062
012024050602CURY3       010CURY S/A    ON  ED  NM   R$  000000000206700000000020690000000002009000000000202700000000020180000000002016000000000202010091000000000001918400000000003889648800000000000000009999123100000010000000000000BRCURYACNOR3108
012024050602CVCB3       010CVC BRASIL  ON      NM   R$  000000000023700000000002440000000000233000000000023800000000002370000000000237000000000023809793000000000012690500000000003027230500000000000000009999123100000010000000000000BRCVCBACNOR1115
012024050602ESPA3       010ESPACOLASER ON      NM   R$  000000000009400000000000980000000000094000000000009500000000000950000000000095000000000009600344000000000000718300000000000068754700000000000000009999123100000010000000000000BRESPAACNOR7103
012024050602EUCA3       010EUCATEX     ON      N1   R$  000000000158900000000015890000000001589000000000158900000000015890000000001562000000000159300001000000000000000100000000000000158900000000000000009999123100000010000000000000BREUCAACNOR1157
012024050602EUCA4       010EUCATEX     PN      N1   R$  000000000156800000000015770000000001545000000000155600000000015550000000001555000000000155600280000000000000041100000000000063991500000000000000009999123100000010000000000000BREUCAACNPR8044
012024050602ENEV3       010ENEVA       ON      NM   R$  000000000127700000000012800000000001265000000000127100000000012700000000001270000000000127208104000000000009691100000000012317675400000000000000009999123100000010000000000000BRENEVACNOR8105
012024050602ENGI11      010ENERGISA    UNT     N2   R$  000000000474700000000047630000000004673000000000470200000000046850000000004673000000000468607816000000000001505000000000007076515600000000000000009999123100000010000000000000BRENGICDAM16135
012024050602ENGI3       010ENERGISA    ON      N2   R$  000000000152400000000015470000000001509000000000152400000000015150000000001515000000000154600056000000000000007300000000000011130200000000000000009999123100000010000000000000BRENGIACNOR0145
012024050602ENGI4       010ENERGISA    PN      N2   R$  000000000080500000000008050000000000787000000000079800000000007900000000000789000000000080000053000000000000013800000000000011021600000000000000009999123100000010000000000000BRENGIACNPR7141
012024050602ENJU3       010ENJOEI      ON      NM   R$  000000000025300000000002590000000000244000000000025000000000002470000000000246000000000024701180000000000000934200000000000233950300000000000000009999123100000010000000000000BRENJUACNOR9100
012024050602EPAR3       010EMBPAR S/A  ON  ED       R$  000000000074800000000007500000000000746000000000074800000000007500000000000747000000000075000014000000000000002200000000000001647700000000000000009999123100000010000000000000BREPARACNOR9105
012024050602EQMA3B      010EQTLMARANHAOON  ED  MB   R$  000000000279500000000027950000000002795000000000279500000000027950000000002651000000000279900001000000000000000100000000000000279500000000000000009999123100000010000000000000BREQMAACNOR8108
012024050602EQPA3       010EQTL PARA   ON  ED       R$  000000000078100000000007810000000000774000000000077800000000007780000000000776000000000079600009000000000000002300000000000001790000000000000000009999123100000010000000000000BREQPAACNOR1111
012024050602EQTL3       010EQUATORIAL  ON  EDS NM   R$  000000000317000000000031840000000003121000000000315700000000031210000000003121000000000312318593000000000008787300000000027744541700000000000000009999123100000010000000000000BREQTLACNOR0130
012024050602IFCM3       010INFRACOMM   ON      NM   R$  000000000007500000000000760000000000074000000000007400000000000740000000000074000000000007504604000000000004870700000000000363707400000000000000009999123100000010000000000000BRIFCMACNOR8101
012024050602BOBR4       010BOMBRIL     PN           R$  000000000022200000000002220000000000218000000000021900000000002190000000000219000000000022200017000000000000002900000000000000637000000000000000009999123100000010000000000000BRBOBRACNPR3128
012024050602BRSR3       010BANRISUL    ON  ED  N1   R$  000000000127500000000012750000000001186000000000122400000000012370000000001233000000000124900114000000000000026100000000000031958800000000000000009999123100000010000000000000BRBRSRACNOR3187
012024050602BRSR6       010BANRISUL    PNB ED  N1   R$  000000000120000000000012430000000001170000000000120900000000012150000000001214000000000121514274000000000007740800000000009364438100000000000000009999123100000010000000000000BRBRSRACNPB4190
012024050602BSLI3       010BRB BANCO   ON           R$  000000000098200000000009900000000000982000000000098600000000009900000000000922000000000099900002000000000000000200000000000000197200000000000000009999123100000010000000000000BRBSLIACNOR5192
012024050602BSLI4       010BRB BANCO   PN           R$  000000000099400000000009940000000000994000000000099400000000009940000000000971000000000099500002000000000000000200000000000000198800000000000000009999123100000010000000000000BRBSLIACNPR2192
012024050602CAMB3       010CAMBUCI     ON           R$  000000000106000000000010660000000001000000000000101700000000010370000000001032000000000103900481000000000000121900000000000124019800000000000000009999123100000010000000000000BRCAMBACNOR4128
012024050602CAML3       010CAMIL       ON      NM   R$  000000000088000000000008840000000000859000000000086600000000008670000000000867000000000086802104000000000000614100000000000532303700000000000000009999123100000010000000000000BRCAMLACNOR3127
012024050602CASH3       010MELIUZ      ON      NM   R$  000000000046800000000004680000000000456000000000046100000000004570000000000457000000000045803407000000000001351200000000000623512400000000000000009999123100000010000000000000BRCASHACNOR8106
012024050602CBAV3       010CBA         ON      NM   R$  000000000052300000000005280000000000501000000000050900000000005080000000000508000000000050906391000000000004744600000000002417288700000000000000009999123100000010000000000000BRCBAVACNOR5104
012024050602CXSE3       010CAIXA SEGURION  EDR NM   R$  000000000164000000000016850000000001613000000000166000000000016750000000001671000000000167510312000000000004052700000000006730843000000000000000009999123100000010000000000000BRCXSEACNOR7106
012024050602CYRE3       010CYRELA REALTON  ED  NM   R$  000000000218000000000022100000000002154000000000218000000000021590000000002159000000000216113016000000000002882600000000006284923500000000000000009999123100000010000000000000BRCYREACNOR7140
012024050602FESA4       010FERBASA     PN      N1   R$  000000000083300000000008420000000000809000000000082000000000008090000000000809000000000081502388000000000000812200000000000666153100000000000000009999123100000010000000000000BRFESAACNPR5083
012024050602FHER3       010FER HERINGERON      NM   R$  000000000049800000000004980000000000495000000000049600000000004950000000000495000000000049800017000000000000002400000000000001191900000000000000009999123100000010000000000000BRFHERACNOR5103
012024050602FIEI3       010FICA        ON           R$  000000000099500000000010000000000000995000000000099800000000010000000000000800000000000100000008000000000000006500000000000006491900000000000000009999123100000010000000000000BRFIEIACNOR2100
012024050602FIQE3       010UNIFIQUE    ON      NM   R$  000000000037700000000003780000000000368000000000037100000000003710000000000369000000000037101248000000000000473000000000000175678100000000000000009999123100000010000000000000BRFIQEACNOR5106
012024050602FLRY3       010FLEURY      ON      NM   R$  000000000147500000000014990000000001475000000000148900000000014890000000001488000000000149006702000000000002051700000000003055179500000000000000009999123100000010000000000000BRFLRYACNOR5138
012024050602FRAS3       010FRAS-LE     ON      N1   R$  000000000184000000000018710000000001826000000000184400000000018320000000001829000000000183500826000000000000148800000000000274439900000000000000009999123100000010000000000000BRFRASACNOR0159
012024050602GEPA4       010GER PARANAP PN  ED       R$  000000000245300000000024530000000002452000000000245200000000024520000000002451000000000248600004000000000000001300000000000003188100000000000000009999123100000010000000000000BRGEPAACNPR9160
012024050602GFSA3       010GAFISA      ON      NM   R$  000000000053400000000005640000000000534000000000054800000000005390000000000538000000000054002643000000000002085400000000001143452100000000000000009999123100000010000000000000BRGFSAACNOR3124
012024050602GGBR3       010GERDAU      ON      N1   R$  000000000172000000000017700000000001720000000000175300000000017450000000001745000000000174800617000000000000108600000000000190387000000000000000009999123100000010000000000000BRGGBRACNOR1191
012024050602GGBR4       010GERDAU      PN      N1   R$  000000000197900000000020140000000001960000000000197700000000019640000000001963000000000196532670000000000016958500000000033534286400000000000000009999123100000010000000000000BRGGBRACNPR8191
012024050602ITUB3       010ITAUUNIBANCOON  EJ  N1   R$  000000000281900000000028270000000002782000000000280500000000028060000000002803000000000281100817000000000000195800000000000549370900000000000000009999123100000010000000000000BRITUBACNOR4335
012024050602ITUB4       010ITAUUNIBANCOPN  EJ  N1   R$  000000000321800000000032670000000003210000000000323500000000032400000000003237000000000324029863000000000018623400000000060265075500000000000000009999123100000010000000000000BRITUBACNPR1335
012024050602IGTI11      010IGUATEMI S.AUNT     N1   R$  000000000220900000000022250000000002181000000000219900000000021900000000002184000000000219912442000000000003910200000000008601195900000000000000009999123100000010000000000000BRIGTICDAM16106
012024050602IGTI3       010IGUATEMI S.AON      N1   R$  000000000029300000000002980000000000290000000000029300000000002920000000000292000000000029400107000000000000049900000000000014651800000000000000009999123100000010000000000000BRIGTIACNOR8106
012024050602IGTI4       010IGUATEMI S.APN      N1   R$  000000000094300000000009430000000000943000000000094300000000009430000000000865000000000105000001000000000000000100000000000000094300000000000000009999123100000010000000000000BRIGTIACNPR5106
012024050602INEP3       010INEPAR      ON           R$  000000000032400000000003300000000000310000000000032200000000003300000000000314000000000033000113000000000000043400000000000013982200000000000000009999123100000010000000000000BRINEPACNOR1143
012024050602INEP4       010INEPAR      PN           R$  000000000030000000000003000000000000283000000000029000000000002990000000000291000000000030000084000000000000027100000000000007859000000000000000009999123100000010000000000000BRINEPACNPR8143
012024050602INTB3       010INTELBRAS   ON      NM   R$  000000000226200000000023810000000002262000000000233600000000023070000000002305000000000231609405000000000002304900000000005384825300000000000000009999123100000010000000000000BRINTBACNOR9111
012024050602IRBR3       010IRBBRASIL REON      NM   R$  000000000440100000000044110000000004291000000000434000000000042990000000004298000000000430005058000000000001272500000000005522738600000000000000009999123100000010000000000000BRIRBRACNOR4111
012024050602LUPA3       010LUPATECH    ON      NM   R$  000000000014900000000001620000000000145000000000015000000000001460000000000146000000000014701505000000000001527500000000000230289300000000000000009999123100000010000000000000BRLUPAACNOR8112
012024050607BHIA3       010CASAS BAHIA ON      NM   R$  000000000078000000000007850000000000697000000000073200000000006970000000000697000000000069819337000000000012288400000000009002519800000000000000009999123100000010000000000000BRBHIAACNOR1101
012024050607NUTR3       010NUTRIPLANT  ON      MA   R$  000000000048600000000004860000000000454000000000047200000000004620000000000468000000000048200040000000000000007200000000000003398800000000000000009999123100000010000000000000BRNUTRACNOR0104
012024050607TXRX4       010TEX RENAUX  PN           R$  000000000024400000000002440000000000229000000000023100000000002320000000000232000000000023700012000000000000003300000000000000763500000000000000009999123100000010000000000000BRTXRXACNPR0142
012024050608AMER3       010AMERICANAS  ON      NM   R$  000000000005500000000000550000000000054000000000005400000000000540000000000054000000000005502044000000000003920000000000000213063300000000000000009999123100000010000000000000BRAMERACNOR6101
012024050608PMAM3       010PARANAPANEMAON  ES  NM   R$  000000000027300000000002750000000000265000000000026900000000002670000000000267000000000027000117000000000000055500000000000014943800000000000000009999123100000010000000000000BRPMAMACNOR3039
012024050608RSID3       010ROSSI RESID ON      NM   R$  000000000056500000000005990000000000541000000000056900000000005840000000000573000000000058400319000000000000053400000000000030422400000000000000009999123100000010000000000000BRRSIDACNOR8120
012024050608HOOT4       010HOTEIS OTHONPN           R$  000000000027900000000002790000000000277000000000027700000000002770000000000276000000000028400004000000000000002800000000000000775800000000000000009999123100000010000000000000BRHOOTACNPR9015
012024050608NEXP3       010NEXPE       ON           R$  000000000043200000000004320000000000423000000000042500000000004270000000000423000000000042600006000000000000000700000000000000297700000000000000009999123100000010000000000000BRNEXPACNOR0101
012024050608JFEN3       010JOAO FORTES ON           R$  000000000015500000000001580000000000150000000000015300000000001510000000000151000000000015400053000000000000028200000000000004327100000000000000009999123100000010000000000000BRJFENACNOR0059
012024050608OIBR3       010OI          ON      N1   R$  000000000007300000000000740000000000072000000000007200000000000730000000000072000000000007301109000000000003586400000000000260078600000000000000009999123100000010000000000000BROIBRACNOR1110
012024050608OIBR4       010OI          PN      N1   R$  000000000018700000000001930000000000186000000000018800000000001860000000000186000000000018800077000000000000042400000000000007988100000000000000009999123100000010000000000000BROIBRACNPR8109
012024050608OSXB3       010OSX BRASIL  ON      NM   R$  000000000039600000000004200000000000395000000000040800000000004030000000000403000000000041500019000000000000003200000000000001306300000000000000009999123100000010000000000000BROSXBACNOR8109
012024050608RNEW11      010RENOVA      UNT     N2   R$  000000000032500000000003390000000000315000000000032500000000003390000000000321000000000033500112000000000000024200000000000007871000000000000000009999123100000010000000000000BRRNEWCDAM15110
012024050608RNEW3       010RENOVA      ON      N2   R$  000000000011300000000001150000000000106000000000010900000000001150000000000110000000000011500191000000000000054800000000000006023900000000000000009999123100000010000000000000BRRNEWACNOR8110
012024050608RNEW4       010RENOVA      PN      N2   R$  000000000011300000000001180000000000109000000000011000000000001090000000000109000000000011100265000000000000243800000000000026855900000000000000009999123100000010000000000000BRRNEWACNPR5110
012024050608RPMG3       010PET MANGUINHON           R$  000000000020200000000002040000000000202000000000020300000000002030000000000203000000000020400008000000000000000900000000000000182700000000000000009999123100000010000000000000BRRPMGACNOR9194
012024050608LIGT3       010LIGHT S/A   ON      NM   R$  000000000049500000000005000000000000487000000000049100000000004900000000000488000000000049002977000000000000838000000000000412139800000000000000009999123100000010000000000000BRLIGTACNOR2124
012024050608ATMP3       010ATMASA      ON           R$  000000000021300000000002130000000000205000000000020800000000002050000000000204000000000021000016000000000000004400000000000000915500000000000000009999123100000010000000000000BRATMPACNOR8100
012024050608ETER3       010ETERNIT     ON      NM   R$  000000000071600000000007250000000000708000000000071600000000007180000000000718000000000072000581000000000000122900000000000087998900000000000000009999123100000010000000000000BRETERACNOR3243
012024050610PMAM1       010PARANAPANEMADIR ORD NM   R$  000000000000100000000000010000000000001000000000000100000000000010000000000000000000000000100154000000000000929700000000000000929700000000000000009999123100000010000000000000BRPMAMD04OR2038
012024050610JFEN1       010JOAO FORTES DIR ORD      R$  000000000000100000000000010000000000001000000000000100000000000010000000000000000000000000100010000000000000051500000000000000051500000000000000009999123100000010000000000000BRJFEND10OR6058
012024050610CGRA1       010GRAZZIOTIN  DIR ORD      R$  000000000004000000000000770000000000040000000000006100000000000510000000000050000000000006400022000000000000003600000000000000220300000000000000009999123100000010000000000000BRCGRAD05OR8081
012024050610CGRA2       010GRAZZIOTIN  DIR PRE      R$  000000000007600000000001530000000000070000000000012300000000000890000000000088000000000012000058000000000000010800000000000001332500000000000000009999123100000010000000000000BRCGRAD05PR5081
012024050610EQTL1       010EQUATORIAL  DIR ORD NM   R$  000000000021000000000002760000000000200000000000022800000000002430000000000240000000000024300419000000000000118800000000000027189200000000000000009999123100000010000000000000BREQTLD03OR1129
012024050612NSLU11      010FII LOURDES CI  ER       R$  000000001858200000000197990000000018281000000001879000000000194900000000018700000000001905700895000000000000002736000000000051411480000000000000009999123100000010000000000000BRNSLUCTF008310
012024050612ALZC11      010FII ALIANZACCI           R$  000000001000000000000100000000000010000000000001000000000000100000000000009700000000000000000005000000000000000257000000000002570000000000000000009999123100000010000000000000BRALZCCTF016101
012024050612ALZM11      010FII ALIANZMECI           R$  000000000084300000000008500000000000838000000000084200000000008420000000000840000000000084200792000000000000015775000000000013295981000000000000009999123100000010000000000000BRALZMCTF007121
012024050612ALZR11      010FII ALIANZA CI           R$  000000001170000000000117410000000011645000000001168600000000116700000000011669000000001167002043000000000000011036000000000128971067000000000000009999123100000010000000000000BRALZRCTF006180
012024050612BARI11      010FII BARIGUI CI  ER       R$  000000000800000000000080500000000008000000000000803600000000080200000000008020000000000803501141000000000000005486000000000044090219000000000000009999123100000010000000000000BRBARICTF003161
012024050612BICR11      010FII INTER   CI  ER       R$  000000000505400000000050540000000005054000000000505400000000050540000000004811000000000501800001000000000000000002000000000000010108000000000000009999123100000010000000000000BRBICRCTF009151
012024050612EURO11      010FII EUROPAR CI  ER       R$  000000002454000000000247980000000024540000000002459500000000247980000000024540000000002479800005000000000000000033000000000000811662000000000000009999123100000010000000000000BREUROCTF011358
012024050612EVBI11      010FII VBI CON CI  ER       R$  000000000983700000000098500000000009691000000000982600000000098500000000009713000000000985000027000000000000000518000000000005090159000000000000009999123100000010000000000000BREVBICTF007148
012024050612FAED11      010FII ANH EDUCCI           R$  000000001525300000000154970000000015250000000001536000000000154750000000015350000000001549700058000000000000000327000000000005022784000000000000009999123100000010000000000000BRFAEDCTF003276
012024050612FAMB11B     010FII ALMIRANTCI      MB   R$  000000006449700000000648990000000063200000000006376700000000648990000000063300000000006490000018000000000000000023000000000001466663000000000000009999123100000010000000000000BRFAMBCTF018315
012024050612FATN11      010FII ATHENA ICI           R$  000000000942500000000094490000000009387000000000942700000000094180000000009417000000000941801063000000000000008398000000000079172123000000000000009999123100000010000000000000BRFATNCTF000150
012024050612FCFL11      010FII CAMPUSFLCI           R$  000000001203600000000120360000000012006000000001202500000000120350000000012016000000001203600085000000000000000120000000000001443002000000000000009999123100000010000000000000BRFCFLCTF009268
012024050612IRDM11      010FII IRIDIUM CI           R$  000000000758500000000076500000000007570000000000761900000000076350000000007620000000000763505064000000000000047997000000000365704178000000000000009999123100000010000000000000BRIRDMCTF004184
012024050612IRIM11      010FII IRIM    CI           R$  000000000778000000000077820000000007766000000000777500000000077810000000007781000000000778200042000000000000000259000000000002013793000000000000009999123100000010000000000000BRIRIMCTF003133
012024050612ITIP11      010FII INTER IPCI  ER       R$  000000000800100000000084000000000008001000000000823900000000081980000000008100000000000819800255000000000000003118000000000025690539000000000000009999123100000010000000000000BRITIPCTF002128
012024050612ITIT11      010FII INTER ITCI  ER       R$  000000000792700000000079990000000007927000000000798600000000079950000000007995000000000799700138000000000000000909000000000007259567000000000000009999123100000010000000000000BRITITCTF004128
012024050612ITRI11      010FII ITRI    CI  ER       R$  000000001008500000000100850000000009521000000000969900000000096000000000009596000000000960000199000000000000004507000000000043715000000000000000009999123100000010000000000000BRITRICTF008101
012024050612MCCI11      010FII MAUA    CI           R$  000000000893200000000090520000000008927000000000900600000000090430000000009022000000000904306987000000000000040838000000000367820863000000000000009999123100000010000000000000BRMCCICTF008160
012024050612MCEM11      010FII MCEM    CI           R$  000000001099900000000109990000000010999000000001099900000000109990000000010800000000001086700001000000000000000001000000000000010999000000000000009999123100000010000000000000BRMCEMCTF006100
012024050612MCHY11      010FII MAUA HY CI           R$  000000000096100000000009710000000000953000000000096300000000009600000000000955000000000096009362000000000000208141000000000200485566000000000000009999123100000010000000000000BRMCHYCTF004136
012024050612MFAI11      010FII MERITOFACI  ER       R$  000000000618900000000061900000000006110000000000616200000000061150000000006110000000000620000008000000000000000050000000000000308128000000000000009999123100000010000000000000BRMFAICTF005150
012024050612MFCR11      010FII MERITO RCI  ER       R$  000000000254800000000026500000000002548000000000260900000000026500000000002618000000000265500004000000000000000005000000000000013045000000000000009999123100000010000000000000BRMFCRCTF002123
012024050612MFII11      010FII MERITO ICI  ER       R$  000000001037800000000103780000000010303000000001034200000000103660000000010332000000001036600813000000000000005975000000000061797077000000000000009999123100000010000000000000BRMFIICTF008234
012024050612MGHT11      010FII MOGNO HTCI           R$  000000000459800000000046010000000004495000000000455400000000045350000000004535000000000455000338000000000000002166000000000009864121000000000000009999123100000010000000000000BRMGHTCTF005152
012024050612PRSN11      010FII PERSONALCI           R$  000000000011300000000001150000000000113000000000011400000000001150000000000109000000000011400017000000000000000169000000000000019274000000000000009999123100000010000000000000BRPRSNCTF005124
012024050612PRSV11      010FII P VARGASCI           R$  000000000635400000000068010000000006353000000000647700000000066670000000006667000000000700000008000000000000000034000000000000220228000000000000009999123100000010000000000000BRPRSVCTF008225
012024050612PVBI11      010FII VBI PRI CI  ER       R$  000000001001000000000100140000000009863000000000990400000000099130000000009913000000000992413130000000000000071602000000000709191006000000000000009999123100000010000000000000BRPVBICTF003150
012024050612QAGR11      010FII QUASAR ACI  ER       R$  000000000472000000000047230000000004616000000000465400000000047160000000004716000000000472200630000000000000005824000000000027106394000000000000009999123100000010000000000000BRQAGRCTF005154
012024050612APTO11      010FII NAVI RSDCI  ER       R$  000000000095300000000009690000000000947000000000095600000000009550000000000954000000000096600460000000000000002924000000000002796791000000000000009999123100000010000000000000BRAPTOCTF007130
012024050612APXM11      010FII APEX MS CI           R$  000000001019900000000101990000000010199000000001019900000000101990000000009999000000001019900001000000000000000002000000000000020398000000000000009999123100000010000000000000BRAPXMCTF003108
012024050612AROA11      010FII AROA    CI  ER       R$  000000000009800000000000990000000000096000000000009700000000000970000000000097000000000009800142000000000000003818000000000000372025000000000000009999123100000010000000000000BRAROACTF003117
012024050612ARRI11      010FII ATRIO   CI  ER       R$  000000000090900000000009120000000000907000000000090800000000009080000000000907000000000090800363000000000000013257000000000012047953000000000000009999123100000010000000000000BRARRICTF009159
012024050612ARXD11      010FII ARXD R  CI  ER       R$  000000000931700000000093170000000009220000000000924500000000092200000000009135000000000922000005000000000000000223000000000002061821000000000000009999123100000010000000000000BRARXDCTF008114
012024050612BBFI11B     010FII BB PROGRCI  ER  MB   R$  000000012500000000001250000000000122333000000012392300000001237020000000123702000000012440000063000000000000000118000000000014622999000000000000009999123100000010000000000000BRBBFICTF006326
012024050612BBFO11      010FII BB FOF  CI  ER       R$  000000000730000000000073720000000007300000000000735500000000073470000000007340000000000734500137000000000000002601000000000019130786000000000000009999123100000010000000000000BRBBFOCTF004140
012024050612BBIG11      010FII BBIG    CI           R$  000000000100000000000010400000000000985000000000100100000000009850000000000984000000000098500607000000000000070311000000000070450137000000000000009999123100000010000000000000BRBBIGCTF004100
