00COTAHIST.2024BOVESPA 20240105                                                                                                                                                                                                                      
012024010502ALUP11      010ALUPAR      UNT     N2   R$  000000000304300000000030840000000003018000000000305000000000030570000000003054000000000305902027000000000000437100000000001333387900000000000000009999123100000010000000000000BRALUPCDAM15117
012024010502AMBP3       010AMBIPAR     ON      NM   R$  000000000152100000000015700000000001515000000000153700000000015330000000001533000000000153403055000000000000526500000000000809269400000000000000009999123100000010000000000000BRAMBPACNOR6103
012024010502ARZZ3       010AREZZO CO   ON      NM   R$  000000000585800000000061370000000005846000000000603400000000060680000000006067000000000607008342000000000001506100000000009089250700000000000000009999123100000010000000000000BRARZZACNOR3146
012024010502BPAC5       010BTGP BANCO  PNA EJ  N2   R$  000000000093000000000009760000000000930000000000095900000000009640000000000946000000000096500023000000000000003400000000000003261700000000000000009999123100000010000000000000BRBPACACNPA0133
012024010502EKTR4       010ELEKTRO     PN  EJ       R$  000000000377000000000038980000000003770000000000383400000000038980000000003750000000000389800002000000000000000200000000000000766800000000000000009999123100000010000000000000BREKTRACNPR7159
012024010502HAGA4       010HAGA S/A    PN           R$  000000000011700000000001190000000000114000000000011500000000001160000000000115000000000011700026000000000000005300000000000000613800000000000000009999123100000010000000000000BRHAGAACNPR4103
012024010502HBSA3       010HIDROVIAS   ON      NM   R$  000000000036700000000003790000000000367000000000037200000000003690000000000368000000000036905326000000000003475400000000001293946700000000000000009999123100000010000000000000BRHBSAACNOR0100
012024010502KEPL3       010KEPLER WEBERON      NM   R$  000000000103100000000010410000000001022000000000103200000000010290000000001028000000000103005091000000000001936100000000001999814400000000000000009999123100000010000000000000BRKEPLACNOR1061
012024010502EALT4       010ACO ALTONA  PN           R$  000000000092700000000009550000000000926000000000093700000000009550000000000933000000000095500028000000000000006300000000000005908200000000000000009999123100000010000000000000BREALTACNPR1137
012024010502GRND3       010GRENDENE    ON      NM   R$  000000000068700000000006950000000000681000000000068600000000006860000000000684000000000068603517000000000001353800000000000929551100000000000000009999123100000010000000000000BRGRNDACNOR3172
012024010502JBSS3       010JBS         ON      NM   R$  000000000238500000000024330000000002371000000000240600000000024070000000002404000000000240909068000000000004090300000000009842598300000000000000009999123100000010000000000000BRJBSSACNOR8121
012024010502MULT3       010MULTIPLAN   ON  EJ  N2   R$  000000000276900000000028120000000002757000000000278800000000027930000000002789000000000279309538000000000001516100000000004227478000000000000000009999123100000010000000000000BRMULTACNOR5137
012024010502RANI3       010IRANI       ON      NM   R$  000000000104000000000010740000000001035000000000106300000000010690000000001067000000000106902074000000000000665600000000000707906200000000000000009999123100000010000000000000BRRANIACNOR5069
012024010502RCSL4       010RECRUSUL    PN           R$  000000000008000000000000820000000000079000000000008000000000000800000000000079000000000008001037000000000003371900000000000269848200000000000000009999123100000010000000000000BRRCSLACNPR1133
012024010502REDE3       010REDE ENERGIAON           R$  000000000069900000000007240000000000694000000000070200000000006980000000000696000000000070800056000000000000008500000000000005975300000000000000009999123100000010000000000000BRREDEACNOR7126
012024010502DEXP3       010DEXXOS PAR  ON      N1   R$  000000000111500000000011560000000001105000000000113300000000011560000000001156000000000115700235000000000000068000000000000077063000000000000000009999123100000010000000000000BRDEXPACNOR1104
012024010502DOHL4       010DOHLER      PN           R$  000000000052600000000005260000000000512000000000051500000000005120000000000512000000000052200003000000000000002600000000000001339800000000000000009999123100000010000000000000BRDOHLACNPR9066
012024010502SNSY3       010SANSUY      ON           R$  000000000053900000000005390000000000532000000000053800000000005320000000000505000000000053300002000000000000000700000000000000376600000000000000009999123100000010000000000000BRSNSYACNOR2113
012024010502SGPS3       010SPRINGS     ON      NM   R$  000000000012300000000001260000000000122000000000012400000000001240000000000123000000000012400403000000000000269400000000000033490700000000000000009999123100000010000000000000BRSGPSACNOR4104
012024010502SBSP3       010SABESP      ON      NM   R$  000000000724000000000072950000000007202000000000724400000000072350000000007234000000000723507680000000000001336400000000009681200500000000000000009999123100000010000000000000BRSBSPACNOR5160
012024010502VALE3       010VALE        ON      NM   R$  000000000750300000000075050000000007412000000000745800000000074650000000007465000000000746739316000000000021082500000000157247721600000000000000009999123100000010000000000000BRVALEACNOR0209
012024010502POMO3       010MARCOPOLO   ON  EJ  N2   R$  000000000056400000000005850000000000563000000000057700000000005750000000000571000000000057500711000000000000185100000000000106824400000000000000009999123100000010000000000000BRPOMOACNOR0095
012024010502YDUQ3       010YDUQS PART  ON      NM   R$  000000000204300000000021830000000002033000000000211500000000020800000000002079000000000208014749000000000003670500000000007764350400000000000000009999123100000010000000000000BRYDUQACNOR3104
012024010502PINE4       010PINE        PN      N2   R$  000000000048000000000004900000000000468000000000047900000000004770000000000476000000000047701543000000000001419500000000000681184300000000000000009999123100000010000000000000BRPINEACNPR8147
012024010502SLCE3       010SLC AGRICOLAON  EJ  NM   R$  000000000182500000000018640000000001819000000000184700000000018520000000001851000000000185208299000000000001683600000000003110431300000000000000009999123100000010000000000000BRSLCEACNOR2124
012024010502EVEN3       010EVEN        ON      NM   R$  000000000074500000000007770000000000737000000000076000000000007590000000000756000000000075902514000000000000739900000000000562946300000000000000009999123100000010000000000000BREVENACNOR8118
012024010502FHER3       010FER HERINGERON      NM   R$  000000000075500000000007550000000000736000000000074400000000007370000000000746000000000075200019000000000000003700000000000002752800000000000000009999123100000010000000000000BRFHERACNOR5103
012024010502ITSA4       010ITAUSA      PN      N1   R$  000000000100200000000010290000000001000000000000101700000000010230000000001022000000000102320597000000000027054600000000027523151600000000000000009999123100000010000000000000BRITSAACNPR7436
012024010502SANB11      010SANTANDER BRUNT          R$  000000000316000000000032250000000003154000000000320400000000032130000000003212000000000321505378000000000000990000000000003172132400000000000000009999123100000010000000000000BRSANBCDAM13162
012024010502BRKM3       010BRASKEM     ON      N1   R$  000000000208000000000020880000000002030000000000206100000000020470000000002020000000000205100060000000000000013700000000000028237500000000000000009999123100000010000000000000BRBRKMACNOR1119
012024010502CSMG3       010COPASA      ON  EJ  NM   R$  000000000204300000000020740000000002027000000000206100000000020610000000002059000000000206203762000000000000747900000000001541468900000000000000009999123100000010000000000000BRCSMGACNOR5171
012024010502ALUP3       010ALUPAR      ON      N2   R$  000000000101000000000010500000000001005000000000101700000000010120000000001011000000000101800063000000000000008100000000000008242200000000000000009999123100000010000000000000BRALUPACNOR8117
012024010502ANIM3       010ANIMA       ON      NM   R$  000000000040200000000004290000000000400000000000041500000000004130000000000412000000000041405800000000000008570000000000003559607000000000000000009999123100000010000000000000BRANIMACNOR6107
012024010502BBSE3       010BBSEGURIDADEON      NM   R$  000000000340700000000034290000000003358000000000338900000000033680000000003364000000000337113357000000000006319900000000021423605700000000000000009999123100000010000000000000BRBBSEACNOR5123
012024010502CMIN3       010CSNMINERACAOON  EJ  N2   R$  000000000078000000000007910000000000770000000000078200000000007860000000000785000000000078611060000000000005359000000000004191244400000000000000009999123100000010000000000000BRCMINACNOR2110
012024010502ELET3       010ELETROBRAS  ON      N1   R$  000000000412000000000041670000000004101000000000413000000000041260000000004122000000000412712275000000000003080800000000012726353700000000000000009999123100000010000000000000BRELETACNOR6159
012024010502HAPV3       010HAPVIDA     ON      NM   R$  000000000041100000000004320000000000407000000000042500000000004270000000000427000000000042931980000000000050722200000000021573992400000000000000009999123100000010000000000000BRHAPVACNOR4113
012024010502HETA4       010HERCULES    PN           R$  000000000070000000000007000000000000700000000000070000000000007000000000000605000000000070000001000000000000000100000000000000070000000000000000009999123100000010000000000000BRHETAACNPR9136
012024010502KLBN11      010KLABIN S/A  UNT EJ  N2   R$  000000000218900000000022130000000002172000000000220000000000022130000000002200000000000221408939000000000002731200000000006009522200000000000000009999123100000010000000000000BRKLBNCDAM18139
012024010502ECOR3       010ECORODOVIAS ON      NM   R$  000000000091500000000009330000000000906000000000092200000000009250000000000924000000000092506824000000000002033300000000001874925300000000000000009999123100000010000000000000BRECORACNOR8119
012024010502GSHP3       010GENERALSHOPPON           R$  000000000147200000000014720000000001472000000000147200000000014720000000001401000000000168900002000000000000000200000000000000294400000000000000009999123100000010000000000000BRGSHPACNOR7102
012024010502JHSF3       010JHSF PART   ON  ED  NM   R$  000000000050600000000005190000000000501000000000050900000000005080000000000506000000000050804781000000000002483100000000001264390200000000000000009999123100000010000000000000BRJHSFACNOR2131
012024010502MWET4       010WETZEL S/A  PN           R$  000000000065500000000006550000000000640000000000065000000000006400000000000640000000000068000004000000000000001600000000000001041000000000000000009999123100000010000000000000BRMWETACNPR3118
012024010502RAPT3       010RANDON PART ON      N1   R$  000000000119200000000012000000000001161000000000117900000000012000000000001174000000000120000068000000000000025200000000000029732000000000000000009999123100000010000000000000BRRAPTACNOR7162
012024010502RDNI3       010RNI         ON      NM   R$  000000000045500000000004690000000000449000000000045400000000004540000000000449000000000045600028000000000000006100000000000002771200000000000000009999123100000010000000000000BRRDNIACNOR9116
012024010502RENT3       010LOCALIZA    ON  EJS NM   R$  000000000594800000000061170000000005921000000000604300000000060500000000006049000000000605224635000000000007448200000000045010848200000000000000009999123100000010000000000000BRRENTACNOR4194
012024010502DEXP4       010DEXXOS PAR  PN      N1   R$  000000000114500000000011500000000001140000000000114500000000011400000000001138000000000113900004000000000000000500000000000000572500000000000000009999123100000010000000000000BRDEXPACNPR8104
012024010502DOTZ3       010DOTZ SA     ON  EG  NM   R$  000000000077000000000008260000000000770000000000080500000000008240000000000794000000000082400057000000000000017800000000000014331800000000000000009999123100000010000000000000BRDOTZACNOR7101
012024010502SNSY5       010SANSUY      PNA          R$  000000000037100000000003760000000000368000000000037000000000003760000000000370000000000037700032000000000000017300000000000006411600000000000000009999123100000010000000000000BRSNSYACNPA5111
012024010502SAPR3       010SANEPAR     ON  EJ  N2   R$  000000000052800000000005350000000000522000000000052900000000005290000000000529000000000053000355000000000000129800000000000068723900000000000000009999123100000010000000000000BRSAPRACNOR9158
012024010502SCAR3       010SAO CARLOS  ON      NM   R$  000000000271600000000027400000000002650000000000269500000000026500000000002650000000000274800069000000000000023500000000000063340500000000000000009999123100000010000000000000BRSCARACNOR7130
012024010502PLAS3       010PLASCAR PARTON           R$  000000000073100000000007310000000000731000000000073100000000007310000000000722000000000073100001000000000000000700000000000000511700000000000000009999123100000010000000000000BRPLASACNOR2106
012024010502POMO4       010MARCOPOLO   PN  EJ  N2   R$  000000000072100000000007480000000000719000000000073700000000007360000000000735000000000073609354000000000005805400000000004281908600000000000000009999123100000010000000000000BRPOMOACNPR7095
012024010502ZAMP3       010ZAMP S.A.   ON      NM   R$  000000000045000000000004880000000000447000000000046600000000004640000000000460000000000046408151000000000003778600000000001764129900000000000000009999123100000010000000000000BRZAMPACNOR5100
012024010502SHOW3       010TIME FOR FUNON      NM   R$  000000000020800000000002120000000000203000000000020800000000002080000000000206000000000020800387000000000000195900000000000040759100000000000000009999123100000010000000000000BRSHOWACNOR7105
012024010502SAPR11      010SANEPAR     UNT EJ  N2   R$  000000000272600000000027850000000002712000000000276300000000027660000000002765000000000276602826000000000000591200000000001633577200000000000000009999123100000010000000000000BRSAPRCDAM13117
012024010502EZTC3       010EZTEC       ON      NM   R$  000000000163800000000016970000000001634000000000166600000000016550000000001654000000000165605836000000000001608400000000002680788700000000000000009999123100000010000000000000BREZTCACNOR0123
012024010502FIQE3       010UNIFIQUE    ON      NM   R$  000000000039000000000003930000000000387000000000039000000000003900000000000389000000000039100495000000000000207700000000000081057700000000000000009999123100000010000000000000BRFIQEACNOR5105
012024010502BHIA3       010CASAS BAHIA ON      NM   R$  000000000103000000000010800000000001028000000000104800000000010400000000001039000000000104007401000000000002888800000000003030255300000000000000009999123100000010000000000000BRBHIAACNOR1101
012024010502SANB3       010SANTANDER BRON           R$  000000000149400000000015220000000001490000000000151000000000015150000000001514000000000151500340000000000000043900000000000066327400000000000000009999123100000010000000000000BRSANBACNOR8169
012024010502BRKM5       010BRASKEM     PNA     N1   R$  000000000205700000000020850000000002004000000000203200000000020110000000002011000000000201411019000000000003577100000000007271116800000000000000009999123100000010000000000000BRBRKMACNPA4121
012024010502CSNA3       010SID NACIONALON           R$  000000000191000000000019430000000001872000000000191500000000019240000000001923000000000192611005000000000005558900000000010647378700000000000000009999123100000010000000000000BRCSNAACNOR6260
012024010502AMAR3       010LOJAS MARISAON      NM   R$  000000000030700000000003220000000000307000000000031400000000003120000000000312000000000031400870000000000000444100000000000139538600000000000000009999123100000010000000000000BRAMARACNOR4114
012024010502ARML3       010ARMAC       ON  EJ  NM   R$  000000000153400000000015820000000001522000000000154500000000015350000000001531000000000153603888000000000000638200000000000986081200000000000000009999123100000010000000000000BRARMLACNOR1110
012024010502BPAC3       010BTGP BANCO  ON  EJ  N2   R$  000000000169700000000017380000000001697000000000171200000000017250000000001710000000000173400014000000000000001900000000000003254300000000000000009999123100000010000000000000BRBPACACNOR7133
012024010502COGN3       010COGNA ON    ON      NM   R$  000000000032600000000003400000000000321000000000033200000000003340000000000333000000000033424250000000000024209100000000008044575900000000000000009999123100000010000000000000BRCOGNACNOR2104
012024010502HAGA3       010HAGA S/A    ON           R$  000000000026400000000002690000000000252000000000026100000000002520000000000252000000000026700008000000000000002700000000000000706100000000000000009999123100000010000000000000BRHAGAACNOR7103
012024010502HBRE3       010HBR REALTY  ON      NM   R$  000000000056000000000005720000000000543000000000055800000000005580000000000558000000000056100680000000000000356400000000000198956800000000000000009999123100000010000000000000BRHBREACNOR4100
012024010502JSLG3       010JSL         ON      NM   R$  000000000128900000000013150000000001274000000000129900000000013050000000001304000000000130501426000000000000237700000000000308877500000000000000009999123100000010000000000000BRJSLGACNOR2121
012024010502KLBN4       010KLABIN S/A  PN  EJ  N2   R$  000000000043900000000004430000000000436000000000043900000000004420000000000441000000000044201983000000000001483700000000000651800100000000000000009999123100000010000000000000BRKLBNACNPR9167
012024010502GOLL4       010GOL         PN      N2   R$  000000000079400000000008140000000000781000000000079800000000008010000000000798000000000080206999000000000006055100000000004832892100000000000000009999123100000010000000000000BRGOLLACNPR4128
012024010502JALL3       010JALLESMACHADON      NM   R$  000000000075400000000007670000000000750000000000076000000000007620000000000760000000000076203394000000000001181400000000000897984700000000000000009999123100000010000000000000BRJALLACNOR0105
012024010502MTSA4       010METISA      PN           R$  000000000496000000000049660000000004874000000000494100000000049630000000004914000000000496400015000000000000001600000000000007905900000000000000009999123100000010000000000000BRMTSAACNPR9071
012024010502PETZ3       010PETZ        ON      NM   R$  000000000036700000000003820000000000365000000000037400000000003730000000000373000000000037409689000000000008829300000000003303590100000000000000009999123100000010000000000000BRPETZACNOR2109
012024010502RCSL3       010RECRUSUL    ON           R$  000000000024200000000002930000000000241000000000026900000000002870000000000287000000000029106210000000000007506800000000002026807000000000000000009999123100000010000000000000BRRCSLACNOR4133
012024010502RECV3       010PETRORECSA  ON      NM   R$  000000000206300000000021340000000002050000000000210100000000021100000000002110000000000211406477000000000001586400000000003334485500000000000000009999123100000010000000000000BRRECVACNOR3105
012024010502DESK3       010DESKTOP     ON      NM   R$  000000000136600000000013800000000001339000000000136400000000013740000000001374000000000137500553000000000000157200000000000214454400000000000000009999123100000010000000000000BRDESKACNOR2103
012024010502DMVF3       010D1000VFARMA ON      NM   R$  000000000057500000000006110000000000571000000000059900000000006110000000000603000000000061100274000000000000101800000000000061044300000000000000009999123100000010000000000000BRDMVFACNOR9100
012024010502DXCO3       010DEXCO       ON      NM   R$  000000000074300000000007710000000000736000000000076100000000007640000000000763000000000076612228000000000004583300000000003490136000000000000000009999123100000010000000000000BRDXCOACNOR8104
012024010502SOMA3       010GRUPO SOMA  ON      NM   R$  000000000072300000000007800000000000722000000000076200000000007800000000000776000000000078017089000000000016148400000000012305193600000000000000009999123100000010000000000000BRSOMAACNOR3102
012024010502SBFG3       010GRUPO SBF   ON      NM   R$  000000000105500000000011030000000001041000000000107200000000010740000000001074000000000107504759000000000001122200000000001203891900000000000000009999123100000010000000000000BRSBFGACNOR1102
012024010502SEQL3       010SEQUOIA LOG ON      NM   R$  000000000006700000000000670000000000055000000000006100000000000550000000000055000000000005608549000000000048556300000000002971292700000000000000009999123100000010000000000000BRSEQLACNOR2101
012024010502PNVL3       010DIMED       ON  EJ  NM   R$  000000000127000000000013180000000001270000000000130000000000013000000000001292000000000130101424000000000000214800000000000279299200000000000000009999123100000010000000000000BRPNVLACNOR9205
012024010502POSI3       010POSITIVO TECON      NM   R$  000000000064800000000006630000000000641000000000065300000000006530000000000653000000000065402057000000000000957500000000000625652900000000000000009999123100000010000000000000BRPOSIACNOR9115
012024010502PGMN3       010PAGUE MENOS ON      NM   R$  000000000034100000000003520000000000337000000000034500000000003490000000000348000000000034902498000000000002173300000000000751626100000000000000009999123100000010000000000000BRPGMNACNOR8102
012024010502SIMH3       010SIMPAR      ON      NM   R$  000000000089900000000009350000000000897000000000092000000000009160000000000912000000000091604938000000000002171100000000001998092400000000000000009999123100000010000000000000BRSIMHACNOR0107
012024010502EUCA4       010EUCATEX     PN  EJ  N1   R$  000000000159600000000015960000000001561000000000158300000000015950000000001579000000000159500165000000000000037300000000000059077000000000000000009999123100000010000000000000BREUCAACNPR8044
012024010502FESA4       010FERBASA     PN      N1   R$  000000000440500000000044460000000004380000000000440900000000044000000000004400000000000440201477000000000000216300000000000953727600000000000000009999123100000010000000000000BRFESAACNPR5082
012024010502ITSA3       010ITAUSA      ON      N1   R$  000000000100700000000010300000000001002000000000101900000000010230000000001023000000000102901561000000000001039300000000001059388000000000000000009999123100000010000000000000BRITSAACNOR0436
012024010502BRIV3       010ALFA INVEST ON           R$  000000000107800000000010780000000001078000000000107800000000010780000000001078000000000109900001000000000000000100000000000000107800000000000000009999123100000010000000000000BRBRIVACNOR6209
012024010502BRIV4       010ALFA INVEST PN  EJ       R$  000000000105900000000010590000000001045000000000105400000000010590000000001060000000000107300014000000000000011100000000000011700400000000000000009999123100000010000000000000BRBRIVACNPR3218
012024010502CSED3       010CRUZEIRO EDUON      NM   R$  000000000048500000000005010000000000476000000000048800000000004860000000000486000000000048900874000000000000292300000000000142754000000000000000009999123100000010000000000000BRCSEDACNOR9104
012024010502ENGI11      010ENERGISA    UNT ED  N2   R$  000000000514700000000052900000000005141000000000520500000000052400000000005234000000000524106095000000000001768400000000009205003600000000000000009999123100000010000000000000BRENGICDAM16135
012024010502ALUP4       010ALUPAR      PN      N2   R$  000000000101500000000010370000000001009000000000101900000000010120000000001011000000000102000098000000000000014900000000000015192900000000000000009999123100000010000000000000BRALUPACNPR5117
012024010502APER3       010ALPER S.A.  ON      NM   R$  000000000428200000000043700000000004282000000000434900000000043500000000004350000000000436800054000000000000310300000000001349799300000000000000009999123100000010000000000000BRAPERACNOR9106
012024010502BPAC11      010BTGP BANCO  UNT EJ  N2   R$  000000000358900000000037090000000003570000000000363500000000036730000000003662000000000367618794000000000008636100000000031398382400000000000000009999123100000010000000000000BRBPACUNT006118
012024010502COCE5       010COELCE      PNA          R$  000000000415100000000041980000000004002000000000408600000000041300000000004052000000000413000384000000000000102800000000000420096600000000000000009999123100000010000000000000BRCOCEACNPA3146
012024010502ELET6       010ELETROBRAS  PNB     N1   R$  000000000459300000000046130000000004554000000000458200000000045840000000004581000000000458502673000000000000453900000000002079955900000000000000009999123100000010000000000000BRELETACNPB7076
012024010502HBOR3       010HELBOR      ON      NM   R$  000000000030900000000003190000000000305000000000031100000000003060000000000305000000000030601330000000000000985900000000000306928900000000000000009999123100000010000000000000BRHBORACNOR3117
012024010502HYPE3       010HYPERA      ON  EJ  NM   R$  000000000341900000000035550000000003416000000000352000000000035230000000003521000000000352806746000000000001905500000000006709230100000000000000009999123100000010000000000000BRHYPEACNOR0136
012024010502KLBN3       010KLABIN S/A  ON  EJ  N2   R$  000000000044000000000004430000000000434000000000043800000000004390000000000439000000000044100905000000000000340700000000000149519800000000000000009999123100000010000000000000BRKLBNACNOR2167
012024010502EGIE3       010ENGIE BRASILON  EJ  NM   R$  000000000443700000000044540000000004401000000000442600000000044300000000004421000000000443004497000000000000958600000000004243181800000000000000009999123100000010000000000000BREGIEACNOR9125
012024010502GUAR3       010GUARARAPES  ON      NM   R$  000000000056000000000005910000000000558000000000057600000000005720000000000572000000000057304407000000000001618600000000000933366900000000000000009999123100000010000000000000BRGUARACNOR4172
012024010502MTRE3       010MITRE REALTYON      NM   R$  000000000053600000000005670000000000525000000000054300000000005290000000000529000000000053103978000000000002455900000000001333611800000000000000009999123100000010000000000000BRMTREACNOR6109
012024010502MYPK3       010IOCHP-MAXIONON      NM   R$  000000000122400000000012610000000001220000000000124100000000012390000000001236000000000123904408000000000000985900000000001223906800000000000000009999123100000010000000000000BRMYPKACNOR7153
012024010502RAPT4       010RANDON PART PN      N1   R$  000000000126400000000012970000000001247000000000128400000000012840000000001282000000000129104360000000000001494900000000001919838700000000000000009999123100000010000000000000BRRAPTACNPR4162
012024010502RDOR3       010REDE D OR   ON      NM   R$  000000000272000000000028510000000002712000000000280600000000028000000000002799000000000280312169000000000003809300000000010691190500000000000000009999123100000010000000000000BRRDORACNOR8111
012024010502TGMA3       010TEGMA       ON      NM   R$  000000000265700000000026990000000002648000000000267000000000026630000000002650000000000266400919000000000000133200000000000355711800000000000000009999123100000010000000000000BRTGMAACNOR7143
012024010502DIRR3       010DIRECIONAL  ON      NM   R$  000000000209500000000021700000000002079000000000213600000000021310000000002131000000000213607594000000000001186700000000002535438600000000000000009999123100000010000000000000BRDIRRACNOR0117
012024010502DTCY3       010DTCOM-DIRECTON           R$  000000000045100000000004510000000000451000000000045100000000004510000000000420000000000050000001000000000000000100000000000000045100000000000000009999123100000010000000000000BRDTCYACNOR5109
012024010502SOJA3       010BOA SAFRA   ON      NM   R$  000000000156700000000016000000000001555000000000157600000000015660000000001560000000000156600402000000000000085500000000000134752800000000000000009999123100000010000000000000BRSOJAACNOR9105
012024010502SAPR4       010SANEPAR     PN  EJ  N2   R$  000000000055100000000005600000000000545000000000055400000000005550000000000554000000000055503107000000000001672900000000000927939500000000000000009999123100000010000000000000BRSAPRACNPR6158
012024010502SEER3       010SER EDUCA   ON      NM   R$  000000000071000000000007410000000000706000000000072700000000007190000000000719000000000072002023000000000000825300000000000600153300000000000000009999123100000010000000000000BRSEERACNOR5119
012024010502PLPL3       010PLANOEPLANO ON      NM   R$  000000000106500000000011260000000001065000000000110500000000010990000000001088000000000109902417000000000000643800000000000711817700000000000000009999123100000010000000000000BRPLPLACNOR5103
012024010502PORT3       010WILSON SONS ON      NM   R$  000000000170200000000017330000000001700000000000171800000000017180000000001716000000000171900716000000000000134600000000000231323400000000000000009999123100000010000000000000BRPORTACNOR8105
012024010502PFRM3       010PROFARMA    ON  EJ  NM   R$  000000000052600000000005400000000000522000000000053000000000005250000000000525000000000053101045000000000000392200000000000208146000000000000000009999123100000010000000000000BRPFRMACNOR1116
012024010502SHUL4       010SCHULZ      PN  EJ       R$  000000000068700000000006970000000000680000000000068700000000006880000000000686000000000068801212000000000000368800000000000253558700000000000000009999123100000010000000000000BRSHULACNPR4154
012024010502EUCA3       010EUCATEX     ON  EJ  N1   R$  000000000168400000000016850000000001684000000000168400000000016850000000001650000000000168500002000000000000000200000000000000336900000000000000009999123100000010000000000000BREUCAACNOR1157
012024010502FESA3       010FERBASA     ON      N1   R$  000000000639800000000063980000000006398000000000639800000000063980000000006200000000000639900001000000000000000100000000000000639800000000000000009999123100000010000000000000BRFESAACNOR8186
012024010502FLRY3       010FLEURY      ON      NM   R$  000000000173600000000017650000000001727000000000175100000000017540000000001752000000000175508078000000000001709700000000002994495600000000000000009999123100000010000000000000BRFLRYACNOR5137
012024010502BRIT3       010BRISANET    ON      NM   R$  000000000033700000000003460000000000328000000000033500000000003300000000000329000000000033001940000000000001034800000000000347648000000000000000009999123100000010000000000000BRBRITACNOR0102
012024010502SANB4       010SANTANDER BRPN           R$  000000000167000000000016990000000001665000000000168700000000016920000000001686000000000169200280000000000000053800000000000090767100000000000000009999123100000010000000000000BRSANBACNPR5169
012024010502BRKM6       010BRASKEM     PNB     N1   R$  000000000149900000000014990000000001499000000000149900000000014990000000001491000000000189500003000000000000000300000000000000449700000000000000009999123100000010000000000000BRBRKMACNPB2114
012024010502ENEV3       010ENEVA       ON      NM   R$  000000000132500000000013550000000001315000000000134500000000013510000000001351000000000135214791000000000008208100000000011044840600000000000000009999123100000010000000000000BRENEVACNOR8105
012024010502ENGI3       010ENERGISA    ON  ED  N2   R$  000000000178500000000019300000000001785000000000186300000000018770000000001799000000000189000044000000000000005900000000000010996700000000000000009999123100000010000000000000BRENGIACNOR0145
012024010502EPAR3       010EMBPAR S/A  ON  ED       R$  000000000105900000000010690000000001025000000000104300000000010300000000001025000000000103100125000000000000028400000000000029631700000000000000009999123100000010000000000000BREPARACNOR9104
012024010502IRBR3       010IRBBRASIL REON      NM   R$  000000000419800000000042310000000004080000000000413900000000040920000000004092000000000409507045000000000001740000000000007203425900000000000000009999123100000010000000000000BRIRBRACNOR4110
012024010502MDNE3       010MOURA DUBEUXON      NM   R$  000000000121200000000012440000000001195000000000121600000000011950000000001193000000000120900865000000000000352800000000000429105800000000000000009999123100000010000000000000BRMDNEACNOR9100
012024010502NEOE3       010NEOENERGIA  ON  EJ  NM   R$  000000000203100000000020670000000002014000000000204900000000020580000000002055000000000205803255000000000000667800000000001368818300000000000000009999123100000010000000000000BRNEOEACNOR3121
012024010502ODPV3       010ODONTOPREV  ON      NM   R$  000000000115000000000011930000000001139000000000117800000000011830000000001173000000000118404512000000000001517900000000001789009700000000000000009999123100000010000000000000BRODPVACNOR4198
012024010502RPAD5       010ALFA HOLDINGPNA          R$  000000000079500000000007950000000000790000000000079400000000007900000000000790000000000080000002000000000000001100000000000000874000000000000000009999123100000010000000000000BRRPADACNPA4217
012024010502UNIP3       010UNIPAR      ON           R$  000000000697600000000069790000000006920000000000695300000000069230000000006915000000000693000024000000000000002400000000000016688800000000000000009999123100000010000000000000BRUNIPACNOR7204
012024010502USIM5       010USIMINAS    PNA     N1   R$  000000000089000000000008980000000000878000000000088700000000008920000000000892000000000089311592000000000010458400000000009286750300000000000000009999123100000010000000000000BRUSIMACNPA6168
012024010502WHRL4       010WHIRLPOOL   PN           R$  000000000046000000000004660000000000460000000000046100000000004610000000000462000000000046400022000000000000008300000000000003830800000000000000009999123100000010000000000000BRWHRLACNPR2128
012024010502VSTE3       010VESTE       ON      NM   R$  000000000194500000000020190000000001934000000000197200000000019580000000001957000000000198500115000000000000017400000000000034324600000000000000009999123100000010000000000000BRVSTEACNOR5101
012024010502RAIL3       010RUMO S.A.   ON      NM   R$  000000000222200000000022740000000002222000000000223800000000022650000000002259000000000226515196000000000016550600000000037041541500000000000000009999123100000010000000000000BRRAILACNOR9104
012024010502TAEE3       010TAESA       ON  ED  N2   R$  000000000123500000000012550000000001234000000000124500000000012490000000001245000000000124900574000000000000088300000000000109984600000000000000009999123100000010000000000000BRTAEEACNOR9145
012024010502TCSA3       010TECNISA     ON      NM   R$  000000000037400000000003790000000000364000000000037400000000003770000000000371000000000037700203000000000000085000000000000031832700000000000000009999123100000010000000000000BRTCSAACNOR3112
012024010502TEND3       010TENDA       ON      NM   R$  000000000115400000000011880000000001140000000000116600000000011630000000001162000000000116312672000000000005524200000000006441849500000000000000009999123100000010000000000000BRTENDACNOR4111
012024010502VIVA3       010VIVARA S.A. ON      NM   R$  000000000334200000000034200000000003324000000000338100000000033690000000003369000000000337007399000000000001735400000000005868530800000000000000009999123100000010000000000000BRVIVAACNOR0106
012024010502PSSA3       010PORTO SEGUROON  EJ  NM   R$  000000000284500000000028610000000002819000000000285200000000028560000000002856000000000285702946000000000000908100000000002590067600000000000000009999123100000010000000000000BRPSSAACNOR7153
012024010502QUAL3       010QUALICORP   ON      NM   R$  000000000031400000000003330000000000309000000000032600000000003280000000000327000000000033104366000000000004555500000000001489196900000000000000009999123100000010000000000000BRQUALACNOR6119
012024010502SUZB3       010SUZANO S.A. ON      NM   R$  000000000542900000000054550000000005376000000000540500000000054050000000005405000000000540811173000000000002229700000000012051985300000000000000009999123100000010000000000000BRSUZBACNOR0129
012024010502GFSA3       010GAFISA      ON      NM   R$  000000000097200000000011160000000000958000000000106600000000011050000000001105000000000111111718000000000006511900000000006945441500000000000000009999123100000010000000000000BRGFSAACNOR3123
012024010502BMEB4       010MERCANTIL   PN  EJ  N1   R$  000000000161500000000017260000000001600000000000167400000000016960000000001679000000000169600063000000000000010200000000000017077300000000000000009999123100000010000000000000BRBMEBACNPR5210
012024010502BMOB3       010BEMOBI TECH ON      NM   R$  000000000130700000000013220000000001268000000000128800000000012850000000001285000000000128602066000000000000546800000000000704704700000000000000009999123100000010000000000000BRBMOBACNOR7103
012024010502ITUB4       010ITAUUNIBANCOPN  EJ  N1   R$  000000000329100000000033700000000003288000000000334700000000033700000000003362000000000337046408000000000027726400000000092800322500000000000000009999123100000010000000000000BRITUBACNPR1329
012024010502SMFT3       010SMART FIT   ON      NM   R$  000000000246200000000025400000000002445000000000250600000000025010000000002489000000000250107880000000000001838900000000004609088000000000000000009999123100000010000000000000BRSMFTACNOR1111
012024010502BALM4       010BAUMER      PN           R$  000000000106500000000010650000000001065000000000106500000000010650000000000975000000000105900001000000000000000100000000000000106500000000000000009999123100000010000000000000BRBALMACNPR2056
012024010502MOVI3       010MOVIDA      ON      NM   R$  000000000110300000000011690000000001103000000000114400000000011320000000001131000000000113308870000000000003871600000000004429200600000000000000009999123100000010000000000000BRMOVIACNOR0122
012024010502MGLU3       010MAGAZ LUIZA ON      NM   R$  000000000019200000000002080000000000191000000000019900000000001970000000000197000000000019848712000000000143307000000000028621367200000000000000009999123100000010000000000000BRMGLUACNOR2121
012024010502AZUL4       010AZUL        PN      N2   R$  000000000137600000000014200000000001354000000000138700000000013830000000001383000000000138414006000000000011849000000000016444830700000000000000009999123100000010000000000000BRAZULACNPR4102
012024010502CEAB3       010CEA MODAS   ON      NM   R$  000000000072200000000007490000000000717000000000073000000000007240000000000724000000000072503774000000000002529300000000001848326900000000000000009999123100000010000000000000BRCEABACNOR1101
012024010502CAMB3       010CAMBUCI     ON           R$  000000000102600000000010790000000001026000000000105300000000010620000000001062000000000106500315000000000000214400000000000225807800000000000000009999123100000010000000000000BRCAMBACNOR4127
012024010502CCRO3       010CCR SA      ON      NM   R$  000000000137600000000013920000000001368000000000137900000000013830000000001383000000000138407754000000000003572500000000004929855200000000000000009999123100000010000000000000BRCCROACNOR2144
012024010502ENGI4       010ENERGISA    PN  ED  N2   R$  000000000085200000000008630000000000840000000000084700000000008410000000000840000000000085900075000000000000017000000000000014408700000000000000009999123100000010000000000000BRENGIACNPR7141
012024010502EQPA3       010EQTL PARA   ON           R$  000000000076100000000008200000000000761000000000077400000000007750000000000769000000000077400021000000000000018400000000000014254400000000000000009999123100000010000000000000BREQPAACNOR1109
012024010502MATD3       010MATER DEI   ON      NM   R$  000000000079700000000008280000000000797000000000081600000000008150000000000815000000000081601653000000000000420900000000000343859100000000000000009999123100000010000000000000BRMATDACNOR4103
012024010502MEAL3       010IMC S/A     ON      NM   R$  000000000017600000000001830000000000173000000000017800000000001810000000000179000000000018100690000000000001188800000000000212571800000000000000009999123100000010000000000000BRMEALACNOR9105
012024010502NGRD3       010NEOGRID     ON      NM   R$  000000000012200000000001250000000000122000000000012300000000001230000000000123000000000012400322000000000000305800000000000037790000000000000000009999123100000010000000000000BRNGRDACNOR3103
012024010502DASA3       010DASA        ON      NM   R$  000000000092500000000009450000000000905000000000092300000000009110000000000907000000000091101413000000000000323900000000000299140100000000000000009999123100000010000000000000BRDASAACNOR1122
012024010502RRRP3       0103R PETROLEUMON      NM   R$  000000000258200000000026440000000002567000000000261800000000026150000000002615000000000262710557000000000003417300000000008949260600000000000000009999123100000010000000000000BRRRRPACNOR5102
012024010502UNIP5       010UNIPAR      PNA          R$  000000000789900000000079950000000007457000000000770600000000075910000000007590000000000819700005000000000000000500000000000003853300000000000000009999123100000010000000000000BRUNIPACNPA0206
012024010502USIM6       010USIMINAS    PNB     N1   R$  000000000150100000000015010000000001501000000000150100000000015010000000000701000000000162800002000000000000000200000000000000300200000000000000009999123100000010000000000000BRUSIMACNPB4168
012024010502WIZC3       010WIZ CO      ON      NM   R$  000000000067200000000006880000000000663000000000067600000000006750000000000675000000000067901323000000000000282100000000000190890000000000000000009999123100000010000000000000BRWIZCACNOR5101
012024010502VULC3       010VULCABRAS   ON      NM   R$  000000000188200000000019430000000001882000000000192300000000019320000000001920000000000193302467000000000000469200000000000902370500000000000000009999123100000010000000000000BRVULCACNOR2156
012024010502RAIZ4       010RAIZEN      PN      N2   R$  000000000040000000000004100000000000397000000000040400000000004040000000000403000000000040507998000000000011373500000000004597353600000000000000009999123100000010000000000000BRRAIZACNPR6109
012024010502TAEE4       010TAESA       PN  ED  N2   R$  000000000124800000000012650000000001243000000000125500000000012580000000001255000000000125900702000000000000163700000000000205528300000000000000009999123100000010000000000000BRTAEEACNPR6145
012024010502TECN3       010TECHNOS     ON      NM   R$  000000000036100000000003650000000000351000000000035900000000003650000000000361000000000036500523000000000000211500000000000076137800000000000000009999123100000010000000000000BRTECNACNOR6108
012024010502TFCO4       010TRACK FIELD PN  EJ  N2   R$  000000000140100000000014080000000001380000000000139100000000014000000000001394000000000140300497000000000000387500000000000539073300000000000000009999123100000010000000000000BRTFCOACNPR8111
012024010502VIVR3       010VIVER       ON      NM   R$  000000000049500000000005100000000000487000000000049600000000004990000000000499000000000050000704000000000000443500000000000219994000000000000000009999123100000010000000000000BRVIVRACNOR4120
012024010502PTBL3       010PORTOBELLO  ON      NM   R$  000000000064800000000006930000000000638000000000067500000000006760000000000675000000000067601920000000000000817000000000000551864200000000000000009999123100000010000000000000BRPTBLACNOR8132
012024010502RADL3       010RAIADROGASILON      NM   R$  000000000291900000000029620000000002899000000000293800000000029500000000002947000000000295011766000000000003257700000000009573086500000000000000009999123100000010000000000000BRRADLACNOR0154
012024010502VAMO3       010VAMOS       ON      NM   R$  000000000095900000000009890000000000952000000000097500000000009820000000000980000000000098312290000000000004093900000000003994589900000000000000009999123100000010000000000000BRVAMOACNOR7105
012024010502GGBR3       010GERDAU      ON      N1   R$  000000000209100000000021100000000002077000000000209400000000020970000000002095000000000210300190000000000000027800000000000058222400000000000000009999123100000010000000000000BRGGBRACNOR1189
012024010502BMGB4       010BANCO BMG   PN  EJ  N1   R$  000000000029500000000003050000000000291000000000029900000000002990000000000299000000000030101121000000000000825700000000000246965200000000000000009999123100000010000000000000BRBMGBACNPR0108
012024010502BIOM3       010BIOMM       ON      MA   R$  000000000058400000000005850000000000573000000000057900000000005810000000000572000000000058100012000000000000001400000000000000811100000000000000009999123100000010000000000000BRBIOMACNOR2112
012024010502MILS3       010MILLS       ON  EJ  NM   R$  000000000135600000000013870000000001341000000000136800000000013700000000001367000000000137002971000000000001119100000000001531167100000000000000009999123100000010000000000000BRMILSACNOR2124
012024010502SMTO3       010SAO MARTINHOON      NM   R$  000000000280200000000028750000000002798000000000284300000000028400000000002840000000000284108979000000000001711700000000004866875800000000000000009999123100000010000000000000BRSMTOACNOR3125
012024010502BAUH4       010EXCELSIOR   PN           R$  000000000818500000000081850000000008185000000000818500000000081850000000000100000000000818600001000000000000000100000000000000818500000000000000009999123100000010000000000000BRBAUHACNPR3117
012024010502MRFG3       010MARFRIG     ON      NM   R$  000000000093600000000009600000000000923000000000094500000000009470000000000946000000000094811749000000000004654600000000004400309300000000000000009999123100000010000000000000BRMRFGACNOR0116
012024010502AVLL3       010ALPHAVILLE  ON      NM   R$  000000000049600000000004960000000000491000000000049500000000004960000000000493000000000049600009000000000000001900000000000000941300000000000000009999123100000010000000000000BRAVLLACNOR5103
012024010502AALR3       010ALLIAR      ON      NM   R$  000000000086600000000009130000000000862000000000088700000000008870000000000886000000000089101014000000000000190900000000000169467600000000000000009999123100000010000000000000BRAALRACNOR6102
012024010502CEBR3       010CEB         ON           R$  000000000178200000000018000000000001782000000000179600000000018000000000001782000000000180000022000000000000009300000000000016711500000000000000009999123100000010000000000000BRCEBRACNOR5124
012024010502CAML3       010CAMIL       ON      NM   R$  000000000077400000000007900000000000771000000000077900000000007840000000000782000000000078401777000000000000564800000000000440464300000000000000009999123100000010000000000000BRCAMLACNOR3126
012024010502CSRN3       010COSERN      ON  EJ       R$  000000000283800000000029000000000002838000000000286900000000029000000000002650000000000290000004000000000000000400000000000001147600000000000000009999123100000010000000000000BRCSRNACNOR0190
012024010502ENJU3       010ENJOEI      ON      NM   R$  000000000015900000000001630000000000157000000000015900000000001570000000000157000000000015800181000000000000149900000000000023915500000000000000009999123100000010000000000000BRENJUACNOR9100
012024010502EQPA7       010EQTL PARA   PNC          R$  000000000075100000000007510000000000751000000000075100000000007510000000000765000000000090000002000000000000001200000000000000901200000000000000009999123100000010000000000000BREQPAACNPC0109
012024010502MBLY3       010MOBLY       ON      NM   R$  000000000019800000000002010000000000196000000000019900000000001990000000000199000000000020000607000000000000579800000000000115542900000000000000009999123100000010000000000000BRMBLYACNOR5100
012024010502MELK3       010MELNICK     ON      NM   R$  000000000045900000000004680000000000449000000000046300000000004670000000000464000000000046700388000000000000146300000000000067742600000000000000009999123100000010000000000000BRMELKACNOR8110
012024010502NINJ3       010GETNINJAS   ON      NM   R$  000000000048600000000004950000000000485000000000048800000000004950000000000490000000000049500044000000000000037500000000000018323100000000000000009999123100000010000000000000BRNINJACNOR5100
012024010502ROMI3       010ROMI        ON      NM   R$  000000000130200000000013350000000001285000000000131500000000013200000000001316000000000132001260000000000000260600000000000342895900000000000000009999123100000010000000000000BRROMIACNOR8192
012024010502UCAS3       010UNICASA     ON      NM   R$  000000000026500000000002690000000000265000000000026600000000002660000000000265000000000026700055000000000000009800000000000002616300000000000000009999123100000010000000000000BRUCASACNOR1113
012024010502UNIP6       010UNIPAR      PNB          R$  000000000740800000000074800000000007350000000000739800000000073980000000007387000000000740100873000000000000130900000000000968437300000000000000009999123100000010000000000000BRUNIPACNPB8204
012024010502WEST3       010WESTWING    ON      NM   R$  000000000013500000000001380000000000133000000000013500000000001360000000000135000000000013600078000000000000085800000000000011622200000000000000009999123100000010000000000000BRWESTACNOR3100
012024010502WLMM4       010WLM IND COM PN           R$  000000000275000000000027920000000002745000000000278000000000027920000000002605000000000279300008000000000000000800000000000002224200000000000000009999123100000010000000000000BRWLMMACNPR3116
012024010502VVEO3       010VIVEO       ON      NM   R$  000000000124800000000013040000000001243000000000129000000000012910000000001290000000000129104694000000000001247000000000001609445100000000000000009999123100000010000000000000BRVVEOACNOR0103
012024010502SYNE3       010SYN PROP TECON      NM   R$  000000000046000000000004740000000000458000000000046600000000004700000000000469000000000047200991000000000000308300000000000143933100000000000000009999123100000010000000000000BRSYNEACNOR2102
012024010502TASA3       010TAURUS ARMASON      N2   R$  000000000153000000000015380000000001508000000000152200000000015190000000001512000000000152800076000000000000013300000000000020248100000000000000009999123100000010000000000000BRTASAACNOR7103
012024010502TELB3       010TELEBRAS    ON           R$  000000000157000000000015700000000001570000000000157000000000015700000000001540000000000157000001000000000000000100000000000000157000000000000000009999123100000010000000000000BRTELBACNOR2140
012024010502VBBR3       010VIBRA       ON  EJ  NM   R$  000000000224500000000023030000000002232000000000226700000000022830000000002277000000000228515884000000000008391300000000019027552200000000000000009999123100000010000000000000BRVBBRACNOR1106
012024010502VIVT3       010TELEF BRASILON  EJ       R$  000000000507700000000050990000000004992000000000503700000000050480000000005037000000000505012442000000000002693800000000013570632200000000000000009999123100000010000000000000BRVIVTACNOR0178
012024010502PTNT3       010PETTENATI   ON           R$  000000000109900000000012000000000001094000000000113000000000012000000000001084000000000120000025000000000000006000000000000006785100000000000000009999123100000010000000000000BRPTNTACNOR6042
012024010502SRNA3       010SERENA      ON      NM   R$  000000000099000000000010370000000000985000000000101700000000010150000000001014000000000101502406000000000000937500000000000953494600000000000000009999123100000010000000000000BRSRNAACNOR4100
012024010502GEPA3       010GER PARANAP ON           R$  000000000271900000000027190000000002719000000000271900000000027190000000002570000000000271900001000000000000001000000000000002719000000000000000009999123100000010000000000000BRGEPAACNOR2152
012024010502BSLI4       010BRB BANCO   PN           R$  000000000119000000000012330000000001190000000000120100000000012010000000001200000000000123000006000000000000000700000000000000841200000000000000009999123100000010000000000000BRBSLIACNPR2192
012024010502BMIN4       010MERC INVEST PN           R$  000000000163000000000016300000000001630000000000163000000000016300000000001630000000000164300001000000000000000200000000000000326000000000000000009999123100000010000000000000BRBMINACNPR1175
012024010502GGBR4       010GERDAU      PN      N1   R$  000000000230400000000023170000000002281000000000230500000000023160000000002314000000000231619311000000000007156300000000016498351500000000000000009999123100000010000000000000BRGGBRACNPR8189
012024010502MLAS3       010MULTILASER  ON      NM   R$  000000000020000000000002080000000000197000000000020500000000002060000000000206000000000020702300000000000002063000000000000423792000000000000000009999123100000010000000000000BRMLASACNOR9101
012024010502BLAU3       010BLAU        ON      NM   R$  000000000154800000000015670000000001521000000000154400000000015330000000001533000000000154002085000000000000346800000000000535575500000000000000009999123100000010000000000000BRBLAUACNOR8111
012024010502BAZA3       010AMAZONIA    ON           R$  000000000950000000000095000000000009400000000000944300000000094520000000009432000000000946300010000000000000001200000000000011332400000000000000009999123100000010000000000000BRBAZAACNOR0178
012024010502MRVE3       010MRV         ON      NM   R$  000000000097300000000010190000000000962000000000099800000000009860000000000986000000000098722332000000000016217100000000016187728300000000000000009999123100000010000000000000BRMRVEACNOR2126
012024010502AZEV3       010AZEVEDO     ON           R$  000000000019500000000002030000000000195000000000019900000000001990000000000199000000000020000347000000000000314300000000000062548000000000000000009999123100000010000000000000BRAZEVACNOR0121
012024010502ABCB4       010ABC BRASIL  PN  EJS N2   R$  000000000228300000000023580000000002274000000000233600000000023440000000002332000000000234404650000000000000821100000000001918521400000000000000009999123100000010000000000000BRABCBACNPR4145
012024010502CEBR5       010CEB         PNA          R$  000000000163600000000017430000000001636000000000165300000000016460000000001645000000000166800026000000000000014400000000000023805000000000000000009999123100000010000000000000BRCEBRACNPA8123
012024010502CASH3       010MELIUZ      ON      NM   R$  000000000076400000000008020000000000760000000000077900000000007670000000000767000000000077002452000000000001681800000000001311659600000000000000009999123100000010000000000000BRCASHACNOR8105
012024010502CSUD3       010CSU DIGITAL ON      NM   R$  000000000185400000000018890000000001840000000000186000000000018670000000001855000000000186800156000000000000037400000000000069584900000000000000009999123100000010000000000000BRCSUDACNOR5107
012024010502ENMT3       010ENERGISA MT ON           R$  000000000694800000000069480000000006948000000000694800000000069480000000006110000000000720000001000000000000000100000000000000694800000000000000009999123100000010000000000000BRENMTACNOR5119
012024010502EQTL3       010EQUATORIAL  ON      NM   R$  000000000345500000000034950000000003441000000000346500000000034780000000003473000000000347914096000000000006881400000000023847886400000000000000009999123100000010000000000000BREQTLACNOR0129
012024010502MDIA3       010M.DIASBRANCOON  EJ  NM   R$  000000000366300000000037680000000003659000000000370300000000036840000000003684000000000369002182000000000000512000000000001896255300000000000000009999123100000010000000000000BRMDIAACNOR7133
012024010502MERC4       010MERC FINANC PN           R$  000000000074000000000008000000000000740000000000077000000000008000000000000741000000000084700002000000000000000200000000000000154000000000000000009999123100000010000000000000BRMERCACNPR9179
012024010502NTCO3       010GRUPO NATURAON      NM   R$  000000000161700000000016640000000001606000000000163500000000016310000000001630000000000163611803000000000004826500000000007895070600000000000000009999123100000010000000000000BRNTCOACNOR5104
012024010502RPAD3       010ALFA HOLDINGON           R$  000000000079400000000007940000000000794000000000079400000000007940000000000794000000000082200001000000000000000100000000000000079400000000000000009999123100000010000000000000BRRPADACNOR1198
012024010502UGPA3       010ULTRAPAR    ON      NM   R$  000000000264900000000027260000000002633000000000270000000000027100000000002699000000000271017335000000000004852400000000013103535500000000000000009999123100000010000000000000BRUGPAACNOR8154
012024010502USIM3       010USIMINAS    ON      N1   R$  000000000087000000000008830000000000865000000000087400000000008790000000000872000000000087901302000000000000446200000000000390181400000000000000009999123100000010000000000000BRUSIMACNOR3166
012024010502WHRL3       010WHIRLPOOL   ON           R$  000000000044000000000004400000000000440000000000044000000000004400000000000438000000000044200006000000000000001000000000000000440000000000000000009999123100000010000000000000BRWHRLACNOR5128
012024010502VLID3       010VALID       ON      NM   R$  000000000206900000000021090000000002053000000000208300000000020750000000002067000000000207502155000000000000363300000000000756874200000000000000009999123100000010000000000000BRVLIDACNOR5141
012024010502WEGE3       010WEG         ON      NM   R$  000000000360300000000036350000000003557000000000359200000000035970000000003586000000000359718789000000000009274700000000033319847500000000000000009999123100000010000000000000BRWEGEACNOR0220
012024010502TAEE11      010TAESA       UNT ED  N2   R$  000000000373500000000037820000000003719000000000375500000000037600000000003755000000000376105873000000000001059100000000003977498700000000000000009999123100000010000000000000BRTAEECDAM10145
012024010502TASA4       010TAURUS ARMASPN      N2   R$  000000000153100000000015500000000001512000000000153000000000015360000000001528000000000153601708000000000000315200000000000482293300000000000000009999123100000010000000000000BRTASAACNPR4103
012024010502TELB4       010TELEBRAS    PN           R$  000000000123300000000012700000000001233000000000125300000000012590000000001228000000000126000040000000000000005900000000000007394500000000000000009999123100000010000000000000BRTELBACNPR9140
012024010502VITT3       010VITTIA      ON  EJ  NM   R$  000000000100300000000010070000000000988000000000100000000000010050000000001005000000000100600971000000000000167500000000000167639600000000000000009999123100000010000000000000BRVITTACNOR4106
012024010502PRNR3       010PRINER      ON      NM   R$  000000000113800000000011700000000001128000000000114400000000011280000000001128000000000114000573000000000000095900000000000109785700000000000000009999123100000010000000000000BRPRNRACNOR4108
012024010502PTNT4       010PETTENATI   PN           R$  000000000085000000000008500000000000833000000000083900000000008400000000000831000000000084700026000000000000009100000000000007640500000000000000009999123100000010000000000000BRPTNTACNPR3047
012024010502STBP3       010SANTOS BRP  ON  EDJ NM   R$  000000000091700000000009520000000000914000000000093700000000009360000000000935000000000093609496000000000004116600000000003860801000000000000000009999123100000010000000000000BRSTBPACNOR3128
012024010502GEPA4       010GER PARANAP PN           R$  000000000261000000000026170000000002540000000000260500000000025400000000002506000000000261700004000000000000000700000000000001823500000000000000009999123100000010000000000000BRGEPAACNPR9159
012024010502BMEB3       010MERCANTIL   ON  EJ  N1   R$  000000000203500000000020350000000002035000000000203500000000020350000000001610000000000203500001000000000000000400000000000000814000000000000000009999123100000010000000000000BRBMEBACNOR8205
012024010502BMKS3       010BIC MONARK  ON           R$  000000003500000000000364320000000034100000000003589200000000341000000000034100000000003599500004000000000000000023000000000000825532000000000000009999123100000010000000000000BRBMKSACNOR9165
012024010502ITUB3       010ITAUUNIBANCOON  EJ  N1   R$  000000000279300000000028660000000002787000000000284400000000028490000000002849000000000285502053000000000000581700000000001654633300000000000000009999123100000010000000000000BRITUBACNOR4329
012024010502MNPR3       010MINUPAR     ON           R$  000000000181600000000018970000000001815000000000186800000000018970000000001815000000000189800018000000000000002400000000000004485300000000000000009999123100000010000000000000BRMNPRACNOR5122
012024010502BAHI3       010BAHEMA      ON      MA   R$  000000000079900000000008300000000000777000000000080000000000008300000000000792000000000083000022000000000000007800000000000006247100000000000000009999123100000010000000000000BRBAHIACNOR1074
012024010502BBAS3       010BRASIL      ON      NM   R$  000000000541800000000055130000000005400000000000545800000000054880000000005488000000000548914592000000000008227900000000044913215200000000000000009999123100000010000000000000BRBBASACNOR3319
012024010502MGEL4       010MANGELS INDLPN           R$  000000000133500000000013360000000001335000000000133500000000013360000000001330000000000137800002000000000000000500000000000000667600000000000000009999123100000010000000000000BRMGELACNPR3147
012024010502AZEV4       010AZEVEDO     PN           R$  000000000019300000000002040000000000193000000000019800000000002020000000000200000000000020201465000000000002404400000000000477190100000000000000009999123100000010000000000000BRAZEVACNPR7121
012024010502ABEV3       010AMBEV S/A   ON           R$  000000000136200000000013690000000001353000000000136100000000013600000000001360000000000136122855000000000018293900000000024899756600000000000000009999123100000010000000000000BRABEVACNOR1127
012024010502B3SA3       010B3          ON  EDJ NM   R$  000000000136700000000014070000000001364000000000138700000000013970000000001397000000000139830106000000000039270000000000054482526600000000000000009999123100000010000000000000BRB3SAACNOR6130
012024010502CBAV3       010CBA         ON      NM   R$  000000000048800000000005130000000000477000000000049800000000005080000000000507000000000050805368000000000004257100000000002122630400000000000000009999123100000010000000000000BRCBAVACNOR5104
012024010502BEEF3       010MINERVA     ON      NM   R$  000000000071000000000007260000000000703000000000071500000000007100000000000710000000000071408962000000000007790500000000005575697500000000000000009999123100000010000000000000BRBEEFACNOR6116
012024010502BEES4       010BANESTES    PN  EJ       R$  000000000101200000000010140000000000990000000000100400000000009900000000000922000000000100100038000000000000005900000000000005927500000000000000009999123100000010000000000000BRBEESACNPR6311
012024010502CRFB3       010CARREFOUR BRON      NM   R$  000000000117300000000012070000000001165000000000118500000000011660000000001166000000000116912329000000000005116600000000006066253700000000000000009999123100000010000000000000BRCRFBACNOR2116
012024010502CSAB3       010SEG AL BAHIAON           R$  000000000305000000000030500000000003050000000000305000000000030500000000000000000000000350000001000000000000000100000000000000305000000000000000009999123100000010000000000000BRCSABACNOR1061
012024010502EMBR3       010EMBRAER     ON      NM   R$  000000000211700000000021370000000002102000000000212700000000021370000000002132000000000213813684000000000004358900000000009275588100000000000000009999123100000010000000000000BREMBRACNOR4191
012024010502IGTI3       010IGUATEMI S.AON      N1   R$  000000000030000000000003020000000000292000000000029600000000002920000000000292000000000030200314000000000000083600000000000024817100000000000000009999123100000010000000000000BRIGTIACNOR8104
012024010502INTB3       010INTELBRAS   ON  EJ  NM   R$  000000000205600000000021070000000002044000000000208100000000020880000000002088000000000208902857000000000000577700000000001202683300000000000000009999123100000010000000000000BRINTBACNOR9109
012024010502AURE3       010AUREN       ON      NM   R$  000000000133400000000013570000000001328000000000134600000000013500000000001350000000000135310861000000000004673500000000006291654200000000000000009999123100000010000000000000BRAUREACNOR9103
012024010502TPIS3       010TRIUNFO PARTON      NM   R$  000000000041400000000004150000000000402000000000040800000000004130000000000405000000000041300131000000000000052100000000000021301400000000000000009999123100000010000000000000BRTPISACNOR8118
012024010502TRPL4       010TRAN PAULISTPN      N1   R$  000000000261400000000027100000000002601000000000265200000000026160000000002616000000000261815901000000000004010800000000010638158600000000000000009999123100000010000000000000BRTRPLACNPR1185
012024010502AESB3       010AES BRASIL  ON      NM   R$  000000000120200000000012350000000001196000000000121700000000012130000000001211000000000121506322000000000001982700000000002413533600000000000000009999123100000010000000000000BRAESBACNOR7105
012024010502ALOS3       010ALLOS       ON      NM   R$  000000000252200000000025630000000002506000000000252900000000025230000000002522000000000252311711000000000004745600000000012006047000000000000000009999123100000010000000000000BRALOSACNOR5100
012024010502CLSC4       010CELESC      PN  EJ  N2   R$  000000000649700000000064990000000006439000000000648300000000064890000000006448000000000650000014000000000000001600000000000010374100000000000000009999123100000010000000000000BRCLSCACNPR3128
012024010502CYRE3       010CYRELA REALTON      NM   R$  000000000218200000000022600000000002163000000000221900000000022160000000002215000000000221715380000000000006993000000000015523595200000000000000009999123100000010000000000000BRCYREACNOR7139
012024010502GOAU4       010GERDAU MET  PN      N1   R$  000000000105900000000010650000000001047000000000105800000000010650000000001061000000000106513242000000000006934700000000007339344500000000000000009999123100000010000000000000BRGOAUACNPR8266
012024010502CGAS5       010COMGAS      PNA EJ       R$  000000001260000000000126300000000012600000000001260700000000126300000000012529000000001267700005000000000000000500000000000006303500000000000000009999123100000010000000000000BRCGASACNPA3159
012024010502FRAS3       010FRAS-LE     ON      N1   R$  000000000162000000000016610000000001615000000000163900000000016400000000001628000000000164001556000000000000215300000000000353088100000000000000009999123100000010000000000000BRFRASACNOR0158
012024010502BRSR5       010BANRISUL    PNA     N1   R$  000000000167600000000016760000000001676000000000167600000000016760000000000000000000000189700002000000000000000600000000000001005600000000000000009999123100000010000000000000BRBRSRACNPA6189
012024010502CTSA3       010SANTANENSE  ON           R$  000000000049100000000005000000000000482000000000048800000000004880000000000488000000000049400069000000000000018000000000000008801700000000000000009999123100000010000000000000BRCTSAACNOR3062
012024010502ESPA3       010ESPACOLASER ON      NM   R$  000000000010600000000001130000000000104000000000010900000000001090000000000108000000000010901201000000000003299800000000000359750300000000000000009999123100000010000000000000BRESPAACNOR7103
012024010502BRAP4       010BRADESPAR   PN      N1   R$  000000000250400000000025040000000002466000000000248600000000024880000000002486000000000248806257000000000002183700000000005430641800000000000000009999123100000010000000000000BRBRAPACNPR2147
012024010502CPLE6       010COPEL       PNB     N2   R$  000000000099700000000010130000000000993000000000100600000000010080000000001008000000000101023999000000000018527600000000018645838700000000000000009999123100000010000000000000BRCPLEACNPB9145
012024010502LEVE3       010METAL LEVE  ON  EJ  NM   R$  000000000333300000000034660000000003332000000000341700000000034280000000003425000000000342802832000000000000636200000000002174506400000000000000009999123100000010000000000000BRLEVEACNOR2196
012024010502LPSB3       010LOPES BRASILON      NM   R$  000000000023700000000002410000000000230000000000023400000000002340000000000233000000000023500368000000000000097200000000000022806300000000000000009999123100000010000000000000BRLPSBACNOR0113
012024010502OPCT3       010OCEANPACT   ON      NM   R$  000000000062100000000006340000000000610000000000062500000000006250000000000625000000000062600967000000000000287900000000000180087500000000000000009999123100000010000000000000BROPCTACNOR0100
012024010502PATI4       010PANATLANTICAPN           R$  000000000290100000000029010000000002901000000000290100000000029010000000002900000000000350000003000000000000000300000000000000870300000000000000009999123100000010000000000000BRPATIACNPR3064
012024010502PEAB3       010PAR AL BAHIAON           R$  000000000399000000000040000000000003703000000000389700000000037030000000003538000000000399000003000000000000000300000000000001169300000000000000009999123100000010000000000000BRPEABACNOR3131
012024010502ALPA3       010ALPARGATAS  ON      N1   R$  000000000098700000000009950000000000977000000000098400000000009880000000000973000000000098900010000000000000001300000000000001280400000000000000009999123100000010000000000000BRALPAACNOR0231
012024010502ATOM3       010ATOMPAR     ON           R$  000000000021800000000002240000000000217000000000021900000000002180000000000218000000000022100019000000000000003500000000000000768300000000000000009999123100000010000000000000BRATOMACNOR1106
012024010508JFEN3       010JOAO FORTES ON           R$  000000000020500000000002130000000000200000000000020500000000002080000000000206000000000020800064000000000000027300000000000005604500000000000000009999123100000010000000000000BRJFENACNOR0058
012024010508RNEW11      010RENOVA      UNT     N2   R$  000000000040000000000004370000000000385000000000039800000000004240000000000364000000000042500092000000000000016800000000000006703100000000000000009999123100000010000000000000BRRNEWCDAM15110
012024010508TEKA4       010TEKA        PN           R$  000000000210000000000021000000000002100000000000210000000000021000000000001907000000000239800001000000000000000100000000000000210000000000000000009999123100000010000000000000BRTEKAACNPR3140
012024010502BGIP4       010BANESE      PN           R$  000000000232700000000024000000000002327000000000234200000000023400000000002335000000000239800006000000000000001800000000000004216900000000000000009999123100000010000000000000BRBGIPACNPR8206
012024010502CRIV3       010ALFA FINANC ON           R$  000000000058500000000005860000000000585000000000058500000000005860000000000586000000000059000003000000000000000500000000000000292900000000000000009999123100000010000000000000BRCRIVACNOR4195
012024010502CSAN3       010COSAN       ON      NM   R$  000000000190000000000019350000000001895000000000191600000000019190000000001918000000000191914653000000000005653300000000010833798800000000000000009999123100000010000000000000BRCSANACNOR6124
012024010502ENAT3       010ENAUTA PART ON      NM   R$  000000000186300000000019580000000001862000000000191500000000019000000000001892000000000190105094000000000002495200000000004780219500000000000000009999123100000010000000000000BRENATACNOR0104
012024010502IGTI4       010IGUATEMI S.APN      N1   R$  000000000105500000000010560000000001055000000000105500000000010560000000001008000000000118400003000000000000000400000000000000422300000000000000009999123100000010000000000000BRIGTIACNPR5104
012024010502LUPA3       010LUPATECH    ON      NM   R$  000000000021500000000002220000000000213000000000021800000000002150000000000215000000000021700408000000000000268600000000000058611100000000000000009999123100000010000000000000BRLUPAACNOR8112
012024010502TIMS3       010TIM         ON  EJ  NM   R$  000000000173600000000017460000000001712000000000172400000000017200000000001718000000000172008116000000000003576800000000006167890600000000000000009999123100000010000000000000BRTIMSACNOR5114
012024010502TRAD3       010TC          ON      NM   R$  000000000008200000000000850000000000082000000000008300000000000840000000000082000000000008400310000000000000377800000000000031358400000000000000009999123100000010000000000000BRTRADACNOR3101
012024010502TTEN3       0103TENTOS     ON      NM   R$  000000000110100000000011210000000001090000000000110200000000011050000000001099000000000110603971000000000000827000000000000912021300000000000000009999123100000010000000000000BRTTENACNOR0102
012024010502AGRO3       010BRASILAGRO  ON      NM   R$  000000000256500000000026020000000002551000000000257600000000025620000000002561000000000257001619000000000000247900000000000638807400000000000000009999123100000010000000000000BRAGROACNOR7114
012024010502BBDC3       010BRADESCO    ON  EJ  N1   R$  000000000148900000000015180000000001480000000000150700000000015150000000001509000000000151506005000000000003674400000000005538666700000000000000009999123100000010000000000000BRBBDCACNOR1765
012024010502CMIG3       010CEMIG       ON  EJ  N1   R$  000000000151000000000015300000000001497000000000151200000000015120000000001512000000000151500892000000000000294500000000000445495300000000000000009999123100000010000000000000BRCMIGACNOR6239
012024010502GGPS3       010GPS         ON      NM   R$  000000000183000000000018870000000001818000000000187300000000018800000000001870000000000188005234000000000001372400000000002571149500000000000000009999123100000010000000000000BRGGPSACNOR9102
012024010502CEBR6       010CEB         PNB          R$  000000000187700000000019720000000001853000000000191300000000019250000000001911000000000192500050000000000000006700000000000012823500000000000000009999123100000010000000000000BRCEBRACNPB6123
012024010502CGRA3       010GRAZZIOTIN  ON           R$  000000000262300000000026230000000002590000000000260600000000025900000000002590000000000260700012000000000000002400000000000006255300000000000000009999123100000010000000000000BRCGRAACNOR2081
012024010502FRIO3       010METALFRIO   ON      NM   R$  000000002300000000000243000000000023000000000002392200000000242000000000023000000000002420000008000000000000000900000000000021529900000000000000009999123100000010000000000000BRFRIOACNOR2111
012024010502BRSR6       010BANRISUL    PNB     N1   R$  000000000128500000000013290000000001271000000000131800000000013240000000001324000000000132604794000000000001448600000000001910195300000000000000009999123100000010000000000000BRBRSRACNPB4188
012024010502CTSA4       010SANTANENSE  PN           R$  000000000023700000000002470000000000226000000000023700000000002270000000000226000000000022700279000000000000062200000000000014758700000000000000009999123100000010000000000000BRCTSAACNPR0062
012024010502ESTR4       010ESTRELA     PN           R$  000000000040800000000004170000000000408000000000041600000000004170000000000408000000000041700002000000000000001000000000000000416100000000000000009999123100000010000000000000BRESTRACNPR0144
012024010502CPFE3       010CPFL ENERGIAON      NM   R$  000000000382400000000038350000000003787000000000381500000000038260000000003826000000000382804001000000000000725000000000002766056700000000000000009999123100000010000000000000BRCPFEACNOR0136
012024010502KRSA3       010KORA SAUDE  ON      NM   R$  000000000012500000000001280000000000124000000000012600000000001270000000000126000000000012700569000000000000349800000000000044099100000000000000009999123100000010000000000000BRKRSAACNOR0100
012024010502LJQQ3       010QUERO-QUERO ON  EJS NM   R$  000000000054000000000005590000000000531000000000054100000000005410000000000539000000000054206206000000000004885000000000002643532100000000000000009999123100000010000000000000BRLJQQACNOR5104
012024010502LREN3       010LOJAS RENNERON      NM   R$  000000000161300000000016860000000001613000000000165800000000016640000000001663000000000166619930000000000012798400000000021224341000000000000000009999123100000010000000000000BRLRENACNOR1219
012024010502ORVR3       010ORIZON      ON      NM   R$  000000000361200000000037610000000003612000000000370200000000036940000000003694000000000370101993000000000000742200000000002748306700000000000000009999123100000010000000000000BRORVRACNOR0101
012024010502PCAR3       010P.ACUCAR-CBDON      NM   R$  000000000044000000000004450000000000410000000000042300000000004100000000000410000000000041115375000000000017015100000000007212793600000000000000009999123100000010000000000000BRPCARACNOR3167
012024010502PETR3       010PETROBRAS   ON      N2   R$  000000000402900000000040720000000003998000000000403500000000040390000000004038000000000403914462000000000006858500000000027676929400000000000000009999123100000010000000000000BRPETRACNOR9202
012024010502ALPA4       010ALPARGATAS  PN      N1   R$  000000000089200000000009530000000000887000000000093200000000009380000000000937000000000094010045000000000005414300000000005046380800000000000000009999123100000010000000000000BRALPAACNPR7232
012024010507NUTR3       010NUTRIPLANT  ON      MA   R$  000000000041600000000004450000000000416000000000042400000000004180000000000418000000000043100020000000000000004300000000000001824300000000000000009999123100000010000000000000BRNUTRACNOR0104
012024010508RSID3       010ROSSI RESID ON      NM   R$  000000000039400000000003970000000000382000000000038900000000003910000000000386000000000039200194000000000000063300000000000024643300000000000000009999123100000010000000000000BRRSIDACNOR8120
012024010508RNEW3       010RENOVA      ON      N2   R$  000000000013400000000001350000000000131000000000013300000000001350000000000132000000000013500191000000000000079600000000000010603900000000000000009999123100000010000000000000BRRNEWACNOR8110
012024010508FRTA3       010POMIFRUTAS  ON      NM   R$  000000000018400000000001850000000000170000000000017800000000001750000000000176000000000017700041000000000000020300000000000003617600000000000000009999123100000010000000000000BRFRTAACNOR8103
012024010502BEES3       010BANESTES    ON  EJ       R$  000000000097900000000009800000000000951000000000097300000000009750000000000974000000000097800101000000000000016900000000000016459400000000000000009999123100000010000000000000BRBEESACNOR9386
012024010502BRFS3       010BRF SA      ON      NM   R$  000000000125300000000013020000000001239000000000127700000000012760000000001273000000000127615407000000000006854400000000008759690700000000000000009999123100000010000000000000BRBRFSACNOR8121
012024010502CRPG5       010CRISTAL     PNA          R$  000000000369000000000037800000000003666000000000373500000000037000000000003700000000000379900035000000000000005300000000000019798600000000000000009999123100000010000000000000BRCRPGACNPA3118
012024010502EMAE4       010EMAE        PN           R$  000000000585800000000059200000000005667000000000580800000000058400000000005734000000000584000061000000000000006800000000000039498100000000000000009999123100000010000000000000BREMAEACNPR1124
012024010502IGTI11      010IGUATEMI S.AUNT     N1   R$  000000000241500000000024480000000002396000000000242800000000024390000000002425000000000243913336000000000002957500000000007181655400000000000000009999123100000010000000000000BRIGTICDAM16104
012024010502INEP4       010INEPAR      PN           R$  000000000031400000000003230000000000309000000000031800000000003230000000000312000000000032300575000000000000168100000000000053509000000000000000009999123100000010000000000000BRINEPACNPR8143
012024010502LWSA3       010LOCAWEB     ON      NM   R$  000000000053800000000005740000000000536000000000056100000000005600000000000559000000000056014018000000000010571400000000005936108300000000000000009999123100000010000000000000BRLWSAACNOR8103
012024010502TOTS3       010TOTVS       ON      NM   R$  000000000319100000000032480000000003179000000000321900000000032280000000003215000000000323011808000000000002165900000000006973382800000000000000009999123100000010000000000000BRTOTSACNOR8144
012024010502TRPL3       010TRAN PAULISTON      N1   R$  000000000360000000000036370000000003506000000000356600000000035060000000003452000000000359900015000000000000001500000000000005350100000000000000009999123100000010000000000000BRTRPLACNOR4185
012024010502AERI3       010AERIS       ON      NM   R$  000000000008500000000000880000000000084000000000008400000000000840000000000084000000000008505546000000000008306400000000000704432100000000000000009999123100000010000000000000BRAERIACNOR4101
012024010502ALLD3       010ALLIED      ON      NM   R$  000000000073400000000007660000000000730000000000075400000000007660000000000752000000000076600125000000000000039000000000000029436800000000000000009999123100000010000000000000BRALLDACNOR3105
012024010502CLSA3       010CLEARSALE   ON      NM   R$  000000000034600000000003600000000000343000000000035300000000003530000000000353000000000035401000000000000000427300000000000151111000000000000000009999123100000010000000000000BRCLSAACNOR0100
012024010502CXSE3       010CAIXA SEGURION      NM   R$  000000000128500000000013030000000001281000000000129400000000013000000000001299000000000130003917000000000001616200000000002092607700000000000000009999123100000010000000000000BRCXSEACNOR7105
012024010502GOAU3       010GERDAU MET  ON      N1   R$  000000000109200000000010960000000001080000000000108900000000010920000000001090000000000109200261000000000000052000000000000056649700000000000000009999123100000010000000000000BRGOAUACNOR1265
012024010502CEEB3       010COELBA      ON  EJ       R$  000000000400000000000040000000000003885000000000395800000000039990000000003874000000000399900004000000000000000400000000000001583400000000000000009999123100000010000000000000BRCEEBACNOR3196
012024010502CIEL3       010CIELO       ON  EJ  NM   R$  000000000046500000000004950000000000460000000000048500000000004880000000000487000000000048834570000000000042870400000000020794497600000000000000009999123100000010000000000000BRCIELACNOR3156
012024010502BRSR3       010BANRISUL    ON      N1   R$  000000000134700000000013900000000001347000000000137000000000013770000000001348000000000138800036000000000000005000000000000006854100000000000000009999123100000010000000000000BRBRSRACNOR3185
012024010502CTNM4       010COTEMINAS   PN           R$  000000000015800000000001590000000000153000000000015400000000001530000000000153000000000015500060000000000000031600000000000004890800000000000000009999123100000010000000000000BRCTNMACNPR6129
012024010502CVCB3       010CVC BRASIL  ON      NM   R$  000000000032000000000003330000000000316000000000032200000000003180000000000318000000000031915836000000000022545000000000007273490300000000000000009999123100000010000000000000BRCVCBACNOR1115
012024010502BRAP3       010BRADESPAR   ON      N1   R$  000000000231700000000023170000000002268000000000228500000000022930000000002287000000000229600296000000000000044200000000000101039400000000000000009999123100000010000000000000BRBRAPACNOR5147
012024010502CPLE5       010COPEL       PNA     N2   R$  000000000246700000000024670000000002467000000000246700000000024670000000002304000000000246700001000000000000000100000000000000246700000000000000009999123100000010000000000000BRCPLEACNPA1146
012024010502LAVV3       010LAVVI       ON      NM   R$  000000000081800000000008310000000000807000000000082000000000008220000000000812000000000082201457000000000000346000000000000283768000000000000000009999123100000010000000000000BRLAVVACNOR4110
012024010502LOGN3       010LOG-IN      ON      NM   R$  000000000387500000000039670000000003837000000000388100000000038370000000003836000000000383700385000000000000060600000000000235218400000000000000009999123100000010000000000000BRLOGNACNOR3105
012024010502ONCO3       010ONCOCLINICASON      NM   R$  000000000120800000000012690000000001208000000000124400000000012430000000001243000000000124705502000000000001937100000000002411296200000000000000009999123100000010000000000000BRONCOACNOR6100
012024010502PATI3       010PANATLANTICAON           R$  000000000291000000000029100000000002910000000000291000000000029100000000002910000000000320000001000000000000000100000000000000291000000000000000009999123100000010000000000000BRPATIACNOR6064
012024010502PDTC3       010PADTEC      ON      NM   R$  000000000031000000000003190000000000309000000000031400000000003150000000000311000000000031600093000000000000037600000000000011823200000000000000009999123100000010000000000000BRPDTCACNOR3100
012024010502PRIO3       010PETRORIO    ON      NM   R$  000000000458500000000046950000000004585000000000461500000000046080000000004608000000000461021423000000000009965800000000046000558100000000000000009999123100000010000000000000BRPRIOACNOR1106
012024010502ASAI3       010ASSAI       ON      NM   R$  000000000132100000000014050000000001315000000000137100000000013580000000001357000000000135824726000000000012696400000000017417970800000000000000009999123100000010000000000000BRASAIACNOR0106
012024010508HOOT4       010HOTEIS OTHONPN           R$  000000000028100000000002810000000000280000000000028000000000002800000000000276000000000028600003000000000000000300000000000000084200000000000000009999123100000010000000000000BRHOOTACNPR9015
012024010508NEXP3       010NEXPE       ON      NM   R$  000000000050700000000005120000000000501000000000050400000000005050000000000504000000000050900015000000000000002600000000000001312900000000000000009999123100000010000000000000BRNEXPACNOR0101
012024010508RPMG3       010PET MANGUINHON           R$  000000000020600000000002220000000000206000000000020900000000002100000000000210000000000021100033000000000000006100000000000001279500000000000000009999123100000010000000000000BRRPMGACNOR9194
012024010502BRBI11      010BR PARTNERS UNT     N2   R$  000000000154300000000015890000000001512000000000156000000000015680000000001550000000000156800877000000000000189100000000000295073200000000000000009999123100000010000000000000BRBRBICDAM10107
012024010502CRIV4       010ALFA FINANC PN  EJ       R$  000000000056000000000005790000000000560000000000056300000000005660000000000566000000000057600013000000000000010900000000000006142300000000000000009999123100000010000000000000BRCRIVACNPR1211
012024010502ELMD3       010ELETROMIDIA ON      NM   R$  000000000151300000000015250000000001475000000000150600000000015080000000001506000000000152500169000000000000042900000000000064635200000000000000009999123100000010000000000000BRELMDACNOR3100
012024010502IFCM3       010INFRACOMM   ON      NM   R$  000000000016200000000001700000000000161000000000016400000000001630000000000163000000000016404525000000000009175700000000001510444300000000000000009999123100000010000000000000BRIFCMACNOR8101
012024010502INEP3       010INEPAR      ON           R$  000000000040100000000004290000000000401000000000041800000000004070000000000407000000000041100234000000000000065200000000000027281300000000000000009999123100000010000000000000BRINEPACNOR1143
012024010502LVTC3       010WDC NETWORKSON      NM   R$  000000000040100000000004050000000000397000000000040000000000003970000000000397000000000040000055000000000000014800000000000005923300000000000000009999123100000010000000000000BRLVTCACNOR4102
012024010502TKNO4       010TEKNO       PN  EJ       R$  000000000650000000000065000000000006400000000000645000000000064000000000006200000000000975000002000000000000000200000000000001290000000000000000009999123100000010000000000000BRTKNOACNPR5074
012024010502TRIS3       010TRISUL      ON      NM   R$  000000000052400000000005490000000000516000000000053500000000005380000000000536000000000053801697000000000000792900000000000424915400000000000000009999123100000010000000000000BRTRISACNOR4116
012024010502TUPY3       010TUPY        ON      NM   R$  000000000266500000000027240000000002650000000000268200000000026900000000002680000000000269102246000000000000420600000000001128119200000000000000009999123100000010000000000000BRTUPYACNOR1182
012024010502AGXY3       010AGROGALAXY  ON      NM   R$  000000000034000000000003440000000000330000000000033500000000003340000000000334000000000033800243000000000000079600000000000026739500000000000000009999123100000010000000000000BRAGXYACNOR4102
012024010502BBDC4       010BRADESCO    PN  EJ  N1   R$  000000000165200000000016960000000001645000000000168300000000016880000000001686000000000168931931000000000030772400000000051817115900000000000000009999123100000010000000000000BRBBDCACNPR8765
012024010502CMIG4       010CEMIG       PN  EJ  N1   R$  000000000113800000000011620000000001136000000000114900000000011540000000001154000000000115523455000000000012277900000000014116590000000000000000009999123100000010000000000000BRCMIGACNPR3240
012024010502GMAT3       010GRUPO MATEUSON      NM   R$  000000000068500000000007150000000000682000000000069800000000006950000000000693000000000069506095000000000004324500000000003021866000000000000000009999123100000010000000000000BRGMATACNOR7100
012024010502CEDO4       010CEDRO       PN      N1   R$  000000000298500000000029850000000002770000000000283800000000028470000000002770000000000284900017000000000000003300000000000009367900000000000000009999123100000010000000000000BRCEDOACNPR5128
012024010502CGRA4       010GRAZZIOTIN  PN           R$  000000000266000000000026600000000002602000000000262900000000026020000000002602000000000263000060000000000000010300000000000027083500000000000000009999123100000010000000000000BRCGRAACNPR9081
012024010502BOBR4       010BOMBRIL     PN           R$  000000000020000000000002030000000000200000000000020100000000002010000000000201000000000020300034000000000000022000000000000004428900000000000000009999123100000010000000000000BRBOBRACNPR3128
012024010502BSLI3       010BRB BANCO   ON           R$  000000000133000000000013300000000001314000000000131800000000013140000000001278000000000132800004000000000000000400000000000000527300000000000000009999123100000010000000000000BRBSLIACNOR5192
012024010502CURY3       010CURY S/A    ON      NM   R$  000000000167000000000017510000000001670000000000171400000000017030000000001703000000000170408004000000000003035500000000005204190100000000000000009999123100000010000000000000BRCURYACNOR3107
012024010502BPAN4       010BANCO PAN   PN  EJ  N1   R$  000000000079000000000008390000000000790000000000081700000000008300000000000830000000000083103243000000000001926500000000001575804400000000000000009999123100000010000000000000BRBPANACNPR1115
012024010502CPLE3       010COPEL       ON      N2   R$  000000000090600000000009210000000000904000000000091200000000009140000000000914000000000091507941000000000009003500000000008216835100000000000000009999123100000010000000000000BRCPLEACNOR8148
012024010502LAND3       010TERRASANTAPAON      NM   R$  000000000156700000000017200000000001542000000000164200000000017180000000001706000000000171800835000000000000182100000000000299081100000000000000009999123100000010000000000000BRLANDACNOR9102
012024010502LOGG3       010LOG COM PROPON      NM   R$  000000000202600000000021630000000002018000000000210200000000021440000000002115000000000214402335000000000001062000000000002232406500000000000000009999123100000010000000000000BRLOGGACNOR7106
012024010502OFSA3       010OUROFINO S/AON      NM   R$  000000000257600000000025900000000002543000000000256200000000025550000000002549000000000257700015000000000000003700000000000009481700000000000000009999123100000010000000000000BROFSAACNOR7117
012024010502OSXB3       010OSX BRASIL  ON      NM   R$  000000000044900000000004500000000000444000000000044800000000004450000000000440000000000044500018000000000000003800000000000001704200000000000000009999123100000010000000000000BROSXBACNOR8109
012024010502PDGR3       010PDG REALT   ON      NM   R$  000000000004400000000000450000000000042000000000004300000000000430000000000042000000000004300820000000000004797300000000000208213900000000000000009999123100000010000000000000BRPDGRACNOR8118
012024010502PETR4       010PETROBRAS   PN      N2   R$  000000000388700000000039140000000003841000000000387900000000038720000000003871000000000387241942000000000035783700000000138829689900000000000000009999123100000010000000000000BRPETRACNPR6209
012024010502ALPK3       010ESTAPAR     ON      NM   R$  000000000045600000000004910000000000452000000000047800000000004810000000000481000000000048500845000000000000751000000000000359250100000000000000009999123100000010000000000000BRALPKACNOR9101
012024010508AMER3       010AMERICANAS  ON      NM   R$  000000000008800000000000910000000000087000000000008800000000000870000000000087000000000008802840000000000024611600000000002176025200000000000000009999123100000010000000000000BRAMERACNOR6101
012024010508PMAM3       010PARANAPANEMAON  ES  NM   R$  000000000042800000000004300000000000415000000000041900000000004250000000000422000000000042300147000000000000052000000000000021835600000000000000009999123100000010000000000000BRPMAMACNOR3038
012024010508RNEW4       010RENOVA      PN      N2   R$  000000000013100000000001380000000000130000000000013200000000001360000000000133000000000013600321000000000000190100000000000025128000000000000000009999123100000010000000000000BRRNEWACNPR5110
012024010508ETER3       010ETERNIT     ON  EJ  NM   R$  000000000079400000000008120000000000775000000000079600000000008060000000000801000000000080600474000000000000154700000000000123211300000000000000009999123100000010000000000000BRETERACNOR3242
012024010508LIGT3       010LIGHT S/A   ON      NM   R$  000000000066500000000006890000000000651000000000066300000000006530000000000653000000000065607604000000000001308300000000000868505300000000000000009999123100000010000000000000BRLIGTACNOR2124
012024010510RENT1       010LOCALIZA    DIR ORD NM   R$  000000000151500000000017480000000001420000000000158100000000016000000000001593000000000160000070000000000000016000000000000025304200000000000000009999123100000010000000000000BRRENTD05OR0193
012024010510ABCB2       010ABC BRASIL  DIR PRE N2   R$  000000000035600000000004810000000000356000000000041700000000004160000000000415000000000043400230000000000000034300000000000014324300000000000000009999123100000010000000000000BRABCBD18PR3144
012024010512ALZR11      010FII ALIANZA CI           R$  000000001196800000000119970000000011940000000001197400000000119540000000011940000000001195401761000000000000010809000000000129430269000000000000009999123100000010000000000000BRALZRCTF006176
012024010512ARRI11      010FII ATRIO   CI  ER       R$  000000000089800000000009000000000000893000000000089500000000008980000000000898000000000089900483000000000000029449000000000026385366000000000000009999123100000010000000000000BRARRICTF009154
012024010512BBRC11      010FII BB CORP CI  ER       R$  000000001158000000000115930000000011489000000001154800000000115780000000011531000000001157900160000000000000001168000000000013488680000000000000009999123100000010000000000000BRBBRCCTF004248
012024010512HABT11      010FII HABIT IICI  ER       R$  000000000896900000000089870000000008871000000000893200000000089720000000008970000000000897205349000000000000021825000000000194946404000000000000009999123100000010000000000000BRHABTCTF001155
012024010512HCTR11      010FII HECTARE CI           R$  000000000390700000000039430000000003900000000000391500000000039000000000003899000000000390002622000000000000046885000000000183577426000000000000009999123100000010000000000000BRHCTRCTF003164
012024010512HGFF11      010FII CSHG FOFCI  ER       R$  000000000875600000000088050000000008734000000000878900000000088020000000008802000000000880400558000000000000004744000000000041695068000000000000009999123100000010000000000000BRHGFFCTF008155
012024010512HGRE11      010FII HG REAL CI  ER       R$  000000001316900000000133510000000013024000000001318300000000131000000000013091000000001310002618000000000000011555000000000152339733000000000000009999123100000010000000000000BRHGRECTF006287
012024010512HOSI11      010FII HOUSI   CI  ER       R$  000000000909900000000091020000000008898000000000908500000000088980000000009005000000000910000014000000000000000144000000000001308291000000000000009999123100000010000000000000BRHOSICTF009140
012024010512HSAF11      010FII HSI CRI CI  ER       R$  000000000848800000000086080000000008444000000000854600000000085890000000008558000000000858802918000000000000007300000000000062386092000000000000009999123100000010000000000000BRHSAFCTF004142
012024010512HTMX11      010FII HOTEL MXCI  ER       R$  000000001540000000000166700000000014429000000001559200000000163510000000016350000000001645005824000000000000040480000000000631194747000000000000009999123100000010000000000000BRHTMXCTF000275
012024010512JSAF11      010FII JS A FINCI  ER       R$  000000001034800000000104450000000010130000000001026100000000101560000000010156000000001017503397000000000000020403000000000209369037000000000000009999123100000010000000000000BRJSAFCTF000127
012024010512KFOF11      010FII KINEAFOFCI  ER       R$  000000001011000000000104500000000010105000000001026500000000103400000000010270000000001034104430000000000000012437000000000127673791000000000000009999123100000010000000000000BRKFOFCTF006164
012024010512EDFO11      010FII OURINVESCI  ER       R$  000000001940100000000194010000000019401000000001940100000000194010000000019400000000002193200001000000000000000002000000000000038802000000000000009999123100000010000000000000BREDFOCTF004318
012024010512JFLL11      010FII JFL LIV CI  ER       R$  000000000750900000000075110000000007386000000000750100000000075110000000007511000000000754600065000000000000000786000000000005896164000000000000009999123100000010000000000000BRJFLLCTF002135
012024010512RBFF11      010FII RIOB FF CI  ER       R$  000000000601700000000061040000000006017000000000605200000000060590000000006059000000000606100632000000000000055061000000000333250633000000000000009999123100000010000000000000BRRBFFCTF008155
012024010512RBLG11      010FII RBCAP LGCI  ER       R$  000000001016100000000103390000000010160000000001018600000000103390000000010165000000001034000003000000000000000007000000000000071303000000000000009999123100000010000000000000BRRBLGCTF004140
012024010512RBRL11      010FII RBR LOG CI           R$  000000000895000000000090500000000008800000000000899200000000090290000000009000000000000903003855000000000000023398000000000210395372000000000000009999123100000010000000000000BRRBRLCTF001148
012024010512RBRX11      010FII RBR MULTCI           R$  000000000094900000000009690000000000944000000000096000000000009660000000000955000000000096505855000000000000074561000000000071646890000000000000009999123100000010000000000000BRRBRXCTF006122
012024010512RBVO11      010FII RIOBCRI2CI  ER       R$  000000000085700000000008570000000000847000000000085400000000008570000000000848000000000085800021000000000000000076000000000000064951000000000000009999123100000010000000000000BRRBVOCTF007238
012024010512RECT11      010FII REC RENDCI           R$  000000000474000000000047860000000004730000000000474500000000047560000000004757000000000476200773000000000000007339000000000034827198000000000000009999123100000010000000000000BRRECTCTF000161
012024010512DEVA11      010FII DEVANT  CI           R$  000000000432000000000044000000000004320000000000435100000000043900000000004384000000000439002974000000000000029221000000000127166501000000000000009999123100000010000000000000BRDEVACTF000143
012024010512SNME11      010FII SNME    CI           R$  000000000103100000000010590000000001015000000000102700000000010300000000001010000000000104900038000000000000003178000000000003266350000000000000009999123100000010000000000000BRSNMECTF000101
012024010512SHOP11      010FII MULTSHOPCI           R$  000000000592900000000059290000000005929000000000592900000000059290000000005929000000000680000001000000000000000001000000000000005929000000000000009999123100000010000000000000BRSHOPCTF004102
012024010512PLCR11      010FII PLURAL RCI  ER       R$  000000000890700000000089070000000008815000000000885200000000088820000000008850000000000888500474000000000000001765000000000015625444000000000000009999123100000010000000000000BRPLCRCTF003150
012024010512XPCI11      010FII XP CRED CI  ER       R$  000000000883900000000088390000000008772000000000880800000000087720000000008772000000000878704815000000000000018227000000000160560373000000000000009999123100000010000000000000BRXPCICTF007152
012024010512XPML11      010FII XP MALLSCI           R$  000000001149000000000115900000000011328000000001148800000000114890000000011489000000001149622629000000000000192911000000002216326296000000000000009999123100000010000000000000BRXPMLCTF000177
012024010512ZAVI11      010FII ZAVIT R CI  ER       R$  000000001271800000000129670000000012718000000001287000000000129160000000012885000000001291600676000000000000002046000000000026332530000000000000009999123100000010000000000000BRZAVICTF004116
012024010512SAPI11      010FII SAPI    CI  ER       R$  000000000894900000000091980000000008922000000000910900000000091650000000009100000000000916402094000000000000002874000000000026181853000000000000009999123100000010000000000000BRSAPICTF001103
012024010508ATMP3       010ATMASA      ON           R$  000000000045000000000004500000000000420000000000042700000000004200000000000420000000000043000109000000000000042500000000000018165100000000000000009999123100000010000000000000BRATMPACNOR8100
012024010510AVLL1       010ALPHAVILLE  DIR ORD NM   R$  000000000000100000000000020000000000001000000000000100000000000020000000000001000000000000200091000000000000330800000000000000423700000000000000009999123100000010000000000000BRAVLLD02OR8102
