00COTAHIST.2024BOVESPA 20240405                                                                                                                                                                                                                      
012024040502BEEF3       010MINERVA     ON      NM   R$  000000000067100000000006760000000000655000000000066100000000006620000000000661000000000066206229000000000008440900000000005584364500000000000000009999123100000010000000000000BRBEEFACNOR6116
012024040502BPAN4       010BANCO PAN   PN      N1   R$  000000000092700000000009270000000000905000000000091200000000009120000000000911000000000091605483000000000002052200000000001872430600000000000000009999123100000010000000000000BRBPANACNPR1115
012024040502LJQQ3       010QUERO-QUERO ON      NM   R$  000000000052600000000005410000000000526000000000053500000000005410000000000537000000000054204530000000000002104200000000001125799200000000000000009999123100000010000000000000BRLJQQACNOR5104
012024040502LOGG3       010LOG COM PROPON      NM   R$  000000000218200000000022210000000002157000000000219400000000021960000000002195000000000221401974000000000000281000000000000616792500000000000000009999123100000010000000000000BRLOGGACNOR7107
012024040502LOGN3       010LOG-IN      ON      NM   R$  000000000361100000000036470000000003450000000000352900000000034500000000003450000000000349900253000000000000028400000000000100226900000000000000009999123100000010000000000000BRLOGNACNOR3105
012024040502LPSB3       010LOPES BRASILON      NM   R$  000000000022700000000002270000000000220000000000022200000000002210000000000221000000000022400104000000000000050700000000000011267900000000000000009999123100000010000000000000BRLPSBACNOR0113
012024040502LREN3       010LOJAS RENNERON      NM   R$  000000000173000000000017430000000001683000000000170300000000016940000000001692000000000169613569000000000007474200000000012729089400000000000000009999123100000010000000000000BRLRENACNOR1220
012024040502ODPV3       010ODONTOPREV  ON  EJ  NM   R$  000000000120300000000012060000000001190000000000119700000000011970000000001196000000000120301550000000000000474000000000000567778600000000000000009999123100000010000000000000BRODPVACNOR4199
012024040502OFSA3       010OUROFINO S/AON      NM   R$  000000000239600000000024250000000002396000000000239900000000023960000000002396000000000246500018000000000000004100000000000009836100000000000000009999123100000010000000000000BROFSAACNOR7117
012024040502ONCO3       010ONCOCLINICASON      NM   R$  000000000082900000000008300000000000794000000000080400000000008100000000000807000000000081112595000000000005728900000000004607542100000000000000009999123100000010000000000000BRONCOACNOR6100
012024040502OPCT3       010OCEANPACT   ON      NM   R$  000000000059000000000005990000000000585000000000059100000000005980000000000593000000000059800839000000000000456800000000000270074000000000000000009999123100000010000000000000BROPCTACNOR0100
012024040502ORVR3       010ORIZON      ON      NM   R$  000000000372200000000037220000000003669000000000368800000000036890000000003687000000000369101081000000000000195600000000000721459900000000000000009999123100000010000000000000BRORVRACNOR0101
012024040502PCAR3       010P.ACUCAR-CBDON      NM   R$  000000000027500000000002760000000000266000000000026900000000002680000000000268000000000026909692000000000013548700000000003652833200000000000000009999123100000010000000000000BRPCARACNOR3167
012024040502APER3       010ALPER S.A.  ON           R$  000000000432500000000045000000000004301000000000434300000000043010000000004300000000000446900016000000000000001600000000000006948800000000000000009999123100000010000000000000BRAPERACNOR9106
012024040502ARML3       010ARMAC       ON  EJ  NM   R$  000000000116800000000011970000000001155000000000118300000000011830000000001183000000000119303997000000000000512500000000000606373000000000000000009999123100000010000000000000BRARMLACNOR1111
012024040502ARZZ3       010AREZZO CO   ON      NM   R$  000000000570700000000057500000000005636000000000569100000000056580000000005658000000000566012634000000000002024100000000011520543600000000000000009999123100000010000000000000BRARZZACNOR3146
012024040502ASAI3       010ASSAI       ON      NM   R$  000000000138500000000014000000000001369000000000137900000000013730000000001373000000000137617216000000000010082900000000013913002200000000000000009999123100000010000000000000BRASAIACNOR0106
012024040502ATOM3       010ATOMPAR     ON           R$  000000000020900000000002150000000000204000000000020900000000002090000000000205000000000021100049000000000000009400000000000001969300000000000000009999123100000010000000000000BRATOMACNOR1106
012024040502BBSE3       010BBSEGURIDADEON      NM   R$  000000000327900000000033090000000003268000000000329500000000032960000000003295000000000329812264000000000005512700000000018169842700000000000000009999123100000010000000000000BRBBSEACNOR5124
012024040502BPAC11      010BTGP BANCO  UNT     N2   R$  000000000356800000000035780000000003510000000000354200000000035400000000003539000000000354619980000000000008104200000000028708819700000000000000009999123100000010000000000000BRBPACUNT006118
012024040502AALR3       010ALLIAR      ON      NM   R$  000000000094600000000009460000000000915000000000092600000000009310000000000918000000000093101515000000000000167700000000000155354800000000000000009999123100000010000000000000BRAALRACNOR6102
012024040502ABCB4       010ABC BRASIL  PN      N2   R$  000000000246300000000024720000000002437000000000244800000000024460000000002446000000000245001986000000000000359600000000000880654600000000000000009999123100000010000000000000BRABCBACNPR4145
012024040502ABEV3       010AMBEV S/A   ON           R$  000000000125200000000012550000000001204000000000122000000000012230000000001223000000000122535308000000000071144300000000086828241100000000000000009999123100000010000000000000BRABEVACNOR1127
012024040502BBDC3       010BRADESCO    ON  EJ  N1   R$  000000000130000000000013060000000001281000000000128900000000012890000000001288000000000129007076000000000003730300000000004809961800000000000000009999123100000010000000000000BRBBDCACNOR1768
012024040502BBDC4       010BRADESCO    PN  EJ  N1   R$  000000000145800000000014640000000001441000000000145000000000014520000000001452000000000145321762000000000018774000000000027233848900000000000000009999123100000010000000000000BRBBDCACNPR8768
012024040502CEDO4       010CEDRO       PN      N1   R$  000000000278600000000027860000000002785000000000278500000000027850000000002785000000000284200002000000000000000200000000000000557100000000000000009999123100000010000000000000BRCEDOACNPR5128
012024040502CEEB3       010COELBA      ON  EJ       R$  000000000395000000000039500000000003840000000000388800000000039000000000003810000000000395300016000000000000001600000000000006222200000000000000009999123100000010000000000000BRCEEBACNOR3197
012024040502CGAS3       010COMGAS      ON  ED       R$  000000001221000000000122500000000012210000000001223000000000122500000000012250000000001226800003000000000000000400000000000004892000000000000000009999123100000010000000000000BRCGASACNOR0163
012024040502BLAU3       010BLAU        ON      NM   R$  000000000121100000000012160000000001192000000000120000000000012000000000001199000000000120000999000000000000191000000000000229315900000000000000009999123100000010000000000000BRBLAUACNOR8112
012024040502BOBR4       010BOMBRIL     PN           R$  000000000022100000000002270000000000215000000000021900000000002210000000000221000000000022400046000000000000011800000000000002584900000000000000009999123100000010000000000000BRBOBRACNPR3128
012024040502BAZA3       010AMAZONIA    ON           R$  000000001015000000000102320000000010100000000001017500000000102320000000010101000000001023200011000000000000001100000000000011193200000000000000009999123100000010000000000000BRBAZAACNOR0178
012024040502BBAS3       010BRASIL      ON      NM   R$  000000000569000000000057080000000005645000000000568600000000057010000000005700000000000570215453000000000006401900000000036401935100000000000000009999123100000010000000000000BRBBASACNOR3321
012024040502BIOM3       010BIOMM       ON      MA   R$  000000000105900000000011340000000001055000000000109100000000010600000000001040000000000106000249000000000000040400000000000044104000000000000000009999123100000010000000000000BRBIOMACNOR2112
012024040502BRSR3       010BANRISUL    ON      N1   R$  000000000136500000000013800000000001330000000000135800000000013320000000001331000000000134100095000000000000023400000000000031795700000000000000009999123100000010000000000000BRBRSRACNOR3186
012024040502BRSR6       010BANRISUL    PNB     N1   R$  000000000133500000000013530000000001332000000000134100000000013370000000001336000000000133703111000000000000762700000000001023175100000000000000009999123100000010000000000000BRBRSRACNPB4189
012024040502BSLI3       010BRB BANCO   ON           R$  000000000109500000000011210000000001030000000000105800000000010300000000001031000000000107900014000000000000002100000000000002223300000000000000009999123100000010000000000000BRBSLIACNOR5192
012024040502BSLI4       010BRB BANCO   PN           R$  000000000109900000000010990000000001089000000000109400000000010890000000001042000000000108900005000000000000000500000000000000547200000000000000009999123100000010000000000000BRBSLIACNPR2192
012024040502CXSE3       010CAIXA SEGURION      NM   R$  000000000157100000000015840000000001551000000000156600000000015640000000001563000000000156506709000000000002338700000000003663427600000000000000009999123100000010000000000000BRCXSEACNOR7105
012024040502CYRE3       010CYRELA REALTON      NM   R$  000000000234500000000023560000000002295000000000232100000000023430000000002341000000000234615840000000000008307500000000019288985400000000000000009999123100000010000000000000BRCYREACNOR7139
012024040502KLBN11      010KLABIN S/A  UNT     N2   R$  000000000248900000000024940000000002446000000000246500000000024680000000002466000000000246809729000000000003150800000000007766959900000000000000009999123100000010000000000000BRKLBNCDAM18140
012024040502KLBN3       010KLABIN S/A  ON      N2   R$  000000000049800000000005000000000000489000000000049300000000004950000000000491000000000049500459000000000000191200000000000094271200000000000000009999123100000010000000000000BRKLBNACNOR2168
012024040502KLBN4       010KLABIN S/A  PN      N2   R$  000000000049800000000004990000000000490000000000049300000000004930000000000493000000000049401581000000000000698100000000000344537200000000000000009999123100000010000000000000BRKLBNACNPR9168
012024040502NEOE3       010NEOENERGIA  ON      NM   R$  000000000203000000000020810000000002025000000000205800000000020650000000002064000000000206804725000000000001422000000000002927210600000000000000009999123100000010000000000000BRNEOEACNOR3121
012024040502NGRD3       010NEOGRID     ON      NM   R$  000000000010800000000001080000000000106000000000010600000000001070000000000106000000000010700229000000000000196400000000000020925600000000000000009999123100000010000000000000BRNGRDACNOR3103
012024040502CMIG4       010CEMIG       PN  EJ  N1   R$  000000000128800000000013020000000001283000000000129100000000012870000000001287000000000128913676000000000008342400000000010775903500000000000000009999123100000010000000000000BRCMIGACNPR3241
012024040502EKTR4       010ELEKTRO     PN  EJ       R$  000000000485000000000048500000000004850000000000485000000000048500000000004700000000000489600001000000000000000100000000000000485000000000000000009999123100000010000000000000BREKTRACNPR7160
012024040502ELET3       010ELETROBRAS  ON      N1   R$  000000000410900000000041140000000004032000000000408700000000041060000000004099000000000410716750000000000005883100000000024045981400000000000000009999123100000010000000000000BRELETACNOR6159
012024040502ELET6       010ELETROBRAS  PNB     N1   R$  000000000460000000000046030000000004519000000000456300000000045820000000004582000000000458403836000000000000815500000000003721929200000000000000009999123100000010000000000000BRELETACNPB7076
012024040502GGBR3       010GERDAU      ON      N1   R$  000000000205900000000020590000000002005000000000202900000000020340000000002025000000000203500210000000000000041400000000000084005900000000000000009999123100000010000000000000BRGGBRACNOR1190
012024040502GGBR4       010GERDAU      PN      N1   R$  000000000231000000000023210000000002244000000000227400000000022740000000002273000000000227514691000000000009994100000000022734726900000000000000009999123100000010000000000000BRGGBRACNPR8190
012024040502ITUB3       010ITAUUNIBANCOON  EJ  N1   R$  000000000284900000000028650000000002833000000000284700000000028520000000002851000000000285300986000000000000232900000000000663140200000000000000009999123100000010000000000000BRITUBACNOR4334
012024040502ITUB4       010ITAUUNIBANCOPN  EJ  N1   R$  000000000328000000000032990000000003253000000000327100000000032730000000003269000000000327428323000000000024943600000000081610398200000000000000009999123100000010000000000000BRITUBACNPR1334
012024040502MOVI3       010MOVIDA      ON      NM   R$  000000000080300000000008130000000000787000000000079400000000007930000000000791000000000079305432000000000002592400000000002060770400000000000000009999123100000010000000000000BRMOVIACNOR0122
012024040502MRFG3       010MARFRIG     ON      NM   R$  000000000102400000000010450000000001020000000000103200000000010260000000001026000000000102716907000000000008079200000000008344887400000000000000009999123100000010000000000000BRMRFGACNOR0116
012024040502BMEB3       010MERCANTIL   ON      N1   R$  000000000226900000000022690000000002269000000000226900000000022690000000002101000000000235500002000000000000000200000000000000453800000000000000009999123100000010000000000000BRBMEBACNOR8205
012024040502BMEB4       010MERCANTIL   PN      N1   R$  000000000237500000000024230000000002350000000000238100000000023500000000002324000000000235000033000000000000005400000000000012861700000000000000009999123100000010000000000000BRBMEBACNPR5210
012024040502BMGB4       010BANCO BMG   PN      N1   R$  000000000034300000000003460000000000341000000000034300000000003430000000000342000000000034300920000000000000356600000000000122491500000000000000009999123100000010000000000000BRBMGBACNPR0108
012024040502BMIN4       010MERC INVEST PN           R$  000000000159700000000015970000000001597000000000159700000000015970000000001538000000000159800001000000000000000200000000000000319400000000000000009999123100000010000000000000BRBMINACNPR1176
012024040502BMKS3       010BIC MONARK  ON           R$  000000003969400000000396990000000038811000000003954800000000396990000000038900000000003969900007000000000000000012000000000000474578000000000000009999123100000010000000000000BRBMKSACNOR9165
012024040502BMOB3       010BEMOBI TECH ON      NM   R$  000000000132600000000013350000000001304000000000131700000000013330000000001329000000000133301251000000000000322600000000000424942700000000000000009999123100000010000000000000BRBMOBACNOR7103
012024040502NINJ3       010GETNINJAS   ON      NM   R$  000000000051400000000005150000000000511000000000051300000000005150000000000511000000000051400057000000000000022200000000000011404800000000000000009999123100000010000000000000BRNINJACNOR5101
012024040502NORD3       010NORDON MET  ON           R$  000000000085000000000008520000000000850000000000085100000000008520000000000850000000000094900002000000000000000200000000000000170200000000000000009999123100000010000000000000BRNORDACNOR7135
012024040502NTCO3       010GRUPO NATURAON      NM   R$  000000000178700000000017870000000001727000000000175000000000017600000000001758000000000176017431000000000007319700000000012812408700000000000000009999123100000010000000000000BRNTCOACNOR5105
012024040502AFLT3       010AFLUENTE T  ON           R$  000000000075000000000007500000000000719000000000074200000000007190000000000717000000000074900004000000000000000400000000000000296800000000000000009999123100000010000000000000BRAFLTACNOR1120
012024040502AGRO3       010BRASILAGRO  ON      NM   R$  000000000251600000000025340000000002472000000000249700000000024890000000002488000000000249501517000000000000311800000000000778782200000000000000009999123100000010000000000000BRAGROACNOR7114
012024040502AGXY3       010AGROGALAXY  ON      NM   R$  000000000022200000000002220000000000204000000000020900000000002070000000000206000000000020701304000000000000481400000000000100629600000000000000009999123100000010000000000000BRAGXYACNOR4102
012024040502ALLD3       010ALLIED      ON      NM   R$  000000000095800000000009630000000000940000000000094900000000009430000000000943000000000094900173000000000000049600000000000047112600000000000000009999123100000010000000000000BRALLDACNOR3105
012024040502ALOS3       010ALLOS       ON      NM   R$  000000000237500000000024030000000002355000000000237800000000023820000000002380000000000238309939000000000002664200000000006336208400000000000000009999123100000010000000000000BRALOSACNOR5100
012024040502ALPA3       010ALPARGATAS  ON      N1   R$  000000000100200000000010020000000000980000000000099400000000010000000000000980000000000100100006000000000000000600000000000000596900000000000000009999123100000010000000000000BRALPAACNOR0231
012024040502ALPA4       010ALPARGATAS  PN      N1   R$  000000000097400000000009840000000000955000000000096000000000009590000000000959000000000096109170000000000011939700000000011469527200000000000000009999123100000010000000000000BRALPAACNPR7232
012024040502ALPK3       010ESTAPAR     ON      NM   R$  000000000043800000000004430000000000433000000000043800000000004330000000000432000000000043300220000000000000057500000000000025195500000000000000009999123100000010000000000000BRALPKACNOR9101
012024040502ALUP11      010ALUPAR      UNT     N2   R$  000000000304400000000030580000000003025000000000304000000000030500000000003043000000000305003206000000000000742700000000002257830000000000000000009999123100000010000000000000BRALUPCDAM15117
012024040502ALUP3       010ALUPAR      ON      N2   R$  000000000103100000000010600000000001021000000000103700000000010400000000001039000000000106400143000000000000020800000000000021577600000000000000009999123100000010000000000000BRALUPACNOR8117
012024040502ALUP4       010ALUPAR      PN      N2   R$  000000000101200000000010120000000000999000000000100200000000010040000000001000000000000100700191000000000000027100000000000027172300000000000000009999123100000010000000000000BRALUPACNPR5117
012024040502CGAS5       010COMGAS      PNA ED       R$  000000001140600000000116840000000011301000000001136800000000113900000000011306000000001166600024000000000000002800000000000031832600000000000000009999123100000010000000000000BRCGASACNPA3160
012024040502CGRA3       010GRAZZIOTIN  ON           R$  000000000265000000000027500000000002600000000000269200000000026000000000002551000000000260000026000000000000005400000000000014539200000000000000009999123100000010000000000000BRCGRAACNOR2081
012024040502CGRA4       010GRAZZIOTIN  PN           R$  000000000283500000000028350000000002709000000000275900000000027120000000002711000000000273000023000000000000003800000000000010485700000000000000009999123100000010000000000000BRCGRAACNPR9081
012024040502CIEL3       010CIELO       ON      NM   R$  000000000054400000000005460000000000542000000000054300000000005440000000000543000000000054406899000000000015772300000000008571402100000000000000009999123100000010000000000000BRCIELACNOR3157
012024040502CLSA3       010CLEARSALE   ON      NM   R$  000000000050800000000006210000000000508000000000058000000000005900000000000589000000000059005579000000000004179100000000002425750300000000000000009999123100000010000000000000BRCLSAACNOR0100
012024040502CLSC3       010CELESC      ON      N2   R$  000000000650000000000065000000000006500000000000650000000000065000000000006400000000000650000001000000000000000100000000000000650000000000000000009999123100000010000000000000BRCLSCACNOR6150
012024040502CLSC4       010CELESC      PN      N2   R$  000000000682500000000068330000000006748000000000680000000000068010000000006765000000000680200018000000000000002300000000000015641700000000000000009999123100000010000000000000BRCLSCACNPR3129
012024040502CMIG3       010CEMIG       ON  EJ  N1   R$  000000000149300000000014960000000001480000000000148800000000014870000000001486000000000148700468000000000000098500000000000146587400000000000000009999123100000010000000000000BRCMIGACNOR6240
012024040502MBLY3       010MOBLY       ON      NM   R$  000000000023100000000002450000000000228000000000023800000000002430000000000240000000000024301259000000000001151000000000000275037800000000000000009999123100000010000000000000BRMBLYACNOR5100
012024040502MDIA3       010M.DIASBRANCOON      NM   R$  000000000363700000000036390000000003555000000000358400000000035800000000003567000000000358005794000000000001700400000000006094258300000000000000009999123100000010000000000000BRMDIAACNOR7134
012024040502MDNE3       010MOURA DUBEUXON      NM   R$  000000000134400000000013760000000001330000000000135300000000013760000000001360000000000137602322000000000000465700000000000630335100000000000000009999123100000010000000000000BRMDNEACNOR9100
012024040502MEAL3       010IMC S/A     ON      NM   R$  000000000016400000000001660000000000163000000000016400000000001650000000000164000000000016501732000000000000757400000000000124386800000000000000009999123100000010000000000000BRMEALACNOR9105
012024040502MELK3       010MELNICK     ON      NM   R$  000000000048700000000004870000000000480000000000048100000000004820000000000481000000000048200312000000000002196400000000001056591900000000000000009999123100000010000000000000BRMELKACNOR8110
012024040502MERC4       010MERC FINANC PN           R$  000000000069100000000006990000000000690000000000069200000000006900000000000660000000000069900007000000000000000900000000000000622900000000000000009999123100000010000000000000BRMERCACNPR9180
012024040502CAMB3       010CAMBUCI     ON  EJ       R$  000000000114900000000011490000000001100000000000113300000000011390000000001128000000000114000130000000000000033900000000000038420500000000000000009999123100000010000000000000BRCAMBACNOR4128
012024040502CAML3       010CAMIL       ON      NM   R$  000000000085800000000008590000000000833000000000084200000000008430000000000843000000000084502243000000000000619500000000000522125800000000000000009999123100000010000000000000BRCAMLACNOR3127
012024040502CASH3       010MELIUZ      ON  ER  NM   R$  000000000045200000000004630000000000446000000000045400000000004580000000000457000000000045802979000000000001555400000000000706479000000000000000009999123100000010000000000000BRCASHACNOR8106
012024040502CBAV3       010CBA         ON      NM   R$  000000000043500000000004640000000000431000000000045200000000004530000000000452000000000045405851000000000005596900000000002534592100000000000000009999123100000010000000000000BRCBAVACNOR5104
012024040502CCRO3       010CCR SA      ON      NM   R$  000000000137200000000013850000000001365000000000137100000000013690000000001368000000000137010060000000000006745500000000009254262500000000000000009999123100000010000000000000BRCCROACNOR2144
012024040502AERI3       010AERIS       ON      NM   R$  000000000006200000000000630000000000061000000000006100000000000620000000000062000000000006301577000000000001446900000000000089515500000000000000009999123100000010000000000000BRAERIACNOR4101
012024040502AESB3       010AES BRASIL  ON      NM   R$  000000000098000000000009840000000000965000000000097600000000009840000000000983000000000098403343000000000001240800000000001211496100000000000000009999123100000010000000000000BRAESBACNOR7105
012024040502CMIN3       010CSNMINERACAOON      N2   R$  000000000052200000000005230000000000509000000000051100000000005100000000000510000000000051207335000000000009949500000000005092502100000000000000009999123100000010000000000000BRCMINACNOR2110
012024040502COCE5       010COELCE      PNA          R$  000000000353200000000035690000000003471000000000352600000000035160000000003472000000000351700033000000000000006400000000000022567000000000000000009999123100000010000000000000BRCOCEACNPA3146
012024040502COGN3       010COGNA ON    ON      NM   R$  000000000022500000000002260000000000221000000000022300000000002240000000000224000000000022516981000000000020346600000000004550133000000000000000009999123100000010000000000000BRCOGNACNOR2104
012024040502GGPS3       010GPS         ON      NM   R$  000000000202900000000020290000000001990000000000200300000000020050000000002003000000000201005943000000000001782300000000003570461600000000000000009999123100000010000000000000BRGGPSACNOR9102
012024040502CEAB3       010CEA MODAS   ON      NM   R$  000000000119100000000012190000000001179000000000119700000000012070000000001206000000000120807092000000000003157700000000003782916700000000000000009999123100000010000000000000BRCEABACNOR1102
012024040502CEBR3       010CEB         ON           R$  000000000209900000000021300000000002099000000000211500000000021290000000002100000000000212900011000000000000002300000000000004866000000000000000009999123100000010000000000000BRCEBRACNOR5124
012024040502CEBR5       010CEB         PNA          R$  000000000192000000000019500000000001900000000000193600000000019400000000001870000000000194800019000000000000006000000000000011616400000000000000009999123100000010000000000000BRCEBRACNPA8123
012024040502CEBR6       010CEB         PNB          R$  000000000213600000000021600000000002125000000000213000000000021250000000002125000000000215500037000000000000011600000000000024718000000000000000009999123100000010000000000000BRCEBRACNPB6123
012024040502DASA3       010DASA        ON      NM   R$  000000000057000000000005700000000000553000000000055600000000005530000000000553000000000055501413000000000000341900000000000190436500000000000000009999123100000010000000000000BRDASAACNOR1122
012024040502GMAT3       010GRUPO MATEUSON  EJ  NM   R$  000000000081700000000008290000000000807000000000082000000000008240000000000824000000000082505762000000000003905100000000003205712600000000000000009999123100000010000000000000BRGMATACNOR7101
012024040502GOAU3       010GERDAU MET  ON      N1   R$  000000000108500000000010910000000001075000000000108300000000010780000000001078000000000108000156000000000000030400000000000032926500000000000000009999123100000010000000000000BRGOAUACNOR1266
012024040502GOAU4       010GERDAU MET  PN      N1   R$  000000000107400000000010760000000001053000000000106200000000010610000000001061000000000106206840000000000009959600000000010582691900000000000000009999123100000010000000000000BRGOAUACNPR8267
012024040502MILS3       010MILLS       ON  EJ  NM   R$  000000000133500000000013540000000001314000000000133000000000013260000000001323000000000132702445000000000000791100000000001052576400000000000000009999123100000010000000000000BRMILSACNOR2125
012024040502MLAS3       010MULTILASER  ON      NM   R$  000000000023600000000002440000000000236000000000023900000000002400000000000237000000000024002111000000000001509700000000000362310000000000000000009999123100000010000000000000BRMLASACNOR9101
012024040502MNPR3       010MINUPAR     ON           R$  000000000190000000000019000000000001750000000000177900000000017550000000001755000000000180000017000000000000002500000000000004449700000000000000009999123100000010000000000000BRMNPRACNOR5122
012024040502DESK3       010DESKTOP     ON      NM   R$  000000000147700000000015010000000001470000000000148700000000014870000000001487000000000148900424000000000000058400000000000086871800000000000000009999123100000010000000000000BRDESKACNOR2103
012024040502DEXP3       010DEXXOS PAR  ON      N1   R$  000000000117400000000011750000000001130000000000115100000000011390000000001139000000000115000252000000000000044700000000000051474900000000000000009999123100000010000000000000BRDEXPACNOR1104
012024040502DEXP4       010DEXXOS PAR  PN      N1   R$  000000000113400000000011340000000001134000000000113400000000011340000000001115000000000114200002000000000000000200000000000000226800000000000000009999123100000010000000000000BRDEXPACNPR8104
012024040502DIRR3       010DIRECIONAL  ON      NM   R$  000000000245800000000024870000000002435000000000246300000000024700000000002462000000000247007295000000000001389500000000003422517700000000000000009999123100000010000000000000BRDIRRACNOR0117
012024040502AMAR3       010LOJAS MARISAON      NM   R$  000000000017900000000001820000000000176000000000017900000000001810000000000176000000000018100467000000000000196300000000000035205400000000000000009999123100000010000000000000BRAMARACNOR4114
012024040502AMBP3       010AMBIPAR     ON      NM   R$  000000000138200000000013920000000001357000000000137100000000013780000000001377000000000137802655000000000000611300000000000838229100000000000000009999123100000010000000000000BRAMBPACNOR6103
012024040502ANIM3       010ANIMA       ON      NM   R$  000000000046200000000004650000000000447000000000045200000000004560000000000453000000000045605849000000000004806700000000002174971000000000000000009999123100000010000000000000BRANIMACNOR6107
012024040502CPFE3       010CPFL ENERGIAON      NM   R$  000000000356500000000035650000000003472000000000349800000000034960000000003493000000000349708781000000000002446500000000008558846500000000000000009999123100000010000000000000BRCPFEACNOR0136
012024040502CPLE3       010COPEL       ON      N2   R$  000000000088000000000008800000000000858000000000086600000000008710000000000870000000000087106791000000000009817700000000008506889200000000000000009999123100000010000000000000BRCPLEACNOR8148
012024040502DMVF3       010D1000VFARMA ON      NM   R$  000000000066800000000006890000000000665000000000067400000000006700000000000670000000000067500237000000000000059100000000000039858000000000000000009999123100000010000000000000BRDMVFACNOR9100
012024040502DOHL4       010DOHLER      PN           R$  000000000044000000000004550000000000435000000000044700000000004530000000000442000000000045200013000000000000002000000000000000894500000000000000009999123100000010000000000000BRDOHLACNPR9066
012024040502DOTZ3       010DOTZ SA     ON      NM   R$  000000000051600000000005160000000000480000000000048700000000004820000000000481000000000048200108000000000000028400000000000013852300000000000000009999123100000010000000000000BRDOTZACNOR7101
012024040502DXCO3       010DEXCO       ON      NM   R$  000000000074800000000007540000000000735000000000074000000000007350000000000735000000000073705437000000000002951600000000002187027600000000000000009999123100000010000000000000BRDXCOACNOR8105
012024040502GRND3       010GRENDENE    ON      NM   R$  000000000063000000000006420000000000630000000000063700000000006340000000000634000000000063906072000000000002059300000000001313654500000000000000009999123100000010000000000000BRGRNDACNOR3172
012024040502GUAR3       010GUARARAPES  ON      NM   R$  000000000081800000000008200000000000792000000000080400000000007980000000000797000000000079903799000000000001746300000000001405242000000000000000009999123100000010000000000000BRGUARACNOR4172
012024040502EALT4       010ACO ALTONA  PN           R$  000000000107500000000011000000000001061000000000108300000000011000000000001080000000000110000027000000000000005200000000000005631800000000000000009999123100000010000000000000BREALTACNPR1137
012024040502ECOR3       010ECORODOVIAS ON      NM   R$  000000000078900000000007900000000000780000000000078500000000007820000000000781000000000078205627000000000002417700000000001898045800000000000000009999123100000010000000000000BRECORACNOR8119
012024040502EGIE3       010ENGIE BRASILON      NM   R$  000000000409800000000041290000000004052000000000409800000000041160000000004113000000000412008367000000000001770200000000007255762100000000000000009999123100000010000000000000BREGIEACNOR9125
012024040502HAGA3       010HAGA S/A    ON           R$  000000000025700000000002570000000000257000000000025700000000002570000000000254000000000026600001000000000000002000000000000000514000000000000000009999123100000010000000000000BRHAGAACNOR7103
012024040502HAGA4       010HAGA S/A    PN           R$  000000000012000000000001200000000000116000000000011700000000001170000000000116000000000011800008000000000000002700000000000000318400000000000000009999123100000010000000000000BRHAGAACNPR4103
012024040502HAPV3       010HAPVIDA     ON      NM   R$  000000000040500000000004140000000000394000000000039900000000003970000000000396000000000039730987000000000063425400000000025329238800000000000000009999123100000010000000000000BRHAPVACNOR4113
012024040502FESA3       010FERBASA     ON      N1   R$  000000000158900000000015970000000001550000000000157800000000015500000000001515000000000159800003000000000000000300000000000000473600000000000000009999123100000010000000000000BRFESAACNOR8187
012024040502FESA4       010FERBASA     PN      N1   R$  000000000085800000000008590000000000843000000000084800000000008460000000000846000000000085102398000000000000648000000000000550049600000000000000009999123100000010000000000000BRFESAACNPR5083
012024040502FHER3       010FER HERINGERON      NM   R$  000000000057400000000005740000000000565000000000056800000000005690000000000569000000000057000008000000000000001200000000000000682300000000000000009999123100000010000000000000BRFHERACNOR5103
012024040502FIEI3       010FICA        ON           R$  000000000100000000000010000000000000999000000000099900000000010000000000000950000000000099700009000000000000013800000000000013799900000000000000009999123100000010000000000000BRFIEIACNOR2100
012024040502JALL3       010JALLESMACHADON      NM   R$  000000000075000000000007510000000000740000000000074400000000007450000000000744000000000074602112000000000000520000000000000387041500000000000000009999123100000010000000000000BRJALLACNOR0105
012024040502JBSS3       010JBS         ON      NM   R$  000000000214300000000021540000000002108000000000213100000000021250000000002124000000000213010964000000000005406800000000011524315200000000000000009999123100000010000000000000BRJBSSACNOR8121
012024040502MRVE3       010MRV         ON      NM   R$  000000000074000000000007490000000000728000000000073400000000007340000000000734000000000073514802000000000011069800000000008129987600000000000000009999123100000010000000000000BRMRVEACNOR2126
012024040502MTRE3       010MITRE REALTYON      NM   R$  000000000050800000000005100000000000497000000000050100000000004990000000000498000000000049901814000000000000746900000000000374578800000000000000009999123100000010000000000000BRMTREACNOR6109
012024040502MTSA4       010METISA      PN           R$  000000000492800000000049280000000004741000000000479000000000047410000000004726000000000478900023000000000000003600000000000017245400000000000000009999123100000010000000000000BRMTSAACNPR9071
012024040502MULT3       010MULTIPLAN   ON  EJ  N2   R$  000000000249700000000025010000000002474000000000248700000000024890000000002489000000000249016617000000000004307400000000010715994800000000000000009999123100000010000000000000BRMULTACNOR5138
012024040502MWET4       010WETZEL S/A  PN           R$  000000000059400000000005940000000000594000000000059400000000005940000000000573000000000059300001000000000000000200000000000000118800000000000000009999123100000010000000000000BRMWETACNPR3118
012024040502FIQE3       010UNIFIQUE    ON      NM   R$  000000000041000000000004110000000000401000000000040700000000004020000000000402000000000040600422000000000000168900000000000068802000000000000000009999123100000010000000000000BRFIQEACNOR5106
012024040502FLRY3       010FLEURY      ON      NM   R$  000000000148800000000014940000000001462000000000147300000000014700000000001470000000000147105705000000000003373100000000004970027800000000000000009999123100000010000000000000BRFLRYACNOR5138
012024040502FRAS3       010FRAS-LE     ON      N1   R$  000000000175700000000017690000000001740000000000174800000000017460000000001742000000000174900935000000000000152900000000000267348500000000000000009999123100000010000000000000BRFRASACNOR0158
012024040502UNIP3       010UNIPAR      ON           R$  000000000617500000000062000000000006062000000000614600000000061990000000006070000000000619900070000000000000010600000000000065150500000000000000009999123100000010000000000000BRUNIPACNOR7205
012024040502UNIP5       010UNIPAR      PNA          R$  000000000673400000000067350000000006721000000000673100000000067210000000006520000000000688500004000000000000000400000000000002692400000000000000009999123100000010000000000000BRUNIPACNPA0207
012024040502UNIP6       010UNIPAR      PNB          R$  000000000665500000000066960000000006491000000000656900000000065190000000006515000000000652000769000000000000121500000000000798214800000000000000009999123100000010000000000000BRUNIPACNPB8205
012024040502USIM3       010USIMINAS    ON      N1   R$  000000000094600000000009590000000000927000000000093600000000009270000000000927000000000092900854000000000000223800000000000209622500000000000000009999123100000010000000000000BRUSIMACNOR3166
012024040502USIM5       010USIMINAS    PNA     N1   R$  000000000101900000000010200000000000988000000000099900000000009920000000000992000000000099310530000000000008750000000000008746385500000000000000009999123100000010000000000000BRUSIMACNPA6168
012024040502WLMM4       010WLM IND COM PN           R$  000000000230000000000023740000000002270000000000230200000000023650000000002318000000000236500032000000000000006900000000000015889100000000000000009999123100000010000000000000BRWLMMACNPR3117
012024040502B3SA3       010B3          ON  EJ  NM   R$  000000000121300000000012200000000001191000000000120400000000012000000000001200000000000120227253000000000045683100000000055021039700000000000000009999123100000010000000000000BRB3SAACNOR6132
012024040502YDUQ3       010YDUQS PART  ON      NM   R$  000000000167000000000016990000000001659000000000167200000000016650000000001664000000000167010248000000000002715500000000004542972700000000000000009999123100000010000000000000BRYDUQACNOR3104
012024040502ZAMP3       010ZAMP S.A.   ON           R$  000000000030700000000003070000000000298000000000030100000000003000000000000299000000000030101849000000000000686400000000000206777500000000000000009999123100000010000000000000BRZAMPACNOR5100
012024040502RCSL3       010RECRUSUL    ON           R$  000000000016200000000001640000000000159000000000016000000000001610000000000160000000000016100640000000000000498600000000000080225900000000000000009999123100000010000000000000BRRCSLACNOR4133
012024040502RCSL4       010RECRUSUL    PN           R$  000000000006500000000000660000000000063000000000006400000000000640000000000064000000000006501484000000000001521600000000000097784000000000000000009999123100000010000000000000BRRCSLACNPR1133
012024040502RDNI3       010RNI         ON      NM   R$  000000000037600000000003880000000000376000000000038100000000003840000000000379000000000038500010000000000000001100000000000000420100000000000000009999123100000010000000000000BRRDNIACNOR9116
012024040502RDOR3       010REDE D OR   ON  EJ  NM   R$  000000000261500000000026280000000002525000000000255400000000025250000000002524000000000252711598000000000004482000000000011450476200000000000000009999123100000010000000000000BRRDORACNOR8112
012024040502RECV3       010PETRORECSA  ON      NM   R$  000000000220100000000022220000000002102000000000212100000000021050000000002105000000000210611571000000000003861800000000008191154300000000000000009999123100000010000000000000BRRECVACNOR3105
012024040502REDE3       010REDE ENERGIAON           R$  000000000070000000000007100000000000685000000000070200000000006860000000000685000000000070500020000000000000003500000000000002458400000000000000009999123100000010000000000000BRREDEACNOR7127
012024040502RENT3       010LOCALIZA    ON  EJ  NM   R$  000000000532200000000053590000000005267000000000530700000000053180000000005314000000000531817845000000000005453100000000028943590000000000000000009999123100000010000000000000BRRENTACNOR4195
012024040502TPIS3       010TRIUNFO PARTON      NM   R$  000000000039100000000003960000000000385000000000038800000000003900000000000390000000000039500080000000000000016700000000000006492500000000000000009999123100000010000000000000BRTPISACNOR8118
012024040502TRAD3       010TC          ON      NM   R$  000000000009200000000000950000000000085000000000008900000000000850000000000085000000000008801049000000000000922200000000000082462600000000000000009999123100000010000000000000BRTRADACNOR3101
012024040502TRIS3       010TRISUL      ON      NM   R$  000000000053400000000005370000000000529000000000053100000000005290000000000529000000000053100834000000000000296900000000000157781100000000000000009999123100000010000000000000BRTRISACNOR4116
012024040502TRPL3       010TRAN PAULISTON      N1   R$  000000000326500000000032840000000003201000000000323900000000032010000000003201000000000329500036000000000000005300000000000017170600000000000000009999123100000010000000000000BRTRPLACNOR4185
012024040502TRPL4       010TRAN PAULISTPN      N1   R$  000000000257000000000025850000000002556000000000257300000000025760000000002575000000000257607001000000000001744300000000004489184900000000000000009999123100000010000000000000BRTRPLACNPR1185
012024040502TTEN3       0103TENTOS     ON      NM   R$  000000000103000000000010420000000001018000000000102700000000010310000000001028000000000103203707000000000000640100000000000657879300000000000000009999123100000010000000000000BRTTENACNOR0103
012024040502TUPY3       010TUPY        ON      NM   R$  000000000281100000000028680000000002800000000000283400000000028310000000002820000000000283204314000000000000726800000000002060437800000000000000009999123100000010000000000000BRTUPYACNOR1183
012024040502UCAS3       010UNICASA     ON      NM   R$  000000000026600000000002670000000000264000000000026500000000002650000000000265000000000026600046000000000000009200000000000002439500000000000000009999123100000010000000000000BRUCASACNOR1113
012024040502UGPA3       010ULTRAPAR    ON      NM   R$  000000000281700000000028300000000002772000000000279200000000027910000000002791000000000279215479000000000003251000000000009079611000000000000000009999123100000010000000000000BRUGPAACNOR8155
012024040502VVEO3       010VIVEO       ON      NM   R$  000000000067600000000006920000000000673000000000068000000000006860000000000686000000000069002995000000000003573600000000002432368900000000000000009999123100000010000000000000BRVVEOACNOR0103
012024040502WEGE3       010WEG         ON      NM   R$  000000000379200000000038200000000003782000000000380300000000037990000000003799000000000380009896000000000004478300000000017031447400000000000000009999123100000010000000000000BRWEGEACNOR0222
012024040502WEST3       010WESTWING    ON      NM   R$  000000000013000000000001300000000000126000000000012800000000001290000000000127000000000012900055000000000000015100000000000001941900000000000000009999123100000010000000000000BRWESTACNOR3100
012024040502WHRL3       010WHIRLPOOL   ON           R$  000000000045500000000004590000000000455000000000045600000000004580000000000456000000000045800009000000000000001300000000000000593300000000000000009999123100000010000000000000BRWHRLACNOR5128
012024040502WHRL4       010WHIRLPOOL   PN           R$  000000000047100000000004720000000000467000000000046900000000004670000000000467000000000047100009000000000000002200000000000001033300000000000000009999123100000010000000000000BRWHRLACNPR2128
012024040502WIZC3       010WIZ CO      ON      NM   R$  000000000070700000000007170000000000704000000000071200000000007100000000000709000000000071001858000000000000376600000000000268203600000000000000009999123100000010000000000000BRWIZCACNOR5101
012024040502RAIL3       010RUMO S.A.   ON      NM   R$  000000000223400000000022650000000002234000000000225200000000022450000000002245000000000225014473000000000005715700000000012873486300000000000000009999123100000010000000000000BRRAILACNOR9104
012024040502RAIZ4       010RAIZEN      PN      N2   R$  000000000033600000000003390000000000332000000000033400000000003340000000000334000000000033511010000000000010350600000000003467056700000000000000009999123100000010000000000000BRRAIZACNPR6110
012024040502RANI3       010IRANI       ON      NM   R$  000000000092500000000009280000000000910000000000091700000000009210000000000920000000000092103067000000000000850800000000000780682300000000000000009999123100000010000000000000BRRANIACNOR5070
012024040502RAPT3       010RANDON PART ON      N1   R$  000000000105500000000010600000000001043000000000105300000000010600000000001043000000000106100091000000000000024500000000000025811800000000000000009999123100000010000000000000BRRAPTACNOR7162
012024040502RAPT4       010RANDON PART PN      N1   R$  000000000126900000000012790000000001251000000000126500000000012690000000001267000000000127004084000000000002115500000000002677607800000000000000009999123100000010000000000000BRRAPTACNPR4162
012024040502TASA3       010TAURUS ARMASON      N2   R$  000000000130100000000013500000000001301000000000131600000000013150000000001310000000000131500073000000000000012000000000000015793900000000000000009999123100000010000000000000BRTASAACNOR7103
012024040502TASA4       010TAURUS ARMASPN      N2   R$  000000000128100000000012880000000001268000000000127500000000012710000000001271000000000127301341000000000000243100000000000309973700000000000000009999123100000010000000000000BRTASAACNPR4103
012024040502TCSA3       010TECNISA     ON      NM   R$  000000000030000000000003050000000000285000000000029000000000002920000000000289000000000029200973000000000000187500000000000054380100000000000000009999123100000010000000000000BRTCSAACNOR3112
012024040502TECN3       010TECHNOS     ON      NM   R$  000000000045500000000004580000000000440000000000044600000000004400000000000440000000000044500328000000000000089300000000000039892900000000000000009999123100000010000000000000BRTECNACNOR6109
012024040502TELB4       010TELEBRAS    PN           R$  000000000102000000000010350000000001015000000000102500000000010350000000001020000000000103500014000000000000007600000000000007792900000000000000009999123100000010000000000000BRTELBACNPR9140
012024040502TEND3       010TENDA       ON      NM   R$  000000000125000000000012970000000001242000000000126400000000012600000000001257000000000126005973000000000002346100000000002966170800000000000000009999123100000010000000000000BRTENDACNOR4111
012024040502TFCO4       010TRACK FIELD PN  EJ  N2   R$  000000000121000000000012270000000001184000000000120300000000011910000000001191000000000120800427000000000000059800000000000071941200000000000000009999123100000010000000000000BRTFCOACNPR8112
012024040502TGMA3       010TEGMA       ON      NM   R$  000000000270100000000027380000000002687000000000271600000000027380000000002723000000000273800694000000000000108700000000000295313200000000000000009999123100000010000000000000BRTGMAACNOR7143
012024040502TIMS3       010TIM         ON      NM   R$  000000000185700000000018880000000001841000000000185600000000018520000000001851000000000185316028000000000005246600000000009741882200000000000000009999123100000010000000000000BRTIMSACNOR5115
012024040502TOTS3       010TOTVS       ON      NM   R$  000000000284000000000028580000000002815000000000283700000000028260000000002826000000000283010171000000000003660100000000010384934200000000000000009999123100000010000000000000BRTOTSACNOR8144
012024040502VITT3       010VITTIA      ON      NM   R$  000000000063500000000006470000000000621000000000063000000000006210000000000621000000000063302026000000000001086100000000000684857400000000000000009999123100000010000000000000BRVITTACNOR4106
012024040502VIVA3       010VIVARA S.A. ON      NM   R$  000000000245000000000024680000000002420000000000244000000000024520000000002446000000000245311795000000000003101600000000007569814000000000000000009999123100000010000000000000BRVIVAACNOR0106
012024040502BGIP4       010BANESE      PN           R$  000000000227500000000023400000000002275000000000230700000000023400000000002275000000000234000002000000000000000200000000000000461500000000000000009999123100000010000000000000BRBGIPACNPR8208
012024040502BHIA3       010CASAS BAHIA ON      NM   R$  000000000067400000000006960000000000661000000000068000000000006780000000000678000000000068005866000000000004396800000000002990761600000000000000009999123100000010000000000000BRBHIAACNOR1101
012024040502VIVR3       010VIVER       ON      NM   R$  000000000031100000000003190000000000305000000000030900000000003110000000000311000000000031200089000000000000028100000000000008701700000000000000009999123100000010000000000000BRVIVRACNOR4122
012024040502VIVT3       010TELEF BRASILON  EJ       R$  000000000517500000000052440000000005125000000000515500000000051470000000005144000000000516107632000000000001552500000000008003833600000000000000009999123100000010000000000000BRVIVTACNOR0179
012024040502VLID3       010VALID       ON      NM   R$  000000000185800000000018630000000001804000000000182800000000018300000000001830000000000183502462000000000000436300000000000797705100000000000000009999123100000010000000000000BRVLIDACNOR5141
012024040502VSTE3       010VESTE       ON      NM   R$  000000000167500000000017340000000001630000000000166700000000016750000000001628000000000167500047000000000000008100000000000013505800000000000000009999123100000010000000000000BRVSTEACNOR5102
012024040502VULC3       010VULCABRAS   ON      NM   R$  000000000165800000000016770000000001635000000000166100000000016700000000001670000000000167604003000000000001382100000000002295739600000000000000009999123100000010000000000000BRVULCACNOR2158
012024040502QUAL3       010QUALICORP   ON      NM   R$  000000000016700000000001670000000000157000000000016000000000001570000000000157000000000015811613000000000008983200000000001437598900000000000000009999123100000010000000000000BRQUALACNOR6119
012024040502RADL3       010RAIADROGASILON  EJ  NM   R$  000000000264400000000026480000000002605000000000261500000000026100000000002609000000000261009904000000000003254900000000008512727900000000000000009999123100000010000000000000BRRADLACNOR0155
012024040502SUZB3       010SUZANO S.A. ON      NM   R$  000000000635500000000063760000000006222000000000628500000000062810000000006277000000000628514782000000000004333900000000027239308600000000000000009999123100000010000000000000BRSUZBACNOR0129
012024040502SYNE3       010SYN PROP TECON      NM   R$  000000000085800000000008780000000000850000000000086500000000008660000000000865000000000087200681000000000000254100000000000219872600000000000000009999123100000010000000000000BRSYNEACNOR2102
012024040502TAEE11      010TAESA       UNT     N2   R$  000000000363700000000036430000000003608000000000362100000000036210000000003621000000000362505728000000000001773700000000006423703200000000000000009999123100000010000000000000BRTAEECDAM10145
012024040502TAEE3       010TAESA       ON      N2   R$  000000000121000000000012100000000001193000000000119600000000012010000000001195000000000120200520000000000000098000000000000117289000000000000000009999123100000010000000000000BRTAEEACNOR9145
012024040502TAEE4       010TAESA       PN      N2   R$  000000000121900000000012190000000001210000000000121300000000012150000000001212000000000121500506000000000000116600000000000141493000000000000000009999123100000010000000000000BRTAEEACNPR6145
012024040502VAMO3       010VAMOS       ON      NM   R$  000000000080800000000008140000000000798000000000080200000000008000000000000800000000000080208689000000000005157200000000004139960700000000000000009999123100000010000000000000BRVAMOACNOR7105
012024040502VBBR3       010VIBRA       ON      NM   R$  000000000249500000000025620000000002495000000000253600000000025400000000002540000000000254529128000000000011241800000000028514809200000000000000009999123100000010000000000000BRVBBRACNOR1106
012024040502PRNR3       010PRINER      ON      NM   R$  000000000124400000000013000000000001240000000000127400000000012910000000001279000000000129302535000000000000874900000000001114873900000000000000009999123100000010000000000000BRPRNRACNOR4108
012024040502PSSA3       010PORTO SEGUROON  EDJ NM   R$  000000000315000000000031700000000003121000000000313700000000031300000000003129000000000313004950000000000000951800000000002986745500000000000000009999123100000010000000000000BRPSSAACNOR7154
012024040502PTBL3       010PORTOBELLO  ON      NM   R$  000000000063900000000006560000000000627000000000064100000000006520000000000643000000000065201717000000000000767900000000000492823000000000000000009999123100000010000000000000BRPTBLACNOR8132
012024040502PTNT3       010PETTENATI   ON           R$  000000000118000000000011800000000001080000000000109800000000011080000000001085000000000110900038000000000000008600000000000009448100000000000000009999123100000010000000000000BRPTNTACNOR6042
012024040502PTNT4       010PETTENATI   PN           R$  000000000077300000000007730000000000751000000000076500000000007720000000000735000000000077200006000000000000002000000000000001530500000000000000009999123100000010000000000000BRPTNTACNPR3047
012024040502SMFT3       010SMART FIT   ON      NM   R$  000000000261400000000026380000000002538000000000257400000000025880000000002570000000000258907001000000000001497400000000003855785100000000000000009999123100000010000000000000BRSMFTACNOR1111
012024040502SMTO3       010SAO MARTINHOON      NM   R$  000000000306800000000030860000000002982000000000301700000000030180000000003008000000000301807489000000000001599900000000004827714900000000000000009999123100000010000000000000BRSMTOACNOR3125
012024040502SNSY3       010SANSUY      ON           R$  000000000103900000000010550000000001016000000000104100000000010550000000001030000000000105200006000000000000000900000000000000937600000000000000009999123100000010000000000000BRSNSYACNOR2113
012024040502SNSY5       010SANSUY      PNA          R$  000000000064500000000006570000000000615000000000062800000000006300000000000620000000000063000040000000000000034600000000000021733800000000000000009999123100000010000000000000BRSNSYACNPA5111
012024040502SOJA3       010BOA SAFRA   ON      NM   R$  000000000177600000000018210000000001762000000000179000000000017700000000001766000000000177002264000000000000512600000000000917633400000000000000009999123100000010000000000000BRSOJAACNOR9105
012024040502SOMA3       010GRUPO SOMA  ON      NM   R$  000000000067800000000006820000000000666000000000067200000000006700000000000670000000000067112210000000000010946700000000007364447200000000000000009999123100000010000000000000BRSOMAACNOR3102
012024040502GEPA4       010GER PARANAP PN           R$  000000000274500000000027450000000002665000000000269100000000026650000000002671000000000282000002000000000000000300000000000000807500000000000000009999123100000010000000000000BRGEPAACNPR9159
012024040502GFSA3       010GAFISA      ON      NM   R$  000000000065800000000006600000000000614000000000062700000000006220000000000621000000000062203305000000000002833900000000001779191700000000000000009999123100000010000000000000BRGFSAACNOR3124
012024040502ITSA3       010ITAUSA      ON      N1   R$  000000000101000000000010100000000000993000000000099700000000010000000000001000000000000100100488000000000000153100000000000152787600000000000000009999123100000010000000000000BRITSAACNOR0439
012024040502ITSA4       010ITAUSA      PN      N1   R$  000000000100600000000010080000000000991000000000099700000000009990000000000999000000000100023652000000000017697200000000017654785500000000000000009999123100000010000000000000BRITSAACNPR7439
012024040502BPAC3       010BTGP BANCO  ON      N2   R$  000000000173500000000017350000000001695000000000170100000000016950000000001695000000000173000018000000000000003000000000000005103900000000000000009999123100000010000000000000BRBPACACNOR7133
012024040502BPAC5       010BTGP BANCO  PNA     N2   R$  000000000090300000000009030000000000903000000000090400000000009030000000000908000000000092200009000000000000002900000000000002623900000000000000009999123100000010000000000000BRBPACACNPA0133
012024040502CPLE6       010COPEL       PNB     N2   R$  000000000098700000000009870000000000961000000000097000000000009730000000000972000000000097415247000000000014189100000000013767961300000000000000009999123100000010000000000000BRCPLEACNPB9145
012024040502CRFB3       010CARREFOUR BRON      NM   R$  000000000136700000000013720000000001324000000000133800000000013400000000001338000000000134209950000000000003560300000000004765874200000000000000009999123100000010000000000000BRCRFBACNOR2116
012024040502CRPG5       010CRISTAL     PNA          R$  000000000304100000000030420000000003020000000000303900000000030400000000003040000000000304900013000000000000003100000000000009421300000000000000009999123100000010000000000000BRCRPGACNPA3118
012024040502CRPG6       010CRISTAL     PNB          R$  000000000302900000000030300000000002986000000000302000000000030260000000003001000000000302700009000000000000000900000000000002718300000000000000009999123100000010000000000000BRCRPGACNPB1118
012024040502CSAN3       010COSAN       ON      NM   R$  000000000155000000000015530000000001523000000000153100000000015270000000001527000000000153424610000000000011752900000000018001811300000000000000009999123100000010000000000000BRCSANACNOR6124
012024040502HBOR3       010HELBOR      ON      NM   R$  000000000029300000000002950000000000284000000000028900000000002910000000000290000000000029100567000000000000470100000000000136151900000000000000009999123100000010000000000000BRHBORACNOR3117
012024040502HBRE3       010HBR REALTY  ON      NM   R$  000000000059000000000006120000000000582000000000060200000000006120000000000607000000000061201089000000000000863000000000000519549700000000000000009999123100000010000000000000BRHBREACNOR4100
012024040502HBSA3       010HIDROVIAS   ON      NM   R$  000000000041900000000004210000000000410000000000041500000000004160000000000416000000000042009135000000000005748200000000002387828100000000000000009999123100000010000000000000BRHBSAACNOR0100
012024040502HBTS5       010HABITASUL   PNA          R$  000000000410000000000041000000000004100000000000410000000000041000000000004100000000000425000001000000000000000200000000000000820000000000000000009999123100000010000000000000BRHBTSACNPA3127
012024040502HYPE3       010HYPERA      ON      NM   R$  000000000316500000000032200000000003123000000000315300000000031230000000003123000000000314411865000000000003585500000000011307452400000000000000009999123100000010000000000000BRHYPEACNOR0139
012024040502MYPK3       010IOCHP-MAXIONON      NM   R$  000000000136600000000014040000000001363000000000138200000000013740000000001372000000000137604115000000000001130900000000001563541400000000000000009999123100000010000000000000BRMYPKACNOR7154
012024040502PETZ3       010PETZ        ON      NM   R$  000000000040600000000004130000000000394000000000040000000000003950000000000394000000000039507179000000000009148600000000003663544800000000000000009999123100000010000000000000BRPETZACNOR2109
012024040502ROMI3       010ROMI        ON  EJB NM   R$  000000000123400000000012430000000001210000000000121900000000012110000000001211000000000121201142000000000000246600000000000300654300000000000000009999123100000010000000000000BRROMIACNOR8194
012024040502RRRP3       0103R PETROLEUMON      NM   R$  000000000348500000000035190000000003404000000000345000000000034400000000003440000000000344614020000000000004288800000000014798497900000000000000009999123100000010000000000000BRRRRPACNOR5102
012024040502SRNA3       010SERENA      ON      NM   R$  000000000095000000000009670000000000933000000000094800000000009570000000000955000000000095704247000000000001390800000000001319176700000000000000009999123100000010000000000000BRSRNAACNOR4100
012024040502STBP3       010SANTOS BRP  ON      NM   R$  000000000134200000000013480000000001306000000000131700000000013190000000001313000000000132010499000000000004501200000000005930983800000000000000009999123100000010000000000000BRSTBPACNOR3129
012024040502POMO4       010MARCOPOLO   PN      N2   R$  000000000075000000000007620000000000734000000000074600000000007450000000000743000000000074506011000000000005123000000000003826747600000000000000009999123100000010000000000000BRPOMOACNPR7097
012024040502PORT3       010WILSON SONS ON      NM   R$  000000000178000000000017870000000001773000000000178000000000017780000000001774000000000177802451000000000000651300000000001159381800000000000000009999123100000010000000000000BRPORTACNOR8106
012024040502POSI3       010POSITIVO TECON      NM   R$  000000000104800000000010610000000001028000000000104600000000010380000000001038000000000104005027000000000001789100000000001871657600000000000000009999123100000010000000000000BRPOSIACNOR9115
012024040502PRIO3       010PETRORIO    ON      NM   R$  000000000502300000000051000000000004911000000000502900000000050450000000005045000000000505030650000000000010079600000000050690853900000000000000009999123100000010000000000000BRPRIOACNOR1106
012024040502SCAR3       010SAO CARLOS  ON      NM   R$  000000000270000000000027000000000002650000000000267900000000026990000000002648000000000270000009000000000000001100000000000002947300000000000000009999123100000010000000000000BRSCARACNOR7130
012024040502SEER3       010SER EDUCA   ON      NM   R$  000000000067800000000006870000000000666000000000067500000000006740000000000674000000000067601033000000000000300600000000000202990200000000000000009999123100000010000000000000BRSEERACNOR5119
012024040502SEQL3       010SEQUOIA LOG ON      NM   R$  000000000003100000000000320000000000030000000000003000000000000300000000000030000000000003100875000000000006631400000000000205256600000000000000009999123100000010000000000000BRSEQLACNOR2101
012024040502SGPS3       010SPRINGS     ON      NM   R$  000000000008300000000000840000000000081000000000008100000000000820000000000081000000000008200131000000000000278400000000000022749900000000000000009999123100000010000000000000BRSGPSACNOR4104
012024040502SHOW3       010TIME FOR FUNON      NM   R$  000000000027800000000002780000000000256000000000026500000000002630000000000257000000000026300470000000000000225700000000000059993100000000000000009999123100000010000000000000BRSHOWACNOR7105
012024040502SHUL4       010SCHULZ      PN  EJ       R$  000000000068600000000007020000000000671000000000069000000000006900000000000689000000000069302258000000000000430400000000000297386100000000000000009999123100000010000000000000BRSHULACNPR4155
012024040502SIMH3       010SIMPAR      ON      NM   R$  000000000070700000000007190000000000700000000000070500000000007010000000000700000000000070304910000000000002541700000000001793106900000000000000009999123100000010000000000000BRSIMHACNOR0107
012024040502SLCE3       010SLC AGRICOLAON      NM   R$  000000000194600000000019580000000001911000000000193100000000019330000000001933000000000193506551000000000001969700000000003804678500000000000000009999123100000010000000000000BRSLCEACNOR2124
012024040502PFRM3       010PROFARMA    ON      NM   R$  000000000054700000000005470000000000534000000000053900000000005370000000000534000000000053700262000000000000108400000000000058522900000000000000009999123100000010000000000000BRPFRMACNOR1116
012024040502PGMN3       010PAGUE MENOS ON      NM   R$  000000000027100000000002710000000000266000000000026700000000002670000000000267000000000026802223000000000000483600000000000129273000000000000000009999123100000010000000000000BRPGMNACNOR8103
012024040502PINE3       010PINE        ON      N2   R$  000000000070300000000007030000000000662000000000068000000000006700000000000660000000000067900020000000000000010200000000000006942700000000000000009999123100000010000000000000BRPINEACNOR1148
012024040502PINE4       010PINE        PN      N2   R$  000000000044900000000004540000000000443000000000044700000000004430000000000443000000000044800636000000000000219900000000000098404100000000000000009999123100000010000000000000BRPINEACNPR8148
012024040502PLAS3       010PLASCAR PARTON           R$  000000000078000000000007800000000000735000000000075500000000007450000000000737000000000077000009000000000000001400000000000001058300000000000000009999123100000010000000000000BRPLASACNOR2106
012024040502PLPL3       010PLANOEPLANO ON      NM   R$  000000000131800000000013570000000001318000000000133800000000013290000000001329000000000134601703000000000000511900000000000685091200000000000000009999123100000010000000000000BRPLPLACNOR5104
012024040502PNVL3       010DIMED       ON      NM   R$  000000000122000000000012320000000001205000000000121000000000012150000000001207000000000121501411000000000000209200000000000253301300000000000000009999123100000010000000000000BRPNVLACNOR9205
012024040502POMO3       010MARCOPOLO   ON      N2   R$  000000000058900000000005950000000000579000000000058700000000005850000000000585000000000058801173000000000000454300000000000266712800000000000000009999123100000010000000000000BRPOMOACNOR0097
012024040502SAPR11      010SANEPAR     UNT     N2   R$  000000000257500000000025750000000002520000000000253300000000025340000000002529000000000253803741000000000000831900000000002107936800000000000000009999123100000010000000000000BRSAPRCDAM13117
012024040502SAPR3       010SANEPAR     ON      N2   R$  000000000049500000000004970000000000488000000000049000000000004880000000000488000000000049100883000000000000284800000000000139734200000000000000009999123100000010000000000000BRSAPRACNOR9158
012024040502SAPR4       010SANEPAR     PN      N2   R$  000000000051600000000005170000000000508000000000051100000000005100000000000509000000000051002355000000000002210700000000001129781200000000000000009999123100000010000000000000BRSAPRACNPR6158
012024040502SBFG3       010GRUPO SBF   ON      NM   R$  000000000134600000000013940000000001346000000000137100000000013520000000001352000000000135509495000000000002779900000000003813049300000000000000009999123100000010000000000000BRSBFGACNOR1102
012024040502SBSP3       010SABESP      ON      NM   R$  000000000838800000000084430000000008337000000000838000000000084160000000008415000000000841608033000000000001680500000000014084104400000000000000009999123100000010000000000000BRSBSPACNOR5160
012024040502RSUL4       010RIOSULENSE  PN           R$  000000000814900000000081490000000008149000000000814900000000081490000000007440000000000812200001000000000000000100000000000000814900000000000000009999123100000010000000000000BRRSULACNPR3113
012024040502SANB11      010SANTANDER BRUNT          R$  000000000288100000000028810000000002808000000000282200000000028080000000002807000000000281005795000000000002074500000000005855467200000000000000009999123100000010000000000000BRSANBCDAM13163
012024040502SANB3       010SANTANDER BRON           R$  000000000134600000000013600000000001323000000000133300000000013230000000001323000000000132800563000000000000083400000000000111241600000000000000009999123100000010000000000000BRSANBACNOR8170
012024040502SANB4       010SANTANDER BRPN           R$  000000000152100000000015210000000001487000000000149400000000014870000000001487000000000149400632000000000000115600000000000172771000000000000000009999123100000010000000000000BRSANBACNPR5170
012024040502VALE3       010VALE        ON      NM   R$  000000000602800000000060480000000005961000000000598700000000059710000000005971000000000597239588000000000015369700000000092028369200000000000000009999123100000010000000000000BRVALEACNOR0210
012024040502ESPA3       010ESPACOLASER ON      NM   R$  000000000009700000000000980000000000096000000000009600000000000970000000000097000000000009800903000000000000384400000000000037245800000000000000009999123100000010000000000000BRESPAACNOR7103
012024040502ESTR4       010ESTRELA     PN           R$  000000000020900000000002150000000000209000000000021000000000002150000000000207000000000021500004000000000000000400000000000000084200000000000000009999123100000010000000000000BRESTRACNPR0144
012024040502EUCA3       010EUCATEX     ON      N1   R$  000000000168500000000017000000000001681000000000168800000000016810000000001671000000000169200009000000000000001000000000000001688500000000000000009999123100000010000000000000BREUCAACNOR1157
012024040502EUCA4       010EUCATEX     PN      N1   R$  000000000167300000000016870000000001640000000000164900000000016400000000001639000000000164000297000000000000067100000000000110705800000000000000009999123100000010000000000000BREUCAACNPR8044
012024040502EVEN3       010EVEN        ON      NM   R$  000000000080000000000008070000000000790000000000079800000000008020000000000797000000000080302463000000000000634000000000000506401400000000000000009999123100000010000000000000BREVENACNOR8118
012024040502MGEL4       010MANGELS INDLPN           R$  000000000175000000000017500000000001600000000000164400000000016510000000001651000000000170000019000000000000002800000000000004604200000000000000009999123100000010000000000000BRMGELACNPR3147
012024040502MGLU3       010MAGAZ LUIZA ON      NM   R$  000000000017600000000001770000000000169000000000017100000000001710000000000171000000000017253218000000000092525800000000015882983200000000000000009999123100000010000000000000BRMGLUACNOR2123
012024040502BEES3       010BANESTES    ON  EJ       R$  000000000088300000000008970000000000873000000000088700000000008850000000000882000000000089000093000000000000011000000000000009765800000000000000009999123100000010000000000000BRBEESACNOR9389
012024040502BEES4       010BANESTES    PN  EJ       R$  000000000099800000000009980000000000967000000000097300000000009700000000000941000000000097100013000000000000001700000000000001654100000000000000009999123100000010000000000000BRBEESACNPR6314
012024040502EZTC3       010EZTEC       ON      NM   R$  000000000151100000000015200000000001482000000000150000000000015090000000001508000000000151006053000000000001953900000000002931275700000000000000009999123100000010000000000000BREZTCACNOR0124
012024040502EPAR3       010EMBPAR S/A  ON           R$  000000000081800000000008180000000000798000000000081300000000008000000000000805000000000081800024000000000000006100000000000004964900000000000000009999123100000010000000000000BREPARACNOR9104
012024040502EQMA3B      010EQTLMARANHAOON      MB   R$  000000000289800000000029490000000002898000000000290300000000029010000000002851000000000300000005000000000000001200000000000003483900000000000000009999123100000010000000000000BREQMAACNOR8107
012024040502EQPA3       010EQTL PARA   ON           R$  000000000079400000000008000000000000781000000000079000000000007930000000000781000000000080500035000000000000007600000000000006009800000000000000009999123100000010000000000000BREQPAACNOR1110
012024040502EQTL3       010EQUATORIAL  ON      NM   R$  000000000323800000000032460000000003146000000000317300000000031890000000003187000000000318926375000000000017000700000000053959904500000000000000009999123100000010000000000000BREQTLACNOR0129
012024040502IFCM3       010INFRACOMM   ON      NM   R$  000000000008400000000000840000000000080000000000008100000000000820000000000081000000000008204436000000000006689700000000000544700500000000000000009999123100000010000000000000BRIFCMACNOR8101
012024040502IGTI11      010IGUATEMI S.AUNT     N1   R$  000000000229800000000023220000000002281000000000229800000000023000000000002300000000000230311303000000000002659300000000006112907500000000000000009999123100000010000000000000BRIGTICDAM16105
012024040502IGTI3       010IGUATEMI S.AON      N1   R$  000000000032000000000003230000000000316000000000031800000000003160000000000316000000000032000084000000000000027400000000000008739400000000000000009999123100000010000000000000BRIGTIACNOR8105
012024040502INEP3       010INEPAR      ON           R$  000000000034300000000003560000000000335000000000034700000000003520000000000350000000000035200317000000000000106600000000000037042800000000000000009999123100000010000000000000BRINEPACNOR1143
012024040502INEP4       010INEPAR      PN           R$  000000000029400000000003230000000000294000000000031100000000003010000000000301000000000030600269000000000000080300000000000024976000000000000000009999123100000010000000000000BRINEPACNPR8143
012024040502INTB3       010INTELBRAS   ON      NM   R$  000000000202000000000020200000000001977000000000198800000000019970000000001995000000000199703649000000000001199500000000002385357000000000000000009999123100000010000000000000BRINTBACNOR9111
012024040502MAPT3       010CEMEPE      ON           R$  000000000064000000000006500000000000580000000000061500000000006000000000000550000000000064500006000000000000000600000000000000369500000000000000009999123100000010000000000000BRMAPTACNOR8106
012024040502MAPT4       010CEMEPE      PN           R$  000000000050000000000005000000000000500000000000050000000000005000000000000450000000000051000001000000000000000100000000000000050000000000000000009999123100000010000000000000BRMAPTACNPR5106
012024040502MATD3       010MATER DEI   ON      NM   R$  000000000054500000000005710000000000543000000000056000000000005610000000000560000000000056103620000000000001034400000000000579898500000000000000009999123100000010000000000000BRMATDACNOR4103
012024040502BRBI11      010BR PARTNERS UNT     N2   R$  000000000162700000000016470000000001610000000000163100000000016400000000001621000000000164200865000000000000122900000000000200459000000000000000009999123100000010000000000000BRBRBICDAM10108
012024040502BRFS3       010BRF SA      ON      NM   R$  000000000159700000000016380000000001587000000000161900000000016170000000001617000000000162317516000000000007636200000000012367757600000000000000009999123100000010000000000000BRBRFSACNOR8121
012024040502BRIT3       010BRISANET    ON      NM   R$  000000000043000000000004450000000000425000000000043600000000004430000000000443000000000044401005000000000000358500000000000156515300000000000000009999123100000010000000000000BRBRITACNOR0102
012024040502BRKM3       010BRASKEM     ON      N1   R$  000000000254500000000025810000000002475000000000255100000000024970000000002471000000000253400131000000000000021900000000000055885900000000000000009999123100000010000000000000BRBRKMACNOR1119
012024040502BRKM5       010BRASKEM     PNA     N1   R$  000000000262700000000026570000000002545000000000259100000000025720000000002571000000000257809313000000000003496600000000009062496000000000000000009999123100000010000000000000BRBRKMACNPA4121
012024040502CSRN5       010COSERN      PNA EJ       R$  000000000244100000000024410000000002440000000000244000000000024400000000002440000000000289900002000000000000000700000000000001708100000000000000009999123100000010000000000000BRCSRNACNPA3191
012024040502CSUD3       010CSU DIGITAL ON      NM   R$  000000000199000000000020180000000001973000000000199800000000020000000000002000000000000200800144000000000000039500000000000078949400000000000000009999123100000010000000000000BRCSUDACNOR5108
012024040502BRAP3       010BRADESPAR   ON      N1   R$  000000000200000000000020100000000001970000000000198100000000019830000000001972000000000198501010000000000000148200000000000293708900000000000000009999123100000010000000000000BRBRAPACNOR5147
012024040502BRAP4       010BRADESPAR   PN      N1   R$  000000000206700000000020690000000002033000000000204600000000020420000000002041000000000204208916000000000003351500000000006857899400000000000000009999123100000010000000000000BRBRAPACNPR2147
012024040502CSED3       010CRUZEIRO EDUON      NM   R$  000000000044800000000004520000000000440000000000044400000000004400000000000439000000000044000725000000000000229900000000000102155900000000000000009999123100000010000000000000BRCSEDACNOR9104
012024040502CSMG3       010COPASA      ON  EDJ NM   R$  000000000213000000000021300000000002096000000000211000000000021170000000002110000000000211703467000000000000859800000000001814951100000000000000009999123100000010000000000000BRCSMGACNOR5172
012024040502CSNA3       010SID NACIONALON           R$  000000000151100000000015210000000001491000000000150100000000014950000000001495000000000149609204000000000005534700000000008311006200000000000000009999123100000010000000000000BRCSNAACNOR6260
012024040502ELMD3       010ELETROMIDIA ON      NM   R$  000000000186300000000018900000000001853000000000187800000000018740000000001864000000000187400387000000000000058800000000000110433900000000000000009999123100000010000000000000BRELMDACNOR3100
012024040502EMAE3       010EMAE        ON           R$  000000000700000000000070000000000007000000000000700000000000070000000000003005000000000900000001000000000000000100000000000000700000000000000000009999123100000010000000000000BREMAEACNOR4124
012024040502EMAE4       010EMAE        PN           R$  000000000784000000000079890000000007200000000000781400000000079600000000007714000000000796000021000000000000002200000000000017192900000000000000009999123100000010000000000000BREMAEACNPR1124
012024040502EMBR3       010EMBRAER     ON      NM   R$  000000000327200000000032790000000003215000000000323800000000032380000000003235000000000323811776000000000005455000000000017663892200000000000000009999123100000010000000000000BREMBRACNOR4191
012024040502CTNM3       010COTEMINAS   ON           R$  000000000086700000000008670000000000860000000000086300000000008600000000000800000000000085000002000000000000000200000000000000172700000000000000009999123100000010000000000000BRCTNMACNOR9130
012024040502CTNM4       010COTEMINAS   PN           R$  000000000011700000000001220000000000115000000000011700000000001150000000000115000000000011700069000000000000028300000000000003311100000000000000009999123100000010000000000000BRCTNMACNPR6129
012024040502CTSA3       010SANTANENSE  ON           R$  000000000030000000000003000000000000294000000000029800000000002940000000000298000000000030300007000000000000001000000000000000298200000000000000009999123100000010000000000000BRCTSAACNOR3062
012024040502CTSA4       010SANTANENSE  PN           R$  000000000015100000000001560000000000151000000000015300000000001530000000000153000000000015400024000000000000009600000000000001468900000000000000009999123100000010000000000000BRCTSAACNPR0062
012024040502CURY3       010CURY S/A    ON      NM   R$  000000000203900000000020680000000002030000000000204400000000020440000000002036000000000204403311000000000001784600000000003648606100000000000000009999123100000010000000000000BRCURYACNOR3107
012024040502CVCB3       010CVC BRASIL  ON      NM   R$  000000000027800000000002800000000000273000000000027500000000002730000000000273000000000027406826000000000012971300000000003570357900000000000000009999123100000010000000000000BRCVCBACNOR1115
012024040502ENAT3       010ENAUTA PART ON      NM   R$  000000000274400000000027440000000002638000000000266600000000026650000000002664000000000266509104000000000003059300000000008159119100000000000000009999123100000010000000000000BRENATACNOR0104
012024040502ENEV3       010ENEVA       ON      NM   R$  000000000127000000000012890000000001260000000000127600000000012800000000001280000000000128113129000000000006554800000000008366703800000000000000009999123100000010000000000000BRENEVACNOR8105
012024040502ENGI11      010ENERGISA    UNT     N2   R$  000000000482800000000048350000000004729000000000476000000000047550000000004755000000000475612265000000000003222100000000015338936300000000000000009999123100000010000000000000BRENGICDAM16135
012024040502ENGI3       010ENERGISA    ON      N2   R$  000000000153100000000015550000000001528000000000154000000000015360000000001535000000000155400031000000000000004100000000000006316800000000000000009999123100000010000000000000BRENGIACNOR0145
012024040502ENGI4       010ENERGISA    PN      N2   R$  000000000082300000000008230000000000799000000000080500000000008010000000000801000000000081200045000000000000009200000000000007410200000000000000009999123100000010000000000000BRENGIACNPR7141
012024040502ENJU3       010ENJOEI      ON      NM   R$  000000000019700000000002140000000000190000000000020600000000002080000000000207000000000020802058000000000001549300000000000319618700000000000000009999123100000010000000000000BRENJUACNOR9100
012024040502KRSA3       010KORA SAUDE  ON      NM   R$  000000000008100000000000830000000000079000000000008000000000000800000000000080000000000008100411000000000000442000000000000035505900000000000000009999123100000010000000000000BRKRSAACNOR0100
012024040502LAND3       010TERRASANTAPAON      NM   R$  000000000131800000000013380000000001220000000000124000000000012250000000001224000000000123701310000000000000568100000000000704996900000000000000009999123100000010000000000000BRLANDACNOR9102
012024040502LAVV3       010LAVVI       ON      NM   R$  000000000091500000000009270000000000910000000000091600000000009190000000000913000000000091901805000000000000415300000000000380731500000000000000009999123100000010000000000000BRLAVVACNOR4111
012024040502LEVE3       010METAL LEVE  ON      NM   R$  000000000340700000000034400000000003392000000000340700000000033990000000003393000000000341401527000000000000261300000000000890287600000000000000009999123100000010000000000000BRLEVEACNOR2196
012024040502BAHI3       010BAHEMA      ON      MA   R$  000000000087100000000009000000000000816000000000087700000000009000000000000822000000000093100014000000000000003800000000000003335300000000000000009999123100000010000000000000BRBAHIACNOR1074
012024040502BALM3       010BAUMER      ON           R$  000000000107600000000012000000000001050000000000110800000000012000000000000990000000000119000003000000000000000300000000000000332600000000000000009999123100000010000000000000BRBALMACNOR5055
012024040502BALM4       010BAUMER      PN           R$  000000000102500000000010250000000000972000000000099600000000009980000000000972000000000106000004000000000000002800000000000002789200000000000000009999123100000010000000000000BRBALMACNPR2056
012024040502BAUH4       010EXCELSIOR   PN           R$  000000000777000000000078790000000007770000000000781300000000078790000000000000000000000787900005000000000000000500000000000003906800000000000000009999123100000010000000000000BRBAUHACNPR3117
012024040502AURE3       010AUREN       ON      NM   R$  000000000121000000000012120000000001199000000000120300000000012020000000001202000000000120404250000000000002046500000000002463247600000000000000009999123100000010000000000000BRAUREACNOR9104
012024040502AZEV3       010AZEVEDO     ON           R$  000000000015700000000001640000000000141000000000015000000000001510000000000150000000000015100936000000000000974600000000000146717700000000000000009999123100000010000000000000BRAZEVACNOR0121
012024040502AZEV4       010AZEVEDO     PN           R$  000000000013800000000001410000000000118000000000012600000000001230000000000123000000000012403901000000000008525000000000001075016600000000000000009999123100000010000000000000BRAZEVACNPR7121
012024040502AZUL4       010AZUL        PN      N2   R$  000000000130000000000013200000000001284000000000129500000000012960000000001296000000000129709241000000000006588000000000008533625600000000000000009999123100000010000000000000BRAZULACNPR4102
012024040502IRBR3       010IRBBRASIL REON      NM   R$  000000000392000000000042690000000003914000000000414200000000042350000000004233000000000423522151000000000007724800000000032003636900000000000000009999123100000010000000000000BRIRBRACNOR4111
012024040502LUPA3       010LUPATECH    ON      NM   R$  000000000018000000000001840000000000175000000000017700000000001770000000000176000000000017700424000000000000273700000000000048535000000000000000009999123100000010000000000000BRLUPAACNOR8112
012024040502LVTC3       010WDC NETWORKSON      NM   R$  000000000037600000000003850000000000375000000000037600000000003800000000000375000000000038100057000000000000016500000000000006209900000000000000009999123100000010000000000000BRLVTCACNOR4102
012024040502LWSA3       010LWSA        ON      NM   R$  000000000052100000000005350000000000521000000000052800000000005270000000000527000000000052807853000000000005276500000000002790268600000000000000009999123100000010000000000000BRLWSAACNOR8103
012024040502PDGR3       010PDG REALT   ON      NM   R$  000000000003100000000000310000000000030000000000003000000000000300000000000030000000000003100189000000000000635400000000000019202200000000000000009999123100000010000000000000BRPDGRACNOR8118
012024040502PDTC3       010PADTEC      ON      NM   R$  000000000025600000000002590000000000252000000000025300000000002530000000000252000000000025400082000000000000045200000000000011450500000000000000009999123100000010000000000000BRPDTCACNOR3100
012024040502PETR3       010PETROBRAS   ON      N2   R$  000000000390200000000039500000000003814000000000388700000000039040000000003903000000000390624795000000000014912200000000057966751700000000000000009999123100000010000000000000BRPETRACNOR9202
012024040502PETR4       010PETROBRAS   PN      N2   R$  000000000379000000000038570000000003717000000000379000000000038100000000003810000000000381589074000000000065460400000000248099651000000000000000009999123100000010000000000000BRPETRACNPR6210
012024040502JHSF3       010JHSF PART   ON  ED  NM   R$  000000000047500000000004770000000000461000000000046600000000004690000000000467000000000046902063000000000001322100000000000616596900000000000000009999123100000010000000000000BRJHSFACNOR2134
012024040502JSLG3       010JSL         ON      NM   R$  000000000126200000000013250000000001262000000000130600000000013180000000001318000000000132002747000000000000816100000000001066233900000000000000009999123100000010000000000000BRJSLGACNOR2121
012024040502KEPL3       010KEPLER WEBERON  ED  NM   R$  000000000103500000000010470000000001022000000000103000000000010300000000001029000000000103202552000000000003229100000000003328302300000000000000009999123100000010000000000000BRKEPLACNOR1062
012024040507NUTR3       010NUTRIPLANT  ON      MA   R$  000000000051000000000005110000000000489000000000049900000000005100000000000497000000000051000036000000000000007000000000000003496300000000000000009999123100000010000000000000BRNUTRACNOR0104
012024040507TXRX3       010TEX RENAUX  ON           R$  000000000083000000000008300000000000830000000000083000000000008300000000000200000000000109900001000000000000000100000000000000083000000000000000009999123100000010000000000000BRTXRXACNOR3142
012024040508BDLL4       010BARDELLA    PN           R$  000000000071000000000007100000000000690000000000070100000000007000000000000700000000000078800010000000000000002000000000000001402300000000000000009999123100000010000000000000BRBDLLACNPR8151
012024040508LIGT3       010LIGHT S/A   ON      NM   R$  000000000057500000000005820000000000525000000000055100000000005250000000000525000000000052604971000000000001441400000000000794755500000000000000009999123100000010000000000000BRLIGTACNOR2124
012024040508OIBR3       010OI          ON      N1   R$  000000000006800000000000710000000000062000000000006500000000000630000000000063000000000006402611000000000014912400000000000976090200000000000000009999123100000010000000000000BROIBRACNOR1110
012024040508OIBR4       010OI          PN      N1   R$  000000000018800000000001970000000000186000000000018900000000001860000000000186000000000018700101000000000000094300000000000017869400000000000000009999123100000010000000000000BROIBRACNPR8109
012024040508OSXB3       010OSX BRASIL  ON      NM   R$  000000000041400000000004140000000000409000000000041000000000004130000000000410000000000041300009000000000000002000000000000000820700000000000000009999123100000010000000000000BROSXBACNOR8109
012024040508ATMP3       010ATMASA      ON           R$  000000000020800000000002090000000000190000000000019100000000001990000000000190000000000019900117000000000000090500000000000017352400000000000000009999123100000010000000000000BRATMPACNOR8100
012024040508NEXP3       010NEXPE       ON      NM   R$  000000000047100000000004720000000000454000000000046700000000004540000000000452000000000046700008000000000000001000000000000000467000000000000000009999123100000010000000000000BRNEXPACNOR0101
012024040508AMER3       010AMERICANAS  ON      NM   R$  000000000005800000000000580000000000056000000000005600000000000560000000000056000000000005703410000000000014456800000000000823115100000000000000009999123100000010000000000000BRAMERACNOR6101
012024040508FRTA3       010POMIFRUTAS  ON      NM   R$  000000000013100000000001350000000000131000000000013300000000001350000000000132000000000013500002000000000000000200000000000000026600000000000000009999123100000010000000000000BRFRTAACNOR8103
012024040508HOOT4       010HOTEIS OTHONPN           R$  000000000028000000000002800000000000280000000000028000000000002800000000000279000000000028500001000000000000000100000000000000028000000000000000009999123100000010000000000000BRHOOTACNPR9015
012024040508JFEN3       010JOAO FORTES ON           R$  000000000019800000000001980000000000176000000000018100000000001760000000000176000000000018300058000000000000030600000000000005561400000000000000009999123100000010000000000000BRJFENACNOR0058
012024040508RNEW11      010RENOVA      UNT     N2   R$  000000000034900000000003490000000000340000000000034100000000003450000000000340000000000034500011000000000000004600000000000001569800000000000000009999123100000010000000000000BRRNEWCDAM15110
012024040508RNEW3       010RENOVA      ON      N2   R$  000000000011600000000001170000000000113000000000011400000000001160000000000115000000000011600040000000000000013100000000000001504900000000000000009999123100000010000000000000BRRNEWACNOR8110
012024040508RNEW4       010RENOVA      PN      N2   R$  000000000011500000000001170000000000114000000000011500000000001150000000000114000000000011500068000000000000027800000000000003199700000000000000009999123100000010000000000000BRRNEWACNPR5110
012024040508RPMG3       010PET MANGUINHON           R$  000000000020500000000002080000000000205000000000020700000000002070000000000206000000000020800008000000000000001700000000000000352700000000000000009999123100000010000000000000BRRPMGACNOR9194
012024040508PMAM3       010PARANAPANEMAON      NM   R$  000000000032700000000003310000000000321000000000032400000000003210000000000320000000000032100183000000000000061000000000000019778700000000000000009999123100000010000000000000BRPMAMACNOR3038
012024040508RSID3       010ROSSI RESID ON      NM   R$  000000000038000000000003870000000000374000000000037900000000003830000000000378000000000038400052000000000000010400000000000003945800000000000000009999123100000010000000000000BRRSIDACNOR8120
012024040508ETER3       010ETERNIT     ON      NM   R$  000000000073100000000007310000000000721000000000072500000000007310000000000727000000000073100266000000000000059100000000000042888700000000000000009999123100000010000000000000BRETERACNOR3243
012024040510ABCB10      010ABC BRASIL  PN  REC N2   R$  000000000241000000000024320000000002410000000000242700000000024320000000002432000000000244200004000000000000000500000000000001213800000000000000009999123100000010000000000000BRABCBR19PR1144
012024040510DMFN1       010DMFINANCEIRADIR ORD      R$  000000000002400000000000560000000000014000000000003100000000000140000000000014000000000005300060000000000000016600000000000000527400000000000000009999123100000010000000000000BRDMFND01OR1101
012024040510GFSA1       010GAFISA      DIR ORD NM   R$  000000000000200000000000030000000000001000000000000200000000000020000000000001000000000000200212000000000003505700000000000007079200000000000000009999123100000010000000000000BRGFSAD10OR9123
012024040512BCRI11      010FII BEES CRICI  ER       R$  000000000723700000000072600000000007190000000000720200000000072100000000007210000000000721400811000000000000008963000000000064554268000000000000009999123100000010000000000000BRBCRICTF009213
012024040512BPFF11      010FII ABSOLUTOCI  ER       R$  000000000723600000000073430000000007222000000000728100000000073220000000007246000000000732200887000000000000005306000000000038637100000000000000009999123100000010000000000000BRBPFFCTF002234
012024040512BPML11      010FII BTG SHOPCI           R$  000000000960000000000105000000000009600000000001000800000000099750000000009905000000000997500297000000000000000902000000000009027953000000000000009999123100000010000000000000BRBPMLCTF006128
012024040512NVHO11      010FII NOVOHORICI  ER       R$  000000000117500000000011750000000001126000000000115700000000011260000000001126000000000117100022000000000000000236000000000000273144000000000000009999123100000010000000000000BRNVHOCTF003226
012024040512OUFF11      010FII OURI FOFCI           R$  000000000659600000000065970000000006580000000000658600000000065950000000006590000000000659600486000000000000003172000000000020892237000000000000009999123100000010000000000000BROUFFCTF005157
012024040512OUJP11      010FII OURI JPPCI  ER       R$  000000000963500000000096800000000009600000000000965600000000096730000000009604000000000967402447000000000000004469000000000043152802000000000000009999123100000010000000000000BROUJPCTF006185
012024040512OULG11      010FII OURILOG CI           R$  000000000284800000000028580000000002819000000000284600000000028580000000002831000000000285800162000000000000002292000000000006524680000000000000009999123100000010000000000000BROULGCTF001153
012024040512OURE11      010FII OU RENDACI           R$  000000000740000000000074650000000007359000000000742000000000074630000000007450000000000746200252000000000000009328000000000069213958000000000000009999123100000010000000000000BROURECTF003140
012024040512PATC11      010FII PATRIA  CI  ER       R$  000000000369100000000037140000000003651000000000368500000000037140000000003681000000000371400168000000000000002745000000000010117627000000000000009999123100000010000000000000BRPATCCTF002168
012024040512PATL11      010FII PATR LOGCI  ER       R$  000000000683600000000068960000000006790000000000683300000000067970000000006797000000000683402670000000000000007507000000000051296324000000000000009999123100000010000000000000BRPATLCTF003144
012024040512APTO11      010FII NAVI RSDCI  ER       R$  000000000097200000000009800000000000965000000000097000000000009670000000000967000000000097000221000000000000001786000000000001732775000000000000009999123100000010000000000000BRAPTOCTF007129
012024040512AROA11      010FII AROA    CI  ER       R$  000000000010100000000001010000000000099000000000010000000000001010000000000100000000000010100172000000000000015879000000000001600791000000000000009999123100000010000000000000BRAROACTF003116
012024040512ARRI11      010FII ATRIO   CI  ER       R$  000000000092000000000009200000000000913000000000091600000000009170000000000917000000000091800851000000000000032722000000000029987591000000000000009999123100000010000000000000BRARRICTF009158
012024040512ARXD11      010FII ARXD R  CI  ER       R$  000000000937700000000095580000000009377000000000944600000000095580000000009330000000001025000007000000000000000595000000000005620780000000000000009999123100000010000000000000BRARXDCTF008113
012024040512ASMT11      010FII ASA MET CI           R$  000000000528100000000052810000000005281000000000528100000000052810000000005021000000000528000003000000000000000023000000000000121463000000000000009999123100000010000000000000BRASMTCTF005107
012024040512BBFI11B     010FII BB PROGRCI  ER  MB   R$  000000012501100000001264750000000125011000000012579800000001257170000000125717000000012640000031000000000000000095000000000011950859000000000000009999123100000010000000000000BRBBFICTF006325
012024040512BBFO11      010FII BB FOF  CI  ER       R$  000000000747800000000075300000000007447000000000748900000000075050000000007500000000000750500196000000000000025830000000000193452183000000000000009999123100000010000000000000BRBBFOCTF004139
012024040512BBRC11      010FII BB CORP CI  ER       R$  000000001138000000000114000000000011339000000001137900000000113930000000011355000000001139400094000000000000000595000000000006770710000000000000009999123100000010000000000000BRBBRCCTF004251
012024040512IBCR11      010FII BREI    CI           R$  000000000789900000000079300000000007899000000000790700000000079190000000007905000000000793200050000000000000000559000000000004420554000000000000009999123100000010000000000000BRIBCRCTF009134
012024040512ICRI11      010FII CI IPCA CI  ER       R$  000000000966600000000096960000000009666000000000968600000000096960000000009680000000000969600067000000000000001848000000000017900026000000000000009999123100000010000000000000BRICRICTF004102
012024040512IDFI11      010FII UNIDADESCI  ERA      R$  000000000146000000000015360000000001459000000000146900000000014720000000001451000000000147200038000000000000001140000000000001675192000000000000009999123100000010000000000000BRIDFICTF007130
012024040512IDGR11      010FII UNID II CI  ERA      R$  000000000129400000000012940000000001294000000000129400000000012940000000000750000000000129400005000000000000000029000000000000037526000000000000009999123100000010000000000000BRIDGRCTF006125
012024040512ABCP11      010FII ABC IMOBCI  ER       R$  000000000757700000000075770000000007505000000000756700000000075660000000007566000000000757700124000000000000000814000000000006159545000000000000009999123100000010000000000000BRABCPCTF000337
012024040512CEOC11      010FII CEO CCP CI           R$  000000000463100000000046640000000004599000000000463700000000046170000000004600000000000464400104000000000000000711000000000003297473000000000000009999123100000010000000000000BRCEOCCTF003212
012024040512BLCA11      010FII BLUE AAACI           R$  000000001100200000000114800000000010900000000001091000000000109000000000010900000000001112400053000000000000004803000000000052402014000000000000009999123100000010000000000000BRBLCACTF009128
012024040512BLMG11      010FII BLUE LOGCI           R$  000000000396200000000039700000000003955000000000396600000000039700000000003966000000000397000340000000000000006839000000000027127933000000000000009999123100000010000000000000BRBLMGCTF005144
012024040512BLMO11      010FII BLUEMAC CI  ER       R$  000000000860800000000087500000000008608000000000862800000000087500000000008608000000000895500004000000000000000007000000000000060398000000000000009999123100000010000000000000BRBLMOCTF009129
012024040512BTHI11      010BTG HOTEL FICI  ER       R$  000000000434100000000044590000000004279000000000437900000000044590000000004453000000000445500038000000000000000387000000000001694742000000000000009999123100000010000000000000BRBTHICTF004107
012024040512BTLG11      010FII BTLG    CI           R$  000000001069700000000107140000000010640000000001066700000000107140000000010700000000001071410224000000000000069646000000000742974326000000000000009999123100000010000000000000BRBTLGCTF000160
012024040512BTRA11      010FII BTG TAGRCI           R$  000000000578100000000058820000000005719000000000583200000000057190000000005719000000000577501001000000000000010393000000000060616904000000000000009999123100000010000000000000BRBTRACTF000134
012024040512BICR11      010FII INTER   CI  ER       R$  000000000529900000000052990000000005299000000000529900000000052990000000004904000000000530000001000000000000000001000000000000005299000000000000009999123100000010000000000000BRBICRCTF009150
012024040512BIME11      010FII BRIO ME CI  ER       R$  000000000072600000000007290000000000720000000000072500000000007290000000000728000000000072900310000000000000017422000000000012640027000000000000009999123100000010000000000000BRBIMECTF006130
012024040512BROF11      010FII BROF    CI           R$  000000000589900000000061020000000005817000000000593200000000061020000000005879000000000610201300000000000000006354000000000037695328000000000000009999123100000010000000000000BRBROFCTF000111
012024040512BTAL11      010FII BTG AGROCI           R$  000000000698500000000070360000000006972000000000699400000000070010000000007001000000000702203170000000000000013061000000000091356938000000000000009999123100000010000000000000BRBTALCTF003137
012024040512BTCI11      010FII BTG CRI CI           R$  000000000103500000000010400000000001026000000000103400000000010390000000001038000000000103911338000000000000234460000000000242555274000000000000009999123100000010000000000000BRBTCICTF005117
012024040512CXAG11      010FII CAIXA AGCI  ER       R$  000000000792000000000079520000000007917000000000792700000000079340000000007923000000000793400108000000000000000822000000000006516416000000000000009999123100000010000000000000BRCXAGCTF003126
