00COTAHIST.2024BOVESPA 20240328                                                                                                                                                                                                                      
012024032802NGRD3       010NEOGRID     ON      NM   R$  000000000010700000000001090000000000106000000000010700000000001060000000000106000000000010800474000000000000401900000000000043242800000000000000009999123100000010000000000000BRNGRDACNOR3103
012024032802NINJ3       010GETNINJAS   ON      NM   R$  000000000051000000000005150000000000510000000000051300000000005150000000000512000000000051500027000000000000008500000000000004366400000000000000009999123100000010000000000000BRNINJACNOR5101
012024032802NORD3       010NORDON MET  ON           R$  000000000091100000000009110000000000911000000000091100000000009110000000000731000000000092000002000000000000000200000000000000182200000000000000009999123100000010000000000000BRNORDACNOR7135
012024032802NTCO3       010GRUPO NATURAON  ED  NM   R$  000000000180300000000018210000000001764000000000179100000000017880000000001782000000000178817443000000000007900600000000014154324200000000000000009999123100000010000000000000BRNTCOACNOR5105
012024032802RADL3       010RAIADROGASILON      NM   R$  000000000272600000000027720000000002726000000000274500000000027370000000002737000000000273913749000000000005482100000000015049270000000000000000009999123100000010000000000000BRRADLACNOR0154
012024032802RAIL3       010RUMO S.A.   ON      NM   R$  000000000226900000000022690000000002213000000000224000000000022260000000002220000000000222632410000000000014880300000000033332156300000000000000009999123100000010000000000000BRRAILACNOR9104
012024032802SOND5       010SONDOTECNICAPNA          R$  000000000540000000000054000000000005400000000000540000000000054000000000005213000000000540000001000000000000000100000000000000540000000000000000009999123100000010000000000000BRSONDACNPA8165
012024032802SRNA3       010SERENA      ON      NM   R$  000000000094600000000009690000000000915000000000094500000000009410000000000940000000000094112375000000000005563200000000005259658900000000000000009999123100000010000000000000BRSRNAACNOR4100
012024032802STBP3       010SANTOS BRP  ON  ED  NM   R$  000000000136900000000013710000000001307000000000132500000000013320000000001330000000000133321856000000000008296300000000010998545100000000000000009999123100000010000000000000BRSTBPACNOR3129
012024032802SUZB3       010SUZANO S.A. ON      NM   R$  000000000637900000000064080000000006328000000000638100000000063980000000006397000000000639816598000000000004550100000000029037622500000000000000009999123100000010000000000000BRSUZBACNOR0129
012024032802VAMO3       010VAMOS       ON      NM   R$  000000000082300000000008420000000000811000000000083000000000008350000000000833000000000083509582000000000004508600000000003743351200000000000000009999123100000010000000000000BRVAMOACNOR7105
012024032802PRNR3       010PRINER      ON      NM   R$  000000000121300000000012380000000001194000000000121600000000012270000000001213000000000122701986000000000000617400000000000750771500000000000000009999123100000010000000000000BRPRNRACNOR4108
012024032802PSSA3       010PORTO SEGUROON      NM   R$  000000000315200000000031630000000003121000000000313700000000031280000000003123000000000312805360000000000001027600000000003224367200000000000000009999123100000010000000000000BRPSSAACNOR7153
012024032802SMFT3       010SMART FIT   ON      NM   R$  000000000262600000000026420000000002583000000000260500000000026000000000002591000000000260412647000000000004442900000000011574014100000000000000009999123100000010000000000000BRSMFTACNOR1111
012024032802SMTO3       010SAO MARTINHOON      NM   R$  000000000299600000000031140000000002940000000000307200000000031030000000003100000000000310408656000000000002233500000000006863352200000000000000009999123100000010000000000000BRSMTOACNOR3125
012024032802SNSY3       010SANSUY      ON           R$  000000000098500000000010250000000000985000000000101700000000010200000000000985000000000103500011000000000000001700000000000001730100000000000000009999123100000010000000000000BRSNSYACNOR2113
012024032802SNSY5       010SANSUY      PNA          R$  000000000064900000000006690000000000625000000000065300000000006560000000000650000000000065600041000000000000008400000000000005493100000000000000009999123100000010000000000000BRSNSYACNPA5111
012024032802SOJA3       010BOA SAFRA   ON      NM   R$  000000000173000000000018560000000001711000000000179400000000018300000000001829000000000183002666000000000000614900000000001103462100000000000000009999123100000010000000000000BRSOJAACNOR9105
012024032802SOMA3       010GRUPO SOMA  ON      NM   R$  000000000074900000000007740000000000746000000000076200000000007610000000000760000000000076117953000000000012774400000000009744522900000000000000009999123100000010000000000000BRSOMAACNOR3102
012024032802POMO4       010MARCOPOLO   PN      N2   R$  000000000076100000000007630000000000746000000000075300000000007540000000000753000000000075408072000000000005357400000000004036597600000000000000009999123100000010000000000000BRPOMOACNPR7097
012024032802PORT3       010WILSON SONS ON      NM   R$  000000000179600000000018120000000001783000000000179000000000017890000000001789000000000179503014000000000001343300000000002405318000000000000000009999123100000010000000000000BRPORTACNOR8106
012024032802POSI3       010POSITIVO TECON      NM   R$  000000000092500000000010100000000000921000000000097800000000010020000000001001000000000100206171000000000002645100000000002589511500000000000000009999123100000010000000000000BRPOSIACNOR9115
012024032802PRIO3       010PETRORIO    ON      NM   R$  000000000476200000000049090000000004752000000000484500000000048740000000004870000000000487521082000000000008633400000000041829531100000000000000009999123100000010000000000000BRPRIOACNOR1106
012024032802SCAR3       010SAO CARLOS  ON      NM   R$  000000000269900000000027900000000002661000000000273700000000027460000000002587000000000274700032000000000000008400000000000022998500000000000000009999123100000010000000000000BRSCARACNOR7130
012024032802SEER3       010SER EDUCA   ON      NM   R$  000000000063500000000006890000000000626000000000066300000000006730000000000661000000000067301851000000000000930100000000000617182200000000000000009999123100000010000000000000BRSEERACNOR5119
012024032802SEQL3       010SEQUOIA LOG ON      NM   R$  000000000003900000000000410000000000039000000000004000000000000410000000000040000000000004101846000000000005857300000000000235833300000000000000009999123100000010000000000000BRSEQLACNOR2101
012024032802SGPS3       010SPRINGS     ON      NM   R$  000000000008000000000000820000000000077000000000007800000000000810000000000080000000000008100144000000000000163000000000000012843200000000000000009999123100000010000000000000BRSGPSACNOR4104
012024032802SHOW3       010TIME FOR FUNON      NM   R$  000000000028100000000002930000000000279000000000028600000000002900000000000288000000000029000732000000000000533700000000000153170100000000000000009999123100000010000000000000BRSHOWACNOR7105
012024032802SHUL4       010SCHULZ      PN  EJ       R$  000000000066400000000006730000000000661000000000066800000000006720000000000672000000000067300696000000000000274000000000000183279500000000000000009999123100000010000000000000BRSHULACNPR4155
012024032802SIMH3       010SIMPAR      ON      NM   R$  000000000071600000000007570000000000706000000000073500000000007430000000000742000000000074511836000000000007255000000000005334565000000000000000009999123100000010000000000000BRSIMHACNOR0107
012024032802SLCE3       010SLC AGRICOLAON      NM   R$  000000000197300000000020150000000001950000000000198000000000019780000000001973000000000197808303000000000002838700000000005622925500000000000000009999123100000010000000000000BRSLCEACNOR2124
012024032802PFRM3       010PROFARMA    ON      NM   R$  000000000056400000000005790000000000554000000000055900000000005790000000000560000000000057900432000000000000488900000000000273527700000000000000009999123100000010000000000000BRPFRMACNOR1116
012024032802PGMN3       010PAGUE MENOS ON      NM   R$  000000000027000000000002750000000000270000000000027200000000002710000000000271000000000027201637000000000000527000000000000143517700000000000000009999123100000010000000000000BRPGMNACNOR8103
012024032802PINE3       010PINE        ON      N2   R$  000000000078600000000008450000000000776000000000081100000000008400000000000780000000000084000016000000000000002400000000000001948400000000000000009999123100000010000000000000BRPINEACNOR1148
012024032802PINE4       010PINE        PN      N2   R$  000000000046800000000004760000000000464000000000046900000000004640000000000464000000000046700545000000000000261500000000000122795900000000000000009999123100000010000000000000BRPINEACNPR8148
012024032802PLAS3       010PLASCAR PARTON           R$  000000000089400000000009500000000000894000000000090200000000009500000000000900000000000101900008000000000000002300000000000002075600000000000000009999123100000010000000000000BRPLASACNOR2106
012024032802PLPL3       010PLANOEPLANO ON      NM   R$  000000000138400000000014260000000001362000000000140000000000014000000000001384000000000140003666000000000000985300000000001379938700000000000000009999123100000010000000000000BRPLPLACNOR5104
012024032802PNVL3       010DIMED       ON      NM   R$  000000000121300000000012230000000001203000000000121100000000012090000000001208000000000121501155000000000000286000000000000346379300000000000000009999123100000010000000000000BRPNVLACNOR9205
012024032802POMO3       010MARCOPOLO   ON      N2   R$  000000000058800000000005880000000000578000000000058400000000005860000000000584000000000058600536000000000000274900000000000160676100000000000000009999123100000010000000000000BRPOMOACNOR0097
012024032802SANB11      010SANTANDER BRUNT          R$  000000000283000000000028700000000002824000000000285300000000028520000000002851000000000285506894000000000001751300000000004997779600000000000000009999123100000010000000000000BRSANBCDAM13163
012024032802SANB3       010SANTANDER BRON           R$  000000000133100000000013510000000001329000000000133400000000013370000000001335000000000133700810000000000000358800000000000478973600000000000000009999123100000010000000000000BRSANBACNOR8170
012024032802SANB4       010SANTANDER BRPN           R$  000000000149300000000015190000000001493000000000149800000000015030000000001503000000000150600930000000000000397500000000000595665600000000000000009999123100000010000000000000BRSANBACNPR5170
012024032802SAPR11      010SANEPAR     UNT     N2   R$  000000000261100000000026370000000002580000000000260000000000026030000000002602000000000260304223000000000000873700000000002272414700000000000000009999123100000010000000000000BRSAPRCDAM13117
012024032802SAPR3       010SANEPAR     ON      N2   R$  000000000050700000000005080000000000500000000000050300000000005040000000000503000000000050400492000000000000194400000000000097902100000000000000009999123100000010000000000000BRSAPRACNOR9158
012024032802SAPR4       010SANEPAR     PN      N2   R$  000000000052700000000005300000000000520000000000052300000000005250000000000522000000000052501798000000000001231500000000000645068700000000000000009999123100000010000000000000BRSAPRACNPR6158
012024032802SBFG3       010GRUPO SBF   ON      NM   R$  000000000127100000000013110000000001261000000000129100000000012950000000001293000000000129607263000000000001976100000000002551845800000000000000009999123100000010000000000000BRSBFGACNOR1102
012024032802SBSP3       010SABESP      ON      NM   R$  000000000835400000000085630000000008345000000000848400000000084700000000008470000000000847116334000000000004270900000000036237645700000000000000009999123100000010000000000000BRSBSPACNOR5160
012024032802PETZ3       010PETZ        ON      NM   R$  000000000044600000000004500000000000425000000000043700000000004350000000000435000000000043612585000000000017416100000000007622443100000000000000009999123100000010000000000000BRPETZACNOR2109
012024032802RSUL4       010RIOSULENSE  PN           R$  000000000808700000000080870000000007850000000000796200000000080000000000007800000000000808700016000000000000001700000000000013535900000000000000009999123100000010000000000000BRRSULACNPR3113
012024032802VITT3       010VITTIA      ON      NM   R$  000000000069100000000007000000000000680000000000068900000000006830000000000683000000000068401960000000000000498200000000000343619200000000000000009999123100000010000000000000BRVITTACNOR4106
012024032802VIVA3       010VIVARA S.A. ON      NM   R$  000000000256500000000025960000000002504000000000254300000000025400000000002538000000000254611767000000000003785800000000009628896000000000000000009999123100000010000000000000BRVIVAACNOR0106
012024032802VIVR3       010VIVER       ON      NM   R$  000000000031500000000003300000000000311000000000031900000000003200000000000316000000000032000236000000000000142600000000000045520800000000000000009999123100000010000000000000BRVIVRACNOR4122
012024032802VIVT3       010TELEF BRASILON           R$  000000000505000000000050670000000005001000000000503900000000050600000000005051000000000506006156000000000002209300000000011133129200000000000000009999123100000010000000000000BRVIVTACNOR0178
012024032802VLID3       010VALID       ON      NM   R$  000000000181900000000018840000000001811000000000185400000000018490000000001835000000000185001754000000000000397300000000000736913600000000000000009999123100000010000000000000BRVLIDACNOR5141
012024032802AERI3       010AERIS       ON      NM   R$  000000000005500000000000560000000000055000000000005500000000000560000000000055000000000005602507000000000001745800000000000096774600000000000000009999123100000010000000000000BRAERIACNOR4101
012024032802AESB3       010AES BRASIL  ON      NM   R$  000000000102000000000010260000000001015000000000101900000000010200000000001020000000000102104796000000000001091300000000001112115400000000000000009999123100000010000000000000BRAESBACNOR7105
012024032802AFLT3       010AFLUENTE T  ON           R$  000000000072000000000007200000000000720000000000072000000000007200000000000716000000000072600007000000000000003300000000000002376000000000000000009999123100000010000000000000BRAFLTACNOR1120
012024032802AGRO3       010BRASILAGRO  ON      NM   R$  000000000248800000000025010000000002454000000000247300000000024560000000002455000000000245801501000000000000287400000000000710823400000000000000009999123100000010000000000000BRAGROACNOR7114
012024032802AGXY3       010AGROGALAXY  ON      NM   R$  000000000020500000000002690000000000205000000000023600000000002150000000000215000000000021603310000000000002461600000000000582268500000000000000009999123100000010000000000000BRAGXYACNOR4102
012024032802ALLD3       010ALLIED      ON      NM   R$  000000000094900000000009690000000000948000000000096000000000009580000000000955000000000095800412000000000000151000000000000145046300000000000000009999123100000010000000000000BRALLDACNOR3105
012024032802ALOS3       010ALLOS       ON      NM   R$  000000000239100000000024200000000002390000000000239600000000023920000000002392000000000239607555000000000002894900000000006938962000000000000000009999123100000010000000000000BRALOSACNOR5100
012024032802BAHI3       010BAHEMA      ON      MA   R$  000000000089900000000009390000000000890000000000090900000000009390000000000929000000000093900021000000000000012300000000000011186000000000000000009999123100000010000000000000BRBAHIACNOR1074
012024032802BALM3       010BAUMER      ON           R$  000000000106000000000010600000000001060000000000106000000000010600000000001050000000000119000003000000000000000300000000000000318000000000000000009999123100000010000000000000BRBALMACNOR5055
012024032802BBDC3       010BRADESCO    ON      N1   R$  000000000128000000000012870000000001269000000000127600000000012740000000001274000000000127506584000000000004942100000000006309349100000000000000009999123100000010000000000000BRBBDCACNOR1767
012024032802BBDC4       010BRADESCO    PN      N1   R$  000000000143600000000014480000000001422000000000143100000000014260000000001425000000000142724311000000000025925000000000037108014400000000000000009999123100000010000000000000BRBBDCACNPR8767
012024032802CLSA3       010CLEARSALE   ON      NM   R$  000000000050900000000005200000000000490000000000050800000000005190000000000515000000000051902511000000000000851500000000000433225000000000000000009999123100000010000000000000BRCLSAACNOR0100
012024032802CLSC3       010CELESC      ON  EJ  N2   R$  000000000649000000000065000000000006490000000000649500000000065000000000006201000000000650000002000000000000000200000000000001299000000000000000009999123100000010000000000000BRCLSCACNOR6150
012024032802CLSC4       010CELESC      PN  EJ  N2   R$  000000000663100000000067740000000006631000000000669800000000067740000000006702000000000677400014000000000000002100000000000014066400000000000000009999123100000010000000000000BRCLSCACNPR3129
012024032802CMIG3       010CEMIG       ON  EJ  N1   R$  000000000144000000000014600000000001438000000000145100000000014600000000001453000000000146001245000000000000273300000000000396605300000000000000009999123100000010000000000000BRCMIGACNOR6240
012024032802CMIG4       010CEMIG       PN  EJ  N1   R$  000000000126200000000012830000000001252000000000126500000000012560000000001255000000000125918417000000000012677700000000016049343600000000000000009999123100000010000000000000BRCMIGACNPR3241
012024032802EGIE3       010ENGIE BRASILON      NM   R$  000000000402000000000040310000000004000000000000401300000000040260000000004022000000000402605687000000000001445100000000005800610200000000000000009999123100000010000000000000BREGIEACNOR9125
012024032802EKTR4       010ELEKTRO     PN  EJ       R$  000000000441000000000047000000000004410000000000452900000000047000000000004620000000000475000011000000000000001200000000000005435800000000000000009999123100000010000000000000BREKTRACNPR7160
012024032802ELET3       010ELETROBRAS  ON      N1   R$  000000000415800000000042070000000004126000000000416500000000041700000000004169000000000417220210000000000008287600000000034525281400000000000000009999123100000010000000000000BRELETACNOR6159
012024032802ELET6       010ELETROBRAS  PNB     N1   R$  000000000467200000000047000000000004612000000000465600000000046630000000004662000000000466307193000000000001541700000000007179051500000000000000009999123100000010000000000000BRELETACNPB7076
012024032802HBOR3       010HELBOR      ON      NM   R$  000000000029700000000003100000000000292000000000030200000000003000000000000299000000000030000814000000000001214200000000000367185000000000000000009999123100000010000000000000BRHBORACNOR3117
012024032802HBRE3       010HBR REALTY  ON      NM   R$  000000000064100000000006620000000000633000000000064300000000006350000000000635000000000063701285000000000000739800000000000476137100000000000000009999123100000010000000000000BRHBREACNOR4100
012024032802HBSA3       010HIDROVIAS   ON      NM   R$  000000000042000000000004310000000000420000000000042700000000004290000000000428000000000042903732000000000003006000000000001284524800000000000000009999123100000010000000000000BRHBSAACNOR0100
012024032802HBTS5       010HABITASUL   PNA          R$  000000000428900000000042900000000004289000000000428900000000042900000000003513000000000439000003000000000000000300000000000001286900000000000000009999123100000010000000000000BRHBTSACNPA3127
012024032802NEOE3       010NEOENERGIA  ON      NM   R$  000000000203500000000020430000000002015000000000202800000000020350000000002035000000000204402781000000000000765000000000001552123000000000000000009999123100000010000000000000BRNEOEACNOR3121
012024032802HYPE3       010HYPERA      ON  EJ  NM   R$  000000000333300000000033450000000003239000000000327400000000032930000000003289000000000329411479000000000003567600000000011681178400000000000000009999123100000010000000000000BRHYPEACNOR0139
012024032802JSLG3       010JSL         ON      NM   R$  000000000117700000000012700000000001140000000000120600000000012440000000001244000000000126004923000000000001346100000000001624366000000000000000009999123100000010000000000000BRJSLGACNOR2121
012024032802HAGA3       010HAGA S/A    ON           R$  000000000025800000000002580000000000257000000000025700000000002570000000000258000000000026300003000000000000000900000000000000231400000000000000009999123100000010000000000000BRHAGAACNOR7103
012024032802HAGA4       010HAGA S/A    PN           R$  000000000012000000000001210000000000118000000000011900000000001180000000000117000000000011900006000000000000003300000000000000395800000000000000009999123100000010000000000000BRHAGAACNPR4103
012024032802HAPV3       010HAPVIDA     ON      NM   R$  000000000037100000000003810000000000365000000000037000000000003700000000000369000000000037132649000000000086290600000000031972167300000000000000009999123100000010000000000000BRHAPVACNOR4113
012024032802JHSF3       010JHSF PART   ON      NM   R$  000000000044900000000004900000000000446000000000046800000000004880000000000487000000000048806649000000000007454800000000003490008800000000000000009999123100000010000000000000BRJHSFACNOR2133
012024032802MTRE3       010MITRE REALTYON      NM   R$  000000000050600000000005170000000000502000000000051000000000005100000000000510000000000051103106000000000000974500000000000497518200000000000000009999123100000010000000000000BRMTREACNOR6109
012024032802MTSA4       010METISA      PN           R$  000000000500000000000051000000000005000000000000507200000000051000000000004806000000000510000029000000000000004300000000000021812100000000000000009999123100000010000000000000BRMTSAACNPR9071
012024032802MULT3       010MULTIPLAN   ON      N2   R$  000000000257700000000025950000000002557000000000257000000000025590000000002558000000000256011662000000000002306300000000005927455000000000000000009999123100000010000000000000BRMULTACNOR5137
012024032802MYPK3       010IOCHP-MAXIONON      NM   R$  000000000142500000000014470000000001419000000000143900000000014470000000001438000000000144702741000000000001232000000000001773950400000000000000009999123100000010000000000000BRMYPKACNOR7154
012024032802BIOM3       010BIOMM       ON      MA   R$  000000000091200000000010200000000000863000000000093700000000010200000000000950000000000102000228000000000000063700000000000059731700000000000000009999123100000010000000000000BRBIOMACNOR2112
012024032802AALR3       010ALLIAR      ON      NM   R$  000000000090000000000009170000000000883000000000089900000000009170000000000913000000000091800928000000000000272400000000000244896000000000000000009999123100000010000000000000BRAALRACNOR6102
012024032802ABCB4       010ABC BRASIL  PN      N2   R$  000000000249500000000024950000000002423000000000243700000000024230000000002423000000000242702114000000000000680600000000001658672100000000000000009999123100000010000000000000BRABCBACNPR4145
012024032802ABEV3       010AMBEV S/A   ON           R$  000000000123800000000012550000000001236000000000124900000000012490000000001248000000000125035501000000000044405600000000055469325300000000000000009999123100000010000000000000BRABEVACNOR1127
012024032802ASAI3       010ASSAI       ON      NM   R$  000000000149100000000015200000000001471000000000149000000000014710000000001471000000000147415092000000000007122000000000010617684900000000000000009999123100000010000000000000BRASAIACNOR0106
012024032802ATOM3       010ATOMPAR     ON           R$  000000000020000000000002040000000000195000000000019800000000002040000000000204000000000020500035000000000000010900000000000002168100000000000000009999123100000010000000000000BRATOMACNOR1106
012024032802AURE3       010AUREN       ON      NM   R$  000000000118500000000011950000000001181000000000118900000000011900000000001189000000000119006234000000000002792300000000003321670200000000000000009999123100000010000000000000BRAUREACNOR9104
012024032802AVLL3       010ALPHAVILLE  ON      NM   R$  000000000041300000000004140000000000413000000000041300000000004140000000000391000000000041400004000000000000001400000000000000579300000000000000009999123100000010000000000000BRAVLLACNOR5103
012024032802AZEV3       010AZEVEDO     ON           R$  000000000012900000000001330000000000120000000000012600000000001310000000000130000000000013100583000000000000762400000000000096649500000000000000009999123100000010000000000000BRAZEVACNOR0121
012024032802AZEV4       010AZEVEDO     PN           R$  000000000011400000000001160000000000104000000000011000000000001140000000000114000000000011501907000000000004788100000000000527896700000000000000009999123100000010000000000000BRAZEVACNPR7121
012024032802AZUL4       010AZUL        PN      N2   R$  000000000145000000000014520000000001300000000000135500000000013040000000001303000000000130421530000000000021249100000000028811428900000000000000009999123100000010000000000000BRAZULACNPR4102
012024032802BBSE3       010BBSEGURIDADEON      NM   R$  000000000327600000000032940000000003250000000000326800000000032520000000003252000000000325608478000000000003711600000000012131932400000000000000009999123100000010000000000000BRBBSEACNOR5124
012024032802CPFE3       010CPFL ENERGIAON      NM   R$  000000000351500000000035240000000003464000000000348000000000034810000000003480000000000349107439000000000002672300000000009299917300000000000000009999123100000010000000000000BRCPFEACNOR0136
012024032802CPLE3       010COPEL       ON      N2   R$  000000000087700000000008790000000000856000000000086400000000008650000000000864000000000086508945000000000010217800000000008836573400000000000000009999123100000010000000000000BRCPLEACNOR8148
012024032802CPLE6       010COPEL       PNB     N2   R$  000000000098000000000009850000000000955000000000096400000000009620000000000961000000000096318523000000000016375300000000015791251600000000000000009999123100000010000000000000BRCPLEACNPB9145
012024032802ENAT3       010ENAUTA PART ON      NM   R$  000000000293000000000029740000000002872000000000292900000000029520000000002942000000000295205108000000000001484800000000004349491800000000000000009999123100000010000000000000BRENATACNOR0104
012024032802ENEV3       010ENEVA       ON      NM   R$  000000000128400000000013050000000001273000000000128000000000012750000000001275000000000127613777000000000007343000000000009401008500000000000000009999123100000010000000000000BRENEVACNOR8105
012024032802IFCM3       010INFRACOMM   ON      NM   R$  000000000009300000000000980000000000092000000000009500000000000970000000000096000000000009704793000000000010289000000000000986074100000000000000009999123100000010000000000000BRIFCMACNOR8101
012024032802IGTI11      010IGUATEMI S.AUNT     N1   R$  000000000235700000000023740000000002313000000000233300000000023310000000002330000000000233115426000000000004002100000000009338217100000000000000009999123100000010000000000000BRIGTICDAM16105
012024032802IGTI3       010IGUATEMI S.AON      N1   R$  000000000033100000000003350000000000325000000000033000000000003320000000000332000000000033300154000000000000047100000000000015553500000000000000009999123100000010000000000000BRIGTIACNOR8105
012024032802IGTI4       010IGUATEMI S.APN      N1   R$  000000000100200000000010020000000001000000000000100100000000010000000000000991000000000101000004000000000000000400000000000000400600000000000000009999123100000010000000000000BRIGTIACNPR5105
012024032802INEP3       010INEPAR      ON           R$  000000000031600000000003330000000000316000000000032700000000003330000000000325000000000033300268000000000000085300000000000027896500000000000000009999123100000010000000000000BRINEPACNOR1143
012024032802INEP4       010INEPAR      PN           R$  000000000026700000000002820000000000266000000000027800000000002790000000000275000000000027900083000000000000066300000000000018453900000000000000009999123100000010000000000000BRINEPACNPR8143
012024032802INTB3       010INTELBRAS   ON  EJ  NM   R$  000000000210300000000021260000000002085000000000209800000000020990000000002096000000000209904992000000000001164900000000002444547000000000000000009999123100000010000000000000BRINTBACNOR9111
012024032802IRBR3       010IRBBRASIL REON      NM   R$  000000000375500000000038070000000003700000000000375500000000037350000000003730000000000373503344000000000001252600000000004704220900000000000000009999123100000010000000000000BRIRBRACNOR4111
012024032802LUPA3       010LUPATECH    ON      NM   R$  000000000018700000000001900000000000184000000000018500000000001850000000000185000000000018600238000000000000220700000000000041019500000000000000009999123100000010000000000000BRLUPAACNOR8112
012024032802LUXM4       010TREVISA     PN           R$  000000000149900000000015690000000001497000000000151200000000015690000000001421000000000157000007000000000000001000000000000001512800000000000000009999123100000010000000000000BRLUXMACNPR4051
012024032802LVTC3       010WDC NETWORKSON      NM   R$  000000000038300000000003860000000000377000000000038000000000003800000000000380000000000038500045000000000000015300000000000005818300000000000000009999123100000010000000000000BRLVTCACNOR4102
012024032802LWSA3       010LWSA        ON      NM   R$  000000000059700000000006060000000000567000000000058300000000005840000000000584000000000058510807000000000009561100000000005575943300000000000000009999123100000010000000000000BRLWSAACNOR8103
012024032802PDGR3       010PDG REALT   ON      NM   R$  000000000003300000000000340000000000032000000000003200000000000330000000000032000000000003300320000000000001366000000000000044593500000000000000009999123100000010000000000000BRPDGRACNOR8118
012024032802PDTC3       010PADTEC      ON      NM   R$  000000000025600000000002660000000000256000000000026100000000002650000000000263000000000026500236000000000000083900000000000021910100000000000000009999123100000010000000000000BRPDTCACNOR3100
012024032802PEAB3       010PAR AL BAHIAON           R$  000000000370000000000037000000000003700000000000370000000000037000000000003500000000000379600001000000000000000100000000000000370000000000000000009999123100000010000000000000BRPEABACNOR3131
012024032802PEAB4       010PAR AL BAHIAPN           R$  000000000453500000000049400000000004535000000000468800000000049400000000004540000000000510000015000000000000002600000000000012189600000000000000009999123100000010000000000000BRPEABACNPR0131
012024032802PETR3       010PETROBRAS   ON      N2   R$  000000000373000000000038330000000003707000000000379100000000038280000000003825000000000383112922000000000010673600000000040465595500000000000000009999123100000010000000000000BRPETRACNOR9202
012024032802PETR4       010PETROBRAS   PN      N2   R$  000000000365000000000037520000000003647000000000371200000000037360000000003736000000000374044285000000000031958200000000118658053900000000000000009999123100000010000000000000BRPETRACNPR6210
012024032802ALPA3       010ALPARGATAS  ON      N1   R$  000000000100500000000010200000000000992000000000100100000000010060000000000993000000000103000008000000000000001000000000000001001100000000000000009999123100000010000000000000BRALPAACNOR0231
012024032802ALPA4       010ALPARGATAS  PN      N1   R$  000000000094300000000009770000000000935000000000095800000000009530000000000953000000000095409573000000000002806000000000002690949900000000000000009999123100000010000000000000BRALPAACNPR7232
012024032802ALPK3       010ESTAPAR     ON      NM   R$  000000000045400000000004590000000000444000000000044800000000004500000000000445000000000045000247000000000000088900000000000039875500000000000000009999123100000010000000000000BRALPKACNOR9101
012024032802ALUP11      010ALUPAR      UNT     N2   R$  000000000309600000000031040000000003056000000000306500000000030560000000003056000000000306802699000000000000641700000000001967192500000000000000009999123100000010000000000000BRALUPCDAM15117
012024032802ALUP3       010ALUPAR      ON      N2   R$  000000000103500000000010480000000001029000000000103400000000010320000000001032000000000103600097000000000000015300000000000015830400000000000000009999123100000010000000000000BRALUPACNOR8117
012024032802ALUP4       010ALUPAR      PN      N2   R$  000000000102900000000010290000000001014000000000102000000000010160000000001016000000000102300124000000000000026200000000000026742800000000000000009999123100000010000000000000BRALUPACNPR5117
012024032802AMAR3       010LOJAS MARISAON      NM   R$  000000000017800000000001870000000000178000000000018400000000001850000000000184000000000018500560000000000001290700000000000238530000000000000000009999123100000010000000000000BRAMARACNOR4114
012024032802AMBP3       010AMBIPAR     ON      NM   R$  000000000148000000000016500000000001440000000000156000000000015600000000001559000000000156008473000000000002807100000000004381348400000000000000009999123100000010000000000000BRAMBPACNOR6103
012024032802ANIM3       010ANIMA       ON      NM   R$  000000000047200000000004900000000000461000000000048100000000004900000000000489000000000049007029000000000003749400000000001804071600000000000000009999123100000010000000000000BRANIMACNOR6107
012024032802APER3       010ALPER S.A.  ON           R$  000000000445700000000044580000000004456000000000445700000000044560000000004456000000000450000003000000000000000300000000000001337100000000000000009999123100000010000000000000BRAPERACNOR9106
012024032802ARML3       010ARMAC       ON      NM   R$  000000000124700000000012620000000001221000000000124200000000012590000000001250000000000126002899000000000000645600000000000802099400000000000000009999123100000010000000000000BRARMLACNOR1110
012024032802ARZZ3       010AREZZO CO   ON      NM   R$  000000000634500000000065020000000006296000000000642800000000064270000000006425000000000642711979000000000002026400000000013026105200000000000000009999123100000010000000000000BRARZZACNOR3146
012024032802CMIN3       010CSNMINERACAOON      N2   R$  000000000053100000000005420000000000521000000000052800000000005300000000000530000000000053411606000000000014167000000000007492027100000000000000009999123100000010000000000000BRCMINACNOR2110
012024032802COCE5       010COELCE      PNA          R$  000000000370400000000037820000000003697000000000372700000000037160000000003693000000000375000072000000000000007700000000000028699900000000000000009999123100000010000000000000BRCOCEACNPA3146
012024032802COGN3       010COGNA ON    ON      NM   R$  000000000023800000000002440000000000235000000000023800000000002360000000000236000000000023709345000000000024595900000000005871580800000000000000009999123100000010000000000000BRCOGNACNOR2104
012024032802ELMD3       010ELETROMIDIA ON      NM   R$  000000000187400000000018900000000001821000000000187100000000018700000000001827000000000187000424000000000000175700000000000328758000000000000000009999123100000010000000000000BRELMDACNOR3100
012024032802EMAE3       010EMAE        ON           R$  000000000210100000000021010000000002101000000000210100000000021010000000002100000000000000000004000000000000000700000000000001470700000000000000009999123100000010000000000000BREMAEACNOR4124
012024032802EMAE4       010EMAE        PN           R$  000000000702000000000071950000000006851000000000694800000000069980000000006853000000000699900020000000000000002700000000000018761500000000000000009999123100000010000000000000BREMAEACNPR1124
012024032802EMBR3       010EMBRAER     ON      NM   R$  000000000331200000000033910000000003299000000000334700000000033310000000003330000000000333322168000000000006795700000000022751864800000000000000009999123100000010000000000000BREMBRACNOR4191
012024032802LAND3       010TERRASANTAPAON      NM   R$  000000000152600000000015330000000001494000000000150500000000014940000000001493000000000150000154000000000000047900000000000072132300000000000000009999123100000010000000000000BRLANDACNOR9102
012024032802LAVV3       010LAVVI       ON      NM   R$  000000000093100000000009590000000000924000000000094800000000009510000000000948000000000095203979000000000000910600000000000864115700000000000000009999123100000010000000000000BRLAVVACNOR4111
012024032802LEVE3       010METAL LEVE  ON      NM   R$  000000000337700000000034740000000003361000000000343300000000034570000000003450000000000345802075000000000000427000000000001466135100000000000000009999123100000010000000000000BRLEVEACNOR2196
012024032802LIPR3       010ELETROPAR   ON           R$  000000000535000000000054000000000005200000000000531200000000052000000000004902000000000538000004000000000000000400000000000002125000000000000000009999123100000010000000000000BRLIPRACNOR7121
012024032802LJQQ3       010QUERO-QUERO ON      NM   R$  000000000057300000000005970000000000570000000000058300000000005780000000000578000000000057905240000000000002522300000000001470977600000000000000009999123100000010000000000000BRLJQQACNOR5104
012024032802LOGG3       010LOG COM PROPON      NM   R$  000000000228300000000023050000000002266000000000228300000000022840000000002269000000000228400737000000000000094000000000000214627600000000000000009999123100000010000000000000BRLOGGACNOR7107
012024032802LOGN3       010LOG-IN      ON      NM   R$  000000000374500000000039790000000003719000000000385700000000039040000000003894000000000392600200000000000000032400000000000124988800000000000000009999123100000010000000000000BRLOGNACNOR3105
012024032802LPSB3       010LOPES BRASILON      NM   R$  000000000021700000000002300000000000205000000000021500000000002190000000000218000000000021900696000000000000390000000000000083881600000000000000009999123100000010000000000000BRLPSBACNOR0113
012024032802LREN3       010LOJAS RENNERON  EJ  NM   R$  000000000162800000000017060000000001626000000000168600000000016980000000001697000000000169829649000000000014700600000000024790593000000000000000009999123100000010000000000000BRLRENACNOR1220
012024032802EALT3       010ACO ALTONA  ON           R$  000000000100000000000010000000000001000000000000100000000000010000000000000975000000000104900001000000000000000200000000000000200000000000000000009999123100000010000000000000BREALTACNOR4137
012024032802EALT4       010ACO ALTONA  PN           R$  000000000109100000000010970000000001067000000000107900000000010970000000001085000000000109700026000000000000003200000000000003455800000000000000009999123100000010000000000000BREALTACNPR1137
012024032802ECOR3       010ECORODOVIAS ON      NM   R$  000000000082500000000008350000000000812000000000081900000000008150000000000814000000000081813531000000000005308900000000004348578800000000000000009999123100000010000000000000BRECORACNOR8119
012024032802ODPV3       010ODONTOPREV  ON      NM   R$  000000000120300000000012260000000001168000000000120500000000012160000000001216000000000122507063000000000003244900000000003910452300000000000000009999123100000010000000000000BRODPVACNOR4198
012024032802OFSA3       010OUROFINO S/AON      NM   R$  000000000248500000000025380000000002430000000000247700000000025000000000002460000000000250000066000000000000037300000000000092426800000000000000009999123100000010000000000000BROFSAACNOR7117
012024032802ONCO3       010ONCOCLINICASON      NM   R$  000000000096600000000009720000000000875000000000091200000000008850000000000884000000000088720912000000000016187400000000014767940600000000000000009999123100000010000000000000BRONCOACNOR6100
012024032802OPCT3       010OCEANPACT   ON      NM   R$  000000000060400000000006040000000000595000000000059800000000005990000000000594000000000059900493000000000000259000000000000154991300000000000000009999123100000010000000000000BROPCTACNOR0100
012024032802GRND3       010GRENDENE    ON      NM   R$  000000000064000000000006640000000000639000000000065500000000006610000000000658000000000066106017000000000003455200000000002266531000000000000000009999123100000010000000000000BRGRNDACNOR3172
012024032802GUAR3       010GUARARAPES  ON      NM   R$  000000000079000000000008470000000000786000000000083000000000008300000000000826000000000083009337000000000006009600000000004988235000000000000000009999123100000010000000000000BRGUARACNOR4172
012024032802ORVR3       010ORIZON      ON      NM   R$  000000000383300000000038340000000003690000000000376700000000037820000000003774000000000378202979000000000000544500000000002051562000000000000000009999123100000010000000000000BRORVRACNOR0101
012024032802BLAU3       010BLAU        ON  EJ  NM   R$  000000000122500000000012660000000001220000000000124300000000012450000000001236000000000124501171000000000000236400000000000293982400000000000000009999123100000010000000000000BRBLAUACNOR8112
012024032802BMEB3       010MERCANTIL   ON      N1   R$  000000000237100000000023720000000002271000000000232100000000022710000000002102000000000235000011000000000000001200000000000002785300000000000000009999123100000010000000000000BRBMEBACNOR8205
012024032802BMEB4       010MERCANTIL   PN      N1   R$  000000000237100000000024100000000002370000000000239400000000024000000000002392000000000240000053000000000000011300000000000027061300000000000000009999123100000010000000000000BRBMEBACNPR5210
012024032802BMGB4       010BANCO BMG   PN      N1   R$  000000000035000000000003500000000000344000000000034700000000003440000000000344000000000034701695000000000000759200000000000263746000000000000000009999123100000010000000000000BRBMGBACNPR0108
012024032802PCAR3       010P.ACUCAR-CBDON      NM   R$  000000000030400000000003050000000000296000000000029900000000002960000000000296000000000029705369000000000015228200000000004558518800000000000000009999123100000010000000000000BRPCARACNOR3167
012024032802CXSE3       010CAIXA SEGURION      NM   R$  000000000159400000000016050000000001561000000000157300000000015620000000001562000000000156508687000000000004817300000000007581331200000000000000009999123100000010000000000000BRCXSEACNOR7105
012024032802CYRE3       010CYRELA REALTON      NM   R$  000000000251200000000025440000000002483000000000250200000000024940000000002491000000000249613603000000000004666100000000011675303800000000000000009999123100000010000000000000BRCYREACNOR7139
012024032802GGPS3       010GPS         ON      NM   R$  000000000196800000000020870000000001959000000000205500000000020720000000002072000000000207417864000000000009153100000000018811115200000000000000009999123100000010000000000000BRGGPSACNOR9102
012024032802GMAT3       010GRUPO MATEUSON      NM   R$  000000000085300000000008830000000000853000000000087400000000008750000000000872000000000087512175000000000008741500000000007644554100000000000000009999123100000010000000000000BRGMATACNOR7100
012024032802GOAU3       010GERDAU MET  ON      N1   R$  000000000104900000000010600000000001045000000000105100000000010600000000001058000000000106000215000000000000044300000000000046575000000000000000009999123100000010000000000000BRGOAUACNOR1266
012024032802GOAU4       010GERDAU MET  PN      N1   R$  000000000102000000000010330000000001011000000000102500000000010290000000001029000000000103007735000000000005098500000000005228434400000000000000009999123100000010000000000000BRGOAUACNPR8267
012024032802BMIN4       010MERC INVEST PN           R$  000000000160000000000016000000000001600000000000160000000000016000000000001543000000000159800001000000000000000200000000000000320000000000000000009999123100000010000000000000BRBMINACNPR1176
012024032802BMKS3       010BIC MONARK  ON           R$  000000003969800000000396980000000037013000000003931300000000396980000000037100000000003969800021000000000000000090000000000003538180000000000000009999123100000010000000000000BRBMKSACNOR9165
012024032802BMOB3       010BEMOBI TECH ON      NM   R$  000000000138400000000013840000000001351000000000137400000000013830000000001375000000000138501886000000000000368400000000000506541300000000000000009999123100000010000000000000BRBMOBACNOR7103
012024032802BNBR3       010NORD BRASIL ON  ERJ      R$  000000001075000000000107500000000010650000000001068000000000106500000000010400000000001069000006000000000000001700000000000018157000000000000000009999123100000010000000000000BRBNBRACNOR8207
012024032802BRSR3       010BANRISUL    ON      N1   R$  000000000133000000000013450000000001320000000000132900000000013350000000001326000000000133500035000000000000005800000000000007710000000000000000009999123100000010000000000000BRBRSRACNOR3186
012024032802BRSR6       010BANRISUL    PNB     N1   R$  000000000135500000000013580000000001330000000000134000000000013350000000001335000000000134204251000000000001107100000000001484419300000000000000009999123100000010000000000000BRBRSRACNPB4189
012024032802JALL3       010JALLESMACHADON      NM   R$  000000000078200000000007900000000000774000000000078500000000007900000000000787000000000079000884000000000000305200000000000239858200000000000000009999123100000010000000000000BRJALLACNOR0105
012024032802JBSS3       010JBS         ON      NM   R$  000000000219200000000021950000000002133000000000216400000000021500000000002142000000000215117607000000000013473200000000029162358800000000000000009999123100000010000000000000BRJBSSACNOR8121
012024032802MOVI3       010MOVIDA      ON      NM   R$  000000000082300000000008560000000000810000000000083800000000008500000000000850000000000085309747000000000004856400000000004073730800000000000000009999123100000010000000000000BRMOVIACNOR0122
012024032802MRFG3       010MARFRIG     ON      NM   R$  000000000094000000000010450000000000932000000000101600000000010310000000001031000000000103329427000000000022776200000000023141055000000000000000009999123100000010000000000000BRMRFGACNOR0116
012024032802MRVE3       010MRV         ON      NM   R$  000000000077600000000008000000000000775000000000078800000000007790000000000779000000000078009686000000000009922600000000007819405000000000000000009999123100000010000000000000BRMRVEACNOR2126
012024032802BSLI3       010BRB BANCO   ON           R$  000000000110100000000011520000000001101000000000112600000000011520000000001106000000000115200002000000000000000200000000000000225300000000000000009999123100000010000000000000BRBSLIACNOR5192
012024032802FRIO3       010METALFRIO   ON      NM   R$  000000002946700000000314990000000029467000000003057700000000310000000000008000000000003150000006000000000000000600000000000018346600000000000000009999123100000010000000000000BRFRIOACNOR2111
012024032802ITSA3       010ITAUSA      ON  EJ  N1   R$  000000000104500000000010520000000001040000000000104600000000010460000000001046000000000104700206000000000000048800000000000051061100000000000000009999123100000010000000000000BRITSAACNOR0439
012024032802ITSA4       010ITAUSA      PN  EJ  N1   R$  000000000105000000000010530000000001038000000000104700000000010500000000001049000000000105012782000000000016530900000000017320526400000000000000009999123100000010000000000000BRITSAACNPR7439
012024032802ITUB3       010ITAUUNIBANCOON  EJ  N1   R$  000000000298300000000029970000000002957000000000298100000000029940000000002988000000000299401095000000000000282500000000000842144500000000000000009999123100000010000000000000BRITUBACNOR4333
012024032802ITUB4       010ITAUUNIBANCOPN  EJ  N1   R$  000000000345700000000034790000000003439000000000346200000000034640000000003463000000000346424075000000000016693300000000057808874200000000000000009999123100000010000000000000BRITUBACNPR1333
012024032802PTBL3       010PORTOBELLO  ON      NM   R$  000000000068900000000007030000000000677000000000069200000000006950000000000694000000000069502364000000000000661500000000000458358500000000000000009999123100000010000000000000BRPTBLACNOR8132
012024032802PTNT3       010PETTENATI   ON           R$  000000000130000000000013000000000001261000000000127500000000012610000000001260000000000128000004000000000000000400000000000000510100000000000000009999123100000010000000000000BRPTNTACNOR6042
012024032802PTNT4       010PETTENATI   PN           R$  000000000077600000000007890000000000774000000000078000000000007890000000000771000000000078900019000000000000006500000000000005074100000000000000009999123100000010000000000000BRPTNTACNPR3047
012024032802QUAL3       010QUALICORP   ON      NM   R$  000000000020900000000002140000000000204000000000020600000000002040000000000203000000000020402980000000000003733800000000000771571200000000000000009999123100000010000000000000BRQUALACNOR6119
012024032802UNIP6       010UNIPAR      PNB ED       R$  000000000677000000000067990000000006661000000000670000000000066680000000006667000000000670001000000000000000172100000000001153082100000000000000009999123100000010000000000000BRUNIPACNPB8205
012024032802USIM3       010USIMINAS    ON      N1   R$  000000000094700000000009490000000000932000000000094000000000009370000000000936000000000093700654000000000000210800000000000198237300000000000000009999123100000010000000000000BRUSIMACNOR3166
012024032802USIM5       010USIMINAS    PNA     N1   R$  000000000100400000000010150000000000994000000000100300000000010010000000001001000000000100207760000000000005689800000000005708116800000000000000009999123100000010000000000000BRUSIMACNPA6168
012024032802VALE3       010VALE        ON      NM   R$  000000000606200000000061090000000006007000000000605500000000060830000000006083000000000608433077000000000018467000000000111830753200000000000000009999123100000010000000000000BRVALEACNOR0210
012024032802ZAMP3       010ZAMP S.A.   ON           R$  000000000034000000000003510000000000333000000000034200000000003390000000000337000000000033902863000000000000997800000000000341284200000000000000009999123100000010000000000000BRZAMPACNOR5100
012024032802ROMI3       010ROMI        ON      NM   R$  000000000131800000000013430000000001314000000000133200000000013380000000001337000000000133801186000000000000334400000000000445597800000000000000009999123100000010000000000000BRROMIACNOR8192
012024032802RPAD5       010ALFA HOLDINGPNA          R$  000000000079200000000007920000000000792000000000079200000000007920000000000790000000000083000001000000000000001000000000000000792000000000000000009999123100000010000000000000BRRPADACNPA4218
012024032802RRRP3       0103R PETROLEUMON      NM   R$  000000000324700000000033000000000003217000000000327700000000032990000000003299000000000330010242000000000005157100000000016902226900000000000000009999123100000010000000000000BRRRRPACNOR5102
012024032802TPIS3       010TRIUNFO PARTON      NM   R$  000000000038800000000003990000000000387000000000039100000000003990000000000391000000000039900217000000000000058700000000000022974000000000000000009999123100000010000000000000BRTPISACNOR8118
012024032802TRAD3       010TC          ON      NM   R$  000000000007900000000000810000000000076000000000007800000000000800000000000078000000000008000153000000000000425000000000000033330800000000000000009999123100000010000000000000BRTRADACNOR3101
012024032802TRIS3       010TRISUL      ON      NM   R$  000000000057700000000005770000000000565000000000056900000000005700000000000567000000000057001361000000000000378200000000000215519800000000000000009999123100000010000000000000BRTRISACNOR4116
012024032802TRPL3       010TRAN PAULISTON      N1   R$  000000000333800000000033400000000003306000000000332300000000033060000000003305000000000332000015000000000000001900000000000006313900000000000000009999123100000010000000000000BRTRPLACNOR4185
012024032802TRPL4       010TRAN PAULISTPN      N1   R$  000000000251400000000025280000000002480000000000249200000000024820000000002481000000000248808305000000000002418300000000006028156900000000000000009999123100000010000000000000BRTRPLACNPR1185
012024032802TTEN3       0103TENTOS     ON      NM   R$  000000000106100000000010650000000001040000000000105400000000010520000000001052000000000105303828000000000000690500000000000728064900000000000000009999123100000010000000000000BRTTENACNOR0103
012024032802TUPY3       010TUPY        ON      NM   R$  000000000276500000000027890000000002727000000000275700000000027830000000002770000000000278303692000000000000713600000000001968039100000000000000009999123100000010000000000000BRTUPYACNOR1183
012024032802UCAS3       010UNICASA     ON      NM   R$  000000000027000000000002710000000000264000000000026600000000002650000000000265000000000026800106000000000000053900000000000014363600000000000000009999123100000010000000000000BRUCASACNOR1113
012024032802UGPA3       010ULTRAPAR    ON      NM   R$  000000000281500000000028670000000002815000000000284800000000028470000000002847000000000284912800000000000003752700000000010690538500000000000000009999123100000010000000000000BRUGPAACNOR8155
012024032802UNIP3       010UNIPAR      ON  ED       R$  000000000625200000000062550000000006220000000000623100000000062510000000006220000000000625200035000000000000004100000000000025547700000000000000009999123100000010000000000000BRUNIPACNOR7205
012024032802UNIP5       010UNIPAR      PNA ED       R$  000000000677300000000067730000000006773000000000677300000000067730000000006601000000000715700001000000000000000100000000000000677300000000000000009999123100000010000000000000BRUNIPACNPA0207
012024032802WEST3       010WESTWING    ON      NM   R$  000000000012300000000001300000000000122000000000012700000000001270000000000126000000000012700154000000000000181700000000000023144700000000000000009999123100000010000000000000BRWESTACNOR3100
012024032802WHRL3       010WHIRLPOOL   ON           R$  000000000043800000000004550000000000438000000000045100000000004550000000000453000000000045500012000000000000002700000000000001220100000000000000009999123100000010000000000000BRWHRLACNOR5128
012024032802WHRL4       010WHIRLPOOL   PN           R$  000000000046500000000004660000000000459000000000046100000000004660000000000462000000000046500012000000000000002100000000000000969000000000000000009999123100000010000000000000BRWHRLACNPR2128
012024032802WIZC3       010WIZ CO      ON      NM   R$  000000000069000000000007480000000000690000000000072700000000007240000000000724000000000072505420000000000002958500000000002152546500000000000000009999123100000010000000000000BRWIZCACNOR5101
012024032802WLMM4       010WLM IND COM PN           R$  000000000225800000000022900000000002250000000000226900000000022890000000002264000000000228900057000000000000007900000000000017927200000000000000009999123100000010000000000000BRWLMMACNPR3117
012024032802CSRN6       010COSERN      PNB EJ       R$  000000000240100000000024010000000002401000000000240100000000024010000000002401000000000247000001000000000000000100000000000000240100000000000000009999123100000010000000000000BRCSRNACNPB1192
012024032802CSUD3       010CSU DIGITAL ON  EJ  NM   R$  000000000205000000000020980000000002031000000000206000000000020550000000002049000000000205600344000000000000051600000000000106320600000000000000009999123100000010000000000000BRCSUDACNOR5108
012024032802CTKA3       010KARSTEN     ON           R$  000000000170200000000019990000000001702000000000181000000000019990000000001800000000000199000003000000000000000300000000000000543100000000000000009999123100000010000000000000BRCTKAACNOR0043
012024032802CTKA4       010KARSTEN     PN           R$  000000000209900000000021490000000002099000000000214200000000021490000000001801000000000214500004000000000000002200000000000004713000000000000000009999123100000010000000000000BRCTKAACNPR7043
012024032802CTNM3       010COTEMINAS   ON           R$  000000000077900000000008370000000000779000000000081800000000008300000000000800000000000082800004000000000000000400000000000000327400000000000000009999123100000010000000000000BRCTNMACNOR9130
012024032802CTNM4       010COTEMINAS   PN           R$  000000000012000000000001240000000000115000000000011700000000001180000000000118000000000011900158000000000000145100000000000017090100000000000000009999123100000010000000000000BRCTNMACNPR6129
012024032802CTSA3       010SANTANENSE  ON           R$  000000000030500000000003050000000000301000000000030100000000003030000000000303000000000030600012000000000000009900000000000002981900000000000000009999123100000010000000000000BRCTSAACNOR3062
012024032802CTSA4       010SANTANENSE  PN           R$  000000000016000000000001630000000000156000000000015800000000001570000000000157000000000016100073000000000000020600000000000003255900000000000000009999123100000010000000000000BRCTSAACNPR0062
012024032802CURY3       010CURY S/A    ON      NM   R$  000000000204100000000020700000000002036000000000204900000000020360000000002035000000000205504994000000000001598200000000003276287000000000000000009999123100000010000000000000BRCURYACNOR3107
012024032802CVCB3       010CVC BRASIL  ON      NM   R$  000000000030300000000003030000000000288000000000029100000000002900000000000290000000000029112239000000000055435500000000016186165900000000000000009999123100000010000000000000BRCVCBACNOR1115
012024032802YDUQ3       010YDUQS PART  ON      NM   R$  000000000176300000000018390000000001740000000000180400000000018110000000001810000000000181308380000000000002816100000000005080371500000000000000009999123100000010000000000000BRYDUQACNOR3104
012024032802GEPA4       010GER PARANAP PN           R$  000000000260000000000026000000000002597000000000259900000000025970000000002553000000000259700015000000000000008000000000000020797000000000000000009999123100000010000000000000BRGEPAACNPR9159
012024032802GFSA3       010GAFISA      ON      NM   R$  000000000066800000000006800000000000651000000000066300000000006640000000000664000000000066503490000000000002162200000000001434904400000000000000009999123100000010000000000000BRGFSAACNOR3124
012024032802GGBR3       010GERDAU      ON      N1   R$  000000000198500000000020050000000001968000000000198800000000020020000000001996000000000200300230000000000000054900000000000109165700000000000000009999123100000010000000000000BRGGBRACNOR1190
012024032802GGBR4       010GERDAU      PN      N1   R$  000000000219500000000022300000000002178000000000221100000000022200000000002220000000000222120624000000000010000400000000022117663700000000000000009999123100000010000000000000BRGGBRACNPR8190
012024032802MILS3       010MILLS       ON  EJ  NM   R$  000000000135900000000013750000000001345000000000135900000000013510000000001349000000000135101790000000000000436900000000000593812600000000000000009999123100000010000000000000BRMILSACNOR2125
012024032802MLAS3       010MULTILASER  ON      NM   R$  000000000020700000000002550000000000200000000000023100000000002450000000000243000000000024513362000000000013699200000000003169821500000000000000009999123100000010000000000000BRMLASACNOR9101
012024032802MNDL3       010MUNDIAL     ON           R$  000000000450000000000045000000000004500000000000450000000000045000000000004260000000000469500002000000000000000200000000000000900000000000000000009999123100000010000000000000BRMNDLACNOR4107
012024032802RCSL3       010RECRUSUL    ON           R$  000000000017200000000001790000000000168000000000017400000000001750000000000175000000000017702765000000000002065700000000000361278000000000000000009999123100000010000000000000BRRCSLACNOR4133
012024032802RCSL4       010RECRUSUL    PN           R$  000000000007000000000000710000000000067000000000006900000000000690000000000069000000000007001034000000000001851400000000000128378100000000000000009999123100000010000000000000BRRCSLACNPR1133
012024032802RDNI3       010RNI         ON      NM   R$  000000000039100000000004060000000000371000000000038000000000003730000000000373000000000037400213000000000000033400000000000012697900000000000000009999123100000010000000000000BRRDNIACNOR9116
012024032802RDOR3       010REDE D OR   ON  EJ  NM   R$  000000000257400000000025740000000002500000000000252500000000025310000000002528000000000253213522000000000004959400000000012527406900000000000000009999123100000010000000000000BRRDORACNOR8112
012024032802RECV3       010PETRORECSA  ON      NM   R$  000000000231800000000023620000000002289000000000234000000000023550000000002350000000000235608501000000000003926800000000009188831800000000000000009999123100000010000000000000BRRECVACNOR3105
012024032802MNPR3       010MINUPAR     ON           R$  000000000207500000000020900000000002075000000000207900000000020890000000001950000000000209000003000000000000000700000000000001455400000000000000009999123100000010000000000000BRMNPRACNOR5122
012024032802REDE3       010REDE ENERGIAON           R$  000000000068900000000007160000000000685000000000069500000000006950000000000685000000000069500019000000000000004400000000000003062100000000000000009999123100000010000000000000BRREDEACNOR7127
012024032802RENT3       010LOCALIZA    ON      NM   R$  000000000538200000000055200000000005357000000000547300000000054680000000005467000000000549824001000000000008170600000000044718701300000000000000009999123100000010000000000000BRRENTACNOR4194
012024032802TASA3       010TAURUS ARMASON      N2   R$  000000000135000000000013800000000001338000000000136100000000013740000000001361000000000137400099000000000000012900000000000017560500000000000000009999123100000010000000000000BRTASAACNOR7103
012024032802TASA4       010TAURUS ARMASPN      N2   R$  000000000131000000000013540000000001310000000000134300000000013460000000001346000000000135201777000000000000418500000000000562183000000000000000009999123100000010000000000000BRTASAACNPR4103
012024032802TCSA3       010TECNISA     ON      NM   R$  000000000030000000000003130000000000292000000000030300000000002920000000000292000000000029300259000000000000166500000000000050577800000000000000009999123100000010000000000000BRTCSAACNOR3112
012024032802TECN3       010TECHNOS     ON      NM   R$  000000000044400000000004490000000000440000000000044400000000004400000000000440000000000044200408000000000000151400000000000067276900000000000000009999123100000010000000000000BRTECNACNOR6109
012024032802TELB3       010TELEBRAS    ON           R$  000000000140000000000014000000000001400000000000140300000000014000000000001374000000000141500002000000000000000400000000000000561500000000000000009999123100000010000000000000BRTELBACNOR2140
012024032802TELB4       010TELEBRAS    PN           R$  000000000099600000000010010000000000995000000000099800000000010010000000001001000000000101700004000000000000000400000000000000399200000000000000009999123100000010000000000000BRTELBACNPR9140
012024032802TEND3       010TENDA       ON      NM   R$  000000000123000000000012890000000001223000000000126900000000012830000000001280000000000128308055000000000002552100000000003239733400000000000000009999123100000010000000000000BRTENDACNOR4111
012024032802BHIA3       010CASAS BAHIA ON      NM   R$  000000000062900000000007170000000000629000000000068800000000006780000000000677000000000067912930000000000011773600000000008100494300000000000000009999123100000010000000000000BRBHIAACNOR1101
012024032802BRBI11      010BR PARTNERS UNT ED  N2   R$  000000000161800000000016690000000001606000000000165100000000016650000000001663000000000166501544000000000000209100000000000345298500000000000000009999123100000010000000000000BRBRBICDAM10108
012024032802BRFS3       010BRF SA      ON      NM   R$  000000000158300000000016530000000001575000000000162800000000016320000000001631000000000163313315000000000007131100000000011612325500000000000000009999123100000010000000000000BRBRFSACNOR8121
012024032802DEXP3       010DEXXOS PAR  ON      N1   R$  000000000118100000000011930000000001175000000000118000000000011750000000001174000000000117500201000000000000056900000000000067163800000000000000009999123100000010000000000000BRDEXPACNOR1104
012024032802DEXP4       010DEXXOS PAR  PN      N1   R$  000000000117100000000011710000000001171000000000117100000000011710000000001171000000000120300001000000000000000100000000000000117100000000000000009999123100000010000000000000BRDEXPACNPR8104
012024032802DIRR3       010DIRECIONAL  ON      NM   R$  000000000255000000000025740000000002535000000000255600000000025630000000002553000000000256305676000000000001410700000000003606401900000000000000009999123100000010000000000000BRDIRRACNOR0117
012024032802DMVF3       010D1000VFARMA ON      NM   R$  000000000067400000000006900000000000674000000000067800000000006750000000000675000000000067900237000000000000058800000000000039889600000000000000009999123100000010000000000000BRDMVFACNOR9100
012024032802DOHL4       010DOHLER      PN           R$  000000000046700000000004710000000000467000000000046800000000004710000000000453000000000047300005000000000000001000000000000000468900000000000000009999123100000010000000000000BRDOHLACNPR9066
012024032802DOTZ3       010DOTZ SA     ON      NM   R$  000000000059100000000005990000000000585000000000059200000000005900000000000589000000000059000083000000000000020200000000000011969400000000000000009999123100000010000000000000BRDOTZACNOR7101
012024032802DTCY3       010DTCOM-DIRECTON           R$  000000000047000000000004700000000000470000000000047000000000004700000000000440000000000048500001000000000000000100000000000000047000000000000000009999123100000010000000000000BRDTCYACNOR5109
012024032802TFCO4       010TRACK FIELD PN  EJ  N2   R$  000000000122000000000012390000000001210000000000122100000000012200000000001215000000000122000323000000000000088900000000000108554700000000000000009999123100000010000000000000BRTFCOACNPR8112
012024032802TGMA3       010TEGMA       ON      NM   R$  000000000275500000000027750000000002744000000000276300000000027690000000002759000000000277200946000000000000269200000000000743930600000000000000009999123100000010000000000000BRTGMAACNOR7143
012024032802TIMS3       010TIM         ON  EJ  NM   R$  000000000178000000000017830000000001759000000000177100000000017800000000001780000000000178212409000000000009678500000000017145383800000000000000009999123100000010000000000000BRTIMSACNOR5115
012024032802TOTS3       010TOTVS       ON      NM   R$  000000000290200000000029020000000002832000000000284800000000028380000000002838000000000284217799000000000005946700000000016939082400000000000000009999123100000010000000000000BRTOTSACNOR8144
012024032802CSED3       010CRUZEIRO EDUON      NM   R$  000000000046000000000004900000000000459000000000047700000000004780000000000477000000000047801112000000000000702000000000000334907800000000000000009999123100000010000000000000BRCSEDACNOR9104
012024032802CSMG3       010COPASA      ON  EDJ NM   R$  000000000216400000000021880000000002141000000000216400000000021780000000002173000000000217904834000000000001353200000000002929301500000000000000009999123100000010000000000000BRCSMGACNOR5172
012024032802CSNA3       010SID NACIONALON           R$  000000000155600000000015730000000001540000000000155900000000015700000000001569000000000157111666000000000006379900000000009952531900000000000000009999123100000010000000000000BRCSNAACNOR6260
012024032802EVEN3       010EVEN        ON      NM   R$  000000000083500000000008410000000000825000000000083400000000008400000000000838000000000084002188000000000000681400000000000568898400000000000000009999123100000010000000000000BREVENACNOR8118
012024032802EZTC3       010EZTEC       ON  ED  NM   R$  000000000162000000000016450000000001615000000000162800000000016300000000001627000000000163003052000000000001255400000000002044908600000000000000009999123100000010000000000000BREZTCACNOR0124
012024032802VSTE3       010VESTE       ON      NM   R$  000000000166900000000017400000000001652000000000170800000000017400000000001695000000000174000135000000000000030600000000000052287800000000000000009999123100000010000000000000BRVSTEACNOR5102
012024032802VULC3       010VULCABRAS   ON      NM   R$  000000000173300000000017430000000001712000000000172900000000017320000000001724000000000173204590000000000001208800000000002090366100000000000000009999123100000010000000000000BRVULCACNOR2158
012024032802VVEO3       010VIVEO       ON      NM   R$  000000000064000000000006400000000000607000000000062100000000006150000000000615000000000061605067000000000001078000000000000670473100000000000000009999123100000010000000000000BRVVEOACNOR0103
012024032802FESA4       010FERBASA     PN      N1   R$  000000000086200000000008780000000000853000000000086300000000008670000000000867000000000086901980000000000000746400000000000644847600000000000000009999123100000010000000000000BRFESAACNPR5083
012024032802FHER3       010FER HERINGERON      NM   R$  000000000057100000000005830000000000570000000000057200000000005780000000000572000000000057800055000000000000022400000000000012814400000000000000009999123100000010000000000000BRFHERACNOR5103
012024032802WEGE3       010WEG         ON  EJ  NM   R$  000000000384900000000038720000000003806000000000383200000000038200000000003820000000000382909957000000000005257500000000020148209300000000000000009999123100000010000000000000BRWEGEACNOR0222
012024032802RAIZ4       010RAIZEN      PN  ED  N2   R$  000000000034200000000003620000000000341000000000035400000000003540000000000354000000000035517779000000000028396200000000010060717400000000000000009999123100000010000000000000BRRAIZACNPR6110
012024032802RANI3       010IRANI       ON      NM   R$  000000000092900000000009410000000000921000000000092800000000009210000000000921000000000092802766000000000001216600000000001129954700000000000000009999123100000010000000000000BRRANIACNOR5070
012024032802RAPT3       010RANDON PART ON      N1   R$  000000000105500000000010800000000001049000000000106300000000010780000000001060000000000107800306000000000000100800000000000107186100000000000000009999123100000010000000000000BRRAPTACNOR7162
012024032802RAPT4       010RANDON PART PN      N1   R$  000000000127700000000012980000000001268000000000128600000000012870000000001281000000000128703960000000000000954100000000001227123400000000000000009999123100000010000000000000BRRAPTACNPR4162
012024032802FIQE3       010UNIFIQUE    ON      NM   R$  000000000041300000000004160000000000408000000000041300000000004120000000000411000000000041200546000000000000194600000000000080402800000000000000009999123100000010000000000000BRFIQEACNOR5106
012024032802FLRY3       010FLEURY      ON  ED  NM   R$  000000000151300000000015130000000001487000000000149900000000015000000000001495000000000150006684000000000002480900000000003720087000000000000000009999123100000010000000000000BRFLRYACNOR5138
012024032802FRAS3       010FRAS-LE     ON      N1   R$  000000000179900000000018110000000001785000000000179400000000017900000000001787000000000179000707000000000000119900000000000215100800000000000000009999123100000010000000000000BRFRASACNOR0158
012024032802SYNE3       010SYN PROP TECON      NM   R$  000000000086900000000009000000000000858000000000088200000000008780000000000872000000000087801869000000000000521500000000000460261400000000000000009999123100000010000000000000BRSYNEACNOR2102
012024032802TAEE11      010TAESA       UNT     N2   R$  000000000360400000000036470000000003591000000000362900000000036310000000003629000000000363208956000000000002282400000000008283610600000000000000009999123100000010000000000000BRTAEECDAM10145
012024032802TAEE3       010TAESA       ON      N2   R$  000000000119500000000012050000000001186000000000119900000000012000000000001197000000000120100486000000000000076800000000000092088300000000000000009999123100000010000000000000BRTAEEACNOR9145
012024032802TAEE4       010TAESA       PN      N2   R$  000000000121000000000012190000000001204000000000121400000000012170000000001214000000000121700529000000000000136600000000000165833100000000000000009999123100000010000000000000BRTAEEACNPR6145
012024032802VBBR3       010VIBRA       ON      NM   R$  000000000252900000000025310000000002493000000000251100000000025010000000002499000000000250120093000000000006036400000000015161952800000000000000009999123100000010000000000000BRVBBRACNOR1106
012024032802KEPL3       010KEPLER WEBERON      NM   R$  000000000107600000000010840000000001025000000000105800000000010570000000001056000000000105707144000000000001450600000000001535052600000000000000009999123100000010000000000000BRKEPLACNOR1061
012024032802KLBN11      010KLABIN S/A  UNT     N2   R$  000000000251500000000025340000000002493000000000251700000000025260000000002522000000000252709836000000000003202700000000008061887100000000000000009999123100000010000000000000BRKLBNCDAM18140
012024032802KLBN3       010KLABIN S/A  ON      N2   R$  000000000050400000000005070000000000500000000000050300000000005040000000000503000000000050400628000000000000276600000000000139221700000000000000009999123100000010000000000000BRKLBNACNOR2168
012024032802KLBN4       010KLABIN S/A  PN      N2   R$  000000000050100000000005060000000000498000000000050200000000005030000000000503000000000050501596000000000001138800000000000572599100000000000000009999123100000010000000000000BRKLBNACNPR9168
012024032802KRSA3       010KORA SAUDE  ON      NM   R$  000000000008400000000000850000000000082000000000008200000000000820000000000082000000000008300298000000000000473400000000000039218800000000000000009999123100000010000000000000BRKRSAACNOR0100
012024032802CAMB3       010CAMBUCI     ON           R$  000000000115000000000011500000000001118000000000113200000000011270000000001127000000000113900133000000000000036900000000000041781500000000000000009999123100000010000000000000BRCAMBACNOR4127
012024032802CAML3       010CAMIL       ON      NM   R$  000000000087400000000009190000000000874000000000090400000000008980000000000897000000000089802765000000000000905600000000000818699800000000000000009999123100000010000000000000BRCAMLACNOR3127
012024032802CASH3       010MELIUZ      ON      NM   R$  000000000076000000000007880000000000760000000000076900000000007680000000000767000000000076808217000000000002599900000000002001603400000000000000009999123100000010000000000000BRCASHACNOR8105
012024032802MDIA3       010M.DIASBRANCOON      NM   R$  000000000389600000000039070000000003750000000000380500000000038180000000003804000000000381804527000000000001148600000000004371148300000000000000009999123100000010000000000000BRMDIAACNOR7134
012024032802MDNE3       010MOURA DUBEUXON      NM   R$  000000000123200000000012850000000001222000000000126100000000012740000000001264000000000127401394000000000000377800000000000476505300000000000000009999123100000010000000000000BRMDNEACNOR9100
012024032802MEAL3       010IMC S/A     ON      NM   R$  000000000017400000000001740000000000165000000000016900000000001650000000000165000000000016602301000000000002778900000000000470445600000000000000009999123100000010000000000000BRMEALACNOR9105
012024032802MELK3       010MELNICK     ON      NM   R$  000000000047800000000004790000000000471000000000047400000000004730000000000473000000000047600259000000000000095300000000000045185400000000000000009999123100000010000000000000BRMELKACNOR8110
012024032802MGEL4       010MANGELS INDLPN           R$  000000000163000000000016310000000001630000000000163000000000016300000000001625000000000167000003000000000000000300000000000000489100000000000000009999123100000010000000000000BRMGELACNPR3147
012024032802MGLU3       010MAGAZ LUIZA ON      NM   R$  000000000018100000000001850000000000179000000000018100000000001800000000000180000000000018131287000000000104345800000000018990701500000000000000009999123100000010000000000000BRMGLUACNOR2123
012024032802BOBR4       010BOMBRIL     PN           R$  000000000023200000000002320000000000228000000000023000000000002300000000000227000000000023000036000000000000018000000000000004140700000000000000009999123100000010000000000000BRBOBRACNPR3128
012024032802CBAV3       010CBA         ON      NM   R$  000000000041700000000004170000000000408000000000041100000000004080000000000408000000000040902801000000000001744900000000000717907200000000000000009999123100000010000000000000BRCBAVACNOR5104
012024032802CCRO3       010CCR SA      ON      NM   R$  000000000139400000000013970000000001373000000000138400000000013820000000001381000000000138710055000000000004327000000000005991470400000000000000009999123100000010000000000000BRCCROACNOR2144
012024032802CEAB3       010CEA MODAS   ON  ATZ NM   R$  000000000102400000000010780000000001019000000000105500000000010640000000001064000000000106709831000000000005263200000000005555526900000000000000009999123100000010000000000000BRCEABACNOR1102
012024032802CEBR3       010CEB         ON           R$  000000000216000000000022000000000002080000000000212300000000021200000000002097000000000219400062000000000000009900000000000021020500000000000000009999123100000010000000000000BRCEBRACNOR5124
012024032802CEBR5       010CEB         PNA          R$  000000000190000000000019000000000001861000000000187300000000018750000000001861000000000187500042000000000000010200000000000019106200000000000000009999123100000010000000000000BRCEBRACNPA8123
012024032802BRAP4       010BRADESPAR   PN      N1   R$  000000000205000000000020650000000002033000000000204800000000020590000000002058000000000205907547000000000004138200000000008478337200000000000000009999123100000010000000000000BRBRAPACNPR2147
012024032802CRFB3       010CARREFOUR BRON      NM   R$  000000000138500000000013850000000001346000000000136200000000013630000000001363000000000136412114000000000007888400000000010751199100000000000000009999123100000010000000000000BRCRFBACNOR2116
012024032802CRPG5       010CRISTAL     PNA          R$  000000000325600000000032800000000003225000000000324200000000032310000000003231000000000324900024000000000000004300000000000013942500000000000000009999123100000010000000000000BRCRPGACNPA3118
012024032802CRPG6       010CRISTAL     PNB          R$  000000000331200000000033120000000003312000000000331200000000033120000000003275000000000331800003000000000000000600000000000001987200000000000000009999123100000010000000000000BRCRPGACNPB1118
012024032802CSAN3       010COSAN       ON      NM   R$  000000000162200000000016510000000001598000000000161700000000016200000000001620000000000162120809000000000013004200000000021034361700000000000000009999123100000010000000000000BRCSANACNOR6124
012024032802ENGI11      010ENERGISA    UNT     N2   R$  000000000476800000000048100000000004758000000000479200000000047870000000004787000000000478908176000000000001891300000000009064851200000000000000009999123100000010000000000000BRENGICDAM16135
012024032802ENGI3       010ENERGISA    ON      N2   R$  000000000153000000000015420000000001520000000000153100000000015340000000001528000000000154000028000000000000004700000000000007199700000000000000009999123100000010000000000000BRENGIACNOR0145
012024032802ENGI4       010ENERGISA    PN      N2   R$  000000000081400000000008180000000000810000000000081400000000008180000000000812000000000081800028000000000000005300000000000004315200000000000000009999123100000010000000000000BRENGIACNPR7141
012024032802ENJU3       010ENJOEI      ON      NM   R$  000000000016100000000001800000000000158000000000017300000000001770000000000174000000000017701832000000000001898000000000000329022300000000000000009999123100000010000000000000BRENJUACNOR9100
012024032802ENMT3       010ENERGISA MT ON           R$  000000000770000000000077000000000007700000000000770000000000077000000000007500000000000000000001000000000000000100000000000000770000000000000000009999123100000010000000000000BRENMTACNOR5120
012024032802EPAR3       010EMBPAR S/A  ON           R$  000000000080100000000008250000000000801000000000081500000000008250000000000813000000000082500036000000000000012100000000000009873400000000000000009999123100000010000000000000BREPARACNOR9104
012024032802EQMA3B      010EQTLMARANHAOON      MB   R$  000000000290100000000029450000000002861000000000290200000000029450000000002882000000000291900003000000000000000300000000000000870700000000000000009999123100000010000000000000BREQMAACNOR8107
012024032802EQPA3       010EQTL PARA   ON           R$  000000000079400000000007940000000000725000000000075600000000007940000000000756000000000079400092000000000000020800000000000015744600000000000000009999123100000010000000000000BREQPAACNOR1110
012024032802EQTL3       010EQUATORIAL  ON      NM   R$  000000000328400000000032890000000003200000000000323900000000032550000000003254000000000326028303000000000012153800000000039374059400000000000000009999123100000010000000000000BREQTLACNOR0129
012024032802ESPA3       010ESPACOLASER ON      NM   R$  000000000010000000000001030000000000100000000000010100000000001020000000000102000000000010300272000000000000298400000000000030362000000000000000009999123100000010000000000000BRESPAACNOR7103
012024032802ESTR4       010ESTRELA     PN           R$  000000000019200000000001920000000000190000000000019000000000001900000000000190000000000022000003000000000000000600000000000000114200000000000000009999123100000010000000000000BRESTRACNPR0144
012024032802EUCA3       010EUCATEX     ON      N1   R$  000000000169000000000016900000000001689000000000168900000000016900000000001676000000000168900004000000000000000400000000000000675900000000000000009999123100000010000000000000BREUCAACNOR1157
012024032802EUCA4       010EUCATEX     PN      N1   R$  000000000173700000000017370000000001664000000000170000000000017250000000001716000000000172500371000000000000083600000000000142174800000000000000009999123100000010000000000000BREUCAACNPR8044
012024032802BPAC11      010BTGP BANCO  UNT     N2   R$  000000000370600000000037100000000003643000000000366100000000036430000000003643000000000364417680000000000006392500000000023405765800000000000000009999123100000010000000000000BRBPACUNT006118
012024032802BPAC3       010BTGP BANCO  ON      N2   R$  000000000181200000000018390000000001800000000000182000000000018000000000001800000000000181700020000000000000002100000000000003822400000000000000009999123100000010000000000000BRBPACACNOR7133
012024032802BPAC5       010BTGP BANCO  PNA     N2   R$  000000000093200000000009320000000000919000000000092700000000009320000000000919000000000094000024000000000000004300000000000003986200000000000000009999123100000010000000000000BRBPACACNPA0133
012024032802BPAN4       010BANCO PAN   PN      N1   R$  000000000098600000000009860000000000945000000000095500000000009520000000000949000000000095204054000000000006014400000000005747073100000000000000009999123100000010000000000000BRBPANACNPR1115
012024032802BRAP3       010BRADESPAR   ON      N1   R$  000000000199500000000019960000000001977000000000198600000000019960000000001994000000000199600457000000000000084700000000000168237000000000000000009999123100000010000000000000BRBRAPACNOR5147
012024032802B3SA3       010B3          ON  EJ  NM   R$  000000000119800000000012130000000001193000000000120200000000011990000000001199000000000120221855000000000020303900000000024416000700000000000000009999123100000010000000000000BRB3SAACNOR6132
012024032802BEEF3       010MINERVA     ON      NM   R$  000000000067400000000006830000000000668000000000067600000000006750000000000675000000000067608507000000000009861200000000006668553900000000000000009999123100000010000000000000BRBEEFACNOR6116
012024032802BEES3       010BANESTES    ON           R$  000000000086300000000008650000000000860000000000086200000000008650000000000862000000000087000075000000000000011300000000000009746500000000000000009999123100000010000000000000BRBEESACNOR9388
012024032802BEES4       010BANESTES    PN           R$  000000000098500000000009980000000000985000000000099200000000009980000000000990000000000099800026000000000000003200000000000003177000000000000000009999123100000010000000000000BRBEESACNPR6313
012024032802MATD3       010MATER DEI   ON      NM   R$  000000000060700000000006070000000000571000000000058700000000005840000000000584000000000059001703000000000000532900000000000313117700000000000000009999123100000010000000000000BRMATDACNOR4103
012024032802MBLY3       010MOBLY       ON      NM   R$  000000000021100000000002190000000000209000000000021400000000002150000000000215000000000021602152000000000001454100000000000312351100000000000000009999123100000010000000000000BRMBLYACNOR5100
012024032802DXCO3       010DEXCO       ON      NM   R$  000000000077800000000007780000000000766000000000076900000000007680000000000768000000000077305235000000000002125700000000001636214700000000000000009999123100000010000000000000BRDXCOACNOR8105
012024032802DASA3       010DASA        ON      NM   R$  000000000068900000000006950000000000603000000000062700000000006130000000000613000000000061403023000000000001415100000000000887626300000000000000009999123100000010000000000000BRDASAACNOR1122
012024032802DESK3       010DESKTOP     ON      NM   R$  000000000150000000000015220000000001489000000000151300000000015220000000001522000000000152300793000000000000151000000000000228477800000000000000009999123100000010000000000000BRDESKACNOR2103
012024032802CEBR6       010CEB         PNB          R$  000000000215100000000021540000000002075000000000209700000000020750000000002075000000000211500046000000000000009100000000000019085100000000000000009999123100000010000000000000BRCEBRACNPB6123
012024032802CEDO3       010CEDRO       ON      N1   R$  000000000390000000000042200000000003300000000000351500000000035000000000003550000000000370000010000000000000001800000000000006327000000000000000009999123100000010000000000000BRCEDOACNOR8096
012024032802CEDO4       010CEDRO       PN      N1   R$  000000000307400000000030810000000002800000000000286800000000028000000000002800000000000284000054000000000000006900000000000019795800000000000000009999123100000010000000000000BRCEDOACNPR5128
012024032802CEEB3       010COELBA      ON  EJ       R$  000000000394800000000039740000000003913000000000394300000000039130000000003911000000000397400010000000000000001000000000000003943600000000000000009999123100000010000000000000BRCEEBACNOR3197
012024032802CGAS3       010COMGAS      ON           R$  000000001220000000000128000000000012200000000001248600000000125500000000012550000000001265000012000000000000001500000000000018729700000000000000009999123100000010000000000000BRCGASACNOR0162
012024032802CGAS5       010COMGAS      PNA          R$  000000001300000000000131000000000012700000000001296200000000129010000000012900000000001300000088000000000000012400000000000160734500000000000000009999123100000010000000000000BRCGASACNPA3159
012024032802CGRA3       010GRAZZIOTIN  ON           R$  000000000269800000000027000000000002635000000000268000000000026990000000002613000000000277900018000000000000001800000000000004825300000000000000009999123100000010000000000000BRCGRAACNOR2081
012024032802CGRA4       010GRAZZIOTIN  PN           R$  000000000285000000000028500000000002800000000000281700000000028200000000002820000000000282900018000000000000003700000000000010424600000000000000009999123100000010000000000000BRCGRAACNPR9081
012024032802CIEL3       010CIELO       ON      NM   R$  000000000053700000000005420000000000527000000000053400000000005400000000000539000000000054012565000000000020039000000000010711284400000000000000009999123100000010000000000000BRCIELACNOR3157
012024032802BAZA3       010AMAZONIA    ON           R$  000000001019700000000102000000000010000000000001012800000000101000000000010100000000001020000023000000000000002800000000000028359600000000000000009999123100000010000000000000BRBAZAACNOR0178
012024032802BBAS3       010BRASIL      ON      NM   R$  000000000557600000000056880000000005565000000000565500000000056620000000005662000000000566322033000000000008536800000000048281907500000000000000009999123100000010000000000000BRBBASACNOR3321
012024032802BRIT3       010BRISANET    ON      NM   R$  000000000044100000000004620000000000438000000000045000000000004500000000000449000000000045001632000000000000879400000000000396570000000000000000009999123100000010000000000000BRBRITACNOR0102
012024032802BRIV4       010ALFA INVEST PN           R$  000000000125400000000012540000000001254000000000125400000000012540000000001254000000000129900001000000000000000700000000000000877800000000000000009999123100000010000000000000BRBRIVACNPR3218
012024032802BRKM3       010BRASKEM     ON      N1   R$  000000000264900000000026490000000002561000000000261300000000025640000000002570000000000258800117000000000000019200000000000050178800000000000000009999123100000010000000000000BRBRKMACNOR1119
012024032802BRKM5       010BRASKEM     PNA     N1   R$  000000000273000000000027300000000002629000000000266400000000026400000000002639000000000264311006000000000004619500000000012306547300000000000000009999123100000010000000000000BRBRKMACNPA4121
012024032802CSRN3       010COSERN      ON  EJ       R$  000000000259300000000025950000000002400000000000245000000000024000000000002360000000000242800020000000000000002200000000000005392100000000000000009999123100000010000000000000BRCSRNACNOR0191
012024032807NUTR3       010NUTRIPLANT  ON      MA   R$  000000000056000000000005700000000000525000000000054600000000005410000000000530000000000054000109000000000000017400000000000009509000000000000000009999123100000010000000000000BRNUTRACNOR0104
012024032807TXRX3       010TEX RENAUX  ON           R$  000000000075000000000007500000000000750000000000075000000000007500000000000200000000000109900001000000000000000100000000000000075000000000000000009999123100000010000000000000BRTXRXACNOR3142
012024032807TXRX4       010TEX RENAUX  PN           R$  000000000025900000000002660000000000259000000000026100000000002660000000000259000000000026600002000000000000000300000000000000078400000000000000009999123100000010000000000000BRTXRXACNPR0142
012024032808NEXP3       010NEXPE       ON      NM   R$  000000000047400000000004740000000000441000000000045500000000004560000000000449000000000045600035000000000000015400000000000007009800000000000000009999123100000010000000000000BRNEXPACNOR0101
012024032808PMAM3       010PARANAPANEMAON      NM   R$  000000000033500000000003420000000000330000000000033700000000003380000000000336000000000033800095000000000002326700000000000786368000000000000000009999123100000010000000000000BRPMAMACNOR3038
012024032808RSID3       010ROSSI RESID ON      NM   R$  000000000038900000000004000000000000378000000000038900000000004000000000000385000000000040000105000000000000012600000000000004904500000000000000009999123100000010000000000000BRRSIDACNOR8120
012024032808JFEN3       010JOAO FORTES ON           R$  000000000026700000000002740000000000217000000000024800000000002400000000000240000000000024300711000000000000419100000000000104060400000000000000009999123100000010000000000000BRJFENACNOR0058
012024032808ATMP3       010ATMASA      ON           R$  000000000021700000000002170000000000210000000000021300000000002160000000000212000000000021600050000000000000016000000000000003417800000000000000009999123100000010000000000000BRATMPACNOR8100
012024032808AMER3       010AMERICANAS  ON      NM   R$  000000000005500000000000670000000000054000000000006100000000000650000000000064000000000006511125000000000069446600000000004242125700000000000000009999123100000010000000000000BRAMERACNOR6101
012024032808LIGT3       010LIGHT S/A   ON      NM   R$  000000000051500000000005270000000000514000000000052100000000005160000000000516000000000052301086000000000000367300000000000191647500000000000000009999123100000010000000000000BRLIGTACNOR2124
012024032808OIBR3       010OI          ON      N1   R$  000000000006600000000000670000000000064000000000006500000000000660000000000065000000000006603768000000000021551500000000001411903700000000000000009999123100000010000000000000BROIBRACNOR1110
012024032808OIBR4       010OI          PN      N1   R$  000000000018800000000001900000000000186000000000018800000000001890000000000189000000000019000226000000000000124900000000000023483400000000000000009999123100000010000000000000BROIBRACNPR8109
012024032808OSXB3       010OSX BRASIL  ON      NM   R$  000000000040700000000004270000000000405000000000041200000000004190000000000407000000000041900022000000000000003900000000000001610600000000000000009999123100000010000000000000BROSXBACNOR8109
012024032808FRTA3       010POMIFRUTAS  ON      NM   R$  000000000013600000000001380000000000133000000000013500000000001340000000000133000000000013400019000000000000004300000000000000581500000000000000009999123100000010000000000000BRFRTAACNOR8103
012024032808RNEW11      010RENOVA      UNT     N2   R$  000000000035500000000003600000000000352000000000035800000000003600000000000351000000000036000020000000000000022600000000000008100700000000000000009999123100000010000000000000BRRNEWCDAM15110
012024032808RNEW3       010RENOVA      ON      N2   R$  000000000011800000000001200000000000116000000000011800000000001180000000000118000000000011900110000000000000063800000000000007579800000000000000009999123100000010000000000000BRRNEWACNOR8110
012024032808RNEW4       010RENOVA      PN      N2   R$  000000000011900000000001210000000000118000000000011900000000001200000000000120000000000012100122000000000000077000000000000009189300000000000000009999123100000010000000000000BRRNEWACNPR5110
012024032808RPMG3       010PET MANGUINHON           R$  000000000020900000000002090000000000206000000000020700000000002080000000000208000000000020900015000000000000001900000000000000393500000000000000009999123100000010000000000000BRRPMGACNOR9194
012024032808ETER3       010ETERNIT     ON      NM   R$  000000000071000000000007250000000000710000000000072000000000007240000000000716000000000072400459000000000000109400000000000078794700000000000000009999123100000010000000000000BRETERACNOR3243
012024032808BDLL4       010BARDELLA    PN           R$  000000000075000000000007500000000000750000000000075000000000007500000000000701000000000076500001000000000000000100000000000000075000000000000000009999123100000010000000000000BRBDLLACNPR8151
012024032810ABCB10      010ABC BRASIL  PN  REC N2   R$  000000000243300000000024470000000002433000000000243400000000024470000000002000000000000250000006000000000000001300000000000003164300000000000000009999123100000010000000000000BRABCBR19PR1144
012024032810GFSA1       010GAFISA      DIR ORD NM   R$  000000000000300000000000040000000000003000000000000300000000000040000000000003000000000000400131000000000000434100000000000001375100000000000000009999123100000010000000000000BRGFSAD10OR9123
012024032810DMFN1       010DMFINANCEIRADIR ORD      R$  000000000003600000000000880000000000020000000000004000000000000200000000000020000000000004800097000000000000037600000000000001514800000000000000009999123100000010000000000000BRDMFND01OR1101
012024032812NEWL11      010FII NEWPORT CI           R$  000000001168500000000116850000000011650000000001167400000000116830000000011650000000001168300153000000000000035137000000000410189866000000000000009999123100000010000000000000BRNEWLCTF004152
012024032812NEWU11      010FII NEWRU   CI           R$  000000000758800000000075880000000007588000000000758800000000075880000000007588000000000780000001000000000000000001000000000000007588000000000000009999123100000010000000000000BRNEWUCTF005118
012024032812NSLU11      010FII LOURDES CI           R$  000000001928700000000194070000000019205000000001931100000000193940000000019252000000001939400123000000000000000222000000000004287154000000000000009999123100000010000000000000BRNSLUCTF008308
012024032812SPTW11      010FII SP DOWNTCI           R$  000000000442000000000044400000000004420000000000443900000000044400000000004438000000000444000146000000000000001968000000000008736451000000000000009999123100000010000000000000BRSPTWCTF002232
012024032812SPXS11      010FII SPX SYN CI           R$  000000000094000000000009470000000000939000000000094300000000009470000000000943000000000094704368000000000000063203000000000059613575000000000000009999123100000010000000000000BRSPXSCTF002121
012024032812PRSN11      010FII PERSONALCI           R$  000000000010900000000001130000000000109000000000011000000000001130000000000110000000000011200002000000000000000010000000000000001102000000000000009999123100000010000000000000BRPRSNCTF005124
012024032812PRSV11      010FII P VARGASCI           R$  000000000721000000000072690000000006901000000000701500000000070940000000006984000000000709000006000000000000000018000000000000126287000000000000009999123100000010000000000000BRPRSVCTF008225
012024032812SNCI11      010FII SUNO CRICI           R$  000000000975000000000097900000000009706000000000974600000000097390000000009735000000000973900679000000000000005891000000000057416865000000000000009999123100000010000000000000BRSNCICTF002133
012024032812SNEL11      010FII SUNO EL CI           R$  000000001418000000000144200000000014010000000001411900000000140100000000014008000000001401000313000000000000003333000000000047059779000000000000009999123100000010000000000000BRSNELCTF010105
012024032812SNFF11      010FII SUNOFOFICI           R$  000000000878000000000089000000000008780000000000882500000000088980000000008862000000000889600447000000000000004056000000000035795342000000000000009999123100000010000000000000BRSNFFCTF001135
012024032812SNLG11      010FII SUNO LG CI           R$  000000000241800000000024480000000002399000000000240800000000023990000000002399000000000241100319000000000000004159000000000010016698000000000000009999123100000010000000000000BRSNLGCTF007103
012024032812SNME11      010FII SNME    CI           R$  000000000099100000000009960000000000984000000000099400000000009950000000000986000000000099500106000000000000009380000000000009325803000000000000009999123100000010000000000000BRSNMECTF000104
012024032812PORD11      010FII POLO CRICI           R$  000000000916300000000092700000000009163000000000923400000000092550000000009255000000000926000704000000000000007652000000000070663811000000000000009999123100000010000000000000BRPORDCTF005170
012024032812PQAG11      010FII PARQ ANHCI           R$  000000000587500000000058750000000005850000000000585100000000058750000000005849000000000596000010000000000000062844000000000367712748000000000000009999123100000010000000000000BRPQAGCTF009145
012024032812PQDP11      010FII D PEDRO CI           R$  000000019980000000002022990000000199800000000020019200000001999020000000196501000000020020000019000000000000000039000000000007807497000000000000009999123100000010000000000000BRPQDPCTF004268
012024032812SCPF11      010FII SCP     CI           R$  000000000039400000000003940000000000391000000000039300000000003940000000000392000000000039400065000000000000000512000000000000201389000000000000009999123100000010000000000000BRSCPFCTF003302
012024032812SEQR11      010FII SEQUOIA CI           R$  000000000568000000000056990000000005666000000000568100000000056810000000005685000000000569100716000000000000001646000000000009352079000000000000009999123100000010000000000000BRSEQRCTF002140
012024032812SHPH11      010FII HIGIENOPCI           R$  000000008850000000000885000000000088500000000008850000000000885000000000088600000000008984900001000000000000000001000000000000088500000000000000009999123100000010000000000000BRSHPHCTF008347
012024032812SIGR11      010FII SIG CAP CI           R$  000000000990000000000099000000000009900000000000990000000000099000000000008310000000000000000003000000000000000008000000000000079200000000000000009999123100000010000000000000BRSIGRCTF004117
012024032812SJAU11      010FII SJ AU   CI           R$  000000000660600000000066060000000006602000000000660300000000066020000000006602000000000699800003000000000000000021000000000000138667000000000000009999123100000010000000000000BRSJAUCTF009101
012024032812PLCR11      010FII PLURAL RCI           R$  000000000907100000000091000000000009044000000000907300000000091000000000009077000000000910000623000000000000004372000000000039670041000000000000009999123100000010000000000000BRPLCRCTF003152
012024032812PLRI11      010FII POLO I  CI           R$  000000000141300000000014240000000001413000000000142100000000014210000000001425000000000149400007000000000000000060000000000000085308000000000000009999123100000010000000000000BRPLRICTF000241
012024032812PMIS11      010FII PMIS    CI           R$  000000000094600000000009550000000000920000000000094400000000009430000000000920000000000094301150000000000000014442000000000013635928000000000000009999123100000010000000000000BRPMISCTF006103
012024032812SADI11      010FII SANT PAPCI           R$  000000000894900000000090640000000008948000000000901300000000090640000000009041000000000906400148000000000000002291000000000020650982000000000000009999123100000010000000000000BRSADICTF007156
012024032812SAPI11      010FII SAPI    CI           R$  000000000897000000000090660000000008925000000000897300000000090660000000009020000000000906601190000000000000007031000000000063089474000000000000009999123100000010000000000000BRSAPICTF001105
012024032812SARE11      010FII SANT RENCI           R$  000000000448000000000047990000000004476000000000463100000000046850000000004684000000000468504581000000000000061596000000000285305725000000000000009999123100000010000000000000BRSARECTF006153
