00COTAHIST.2024BOVESPA 20240202                                                                                                                                                                                                                      
012024020202TUPY3       010TUPY        ON      NM   R$  000000000260400000000026200000000002539000000000255800000000025400000000002540000000000255603724000000000000650300000000001663835000000000000000009999123100000010000000000000BRTUPYACNOR1183
012024020202RADL3       010RAIADROGASILON      NM   R$  000000000250400000000025160000000002463000000000247800000000024860000000002485000000000248624961000000000010577900000000026215316600000000000000009999123100000010000000000000BRRADLACNOR0154
012024020202RAIL3       010RUMO S.A.   ON      NM   R$  000000000230400000000023200000000002277000000000229000000000022840000000002284000000000228518947000000000005983200000000013705360900000000000000009999123100000010000000000000BRRAILACNOR9104
012024020202SYNE3       010SYN PROP TECON      NM   R$  000000000046200000000004710000000000451000000000045800000000004510000000000451000000000045500505000000000000222300000000000101975000000000000000009999123100000010000000000000BRSYNEACNOR2102
012024020202TAEE11      010TAESA       UNT     N2   R$  000000000370000000000037100000000003652000000000366300000000036530000000003653000000000366007446000000000001629700000000005970892100000000000000009999123100000010000000000000BRTAEECDAM10145
012024020202TAEE3       010TAESA       ON      N2   R$  000000000121500000000012230000000001208000000000121200000000012090000000001208000000000121300540000000000000081500000000000098834500000000000000009999123100000010000000000000BRTAEEACNOR9145
012024020202TAEE4       010TAESA       PN      N2   R$  000000000124000000000012430000000001223000000000122800000000012260000000001226000000000122900657000000000000162600000000000199821700000000000000009999123100000010000000000000BRTAEEACNPR6145
012024020202TASA3       010TAURUS ARMASON      N2   R$  000000000144000000000014400000000001426000000000143300000000014310000000001430000000000143600073000000000000014500000000000020788800000000000000009999123100000010000000000000BRTASAACNOR7103
012024020202TASA4       010TAURUS ARMASPN      N2   R$  000000000143700000000014480000000001421000000000142800000000014300000000001429000000000143002129000000000000406700000000000581010300000000000000009999123100000010000000000000BRTASAACNPR4103
012024020202TCSA3       010TECNISA     ON      NM   R$  000000000030100000000003070000000000292000000000030100000000002980000000000297000000000030000184000000000000090500000000000027302300000000000000009999123100000010000000000000BRTCSAACNOR3112
012024020202TECN3       010TECHNOS     ON  ED  NM   R$  000000000034900000000003490000000000334000000000033800000000003370000000000337000000000034200564000000000000297500000000000100802200000000000000009999123100000010000000000000BRTECNACNOR6109
012024020202TELB3       010TELEBRAS    ON           R$  000000000146100000000014890000000001461000000000147900000000014800000000001470000000000149500005000000000000001400000000000002071900000000000000009999123100000010000000000000BRTELBACNOR2140
012024020202TELB4       010TELEBRAS    PN           R$  000000000111800000000011330000000001110000000000111800000000011290000000001105000000000113000014000000000000004600000000000005142900000000000000009999123100000010000000000000BRTELBACNPR9140
012024020202TEND3       010TENDA       ON      NM   R$  000000000099200000000010070000000000942000000000096000000000009570000000000956000000000095808951000000000003311100000000003180914500000000000000009999123100000010000000000000BRTENDACNOR4111
012024020202KRSA3       010KORA SAUDE  ON      NM   R$  000000000010100000000001040000000000098000000000010000000000000990000000000098000000000009900225000000000000211700000000000021233200000000000000009999123100000010000000000000BRKRSAACNOR0100
012024020202AURE3       010AUREN       ON      NM   R$  000000000129700000000013030000000001285000000000129100000000012860000000001286000000000128708392000000000004354400000000005624642900000000000000009999123100000010000000000000BRAUREACNOR9103
012024020202AZEV3       010AZEVEDO     ON           R$  000000000015400000000001560000000000150000000000015200000000001500000000000150000000000015200464000000000000374100000000000056877800000000000000009999123100000010000000000000BRAZEVACNOR0121
012024020202AZEV4       010AZEVEDO     PN           R$  000000000014600000000001470000000000142000000000014400000000001430000000000143000000000014401382000000000001401500000000000201942000000000000000009999123100000010000000000000BRAZEVACNPR7121
012024020202AZUL4       010AZUL        PN      N2   R$  000000000140700000000014230000000001343000000000137000000000013730000000001372000000000137420314000000000017677200000000024226978300000000000000009999123100000010000000000000BRAZULACNPR4102
012024020202BEEF3       010MINERVA     ON      NM   R$  000000000067500000000006800000000000668000000000067400000000006760000000000675000000000067608758000000000005617200000000003787863500000000000000009999123100000010000000000000BRBEEFACNOR6116
012024020202BPAC11      010BTGP BANCO  UNT     N2   R$  000000000367600000000037080000000003615000000000365800000000036670000000003666000000000367527224000000000008178700000000029922377400000000000000009999123100000010000000000000BRBPACUNT006118
012024020202BPAC3       010BTGP BANCO  ON      N2   R$  000000000177900000000018200000000001758000000000179200000000018200000000001730000000000182000051000000000000006700000000000012007000000000000000009999123100000010000000000000BRBPACACNOR7133
012024020202BPAC5       010BTGP BANCO  PNA     N2   R$  000000000094700000000009500000000000918000000000092300000000009200000000000920000000000092900077000000000000020000000000000018472600000000000000009999123100000010000000000000BRBPACACNPA0133
012024020202BPAN4       010BANCO PAN   PN      N1   R$  000000000079900000000008410000000000795000000000082200000000008370000000000836000000000083704533000000000002477100000000002036713300000000000000009999123100000010000000000000BRBPANACNPR1115
012024020202CPFE3       010CPFL ENERGIAON      NM   R$  000000000363700000000036460000000003502000000000354600000000035630000000003563000000000357816860000000000004639400000000016452560100000000000000009999123100000010000000000000BRCPFEACNOR0136
012024020202CPLE3       010COPEL       ON      N2   R$  000000000091000000000009130000000000893000000000090000000000009000000000000900000000000090404890000000000005213500000000004697195100000000000000009999123100000010000000000000BRCPLEACNOR8148
012024020202CPLE5       010COPEL       PNA     N2   R$  000000000235000000000023500000000002205000000000228100000000023500000000002252000000000245000015000000000000001500000000000003422000000000000000009999123100000010000000000000BRCPLEACNPA1146
012024020202CPLE6       010COPEL       PNB     N2   R$  000000000102600000000010300000000001000000000000100700000000010060000000001006000000000100917956000000000013804100000000013901826000000000000000009999123100000010000000000000BRCPLEACNPB9145
012024020202CRFB3       010CARREFOUR BRON      NM   R$  000000000107100000000011100000000001069000000000108600000000010910000000001090000000000109418852000000000011146200000000012110777200000000000000009999123100000010000000000000BRCRFBACNOR2116
012024020202ENJU3       010ENJOEI      ON      NM   R$  000000000016300000000001650000000000155000000000015700000000001550000000000155000000000015700317000000000000311800000000000049213000000000000000009999123100000010000000000000BRENJUACNOR9100
012024020202ENMT3       010ENERGISA MT ON           R$  000000000753000000000075300000000006900000000000712600000000073000000000007000000000000000000036000000000000003600000000000025654500000000000000009999123100000010000000000000BRENMTACNOR5119
012024020202EPAR3       010EMBPAR S/A  ON           R$  000000000097000000000009700000000000960000000000096600000000009600000000000940000000000096000035000000000000009600000000000009275000000000000000009999123100000010000000000000BREPARACNOR9104
012024020202EQMA3B      010EQTLMARANHAOON      MB   R$  000000000284800000000028880000000002848000000000286400000000028880000000002801000000000288800005000000000000000500000000000001432100000000000000009999123100000010000000000000BREQMAACNOR8107
012024020202EQPA3       010EQTL PARA   ON           R$  000000000077600000000008000000000000775000000000078900000000008000000000000778000000000080000016000000000000003600000000000002843200000000000000009999123100000010000000000000BREQPAACNOR1110
012024020202EQPA5       010EQTL PARA   PNA          R$  000000000075000000000007500000000000750000000000075000000000007500000000000750000000000100000001000000000000000100000000000000075000000000000000009999123100000010000000000000BREQPAACNPA4110
012024020202EQPA6       010EQTL PARA   PNB          R$  000000000090000000000009110000000000900000000000090300000000009110000000000911000000000100000003000000000000000300000000000000271100000000000000009999123100000010000000000000BREQPAACNPB2110
012024020202CTNM3       010COTEMINAS   ON           R$  000000000088500000000009460000000000885000000000091000000000009460000000000820000000000090000003000000000000000300000000000000273100000000000000009999123100000010000000000000BRCTNMACNOR9130
012024020202CTNM4       010COTEMINAS   PN           R$  000000000014800000000001480000000000142000000000014400000000001420000000000142000000000014400085000000000000039200000000000005646900000000000000009999123100000010000000000000BRCTNMACNPR6129
012024020202CTSA3       010SANTANENSE  ON           R$  000000000040900000000004090000000000380000000000038400000000003820000000000382000000000039300026000000000000006300000000000002423900000000000000009999123100000010000000000000BRCTSAACNOR3062
012024020202CTSA4       010SANTANENSE  PN           R$  000000000018900000000001910000000000176000000000018200000000001770000000000177000000000018200140000000000000038400000000000007005700000000000000009999123100000010000000000000BRCTSAACNPR0062
012024020202CURY3       010CURY S/A    ON      NM   R$  000000000184300000000018680000000001768000000000181600000000018230000000001822000000000183709790000000000002772600000000005036677800000000000000009999123100000010000000000000BRCURYACNOR3107
012024020202CVCB3       010CVC BRASIL  ON      NM   R$  000000000030600000000003170000000000297000000000030500000000003030000000000303000000000030412048000000000025168000000000007685824100000000000000009999123100000010000000000000BRCVCBACNOR1115
012024020202CXSE3       010CAIXA SEGURION      NM   R$  000000000142500000000014340000000001406000000000142100000000014270000000001426000000000142709897000000000002700900000000003839028200000000000000009999123100000010000000000000BRCXSEACNOR7105
012024020202CYRE3       010CYRELA REALTON      NM   R$  000000000226200000000022760000000002199000000000223700000000022520000000002252000000000225519301000000000005553100000000012427774800000000000000009999123100000010000000000000BRCYREACNOR7139
012024020202GGPS3       010GPS         ON      NM   R$  000000000192900000000019290000000001856000000000188100000000018650000000001851000000000186506215000000000002891900000000005442082700000000000000009999123100000010000000000000BRGGPSACNOR9102
012024020202GMAT3       010GRUPO MATEUSON      NM   R$  000000000068200000000007030000000000675000000000069100000000007030000000000699000000000070307639000000000005316300000000003673843200000000000000009999123100000010000000000000BRGMATACNOR7100
012024020202GOAU3       010GERDAU MET  ON      N1   R$  000000000101400000000010350000000001014000000000102600000000010210000000001021000000000102600239000000000000051900000000000053265700000000000000009999123100000010000000000000BRGOAUACNOR1265
012024020202GOAU4       010GERDAU MET  PN      N1   R$  000000000099900000000010160000000000996000000000100300000000010000000000001000000000000100112341000000000009763800000000009796897300000000000000009999123100000010000000000000BRGOAUACNPR8266
012024020202LVTC3       010WDC NETWORKSON      NM   R$  000000000039100000000003980000000000380000000000039400000000003980000000000388000000000039800114000000000000032000000000000012610700000000000000009999123100000010000000000000BRLVTCACNOR4102
012024020202LWSA3       010LWSA        ON      NM   R$  000000000055600000000005630000000000533000000000054200000000005340000000000534000000000053613835000000000009141800000000004955948700000000000000009999123100000010000000000000BRLWSAACNOR8103
012024020202MAPT4       010CEMEPE      PN           R$  000000000099800000000009980000000000998000000000099800000000009980000000000920000000000099800001000000000000000100000000000000099800000000000000009999123100000010000000000000BRMAPTACNPR5106
012024020202MATD3       010MATER DEI   ON      NM   R$  000000000064400000000006480000000000629000000000063600000000006480000000000638000000000064801251000000000000211300000000000134585200000000000000009999123100000010000000000000BRMATDACNOR4103
012024020202MBLY3       010MOBLY       ON      NM   R$  000000000021200000000002130000000000202000000000020700000000002050000000000205000000000020601048000000000000631600000000000130784700000000000000009999123100000010000000000000BRMBLYACNOR5100
012024020202MDIA3       010M.DIASBRANCOON      NM   R$  000000000385400000000039090000000003823000000000386100000000038590000000003849000000000387002455000000000000468700000000001810044100000000000000009999123100000010000000000000BRMDIAACNOR7133
012024020202MDNE3       010MOURA DUBEUXON      NM   R$  000000000115100000000011800000000001114000000000113900000000011270000000001126000000000112703690000000000001080700000000001231961900000000000000009999123100000010000000000000BRMDNEACNOR9100
012024020202MEAL3       010IMC S/A     ON      NM   R$  000000000018000000000001810000000000175000000000017800000000001800000000000178000000000018001158000000000001011000000000000180087700000000000000009999123100000010000000000000BRMEALACNOR9105
012024020202MELK3       010MELNICK     ON      NM   R$  000000000042800000000004380000000000418000000000042400000000004320000000000428000000000043200356000000000000153200000000000065021300000000000000009999123100000010000000000000BRMELKACNOR8110
012024020202MERC4       010MERC FINANC PN  EDJ      R$  000000000094000000000011000000000000940000000000101300000000011000000000001100000000000116000003000000000000000300000000000000304000000000000000009999123100000010000000000000BRMERCACNPR9180
012024020202MGEL4       010MANGELS INDLPN           R$  000000000139900000000013990000000001398000000000139800000000013980000000001334000000000139000002000000000000006600000000000009226900000000000000009999123100000010000000000000BRMGELACNPR3147
012024020202MGLU3       010MAGAZ LUIZA ON  ES  NM   R$  000000000020600000000002090000000000197000000000020100000000001970000000000197000000000019828895000000000131497100000000026437490400000000000000009999123100000010000000000000BRMGLUACNOR2123
012024020202BAHI3       010BAHEMA      ON      MA   R$  000000000079500000000007950000000000795000000000079500000000007950000000000785000000000079900001000000000000000100000000000000079500000000000000009999123100000010000000000000BRBAHIACNOR1074
012024020202BALM4       010BAUMER      PN           R$  000000000100500000000010050000000001000000000000100100000000010000000000000975000000000102500004000000000000000900000000000000901000000000000000009999123100000010000000000000BRBALMACNPR2056
012024020202BAZA3       010AMAZONIA    ON           R$  000000000901300000000091000000000009013000000000906400000000090750000000009050000000000915700011000000000000001600000000000014503100000000000000009999123100000010000000000000BRBAZAACNOR0178
012024020202BBAS3       010BRASIL      ON      NM   R$  000000000577000000000057870000000005714000000000574200000000057720000000005770000000000577329214000000000007484500000000042981486300000000000000009999123100000010000000000000BRBBASACNOR3319
012024020202BRGE11      010ALFA CONSORCPNE ED       R$  000000000115000000000011810000000001150000000000117100000000011810000000001155000000000118100008000000000000004300000000000005038500000000000000009999123100000010000000000000BRBRGEACNPE1112
012024020202BRGE5       010ALFA CONSORCPNA ED       R$  000000000116000000000011600000000001160000000000116000000000011600000000001170000000000119900001000000000000000500000000000000580000000000000000009999123100000010000000000000BRBRGEACNPA9218
012024020202BRGE8       010ALFA CONSORCPND ED       R$  000000000116500000000011810000000001165000000000117200000000011810000000001168000000000118100007000000000000005100000000000005978200000000000000009999123100000010000000000000BRBRGEACNPD3221
012024020202BRIT3       010BRISANET    ON      NM   R$  000000000030500000000003080000000000291000000000029900000000003070000000000303000000000030702262000000000000673000000000000201668900000000000000009999123100000010000000000000BRBRITACNOR0102
012024020202BRIV3       010ALFA INVEST ON           R$  000000000110800000000011140000000001108000000000111300000000011140000000001114000000000112200003000000000000001900000000000002116000000000000000009999123100000010000000000000BRBRIVACNOR6209
012024020202BRIV4       010ALFA INVEST PN           R$  000000000112500000000011250000000001125000000000112500000000011250000000001125000000000124900004000000000000164000000000000184500000000000000000009999123100000010000000000000BRBRIVACNPR3218
012024020202BRKM3       010BRASKEM     ON      N1   R$  000000000188000000000018810000000001835000000000185900000000018600000000001836000000000186000047000000000000006200000000000011530600000000000000009999123100000010000000000000BRBRKMACNOR1119
012024020202BRKM5       010BRASKEM     PNA     N1   R$  000000000178500000000018270000000001750000000000177000000000017580000000001758000000000175909515000000000002612700000000004625697400000000000000009999123100000010000000000000BRBRKMACNPA4121
012024020202CSNA3       010SID NACIONALON           R$  000000000174800000000017700000000001703000000000172000000000017120000000001711000000000171315447000000000005750000000000009895652800000000000000009999123100000010000000000000BRCSNAACNOR6260
012024020202CSRN3       010COSERN      ON           R$  000000000284000000000028400000000002840000000000284000000000028400000000002850000000000289900001000000000000000100000000000000284000000000000000009999123100000010000000000000BRCSRNACNOR0190
012024020202GGBR3       010GERDAU      ON      N1   R$  000000000196000000000020180000000001960000000000200000000000020010000000001991000000000200600372000000000000057200000000000114435200000000000000009999123100000010000000000000BRGGBRACNOR1189
012024020202GGBR4       010GERDAU      PN      N1   R$  000000000215200000000021710000000002120000000000214400000000021470000000002146000000000215229053000000000011399900000000024451891300000000000000009999123100000010000000000000BRGGBRACNPR8189
012024020202LJQQ3       010QUERO-QUERO ON      NM   R$  000000000050200000000005110000000000478000000000048800000000004850000000000484000000000048505943000000000004159300000000002030091300000000000000009999123100000010000000000000BRLJQQACNOR5104
012024020202LOGG3       010LOG COM PROPON      NM   R$  000000000206500000000020780000000001990000000000203100000000020490000000002039000000000205101185000000000000151700000000000308123500000000000000009999123100000010000000000000BRLOGGACNOR7106
012024020202LOGN3       010LOG-IN      ON      NM   R$  000000000375900000000037620000000003658000000000369800000000036760000000003675000000000372700110000000000000013700000000000050674000000000000000009999123100000010000000000000BRLOGNACNOR3105
012024020202LPSB3       010LOPES BRASILON      NM   R$  000000000023500000000002400000000000228000000000023200000000002280000000000227000000000023500181000000000000128800000000000029920800000000000000009999123100000010000000000000BRLPSBACNOR0113
012024020202LREN3       010LOJAS RENNERON      NM   R$  000000000160700000000016380000000001574000000000158900000000015740000000001574000000000157519452000000000008973300000000014263962100000000000000009999123100000010000000000000BRLRENACNOR1219
012024020202LUPA3       010LUPATECH    ON      NM   R$  000000000019700000000001990000000000185000000000018900000000001870000000000187000000000018900649000000000000516200000000000097798700000000000000009999123100000010000000000000BRLUPAACNOR8112
012024020202ONCO3       010ONCOCLINICASON      NM   R$  000000000116000000000011660000000001118000000000114000000000011330000000001131000000000113303420000000000001654100000000001887059000000000000000009999123100000010000000000000BRONCOACNOR6100
012024020202OPCT3       010OCEANPACT   ON      NM   R$  000000000061200000000006220000000000606000000000061500000000006120000000000612000000000061601294000000000000905000000000000556869400000000000000009999123100000010000000000000BROPCTACNOR0100
012024020202ORVR3       010ORIZON      ON      NM   R$  000000000350600000000035320000000003455000000000348100000000034860000000003485000000000348800873000000000000144500000000000503025200000000000000009999123100000010000000000000BRORVRACNOR0101
012024020202PCAR3       010P.ACUCAR-CBDON      NM   R$  000000000041800000000004250000000000405000000000041300000000004120000000000412000000000041406334000000000006070700000000002508373200000000000000009999123100000010000000000000BRPCARACNOR3167
012024020202PDGR3       010PDG REALT   ON      NM   R$  000000000003500000000000370000000000034000000000003500000000000340000000000034000000000003500577000000000002201000000000000078544700000000000000009999123100000010000000000000BRPDGRACNOR8118
012024020202PDTC3       010PADTEC      ON      NM   R$  000000000031300000000003180000000000304000000000030700000000003060000000000306000000000031100161000000000000082700000000000025454900000000000000009999123100000010000000000000BRPDTCACNOR3100
012024020202PETR3       010PETROBRAS   ON      N2   R$  000000000430000000000043280000000004227000000000426400000000042330000000004231000000000424030475000000000011798300000000050312718800000000000000009999123100000010000000000000BRPETRACNOR9202
012024020202PETR4       010PETROBRAS   PN      N2   R$  000000000415800000000041780000000004102000000000413300000000041030000000004102000000000410462023000000000036485600000000150806430400000000000000009999123100000010000000000000BRPETRACNPR6209
012024020202PRNR3       010PRINER      ON      NM   R$  000000000115900000000011790000000001156000000000116600000000011700000000001162000000000117000482000000000000089900000000000104891300000000000000009999123100000010000000000000BRPRNRACNOR4108
012024020202PSSA3       010PORTO SEGUROON      NM   R$  000000000268000000000027030000000002663000000000268400000000026880000000002687000000000268805300000000000001336700000000003588716800000000000000009999123100000010000000000000BRPSSAACNOR7153
012024020202PTBL3       010PORTOBELLO  ON      NM   R$  000000000062600000000006340000000000601000000000060900000000006010000000000601000000000060201734000000000000574200000000000349773500000000000000009999123100000010000000000000BRPTBLACNOR8132
012024020202PTNT4       010PETTENATI   PN           R$  000000000080000000000008000000000000792000000000079700000000007970000000000792000000000079700019000000000000007600000000000006060400000000000000009999123100000010000000000000BRPTNTACNPR3047
012024020202QUAL3       010QUALICORP   ON      NM   R$  000000000022500000000002250000000000210000000000021400000000002100000000000210000000000021108013000000000008811600000000001888757200000000000000009999123100000010000000000000BRQUALACNOR6119
012024020202B3SA3       010B3          ON      NM   R$  000000000132600000000013370000000001298000000000131100000000013170000000001317000000000131948387000000000052712700000000069127199800000000000000009999123100000010000000000000BRB3SAACNOR6130
012024020202BEES3       010BANESTES    ON  EJ       R$  000000000097100000000009770000000000971000000000097400000000009750000000000975000000000097800056000000000000010100000000000009842700000000000000009999123100000010000000000000BRBEESACNOR9387
012024020202BEES4       010BANESTES    PN  EJ       R$  000000000100000000000010030000000000997000000000100000000000010010000000001000000000000100100025000000000000007200000000000007200900000000000000009999123100000010000000000000BRBEESACNPR6312
012024020202BIOM3       010BIOMM       ON      MA   R$  000000000052100000000005260000000000500000000000051200000000005100000000000510000000000051800105000000000000019500000000000010002500000000000000009999123100000010000000000000BRBIOMACNOR2112
012024020202BLAU3       010BLAU        ON      NM   R$  000000000123400000000012420000000001171000000000119500000000011840000000001183000000000118403020000000000000811500000000000970354900000000000000009999123100000010000000000000BRBLAUACNOR8111
012024020202BMEB3       010MERCANTIL   ON      N1   R$  000000000210800000000021080000000002108000000000210800000000021080000000002071000000000210700001000000000000000100000000000000210800000000000000009999123100000010000000000000BRBMEBACNOR8205
012024020202BMEB4       010MERCANTIL   PN      N1   R$  000000000193800000000019390000000001891000000000191000000000019390000000001891000000000193900031000000000000005100000000000009744700000000000000009999123100000010000000000000BRBMEBACNPR5210
012024020202BMGB4       010BANCO BMG   PN      N1   R$  000000000033800000000003430000000000335000000000033700000000003370000000000337000000000034000852000000000000485200000000000163955900000000000000009999123100000010000000000000BRBMGBACNPR0108
012024020202BMIN3       010MERC INVEST ON  EDJ      R$  000000000279900000000027990000000002300000000000253600000000023000000000002300000000000269900009000000000000001100000000000002789600000000000000009999123100000010000000000000BRBMINACNOR4170
012024020202BMIN4       010MERC INVEST PN  EDJ      R$  000000000170100000000017690000000001531000000000161800000000015500000000001535000000000160000136000000000000027600000000000044677200000000000000009999123100000010000000000000BRBMINACNPR1176
012024020202BMKS3       010BIC MONARK  ON           R$  000000003500000000000358380000000035000000000003545700000000358380000000034600000000003550000007000000000000000011000000000000390027000000000000009999123100000010000000000000BRBMKSACNOR9165
012024020202BMOB3       010BEMOBI TECH ON      NM   R$  000000000124900000000012590000000001226000000000123800000000012260000000001225000000000122601598000000000000258600000000000320339700000000000000009999123100000010000000000000BRBMOBACNOR7103
012024020202EQTL3       010EQUATORIAL  ON      NM   R$  000000000358600000000035920000000003482000000000353000000000035330000000003533000000000353830639000000000013577700000000047938597600000000000000009999123100000010000000000000BREQTLACNOR0129
012024020202ESPA3       010ESPACOLASER ON      NM   R$  000000000010500000000001090000000000100000000000010400000000001060000000000104000000000010601326000000000002229100000000000232121200000000000000009999123100000010000000000000BRESPAACNOR7103
012024020202ESTR4       010ESTRELA     PN           R$  000000000040300000000004030000000000391000000000039900000000003910000000000392000000000041900005000000000000003200000000000001277000000000000000009999123100000010000000000000BRESTRACNPR0144
012024020202EUCA3       010EUCATEX     ON      N1   R$  000000000179100000000017920000000001759000000000177100000000017630000000001699000000000176300013000000000000002400000000000004251300000000000000009999123100000010000000000000BREUCAACNOR1157
012024020202EUCA4       010EUCATEX     PN      N1   R$  000000000164700000000016660000000001611000000000164100000000016400000000001640000000000164300537000000000000088100000000000144615100000000000000009999123100000010000000000000BREUCAACNPR8044
012024020202BOBR4       010BOMBRIL     PN           R$  000000000022300000000002230000000000215000000000021700000000002210000000000219000000000022100041000000000000016500000000000003590900000000000000009999123100000010000000000000BRBOBRACNPR3128
012024020202BRSR3       010BANRISUL    ON      N1   R$  000000000147500000000014780000000001449000000000146500000000014770000000001457000000000147800064000000000000011400000000000016709800000000000000009999123100000010000000000000BRBRSRACNOR3185
012024020202BRSR6       010BANRISUL    PNB     N1   R$  000000000148100000000014980000000001460000000000148100000000014840000000001482000000000148705611000000000002267400000000003359537300000000000000009999123100000010000000000000BRBRSRACNPB4188
012024020202BSLI3       010BRB BANCO   ON           R$  000000000133100000000013870000000001331000000000135700000000013700000000001279000000000138600005000000000000000500000000000000678900000000000000009999123100000010000000000000BRBSLIACNOR5192
012024020202BSLI4       010BRB BANCO   PN           R$  000000000116700000000012030000000001161000000000118800000000012000000000001164000000000123600012000000000000001400000000000001663900000000000000009999123100000010000000000000BRBSLIACNPR2192
012024020202LAND3       010TERRASANTAPAON      NM   R$  000000000155600000000015610000000001490000000000150800000000014920000000001492000000000151700375000000000000144700000000000218236400000000000000009999123100000010000000000000BRLANDACNOR9102
012024020202LAVV3       010LAVVI       ON      NM   R$  000000000077000000000007780000000000756000000000076400000000007670000000000767000000000077102120000000000000354400000000000271085200000000000000009999123100000010000000000000BRLAVVACNOR4110
012024020202LEVE3       010METAL LEVE  ON      NM   R$  000000000341500000000034170000000003311000000000337400000000033910000000003391000000000340004005000000000000832100000000002807676000000000000000009999123100000010000000000000BRLEVEACNOR2196
012024020202ASAI3       010ASSAI       ON      NM   R$  000000000135300000000013710000000001326000000000134100000000013520000000001350000000000135321649000000000009537000000000012795842800000000000000009999123100000010000000000000BRASAIACNOR0106
012024020202ATOM3       010ATOMPAR     ON           R$  000000000021000000000002120000000000206000000000020800000000002100000000000209000000000021100030000000000000005200000000000001085600000000000000009999123100000010000000000000BRATOMACNOR1106
012024020202CAMB3       010CAMBUCI     ON           R$  000000000109000000000010900000000001060000000000107500000000010720000000001070000000000107200117000000000000025500000000000027422600000000000000009999123100000010000000000000BRCAMBACNOR4127
012024020202CAML3       010CAMIL       ON      NM   R$  000000000087700000000008870000000000861000000000087300000000008820000000000881000000000088202186000000000000568300000000000496279300000000000000009999123100000010000000000000BRCAMLACNOR3126
012024020202CASH3       010MELIUZ      ON      NM   R$  000000000075400000000007670000000000742000000000075200000000007560000000000754000000000075603998000000000002127100000000001600699900000000000000009999123100000010000000000000BRCASHACNOR8105
012024020202CBAV3       010CBA         ON      NM   R$  000000000039800000000003990000000000381000000000038600000000003810000000000381000000000038206641000000000005785300000000002235003400000000000000009999123100000010000000000000BRCBAVACNOR5104
012024020202CSUD3       010CSU DIGITAL ON      NM   R$  000000000187000000000019050000000001825000000000186500000000019050000000001894000000000190500232000000000000053000000000000098856900000000000000009999123100000010000000000000BRCSUDACNOR5107
012024020202CTKA4       010KARSTEN     PN           R$  000000000170000000000017000000000001700000000000170000000000017000000000001514000000000174000001000000000000000100000000000000170000000000000000009999123100000010000000000000BRCTKAACNPR7043
012024020202KEPL3       010KEPLER WEBERON      NM   R$  000000000094500000000009460000000000930000000000093600000000009320000000000931000000000093305070000000000001228500000000001150704800000000000000009999123100000010000000000000BRKEPLACNOR1061
012024020202MTRE3       010MITRE REALTYON      NM   R$  000000000048300000000004870000000000444000000000045300000000004450000000000444000000000044507154000000000004264900000000001935974700000000000000009999123100000010000000000000BRMTREACNOR6109
012024020202MTSA4       010METISA      PN           R$  000000000500000000000050500000000005000000000000502400000000050490000000004986000000000505000013000000000000001500000000000007536800000000000000009999123100000010000000000000BRMTSAACNPR9071
012024020202MULT3       010MULTIPLAN   ON      N2   R$  000000000278900000000028110000000002695000000000272200000000027260000000002724000000000272629899000000000005867600000000015975856800000000000000009999123100000010000000000000BRMULTACNOR5137
012024020202SCAR3       010SAO CARLOS  ON      NM   R$  000000000272100000000027800000000002700000000000272300000000027000000000002700000000000277700043000000000000007600000000000020702200000000000000009999123100000010000000000000BRSCARACNOR7130
012024020202SEER3       010SER EDUCA   ON      NM   R$  000000000060700000000006120000000000575000000000058700000000005820000000000575000000000058201559000000000000810700000000000476530400000000000000009999123100000010000000000000BRSEERACNOR5119
012024020202SEQL3       010SEQUOIA LOG ON      NM   R$  000000000004900000000000500000000000047000000000004800000000000480000000000048000000000004906409000000000010115300000000000486577500000000000000009999123100000010000000000000BRSEQLACNOR2101
012024020202SGPS3       010SPRINGS     ON      NM   R$  000000000011700000000001190000000000115000000000011600000000001160000000000115000000000011600175000000000000212100000000000024752900000000000000009999123100000010000000000000BRSGPSACNOR4104
012024020202SHOW3       010TIME FOR FUNON      NM   R$  000000000020500000000002080000000000203000000000020400000000002080000000000204000000000020800331000000000000076200000000000015617500000000000000009999123100000010000000000000BRSHOWACNOR7105
012024020202SHUL4       010SCHULZ      PN           R$  000000000064600000000006490000000000633000000000063800000000006390000000000638000000000064001394000000000000707200000000000451854100000000000000009999123100000010000000000000BRSHULACNPR4154
012024020202SIMH3       010SIMPAR      ON      NM   R$  000000000076100000000007750000000000743000000000075400000000007520000000000752000000000075307044000000000003353900000000002528854100000000000000009999123100000010000000000000BRSIMHACNOR0107
012024020202SLCE3       010SLC AGRICOLAON      NM   R$  000000000192000000000019330000000001902000000000191500000000019120000000001911000000000191207803000000000001542300000000002953575900000000000000009999123100000010000000000000BRSLCEACNOR2124
012024020202VITT3       010VITTIA      ON      NM   R$  000000000080900000000008090000000000782000000000079200000000007960000000000789000000000079601476000000000000315100000000000249742600000000000000009999123100000010000000000000BRVITTACNOR4106
012024020202VIVA3       010VIVARA S.A. ON      NM   R$  000000000340800000000034270000000003287000000000332800000000033090000000003309000000000332010583000000000002904400000000009667346600000000000000009999123100000010000000000000BRVIVAACNOR0106
012024020202VIVR3       010VIVER       ON      NM   R$  000000000041300000000004700000000000387000000000043400000000004300000000000429000000000043000714000000000000544600000000000236643500000000000000009999123100000010000000000000BRVIVRACNOR4121
012024020202VIVT3       010TELEF BRASILON           R$  000000000524400000000052850000000005143000000000522100000000052410000000005239000000000524511304000000000002862400000000014945715300000000000000009999123100000010000000000000BRVIVTACNOR0178
012024020202VLID3       010VALID       ON      NM   R$  000000000215500000000021770000000002097000000000214400000000021520000000002150000000000215203103000000000000502200000000001076906300000000000000009999123100000010000000000000BRVLIDACNOR5141
012024020202VSTE3       010VESTE       ON      NM   R$  000000000176500000000017800000000001760000000000177200000000017800000000001780000000000178800022000000000000004500000000000007978200000000000000009999123100000010000000000000BRVSTEACNOR5102
012024020202VULC3       010VULCABRAS   ON  ED  NM   R$  000000000189100000000019240000000001872000000000189600000000018750000000001872000000000188002562000000000000562200000000001066030500000000000000009999123100000010000000000000BRVULCACNOR2157
012024020202VVEO3       010VIVEO       ON      NM   R$  000000000098900000000010000000000000899000000000093700000000009390000000000929000000000093906468000000000002622200000000002457595300000000000000009999123100000010000000000000BRVVEOACNOR0103
012024020202JHSF3       010JHSF PART   ON  ED  NM   R$  000000000046000000000004690000000000450000000000045600000000004610000000000460000000000046104042000000000002298200000000001050028600000000000000009999123100000010000000000000BRJHSFACNOR2132
012024020202JSLG3       010JSL         ON      NM   R$  000000000109100000000010960000000001057000000000107400000000010750000000001075000000000108701598000000000000289100000000000310512900000000000000009999123100000010000000000000BRJSLGACNOR2121
012024020202BGIP3       010BANESE      ON           R$  000000000276500000000027850000000002765000000000277500000000027850000000002700000000000280000002000000000000000200000000000000555000000000000000009999123100000010000000000000BRBGIPACNOR1206
012024020202BGIP4       010BANESE      PN           R$  000000000265000000000026700000000002650000000000266500000000026700000000002610000000000269000002000000000000000400000000000001066000000000000000009999123100000010000000000000BRBGIPACNPR8206
012024020202BHIA3       010CASAS BAHIA ON      NM   R$  000000000076100000000007800000000000713000000000073200000000007200000000000719000000000072007799000000000005661500000000004147324600000000000000009999123100000010000000000000BRBHIAACNOR1101
012024020202BRAP3       010BRADESPAR   ON      N1   R$  000000000206600000000020660000000002024000000000203400000000020280000000002025000000000202800613000000000000128500000000000261381200000000000000009999123100000010000000000000BRBRAPACNOR5147
012024020202BRAP4       010BRADESPAR   PN      N1   R$  000000000223400000000022370000000002196000000000220900000000021980000000002197000000000219816611000000000005256800000000011614097500000000000000009999123100000010000000000000BRBRAPACNPR2147
012024020202BRBI11      010BR PARTNERS UNT     N2   R$  000000000165100000000016660000000001575000000000159800000000016190000000001602000000000161902164000000000000545100000000000871308800000000000000009999123100000010000000000000BRBRBICDAM10107
012024020202BRFS3       010BRF SA      ON      NM   R$  000000000143700000000014420000000001393000000000141700000000014330000000001432000000000143316367000000000006263500000000008878439900000000000000009999123100000010000000000000BRBRFSACNOR8121
012024020202CRIV3       010ALFA FINANC ON           R$  000000000060800000000006100000000000604000000000060700000000006040000000000605000000000061000007000000000000004600000000000002793300000000000000009999123100000010000000000000BRCRIVACNOR4195
012024020202CRIV4       010ALFA FINANC PN           R$  000000000062000000000006580000000000620000000000062500000000006250000000000625000000000062800028000000000000310800000000000194300200000000000000009999123100000010000000000000BRCRIVACNPR1211
012024020202CRPG5       010CRISTAL     PNA          R$  000000000362000000000036200000000003580000000000359300000000035850000000003585000000000359900020000000000000003200000000000011498200000000000000009999123100000010000000000000BRCRPGACNPA3118
012024020202CRPG6       010CRISTAL     PNB          R$  000000000362100000000036210000000003620000000000362000000000036200000000003580000000000363900005000000000000001300000000000004706100000000000000009999123100000010000000000000BRCRPGACNPB1118
012024020202CSAN3       010COSAN       ON      NM   R$  000000000186700000000018820000000001795000000000182300000000017950000000001795000000000180017880000000000007450900000000013586135000000000000000009999123100000010000000000000BRCSANACNOR6124
012024020202CSED3       010CRUZEIRO EDUON      NM   R$  000000000040500000000004100000000000392000000000039800000000004050000000000397000000000040501154000000000000457400000000000182293700000000000000009999123100000010000000000000BRCSEDACNOR9104
012024020202CSMG3       010COPASA      ON      NM   R$  000000000213500000000021510000000002100000000000212200000000021110000000002107000000000211209032000000000003307900000000007022045800000000000000009999123100000010000000000000BRCSMGACNOR5171
012024020202FESA3       010FERBASA     ON  EB  N1   R$  000000000145900000000015260000000001459000000000150100000000015180000000001517000000000154700003000000000000000300000000000000450300000000000000009999123100000010000000000000BRFESAACNOR8187
012024020202FESA4       010FERBASA     PN  EB  N1   R$  000000000102300000000010260000000000992000000000100100000000009950000000000995000000000099804041000000000001144700000000001146084700000000000000009999123100000010000000000000BRFESAACNPR5083
012024020202FHER3       010FER HERINGERON      NM   R$  000000000065100000000006510000000000620000000000063200000000006300000000000629000000000063000053000000000000028900000000000018282600000000000000009999123100000010000000000000BRFHERACNOR5103
012024020202GEPA4       010GER PARANAP PN           R$  000000000264400000000026440000000002644000000000264400000000026440000000002560000000000264900001000000000000000100000000000000264400000000000000009999123100000010000000000000BRGEPAACNPR9159
012024020202GFSA3       010GAFISA      ON      NM   R$  000000000114800000000011860000000001051000000000113100000000010950000000001095000000000109818946000000000010994800000000012436526000000000000000009999123100000010000000000000BRGFSAACNOR3123
012024020202ITUB3       010ITAUUNIBANCOON  EJ  N1   R$  000000000280400000000028060000000002758000000000278400000000027950000000002794000000000279901530000000000000322000000000000896616800000000000000009999123100000010000000000000BRITUBACNOR4330
012024020202ITUB4       010ITAUUNIBANCOPN  EJ  N1   R$  000000000327500000000032890000000003219000000000325200000000032740000000003274000000000327943332000000000022364400000000072732524300000000000000009999123100000010000000000000BRITUBACNPR1330
012024020202KLBN11      010KLABIN S/A  UNT     N2   R$  000000000211000000000021230000000002091000000000210300000000021010000000002101000000000210410925000000000002734600000000005753172600000000000000009999123100000010000000000000BRKLBNCDAM18139
012024020202RSUL4       010RIOSULENSE  PN           R$  000000000803500000000081760000000007888000000000800300000000078880000000007888000000000805000015000000000000001500000000000012004700000000000000009999123100000010000000000000BRRSULACNPR3113
012024020202RECV3       010PETRORECSA  ON      NM   R$  000000000235800000000023580000000002196000000000221900000000021960000000002196000000000220711992000000000003344500000000007422174900000000000000009999123100000010000000000000BRRECVACNOR3105
012024020202REDE3       010REDE ENERGIAON           R$  000000000068300000000007000000000000683000000000069400000000006940000000000687000000000069400014000000000000001900000000000001319200000000000000009999123100000010000000000000BRREDEACNOR7126
012024020202RENT3       010LOCALIZA    ON      NM   R$  000000000544800000000054780000000005332000000000537700000000053560000000005355000000000539230102000000000007142400000000038406320400000000000000009999123100000010000000000000BRRENTACNOR4194
012024020202KLBN3       010KLABIN S/A  ON      N2   R$  000000000042200000000004250000000000418000000000042000000000004200000000000420000000000042301089000000000000460200000000000193682200000000000000009999123100000010000000000000BRKLBNACNOR2167
012024020202KLBN4       010KLABIN S/A  PN      N2   R$  000000000042200000000004250000000000419000000000042100000000004200000000000420000000000042204219000000000002216800000000000933544800000000000000009999123100000010000000000000BRKLBNACNPR9167
012024020202ROMI3       010ROMI        ON      NM   R$  000000000130500000000013160000000001284000000000129100000000012950000000001290000000000129501586000000000000243900000000000315063200000000000000009999123100000010000000000000BRROMIACNOR8192
012024020202RPAD3       010ALFA HOLDINGON           R$  000000000081400000000008220000000000814000000000081400000000008220000000000820000000000083000002000000000000005500000000000004481000000000000000009999123100000010000000000000BRRPADACNOR1198
012024020202FIQE3       010UNIFIQUE    ON      NM   R$  000000000037900000000003840000000000366000000000037300000000003740000000000372000000000037500645000000000000498100000000000186034200000000000000009999123100000010000000000000BRFIQEACNOR5105
012024020202FLRY3       010FLEURY      ON      NM   R$  000000000163500000000016500000000001597000000000161700000000016270000000001626000000000162913632000000000005264700000000008517965900000000000000009999123100000010000000000000BRFLRYACNOR5137
012024020202FRAS3       010FRAS-LE     ON      N1   R$  000000000154300000000015430000000001507000000000152400000000015310000000001531000000000154301517000000000000257000000000000391685300000000000000009999123100000010000000000000BRFRASACNOR0158
012024020202FRIO3       010METALFRIO   ON      NM   R$  000000002995000000000299500000000029770000000002983800000000297700000000029750000000003000000006000000000000000600000000000017903000000000000000009999123100000010000000000000BRFRIOACNOR2111
012024020202EVEN3       010EVEN        ON      NM   R$  000000000073900000000007390000000000721000000000073000000000007310000000000730000000000073803390000000000000937300000000000684515400000000000000009999123100000010000000000000BREVENACNOR8118
012024020202EZTC3       010EZTEC       ON      NM   R$  000000000153900000000015610000000001499000000000152600000000015510000000001551000000000155609181000000000002769600000000004227969300000000000000009999123100000010000000000000BREZTCACNOR0123
012024020202ITSA3       010ITAUSA      ON      N1   R$  000000000100000000000010060000000000983000000000099400000000010060000000001001000000000100600264000000000000097700000000000097127500000000000000009999123100000010000000000000BRITSAACNOR0436
012024020202ITSA4       010ITAUSA      PN      N1   R$  000000000099900000000010040000000000982000000000099100000000009980000000000998000000000099931534000000000025446700000000025232672800000000000000009999123100000010000000000000BRITSAACNPR7436
012024020202MWET4       010WETZEL S/A  PN           R$  000000000067900000000006800000000000662000000000067500000000006620000000000662000000000070900010000000000000001300000000000000878100000000000000009999123100000010000000000000BRMWETACNPR3118
012024020202MYPK3       010IOCHP-MAXIONON      NM   R$  000000000123000000000012520000000001198000000000121000000000011980000000001197000000000119903888000000000000946000000000001145110300000000000000009999123100000010000000000000BRMYPKACNOR7153
012024020202PETZ3       010PETZ        ON      NM   R$  000000000032500000000003270000000000312000000000031600000000003140000000000313000000000031408594000000000012210500000000003866988500000000000000009999123100000010000000000000BRPETZACNOR2109
012024020202SRNA3       010SERENA      ON      NM   R$  000000000097700000000010100000000000961000000000098600000000009780000000000973000000000097804228000000000001122800000000001107893400000000000000009999123100000010000000000000BRSRNAACNOR4100
012024020202STBP3       010SANTOS BRP  ON      NM   R$  000000000104300000000010660000000001030000000000104500000000010470000000001046000000000104911976000000000007069300000000007391171600000000000000009999123100000010000000000000BRSTBPACNOR3128
012024020202SUZB3       010SUZANO S.A. ON      NM   R$  000000000511900000000051680000000005071000000000512400000000051340000000005132000000000513422433000000000004085700000000020939207600000000000000009999123100000010000000000000BRSUZBACNOR0129
012024020202VALE3       010VALE        ON      NM   R$  000000000672600000000067270000000006591000000000663300000000066080000000006608000000000661063037000000000032589900000000216199642300000000000000009999123100000010000000000000BRVALEACNOR0209
012024020202WHRL4       010WHIRLPOOL   PN           R$  000000000045000000000004580000000000450000000000045200000000004520000000000450000000000045200016000000000000003100000000000001402100000000000000009999123100000010000000000000BRWHRLACNPR2128
012024020202WIZC3       010WIZ CO      ON      NM   R$  000000000066200000000006650000000000646000000000065200000000006530000000000652000000000065501454000000000000409500000000000267268700000000000000009999123100000010000000000000BRWIZCACNOR5101
012024020202SANB11      010SANTANDER BRUNT          R$  000000000291100000000029500000000002876000000000289700000000028810000000002880000000000289708360000000000001865700000000005405500200000000000000009999123100000010000000000000BRSANBCDAM13163
012024020202SANB3       010SANTANDER BRON           R$  000000000137000000000013900000000001356000000000136900000000013610000000001361000000000137300917000000000000143100000000000196038900000000000000009999123100000010000000000000BRSANBACNOR8170
012024020202SANB4       010SANTANDER BRPN           R$  000000000154200000000015540000000001519000000000153500000000015310000000001530000000000153200701000000000000099900000000000153375500000000000000009999123100000010000000000000BRSANBACNPR5170
012024020202UCAS3       010UNICASA     ON      NM   R$  000000000028700000000002890000000000275000000000027900000000002750000000000275000000000028000069000000000000011200000000000003129900000000000000009999123100000010000000000000BRUCASACNOR1113
012024020202UGPA3       010ULTRAPAR    ON      NM   R$  000000000283000000000028490000000002730000000000276800000000027640000000002763000000000277219645000000000005734100000000015872972800000000000000009999123100000010000000000000BRUGPAACNOR8154
012024020202UNIP3       010UNIPAR      ON           R$  000000000659100000000066080000000006520000000000655300000000065200000000006520000000000654200099000000000000013400000000000087813700000000000000009999123100000010000000000000BRUNIPACNOR7204
012024020202UNIP6       010UNIPAR      PNB          R$  000000000699300000000070450000000006916000000000695900000000069160000000006916000000000696200915000000000000184300000000001282596700000000000000009999123100000010000000000000BRUNIPACNPB8204
012024020202USIM3       010USIMINAS    ON      N1   R$  000000000087400000000008780000000000853000000000086300000000008680000000000855000000000086802873000000000001059600000000000915346700000000000000009999123100000010000000000000BRUSIMACNOR3166
012024020202USIM5       010USIMINAS    PNA     N1   R$  000000000092300000000009300000000000906000000000091300000000009090000000000908000000000091015163000000000009778400000000008935906100000000000000009999123100000010000000000000BRUSIMACNPA6168
012024020202SAPR11      010SANEPAR     UNT     N2   R$  000000000281700000000028170000000002718000000000273300000000027190000000002718000000000272203432000000000000975500000000002666517000000000000000009999123100000010000000000000BRSAPRCDAM13117
012024020202SAPR3       010SANEPAR     ON      N2   R$  000000000053600000000005360000000000519000000000052300000000005190000000000518000000000051900787000000000000450200000000000235638100000000000000009999123100000010000000000000BRSAPRACNOR9158
012024020202SAPR4       010SANEPAR     PN      N2   R$  000000000056800000000005680000000000548000000000055200000000005500000000000549000000000055002451000000000001496500000000000827536700000000000000009999123100000010000000000000BRSAPRACNPR6158
012024020202SBFG3       010GRUPO SBF   ON      NM   R$  000000000132400000000013580000000001308000000000132800000000013250000000001324000000000132508966000000000001828300000000002428682700000000000000009999123100000010000000000000BRSBFGACNOR1102
012024020202SBSP3       010SABESP      ON      NM   R$  000000000784000000000079210000000007778000000000785700000000078740000000007873000000000788514984000000000002821400000000022167899200000000000000009999123100000010000000000000BRSBSPACNOR5160
012024020202VAMO3       010VAMOS       ON      NM   R$  000000000084500000000008450000000000793000000000080200000000007930000000000793000000000079414330000000000006629500000000005318601400000000000000009999123100000010000000000000BRVAMOACNOR7105
012024020202VBBR3       010VIBRA       ON      NM   R$  000000000234900000000023760000000002298000000000232600000000023330000000002331000000000233623079000000000011981100000000027877592400000000000000009999123100000010000000000000BRVBBRACNOR1106
012024020202RPAD6       010ALFA HOLDINGPNB          R$  000000000080200000000008020000000000802000000000080200000000008020000000000805000000000082700026000000000000033000000000000026466000000000000000009999123100000010000000000000BRRPADACNPB2198
012024020202RRRP3       0103R PETROLEUMON      NM   R$  000000000266800000000027070000000002632000000000267300000000026900000000002680000000000269018014000000000006717300000000017960442300000000000000009999123100000010000000000000BRRRRPACNOR5102
012024020202RCSL4       010RECRUSUL    PN           R$  000000000007000000000000770000000000069000000000007300000000000750000000000075000000000007603039000000000007387700000000000541277500000000000000009999123100000010000000000000BRRCSLACNPR1133
012024020202RDNI3       010RNI         ON      NM   R$  000000000045500000000004550000000000451000000000045200000000004510000000000451000000000045400006000000000000000600000000000000271400000000000000009999123100000010000000000000BRRDNIACNOR9116
012024020202RDOR3       010REDE D OR   ON      NM   R$  000000000266100000000027030000000002639000000000266300000000026670000000002667000000000268113697000000000003441900000000009167377700000000000000009999123100000010000000000000BRRDORACNOR8111
012024020202TFCO4       010TRACK FIELD PN      N2   R$  000000000135700000000013750000000001345000000000135700000000013490000000001349000000000136400449000000000000075500000000000102466800000000000000009999123100000010000000000000BRTFCOACNPR8111
012024020202TGMA3       010TEGMA       ON      NM   R$  000000000266600000000026790000000002612000000000264400000000026420000000002642000000000265401100000000000000148600000000000392969000000000000000009999123100000010000000000000BRTGMAACNOR7143
012024020202TIMS3       010TIM         ON      NM   R$  000000000177400000000017840000000001756000000000176600000000017700000000001769000000000177513180000000000003508800000000006196771300000000000000009999123100000010000000000000BRTIMSACNOR5114
012024020202TKNO4       010TEKNO       PN           R$  000000000698500000000069900000000006985000000000698700000000069900000000006600000000000699000002000000000000000200000000000001397500000000000000009999123100000010000000000000BRTKNOACNPR5074
012024020202EMAE4       010EMAE        PN           R$  000000000571300000000057140000000005650000000000570300000000056500000000005630000000000575000006000000000000000800000000000004563000000000000000009999123100000010000000000000BREMAEACNPR1124
012024020202EMBR3       010EMBRAER     ON      NM   R$  000000000225800000000022620000000002199000000000222900000000022440000000002243000000000224517170000000000005955900000000013276016900000000000000009999123100000010000000000000BREMBRACNOR4191
012024020202ENAT3       010ENAUTA PART ON      NM   R$  000000000187500000000018880000000001807000000000184300000000018700000000001870000000000187206066000000000001980500000000003651815000000000000000009999123100000010000000000000BRENATACNOR0104
012024020202ENEV3       010ENEVA       ON      NM   R$  000000000128400000000012920000000001256000000000126400000000012640000000001263000000000126714458000000000004410000000000005577349800000000000000009999123100000010000000000000BRENEVACNOR8105
012024020202ENGI11      010ENERGISA    UNT     N2   R$  000000000513400000000051740000000004980000000000504400000000050780000000005074000000000507914738000000000003279400000000016541359400000000000000009999123100000010000000000000BRENGICDAM16135
012024020202ENGI3       010ENERGISA    ON      N2   R$  000000000166700000000017460000000001640000000000167000000000017460000000001688000000000181500052000000000000005900000000000009858400000000000000009999123100000010000000000000BRENGIACNOR0145
012024020202ENGI4       010ENERGISA    PN      N2   R$  000000000085900000000008710000000000832000000000084100000000008400000000000840000000000084900081000000000000026100000000000021964700000000000000009999123100000010000000000000BRENGIACNPR7141
012024020202IFCM3       010INFRACOMM   ON      NM   R$  000000000015700000000001590000000000150000000000015200000000001500000000000149000000000015003890000000000006271100000000000955047700000000000000009999123100000010000000000000BRIFCMACNOR8101
012024020202IGTI11      010IGUATEMI S.AUNT     N1   R$  000000000239600000000024060000000002332000000000236900000000023710000000002371000000000239114720000000000002660900000000006304059300000000000000009999123100000010000000000000BRIGTICDAM16104
012024020202IGTI3       010IGUATEMI S.AON      N1   R$  000000000029500000000002950000000000287000000000028800000000002870000000000287000000000029000054000000000000035500000000000010251500000000000000009999123100000010000000000000BRIGTIACNOR8104
012024020202IGTI4       010IGUATEMI S.APN      N1   R$  000000000102400000000010240000000001024000000000102400000000010240000000001024000000000109300001000000000000000100000000000000102400000000000000009999123100000010000000000000BRIGTIACNPR5104
012024020202ARML3       010ARMAC       ON      NM   R$  000000000138500000000014000000000001325000000000135900000000013850000000001376000000000138504806000000000000803800000000001092992900000000000000009999123100000010000000000000BRARMLACNOR1110
012024020202ARZZ3       010AREZZO CO   ON      NM   R$  000000000628500000000063610000000006132000000000626600000000062800000000006279000000000628018308000000000004615500000000028921528300000000000000009999123100000010000000000000BRARZZACNOR3146
012024020202BBSE3       010BBSEGURIDADEON      NM   R$  000000000343100000000034490000000003395000000000341300000000034090000000003409000000000342118309000000000004605100000000015718013600000000000000009999123100000010000000000000BRBBSEACNOR5123
012024020202INEP3       010INEPAR      ON           R$  000000000040600000000004140000000000397000000000040200000000003980000000000397000000000040200070000000000000024500000000000009851000000000000000009999123100000010000000000000BRINEPACNOR1143
012024020202INEP4       010INEPAR      PN           R$  000000000034500000000003450000000000328000000000033500000000003420000000000341000000000034300176000000000000028900000000000009684400000000000000009999123100000010000000000000BRINEPACNPR8143
012024020202INTB3       010INTELBRAS   ON      NM   R$  000000000213600000000021460000000002074000000000210300000000020920000000002092000000000210405263000000000001316500000000002769046300000000000000009999123100000010000000000000BRINTBACNOR9109
012024020202IRBR3       010IRBBRASIL REON      NM   R$  000000000405000000000040600000000003975000000000401400000000040360000000004034000000000403605032000000000001000400000000004015697700000000000000009999123100000010000000000000BRIRBRACNOR4110
012024020202JALL3       010JALLESMACHADON      NM   R$  000000000073300000000007400000000000727000000000073200000000007350000000000734000000000073502103000000000000488700000000000357852300000000000000009999123100000010000000000000BRJALLACNOR0105
012024020202JBSS3       010JBS         ON      NM   R$  000000000231000000000023260000000002259000000000228200000000023000000000002300000000000230217562000000000007729900000000017644958300000000000000009999123100000010000000000000BRJBSSACNOR8121
012024020202MRSA3B      010MRS LOGIST  ON      MB   R$  000000000259900000000025990000000002599000000000259900000000025990000000002455000000000269900001000000000000000100000000000000259900000000000000009999123100000010000000000000BRMRSAACNOR6124
012024020202MRVE3       010MRV         ON      NM   R$  000000000078500000000007930000000000754000000000076200000000007600000000000759000000000076218482000000000018460100000000014078761400000000000000009999123100000010000000000000BRMRVEACNOR2126
012024020202PLPL3       010PLANOEPLANO ON      NM   R$  000000000111500000000011500000000001104000000000112500000000011210000000001108000000000112103114000000000001020500000000001148278500000000000000009999123100000010000000000000BRPLPLACNOR5104
012024020202PNVL3       010DIMED       ON      NM   R$  000000000121500000000012360000000001192000000000120900000000011960000000001196000000000120502179000000000000374900000000000453348300000000000000009999123100000010000000000000BRPNVLACNOR9205
012024020202POMO3       010MARCOPOLO   ON      N2   R$  000000000063200000000006330000000000614000000000062200000000006270000000000627000000000063201182000000000000368700000000000229658900000000000000009999123100000010000000000000BRPOMOACNOR0095
012024020202POMO4       010MARCOPOLO   PN      N2   R$  000000000081500000000008250000000000798000000000081500000000008210000000000820000000000082111962000000000008618800000000007028679300000000000000009999123100000010000000000000BRPOMOACNPR7095
012024020202PORT3       010WILSON SONS ON      NM   R$  000000000168500000000016940000000001672000000000168000000000016820000000001673000000000168200809000000000000273700000000000459976500000000000000009999123100000010000000000000BRPORTACNOR8106
012024020202POSI3       010POSITIVO TECON      NM   R$  000000000071200000000007260000000000708000000000071500000000007170000000000717000000000071802378000000000000691400000000000494804200000000000000009999123100000010000000000000BRPOSIACNOR9115
012024020202PRIO3       010PETRORIO    ON      NM   R$  000000000431500000000043260000000004161000000000421600000000042450000000004243000000000424745940000000000015653500000000066005523000000000000000009999123100000010000000000000BRPRIOACNOR1106
012024020202NORD3       010NORDON MET  ON           R$  000000000124800000000012480000000001247000000000124700000000012470000000001162000000000124800002000000000000000200000000000000249500000000000000009999123100000010000000000000BRNORDACNOR7135
012024020202NTCO3       010GRUPO NATURAON      NM   R$  000000000163000000000016720000000001589000000000162200000000016140000000001611000000000161520078000000000006783300000000011004558800000000000000009999123100000010000000000000BRNTCOACNOR5104
012024020202ODPV3       010ODONTOPREV  ON      NM   R$  000000000121900000000012620000000001219000000000124500000000012620000000001255000000000126206341000000000002651600000000003303479000000000000000009999123100000010000000000000BRODPVACNOR4198
012024020202OFSA3       010OUROFINO S/AON      NM   R$  000000000231000000000023280000000002292000000000230500000000023080000000002271000000000230900020000000000000003900000000000008989600000000000000009999123100000010000000000000BROFSAACNOR7117
012024020202TOTS3       010TOTVS       ON      NM   R$  000000000321300000000032330000000003135000000000317100000000031680000000003161000000000317112038000000000002723000000000008636969900000000000000009999123100000010000000000000BRTOTSACNOR8144
012024020202TPIS3       010TRIUNFO PARTON      NM   R$  000000000040100000000004010000000000390000000000039400000000003970000000000395000000000039700098000000000000049600000000000019559400000000000000009999123100000010000000000000BRTPISACNOR8118
012024020202TRAD3       010TC          ON      NM   R$  000000000006600000000000690000000000064000000000006600000000000680000000000067000000000006800485000000000001032600000000000068521400000000000000009999123100000010000000000000BRTRADACNOR3101
012024020202TRIS3       010TRISUL      ON      NM   R$  000000000047000000000004760000000000460000000000046400000000004650000000000465000000000046601272000000000000417500000000000193999700000000000000009999123100000010000000000000BRTRISACNOR4116
012024020202TRPL3       010TRAN PAULISTON      N1   R$  000000000333600000000033520000000003300000000000332000000000033020000000003301000000000333800027000000000000002800000000000009297100000000000000009999123100000010000000000000BRTRPLACNOR4185
012024020202TRPL4       010TRAN PAULISTPN      N1   R$  000000000257900000000025950000000002555000000000257400000000025850000000002581000000000258509642000000000001517900000000003908239300000000000000009999123100000010000000000000BRTRPLACNPR1185
012024020202TTEN3       0103TENTOS     ON      NM   R$  000000000106700000000010730000000001050000000000105900000000010570000000001057000000000106205541000000000001346900000000001427279900000000000000009999123100000010000000000000BRTTENACNOR0102
012024020202ALPK3       010ESTAPAR     ON      NM   R$  000000000044200000000004470000000000423000000000043300000000004230000000000423000000000042800317000000000000094600000000000040969000000000000000009999123100000010000000000000BRALPKACNOR9101
012024020202ALUP11      010ALUPAR      UNT     N2   R$  000000000295400000000029690000000002914000000000292600000000029170000000002916000000000292703258000000000000552700000000001617659900000000000000009999123100000010000000000000BRALUPCDAM15117
012024020202ALUP3       010ALUPAR      ON      N2   R$  000000000098500000000009860000000000910000000000096100000000009700000000000970000000000097900213000000000000056700000000000054538900000000000000009999123100000010000000000000BRALUPACNOR8117
012024020202ALUP4       010ALUPAR      PN      N2   R$  000000000098400000000009920000000000975000000000097900000000009750000000000975000000000098000153000000000000023400000000000022931200000000000000009999123100000010000000000000BRALUPACNPR5117
012024020202AMAR3       010LOJAS MARISAON      NM   R$  000000000026100000000002610000000000252000000000025500000000002570000000000253000000000025700718000000000000265400000000000067681200000000000000009999123100000010000000000000BRAMARACNOR4114
012024020202AMBP3       010AMBIPAR     ON      NM   R$  000000000138100000000014160000000001370000000000138500000000013800000000001380000000000138103427000000000000688200000000000953446900000000000000009999123100000010000000000000BRAMBPACNOR6103
012024020202ANIM3       010ANIMA       ON      NM   R$  000000000043700000000004450000000000414000000000042400000000004200000000000420000000000042109157000000000007660600000000003254460200000000000000009999123100000010000000000000BRANIMACNOR6107
012024020202APER3       010ALPER S.A.  ON           R$  000000000473000000000047600000000004600000000000463100000000046000000000004598000000000479000033000000000000003800000000000017601500000000000000009999123100000010000000000000BRAPERACNOR9106
012024020202AERI3       010AERIS       ON      NM   R$  000000000007800000000000790000000000077000000000007700000000000790000000000078000000000007903681000000000002805200000000000218184600000000000000009999123100000010000000000000BRAERIACNOR4101
012024020202AESB3       010AES BRASIL  ON      NM   R$  000000000111800000000011180000000001055000000000107400000000010610000000001060000000000106212523000000000005188000000000005574216200000000000000009999123100000010000000000000BRAESBACNOR7105
012024020202AGRO3       010BRASILAGRO  ON      NM   R$  000000000246100000000024810000000002446000000000246100000000024710000000002465000000000247101768000000000000333000000000000819600300000000000000009999123100000010000000000000BRAGROACNOR7114
012024020202AGXY3       010AGROGALAXY  ON      NM   R$  000000000027800000000002850000000000278000000000028000000000002790000000000278000000000027900205000000000000035600000000000009979600000000000000009999123100000010000000000000BRAGXYACNOR4102
012024020202AHEB3       010SPTURIS     ON           R$  000000000155000000000015500000000001550000000000155000000000015500000000001200000000000230000001000000000000000200000000000000310000000000000000009999123100000010000000000000BRAHEBACNOR0106
012024020202AHEB5       010SPTURIS     PNA          R$  000000000166100000000016610000000001661000000000166100000000016610000000001661000000000000000001000000000000000100000000000000166100000000000000009999123100000010000000000000BRAHEBACNPA3106
012024020202WLMM4       010WLM IND COM PN           R$  000000000261400000000026810000000002614000000000265800000000026810000000002632000000000268200008000000000000001100000000000002924400000000000000009999123100000010000000000000BRWLMMACNPR3116
012024020202YDUQ3       010YDUQS PART  ON      NM   R$  000000000198700000000019990000000001838000000000187900000000018490000000001848000000000185026082000000000007018700000000013195121100000000000000009999123100000010000000000000BRYDUQACNOR3104
012024020202ZAMP3       010ZAMP S.A.   ON           R$  000000000049900000000005030000000000484000000000049100000000004920000000000491000000000049401968000000000000518100000000000254556700000000000000009999123100000010000000000000BRZAMPACNOR5100
012024020202NEOE3       010NEOENERGIA  ON      NM   R$  000000000206600000000020840000000002037000000000206500000000020630000000002062000000000207703699000000000000832500000000001719678000000000000000009999123100000010000000000000BRNEOEACNOR3121
012024020202NGRD3       010NEOGRID     ON      NM   R$  000000000010900000000001120000000000108000000000010900000000001080000000000108000000000010900485000000000000438600000000000048062000000000000000009999123100000010000000000000BRNGRDACNOR3103
012024020202NINJ3       010GETNINJAS   ON      NM   R$  000000000050100000000005090000000000501000000000050100000000005060000000000501000000000050600262000000000000377900000000000189664100000000000000009999123100000010000000000000BRNINJACNOR5101
012024020202SMFT3       010SMART FIT   ON      NM   R$  000000000247900000000024970000000002424000000000245100000000024500000000002449000000000246208502000000000002003400000000004912235200000000000000009999123100000010000000000000BRSMFTACNOR1111
012024020202SMTO3       010SAO MARTINHOON      NM   R$  000000000276800000000027770000000002696000000000271900000000027160000000002714000000000272805411000000000001264600000000003439307200000000000000009999123100000010000000000000BRSMTOACNOR3125
012024020202SNSY3       010SANSUY      ON           R$  000000000139500000000014450000000001272000000000134000000000013260000000001289000000000133000051000000000000005900000000000007907900000000000000009999123100000010000000000000BRSNSYACNOR2113
012024020202SNSY5       010SANSUY      PNA          R$  000000000044300000000004530000000000433000000000044200000000004490000000000436000000000045300023000000000000005900000000000002612500000000000000009999123100000010000000000000BRSNSYACNPA5111
012024020202SOJA3       010BOA SAFRA   ON      NM   R$  000000000153700000000015430000000001490000000000151300000000015430000000001530000000000154301257000000000000526000000000000796222500000000000000009999123100000010000000000000BRSOJAACNOR9105
012024020202SOMA3       010GRUPO SOMA  ON      NM   R$  000000000078200000000008020000000000757000000000077200000000007710000000000770000000000077121986000000000026009900000000020086147500000000000000009999123100000010000000000000BRSOMAACNOR3102
012024020202WEGE3       010WEG         ON      NM   R$  000000000326400000000032990000000003225000000000326300000000032590000000003258000000000327720951000000000006217700000000020289539000000000000000009999123100000010000000000000BRWEGEACNOR0220
012024020202WEST3       010WESTWING    ON      NM   R$  000000000012700000000001270000000000125000000000012500000000001270000000000125000000000012700024000000000000016700000000000002100000000000000000009999123100000010000000000000BRWESTACNOR3100
012024020202WHRL3       010WHIRLPOOL   ON           R$  000000000042300000000004230000000000420000000000042000000000004220000000000420000000000042200003000000000000000800000000000000336700000000000000009999123100000010000000000000BRWHRLACNOR5128
012024020202PFRM3       010PROFARMA    ON      NM   R$  000000000048900000000005030000000000476000000000048600000000004870000000000485000000000048700807000000000000307500000000000149698000000000000000009999123100000010000000000000BRPFRMACNOR1116
012024020202PGMN3       010PAGUE MENOS ON  EJS NM   R$  000000000031100000000003130000000000306000000000030800000000003080000000000308000000000030903092000000000001326700000000000409058000000000000000009999123100000010000000000000BRPGMNACNOR8103
012024020202PINE3       010PINE        ON      N2   R$  000000000037000000000003700000000000370000000000037000000000003700000000000353000000000047900008000000000000001400000000000000518000000000000000009999123100000010000000000000BRPINEACNOR1148
012024020202PINE4       010PINE        PN      N2   R$  000000000042300000000004230000000000403000000000040900000000004120000000000411000000000041201237000000000000387200000000000158659100000000000000009999123100000010000000000000BRPINEACNPR8148
012024020202PLAS3       010PLASCAR PARTON           R$  000000000071900000000007190000000000719000000000071900000000007190000000000689000000000072000001000000000000000100000000000000071900000000000000009999123100000010000000000000BRPLASACNOR2106
012024020202HYPE3       010HYPERA      ON  EJ  NM   R$  000000000318500000000032120000000003120000000000314900000000031280000000003127000000000313811614000000000002748400000000008657087300000000000000009999123100000010000000000000BRHYPEACNOR0137
012024020202ALLD3       010ALLIED      ON      NM   R$  000000000069500000000007110000000000691000000000070000000000007100000000000700000000000071000052000000000000014900000000000010432400000000000000009999123100000010000000000000BRALLDACNOR3105
012024020202ALOS3       010ALLOS       ON      NM   R$  000000000246700000000024790000000002407000000000243600000000024480000000002447000000000244810590000000000002813600000000006855384100000000000000009999123100000010000000000000BRALOSACNOR5100
012024020202ALPA3       010ALPARGATAS  ON      N1   R$  000000000091500000000009150000000000913000000000091300000000009130000000000893000000000091400002000000000000000300000000000000274100000000000000009999123100000010000000000000BRALPAACNOR0231
012024020202ALPA4       010ALPARGATAS  PN      N1   R$  000000000083700000000008610000000000810000000000083200000000008290000000000829000000000083608790000000000004570100000000003803457000000000000000009999123100000010000000000000BRALPAACNPR7232
012024020202CMIN3       010CSNMINERACAOON      N2   R$  000000000067800000000006840000000000663000000000066800000000006630000000000663000000000066411356000000000005674100000000003791846600000000000000009999123100000010000000000000BRCMINACNOR2110
012024020202COCE5       010COELCE      PNA          R$  000000000407400000000040740000000004015000000000403500000000040740000000004015000000000407500071000000000000009100000000000036723300000000000000009999123100000010000000000000BRCOCEACNPA3146
012024020202COGN3       010COGNA ON    ON      NM   R$  000000000028600000000002890000000000251000000000026200000000002680000000000268000000000026929432000000000118084700000000031055851400000000000000009999123100000010000000000000BRCOGNACNOR2104
012024020202ELMD3       010ELETROMIDIA ON      NM   R$  000000000171400000000017580000000001692000000000171900000000017540000000001730000000000175600221000000000000041900000000000072062800000000000000009999123100000010000000000000BRELMDACNOR3100
012024020202MILS3       010MILLS       ON      NM   R$  000000000130200000000013210000000001281000000000129200000000012880000000001288000000000129202630000000000000546200000000000705927200000000000000009999123100000010000000000000BRMILSACNOR2124
012024020202MLAS3       010MULTILASER  ON      NM   R$  000000000019600000000001990000000000188000000000019100000000001910000000000190000000000019108982000000000004039400000000000771610600000000000000009999123100000010000000000000BRMLASACNOR9101
012024020202MNPR3       010MINUPAR     ON           R$  000000000224400000000022450000000002244000000000224400000000022450000000001746000000000224500004000000000000000400000000000000897800000000000000009999123100000010000000000000BRMNPRACNOR5122
012024020202MOVI3       010MOVIDA      ON      NM   R$  000000000092100000000009280000000000881000000000090000000000009160000000000916000000000091907616000000000003202900000000002885493400000000000000009999123100000010000000000000BRMOVIACNOR0122
012024020202MRFG3       010MARFRIG     ON      NM   R$  000000000091900000000009300000000000902000000000090800000000009100000000000910000000000091112360000000000006010600000000005461660100000000000000009999123100000010000000000000BRMRFGACNOR0116
012024020202AALR3       010ALLIAR      ON      NM   R$  000000000082400000000008260000000000805000000000081600000000008250000000000819000000000082500401000000000000060100000000000049090400000000000000009999123100000010000000000000BRAALRACNOR6102
012024020202ABCB4       010ABC BRASIL  PN      N2   R$  000000000245500000000024870000000002411000000000243300000000024300000000002428000000000243005492000000000000938100000000002282659200000000000000009999123100000010000000000000BRABCBACNPR4145
012024020202ABEV3       010AMBEV S/A   ON           R$  000000000130800000000013200000000001296000000000130600000000013070000000001307000000000130823543000000000022938800000000029960677800000000000000009999123100000010000000000000BRABEVACNOR1127
012024020202CLSA3       010CLEARSALE   ON      NM   R$  000000000030000000000003360000000000296000000000032100000000003360000000000332000000000033603227000000000001886100000000000605554100000000000000009999123100000010000000000000BRCLSAACNOR0100
012024020202CLSC4       010CELESC      PN      N2   R$  000000000663500000000066710000000006570000000000660100000000066690000000006571000000000667000015000000000000003500000000000023104800000000000000009999123100000010000000000000BRCLSCACNPR3128
012024020202CMIG3       010CEMIG       ON      N1   R$  000000000151700000000015270000000001498000000000150400000000015080000000001504000000000150801130000000000000284200000000000427687900000000000000009999123100000010000000000000BRCMIGACNOR6239
012024020202CMIG4       010CEMIG       PN      N1   R$  000000000117800000000011800000000001128000000000114000000000011360000000001135000000000113624284000000000011222600000000012796451100000000000000009999123100000010000000000000BRCMIGACNPR3240
012024020202EALT3       010ACO ALTONA  ON           R$  000000000101500000000010150000000001015000000000101500000000010150000000000915000000000101400001000000000000000100000000000000101500000000000000009999123100000010000000000000BREALTACNOR4137
012024020202EALT4       010ACO ALTONA  PN           R$  000000000101400000000010150000000000996000000000101100000000010150000000001003000000000101500013000000000000002600000000000002629700000000000000009999123100000010000000000000BREALTACNPR1137
012024020202ECOR3       010ECORODOVIAS ON      NM   R$  000000000090500000000009130000000000879000000000088800000000008820000000000881000000000088206330000000000003076800000000002733049600000000000000009999123100000010000000000000BRECORACNOR8119
012024020202EGIE3       010ENGIE BRASILON      NM   R$  000000000402300000000040360000000003951000000000397400000000039700000000003970000000000398209857000000000002221100000000008826869900000000000000009999123100000010000000000000BREGIEACNOR9125
012024020202EKTR3       010ELEKTRO     ON           R$  000000000380000000000038000000000003800000000000380000000000038000000000003355000000000380000002000000000000000200000000000000760000000000000000009999123100000010000000000000BREKTRACNOR0159
012024020202ELET3       010ELETROBRAS  ON      N1   R$  000000000415600000000041950000000004033000000000407000000000040650000000004065000000000407025916000000000007050500000000028698053000000000000000009999123100000010000000000000BRELETACNOR6159
012024020202ELET6       010ELETROBRAS  PNB     N1   R$  000000000464300000000046690000000004492000000000454300000000045440000000004540000000000455007147000000000001299000000000005901822100000000000000009999123100000010000000000000BRELETACNPB7076
012024020202GRND3       010GRENDENE    ON      NM   R$  000000000066800000000006720000000000656000000000066100000000006590000000000659000000000066403018000000000001012800000000000670086400000000000000009999123100000010000000000000BRGRNDACNOR3172
012024020202GSHP3       010GENERALSHOPPON           R$  000000000140000000000014000000000001400000000000140000000000014000000000001263000000000179000001000000000000003500000000000004900000000000000000009999123100000010000000000000BRGSHPACNOR7102
012024020202GUAR3       010GUARARAPES  ON      NM   R$  000000000051500000000005280000000000502000000000051000000000005120000000000512000000000051305393000000000001645000000000000839226300000000000000009999123100000010000000000000BRGUARACNOR4172
012024020202HAGA3       010HAGA S/A    ON           R$  000000000024600000000002500000000000246000000000024800000000002500000000000246000000000025400002000000000000000200000000000000049600000000000000009999123100000010000000000000BRHAGAACNOR7103
012024020202HAGA4       010HAGA S/A    PN           R$  000000000010800000000001080000000000106000000000010600000000001060000000000106000000000010700012000000000000002500000000000000267400000000000000009999123100000010000000000000BRHAGAACNPR4103
012024020202HAPV3       010HAPVIDA     ON      NM   R$  000000000039100000000003960000000000379000000000038600000000003830000000000383000000000038430458000000000063875600000000024697526800000000000000009999123100000010000000000000BRHAPVACNOR4113
012024020202HBOR3       010HELBOR      ON      NM   R$  000000000026300000000002700000000000260000000000026400000000002660000000000266000000000026700438000000000000494500000000000130936300000000000000009999123100000010000000000000BRHBORACNOR3117
012024020202HBRE3       010HBR REALTY  ON      NM   R$  000000000048100000000005050000000000476000000000049100000000005000000000000496000000000050001231000000000001002900000000000492505500000000000000009999123100000010000000000000BRHBREACNOR4100
012024020202HBSA3       010HIDROVIAS   ON      NM   R$  000000000037000000000003740000000000364000000000036900000000003740000000000371000000000037509454000000000005214000000000001927865400000000000000009999123100000010000000000000BRHBSAACNOR0100
012024020202HBTS5       010HABITASUL   PNA          R$  000000000350000000000035000000000003500000000000350000000000035000000000003370000000000380000001000000000000000500000000000001750000000000000000009999123100000010000000000000BRHBTSACNPA3127
012024020202HETA4       010HERCULES    PN           R$  000000000059300000000006190000000000590000000000059800000000006190000000000592000000000065500005000000000000001000000000000000598100000000000000009999123100000010000000000000BRHETAACNPR9136
012024020202BBDC3       010BRADESCO    ON  EJ  N1   R$  000000000137000000000013770000000001349000000000135800000000013640000000001364000000000136711344000000000005744000000000007805556200000000000000009999123100000010000000000000BRBBDCACNOR1766
012024020202BBDC4       010BRADESCO    PN  EJ  N1   R$  000000000153000000000015430000000001507000000000152000000000015320000000001531000000000153443333000000000041476600000000063076087100000000000000009999123100000010000000000000BRBBDCACNPR8766
012024020202CCRO3       010CCR SA      ON      NM   R$  000000000132500000000013280000000001301000000000131100000000013150000000001314000000000131617916000000000008316100000000010905248100000000000000009999123100000010000000000000BRCCROACNOR2144
012024020202CEAB3       010CEA MODAS   ON      NM   R$  000000000073600000000007520000000000708000000000072300000000007260000000000725000000000072604797000000000002155700000000001560682400000000000000009999123100000010000000000000BRCEABACNOR1101
012024020202CEBR3       010CEB         ON           R$  000000000189600000000019300000000001870000000000188900000000018790000000001870000000000188600033000000000000008500000000000016058800000000000000009999123100000010000000000000BRCEBRACNOR5124
012024020202CEBR5       010CEB         PNA          R$  000000000175400000000017680000000001753000000000175400000000017680000000001751000000000176900011000000000000006000000000000010529300000000000000009999123100000010000000000000BRCEBRACNPA8123
012024020202CEBR6       010CEB         PNB          R$  000000000215900000000021590000000002121000000000214400000000021400000000002130000000000214000027000000000000006600000000000014150400000000000000009999123100000010000000000000BRCEBRACNPB6123
012024020202CEDO3       010CEDRO       ON      N1   R$  000000000294900000000029490000000002800000000000287400000000028000000000001500000000000294900002000000000000000200000000000000574900000000000000009999123100000010000000000000BRCEDOACNOR8096
012024020202CEDO4       010CEDRO       PN      N1   R$  000000000261000000000026100000000002610000000000261000000000026100000000002552000000000266000002000000000000000500000000000001305000000000000000009999123100000010000000000000BRCEDOACNPR5128
012024020202CEEB3       010COELBA      ON           R$  000000000392500000000039690000000003905000000000392600000000039140000000003805000000000396900009000000000000000900000000000003534000000000000000009999123100000010000000000000BRCEEBACNOR3196
012024020202CGAS3       010COMGAS      ON           R$  000000001062500000000106250000000010625000000001062500000000106250000000010625000000001219800001000000000000000100000000000001062500000000000000009999123100000010000000000000BRCGASACNOR0162
012024020202CGAS5       010COMGAS      PNA          R$  000000001185700000000118570000000011740000000001182000000000117610000000011760000000001204000013000000000000001400000000000016548100000000000000009999123100000010000000000000BRCGASACNPA3159
012024020202CGRA3       010GRAZZIOTIN  ON           R$  000000000249600000000025610000000002490000000000252100000000025240000000002496000000000252300020000000000000004100000000000010338900000000000000009999123100000010000000000000BRCGRAACNOR2081
012024020202CGRA4       010GRAZZIOTIN  PN           R$  000000000253300000000025530000000002512000000000254000000000025500000000002519000000000255000038000000000000011200000000000028449100000000000000009999123100000010000000000000BRCGRAACNPR9081
012024020202CIEL3       010CIELO       ON      NM   R$  000000000049600000000004990000000000487000000000049100000000004940000000000494000000000049527094000000000029270800000000014383335600000000000000009999123100000010000000000000BRCIELACNOR3156
012024020202DASA3       010DASA        ON      NM   R$  000000000076700000000007720000000000721000000000074000000000007550000000000754000000000076004902000000000001476800000000001093409200000000000000009999123100000010000000000000BRDASAACNOR1122
012024020202DESK3       010DESKTOP     ON      NM   R$  000000000129800000000013140000000001253000000000129300000000012870000000001286000000000129700646000000000000525700000000000679930900000000000000009999123100000010000000000000BRDESKACNOR2103
012024020202DEXP3       010DEXXOS PAR  ON      N1   R$  000000000121900000000012300000000001186000000000120900000000012110000000001205000000000121400401000000000000088300000000000106839700000000000000009999123100000010000000000000BRDEXPACNOR1104
012024020202DEXP4       010DEXXOS PAR  PN      N1   R$  000000000118600000000012000000000001175000000000119200000000012000000000001175000000000120200013000000000000005400000000000006438400000000000000009999123100000010000000000000BRDEXPACNPR8104
012024020202DIRR3       010DIRECIONAL  ON      NM   R$  000000000222900000000022350000000002125000000000216700000000021600000000002160000000000216608612000000000002191200000000004750023500000000000000009999123100000010000000000000BRDIRRACNOR0117
012024020202DMVF3       010D1000VFARMA ON      NM   R$  000000000060100000000006100000000000598000000000060500000000006070000000000603000000000060800365000000000000094300000000000057075900000000000000009999123100000010000000000000BRDMVFACNOR9100
012024020202DOTZ3       010DOTZ SA     ON      NM   R$  000000000073100000000007310000000000694000000000071500000000007160000000000693000000000071700035000000000000010600000000000007581600000000000000009999123100000010000000000000BRDOTZACNOR7101
012024020202DTCY3       010DTCOM-DIRECTON           R$  000000000050000000000005000000000000500000000000050000000000005000000000000000000000000050000001000000000000000200000000000000100000000000000000009999123100000010000000000000BRDTCYACNOR5109
012024020202DXCO3       010DEXCO       ON      NM   R$  000000000078900000000007960000000000764000000000077100000000007640000000000764000000000077207626000000000002392300000000001844501800000000000000009999123100000010000000000000BRDXCOACNOR8104
012024020202RAIZ4       010RAIZEN      PN      N2   R$  000000000038400000000003880000000000376000000000037900000000003780000000000378000000000037914299000000000010550300000000003999422700000000000000009999123100000010000000000000BRRAIZACNPR6109
012024020202RANI3       010IRANI       ON      NM   R$  000000000098500000000010040000000000985000000000099400000000009890000000000988000000000099202888000000000000887400000000000882937600000000000000009999123100000010000000000000BRRANIACNOR5069
012024020202RAPT3       010RANDON PART ON      N1   R$  000000000112300000000011480000000001110000000000112400000000011330000000001114000000000113700182000000000000028200000000000031724300000000000000009999123100000010000000000000BRRAPTACNOR7162
012024020202RAPT4       010RANDON PART PN      N1   R$  000000000118200000000011880000000001115000000000113100000000011350000000001134000000000113509079000000000004247300000000004807333700000000000000009999123100000010000000000000BRRAPTACNPR4162
012024020202RCSL3       010RECRUSUL    ON           R$  000000000021800000000002230000000000208000000000021700000000002190000000000219000000000022006633000000000005547600000000001205652300000000000000009999123100000010000000000000BRRCSLACNOR4133
012024020207TXRX4       010TEX RENAUX  PN           R$  000000000036700000000003740000000000358000000000036300000000003590000000000355000000000037400018000000000000002600000000000000945900000000000000009999123100000010000000000000BRTXRXACNPR0142
012024020207NUTR3       010NUTRIPLANT  ON      MA   R$  000000000047500000000004990000000000475000000000048900000000004900000000000485000000000049600017000000000000001900000000000000930600000000000000009999123100000010000000000000BRNUTRACNOR0104
012024020208TEKA4       010TEKA        PN           R$  000000000246000000000025000000000002410000000000246600000000024100000000002406000000000271000011000000000000024300000000000059943300000000000000009999123100000010000000000000BRTEKAACNPR3140
012024020208LIGT3       010LIGHT S/A   ON      NM   R$  000000000059400000000006100000000000569000000000058400000000005780000000000578000000000058103203000000000000546300000000000319226900000000000000009999123100000010000000000000BRLIGTACNOR2124
012024020208OIBR4       010OI          PN      N1   R$  000000000015000000000001520000000000150000000000015000000000001510000000000150000000000015100043000000000000027100000000000004070000000000000000009999123100000010000000000000BROIBRACNPR8109
012024020208OSXB3       010OSX BRASIL  ON      NM   R$  000000000056200000000005690000000000550000000000056000000000005500000000000530000000000055100016000000000000004900000000000002744900000000000000009999123100000010000000000000BROSXBACNOR8109
012024020208ETER3       010ETERNIT     ON      NM   R$  000000000071200000000007240000000000699000000000070800000000007140000000000709000000000071401050000000000000351700000000000249051300000000000000009999123100000010000000000000BRETERACNOR3242
012024020208ATMP3       010ATMASA      ON           R$  000000000030500000000003050000000000300000000000030300000000003000000000000300000000000030400005000000000000002000000000000000606000000000000000009999123100000010000000000000BRATMPACNOR8100
012024020208JFEN3       010JOAO FORTES ON           R$  000000000020600000000002060000000000187000000000019300000000001870000000000187000000000019300103000000000000049600000000000009574100000000000000009999123100000010000000000000BRJFENACNOR0058
012024020208RNEW11      010RENOVA      UNT     N2   R$  000000000038000000000003970000000000372000000000038000000000003810000000000370000000000037200035000000000000005300000000000002015600000000000000009999123100000010000000000000BRRNEWCDAM15110
012024020208RNEW3       010RENOVA      ON      N2   R$  000000000012900000000001330000000000125000000000012900000000001300000000000126000000000013000099000000000000108700000000000014107000000000000000009999123100000010000000000000BRRNEWACNOR8110
012024020208RNEW4       010RENOVA      PN      N2   R$  000000000012600000000001300000000000124000000000012600000000001270000000000125000000000012700217000000000000143800000000000018186600000000000000009999123100000010000000000000BRRNEWACNPR5110
012024020208FRTA3       010POMIFRUTAS  ON      NM   R$  000000000016200000000001640000000000158000000000016000000000001580000000000158000000000016000012000000000000005800000000000000931400000000000000009999123100000010000000000000BRFRTAACNOR8103
012024020208RPMG3       010PET MANGUINHON           R$  000000000022900000000002420000000000213000000000022700000000002150000000000213000000000021500105000000000000115500000000000026321700000000000000009999123100000010000000000000BRRPMGACNOR9194
012024020208RSID3       010ROSSI RESID ON      NM   R$  000000000038300000000003880000000000373000000000037700000000003800000000000376000000000038000217000000000000117500000000000044345000000000000000009999123100000010000000000000BRRSIDACNOR8120
012024020208PMAM3       010PARANAPANEMAON      NM   R$  000000000039800000000004020000000000386000000000038800000000003870000000000385000000000038900208000000000000028500000000000011071800000000000000009999123100000010000000000000BRPMAMACNOR3038
012024020208HOOT4       010HOTEIS OTHONPN           R$  000000000027900000000002810000000000272000000000027400000000002810000000000273000000000028100017000000000000008600000000000002358100000000000000009999123100000010000000000000BRHOOTACNPR9015
012024020208AMER3       010AMERICANAS  ON      NM   R$  000000000008100000000000810000000000078000000000007900000000000790000000000078000000000007904631000000000012976500000000001030120900000000000000009999123100000010000000000000BRAMERACNOR6101
012024020208OIBR3       010OI          ON      N1   R$  000000000006200000000000630000000000061000000000006100000000000610000000000061000000000006200536000000000002240800000000000137910300000000000000009999123100000010000000000000BROIBRACNOR1110
012024020210MGLU1       010MAGAZ LUIZA DIR ORD NM   R$  000000000001800000000000270000000000015000000000001700000000000160000000000016000000000001802056000000000003199900000000000056885000000000000000009999123100000010000000000000BRMGLUD01OR7122
012024020210VIVR1       010VIVER       DIR ORD NM   R$  000000000000600000000000080000000000005000000000000700000000000070000000000005000000000000700217000000000000431700000000000003038000000000000000009999123100000010000000000000BRVIVRD17OR5120
012024020210VSTE1       010VESTE       DIR ORD NM   R$  000000000008700000000001010000000000021000000000002800000000000210000000000021000000000008500016000000000000009300000000000000265000000000000000009999123100000010000000000000BRVSTED02OR8101
012024020210PGMN1       010PAGUE MENOS DIR ORD NM   R$  000000000002400000000000240000000000019000000000002100000000000190000000000019000000000002200743000000000000341900000000000007186100000000000000009999123100000010000000000000BRPGMND03OR9102
012024020212TVRI11      010FII TIVIO RICI  ER       R$  000000001032000000000104460000000010270000000001040400000000104100000000010410000000001042002533000000000000018777000000000195369219000000000000009999123100000010000000000000BRTVRICTF001104
012024020212SPTW11      010FII SP DOWNTCI  ER       R$  000000000430700000000043970000000004220000000000430200000000043500000000004350000000000437900303000000000000002130000000000009164932000000000000009999123100000010000000000000BRSPTWCTF002231
012024020212SPXS11      010FII SPX SYN CI           R$  000000000094800000000009550000000000936000000000095000000000009520000000000949000000000095211758000000000000032854000000000031213240000000000000009999123100000010000000000000BRSPXSCTF002119
012024020212KORE11      010FII KORE    CI  ER       R$  000000001106400000000110640000000010920000000001097600000000110000000000010988000000001100003447000000000000017742000000000194752549000000000000009999123100000010000000000000BRKORECTF012102
012024020212BCFF11      010FII BC FFII CI           R$  000000000091000000000009130000000000909000000000091100000000009130000000000912000000000091307749000000000000300327000000000273676120000000000000009999123100000010000000000000BRBCFFCTF000273
012024020212BCIA11      010FII BCIA    CI  ER       R$  000000001090700000000109980000000010404000000001074500000000105600000000010560000000001068503783000000000000031868000000000342443002000000000000009999123100000010000000000000BRBCIACTF005206
012024020212BCRI11      010FII BEES CRICI  ER       R$  000000000743500000000074430000000007287000000000740000000000074240000000007401000000000742400602000000000000005052000000000037388728000000000000009999123100000010000000000000BRBCRICTF009211
012024020212CPFF11      010FII CAP REITCI           R$  000000000760900000000076200000000007554000000000759900000000075820000000007581000000000758200183000000000000001033000000000007849834000000000000009999123100000010000000000000BRCPFFCTF000151
012024020212CPSH11      010FII CPSH    CI           R$  000000001095000000000109690000000010949000000001096400000000109500000000010949000000001096900072000000000000000572000000000006271698000000000000009999123100000010000000000000BRCPSHCTF017108
012024020212CPTS11      010FII CAPI SECCI           R$  000000000084500000000008510000000000844000000000084700000000008460000000000845000000000084635335000000000000865585000000000733520595000000000000009999123100000010000000000000BRCPTSCTF004226
012024020212EQIR11      010FII EQI RECECI           R$  000000000094400000000009520000000000939000000000094100000000009430000000000940000000000094300246000000000000007432000000000006996815000000000000009999123100000010000000000000BREQIRCTF003128
012024020212OUJP11      010FII OURI JPPCI  ER       R$  000000000988400000000100750000000009800000000000987800000000100750000000010022000000001007501673000000000000004306000000000042537903000000000000009999123100000010000000000000BROUJPCTF006183
012024020212OULG11      010FII OURILOG CI           R$  000000000319000000000032150000000003190000000000320200000000032050000000003205000000000321000045000000000000000498000000000001594836000000000000009999123100000010000000000000BROULGCTF001153
012024020212OURE11      010FII OU RENDACI           R$  000000000737800000000073780000000007301000000000732400000000073200000000007318000000000732800079000000000000000882000000000006460076000000000000009999123100000010000000000000BROURECTF003138
012024020212PABY11      010FII PANAMBY CI           R$  000000000145600000000014580000000001456000000000145700000000014580000000001458000000000151500002000000000000000006000000000000008746000000000000009999123100000010000000000000BRPABYCTF012158
012024020212CTXT11      010FII C TEXTILCI           R$  000000000113300000000011330000000001092000000000109300000000010940000000001094000000000111300018000000000000000798000000000000872379000000000000009999123100000010000000000000BRCTXTCTF014206
012024020212CVBI11      010FII VBI CRI CI           R$  000000000930000000000093870000000009255000000000930600000000092930000000009292000000000929317067000000000000070880000000000659624827000000000000009999123100000010000000000000BRCVBICTF001161
012024020212CXAG11      010FII CAIXA AGCI  ER       R$  000000000810200000000081300000000008102000000000812500000000081210000000008120000000000812100069000000000000000995000000000008084547000000000000009999123100000010000000000000BRCXAGCTF003124
