00COTAHIST.2024BOVESPA 20240419                                                                                                                                                                                                                      
012024041902ESPA3       010ESPACOLASER ON      NM   R$  000000000009000000000000940000000000090000000000009100000000000900000000000090000000000009200558000000000000970800000000000089252400000000000000009999123100000010000000000000BRESPAACNOR7103
012024041902EUCA3       010EUCATEX     ON      N1   R$  000000000164500000000016450000000001645000000000164500000000016450000000001620000000000170400001000000000000000100000000000000164500000000000000009999123100000010000000000000BREUCAACNOR1157
012024041902EUCA4       010EUCATEX     PN      N1   R$  000000000153700000000016180000000001532000000000156500000000016180000000001564000000000161800451000000000000083900000000000131320500000000000000009999123100000010000000000000BREUCAACNPR8044
012024041902EVEN3       010EVEN        ON      NM   R$  000000000073300000000007450000000000725000000000073300000000007260000000000725000000000072602992000000000000687800000000000504764700000000000000009999123100000010000000000000BREVENACNOR8118
012024041902EZTC3       010EZTEC       ON      NM   R$  000000000134400000000013790000000001331000000000136300000000013580000000001357000000000136307828000000000003132400000000004271951900000000000000009999123100000010000000000000BREZTCACNOR0124
012024041902NGRD3       010NEOGRID     ON      NM   R$  000000000009700000000001050000000000097000000000010200000000001030000000000103000000000010400352000000000000384200000000000039225500000000000000009999123100000010000000000000BRNGRDACNOR3103
012024041902NINJ3       010GETNINJAS   ON      NM   R$  000000000051000000000005180000000000510000000000051600000000005180000000000510000000000051800173000000000000072800000000000037590700000000000000009999123100000010000000000000BRNINJACNOR5101
012024041902NORD3       010NORDON MET  ON           R$  000000000085000000000008800000000000850000000000086800000000008600000000000555000000000088000009000000000000001100000000000000955000000000000000009999123100000010000000000000BRNORDACNOR7135
012024041902NTCO3       010GRUPO NATURAON      NM   R$  000000000161100000000016530000000001597000000000161700000000016090000000001609000000000161115261000000000008915900000000014418142800000000000000009999123100000010000000000000BRNTCOACNOR5106
012024041902PETZ3       010PETZ        ON      NM   R$  000000000051400000000005240000000000463000000000049100000000004800000000000479000000000048048134000000000104618000000000051396276500000000000000009999123100000010000000000000BRPETZACNOR2109
012024041902QUAL3       010QUALICORP   ON      NM   R$  000000000013500000000001490000000000135000000000014400000000001470000000000147000000000014804635000000000011065500000000001601023600000000000000009999123100000010000000000000BRQUALACNOR6119
012024041902RSUL4       010RIOSULENSE  PN  ED       R$  000000000770000000000077900000000007700000000000774500000000077900000000007458000000000779900002000000000000000200000000000001549000000000000000009999123100000010000000000000BRRSULACNPR3114
012024041902SANB11      010SANTANDER BRUNT          R$  000000000265900000000027320000000002659000000000271400000000027260000000002725000000000272712458000000000004322100000000011734067500000000000000009999123100000010000000000000BRSANBCDAM13163
012024041902SANB3       010SANTANDER BRON           R$  000000000125300000000012840000000001248000000000126900000000012780000000001271000000000127900986000000000000165700000000000210416400000000000000009999123100000010000000000000BRSANBACNOR8170
012024041902SANB4       010SANTANDER BRPN           R$  000000000141800000000014490000000001415000000000143500000000014490000000001443000000000145001300000000000000294900000000000423290600000000000000009999123100000010000000000000BRSANBACNPR5170
012024041902TAEE3       010TAESA       ON      N2   R$  000000000118300000000011870000000001179000000000118200000000011850000000001182000000000118500500000000000000083500000000000098700300000000000000009999123100000010000000000000BRTAEEACNOR9145
012024041902TAEE4       010TAESA       PN      N2   R$  000000000119400000000011990000000001190000000000119400000000011920000000001192000000000119300691000000000000180900000000000216124800000000000000009999123100000010000000000000BRTAEEACNPR6145
012024041902TASA3       010TAURUS ARMASON      N2   R$  000000000129000000000013390000000001290000000000132800000000013080000000001290000000000133100054000000000000016200000000000021514500000000000000009999123100000010000000000000BRTASAACNOR7103
012024041902TASA4       010TAURUS ARMASPN      N2   R$  000000000121500000000012420000000001213000000000123100000000012310000000001230000000000123801181000000000000575100000000000708047800000000000000009999123100000010000000000000BRTASAACNPR4103
012024041902TCSA3       010TECNISA     ON      NM   R$  000000000024900000000002550000000000247000000000024800000000002470000000000247000000000024900197000000000000070500000000000017541200000000000000009999123100000010000000000000BRTCSAACNOR3112
012024041902MAPT4       010CEMEPE      PN           R$  000000000103000000000010500000000000909000000000098800000000009090000000000806000000000095000023000000000000003800000000000003757400000000000000009999123100000010000000000000BRMAPTACNPR5106
012024041902MATD3       010MATER DEI   ON      NM   R$  000000000055300000000005960000000000553000000000057100000000005690000000000568000000000057502744000000000001209400000000000690709200000000000000009999123100000010000000000000BRMATDACNOR4103
012024041902MBLY3       010MOBLY       ON      NM   R$  000000000023000000000002410000000000230000000000023500000000002370000000000233000000000023700512000000000000614800000000000144774900000000000000009999123100000010000000000000BRMBLYACNOR5100
012024041902MDIA3       010M.DIASBRANCOON      NM   R$  000000000344500000000034490000000003411000000000342600000000034300000000003426000000000343402649000000000000646600000000002215860200000000000000009999123100000010000000000000BRMDIAACNOR7134
012024041902MDNE3       010MOURA DUBEUXON      NM   R$  000000000119900000000012590000000001192000000000123300000000012270000000001227000000000122803665000000000001056100000000001302930800000000000000009999123100000010000000000000BRMDNEACNOR9100
012024041902MEAL3       010IMC S/A     ON      NM   R$  000000000014900000000001540000000000149000000000015200000000001520000000000152000000000015300288000000000000295000000000000045012000000000000000009999123100000010000000000000BRMEALACNOR9105
012024041902KLBN11      010KLABIN S/A  UNT     N2   R$  000000000241500000000024620000000002404000000000244700000000024620000000002451000000000246312281000000000006232400000000015252384500000000000000009999123100000010000000000000BRKLBNCDAM18140
012024041902KLBN3       010KLABIN S/A  ON      N2   R$  000000000048200000000004880000000000478000000000048400000000004880000000000486000000000048800454000000000000227000000000000109948900000000000000009999123100000010000000000000BRKLBNACNOR2168
012024041902KLBN4       010KLABIN S/A  PN      N2   R$  000000000048500000000004930000000000482000000000048800000000004930000000000491000000000049301206000000000000644700000000000314754600000000000000009999123100000010000000000000BRKLBNACNPR9168
012024041902MILS3       010MILLS       ON      NM   R$  000000000130700000000013500000000001302000000000131500000000013220000000001321000000000132203119000000000001612600000000002122165800000000000000009999123100000010000000000000BRMILSACNOR2125
012024041902MLAS3       010MULTILASER  ON      NM   R$  000000000020500000000002200000000000205000000000021200000000002090000000000208000000000020903288000000000002620300000000000556359800000000000000009999123100000010000000000000BRMLASACNOR9101
012024041902MNDL3       010MUNDIAL     ON           R$  000000000468700000000046890000000004669000000000468300000000046690000000003560000000000467000004000000000000000400000000000001873300000000000000009999123100000010000000000000BRMNDLACNOR4107
012024041902MNPR3       010MINUPAR     ON           R$  000000000185000000000019000000000001850000000000188900000000018970000000001820000000000189500009000000000000002300000000000004345800000000000000009999123100000010000000000000BRMNPRACNOR5122
012024041902MOAR3       010MONT ARANHA ON           R$  000000003500000000000380980000000035000000000003654900000000380980000000012100000000003890000002000000000000000200000000000007309800000000000000009999123100000010000000000000BRMOARACNOR5234
012024041902MOVI3       010MOVIDA      ON      NM   R$  000000000074600000000007680000000000742000000000075300000000007510000000000750000000000075405302000000000002110700000000001590569700000000000000009999123100000010000000000000BRMOVIACNOR0122
012024041902PDGR3       010PDG REALT   ON      NM   R$  000000000002600000000000260000000000023000000000002400000000000240000000000024000000000002500992000000000005573100000000000136864500000000000000009999123100000010000000000000BRPDGRACNOR8118
012024041902PDTC3       010PADTEC      ON      NM   R$  000000000023000000000002320000000000227000000000022800000000002280000000000228000000000023000213000000000000056900000000000013006700000000000000009999123100000010000000000000BRPDTCACNOR3100
012024041902ELET3       010ELETROBRAS  ON      N1   R$  000000000380000000000038280000000003775000000000379800000000037800000000003780000000000379020244000000000006956400000000026420783100000000000000009999123100000010000000000000BRELETACNOR6159
012024041902ELET5       010ELETROBRAS  PNA     N1   R$  000000000990000000000099000000000009900000000000990000000000099000000000008000000000001300000001000000000000000100000000000000990000000000000000009999123100000010000000000000BRELETACNPA9076
012024041902ELET6       010ELETROBRAS  PNB     N1   R$  000000000427300000000043000000000004253000000000427000000000042730000000004268000000000427404384000000000001007200000000004301315200000000000000009999123100000010000000000000BRELETACNPB7076
012024041902GEPA4       010GER PARANAP PN           R$  000000000271700000000027170000000002700000000000270800000000027000000000002655000000000269900002000000000000000200000000000000541700000000000000009999123100000010000000000000BRGEPAACNPR9159
012024041902GFSA3       010GAFISA      ON      NM   R$  000000000058400000000005860000000000570000000000057700000000005770000000000576000000000057702137000000000001285200000000000742237800000000000000009999123100000010000000000000BRGFSAACNOR3124
012024041902GGBR3       010GERDAU      ON  EB  N1   R$  000000000169500000000017130000000001676000000000168900000000016950000000001695000000000170300362000000000000072800000000000122968500000000000000009999123100000010000000000000BRGGBRACNOR1191
012024041902GGBR4       010GERDAU      PN  EB  N1   R$  000000000187100000000019240000000001864000000000190000000000019220000000001915000000000192222872000000000016036300000000030477923700000000000000009999123100000010000000000000BRGGBRACNPR8191
012024041902AGRO3       010BRASILAGRO  ON      NM   R$  000000000250800000000026630000000002508000000000261800000000026630000000002650000000000266302603000000000000746700000000001955236100000000000000009999123100000010000000000000BRAGROACNOR7114
012024041902AGXY3       010AGROGALAXY  ON      NM   R$  000000000019200000000001920000000000180000000000018500000000001800000000000180000000000018200798000000000000298300000000000055441500000000000000009999123100000010000000000000BRAGXYACNOR4102
012024041902PETR3       010PETROBRAS   ON      N2   R$  000000000412000000000042810000000004102000000000423300000000042720000000004271000000000427537106000000000018586000000000078676249900000000000000009999123100000010000000000000BRPETRACNOR9202
012024041902PETR4       010PETROBRAS   PN      N2   R$  000000000400500000000041070000000003984000000000406200000000040530000000004053000000000406007003000000000080485500000000327003810800000000000000009999123100000010000000000000BRPETRACNPR6210
012024041902RANI3       010IRANI       ON      NM   R$  000000000090400000000009330000000000904000000000091700000000009300000000000926000000000093002550000000000000893700000000000819540300000000000000009999123100000010000000000000BRRANIACNOR5070
012024041902RAPT3       010RANDON PART ON      N1   R$  000000000101900000000010230000000000994000000000100500000000010070000000001007000000000100900114000000000000021600000000000021713800000000000000009999123100000010000000000000BRRAPTACNOR7162
012024041902RAPT4       010RANDON PART PN      N1   R$  000000000123400000000012550000000001206000000000122500000000012100000000001210000000000121308274000000000005421800000000006642915400000000000000009999123100000010000000000000BRRAPTACNPR4162
012024041902ALLD3       010ALLIED      ON  EJ  NM   R$  000000000077200000000007860000000000741000000000076400000000007500000000000749000000000075000528000000000000149200000000000114082100000000000000009999123100000010000000000000BRALLDACNOR3106
012024041902ALOS3       010ALLOS       ON      NM   R$  000000000216000000000021980000000002151000000000217300000000021710000000002166000000000217211757000000000005094800000000011073635700000000000000009999123100000010000000000000BRALOSACNOR5100
012024041902RCSL3       010RECRUSUL    ON           R$  000000000014400000000001540000000000142000000000014800000000001530000000000152000000000015301371000000000001128900000000000167856800000000000000009999123100000010000000000000BRRCSLACNOR4133
012024041902RCSL4       010RECRUSUL    PN           R$  000000000005000000000000510000000000049000000000005000000000000500000000000050000000000005100999000000000001250800000000000062698300000000000000009999123100000010000000000000BRRCSLACNPR1133
012024041902RDNI3       010RNI         ON      NM   R$  000000000035300000000003600000000000353000000000035700000000003590000000000354000000000035900007000000000000001400000000000000501100000000000000009999123100000010000000000000BRRDNIACNOR9116
012024041902BEEF3       010MINERVA     ON      NM   R$  000000000060900000000006190000000000604000000000060800000000006080000000000607000000000060807659000000000009186300000000005593641300000000000000009999123100000010000000000000BRBEEFACNOR6116
012024041902BRSR3       010BANRISUL    ON      N1   R$  000000000123500000000012500000000001230000000000123500000000012400000000001231000000000124600035000000000000006600000000000008155000000000000000009999123100000010000000000000BRBRSRACNOR3186
012024041902CPFE3       010CPFL ENERGIAON      NM   R$  000000000346600000000035100000000003462000000000348800000000034930000000003492000000000349410545000000000004403700000000015361832400000000000000009999123100000010000000000000BRCPFEACNOR0136
012024041902CPLE3       010COPEL       ON      N2   R$  000000000082900000000008500000000000829000000000084400000000008480000000000848000000000085011731000000000009581000000000008086488600000000000000009999123100000010000000000000BRCPLEACNOR8148
012024041902AMAR3       010LOJAS MARISAON      NM   R$  000000000015600000000001680000000000156000000000016100000000001670000000000166000000000016700793000000000000604300000000000097820900000000000000009999123100000010000000000000BRAMARACNOR4114
012024041902AMBP3       010AMBIPAR     ON      NM   R$  000000000104100000000010770000000001040000000000106300000000010620000000001062000000000106603475000000000001083500000000001151994600000000000000009999123100000010000000000000BRAMBPACNOR6103
012024041902BEES3       010BANESTES    ON           R$  000000000088000000000008830000000000875000000000088000000000008800000000000875000000000088200038000000000000005600000000000004930400000000000000009999123100000010000000000000BRBEESACNOR9389
012024041902BEES4       010BANESTES    PN           R$  000000000095900000000009670000000000954000000000096200000000009600000000000953000000000096600012000000000000001700000000000001635900000000000000009999123100000010000000000000BRBEESACNPR6314
012024041902SEER3       010SER EDUCA   ON      NM   R$  000000000053100000000005470000000000519000000000053500000000005400000000000537000000000054001644000000000000662400000000000355011900000000000000009999123100000010000000000000BRSEERACNOR5119
012024041902TPIS3       010TRIUNFO PARTON      NM   R$  000000000038000000000003890000000000377000000000038000000000003890000000000379000000000038900042000000000000020900000000000007959300000000000000009999123100000010000000000000BRTPISACNOR8118
012024041902TRAD3       010TC          ON      NM   R$  000000000007700000000000800000000000076000000000007700000000000770000000000077000000000007800134000000000000167200000000000013008300000000000000009999123100000010000000000000BRTRADACNOR3101
012024041902TRIS3       010TRISUL      ON      NM   R$  000000000046600000000004780000000000454000000000046500000000004580000000000456000000000045801132000000000000571700000000000266032200000000000000009999123100000010000000000000BRTRISACNOR4116
012024041902TRPL3       010TRAN PAULISTON      N1   R$  000000000340000000000034000000000003244000000000331200000000033400000000003231000000000335800008000000000000000800000000000002650000000000000000009999123100000010000000000000BRTRPLACNOR4185
012024041902TRPL4       010TRAN PAULISTPN      N1   R$  000000000259000000000026060000000002525000000000255300000000025250000000002525000000000253212295000000000004273100000000010912427000000000000000009999123100000010000000000000BRTRPLACNPR1185
012024041902ARML3       010ARMAC       ON      NM   R$  000000000103500000000010780000000001031000000000104900000000010420000000001037000000000104405580000000000000938900000000000985743600000000000000009999123100000010000000000000BRARMLACNOR1111
012024041902ARZZ3       010AREZZO CO   ON      NM   R$  000000000506000000000052000000000005054000000000514500000000051490000000005124000000000514914526000000000002457300000000012644379700000000000000009999123100000010000000000000BRARZZACNOR3146
012024041902BPAC11      010BTGP BANCO  UNT     N2   R$  000000000328000000000032910000000003241000000000326500000000032620000000003260000000000326519959000000000005641400000000018420136300000000000000009999123100000010000000000000BRBPACUNT006118
012024041902BPAC3       010BTGP BANCO  ON      N2   R$  000000000167000000000016700000000001617000000000164100000000016170000000001617000000000167100024000000000000003300000000000005417200000000000000009999123100000010000000000000BRBPACACNOR7133
012024041902BPAC5       010BTGP BANCO  PNA     N2   R$  000000000082700000000008270000000000805000000000081300000000008180000000000809000000000081800031000000000000005500000000000004473300000000000000009999123100000010000000000000BRBPACACNPA0133
012024041902CBAV3       010CBA         ON      NM   R$  000000000049800000000005140000000000493000000000050500000000005110000000000511000000000051207140000000000004103000000000002073780000000000000000009999123100000010000000000000BRCBAVACNOR5104
012024041902TTEN3       0103TENTOS     ON      NM   R$  000000000098000000000009920000000000961000000000097600000000009750000000000975000000000097905197000000000001118100000000001091819800000000000000009999123100000010000000000000BRTTENACNOR0103
012024041902TUPY3       010TUPY        ON      NM   R$  000000000269900000000027210000000002671000000000269500000000026930000000002690000000000270002890000000000000585900000000001579172600000000000000009999123100000010000000000000BRTUPYACNOR1183
012024041902UCAS3       010UNICASA     ON      NM   R$  000000000024200000000002420000000000233000000000023600000000002360000000000236000000000023700156000000000000098600000000000023287700000000000000009999123100000010000000000000BRUCASACNOR1113
012024041902UGPA3       010ULTRAPAR    ON      NM   R$  000000000266700000000026860000000002646000000000266300000000026570000000002655000000000265713036000000000002552500000000006799856100000000000000009999123100000010000000000000BRUGPAACNOR8155
012024041902BLAU3       010BLAU        ON      NM   R$  000000000103500000000010470000000001020000000000103200000000010290000000001028000000000103100989000000000000227200000000000234513900000000000000009999123100000010000000000000BRBLAUACNOR8112
012024041902BMEB3       010MERCANTIL   ON      N1   R$  000000000232500000000023250000000002325000000000232500000000023250000000002056000000000250000001000000000000000100000000000000232500000000000000009999123100000010000000000000BRBMEBACNOR8205
012024041902BMEB4       010MERCANTIL   PN      N1   R$  000000000227600000000022760000000002233000000000224500000000022400000000002215000000000224000014000000000000002200000000000004940300000000000000009999123100000010000000000000BRBMEBACNPR5210
012024041902BMGB4       010BANCO BMG   PN      N1   R$  000000000033000000000003410000000000329000000000033600000000003350000000000335000000000033601002000000000000407800000000000137229400000000000000009999123100000010000000000000BRBMGBACNPR0108
012024041902B3SA3       010B3          ON      NM   R$  000000000111400000000011330000000001112000000000112100000000011180000000001118000000000111944401000000000039338300000000044119734800000000000000009999123100000010000000000000BRB3SAACNOR6132
012024041902BMIN4       010MERC INVEST PN           R$  000000000149000000000014900000000001490000000000149000000000014900000000001490000000000156900001000000000000000100000000000000149000000000000000009999123100000010000000000000BRBMINACNPR1176
012024041902BMKS3       010BIC MONARK  ON           R$  000000004018000000000435000000000040180000000004278800000000434980000000042000000000004349900017000000000000000206000000000008814370000000000000009999123100000010000000000000BRBMKSACNOR9165
012024041902VLID3       010VALID       ON      NM   R$  000000000176400000000017880000000001747000000000176800000000017620000000001760000000000176201437000000000000237700000000000420282000000000000000009999123100000010000000000000BRVLIDACNOR5141
012024041902VSTE3       010VESTE       ON      NM   R$  000000000150100000000015470000000001401000000000149500000000014010000000001401000000000147200014000000000000002200000000000003289800000000000000009999123100000010000000000000BRVSTEACNOR5102
012024041902VULC3       010VULCABRAS   ON      NM   R$  000000000158400000000016200000000001584000000000160200000000015940000000001594000000000160303993000000000000742200000000001189580800000000000000009999123100000010000000000000BRVULCACNOR2158
012024041902VVEO3       010VIVEO       ON      NM   R$  000000000063800000000006570000000000630000000000063900000000006340000000000634000000000063602291000000000000557000000000000356256300000000000000009999123100000010000000000000BRVVEOACNOR0103
012024041902AVLL3       010ALPHAVILLE  ON      NM   R$  000000000037000000000003700000000000350000000000035600000000003520000000000350000000000036900010000000000000001600000000000000570100000000000000009999123100000010000000000000BRAVLLACNOR5103
012024041902AZEV3       010AZEVEDO     ON           R$  000000000014800000000001530000000000145000000000014700000000001470000000000146000000000014700386000000000000287500000000000042459600000000000000009999123100000010000000000000BRAZEVACNOR0121
012024041902AZEV4       010AZEVEDO     PN           R$  000000000014400000000001500000000000140000000000014400000000001410000000000141000000000014300904000000000002514000000000000363516100000000000000009999123100000010000000000000BRAZEVACNPR7121
012024041902AZUL4       010AZUL        PN      N2   R$  000000000100000000000010320000000000985000000000100400000000009940000000000994000000000099518665000000000020029800000000020126887800000000000000009999123100000010000000000000BRAZULACNPR4102
012024041902CCRO3       010CCR SA      ON  ED  NM   R$  000000000125300000000012700000000001249000000000126200000000012650000000001264000000000126711937000000000006719300000000008480908500000000000000009999123100000010000000000000BRCCROACNOR2145
012024041902CEAB3       010CEA MODAS   ON      NM   R$  000000000100600000000011000000000001000000000000107200000000010720000000001072000000000107312887000000000006611100000000007087869200000000000000009999123100000010000000000000BRCEABACNOR1102
012024041902CSED3       010CRUZEIRO EDUON      NM   R$  000000000036200000000003770000000000361000000000037000000000003670000000000367000000000037200871000000000000169300000000000062673300000000000000009999123100000010000000000000BRCSEDACNOR9104
012024041902CSMG3       010COPASA      ON      NM   R$  000000000210200000000021530000000002077000000000213100000000021530000000002146000000000215306611000000000003586300000000007644082600000000000000009999123100000010000000000000BRCSMGACNOR5172
012024041902ALPA3       010ALPARGATAS  ON      N1   R$  000000000090000000000009120000000000900000000000090600000000009120000000000911000000000093900005000000000000000700000000000000634600000000000000009999123100000010000000000000BRALPAACNOR0231
012024041902ALPA4       010ALPARGATAS  PN      N1   R$  000000000084900000000009200000000000847000000000089100000000009000000000000888000000000090015351000000000008245500000000007348728000000000000000009999123100000010000000000000BRALPAACNPR7232
012024041902ALPK3       010ESTAPAR     ON      NM   R$  000000000040300000000004120000000000395000000000040400000000004050000000000403000000000040600374000000000000093600000000000037893900000000000000009999123100000010000000000000BRALPKACNOR9101
012024041902ALUP11      010ALUPAR      UNT     N2   R$  000000000299100000000030080000000002971000000000299300000000029950000000002995000000000300004413000000000000898900000000002690766500000000000000009999123100000010000000000000BRALUPCDAM15117
012024041902ALUP3       010ALUPAR      ON      N2   R$  000000000103200000000010550000000001019000000000103500000000010410000000001040000000000105500151000000000000029200000000000030233800000000000000009999123100000010000000000000BRALUPACNOR8117
012024041902ALUP4       010ALUPAR      PN      N2   R$  000000000097500000000009900000000000974000000000098100000000009840000000000984000000000098500220000000000000038200000000000037484000000000000000009999123100000010000000000000BRALUPACNPR5117
012024041902CAMB3       010CAMBUCI     ON           R$  000000000106000000000010600000000001027000000000103500000000010300000000001028000000000103000479000000000000166900000000000172862600000000000000009999123100000010000000000000BRCAMBACNOR4128
012024041902CAML3       010CAMIL       ON      NM   R$  000000000079500000000008100000000000793000000000080000000000008000000000000799000000000080200854000000000000754400000000000604019300000000000000009999123100000010000000000000BRCAMLACNOR3127
012024041902CASH3       010MELIUZ      ON      NM   R$  000000000043800000000004640000000000436000000000045400000000004620000000000460000000000046205023000000000002558900000000001162882300000000000000009999123100000010000000000000BRCASHACNOR8106
012024041902CRFB3       010CARREFOUR BRON      NM   R$  000000000112700000000011720000000001127000000000114600000000011350000000001135000000000113807090000000000003254600000000003732081500000000000000009999123100000010000000000000BRCRFBACNOR2116
012024041902CRPG5       010CRISTAL     PNA          R$  000000000304700000000031550000000003047000000000311400000000031040000000003101000000000314000023000000000000003400000000000010587800000000000000009999123100000010000000000000BRCRPGACNPA3118
012024041902CRPG6       010CRISTAL     PNB          R$  000000000304900000000030490000000002982000000000300200000000029950000000002976000000000303300010000000000000001000000000000003002100000000000000009999123100000010000000000000BRCRPGACNPB1118
012024041902CSAN3       010COSAN       ON      NM   R$  000000000143400000000014540000000001431000000000144000000000014420000000001442000000000144419310000000000008292100000000011946330400000000000000009999123100000010000000000000BRCSANACNOR6124
012024041902EKTR4       010ELEKTRO     PN  ED       R$  000000000402900000000040300000000004029000000000402900000000040300000000003854000000000409500002000000000000000200000000000000805900000000000000009999123100000010000000000000BREKTRACNPR7161
012024041902BRBI11      010BR PARTNERS UNT     N2   R$  000000000144100000000015000000000001435000000000148000000000014980000000001482000000000149800791000000000000115300000000000170758300000000000000009999123100000010000000000000BRBRBICDAM10108
012024041902BRFS3       010BRF SA      ON      NM   R$  000000000170500000000017340000000001679000000000170400000000017050000000001700000000000170521665000000000008580200000000014626304400000000000000009999123100000010000000000000BRBRFSACNOR8121
012024041902CLSC4       010CELESC      PN      N2   R$  000000000678600000000068230000000006726000000000675500000000067410000000006741000000000679700085000000000000012100000000000081739700000000000000009999123100000010000000000000BRCLSCACNPR3129
012024041902CMIG3       010CEMIG       ON      N1   R$  000000000151100000000015380000000001509000000000152300000000015210000000001515000000000152101191000000000000370300000000000564042000000000000000009999123100000010000000000000BRCMIGACNOR6240
012024041902CMIG4       010CEMIG       PN      N1   R$  000000000130100000000013230000000001296000000000130900000000013110000000001311000000000131215605000000000023739100000000031090961900000000000000009999123100000010000000000000BRCMIGACNPR3241
012024041902CSUD3       010CSU DIGITAL ON      NM   R$  000000000176900000000018030000000001762000000000177300000000017620000000001760000000000177000253000000000000060300000000000106933600000000000000009999123100000010000000000000BRCSUDACNOR5108
012024041902CTKA4       010KARSTEN     PN           R$  000000000192500000000019500000000001750000000000184800000000018450000000001802000000000190000020000000000000003300000000000006100200000000000000009999123100000010000000000000BRCTKAACNPR7043
012024041902WEST3       010WESTWING    ON      NM   R$  000000000011700000000001210000000000115000000000011700000000001210000000000118000000000012100086000000000000039600000000000004653800000000000000009999123100000010000000000000BRWESTACNOR3100
012024041902WHRL3       010WHIRLPOOL   ON           R$  000000000046100000000004690000000000459000000000046000000000004690000000000468000000000047800007000000000000001700000000000000783300000000000000009999123100000010000000000000BRWHRLACNOR5128
012024041902WHRL4       010WHIRLPOOL   PN           R$  000000000045600000000004650000000000455000000000046200000000004650000000000465000000000046700007000000000000001500000000000000694100000000000000009999123100000010000000000000BRWHRLACNPR2128
012024041902WIZC3       010WIZ CO      ON      NM   R$  000000000070000000000007250000000000700000000000071700000000007140000000000713000000000071501531000000000000359000000000000257642000000000000000009999123100000010000000000000BRWIZCACNOR5101
012024041902WLMM4       010WLM IND COM PN           R$  000000000296000000000029600000000002930000000000294700000000029300000000002701000000000292500006000000000000000700000000000002063000000000000000009999123100000010000000000000BRWLMMACNPR3117
012024041902CTNM3       010COTEMINAS   ON           R$  000000000086400000000008650000000000864000000000086400000000008650000000000820000000000086500002000000000000000300000000000000259400000000000000009999123100000010000000000000BRCTNMACNOR9130
012024041902CTNM4       010COTEMINAS   PN           R$  000000000010700000000001090000000000107000000000010700000000001090000000000107000000000010900010000000000000001900000000000000204600000000000000009999123100000010000000000000BRCTNMACNPR6129
012024041902CTSA3       010SANTANENSE  ON           R$  000000000027400000000002740000000000267000000000027000000000002670000000000256000000000026500005000000000000001300000000000000351100000000000000009999123100000010000000000000BRCTSAACNOR3062
012024041902CTSA4       010SANTANENSE  PN           R$  000000000013400000000001380000000000130000000000013400000000001300000000000130000000000013500096000000000000022000000000000002948100000000000000009999123100000010000000000000BRCTSAACNPR0062
012024041902CURY3       010CURY S/A    ON      NM   R$  000000000187800000000019040000000001860000000000187700000000018670000000001860000000000186709122000000000002147700000000004033250000000000000000009999123100000010000000000000BRCURYACNOR3107
012024041902CVCB3       010CVC BRASIL  ON      NM   R$  000000000017800000000001950000000000178000000000018900000000001920000000000191000000000019319492000000000035023500000000006653929100000000000000009999123100000010000000000000BRCVCBACNOR1115
012024041902ASAI3       010ASSAI       ON      NM   R$  000000000132100000000013630000000001318000000000134000000000013380000000001338000000000133919271000000000012837800000000017208675500000000000000009999123100000010000000000000BRASAIACNOR0106
012024041902HAPV3       010HAPVIDA     ON      NM   R$  000000000035000000000003680000000000350000000000036100000000003600000000000359000000000036135002000000000075426600000000027261973100000000000000009999123100000010000000000000BRHAPVACNOR4113
012024041902ATOM3       010ATOMPAR     ON           R$  000000000021700000000002210000000000211000000000021500000000002150000000000214000000000021900087000000000000017500000000000003771500000000000000009999123100000010000000000000BRATOMACNOR1106
012024041902AURE3       010AUREN       ON      NM   R$  000000000118000000000011880000000001173000000000118000000000011810000000001180000000000118305925000000000006593800000000007785585100000000000000009999123100000010000000000000BRAUREACNOR9104
012024041902BBDC3       010BRADESCO    ON      N1   R$  000000000121800000000012210000000001207000000000121300000000012070000000001207000000000121208952000000000004836100000000005866437900000000000000009999123100000010000000000000BRBBDCACNOR1768
012024041902BBDC4       010BRADESCO    PN      N1   R$  000000000137200000000013800000000001361000000000136900000000013640000000001364000000000136536600000000000049779500000000068157424500000000000000009999123100000010000000000000BRBBDCACNPR8768
012024041902BPAN4       010BANCO PAN   PN      N1   R$  000000000094200000000009590000000000908000000000092200000000009190000000000919000000000092104643000000000003128100000000002886871700000000000000009999123100000010000000000000BRBPANACNPR1115
012024041902JALL3       010JALLESMACHADON      NM   R$  000000000071800000000007220000000000714000000000071700000000007180000000000718000000000071900868000000000000998000000000000716178800000000000000009999123100000010000000000000BRJALLACNOR0105
012024041902JBSS3       010JBS         ON      NM   R$  000000000223800000000022570000000002212000000000222600000000022120000000002211000000000221715860000000000007137300000000015890514400000000000000009999123100000010000000000000BRJBSSACNOR8121
012024041902ODPV3       010ODONTOPREV  ON  ED  NM   R$  000000000107900000000011010000000001078000000000109000000000010850000000001085000000000109305774000000000001877300000000002047709900000000000000009999123100000010000000000000BRODPVACNOR4200
012024041902OFSA3       010OUROFINO S/AON      NM   R$  000000000215500000000021940000000002155000000000217000000000021700000000002170000000000219300031000000000000017800000000000038633700000000000000009999123100000010000000000000BROFSAACNOR7117
012024041902CPLE6       010COPEL       PNB     N2   R$  000000000092600000000009440000000000925000000000093300000000009310000000000930000000000093130735000000000061007600000000056925570600000000000000009999123100000010000000000000BRCPLEACNPB9145
012024041902DOTZ3       010DOTZ SA     ON      NM   R$  000000000054700000000005680000000000545000000000055600000000005450000000000545000000000056700084000000000000017400000000000009684200000000000000009999123100000010000000000000BRDOTZACNOR7101
012024041902DXCO3       010DEXCO       ON      NM   R$  000000000071900000000007340000000000712000000000072200000000007210000000000720000000000072207675000000000003575200000000002584502500000000000000009999123100000010000000000000BRDXCOACNOR8105
012024041902ONCO3       010ONCOCLINICASON      NM   R$  000000000067400000000007080000000000674000000000069600000000006950000000000695000000000070008240000000000002452000000000001707538600000000000000009999123100000010000000000000BRONCOACNOR6100
012024041902OPCT3       010OCEANPACT   ON      NM   R$  000000000061400000000006330000000000608000000000062400000000006280000000000627000000000063202508000000000001285500000000000803233600000000000000009999123100000010000000000000BROPCTACNOR0100
012024041902ORVR3       010ORIZON      ON      NM   R$  000000000358600000000036340000000003579000000000360000000000036000000000003594000000000361000743000000000000173700000000000625322100000000000000009999123100000010000000000000BRORVRACNOR0101
012024041902PCAR3       010P.ACUCAR-CBDON      NM   R$  000000000023700000000002530000000000235000000000024500000000002470000000000246000000000024711475000000000029525900000000007238900600000000000000009999123100000010000000000000BRPCARACNOR3167
012024041902RADL3       010RAIADROGASILON  ED  NM   R$  000000000248600000000025820000000002486000000000255600000000025450000000002545000000000254835900000000000013724900000000035082718000000000000000009999123100000010000000000000BRRADLACNOR0156
012024041902RAIL3       010RUMO S.A.   ON      NM   R$  000000000211000000000021580000000002101000000000213800000000021250000000002125000000000212631906000000000010744700000000022974539900000000000000009999123100000010000000000000BRRAILACNOR9104
012024041902SAPR11      010SANEPAR     UNT     N2   R$  000000000246400000000025640000000002452000000000254800000000025640000000002544000000000256602614000000000002713000000000006913952500000000000000009999123100000010000000000000BRSAPRCDAM13117
012024041902SAPR3       010SANEPAR     ON      N2   R$  000000000047500000000004840000000000470000000000047800000000004840000000000484000000000048700449000000000000168600000000000080725700000000000000009999123100000010000000000000BRSAPRACNOR9158
012024041902SAPR4       010SANEPAR     PN      N2   R$  000000000050100000000005120000000000499000000000050600000000005120000000000509000000000051201545000000000001298400000000000657041400000000000000009999123100000010000000000000BRSAPRACNPR6158
012024041902SBFG3       010GRUPO SBF   ON      NM   R$  000000000114400000000012220000000001144000000000118600000000011660000000001165000000000117306324000000000002231100000000002647076500000000000000009999123100000010000000000000BRSBFGACNOR1102
012024041902SBSP3       010SABESP      ON      NM   R$  000000000827100000000084490000000008210000000000841300000000084490000000008431000000000844916016000000000006800300000000057213148600000000000000009999123100000010000000000000BRSBSPACNOR5160
012024041902TECN3       010TECHNOS     ON      NM   R$  000000000042500000000004590000000000424000000000044400000000004590000000000450000000000045900640000000000000259100000000000115054600000000000000009999123100000010000000000000BRTECNACNOR6109
012024041902BRAP3       010BRADESPAR   ON      N1   R$  000000000199700000000020380000000001984000000000201500000000020270000000002026000000000203200217000000000000054500000000000109831100000000000000009999123100000010000000000000BRBRAPACNOR5147
012024041902BRAP4       010BRADESPAR   PN      N1   R$  000000000205700000000021190000000002046000000000208800000000021190000000002113000000000211911320000000000007205800000000015048607300000000000000009999123100000010000000000000BRBRAPACNPR2147
012024041902CEBR3       010CEB         ON           R$  000000000216700000000021670000000002103000000000214000000000021440000000002126000000000216800018000000000000002700000000000005778100000000000000009999123100000010000000000000BRCEBRACNOR5124
012024041902CEBR5       010CEB         PNA          R$  000000000201500000000020160000000001963000000000198700000000019630000000001955000000000200000011000000000000001600000000000003179400000000000000009999123100000010000000000000BRCEBRACNPA8123
012024041902CEBR6       010CEB         PNB          R$  000000000208200000000021490000000002076000000000209400000000020900000000002090000000000210600058000000000000008900000000000018638600000000000000009999123100000010000000000000BRCEBRACNPB6123
012024041902CEDO3       010CEDRO       ON      N1   R$  000000000325000000000033000000000003250000000000326100000000032500000000003250000000000380000004000000000000000900000000000002935000000000000000009999123100000010000000000000BRCEDOACNOR8096
012024041902CEEB3       010COELBA      ON  ED       R$  000000000384500000000038630000000003843000000000385500000000038430000000003843000000000388700007000000000000001000000000000003855400000000000000009999123100000010000000000000BRCEEBACNOR3198
012024041902CGAS3       010COMGAS      ON           R$  000000001150000000000115000000000011500000000001150000000000115000000000010506000000001151000001000000000000000100000000000001150000000000000000009999123100000010000000000000BRCGASACNOR0163
012024041902CGAS5       010COMGAS      PNA          R$  000000001130000000000114500000000011300000000001140000000000114500000000011400000000001145000004000000000000000400000000000004560000000000000000009999123100000010000000000000BRCGASACNPA3160
012024041902CGRA3       010GRAZZIOTIN  ON           R$  000000000260400000000026630000000002585000000000261900000000026410000000002630000000000266500033000000000000004300000000000011264000000000000000009999123100000010000000000000BRCGRAACNOR2081
012024041902CGRA4       010GRAZZIOTIN  PN           R$  000000000268100000000026970000000002660000000000267800000000026600000000002660000000000270000013000000000000001800000000000004822100000000000000009999123100000010000000000000BRCGRAACNPR9081
012024041902AALR3       010ALLIAR      ON      NM   R$  000000000099700000000010600000000000961000000000101200000000010030000000001003000000000101000482000000000000130200000000000131800200000000000000009999123100000010000000000000BRAALRACNOR6102
012024041902ABCB4       010ABC BRASIL  PN      N2   R$  000000000223000000000023000000000002229000000000228200000000022950000000002287000000000229503962000000000000824800000000001882237000000000000000009999123100000010000000000000BRABCBACNPR4145
012024041902ABEV3       010AMBEV S/A   ON           R$  000000000119700000000012100000000001195000000000119900000000011950000000001195000000000119834035000000000025809500000000030963851600000000000000009999123100000010000000000000BRABEVACNOR1127
012024041902CXSE3       010CAIXA SEGURION      NM   R$  000000000154700000000015760000000001547000000000156200000000015550000000001554000000000155807680000000000002144500000000003349913100000000000000009999123100000010000000000000BRCXSEACNOR7105
012024041902CYRE3       010CYRELA REALTON      NM   R$  000000000204700000000021120000000002037000000000207600000000020890000000002083000000000209033710000000000012289000000000025519544000000000000000009999123100000010000000000000BRCYREACNOR7139
012024041902ENGI11      010ENERGISA    UNT     N2   R$  000000000452900000000046580000000004529000000000462100000000046200000000004620000000000463113630000000000004149500000000019178078700000000000000009999123100000010000000000000BRENGICDAM16135
012024041902ENGI3       010ENERGISA    ON      N2   R$  000000000146800000000014850000000001459000000000147200000000014750000000001468000000000148100015000000000000001800000000000002650700000000000000009999123100000010000000000000BRENGIACNOR0145
012024041902ENGI4       010ENERGISA    PN      N2   R$  000000000077900000000007900000000000779000000000078500000000007900000000000780000000000079000024000000000000004800000000000003770300000000000000009999123100000010000000000000BRENGIACNPR7141
012024041902ENJU3       010ENJOEI      ON      NM   R$  000000000019600000000002050000000000194000000000019900000000001980000000000198000000000020000360000000000000706900000000000141183800000000000000009999123100000010000000000000BRENJUACNOR9100
012024041902TELB4       010TELEBRAS    PN           R$  000000000094000000000009400000000000935000000000093700000000009380000000000936000000000094800005000000000000000500000000000000468600000000000000009999123100000010000000000000BRTELBACNPR9140
012024041902TEND3       010TENDA       ON      NM   R$  000000000115700000000012160000000001156000000000119400000000012020000000001202000000000120708281000000000002669300000000003188599100000000000000009999123100000010000000000000BRTENDACNOR4111
012024041902TFCO4       010TRACK FIELD PN      N2   R$  000000000111500000000011470000000001115000000000114000000000011440000000001140000000000114700220000000000000076700000000000087494800000000000000009999123100000010000000000000BRTFCOACNPR8112
012024041902TGMA3       010TEGMA       ON  EDJ NM   R$  000000000245000000000024740000000002438000000000245500000000024500000000002448000000000245000899000000000000148200000000000363933700000000000000009999123100000010000000000000BRTGMAACNOR7144
012024041902TIMS3       010TIM         ON  ED  NM   R$  000000000172400000000017410000000001692000000000173100000000017290000000001728000000000173912524000000000007572900000000013116119000000000000000009999123100000010000000000000BRTIMSACNOR5116
012024041902VIVA3       010VIVARA S.A. ON      NM   R$  000000000219800000000022530000000002195000000000222900000000022160000000002215000000000221606036000000000001573700000000003508020400000000000000009999123100000010000000000000BRVIVAACNOR0106
012024041902VALE3       010VALE        ON      NM   R$  000000000622400000000063550000000006209000000000628900000000063360000000006335000000000633646338000000000032864400000000206714045000000000000000009999123100000010000000000000BRVALEACNOR0210
012024041902VAMO3       010VAMOS       ON      NM   R$  000000000074200000000007530000000000734000000000074000000000007390000000000737000000000073914165000000000008752600000000006480488800000000000000009999123100000010000000000000BRVAMOACNOR7105
012024041902VBBR3       010VIBRA       ON  ED  NM   R$  000000000236200000000023720000000002318000000000233900000000023300000000002330000000000233218458000000000006070700000000014204383600000000000000009999123100000010000000000000BRVBBRACNOR1107
012024041902ZAMP3       010ZAMP S.A.   ON           R$  000000000031700000000003530000000000317000000000034500000000003510000000000349000000000035202301000000000001109100000000000382956100000000000000009999123100000010000000000000BRZAMPACNOR5100
012024041902RDOR3       010REDE D OR   ON      NM   R$  000000000239700000000024780000000002379000000000244200000000024450000000002444000000000244719844000000000008873400000000021674806800000000000000009999123100000010000000000000BRRDORACNOR8112
012024041902SEQL3       010SEQUOIA LOG ON      NM   R$  000000000004300000000000460000000000042000000000004400000000000450000000000045000000000004601972000000000024431000000000001086976900000000000000009999123100000010000000000000BRSEQLACNOR2102
012024041902SGPS3       010SPRINGS     ON      NM   R$  000000000007600000000000760000000000074000000000007400000000000750000000000074000000000007500160000000000000116100000000000008677500000000000000009999123100000010000000000000BRSGPSACNOR4104
012024041902SHOW3       010TIME FOR FUNON      NM   R$  000000000024500000000002530000000000243000000000024700000000002520000000000251000000000025200239000000000000074400000000000018433100000000000000009999123100000010000000000000BRSHOWACNOR7105
012024041902SHUL4       010SCHULZ      PN           R$  000000000062400000000006290000000000614000000000062200000000006140000000000613000000000061500799000000000000499500000000000311155800000000000000009999123100000010000000000000BRSHULACNPR4155
012024041902SIMH3       010SIMPAR      ON      NM   R$  000000000062600000000006450000000000624000000000063200000000006270000000000627000000000062908170000000000006631900000000004193105400000000000000009999123100000010000000000000BRSIMHACNOR0107
012024041902SLCE3       010SLC AGRICOLAON      NM   R$  000000000182300000000018790000000001816000000000186800000000018790000000001875000000000187912084000000000003905000000000007298426700000000000000009999123100000010000000000000BRSLCEACNOR2124
012024041902VITT3       010VITTIA      ON  EB  NM   R$  000000000055900000000005730000000000554000000000056100000000005590000000000557000000000056001821000000000000351500000000000197437100000000000000009999123100000010000000000000BRVITTACNOR4107
012024041902TOTS3       010TOTVS       ON      NM   R$  000000000277500000000028220000000002764000000000280400000000028100000000002809000000000281426693000000000007691000000000021572510600000000000000009999123100000010000000000000BRTOTSACNOR8144
012024041902SYNE3       010SYN PROP TECON      NM   R$  000000000085400000000008730000000000850000000000086200000000008600000000000860000000000086500872000000000000305500000000000263341700000000000000009999123100000010000000000000BRSYNEACNOR2102
012024041902TAEE11      010TAESA       UNT     N2   R$  000000000356800000000035850000000003554000000000356900000000035710000000003556000000000357206847000000000001810200000000006460878200000000000000009999123100000010000000000000BRTAEECDAM10145
012024041902VIVR3       010VIVER       ON      NM   R$  000000000030000000000003080000000000299000000000030300000000003050000000000301000000000030500073000000000000028000000000000008487100000000000000009999123100000010000000000000BRVIVRACNOR4122
012024041902VIVT3       010TELEF BRASILON  ER       R$  000000000485200000000048910000000004828000000000485800000000048710000000004863000000000487209474000000000002146600000000010428495900000000000000009999123100000010000000000000BRVIVTACNOR0180
012024041902UNIP3       010UNIPAR      ON  EB       R$  000000000543700000000058860000000005437000000000566100000000056650000000005640000000000566500125000000000000014400000000000081520500000000000000009999123100000010000000000000BRUNIPACNOR7206
012024041902UNIP6       010UNIPAR      PNB EB       R$  000000000555000000000058660000000005526000000000573300000000056350000000005635000000000572602163000000000000379400000000002175291400000000000000009999123100000010000000000000BRUNIPACNPB8206
012024041902USIM3       010USIMINAS    ON      N1   R$  000000000092300000000009630000000000918000000000094600000000009510000000000951000000000095401171000000000000239800000000000227011200000000000000009999123100000010000000000000BRUSIMACNOR3166
012024041902USIM5       010USIMINAS    PNA     N1   R$  000000000099100000000010500000000000987000000000102500000000010330000000001032000000000103325181000000000022935600000000023524331100000000000000009999123100000010000000000000BRUSIMACNPA6168
012024041902EALT4       010ACO ALTONA  PN           R$  000000000100900000000010150000000000996000000000101000000000010100000000001000000000000101000020000000000000006200000000000006268000000000000000009999123100000010000000000000BREALTACNPR1137
012024041902ECOR3       010ECORODOVIAS ON      NM   R$  000000000075100000000007580000000000739000000000074700000000007490000000000744000000000074914172000000000008027600000000006000839200000000000000009999123100000010000000000000BRECORACNOR8119
012024041902EGIE3       010ENGIE BRASILON      NM   R$  000000000405000000000040680000000003990000000000400100000000039900000000003989000000000399010653000000000011944400000000047796116500000000000000009999123100000010000000000000BREGIEACNOR9125
012024041902IFCM3       010INFRACOMM   ON      NM   R$  000000000007100000000000750000000000070000000000007100000000000700000000000070000000000007103518000000000012059100000000000859952600000000000000009999123100000010000000000000BRIFCMACNOR8101
012024041902IGTI11      010IGUATEMI S.AUNT ED  N1   R$  000000000207000000000021080000000002065000000000208200000000020910000000002073000000000209115700000000000002758200000000005744231000000000000000009999123100000010000000000000BRIGTICDAM16106
012024041902IGTI3       010IGUATEMI S.AON  ED  N1   R$  000000000029700000000003010000000000297000000000029800000000002970000000000297000000000030000041000000000000007900000000000002358200000000000000009999123100000010000000000000BRIGTIACNOR8106
012024041902IGTI4       010IGUATEMI S.APN  ED  N1   R$  000000000086500000000008860000000000864000000000087800000000008860000000000822000000000092000006000000000000000600000000000000527200000000000000009999123100000010000000000000BRIGTIACNPR5106
012024041902JHSF3       010JHSF PART   ON      NM   R$  000000000041400000000004280000000000412000000000042200000000004280000000000427000000000042804695000000000003939500000000001663790300000000000000009999123100000010000000000000BRJHSFACNOR2134
012024041902RAIZ4       010RAIZEN      PN      N2   R$  000000000029300000000003050000000000291000000000030000000000003020000000000302000000000030417269000000000021828200000000006565044900000000000000009999123100000010000000000000BRRAIZACNPR6110
012024041902SCAR3       010SAO CARLOS  ON      NM   R$  000000000249000000000025540000000002490000000000252700000000025370000000002537000000000253800026000000000000003300000000000008341400000000000000009999123100000010000000000000BRSCARACNOR7130
012024041902FESA3       010FERBASA     ON      N1   R$  000000000154900000000015490000000001549000000000154900000000015490000000001401000000000157900001000000000000000100000000000000154900000000000000009999123100000010000000000000BRFESAACNOR8187
012024041902FESA4       010FERBASA     PN      N1   R$  000000000081600000000008370000000000812000000000082600000000008280000000000825000000000082902597000000000000884000000000000730552400000000000000009999123100000010000000000000BRFESAACNPR5083
012024041902FHER3       010FER HERINGERON      NM   R$  000000000050500000000005050000000000504000000000050400000000005050000000000504000000000050500011000000000000001800000000000000908100000000000000009999123100000010000000000000BRFHERACNOR5103
012024041902FIEI3       010FICA        ON           R$  000000000095000000000009950000000000930000000000093300000000009950000000000900000000000099500007000000000000003800000000000003546500000000000000009999123100000010000000000000BRFIEIACNOR2100
012024041902FIQE3       010UNIFIQUE    ON      NM   R$  000000000038300000000003830000000000375000000000038000000000003780000000000378000000000038300334000000000000102800000000000039073400000000000000009999123100000010000000000000BRFIQEACNOR5106
012024041902FLRY3       010FLEURY      ON      NM   R$  000000000138700000000014080000000001381000000000140000000000014040000000001396000000000140508860000000000002759200000000003863482300000000000000009999123100000010000000000000BRFLRYACNOR5138
012024041902FRAS3       010FRAS-LE     ON      N1   R$  000000000175300000000017830000000001730000000000176100000000017830000000001768000000000178401156000000000000199900000000000352037500000000000000009999123100000010000000000000BRFRASACNOR0158
012024041902AERI3       010AERIS       ON      NM   R$  000000000005500000000000570000000000055000000000005600000000000570000000000056000000000005700958000000000000912200000000000051438100000000000000009999123100000010000000000000BRAERIACNOR4101
012024041902AESB3       010AES BRASIL  ON      NM   R$  000000000092000000000009290000000000914000000000092000000000009190000000000918000000000092005231000000000004686200000000004314484200000000000000009999123100000010000000000000BRAESBACNOR7105
012024041902BAHI3       010BAHEMA      ON      MA   R$  000000000088900000000008910000000000889000000000089000000000008910000000000825000000000089000003000000000000000300000000000000267000000000000000009999123100000010000000000000BRBAHIACNOR1074
012024041902BAZA3       010AMAZONIA    ON           R$  000000001009900000000100990000000009822000000000991900000000098880000000009822000000000988900023000000000000003700000000000036701900000000000000009999123100000010000000000000BRBAZAACNOR0178
012024041902BBAS3       010BRASIL      ON  EB  NM   R$  000000000280200000000028020000000002766000000000277700000000027710000000002771000000000277232931000000000018386400000000051075780400000000000000009999123100000010000000000000BRBBASACNOR3322
012024041902BBSE3       010BBSEGURIDADEON      NM   R$  000000000325500000000033020000000003255000000000329300000000032960000000003296000000000329709798000000000003830500000000012614073900000000000000009999123100000010000000000000BRBBSEACNOR5124
012024041902DASA3       010DASA        ON      NM   R$  000000000042100000000004480000000000419000000000043400000000004240000000000424000000000042702252000000000000458900000000000199252200000000000000009999123100000010000000000000BRDASAACNOR1122
012024041902DESK3       010DESKTOP     ON      NM   R$  000000000130800000000013350000000001285000000000130400000000012910000000001290000000000130000566000000000000116900000000000152448200000000000000009999123100000010000000000000BRDESKACNOR2103
012024041902DEXP3       010DEXXOS PAR  ON      N1   R$  000000000103400000000010750000000001034000000000106000000000010660000000001056000000000106700245000000000000048600000000000051531200000000000000009999123100000010000000000000BRDEXPACNOR1104
012024041902DEXP4       010DEXXOS PAR  PN      N1   R$  000000000101300000000010540000000001013000000000103300000000010540000000001025000000000107000002000000000000000200000000000000206700000000000000009999123100000010000000000000BRDEXPACNPR8104
012024041902DIRR3       010DIRECIONAL  ON      NM   R$  000000000224500000000022920000000002227000000000224600000000022270000000002226000000000224007712000000000002159200000000004849873500000000000000009999123100000010000000000000BRDIRRACNOR0117
012024041902DMVF3       010D1000VFARMA ON      NM   R$  000000000077700000000008230000000000771000000000080000000000008170000000000816000000000081700712000000000000201300000000000161124900000000000000009999123100000010000000000000BRDMVFACNOR9100
012024041902DOHL4       010DOHLER      PN           R$  000000000044900000000004490000000000449000000000044900000000004490000000000428000000000044800001000000000000000100000000000000044900000000000000009999123100000010000000000000BRDOHLACNPR9066
012024041902MELK3       010MELNICK     ON      NM   R$  000000000045700000000004600000000000452000000000045600000000004550000000000455000000000045800186000000000000077300000000000035305000000000000000009999123100000010000000000000BRMELKACNOR8110
012024041902MGEL4       010MANGELS INDLPN           R$  000000000174100000000017990000000001741000000000177100000000017510000000001752000000000184500009000000000000001100000000000001948600000000000000009999123100000010000000000000BRMGELACNPR3147
012024041902MGLU3       010MAGAZ LUIZA ON      NM   R$  000000000015000000000001600000000000149000000000015400000000001540000000000153000000000015429048000000000122157100000000018865895400000000000000009999123100000010000000000000BRMGLUACNOR2123
012024041902MYPK3       010IOCHP-MAXIONON      NM   R$  000000000126300000000012690000000001238000000000124800000000012420000000001241000000000124504526000000000001088300000000001358704300000000000000009999123100000010000000000000BRMYPKACNOR7154
012024041902NEOE3       010NEOENERGIA  ON      NM   R$  000000000199000000000020120000000001957000000000197200000000019570000000001956000000000195708166000000000010708400000000021121142100000000000000009999123100000010000000000000BRNEOEACNOR3121
012024041902PRNR3       010PRINER      ON      NM   R$  000000000125900000000012740000000001235000000000125100000000012570000000001257000000000125802584000000000000448300000000000560991800000000000000009999123100000010000000000000BRPRNRACNOR4108
012024041902PSSA3       010PORTO SEGUROON      NM   R$  000000000295400000000029840000000002941000000000296300000000029620000000002950000000000296307034000000000002072600000000006142706900000000000000009999123100000010000000000000BRPSSAACNOR7154
012024041902PTBL3       010PORTOBELLO  ON      NM   R$  000000000059100000000006100000000000577000000000060200000000006030000000000603000000000060401824000000000000542200000000000326447700000000000000009999123100000010000000000000BRPTBLACNOR8132
012024041902PTNT3       010PETTENATI   ON           R$  000000000097600000000009940000000000976000000000098000000000009800000000000976000000000099500004000000000000000500000000000000490200000000000000009999123100000010000000000000BRPTNTACNOR6042
012024041902PTNT4       010PETTENATI   PN           R$  000000000075100000000007560000000000745000000000074900000000007450000000000745000000000075400008000000000000001100000000000000824400000000000000009999123100000010000000000000BRPTNTACNPR3047
012024041902GRND3       010GRENDENE    ON      NM   R$  000000000059200000000006040000000000591000000000060000000000006000000000000600000000000060402346000000000001121800000000000673958300000000000000009999123100000010000000000000BRGRNDACNOR3172
012024041902ITUB3       010ITAUUNIBANCOON      N1   R$  000000000275400000000027760000000002737000000000274900000000027430000000002738000000000274700859000000000000304800000000000838024200000000000000009999123100000010000000000000BRITUBACNOR4334
012024041902ITUB4       010ITAUUNIBANCOPN      N1   R$  000000000317800000000031970000000003145000000000316500000000031550000000003154000000000315543362000000000026914400000000085196383300000000000000009999123100000010000000000000BRITUBACNPR1334
012024041902LUPA3       010LUPATECH    ON      NM   R$  000000000015500000000001600000000000155000000000015700000000001580000000000158000000000015900540000000000000163600000000000025811500000000000000009999123100000010000000000000BRLUPAACNOR8112
012024041902LVTC3       010WDC NETWORKSON      NM   R$  000000000037100000000003870000000000371000000000037600000000003870000000000378000000000038700067000000000000054000000000000020310100000000000000009999123100000010000000000000BRLVTCACNOR4102
012024041902LWSA3       010LWSA        ON      NM   R$  000000000048300000000005010000000000483000000000048800000000004870000000000485000000000048809636000000000004899600000000002395854800000000000000009999123100000010000000000000BRLWSAACNOR8103
012024041902MTRE3       010MITRE REALTYON      NM   R$  000000000043700000000004600000000000433000000000045300000000004540000000000454000000000045501712000000000001074600000000000487639200000000000000009999123100000010000000000000BRMTREACNOR6109
012024041902MTSA4       010METISA      PN           R$  000000000483100000000048470000000004812000000000483100000000048470000000004706000000000484800015000000000000001900000000000009180400000000000000009999123100000010000000000000BRMTSAACNPR9071
012024041902MULT3       010MULTIPLAN   ON      N2   R$  000000000240500000000024400000000002395000000000241700000000024080000000002406000000000240817430000000000005954300000000014392448200000000000000009999123100000010000000000000BRMULTACNOR5138
012024041902ROMI3       010ROMI        ON      NM   R$  000000000109100000000011150000000001089000000000110000000000010900000000001090000000000109501132000000000000305200000000000335794500000000000000009999123100000010000000000000BRROMIACNOR8194
012024041902RPAD3       010ALFA HOLDINGON           R$  000000000084800000000008480000000000848000000000084800000000008480000000000848000000000085000001000000000000000900000000000000763200000000000000009999123100000010000000000000BRRPADACNOR1198
012024041902RRRP3       0103R PETROLEUMON      NM   R$  000000000329100000000033240000000003226000000000327600000000032900000000003283000000000329018344000000000006481300000000021233314100000000000000009999123100000010000000000000BRRRRPACNOR5102
012024041902SRNA3       010SERENA      ON      NM   R$  000000000086400000000009060000000000864000000000088900000000008840000000000881000000000088606108000000000001633100000000001451889400000000000000009999123100000010000000000000BRSRNAACNOR4100
012024041902STBP3       010SANTOS BRP  ON      NM   R$  000000000129600000000013280000000001282000000000131400000000013150000000001309000000000131610708000000000008639800000000011356599000000000000000009999123100000010000000000000BRSTBPACNOR3129
012024041902SUZB3       010SUZANO S.A. ON      NM   R$  000000000607500000000061600000000006041000000000611100000000061210000000006121000000000613322777000000000005928400000000036231234100000000000000009999123100000010000000000000BRSUZBACNOR0129
012024041902GGPS3       010GPS         ON  ED  NM   R$  000000000186500000000019030000000001860000000000188200000000018720000000001872000000000188305031000000000001517300000000002856679500000000000000009999123100000010000000000000BRGGPSACNOR9103
012024041902GMAT3       010GRUPO MATEUSON      NM   R$  000000000073100000000007610000000000731000000000074800000000007500000000000747000000000075107468000000000004062500000000003042720700000000000000009999123100000010000000000000BRGMATACNOR7101
012024041902GOAU3       010GERDAU MET  ON      N1   R$  000000000109900000000011130000000001085000000000110000000000011020000000001101000000000111400227000000000000052900000000000058227100000000000000009999123100000010000000000000BRGOAUACNOR1266
012024041902GOAU4       010GERDAU MET  PN      N1   R$  000000000106300000000010980000000001059000000000108200000000010980000000001097000000000109812863000000000011147400000000012070326900000000000000009999123100000010000000000000BRGOAUACNPR8267
012024041902ITSA3       010ITAUSA      ON      N1   R$  000000000096000000000009620000000000953000000000095700000000009600000000000955000000000096000329000000000000078700000000000075333600000000000000009999123100000010000000000000BRITSAACNOR0439
012024041902ITSA4       010ITAUSA      PN      N1   R$  000000000095400000000009600000000000950000000000095300000000009530000000000953000000000095424373000000000014632500000000013958236300000000000000009999123100000010000000000000BRITSAACNPR7439
012024041902MRVE3       010MRV         ON      NM   R$  000000000064100000000006640000000000638000000000065400000000006570000000000652000000000065718414000000000014892900000000009743505600000000000000009999123100000010000000000000BRMRVEACNOR2126
012024041902PRIO3       010PETRORIO    ON      NM   R$  000000000492900000000049470000000004812000000000488300000000048800000000004880000000000488128340000000000010134000000000049490694500000000000000009999123100000010000000000000BRPRIOACNOR1106
012024041902SMFT3       010SMART FIT   ON      NM   R$  000000000234000000000024230000000002329000000000240400000000023860000000002386000000000239909197000000000002768800000000006657807800000000000000009999123100000010000000000000BRSMFTACNOR1111
012024041902SMTO3       010SAO MARTINHOON      NM   R$  000000000277300000000028200000000002755000000000279100000000027980000000002788000000000279908541000000000002537300000000007082368000000000000000009999123100000010000000000000BRSMTOACNOR3125
012024041902SNSY3       010SANSUY      ON           R$  000000000107000000000010800000000001070000000000107500000000010800000000001035000000000107900005000000000000000800000000000000860000000000000000009999123100000010000000000000BRSNSYACNOR2113
012024041902SNSY5       010SANSUY      PNA          R$  000000000063600000000006360000000000634000000000063500000000006340000000000622000000000063500003000000000000000300000000000000190500000000000000009999123100000010000000000000BRSNSYACNPA5111
012024041902SOJA3       010BOA SAFRA   ON      NM   R$  000000000166000000000017060000000001637000000000167600000000016950000000001668000000000169606973000000000001407800000000002360014500000000000000009999123100000010000000000000BRSOJAACNOR9105
012024041902SOMA3       010GRUPO SOMA  ON      NM   R$  000000000059700000000006160000000000597000000000060600000000006090000000000605000000000061013639000000000013638200000000008274564200000000000000009999123100000010000000000000BRSOMAACNOR3102
012024041902KRSA3       010KORA SAUDE  ON      NM   R$  000000000006900000000000780000000000069000000000007500000000000760000000000076000000000007700721000000000000678000000000000051386600000000000000009999123100000010000000000000BRKRSAACNOR0100
012024041902LAND3       010TERRASANTAPAON      NM   R$  000000000152300000000015270000000001480000000000150400000000015000000000001500000000000152900162000000000000043000000000000064698200000000000000009999123100000010000000000000BRLANDACNOR9102
012024041902LAVV3       010LAVVI       ON      NM   R$  000000000086300000000008830000000000852000000000086900000000008600000000000860000000000086502594000000000000584400000000000508291000000000000000009999123100000010000000000000BRLAVVACNOR4111
012024041902LEVE3       010METAL LEVE  ON      NM   R$  000000000328200000000033510000000003282000000000332700000000033410000000003330000000000334301663000000000000296800000000000987665300000000000000009999123100000010000000000000BRLEVEACNOR2196
012024041902LJQQ3       010QUERO-QUERO ON      NM   R$  000000000047600000000004950000000000461000000000047900000000004740000000000469000000000047408628000000000003675700000000001762198900000000000000009999123100000010000000000000BRLJQQACNOR5104
012024041902LOGG3       010LOG COM PROPON      NM   R$  000000000214100000000022230000000002140000000000218700000000021690000000002169000000000218101017000000000000139600000000000305442800000000000000009999123100000010000000000000BRLOGGACNOR7107
012024041902LOGN3       010LOG-IN      ON      NM   R$  000000000364900000000037990000000003628000000000371900000000037990000000003690000000000379900171000000000000028700000000000106757200000000000000009999123100000010000000000000BRLOGNACNOR3105
012024041902LPSB3       010LOPES BRASILON      NM   R$  000000000020400000000002090000000000193000000000020400000000002050000000000205000000000020700321000000000000138100000000000028200100000000000000009999123100000010000000000000BRLPSBACNOR0113
012024041902LREN3       010LOJAS RENNERON      NM   R$  000000000154100000000016040000000001533000000000157700000000015650000000001565000000000156734008000000000016429600000000025915266400000000000000009999123100000010000000000000BRLRENACNOR1220
012024041902MRFG3       010MARFRIG     ON      NM   R$  000000000096800000000009880000000000955000000000097200000000009800000000000972000000000098017238000000000009602800000000009337069800000000000000009999123100000010000000000000BRMRFGACNOR0116
012024041902PFRM3       010PROFARMA    ON      NM   R$  000000000054000000000005740000000000533000000000055900000000005740000000000568000000000057401108000000000000627800000000000351507400000000000000009999123100000010000000000000BRPFRMACNOR1116
012024041902PGMN3       010PAGUE MENOS ON      NM   R$  000000000025200000000002670000000000251000000000025600000000002670000000000265000000000026701717000000000000931600000000000239343300000000000000009999123100000010000000000000BRPGMNACNOR8103
012024041902PINE3       010PINE        ON  EJ  N2   R$  000000000063800000000006380000000000637000000000063700000000006370000000000621000000000066100002000000000000001300000000000000828200000000000000009999123100000010000000000000BRPINEACNOR1149
012024041902PINE4       010PINE        PN  EJ  N2   R$  000000000045000000000004620000000000448000000000045500000000004610000000000454000000000046100606000000000000508300000000000231706300000000000000009999123100000010000000000000BRPINEACNPR8149
012024041902PLAS3       010PLASCAR PARTON           R$  000000000071000000000007100000000000605000000000065800000000006590000000000620000000000069000031000000000000006200000000000004082100000000000000009999123100000010000000000000BRPLASACNOR2106
012024041902PLPL3       010PLANOEPLANO ON      NM   R$  000000000114000000000011990000000001136000000000117300000000011640000000001164000000000116802955000000000000708700000000000831758100000000000000009999123100000010000000000000BRPLPLACNOR5104
012024041902BGIP3       010BANESE      ON           R$  000000000255000000000025500000000002500000000000253300000000025000000000002481000000000255000003000000000000000300000000000000760000000000000000009999123100000010000000000000BRBGIPACNOR1208
012024041902BGIP4       010BANESE      PN           R$  000000000225300000000022610000000002245000000000225300000000022610000000002230000000000229900004000000000000000400000000000000901200000000000000009999123100000010000000000000BRBGIPACNPR8208
012024041902BHIA3       010CASAS BAHIA ON      NM   R$  000000000062100000000006450000000000613000000000062700000000006220000000000621000000000062208404000000000007234300000000004537086000000000000000009999123100000010000000000000BRBHIAACNOR1101
012024041902BRSR5       010BANRISUL    PNA     N1   R$  000000000158000000000015800000000001580000000000158000000000015800000000001346000000000162200001000000000000000100000000000000158000000000000000009999123100000010000000000000BRBRSRACNPA6190
012024041902WEGE3       010WEG         ON      NM   R$  000000000384600000000038920000000003833000000000386000000000038550000000003853000000000385528262000000000008282400000000031977497700000000000000009999123100000010000000000000BRWEGEACNOR0222
012024041902PNVL3       010DIMED       ON      NM   R$  000000000110700000000011290000000001102000000000111100000000011130000000001112000000000111401837000000000000359800000000000399915500000000000000009999123100000010000000000000BRPNVLACNOR9206
012024041902POMO3       010MARCOPOLO   ON      N2   R$  000000000055700000000005620000000000552000000000055500000000005600000000000555000000000056100235000000000000097200000000000053988700000000000000009999123100000010000000000000BRPOMOACNOR0097
012024041902POMO4       010MARCOPOLO   PN      N2   R$  000000000072000000000007310000000000712000000000071900000000007130000000000713000000000071408979000000000006608600000000004756481100000000000000009999123100000010000000000000BRPOMOACNPR7097
012024041902PORT3       010WILSON SONS ON      NM   R$  000000000169200000000016920000000001672000000000167900000000016750000000001675000000000168402462000000000000835800000000001403608200000000000000009999123100000010000000000000BRPORTACNOR8106
012024041902POSI3       010POSITIVO TECON      NM   R$  000000000095700000000009850000000000945000000000097000000000009660000000000963000000000097004043000000000001323700000000001284887100000000000000009999123100000010000000000000BRPOSIACNOR9115
012024041902RECV3       010PETRORECSA  ON      NM   R$  000000000202900000000021150000000002022000000000208700000000021150000000002099000000000211512720000000000004788500000000009993873700000000000000009999123100000010000000000000BRRECVACNOR3105
012024041902REDE3       010REDE ENERGIAON           R$  000000000068600000000007100000000000685000000000069700000000007000000000000689000000000069800009000000000000001100000000000000766900000000000000009999123100000010000000000000BRREDEACNOR7127
012024041902BRSR6       010BANRISUL    PNB     N1   R$  000000000123400000000012470000000001228000000000123700000000012400000000001233000000000124003325000000000001247500000000001544309100000000000000009999123100000010000000000000BRBRSRACNPB4189
012024041902BSLI4       010BRB BANCO   PN           R$  000000000100900000000010090000000001009000000000100900000000010090000000000980000000000099900001000000000000000100000000000000100900000000000000009999123100000010000000000000BRBSLIACNPR2192
012024041902RENT3       010LOCALIZA    ON      NM   R$  000000000507700000000051950000000005027000000000508700000000050270000000005026000000000506137085000000000012904100000000065653619400000000000000009999123100000010000000000000BRRENTACNOR4195
012024041902INEP3       010INEPAR      ON           R$  000000000037300000000003740000000000341000000000035200000000003430000000000343000000000034600546000000000000084500000000000029755300000000000000009999123100000010000000000000BRINEPACNOR1143
012024041902INEP4       010INEPAR      PN           R$  000000000030500000000003220000000000295000000000030800000000002970000000000297000000000030500179000000000000065000000000000020037100000000000000009999123100000010000000000000BRINEPACNPR8143
012024041902INTB3       010INTELBRAS   ON      NM   R$  000000000183800000000018840000000001828000000000186000000000018630000000001843000000000186305871000000000001324900000000002464850700000000000000009999123100000010000000000000BRINTBACNOR9111
012024041902IRBR3       010IRBBRASIL REON      NM   R$  000000000397800000000039780000000003902000000000393600000000039650000000003958000000000396503734000000000000931200000000003665828600000000000000009999123100000010000000000000BRIRBRACNOR4111
012024041902JSLG3       010JSL         ON      NM   R$  000000000120800000000012500000000001208000000000123000000000012430000000001222000000000124301574000000000000267700000000000329512200000000000000009999123100000010000000000000BRJSLGACNOR2121
012024041902KEPL3       010KEPLER WEBERON      NM   R$  000000000097600000000010010000000000973000000000099000000000010010000000000993000000000100103429000000000001126800000000001116519100000000000000009999123100000010000000000000BRKEPLACNOR1062
012024041902HETA4       010HERCULES    PN           R$  000000000063700000000006390000000000637000000000063800000000006390000000000550000000000062400002000000000000000300000000000000191500000000000000009999123100000010000000000000BRHETAACNPR9136
012024041902YDUQ3       010YDUQS PART  ON      NM   R$  000000000140300000000014370000000001394000000000141000000000014030000000001398000000000140313429000000000004263900000000006015398400000000000000009999123100000010000000000000BRYDUQACNOR3104
012024041902BMOB3       010BEMOBI TECH ON      NM   R$  000000000124000000000012640000000001235000000000124800000000012500000000001245000000000125001341000000000000339900000000000424349700000000000000009999123100000010000000000000BRBMOBACNOR7103
012024041902BNBR3       010NORD BRASIL ON           R$  000000001000000000000100000000000010000000000001000000000000100000000000010001000000001040000002000000000000000300000000000003000000000000000000009999123100000010000000000000BRBNBRACNOR8207
012024041902BOBR4       010BOMBRIL     PN           R$  000000000021800000000002200000000000213000000000021500000000002160000000000216000000000021900051000000000000021700000000000004677600000000000000009999123100000010000000000000BRBOBRACNPR3128
012024041902GUAR3       010GUARARAPES  ON      NM   R$  000000000071800000000007520000000000712000000000073200000000007320000000000727000000000073207024000000000002659700000000001948657800000000000000009999123100000010000000000000BRGUARACNOR4172
012024041902HAGA3       010HAGA S/A    ON           R$  000000000025000000000002500000000000250000000000025000000000002500000000000250000000000026200001000000000000000100000000000000025000000000000000009999123100000010000000000000BRHAGAACNOR7103
012024041902HAGA4       010HAGA S/A    PN           R$  000000000011600000000001230000000000116000000000012100000000001180000000000118000000000011900034000000000000017000000000000002059300000000000000009999123100000010000000000000BRHAGAACNPR4103
012024041902BIOM3       010BIOMM       ON      MA   R$  000000000166000000000017850000000001629000000000168600000000017100000000001694000000000172002947000000000000473300000000000798383200000000000000009999123100000010000000000000BRBIOMACNOR2112
012024041902HYPE3       010HYPERA      ON      NM   R$  000000000284000000000028830000000002803000000000284200000000028350000000002820000000000283720841000000000004855700000000013804327000000000000000009999123100000010000000000000BRHYPEACNOR0139
012024041902BRIT3       010BRISANET    ON      NM   R$  000000000042000000000004380000000000414000000000042300000000004230000000000418000000000042301492000000000000923600000000000391460800000000000000009999123100000010000000000000BRBRITACNOR0102
012024041902BRKM3       010BRASKEM     ON      N1   R$  000000000215400000000021820000000002144000000000217200000000021660000000002152000000000219000017000000000000003200000000000006951800000000000000009999123100000010000000000000BRBRKMACNOR1119
012024041902BRKM5       010BRASKEM     PNA     N1   R$  000000000225600000000022650000000002216000000000224000000000022300000000002228000000000223206726000000000001940700000000004348420700000000000000009999123100000010000000000000BRBRKMACNPA4121
012024041902CMIN3       010CSNMINERACAOON      N2   R$  000000000052100000000005300000000000519000000000052300000000005300000000000529000000000053010660000000000010258100000000005370544600000000000000009999123100000010000000000000BRCMINACNOR2110
012024041902COCE5       010COELCE      PNA          R$  000000000344000000000035510000000003440000000000347100000000035510000000003475000000000356500099000000000000011000000000000038187700000000000000009999123100000010000000000000BRCOCEACNPA3146
012024041902COGN3       010COGNA ON    ON      NM   R$  000000000019600000000002020000000000190000000000019600000000001970000000000196000000000019720036000000000046131700000000009042763000000000000000009999123100000010000000000000BRCOGNACNOR2104
012024041902ENAT3       010ENAUTA PART ON      NM   R$  000000000263700000000026850000000002612000000000264700000000026600000000002650000000000266109231000000000002298000000000006083976900000000000000009999123100000010000000000000BRENATACNOR0104
012024041902ENEV3       010ENEVA       ON      NM   R$  000000000122300000000012400000000001220000000000122800000000012270000000001226000000000122810342000000000006694700000000008226133000000000000000009999123100000010000000000000BRENEVACNOR8105
012024041902ENMT4       010ENERGISA MT PN           R$  000000000755900000000079990000000007559000000000770500000000079990000000007400000000000000000003000000000000000300000000000002311700000000000000009999123100000010000000000000BRENMTACNPR2125
012024041902EPAR3       010EMBPAR S/A  ON           R$  000000000074000000000007500000000000740000000000074200000000007500000000000741000000000075800010000000000000001500000000000001113500000000000000009999123100000010000000000000BREPARACNOR9104
012024041902EQMA3B      010EQTLMARANHAOON      MB   R$  000000000295000000000029500000000002950000000000295000000000029500000000002901000000000295000004000000000000000500000000000001475000000000000000009999123100000010000000000000BREQMAACNOR8107
012024041902EQPA3       010EQTL PARA   ON           R$  000000000081200000000008130000000000812000000000081200000000008130000000000810000000000082400002000000000000000200000000000000162500000000000000009999123100000010000000000000BREQPAACNOR1110
012024041902EQTL3       010EQUATORIAL  ON      NM   R$  000000000311900000000031660000000003109000000000311900000000031150000000003115000000000311624590000000000031246900000000097485920300000000000000009999123100000010000000000000BREQTLACNOR0129
012024041902HBOR3       010HELBOR      ON      NM   R$  000000000026300000000002680000000000257000000000026100000000002650000000000264000000000026500434000000000000375400000000000098325900000000000000009999123100000010000000000000BRHBORACNOR3117
012024041902HBRE3       010HBR REALTY  ON      NM   R$  000000000051900000000005350000000000515000000000052400000000005300000000000530000000000053301068000000000000674100000000000353474600000000000000009999123100000010000000000000BRHBREACNOR4100
012024041902HBSA3       010HIDROVIAS   ON      NM   R$  000000000040800000000004220000000000408000000000041500000000004140000000000413000000000041506076000000000006343100000000002634683400000000000000009999123100000010000000000000BRHBSAACNOR0100
012024041902HBTS5       010HABITASUL   PNA          R$  000000000420000000000042000000000004200000000000420000000000042000000000003852000000000435000001000000000000000300000000000001260000000000000000009999123100000010000000000000BRHBTSACNPA3127
012024041902CIEL3       010CIELO       ON      NM   R$  000000000054700000000005540000000000546000000000055100000000005540000000000552000000000055512950000000000015765700000000008692471100000000000000009999123100000010000000000000BRCIELACNOR3157
012024041902CLSA3       010CLEARSALE   ON      NM   R$  000000000079800000000008120000000000766000000000078600000000007760000000000776000000000077904350000000000002058500000000001618728600000000000000009999123100000010000000000000BRCLSAACNOR0100
012024041902CSNA3       010SID NACIONALON           R$  000000000141600000000014680000000001409000000000144600000000014680000000001466000000000146817176000000000010527200000000015224941700000000000000009999123100000010000000000000BRCSNAACNOR6260
012024041902ELMD3       010ELETROMIDIA ON      NM   R$  000000000179500000000018000000000001698000000000176000000000017880000000001747000000000178800313000000000000093900000000000165289700000000000000009999123100000010000000000000BRELMDACNOR3100
012024041902EMAE4       010EMAE        PN           R$  000000000752000000000080000000000005060000000000673400000000054400000000005353000000000544000513000000000000075000000000000505105200000000000000009999123100000010000000000000BREMAEACNPR1125
012024041902EMBR3       010EMBRAER     ON      NM   R$  000000000318400000000032080000000003056000000000311100000000030920000000003091000000000309222178000000000006945800000000021609490200000000000000009999123100000010000000000000BREMBRACNOR4191
012024041902ANIM3       010ANIMA       ON      NM   R$  000000000033300000000003500000000000332000000000034200000000003390000000000339000000000034009662000000000006162900000000002108618500000000000000009999123100000010000000000000BRANIMACNOR6107
012024041902APER3       010ALPER S.A.  ON           R$  000000000448200000000045000000000004482000000000448300000000044830000000004483000000000459000010000000000000007600000000000034074600000000000000009999123100000010000000000000BRAPERACNOR9106
012024041907TXRX4       010TEX RENAUX  PN           R$  000000000023300000000002330000000000220000000000022200000000002200000000000220000000000023100018000000000000006100000000000001358100000000000000009999123100000010000000000000BRTXRXACNPR0142
012024041907NUTR3       010NUTRIPLANT  ON      MA   R$  000000000052100000000005290000000000470000000000049700000000005230000000000480000000000052300105000000000000019700000000000009803600000000000000009999123100000010000000000000BRNUTRACNOR0104
012024041908ETER3       010ETERNIT     ON      NM   R$  000000000074000000000007680000000000740000000000075900000000007680000000000763000000000076800673000000000000200200000000000152122900000000000000009999123100000010000000000000BRETERACNOR3243
012024041908NEXP3       010NEXPE       ON      NM   R$  000000000043000000000004300000000000420000000000042300000000004200000000000420000000000042600010000000000000001500000000000000635000000000000000009999123100000010000000000000BRNEXPACNOR0101
012024041908RSID3       010ROSSI RESID ON      NM   R$  000000000044400000000005290000000000444000000000048900000000005290000000000510000000000052900729000000000000283200000000000138701100000000000000009999123100000010000000000000BRRSIDACNOR8120
012024041908BDLL3       010BARDELLA    ON           R$  000000000120100000000012010000000001201000000000120100000000012010000000001201000000000144900002000000000000000300000000000000360300000000000000009999123100000010000000000000BRBDLLACNOR1149
012024041908BDLL4       010BARDELLA    PN           R$  000000000096000000000009600000000000960000000000096000000000009600000000000905000000000099900002000000000000000600000000000000576000000000000000009999123100000010000000000000BRBDLLACNPR8151
012024041908ATMP3       010ATMASA      ON           R$  000000000020100000000002010000000000200000000000020000000000002000000000000200000000000020200009000000000000005000000000000001000300000000000000009999123100000010000000000000BRATMPACNOR8100
012024041908OIBR3       010OI          ON      N1   R$  000000000007300000000000750000000000070000000000007200000000000700000000000070000000000007102788000000000019028500000000001373467500000000000000009999123100000010000000000000BROIBRACNOR1110
012024041908OIBR4       010OI          PN      N1   R$  000000000019900000000001990000000000182000000000018800000000001870000000000187000000000018800685000000000000259000000000000048930600000000000000009999123100000010000000000000BROIBRACNPR8109
012024041908OSXB3       010OSX BRASIL  ON      NM   R$  000000000040100000000004190000000000400000000000040300000000004120000000000403000000000041200023000000000000011100000000000004479400000000000000009999123100000010000000000000BROSXBACNOR8109
012024041908JFEN3       010JOAO FORTES ON           R$  000000000016200000000001670000000000159000000000016200000000001650000000000162000000000016500150000000000000080900000000000013117700000000000000009999123100000010000000000000BRJFENACNOR0058
012024041908RNEW11      010RENOVA      UNT     N2   R$  000000000031100000000003130000000000302000000000030700000000003130000000000304000000000031300053000000000000010800000000000003315700000000000000009999123100000010000000000000BRRNEWCDAM15110
012024041908RNEW3       010RENOVA      ON      N2   R$  000000000010400000000001060000000000102000000000010300000000001050000000000103000000000010500107000000000000060700000000000006300100000000000000009999123100000010000000000000BRRNEWACNOR8110
012024041908RNEW4       010RENOVA      PN      N2   R$  000000000010200000000001050000000000099000000000010100000000001010000000000101000000000010200266000000000000455800000000000046103900000000000000009999123100000010000000000000BRRNEWACNPR5110
012024041908RPMG3       010PET MANGUINHON           R$  000000000020400000000002090000000000204000000000020700000000002090000000000207000000000020900011000000000000003300000000000000683500000000000000009999123100000010000000000000BRRPMGACNOR9194
012024041908LIGT3       010LIGHT S/A   ON      NM   R$  000000000051100000000005200000000000505000000000050900000000005100000000000507000000000051001174000000000000307800000000000156964300000000000000009999123100000010000000000000BRLIGTACNOR2124
012024041908PMAM3       010PARANAPANEMAON      NM   R$  000000000028500000000002850000000000265000000000027000000000002650000000000265000000000026800314000000000000163500000000000044225700000000000000009999123100000010000000000000BRPMAMACNOR3038
012024041908AMER3       010AMERICANAS  ON      NM   R$  000000000005200000000000550000000000051000000000005200000000000520000000000052000000000005302807000000000018459100000000000975297700000000000000009999123100000010000000000000BRAMERACNOR6101
012024041910SEQL11      010SEQUOIA LOG DIR     NM   R$  000000000000100000000000010000000000001000000000000100000000000010000000000000000000000000100077000000000000585000000000000000585000000000000000009999123100000010000000000000BRSEQLD01M19101
012024041910ABCB10      010ABC BRASIL  PN  REC N2   R$  000000000226500000000022880000000002221000000000227600000000022260000000002000000000000000000015000000000000002800000000000006375100000000000000009999123100000010000000000000BRABCBR19PR1144
012024041910SEQL12      010SEQUOIA LOG DIR     NM   R$  000000000000100000000000020000000000001000000000000100000000000010000000000001000000000000200151000000000001375300000000000001615400000000000000009999123100000010000000000000BRSEQLD02M18101
012024041912EURO11      010FII EUROPAR CI           R$  000000002459800000000250000000000024598000000002467300000000246500000000024478000000002465000028000000000000000462000000000011399328000000000000009999123100000010000000000000BREUROCTF011357
012024041912EVBI11      010FII VBI CON CI           R$  000000000980000000000098450000000009750000000000978300000000098450000000009757000000000985000015000000000000000089000000000000870719000000000000009999123100000010000000000000BREVBICTF007147
012024041912EXES11      010FII EXES    CI  ER       R$  000000000093000000000009600000000000930000000000095600000000009600000000000000000000000096100003000000000000000026000000000000024870000000000000009999123100000010000000000000BREXESCTF006123
012024041912IBCR11      010FII BREI    CI  ER       R$  000000000774600000000077460000000007600000000000768000000000076180000000007617000000000769700211000000000000002823000000000021682845000000000000009999123100000010000000000000BRIBCRCTF009135
012024041912NEWL11      010FII NEWPORT CI           R$  000000001198900000000120000000000011926000000001198500000000120000000000011944000000001200000167000000000000000803000000000009624012000000000000009999123100000010000000000000BRNEWLCTF004153
012024041912NEWU11      010FII NEWRU   CI           R$  000000000760900000000076090000000007608000000000760800000000076080000000007608000000000760900005000000000000000064000000000000486913000000000000009999123100000010000000000000BRNEWUCTF005119
012024041912NSLU11      010FII LOURDES CI           R$  000000001840400000000188000000000018400000000001845900000000187930000000018500000000001879300118000000000000000719000000000013272592000000000000009999123100000010000000000000BRNSLUCTF008309
012024041912RSPD11      010FII RBRESID3CI           R$  000000010999900000001099990000000108999000000010949900000001089990000000102201000000010899900002000000000000000002000000000000218998000000000000009999123100000010000000000000BRRSPDCTF006112
012024041912RVBI11      010FII VBI REITCI           R$  000000000764700000000076710000000007625000000000765100000000076550000000007650000000000765503236000000000000017024000000000130264195000000000000009999123100000010000000000000BRRVBICTF009150
012024041912RZAK11      010FII RIZA AKNCI  ER       R$  000000000872700000000087900000000008715000000000873200000000087780000000008778000000000878504543000000000000030861000000000269490899000000000000009999123100000010000000000000BRRZAKCTF008142
012024041912RZAT11      010FII ARCTIUM CI  ER       R$  000000000994500000000100000000000009930000000000998100000000099850000000009985000000000999902108000000000000005592000000000055814221000000000000009999123100000010000000000000BRRZATCTF009115
012024041912RZTR11      010FII RIZA TX CI           R$  000000000960000000000096910000000009575000000000961800000000096200000000009596000000000962007132000000000000034250000000000329442475000000000000009999123100000010000000000000BRRZTRCTF003146
012024041912SADI11      010FII SANT PAPCI           R$  000000000894900000000089800000000008870000000000891100000000089040000000008904000000000890900195000000000000002691000000000023979765000000000000009999123100000010000000000000BRSADICTF007157
012024041912MALL11      010FII MALLS BPCI           R$  000000001143400000000114900000000011380000000001141300000000114400000000011413000000001144305857000000000000022642000000000258421494000000000000009999123100000010000000000000BRMALLCTF007179
012024041912MANA11      010FII MANATI  CI           R$  000000000093600000000009450000000000936000000000094000000000009420000000000942000000000094302514000000000000052737000000000049581734000000000000009999123100000010000000000000BRMANACTF006122
012024041912MAXR11      010FII MAX RET CI           R$  000000000820200000000082650000000008177000000000820300000000081990000000008199000000000824000054000000000000000468000000000003839366000000000000009999123100000010000000000000BRMAXRCTF009266
012024041912MCCI11      010FII MAUA    CI  ER       R$  000000000916000000000092390000000009121000000000918900000000091650000000009150000000000916506805000000000000051494000000000473186732000000000000009999123100000010000000000000BRMCCICTF008160
012024041912MCEM11      010FII MCEM    CI           R$  000000001099300000000109930000000010993000000001099300000000109930000000010501000000001100000001000000000000000001000000000000010993000000000000009999123100000010000000000000BRMCEMCTF006100
012024041912MCHY11      010FII MAUA HY CI  ER       R$  000000000097000000000009870000000000963000000000097600000000009790000000000978000000000097931927000000000000352172000000000344062837000000000000009999123100000010000000000000BRMCHYCTF004136
012024041912MINT11      010FII MINT EDUCI           R$  000000000955400000000095540000000009554000000000955400000000095540000000009306000000000955500001000000000000000001000000000000009554000000000000009999123100000010000000000000BRMINTCTF009103
012024041912AFHI11      010FII AFHI CRICI  ER       R$  000000000968600000000097990000000009686000000000974400000000097710000000009771000000000977202925000000000000010760000000000104852463000000000000009999123100000010000000000000BRAFHICTF005140
012024041912AIEC11      010FII AUTONOMYCI           R$  000000000520000000000052430000000005151000000000519900000000051980000000005192000000000519800468000000000000009802000000000050969063000000000000009999123100000010000000000000BRAIECCTF009143
012024041912PEMA11      010FII PERFORMACI           R$  000000000379900000000037990000000003799000000000379900000000037990000000003799000000000437500001000000000000000001000000000000003799000000000000009999123100000010000000000000BRPEMACTF003135
012024041912RBDS11      010FII RBRESID2CI           R$  000000000022500000000002250000000000214000000000022200000000002140000000000211000000000023600003000000000000000025000000000000005564000000000000009999123100000010000000000000BRRBDSCTF006179
012024041912RBED11      010FII RIOB ED CI           R$  000000001422600000000142260000000014150000000001419400000000141960000000014158000000001419800171000000000000000808000000000011469507000000000000009999123100000010000000000000BRRBEDCTF006162
012024041912RBFF11      010FII RIOB FF CI           R$  000000000619800000000062640000000006183000000000623300000000062430000000006243000000000625200262000000000000013349000000000083213158000000000000009999123100000010000000000000BRRBFFCTF008158
012024041912RBHG11      010FII RBCRI IVCI           R$  000000000899500000000090400000000008950000000000899700000000089960000000008996000000000901901513000000000000002205000000000019840302000000000000009999123100000010000000000000BRRBHGCTF002132
012024041912RBHY11      010FII RB YIELDCI           R$  000000000892500000000089430000000008915000000000892900000000089340000000008934000000000898300151000000000000000680000000000006072240000000000000009999123100000010000000000000BRRBHYCTF005142
012024041912RBIR11      010FII RBRES IVCI           R$  000000000890000000000090000000000008900000000000894800000000090000000000009000000000000903900144000000000000004998000000000044723595000000000000009999123100000010000000000000BRRBIRCTF007111
012024041912RBOP11      010FII MERC BR CI           R$  000000003900100000000396000000000038215000000003912000000000382150000000038016000000003899900033000000000000000222000000000008684772000000000000009999123100000010000000000000BRRBOPCTF009119
012024041912AJFI11      010FII AJ MALLSCI           R$  000000000094000000000009480000000000938000000000094200000000009450000000000944000000000094507890000000000000082196000000000077484561000000000000009999123100000010000000000000BRAJFICTF001105
012024041912ALMI11      010FII TORRE ALCI           R$  000000006599800000000659990000000064333000000006469200000000643330000000064030000000006599800008000000000000000023000000000001487925000000000000009999123100000010000000000000BRALMICTF003250
012024041912BCFF11      010FII BC FFII CI           R$  000000000090900000000009100000000000905000000000090800000000009080000000000908000000000090904475000000000000196745000000000178708538000000000000009999123100000010000000000000BRBCFFCTF000276
012024041912BCIA11      010FII BCIA    CI           R$  000000001047700000000105980000000010477000000001053000000000105500000000010549000000001055000882000000000000004139000000000043586297000000000000009999123100000010000000000000BRBCIACTF005208
012024041912BCRI11      010FII BEES CRICI           R$  000000000686200000000069070000000006862000000000688500000000069070000000006896000000000690701193000000000000007921000000000054543774000000000000009999123100000010000000000000BRBCRICTF009213
012024041912RBRD11      010FII RB II   CI           R$  000000000391300000000039630000000003913000000000393700000000039630000000003943000000000399700040000000000000000244000000000000960865000000000000009999123100000010000000000000BRRBRDCTF008261
012024041912RBRF11      010FII RBRALPHACI  ER       R$  000000000080000000000008070000000000795000000000080200000000008070000000000806000000000080721361000000000000275518000000000221140034000000000000009999123100000010000000000000BRRBRFCTF003185
012024041912RBRL11      010FII RBR LOG CI           R$  000000000840000000000084810000000008369000000000841500000000083800000000008380000000000840301085000000000000004723000000000039744502000000000000009999123100000010000000000000BRRBRLCTF001152
