00COTAHIST.2024BOVESPA 20240308                                                                                                                                                                                                                      
012024030802SRNA3       010SERENA      ON      NM   R$  000000000082800000000008820000000000825000000000085600000000008450000000000000000000000000011029000000000003978100000000003405404500000000000000009999123100000010000000000000BRSRNAACNOR4100
012024030802VIVA3       010VIVARA S.A. ON      NM   R$  000000000320800000000033000000000003202000000000324300000000032500000000000000000000000000004762000000000000888800000000002882881200000000000000009999123100000010000000000000BRVIVAACNOR0106
012024030802VSTE3       010VESTE       ON      NM   R$  000000000143700000000014430000000001416000000000143600000000014250000000000000000000000000000007000000000000001600000000000002299000000000000000009999123100000010000000000000BRVSTEACNOR5102
012024030802RAPT4       010RANDON PART PN      N1   R$  000000000115300000000011680000000001130000000000114200000000011400000000000000000000000000004163000000000001069100000000001221571800000000000000009999123100000010000000000000BRRAPTACNPR4162
012024030802BEES3       010BANESTES    ON  EJ       R$  000000000091500000000009500000000000908000000000091800000000009210000000000000000000000000000085000000000000015800000000000014511900000000000000009999123100000010000000000000BRBEESACNOR9388
012024030802RDNI3       010RNI         ON      NM   R$  000000000042000000000004200000000000411000000000041300000000004150000000000000000000000000000030000000000000010400000000000004303900000000000000009999123100000010000000000000BRRDNIACNOR9116
012024030802BPAC5       010BTGP BANCO  PNA     N2   R$  000000000090700000000009250000000000895000000000091100000000009070000000000000000000000000000053000000000000009100000000000008294500000000000000009999123100000010000000000000BRBPACACNPA0133
012024030802TASA3       010TAURUS ARMASON      N2   R$  000000000140500000000014270000000001400000000000141200000000014170000000000000000000000000000066000000000000010000000000000014129300000000000000009999123100000010000000000000BRTASAACNOR7103
012024030802TELB3       010TELEBRAS    ON           R$  000000000145300000000014670000000001430000000000143700000000014300000000000000000000000000000015000000000000002200000000000003162600000000000000009999123100000010000000000000BRTELBACNOR2140
012024030802CPLE6       010COPEL       PNB     N2   R$  000000000101100000000010250000000001006000000000101800000000010240000000000000000000000000013952000000000009101200000000009267328800000000000000009999123100000010000000000000BRCPLEACNPB9145
012024030802TEND3       010TENDA       ON      NM   R$  000000000109800000000011440000000001077000000000111700000000011270000000000000000000000000006591000000000001864900000000002084828700000000000000009999123100000010000000000000BRTENDACNOR4111
012024030802TOTS3       010TOTVS       ON      NM   R$  000000000297900000000030370000000002977000000000300500000000030130000000000000000000000000012492000000000002502200000000007519206300000000000000009999123100000010000000000000BRTOTSACNOR8144
012024030802CASH3       010MELIUZ      ON      NM   R$  000000000082300000000008640000000000822000000000085000000000008550000000000000000000000000005981000000000001891700000000001608334100000000000000009999123100000010000000000000BRCASHACNOR8105
012024030802CSUD3       010CSU DIGITAL ON      NM   R$  000000000199800000000020600000000001980000000000203800000000020430000000000000000000000000000290000000000000092100000000000187761600000000000000009999123100000010000000000000BRCSUDACNOR5107
012024030802CTNM4       010COTEMINAS   PN           R$  000000000012700000000001270000000000124000000000012500000000001270000000000000000000000000000072000000000000050000000000000006287000000000000000009999123100000010000000000000BRCTNMACNPR6129
012024030802CVCB3       010CVC BRASIL  ON      NM   R$  000000000032400000000003390000000000323000000000033400000000003370000000000000000000000000010136000000000012090900000000004040662400000000000000009999123100000010000000000000BRCVCBACNOR1115
012024030802ITUB4       010ITAUUNIBANCOPN  EJ  N1   R$  000000000336800000000034260000000003365000000000340500000000034100000000000000000000000000038938000000000017325800000000058997928200000000000000009999123100000010000000000000BRITUBACNPR1332
012024030802BIOM3       010BIOMM       ON      MA   R$  000000000088700000000008950000000000838000000000087000000000008900000000000000000000000000000043000000000000010400000000000009051000000000000000009999123100000010000000000000BRBIOMACNOR2112
012024030802IFCM3       010INFRACOMM   ON      NM   R$  000000000010500000000001110000000000101000000000010600000000001070000000000000000000000000012329000000000010327100000000001097120900000000000000009999123100000010000000000000BRIFCMACNOR8101
012024030802INEP3       010INEPAR      ON           R$  000000000032200000000003220000000000313000000000031600000000003190000000000000000000000000000055000000000000023100000000000007318100000000000000009999123100000010000000000000BRINEPACNOR1143
012024030802LUPA3       010LUPATECH    ON      NM   R$  000000000020300000000002140000000000200000000000020800000000002070000000000000000000000000000838000000000000377600000000000078789700000000000000009999123100000010000000000000BRLUPAACNOR8112
012024030802MATD3       010MATER DEI   ON      NM   R$  000000000061400000000006290000000000610000000000061600000000006110000000000000000000000000001766000000000000363700000000000224314900000000000000009999123100000010000000000000BRMATDACNOR4103
012024030802MEAL3       010IMC S/A     ON      NM   R$  000000000021600000000002270000000000216000000000022100000000002270000000000000000000000000000499000000000000889200000000000197384200000000000000009999123100000010000000000000BRMEALACNOR9105
012024030802PEAB4       010PAR AL BAHIAPN           R$  000000000465000000000046500000000004650000000000465000000000046500000000000000000000000000000001000000000000000300000000000001395000000000000000009999123100000010000000000000BRPEABACNPR0131
012024030802JHSF3       010JHSF PART   ON  ED  NM   R$  000000000042800000000004420000000000425000000000043500000000004340000000000000000000000000003514000000000001815700000000000790157400000000000000009999123100000010000000000000BRJHSFACNOR2133
012024030802KLBN11      010KLABIN S/A  UNT     N2   R$  000000000223600000000022660000000002163000000000220400000000022040000000000000000000000000034227000000000007632100000000016826813200000000000000009999123100000010000000000000BRKLBNCDAM18140
012024030802SHOW3       010TIME FOR FUNON      NM   R$  000000000021800000000002300000000000210000000000021500000000002140000000000000000000000000000395000000000000298000000000000064254500000000000000009999123100000010000000000000BRSHOWACNOR7105
012024030802PFRM3       010PROFARMA    ON      NM   R$  000000000054400000000005780000000000532000000000056100000000005720000000000000000000000000000595000000000000204700000000000114940500000000000000009999123100000010000000000000BRPFRMACNOR1116
012024030802PINE3       010PINE        ON      N2   R$  000000000071100000000007110000000000622000000000066300000000007000000000000000000000000000000045000000000000005900000000000003912200000000000000009999123100000010000000000000BRPINEACNOR1148
012024030802TPIS3       010TRIUNFO PARTON      NM   R$  000000000039100000000003920000000000379000000000038400000000003880000000000000000000000000000149000000000000046400000000000017847700000000000000009999123100000010000000000000BRTPISACNOR8118
012024030802TRPL4       010TRAN PAULISTPN      N1   R$  000000000247000000000025320000000002447000000000249900000000025150000000000000000000000000016043000000000002812800000000007029442100000000000000009999123100000010000000000000BRTRPLACNPR1185
012024030802SUZB3       010SUZANO S.A. ON      NM   R$  000000000586800000000059270000000005796000000000586200000000059150000000000000000000000000044538000000000008183200000000047977336000000000000000009999123100000010000000000000BRSUZBACNOR0129
012024030802VIVT3       010TELEF BRASILON           R$  000000000525600000000052890000000005192000000000523900000000052310000000000000000000000000009928000000000002235100000000011709805200000000000000009999123100000010000000000000BRVIVTACNOR0178
012024030802VVEO3       010VIVEO       ON      NM   R$  000000000072500000000007450000000000714000000000073400000000007360000000000000000000000000003281000000000000770700000000000565870000000000000000009999123100000010000000000000BRVVEOACNOR0103
012024030802SOMA3       010GRUPO SOMA  ON      NM   R$  000000000069700000000007150000000000682000000000069900000000007020000000000000000000000000014132000000000007119300000000004981488000000000000000009999123100000010000000000000BRSOMAACNOR3102
012024030802RCSL3       010RECRUSUL    ON           R$  000000000018400000000001880000000000173000000000017900000000001750000000000000000000000000001783000000000001514800000000000271885900000000000000009999123100000010000000000000BRRCSLACNOR4133
012024030802BPAC11      010BTGP BANCO  UNT     N2   R$  000000000353300000000036090000000003482000000000355600000000035630000000000000000000000000047396000000000008747600000000031111752000000000000000009999123100000010000000000000BRBPACUNT006118
012024030802REDE3       010REDE ENERGIAON           R$  000000000069000000000006900000000000679000000000068400000000006890000000000000000000000000000015000000000000001700000000000001163100000000000000009999123100000010000000000000BRREDEACNOR7126
012024030802TCSA3       010TECNISA     ON      NM   R$  000000000028300000000002900000000000283000000000028700000000002880000000000000000000000000000146000000000000053900000000000015470400000000000000009999123100000010000000000000BRTCSAACNOR3112
012024030802CPLE3       010COPEL       ON      N2   R$  000000000090400000000009180000000000902000000000091000000000009130000000000000000000000000004518000000000003256400000000002964291700000000000000009999123100000010000000000000BRCPLEACNOR8148
012024030802CRIV4       010ALFA FINANC PN           R$  000000000067000000000006700000000000670000000000067000000000006700000000000000000000000000000001000000000000000600000000000000402000000000000000009999123100000010000000000000BRCRIVACNPR1211
012024030802TGMA3       010TEGMA       ON      NM   R$  000000000276400000000027940000000002735000000000277100000000027940000000000000000000000000000606000000000000084700000000000234765200000000000000009999123100000010000000000000BRTGMAACNOR7143
012024030802CAMB3       010CAMBUCI     ON           R$  000000000109400000000011240000000001070000000000109600000000011000000000000000000000000000000116000000000000033600000000000036839500000000000000009999123100000010000000000000BRCAMBACNOR4127
012024030802CCRO3       010CCR SA      ON      NM   R$  000000000138200000000013930000000001371000000000138100000000013830000000000000000000000000016035000000000008280100000000011439203900000000000000009999123100000010000000000000BRCCROACNOR2144
012024030802CTKA4       010KARSTEN     PN           R$  000000000175000000000017500000000001750000000000175000000000017500000000000000000000000000000001000000000000000100000000000000175000000000000000009999123100000010000000000000BRCTKAACNPR7043
012024030802CTSA4       010SANTANENSE  PN           R$  000000000016600000000001700000000000162000000000016400000000001630000000000000000000000000000098000000000000024600000000000004050300000000000000009999123100000010000000000000BRCTSAACNPR0062
012024030802CYRE3       010CYRELA REALTON      NM   R$  000000000240800000000024810000000002381000000000245400000000024640000000000000000000000000016498000000000004406100000000010813116700000000000000009999123100000010000000000000BRCYREACNOR7139
012024030802ABCB4       010ABC BRASIL  PN      N2   R$  000000000237500000000024060000000002357000000000238500000000023740000000000000000000000000002119000000000000316100000000000753971800000000000000009999123100000010000000000000BRABCBACNPR4145
012024030802FIQE3       010UNIFIQUE    ON      NM   R$  000000000042500000000004350000000000419000000000042900000000004290000000000000000000000000000821000000000000416100000000000178708800000000000000009999123100000010000000000000BRFIQEACNOR5106
012024030802IGTI3       010IGUATEMI S.AON      N1   R$  000000000029100000000002980000000000291000000000029400000000002980000000000000000000000000000119000000000000053400000000000015712800000000000000009999123100000010000000000000BRIGTIACNOR8105
012024030802INTB3       010INTELBRAS   ON  ED  NM   R$  000000000209000000000021400000000002050000000000211700000000021400000000000000000000000000004599000000000000694500000000001470760700000000000000009999123100000010000000000000BRINTBACNOR9110
012024030802LWSA3       010LWSA        ON      NM   R$  000000000056600000000005900000000000561000000000057000000000005730000000000000000000000000010996000000000007231600000000004124284900000000000000009999123100000010000000000000BRLWSAACNOR8103
012024030802MDIA3       010M.DIASBRANCOON      NM   R$  000000000406500000000041000000000004030000000000406800000000040680000000000000000000000000003176000000000000993200000000004040387200000000000000009999123100000010000000000000BRMDIAACNOR7133
012024030802PDGR3       010PDG REALT   ON      NM   R$  000000000002900000000000330000000000029000000000003000000000000310000000000000000000000000000815000000000005094100000000000157077100000000000000009999123100000010000000000000BRPDGRACNOR8118
012024030802PETR4       010PETROBRAS   PN      N2   R$  000000000359000000000037060000000003510000000000361700000000036120000000000000000000000000064554000000000230367600000000833368512500000000000000009999123100000010000000000000BRPETRACNPR6210
012024030802JSLG3       010JSL         ON      NM   R$  000000000120000000000012400000000001184000000000122500000000012280000000000000000000000000001412000000000000359200000000000440122300000000000000009999123100000010000000000000BRJSLGACNOR2121
012024030802SEQL3       010SEQUOIA LOG ON      NM   R$  000000000004100000000000430000000000041000000000004100000000000420000000000000000000000000002421000000000004687000000000000196699400000000000000009999123100000010000000000000BRSEQLACNOR2101
012024030802SIMH3       010SIMPAR      ON      NM   R$  000000000076100000000007850000000000748000000000076500000000007560000000000000000000000000004682000000000002726900000000002086228000000000000000009999123100000010000000000000BRSIMHACNOR0107
012024030802KLBN3       010KLABIN S/A  ON      N2   R$  000000000044700000000004510000000000432000000000043900000000004400000000000000000000000000002406000000000000796600000000000350405700000000000000009999123100000010000000000000BRKLBNACNOR2168
012024030802PLAS3       010PLASCAR PARTON           R$  000000000090000000000009000000000000900000000000090000000000009000000000000000000000000000000001000000000000000100000000000000090000000000000000009999123100000010000000000000BRPLASACNOR2106
012024030802TRIS3       010TRISUL      ON      NM   R$  000000000049700000000005140000000000486000000000050300000000005140000000000000000000000000001594000000000000550000000000000277035000000000000000009999123100000010000000000000BRTRISACNOR4116
012024030802ZAMP3       010ZAMP S.A.   ON           R$  000000000039800000000004000000000000381000000000038700000000003850000000000000000000000000002540000000000000760900000000000295169100000000000000009999123100000010000000000000BRZAMPACNOR5100
012024030802STBP3       010SANTOS BRP  ON      NM   R$  000000000107000000000011030000000001066000000000108900000000010780000000000000000000000000015074000000000007509200000000008181402500000000000000009999123100000010000000000000BRSTBPACNOR3128
012024030802VIVR3       010VIVER       ON      NM   R$  000000000030500000000003280000000000304000000000031700000000003140000000000000000000000000000357000000000000227300000000000072137500000000000000009999123100000010000000000000BRVIVRACNOR4122
012024030802VULC3       010VULCABRAS   ON      NM   R$  000000000205000000000020500000000001833000000000191500000000018740000000000000000000000000015575000000000005560200000000010648241400000000000000009999123100000010000000000000BRVULCACNOR2157
012024030802SOJA3       010BOA SAFRA   ON      NM   R$  000000000147500000000015050000000001454000000000148400000000015040000000000000000000000000001031000000000000190500000000000282821500000000000000009999123100000010000000000000BRSOJAACNOR9105
012024030802BEES4       010BANESTES    PN  EJ       R$  000000000099300000000009940000000000989000000000099100000000009910000000000000000000000000000013000000000000001300000000000001289400000000000000009999123100000010000000000000BRBEESACNPR6313
012024030802RDOR3       010REDE D OR   ON      NM   R$  000000000241200000000025460000000002402000000000247900000000025090000000000000000000000000016264000000000005844700000000014489493300000000000000009999123100000010000000000000BRRDORACNOR8111
012024030802RECV3       010PETRORECSA  ON      NM   R$  000000000207600000000021720000000002069000000000213500000000021370000000000000000000000000018459000000000005248400000000011206743300000000000000009999123100000010000000000000BRRECVACNOR3105
012024030802TASA4       010TAURUS ARMASPN      N2   R$  000000000140400000000014290000000001395000000000141400000000014080000000000000000000000000001497000000000000335400000000000474446600000000000000009999123100000010000000000000BRTASAACNPR4103
012024030802CPFE3       010CPFL ENERGIAON      NM   R$  000000000344100000000034670000000003400000000000343300000000034190000000000000000000000000016883000000000003489700000000011982901100000000000000009999123100000010000000000000BRCPFEACNOR0136
012024030802CRFB3       010CARREFOUR BRON      NM   R$  000000000116400000000011970000000001155000000000117700000000011820000000000000000000000000012559000000000006964600000000008198740200000000000000009999123100000010000000000000BRCRFBACNOR2116
012024030802TFCO4       010TRACK FIELD PN      N2   R$  000000000131000000000013470000000001309000000000132600000000013290000000000000000000000000000764000000000000122500000000000162536800000000000000009999123100000010000000000000BRTFCOACNPR8111
012024030802CALI3       010CONST A LINDON           R$  000000000200000000000020000000000002000000000000200000000000020000000000000000000000000000000003000000000000000500000000000001000000000000000000009999123100000010000000000000BRCALIACNOR1136
012024030802CBAV3       010CBA         ON      NM   R$  000000000038000000000004240000000000380000000000040200000000003960000000000000000000000000011810000000000009695200000000003906813700000000000000009999123100000010000000000000BRCBAVACNOR5104
012024030802CTKA3       010KARSTEN     ON           R$  000000000210000000000021000000000002100000000000210000000000021000000000000000000000000000000001000000000000000100000000000000210000000000000000009999123100000010000000000000BRCTKAACNOR0043
012024030802CTSA3       010SANTANENSE  ON           R$  000000000030100000000003100000000000300000000000030400000000003090000000000000000000000000000009000000000000000900000000000000274000000000000000009999123100000010000000000000BRCTSAACNOR3062
012024030802CXSE3       010CAIXA SEGURION      NM   R$  000000000160200000000016040000000001541000000000157700000000015990000000000000000000000000012029000000000005081400000000008015042700000000000000009999123100000010000000000000BRCXSEACNOR7105
012024030802AALR3       010ALLIAR      ON      NM   R$  000000000079400000000008000000000000693000000000071700000000007010000000000000000000000000001386000000000000652900000000000468227400000000000000009999123100000010000000000000BRAALRACNOR6102
012024030802BLAU3       010BLAU        ON      NM   R$  000000000121400000000012430000000001200000000000122100000000012150000000000000000000000000001104000000000000220000000000000268696600000000000000009999123100000010000000000000BRBLAUACNOR8111
012024030802IGTI11      010IGUATEMI S.AUNT     N1   R$  000000000234100000000024160000000002341000000000236400000000023750000000000000000000000000014483000000000002443600000000005778142400000000000000009999123100000010000000000000BRIGTICDAM16105
012024030802INEP4       010INEPAR      PN           R$  000000000029000000000002960000000000279000000000028800000000002930000000000000000000000000000208000000000000027800000000000008026200000000000000009999123100000010000000000000BRINEPACNPR8143
012024030802LVTC3       010WDC NETWORKSON      NM   R$  000000000038100000000003890000000000381000000000038300000000003880000000000000000000000000000032000000000000006200000000000002378100000000000000009999123100000010000000000000BRLVTCACNOR4102
012024030802MBLY3       010MOBLY       ON      NM   R$  000000000020400000000002070000000000202000000000020400000000002050000000000000000000000000000767000000000000625800000000000128164500000000000000009999123100000010000000000000BRMBLYACNOR5100
012024030802MELK3       010MELNICK     ON      NM   R$  000000000047700000000004840000000000472000000000047800000000004800000000000000000000000000000272000000000000073600000000000035248100000000000000009999123100000010000000000000BRMELKACNOR8110
012024030802PETR3       010PETROBRAS   ON      N2   R$  000000000367800000000037960000000003547000000000366300000000036980000000000000000000000000086492000000000081531700000000298721872800000000000000009999123100000010000000000000BRPETRACNOR9202
012024030802JOPA3       010JOSAPAR     ON           R$  000000000246900000000024690000000002469000000000246900000000024690000000000000000000000000000001000000000000000100000000000000246900000000000000009999123100000010000000000000BRJOPAACNOR5134
012024030802SEER3       010SER EDUCA   ON      NM   R$  000000000062900000000006420000000000610000000000063000000000006420000000000000000000000000001323000000000000428900000000000270388200000000000000009999123100000010000000000000BRSEERACNOR5119
012024030802SHUL4       010SCHULZ      PN           R$  000000000070300000000007170000000000697000000000070400000000006990000000000000000000000000001987000000000000519100000000000365466400000000000000009999123100000010000000000000BRSHULACNPR4154
012024030802PGMN3       010PAGUE MENOS ON      NM   R$  000000000028400000000002890000000000280000000000028500000000002850000000000000000000000000002695000000000001057700000000000301813800000000000000009999123100000010000000000000BRPGMNACNOR8103
012024030802PINE4       010PINE        PN      N2   R$  000000000046800000000004760000000000462000000000046900000000004760000000000000000000000000000452000000000000296800000000000139262900000000000000009999123100000010000000000000BRPINEACNPR8148
012024030802TRAD3       010TC          ON      NM   R$  000000000008900000000000890000000000086000000000008700000000000880000000000000000000000000000114000000000000129300000000000011254500000000000000009999123100000010000000000000BRTRADACNOR3101
012024030802YDUQ3       010YDUQS PART  ON      NM   R$  000000000216600000000021930000000002114000000000214500000000021330000000000000000000000000012101000000000002966500000000006363454900000000000000009999123100000010000000000000BRYDUQACNOR3104
012024030802CGAS5       010COMGAS      PNA          R$  000000001109000000000111090000000011050000000001108300000000110570000000000000000000000000000008000000000000000900000000000009975400000000000000009999123100000010000000000000BRCGASACNPA3159
012024030802CLSA3       010CLEARSALE   ON      NM   R$  000000000035500000000003720000000000348000000000036400000000003710000000000000000000000000001923000000000000703400000000000256099900000000000000009999123100000010000000000000BRCLSAACNOR0100
012024030802RAIZ4       010RAIZEN      PN      N2   R$  000000000034500000000003550000000000345000000000034900000000003480000000000000000000000000014661000000000010535000000000003677581500000000000000009999123100000010000000000000BRRAIZACNPR6109
012024030802DASA3       010DASA        ON      NM   R$  000000000076200000000007870000000000720000000000073700000000007260000000000000000000000000002543000000000000482500000000000355956700000000000000009999123100000010000000000000BRDASAACNOR1122
012024030802VAMO3       010VAMOS       ON      NM   R$  000000000083100000000008480000000000818000000000082700000000008200000000000000000000000000010885000000000005969600000000004939110900000000000000009999123100000010000000000000BRVAMOACNOR7105
012024030802DEXP4       010DEXXOS PAR  PN      N1   R$  000000000123800000000012500000000001238000000000124800000000012500000000000000000000000000000002000000000000000600000000000000748800000000000000009999123100000010000000000000BRDEXPACNPR8104
012024030802DOTZ3       010DOTZ SA     ON      NM   R$  000000000066200000000006930000000000648000000000066800000000006680000000000000000000000000000066000000000000017200000000000011502000000000000000009999123100000010000000000000BRDOTZACNOR7101
012024030802WHRL4       010WHIRLPOOL   PN           R$  000000000045200000000004550000000000450000000000045100000000004500000000000000000000000000000011000000000000004300000000000001940900000000000000009999123100000010000000000000BRWHRLACNPR2128
012024030802GGPS3       010GPS         ON      NM   R$  000000000175600000000017990000000001747000000000177600000000017730000000000000000000000000005734000000000001552200000000002756874100000000000000009999123100000010000000000000BRGGPSACNOR9102
012024030802LAND3       010TERRASANTAPAON      NM   R$  000000000169000000000017680000000001690000000000173200000000017280000000000000000000000000000147000000000000035100000000000060801200000000000000009999123100000010000000000000BRLANDACNOR9102
012024030802LOGG3       010LOG COM PROPON      NM   R$  000000000220200000000022830000000002202000000000224300000000022390000000000000000000000000001270000000000000200700000000000450345000000000000000009999123100000010000000000000BRLOGGACNOR7107
012024030802MNDL3       010MUNDIAL     ON           R$  000000000395100000000040500000000003951000000000403400000000040500000000000000000000000000000004000000000000001300000000000005245200000000000000009999123100000010000000000000BRMNDLACNOR4107
012024030802MOVI3       010MOVIDA      ON      NM   R$  000000000088300000000009440000000000879000000000092200000000009110000000000000000000000000014331000000000006590800000000006081330000000000000000009999123100000010000000000000BRMOVIACNOR0122
012024030802AGRO3       010BRASILAGRO  ON      NM   R$  000000000239600000000024150000000002367000000000239600000000024080000000000000000000000000002020000000000000310100000000000743066000000000000000009999123100000010000000000000BRAGROACNOR7114
012024030802ALOS3       010ALLOS       ON      NM   R$  000000000240100000000024700000000002400000000000242200000000024250000000000000000000000000010713000000000002647400000000006414469900000000000000009999123100000010000000000000BRALOSACNOR5100
012024030802BRSR6       010BANRISUL    PNB     N1   R$  000000000149000000000015050000000001472000000000149200000000015030000000000000000000000000002731000000000000645200000000000962810400000000000000009999123100000010000000000000BRBRSRACNPB4188
012024030802BMEB4       010MERCANTIL   PN      N1   R$  000000000290000000000029000000000002490000000000262100000000025500000000000000000000000000000260000000000000059500000000000155952300000000000000009999123100000010000000000000BRBMEBACNPR5210
012024030802BNBR3       010NORD BRASIL ON           R$  000000001170000000000117000000000011700000000001170000000000117000000000000000000000000000000001000000000000000100000000000001170000000000000000009999123100000010000000000000BRBNBRACNOR8206
012024030802BRIV4       010ALFA INVEST PN           R$  000000000124700000000012470000000001247000000000124700000000012470000000000000000000000000000002000000000000002300000000000002868100000000000000009999123100000010000000000000BRBRIVACNPR3218
012024030802FRAS3       010FRAS-LE     ON      N1   R$  000000000166300000000016890000000001652000000000166700000000016650000000000000000000000000000995000000000000151300000000000252346600000000000000009999123100000010000000000000BRFRASACNOR0158
012024030802GGBR4       010GERDAU      PN  ED  N1   R$  000000000210000000000021240000000002094000000000211000000000021240000000000000000000000000014053000000000007591000000000016017379300000000000000009999123100000010000000000000BRGGBRACNPR8190
012024030802MGLU3       010MAGAZ LUIZA ON      NM   R$  000000000020200000000002070000000000201000000000020300000000002050000000000000000000000000021974000000000056359400000000011487820700000000000000009999123100000010000000000000BRMGLUACNOR2123
012024030802ESTR4       010ESTRELA     PN           R$  000000000022600000000002290000000000210000000000021700000000002150000000000000000000000000000021000000000000009100000000000001983000000000000000009999123100000010000000000000BRESTRACNPR0144
012024030802EZTC3       010EZTEC       ON      NM   R$  000000000157900000000016290000000001567000000000160000000000016150000000000000000000000000005867000000000001549500000000002479286400000000000000009999123100000010000000000000BREZTCACNOR0123
012024030802BGIP3       010BANESE      ON  EJ       R$  000000000275000000000027500000000002750000000000275000000000027500000000000000000000000000000003000000000000000300000000000000825000000000000000009999123100000010000000000000BRBGIPACNOR1207
012024030802BRAP3       010BRADESPAR   ON      N1   R$  000000000198900000000020100000000001982000000000199500000000019950000000000000000000000000000301000000000000051000000000000101789500000000000000009999123100000010000000000000BRBRAPACNOR5147
012024030802CSED3       010CRUZEIRO EDUON      NM   R$  000000000045500000000004650000000000450000000000045900000000004650000000000000000000000000000899000000000000293000000000000134538200000000000000009999123100000010000000000000BRCSEDACNOR9104
012024030802ENGI11      010ENERGISA    UNT     N2   R$  000000000500000000000051270000000005000000000000508200000000051000000000000000000000000000016666000000000003316800000000016859004900000000000000009999123100000010000000000000BRENGICDAM16135
012024030802EPAR3       010EMBPAR S/A  ON           R$  000000000094800000000009510000000000933000000000093800000000009440000000000000000000000000000023000000000000006600000000000006192100000000000000009999123100000010000000000000BREPARACNOR9104
012024030802EQTL3       010EQUATORIAL  ON      NM   R$  000000000336800000000033930000000003325000000000335700000000033600000000000000000000000000020485000000000007620400000000025585092000000000000000009999123100000010000000000000BREQTLACNOR0129
012024030802BBAS3       010BRASIL      ON      NM   R$  000000000570100000000058170000000005603000000000571300000000057810000000000000000000000000055332000000000020002200000000114290445500000000000000009999123100000010000000000000BRBBASACNOR3320
012024030802CGRA4       010GRAZZIOTIN  PN           R$  000000000266600000000026750000000002649000000000265700000000026600000000000000000000000000000033000000000000004300000000000011428500000000000000009999123100000010000000000000BRCGRAACNPR9081
012024030802PCAR3       010P.ACUCAR-CBDON      NM   R$  000000000035300000000003590000000000347000000000035100000000003520000000000000000000000000006207000000000009697200000000003408881900000000000000009999123100000010000000000000BRPCARACNOR3167
012024030802RAPT3       010RANDON PART ON      N1   R$  000000000111400000000011230000000001086000000000109800000000011070000000000000000000000000000035000000000000007500000000000008236200000000000000009999123100000010000000000000BRRAPTACNOR7162
012024030802TAEE3       010TAESA       ON      N2   R$  000000000116900000000011820000000001165000000000117500000000011710000000000000000000000000000733000000000000118000000000000138749600000000000000009999123100000010000000000000BRTAEEACNOR9145
012024030802DESK3       010DESKTOP     ON      NM   R$  000000000137000000000014170000000001360000000000139200000000014100000000000000000000000000000514000000000000079300000000000110448500000000000000009999123100000010000000000000BRDESKACNOR2103
012024030802DMVF3       010D1000VFARMA ON      NM   R$  000000000059100000000006100000000000590000000000060300000000006070000000000000000000000000000269000000000000073000000000000044084000000000000000009999123100000010000000000000BRDMVFACNOR9100
012024030802WEST3       010WESTWING    ON      NM   R$  000000000012100000000001220000000000120000000000012000000000001200000000000000000000000000000167000000000000103300000000000012450100000000000000009999123100000010000000000000BRWESTACNOR3100
012024030802WLMM4       010WLM IND COM PN           R$  000000000253000000000025380000000002530000000000253500000000025370000000000000000000000000000007000000000000001100000000000002788900000000000000009999123100000010000000000000BRWLMMACNPR3117
012024030802GOAU3       010GERDAU MET  ON  ED  N1   R$  000000000101200000000010180000000001007000000000101200000000010140000000000000000000000000000256000000000000058300000000000059004900000000000000009999123100000010000000000000BRGOAUACNOR1266
012024030802LEVE3       010METAL LEVE  ON      NM   R$  000000000364900000000036580000000003610000000000364500000000036500000000000000000000000000001387000000000000389400000000001419551300000000000000009999123100000010000000000000BRLEVEACNOR2196
012024030802MILS3       010MILLS       ON      NM   R$  000000000132000000000013480000000001311000000000133700000000013350000000000000000000000000002845000000000000541200000000000723619500000000000000009999123100000010000000000000BRMILSACNOR2124
012024030802MOAR3       010MONT ARANHA ON           R$  000000003900000000000390000000000039000000000003900000000000390000000000000000000000000000000001000000000000000100000000000003900000000000000000009999123100000010000000000000BRMOARACNOR5233
012024030802AESB3       010AES BRASIL  ON      NM   R$  000000000104600000000010630000000001042000000000105000000000010480000000000000000000000000006061000000000002510500000000002637210500000000000000009999123100000010000000000000BRAESBACNOR7105
012024030802NEOE3       010NEOENERGIA  ON      NM   R$  000000000216400000000022090000000002153000000000218900000000021860000000000000000000000000005201000000000001040700000000002278187300000000000000009999123100000010000000000000BRNEOEACNOR3121
012024030802BBDC4       010BRADESCO    PN  EJ  N1   R$  000000000137400000000013960000000001367000000000138600000000013840000000000000000000000000026960000000000031663700000000043900246600000000000000009999123100000010000000000000BRBBDCACNPR8767
012024030802BSLI4       010BRB BANCO   PN           R$  000000000109000000000011490000000001051000000000107600000000010510000000000000000000000000000015000000000000003900000000000004200200000000000000009999123100000010000000000000BRBSLIACNPR2192
012024030802BMKS3       010BIC MONARK  ON           R$  000000003689800000000368980000000035500000000003589800000000359950000000000000000000000000000033000000000000000420000000000015077549000000000000009999123100000010000000000000BRBMKSACNOR9165
012024030802BRGE6       010ALFA CONSORCPNB          R$  000000000128500000000012850000000001285000000000128500000000012850000000000000000000000000000001000000000000000100000000000000128500000000000000009999123100000010000000000000BRBRGEACNPB7219
012024030802BRKM5       010BRASKEM     PNA     N1   R$  000000000200900000000020760000000001993000000000202200000000020150000000000000000000000000006590000000000002362600000000004777548800000000000000009999123100000010000000000000BRBRKMACNPA4121
012024030802GFSA3       010GAFISA      ON      NM   R$  000000000080000000000009050000000000797000000000085900000000008720000000000000000000000000008921000000000006015800000000005172984900000000000000009999123100000010000000000000BRGFSAACNOR3123
012024030802ITSA4       010ITAUSA      PN  EJ  N1   R$  000000000103000000000010470000000001028000000000103900000000010430000000000000000000000000019350000000000014096000000000014647219400000000000000009999123100000010000000000000BRITSAACNPR7438
012024030802BRGE5       010ALFA CONSORCPNA          R$  000000000131800000000013180000000001318000000000131800000000013180000000000000000000000000000001000000000000000100000000000000131800000000000000009999123100000010000000000000BRBRGEACNPA9218
012024030802EUCA4       010EUCATEX     PN      N1   R$  000000000181100000000018110000000001766000000000178600000000017880000000000000000000000000000259000000000000072800000000000130031900000000000000009999123100000010000000000000BREUCAACNPR8044
012024030802FESA4       010FERBASA     PN      N1   R$  000000000089300000000009190000000000890000000000090800000000009110000000000000000000000000002497000000000000600000000000000545316000000000000000009999123100000010000000000000BRFESAACNPR5083
012024030802BHIA3       010CASAS BAHIA ON      NM   R$  000000000079500000000008280000000000786000000000080500000000008110000000000000000000000000007055000000000003974400000000003203148000000000000000009999123100000010000000000000BRBHIAACNOR1101
012024030802BRBI11      010BR PARTNERS UNT     N2   R$  000000000168700000000017200000000001671000000000170200000000016900000000000000000000000000001451000000000000244900000000000416931900000000000000009999123100000010000000000000BRBRBICDAM10107
012024030802CSNA3       010SID NACIONALON           R$  000000000156600000000016350000000001566000000000161600000000016310000000000000000000000000017331000000000009102100000000014710532400000000000000009999123100000010000000000000BRCSNAACNOR6260
012024030802ENGI4       010ENERGISA    PN      N2   R$  000000000084600000000008650000000000845000000000085700000000008600000000000000000000000000000042000000000000009400000000000008059000000000000000009999123100000010000000000000BRENGIACNPR7141
012024030802EQPA3       010EQTL PARA   ON           R$  000000000078500000000008040000000000785000000000079300000000008030000000000000000000000000000021000000000000003100000000000002459300000000000000009999123100000010000000000000BREQPAACNOR1110
012024030802BALM3       010BAUMER      ON           R$  000000000107900000000010790000000001050000000000107100000000010600000000000000000000000000000008000000000000000800000000000000857500000000000000009999123100000010000000000000BRBALMACNOR5055
012024030802CRPG6       010CRISTAL     PNB          R$  000000000359900000000035990000000003515000000000355400000000035970000000000000000000000000000011000000000000001100000000000003909900000000000000009999123100000010000000000000BRCRPGACNPB1118
012024030802CGRA3       010GRAZZIOTIN  ON           R$  000000000253300000000025330000000002504000000000251400000000025040000000000000000000000000000017000000000000001800000000000004526600000000000000009999123100000010000000000000BRCGRAACNOR2081
012024030802CLSC4       010CELESC      PN      N2   R$  000000000669900000000068200000000006689000000000672600000000068200000000000000000000000000000018000000000000002700000000000018161500000000000000009999123100000010000000000000BRCLSCACNPR3128
012024030802RANI3       010IRANI       ON  ED  NM   R$  000000000087100000000008840000000000862000000000086800000000008710000000000000000000000000004723000000000001919900000000001666500700000000000000009999123100000010000000000000BRRANIACNOR5070
012024030802TAEE11      010TAESA       UNT     N2   R$  000000000354000000000035820000000003535000000000355500000000035380000000000000000000000000007569000000000001476900000000005251231800000000000000009999123100000010000000000000BRTAEECDAM10145
012024030802VBBR3       010VIBRA       ON      NM   R$  000000000238200000000024090000000002371000000000239100000000023930000000000000000000000000022272000000000007628300000000018246495500000000000000009999123100000010000000000000BRVBBRACNOR1106
012024030802DIRR3       010DIRECIONAL  ON      NM   R$  000000000244700000000025250000000002428000000000250300000000025180000000000000000000000000007859000000000001398700000000003501857500000000000000009999123100000010000000000000BRDIRRACNOR0117
012024030802KRSA3       010KORA SAUDE  ON      NM   R$  000000000009700000000000990000000000093000000000009600000000000960000000000000000000000000000720000000000000540600000000000052253500000000000000009999123100000010000000000000BRKRSAACNOR0100
012024030802WIZC3       010WIZ CO      ON      NM   R$  000000000063200000000006600000000000627000000000064900000000006600000000000000000000000000002531000000000000530900000000000344950300000000000000009999123100000010000000000000BRWIZCACNOR5101
012024030802GMAT3       010GRUPO MATEUSON      NM   R$  000000000081200000000008200000000000794000000000080800000000008100000000000000000000000000007722000000000003691800000000002985955300000000000000009999123100000010000000000000BRGMATACNOR7100
012024030802LAVV3       010LAVVI       ON      NM   R$  000000000086900000000009050000000000858000000000088800000000009000000000000000000000000000002997000000000000992100000000000881826600000000000000009999123100000010000000000000BRLAVVACNOR4110
012024030802LOGN3       010LOG-IN      ON      NM   R$  000000000404900000000041170000000003982000000000403600000000039850000000000000000000000000000071000000000000007500000000000030275900000000000000009999123100000010000000000000BRLOGNACNOR3105
012024030802MNPR3       010MINUPAR     ON           R$  000000000205000000000020500000000001990000000000202700000000019900000000000000000000000000000003000000000000000400000000000000810900000000000000009999123100000010000000000000BRMNPRACNOR5122
012024030802AERI3       010AERIS       ON      NM   R$  000000000006600000000000670000000000065000000000006600000000000660000000000000000000000000001938000000000001846900000000000121949300000000000000009999123100000010000000000000BRAERIACNOR4101
012024030802AGXY3       010AGROGALAXY  ON      NM   R$  000000000018900000000001910000000000184000000000018800000000001900000000000000000000000000000220000000000000063500000000000011999000000000000000009999123100000010000000000000BRAGXYACNOR4102
012024030802BBDC3       010BRADESCO    ON  EJ  N1   R$  000000000121800000000012340000000001214000000000122400000000012220000000000000000000000000011513000000000015200100000000018606082800000000000000009999123100000010000000000000BRBBDCACNOR1767
012024030802BSLI3       010BRB BANCO   ON           R$  000000000117600000000011760000000001176000000000117600000000011760000000000000000000000000000001000000000000000100000000000000117600000000000000009999123100000010000000000000BRBSLIACNOR5192
012024030802BMGB4       010BANCO BMG   PN      N1   R$  000000000037900000000003840000000000372000000000037800000000003760000000000000000000000000000893000000000000472000000000000178723600000000000000009999123100000010000000000000BRBMGBACNPR0108
012024030802BOBR4       010BOMBRIL     PN           R$  000000000024500000000002450000000000231000000000023700000000002400000000000000000000000000000064000000000000027100000000000006442300000000000000009999123100000010000000000000BRBOBRACNPR3128
012024030802BRKM3       010BRASKEM     ON      N1   R$  000000000203900000000020790000000002016000000000202800000000020190000000000000000000000000000033000000000000004300000000000008722800000000000000009999123100000010000000000000BRBRKMACNOR1119
012024030802GEPA4       010GER PARANAP PN           R$  000000000260300000000026250000000002603000000000261400000000026250000000000000000000000000000002000000000000000200000000000000522800000000000000009999123100000010000000000000BRGEPAACNPR9159
012024030802ITSA3       010ITAUSA      ON  EJ  N1   R$  000000000103700000000010500000000001028000000000104100000000010450000000000000000000000000000464000000000000151700000000000157951200000000000000009999123100000010000000000000BRITSAACNOR0438
012024030802BRGE3       010ALFA CONSORCON           R$  000000000134100000000013410000000001341000000000134100000000013410000000000000000000000000000002000000000000010000000000000013410000000000000000009999123100000010000000000000BRBRGEACNOR6204
012024030802EUCA3       010EUCATEX     ON      N1   R$  000000000166500000000016650000000001644000000000164900000000016440000000000000000000000000000003000000000000000400000000000000659800000000000000009999123100000010000000000000BREUCAACNOR1157
012024030802FESA3       010FERBASA     ON      N1   R$  000000000135100000000013700000000001351000000000136600000000013700000000000000000000000000000005000000000000000500000000000000683000000000000000009999123100000010000000000000BRFESAACNOR8187
012024030802BGIP4       010BANESE      PN  EJ       R$  000000000258000000000025800000000002450000000000249900000000024780000000000000000000000000000029000000000000004100000000000010246200000000000000009999123100000010000000000000BRBGIPACNPR8207
012024030802BRAP4       010BRADESPAR   PN      N1   R$  000000000206500000000020800000000002052000000000206100000000020550000000000000000000000000006419000000000002319200000000004780006900000000000000009999123100000010000000000000BRBRAPACNPR2147
012024030802CSMG3       010COPASA      ON      NM   R$  000000000206600000000021300000000002054000000000211000000000021120000000000000000000000000006582000000000001552500000000003276315600000000000000009999123100000010000000000000BRCSMGACNOR5171
012024030802ENGI3       010ENERGISA    ON      N2   R$  000000000163700000000016750000000001631000000000165000000000016540000000000000000000000000000036000000000000004000000000000006600700000000000000009999123100000010000000000000BRENGIACNOR0145
012024030802EQMA3B      010EQTLMARANHAOON      MB   R$  000000000290100000000030000000000002901000000000297400000000030000000000000000000000000000000004000000000000000400000000000001189600000000000000009999123100000010000000000000BREQMAACNOR8107
012024030802BAHI3       010BAHEMA      ON      MA   R$  000000000061500000000006690000000000602000000000062600000000006420000000000000000000000000000018000000000000004500000000000002819900000000000000009999123100000010000000000000BRBAHIACNOR1074
012024030802CRPG5       010CRISTAL     PNA          R$  000000000372500000000037250000000003570000000000365100000000037000000000000000000000000000000035000000000000003900000000000014240700000000000000009999123100000010000000000000BRCRPGACNPA3118
012024030802VITT3       010VITTIA      ON      NM   R$  000000000074400000000007780000000000740000000000075900000000007520000000000000000000000000001264000000000000336100000000000255102300000000000000009999123100000010000000000000BRVITTACNOR4106
012024030802VLID3       010VALID       ON      NM   R$  000000000189800000000019140000000001845000000000186500000000018530000000000000000000000000002324000000000000526200000000000981625600000000000000009999123100000010000000000000BRVLIDACNOR5141
012024030802USIM3       010USIMINAS    ON      N1   R$  000000000100700000000010410000000001002000000000103200000000010410000000000000000000000000002573000000000001440400000000001486508400000000000000009999123100000010000000000000BRUSIMACNOR3166
012024030802BEEF3       010MINERVA     ON      NM   R$  000000000066000000000006760000000000657000000000067000000000006710000000000000000000000000007543000000000007472900000000005009262100000000000000009999123100000010000000000000BRBEEFACNOR6116
012024030802RCSL4       010RECRUSUL    PN           R$  000000000009200000000000990000000000087000000000009300000000000940000000000000000000000000007027000000000011142100000000001043889800000000000000009999123100000010000000000000BRRCSLACNPR1133
012024030802BPAC3       010BTGP BANCO  ON      N2   R$  000000000169000000000017700000000001690000000000172700000000017230000000000000000000000000000037000000000000004300000000000007427100000000000000009999123100000010000000000000BRBPACACNOR7133
012024030802RENT3       010LOCALIZA    ON      NM   R$  000000000530600000000054730000000005249000000000535900000000053150000000000000000000000000027180000000000008403700000000045036976200000000000000009999123100000010000000000000BRRENTACNOR4194
012024030802TECN3       010TECHNOS     ON      NM   R$  000000000037000000000003850000000000365000000000037400000000003760000000000000000000000000001617000000000000361300000000000135377400000000000000009999123100000010000000000000BRTECNACNOR6109
012024030802CPLE5       010COPEL       PNA     N2   R$  000000000219900000000021990000000002199000000000219900000000021990000000000000000000000000000001000000000000000100000000000000219900000000000000009999123100000010000000000000BRCPLEACNPA1146
012024030802TELB4       010TELEBRAS    PN           R$  000000000106000000000010720000000001049000000000105400000000010720000000000000000000000000000017000000000000003500000000000003689600000000000000009999123100000010000000000000BRTELBACNPR9140
012024030802TIMS3       010TIM         ON      NM   R$  000000000184700000000018980000000001842000000000188300000000018950000000000000000000000000022180000000000011704800000000022046271100000000000000009999123100000010000000000000BRTIMSACNOR5114
012024030802CAML3       010CAMIL       ON      NM   R$  000000000085600000000008680000000000849000000000085800000000008570000000000000000000000000001797000000000000436800000000000375064000000000000000009999123100000010000000000000BRCAMLACNOR3127
012024030802CSRN3       010COSERN      ON           R$  000000000270000000000027890000000002700000000000271100000000027890000000000000000000000000000003000000000000000800000000000002168900000000000000009999123100000010000000000000BRCSRNACNOR0190
012024030802CTNM3       010COTEMINAS   ON           R$  000000000083000000000008700000000000825000000000085700000000008700000000000000000000000000000006000000000000000700000000000000600500000000000000009999123100000010000000000000BRCTNMACNOR9130
012024030802CURY3       010CURY S/A    ON      NM   R$  000000000190700000000019510000000001892000000000193300000000019510000000000000000000000000004494000000000000749400000000001448937500000000000000009999123100000010000000000000BRCURYACNOR3107
012024030802ITUB3       010ITAUUNIBANCOON  EJ  N1   R$  000000000292300000000029730000000002918000000000295600000000029550000000000000000000000000001287000000000000344100000000001017463600000000000000009999123100000010000000000000BRITUBACNOR4332
012024030802ABEV3       010AMBEV S/A   ON           R$  000000000125500000000012920000000001255000000000127900000000012840000000000000000000000000040594000000000054292500000000069490441100000000000000009999123100000010000000000000BRABEVACNOR1127
012024030802FLRY3       010FLEURY      ON      NM   R$  000000000160000000000016170000000001521000000000153600000000015340000000000000000000000000012068000000000004832700000000007425321700000000000000009999123100000010000000000000BRFLRYACNOR5137
012024030802IGTI4       010IGUATEMI S.APN      N1   R$  000000000103100000000010310000000001031000000000103100000000010310000000000000000000000000000001000000000000000100000000000000103100000000000000009999123100000010000000000000BRIGTIACNPR5105
012024030802IRBR3       010IRBBRASIL REON      NM   R$  000000000429900000000043730000000004262000000000431800000000042800000000000000000000000000005167000000000001196400000000005166457900000000000000009999123100000010000000000000BRIRBRACNOR4111
012024030802MAPT4       010CEMEPE      PN           R$  000000000064400000000006800000000000606000000000064100000000006100000000000000000000000000000009000000000000001000000000000000641600000000000000009999123100000010000000000000BRMAPTACNPR5106
012024030802MDNE3       010MOURA DUBEUXON      NM   R$  000000000118500000000012230000000001158000000000119800000000012180000000000000000000000000001398000000000000611100000000000732388500000000000000009999123100000010000000000000BRMDNEACNOR9100
012024030802PDTC3       010PADTEC      ON      NM   R$  000000000031500000000003250000000000305000000000031500000000003080000000000000000000000000001027000000000000808100000000000254619900000000000000009999123100000010000000000000BRPDTCACNOR3100
012024030802HYPE3       010HYPERA      ON      NM   R$  000000000327600000000033480000000003264000000000331200000000033000000000000000000000000000005909000000000001618300000000005360967000000000000000009999123100000010000000000000BRHYPEACNOR0138
012024030802KEPL3       010KEPLER WEBERON      NM   R$  000000000099600000000010250000000000992000000000101400000000010240000000000000000000000000003109000000000001101200000000001117221900000000000000009999123100000010000000000000BRKEPLACNOR1061
012024030802SGPS3       010SPRINGS     ON      NM   R$  000000000009000000000000910000000000088000000000008900000000000880000000000000000000000000000149000000000000196800000000000017568600000000000000009999123100000010000000000000BRSGPSACNOR4104
012024030802SLCE3       010SLC AGRICOLAON      NM   R$  000000000192100000000019480000000001915000000000192400000000019330000000000000000000000000007054000000000002168700000000004173761600000000000000009999123100000010000000000000BRSLCEACNOR2124
012024030802KLBN4       010KLABIN S/A  PN      N2   R$  000000000044900000000004540000000000434000000000044200000000004420000000000000000000000000004275000000000003095500000000001368991600000000000000009999123100000010000000000000BRKLBNACNPR9168
012024030802PLPL3       010PLANOEPLANO ON      NM   R$  000000000136500000000014070000000001324000000000137500000000014030000000000000000000000000001809000000000000399700000000000549628900000000000000009999123100000010000000000000BRPLPLACNOR5104
012024030802TRPL3       010TRAN PAULISTON      N1   R$  000000000326900000000033500000000003269000000000330900000000033360000000000000000000000000000008000000000000000900000000000002978300000000000000009999123100000010000000000000BRTRPLACNOR4185
012024030802CGAS3       010COMGAS      ON           R$  000000000999900000000099990000000009999000000000999900000000099990000000000000000000000000000001000000000000000100000000000000999900000000000000009999123100000010000000000000BRCGASACNOR0162
012024030802ELMD3       010ELETROMIDIA ON      NM   R$  000000000155800000000016020000000001550000000000156700000000015500000000000000000000000000000201000000000000038200000000000059868500000000000000009999123100000010000000000000BRELMDACNOR3100
012024030802TTEN3       0103TENTOS     ON      NM   R$  000000000105000000000010700000000001040000000000105800000000010570000000000000000000000000004342000000000000832400000000000880885400000000000000009999123100000010000000000000BRTTENACNOR0103
012024030802UNIP3       010UNIPAR      ON           R$  000000000624500000000063210000000006201000000000626200000000062010000000000000000000000000000079000000000000010500000000000065754300000000000000009999123100000010000000000000BRUNIPACNOR7204
012024030802SANB3       010SANTANDER BRON           R$  000000000132200000000013480000000001319000000000133700000000013380000000000000000000000000000509000000000000085300000000000114074400000000000000009999123100000010000000000000BRSANBACNOR8170
012024030802SAPR4       010SANEPAR     PN      N2   R$  000000000052000000000005290000000000517000000000052500000000005270000000000000000000000000004230000000000003038700000000001595644400000000000000009999123100000010000000000000BRSAPRACNPR6158
012024030802RSUL4       010RIOSULENSE  PN           R$  000000000827400000000082740000000008199000000000823600000000081990000000000000000000000000000002000000000000000200000000000001647300000000000000009999123100000010000000000000BRRSULACNPR3113
012024030802RPAD5       010ALFA HOLDINGPNA          R$  000000000078600000000007860000000000785000000000078500000000007850000000000000000000000000000005000000000000008000000000000006282000000000000000009999123100000010000000000000BRRPADACNPA4218
012024030802HAPV3       010HAPVIDA     ON      NM   R$  000000000037200000000004000000000000371000000000038800000000003880000000000000000000000000026566000000000069257900000000026889262500000000000000009999123100000010000000000000BRHAPVACNOR4113
012024030802MRSA3B      010MRS LOGIST  ON      MB   R$  000000000270000000000028950000000002700000000000279700000000028950000000000000000000000000000002000000000000000200000000000000559500000000000000009999123100000010000000000000BRMRSAACNOR6124
012024030802AZEV4       010AZEVEDO     PN           R$  000000000013500000000001380000000000134000000000013500000000001360000000000000000000000000000953000000000001591100000000000215817200000000000000009999123100000010000000000000BRAZEVACNPR7121
012024030802CMIN3       010CSNMINERACAOON      N2   R$  000000000060000000000006060000000000592000000000059600000000005950000000000000000000000000008775000000000005263700000000003139466200000000000000009999123100000010000000000000BRCMINACNOR2110
012024030802EALT4       010ACO ALTONA  PN           R$  000000000106200000000010990000000001055000000000106800000000010740000000000000000000000000000028000000000000008800000000000009403100000000000000009999123100000010000000000000BREALTACNPR1137
012024030802GUAR3       010GUARARAPES  ON      NM   R$  000000000068500000000007820000000000675000000000073200000000007820000000000000000000000000009572000000000007284800000000005337415300000000000000009999123100000010000000000000BRGUARACNOR4172
012024030802NTCO3       010GRUPO NATURAON      NM   R$  000000000171000000000017640000000001701000000000173300000000017580000000000000000000000000020741000000000011300800000000019594980000000000000000009999123100000010000000000000BRNTCOACNOR5104
012024030802QUAL3       010QUALICORP   ON      NM   R$  000000000023600000000002440000000000232000000000023900000000002390000000000000000000000000003001000000000002990500000000000715265200000000000000009999123100000010000000000000BRQUALACNOR6119
012024030802ATOM3       010ATOMPAR     ON           R$  000000000019200000000001920000000000190000000000019000000000001910000000000000000000000000000031000000000000010800000000000002053700000000000000009999123100000010000000000000BRATOMACNOR1106
012024030802CEAB3       010CEA MODAS   ON      NM   R$  000000000096100000000009880000000000947000000000097300000000009850000000000000000000000000007231000000000005864900000000005711473300000000000000009999123100000010000000000000BRCEABACNOR1101
012024030802CEDO3       010CEDRO       ON      N1   R$  000000000280000000000028000000000002600000000000264600000000026000000000000000000000000000000005000000000000001300000000000003440000000000000000009999123100000010000000000000BRCEDOACNOR8096
012024030802ALPK3       010ESTAPAR     ON      NM   R$  000000000045400000000004670000000000448000000000045800000000004530000000000000000000000000000395000000000000137600000000000063032700000000000000009999123100000010000000000000BRALPKACNOR9101
012024030802AMAR3       010LOJAS MARISAON      NM   R$  000000000024100000000002590000000000241000000000025200000000002510000000000000000000000000000714000000000000382800000000000096542400000000000000009999123100000010000000000000BRAMARACNOR4114
012024030802LPSB3       010LOPES BRASILON      NM   R$  000000000019200000000001940000000000189000000000019200000000001930000000000000000000000000000132000000000000057500000000000011061400000000000000009999123100000010000000000000BRLPSBACNOR0113
012024030802ONCO3       010ONCOCLINICASON      NM   R$  000000000102300000000010520000000001023000000000104200000000010340000000000000000000000000003897000000000001087200000000001133715400000000000000009999123100000010000000000000BRONCOACNOR6100
012024030802BBSE3       010BBSEGURIDADEON      NM   R$  000000000328100000000032970000000003252000000000327700000000032790000000000000000000000000013846000000000004331200000000014196084700000000000000009999123100000010000000000000BRBBSEACNOR5124
012024030802HBRE3       010HBR REALTY  ON      NM   R$  000000000052600000000005390000000000515000000000053000000000005350000000000000000000000000000510000000000000274300000000000145408900000000000000009999123100000010000000000000BRHBREACNOR4100
012024030802POMO3       010MARCOPOLO   ON  EJB N2   R$  000000000059000000000005900000000000548000000000056300000000005560000000000000000000000000002637000000000001161600000000000654329800000000000000009999123100000010000000000000BRPOMOACNOR0097
012024030802PRIO3       010PETRORIO    ON      NM   R$  000000000433000000000045460000000004328000000000447300000000044700000000000000000000000000031369000000000013196300000000059036625900000000000000009999123100000010000000000000BRPRIOACNOR1106
012024030802MTSA4       010METISA      PN           R$  000000000506400000000050760000000004920000000000502200000000050690000000000000000000000000000019000000000000002500000000000012556600000000000000009999123100000010000000000000BRMTSAACNPR9071
012024030802SMFT3       010SMART FIT   ON      NM   R$  000000000245100000000025350000000002450000000000247300000000024560000000000000000000000000007391000000000001133500000000002804100000000000000000009999123100000010000000000000BRSMFTACNOR1111
012024030807TXRX4       010TEX RENAUX  PN           R$  000000000025100000000002690000000000250000000000025300000000002500000000000000000000000000000012000000000000004100000000000001039900000000000000009999123100000010000000000000BRTXRXACNPR0142
012024030808PMAM3       010PARANAPANEMAON      NM   R$  000000000036900000000003840000000000364000000000037500000000003800000000000000000000000000000097000000000000020800000000000007818300000000000000009999123100000010000000000000BRPMAMACNOR3038
012024030808RSID3       010ROSSI RESID ON      NM   R$  000000000035800000000003690000000000357000000000036000000000003620000000000000000000000000000150000000000000065700000000000023701100000000000000009999123100000010000000000000BRRSIDACNOR8120
012024030802CIEL3       010CIELO       ON      NM   R$  000000000053400000000005370000000000531000000000053400000000005370000000000000000000000000010178000000000016191200000000008646459600000000000000009999123100000010000000000000BRCIELACNOR3156
012024030802RAIL3       010RUMO S.A.   ON      NM   R$  000000000220000000000022380000000002198000000000222000000000022210000000000000000000000000011233000000000002878500000000006390861200000000000000009999123100000010000000000000BRRAILACNOR9104
012024030802SYNE3       010SYN PROP TECON      NM   R$  000000000082400000000008630000000000818000000000084500000000008480000000000000000000000000001323000000000000614400000000000519433800000000000000009999123100000010000000000000BRSYNEACNOR2102
012024030802TAEE4       010TAESA       PN      N2   R$  000000000118500000000011980000000001184000000000119000000000011860000000000000000000000000001005000000000000245900000000000292635100000000000000009999123100000010000000000000BRTAEEACNPR6145
012024030802DEXP3       010DEXXOS PAR  ON      N1   R$  000000000124000000000012780000000001240000000000125500000000012500000000000000000000000000000104000000000000014400000000000018078400000000000000009999123100000010000000000000BRDEXPACNOR1104
012024030802DOHL4       010DOHLER      PN           R$  000000000048900000000004940000000000488000000000049000000000004880000000000000000000000000000003000000000000000300000000000000147100000000000000009999123100000010000000000000BRDOHLACNPR9066
012024030802WHRL3       010WHIRLPOOL   ON           R$  000000000042700000000004400000000000426000000000043300000000004400000000000000000000000000000004000000000000000400000000000000173200000000000000009999123100000010000000000000BRWHRLACNOR5128
012024030802DXCO3       010DEXCO       ON      NM   R$  000000000076300000000008280000000000762000000000080900000000008200000000000000000000000000006922000000000004369800000000003535841100000000000000009999123100000010000000000000BRDXCOACNOR8104
012024030802GOAU4       010GERDAU MET  PN  ED  N1   R$  000000000097800000000009820000000000973000000000097800000000009800000000000000000000000000008763000000000005407000000000005290367000000000000000009999123100000010000000000000BRGOAUACNPR8267
012024030802LJQQ3       010QUERO-QUERO ON      NM   R$  000000000054000000000005620000000000530000000000055200000000005610000000000000000000000000006213000000000003143600000000001736771800000000000000009999123100000010000000000000BRLJQQACNOR5104
012024030802MLAS3       010MULTILASER  ON      NM   R$  000000000021200000000002180000000000203000000000021200000000002130000000000000000000000000002444000000000002125300000000000450826900000000000000009999123100000010000000000000BRMLASACNOR9101
012024030802MYPK3       010IOCHP-MAXIONON      NM   R$  000000000134600000000013880000000001334000000000135600000000013560000000000000000000000000005060000000000001177600000000001597515500000000000000009999123100000010000000000000BRMYPKACNOR7153
012024030802AFLT3       010AFLUENTE T  ON           R$  000000000076600000000007660000000000766000000000076600000000007660000000000000000000000000000001000000000000000100000000000000076600000000000000009999123100000010000000000000BRAFLTACNOR1120
012024030802ALLD3       010ALLIED      ON      NM   R$  000000000071100000000007160000000000705000000000070800000000007060000000000000000000000000000036000000000000009500000000000006734200000000000000009999123100000010000000000000BRALLDACNOR3105
012024030802BRSR3       010BANRISUL    ON      N1   R$  000000000145200000000014850000000001450000000000146000000000014850000000000000000000000000000050000000000000014400000000000021036800000000000000009999123100000010000000000000BRBRSRACNOR3185
012024030802BMEB3       010MERCANTIL   ON      N1   R$  000000000260000000000026050000000002501000000000259900000000025010000000000000000000000000000020000000000000061200000000000159086500000000000000009999123100000010000000000000BRBMEBACNOR8205
012024030802BMOB3       010BEMOBI TECH ON      NM   R$  000000000136300000000013810000000001350000000000136300000000013700000000000000000000000000001148000000000000143800000000000196012300000000000000009999123100000010000000000000BRBMOBACNOR7103
012024030802BRIT3       010BRISANET    ON      NM   R$  000000000035500000000003680000000000348000000000035900000000003600000000000000000000000000000866000000000000596700000000000214644400000000000000009999123100000010000000000000BRBRITACNOR0102
012024030802BRKM6       010BRASKEM     PNB     N1   R$  000000000148500000000014850000000001485000000000148500000000014850000000000000000000000000000002000000000000000200000000000000297000000000000000009999123100000010000000000000BRBRKMACNPB2114
012024030802GGBR3       010GERDAU      ON  ED  N1   R$  000000000195300000000019650000000001949000000000195400000000019580000000000000000000000000000201000000000000029200000000000057076700000000000000009999123100000010000000000000BRGGBRACNOR1190
012024030802MGEL4       010MANGELS INDLPN           R$  000000000150100000000015010000000001423000000000143600000000014240000000000000000000000000000010000000000000004300000000000006174900000000000000009999123100000010000000000000BRMGELACNPR3147
012024030802ESPA3       010ESPACOLASER ON      NM   R$  000000000010700000000001160000000000106000000000011100000000001090000000000000000000000000000824000000000001684300000000000186972000000000000000009999123100000010000000000000BRESPAACNOR7103
012024030802EVEN3       010EVEN        ON      NM   R$  000000000083200000000008750000000000818000000000085200000000008720000000000000000000000000004612000000000001910800000000001629505700000000000000009999123100000010000000000000BREVENACNOR8118
012024030802FHER3       010FER HERINGERON      NM   R$  000000000057400000000005790000000000573000000000057600000000005780000000000000000000000000000016000000000000003400000000000001958600000000000000009999123100000010000000000000BRFHERACNOR5103
012024030802BPAN4       010BANCO PAN   PN      N1   R$  000000000086600000000008790000000000865000000000087100000000008690000000000000000000000000006306000000000003268200000000002849592400000000000000009999123100000010000000000000BRBPANACNPR1115
012024030802BRFS3       010BRF SA      ON      NM   R$  000000000162300000000016700000000001618000000000165200000000016700000000000000000000000000017809000000000008092900000000013370714800000000000000009999123100000010000000000000BRBRFSACNOR8121
012024030802ENEV3       010ENEVA       ON      NM   R$  000000000122200000000012600000000001222000000000124800000000012510000000000000000000000000013975000000000007346500000000009169791800000000000000009999123100000010000000000000BRENEVACNOR8105
012024030802ENJU3       010ENJOEI      ON      NM   R$  000000000017200000000001800000000000170000000000017200000000001730000000000000000000000000000305000000000000594800000000000102879000000000000000009999123100000010000000000000BRENJUACNOR9100
012024030802EQPA7       010EQTL PARA   PNC          R$  000000000075100000000007510000000000751000000000075100000000007510000000000000000000000000000001000000000000008000000000000006008000000000000000009999123100000010000000000000BREQPAACNPC0110
012024030802BAZA3       010AMAZONIA    ON           R$  000000000909000000000091200000000008921000000000904500000000091200000000000000000000000000000065000000000000009700000000000087737300000000000000009999123100000010000000000000BRBAZAACNOR0178
012024030802CSAN3       010COSAN       ON      NM   R$  000000000160400000000016530000000001597000000000163300000000016410000000000000000000000000013431000000000011684300000000019090291200000000000000009999123100000010000000000000BRCSANACNOR6124
012024030802EMBR3       010EMBRAER     ON      NM   R$  000000000263100000000027260000000002630000000000267800000000026840000000000000000000000000008637000000000004515400000000012095210400000000000000009999123100000010000000000000BREMBRACNOR4191
012024030802UCAS3       010UNICASA     ON      NM   R$  000000000025000000000002630000000000250000000000025300000000002630000000000000000000000000000084000000000000058000000000000014698400000000000000009999123100000010000000000000BRUCASACNOR1113
012024030802UNIP6       010UNIPAR      PNB          R$  000000000667100000000067680000000006636000000000670100000000066910000000000000000000000000000913000000000000147800000000000990408300000000000000009999123100000010000000000000BRUNIPACNPB8204
012024030802SAPR11      010SANEPAR     UNT     N2   R$  000000000258200000000026440000000002577000000000262500000000026280000000000000000000000000005502000000000000894000000000002347277600000000000000009999123100000010000000000000BRSAPRCDAM13117
012024030802SBSP3       010SABESP      ON      NM   R$  000000000794900000000080420000000007897000000000798800000000080180000000000000000000000000014342000000000003175500000000025368624400000000000000009999123100000010000000000000BRSBSPACNOR5160
012024030802PETZ3       010PETZ        ON      NM   R$  000000000038100000000004240000000000373000000000039700000000004180000000000000000000000000024673000000000045346000000000018047439000000000000000009999123100000010000000000000BRPETZACNOR2109
012024030802HAGA3       010HAGA S/A    ON           R$  000000000027200000000002850000000000271000000000027700000000002850000000000000000000000000000008000000000000002500000000000000694100000000000000009999123100000010000000000000BRHAGAACNOR7103
012024030802JBSS3       010JBS         ON      NM   R$  000000000213500000000021750000000002132000000000216000000000021680000000000000000000000000016473000000000005482900000000011847229100000000000000009999123100000010000000000000BRJBSSACNOR8121
012024030802ALPA3       010ALPARGATAS  ON      N1   R$  000000000099600000000009960000000000976000000000097900000000009880000000000000000000000000000053000000000000010700000000000010476500000000000000009999123100000010000000000000BRALPAACNOR0231
012024030802CMIG3       010CEMIG       ON      N1   R$  000000000149300000000015130000000001471000000000150100000000015070000000000000000000000000001054000000000000306700000000000460400700000000000000009999123100000010000000000000BRCMIGACNOR6239
012024030802COGN3       010COGNA ON    ON      NM   R$  000000000026900000000002700000000000263000000000026600000000002670000000000000000000000000017993000000000026512400000000007071211700000000000000009999123100000010000000000000BRCOGNACNOR2104
012024030802EGIE3       010ENGIE BRASILON      NM   R$  000000000408500000000041100000000004065000000000408500000000040720000000000000000000000000005132000000000000911400000000003723302000000000000000009999123100000010000000000000BREGIEACNOR9125
012024030802NINJ3       010GETNINJAS   ON      NM   R$  000000000050700000000005100000000000507000000000050800000000005100000000000000000000000000000092000000000000023600000000000012005500000000000000009999123100000010000000000000BRNINJACNOR5101
012024030802PTNT3       010PETTENATI   ON           R$  000000000134000000000013840000000001244000000000127400000000012690000000000000000000000000000037000000000000005400000000000006882000000000000000009999123100000010000000000000BRPTNTACNOR6042
012024030802ARZZ3       010AREZZO CO   ON      NM   R$  000000000581900000000059680000000005760000000000585800000000058870000000000000000000000000008330000000000002069100000000012121904200000000000000009999123100000010000000000000BRARZZACNOR3146
012024030802AVLL3       010ALPHAVILLE  ON      NM   R$  000000000044000000000004400000000000438000000000043900000000004380000000000000000000000000000006000000000000001400000000000000615600000000000000009999123100000010000000000000BRAVLLACNOR5103
012024030802CEBR5       010CEB         PNA          R$  000000000188300000000018830000000001821000000000184400000000018350000000000000000000000000000018000000000000005800000000000010700400000000000000009999123100000010000000000000BRCEBRACNPA8123
012024030802CEEB3       010COELBA      ON           R$  000000000380000000000038810000000003800000000000385400000000038810000000000000000000000000000002000000000000000300000000000001156200000000000000009999123100000010000000000000BRCEEBACNOR3196
012024030802ALUP3       010ALUPAR      ON      N2   R$  000000000100400000000010340000000000998000000000101700000000010300000000000000000000000000000160000000000000025900000000000026346600000000000000009999123100000010000000000000BRALUPACNOR8117
012024030802ANIM3       010ANIMA       ON      NM   R$  000000000049900000000005110000000000480000000000050000000000005050000000000000000000000000006314000000000003827000000000001915970100000000000000009999123100000010000000000000BRANIMACNOR6107
012024030802ODPV3       010ODONTOPREV  ON      NM   R$  000000000126500000000013080000000001260000000000129500000000013060000000000000000000000000005354000000000001692000000000002192625300000000000000009999123100000010000000000000BRODPVACNOR4198
012024030802ORVR3       010ORIZON      ON      NM   R$  000000000374300000000038610000000003738000000000380000000000037950000000000000000000000000002064000000000000399600000000001518603800000000000000009999123100000010000000000000BRORVRACNOR0101
012024030802ELET6       010ELETROBRAS  PNB     N1   R$  000000000476800000000048620000000004737000000000481900000000048070000000000000000000000000006566000000000001415000000000006820266900000000000000009999123100000010000000000000BRELETACNPB7076
012024030802HETA4       010HERCULES    PN           R$  000000000065900000000006590000000000659000000000065900000000006590000000000000000000000000000001000000000000000100000000000000065900000000000000009999123100000010000000000000BRHETAACNPR9136
012024030802PORT3       010WILSON SONS ON      NM   R$  000000000175700000000017930000000001756000000000178300000000017900000000000000000000000000001463000000000000297000000000000529675900000000000000009999123100000010000000000000BRPORTACNOR8106
012024030802WEGE3       010WEG         ON      NM   R$  000000000368500000000037140000000003656000000000369300000000036920000000000000000000000000010852000000000002724400000000010063029600000000000000009999123100000010000000000000BRWEGEACNOR0221
012024030802PRNR3       010PRINER      ON      NM   R$  000000000121800000000012460000000001206000000000123200000000012400000000000000000000000000001342000000000000208600000000000257010500000000000000009999123100000010000000000000BRPRNRACNOR4108
012024030802SNSY3       010SANSUY      ON           R$  000000000090000000000009650000000000900000000000092900000000009650000000000000000000000000000013000000000000001400000000000001301700000000000000009999123100000010000000000000BRSNSYACNOR2113
012024030808TEKA3       010TEKA        ON           R$  000000000500000000000050000000000005000000000000500000000000050000000000000932000000000500000003000000000000000300000000000001500000000000000000009999123100000010000000000000BRTEKAACNOR6140
012024030808FRTA3       010POMIFRUTAS  ON      NM   R$  000000000014200000000001420000000000137000000000013900000000001370000000000000000000000000000006000000000000000800000000000000111200000000000000009999123100000010000000000000BRFRTAACNOR8103
012024030808RNEW3       010RENOVA      ON      N2   R$  000000000012300000000001230000000000111000000000011800000000001220000000000000000000000000000237000000000000162900000000000019299900000000000000009999123100000010000000000000BRRNEWACNOR8110
012024030802EMAE4       010EMAE        PN           R$  000000000770000000000081000000000007700000000000794500000000079990000000000000000000000000000092000000000000020300000000000161285600000000000000009999123100000010000000000000BREMAEACNPR1124
012024030802TUPY3       010TUPY        ON      NM   R$  000000000273200000000027880000000002718000000000274600000000027550000000000000000000000000003718000000000000635000000000001744225600000000000000009999123100000010000000000000BRTUPYACNOR1183
012024030802UNIP5       010UNIPAR      PNA          R$  000000000668000000000066800000000006680000000000668000000000066800000000000000000000000000000001000000000000000100000000000000668000000000000000009999123100000010000000000000BRUNIPACNPA0206
012024030802SANB4       010SANTANDER BRPN           R$  000000000150400000000015210000000001493000000000150900000000015020000000000000000000000000000522000000000000105100000000000158698400000000000000009999123100000010000000000000BRSANBACNPR5170
012024030802SBFG3       010GRUPO SBF   ON      NM   R$  000000000120200000000012340000000001181000000000120400000000012020000000000000000000000000004074000000000000963700000000001161075300000000000000009999123100000010000000000000BRSBFGACNOR1102
012024030802USIM5       010USIMINAS    PNA     N1   R$  000000000105300000000010880000000001038000000000107100000000010860000000000000000000000000014415000000000009929700000000010641515900000000000000009999123100000010000000000000BRUSIMACNPA6168
012024030802RRRP3       0103R PETROLEUMON      NM   R$  000000000270800000000028900000000002702000000000282500000000028260000000000000000000000000024488000000000008280200000000023397935900000000000000009999123100000010000000000000BRRRRPACNOR5102
012024030802JALL3       010JALLESMACHADON      NM   R$  000000000073400000000007460000000000731000000000073800000000007360000000000000000000000000000965000000000000265700000000000196220400000000000000009999123100000010000000000000BRJALLACNOR0105
012024030802MRVE3       010MRV         ON      NM   R$  000000000075700000000007950000000000750000000000077300000000007760000000000000000000000000015282000000000015103500000000011684366600000000000000009999123100000010000000000000BRMRVEACNOR2126
012024030802AZUL4       010AZUL        PN      N2   R$  000000000119600000000012650000000001188000000000122400000000012290000000000000000000000000014672000000000010917300000000013367630400000000000000009999123100000010000000000000BRAZULACNPR4102
012024030802COCE5       010COELCE      PNA          R$  000000000395900000000039800000000003889000000000393300000000039500000000000000000000000000000202000000000000026500000000000104239200000000000000009999123100000010000000000000BRCOCEACNPA3146
012024030802ECOR3       010ECORODOVIAS ON      NM   R$  000000000089900000000009240000000000888000000000089800000000008940000000000000000000000000007007000000000002910200000000002616099000000000000000009999123100000010000000000000BRECORACNOR8119
012024030802NGRD3       010NEOGRID     ON      NM   R$  000000000010700000000001100000000000106000000000010800000000001090000000000000000000000000000320000000000000409900000000000044357800000000000000009999123100000010000000000000BRNGRDACNOR3103
012024030802PTBL3       010PORTOBELLO  ON      NM   R$  000000000058200000000006000000000000570000000000058200000000005860000000000000000000000000001617000000000000749600000000000436790400000000000000009999123100000010000000000000BRPTBLACNOR8132
012024030802RADL3       010RAIADROGASILON      NM   R$  000000000259200000000025960000000002556000000000257900000000025960000000000000000000000000017243000000000004255000000000010975071600000000000000009999123100000010000000000000BRRADLACNOR0154
012024030802AURE3       010AUREN       ON  ED  NM   R$  000000000121100000000012230000000001209000000000121400000000012150000000000000000000000000005343000000000002935000000000003564566900000000000000009999123100000010000000000000BRAUREACNOR9104
012024030802CEBR3       010CEB         ON           R$  000000000200400000000020040000000001950000000000196000000000019500000000000000000000000000000048000000000000008100000000000015878700000000000000009999123100000010000000000000BRCEBRACNOR5124
012024030802CEDO4       010CEDRO       PN      N1   R$  000000000282700000000028280000000002783000000000280900000000027840000000000000000000000000000014000000000000002900000000000008146400000000000000009999123100000010000000000000BRCEDOACNPR5128
012024030802ALUP11      010ALUPAR      UNT     N2   R$  000000000298700000000030500000000002987000000000303000000000030440000000000000000000000000003105000000000000536600000000001626240100000000000000009999123100000010000000000000BRALUPCDAM15117
012024030802AMBP3       010AMBIPAR     ON      NM   R$  000000000148100000000015230000000001453000000000147700000000014640000000000000000000000000003767000000000000932900000000001378732300000000000000009999123100000010000000000000BRAMBPACNOR6103
012024030802LREN3       010LOJAS RENNERON      NM   R$  000000000161000000000016410000000001560000000000161500000000016230000000000000000000000000052327000000000023431200000000037846760600000000000000009999123100000010000000000000BRLRENACNOR1219
012024030802OPCT3       010OCEANPACT   ON      NM   R$  000000000060500000000006280000000000604000000000062000000000006280000000000000000000000000001972000000000000823800000000000511422800000000000000009999123100000010000000000000BROPCTACNOR0100
012024030802ELET3       010ELETROBRAS  ON      N1   R$  000000000430000000000043700000000004242000000000433000000000043510000000000000000000000000019737000000000006799300000000029446972400000000000000009999123100000010000000000000BRELETACNOR6159
012024030802HBSA3       010HIDROVIAS   ON      NM   R$  000000000034000000000003550000000000338000000000034800000000003510000000000000000000000000004391000000000004099000000000001428190200000000000000009999123100000010000000000000BRHBSAACNOR0100
012024030802POMO4       010MARCOPOLO   PN  EJB N2   R$  000000000073000000000007300000000000693000000000070700000000007020000000000000000000000000014421000000000010699700000000007568521900000000000000009999123100000010000000000000BRPOMOACNPR7097
012024030802SCAR3       010SAO CARLOS  ON      NM   R$  000000000263900000000026390000000002552000000000258500000000025520000000000000000000000000000017000000000000002800000000000007239100000000000000009999123100000010000000000000BRSCARACNOR7130
012024030802MULT3       010MULTIPLAN   ON      N2   R$  000000000256800000000026300000000002567000000000259300000000026110000000000000000000000000041347000000000006156100000000015965599600000000000000009999123100000010000000000000BRMULTACNOR5137
012024030802SMTO3       010SAO MARTINHOON      NM   R$  000000000265500000000027970000000002651000000000275000000000027670000000000000000000000000006740000000000001912200000000005259519500000000000000009999123100000010000000000000BRSMTOACNOR3125
012024030807NUTR3       010NUTRIPLANT  ON      MA   R$  000000000053000000000005680000000000525000000000054300000000005660000000000000000000000000000083000000000000015200000000000008264400000000000000009999123100000010000000000000BRNUTRACNOR0104
012024030808LIGT3       010LIGHT S/A   ON      NM   R$  000000000050200000000005250000000000500000000000051700000000005220000000000000000000000000001667000000000000533400000000000276218200000000000000009999123100000010000000000000BRLIGTACNOR2124
012024030808RNEW11      010RENOVA      UNT     N2   R$  000000000036500000000003650000000000350000000000035600000000003600000000000000000000000000000037000000000000005200000000000001853200000000000000009999123100000010000000000000BRRNEWCDAM15110
012024030808RPMG3       010PET MANGUINHON           R$  000000000020400000000002060000000000200000000000020300000000002060000000000000000000000000000025000000000000057000000000000011588100000000000000009999123100000010000000000000BRRPMGACNOR9194
012024030808OIBR3       010OI          ON      N1   R$  000000000008400000000000940000000000083000000000008900000000000890000000000000000000000000004050000000000018064500000000001617697600000000000000009999123100000010000000000000BROIBRACNOR1110
012024030810MGLU9       010MAGAZ LUIZA ON  REC NM   R$  000000000020200000000002050000000000196000000000020300000000002000000000000000000000000000000131000000000000132600000000000026954800000000000000009999123100000010000000000000BRMGLUR01OR7122
012024030812VINO11      010FII VINCI OFCI  ER       R$  000000000075100000000007560000000000746000000000075100000000007510000000000000000000000000006368000000000000162495000000000122168619000000000000009999123100000010000000000000BRVINOCTF001154
012024030812VRTA11      010FII FATOR VECI  ER       R$  000000000866000000000087120000000008633000000000867000000000087120000000000000000000000000002522000000000000017405000000000150912888000000000000009999123100000010000000000000BRVRTACTF008257
012024030812VTLT11      010FII VOT LOG CI  ER       R$  000000000962900000000096290000000009569000000000961600000000096280000000000000000000000000000121000000000000000692000000000006654638000000000000009999123100000010000000000000BRVTLTCTF001169
012024030812VVRI11      010FII V2 RENDACI           R$  000000000969800000000097470000000009302000000000951300000000097470000000000000000000000000000009000000000000000055000000000000523225000000000000009999123100000010000000000000BRVVRICTF007111
012024030812RBHG11      010FII RBCRI IVCI  ER       R$  000000000899000000000090910000000008961000000000905700000000090620000000000000000000000000001727000000000000003404000000000030832817000000000000009999123100000010000000000000BRRBHGCTF002131
012024030812RBRD11      010FII RB II   CI  ER       R$  000000000409000000000040900000000004002000000000404000000000040530000000000000000000000000000072000000000000001012000000000004088648000000000000009999123100000010000000000000BRRBRDCTF008260
012024030812RBRR11      010FII RBRHGRADCI           R$  000000000918400000000092000000000009083000000000916900000000091820000000000000000000000000008977000000000000042118000000000386198443000000000000009999123100000010000000000000BRRBRRCTF008176
012024030812RBRY12      010FII RBR PCRIDIR          R$  000000000000100000000000470000000000001000000000002500000000000100000000000000000000000000000588000000000000098186000000000002461421000000000000009999123100000010000000000000BRRBRYD06M12163
012024030812RCFA11      010FII GP RCFA CI           R$  000000000012500000000001250000000000124000000000012400000000001240000000000000000000000000000010000000000000000243000000000000030354000000000000009999123100000010000000000000BRRCFACTF007101
012024030812RECX11      010FII REC FOF CI           R$  000000000654800000000065480000000006548000000000654800000000065480000000000000000000000000000004000000000000000005000000000000032740000000000000009999123100000010000000000000BRRECXCTF002135
012024030812CPTS11      010FII CAPI SECCI           R$  000000000085400000000008550000000000849000000000085100000000008510000000000000000000000000030149000000000000854002000000000727482636000000000000009999123100000010000000000000BRCPTSCTF004227
012024030812TMPS11      010FII ITAU TEMCI  ER       R$  000000000999800000000099980000000009903000000000993400000000099400000000000000000000000000000026000000000000000938000000000009318666000000000000009999123100000010000000000000BRTMPSCTF003111
012024030812CBOP11      010FII C BRANCOCI  ER       R$  000000000301000000000030110000000003000000000000300300000000030000000000000000000000000000000011000000000000000772000000000002318992000000000000009999123100000010000000000000BRCBOPCTF001227
012024030812CXAG11      010FII CAIXA AGCI  ER       R$  000000000801700000000080360000000007979000000000800000000000079850000000000000000000000000000080000000000000001033000000000008264578000000000000009999123100000010000000000000BRCXAGCTF003125
012024030812CXRI11      010FII CX RBRAVCI  ER       R$  000000000820000000000082600000000008150000000000825100000000081500000000000000000000000000000020000000000000006186000000000051045742000000000000009999123100000010000000000000BRCXRICTF003225
012024030812BIME11      010FII BRIO ME CI  ER       R$  000000000072900000000007300000000000722000000000072600000000007250000000000000000000000000000440000000000000029751000000000021599838000000000000009999123100000010000000000000BRBIMECTF006129
012024030812FIIP11B     010FII RB CAP ICI  ER  MB   R$  000000001802300000000182000000000017800000000001795900000000180000000000000000000000000000000063000000000000000464000000000008333121000000000000009999123100000010000000000000BRFIIPCTF001271
012024030812LUGG11      010FII LUGGO   CI  ER       R$  000000000824800000000082480000000007909000000000804200000000080050000000000000000000000000000071000000000000000622000000000005002568000000000000009999123100000010000000000000BRLUGGCTF007152
012024030812MAXR11      010FII MAX RET CI  ER       R$  000000000806900000000082000000000008030000000000815600000000081650000000000000000000000000000102000000000000001447000000000011801765000000000000009999123100000010000000000000BRMAXRCTF009265
012024030812MFCR11      010FII MERITO RCI  ER       R$  000000000281000000000028490000000002790000000000281000000000028480000000000000000000000000000025000000000000000090000000000000252954000000000000009999123100000010000000000000BRMFCRCTF002121
012024030812HPDP11      010FII HEDGEPDPCI  ER       R$  000000000887500000000088750000000008774000000000879100000000087740000000000000000000000000000003000000000000000012000000000000105493000000000000009999123100000010000000000000BRHPDPCTF003149
012024030812HSLG11      010FII HSI LOG CI  ER       R$  000000000978800000000098450000000009788000000000981000000000098000000000000000000000000000000419000000000000003431000000000033660878000000000000009999123100000010000000000000BRHSLGCTF009139
012024030812HUCG11      010FII UNIMED CCI           R$  000000000920000000000092000000000009200000000000920000000000092000000000000000000000000000000001000000000000000006000000000000055200000000000000009999123100000010000000000000BRHUCGCTF004120
012024030812JSAF11      010FII JS A FINCI  ER       R$  000000001052000000000105200000000010246000000001037000000000104280000000000000000000000000004114000000000000033262000000000344933759000000000000009999123100000010000000000000BRJSAFCTF000129
012024030812KISU11      010FII KILIMA  CI  ER       R$  000000000083100000000008340000000000827000000000082800000000008290000000000000000000000000002527000000000000088818000000000073610334000000000000009999123100000010000000000000BRKISUCTF000141
012024030812SJAU11      010FII SJ AU   CI           R$  000000000730000000000073000000000007300000000000730000000000073000000000000000000000000000000001000000000000000001000000000000007300000000000000009999123100000010000000000000BRSJAUCTF009101
012024030812PLCR11      010FII PLURAL RCI  ER       R$  000000000884800000000088680000000008821000000000885300000000088500000000000000000000000000000270000000000000002999000000000026552481000000000000009999123100000010000000000000BRPLCRCTF003152
012024030812TRBL11      010FII SDI LOG CI  ER       R$  000000000995200000000099850000000009935000000000996700000000099350000000000000000000000000000718000000000000005204000000000051869641000000000000009999123100000010000000000000BRTRBLCTF007109
012024030802ENAT3       010ENAUTA PART ON      NM   R$  000000000258800000000026570000000002495000000000256100000000025150000000000000000000000000008032000000000003686900000000009444182500000000000000009999123100000010000000000000BRENATACNOR0104
012024030802UGPA3       010ULTRAPAR    ON  ED  NM   R$  000000000283000000000029050000000002830000000000288500000000028860000000000000000000000000014392000000000003885700000000011210733400000000000000009999123100000010000000000000BRUGPAACNOR8155
012024030802SANB11      010SANTANDER BRUNT          R$  000000000281600000000028710000000002814000000000285000000000028530000000000000000000000000005277000000000001146900000000003268806100000000000000009999123100000010000000000000BRSANBCDAM13163
012024030802SAPR3       010SANEPAR     ON      N2   R$  000000000050200000000005140000000000497000000000050900000000005140000000000000000000000000001851000000000000462400000000000235726500000000000000009999123100000010000000000000BRSAPRACNOR9158
012024030802VALE3       010VALE        ON      NM   R$  000000000662000000000066980000000006590000000000662100000000066010000000000000000000000000047769000000000023182600000000153501014700000000000000009999123100000010000000000000BRVALEACNOR0209
012024030802ROMI3       010ROMI        ON      NM   R$  000000000130700000000013200000000001290000000000130000000000012900000000000000000000000000000965000000000000169400000000000220309400000000000000009999123100000010000000000000BRROMIACNOR8192
012024030802HAGA4       010HAGA S/A    PN           R$  000000000011000000000001160000000000110000000000011300000000001160000000000000000000000000000061000000000000054800000000000006223600000000000000009999123100000010000000000000BRHAGAACNPR4103
012024030802MRFG3       010MARFRIG     ON      NM   R$  000000000096100000000009820000000000949000000000096500000000009640000000000000000000000000014145000000000004201700000000004056533000000000000000009999123100000010000000000000BRMRFGACNOR0116
012024030802AZEV3       010AZEVEDO     ON           R$  000000000014100000000001450000000000139000000000014200000000001430000000000000000000000000000359000000000000410900000000000058575200000000000000009999123100000010000000000000BRAZEVACNOR0121
012024030802CMIG4       010CEMIG       PN      N1   R$  000000000117800000000012050000000001172000000000119400000000011970000000000000000000000000017551000000000008266800000000009871003700000000000000009999123100000010000000000000BRCMIGACNPR3240
012024030802EALT3       010ACO ALTONA  ON           R$  000000000103000000000010300000000000960000000000100200000000010300000000000000000000000000000005000000000000000700000000000000702000000000000000009999123100000010000000000000BREALTACNOR4137
012024030802GRND3       010GRENDENE    ON      NM   R$  000000000063900000000006510000000000637000000000064500000000006500000000000000000000000000004390000000000001444700000000000932050400000000000000009999123100000010000000000000BRGRNDACNOR3172
012024030802NORD3       010NORDON MET  ON           R$  000000000112900000000011290000000001129000000000112900000000011290000000000000000000000000000001000000000000000100000000000000112900000000000000009999123100000010000000000000BRNORDACNOR7135
012024030802PTNT4       010PETTENATI   PN           R$  000000000080000000000008000000000000787000000000078900000000007900000000000000000000000000000015000000000000003600000000000002843700000000000000009999123100000010000000000000BRPTNTACNPR3047
012024030802ASAI3       010ASSAI       ON      NM   R$  000000000143100000000014540000000001414000000000143500000000014410000000000000000000000000020164000000000009093700000000013056846000000000000000009999123100000010000000000000BRASAIACNOR0106
012024030802ARML3       010ARMAC       ON      NM   R$  000000000129100000000013340000000001275000000000129800000000012910000000000000000000000000001585000000000000270700000000000351626100000000000000009999123100000010000000000000BRARMLACNOR1110
012024030802CEBR6       010CEB         PNB          R$  000000000200000000000020000000000001964000000000197800000000019900000000000000000000000000000042000000000000008700000000000017210300000000000000009999123100000010000000000000BRCEBRACNPB6123
012024030802ALPA4       010ALPARGATAS  PN      N1   R$  000000000095100000000009850000000000943000000000096200000000009730000000000000000000000000006619000000000002243700000000002159404400000000000000009999123100000010000000000000BRALPAACNPR7232
012024030802ALUP4       010ALUPAR      PN      N2   R$  000000000099800000000010160000000000996000000000100300000000010160000000000000000000000000000174000000000000030200000000000030302500000000000000009999123100000010000000000000BRALUPACNPR5117
012024030802APER3       010ALPER S.A.  ON           R$  000000000439000000000043900000000004221000000000431000000000043190000000000000000000000000000013000000000000001300000000000005603600000000000000009999123100000010000000000000BRAPERACNOR9106
012024030802OFSA3       010OUROFINO S/AON      NM   R$  000000000228800000000023400000000002251000000000229400000000023400000000000000000000000000000016000000000000002300000000000005277000000000000000009999123100000010000000000000BROFSAACNOR7117
012024030802B3SA3       010B3          ON  ED  NM   R$  000000000122300000000012570000000001218000000000124400000000012460000000000000000000000000031565000000000062540000000000077834581300000000000000009999123100000010000000000000BRB3SAACNOR6131
012024030802HBOR3       010HELBOR      ON      NM   R$  000000000027400000000002800000000000270000000000027500000000002770000000000000000000000000001047000000000000389100000000000107243900000000000000009999123100000010000000000000BRHBORACNOR3117
012024030802PNVL3       010DIMED       ON      NM   R$  000000000119900000000012200000000001196000000000120700000000011980000000000000000000000000001101000000000000198400000000000239494100000000000000009999123100000010000000000000BRPNVLACNOR9205
012024030802POSI3       010POSITIVO TECON      NM   R$  000000000081600000000008390000000000799000000000082100000000008300000000000000000000000000002212000000000000730200000000000599802600000000000000009999123100000010000000000000BRPOSIACNOR9115
012024030802MTRE3       010MITRE REALTYON      NM   R$  000000000054700000000005600000000000539000000000055300000000005550000000000000000000000000002026000000000000789700000000000437026100000000000000009999123100000010000000000000BRMTREACNOR6109
012024030802PSSA3       010PORTO SEGUROON      NM   R$  000000000307200000000031250000000003024000000000308200000000031100000000000000000000000000010300000000000002126600000000006555093400000000000000009999123100000010000000000000BRPSSAACNOR7153
012024030802SNSY5       010SANSUY      PNA          R$  000000000049900000000004990000000000462000000000047900000000004880000000000000000000000000000061000000000000020900000000000010011900000000000000009999123100000010000000000000BRSNSYACNPA5111
012024030808JFEN3       010JOAO FORTES ON           R$  000000000017700000000001810000000000175000000000017900000000001810000000000000000000000000000026000000000000007900000000000001420100000000000000009999123100000010000000000000BRJFENACNOR0058
012024030808ETER3       010ETERNIT     ON  ED  NM   R$  000000000070700000000007140000000000700000000000070600000000007090000000000000000000000000000576000000000000210200000000000148586700000000000000009999123100000010000000000000BRETERACNOR3243
012024030808RNEW4       010RENOVA      PN      N2   R$  000000000012300000000001230000000000114000000000011800000000001180000000000000000000000000000348000000000000289200000000000034343900000000000000009999123100000010000000000000BRRNEWACNPR5110
012024030808ATMP3       010ATMASA      ON           R$  000000000029000000000002900000000000278000000000028300000000002800000000000000000000000000000028000000000000007700000000000002186300000000000000009999123100000010000000000000BRATMPACNOR8100
012024030808OSXB3       010OSX BRASIL  ON      NM   R$  000000000046900000000004710000000000429000000000044800000000004400000000000000000000000000000124000000000000036400000000000016327000000000000000009999123100000010000000000000BROSXBACNOR8109
