00COTAHIST.2024BOVESPA 20240517                                                                                                                                                                                                                      
012024051702SEER3       010SER EDUCA   ON      NM   R$  000000000048100000000004900000000000480000000000048400000000004800000000000480000000000048200589000000000000194500000000000094211400000000000000009999123100000010000000000000BRSEERACNOR5119
012024051702SEQL3       010SEQUOIA LOG ON      NM   R$  000000000003800000000000390000000000037000000000003800000000000380000000000038000000000003900853000000000002386800000000000090886600000000000000009999123100000010000000000000BRSEQLACNOR2102
012024051702SHOW3       010TIME FOR FUNON      NM   R$  000000000020100000000002070000000000198000000000020000000000002000000000000199000000000020000242000000000000127200000000000025513000000000000000009999123100000010000000000000BRSHOWACNOR7105
012024051702SHUL4       010SCHULZ      PN           R$  000000000062700000000006420000000000626000000000063200000000006310000000000630000000000063500990000000000000393800000000000248977800000000000000009999123100000010000000000000BRSHULACNPR4155
012024051702SIMH3       010SIMPAR      ON      NM   R$  000000000064700000000006500000000000634000000000064100000000006420000000000642000000000064705564000000000002979000000000001912261100000000000000009999123100000010000000000000BRSIMHACNOR0107
012024051702TPIS3       010TRIUNFO PARTON      NM   R$  000000000040000000000004080000000000400000000000040400000000004060000000000406000000000040700103000000000000058900000000000023823400000000000000009999123100000010000000000000BRTPISACNOR8118
012024051702TRAD3       010TC          ON      NM   R$  000000000007500000000000750000000000073000000000007300000000000750000000000074000000000007500208000000000000401400000000000029615100000000000000009999123100000010000000000000BRTRADACNOR3101
012024051702TRIS3       010TRISUL      ON      NM   R$  000000000048500000000004860000000000478000000000048000000000004840000000000480000000000048400698000000000000247900000000000119163700000000000000009999123100000010000000000000BRTRISACNOR4118
012024051702TRPL3       010TRAN PAULISTON      N1   R$  000000000353800000000036060000000003538000000000357200000000036060000000003501000000000359500002000000000000000200000000000000714400000000000000009999123100000010000000000000BRTRPLACNOR4185
012024051702TRPL4       010TRAN PAULISTPN      N1   R$  000000000258800000000026620000000002580000000000263700000000026190000000002619000000000262613248000000000004296100000000011329830300000000000000009999123100000010000000000000BRTRPLACNPR1185
012024051702ITUB3       010ITAUUNIBANCOON      N1   R$  000000000286300000000028800000000002852000000000286800000000028690000000002868000000000287001148000000000000219500000000000629554500000000000000009999123100000010000000000000BRITUBACNOR4335
012024051702ITUB4       010ITAUUNIBANCOPN      N1   R$  000000000331600000000033370000000003306000000000332500000000033230000000003323000000000332434245000000000018588100000000061809019200000000000000009999123100000010000000000000BRITUBACNPR1335
012024051702LUPA3       010LUPATECH    ON      NM   R$  000000000015600000000001630000000000155000000000015800000000001630000000000163000000000016400294000000000000176700000000000028078200000000000000009999123100000010000000000000BRLUPAACNOR8112
012024051702LVTC3       010WDC NETWORKSON      NM   R$  000000000043500000000004350000000000420000000000042600000000004260000000000426000000000043000138000000000000022900000000000009772800000000000000009999123100000010000000000000BRLVTCACNOR4102
012024051702LWSA3       010LWSA        ON      NM   R$  000000000046200000000004650000000000459000000000046200000000004630000000000463000000000046403965000000000003543700000000001638292500000000000000009999123100000010000000000000BRLWSAACNOR8103
012024051702MTRE3       010MITRE REALTYON      NM   R$  000000000041100000000004180000000000405000000000040900000000004060000000000406000000000040801098000000000000569600000000000233466300000000000000009999123100000010000000000000BRMTREACNOR6110
012024051702DXCO3       010DEXCO       ON      NM   R$  000000000075800000000007700000000000743000000000075900000000007700000000000764000000000077005007000000000002217500000000001685223200000000000000009999123100000010000000000000BRDXCOACNOR8105
012024051702CRPG5       010CRISTAL     PNA          R$  000000000326000000000032800000000003247000000000326300000000032470000000003210000000000328000019000000000000002600000000000008485100000000000000009999123100000010000000000000BRCRPGACNPA3118
012024051702CRPG6       010CRISTAL     PNB          R$  000000000317500000000031750000000003175000000000317500000000031750000000003125000000000319500001000000000000000100000000000000317500000000000000009999123100000010000000000000BRCRPGACNPB1118
012024051702CSAN3       010COSAN       ON      NM   R$  000000000144700000000014500000000001415000000000142700000000014330000000001431000000000143315346000000000014100700000000020135729100000000000000009999123100000010000000000000BRCSANACNOR6125
012024051702EGIE3       010ENGIE BRASILON      NM   R$  000000000440200000000044090000000004320000000000436600000000043580000000004358000000000437704997000000000001003500000000004382052400000000000000009999123100000010000000000000BREGIEACNOR9126
012024051702EALT4       010ACO ALTONA  PN           R$  000000000112300000000011300000000001101000000000112000000000011290000000001123000000000113000042000000000000011000000000000012327800000000000000009999123100000010000000000000BREALTACNPR1138
012024051702ECOR3       010ECORODOVIAS ON  ED  NM   R$  000000000072100000000007390000000000714000000000073000000000007310000000000731000000000073405756000000000004057100000000002962899700000000000000009999123100000010000000000000BRECORACNOR8120
012024051702EVEN3       010EVEN        ON  ED  NM   R$  000000000074000000000007420000000000711000000000072200000000007130000000000713000000000071602025000000000000850900000000000614411500000000000000009999123100000010000000000000BREVENACNOR8119
012024051702EZTC3       010EZTEC       ON  ED  NM   R$  000000000139100000000014010000000001365000000000137400000000013650000000001364000000000136505930000000000001614100000000002218116500000000000000009999123100000010000000000000BREZTCACNOR0125
012024051702MTSA4       010METISA      PN  ED       R$  000000000439100000000045000000000004391000000000445800000000045000000000004400000000000452000005000000000000000500000000000002229200000000000000009999123100000010000000000000BRMTSAACNPR9072
012024051702MULT3       010MULTIPLAN   ON      N2   R$  000000000239700000000024200000000002390000000000240800000000024080000000002408000000000241410335000000000002860600000000006890402900000000000000009999123100000010000000000000BRMULTACNOR5138
012024051702PETZ3       010PETZ        ON      NM   R$  000000000044100000000004530000000000435000000000044400000000004450000000000445000000000044605764000000000008353900000000003712635000000000000000009999123100000010000000000000BRPETZACNOR2110
012024051702RAIL3       010RUMO S.A.   ON      NM   R$  000000000208700000000020870000000002046000000000206600000000020740000000002064000000000207613413000000000009154000000000018912880500000000000000009999123100000010000000000000BRRAILACNOR9105
012024051702RAIZ4       010RAIZEN      PN      N2   R$  000000000030200000000003020000000000297000000000029800000000002970000000000297000000000029806519000000000007577400000000002259512600000000000000009999123100000010000000000000BRRAIZACNPR6110
012024051702SBFG3       010GRUPO SBF   ON      NM   R$  000000000126400000000012720000000001214000000000123400000000012390000000001231000000000123904919000000000001435600000000001772774300000000000000009999123100000010000000000000BRSBFGACNOR1103
012024051702SBSP3       010SABESP      ON      NM   R$  000000000794400000000079590000000007851000000000787800000000078560000000007855000000000787011590000000000002848100000000022439260400000000000000009999123100000010000000000000BRSBSPACNOR5161
012024051702TASA3       010TAURUS ARMASON      N2   R$  000000000122800000000012280000000001210000000000121100000000012100000000001210000000000121100272000000000000037900000000000045909400000000000000009999123100000010000000000000BRTASAACNOR7104
012024051702TASA4       010TAURUS ARMASPN      N2   R$  000000000113100000000011500000000001117000000000113300000000011500000000001143000000000115001369000000000000305100000000000345751800000000000000009999123100000010000000000000BRTASAACNPR4104
012024051702TCSA3       010TECNISA     ON      NM   R$  000000000024400000000002440000000000239000000000024000000000002420000000000240000000000024200152000000000000081500000000000019594900000000000000009999123100000010000000000000BRTCSAACNOR3112
012024051702TECN3       010TECHNOS     ON      NM   R$  000000000045500000000004720000000000455000000000046300000000004590000000000459000000000046300243000000000000056600000000000026260600000000000000009999123100000010000000000000BRTECNACNOR6109
012024051702HYPE3       010HYPERA      ON      NM   R$  000000000300400000000030460000000003000000000000302900000000030330000000003025000000000303308124000000000002724600000000008253131000000000000000009999123100000010000000000000BRHYPEACNOR0140
012024051702AVLL3       010ALPHAVILLE  ON      NM   R$  000000000036000000000003600000000000360000000000036000000000003600000000000331000000000036300002000000000000000300000000000000108000000000000000009999123100000010000000000000BRAVLLACNOR5103
012024051702AZEV3       010AZEVEDO     ON           R$  000000000013500000000001390000000000134000000000013700000000001380000000000137000000000013800322000000000000254000000000000034809800000000000000009999123100000010000000000000BRAZEVACNOR0121
012024051702AZEV4       010AZEVEDO     PN           R$  000000000012900000000001360000000000129000000000013200000000001330000000000132000000000013300768000000000001916500000000000253708300000000000000009999123100000010000000000000BRAZEVACNPR7121
012024051702AZUL4       010AZUL        PN      N2   R$  000000000101900000000010260000000000998000000000100700000000010070000000001007000000000100809610000000000011073100000000011153162000000000000000009999123100000010000000000000BRAZULACNPR4102
012024051702BIOM3       010BIOMM       ON      MA   R$  000000000160000000000016170000000001570000000000159500000000015700000000001570000000000160200120000000000000028800000000000045957400000000000000009999123100000010000000000000BRBIOMACNOR2112
012024051702BLAU3       010BLAU        ON      NM   R$  000000000106800000000010980000000001058000000000108300000000010890000000001083000000000108900700000000000000107500000000000116450900000000000000009999123100000010000000000000BRBLAUACNOR8113
012024051702BMEB4       010MERCANTIL   PN      N1   R$  000000000262900000000026640000000002600000000000261800000000026340000000002634000000000266000072000000000000020700000000000054194500000000000000009999123100000010000000000000BRBMEBACNPR5210
012024051702BMGB4       010BANCO BMG   PN      N1   R$  000000000033900000000003500000000000336000000000034100000000003380000000000337000000000033800817000000000000674100000000000230440400000000000000009999123100000010000000000000BRBMGBACNPR0109
012024051702BRBI11      010BR PARTNERS UNT ED  N2   R$  000000000147600000000014920000000001465000000000147200000000014670000000001467000000000148400928000000000000133500000000000196621600000000000000009999123100000010000000000000BRBRBICDAM10109
012024051702BRFS3       010BRF SA      ON      NM   R$  000000000190700000000019570000000001901000000000193600000000019360000000001930000000000193631325000000000011301500000000021881810500000000000000009999123100000010000000000000BRBRFSACNOR8122
012024051702CMIN3       010CSNMINERACAOON  ED  N2   R$  000000000052500000000005320000000000523000000000052700000000005250000000000525000000000052711049000000000009754300000000005141947900000000000000009999123100000010000000000000BRCMINACNOR2111
012024051702COCE5       010COELCE      PNA          R$  000000000336200000000034190000000003332000000000336500000000033970000000003355000000000340000105000000000000012900000000000043409600000000000000009999123100000010000000000000BRCOCEACNPA3147
012024051702COGN3       010COGNA ON    ON      NM   R$  000000000020600000000002080000000000204000000000020500000000002040000000000204000000000020508625000000000013116800000000002691898100000000000000009999123100000010000000000000BRCOGNACNOR2104
012024051702ENAT3       010ENAUTA PART ON      NM   R$  000000000247000000000025360000000002441000000000249000000000025300000000002526000000000253309267000000000003314900000000008254862500000000000000009999123100000010000000000000BRENATACNOR0104
012024051702GRND3       010GRENDENE    ON      NM   R$  000000000064300000000006450000000000637000000000064200000000006440000000000640000000000064403023000000000001299900000000000835456000000000000000009999123100000010000000000000BRGRNDACNOR3173
012024051702GSHP3       010GENERALSHOPPON           R$  000000000105000000000010500000000001050000000000105000000000010500000000001050000000000118000002000000000000000400000000000000420000000000000000009999123100000010000000000000BRGSHPACNOR7102
012024051702GUAR3       010GUARARAPES  ON      NM   R$  000000000078100000000007890000000000763000000000077300000000007730000000000772000000000077802580000000000000972500000000000751840500000000000000009999123100000010000000000000BRGUARACNOR4172
012024051702HAGA3       010HAGA S/A    ON           R$  000000000025600000000002560000000000256000000000025600000000002560000000000221000000000026000001000000000000000800000000000000204800000000000000009999123100000010000000000000BRHAGAACNOR7103
012024051702HAGA4       010HAGA S/A    PN           R$  000000000012000000000001210000000000119000000000012000000000001210000000000120000000000012100006000000000000000600000000000000072300000000000000009999123100000010000000000000BRHAGAACNPR4103
012024051702HAPV3       010HAPVIDA     ON      NM   R$  000000000044900000000004590000000000449000000000045300000000004510000000000450000000000045131102000000000082406500000000037395907000000000000000009999123100000010000000000000BRHAPVACNOR4114
012024051702ASAI3       010ASSAI       ON      NM   R$  000000000134100000000013680000000001339000000000135600000000013630000000001360000000000136415485000000000006205200000000008418191200000000000000009999123100000010000000000000BRASAIACNOR0106
012024051702ATOM3       010ATOMPAR     ON           R$  000000000021800000000002200000000000216000000000021700000000002160000000000216000000000021800023000000000000009800000000000002129400000000000000009999123100000010000000000000BRATOMACNOR1106
012024051702IFCM3       010INFRACOMM   ON      NM   R$  000000000004400000000000480000000000043000000000004500000000000460000000000045000000000004606164000000000017262500000000000782843900000000000000009999123100000010000000000000BRIFCMACNOR8101
012024051702IGTI11      010IGUATEMI S.AUNT     N1   R$  000000000209100000000020980000000002043000000000207700000000020820000000002075000000000208512067000000000006854600000000014243425200000000000000009999123100000010000000000000BRIGTICDAM16106
012024051702IGTI3       010IGUATEMI S.AON      N1   R$  000000000029600000000002980000000000295000000000029500000000002950000000000295000000000029600060000000000000042100000000000012426500000000000000009999123100000010000000000000BRIGTIACNOR8106
012024051702AALR3       010ALLIAR      ON      NM   R$  000000000104800000000010480000000000994000000000103100000000010380000000001028000000000103800256000000000000047600000000000049120100000000000000009999123100000010000000000000BRAALRACNOR6102
012024051702DESK3       010DESKTOP     ON      NM   R$  000000000137800000000013890000000001362000000000138000000000013870000000001375000000000138700442000000000000158700000000000219150900000000000000009999123100000010000000000000BRDESKACNOR2104
012024051702DEXP3       010DEXXOS PAR  ON      N1   R$  000000000103500000000010360000000001025000000000103000000000010280000000001027000000000103000179000000000000031400000000000032352600000000000000009999123100000010000000000000BRDEXPACNOR1105
012024051702DEXP4       010DEXXOS PAR  PN      N1   R$  000000000104500000000010450000000001045000000000104500000000010450000000001016000000000103800001000000000000000100000000000000104500000000000000009999123100000010000000000000BRDEXPACNPR8105
012024051702DIRR3       010DIRECIONAL  ON      NM   R$  000000000261900000000026250000000002555000000000257600000000025800000000002575000000000258304161000000000000960500000000002474956600000000000000009999123100000010000000000000BRDIRRACNOR0117
012024051702DMVF3       010D1000VFARMA ON      NM   R$  000000000084100000000008770000000000812000000000084800000000008120000000000811000000000081301014000000000000345700000000000293344700000000000000009999123100000010000000000000BRDMVFACNOR9100
012024051702DOHL4       010DOHLER      PN           R$  000000000042500000000004460000000000425000000000043400000000004460000000000430000000000045300005000000000000000600000000000000260900000000000000009999123100000010000000000000BRDOHLACNPR9066
012024051702EQTL3       010EQUATORIAL  ON      NM   R$  000000000312200000000031240000000003063000000000307900000000030740000000003072000000000307520915000000000006419500000000019771830700000000000000009999123100000010000000000000BREQTLACNOR0130
012024051702ESPA3       010ESPACOLASER ON      NM   R$  000000000011500000000001190000000000114000000000011700000000001180000000000117000000000011800557000000000000697000000000000081637300000000000000009999123100000010000000000000BRESPAACNOR7103
012024051702ESTR4       010ESTRELA     PN           R$  000000000019500000000002040000000000193000000000019600000000002040000000000193000000000020500004000000000000000500000000000000098000000000000000009999123100000010000000000000BRESTRACNPR0144
012024051702EUCA3       010EUCATEX     ON      N1   R$  000000000143800000000014700000000001430000000000144500000000014700000000001430000000000168500007000000000000001500000000000002167500000000000000009999123100000010000000000000BREUCAACNOR1157
012024051702EUCA4       010EUCATEX     PN      N1   R$  000000000134700000000014080000000001344000000000136600000000013800000000001380000000000140800441000000000000205800000000000281308500000000000000009999123100000010000000000000BREUCAACNPR8044
012024051702B3SA3       010B3          ON      NM   R$  000000000115200000000011610000000001131000000000114300000000011420000000001141000000000114528419000000000040678200000000046530661600000000000000009999123100000010000000000000BRB3SAACNOR6132
012024051702BMKS3       010BIC MONARK  ON           R$  000000003650000000000370000000000035146000000003587000000000370000000000035500000000003699900009000000000000000018000000000000645665000000000000009999123100000010000000000000BRBMKSACNOR9166
012024051702BMOB3       010BEMOBI TECH ON      NM   R$  000000000126100000000013100000000001261000000000127400000000013070000000001299000000000130902313000000000001130300000000001440029200000000000000009999123100000010000000000000BRBMOBACNOR7103
012024051702BNBR3       010NORD BRASIL ON  ES       R$  000000001149500000000115550000000011495000000001151500000000115550000000010401000000001197400002000000000000000300000000000003454500000000000000009999123100000010000000000000BRBNBRACNOR8208
012024051702FIQE3       010UNIFIQUE    ON      NM   R$  000000000036900000000003700000000000360000000000036300000000003650000000000363000000000036500387000000000000204100000000000074238100000000000000009999123100000010000000000000BRFIQEACNOR5106
012024051702FLRY3       010FLEURY      ON      NM   R$  000000000146600000000014660000000001447000000000145300000000014560000000001453000000000145604815000000000001552000000000002255542500000000000000009999123100000010000000000000BRFLRYACNOR5138
012024051702FRAS3       010FRAS-LE     ON      N1   R$  000000000184200000000018420000000001815000000000182700000000018290000000001828000000000184000653000000000000148800000000000271898700000000000000009999123100000010000000000000BRFRASACNOR0159
012024051702GEPA4       010GER PARANAP PN           R$  000000000249900000000025000000000002499000000000249900000000025000000000002425000000000249900002000000000000000200000000000000499900000000000000009999123100000010000000000000BRGEPAACNPR9160
012024051702GFSA3       010GAFISA      ON      NM   R$  000000000060000000000006040000000000522000000000054900000000005400000000000539000000000054007757000000000008427800000000004628624900000000000000009999123100000010000000000000BRGFSAACNOR3124
012024051702AERI3       010AERIS       ON  EG  NM   R$  000000000091500000000010220000000000905000000000097600000000010220000000001016000000000102201451000000000000458400000000000447850100000000000000009999123100000010000000000000BRAERIACNOR4102
012024051702TTEN3       0103TENTOS     ON      NM   R$  000000000102400000000010250000000001005000000000101600000000010220000000001020000000000102201989000000000000461900000000000469671000000000000000009999123100000010000000000000BRTTENACNOR0103
012024051702ZAMP3       010ZAMP S.A.   ON           R$  000000000033800000000003440000000000330000000000033300000000003330000000000333000000000033502047000000000000448600000000000149697200000000000000009999123100000010000000000000BRZAMPACNOR5100
012024051702TOTS3       010TOTVS       ON      NM   R$  000000000291100000000029200000000002845000000000286000000000028710000000002868000000000287210746000000000005003900000000014312469300000000000000009999123100000010000000000000BRTOTSACNOR8144
012024051702WLMM4       010WLM IND COM PN           R$  000000000308700000000030980000000003030000000000306500000000030980000000002702000000000309800006000000000000000600000000000001839500000000000000009999123100000010000000000000BRWLMMACNPR3118
012024051702YDUQ3       010YDUQS PART  ON      NM   R$  000000000129900000000013200000000001282000000000129800000000012900000000001290000000000129213012000000000004471400000000005803883400000000000000009999123100000010000000000000BRYDUQACNOR3105
012024051702SYNE3       010SYN PROP TECON      NM   R$  000000000092200000000009280000000000919000000000092200000000009240000000000919000000000092500826000000000000206700000000000190703800000000000000009999123100000010000000000000BRSYNEACNOR2102
012024051702TAEE11      010TAESA       UNT EJ  N2   R$  000000000350600000000035110000000003485000000000349600000000034850000000003484000000000350204168000000000001430400000000005001525100000000000000009999123100000010000000000000BRTAEECDAM10147
012024051702TAEE3       010TAESA       ON  EJ  N2   R$  000000000116700000000011670000000001159000000000116100000000011590000000001159000000000116300581000000000000102000000000000118486500000000000000009999123100000010000000000000BRTAEEACNOR9147
012024051702TAEE4       010TAESA       PN  EJ  N2   R$  000000000117300000000011760000000001168000000000117100000000011700000000001170000000000117300909000000000000258200000000000302512800000000000000009999123100000010000000000000BRTAEEACNPR6147
012024051702WEST3       010WESTWING    ON      NM   R$  000000000010900000000001100000000000107000000000010800000000001080000000000108000000000011000032000000000000013700000000000001480900000000000000009999123100000010000000000000BRWESTACNOR3100
012024051702WHRL3       010WHIRLPOOL   ON           R$  000000000047000000000004710000000000470000000000047000000000004710000000000466000000000047000003000000000000000400000000000000188200000000000000009999123100000010000000000000BRWHRLACNOR5128
012024051702WHRL4       010WHIRLPOOL   PN           R$  000000000048000000000004860000000000480000000000048400000000004810000000000481000000000048600021000000000000007900000000000003825900000000000000009999123100000010000000000000BRWHRLACNPR2128
012024051702WIZC3       010WIZ CO      ON      NM   R$  000000000067500000000006760000000000640000000000065000000000006470000000000647000000000065302065000000000000779700000000000507476900000000000000009999123100000010000000000000BRWIZCACNOR5102
012024051702TELB3       010TELEBRAS    ON           R$  000000000136800000000013680000000001368000000000136800000000013680000000001368000000000139400002000000000000000200000000000000273600000000000000009999123100000010000000000000BRTELBACNOR2140
012024051702TELB4       010TELEBRAS    PN           R$  000000000091600000000009360000000000900000000000090400000000009170000000000902000000000091400025000000000000004400000000000003980000000000000000009999123100000010000000000000BRTELBACNPR9140
012024051702TEND3       010TENDA       ON      NM   R$  000000000127600000000012820000000001219000000000124300000000012370000000001227000000000123904880000000000002274700000000002827560200000000000000009999123100000010000000000000BRTENDACNOR4111
012024051702TFCO4       010TRACK FIELD PN      N2   R$  000000000119400000000012100000000001176000000000119100000000012100000000001190000000000121000311000000000000216300000000000257769500000000000000009999123100000010000000000000BRTFCOACNPR8113
012024051702TGMA3       010TEGMA       ON      NM   R$  000000000261000000000026170000000002561000000000257700000000025740000000002561000000000257400639000000000000111100000000000286341200000000000000009999123100000010000000000000BRTGMAACNOR7144
012024051702TIMS3       010TIM         ON      NM   R$  000000000173800000000017450000000001727000000000173100000000017280000000001728000000000173609072000000000006307000000000010918130200000000000000009999123100000010000000000000BRTIMSACNOR5116
012024051702TKNO4       010TEKNO       PN           R$  000000000650000000000065000000000006500000000000650000000000065000000000006500000000000689900001000000000000000100000000000000650000000000000000009999123100000010000000000000BRTKNOACNPR5075
012024051702GGPS3       010GPS         ON      NM   R$  000000000189500000000019140000000001890000000000190300000000019070000000001898000000000190802328000000000000686600000000001306707700000000000000009999123100000010000000000000BRGGPSACNOR9103
012024051702GMAT3       010GRUPO MATEUSON      NM   R$  000000000080400000000008140000000000795000000000080800000000008090000000000809000000000081206914000000000003138500000000002537869100000000000000009999123100000010000000000000BRGMATACNOR7101
012024051702GOAU3       010GERDAU MET  ON  ED  N1   R$  000000000113100000000011550000000001131000000000114000000000011460000000001131000000000114600190000000000000027200000000000031033500000000000000009999123100000010000000000000BRGOAUACNOR1267
012024051702GOAU4       010GERDAU MET  PN  ED  N1   R$  000000000114000000000011490000000001124000000000113300000000011300000000001128000000000113010457000000000005909000000000006694931600000000000000009999123100000010000000000000BRGOAUACNPR8268
012024051702ITSA4       010ITAUSA      PN      N1   R$  000000000103000000000010310000000001021000000000102400000000010260000000001025000000000102634418000000000025895400000000026541098500000000000000009999123100000010000000000000BRITSAACNPR7439
012024051702LOGN3       010LOG-IN      ON      NM   R$  000000000390600000000039490000000003836000000000389700000000039490000000003875000000000394900091000000000000013200000000000051450000000000000000009999123100000010000000000000BRLOGNACNOR3105
012024051702KEPL3       010KEPLER WEBERON      NM   R$  000000000100000000000010010000000000989000000000099400000000009890000000000989000000000099502032000000000000659700000000000655922300000000000000009999123100000010000000000000BRKEPLACNOR1062
012024051702KLBN11      010KLABIN S/A  UNT     N2   R$  000000000217600000000021810000000002128000000000214100000000021330000000002133000000000213411470000000000005138200000000011001851700000000000000009999123100000010000000000000BRKLBNCDAM18142
012024051702KLBN3       010KLABIN S/A  ON      N2   R$  000000000043400000000004350000000000426000000000042900000000004270000000000427000000000042800713000000000000313800000000000134889300000000000000009999123100000010000000000000BRKLBNACNOR2170
012024051702KLBN4       010KLABIN S/A  PN      N2   R$  000000000043400000000004350000000000426000000000042900000000004270000000000427000000000042802210000000000001429800000000000613941900000000000000009999123100000010000000000000BRKLBNACNPR9170
012024051702MILS3       010MILLS       ON      NM   R$  000000000130800000000013080000000001295000000000130000000000013000000000001300000000000130302266000000000001359200000000001767160900000000000000009999123100000010000000000000BRMILSACNOR2126
012024051702MLAS3       010MULTILASER  ON      NM   R$  000000000022200000000002280000000000214000000000021900000000002170000000000216000000000021702532000000000001872600000000000411896200000000000000009999123100000010000000000000BRMLASACNOR9101
012024051702MNPR3       010MINUPAR     ON           R$  000000000124600000000012990000000001240000000000126000000000012800000000001260000000000132000060000000000000022500000000000028351500000000000000009999123100000010000000000000BRMNPRACNOR5122
012024051702MOVI3       010MOVIDA      ON      NM   R$  000000000071900000000007230000000000705000000000071100000000007060000000000706000000000070804203000000000002610100000000001856573100000000000000009999123100000010000000000000BRMOVIACNOR0122
012024051702MRFG3       010MARFRIG     ON      NM   R$  000000000112800000000011660000000001126000000000115000000000011520000000001150000000000115225516000000000014140500000000016261711400000000000000009999123100000010000000000000BRMRFGACNOR0116
012024051702RPAD6       010ALFA HOLDINGPNB          R$  000000000090100000000009010000000000901000000000090100000000009010000000000901000000000099900002000000000000000300000000000000270300000000000000009999123100000010000000000000BRRPADACNPB2198
012024051702RRRP3       0103R PETROLEUMON      NM   R$  000000000300500000000031840000000002993000000000309800000000031500000000003148000000000315023324000000000011794000000000036543313200000000000000009999123100000010000000000000BRRRRPACNOR5103
012024051702INEP3       010INEPAR      ON           R$  000000000027300000000002750000000000267000000000027100000000002730000000000270000000000027300101000000000000029500000000000008002300000000000000009999123100000010000000000000BRINEPACNOR1143
012024051702INEP4       010INEPAR      PN           R$  000000000025900000000002610000000000246000000000025000000000002510000000000248000000000025100064000000000000025800000000000006471300000000000000009999123100000010000000000000BRINEPACNPR8143
012024051702INTB3       010INTELBRAS   ON      NM   R$  000000000238100000000024160000000002326000000000236600000000023580000000002338000000000235803360000000000000744600000000001761731100000000000000009999123100000010000000000000BRINTBACNOR9111
012024051702IRBR3       010IRBBRASIL REON      NM   R$  000000000384100000000040610000000003717000000000384400000000037420000000003742000000000374317238000000000005157400000000019829097100000000000000009999123100000010000000000000BRIRBRACNOR4111
012024051702JHSF3       010JHSF PART   ON      NM   R$  000000000041800000000004200000000000414000000000041600000000004140000000000414000000000041502307000000000002426800000000001010846700000000000000009999123100000010000000000000BRJHSFACNOR2135
012024051702JSLG3       010JSL         ON      NM   R$  000000000106200000000010630000000001042000000000105100000000010550000000001050000000000105500920000000000000223600000000000235212300000000000000009999123100000010000000000000BRJSLGACNOR2121
012024051702PDGR3       010PDG REALT   ON      NM   R$  000000000002300000000000250000000000023000000000002300000000000240000000000024000000000002500362000000000002826100000000000067724900000000000000009999123100000010000000000000BRPDGRACNOR8118
012024051702PDTC3       010PADTEC      ON      NM   R$  000000000022300000000002230000000000217000000000021900000000002190000000000218000000000022000045000000000000018200000000000003991100000000000000009999123100000010000000000000BRPDTCACNOR3101
012024051702PEAB4       010PAR AL BAHIAPN           R$  000000000433800000000043380000000004338000000000433800000000043380000000003978000000000440000005000000000000000500000000000002169000000000000000009999123100000010000000000000BRPEABACNPR0133
012024051702PETR3       010PETROBRAS   ON      N2   R$  000000000391900000000039280000000003837000000000387000000000038570000000003842000000000385926442000000000017882900000000069218026800000000000000009999123100000010000000000000BRPETRACNOR9204
012024051702PETR4       010PETROBRAS   PN      N2   R$  000000000373500000000037420000000003651000000000368000000000036690000000003668000000000366984659000000000067195900000000247347054400000000000000009999123100000010000000000000BRPETRACNPR6212
012024051702ROMI3       010ROMI        ON      NM   R$  000000000107000000000010730000000001062000000000106600000000010700000000001068000000000107000708000000000000114200000000000121775600000000000000009999123100000010000000000000BRROMIACNOR8194
012024051702FESA3       010FERBASA     ON      N1   R$  000000000147800000000014780000000001476000000000147700000000014760000000001401000000000152000003000000000000000300000000000000443100000000000000009999123100000010000000000000BRFESAACNOR8187
012024051702FESA4       010FERBASA     PN      N1   R$  000000000079800000000008070000000000796000000000079900000000008000000000000798000000000080202470000000000000635300000000000508153200000000000000009999123100000010000000000000BRFESAACNPR5083
012024051702FHER3       010FER HERINGERON      NM   R$  000000000047900000000004830000000000479000000000048000000000004830000000000480000000000048800004000000000000000500000000000000240200000000000000009999123100000010000000000000BRFHERACNOR5103
012024051702SRNA3       010SERENA      ON      NM   R$  000000000094500000000009510000000000920000000000093600000000009410000000000930000000000094103935000000000001945500000000001822670000000000000000009999123100000010000000000000BRSRNAACNOR4100
012024051702STBP3       010SANTOS BRP  ON      NM   R$  000000000127400000000012890000000001263000000000127200000000012630000000001262000000000126808077000000000002265600000000002882822400000000000000009999123100000010000000000000BRSTBPACNOR3129
012024051702SUZB3       010SUZANO S.A. ON      NM   R$  000000000513700000000051720000000005096000000000515000000000051450000000005143000000000514524316000000000010578800000000054482515200000000000000009999123100000010000000000000BRSUZBACNOR0129
012024051702JBSS3       010JBS         ON      NM   R$  000000000283000000000029280000000002820000000000288600000000029190000000002919000000000292033259000000000017087800000000049327453900000000000000009999123100000010000000000000BRJBSSACNOR8121
012024051702OPCT3       010OCEANPACT   ON      NM   R$  000000000068100000000006810000000000655000000000066300000000006630000000000655000000000066300847000000000000764100000000000507078200000000000000009999123100000010000000000000BROPCTACNOR0100
012024051702ABCB4       010ABC BRASIL  PN      N2   R$  000000000221900000000022220000000002178000000000219600000000022050000000002200000000000220504579000000000000866800000000001903869000000000000000009999123100000010000000000000BRABCBACNPR4145
012024051702ABEV3       010AMBEV S/A   ON           R$  000000000124000000000012410000000001228000000000123600000000012380000000001236000000000123844181000000000028118800000000034775341500000000000000009999123100000010000000000000BRABEVACNOR1127
012024051702CPFE3       010CPFL ENERGIAON      NM   R$  000000000340200000000034350000000003366000000000340900000000034210000000003415000000000342503576000000000000931400000000003175557100000000000000009999123100000010000000000000BRCPFEACNOR0137
012024051702ORVR3       010ORIZON      ON      NM   R$  000000000418900000000042540000000004164000000000419700000000041740000000004174000000000417701952000000000001193700000000005011058500000000000000009999123100000010000000000000BRORVRACNOR0101
012024051702DASA3       010DASA        ON      NM   R$  000000000034300000000003430000000000327000000000033100000000003320000000000331000000000033502753000000000000808700000000000267879000000000000000009999123100000010000000000000BRDASAACNOR1122
012024051702PATI3       010PANATLANTICAON           R$  000000000267600000000026760000000002676000000000267600000000026760000000002651000000000274900001000000000000000100000000000000267600000000000000009999123100000010000000000000BRPATIACNOR6065
012024051702PCAR3       010P.ACUCAR-CBDON      NM   R$  000000000030800000000003140000000000302000000000030800000000003110000000000310000000000031107777000000000011988100000000003698442800000000000000009999123100000010000000000000BRPCARACNOR3167
012024051702PNVL3       010DIMED       ON      NM   R$  000000000109900000000010990000000001080000000000108600000000010940000000001090000000000109401245000000000000262600000000000285408100000000000000009999123100000010000000000000BRPNVLACNOR9206
012024051702POMO3       010MARCOPOLO   ON      N2   R$  000000000054300000000005430000000000533000000000054000000000005430000000000535000000000054300242000000000000092300000000000049866400000000000000009999123100000010000000000000BRPOMOACNOR0097
012024051702POMO4       010MARCOPOLO   PN      N2   R$  000000000070600000000007080000000000690000000000069400000000006900000000000689000000000069509097000000000004725400000000003280532300000000000000009999123100000010000000000000BRPOMOACNPR7097
012024051702PORT3       010WILSON SONS ON      NM   R$  000000000162500000000016330000000001603000000000161400000000016090000000001609000000000161602213000000000000577200000000000931848700000000000000009999123100000010000000000000BRPORTACNOR8107
012024051702UCAS3       010UNICASA     ON      NM   R$  000000000023800000000002380000000000234000000000023600000000002380000000000236000000000023800067000000000000014400000000000003406700000000000000009999123100000010000000000000BRUCASACNOR1113
012024051702UGPA3       010ULTRAPAR    ON      NM   R$  000000000250900000000025270000000002464000000000248000000000024840000000002483000000000248413751000000000003211500000000007967078500000000000000009999123100000010000000000000BRUGPAACNOR8155
012024051702MAPT3       010CEMEPE      ON           R$  000000000054900000000005490000000000511000000000053000000000005110000000000510000000000063000002000000000000000200000000000000106000000000000000009999123100000010000000000000BRMAPTACNOR8106
012024051702MAPT4       010CEMEPE      PN           R$  000000000060000000000006000000000000600000000000060000000000006000000000000560000000000069900001000000000000000200000000000000120000000000000000009999123100000010000000000000BRMAPTACNPR5106
012024051702MATD3       010MATER DEI   ON      NM   R$  000000000055900000000005720000000000555000000000056200000000005630000000000560000000000056402368000000000000780700000000000439108300000000000000009999123100000010000000000000BRMATDACNOR4104
012024051702MBLY3       010MOBLY       ON      NM   R$  000000000022700000000002340000000000222000000000022700000000002240000000000223000000000022400472000000000000334200000000000075906100000000000000009999123100000010000000000000BRMBLYACNOR5100
012024051702MDIA3       010M.DIASBRANCOON      NM   R$  000000000351600000000035860000000003514000000000355300000000035570000000003548000000000355703455000000000000696600000000002475647800000000000000009999123100000010000000000000BRMDIAACNOR7134
012024051702LPSB3       010LOPES BRASILON      NM   R$  000000000022900000000002350000000000224000000000022800000000002240000000000224000000000022700103000000000000028900000000000006597000000000000000009999123100000010000000000000BRLPSBACNOR0114
012024051702LREN3       010LOJAS RENNERON      NM   R$  000000000148600000000015010000000001468000000000147900000000014730000000001473000000000147518332000000000019247600000000028469280400000000000000009999123100000010000000000000BRLRENACNOR1220
012024051702MRVE3       010MRV         ON      NM   R$  000000000073100000000007440000000000724000000000073000000000007280000000000728000000000072912259000000000008917100000000006515144100000000000000009999123100000010000000000000BRMRVEACNOR2127
012024051702RADL3       010RAIADROGASILON      NM   R$  000000000274900000000027720000000002746000000000276100000000027600000000002760000000000276109545000000000004230200000000011680483600000000000000009999123100000010000000000000BRRADLACNOR0156
012024051702CSED3       010CRUZEIRO EDUON      NM   R$  000000000045300000000004530000000000439000000000044400000000004410000000000441000000000044300579000000000000270200000000000119986100000000000000009999123100000010000000000000BRCSEDACNOR9104
012024051702CSMG3       010COPASA      ON      NM   R$  000000000207000000000020800000000002048000000000205800000000020480000000002047000000000206003029000000000000839400000000001727587900000000000000009999123100000010000000000000BRCSMGACNOR5173
012024051702EKTR4       010ELEKTRO     PN           R$  000000000395400000000039550000000003954000000000395400000000039550000000003902000000000395500005000000000000001000000000000003954900000000000000009999123100000010000000000000BREKTRACNPR7162
012024051702ELET3       010ELETROBRAS  ON      N1   R$  000000000381200000000038350000000003795000000000381500000000038200000000003818000000000382313983000000000006330500000000024156405000000000000000009999123100000010000000000000BRELETACNOR6160
012024051702ELET6       010ELETROBRAS  PNB     N1   R$  000000000425000000000042670000000004208000000000423700000000042270000000004227000000000423405106000000000001032600000000004375601500000000000000009999123100000010000000000000BRELETACNPB7077
012024051702GGBR3       010GERDAU      ON  ED  N1   R$  000000000175200000000017700000000001724000000000174000000000017240000000001724000000000172900212000000000000051600000000000089799700000000000000009999123100000010000000000000BRGGBRACNOR1192
012024051702GGBR4       010GERDAU      PN  ED  N1   R$  000000000200300000000020240000000001955000000000197200000000019550000000001954000000000195818125000000000012939300000000025518627700000000000000009999123100000010000000000000BRGGBRACNPR8192
012024051702AESB3       010AES BRASIL  ON      NM   R$  000000000111300000000011150000000001100000000000110600000000011050000000001105000000000110708066000000000011694100000000012934196200000000000000009999123100000010000000000000BRAESBACNOR7106
012024051702AFLT3       010AFLUENTE T  ON           R$  000000000070500000000007050000000000705000000000070500000000007050000000000706000000000072400001000000000000001000000000000000705000000000000000009999123100000010000000000000BRAFLTACNOR1121
012024051702AGRO3       010BRASILAGRO  ON      NM   R$  000000000255000000000025570000000002524000000000253400000000025370000000002534000000000253701181000000000000153100000000000388080600000000000000009999123100000010000000000000BRAGROACNOR7114
012024051702BBSE3       010BBSEGURIDADEON      NM   R$  000000000343300000000034360000000003410000000000342100000000034170000000003416000000000342306704000000000003002800000000010273087400000000000000009999123100000010000000000000BRBBSEACNOR5124
012024051702CPLE3       010COPEL       ON      N2   R$  000000000086900000000008720000000000857000000000086400000000008670000000000866000000000086707296000000000003871400000000003348394200000000000000009999123100000010000000000000BRCPLEACNOR8149
012024051702CPLE6       010COPEL       PNB     N2   R$  000000000096000000000009660000000000954000000000095800000000009580000000000957000000000095908997000000000010995500000000010538512000000000000000009999123100000010000000000000BRCPLEACNPB9146
012024051702CRFB3       010CARREFOUR BRON      NM   R$  000000000106300000000010780000000001055000000000106700000000010680000000001067000000000107209174000000000006714500000000007170181000000000000000009999123100000010000000000000BRCRFBACNOR2116
012024051702DOTZ3       010DOTZ SA     ON      NM   R$  000000000082900000000008800000000000829000000000085200000000008750000000000845000000000087500075000000000000013200000000000011254900000000000000009999123100000010000000000000BRDOTZACNOR7101
012024051702VIVA3       010VIVARA S.A. ON      NM   R$  000000000232400000000023490000000002292000000000231600000000023060000000002305000000000232405772000000000001676300000000003882368100000000000000009999123100000010000000000000BRVIVAACNOR0107
012024051702VIVR3       010VIVER       ON      NM   R$  000000000028700000000002920000000000286000000000028700000000002870000000000286000000000028700049000000000000030200000000000008697400000000000000009999123100000010000000000000BRVIVRACNOR4122
012024051702VIVT3       010TELEF BRASILON           R$  000000000463100000000046660000000004602000000000463700000000046450000000004624000000000464609057000000000002469700000000011452442600000000000000009999123100000010000000000000BRVIVTACNOR0181
012024051702VLID3       010VALID       ON      NM   R$  000000000174400000000017470000000001700000000000171300000000017090000000001707000000000172001573000000000000224400000000000384494600000000000000009999123100000010000000000000BRVLIDACNOR5142
012024051702VBBR3       010VIBRA       ON      NM   R$  000000000238200000000023910000000002336000000000236700000000023690000000002369000000000237622461000000000007254400000000017171773700000000000000009999123100000010000000000000BRVBBRACNOR1107
012024051702VAMO3       010VAMOS       ON      NM   R$  000000000084100000000008570000000000834000000000084600000000008520000000000851000000000085608351000000000005654600000000004788955500000000000000009999123100000010000000000000BRVAMOACNOR7105
012024051702CAMB3       010CAMBUCI     ON           R$  000000000102000000000010390000000001000000000000101300000000010020000000001002000000000101100197000000000000069100000000000070051300000000000000009999123100000010000000000000BRCAMBACNOR4128
012024051702CAML3       010CAMIL       ON      NM   R$  000000000102000000000010220000000000992000000000100400000000009950000000000992000000000099601857000000000000668900000000000671942400000000000000009999123100000010000000000000BRCAMLACNOR3127
012024051702CASH3       010MELIUZ      ON      NM   R$  000000000057500000000005900000000000563000000000057900000000005880000000000586000000000058904037000000000001648300000000000955617600000000000000009999123100000010000000000000BRCASHACNOR8106
012024051702CBAV3       010CBA         ON      NM   R$  000000000062800000000006350000000000612000000000062200000000006260000000000622000000000062605888000000000003030200000000001886939900000000000000009999123100000010000000000000BRCBAVACNOR5104
012024051702WEGE3       010WEG         ON      NM   R$  000000000393100000000039640000000003892000000000394100000000039640000000003963000000000396414755000000000006701800000000026411817100000000000000009999123100000010000000000000BRWEGEACNOR0222
012024051702VITT3       010VITTIA      ON      NM   R$  000000000053300000000005430000000000530000000000053500000000005390000000000534000000000054000783000000000000232400000000000124480300000000000000009999123100000010000000000000BRVITTACNOR4107
012024051702SANB11      010SANTANDER BRUNT          R$  000000000279300000000028020000000002755000000000276800000000027700000000002765000000000277213042000000000003834600000000010615909700000000000000009999123100000010000000000000BRSANBCDAM13164
012024051702SANB3       010SANTANDER BRON           R$  000000000132200000000013220000000001305000000000130900000000013070000000001307000000000131401008000000000000158900000000000208066400000000000000009999123100000010000000000000BRSANBACNOR8171
012024051702SANB4       010SANTANDER BRPN           R$  000000000148100000000014820000000001454000000000146200000000014560000000001456000000000146700973000000000000154700000000000226272400000000000000009999123100000010000000000000BRSANBACNPR5171
012024051702SAPR11      010SANEPAR     UNT     N2   R$  000000000279400000000028820000000002783000000000286100000000028730000000002871000000000287903914000000000001403600000000004016569900000000000000009999123100000010000000000000BRSAPRCDAM13117
012024051702SAPR3       010SANEPAR     ON      N2   R$  000000000053000000000005500000000000530000000000054300000000005500000000000549000000000055000700000000000000249600000000000135592000000000000000009999123100000010000000000000BRSAPRACNOR9158
012024051702SAPR4       010SANEPAR     PN      N2   R$  000000000056800000000005820000000000568000000000057800000000005810000000000580000000000058102956000000000001747900000000001010710500000000000000009999123100000010000000000000BRSAPRACNPR6158
012024051702VALE3       010VALE        ON      NM   R$  000000000652500000000066350000000006517000000000659100000000066180000000006617000000000661848071000000000032320500000000213027497700000000000000009999123100000010000000000000BRVALEACNOR0210
012024051702VSTE3       010VESTE       ON      NM   R$  000000000131600000000013240000000001298000000000130800000000013080000000001302000000000130800036000000000000005400000000000007063200000000000000009999123100000010000000000000BRVSTEACNOR5103
012024051702VULC3       010VULCABRAS   ON  ED  NM   R$  000000000158000000000015800000000001548000000000156100000000015650000000001562000000000156602404000000000000519200000000000810651900000000000000009999123100000010000000000000BRVULCACNOR2159
012024051702VVEO3       010VIVEO       ON      NM   R$  000000000032100000000003220000000000310000000000031500000000003100000000000310000000000031204894000000000001536500000000000485403800000000000000009999123100000010000000000000BRVVEOACNOR0104
012024051702BGIP4       010BANESE      PN           R$  000000000217600000000021760000000002150000000000216500000000021500000000002150000000000216200010000000000000001100000000000002381900000000000000009999123100000010000000000000BRBGIPACNPR8208
012024051702BPAC11      010BTGP BANCO  UNT     N2   R$  000000000353900000000035660000000003491000000000350400000000035050000000003505000000000350623474000000000016541700000000057969107800000000000000009999123100000010000000000000BRBPACUNT006118
012024051702BPAC3       010BTGP BANCO  ON      N2   R$  000000000173200000000017490000000001701000000000171000000000017490000000001741000000000174900042000000000000156200000000000267182100000000000000009999123100000010000000000000BRBPACACNOR7133
012024051702BPAC5       010BTGP BANCO  PNA     N2   R$  000000000089000000000008930000000000860000000000088600000000008720000000000872000000000087800024000000000000305800000000000271209400000000000000009999123100000010000000000000BRBPACACNPA0133
012024051702AURE3       010AUREN       ON      NM   R$  000000000118500000000012020000000001173000000000118500000000011750000000001174000000000117713101000000000008555000000000010138602600000000000000009999123100000010000000000000BRAUREACNOR9104
012024051702BBDC3       010BRADESCO    ON      N1   R$  000000000119500000000012040000000001186000000000119600000000012020000000001201000000000120208857000000000006610700000000007908240000000000000000009999123100000010000000000000BRBBDCACNOR1769
012024051702BBDC4       010BRADESCO    PN      N1   R$  000000000133300000000013510000000001328000000000134200000000013430000000001343000000000134418750000000000031447400000000042226147200000000000000009999123100000010000000000000BRBBDCACNPR8769
012024051702BPAN4       010BANCO PAN   PN      N1   R$  000000000100600000000010110000000000996000000000100100000000009990000000000997000000000099901827000000000000677100000000000678322600000000000000009999123100000010000000000000BRBPANACNPR1115
012024051702BRAP3       010BRADESPAR   ON      N1   R$  000000000193600000000019450000000001928000000000193700000000019380000000001937000000000193800240000000000000044400000000000086032000000000000000009999123100000010000000000000BRBRAPACNOR5148
012024051702BRAP4       010BRADESPAR   PN      N1   R$  000000000200100000000020180000000001997000000000201100000000020150000000002015000000000201706897000000000003883700000000007811947400000000000000009999123100000010000000000000BRBRAPACNPR2148
012024051702CLSA3       010CLEARSALE   ON      NM   R$  000000000068800000000007090000000000656000000000068500000000007000000000000699000000000070004421000000000001563600000000001072495000000000000000009999123100000010000000000000BRCLSAACNOR0100
012024051702CLSC3       010CELESC      ON      N2   R$  000000000675000000000067500000000006750000000000675000000000067500000000006655000000000675000002000000000000000600000000000004050000000000000000009999123100000010000000000000BRCLSCACNOR6151
012024051702CLSC4       010CELESC      PN      N2   R$  000000000710000000000073980000000007100000000000721900000000072870000000007201000000000725000010000000000000002100000000000015161800000000000000009999123100000010000000000000BRCLSCACNPR3130
012024051702CMIG3       010CEMIG       ON      N1   R$  000000000129300000000012940000000001270000000000127600000000012720000000001272000000000128101063000000000000249400000000000318428600000000000000009999123100000010000000000000BRCMIGACNOR6241
012024051702CMIG4       010CEMIG       PN      N1   R$  000000000103400000000010440000000001026000000000103800000000010390000000001038000000000104016663000000000016053900000000016664832100000000000000009999123100000010000000000000BRCMIGACNPR3242
012024051702CSRN3       010COSERN      ON           R$  000000000245000000000024700000000002428000000000244900000000024700000000002320000000000248500004000000000000000400000000000000979800000000000000009999123100000010000000000000BRCSRNACNOR0192
012024051702CSUD3       010CSU DIGITAL ON      NM   R$  000000000186100000000018910000000001845000000000186600000000018800000000001877000000000188000284000000000000051400000000000095954000000000000000009999123100000010000000000000BRCSUDACNOR5109
012024051702CTKA3       010KARSTEN     ON           R$  000000000210000000000021900000000002050000000000211300000000020500000000001500000000000224000003000000000000000300000000000000634000000000000000009999123100000010000000000000BRCTKAACNOR0043
012024051702CTKA4       010KARSTEN     PN           R$  000000000180100000000018010000000001800000000000180000000000018000000000001799000000000189900003000000000000000300000000000000540000000000000000009999123100000010000000000000BRCTKAACNPR7043
012024051702CURY3       010CURY S/A    ON  ED  NM   R$  000000000193700000000019370000000001878000000000189200000000018850000000001885000000000189003579000000000000912200000000001725942000000000000000009999123100000010000000000000BRCURYACNOR3109
012024051702CVCB3       010CVC BRASIL  ON      NM   R$  000000000019700000000002030000000000196000000000020000000000002010000000000201000000000020207345000000000016318100000000003268941200000000000000009999123100000010000000000000BRCVCBACNOR1115
012024051702ELMD3       010ELETROMIDIA ON      NM   R$  000000000187800000000019040000000001878000000000189100000000019000000000001867000000000190000211000000000000026400000000000049930500000000000000009999123100000010000000000000BRELMDACNOR3101
012024051702EMAE4       010EMAE        PN           R$  000000000504600000000050460000000004817000000000489700000000048330000000004833000000000499900077000000000000009600000000000047019800000000000000009999123100000010000000000000BREMAEACNPR1125
012024051702EMBR3       010EMBRAER     ON      NM   R$  000000000386000000000039770000000003860000000000392200000000039560000000003956000000000396321375000000000013132400000000051516816900000000000000009999123100000010000000000000BREMBRACNOR4191
012024051702ITSA3       010ITAUSA      ON      N1   R$  000000000103600000000010360000000001023000000000102600000000010290000000001023000000000103100242000000000000076000000000000078016700000000000000009999123100000010000000000000BRITSAACNOR0439
012024051702KRSA3       010KORA SAUDE  ON      NM   R$  000000000006700000000000670000000000065000000000006500000000000670000000000065000000000006700203000000000001153800000000000076029700000000000000009999123100000010000000000000BRKRSAACNOR0100
012024051702LAND3       010TERRASANTAPAON      NM   R$  000000000155400000000015560000000001458000000000149700000000014820000000001460000000000148500185000000000000037900000000000056769800000000000000009999123100000010000000000000BRLANDACNOR9103
012024051702LAVV3       010LAVVI       ON  ED  NM   R$  000000000092000000000009210000000000891000000000090500000000008910000000000891000000000089203692000000000001179200000000001068220500000000000000009999123100000010000000000000BRLAVVACNOR4112
012024051702LEVE3       010METAL LEVE  ON      NM   R$  000000000330000000000033000000000003246000000000326100000000032460000000003245000000000325501316000000000000196300000000000640136800000000000000009999123100000010000000000000BRLEVEACNOR2197
012024051702LJQQ3       010QUERO-QUERO ON      NM   R$  000000000052700000000005420000000000521000000000052800000000005270000000000527000000000053304843000000000003057800000000001616892500000000000000009999123100000010000000000000BRLJQQACNOR5104
012024051702LOGG3       010LOG COM PROPON      NM   R$  000000000231300000000023290000000002254000000000228400000000022700000000002265000000000227600906000000000000124100000000000283465300000000000000009999123100000010000000000000BRLOGGACNOR7107
012024051702PRNR3       010PRINER      ON      NM   R$  000000000118300000000012080000000001163000000000118900000000012060000000001201000000000120601424000000000000218100000000000259323600000000000000009999123100000010000000000000BRPRNRACNOR4109
012024051702PSSA3       010PORTO SEGUROON      NM   R$  000000000308300000000031570000000003076000000000311500000000031330000000003129000000000313608773000000000005261500000000016393607100000000000000009999123100000010000000000000BRPSSAACNOR7154
012024051702PTBL3       010PORTOBELLO  ON      NM   R$  000000000048400000000004900000000000480000000000048300000000004800000000000480000000000048201378000000000000801100000000000387480100000000000000009999123100000010000000000000BRPTBLACNOR8132
012024051702PTNT3       010PETTENATI   ON           R$  000000000099800000000010100000000000998000000000100400000000010100000000000973000000000101000002000000000000000200000000000000200800000000000000009999123100000010000000000000BRPTNTACNOR6042
012024051702PTNT4       010PETTENATI   PN           R$  000000000073500000000007350000000000714000000000072400000000007140000000000713000000000072400009000000000000001200000000000000869000000000000000009999123100000010000000000000BRPTNTACNPR3047
012024051702QUAL3       010QUALICORP   ON      NM   R$  000000000016300000000001650000000000161000000000016200000000001620000000000161000000000016204596000000000003595700000000000584442500000000000000009999123100000010000000000000BRQUALACNOR6120
012024051702RSUL4       010RIOSULENSE  PN           R$  000000000724900000000072490000000007249000000000724900000000072490000000007000000000000720000001000000000000000100000000000000724900000000000000009999123100000010000000000000BRRSULACNPR3114
012024051702POSI3       010POSITIVO TECON      NM   R$  000000000094600000000010220000000000946000000000099100000000009990000000000995000000000099905560000000000002602600000000002579196200000000000000009999123100000010000000000000BRPOSIACNOR9116
012024051702PRIO3       010PETRORIO    ON      NM   R$  000000000474000000000048450000000004735000000000479000000000048120000000004808000000000481231161000000000013329500000000063853590600000000000000009999123100000010000000000000BRPRIOACNOR1106
012024051702RENT3       010LOCALIZA    ON      NM   R$  000000000483400000000049420000000004808000000000485900000000048400000000004840000000000486721421000000000007276700000000035361001000000000000000009999123100000010000000000000BRRENTACNOR4195
012024051702SMFT3       010SMART FIT   ON      NM   R$  000000000231800000000023310000000002299000000000231900000000023240000000002314000000000232607569000000000001583800000000003673516200000000000000009999123100000010000000000000BRSMFTACNOR1111
012024051702SMTO3       010SAO MARTINHOON      NM   R$  000000000272300000000027390000000002689000000000271100000000027030000000002700000000000270304046000000000000948600000000002571659400000000000000009999123100000010000000000000BRSMTOACNOR3125
012024051702SNSY5       010SANSUY      PNA          R$  000000000060700000000006180000000000607000000000061000000000006100000000000610000000000061800008000000000000002200000000000001342600000000000000009999123100000010000000000000BRSNSYACNPA5111
012024051702SOJA3       010BOA SAFRA   ON      NM   R$  000000000176700000000017720000000001705000000000172200000000017200000000001717000000000172001688000000000000344600000000000593524300000000000000009999123100000010000000000000BRSOJAACNOR9105
012024051702SOMA3       010GRUPO SOMA  ON      NM   R$  000000000057600000000005870000000000568000000000057800000000005850000000000584000000000058611465000000000013940300000000008068988200000000000000009999123100000010000000000000BRSOMAACNOR3102
012024051702UNIP3       010UNIPAR      ON           R$  000000000513000000000051380000000005085000000000510500000000051380000000005106000000000513800046000000000000006200000000000031653300000000000000009999123100000010000000000000BRUNIPACNOR7206
012024051702UNIP6       010UNIPAR      PNB          R$  000000000511000000000051310000000005046000000000506900000000050880000000005086000000000508800955000000000000168700000000000855289600000000000000009999123100000010000000000000BRUNIPACNPB8206
012024051702USIM3       010USIMINAS    ON      N1   R$  000000000074200000000007480000000000729000000000073500000000007350000000000735000000000073701122000000000000283700000000000208731000000000000000009999123100000010000000000000BRUSIMACNOR3167
012024051702USIM5       010USIMINAS    PNA     N1   R$  000000000079700000000008030000000000792000000000079500000000007960000000000795000000000079711207000000000012485200000000009935761200000000000000009999123100000010000000000000BRUSIMACNPA6169
012024051702JALL3       010JALLESMACHADON      NM   R$  000000000069200000000006930000000000684000000000068800000000006900000000000689000000000069101229000000000000442600000000000304653600000000000000009999123100000010000000000000BRJALLACNOR0105
012024051702ODPV3       010ODONTOPREV  ON  ED  NM   R$  000000000120400000000012090000000001193000000000119700000000011940000000001191000000000119701732000000000000462800000000000554402600000000000000009999123100000010000000000000BRODPVACNOR4201
012024051702ONCO3       010ONCOCLINICASON      NM   R$  000000000064800000000007550000000000631000000000069600000000007070000000000707000000000071010412000000000011292700000000007862491200000000000000009999123100000010000000000000BRONCOACNOR6100
012024051702NEOE3       010NEOENERGIA  ON      NM   R$  000000000201400000000020200000000001988000000000200000000000019910000000001990000000000199902482000000000000697400000000001395379000000000000000009999123100000010000000000000BRNEOEACNOR3122
012024051702NGRD3       010NEOGRID     ON      NM   R$  000000000009700000000000990000000000096000000000009700000000000980000000000098000000000009900608000000000001060000000000000103282800000000000000009999123100000010000000000000BRNGRDACNOR3104
012024051702PFRM3       010PROFARMA    ON      NM   R$  000000000060100000000006040000000000578000000000058900000000005970000000000590000000000059700726000000000000168100000000000099037600000000000000009999123100000010000000000000BRPFRMACNOR1116
012024051702PGMN3       010PAGUE MENOS ON      NM   R$  000000000025200000000002540000000000249000000000025200000000002540000000000253000000000025401039000000000000420200000000000105946400000000000000009999123100000010000000000000BRPGMNACNOR8103
012024051702PINE3       010PINE        ON      N2   R$  000000000058100000000005850000000000580000000000058100000000005800000000000581000000000060400004000000000000000600000000000000348800000000000000009999123100000010000000000000BRPINEACNOR1149
012024051702PINE4       010PINE        PN      N2   R$  000000000045300000000004580000000000451000000000045400000000004570000000000456000000000045700191000000000000206600000000000093913000000000000000009999123100000010000000000000BRPINEACNPR8149
012024051702PLPL3       010PLANOEPLANO ON      NM   R$  000000000099300000000009970000000000973000000000098000000000009730000000000973000000000097501381000000000000376700000000000369206300000000000000009999123100000010000000000000BRPLPLACNOR5104
012024051702CIEL3       010CIELO       ON      NM   R$  000000000055800000000005590000000000557000000000055700000000005580000000000557000000000055805322000000000030772000000000017158696400000000000000009999123100000010000000000000BRCIELACNOR3157
012024051702CSNA3       010SID NACIONALON  ED       R$  000000000133500000000013470000000001318000000000133700000000013400000000001338000000000134109741000000000006596000000000008821070300000000000000009999123100000010000000000000BRCSNAACNOR6261
012024051702ALPA3       010ALPARGATAS  ON      N1   R$  000000000103400000000010340000000001025000000000102500000000010250000000000956000000000106900003000000000000001200000000000001230900000000000000009999123100000010000000000000BRALPAACNOR0231
012024051702ALPA4       010ALPARGATAS  PN      N1   R$  000000000100900000000010260000000000985000000000099700000000009930000000000992000000000099307298000000000003891000000000003882780600000000000000009999123100000010000000000000BRALPAACNPR7232
012024051702ALPK3       010ESTAPAR     ON      NM   R$  000000000035600000000003730000000000354000000000036400000000003650000000000365000000000037000299000000000000097200000000000035433300000000000000009999123100000010000000000000BRALPKACNOR9101
012024051702ALUP11      010ALUPAR      UNT ED  N2   R$  000000000295700000000029630000000002926000000000293900000000029510000000002936000000000295203101000000000001194300000000003510969300000000000000009999123100000010000000000000BRALUPCDAM15119
012024051702ALUP3       010ALUPAR      ON  ED  N2   R$  000000000098300000000010000000000000983000000000099000000000009880000000000980000000000099000060000000000000007800000000000007729100000000000000009999123100000010000000000000BRALUPACNOR8119
012024051702ALUP4       010ALUPAR      PN  ED  N2   R$  000000000098600000000009860000000000970000000000097500000000009740000000000972000000000098400101000000000000017900000000000017470200000000000000009999123100000010000000000000BRALUPACNPR5119
012024051702AMAR3       010LOJAS MARISAON      NM   R$  000000000016300000000001700000000000163000000000016600000000001680000000000165000000000016800759000000000000220100000000000036629200000000000000009999123100000010000000000000BRAMARACNOR4114
012024051702RCSL3       010RECRUSUL    ON           R$  000000000017200000000001740000000000171000000000017100000000001710000000000171000000000017201163000000000000780400000000000133904900000000000000009999123100000010000000000000BRRCSLACNOR4133
012024051702RCSL4       010RECRUSUL    PN           R$  000000000004000000000000400000000000037000000000003700000000000370000000000037000000000003800325000000000000486100000000000018391800000000000000009999123100000010000000000000BRRCSLACNPR1133
012024051702RDNI3       010RNI         ON      NM   R$  000000000035500000000003550000000000348000000000034900000000003480000000000348000000000035400009000000000000001800000000000000628500000000000000009999123100000010000000000000BRRDNIACNOR9116
012024051702RDOR3       010REDE D OR   ON      NM   R$  000000000307300000000031360000000003032000000000309800000000031100000000003110000000000311519694000000000008155600000000025266484500000000000000009999123100000010000000000000BRRDORACNOR8112
012024051702RECV3       010PETRORECSA  ON      NM   R$  000000000208900000000021050000000002061000000000208700000000020930000000002085000000000209404231000000000001164100000000002429693500000000000000009999123100000010000000000000BRRECVACNOR3106
012024051702REDE3       010REDE ENERGIAON           R$  000000000068500000000006850000000000681000000000068200000000006850000000000685000000000068800008000000000000001300000000000000887800000000000000009999123100000010000000000000BRREDEACNOR7127
012024051702SLCE3       010SLC AGRICOLAON      NM   R$  000000000184700000000018480000000001833000000000183600000000018410000000001835000000000184104968000000000001517300000000002787222700000000000000009999123100000010000000000000BRSLCEACNOR2125
012024051702TUPY3       010TUPY        ON      NM   R$  000000000242100000000024450000000002406000000000242700000000024310000000002431000000000243303361000000000000685900000000001664994000000000000000009999123100000010000000000000BRTUPYACNOR1183
012024051702NINJ3       010GETNINJAS   ON      NM   R$  000000000047500000000004780000000000472000000000047600000000004780000000000474000000000047800057000000000000017500000000000008339000000000000000009999123100000010000000000000BRNINJACNOR5101
012024051702NORD3       010NORDON MET  ON           R$  000000000088700000000009640000000000850000000000090700000000009640000000000883000000000093000009000000000000001000000000000000907600000000000000009999123100000010000000000000BRNORDACNOR7135
012024051702NTCO3       010GRUPO NATURAON      NM   R$  000000000165500000000016630000000001636000000000164900000000016480000000001644000000000164907467000000000004982900000000008218614100000000000000009999123100000010000000000000BRNTCOACNOR5106
012024051702RANI3       010IRANI       ON  ED  NM   R$  000000000088900000000008890000000000874000000000087900000000008880000000000886000000000088802902000000000000970100000000000853383800000000000000009999123100000010000000000000BRRANIACNOR5072
012024051702RAPT3       010RANDON PART ON      N1   R$  000000000088500000000008870000000000870000000000087700000000008820000000000872000000000088200258000000000000050000000000000043866500000000000000009999123100000010000000000000BRRAPTACNOR7162
012024051702RAPT4       010RANDON PART PN      N1   R$  000000000100900000000010130000000000984000000000099100000000009930000000000992000000000099405915000000000001982600000000001965671100000000000000009999123100000010000000000000BRRAPTACNPR4162
012024051702SCAR3       010SAO CARLOS  ON      NM   R$  000000000236400000000023990000000002364000000000239300000000023990000000002376000000000240000017000000000000002000000000000004787400000000000000009999123100000010000000000000BRSCARACNOR7131
012024051702MDNE3       010MOURA DUBEUXON      NM   R$  000000000123400000000012340000000001204000000000121900000000012260000000001225000000000122701376000000000000336700000000000410449500000000000000009999123100000010000000000000BRMDNEACNOR9100
012024051702MEAL3       010IMC S/A     ON      NM   R$  000000000014200000000001420000000000138000000000013900000000001400000000000140000000000014100618000000000000803400000000000112185100000000000000009999123100000010000000000000BRMEALACNOR9105
012024051702MELK3       010MELNICK     ON      NM   R$  000000000042800000000004280000000000423000000000042600000000004280000000000426000000000042900196000000000000081900000000000034928800000000000000009999123100000010000000000000BRMELKACNOR8111
012024051702MGLU3       010MAGAZ LUIZA ON      NM   R$  000000000015900000000001620000000000156000000000015800000000001590000000000158000000000015946356000000000113810300000000018026997000000000000000009999123100000010000000000000BRMGLUACNOR2123
012024051702MWET4       010WETZEL S/A  PN           R$  000000000055000000000005600000000000550000000000055700000000005510000000000551000000000056000006000000000000001500000000000000836200000000000000009999123100000010000000000000BRMWETACNPR3118
012024051702MYPK3       010IOCHP-MAXIONON      NM   R$  000000000115100000000011570000000001136000000000114700000000011570000000001150000000000115705446000000000001340300000000001538045300000000000000009999123100000010000000000000BRMYPKACNOR7154
012024051702AMBP3       010AMBIPAR     ON      NM   R$  000000000089300000000009080000000000888000000000089900000000008990000000000896000000000089903996000000000001647800000000001482185100000000000000009999123100000010000000000000BRAMBPACNOR6103
012024051702BEES3       010BANESTES    ON           R$  000000000090500000000009070000000000900000000000090400000000009070000000000907000000000090800040000000000000007300000000000006599900000000000000009999123100000010000000000000BRBEESACNOR9390
012024051702BEES4       010BANESTES    PN           R$  000000000095400000000009540000000000946000000000094800000000009500000000000950000000000098400011000000000000001400000000000001328500000000000000009999123100000010000000000000BRBEESACNPR6315
012024051702AGXY3       010AGROGALAXY  ON      NM   R$  000000000014100000000001430000000000138000000000014000000000001400000000000140000000000014101148000000000000361700000000000050835100000000000000009999123100000010000000000000BRAGXYACNOR4103
012024051702AHEB3       010SPTURIS     ON           R$  000000000220100000000022010000000002201000000000220100000000022010000000002200000000000252500001000000000000000100000000000000220100000000000000009999123100000010000000000000BRAHEBACNOR0106
012024051702ALLD3       010ALLIED      ON      NM   R$  000000000071700000000007260000000000716000000000072000000000007160000000000716000000000072200188000000000000053600000000000038608900000000000000009999123100000010000000000000BRALLDACNOR3106
012024051702ALOS3       010ALLOS       ON      NM   R$  000000000219300000000022160000000002175000000000219700000000021890000000002189000000000220407871000000000003562300000000007827474600000000000000009999123100000010000000000000BRALOSACNOR5101
012024051702BAHI3       010BAHEMA      ON      MA   R$  000000000077000000000007700000000000753000000000075800000000007630000000000752000000000076400020000000000000003800000000000002881400000000000000009999123100000010000000000000BRBAHIACNOR1074
012024051702BALM3       010BAUMER      ON           R$  000000000105000000000010500000000001050000000000105000000000010500000000001000000000000124900001000000000000000100000000000000105000000000000000009999123100000010000000000000BRBALMACNOR5055
012024051702BAZA3       010AMAZONIA    ON           R$  000000000969900000000096990000000009500000000000956400000000095780000000009515000000000958000019000000000000002600000000000024868400000000000000009999123100000010000000000000BRBAZAACNOR0179
012024051702BBAS3       010BRASIL      ON      NM   R$  000000000277000000000027820000000002754000000000277100000000027690000000002769000000000277228050000000000017063500000000047288764000000000000000009999123100000010000000000000BRBBASACNOR3322
012024051702BEEF3       010MINERVA     ON      NM   R$  000000000067900000000007030000000000679000000000069100000000006870000000000687000000000068812668000000000014355300000000009927535700000000000000009999123100000010000000000000BRBEEFACNOR6116
012024051702BRSR3       010BANRISUL    ON      N1   R$  000000000118500000000012140000000001185000000000119700000000011950000000001186000000000120900046000000000000005900000000000007063100000000000000009999123100000010000000000000BRBRSRACNOR3187
012024051702BRSR6       010BANRISUL    PNB     N1   R$  000000000117100000000011980000000001156000000000117600000000011570000000001156000000000116005626000000000001988000000000002339289900000000000000009999123100000010000000000000BRBRSRACNPB4190
012024051702BSLI3       010BRB BANCO   ON           R$  000000000104500000000013970000000001045000000000128700000000012930000000001278000000000134900314000000000000044500000000000057280800000000000000009999123100000010000000000000BRBSLIACNOR5192
012024051702BSLI4       010BRB BANCO   PN           R$  000000000125000000000019770000000001230000000000153400000000018030000000001700000000000180300238000000000000032200000000000049403800000000000000009999123100000010000000000000BRBSLIACNPR2192
012024051702CXSE3       010CAIXA SEGURION      NM   R$  000000000160000000000016050000000001582000000000159000000000015890000000001589000000000159007005000000000002135500000000003397322100000000000000009999123100000010000000000000BRCXSEACNOR7106
012024051702CYRE3       010CYRELA REALTON      NM   R$  000000000208500000000020970000000002045000000000206000000000020620000000002061000000000206311339000000000004230400000000008716556100000000000000009999123100000010000000000000BRCYREACNOR7140
012024051702ENEV3       010ENEVA       ON      NM   R$  000000000126600000000012790000000001256000000000127200000000012750000000001273000000000127613872000000000008763100000000011151506800000000000000009999123100000010000000000000BRENEVACNOR8105
012024051702ENGI11      010ENERGISA    UNT     N2   R$  000000000469900000000047320000000004679000000000468700000000046790000000004678000000000467907758000000000002487400000000011659677900000000000000009999123100000010000000000000BRENGICDAM16135
012024051702ENGI3       010ENERGISA    ON      N2   R$  000000000147500000000014770000000001462000000000147100000000014710000000001470000000000148300020000000000000002700000000000003973300000000000000009999123100000010000000000000BRENGIACNOR0145
012024051702ENGI4       010ENERGISA    PN      N2   R$  000000000080800000000008150000000000803000000000080800000000008030000000000802000000000080900020000000000000004000000000000003235400000000000000009999123100000010000000000000BRENGIACNPR7141
012024051702ENJU3       010ENJOEI      ON      NM   R$  000000000026800000000002780000000000262000000000027200000000002750000000000274000000000027502437000000000001310000000000000357087700000000000000009999123100000010000000000000BRENJUACNOR9100
012024051702EPAR3       010EMBPAR S/A  ON           R$  000000000070500000000007050000000000690000000000069500000000006900000000000690000000000070400016000000000000003700000000000002573100000000000000009999123100000010000000000000BREPARACNOR9105
012024051702EQPA3       010EQTL PARA   ON           R$  000000000072800000000007280000000000684000000000069100000000006890000000000684000000000071300034000000000000005600000000000003872600000000000000009999123100000010000000000000BREQPAACNOR1111
012024051702HBOR3       010HELBOR      ON      NM   R$  000000000026100000000002620000000000255000000000025700000000002560000000000256000000000025700549000000000000374900000000000096467000000000000000009999123100000010000000000000BRHBORACNOR3118
012024051702HBRE3       010HBR REALTY  ON      NM   R$  000000000050600000000005080000000000502000000000050400000000005030000000000502000000000050300241000000000000089200000000000045021300000000000000009999123100000010000000000000BRHBREACNOR4100
012024051702HBSA3       010HIDROVIAS   ON      NM   R$  000000000042000000000004250000000000415000000000041800000000004170000000000416000000000041803286000000000001910600000000000799741100000000000000009999123100000010000000000000BRHBSAACNOR0100
012024051702HETA4       010HERCULES    PN           R$  000000000058100000000005810000000000581000000000058100000000005810000000000540000000000062700001000000000000000100000000000000058100000000000000009999123100000010000000000000BRHETAACNPR9136
012024051702BOBR4       010BOMBRIL     PN           R$  000000000021000000000002130000000000207000000000021000000000002110000000000208000000000021100036000000000000013400000000000002817900000000000000009999123100000010000000000000BRBOBRACNPR3128
012024051702BRIT3       010BRISANET    ON      NM   R$  000000000041300000000004370000000000407000000000042500000000004200000000000420000000000042602920000000000002012700000000000855990100000000000000009999123100000010000000000000BRBRITACNOR0103
012024051702BRKM3       010BRASKEM     ON      N1   R$  000000000200000000000020000000000001941000000000197800000000019800000000001955000000000198000033000000000000008300000000000016425200000000000000009999123100000010000000000000BRBRKMACNOR1119
012024051702BRKM5       010BRASKEM     PNA     N1   R$  000000000193500000000019640000000001919000000000193800000000019190000000001918000000000192305247000000000001419700000000002751577000000000000000009999123100000010000000000000BRBRKMACNPA4121
012024051702ANIM3       010ANIMA       ON      NM   R$  000000000039800000000004100000000000393000000000040000000000003980000000000398000000000039905857000000000005401600000000002162102600000000000000009999123100000010000000000000BRANIMACNOR6107
012024051702APER3       010ALPER S.A.  ON           R$  000000000451700000000045200000000004517000000000451700000000045190000000004517000000000458700004000000000000002000000000000009035100000000000000009999123100000010000000000000BRAPERACNOR9106
012024051702ARML3       010ARMAC       ON      NM   R$  000000000111300000000011210000000001087000000000110100000000011070000000001106000000000110705744000000000001289100000000001419873400000000000000009999123100000010000000000000BRARMLACNOR1111
012024051702ARZZ3       010AREZZO CO   ON      NM   R$  000000000484900000000049400000000004799000000000489300000000049090000000004904000000000493505853000000000001634100000000007996874900000000000000009999123100000010000000000000BRARZZACNOR3146
012024051702CCRO3       010CCR SA      ON      NM   R$  000000000126800000000012730000000001254000000000126500000000012690000000001268000000000127013612000000000013637700000000017257809200000000000000009999123100000010000000000000BRCCROACNOR2145
012024051702CEAB3       010CEA MODAS   ON      NM   R$  000000000105100000000010800000000001011000000000103700000000010360000000001035000000000103607101000000000003164500000000003283324300000000000000009999123100000010000000000000BRCEABACNOR1102
012024051702CEBR3       010CEB         ON           R$  000000000243900000000024390000000002257000000000229000000000022850000000002270000000000228500116000000000000023100000000000052899800000000000000009999123100000010000000000000BRCEBRACNOR5125
012024051702CEBR5       010CEB         PNA          R$  000000000202100000000020240000000001995000000000200900000000020130000000001978000000000202000012000000000000003300000000000006630400000000000000009999123100000010000000000000BRCEBRACNPA8124
012024051702CEBR6       010CEB         PNB          R$  000000000212200000000021710000000002034000000000209200000000021710000000002130000000000217300039000000000000006100000000000012766500000000000000009999123100000010000000000000BRCEBRACNPB6124
012024051702CEDO4       010CEDRO       PN      N1   R$  000000000265200000000026520000000002600000000000261700000000026000000000002600000000000265100002000000000000000300000000000000785200000000000000009999123100000010000000000000BRCEDOACNPR5128
012024051702CGAS3       010COMGAS      ON           R$  000000001080000000000108000000000010800000000001080000000000108000000000010621000000001080000001000000000000000100000000000001080000000000000000009999123100000010000000000000BRCGASACNOR0163
012024051702CGAS5       010COMGAS      PNA          R$  000000001140000000000114500000000011400000000001141900000000114200000000011344000000001149000008000000000000002300000000000026264900000000000000009999123100000010000000000000BRCGASACNPA3160
012024051702CGRA3       010GRAZZIOTIN  ON           R$  000000000250500000000025190000000002505000000000251400000000025190000000002490000000000251900007000000000000001300000000000003268600000000000000009999123100000010000000000000BRCGRAACNOR2082
012024051702CGRA4       010GRAZZIOTIN  PN           R$  000000000252800000000025280000000002512000000000252000000000025200000000002520000000000252500015000000000000001500000000000003780600000000000000009999123100000010000000000000BRCGRAACNPR9082
012024051707NUTR3       010NUTRIPLANT  ON      MA   R$  000000000048200000000004840000000000451000000000047400000000004810000000000477000000000048400053000000000000010300000000000004887600000000000000009999123100000010000000000000BRNUTRACNOR0104
012024051707TXRX4       010TEX RENAUX  PN           R$  000000000022800000000002390000000000228000000000023100000000002350000000000226000000000023500009000000000000002100000000000000486300000000000000009999123100000010000000000000BRTXRXACNPR0142
012024051707BHIA3       010CASAS BAHIA ON      NM   R$  000000000075700000000007820000000000744000000000076600000000007780000000000777000000000077805163000000000004455900000000003414785700000000000000009999123100000010000000000000BRBHIAACNOR1101
012024051708SGPS3       010SPRINGS     ON      NM   R$  000000000006100000000000620000000000059000000000006000000000000620000000000061000000000006200084000000000000152800000000000009265700000000000000009999123100000010000000000000BRSGPSACNOR4104
012024051708TEKA4       010TEKA        PN           R$  000000000345800000000034580000000003458000000000345800000000034580000000002500000000000350000001000000000000000100000000000000345800000000000000009999123100000010000000000000BRTEKAACNPR3140
012024051708ATMP3       010ATMASA      ON           R$  000000000020600000000002060000000000203000000000020300000000002040000000000204000000000020700011000000000000003700000000000000754600000000000000009999123100000010000000000000BRATMPACNOR8100
012024051708ETER3       010ETERNIT     ON      NM   R$  000000000067300000000006730000000000665000000000066800000000006720000000000670000000000067200775000000000000210300000000000140549200000000000000009999123100000010000000000000BRETERACNOR3243
012024051708RPMG3       010PET MANGUINHON           R$  000000000023000000000002500000000000212000000000023700000000002120000000000212000000000022800116000000000000105800000000000025098000000000000000009999123100000010000000000000BRRPMGACNOR9194
012024051708JFEN3       010JOAO FORTES ON           R$  000000000013700000000001440000000000134000000000013800000000001340000000000134000000000013500147000000000000034100000000000004718100000000000000009999123100000010000000000000BRJFENACNOR0059
012024051708RNEW11      010RENOVA      UNT     N2   R$  000000000031200000000003190000000000310000000000031300000000003160000000000310000000000031600010000000000000002200000000000000688800000000000000009999123100000010000000000000BRRNEWCDAM15110
012024051708RNEW3       010RENOVA      ON      N2   R$  000000000010400000000001040000000000103000000000010300000000001030000000000103000000000010400041000000000000054300000000000005609500000000000000009999123100000010000000000000BRRNEWACNOR8110
012024051708RNEW4       010RENOVA      PN      N2   R$  000000000010400000000001060000000000103000000000010400000000001050000000000103000000000010500093000000000000068200000000000007138400000000000000009999123100000010000000000000BRRNEWACNPR5110
012024051708OSXB3       010OSX BRASIL  ON      NM   R$  000000000040300000000004030000000000391000000000039500000000004000000000000395000000000040000009000000000000001700000000000000672700000000000000009999123100000010000000000000BROSXBACNOR8109
012024051708PMAM3       010PARANAPANEMAON      NM   R$  000000000026400000000002720000000000251000000000026000000000002580000000000257000000000026200204000000000000084400000000000021979700000000000000009999123100000010000000000000BRPMAMACNOR3039
012024051708CTNM4       010COTEMINAS   PN           R$  000000000009500000000000970000000000092000000000009300000000000920000000000092000000000009500060000000000000034900000000000003278300000000000000009999123100000010000000000000BRCTNMACNPR6129
012024051708CTSA3       010SANTANENSE  ON           R$  000000000025100000000002510000000000250000000000025000000000002500000000000250000000000025300003000000000000000300000000000000075200000000000000009999123100000010000000000000BRCTSAACNOR3062
012024051708CTSA4       010SANTANENSE  PN           R$  000000000012600000000001270000000000124000000000012500000000001270000000000125000000000012700023000000000000015000000000000001879500000000000000009999123100000010000000000000BRCTSAACNPR0062
012024051708LIGT3       010LIGHT S/A   ON      NM   R$  000000000048800000000004930000000000466000000000048300000000004920000000000486000000000049201796000000000000798200000000000386186500000000000000009999123100000010000000000000BRLIGTACNOR2124
012024051708RSID3       010ROSSI RESID ON      NM   R$  000000000052400000000005400000000000524000000000053200000000005280000000000522000000000052800590000000000000065000000000000034612300000000000000009999123100000010000000000000BRRSIDACNOR8120
012024051708OIBR3       010OI          ON      N1   R$  000000000006300000000000630000000000061000000000006200000000000630000000000062000000000006301092000000000003617500000000000225191300000000000000009999123100000010000000000000BROIBRACNOR1110
012024051708OIBR4       010OI          PN      N1   R$  000000000018000000000001830000000000179000000000018100000000001800000000000180000000000018200058000000000000023000000000000004171300000000000000009999123100000010000000000000BROIBRACNPR8109
012024051708NEXP3       010NEXPE       ON           R$  000000000042100000000004210000000000420000000000042000000000004200000000000420000000000042100006000000000000001200000000000000504100000000000000009999123100000010000000000000BRNEXPACNOR0101
012024051708HOOT4       010HOTEIS OTHONPN           R$  000000000027500000000002770000000000275000000000027500000000002760000000000276000000000027900016000000000000003400000000000000937200000000000000009999123100000010000000000000BRHOOTACNPR9015
012024051708AMER3       010AMERICANAS  ON      NM   R$  000000000005300000000000540000000000053000000000005300000000000530000000000053000000000005401374000000000004596900000000000245198400000000000000009999123100000010000000000000BRAMERACNOR6101
012024051710IFRA12      010FI ITAUINFRADIR          R$  000000000003400000000000350000000000021000000000002900000000000330000000000027000000000003300202000000000000021517000000000000634001000000000000009999123100000010000000000000BRIFRAD01M12137
012024051710EQTL1       010EQUATORIAL  DIR ORD NM   R$  000000000017600000000001910000000000140000000000015300000000001400000000000140000000000015001902000000000001083900000000000165929400000000000000009999123100000010000000000000BREQTLD03OR1129
012024051710BNBR1       010NORD BRASIL DIR ORD      R$  000000000003900000000000390000000000039000000000003900000000000390000000000041000000000007100001000000000000000100000000000000003900000000000000009999123100000010000000000000BRBNBRD05OR4207
012024051710PMAM1       010PARANAPANEMADIR ORD NM   R$  000000000000100000000000010000000000001000000000000100000000000010000000000000000000000000100016000000000000036200000000000000036200000000000000009999123100000010000000000000BRPMAMD04OR2038
012024051710AGXY1       010AGROGALAXY  DIR ORD NM   R$  000000000000100000000000020000000000001000000000000100000000000010000000000000000000000000100103000000000000550500000000000000653800000000000000009999123100000010000000000000BRAGXYD01OR9102
012024051712SEQR11      010FII SEQUOIA CI  ER       R$  000000000542700000000054270000000005156000000000524600000000053200000000005290000000000532000556000000000000012764000000000066963975000000000000009999123100000010000000000000BRSEQRCTF002142
012024051712SHPH11      010FII HIGIENOPCI           R$  000000008737600000000884900000000087301000000008763400000000884900000000087007000000008849100004000000000000000004000000000000350538000000000000009999123100000010000000000000BRSHPHCTF008349
012024051712TRBL11      010FII SDI LOG CI           R$  000000001010600000000103250000000010050000000001022900000000101860000000010185000000001018600976000000000000012416000000000127006952000000000000009999123100000010000000000000BRTRBLCTF007111
012024051712TRNT11      010FII TORRE NOCI  ER       R$  000000001299600000000129960000000012996000000001299600000000129960000000011501000000001299700001000000000000000001000000000000012996000000000000009999123100000010000000000000BRTRNTCTF013340
012024051712LSPA11      010FII LESTE PACI           R$  000000001080000000000108000000000010001000000001032500000000100010000000010001000000001029500005000000000000000028000000000000289116000000000000009999123100000010000000000000BRLSPACTF005138
012024051712LUGG11      010FII LUGGO   CI           R$  000000000756100000000075610000000007500000000000752600000000075330000000007510000000000753300124000000000000001061000000000007985444000000000000009999123100000010000000000000BRLUGGCTF007154
012024051712LVBI11      010FII VBI LOG CI           R$  000000001157100000000116480000000011536000000001156100000000116480000000011635000000001164810612000000000000030015000000000347014530000000000000009999123100000010000000000000BRLVBICTF002168
012024051712DPRO11      010FII DEVA PROCI  ER       R$  000000000070600000000007150000000000680000000000070600000000007150000000000715000000000071600015000000000000000110000000000000077689000000000000009999123100000010000000000000BRDPROCTF005123
012024051712DRIT11      010FII MTGESTAOCI  ER       R$  000000000799900000000079990000000007831000000000787300000000078320000000007500000000000799100007000000000000000008000000000000062988000000000000009999123100000010000000000000BRDRITCTF009252
012024051712DVFF11      010FII DEVA FOFCI  ER       R$  000000000077400000000007760000000000762000000000076300000000007640000000000764000000000076601473000000000000001603000000000001224369000000000000009999123100000010000000000000BRDVFFCTF006137
012024051712BTAL11      010FII BTG AGROCI           R$  000000000708800000000071970000000007079000000000710700000000071600000000007155000000000716000961000000000000008703000000000061856875000000000000009999123100000010000000000000BRBTALCTF003138
012024051712BTCI11      010FII BTG CRI CI  ER       R$  000000000100200000000010090000000000999000000000100400000000010060000000001005000000000100621321000000000000250328000000000251539513000000000000009999123100000010000000000000BRBTCICTF005119
012024051712CRFF11      010FII CX RBRA2CI           R$  000000000799000000000079900000000007884000000000791700000000078910000000007891000000000791900011000000000000000048000000000000380025000000000000009999123100000010000000000000BRCRFFCTF006160
012024051712EDGA11      010FII GALERIA CI           R$  000000000200300000000020420000000002003000000000200500000000020040000000002005000000000200600016000000000000000165000000000000330849000000000000009999123100000010000000000000BREDGACTF001240
012024051712EVBI11      010FII VBI CON CI           R$  000000000973400000000098490000000009711000000000983800000000098490000000009700000000000985000005000000000000000035000000000000344334000000000000009999123100000010000000000000BREVBICTF007148
012024051712EXES11      010FII EXES    CI           R$  000000000098700000000009870000000000987000000000098700000000009870000000000967000000000098700004000000000000000120000000000000118440000000000000009999123100000010000000000000BREXESCTF006123
012024051712FAED11      010FII ANH EDUCCI  ER       R$  000000001533200000000154700000000015316000000001540400000000153690000000015401000000001540400017000000000000000022000000000000338905000000000000009999123100000010000000000000BRFAEDCTF003277
012024051712FAMB11B     010FII ALMIRANTCI      MB   R$  000000006250100000000625010000000061700000000006186000000000625000000000061700000000006250000009000000000000000028000000000001732101000000000000009999123100000010000000000000BRFAMBCTF018315
012024051712SARE11      010FII SANT RENCI           R$  000000000479000000000048900000000004790000000000485700000000048740000000004855000000000487402827000000000000012859000000000062466266000000000000009999123100000010000000000000BRSARECTF006155
012024051712HRDF11      010FII HREALTY CI           R$  000000000035000000000003640000000000335000000000034900000000003640000000000354000000000036400012000000000000000152000000000000053122000000000000009999123100000010000000000000BRHRDFCTF000103
012024051712HREC11      010FII HEDGERECCI           R$  000000000087200000000008720000000000859000000000086500000000008680000000000866000000000086800086000000000000024546000000000021242739000000000000009999123100000010000000000000BRHRECCTF005148
012024051712HSAF11      010FII HSI CRI CI           R$  000000000858700000000086400000000008520000000000858300000000086030000000008603000000000863701527000000000000008670000000000074422431000000000000009999123100000010000000000000BRHSAFCTF004147
012024051712HSLG11      010FII HSI LOG CI           R$  000000000917900000000092180000000009102000000000913900000000091800000000009150000000000918002513000000000000005116000000000046758306000000000000009999123100000010000000000000BRHSLGCTF009141
012024051712HSML11      010FII HSI MALLCI           R$  000000000970500000000097550000000009705000000000973500000000097550000000009755000000000975707473000000000000027372000000000266486820000000000000009999123100000010000000000000BRHSMLCTF007159
012024051712HSRE11      010FII HSIRENDACI           R$  000000001074200000000107420000000010552000000001074100000000107410000000010212000000001074200953000000000000046640000000000501002868000000000000009999123100000010000000000000BRHSRECTF001140
012024051712HTMX11      010FII HOTEL MXCI           R$  000000001772000000000177600000000017693000000001772800000000177490000000017747000000001774900723000000000000003186000000000056483348000000000000009999123100000010000000000000BRHTMXCTF000279
012024051712HUSC11      010FII H UNIMEDCI           R$  000000001150900000000115090000000011386000000001141400000000114050000000011399000000001173600006000000000000000014000000000000159798000000000000009999123100000010000000000000BRHUSCCTF009151
012024051712BICE11      010FII BRIO CRECI           R$  000000009490000000000949000000000094900000000009490000000000949000000000091100000000009490000001000000000000000001000000000000094900000000000000009999123100000010000000000000BRBICECTF007124
012024051712BICR11      010FII INTER   CI           R$  000000000465200000000046520000000004652000000000465200000000046520000000004652000000000510200001000000000000000001000000000000004652000000000000009999123100000010000000000000BRBICRCTF009151
012024051712BIME11      010FII BRIO ME CI  ER       R$  000000000072900000000007320000000000727000000000072800000000007280000000000727000000000072800169000000000000010411000000000007582116000000000000009999123100000010000000000000BRBIMECTF006131
012024051712BLCA11      010FII BLUE AAACI  ER       R$  000000001080100000000108010000000010799000000001080000000000108000000000010403000000001079900008000000000000000029000000000000313218000000000000009999123100000010000000000000BRBLCACTF009130
012024051712BLMG11      010FII BLUE LOGCI  ER       R$  000000000387800000000038780000000003850000000000386400000000038670000000003867000000000387200289000000000000007738000000000029904114000000000000009999123100000010000000000000BRBLMGCTF005146
012024051712BLMO11      010FII BLUEMAC CI           R$  000000000850000000000085000000000008400000000000844200000000084000000000007941000000000865000011000000000000000035000000000000295500000000000000009999123100000010000000000000BRBLMOCTF009130
012024051712BLUR11      010FII BLUE RECCI  ER       R$  000000000913200000000091320000000008656000000000892800000000086560000000008656000000000913200003000000000000000007000000000000062496000000000000009999123100000010000000000000BRBLURCTF005126
012024051712BRCO11      010FII BRESCO  CI           R$  000000001180000000000118470000000011791000000001183900000000118390000000011826000000001183908465000000000000017228000000000203976815000000000000009999123100000010000000000000BRBRCOCTF007156
012024051712BRCR11      010FII BC FUND CI  ER       R$  000000000555400000000055700000000005524000000000555000000000055300000000005530000000000553104534000000000000077723000000000431375693000000000000009999123100000010000000000000BRBRCRCTF000266
012024051712CNES11      010FII CENESP  CI           R$  000000000017400000000001780000000000172000000000017400000000001730000000000173000000000017404638000000000000052267000000000009104201000000000000009999123100000010000000000000BRCNESCTF001258
012024051712GSFI11      010FII GENERAL CI           R$  000000000078300000000007840000000000776000000000078000000000007840000000000777000000000078400108000000000000004992000000000003897526000000000000009999123100000010000000000000BRGSFICTF009102
012024051712GTWR11      010FII G TOWERSCI           R$  000000000830000000000083580000000008285000000000832400000000083580000000008355000000000835804919000000000000015948000000000132753639000000000000009999123100000010000000000000BRGTWRCTF003162
