00COTAHIST.2024BOVESPA 20240719                                                                                                                                                                                                                      
012024071902CGRA3       010GRAZZIOTIN  ON           R$  000000000252600000000025260000000002526000000000252600000000025260000000002496000000000252600001000000000000000100000000000000252600000000000000009999123100000010000000000000BRCGRAACNOR2083
012024071902CGRA4       010GRAZZIOTIN  PN           R$  000000000255100000000025700000000002551000000000255900000000025600000000002541000000000256000005000000000000000600000000000001535600000000000000009999123100000010000000000000BRCGRAACNPR9083
012024071902CIEL3       010CIELO       ON      NM   R$  000000000057300000000005750000000000573000000000057400000000005750000000000574000000000057507652000000000020699200000000011882016500000000000000009999123100000010000000000000BRCIELACNOR3157
012024071902CLSA3       010CLEARSALE   ON      NM   R$  000000000071400000000007490000000000714000000000073500000000007340000000000724000000000073402869000000000000904000000000000664482200000000000000009999123100000010000000000000BRCLSAACNOR0100
012024071902CLSC4       010CELESC      PN      N2   R$  000000000774400000000077450000000007689000000000772800000000077450000000007687000000000774500004000000000000000400000000000003091200000000000000009999123100000010000000000000BRCLSCACNPR3131
012024071902CMIG3       010CEMIG       ON      N1   R$  000000000130800000000013290000000001275000000000129300000000012890000000001286000000000128900628000000000000112800000000000145862300000000000000009999123100000010000000000000BRCMIGACNOR6242
012024071902CMIG4       010CEMIG       PN      N1   R$  000000000110100000000011050000000001052000000000106200000000010550000000001054000000000105622085000000000017330700000000018407878700000000000000009999123100000010000000000000BRCMIGACNPR3243
012024071902YDUQ3       010YDUQS PART  ON      NM   R$  000000000115600000000011710000000001123000000000114100000000011300000000001166000000000113205090000000000001834900000000002094452400000000000000009999123100000010000000000000BRYDUQACNOR3105
012024071902TASA3       010TAURUS ARMASON      N2   R$  000000000125000000000012500000000001215000000000122700000000012190000000001216000000000122000057000000000000008500000000000010431300000000000000009999123100000010000000000000BRTASAACNOR7104
012024071902TASA4       010TAURUS ARMASPN      N2   R$  000000000123500000000012490000000001200000000000121800000000012000000000001200000000000120601257000000000000226800000000000276298700000000000000009999123100000010000000000000BRTASAACNPR4104
012024071902TCSA3       010TECNISA     ON      NM   R$  000000000022200000000002220000000000213000000000021700000000002140000000000214000000000021600112000000000000059300000000000012884400000000000000009999123100000010000000000000BRTCSAACNOR3112
012024071902TECN3       010TECHNOS     ON      NM   R$  000000000060600000000006200000000000593000000000060700000000006060000000000606000000000060800552000000000000141800000000000086196100000000000000009999123100000010000000000000BRTECNACNOR6109
012024071902TELB3       010TELEBRAS    ON           R$  000000000136000000000013830000000001327000000000134700000000013270000000001326000000000137000010000000000000001000000000000001347800000000000000009999123100000010000000000000BRTELBACNOR2140
012024071902TELB4       010TELEBRAS    PN           R$  000000000096700000000009990000000000940000000000096100000000009460000000000930000000000094700019000000000000002300000000000002211200000000000000009999123100000010000000000000BRTELBACNPR9140
012024071902TEND3       010TENDA       ON      NM   R$  000000000121400000000012650000000001214000000000124400000000012390000000001239000000000124004790000000000001368900000000001703440600000000000000009999123100000010000000000000BRTENDACNOR4111
012024071902TFCO4       010TRACK FIELD PN      N2   R$  000000000112200000000011270000000001101000000000111700000000011220000000001111000000000112200563000000000000396200000000000442947200000000000000009999123100000010000000000000BRTFCOACNPR8114
012024071902BHIA3       010CASAS BAHIA ON      NM   R$  000000000050600000000005100000000000490000000000049700000000004950000000000495000000000049603037000000000004566400000000002269514600000000000000009999123100000010000000000000BRBHIAACNOR1102
012024071902BPAN4       010BANCO PAN   PN      N1   R$  000000000086900000000008900000000000862000000000087200000000008700000000000864000000000087103774000000000001362200000000001189073600000000000000009999123100000010000000000000BRBPANACNPR1115
012024071902BRAP3       010BRADESPAR   ON      N1   R$  000000000182900000000018320000000001816000000000182100000000018290000000001818000000000182900222000000000000037500000000000068309600000000000000009999123100000010000000000000BRBRAPACNOR5148
012024071902BRAP4       010BRADESPAR   PN      N1   R$  000000000190700000000019080000000001877000000000189000000000018930000000001890000000000189304728000000000002115800000000004000162800000000000000009999123100000010000000000000BRBRAPACNPR2148
012024071902COCE5       010COELCE      PNA          R$  000000000312500000000031250000000003034000000000307200000000030370000000003034000000000309400049000000000000006100000000000018739500000000000000009999123100000010000000000000BRCOCEACNPA3147
012024071902COGN3       010COGNA ON    ON      NM   R$  000000000017400000000001750000000000167000000000016900000000001670000000000167000000000016810325000000000032802900000000005549586200000000000000009999123100000010000000000000BRCOGNACNOR2104
012024071902CXSE3       010CAIXA SEGURION      NM   R$  000000000149000000000014940000000001453000000000147000000000014530000000001453000000000145509286000000000002005100000000002948116800000000000000009999123100000010000000000000BRCXSEACNOR7106
012024071902CYRE3       010CYRELA REALTON      NM   R$  000000000200800000000020400000000001989000000000201800000000019990000000001999000000000200209340000000000005689000000000011481998200000000000000009999123100000010000000000000BRCYREACNOR7140
012024071902ENAT3       010ENAUTA PART ON      NM   R$  000000000218800000000022160000000002157000000000218200000000021810000000002162000000000218202911000000000000673900000000001470981300000000000000009999123100000010000000000000BRENATACNOR0104
012024071902ENEV3       010ENEVA       ON      NM   R$  000000000130200000000013020000000001248000000000126200000000012560000000001251000000000125713740000000000005246400000000006624716800000000000000009999123100000010000000000000BRENEVACNOR8106
012024071902ENGI11      010ENERGISA    UNT     N2   R$  000000000467600000000047090000000004616000000000464400000000046300000000004630000000000463211073000000000002257500000000010484888300000000000000009999123100000010000000000000BRENGICDAM16135
012024071902ENGI3       010ENERGISA    ON      N2   R$  000000000150800000000015080000000001450000000000146900000000014500000000001450000000000147700027000000000000004100000000000006024400000000000000009999123100000010000000000000BRENGIACNOR0145
012024071902ENGI4       010ENERGISA    PN      N2   R$  000000000080700000000008070000000000790000000000079500000000007950000000000795000000000080400020000000000000004300000000000003421500000000000000009999123100000010000000000000BRENGIACNPR7141
012024071902ITUB3       010ITAUUNIBANCOON      N1   R$  000000000291100000000029550000000002902000000000294100000000029360000000002931000000000293601312000000000000361500000000001063433500000000000000009999123100000010000000000000BRITUBACNOR4338
012024071902ITUB4       010ITAUUNIBANCOPN      N1   R$  000000000341500000000034620000000003406000000000344000000000034260000000003448000000000343537612000000000023779800000000081812930700000000000000009999123100000010000000000000BRITUBACNPR1338
012024071902ALPK3       010ESTAPAR     ON      NM   R$  000000000034200000000003670000000000336000000000034800000000003580000000000353000000000035800458000000000000295800000000000103067500000000000000009999123100000010000000000000BRALPKACNOR9101
012024071902ALUP11      010ALUPAR      UNT     N2   R$  000000000312100000000031460000000003093000000000311400000000031210000000003109000000000312304534000000000001176500000000003664344900000000000000009999123100000010000000000000BRALUPCDAM15119
012024071902ALUP3       010ALUPAR      ON      N2   R$  000000000106500000000010750000000001057000000000106400000000010750000000001066000000000107000039000000000000004600000000000004895200000000000000009999123100000010000000000000BRALUPACNOR8119
012024071902ALUP4       010ALUPAR      PN      N2   R$  000000000103000000000010380000000001007000000000102200000000010200000000001007000000000102400046000000000000006100000000000006236700000000000000009999123100000010000000000000BRALUPACNPR5119
012024071902AMAR3       010LOJAS MARISAON      NM   R$  000000000014400000000001480000000000144000000000014500000000001470000000000146000000000014700346000000000000337000000000000049091300000000000000009999123100000010000000000000BRAMARACNOR4115
012024071902AMBP3       010AMBIPAR     ON      NM   R$  000000000249200000000027120000000002454000000000257900000000027120000000002710000000000271209321000000000004270000000000011013962900000000000000009999123100000010000000000000BRAMBPACNOR6103
012024071902AVLL3       010ALPHAVILLE  ON      NM   R$  000000000036400000000003640000000000355000000000035500000000003550000000000335000000000035600003000000000000002200000000000000782400000000000000009999123100000010000000000000BRAVLLACNOR5103
012024071902AZEV3       010AZEVEDO     ON           R$  000000000016000000000001640000000000158000000000016000000000001590000000000159000000000016000399000000000000492900000000000079275900000000000000009999123100000010000000000000BRAZEVACNOR0121
012024071902AZEV4       010AZEVEDO     PN           R$  000000000016100000000001670000000000158000000000016100000000001600000000000159000000000016001121000000000002406300000000000389146500000000000000009999123100000010000000000000BRAZEVACNPR7121
012024071902AZUL4       010AZUL        PN      N2   R$  000000000082500000000008490000000000825000000000083700000000008380000000000838000000000084010019000000000011868300000000009934251300000000000000009999123100000010000000000000BRAZULACNPR4102
012024071902BLAU3       010BLAU        ON      NM   R$  000000000113800000000011610000000001125000000000113800000000011290000000001129000000000113200507000000000000075800000000000086300700000000000000009999123100000010000000000000BRBLAUACNOR8114
012024071902ELMD3       010ELETROMIDIA ON      NM   R$  000000000184600000000018570000000001827000000000183900000000018330000000001830000000000183300248000000000000031500000000000057940900000000000000009999123100000010000000000000BRELMDACNOR3101
012024071902EMAE4       010EMAE        PN           R$  000000000504900000000050490000000004742000000000479400000000047420000000004742000000000479000050000000000000006900000000000033085000000000000000009999123100000010000000000000BREMAEACNPR1125
012024071902EMBR3       010EMBRAER     ON      NM   R$  000000000413600000000043310000000004123000000000421600000000041520000000004151000000000416037923000000000012965800000000054664241900000000000000009999123100000010000000000000BREMBRACNOR4191
012024071902JSLG3       010JSL         ON      NM   R$  000000000098500000000010020000000000972000000000099100000000009980000000000973000000000099801203000000000000260600000000000258336000000000000000009999123100000010000000000000BRJSLGACNOR2121
012024071902KEPL3       010KEPLER WEBERON      NM   R$  000000000101000000000010310000000001010000000000102200000000010310000000001031000000000103204491000000000001234700000000001262818200000000000000009999123100000010000000000000BRKEPLACNOR1063
012024071902KLBN11      010KLABIN S/A  UNT     N2   R$  000000000214500000000021780000000002142000000000216000000000021510000000002151000000000215508971000000000002215800000000004787256300000000000000009999123100000010000000000000BRKLBNCDAM18142
012024071902KLBN3       010KLABIN S/A  ON      N2   R$  000000000043000000000004370000000000429000000000043400000000004300000000000430000000000043300458000000000000249500000000000108299300000000000000009999123100000010000000000000BRKLBNACNOR2170
012024071902KLBN4       010KLABIN S/A  PN      N2   R$  000000000042800000000004350000000000428000000000043200000000004280000000000428000000000042901445000000000000894500000000000386484000000000000000009999123100000010000000000000BRKLBNACNPR9170
012024071902CBAV3       010CBA         ON      NM   R$  000000000067800000000006880000000000659000000000067000000000006670000000000667000000000066803883000000000003297800000000002212058000000000000000009999123100000010000000000000BRCBAVACNOR5104
012024071902CBEE3       010AMPLA ENERG ON           R$  000000000096000000000010000000000000960000000000098000000000010000000000000900000000000099000002000000000000000200000000000000196000000000000000009999123100000010000000000000BRCBEEACNOR3159
012024071902BPAC11      010BTGP BANCO  UNT     N2   R$  000000000316800000000032240000000003162000000000318500000000031750000000003170000000000316611306000000000007250200000000023096064500000000000000009999123100000010000000000000BRBPACUNT006119
012024071902BPAC3       010BTGP BANCO  ON      N2   R$  000000000156900000000015690000000001547000000000155800000000015500000000001510000000000155300004000000000000000400000000000000623500000000000000009999123100000010000000000000BRBPACACNOR7134
012024071902BPAC5       010BTGP BANCO  PNA     N2   R$  000000000081900000000008300000000000809000000000081200000000008090000000000808000000000081700030000000000000006800000000000005525100000000000000009999123100000010000000000000BRBPACACNPA0134
012024071902CMIN3       010CSNMINERACAOON      N2   R$  000000000052500000000005250000000000510000000000051700000000005120000000000512000000000051311720000000000009599900000000004968480800000000000000009999123100000010000000000000BRCMINACNOR2111
012024071902CSRN5       010COSERN      PNA          R$  000000000220000000000022000000000002200000000000220000000000022000000000002105000000000220000005000000000000001500000000000003300000000000000000009999123100000010000000000000BRCSRNACNPA3193
012024071902CSUD3       010CSU DIGITAL ON      NM   R$  000000000205900000000020590000000002013000000000202900000000020180000000002048000000000202600150000000000000026700000000000054176800000000000000009999123100000010000000000000BRCSUDACNOR5110
012024071902CTKA3       010KARSTEN     ON           R$  000000000215800000000021580000000002158000000000215800000000021580000000001000000000000215800001000000000000000100000000000000215800000000000000009999123100000010000000000000BRCTKAACNOR0043
012024071902CURY3       010CURY S/A    ON      NM   R$  000000000215600000000022080000000002138000000000216800000000021660000000002163000000000216605309000000000001330300000000002884786600000000000000009999123100000010000000000000BRCURYACNOR3109
012024071902GRND3       010GRENDENE    ON      NM   R$  000000000060800000000006140000000000602000000000060600000000006040000000000604000000000060601130000000000000416600000000000252520200000000000000009999123100000010000000000000BRGRNDACNOR3174
012024071902GUAR3       010GUARARAPES  ON      NM   R$  000000000072800000000007380000000000715000000000073000000000007340000000000733000000000073504689000000000001873100000000001368713500000000000000009999123100000010000000000000BRGUARACNOR4173
012024071902AERI3       010AERIS       ON      NM   R$  000000000063700000000006370000000000576000000000059300000000005860000000000585000000000058600575000000000000187500000000000111358400000000000000009999123100000010000000000000BRAERIACNOR4102
012024071902AESB3       010AES BRASIL  ON      NM   R$  000000000113500000000011390000000001124000000000113300000000011370000000001135000000000113703209000000000004680800000000005305727400000000000000009999123100000010000000000000BRAESBACNOR7106
012024071902AGRO3       010BRASILAGRO  ON      NM   R$  000000000274900000000027870000000002744000000000276100000000027870000000002755000000000278800864000000000000134100000000000370276400000000000000009999123100000010000000000000BRAGROACNOR7114
012024071902AGXY3       010AGROGALAXY  ON      NM   R$  000000000014300000000001480000000000140000000000014200000000001410000000000141000000000014200340000000000000200700000000000028609900000000000000009999123100000010000000000000BRAGXYACNOR4103
012024071902ALLD3       010ALLIED      ON      NM   R$  000000000083900000000008390000000000801000000000081600000000008120000000000809000000000081200204000000000000055900000000000045617200000000000000009999123100000010000000000000BRALLDACNOR3106
012024071902ALOS3       010ALLOS       ON      NM   R$  000000000216800000000021990000000002145000000000216800000000021690000000002167000000000217011056000000000003236600000000007018387900000000000000009999123100000010000000000000BRALOSACNOR5101
012024071902ALPA3       010ALPARGATAS  ON      N1   R$  000000000090900000000009130000000000895000000000089800000000009130000000000892000000000092500013000000000000003800000000000003414700000000000000009999123100000010000000000000BRALPAACNOR0231
012024071902ALPA4       010ALPARGATAS  PN      N1   R$  000000000089300000000009070000000000876000000000089200000000008870000000000885000000000088808351000000000002570000000000002292966700000000000000009999123100000010000000000000BRALPAACNPR7232
012024071902BAHI3       010BAHEMA      ON      MA   R$  000000000064500000000006460000000000631000000000064200000000006310000000000631000000000065400007000000000000001700000000000001092400000000000000009999123100000010000000000000BRBAHIACNOR1074
012024071902BAZA3       010AMAZONIA    ON           R$  000000000969800000000096980000000009200000000000935300000000092000000000009000000000000920000023000000000000002800000000000026191000000000000000009999123100000010000000000000BRBAZAACNOR0179
012024071902BBAS3       010BRASIL      ON      NM   R$  000000000271900000000027430000000002699000000000271500000000027110000000002717000000000270727588000000000014144500000000038407288000000000000000009999123100000010000000000000BRBBASACNOR3324
012024071902TGMA3       010TEGMA       ON      NM   R$  000000000251300000000025130000000002374000000000241800000000024180000000002410000000000241802684000000000000554000000000001340051600000000000000009999123100000010000000000000BRTGMAACNOR7144
012024071902TIMS3       010TIM         ON      NM   R$  000000000166000000000016930000000001649000000000167700000000016770000000001671000000000167707136000000000003146900000000005279668200000000000000009999123100000010000000000000BRTIMSACNOR5117
012024071902TOTS3       010TOTVS       ON      NM   R$  000000000282000000000028560000000002788000000000282200000000028060000000002806000000000280711266000000000002758600000000007786413900000000000000009999123100000010000000000000BRTOTSACNOR8144
012024071902VLID3       010VALID       ON      NM   R$  000000000161200000000016520000000001602000000000163500000000016420000000001635000000000164202080000000000000462400000000000756455800000000000000009999123100000010000000000000BRVLIDACNOR5143
012024071902CCRO3       010CCR SA      ON      NM   R$  000000000125400000000012760000000001239000000000125100000000012410000000001241000000000124410975000000000005587600000000006992832800000000000000009999123100000010000000000000BRCCROACNOR2145
012024071902CEAB3       010CEA MODAS   ON      NM   R$  000000000093000000000009450000000000920000000000093200000000009300000000000925000000000093006044000000000001837700000000001714560900000000000000009999123100000010000000000000BRCEABACNOR1102
012024071902CEBR3       010CEB         ON           R$  000000000211800000000021200000000002093000000000210200000000020930000000002093000000000214500020000000000000003800000000000007990600000000000000009999123100000010000000000000BRCEBRACNOR5125
012024071902CEBR5       010CEB         PNA          R$  000000000180100000000018340000000001799000000000180900000000017990000000001795000000000182300006000000000000001200000000000002171500000000000000009999123100000010000000000000BRCEBRACNPA8124
012024071902CEBR6       010CEB         PNB          R$  000000000194000000000019400000000001929000000000193500000000019310000000001931000000000194600016000000000000002700000000000005225200000000000000009999123100000010000000000000BRCEBRACNPB6124
012024071902CEEB3       010COELBA      ON           R$  000000000403000000000040300000000004010000000000402100000000040100000000003963000000000415000004000000000000000400000000000001608600000000000000009999123100000010000000000000BRCEEBACNOR3199
012024071902CGAS5       010COMGAS      PNA          R$  000000001163400000000116340000000011530000000001158200000000115300000000011300000000001158000002000000000000000200000000000002316400000000000000009999123100000010000000000000BRCGASACNPA3160
012024071902CSED3       010CRUZEIRO EDUON      NM   R$  000000000040100000000004010000000000386000000000039200000000003860000000000386000000000039200462000000000000218900000000000085836100000000000000009999123100000010000000000000BRCSEDACNOR9104
012024071902CSMG3       010COPASA      ON      NM   R$  000000000203900000000020590000000002021000000000203100000000020320000000002032000000000202204124000000000002666800000000005418139600000000000000009999123100000010000000000000BRCSMGACNOR5174
012024071902CSNA3       010SID NACIONALON           R$  000000000126900000000012740000000001243000000000126000000000012640000000001263000000000126611194000000000006600700000000008317713900000000000000009999123100000010000000000000BRCSNAACNOR6261
012024071902GGPS3       010GPS         ON      NM   R$  000000000172300000000017230000000001691000000000169800000000016950000000001695000000000169903499000000000001294100000000002198043000000000000000009999123100000010000000000000BRGGPSACNOR9103
012024071902AALR3       010ALLIAR      ON      NM   R$  000000000123700000000012390000000001212000000000123200000000012390000000001214000000000123900128000000000000019000000000000023413000000000000000009999123100000010000000000000BRAALRACNOR6102
012024071902ABCB4       010ABC BRASIL  PN      N2   R$  000000000226000000000022870000000002253000000000226800000000022590000000002259000000000226601899000000000000713100000000001617759500000000000000009999123100000010000000000000BRABCBACNPR4146
012024071902LUPA3       010LUPATECH    ON      NM   R$  000000000017400000000001780000000000172000000000017400000000001720000000000172000000000017400100000000000000074800000000000013019600000000000000009999123100000010000000000000BRLUPAACNOR8112
012024071902LVTC3       010WDC NETWORKSON      NM   R$  000000000036600000000003660000000000347000000000035500000000003540000000000350000000000035400061000000000000037100000000000013187500000000000000009999123100000010000000000000BRLVTCACNOR4102
012024071902LWSA3       010LWSA        ON      NM   R$  000000000044100000000004500000000000432000000000043800000000004330000000000433000000000043509899000000000005888000000000002580230000000000000000009999123100000010000000000000BRLWSAACNOR8103
012024071902MTRE3       010MITRE REALTYON      NM   R$  000000000040400000000004080000000000395000000000040100000000004050000000000405000000000040601192000000000000747800000000000300377300000000000000009999123100000010000000000000BRMTREACNOR6112
012024071902MTSA4       010METISA      PN           R$  000000000440000000000044000000000004332000000000435100000000043330000000004332000000000439900015000000000000002300000000000010008600000000000000009999123100000010000000000000BRMTSAACNPR9072
012024071902MULT3       010MULTIPLAN   ON      N2   R$  000000000246000000000024690000000002439000000000245400000000024630000000002462000000000245114179000000000004161400000000010213092800000000000000009999123100000010000000000000BRMULTACNOR5139
012024071902MYPK3       010IOCHP-MAXIONON      NM   R$  000000000119900000000012160000000001186000000000119200000000011880000000001187000000000119402597000000000000675400000000000805621900000000000000009999123100000010000000000000BRMYPKACNOR7155
012024071902PRNR3       010PRINER      ON      NM   R$  000000000107400000000010760000000001055000000000106800000000010710000000001062000000000107100737000000000000120000000000000128202600000000000000009999123100000010000000000000BRPRNRACNOR4109
012024071902PSSA3       010PORTO SEGUROON      NM   R$  000000000310500000000031060000000003024000000000304700000000030310000000003059000000000303103963000000000000915500000000002789622700000000000000009999123100000010000000000000BRPSSAACNOR7155
012024071902SUZB3       010SUZANO S.A. ON      NM   R$  000000000541100000000054140000000005343000000000537400000000053600000000005393000000000536323923000000000006235300000000033512907800000000000000009999123100000010000000000000BRSUZBACNOR0130
012024071902MRSA3B      010MRS LOGIST  ON      MB   R$  000000000290000000000029000000000002900000000000290000000000029000000000002620000000000297900001000000000000000100000000000000290000000000000000009999123100000010000000000000BRMRSAACNOR6125
012024071902MRVE3       010MRV         ON      NM   R$  000000000068200000000006960000000000670000000000068100000000006740000000000673000000000067408950000000000007676400000000005231382800000000000000009999123100000010000000000000BRMRVEACNOR2127
012024071902ROMI3       010ROMI        ON      NM   R$  000000000108000000000010960000000001080000000000108600000000010890000000001085000000000108900948000000000000149900000000000162802700000000000000009999123100000010000000000000BRROMIACNOR8195
012024071902RRRP3       0103R PETROLEUMON      NM   R$  000000000271500000000027670000000002695000000000272200000000027140000000002748000000000271506011000000000002102300000000005723977600000000000000009999123100000010000000000000BRRRRPACNOR5103
012024071902SNSY3       010SANSUY      ON           R$  000000000123000000000012600000000001230000000000123300000000012600000000001220000000000126000004000000000000001000000000000001233000000000000000009999123100000010000000000000BRSNSYACNOR2113
012024071902SNSY5       010SANSUY      PNA          R$  000000000059200000000005920000000000592000000000059200000000005920000000000562000000000058400001000000000000000100000000000000059200000000000000009999123100000010000000000000BRSNSYACNPA5111
012024071902SOJA3       010BOA SAFRA   ON      NM   R$  000000000155100000000015510000000001524000000000153100000000015390000000001535000000000153901201000000000000468600000000000717844400000000000000009999123100000010000000000000BRSOJAACNOR9105
012024071902SOMA3       010GRUPO SOMA  ON      NM   R$  000000000062600000000006390000000000624000000000062800000000006260000000000625000000000062504630000000000002631400000000001654858600000000000000009999123100000010000000000000BRSOMAACNOR3102
012024071902SRNA3       010SERENA      ON      NM   R$  000000000089200000000009000000000000870000000000088200000000008830000000000877000000000088304645000000000001294800000000001142165100000000000000009999123100000010000000000000BRSRNAACNOR4100
012024071902STBP3       010SANTOS BRP  ON      NM   R$  000000000144400000000014720000000001413000000000143200000000014160000000001415000000000141709564000000000004224600000000006051744400000000000000009999123100000010000000000000BRSTBPACNOR3130
012024071902ZAMP3       010ZAMP S.A.   ON           R$  000000000034500000000003490000000000336000000000033900000000003390000000000339000000000034001253000000000000255700000000000086925900000000000000009999123100000010000000000000BRZAMPACNOR5100
012024071902ITSA3       010ITAUSA      ON      N1   R$  000000000102200000000010370000000001022000000000103200000000010340000000001034000000000103700428000000000000091600000000000094597300000000000000009999123100000010000000000000BRITSAACNOR0441
012024071902ITSA4       010ITAUSA      PN      N1   R$  000000000102700000000010400000000001027000000000103500000000010360000000001035000000000103618360000000000013732900000000014219904000000000000000009999123100000010000000000000BRITSAACNPR7441
012024071902KRSA3       010KORA SAUDE  ON      NM   R$  000000000007100000000000710000000000068000000000006900000000000710000000000070000000000007100094000000000000311100000000000021514400000000000000009999123100000010000000000000BRKRSAACNOR0100
012024071902LAND3       010TERRASANTAPAON      NM   R$  000000000145700000000014570000000001416000000000142900000000014250000000001408000000000142800234000000000000027300000000000039022800000000000000009999123100000010000000000000BRLANDACNOR9103
012024071902LAVV3       010LAVVI       ON      NM   R$  000000000093000000000009320000000000910000000000091800000000009180000000000918000000000091901368000000000000335500000000000308109300000000000000009999123100000010000000000000BRLAVVACNOR4112
012024071902LEVE3       010METAL LEVE  ON      NM   R$  000000000334600000000033680000000003305000000000333000000000033290000000003313000000000333000982000000000000178500000000000594527400000000000000009999123100000010000000000000BRLEVEACNOR2197
012024071902LIPR3       010ELETROPAR   ON           R$  000000000486200000000048620000000004862000000000486200000000048620000000000000000000000530000001000000000000000100000000000000486200000000000000009999123100000010000000000000BRLIPRACNOR7122
012024071902LJQQ3       010QUERO-QUERO ON      NM   R$  000000000041500000000004250000000000408000000000041400000000004090000000000420000000000041104695000000000001618700000000000670693400000000000000009999123100000010000000000000BRLJQQACNOR5104
012024071902LOGG3       010LOG COM PROPON      NM   R$  000000000234000000000023780000000002292000000000232600000000023150000000002291000000000231501030000000000000145800000000000339152800000000000000009999123100000010000000000000BRLOGGACNOR7107
012024071902SCAR3       010SAO CARLOS  ON      NM   R$  000000000225400000000022540000000002212000000000224500000000022120000000002212000000000227900028000000000000004200000000000009432700000000000000009999123100000010000000000000BRSCARACNOR7131
012024071902SEER3       010SER EDUCA   ON      NM   R$  000000000053200000000005340000000000515000000000052200000000005160000000000516000000000052001576000000000000376900000000000196868400000000000000009999123100000010000000000000BRSEERACNOR5119
012024071902SEQL3       010SEQUOIA LOG ON      NM   R$  000000000043600000000004430000000000416000000000042300000000004180000000000418000000000042200561000000000000274200000000000116050800000000000000009999123100000010000000000000BRSEQLACNOR2103
012024071902SHOW3       010TIME FOR FUNON      NM   R$  000000000016600000000001660000000000159000000000016100000000001620000000000161000000000016200300000000000000104000000000000016769900000000000000009999123100000010000000000000BRSHOWACNOR7105
012024071902SHUL4       010SCHULZ      PN           R$  000000000066700000000006690000000000654000000000065900000000006540000000000653000000000065400304000000000000160000000000000105504000000000000000009999123100000010000000000000BRSHULACNPR4156
012024071902SIMH3       010SIMPAR      ON      NM   R$  000000000063600000000006580000000000630000000000064300000000006370000000000635000000000063706078000000000002560200000000001646320900000000000000009999123100000010000000000000BRSIMHACNOR0107
012024071902TPIS3       010TRIUNFO PARTON      NM   R$  000000000038000000000003870000000000378000000000038400000000003780000000000378000000000038300037000000000000015000000000000005771000000000000000009999123100000010000000000000BRTPISACNOR8118
012024071902TRAD3       010TC          ON      NM   R$  000000000006000000000000600000000000051000000000005400000000000520000000000051000000000005200317000000000001159500000000000062808500000000000000009999123100000010000000000000BRTRADACNOR3101
012024071902TRIS3       010TRISUL      ON      NM   R$  000000000050200000000005150000000000502000000000050600000000005050000000000504000000000050800506000000000000206000000000000104314000000000000000009999123100000010000000000000BRTRISACNOR4118
012024071902TRPL3       010TRAN PAULISTON      N1   R$  000000000320000000000032320000000003179000000000319600000000031800000000003179000000000325700035000000000000005300000000000016943600000000000000009999123100000010000000000000BRTRPLACNOR4185
012024071902TRPL4       010TRAN PAULISTPN      N1   R$  000000000244000000000025150000000002415000000000246200000000024550000000002492000000000243750176000000000022609500000000055664612700000000000000009999123100000010000000000000BRTRPLACNPR1185
012024071902GEPA4       010GER PARANAP PN           R$  000000000262500000000026480000000002600000000000261600000000026250000000002601000000000264900005000000000000000600000000000001569800000000000000009999123100000010000000000000BRGEPAACNPR9160
012024071902GFSA3       010GAFISA      ON      NM   R$  000000000035800000000003580000000000342000000000034800000000003470000000000346000000000034802260000000000002141800000000000746132600000000000000009999123100000010000000000000BRGFSAACNOR3124
012024071902GGBR3       010GERDAU      ON      N1   R$  000000000165800000000016590000000001633000000000165000000000016570000000001650000000000165700119000000000000018700000000000030860900000000000000009999123100000010000000000000BRGGBRACNOR1192
012024071902GGBR4       010GERDAU      PN      N1   R$  000000000186300000000018870000000001861000000000187600000000018790000000001879000000000188120361000000000007680000000000014408526000000000000000009999123100000010000000000000BRGGBRACNPR8192
012024071902PCAR3       010P.ACUCAR-CBDON      NM   R$  000000000029300000000002990000000000282000000000029000000000002910000000000290000000000029112672000000000018734600000000005443686900000000000000009999123100000010000000000000BRPCARACNOR3167
012024071902RAIZ4       010RAIZEN      PN      N2   R$  000000000031200000000003160000000000306000000000030900000000003060000000000306000000000030709023000000000011699900000000003618197700000000000000009999123100000010000000000000BRRAIZACNPR6110
012024071902RANI3       010IRANI       ON      NM   R$  000000000088600000000008920000000000883000000000088700000000008900000000000886000000000089001214000000000000416700000000000369735500000000000000009999123100000010000000000000BRRANIACNOR5072
012024071902JALL3       010JALLESMACHADON      NM   R$  000000000074600000000007540000000000735000000000074100000000007400000000000736000000000074001253000000000000295000000000000218677100000000000000009999123100000010000000000000BRJALLACNOR0105
012024071902JBSS3       010JBS         ON      NM   R$  000000000314500000000031880000000003097000000000312900000000031220000000003122000000000311013201000000000008048900000000025192921900000000000000009999123100000010000000000000BRJBSSACNOR8121
012024071902ODPV3       010ODONTOPREV  ON      NM   R$  000000000117700000000011940000000001170000000000118100000000011940000000001186000000000119402750000000000000535500000000000632769200000000000000009999123100000010000000000000BRODPVACNOR4202
012024071902OFSA3       010OUROFINO S/AON      NM   R$  000000000194800000000019480000000001948000000000194800000000019480000000001902000000000192500001000000000000000100000000000000194800000000000000009999123100000010000000000000BROFSAACNOR7118
012024071902ONCO3       010ONCOCLINICASON      NM   R$  000000000071000000000007240000000000707000000000071400000000007150000000000707000000000071507249000000000001677100000000001198804200000000000000009999123100000010000000000000BRONCOACNOR6101
012024071902OPCT3       010OCEANPACT   ON      NM   R$  000000000064600000000006630000000000642000000000064700000000006420000000000642000000000064700719000000000000313900000000000203386000000000000000009999123100000010000000000000BROPCTACNOR0100
012024071902ORVR3       010ORIZON      ON      NM   R$  000000000420800000000043160000000004207000000000425900000000042620000000004262000000000426302248000000000000392900000000001673633200000000000000009999123100000010000000000000BRORVRACNOR0101
012024071902CVCB3       010CVC BRASIL  ON      NM   R$  000000000018800000000001920000000000185000000000018700000000001870000000000187000000000018804188000000000010532800000000001977255200000000000000009999123100000010000000000000BRCVCBACNOR1116
012024071902GOAU3       010GERDAU MET  ON      N1   R$  000000000111400000000011160000000001105000000000111100000000011110000000001111000000000111500075000000000000009300000000000010341100000000000000009999123100000010000000000000BRGOAUACNOR1267
012024071902GOAU4       010GERDAU MET  PN      N1   R$  000000000109900000000011100000000001098000000000110200000000011060000000001102000000000110307624000000000003534400000000003898236900000000000000009999123100000010000000000000BRGOAUACNPR8268
012024071902RADL3       010RAIADROGASILON      NM   R$  000000000258900000000026230000000002560000000000259500000000025770000000002577000000000258810778000000000006640900000000017238138600000000000000009999123100000010000000000000BRRADLACNOR0157
012024071902RAIL3       010RUMO S.A.   ON      NM   R$  000000000227900000000022940000000002253000000000227000000000022560000000002256000000000225711588000000000005186300000000011775471700000000000000009999123100000010000000000000BRRAILACNOR9105
012024071902SAPR11      010SANEPAR     UNT     N2   R$  000000000266700000000026700000000002614000000000263000000000026190000000002618000000000262103699000000000001715800000000004513291000000000000000009999123100000010000000000000BRSAPRCDAM13118
012024071902SAPR3       010SANEPAR     ON      N2   R$  000000000050100000000005100000000000500000000000050200000000005000000000000500000000000050400648000000000000182500000000000091729800000000000000009999123100000010000000000000BRSAPRACNOR9159
012024071902SAPR4       010SANEPAR     PN      N2   R$  000000000053900000000005400000000000532000000000053500000000005330000000000533000000000053601955000000000000844400000000000451764000000000000000009999123100000010000000000000BRSAPRACNPR6159
012024071902SBFG3       010GRUPO SBF   ON      NM   R$  000000000138100000000014120000000001364000000000138200000000013700000000001370000000000137203726000000000001056600000000001460750300000000000000009999123100000010000000000000BRSBFGACNOR1103
012024071902SBSP3       010SABESP      ON      NM   R$  000000000808000000000085100000000008059000000000830000000000084900000000008477000000000835005490000000000047002900000000390124385900000000000000009999123100000010000000000000BRSBSPACNOR5161
012024071902SYNE3       010SYN PROP TECON      NM   R$  000000000101400000000010370000000001013000000000102400000000010210000000001021000000000102300489000000000000170700000000000174930600000000000000009999123100000010000000000000BRSYNEACNOR2102
012024071902VSTE3       010VESTE       ON      NM   R$  000000000138000000000013800000000001380000000000138000000000013800000000001381000000000142200006000000000000000600000000000000828100000000000000009999123100000010000000000000BRVSTEACNOR5103
012024071902VTRU3       010VITRUEDUCA  ON      NM   R$  000000000135100000000013510000000001307000000000132300000000013260000000001320000000000132600252000000000000041100000000000054391900000000000000009999123100000010000000000000BRVTRUACNOR3100
012024071902VULC3       010VULCABRAS   ON      NM   R$  000000000158400000000015960000000001554000000000156500000000015620000000001559000000000156201457000000000000279500000000000437666700000000000000009999123100000010000000000000BRVULCACNOR2159
012024071902VVEO3       010VIVEO       ON      NM   R$  000000000023200000000002430000000000232000000000023800000000002370000000000237000000000023804822000000000002041100000000000486168300000000000000009999123100000010000000000000BRVVEOACNOR0104
012024071902WEGE3       010WEG         ON      NM   R$  000000000477000000000047920000000004713000000000473500000000047290000000004720000000000472812778000000000004210800000000019940521200000000000000009999123100000010000000000000BRWEGEACNOR0223
012024071902NTCO3       010GRUPO NATURAON      NM   R$  000000000153000000000015340000000001493000000000151000000000015070000000001506000000000150808913000000000006625900000000010008060100000000000000009999123100000010000000000000BRNTCOACNOR5106
012024071902PTBL3       010PORTOBELLO  ON      NM   R$  000000000047300000000004870000000000473000000000047900000000004770000000000477000000000047901009000000000000180400000000000086508400000000000000009999123100000010000000000000BRPTBLACNOR8132
012024071902PTNT3       010PETTENATI   ON           R$  000000000096600000000009800000000000966000000000097500000000009800000000000944000000000098000003000000000000000300000000000000292600000000000000009999123100000010000000000000BRPTNTACNOR6042
012024071902PTNT4       010PETTENATI   PN           R$  000000000063100000000006400000000000631000000000063600000000006400000000000612000000000064000004000000000000000700000000000000445300000000000000009999123100000010000000000000BRPTNTACNPR3047
012024071902BBSE3       010BBSEGURIDADEON      NM   R$  000000000343500000000034510000000003400000000000341600000000034100000000003409000000000341208083000000000002388700000000008160874400000000000000009999123100000010000000000000BRBBSEACNOR5124
012024071902BRSR3       010BANRISUL    ON      N1   R$  000000000126000000000012600000000001246000000000125200000000012460000000001245000000000125300008000000000000001100000000000001377900000000000000009999123100000010000000000000BRBRSRACNOR3188
012024071902BRSR6       010BANRISUL    PNB     N1   R$  000000000117500000000011950000000001163000000000117400000000011700000000001168000000000117101771000000000000710800000000000835081500000000000000009999123100000010000000000000BRBRSRACNPB4191
012024071902BEEF3       010MINERVA     ON      NM   R$  000000000066000000000006630000000000648000000000065300000000006550000000000654000000000055404692000000000004104600000000002681694900000000000000009999123100000010000000000000BRBEEFACNOR6116
012024071902FIQE3       010UNIFIQUE    ON      NM   R$  000000000034000000000003400000000000334000000000033600000000003380000000000336000000000033800672000000000000467600000000000157170800000000000000009999123100000010000000000000BRFIQEACNOR5107
012024071902FLRY3       010FLEURY      ON      NM   R$  000000000153100000000015610000000001531000000000155300000000015610000000001549000000000154814255000000000002900400000000004506439200000000000000009999123100000010000000000000BRFLRYACNOR5138
012024071902FRAS3       010FRAS-LE     ON      N1   R$  000000000203800000000020540000000002035000000000204400000000020490000000002041000000000205001076000000000000331600000000000677890400000000000000009999123100000010000000000000BRFRASACNOR0159
012024071902VITT3       010VITTIA      ON      NM   R$  000000000059900000000006150000000000598000000000060100000000006150000000000598000000000061501609000000000000341700000000000205698500000000000000009999123100000010000000000000BRVITTACNOR4107
012024071902VIVA3       010VIVARA S.A. ON      NM   R$  000000000228500000000023100000000002247000000000227100000000022540000000002250000000000225507443000000000001572400000000003571105700000000000000009999123100000010000000000000BRVIVAACNOR0107
012024071902VIVR3       010VIVER       ON      NM   R$  000000000024000000000002470000000000235000000000023900000000002390000000000236000000000024000204000000000000027900000000000006694800000000000000009999123100000010000000000000BRVIVRACNOR4123
012024071902VIVT3       010TELEF BRASILON           R$  000000000492400000000049840000000004885000000000492000000000049030000000004900000000000490606383000000000002367600000000011648671300000000000000009999123100000010000000000000BRVIVTACNOR0182
012024071902VBBR3       010VIBRA       ON      NM   R$  000000000231800000000023410000000002306000000000232000000000023090000000002307000000000231615735000000000003390600000000007867979500000000000000009999123100000010000000000000BRVBBRACNOR1108
012024071902CAMB3       010CAMBUCI     ON           R$  000000000112000000000011230000000001107000000000111400000000011150000000001115000000000112000082000000000000036700000000000040889100000000000000009999123100000010000000000000BRCAMBACNOR4130
012024071902CAML3       010CAMIL       ON      NM   R$  000000000088700000000008950000000000884000000000088700000000008870000000000887000000000088901418000000000000250800000000000222606000000000000000009999123100000010000000000000BRCAMLACNOR3128
012024071902CASH3       010MELIUZ      ON      NM   R$  000000000057500000000005870000000000572000000000057900000000005790000000000579000000000058201531000000000000880400000000000510053200000000000000009999123100000010000000000000BRCASHACNOR8106
012024071902CRPG5       010CRISTAL     PNA          R$  000000000299600000000030250000000002930000000000296200000000030250000000002990000000000304600018000000000000001900000000000005628400000000000000009999123100000010000000000000BRCRPGACNPA3119
012024071902CRPG6       010CRISTAL     PNB          R$  000000000299900000000029990000000002999000000000299900000000029990000000002951000000000304900002000000000000000300000000000000899700000000000000009999123100000010000000000000BRCRPGACNPB1119
012024071902CSAN3       010COSAN       ON      NM   R$  000000000138100000000014080000000001380000000000139400000000014030000000001402000000000140411315000000000007336700000000010231067500000000000000009999123100000010000000000000BRCSANACNOR6126
012024071902EKTR4       010ELEKTRO     PN           R$  000000000395100000000039550000000003940000000000395000000000039400000000003912000000000395500006000000000000000800000000000003160600000000000000009999123100000010000000000000BREKTRACNPR7163
012024071902ELET3       010ELETROBRAS  ON      N1   R$  000000000379000000000037900000000003680000000000371300000000037090000000003709000000000371220198000000000006336300000000023528476800000000000000009999123100000010000000000000BRELETACNOR6160
012024071902ELET6       010ELETROBRAS  PNB     N1   R$  000000000421900000000042350000000004127000000000415700000000041440000000004140000000000414402801000000000000667500000000002775186600000000000000009999123100000010000000000000BRELETACNPB7077
012024071902BRIT3       010BRISANET    ON      NM   R$  000000000043400000000004400000000000426000000000042900000000004310000000000429000000000043200290000000000000210000000000000090254800000000000000009999123100000010000000000000BRBRITACNOR0103
012024071902BRKM3       010BRASKEM     ON      N1   R$  000000000184500000000018480000000001810000000000182500000000018260000000001801000000000184800023000000000000002900000000000005292500000000000000009999123100000010000000000000BRBRKMACNOR1119
012024071902BRKM5       010BRASKEM     PNA     N1   R$  000000000185200000000018590000000001792000000000181800000000018320000000001822000000000183206174000000000002106800000000003831971500000000000000009999123100000010000000000000BRBRKMACNPA4121
012024071902CPLE6       010COPEL       PNB     N2   R$  000000000101400000000010220000000001001000000000100900000000010070000000001006000000000100813721000000000009729800000000009821907400000000000000009999123100000010000000000000BRCPLEACNPB9146
012024071902BRBI11      010BR PARTNERS UNT     N2   R$  000000000145400000000014790000000001440000000000145300000000014500000000001441000000000145000724000000000000129300000000000187978100000000000000009999123100000010000000000000BRBRBICDAM10109
012024071902BRFS3       010BRF SA      ON      NM   R$  000000000209500000000021230000000002036000000000207800000000020990000000002099000000000204922340000000000012505600000000025997113400000000000000009999123100000010000000000000BRBRFSACNOR8122
012024071902QUAL3       010QUALICORP   ON      NM   R$  000000000016500000000001670000000000161000000000016300000000001620000000000162000000000016301599000000000002940500000000000480789900000000000000009999123100000010000000000000BRQUALACNOR6120
012024071902RSUL4       010RIOSULENSE  PN           R$  000000000664900000000066490000000006480000000000651100000000064890000000006352000000000649000019000000000000002100000000000013674400000000000000009999123100000010000000000000BRRSULACNPR3114
012024071902DASA3       010DASA        ON      NM   R$  000000000035000000000003630000000000341000000000034900000000003510000000000350000000000035101556000000000001461400000000000511208800000000000000009999123100000010000000000000BRDASAACNOR1122
012024071902ENJU3       010ENJOEI      ON      NM   R$  000000000019900000000002010000000000188000000000019200000000001890000000000189000000000019000379000000000000573200000000000110193100000000000000009999123100000010000000000000BRENJUACNOR9100
012024071902ENMT4       010ENERGISA MT PN           R$  000000000786700000000078670000000007867000000000786700000000078670000000007225000000000786800003000000000000000300000000000002360100000000000000009999123100000010000000000000BRENMTACNPR2126
012024071902EPAR3       010EMBPAR S/A  ON           R$  000000000060900000000006240000000000585000000000060400000000005900000000000587000000000059500033000000000000010600000000000006410300000000000000009999123100000010000000000000BREPARACNOR9105
012024071902EQMA3B      010EQTLMARANHAOON      MB   R$  000000000259700000000025970000000002550000000000257300000000025500000000002525000000000255000002000000000000000200000000000000514700000000000000009999123100000010000000000000BREQMAACNOR8108
012024071902EQPA3       010EQTL PARA   ON           R$  000000000074200000000007430000000000721000000000073600000000007340000000000718000000000073500013000000000000001300000000000000957700000000000000009999123100000010000000000000BREQPAACNOR1111
012024071902EQTL3       010EQUATORIAL  ON      NM   R$  000000000327900000000033190000000003226000000000325700000000032490000000003245000000000324033740000000000010915900000000035557541100000000000000009999123100000010000000000000BREQTLACNOR0130
012024071902HAGA3       010HAGA S/A    ON           R$  000000000026700000000002720000000000267000000000026800000000002720000000000267000000000027200018000000000000002100000000000000564700000000000000009999123100000010000000000000BRHAGAACNOR7103
012024071902HAGA4       010HAGA S/A    PN           R$  000000000011600000000001160000000000115000000000011500000000001160000000000115000000000011700006000000000000003400000000000000393200000000000000009999123100000010000000000000BRHAGAACNPR4103
012024071902HAPV3       010HAPVIDA     ON      NM   R$  000000000039800000000004020000000000389000000000039400000000003890000000000389000000000039014193000000000036629900000000014441252800000000000000009999123100000010000000000000BRHAPVACNOR4114
012024071902HBOR3       010HELBOR      ON      NM   R$  000000000022500000000002300000000000221000000000022500000000002250000000000225000000000022600381000000000000251000000000000056495100000000000000009999123100000010000000000000BRHBORACNOR3118
012024071902HBRE3       010HBR REALTY  ON      NM   R$  000000000056200000000005690000000000555000000000056200000000005600000000000557000000000056000771000000000000277500000000000156155100000000000000009999123100000010000000000000BRHBREACNOR4100
012024071902ANIM3       010ANIMA       ON  ATZ NM   R$  000000000035600000000003570000000000340000000000034700000000003480000000000348000000000034908368000000000007523900000000002613751000000000000000009999123100000010000000000000BRANIMACNOR6108
012024071902ARML3       010ARMAC       ON      NM   R$  000000000097900000000010050000000000967000000000097900000000009750000000000975000000000097604414000000000001053700000000001032062400000000000000009999123100000010000000000000BRARMLACNOR1112
012024071902ARZZ3       010AREZZO CO   ON  ED  NM   R$  000000000520000000000053320000000005200000000000525700000000052290000000005224000000000522904876000000000000807800000000004246754700000000000000009999123100000010000000000000BRARZZACNOR3147
012024071902BEES3       010BANESTES    ON           R$  000000000090100000000009040000000000901000000000090200000000009020000000000901000000000090200030000000000000004100000000000003699800000000000000009999123100000010000000000000BRBEESACNOR9393
012024071902BEES4       010BANESTES    PN           R$  000000000097000000000009720000000000970000000000097100000000009720000000000961000000000097200005000000000000001400000000000001359700000000000000009999123100000010000000000000BRBEESACNPR6318
012024071902BMEB3       010MERCANTIL   ON      N1   R$  000000000275000000000027500000000002750000000000275000000000027500000000002655000000000289800002000000000000000200000000000000550000000000000000009999123100000010000000000000BRBMEBACNOR8205
012024071902BMEB4       010MERCANTIL   PN      N1   R$  000000000302400000000031620000000002980000000000306300000000031000000000003015000000000307000046000000000000006700000000000020523400000000000000009999123100000010000000000000BRBMEBACNPR5210
012024071902BMGB4       010BANCO BMG   PN      N1   R$  000000000036600000000003730000000000366000000000037000000000003730000000000374000000000037301563000000000000595200000000000220442300000000000000009999123100000010000000000000BRBMGBACNPR0109
012024071902BMIN4       010MERC INVEST PN           R$  000000000156000000000015600000000001560000000000156000000000015600000000001530000000000161100001000000000000000500000000000000780000000000000000009999123100000010000000000000BRBMINACNPR1176
012024071902BMKS3       010BIC MONARK  ON           R$  000000003300000000000330000000000032915000000003298700000000329150000000032916000000003490000007000000000000000075000000000002474065000000000000009999123100000010000000000000BRBMKSACNOR9166
012024071902BMOB3       010BEMOBI TECH ON      NM   R$  000000000146000000000014900000000001448000000000147900000000014740000000001468000000000147500927000000000000195900000000000289861700000000000000009999123100000010000000000000BRBMOBACNOR7103
012024071902ASAI3       010ASSAI       ON      NM   R$  000000000104400000000010670000000001042000000000105400000000010540000000001052000000000105520626000000000009806100000000010341372600000000000000009999123100000010000000000000BRASAIACNOR0106
012024071902ATOM3       010ATOMPAR     ON           R$  000000000019900000000002030000000000198000000000019900000000002030000000000203000000000020400015000000000000003300000000000000659700000000000000009999123100000010000000000000BRATOMACNOR1106
012024071902AURE3       010AUREN       ON      NM   R$  000000000123700000000012480000000001225000000000123500000000012350000000001232000000000123504492000000000002376700000000002936769300000000000000009999123100000010000000000000BRAUREACNOR9104
012024071902BBDC3       010BRADESCO    ON      N1   R$  000000000115200000000011610000000001144000000000114900000000011460000000001146000000000114710345000000000005548100000000006376222500000000000000009999123100000010000000000000BRBBDCACNOR1772
012024071902BBDC4       010BRADESCO    PN      N1   R$  000000000126500000000012700000000001249000000000125200000000012490000000001249000000000125017873000000000031721300000000039745520800000000000000009999123100000010000000000000BRBBDCACNPR8772
012024071902BOBR4       010BOMBRIL     PN           R$  000000000021100000000002110000000000205000000000020600000000002060000000000205000000000020600025000000000000007300000000000001504100000000000000009999123100000010000000000000BRBOBRACNPR3128
012024071902BGIP4       010BANESE      PN           R$  000000000229800000000022980000000002298000000000229800000000022980000000002298000000000229900001000000000000000100000000000000229800000000000000009999123100000010000000000000BRBGIPACNPR8208
012024071902CPFE3       010CPFL ENERGIAON      NM   R$  000000000333900000000033470000000003266000000000328700000000032880000000003286000000000328807403000000000001687100000000005545754400000000000000009999123100000010000000000000BRCPFEACNOR0137
012024071902CPLE3       010COPEL       ON      N2   R$  000000000089200000000009050000000000887000000000089300000000008940000000000891000000000089509133000000000020701900000000018497018800000000000000009999123100000010000000000000BRCPLEACNOR8149
012024071902DESK3       010DESKTOP     ON      NM   R$  000000000156400000000015980000000001539000000000156100000000015390000000001539000000000154100490000000000000130100000000000203112100000000000000009999123100000010000000000000BRDESKACNOR2104
012024071902DEXP3       010DEXXOS PAR  ON      N1   R$  000000000101500000000010280000000000990000000000100700000000010050000000001002000000000100500327000000000000085300000000000085969500000000000000009999123100000010000000000000BRDEXPACNOR1105
012024071902DEXP4       010DEXXOS PAR  PN      N1   R$  000000000101900000000010200000000001005000000000101400000000010050000000001003000000000101200003000000000000000300000000000000304400000000000000009999123100000010000000000000BRDEXPACNPR8105
012024071902DIRR3       010DIRECIONAL  ON      NM   R$  000000000280700000000028580000000002794000000000283700000000028410000000002840000000000282806586000000000001165900000000003307759400000000000000009999123100000010000000000000BRDIRRACNOR0118
012024071902DMVF3       010D1000VFARMA ON      NM   R$  000000000077600000000007970000000000776000000000078800000000007880000000000788000000000079200189000000000000051000000000000040235100000000000000009999123100000010000000000000BRDMVFACNOR9100
012024071902DOTZ3       010DOTZ SA     ON      NM   R$  000000000063700000000006660000000000637000000000065100000000006650000000000647000000000066200039000000000000008900000000000005800600000000000000009999123100000010000000000000BRDOTZACNOR7101
012024071902DXCO3       010DEXCO       ON      NM   R$  000000000068000000000007110000000000678000000000070000000000007080000000000705000000000070805700000000000004476000000000003136550500000000000000009999123100000010000000000000BRDXCOACNOR8105
012024071902EALT4       010ACO ALTONA  PN           R$  000000000114200000000011680000000001132000000000114400000000011440000000001130000000000114500027000000000000003900000000000004462300000000000000009999123100000010000000000000BREALTACNPR1138
012024071902ECOR3       010ECORODOVIAS ON      NM   R$  000000000071200000000007240000000000706000000000071300000000007100000000000710000000000071106284000000000008166500000000005825383100000000000000009999123100000010000000000000BRECORACNOR8120
012024071902ESPA3       010ESPACOLASER ON      NM   R$  000000000010500000000001050000000000103000000000010300000000001050000000000103000000000010500146000000000000358800000000000037257000000000000000009999123100000010000000000000BRESPAACNOR7103
012024071902ESTR4       010ESTRELA     PN           R$  000000000019800000000001990000000000198000000000019800000000001990000000000198000000000019900005000000000000000900000000000000178300000000000000009999123100000010000000000000BRESTRACNPR0144
012024071902EUCA3       010EUCATEX     ON      N1   R$  000000000162600000000016260000000001626000000000162600000000016260000000001646000000000169600002000000000000000200000000000000325200000000000000009999123100000010000000000000BREUCAACNOR1157
012024071902EUCA4       010EUCATEX     PN      N1   R$  000000000162100000000016270000000001600000000000161000000000016150000000001600000000000161700126000000000000021900000000000035267000000000000000009999123100000010000000000000BREUCAACNPR8044
012024071902EVEN3       010EVEN        ON      NM   R$  000000000063800000000006420000000000628000000000063200000000006320000000000630000000000063202155000000000000460500000000000291431800000000000000009999123100000010000000000000BREVENACNOR8119
012024071902EZTC3       010EZTEC       ON      NM   R$  000000000142200000000014520000000001415000000000143400000000014230000000001421000000000142408069000000000002373200000000003404804200000000000000009999123100000010000000000000BREZTCACNOR0125
012024071902HBSA3       010HIDROVIAS   ON      NM   R$  000000000039000000000003960000000000377000000000038100000000003770000000000377000000000037802884000000000004741700000000001808180000000000000000009999123100000010000000000000BRHBSAACNOR0100
012024071902CRFB3       010CARREFOUR BRON      NM   R$  000000000102800000000010370000000001014000000000102200000000010250000000001024000000000102507561000000000005192800000000005309103400000000000000009999123100000010000000000000BRCRFBACNOR2116
012024071902EGIE3       010ENGIE BRASILON      NM   R$  000000000462100000000046390000000004526000000000456100000000045600000000004552000000000456005469000000000001347200000000006145683800000000000000009999123100000010000000000000BREGIEACNOR9126
012024071902FESA3       010FERBASA     ON      N1   R$  000000000133500000000013350000000001335000000000133500000000013350000000001300000000000133500008000000000000001400000000000001869000000000000000009999123100000010000000000000BRFESAACNOR8188
012024071902FESA4       010FERBASA     PN      N1   R$  000000000088400000000008860000000000860000000000086800000000008620000000000862000000000073501335000000000000409900000000000356083100000000000000009999123100000010000000000000BRFESAACNPR5084
012024071902FHER3       010FER HERINGERON      NM   R$  000000000040500000000004170000000000400000000000040400000000004150000000000400000000000041600027000000000000004900000000000001979600000000000000009999123100000010000000000000BRFHERACNOR5103
012024071902HYPE3       010HYPERA      ON      NM   R$  000000000283500000000028500000000002803000000000282100000000028370000000002826000000000282909978000000000006045000000000017057183600000000000000009999123100000010000000000000BRHYPEACNOR0142
012024071902LOGN3       010LOG-IN      ON      NM   R$  000000000407900000000041020000000003952000000000401900000000040300000000003984000000000403000112000000000000035400000000000142279000000000000000009999123100000010000000000000BRLOGNACNOR3105
012024071902LPSB3       010LOPES BRASILON      NM   R$  000000000019000000000001950000000000183000000000019000000000001860000000000186000000000019100177000000000000094300000000000017938000000000000000009999123100000010000000000000BRLPSBACNOR0114
012024071902LREN3       010LOJAS RENNERON      NM   R$  000000000132500000000013460000000001305000000000131700000000013050000000001304000000000130611364000000000009526700000000012546853800000000000000009999123100000010000000000000BRLRENACNOR1221
012024071902MRFG3       010MARFRIG     ON      NM   R$  000000000112100000000011320000000001079000000000110900000000011200000000001124000000000110418241000000000011164200000000012387723300000000000000009999123100000010000000000000BRMRFGACNOR0116
012024071902PRIO3       010PETRORIO    ON  ATZ NM   R$  000000000454800000000045760000000004511000000000453900000000045290000000004540000000000453313296000000000004093200000000018579200200000000000000009999123100000010000000000000BRPRIOACNOR1107
012024071902SMFT3       010SMART FIT   ON      NM   R$  000000000226100000000022610000000002205000000000223700000000022360000000002218000000000223606192000000000002036400000000004556828100000000000000009999123100000010000000000000BRSMFTACNOR1112
012024071902SMTO3       010SAO MARTINHOON      NM   R$  000000000322000000000032690000000003141000000000317600000000031820000000003182000000000318309996000000000001698300000000005394441400000000000000009999123100000010000000000000BRSMTOACNOR3126
012024071902MILS3       010MILLS       ON      NM   R$  000000000115000000000011500000000001123000000000112900000000011270000000001124000000000112701833000000000000555600000000000627292400000000000000009999123100000010000000000000BRMILSACNOR2127
012024071902MLAS3       010MULTILASER  ON      NM   R$  000000000020100000000002060000000000195000000000019800000000001960000000000196000000000019702589000000000003300800000000000654932400000000000000009999123100000010000000000000BRMLASACNOR9101
012024071902MNPR3       010MINUPAR     ON           R$  000000000132000000000013200000000001320000000000131700000000013200000000001231000000000131000002000000000000001300000000000001713000000000000000009999123100000010000000000000BRMNPRACNOR5122
012024071902MOVI3       010MOVIDA      ON      NM   R$  000000000062600000000006480000000000608000000000062400000000006080000000000607000000000060906491000000000004951400000000003091125600000000000000009999123100000010000000000000BRMOVIACNOR0122
012024071902PFRM3       010PROFARMA    ON      NM   R$  000000000054100000000005590000000000537000000000055200000000005530000000000550000000000055300723000000000000138200000000000076348500000000000000009999123100000010000000000000BRPFRMACNOR1116
012024071902PGMN3       010PAGUE MENOS ON      NM   R$  000000000028000000000002910000000000276000000000027900000000002780000000000278000000000027901042000000000000698400000000000195221500000000000000009999123100000010000000000000BRPGMNACNOR8103
012024071902PINE3       010PINE        ON      N2   R$  000000000053900000000005390000000000539000000000053900000000005390000000000531000000000053800001000000000000000100000000000000053900000000000000009999123100000010000000000000BRPINEACNOR1150
012024071902PINE4       010PINE        PN      N2   R$  000000000042200000000004280000000000417000000000042000000000004230000000000422000000000042300374000000000000114700000000000048281900000000000000009999123100000010000000000000BRPINEACNPR8150
012024071902PLPL3       010PLANOEPLANO ON      NM   R$  000000000112200000000011320000000001096000000000111100000000011050000000001105000000000110601563000000000000621700000000000691090400000000000000009999123100000010000000000000BRPLPLACNOR5104
012024071902PNVL3       010DIMED       ON      NM   R$  000000000098100000000010050000000000981000000000098900000000009900000000000989000000000099003445000000000000447300000000000442470500000000000000009999123100000010000000000000BRPNVLACNOR9207
012024071902POMO3       010MARCOPOLO   ON      N2   R$  000000000051400000000005190000000000512000000000051500000000005120000000000510000000000051500395000000000000093800000000000048328500000000000000009999123100000010000000000000BRPOMOACNOR0098
012024071902POMO4       010MARCOPOLO   PN      N2   R$  000000000066100000000006690000000000653000000000065900000000006590000000000655000000000065207239000000000003612300000000002380579000000000000000009999123100000010000000000000BRPOMOACNPR7098
012024071902PORT3       010WILSON SONS ON  ED  NM   R$  000000000158100000000015950000000001575000000000158300000000015810000000001581000000000158200764000000000000289400000000000458140300000000000000009999123100000010000000000000BRPORTACNOR8109
012024071902POSI3       010POSITIVO TECON      NM   R$  000000000074700000000007530000000000739000000000074400000000007400000000000739000000000074102968000000000001344100000000001001064500000000000000009999123100000010000000000000BRPOSIACNOR9116
012024071902RECV3       010PETRORECSA  ON      NM   R$  000000000208300000000021150000000002079000000000209700000000021000000000002100000000000210205927000000000002109700000000004426138400000000000000009999123100000010000000000000BRRECVACNOR3107
012024071902REDE3       010REDE ENERGIAON           R$  000000000069500000000006980000000000690000000000069100000000006910000000000692000000000069500009000000000000001800000000000001245100000000000000009999123100000010000000000000BRREDEACNOR7128
012024071902GMAT3       010GRUPO MATEUSON      NM   R$  000000000071400000000007250000000000711000000000071600000000007120000000000711000000000071304588000000000002250900000000001613731800000000000000009999123100000010000000000000BRGMATACNOR7102
012024071902IFCM3       010INFRACOMM   ON      NM   R$  000000000003500000000000360000000000034000000000003400000000000350000000000034000000000003505087000000000004225400000000000146724800000000000000009999123100000010000000000000BRIFCMACNOR8101
012024071902RENT3       010LOCALIZA    ON      NM   R$  000000000434700000000043980000000004309000000000435600000000043410000000004350000000000431818079000000000006212600000000027064699500000000000000009999123100000010000000000000BRRENTACNOR4196
012024071902SLCE3       010SLC AGRICOLAON      NM   R$  000000000193500000000019490000000001924000000000193200000000019350000000001928000000000193505673000000000001362600000000002632827600000000000000009999123100000010000000000000BRSLCEACNOR2125
012024071902IGTI11      010IGUATEMI S.AUNT     N1   R$  000000000215000000000021600000000002113000000000213400000000021440000000002137000000000214508130000000000002221000000000004741534600000000000000009999123100000010000000000000BRIGTICDAM16106
012024071902IGTI3       010IGUATEMI S.AON      N1   R$  000000000026700000000002700000000000265000000000026600000000002650000000000264000000000026500101000000000000033200000000000008850400000000000000009999123100000010000000000000BRIGTIACNOR8106
012024071902INEP3       010INEPAR      ON           R$  000000000018600000000001870000000000180000000000018300000000001840000000000183000000000018400037000000000000015800000000000002898100000000000000009999123100000010000000000000BRINEPACNOR1143
012024071902INEP4       010INEPAR      PN           R$  000000000018200000000001830000000000178000000000018000000000001810000000000179000000000018100016000000000000004600000000000000831300000000000000009999123100000010000000000000BRINEPACNPR8143
012024071902INTB3       010INTELBRAS   ON      NM   R$  000000000217500000000022300000000002171000000000219200000000021830000000002180000000000218403201000000000000752400000000001649324400000000000000009999123100000010000000000000BRINTBACNOR9111
012024071902IRBR3       010IRBBRASIL REON      NM   R$  000000000315700000000032150000000002975000000000303600000000029990000000002995000000000300005754000000000001607500000000004881853800000000000000009999123100000010000000000000BRIRBRACNOR4111
012024071902TTEN3       0103TENTOS     ON      NM   R$  000000000107100000000011080000000001071000000000108500000000010850000000001091000000000108503910000000000000755600000000000820007500000000000000009999123100000010000000000000BRTTENACNOR0103
012024071902TUPY3       010TUPY        ON      NM   R$  000000000265000000000026500000000002549000000000257300000000025640000000002549000000000256602092000000000000383600000000000987167500000000000000009999123100000010000000000000BRTUPYACNOR1184
012024071902UCAS3       010UNICASA     ON      NM   R$  000000000022800000000002300000000000223000000000022500000000002270000000000224000000000022700065000000000000014300000000000003228500000000000000009999123100000010000000000000BRUCASACNOR1113
012024071902UGPA3       010ULTRAPAR    ON      NM   R$  000000000222700000000023240000000002225000000000230400000000023220000000002318000000000230513263000000000004652200000000010720224200000000000000009999123100000010000000000000BRUGPAACNOR8155
012024071902WEST3       010WESTWING    ON      NM   R$  000000000008900000000000890000000000086000000000008700000000000880000000000086000000000008800075000000000000065000000000000005657500000000000000009999123100000010000000000000BRWESTACNOR3100
012024071902WHRL3       010WHIRLPOOL   ON           R$  000000000044400000000004440000000000444000000000044400000000004440000000000444000000000045000002000000000000000200000000000000088800000000000000009999123100000010000000000000BRWHRLACNOR5128
012024071902WHRL4       010WHIRLPOOL   PN           R$  000000000045500000000004550000000000453000000000045400000000004550000000000452000000000045400011000000000000003800000000000001728300000000000000009999123100000010000000000000BRWHRLACNPR2128
012024071902WIZC3       010WIZ CO      ON      NM   R$  000000000059000000000005970000000000581000000000059000000000005830000000000583000000000058601586000000000000358400000000000211550400000000000000009999123100000010000000000000BRWIZCACNOR5102
012024071902JHSF3       010JHSF PART   ON      NM   R$  000000000041100000000004150000000000399000000000040600000000004020000000000402000000000040302997000000000002506700000000001018409100000000000000009999123100000010000000000000BRJHSFACNOR2137
012024071902PDGR3       010PDG REALT   ON      NM   R$  000000000001900000000000190000000000018000000000001800000000000180000000000018000000000001900248000000000001179300000000000021401500000000000000009999123100000010000000000000BRPDGRACNOR8118
012024071902PDTC3       010PADTEC      ON      NM   R$  000000000018900000000001900000000000184000000000018500000000001850000000000184000000000018500070000000000000049100000000000009127100000000000000009999123100000010000000000000BRPDTCACNOR3101
012024071902PETR3       010PETROBRAS   ON      N2   R$  000000000416000000000041860000000004110000000000416900000000041710000000004177000000000417212987000000000005499400000000022928311100000000000000009999123100000010000000000000BRPETRACNOR9205
012024071902PETR4       010PETROBRAS   PN      N2   R$  000000000385000000000038770000000003839000000000385700000000038690000000003869000000000384038732000000000030593100000000118009945500000000000000009999123100000010000000000000BRPETRACNPR6213
012024071902PETZ3       010PETZ        ON      NM   R$  000000000039200000000003970000000000382000000000038900000000003920000000000392000000000039107096000000000006541000000000002548340500000000000000009999123100000010000000000000BRPETZACNOR2110
012024071902RAPT3       010RANDON PART ON      N1   R$  000000000101700000000010220000000000971000000000099700000000009850000000000985000000000099000297000000000000069900000000000069733200000000000000009999123100000010000000000000BRRAPTACNOR7162
012024071902RAPT4       010RANDON PART PN      N1   R$  000000000117600000000012010000000001154000000000117000000000011730000000001168000000000117404773000000000001707000000000001998765200000000000000009999123100000010000000000000BRRAPTACNPR4162
012024071902RCSL3       010RECRUSUL    ON           R$  000000000027300000000002860000000000267000000000027200000000002850000000000285000000000028800308000000000000113500000000000030939700000000000000009999123100000010000000000000BRRCSLACNOR4134
012024071902RCSL4       010RECRUSUL    PN           R$  000000000010500000000001050000000000100000000000010200000000001020000000000101000000000010200264000000000000432100000000000044161300000000000000009999123100000010000000000000BRRCSLACNPR1134
012024071902RDNI3       010RNI         ON      NM   R$  000000000031200000000003180000000000312000000000031300000000003140000000000313000000000031600006000000000000005000000000000001569300000000000000009999123100000010000000000000BRRDNIACNOR9116
012024071902RDOR3       010REDE D OR   ON      NM   R$  000000000286900000000028840000000002809000000000283600000000028100000000002810000000000281111051000000000003503700000000009938036500000000000000009999123100000010000000000000BRRDORACNOR8113
012024071902ABEV3       010AMBEV S/A   ON  ATZ      R$  000000000116500000000011770000000001165000000000117200000000011730000000001173000000000117318443000000000022774900000000026693883900000000000000009999123100000010000000000000BRABEVACNOR1128
012024071902B3SA3       010B3          ON      NM   R$  000000000112200000000011360000000001115000000000112300000000011170000000001127000000000111723522000000000025877800000000029061683200000000000000009999123100000010000000000000BRB3SAACNOR6133
012024071902TAEE11      010TAESA       UNT     N2   R$  000000000345900000000034720000000003390000000000341900000000033900000000003466000000000339309211000000000003072100000000010505024400000000000000009999123100000010000000000000BRTAEECDAM10147
012024071902TAEE3       010TAESA       ON      N2   R$  000000000114500000000011480000000001125000000000113200000000011290000000001129000000000113001119000000000000194100000000000219806100000000000000009999123100000010000000000000BRTAEEACNOR9147
012024071902TAEE4       010TAESA       PN      N2   R$  000000000116600000000011660000000001140000000000114700000000011470000000001146000000000114301583000000000000408400000000000468773300000000000000009999123100000010000000000000BRTAEEACNPR6147
012024071902SANB11      010SANTANDER BRUNT          R$  000000000290900000000029200000000002891000000000291400000000029120000000002910000000000291505475000000000005687300000000016574567600000000000000009999123100000010000000000000BRSANBCDAM13164
012024071902SANB3       010SANTANDER BRON           R$  000000000137300000000013850000000001369000000000138000000000013740000000001373000000000137400628000000000000128600000000000177564800000000000000009999123100000010000000000000BRSANBACNOR8171
012024071902SANB4       010SANTANDER BRPN           R$  000000000152200000000015340000000001518000000000152500000000015300000000001523000000000153000635000000000000116000000000000176948200000000000000009999123100000010000000000000BRSANBACNPR5171
012024071902VALE3       010VALE        ON      NM   R$  000000000612000000000061380000000006044000000000609700000000061120000000006110000000000611035340000000000020553900000000125327944700000000000000009999123100000010000000000000BRVALEACNOR0210
012024071902VAMO3       010VAMOS       ON      NM   R$  000000000087600000000009080000000000876000000000089700000000008980000000000899000000000089810050000000000006931700000000006219221400000000000000009999123100000010000000000000BRVAMOACNOR7105
012024071902MAPT4       010CEMEPE      PN           R$  000000000064000000000006700000000000617000000000063100000000006170000000000550000000000061000011000000000000002900000000000001832300000000000000009999123100000010000000000000BRMAPTACNPR5106
012024071902MATD3       010MATER DEI   ON      NM   R$  000000000046400000000004700000000000449000000000045600000000004490000000000448000000000045600890000000000000500400000000000228647600000000000000009999123100000010000000000000BRMATDACNOR4104
012024071902MBLY3       010MOBLY       ON      NM   R$  000000000025900000000002620000000000251000000000025700000000002620000000000262000000000026300527000000000000478000000000000122906500000000000000009999123100000010000000000000BRMBLYACNOR5100
012024071902UNIP3       010UNIPAR      ON           R$  000000000510000000000051000000000005005000000000503100000000050640000000005005000000000506300029000000000000003200000000000016099900000000000000009999123100000010000000000000BRUNIPACNOR7206
012024071902UNIP5       010UNIPAR      PNA          R$  000000000514000000000051400000000005078000000000510900000000050780000000004951000000000519800002000000000000000200000000000001021800000000000000009999123100000010000000000000BRUNIPACNPA0208
012024071902UNIP6       010UNIPAR      PNB          R$  000000000506600000000051260000000005016000000000507800000000051060000000005086000000000510600541000000000000073100000000000371243300000000000000009999123100000010000000000000BRUNIPACNPB8206
012024071902USIM3       010USIMINAS    ON      N1   R$  000000000076900000000007960000000000769000000000078400000000007960000000000784000000000079700569000000000000199600000000000156554700000000000000009999123100000010000000000000BRUSIMACNOR3167
012024071902USIM5       010USIMINAS    PNA     N1   R$  000000000083300000000008530000000000828000000000084300000000008530000000000851000000000084415783000000000011468500000000009675461600000000000000009999123100000010000000000000BRUSIMACNPA6169
012024071902WLMM4       010WLM IND COM PN           R$  000000000322600000000032260000000003148000000000318800000000031900000000003079000000000322300005000000000000000500000000000001594200000000000000009999123100000010000000000000BRWLMMACNPR3118
012024071902MDIA3       010M.DIASBRANCOON      NM   R$  000000000286400000000029060000000002864000000000287300000000028870000000002882000000000289002565000000000001065200000000003060802700000000000000009999123100000010000000000000BRMDIAACNOR7135
012024071902MDNE3       010MOURA DUBEUXON      NM   R$  000000000132700000000013360000000001301000000000131300000000013110000000001310000000000131202135000000000000398900000000000524127900000000000000009999123100000010000000000000BRMDNEACNOR9100
012024071902MEAL3       010IMC S/A     ON      NM   R$  000000000014600000000001460000000000142000000000014300000000001440000000000143000000000014400313000000000000298600000000000042961600000000000000009999123100000010000000000000BRMEALACNOR9105
012024071902MELK3       010MELNICK     ON      NM   R$  000000000036400000000003670000000000361000000000036200000000003610000000000361000000000036400196000000000000147000000000000053288900000000000000009999123100000010000000000000BRMELKACNOR8111
012024071902MERC4       010MERC FINANC PN           R$  000000000090000000000010350000000000900000000000092000000000010350000000000696000000000103500004000000000000002200000000000002025000000000000000009999123100000010000000000000BRMERCACNPR9180
012024071902MGEL4       010MANGELS INDLPN           R$  000000000131400000000013500000000001310000000000131100000000013500000000001311000000000136600009000000000000008100000000000010620800000000000000009999123100000010000000000000BRMGELACNPR3147
012024071902MGLU3       010MAGAZ LUIZA ON      NM   R$  000000000126600000000012990000000001251000000000126800000000012570000000001290000000000125816963000000000018916700000000023990652800000000000000009999123100000010000000000000BRMGLUACNOR2124
012024071902NEOE3       010NEOENERGIA  ON      NM   R$  000000000187200000000018850000000001838000000000185000000000018450000000001843000000000184505096000000000000992100000000001835829200000000000000009999123100000010000000000000BRNEOEACNOR3123
012024071902NGRD3       010NEOGRID     ON      NM   R$  000000000011200000000001120000000000102000000000010800000000001100000000000110000000000011001002000000000001479400000000000160004900000000000000009999123100000010000000000000BRNGRDACNOR3104
012024071902NINJ3       010GETNINJAS   ON      NM   R$  000000000044900000000004630000000000448000000000045500000000004630000000000450000000000046300045000000000000007800000000000003553800000000000000009999123100000010000000000000BRNINJACNOR5101
012024071902NORD3       010NORDON MET  ON           R$  000000000054000000000005410000000000540000000000054000000000005400000000000541000000000061900003000000000000000300000000000000162100000000000000009999123100000010000000000000BRNORDACNOR7135
012024071902BIOM3       010BIOMM       ON      MA   R$  000000000123500000000012610000000001229000000000124300000000012400000000001230000000000124000121000000000000020200000000000025109100000000000000009999123100000010000000000000BRBIOMACNOR2112
012024071907NUTR3       010NUTRIPLANT  ON      MA   R$  000000000044400000000004780000000000444000000000046300000000004760000000000468000000000047300047000000000000015300000000000007094700000000000000009999123100000010000000000000BRNUTRACNOR0104
012024071908AMER3       010AMERICANAS  ON      NM   R$  000000000007800000000000780000000000068000000000007200000000000700000000000070000000000007105850000000000030454900000000002194414300000000000000009999123100000010000000000000BRAMERACNOR6102
012024071908CTNM4       010COTEMINAS   PN           R$  000000000009500000000000950000000000095000000000009500000000000950000000000095000000000009700015000000000000022600000000000002147000000000000000009999123100000010000000000000BRCTNMACNPR6129
012024071908CTSA3       010SANTANENSE  ON           R$  000000000023600000000002360000000000235000000000023500000000002350000000000235000000000023600004000000000000000400000000000000094300000000000000009999123100000010000000000000BRCTSAACNOR3062
012024071908CTSA4       010SANTANENSE  PN           R$  000000000010200000000001060000000000100000000000010200000000001000000000000099000000000010000224000000000000040400000000000004133200000000000000009999123100000010000000000000BRCTSAACNPR0062
012024071908RNEW11      010RENOVA      UNT     N2   R$  000000000027300000000002780000000000267000000000026900000000002780000000000267000000000027800048000000000000013100000000000003525300000000000000009999123100000010000000000000BRRNEWCDAM15110
012024071908RNEW3       010RENOVA      ON      N2   R$  000000000009200000000000930000000000088000000000008900000000000910000000000088000000000009100085000000000000032800000000000002935900000000000000009999123100000010000000000000BRRNEWACNOR8110
012024071908RNEW4       010RENOVA      PN      N2   R$  000000000008900000000000910000000000084000000000008600000000000870000000000085000000000008700155000000000000128400000000000011169900000000000000009999123100000010000000000000BRRNEWACNPR5110
012024071908RPMG3       010PET MANGUINHON           R$  000000000030900000000003170000000000295000000000030300000000002960000000000296000000000030000260000000000000031600000000000009583500000000000000009999123100000010000000000000BRRPMGACNOR9194
012024071908LIGT3       010LIGHT S/A   ON      NM   R$  000000000048300000000004830000000000447000000000045800000000004540000000000453000000000045402268000000000001049500000000000480673400000000000000009999123100000010000000000000BRLIGTACNOR2124
012024071908SGPS3       010SPRINGS     ON      NM   R$  000000000023400000000002340000000000234000000000023400000000002340000000000234000000000023700013000000000000007900000000000001848600000000000000009999123100000010000000000000BRSGPSACNOR4105
012024071908OIBR3       010OI          ON      N1   R$  000000000046500000000004710000000000433000000000044200000000004390000000000439000000000044002268000000000001497000000000000661779600000000000000009999123100000010000000000000BROIBRACNOR1111
012024071908OIBR4       010OI          PN      N1   R$  000000000134000000000013400000000001241000000000128300000000012410000000001250000000000128000124000000000000028500000000000036566200000000000000009999123100000010000000000000BROIBRACNPR8110
012024071908OSXB3       010OSX BRASIL  ON      NM   R$  000000000037800000000003780000000000376000000000037700000000003780000000000378000000000038800012000000000000006400000000000002418400000000000000009999123100000010000000000000BROSXBACNOR8109
012024071908RSID3       010ROSSI RESID ON      NM   R$  000000000044200000000004460000000000435000000000044100000000004450000000000445000000000044600040000000000000010800000000000004768600000000000000009999123100000010000000000000BRRSIDACNOR8120
012024071908ATMP3       010ATMASA      ON           R$  000000000019500000000001990000000000195000000000019600000000001990000000000195000000000019900006000000000000000600000000000000117700000000000000009999123100000010000000000000BRATMPACNOR8100
012024071908ETER3       010ETERNIT     ON      NM   R$  000000000060000000000006000000000000584000000000059000000000005900000000000586000000000059000554000000000000151200000000000089266100000000000000009999123100000010000000000000BRETERACNOR3243
012024071908HOOT4       010HOTEIS OTHONPN           R$  000000000024400000000002440000000000244000000000024400000000002440000000000233000000000025900001000000000000000100000000000000024400000000000000009999123100000010000000000000BRHOOTACNPR9015
012024071908PMAM3       010PARANAPANEMAON      NM   R$  000000000024300000000002460000000000240000000000024000000000002430000000000242000000000024300109000000000000076000000000000018314900000000000000009999123100000010000000000000BRPMAMACNOR3039
012024071908JFEN3       010JOAO FORTES ON           R$  000000000002000000000000220000000000017000000000001800000000000180000000000017000000000001802012000000000005228400000000000099290300000000000000009999123100000010000000000000BRJFENACNOR0059
012024071908NEXP3       010NEXPE       ON           R$  000000000041300000000004150000000000413000000000041400000000004150000000000414000000000042300002000000000000000200000000000000082800000000000000009999123100000010000000000000BRNEXPACNOR0101
012024071910BSLI10      010BRB BANCO   PN  REC      R$  000000000088000000000008800000000000880000000000088000000000008800000000000880000000000103300001000000000000000200000000000000176000000000000000009999123100000010000000000000BRBSLIR02PR5192
012024071910EQTL9       010EQUATORIAL  ON  REC NM   R$  000000000330900000000033100000000003200000000000327500000000032000000000002715000000000349900004000000000000000400000000000001310000000000000000009999123100000010000000000000BREQTLR03OR1129
012024071910RENT1       010LOCALIZA    DIR ORD NM   R$  000000000108700000000010900000000001023000000000106300000000010900000000001021000000000110000030000000000000004500000000000004787500000000000000009999123100000010000000000000BRRENTD06OR8195
012024071912CJCT11      010FII CJCTOWERCI           R$  000000000640000000000064000000000006400000000000640000000000064000000000006400000000000647500001000000000000000040000000000000256000000000000000009999123100000010000000000000BRCJCTCTF001116
012024071912CLIN11      010FII CLAVE INCI           R$  000000000979700000000097970000000009611000000000969400000000096600000000009660000000000967701654000000000000011316000000000109703255000000000000009999123100000010000000000000BRCLINCTF007109
012024071912WTSP11      010FII WTC SP  CI  ER       R$  000000000429900000000042990000000004299000000000429900000000042990000000004101000000000490000001000000000000000002000000000000008598000000000000009999123100000010000000000000BRWTSPCTF002164
012024071912XPCI11      010FII XP CRED CI           R$  000000000873500000000087660000000008700000000000871900000000087200000000008706000000000872007770000000000000017689000000000154241038000000000000009999123100000010000000000000BRXPCICTF007158
012024071912XPCM11      010FII XP MACAECI           R$  000000000081300000000008260000000000811000000000081600000000008130000000000813000000000082300062000000000000001884000000000001537494000000000000009999123100000010000000000000BRXPCMCTF009230
012024071912XPIN11      010FII XP INDL CI  ER       R$  000000000773000000000077500000000007599000000000765800000000076140000000007630000000000767500624000000000000003389000000000025953144000000000000009999123100000010000000000000BRXPINCTF004175
012024071912XPLG11      010FII XP LOG  CI           R$  000000001036100000000104380000000010361000000001040500000000104150000000010415000000001042007118000000000000032007000000000333036368000000000000009999123100000010000000000000BRXPLGCTF002179
012024071912XPML11      010FII XP MALLSCI  ER       R$  000000001129900000000113380000000011261000000001129500000000113000000000011299000000001130013500000000000000074019000000000836045798000000000000009999123100000010000000000000BRXPMLCTF000186
012024071912XPPR11      010FII XP PROP CI           R$  000000000191800000000019430000000001911000000000192100000000019200000000001920000000000192100177000000000000003295000000000006331616000000000000009999123100000010000000000000BRXPPRCTF000156
012024071912XPSF11      010FII XP SELECCI           R$  000000000077500000000007790000000000773000000000077500000000007790000000000778000000000077905876000000000000034546000000000026787377000000000000009999123100000010000000000000BRXPSFCTF009157
012024071912TEPP11      010FII TEL PROPCI           R$  000000000906200000000091300000000009060000000000908700000000091300000000009105000000000913000955000000000000009113000000000082818128000000000000009999123100000010000000000000BRTEPPCTF006151
012024071912TGAR11      010FII TG ATIVOCI           R$  000000001200000000000120700000000011986000000001201900000000120190000000012019000000001202006880000000000000045998000000000552866740000000000000009999123100000010000000000000BRTGARCTF009192
012024071912BPFF11      010FII ABSOLUTOCI           R$  000000000700000000000070510000000006950000000000696300000000069630000000006963000000000699902245000000000000006283000000000043750017000000000000009999123100000010000000000000BRBPFFCTF002237
012024071912BPML11      010FII BTG SHOPCI  ER       R$  000000000939400000000093940000000009012000000000904700000000090280000000009045000000000907406578000000000000013072000000000118263586000000000000009999123100000010000000000000BRBPMLCTF006132
012024071912CNES11      010FII CENESP  CI           R$  000000000015100000000001510000000000150000000000015000000000001500000000000150000000000015102233000000000000044532000000000006689075000000000000009999123100000010000000000000BRCNESCTF001260
012024071912CXAG11      010FII CAIXA AGCI           R$  000000000771800000000078000000000007718000000000773900000000077440000000007743000000000774400092000000000000001977000000000015300402000000000000009999123100000010000000000000BRCXAGCTF003129
012024071912CXCE11      010FII CX CEDAECI           R$  000000000414900000000041490000000004140000000000414800000000041400000000004051000000000413900006000000000000000077000000000000319401000000000000009999123100000010000000000000BRCXCECTF004270
012024071912CXCI11      010FII CAIXA CICI           R$  000000000813600000000083880000000008130000000000820500000000081530000000008153000000000826500049000000000000001687000000000013843484000000000000009999123100000010000000000000BRCXCICTF005128
012024071912CXCO11      010FII CEF CORPCI           R$  000000000753000000000075950000000007501000000000757100000000075940000000007593000000000759400083000000000000000482000000000003649414000000000000009999123100000010000000000000BRCXCOCTF003139
012024071912CXRI11      010FII CX RBRAVCI           R$  000000000767100000000076710000000007671000000000767100000000076710000000007610000000000799800001000000000000000007000000000000053697000000000000009999123100000010000000000000BRCXRICTF003229
012024071912CXTL11      010FII CX TRX  CI           R$  000000002250100000000225010000000022501000000002250100000000225010000000022503000000002494000001000000000000000002000000000000045002000000000000009999123100000010000000000000BRCXTLCTF003238
012024071912CYCR11      010FII CYRELA  CI           R$  000000000097100000000009710000000000968000000000097000000000009700000000000969000000000097000253000000000000023848000000000023133892000000000000009999123100000010000000000000BRCYCRCTF004140
012024071912ALZC11      010FII ALIANZACCI  ER       R$  000000000960000000000096000000000009450000000000946400000000094500000000009451000000000960000007000000000000000105000000000000993786000000000000009999123100000010000000000000BRALZCCTF016105
012024071912ALZM11      010FII ALIANZMECI  ER       R$  000000000078000000000007870000000000777000000000078000000000007820000000000782000000000078301200000000000000030752000000000024006771000000000000009999123100000010000000000000BRALZMCTF007124
012024071912ALZR11      010FII ALIANZA CI  ER       R$  000000001090000000000109000000000010831000000001084700000000108480000000010846000000001084801357000000000000012840000000000139284548000000000000009999123100000010000000000000BRALZRCTF006184
012024071912BLCA11      010FII BLUE AAACI           R$  000000000999900000000103850000000009994000000001008700000000099940000000009895000000001019800010000000000000000081000000000000817050000000000000009999123100000010000000000000BRBLCACTF009132
012024071912JPPA11      010FII JPPA CRICI           R$  000000000822000000000082580000000008195000000000821900000000082540000000008254000000000825500137000000000000004906000000000040325271000000000000009999123100000010000000000000BRJPPACTF005162
012024071912JSAF11      010FII JS A FINCI           R$  000000000952800000000096480000000009490000000000956700000000095800000000009580000000000958100943000000000000012607000000000120612806000000000000009999123100000010000000000000BRJSAFCTF000134
012024071912JSRE11      010FII JS REAL CI           R$  000000000665200000000067590000000006652000000000673300000000067400000000006739000000000674003938000000000000019803000000000133337446000000000000009999123100000010000000000000BRJSRECTF007263
012024071912KCRE11      010FII KINEA CRCI           R$  000000000096100000000009610000000000957000000000095900000000009600000000000959000000000096000295000000000000016659000000000015985489000000000000009999123100000010000000000000BRKCRECTF009126
012024071912KFOF11      010FII KINEAFOFCI           R$  000000000903600000000091480000000009017000000000911200000000091340000000009133000000000913402159000000000000011228000000000102311593000000000000009999123100000010000000000000BRKFOFCTF006170
012024071912KISU11      010FII KILIMA  CI           R$  000000000083400000000008350000000000832000000000083300000000008330000000000835000000000083401270000000000000037032000000000030878700000000000000009999123100000010000000000000BRKISUCTF000145
012024071912KIVO11      010FII KIVO    CI           R$  000000000826100000000084000000000008261000000000832000000000083350000000008316000000000833500144000000000000002518000000000020950889000000000000009999123100000010000000000000BRKIVOCTF007128
012024071912CBOP11      010FII CBOP PAXCI           R$  000000000274200000000027420000000002740000000000274000000000027400000000002741000000000281900008000000000000000268000000000000734385000000000000009999123100000010000000000000BRCBOPCTF001231
012024071912CCME11      010FII CANUMA  CI           R$  000000000108700000000010880000000001050000000000106800000000010880000000001070000000000108808251000000000000068040000000000072679021000000000000009999123100000010000000000000BRCCMECTF007124
012024071912CTXT11      010FII C TEXTILCI           R$  000000000085600000000008560000000000810000000000082800000000008500000000000811000000000085000025000000000000000327000000000000270833000000000000009999123100000010000000000000BRCTXTCTF014207
012024071912GSFI11      010FII GENERAL CI           R$  000000000080100000000008100000000000791000000000080000000000007950000000000795000000000081000030000000000000000349000000000000279294000000000000009999123100000010000000000000BRGSFICTF009102
012024071912GTWR11      010FII G TOWERSCI           R$  000000000834800000000083790000000008285000000000833200000000083280000000008325000000000833000926000000000000007635000000000063621983000000000000009999123100000010000000000000BRGTWRCTF003164
012024071912AFHI11      010FII AFHI CRICI  ER       R$  000000000971200000000097230000000009667000000000970500000000097210000000009720000000000972102104000000000000007773000000000075439971000000000000009999123100000010000000000000BRAFHICTF005144
012024071912AIEC11      010FII AUTONOMYCI           R$  000000000541600000000055000000000005374000000000543000000000054400000000005431000000000544000213000000000000003921000000000021291461000000000000009999123100000010000000000000BRAIECCTF009146
012024071912AJFI11      010FII AJ MALLSCI           R$  000000000087700000000008810000000000866000000000087300000000008760000000000875000000000087601759000000000000025894000000000022627413000000000000009999123100000010000000000000BRAJFICTF001108
012024071912ALMI11      010FII TORRE ALCI           R$  000000006533400000000660000000000065333000000006599600000000660000000000065020000000006709100085000000000000000767000000000050619333000000000000009999123100000010000000000000BRALMICTF003251
012024071912BARI11      010FII BARIGUI CI           R$  000000000826000000000082600000000008211000000000822300000000082490000000008213000000000824805427000000000000011332000000000093190125000000000000009999123100000010000000000000BRBARICTF003163
012024071912BCFF11      010FII BC FFII CI           R$  000000000086600000000008660000000000851000000000085900000000008580000000000858000000000086109212000000000000174769000000000150203969000000000000009999123100000010000000000000BRBCFFCTF000279
012024071912BCIA11      010FII BCIA    CI           R$  000000001045000000000104500000000010386000000001039700000000104000000000010390000000001040001522000000000000006627000000000068903218000000000000009999123100000010000000000000BRBCIACTF005211
012024071912TMPS11      010FII ITAU TEMCI           R$  000000000964800000000096970000000009647000000000964900000000096470000000009602000000000966000007000000000000000690000000000006658310000000000000009999123100000010000000000000BRTMPSCTF003115
012024071912TORD11      010FII TORDE EICI           R$  000000000014900000000001490000000000144000000000014600000000001470000000000147000000000014800420000000000000160467000000000023441357000000000000009999123100000010000000000000BRTORDCTF015138
012024071912VOTS11      010FII V MASTERCI           R$  000000000808600000000081970000000008063000000000811600000000081970000000008197000000000819800012000000000000000070000000000000568183000000000000009999123100000010000000000000BRVOTSCTF007171
012024071912VRTA11      010FII FATOR VECI           R$  000000000890500000000089140000000008875000000000889500000000089050000000008900000000000890501718000000000000009578000000000085203331000000000000009999123100000010000000000000BRVRTACTF008261
