00COTAHIST.2024BOVESPA 20240102                                                                                                                                                                                                                      
012024010202AALR3       010ALLIAR      ON      NM   R$  000000000102000000000010360000000000850000000000093200000000008500000000000850000000000085201993000000000000430400000000000401487500000000000000009999123100000010000000000000BRAALRACNOR6102
012024010202ABCB4       010ABC BRASIL  PN  EJS N2   R$  000000000239800000000023980000000002279000000000231100000000022880000000002288000000000228908964000000000001944700000000004494730800000000000000009999123100000010000000000000BRABCBACNPR4145
012024010202ABEV3       010AMBEV S/A   ON  EJ       R$  000000000137200000000013730000000001359000000000136700000000013710000000001370000000000137116587000000000011690200000000015983911100000000000000009999123100000010000000000000BRABEVACNOR1127
012024010202BBDC3       010BRADESCO    ON  EJ  N1   R$  000000000152600000000015260000000001498000000000150800000000015110000000001508000000000151206674000000000004545600000000006857685400000000000000009999123100000010000000000000BRBBDCACNOR1764
012024010202ALPA3       010ALPARGATAS  ON      N1   R$  000000000101100000000010300000000000999000000000100400000000010000000000000972000000000105600020000000000000002900000000000002912000000000000000009999123100000010000000000000BRALPAACNOR0231
012024010202ALPA4       010ALPARGATAS  PN      N1   R$  000000000101000000000010120000000000931000000000097100000000009310000000000931000000000093214280000000000006907000000000006713502800000000000000009999123100000010000000000000BRALPAACNPR7232
012024010202ALPK3       010ESTAPAR     ON      NM   R$  000000000049200000000004970000000000447000000000046000000000004660000000000455000000000046600982000000000000234900000000000108194400000000000000009999123100000010000000000000BRALPKACNOR9101
012024010202ALUP11      010ALUPAR      UNT     N2   R$  000000000314600000000031560000000003025000000000305300000000030450000000003043000000000305304451000000000000834400000000002547695200000000000000009999123100000010000000000000BRALUPCDAM15117
012024010202ALUP3       010ALUPAR      ON      N2   R$  000000000104600000000010460000000001007000000000102300000000010150000000001010000000000102500124000000000000014400000000000014731400000000000000009999123100000010000000000000BRALUPACNOR8117
012024010202ALUP4       010ALUPAR      PN      N2   R$  000000000106200000000010620000000001000000000000102300000000010000000000001000000000000102700211000000000000032200000000000032965200000000000000009999123100000010000000000000BRALUPACNPR5117
012024010202AMAR3       010LOJAS MARISAON      NM   R$  000000000036300000000003710000000000345000000000035400000000003480000000000348000000000035001652000000000000965800000000000342819000000000000000009999123100000010000000000000BRAMARACNOR4114
012024010202AMBP3       010AMBIPAR     ON      NM   R$  000000000161700000000016290000000001551000000000158300000000015580000000001558000000000155907292000000000001379300000000002183818700000000000000009999123100000010000000000000BRAMBPACNOR6103
012024010202RCSL3       010RECRUSUL    ON           R$  000000000024300000000002730000000000238000000000025400000000002480000000000248000000000025104051000000000004944100000000001260670600000000000000009999123100000010000000000000BRRCSLACNOR4133
012024010202RCSL4       010RECRUSUL    PN           R$  000000000008800000000000880000000000086000000000008700000000000870000000000086000000000008701555000000000002908500000000000253074400000000000000009999123100000010000000000000BRRCSLACNPR1133
012024010202RDNI3       010RNI         ON      NM   R$  000000000046900000000004720000000000450000000000046200000000004630000000000456000000000046400065000000000000026700000000000012335700000000000000009999123100000010000000000000BRRDNIACNOR9116
012024010202RDOR3       010REDE D OR   ON  EJ  NM   R$  000000000281100000000028360000000002758000000000278000000000027740000000002773000000000277614625000000000004877200000000013560946000000000000000009999123100000010000000000000BRRDORACNOR8111
012024010202TASA4       010TAURUS ARMASPN      N2   R$  000000000152000000000015230000000001470000000000149500000000014760000000001474000000000147903519000000000000547700000000000818814000000000000000009999123100000010000000000000BRTASAACNPR4103
012024010202TCSA3       010TECNISA     ON      NM   R$  000000000039800000000004000000000000382000000000038900000000003920000000000387000000000039200289000000000000112500000000000043829100000000000000009999123100000010000000000000BRTCSAACNOR3112
012024010202TECN3       010TECHNOS     ON      NM   R$  000000000035200000000003650000000000350000000000035800000000003630000000000361000000000036301150000000000000334800000000000119979300000000000000009999123100000010000000000000BRTECNACNOR6108
012024010202TELB3       010TELEBRAS    ON           R$  000000000157500000000015750000000001542000000000155400000000015420000000001540000000000157500004000000000000000500000000000000777000000000000000009999123100000010000000000000BRTELBACNOR2140
012024010202TELB4       010TELEBRAS    PN           R$  000000000129100000000012960000000001230000000000125800000000012310000000001222000000000125900029000000000000010700000000000013468200000000000000009999123100000010000000000000BRTELBACNPR9140
012024010202TRAD3       010TC          ON      NM   R$  000000000008700000000000870000000000083000000000008400000000000860000000000084000000000008600632000000000000642700000000000054519600000000000000009999123100000010000000000000BRTRADACNOR3101
012024010202TRIS3       010TRISUL      ON      NM   R$  000000000057500000000005750000000000545000000000055700000000005490000000000548000000000054904444000000000001668800000000000930986600000000000000009999123100000010000000000000BRTRISACNOR4116
012024010202TRPL3       010TRAN PAULISTON      N1   R$  000000000351400000000036000000000003514000000000356200000000035850000000003548000000000360000008000000000000000800000000000002850100000000000000009999123100000010000000000000BRTRPLACNOR4185
012024010202TRPL4       010TRAN PAULISTPN      N1   R$  000000000263800000000026680000000002598000000000261900000000026200000000002618000000000262013568000000000002271400000000005948863600000000000000009999123100000010000000000000BRTRPLACNPR1185
012024010202VLID3       010VALID       ON      NM   R$  000000000207900000000021020000000002047000000000206600000000020600000000002055000000000206004417000000000000684400000000001414316800000000000000009999123100000010000000000000BRVLIDACNOR5141
012024010202BMEB3       010MERCANTIL   ON  EJ  N1   R$  000000000202200000000020220000000002018000000000202000000000020220000000001800000000000204000004000000000000000600000000000001212400000000000000009999123100000010000000000000BRBMEBACNOR8205
012024010202BMEB4       010MERCANTIL   PN  EJ  N1   R$  000000000170000000000017050000000001650000000000169000000000016500000000001604000000000168000043000000000000014600000000000024678400000000000000009999123100000010000000000000BRBMEBACNPR5210
012024010202BMGB4       010BANCO BMG   PN  EJ  N1   R$  000000000032500000000003260000000000312000000000031800000000003160000000000313000000000031601734000000000001023500000000000326116700000000000000009999123100000010000000000000BRBMGBACNPR0108
012024010202BMKS3       010BIC MONARK  ON           R$  000000003599800000000359980000000035097000000003597100000000359970000000035000000000003599700011000000000000000050000000000001798580000000000000009999123100000010000000000000BRBMKSACNOR9165
012024010202BMOB3       010BEMOBI TECH ON  EJ  NM   R$  000000000140100000000014040000000001342000000000136000000000013650000000001361000000000136502868000000000000432700000000000588503400000000000000009999123100000010000000000000BRBMOBACNOR7103
012024010202BNBR3       010NORD BRASIL ON           R$  000000001120000000000112000000000011200000000001120000000000112000000000010950000000001145000001000000000000000100000000000001120000000000000000009999123100000010000000000000BRBNBRACNOR8206
012024010202BOBR4       010BOMBRIL     PN           R$  000000000020400000000002050000000000200000000000020200000000002000000000000200000000000020200057000000000000041600000000000008412600000000000000009999123100000010000000000000BRBOBRACNPR3128
012024010202CCRO3       010CCR SA      ON      NM   R$  000000000140700000000014130000000001382000000000139500000000013990000000001396000000000140012825000000000004084400000000005701013600000000000000009999123100000010000000000000BRCCROACNOR2144
012024010202BRAP4       010BRADESPAR   PN      N1   R$  000000000257100000000025840000000002531000000000255900000000025410000000002541000000000254408865000000000003148900000000008059346800000000000000009999123100000010000000000000BRBRAPACNPR2147
012024010202EPAR3       010EMBPAR S/A  ON  EDC      R$  000000000118000000000011800000000001078000000000111600000000010810000000001080000000000109200173000000000000041000000000000045782000000000000000009999123100000010000000000000BREPARACNOR9104
012024010202EQMA3B      010EQTLMARANHAOON      MB   R$  000000000297900000000029800000000002950000000000296900000000029500000000002907000000000297000003000000000000000600000000000001781800000000000000009999123100000010000000000000BREQMAACNOR8107
012024010202EQPA3       010EQTL PARA   ON           R$  000000000076200000000007630000000000748000000000076000000000007630000000000755000000000076500009000000000000003000000000000002281000000000000000009999123100000010000000000000BREQPAACNOR1109
012024010202EQTL3       010EQUATORIAL  ON      NM   R$  000000000357200000000035820000000003486000000000351200000000035000000000003500000000000350216035000000000004762600000000016727575300000000000000009999123100000010000000000000BREQTLACNOR0129
012024010202ESPA3       010ESPACOLASER ON      NM   R$  000000000012300000000001240000000000114000000000011800000000001150000000000114000000000011503801000000000002244800000000000265225600000000000000009999123100000010000000000000BRESPAACNOR7103
012024010202ESTR4       010ESTRELA     PN           R$  000000000040200000000004180000000000400000000000040100000000004180000000000400000000000041700006000000000000002600000000000001043800000000000000009999123100000010000000000000BRESTRACNPR0144
012024010202EUCA3       010EUCATEX     ON  EJ  N1   R$  000000000160600000000016520000000001605000000000162000000000016500000000001610000000000165000010000000000000001100000000000001782900000000000000009999123100000010000000000000BREUCAACNOR1157
012024010202CRFB3       010CARREFOUR BRON      NM   R$  000000000123200000000012440000000001192000000000120600000000012010000000001200000000000120213862000000000004574900000000005519152100000000000000009999123100000010000000000000BRCRFBACNOR2116
012024010202CRIV3       010ALFA FINANC ON           R$  000000000058900000000005890000000000589000000000058900000000005890000000000589000000000059000002000000000000000400000000000000235600000000000000009999123100000010000000000000BRCRIVACNOR4195
012024010202CRIV4       010ALFA FINANC PN           R$  000000000057400000000005890000000000574000000000057400000000005870000000000583000000000058800025000000000000102400000000000058806000000000000000009999123100000010000000000000BRCRIVACNPR1210
012024010202CRPG5       010CRISTAL     PNA          R$  000000000378500000000037850000000003666000000000371400000000037200000000003673000000000374900029000000000000003000000000000011143600000000000000009999123100000010000000000000BRCRPGACNPA3118
012024010202CRPG6       010CRISTAL     PNB          R$  000000000358200000000036800000000003551000000000366400000000036110000000003610000000000368000025000000000000005600000000000020520300000000000000009999123100000010000000000000BRCRPGACNPB1118
012024010202CSAN3       010COSAN       ON      NM   R$  000000000193800000000019480000000001905000000000192400000000019220000000001919000000000192212946000000000005096300000000009807304100000000000000009999123100000010000000000000BRCSANACNOR6124
012024010202CSED3       010CRUZEIRO EDUON      NM   R$  000000000053200000000005320000000000514000000000052000000000005150000000000515000000000051602267000000000000403200000000000209984200000000000000009999123100000010000000000000BRCSEDACNOR9104
012024010202ENGI11      010ENERGISA    UNT ED  N2   R$  000000000528900000000053460000000005190000000000523000000000052190000000005218000000000521907514000000000002244300000000011737707500000000000000009999123100000010000000000000BRENGICDAM16135
012024010202ENGI3       010ENERGISA    ON  ED  N2   R$  000000000185900000000018600000000001772000000000182600000000017880000000001788000000000180000056000000000000006400000000000011686600000000000000009999123100000010000000000000BRENGIACNOR0145
012024010202ENGI4       010ENERGISA    PN  ED  N2   R$  000000000088000000000008800000000000840000000000086000000000008590000000000851000000000087500085000000000000024200000000000020829800000000000000009999123100000010000000000000BRENGIACNPR7141
012024010202ENJU3       010ENJOEI      ON      NM   R$  000000000016500000000001690000000000160000000000016300000000001620000000000162000000000016300970000000000000609000000000000099465900000000000000009999123100000010000000000000BRENJUACNOR9100
012024010202MDIA3       010M.DIASBRANCOON  EJ  NM   R$  000000000386300000000038630000000003745000000000378100000000037760000000003776000000000377703688000000000000570900000000002158967500000000000000009999123100000010000000000000BRMDIAACNOR7133
012024010202MDNE3       010MOURA DUBEUXON      NM   R$  000000000133300000000013330000000001272000000000129500000000012830000000001282000000000128503359000000000000730100000000000945996900000000000000009999123100000010000000000000BRMDNEACNOR9100
012024010202MEAL3       010IMC S/A     ON      NM   R$  000000000019700000000001970000000000186000000000019000000000001870000000000187000000000018803014000000000002606900000000000495482100000000000000009999123100000010000000000000BRMEALACNOR9105
012024010202MELK3       010MELNICK     ON      NM   R$  000000000047900000000004890000000000462000000000047400000000004790000000000471000000000047901070000000000000307900000000000146208700000000000000009999123100000010000000000000BRMELKACNOR8110
012024010202MGEL4       010MANGELS INDLPN           R$  000000000133600000000013490000000001332000000000133700000000013490000000001330000000000135000009000000000000002000000000000002674800000000000000009999123100000010000000000000BRMGELACNPR3147
012024010202MGLU3       010MAGAZ LUIZA ON      NM   R$  000000000021400000000002150000000000203000000000020800000000002050000000000205000000000020633273000000000115658000000000024097595400000000000000009999123100000010000000000000BRMGLUACNOR2121
012024010202PDGR3       010PDG REALT   ON      NM   R$  000000000004500000000000450000000000042000000000004300000000000430000000000042000000000004301271000000000005670800000000000245205700000000000000009999123100000010000000000000BRPDGRACNOR8118
012024010202PDTC3       010PADTEC      ON      NM   R$  000000000031000000000003180000000000305000000000031100000000003170000000000314000000000031700147000000000000080800000000000025205100000000000000009999123100000010000000000000BRPDTCACNOR3100
012024010202PETR3       010PETROBRAS   ON      N2   R$  000000000390000000000039630000000003900000000000393400000000039360000000003932000000000393712464000000000006743900000000026530605100000000000000009999123100000010000000000000BRPETRACNOR9202
012024010202PETR4       010PETROBRAS   PN      N2   R$  000000000374400000000037890000000003740000000000376600000000037780000000003775000000000377839280000000000024043800000000090551383800000000000000009999123100000010000000000000BRPETRACNPR6209
012024010202AERI3       010AERIS       ON      NM   R$  000000000009100000000000910000000000086000000000008700000000000870000000000086000000000008713099000000000007195300000000000631663900000000000000009999123100000010000000000000BRAERIACNOR4101
012024010202AESB3       010AES BRASIL  ON      NM   R$  000000000123200000000012320000000001188000000000119800000000011950000000001194000000000119713063000000000003543200000000004244939200000000000000009999123100000010000000000000BRAESBACNOR7105
012024010202AFLT3       010AFLUENTE T  ON           R$  000000000081100000000008450000000000780000000000081400000000008440000000000811000000000084700023000000000000003800000000000003096300000000000000009999123100000010000000000000BRAFLTACNOR1120
012024010202AGRO3       010BRASILAGRO  ON      NM   R$  000000000265800000000026620000000002593000000000261000000000026040000000002603000000000260603367000000000000492200000000001284964800000000000000009999123100000010000000000000BRAGROACNOR7114
012024010202AGXY3       010AGROGALAXY  ON      NM   R$  000000000036400000000003640000000000343000000000035400000000003430000000000343000000000035300366000000000000113500000000000040188200000000000000009999123100000010000000000000BRAGXYACNOR4102
012024010202ALLD3       010ALLIED      ON  EJ  NM   R$  000000000074900000000007540000000000733000000000074000000000007410000000000738000000000074100120000000000000038600000000000028582000000000000000009999123100000010000000000000BRALLDACNOR3105
012024010202ALOS3       010ALLOS       ON      NM   R$  000000000265100000000026510000000002556000000000258400000000025750000000002574000000000257523461000000000006747600000000017437771800000000000000009999123100000010000000000000BRALOSACNOR5100
012024010202BBDC4       010BRADESCO    PN  EJ  N1   R$  000000000169500000000017010000000001667000000000167900000000016750000000001674000000000167636017000000000031715700000000053255341200000000000000009999123100000010000000000000BRBBDCACNPR8764
012024010202CMIN3       010CSNMINERACAOON  EJ  N2   R$  000000000078000000000007960000000000775000000000078600000000007890000000000788000000000078913112000000000007861400000000006180905400000000000000009999123100000010000000000000BRCMINACNOR2110
012024010202COCE5       010COELCE      PNA          R$  000000000425500000000042610000000004153000000000418700000000041620000000004162000000000417900248000000000000034500000000000144477800000000000000009999123100000010000000000000BRCOCEACNPA3146
012024010202COGN3       010COGNA ON    ON      NM   R$  000000000034800000000003480000000000336000000000034000000000003360000000000336000000000033922956000000000024095200000000008201797700000000000000009999123100000010000000000000BRCOGNACNOR2104
012024010202DMVF3       010D1000VFARMA ON      NM   R$  000000000058400000000005910000000000551000000000056900000000005660000000000566000000000057300212000000000000048600000000000027680700000000000000009999123100000010000000000000BRDMVFACNOR9100
012024010202DOHL4       010DOHLER      PN           R$  000000000051400000000005240000000000509000000000051500000000005190000000000505000000000051900005000000000000000500000000000000257500000000000000009999123100000010000000000000BRDOHLACNPR9066
012024010202DOTZ3       010DOTZ SA     ON  EG  NM   R$  000000000078000000000007990000000000766000000000077600000000007800000000000767000000000078000024000000000000005900000000000004582600000000000000009999123100000010000000000000BRDOTZACNOR7101
012024010202DTCY3       010DTCOM-DIRECTON           R$  000000000045000000000004500000000000450000000000045000000000004500000000000440000000000045100001000000000000000300000000000000135000000000000000009999123100000010000000000000BRDTCYACNOR5109
012024010202DXCO3       010DEXCO       ON  EJ  NM   R$  000000000080000000000008060000000000773000000000078400000000007780000000000777000000000077813641000000000003588600000000002814639600000000000000009999123100000010000000000000BRDXCOACNOR8104
012024010202BSLI3       010BRB BANCO   ON           R$  000000000123900000000013320000000001239000000000126500000000013320000000001279000000000133200005000000000000000700000000000000885700000000000000009999123100000010000000000000BRBSLIACNOR5192
012024010202BSLI4       010BRB BANCO   PN           R$  000000000118600000000012290000000001186000000000120700000000012290000000001186000000000122900002000000000000000200000000000000241500000000000000009999123100000010000000000000BRBSLIACNPR2192
012024010202CAMB3       010CAMBUCI     ON           R$  000000000107400000000010920000000000993000000000100900000000010010000000001001000000000100600612000000000000560100000000000565289300000000000000009999123100000010000000000000BRCAMBACNOR4127
012024010202CAML3       010CAMIL       ON      NM   R$  000000000084500000000008450000000000778000000000079600000000007880000000000788000000000079505004000000000001947800000000001550489600000000000000009999123100000010000000000000BRCAMLACNOR3126
012024010202CASH3       010MELIUZ      ON      NM   R$  000000000079300000000007970000000000764000000000077700000000007680000000000768000000000077003699000000000001570400000000001220248100000000000000009999123100000010000000000000BRCASHACNOR8105
012024010202CBAV3       010CBA         ON      NM   R$  000000000050600000000005200000000000498000000000050900000000005030000000000503000000000050407648000000000003988500000000002031835300000000000000009999123100000010000000000000BRCBAVACNOR5104
012024010202CBEE3       010AMPLA ENERG ON           R$  000000000148000000000014800000000001480000000000148000000000014800000000001300000000000148000001000000000000000100000000000000148000000000000000009999123100000010000000000000BRCBEEACNOR3159
012024010202CTSA3       010SANTANENSE  ON           R$  000000000053900000000005390000000000479000000000049300000000004790000000000479000000000048000143000000000000033300000000000016436000000000000000009999123100000010000000000000BRCTSAACNOR3062
012024010202CTSA4       010SANTANENSE  PN           R$  000000000022300000000002280000000000208000000000021500000000002080000000000209000000000021300321000000000000084400000000000018219700000000000000009999123100000010000000000000BRCTSAACNPR0062
012024010202CURY3       010CURY S/A    ON      NM   R$  000000000178100000000018090000000001754000000000177900000000017540000000001754000000000176608203000000000002066400000000003676915700000000000000009999123100000010000000000000BRCURYACNOR3107
012024010202CVCB3       010CVC BRASIL  ON      NM   R$  000000000035000000000003520000000000326000000000033500000000003280000000000328000000000032929957000000000039062900000000013123514800000000000000009999123100000010000000000000BRCVCBACNOR1115
012024010202CXSE3       010CAIXA SEGURION      NM   R$  000000000129000000000012970000000001280000000000128700000000012800000000001280000000000128307180000000000002156900000000002777285500000000000000009999123100000010000000000000BRCXSEACNOR7105
012024010202GGPS3       010GPS         ON      NM   R$  000000000188500000000018950000000001812000000000183500000000018310000000001831000000000183511528000000000002468900000000004532036900000000000000009999123100000010000000000000BRGGPSACNOR9102
012024010202GMAT3       010GRUPO MATEUSON      NM   R$  000000000071300000000007130000000000687000000000069500000000006890000000000689000000000069007956000000000003178000000000002210109700000000000000009999123100000010000000000000BRGMATACNOR7100
012024010202GOAU3       010GERDAU MET  ON      N1   R$  000000000111500000000011180000000001100000000000110800000000011010000000001100000000000110200361000000000000072100000000000079922900000000000000009999123100000010000000000000BRGOAUACNOR1265
012024010202GOAU4       010GERDAU MET  PN      N1   R$  000000000108800000000010940000000001072000000000108200000000010770000000001076000000000107814892000000000008251800000000008930175200000000000000009999123100000010000000000000BRGOAUACNPR8266
012024010202MILS3       010MILLS       ON  EJ  NM   R$  000000000135900000000013610000000001305000000000132500000000013230000000001313000000000132304964000000000001055400000000001398677000000000000000009999123100000010000000000000BRMILSACNOR2124
012024010202MLAS3       010MULTILASER  ON      NM   R$  000000000021000000000002120000000000195000000000020100000000001970000000000197000000000020011935000000000006153900000000001242578400000000000000009999123100000010000000000000BRMLASACNOR9101
012024010202MNDL3       010MUNDIAL     ON           R$  000000000524700000000052600000000005247000000000525100000000052600000000005101000000000526000009000000000000001100000000000005776200000000000000009999123100000010000000000000BRMNDLACNOR4107
012024010202MNPR3       010MINUPAR     ON           R$  000000000187400000000018850000000001874000000000187800000000018850000000001743000000000188500005000000000000002000000000000003757400000000000000009999123100000010000000000000BRMNPRACNOR5122
012024010202MOVI3       010MOVIDA      ON      NM   R$  000000000118300000000011840000000001110000000000113200000000011100000000001110000000000111211426000000000003000900000000003399740300000000000000009999123100000010000000000000BRMOVIACNOR0122
012024010202MRFG3       010MARFRIG     ON      NM   R$  000000000096500000000009750000000000952000000000096300000000009650000000000960000000000096511651000000000004588500000000004420830000000000000000009999123100000010000000000000BRMRFGACNOR0116
012024010202AVLL3       010ALPHAVILLE  ON  ES  NM   R$  000000000050000000000005000000000000500000000000050000000000005000000000000478000000000049800003000000000000000300000000000000150000000000000000009999123100000010000000000000BRAVLLACNOR5103
012024010202AZEV3       010AZEVEDO     ON           R$  000000000020400000000002040000000000195000000000019900000000001950000000000195000000000019700613000000000000477300000000000095055400000000000000009999123100000010000000000000BRAZEVACNOR0121
012024010202AZEV4       010AZEVEDO     PN           R$  000000000019800000000002000000000000191000000000019500000000001910000000000191000000000019301964000000000002743200000000000535046300000000000000009999123100000010000000000000BRAZEVACNPR7121
012024010202AZUL4       010AZUL        PN      N2   R$  000000000158200000000015820000000001466000000000150600000000014700000000001470000000000147124480000000000017737100000000026715725000000000000000009999123100000010000000000000BRAZULACNPR4102
012024010202B3SA3       010B3          ON  EDJ NM   R$  000000000143100000000014400000000001402000000000141400000000014170000000001417000000000141843596000000000030729000000000043456118500000000000000009999123100000010000000000000BRB3SAACNOR6130
012024010202BEES3       010BANESTES    ON  EJ       R$  000000000098000000000009810000000000956000000000096800000000009690000000000962000000000096900141000000000000024900000000000024125400000000000000009999123100000010000000000000BRBEESACNOR9385
012024010202BEES4       010BANESTES    PN  EJ       R$  000000000101100000000010230000000001011000000000101300000000010230000000001013000000000102400061000000000000012700000000000012870200000000000000009999123100000010000000000000BRBEESACNPR6310
012024010202ANIM3       010ANIMA       ON      NM   R$  000000000045000000000004580000000000430000000000044200000000004320000000000432000000000043316713000000000010796000000000004775545100000000000000009999123100000010000000000000BRANIMACNOR6107
012024010202APER3       010ALPER S.A.  ON      NM   R$  000000000433400000000043390000000004294000000000431100000000043320000000004304000000000433200055000000000000007800000000000033630400000000000000009999123100000010000000000000BRAPERACNOR9106
012024010202ARML3       010ARMAC       ON  EJ  NM   R$  000000000168200000000016870000000001580000000000161700000000016080000000001600000000000161004424000000000000721700000000001167508800000000000000009999123100000010000000000000BRARMLACNOR1110
012024010202ARZZ3       010AREZZO CO   ON      NM   R$  000000000645200000000064520000000006214000000000626600000000062270000000006223000000000625014053000000000002316200000000014514618000000000000000009999123100000010000000000000BRARZZACNOR3146
012024010202BBSE3       010BBSEGURIDADEON      NM   R$  000000000336500000000033960000000003359000000000338000000000033890000000003389000000000339013854000000000003584300000000012118433900000000000000009999123100000010000000000000BRBBSEACNOR5123
012024010202BPAC11      010BTGP BANCO  UNT     N2   R$  000000000376100000000037820000000003685000000000371900000000037230000000003721000000000372314062000000000005020500000000018674639000000000000000009999123100000010000000000000BRBPACUNT006117
012024010202BPAC3       010BTGP BANCO  ON      N2   R$  000000000178700000000017890000000001732000000000177500000000017360000000001711000000000178700053000000000000007500000000000013312900000000000000009999123100000010000000000000BRBPACACNOR7132
012024010202BPAC5       010BTGP BANCO  PNA     N2   R$  000000000098000000000009960000000000948000000000097000000000009870000000000942000000000098700057000000000000013800000000000013393400000000000000009999123100000010000000000000BRBPACACNPA0132
012024010202BPAN4       010BANCO PAN   PN  EJ  N1   R$  000000000085900000000008660000000000825000000000084000000000008320000000000832000000000083406539000000000001986400000000001669546500000000000000009999123100000010000000000000BRBPANACNPR1115
012024010202BRAP3       010BRADESPAR   ON      N1   R$  000000000233600000000023390000000002306000000000232600000000023280000000002305000000000232800198000000000000042000000000000097718400000000000000009999123100000010000000000000BRBRAPACNOR5147
012024010202EUCA4       010EUCATEX     PN  EJ  N1   R$  000000000158600000000015900000000001575000000000158600000000015900000000001578000000000159100174000000000000041200000000000065372800000000000000009999123100000010000000000000BREUCAACNPR8044
012024010202EVEN3       010EVEN        ON  ED  NM   R$  000000000081800000000008180000000000764000000000077400000000007750000000000773000000000077505191000000000001187800000000000919813100000000000000009999123100000010000000000000BREVENACNOR8118
012024010202MATD3       010MATER DEI   ON      NM   R$  000000000083700000000008370000000000793000000000080300000000008000000000000800000000000080203186000000000000735300000000000590838400000000000000009999123100000010000000000000BRMATDACNOR4103
012024010202MBLY3       010MOBLY       ON      NM   R$  000000000020400000000002080000000000196000000000020100000000001960000000000196000000000019804253000000000002344200000000000471457800000000000000009999123100000010000000000000BRMBLYACNOR5100
012024010202CPFE3       010CPFL ENERGIAON      NM   R$  000000000385100000000038790000000003797000000000384500000000038410000000003836000000000384106339000000000001197800000000004605548100000000000000009999123100000010000000000000BRCPFEACNOR0136
012024010202CPLE3       010COPEL       ON      N2   R$  000000000094900000000009490000000000926000000000093300000000009260000000000926000000000093104991000000000004623200000000004315032800000000000000009999123100000010000000000000BRCPLEACNOR8148
012024010202CPLE5       010COPEL       PNA     N2   R$  000000000227800000000022780000000002278000000000227800000000022780000000002238000000000239800001000000000000000100000000000000227800000000000000009999123100000010000000000000BRCPLEACNPA1146
012024010202CPLE6       010COPEL       PNB     N2   R$  000000000103500000000010360000000001009000000000101700000000010150000000001015000000000101621265000000000014192700000000014436984900000000000000009999123100000010000000000000BRCPLEACNPB9145
012024010202EKTR4       010ELEKTRO     PN           R$  000000000380100000000038110000000003800000000000380200000000038110000000003811000000000390000004000000000000000600000000000002281200000000000000009999123100000010000000000000BREKTRACNPR7158
012024010202ELET3       010ELETROBRAS  ON      N1   R$  000000000420300000000042370000000004151000000000417400000000041740000000004172000000000417414253000000000003568400000000014896588300000000000000009999123100000010000000000000BRELETACNOR6159
012024010202ELET6       010ELETROBRAS  PNB     N1   R$  000000000469800000000047360000000004604000000000462700000000046280000000004627000000000463003863000000000000876500000000004056236200000000000000009999123100000010000000000000BRELETACNPB7076
012024010202ELMD3       010ELETROMIDIA ON      NM   R$  000000000156600000000015660000000001486000000000150500000000014860000000001486000000000150400204000000000000060000000000000090319600000000000000009999123100000010000000000000BRELMDACNOR3100
012024010202EMAE4       010EMAE        PN           R$  000000000589600000000059350000000005870000000000590200000000058890000000005780000000000589000009000000000000001200000000000007083400000000000000009999123100000010000000000000BREMAEACNPR1124
012024010202EMBR3       010EMBRAER     ON      NM   R$  000000000223900000000022470000000002185000000000220500000000022020000000002201000000000220514115000000000005797500000000012784794900000000000000009999123100000010000000000000BREMBRACNOR4191
012024010202ENAT3       010ENAUTA PART ON      NM   R$  000000000201400000000020210000000001888000000000194800000000019130000000001902000000000191310758000000000003481200000000006783430600000000000000009999123100000010000000000000BRENATACNOR0104
012024010202ENEV3       010ENEVA       ON      NM   R$  000000000135100000000013560000000001320000000000133200000000013290000000001328000000000132914169000000000008767600000000011681978400000000000000009999123100000010000000000000BRENEVACNOR8105
012024010202IFCM3       010INFRACOMM   ON      NM   R$  000000000018500000000001880000000000173000000000017800000000001730000000000173000000000017415624000000000011591600000000002069454700000000000000009999123100000010000000000000BRIFCMACNOR8101
012024010202IGTI11      010IGUATEMI S.AUNT     N1   R$  000000000240400000000024200000000002358000000000239300000000023920000000002391000000000239217745000000000003161800000000007567697600000000000000009999123100000010000000000000BRIGTICDAM16104
012024010202IGTI3       010IGUATEMI S.AON      N1   R$  000000000030000000000003000000000000291000000000029300000000002910000000000291000000000029400176000000000000042100000000000012376500000000000000009999123100000010000000000000BRIGTIACNOR8104
012024010202EALT3       010ACO ALTONA  ON           R$  000000000097800000000009780000000000978000000000097800000000009780000000000900000000000098000001000000000000000100000000000000097800000000000000009999123100000010000000000000BREALTACNOR4137
012024010202EALT4       010ACO ALTONA  PN           R$  000000000095400000000009540000000000923000000000093800000000009490000000000926000000000094900028000000000000014000000000000013136500000000000000009999123100000010000000000000BREALTACNPR1137
012024010202ECOR3       010ECORODOVIAS ON      NM   R$  000000000093400000000009490000000000920000000000093300000000009450000000000943000000000094614675000000000004884700000000004559373100000000000000009999123100000010000000000000BRECORACNOR8119
012024010202EGIE3       010ENGIE BRASILON  EJ  NM   R$  000000000447000000000044870000000004430000000000445200000000044520000000004448000000000445206754000000000001479200000000006586656400000000000000009999123100000010000000000000BREGIEACNOR9125
012024010202TEND3       010TENDA       ON      NM   R$  000000000146700000000014770000000001403000000000142600000000014150000000001414000000000141508952000000000002340800000000003339857700000000000000009999123100000010000000000000BRTENDACNOR4111
012024010202TFCO4       010TRACK FIELD PN  EJ  N2   R$  000000000148400000000014860000000001442000000000147000000000014700000000001470000000000148501009000000000000191100000000000280998100000000000000009999123100000010000000000000BRTFCOACNPR8111
012024010202TGMA3       010TEGMA       ON      NM   R$  000000000280700000000028230000000002754000000000278000000000027760000000002775000000000277603419000000000000589800000000001639692500000000000000009999123100000010000000000000BRTGMAACNOR7143
012024010202TIMS3       010TIM         ON  EJ  NM   R$  000000000179300000000017950000000001761000000000177400000000017730000000001772000000000177318733000000000011609500000000020598460600000000000000009999123100000010000000000000BRTIMSACNOR5114
012024010202TOTS3       010TOTVS       ON      NM   R$  000000000331300000000033390000000003250000000000327900000000033000000000003300000000000330110233000000000002837100000000009305254600000000000000009999123100000010000000000000BRTOTSACNOR8144
012024010202TPIS3       010TRIUNFO PARTON      NM   R$  000000000041500000000004200000000000410000000000041500000000004180000000000410000000000041800147000000000000049400000000000020527200000000000000009999123100000010000000000000BRTPISACNOR8118
012024010202SHOW3       010TIME FOR FUNON      NM   R$  000000000021000000000002130000000000195000000000020200000000002080000000000208000000000020900896000000000000360200000000000073103200000000000000009999123100000010000000000000BRSHOWACNOR7105
012024010202SHUL4       010SCHULZ      PN  EJ       R$  000000000070400000000007130000000000688000000000069900000000006940000000000690000000000069402014000000000000524200000000000366678500000000000000009999123100000010000000000000BRSHULACNPR4154
012024010202SIMH3       010SIMPAR      ON      NM   R$  000000000096300000000009630000000000900000000000091500000000009020000000000902000000000090711292000000000004583500000000004197083800000000000000009999123100000010000000000000BRSIMHACNOR0107
012024010202SLCE3       010SLC AGRICOLAON  EJ  NM   R$  000000000188500000000018980000000001829000000000185000000000018350000000001835000000000183912580000000000003022800000000005594684100000000000000009999123100000010000000000000BRSLCEACNOR2124
012024010202PETZ3       010PETZ        ON      NM   R$  000000000039400000000003940000000000371000000000038000000000003760000000000375000000000037616253000000000016176400000000006155049600000000000000009999123100000010000000000000BRPETZACNOR2109
012024010202RSUL4       010RIOSULENSE  PN           R$  000000000770000000000077000000000007556000000000762400000000075560000000007555000000000770000020000000000000002000000000000015249200000000000000009999123100000010000000000000BRRSULACNPR3113
012024010202SANB11      010SANTANDER BRUNT          R$  000000000322900000000032290000000003176000000000319500000000032050000000003193000000000320507176000000000001714900000000005479113900000000000000009999123100000010000000000000BRSANBCDAM13162
012024010202VSTE3       010VESTE       ON      NM   R$  000000000201000000000020500000000002000000000000201900000000020000000000002000000000000202900160000000000000026900000000000054331000000000000000009999123100000010000000000000BRVSTEACNOR5101
012024010202VULC3       010VULCABRAS   ON      NM   R$  000000000199400000000020310000000001969000000000199400000000019720000000001972000000000198503990000000000000704600000000001405530300000000000000009999123100000010000000000000BRVULCACNOR2156
012024010202VVEO3       010VIVEO       ON      NM   R$  000000000140800000000014090000000001336000000000136200000000013410000000001340000000000134108307000000000002131600000000002904440800000000000000009999123100000010000000000000BRVVEOACNOR0103
012024010202SANB3       010SANTANDER BRON           R$  000000000151900000000015190000000001499000000000150600000000015140000000001509000000000151401034000000000000143300000000000215936800000000000000009999123100000010000000000000BRSANBACNOR8169
012024010202SANB4       010SANTANDER BRPN           R$  000000000170000000000017000000000001675000000000168400000000016940000000001681000000000169400830000000000000117200000000000197378200000000000000009999123100000010000000000000BRSANBACNPR5169
012024010202SAPR11      010SANEPAR     UNT EJ  N2   R$  000000000287400000000028740000000002800000000000282800000000028300000000002818000000000283006413000000000001132000000000003202061800000000000000009999123100000010000000000000BRSAPRCDAM13117
012024010202SAPR3       010SANEPAR     ON  EJ  N2   R$  000000000055500000000005550000000000532000000000053900000000005350000000000532000000000053500971000000000000536200000000000289506200000000000000009999123100000010000000000000BRSAPRACNOR9158
012024010202SAPR4       010SANEPAR     PN  EJ  N2   R$  000000000057800000000005780000000000565000000000057000000000005710000000000569000000000057103059000000000002403500000000001370075100000000000000009999123100000010000000000000BRSAPRACNPR6158
012024010202SBFG3       010GRUPO SBF   ON      NM   R$  000000000117300000000011730000000001071000000000110400000000010950000000001094000000000109715175000000000003609400000000003985347700000000000000009999123100000010000000000000BRSBFGACNOR1102
012024010202SBSP3       010SABESP      ON      NM   R$  000000000753500000000075350000000007298000000000737500000000073630000000007359000000000736509777000000000001690300000000012466734900000000000000009999123100000010000000000000BRSBSPACNOR5160
012024010202WEGE3       010WEG         ON      NM   R$  000000000369100000000037050000000003633000000000366300000000036570000000003654000000000365713718000000000003991200000000014622330700000000000000009999123100000010000000000000BRWEGEACNOR0220
012024010202SYNE3       010SYN PROP TECON      NM   R$  000000000047900000000004870000000000462000000000047400000000004870000000000481000000000048701974000000000000546700000000000259454600000000000000009999123100000010000000000000BRSYNEACNOR2102
012024010202VALE3       010VALE        ON      NM   R$  000000000776000000000078180000000007659000000000774000000000077050000000007704000000000770534570000000000018021800000000139496981500000000000000009999123100000010000000000000BRVALEACNOR0209
012024010202ZAMP3       010ZAMP S.A.   ON      NM   R$  000000000057000000000005730000000000552000000000055900000000005620000000000561000000000056305794000000000001062700000000000595111400000000000000009999123100000010000000000000BRZAMPACNOR5100
012024010202RECV3       010PETRORECSA  ON      NM   R$  000000000217100000000021710000000002075000000000210600000000020770000000002077000000000208314792000000000003219700000000006781987100000000000000009999123100000010000000000000BRRECVACNOR3105
012024010202TAEE11      010TAESA       UNT     N2   R$  000000000385500000000038620000000003802000000000382400000000038130000000003812000000000381711042000000000002001500000000007655603400000000000000009999123100000010000000000000BRTAEECDAM10144
012024010202TAEE3       010TAESA       ON      N2   R$  000000000128500000000012850000000001265000000000127300000000012720000000001271000000000127201667000000000000249600000000000317956700000000000000009999123100000010000000000000BRTAEEACNOR9144
012024010202TAEE4       010TAESA       PN      N2   R$  000000000128500000000012890000000001271000000000127800000000012760000000001276000000000127702141000000000000515000000000000658584300000000000000009999123100000010000000000000BRTAEEACNPR6144
012024010202TASA3       010TAURUS ARMASON      N2   R$  000000000151000000000015120000000001474000000000150400000000014810000000001480000000000148900150000000000000039800000000000059863900000000000000009999123100000010000000000000BRTASAACNOR7103
012024010202VBBR3       010VIBRA       ON  EJ  NM   R$  000000000226900000000023040000000002257000000000228400000000022970000000002290000000000229720781000000000011710000000000026746313200000000000000009999123100000010000000000000BRVBBRACNOR1106
012024010202REDE3       010REDE ENERGIAON           R$  000000000066200000000007020000000000662000000000066800000000006670000000000666000000000067800042000000000000007500000000000005015500000000000000009999123100000010000000000000BRREDEACNOR7126
012024010202RENT3       010LOCALIZA    ON  EJS NM   R$  000000000633300000000063510000000006092000000000617500000000061260000000006125000000000612724305000000000007037300000000043459768700000000000000009999123100000010000000000000BRRENTACNOR4194
012024010202VITT3       010VITTIA      ON  EJ  NM   R$  000000000106400000000010640000000001005000000000101600000000010070000000001007000000000101001334000000000000386000000000000392525400000000000000009999123100000010000000000000BRVITTACNOR4106
012024010202VIVA3       010VIVARA S.A. ON      NM   R$  000000000346100000000034830000000003376000000000340900000000034020000000003402000000000342011486000000000003947400000000013458541900000000000000009999123100000010000000000000BRVIVAACNOR0106
012024010202VIVR3       010VIVER       ON      NM   R$  000000000051900000000005200000000000506000000000050800000000005070000000000507000000000051000273000000000000100200000000000050981800000000000000009999123100000010000000000000BRVIVRACNOR4120
012024010202VIVT3       010TELEF BRASILON  EJ       R$  000000000534400000000053440000000005231000000000526400000000052620000000005261000000000526410491000000000003085200000000016242122500000000000000009999123100000010000000000000BRVIVTACNOR0178
012024010202TTEN3       0103TENTOS     ON      NM   R$  000000000120500000000012080000000001087000000000112600000000010910000000001091000000000110308591000000000002109900000000002377543700000000000000009999123100000010000000000000BRTTENACNOR0102
012024010202TUPY3       010TUPY        ON      NM   R$  000000000287600000000028890000000002747000000000279500000000027470000000002747000000000275605315000000000000944300000000002640185500000000000000009999123100000010000000000000BRTUPYACNOR1182
012024010202UCAS3       010UNICASA     ON      NM   R$  000000000026500000000002690000000000265000000000026700000000002650000000000265000000000026800073000000000000026600000000000007107800000000000000009999123100000010000000000000BRUCASACNOR1113
012024010202UGPA3       010ULTRAPAR    ON      NM   R$  000000000262400000000026650000000002611000000000264300000000026580000000002657000000000265814106000000000004732900000000012513712200000000000000009999123100000010000000000000BRUGPAACNOR8154
012024010202UNIP3       010UNIPAR      ON  ED       R$  000000000699800000000070340000000006957000000000698500000000069680000000006929000000000696900074000000000000008800000000000061468100000000000000009999123100000010000000000000BRUNIPACNOR7204
012024010202UNIP5       010UNIPAR      PNA ED       R$  000000000781500000000078150000000007811000000000781300000000078110000000007810000000000790000002000000000000000200000000000001562600000000000000009999123100000010000000000000BRUNIPACNPA0206
012024010202UNIP6       010UNIPAR      PNB ED       R$  000000000764900000000076780000000007522000000000757600000000075420000000007530000000000757801577000000000000265400000000002010921400000000000000009999123100000010000000000000BRUNIPACNPB8204
012024010202WEST3       010WESTWING    ON      NM   R$  000000000013900000000001400000000000136000000000013800000000001360000000000136000000000013700097000000000000127700000000000017627200000000000000009999123100000010000000000000BRWESTACNOR3100
012024010202WHRL3       010WHIRLPOOL   ON           R$  000000000044100000000004410000000000434000000000044000000000004400000000000440000000000044400020000000000000011700000000000005150200000000000000009999123100000010000000000000BRWHRLACNOR5128
012024010202WHRL4       010WHIRLPOOL   PN           R$  000000000046200000000004680000000000448000000000046000000000004610000000000461000000000046700040000000000000020100000000000009263400000000000000009999123100000010000000000000BRWHRLACNPR2128
012024010202WIZC3       010WIZ CO      ON      NM   R$  000000000072500000000007250000000000671000000000069000000000006830000000000682000000000068303938000000000000903800000000000623945500000000000000009999123100000010000000000000BRWIZCACNOR5101
012024010202ORVR3       010ORIZON      ON      NM   R$  000000000386700000000039020000000003575000000000369300000000035750000000003575000000000358303453000000000000766700000000002831489100000000000000009999123100000010000000000000BRORVRACNOR0101
012024010202OSXB3       010OSX BRASIL  ON      NM   R$  000000000043500000000004350000000000427000000000043000000000004270000000000425000000000043300007000000000000001300000000000000559200000000000000009999123100000010000000000000BROSXBACNOR8109
012024010202PATI3       010PANATLANTICAON           R$  000000000291000000000029100000000002910000000000291000000000029100000000002750000000000319000001000000000000000100000000000000291000000000000000009999123100000010000000000000BRPATIACNOR6064
012024010202PCAR3       010P.ACUCAR-CBDON      NM   R$  000000000040800000000004190000000000400000000000041000000000004190000000000410000000000041910606000000000008148600000000003344680300000000000000009999123100000010000000000000BRPCARACNOR3167
012024010202PFRM3       010PROFARMA    ON  EJ  NM   R$  000000000058000000000005800000000000502000000000052400000000005320000000000532000000000053303411000000000001431600000000000750422200000000000000009999123100000010000000000000BRPFRMACNOR1116
012024010202PGMN3       010PAGUE MENOS ON      NM   R$  000000000039600000000003960000000000381000000000038900000000003860000000000385000000000038605145000000000002027700000000000788949800000000000000009999123100000010000000000000BRPGMNACNOR8102
012024010202PINE3       010PINE        ON      N2   R$  000000000052300000000005230000000000523000000000052300000000005230000000000501000000000052300001000000000000001000000000000000523000000000000000009999123100000010000000000000BRPINEACNOR1147
012024010202PINE4       010PINE        PN      N2   R$  000000000043700000000004480000000000429000000000043800000000004450000000000442000000000044502299000000000001469100000000000644237500000000000000009999123100000010000000000000BRPINEACNPR8147
012024010202PLAS3       010PLASCAR PARTON           R$  000000000073000000000007300000000000730000000000073000000000007300000000000664000000000073100001000000000000000100000000000000073000000000000000009999123100000010000000000000BRPLASACNOR2106
012024010202PLPL3       010PLANOEPLANO ON      NM   R$  000000000115500000000011640000000001118000000000114300000000011390000000001132000000000113904582000000000000990400000000001132888800000000000000009999123100000010000000000000BRPLPLACNOR5103
012024010202PNVL3       010DIMED       ON  EJ  NM   R$  000000000133600000000013360000000001298000000000131300000000013150000000001315000000000131802839000000000000701500000000000921112500000000000000009999123100000010000000000000BRPNVLACNOR9205
012024010202POMO3       010MARCOPOLO   ON  EJ  N2   R$  000000000055900000000005680000000000542000000000055400000000005670000000000563000000000056700666000000000000241300000000000133826600000000000000009999123100000010000000000000BRPOMOACNOR0095
012024010202POMO4       010MARCOPOLO   PN  EJ  N2   R$  000000000069900000000007340000000000699000000000072300000000007320000000000727000000000073216041000000000010328300000000007469852800000000000000009999123100000010000000000000BRPOMOACNPR7095
012024010202PORT3       010WILSON SONS ON      NM   R$  000000000173600000000017410000000001700000000000171400000000017110000000001711000000000172000854000000000000295400000000000506390500000000000000009999123100000010000000000000BRPORTACNOR8105
012024010202SCAR3       010SAO CARLOS  ON      NM   R$  000000000279800000000027980000000002650000000000272500000000027600000000002590000000000276000065000000000000014200000000000038704400000000000000009999123100000010000000000000BRSCARACNOR7130
012024010202SEER3       010SER EDUCA   ON      NM   R$  000000000078600000000007860000000000730000000000075100000000007340000000000733000000000073403842000000000001083800000000000814737400000000000000009999123100000010000000000000BRSEERACNOR5119
012024010202SEQL3       010SEQUOIA LOG ON      NM   R$  000000000004900000000000820000000000048000000000006700000000000790000000000079000000000008019217000000000088199700000000005979489300000000000000009999123100000010000000000000BRSEQLACNOR2101
012024010202SGPS3       010SPRINGS     ON      NM   R$  000000000013200000000001320000000000126000000000012800000000001270000000000127000000000012800650000000000000762200000000000098238400000000000000009999123100000010000000000000BRSGPSACNOR4104
012024010202WLMM4       010WLM IND COM PN           R$  000000000309900000000030990000000003099000000000309900000000030990000000002923000000000309400001000000000000000100000000000000309900000000000000009999123100000010000000000000BRWLMMACNPR3116
012024010202YDUQ3       010YDUQS PART  ON      NM   R$  000000000224000000000022560000000002125000000000216800000000021370000000002137000000000213811934000000000002432900000000005274971600000000000000009999123100000010000000000000BRYDUQACNOR3104
012024010202RANI3       010IRANI       ON      NM   R$  000000000109500000000010950000000001059000000000107300000000010590000000001058000000000105906658000000000001131700000000001214752600000000000000009999123100000010000000000000BRRANIACNOR5069
012024010202RAPT3       010RANDON PART ON  EJ  N1   R$  000000000119900000000011990000000001154000000000117500000000011540000000001154000000000117500057000000000000015500000000000018214700000000000000009999123100000010000000000000BRRAPTACNOR7162
012024010202RAPT4       010RANDON PART PN  EJ  N1   R$  000000000128000000000013000000000001258000000000127200000000012610000000001260000000000126409214000000000001889600000000002405167600000000000000009999123100000010000000000000BRRAPTACNPR4162
012024010202BEEF3       010MINERVA     ON      NM   R$  000000000074600000000007470000000000728000000000073400000000007320000000000730000000000073213271000000000015690200000000011531240800000000000000009999123100000010000000000000BRBEEFACNOR6116
012024010202BRBI11      010BR PARTNERS UNT     N2   R$  000000000156000000000016120000000001489000000000156800000000014890000000001487000000000148902540000000000000797000000000001250384100000000000000009999123100000010000000000000BRBRBICDAM10107
012024010202BRFS3       010BRF SA      ON      NM   R$  000000000138100000000013840000000001316000000000134000000000013250000000001324000000000132513054000000000006509100000000008728668700000000000000009999123100000010000000000000BRBRFSACNOR8121
012024010202ITSA3       010ITAUSA      ON  EJ  N1   R$  000000000103400000000010370000000001016000000000102300000000010210000000001018000000000102100408000000000000173700000000000177807300000000000000009999123100000010000000000000BRITSAACNOR0436
012024010202ITSA4       010ITAUSA      PN  EJ  N1   R$  000000000103100000000010320000000001013000000000101900000000010170000000001016000000000101816842000000000016813400000000017144751800000000000000009999123100000010000000000000BRITSAACNPR7436
012024010202PRNR3       010PRINER      ON      NM   R$  000000000116900000000011720000000001116000000000114300000000011480000000001146000000000114900856000000000000208400000000000238231600000000000000009999123100000010000000000000BRPRNRACNOR4108
012024010202PSSA3       010PORTO SEGUROON  EJ  NM   R$  000000000287400000000028740000000002844000000000285600000000028560000000002856000000000285705775000000000001002600000000002863684800000000000000009999123100000010000000000000BRPSSAACNOR7153
012024010202PTBL3       010PORTOBELLO  ON      NM   R$  000000000074600000000007480000000000686000000000070400000000006990000000000697000000000069903079000000000000987100000000000695488800000000000000009999123100000010000000000000BRPTBLACNOR8132
012024010202PTNT3       010PETTENATI   ON           R$  000000000111000000000011100000000001053000000000107300000000010980000000001053000000000109900007000000000000001600000000000001718300000000000000009999123100000010000000000000BRPTNTACNOR6042
012024010202NTCO3       010GRUPO NATURAON  ATZ NM   R$  000000000169000000000017040000000001645000000000166700000000016690000000001666000000000167020144000000000008391200000000013989803600000000000000009999123100000010000000000000BRNTCOACNOR5104
012024010202CLSA3       010CLEARSALE   ON      NM   R$  000000000037200000000003810000000000350000000000036100000000003550000000000352000000000035502635000000000001234800000000000446525000000000000000009999123100000010000000000000BRCLSAACNOR0100
012024010202CLSC3       010CELESC      ON  EJ  N2   R$  000000000615400000000061540000000006154000000000615400000000061540000000006160000000000635000001000000000000000200000000000001230800000000000000009999123100000010000000000000BRCLSCACNOR6149
012024010202CLSC4       010CELESC      PN  EJ  N2   R$  000000000668400000000066840000000006495000000000653400000000065780000000006475000000000657900029000000000000003400000000000022217400000000000000009999123100000010000000000000BRCLSCACNPR3128
012024010202CMIG3       010CEMIG       ON  EJ  N1   R$  000000000151300000000015160000000001492000000000150200000000015010000000001500000000000150301180000000000000326900000000000491010300000000000000009999123100000010000000000000BRCMIGACNOR6239
012024010202CMIG4       010CEMIG       PN  EJ  N1   R$  000000000114800000000011500000000001126000000000113800000000011340000000001133000000000113426016000000000010559100000000012021970800000000000000009999123100000010000000000000BRCMIGACNPR3240
012024010202HBOR3       010HELBOR      ON      NM   R$  000000000035300000000003530000000000327000000000033300000000003300000000000330000000000033101530000000000000758800000000000253407100000000000000009999123100000010000000000000BRHBORACNOR3117
012024010202HBRE3       010HBR REALTY  ON      NM   R$  000000000061400000000006140000000000568000000000057900000000005680000000000567000000000056801216000000000000527000000000000305190700000000000000009999123100000010000000000000BRHBREACNOR4100
012024010202RRRP3       0103R PETROLEUMON      NM   R$  000000000265000000000026740000000002596000000000262600000000026010000000002601000000000260613933000000000004372600000000011485275100000000000000009999123100000010000000000000BRRRRPACNOR5102
012024010202USIM3       010USIMINAS    ON      N1   R$  000000000091100000000009180000000000896000000000090400000000009070000000000898000000000090701015000000000000372800000000000337146400000000000000009999123100000010000000000000BRUSIMACNOR3166
012024010202USIM5       010USIMINAS    PNA     N1   R$  000000000093000000000009300000000000906000000000091600000000009130000000000912000000000091310611000000000010367400000000009496859200000000000000009999123100000010000000000000BRUSIMACNPA6168
012024010202USIM6       010USIMINAS    PNB     N1   R$  000000000151900000000015190000000001519000000000151900000000015190000000000701000000000160000001000000000000000100000000000000151900000000000000009999123100000010000000000000BRUSIMACNPB4168
012024010202BAHI3       010BAHEMA      ON      MA   R$  000000000083000000000008350000000000796000000000081500000000007960000000000768000000000081800005000000000000001600000000000001304100000000000000009999123100000010000000000000BRBAHIACNOR1074
012024010202BALM4       010BAUMER      PN           R$  000000000100000000000010010000000001000000000000100000000000010010000000001001000000000104000005000000000000000500000000000000500200000000000000009999123100000010000000000000BRBALMACNPR2056
012024010202BAUH4       010EXCELSIOR   PN           R$  000000000818700000000081870000000008187000000000818700000000081870000000006100000000000818800004000000000000000400000000000003274800000000000000009999123100000010000000000000BRBAUHACNPR3117
012024010202BAZA3       010AMAZONIA    ON           R$  000000000955000000000095500000000009421000000000946400000000094900000000009425000000000947000008000000000000000800000000000007571300000000000000009999123100000010000000000000BRBAZAACNOR0178
012024010202BBAS3       010BRASIL      ON      NM   R$  000000000551200000000055280000000005445000000000547800000000054760000000005476000000000547824820000000000008170500000000044760881700000000000000009999123100000010000000000000BRBBASACNOR3319
012024010202BLAU3       010BLAU        ON      NM   R$  000000000164200000000016420000000001550000000000158000000000015500000000001550000000000157001843000000000000346000000000000546984700000000000000009999123100000010000000000000BRBLAUACNOR8111
012024010202KRSA3       010KORA SAUDE  ON      NM   R$  000000000013000000000001300000000000122000000000012700000000001280000000000128000000000012900531000000000000760200000000000097157300000000000000009999123100000010000000000000BRKRSAACNOR0100
012024010202HYPE3       010HYPERA      ON  EJ  NM   R$  000000000357600000000035800000000003489000000000352500000000035160000000003500000000000351805881000000000001237300000000004361751000000000000000009999123100000010000000000000BRHYPEACNOR0136
012024010202JOPA3       010JOSAPAR     ON           R$  000000000222400000000023990000000002224000000000228200000000023990000000002102000000000239900002000000000000000300000000000000684700000000000000009999123100000010000000000000BRJOPAACNOR5134
012024010202JSLG3       010JSL         ON      NM   R$  000000000124200000000012980000000001242000000000127300000000012670000000001262000000000126704357000000000000728100000000000927194300000000000000009999123100000010000000000000BRJSLGACNOR2121
012024010202KEPL3       010KEPLER WEBERON      NM   R$  000000000109300000000010970000000001055000000000107400000000010550000000001055000000000106106436000000000001403100000000001508328500000000000000009999123100000010000000000000BRKEPLACNOR1061
012024010202HBSA3       010HIDROVIAS   ON      NM   R$  000000000039300000000003960000000000366000000000037400000000003670000000000367000000000037017335000000000008163000000000003058698800000000000000009999123100000010000000000000BRHBSAACNOR0100
012024010202HBTS5       010HABITASUL   PNA          R$  000000000519900000000051990000000004722000000000481800000000047220000000004575000000000519900004000000000000000500000000000002409400000000000000009999123100000010000000000000BRHBTSACNPA3127
012024010202HETA4       010HERCULES    PN           R$  000000000063900000000006690000000000639000000000065400000000006690000000000591000000000064800002000000000000000200000000000000130800000000000000009999123100000010000000000000BRHETAACNPR9136
012024010202KLBN11      010KLABIN S/A  UNT EJ  N2   R$  000000000222100000000022300000000002173000000000218500000000021730000000002173000000000217409099000000000004377100000000009568000800000000000000009999123100000010000000000000BRKLBNCDAM18139
012024010202KLBN3       010KLABIN S/A  ON  EJ  N2   R$  000000000044200000000004460000000000435000000000043900000000004350000000000435000000000043801301000000000000445300000000000195809200000000000000009999123100000010000000000000BRKLBNACNOR2167
012024010202KLBN4       010KLABIN S/A  PN  EJ  N2   R$  000000000044300000000004460000000000436000000000043900000000004360000000000436000000000043804428000000000002786800000000001225763900000000000000009999123100000010000000000000BRKLBNACNPR9167
012024010202ROMI3       010ROMI        ON  EJ  NM   R$  000000000134000000000013400000000001299000000000131200000000013030000000001301000000000130802256000000000000417600000000000547954700000000000000009999123100000010000000000000BRROMIACNOR8192
012024010202RPAD3       010ALFA HOLDINGON           R$  000000000079300000000007930000000000793000000000079300000000007930000000000793000000000080000001000000000000000800000000000000634400000000000000009999123100000010000000000000BRRPADACNOR1198
012024010202CEAB3       010CEA MODAS   ON      NM   R$  000000000078500000000007860000000000745000000000075800000000007520000000000750000000000075309156000000000002422400000000001837400700000000000000009999123100000010000000000000BRCEABACNOR1101
012024010202CEBR3       010CEB         ON           R$  000000000174500000000017890000000001745000000000177000000000017800000000001749000000000178000030000000000000004300000000000007611900000000000000009999123100000010000000000000BRCEBRACNOR5124
012024010202CEBR5       010CEB         PNA          R$  000000000161900000000016240000000001594000000000161700000000016200000000001609000000000162000024000000000000007100000000000011487200000000000000009999123100000010000000000000BRCEBRACNPA8123
012024010202CEBR6       010CEB         PNB          R$  000000000178000000000018990000000001772000000000178700000000017720000000001778000000000181000087000000000000027900000000000049882500000000000000009999123100000010000000000000BRCEBRACNPB6123
012024010202CEDO3       010CEDRO       ON      N1   R$  000000000280000000000028000000000002800000000000280000000000028000000000002200000000000285000003000000000000000400000000000001120000000000000000009999123100000010000000000000BRCEDOACNOR8096
012024010202CEDO4       010CEDRO       PN      N1   R$  000000000272400000000027260000000002668000000000270500000000026710000000002670000000000269000016000000000000002700000000000007306000000000000000009999123100000010000000000000BRCEDOACNPR5128
012024010202CEEB3       010COELBA      ON           R$  000000000402900000000040290000000003990000000000399800000000039900000000003970000000000400000017000000000000004500000000000017992400000000000000009999123100000010000000000000BRCEEBACNOR3195
012024010202CGAS3       010COMGAS      ON  EJ       R$  000000001220000000000122000000000012199000000001219900000000121990000000012118000000001220000002000000000000000600000000000007319900000000000000009999123100000010000000000000BRCGASACNOR0162
012024010202CGAS5       010COMGAS      PNA EJ       R$  000000001259800000000125980000000012411000000001244800000000124110000000012411000000001260000022000000000000002600000000000032366300000000000000009999123100000010000000000000BRCGASACNPA3159
012024010202CGRA3       010GRAZZIOTIN  ON  EJ       R$  000000000259000000000026500000000002590000000000262500000000026500000000002630000000000266400045000000000000005400000000000014179100000000000000009999123100000010000000000000BRCGRAACNOR2081
012024010202CGRA4       010GRAZZIOTIN  PN  EJ       R$  000000000266400000000026850000000002664000000000267600000000026790000000002665000000000268200031000000000000004900000000000013113500000000000000009999123100000010000000000000BRCGRAACNPR9081
012024010202CIEL3       010CIELO       ON  EJ  NM   R$  000000000046600000000004730000000000449000000000045500000000004540000000000453000000000045423636000000000031825500000000014497129200000000000000009999123100000010000000000000BRCIELACNOR3156
012024010202CYRE3       010CYRELA REALTON      NM   R$  000000000239300000000023970000000002300000000000233000000000023140000000002314000000000231716786000000000004831100000000011260637000000000000000009999123100000010000000000000BRCYREACNOR7139
012024010202DASA3       010DASA        ON      NM   R$  000000000098500000000009850000000000906000000000091900000000009170000000000917000000000092503794000000000000581500000000000534894400000000000000009999123100000010000000000000BRDASAACNOR1122
012024010202DESK3       010DESKTOP     ON      NM   R$  000000000138000000000014000000000001335000000000135200000000013350000000001335000000000134501233000000000000228400000000000308919100000000000000009999123100000010000000000000BRDESKACNOR2103
012024010202DEXP3       010DEXXOS PAR  ON  ED  N1   R$  000000000118000000000011800000000001133000000000115800000000011480000000001148000000000115800583000000000001890200000000002189927200000000000000009999123100000010000000000000BRDEXPACNOR1104
012024010202DEXP4       010DEXXOS PAR  PN  ED  N1   R$  000000000114000000000011500000000001140000000000114400000000011450000000001123000000000114000005000000000000000500000000000000572000000000000000009999123100000010000000000000BRDEXPACNPR8104
012024010202DIRR3       010DIRECIONAL  ON      NM   R$  000000000223500000000022350000000002161000000000218500000000021870000000002180000000000218713642000000000002261400000000004941548700000000000000009999123100000010000000000000BRDIRRACNOR0117
012024010202GOLL4       010GOL         PN      N2   R$  000000000089300000000008930000000000831000000000085300000000008350000000000835000000000083811661000000000007046500000000006011707700000000000000009999123100000010000000000000BRGOLLACNPR4128
012024010202GRND3       010GRENDENE    ON      NM   R$  000000000070700000000007070000000000686000000000069300000000006870000000000687000000000069205708000000000002294500000000001592307800000000000000009999123100000010000000000000BRGRNDACNOR3172
012024010202GSHP3       010GENERALSHOPPON           R$  000000000150000000000015000000000001500000000000150000000000015000000000001451000000000168900001000000000000000100000000000000150000000000000000009999123100000010000000000000BRGSHPACNOR7102
012024010202GUAR3       010GUARARAPES  ON      NM   R$  000000000063800000000006380000000000587000000000060700000000005930000000000592000000000059309857000000000003946000000000002398161600000000000000009999123100000010000000000000BRGUARACNOR4172
012024010202HAGA3       010HAGA S/A    ON           R$  000000000028400000000003050000000000276000000000029000000000002850000000000276000000000028000018000000000000005100000000000001483700000000000000009999123100000010000000000000BRHAGAACNOR7103
012024010202HAGA4       010HAGA S/A    PN           R$  000000000011900000000001210000000000116000000000011800000000001180000000000116000000000011800051000000000000028400000000000003375400000000000000009999123100000010000000000000BRHAGAACNPR4103
012024010202HAPV3       010HAPVIDA     ON      NM   R$  000000000043900000000004410000000000429000000000043300000000004290000000000429000000000043022245000000000032581000000000014130232200000000000000009999123100000010000000000000BRHAPVACNOR4113
012024010202JALL3       010JALLESMACHADON      NM   R$  000000000078500000000007880000000000763000000000077100000000007690000000000769000000000077205269000000000001219700000000000940767200000000000000009999123100000010000000000000BRJALLACNOR0105
012024010202JBSS3       010JBS         ON      NM   R$  000000000249100000000025290000000002479000000000251000000000025170000000002513000000000251712273000000000004261800000000010698238600000000000000009999123100000010000000000000BRJBSSACNOR8121
012024010202JHSF3       010JHSF PART   ON  ED  NM   R$  000000000055600000000005570000000000529000000000054100000000005360000000000536000000000053709522000000000003890100000000002107573200000000000000009999123100000010000000000000BRJHSFACNOR2131
012024010202MRVE3       010MRV         ON      NM   R$  000000000112200000000011220000000001054000000000107600000000010720000000001072000000000107325853000000000010530100000000011331039400000000000000009999123100000010000000000000BRMRVEACNOR2126
012024010202MTRE3       010MITRE REALTYON      NM   R$  000000000061600000000006180000000000591000000000059900000000005990000000000598000000000060104043000000000001930600000000001157383700000000000000009999123100000010000000000000BRMTREACNOR6109
012024010202MTSA4       010METISA      PN           R$  000000000485700000000048990000000004803000000000485200000000048400000000004784000000000484000030000000000000004200000000000020381500000000000000009999123100000010000000000000BRMTSAACNPR9071
012024010202MULT3       010MULTIPLAN   ON  EJ  N2   R$  000000000279400000000028200000000002765000000000278100000000027870000000002787000000000279009617000000000003083100000000008574837600000000000000009999123100000010000000000000BRMULTACNOR5137
012024010202BIOM3       010BIOMM       ON      MA   R$  000000000058500000000005900000000000575000000000058200000000005750000000000574000000000058200010000000000000001300000000000000756600000000000000009999123100000010000000000000BRBIOMACNOR2112
012024010202BGIP4       010BANESE      PN           R$  000000000227600000000023230000000002274000000000229600000000023000000000002276000000000230000010000000000000002600000000000005971600000000000000009999123100000010000000000000BRBGIPACNPR8206
012024010202BHIA3       010CASAS BAHIA ON      NM   R$  000000000113400000000011700000000001100000000000112800000000011100000000001103000000000111008800000000000004191900000000004728909000000000000000009999123100000010000000000000BRBHIAACNOR1101
012024010202BRIT3       010BRISANET    ON      NM   R$  000000000036900000000003690000000000353000000000035900000000003550000000000354000000000036201803000000000000510100000000000183332900000000000000009999123100000010000000000000BRBRITACNOR0102
012024010202BRIV3       010ALFA INVEST ON           R$  000000000108500000000010850000000001076000000000107600000000010760000000001076000000000109900002000000000000001000000000000001076900000000000000009999123100000010000000000000BRBRIVACNOR6209
012024010202BRIV4       010ALFA INVEST PN           R$  000000000108000000000010880000000001080000000000108600000000010870000000001087000000000108800012000000000000003400000000000003694200000000000000009999123100000010000000000000BRBRIVACNPR3217
012024010202BRKM3       010BRASKEM     ON      N1   R$  000000000216500000000021650000000002090000000000212000000000021400000000002097000000000214000183000000000000046600000000000098817000000000000000009999123100000010000000000000BRBRKMACNOR1119
012024010202BRKM5       010BRASKEM     PNA     N1   R$  000000000217800000000021800000000002080000000000211300000000021100000000002108000000000211008937000000000002953900000000006244265200000000000000009999123100000010000000000000BRBRKMACNPA4121
012024010202BRSR3       010BANRISUL    ON      N1   R$  000000000138600000000013900000000001335000000000135700000000013540000000001335000000000137000055000000000000011500000000000015612100000000000000009999123100000010000000000000BRBRSRACNOR3185
012024010202BRSR6       010BANRISUL    PNB     N1   R$  000000000133000000000013340000000001278000000000129900000000012830000000001282000000000128406483000000000001826800000000002373022600000000000000009999123100000010000000000000BRBRSRACNPB4188
012024010202FRAS3       010FRAS-LE     ON  EJ  N1   R$  000000000169000000000016990000000001643000000000165900000000016430000000001642000000000165703595000000000000576900000000000957148300000000000000009999123100000010000000000000BRFRASACNOR0158
012024010202FRIO3       010METALFRIO   ON  ES  NM   R$  000000002400000000000240000000000022500000000002334200000000239000000000021900000000002400000007000000000000000700000000000016340000000000000000009999123100000010000000000000BRFRIOACNOR2111
012024010202LAND3       010TERRASANTAPAON      NM   R$  000000000170600000000017060000000001609000000000164400000000016270000000001626000000000162700438000000000000073600000000000121031100000000000000009999123100000010000000000000BRLANDACNOR9102
012024010202LAVV3       010LAVVI       ON      NM   R$  000000000088200000000008820000000000826000000000085000000000008580000000000856000000000085804168000000000001087800000000000924997100000000000000009999123100000010000000000000BRLAVVACNOR4110
012024010202LEVE3       010METAL LEVE  ON  EJ  NM   R$  000000000354700000000035490000000003425000000000346000000000034250000000003425000000000344505624000000000001166800000000004037212100000000000000009999123100000010000000000000BRLEVEACNOR2196
012024010202GEPA4       010GER PARANAP PN           R$  000000000260000000000026100000000002598000000000260400000000026100000000002541000000000261000007000000000000001500000000000003906400000000000000009999123100000010000000000000BRGEPAACNPR9159
012024010202GFSA3       010GAFISA      ON      NM   R$  000000000104200000000011000000000000880000000000099300000000009600000000000944000000000096013839000000000007725300000000007678216300000000000000009999123100000010000000000000BRGFSAACNOR3123
012024010202GGBR3       010GERDAU      ON      N1   R$  000000000213400000000021340000000002107000000000212000000000021100000000002110000000000212000300000000000000051000000000000108142300000000000000009999123100000010000000000000BRGGBRACNOR1189
012024010202GGBR4       010GERDAU      PN      N1   R$  000000000237600000000023820000000002340000000000235500000000023530000000002352000000000235313915000000000005628000000000013259348400000000000000009999123100000010000000000000BRGGBRACNPR8189
012024010202LIPR3       010ELETROPAR   ON           R$  000000000719900000000071990000000007199000000000719900000000071990000000007120000000000720000001000000000000000100000000000000719900000000000000009999123100000010000000000000BRLIPRACNOR7121
012024010202LJQQ3       010QUERO-QUERO ON  EJS NM   R$  000000000058800000000005930000000000573000000000058000000000005790000000000579000000000058210868000000000003055600000000001773624500000000000000009999123100000010000000000000BRLJQQACNOR5104
012024010202LOGG3       010LOG COM PROPON      NM   R$  000000000228900000000022950000000002066000000000212200000000020920000000002090000000000211006275000000000001057100000000002243281600000000000000009999123100000010000000000000BRLOGGACNOR7106
012024010202LOGN3       010LOG-IN      ON      NM   R$  000000000385000000000040470000000003757000000000389900000000038680000000003849000000000387600757000000000000100700000000000392639700000000000000009999123100000010000000000000BRLOGNACNOR3105
012024010202LPSB3       010LOPES BRASILON      NM   R$  000000000025300000000002530000000000240000000000024400000000002420000000000242000000000024600208000000000000107300000000000026238900000000000000009999123100000010000000000000BRLPSBACNOR0113
012024010202LREN3       010LOJAS RENNERON  EJ  NM   R$  000000000172500000000017380000000001704000000000171500000000017210000000001720000000000172127766000000000016840500000000028896001900000000000000009999123100000010000000000000BRLRENACNOR1219
012024010202MYPK3       010IOCHP-MAXIONON      NM   R$  000000000129000000000013070000000001255000000000128300000000012550000000001255000000000125709161000000000002023300000000002596160000000000000000009999123100000010000000000000BRMYPKACNOR7153
012024010202ITUB3       010ITAUUNIBANCOON  EJ  N1   R$  000000000288400000000029000000000002832000000000285000000000028490000000002838000000000285000888000000000000242400000000000691024200000000000000009999123100000010000000000000BRITUBACNOR4329
012024010202ITUB4       010ITAUUNIBANCOPN  EJ  N1   R$  000000000338900000000033890000000003324000000000334800000000033520000000003347000000000335236912000000000018948200000000063452371200000000000000009999123100000010000000000000BRITUBACNPR1329
012024010202RADL3       010RAIADROGASILON  ED  NM   R$  000000000290100000000029290000000002890000000000291100000000029210000000002911000000000292309898000000000002940000000000008560075400000000000000009999123100000010000000000000BRRADLACNOR0154
012024010202RAIL3       010RUMO S.A.   ON      NM   R$  000000000226200000000022700000000002216000000000223900000000022250000000002225000000000222829191000000000013279700000000029738157100000000000000009999123100000010000000000000BRRAILACNOR9104
012024010202RAIZ4       010RAIZEN      PN  EJ  N2   R$  000000000040300000000004100000000000401000000000040400000000004080000000000407000000000040911001000000000011094100000000004490419800000000000000009999123100000010000000000000BRRAIZACNPR6109
012024010202SOND5       010SONDOTECNICAPNA          R$  000000000540000000000054000000000005400000000000540000000000054000000000003705000000000540000001000000000000000200000000000001080000000000000000009999123100000010000000000000BRSONDACNPA8165
012024010202SRNA3       010SERENA      ON      NM   R$  000000000102100000000010210000000000967000000000098500000000009770000000000976000000000097706266000000000001383700000000001364071800000000000000009999123100000010000000000000BRSRNAACNOR4100
012024010202IGTI4       010IGUATEMI S.APN      N1   R$  000000000105000000000010510000000001048000000000104900000000010480000000001008000000000105800006000000000000000800000000000000839400000000000000009999123100000010000000000000BRIGTIACNPR5104
012024010202INEP3       010INEPAR      ON           R$  000000000040200000000004020000000000402000000000040200000000004020000000000401000000000040200053000000000000028900000000000011617800000000000000009999123100000010000000000000BRINEPACNOR1143
012024010202INEP4       010INEPAR      PN           R$  000000000030000000000003000000000000300000000000030000000000003000000000000300000000000030100059000000000000057900000000000017370000000000000000009999123100000010000000000000BRINEPACNPR8143
012024010202INTB3       010INTELBRAS   ON  EJ  NM   R$  000000000220000000000022000000000002066000000000210500000000020850000000002084000000000208505622000000000001168300000000002460037100000000000000009999123100000010000000000000BRINTBACNOR9109
012024010202IRBR3       010IRBBRASIL REON      NM   R$  000000000443400000000044410000000004166000000000426400000000041920000000004191000000000419508726000000000002342700000000009989946100000000000000009999123100000010000000000000BRIRBRACNOR4110
012024010202LUPA3       010LUPATECH    ON      NM   R$  000000000022600000000002270000000000213000000000021800000000002140000000000214000000000021601075000000000000387300000000000084498800000000000000009999123100000010000000000000BRLUPAACNOR8112
012024010202LVTC3       010WDC NETWORKSON      NM   R$  000000000041700000000004220000000000417000000000042000000000004220000000000421000000000042200049000000000000009700000000000004079100000000000000009999123100000010000000000000BRLVTCACNOR4102
012024010202LWSA3       010LOCAWEB     ON      NM   R$  000000000059900000000006000000000000556000000000057300000000005570000000000556000000000055717666000000000011838700000000006786224800000000000000009999123100000010000000000000BRLWSAACNOR8103
012024010202STBP3       010SANTOS BRP  ON  EDJ NM   R$  000000000093600000000009360000000000907000000000092000000000009210000000000919000000000092214740000000000005693600000000005241787400000000000000009999123100000010000000000000BRSTBPACNOR3128
012024010202SUZB3       010SUZANO S.A. ON      NM   R$  000000000557000000000056290000000005472000000000551900000000055140000000005509000000000551513969000000000002961200000000016343129700000000000000009999123100000010000000000000BRSUZBACNOR0129
012024010202VAMO3       010VAMOS       ON  EJ  NM   R$  000000000100000000000010030000000000941000000000096300000000009410000000000940000000000094519723000000000007235600000000006973561000000000000000009999123100000010000000000000BRVAMOACNOR7105
012024010202POSI3       010POSITIVO TECON      NM   R$  000000000069600000000006960000000000658000000000066900000000006580000000000658000000000065907833000000000002891200000000001936028500000000000000009999123100000010000000000000BRPOSIACNOR9115
012024010202PRIO3       010PETRORIO    ON      NM   R$  000000000465800000000046690000000004525000000000459100000000045350000000004535000000000453619182000000000007566100000000034736335900000000000000009999123100000010000000000000BRPRIOACNOR1106
012024010202SMFT3       010SMART FIT   ON      NM   R$  000000000252700000000025360000000002468000000000249600000000024830000000002482000000000248913612000000000003244300000000008098649900000000000000009999123100000010000000000000BRSMFTACNOR1111
012024010202SMTO3       010SAO MARTINHOON      NM   R$  000000000293100000000029400000000002826000000000287700000000028480000000002842000000000284810508000000000002062700000000005936357700000000000000009999123100000010000000000000BRSMTOACNOR3125
012024010202SNSY5       010SANSUY      PNA          R$  000000000036900000000003830000000000369000000000037400000000003820000000000374000000000038300042000000000000017800000000000006673400000000000000009999123100000010000000000000BRSNSYACNPA5111
012024010202SOJA3       010BOA SAFRA   ON  EJ  NM   R$  000000000160000000000016340000000001563000000000159300000000015790000000001579000000000158001277000000000000258600000000000412128200000000000000009999123100000010000000000000BRSOJAACNOR9105
012024010202SOMA3       010GRUPO SOMA  ON      NM   R$  000000000074400000000007440000000000712000000000072200000000007160000000000715000000000071622817000000000011990100000000008667502700000000000000009999123100000010000000000000BRSOMAACNOR3102
012024010202ODPV3       010ODONTOPREV  ON  EJ  NM   R$  000000000116100000000011650000000001113000000000112800000000011200000000001115000000000112107667000000000001456500000000001643677100000000000000009999123100000010000000000000BRODPVACNOR4198
012024010202OFSA3       010OUROFINO S/AON  EJ  NM   R$  000000000257000000000026000000000002494000000000256200000000024940000000002494000000000258400286000000000000046500000000000119154400000000000000009999123100000010000000000000BROFSAACNOR7117
012024010202ONCO3       010ONCOCLINICASON      NM   R$  000000000128700000000012950000000001240000000000125400000000012500000000001250000000000125615213000000000003630200000000004554117600000000000000009999123100000010000000000000BRONCOACNOR6100
012024010202OPCT3       010OCEANPACT   ON      NM   R$  000000000063400000000006340000000000610000000000061500000000006100000000000610000000000061103442000000000000875000000000000538735300000000000000009999123100000010000000000000BROPCTACNOR0100
012024010202NEOE3       010NEOENERGIA  ON      NM   R$  000000000213400000000021340000000002081000000000210200000000021010000000002100000000000210106202000000000001231500000000002589213100000000000000009999123100000010000000000000BRNEOEACNOR3120
012024010202NGRD3       010NEOGRID     ON      NM   R$  000000000012500000000001280000000000124000000000012500000000001250000000000125000000000012600628000000000000429200000000000054077900000000000000009999123100000010000000000000BRNGRDACNOR3103
012024010202NINJ3       010GETNINJAS   ON      NM   R$  000000000050000000000005040000000000491000000000049600000000004910000000000491000000000049200807000000000000157100000000000077981000000000000000009999123100000010000000000000BRNINJACNOR5100
012024010202NORD3       010NORDON MET  ON           R$  000000000033000000000003300000000000330000000000033000000000003300000000000330000000000044300001000000000000000100000000000000033000000000000000009999123100000010000000000000BRNORDACNOR7135
012024010202PTNT4       010PETTENATI   PN           R$  000000000086000000000008600000000000830000000000083500000000008350000000000835000000000084000029000000000000009400000000000007857900000000000000009999123100000010000000000000BRPTNTACNPR3047
012024010202QUAL3       010QUALICORP   ON      NM   R$  000000000033800000000003390000000000321000000000033000000000003230000000000323000000000032409772000000000005489900000000001814242000000000000000009999123100000010000000000000BRQUALACNOR6119
012024010202BRGE3       010ALFA CONSORCON           R$  000000000112800000000011280000000001128000000000112800000000011280000000001128000000000116900001000000000000000600000000000000676800000000000000009999123100000010000000000000BRBRGEACNOR6203
012024010202CSMG3       010COPASA      ON  EJ  NM   R$  000000000204900000000020680000000002010000000000203200000000020200000000002020000000000202407211000000000001274500000000002590700200000000000000009999123100000010000000000000BRCSMGACNOR5171
012024010202CSNA3       010SID NACIONALON           R$  000000000195600000000019600000000001926000000000193900000000019410000000001938000000000194208963000000000004502100000000008731222600000000000000009999123100000010000000000000BRCSNAACNOR6260
012024010202CSUD3       010CSU DIGITAL ON      NM   R$  000000000195600000000019560000000001840000000000188700000000019100000000001894000000000191000839000000000000164300000000000310133400000000000000009999123100000010000000000000BRCSUDACNOR5107
012024010202CTKA4       010KARSTEN     PN           R$  000000000165500000000018390000000001655000000000174700000000018390000000001600000000000184000002000000000000000200000000000000349400000000000000009999123100000010000000000000BRCTKAACNPR7043
012024010202CTNM3       010COTEMINAS   ON           R$  000000000080000000000008000000000000800000000000080000000000008000000000000791000000000082000001000000000000000100000000000000080000000000000000009999123100000010000000000000BRCTNMACNOR9130
012024010202CTNM4       010COTEMINAS   PN           R$  000000000016000000000001600000000000155000000000015700000000001570000000000156000000000015700119000000000000070800000000000011175900000000000000009999123100000010000000000000BRCTNMACNPR6129
012024010202EZTC3       010EZTEC       ON      NM   R$  000000000187100000000018900000000001747000000000178800000000017470000000001746000000000174809027000000000002399000000000004290743300000000000000009999123100000010000000000000BREZTCACNOR0123
012024010202FESA4       010FERBASA     PN  EJ  N1   R$  000000000464900000000046490000000004460000000000452900000000044610000000004460000000000449101748000000000000259200000000001174161700000000000000009999123100000010000000000000BRFESAACNPR5082
012024010202FHER3       010FER HERINGERON      NM   R$  000000000074100000000007570000000000740000000000074900000000007540000000000753000000000075400030000000000000005100000000000003821000000000000000009999123100000010000000000000BRFHERACNOR5103
012024010202FIQE3       010UNIFIQUE    ON      NM   R$  000000000039900000000004000000000000386000000000039300000000003870000000000387000000000038900934000000000000256200000000000100782100000000000000009999123100000010000000000000BRFIQEACNOR5105
012024010202FLRY3       010FLEURY      ON      NM   R$  000000000180100000000018080000000001767000000000178100000000017850000000001783000000000178511571000000000002855400000000005086382600000000000000009999123100000010000000000000BRFLRYACNOR5137
012024010202ASAI3       010ASSAI       ON      NM   R$  000000000134500000000013450000000001290000000000131100000000013020000000001301000000000130219333000000000007348700000000009634310300000000000000009999123100000010000000000000BRASAIACNOR0106
012024010202ATOM3       010ATOMPAR     ON           R$  000000000021300000000002220000000000213000000000021900000000002220000000000219000000000022200032000000000000004800000000000001052200000000000000009999123100000010000000000000BRATOMACNOR1106
012024010202AURE3       010AUREN       ON      NM   R$  000000000133100000000013410000000001322000000000133100000000013300000000001329000000000133008055000000000005209500000000006936216900000000000000009999123100000010000000000000BRAUREACNOR9103
012024010207NUTR3       010NUTRIPLANT  ON      MA   R$  000000000044600000000004460000000000419000000000043200000000004300000000000413000000000043000021000000000000004000000000000001728700000000000000009999123100000010000000000000BRNUTRACNOR0104
012024010208AMER3       010AMERICANAS  ON      NM   R$  000000000009100000000000920000000000090000000000009000000000000900000000000090000000000009104673000000000009105200000000000828311300000000000000009999123100000010000000000000BRAMERACNOR6101
012024010208TEKA4       010TEKA        PN           R$  000000000210000000000021000000000002100000000000210000000000021000000000002000000000000240000001000000000000000100000000000000210000000000000000009999123100000010000000000000BRTEKAACNPR3140
012024010208ETER3       010ETERNIT     ON  EJ  NM   R$  000000000085100000000008570000000000828000000000083900000000008350000000000834000000000083500743000000000000214100000000000179822400000000000000009999123100000010000000000000BRETERACNOR3242
012024010208RSID3       010ROSSI RESID ON      NM   R$  000000000039800000000004180000000000396000000000040500000000004010000000000400000000000040400145000000000000079100000000000032040600000000000000009999123100000010000000000000BRRSIDACNOR8120
012024010208PMAM3       010PARANAPANEMAON  ES  NM   R$  000000000043400000000004400000000000421000000000043200000000004260000000000425000000000043000098000000000000028000000000000012107500000000000000009999123100000010000000000000BRPMAMACNOR3038
012024010208HOOT4       010HOTEIS OTHONPN           R$  000000000028800000000002880000000000279000000000028200000000002790000000000278000000000028400008000000000000000800000000000000225900000000000000009999123100000010000000000000BRHOOTACNPR9015
012024010208RNEW11      010RENOVA      UNT     N2   R$  000000000038100000000004080000000000370000000000039300000000004080000000000382000000000040800379000000000000056300000000000022151700000000000000009999123100000010000000000000BRRNEWCDAM15110
012024010208RNEW3       010RENOVA      ON      N2   R$  000000000012500000000001360000000000123000000000012900000000001330000000000130000000000013300826000000000000572300000000000074250800000000000000009999123100000010000000000000BRRNEWACNOR8110
012024010208RNEW4       010RENOVA      PN      N2   R$  000000000012900000000001390000000000126000000000013500000000001390000000000136000000000013900870000000000000416100000000000056176700000000000000009999123100000010000000000000BRRNEWACNPR5110
012024010208RPMG3       010PET MANGUINHON           R$  000000000021200000000002140000000000205000000000020800000000002130000000000210000000000021300027000000000000008800000000000001838700000000000000009999123100000010000000000000BRRPMGACNOR9194
012024010208JFEN3       010JOAO FORTES ON           R$  000000000021500000000002330000000000210000000000021800000000002110000000000210000000000021100151000000000000098900000000000021567100000000000000009999123100000010000000000000BRJFENACNOR0058
012024010208FRTA3       010POMIFRUTAS  ON      NM   R$  000000000019500000000001950000000000181000000000018600000000001900000000000185000000000019000035000000000000013000000000000002428400000000000000009999123100000010000000000000BRFRTAACNOR8103
012024010208LIGT3       010LIGHT S/A   ON      NM   R$  000000000077800000000007900000000000735000000000075400000000007380000000000738000000000074404333000000000000977000000000000736768100000000000000009999123100000010000000000000BRLIGTACNOR2124
012024010208OIBR3       010OI          ON      N1   R$  000000000006400000000000650000000000062000000000006300000000000630000000000062000000000006301218000000000006627300000000000420337600000000000000009999123100000010000000000000BROIBRACNOR1110
012024010208OIBR4       010OI          PN      N1   R$  000000000016300000000001660000000000162000000000016400000000001630000000000162000000000016300064000000000000026600000000000004375300000000000000009999123100000010000000000000BROIBRACNPR8109
012024010208NEXP3       010NEXPE       ON      NM   R$  000000000050400000000005040000000000501000000000050100000000005010000000000503000000000051900007000000000000003000000000000001504900000000000000009999123100000010000000000000BRNEXPACNOR0101
012024010208ATMP3       010ATMASA      ON           R$  000000000045500000000004610000000000440000000000045100000000004550000000000455000000000046000094000000000000044700000000000020198700000000000000009999123100000010000000000000BRATMPACNOR8100
012024010210CBAV9       010CBA         ON  REC NM   R$  000000000049100000000005100000000000486000000000049700000000004860000000000486000000000049800177000000000000058100000000000028925000000000000000009999123100000010000000000000BRCBAVR01OR0103
012024010210AVLL1       010ALPHAVILLE  DIR ORD NM   R$  000000000000100000000000020000000000001000000000000100000000000010000000000001000000000000200072000000000000284000000000000000457700000000000000009999123100000010000000000000BRAVLLD02OR8102
012024010210RENT1       010LOCALIZA    DIR ORD NM   R$  000000000191600000000022060000000001793000000000185100000000022060000000002205000000000246500515000000000000064200000000000118866100000000000000009999123100000010000000000000BRRENTD05OR0193
012024010210PMAM1       010PARANAPANEMADIR ORD NM   R$  000000000001500000000000200000000000012000000000001500000000000120000000000010000000000001200055000000000000054300000000000000830200000000000000009999123100000010000000000000BRPMAMD03OR4037
012024010210BIOM1       010BIOMM       DIR ORD MA   R$  000000000000200000000000030000000000001000000000000200000000000020000000000001000000000000200074000000000000673200000000000001363000000000000000009999123100000010000000000000BRBIOMD10OR8111
012024010210FRIO1       010METALFRIO   DIR ORD NM   R$  000000000029000000000003000000000000257000000000026800000000002600000000000245000000000030000006000000000000000700000000000000188100000000000000009999123100000010000000000000BRFRIOD03OR3110
012024010212ABCP11      010FII ABC IMOBCI  ER       R$  000000000698100000000069820000000006898000000000693500000000069590000000006950000000000696000206000000000000002391000000000016583149000000000000009999123100000010000000000000BRABCPCTF000334
012024010212ALZM11      010FII ALIANZMECI  EB       R$  000000000089100000000008940000000000872000000000087800000000008800000000000875000000000088000955000000000000054923000000000048238639000000000000009999123100000010000000000000BRALZMCTF007117
012024010212ALZR11      010FII ALIANZA CI           R$  000000001176400000000118000000000011764000000001178400000000118000000000011789000000001180001944000000000000014409000000000169809282000000000000009999123100000010000000000000BRALZRCTF006176
012024010212RCFA11      010FII GP RCFA CI           R$  000000000013300000000001430000000000128000000000013500000000001310000000000130000000000013100067000000000000001485000000000000201371000000000000009999123100000010000000000000BRRCFACTF007101
012024010212RCFF11      010FII RBR FEEDCI           R$  000000000989900000000098990000000009899000000000989900000000098990000000008821000000000989900001000000000000000001000000000000009899000000000000009999123100000010000000000000BRRCFFCTF006106
012024010212RCRB11      010FII RIOB RC CI           R$  000000001610000000000161000000000015925000000001601700000000159590000000015931000000001605900772000000000000003470000000000055582438000000000000009999123100000010000000000000BRRCRBCTF000151
012024010212TRBL11      010FII SDI LOG CI  ER       R$  000000000977200000000098970000000009772000000000983200000000098150000000009815000000000982002078000000000000008335000000000081956299000000000000009999123100000010000000000000BRTRBLCTF007107
012024010212TRNT11      010FII TORRE NOCI           R$  000000001359600000000135960000000013596000000001359600000000135960000000011906000000001359600001000000000000000001000000000000013596000000000000009999123100000010000000000000BRTRNTCTF013335
012024010212VOTS11      010FII V MASTERCI  ER       R$  000000000822900000000082290000000008041000000000817900000000081970000000008070000000000819800036000000000000000233000000000001905761000000000000009999123100000010000000000000BRVOTSCTF007165
012024010212VRTA11      010FII FATOR VECI  ER       R$  000000000888200000000089000000000008752000000000881400000000088160000000008807000000000881605697000000000000025959000000000228815592000000000000009999123100000010000000000000BRVRTACTF008255
012024010212VRTM11      010FII VRTM    CI  ER       R$  000000000106900000000010690000000001069000000000106900000000010690000000001030000000000106900003000000000000000327000000000000349563000000000000009999123100000010000000000000BRVRTMCTF003102
012024010212VSHO11      010FII VOT SHOPCI  ER       R$  000000000840400000000084070000000008350000000000837900000000083690000000008369000000000839900103000000000000000754000000000006318177000000000000009999123100000010000000000000BRVSHOCTF002156
012024010212VSLH11      010FII VERS CRICI           R$  000000000041200000000004270000000000412000000000041900000000004190000000000419000000000042203047000000000000091360000000000038361961000000000000009999123100000010000000000000BRVSLHCTF008137
012024010212BLMC11      010FII BLUE CRICI           R$  000000000851700000000085170000000008391000000000840700000000084020000000008403000000000850000006000000000000000059000000000000496042000000000000009999123100000010000000000000BRBLMCCTF004134
012024010212BLMG11      010FII BLUE LOGCI           R$  000000000411000000000043340000000004082000000000422300000000041930000000004148000000000419406562000000000000065058000000000274746948000000000000009999123100000010000000000000BRBLMGCTF005141
012024010212BLMO11      010FII BLUEMAC CI  ERB      R$  000000000805000000000090000000000008050000000000895700000000085000000000008200000000000850000023000000000000000069000000000000618050000000000000009999123100000010000000000000BRBLMOCTF009126
012024010212BLMR11      010FII BLUE FOFCI           R$  000000000066600000000006670000000000659000000000066300000000006640000000000664000000000066702337000000000000055433000000000036765409000000000000009999123100000010000000000000BRBLMRCTF002134
012024010212BLUR11      010FII BLUE RECCI           R$  000000000968200000000096820000000009682000000000968200000000096820000000008200000000000910000001000000000000000001000000000000009682000000000000009999123100000010000000000000BRBLURCTF005121
012024010212BMLC11      010FII BMBRC LCCI           R$  000000001068000000000106800000000010496000000001058600000000106800000000010516000000001069000011000000000000000095000000000001005719000000000000009999123100000010000000000000BRBMLCCTF004244
