00COTAHIST.2024BOVESPA 20240524                                                                                                                                                                                                                      
012024052402SEQL3       010SEQUOIA LOG ON      NM   R$  000000000003600000000000360000000000034000000000003500000000000340000000000034000000000003500445000000000002710200000000000095090800000000000000009999123100000010000000000000BRSEQLACNOR2102
012024052402SHOW3       010TIME FOR FUNON      NM   R$  000000000019200000000001970000000000192000000000019400000000001930000000000193000000000019400245000000000000076200000000000014841200000000000000009999123100000010000000000000BRSHOWACNOR7105
012024052402SHUL4       010SCHULZ      PN           R$  000000000062400000000006280000000000611000000000061600000000006110000000000611000000000061201323000000000000471700000000000290829000000000000000009999123100000010000000000000BRSHULACNPR4155
012024052402SIMH3       010SIMPAR      ON      NM   R$  000000000061600000000006220000000000606000000000061200000000006130000000000612000000000061303792000000000002372600000000001452637100000000000000009999123100000010000000000000BRSIMHACNOR0107
012024052402SLCE3       010SLC AGRICOLAON      NM   R$  000000000184200000000018580000000001828000000000183800000000018290000000001828000000000183607474000000000001508500000000002773421100000000000000009999123100000010000000000000BRSLCEACNOR2125
012024052402VALE3       010VALE        ON      NM   R$  000000000650000000000065660000000006490000000000652000000000065080000000006506000000000650926114000000000011727600000000076469333600000000000000009999123100000010000000000000BRVALEACNOR0210
012024052402RSUL4       010RIOSULENSE  PN           R$  000000000712900000000071930000000006940000000000709000000000071930000000006915000000000719500016000000000000001800000000000012762900000000000000009999123100000010000000000000BRRSULACNPR3114
012024052402SANB11      010SANTANDER BRUNT          R$  000000000279700000000028170000000002761000000000278900000000028050000000002804000000000281813364000000000004939000000000013777519400000000000000009999123100000010000000000000BRSANBCDAM13164
012024052402SANB3       010SANTANDER BRON           R$  000000000132700000000013270000000001306000000000131500000000013250000000001322000000000132500527000000000000098000000000000128901100000000000000009999123100000010000000000000BRSANBACNOR8171
012024052402ESPA3       010ESPACOLASER ON      NM   R$  000000000012100000000001210000000000117000000000011800000000001190000000000117000000000011900243000000000000280400000000000033332900000000000000009999123100000010000000000000BRESPAACNOR7103
012024052402ESTR4       010ESTRELA     PN           R$  000000000020000000000002000000000000200000000000020000000000002000000000000185000000000021400001000000000000000100000000000000020000000000000000009999123100000010000000000000BRESTRACNPR0144
012024052402EUCA3       010EUCATEX     ON      N1   R$  000000000150500000000015060000000001505000000000150500000000015050000000001505000000000158800004000000000000000400000000000000602100000000000000009999123100000010000000000000BREUCAACNOR1157
012024052402EUCA4       010EUCATEX     PN      N1   R$  000000000139800000000013980000000001376000000000138400000000013820000000001382000000000138900312000000000000052000000000000071968500000000000000009999123100000010000000000000BREUCAACNPR8044
012024052402EVEN3       010EVEN        ON  ED  NM   R$  000000000067800000000006840000000000657000000000066900000000006610000000000658000000000066103337000000000001181300000000000790578200000000000000009999123100000010000000000000BREVENACNOR8119
012024052402SANB4       010SANTANDER BRPN           R$  000000000148900000000014900000000001460000000000147100000000014780000000001478000000000148400455000000000000081200000000000119451200000000000000009999123100000010000000000000BRSANBACNPR5171
012024052402USIM5       010USIMINAS    PNA     N1   R$  000000000079900000000008000000000000773000000000078800000000007930000000000792000000000079315032000000000016321900000000012870006400000000000000009999123100000010000000000000BRUSIMACNPA6169
012024052402ROMI3       010ROMI        ON      NM   R$  000000000105000000000010620000000001048000000000105300000000010500000000001049000000000105000704000000000000155600000000000163975500000000000000009999123100000010000000000000BRROMIACNOR8194
012024052402RRRP3       0103R PETROLEUMON      NM   R$  000000000279500000000028060000000002731000000000276300000000027410000000002740000000000274109160000000000004061400000000011224728000000000000000009999123100000010000000000000BRRRRPACNOR5103
012024052402TRIS3       010TRISUL      ON      NM   R$  000000000047400000000004750000000000464000000000046700000000004640000000000464000000000046800523000000000000220300000000000102886300000000000000009999123100000010000000000000BRTRISACNOR4118
012024052402TRPL3       010TRAN PAULISTON      N1   R$  000000000351000000000035960000000003501000000000354300000000035960000000003505000000000366300005000000000000000700000000000002480100000000000000009999123100000010000000000000BRTRPLACNOR4185
012024052402TRPL4       010TRAN PAULISTPN      N1   R$  000000000268500000000027320000000002677000000000271100000000026990000000002698000000000270309106000000000002157300000000005849240100000000000000009999123100000010000000000000BRTRPLACNPR1185
012024052402TTEN3       0103TENTOS     ON      NM   R$  000000000101600000000010160000000000991000000000100000000000009950000000000995000000000100202181000000000000367800000000000368121100000000000000009999123100000010000000000000BRTTENACNOR0103
012024052402PGMN3       010PAGUE MENOS ON      NM   R$  000000000025100000000002510000000000245000000000024600000000002460000000000245000000000024601103000000000000684900000000000168643000000000000000009999123100000010000000000000BRPGMNACNOR8103
012024052402PINE4       010PINE        PN      N2   R$  000000000044800000000004520000000000444000000000044700000000004450000000000445000000000044900388000000000000152900000000000068366300000000000000009999123100000010000000000000BRPINEACNPR8149
012024052402PLAS3       010PLASCAR PARTON           R$  000000000055000000000005500000000000521000000000053700000000005210000000000520000000000055000008000000000000000800000000000000430200000000000000009999123100000010000000000000BRPLASACNOR2106
012024052402PLPL3       010PLANOEPLANO ON      NM   R$  000000000094500000000009560000000000913000000000093100000000009480000000000948000000000095303466000000000001003500000000000934666400000000000000009999123100000010000000000000BRPLPLACNOR5104
012024052402PNVL3       010DIMED       ON      NM   R$  000000000106000000000010630000000001043000000000105000000000010460000000001046000000000105000866000000000000142800000000000150039100000000000000009999123100000010000000000000BRPNVLACNOR9206
012024052402POMO3       010MARCOPOLO   ON  EJ  N2   R$  000000000054000000000005430000000000526000000000053400000000005380000000000537000000000054000679000000000000242200000000000129525900000000000000009999123100000010000000000000BRPOMOACNOR0098
012024052402HYPE3       010HYPERA      ON  EJ  NM   R$  000000000297400000000030210000000002953000000000298000000000029700000000002963000000000297005744000000000003132900000000009339118600000000000000009999123100000010000000000000BRHYPEACNOR0141
012024052402KRSA3       010KORA SAUDE  ON      NM   R$  000000000007200000000000750000000000069000000000007200000000000700000000000069000000000007000140000000000000456500000000000032929600000000000000009999123100000010000000000000BRKRSAACNOR0100
012024052402LAND3       010TERRASANTAPAON      NM   R$  000000000151000000000015100000000001480000000000148400000000014810000000001479000000000148100128000000000000058700000000000087121700000000000000009999123100000010000000000000BRLANDACNOR9103
012024052402LAVV3       010LAVVI       ON  ED  NM   R$  000000000088100000000008880000000000869000000000087700000000008880000000000878000000000088801633000000000000478400000000000419882600000000000000009999123100000010000000000000BRLAVVACNOR4112
012024052402LEVE3       010METAL LEVE  ON      NM   R$  000000000327100000000032970000000003258000000000327400000000032580000000003257000000000327601529000000000000244800000000000801606500000000000000009999123100000010000000000000BRLEVEACNOR2197
012024052402LJQQ3       010QUERO-QUERO ON      NM   R$  000000000048800000000004890000000000471000000000047700000000004710000000000471000000000047505362000000000001562300000000000746181500000000000000009999123100000010000000000000BRLJQQACNOR5104
012024052402LOGG3       010LOG COM PROPON      NM   R$  000000000220300000000022280000000002197000000000220700000000022000000000002196000000000220000910000000000000128500000000000283663600000000000000009999123100000010000000000000BRLOGGACNOR7107
012024052402LOGN3       010LOG-IN      ON      NM   R$  000000000384900000000038770000000003824000000000383800000000038250000000003825000000000384000105000000000000015400000000000059118000000000000000009999123100000010000000000000BRLOGNACNOR3105
012024052402JHSF3       010JHSF PART   ON      NM   R$  000000000040800000000004130000000000406000000000040800000000004060000000000406000000000040702982000000000001966000000000000803963900000000000000009999123100000010000000000000BRJHSFACNOR2135
012024052402CAMB3       010CAMBUCI     ON  ED       R$  000000000101100000000010300000000001011000000000102400000000010220000000001022000000000102800108000000000000040500000000000041506400000000000000009999123100000010000000000000BRCAMBACNOR4129
012024052402CYRE3       010CYRELA REALTON      NM   R$  000000000195100000000020100000000001947000000000197500000000019580000000001958000000000196617180000000000007798100000000015405504700000000000000009999123100000010000000000000BRCYREACNOR7140
012024052402DASA3       010DASA        ON      NM   R$  000000000037500000000004360000000000363000000000040000000000004270000000000426000000000042704266000000000001725100000000000691667800000000000000009999123100000010000000000000BRDASAACNOR1122
012024052402NEOE3       010NEOENERGIA  ON      NM   R$  000000000194100000000019770000000001941000000000196100000000019600000000001951000000000196002467000000000000485900000000000953190400000000000000009999123100000010000000000000BRNEOEACNOR3122
012024052402FHER3       010FER HERINGERON      NM   R$  000000000047100000000004810000000000462000000000047200000000004620000000000462000000000047900026000000000000006100000000000002883300000000000000009999123100000010000000000000BRFHERACNOR5103
012024052402FIQE3       010UNIFIQUE    ON      NM   R$  000000000036100000000003670000000000358000000000036100000000003600000000000360000000000036300662000000000000243900000000000088181700000000000000009999123100000010000000000000BRFIQEACNOR5106
012024052402FLRY3       010FLEURY      ON      NM   R$  000000000142600000000014360000000001414000000000142400000000014220000000001421000000000142504100000000000001372100000000001954522600000000000000009999123100000010000000000000BRFLRYACNOR5138
012024052402FRAS3       010FRAS-LE     ON      N1   R$  000000000177300000000017930000000001770000000000178000000000017800000000001780000000000178500809000000000000123100000000000219132600000000000000009999123100000010000000000000BRFRASACNOR0159
012024052402GEPA3       010GER PARANAP ON           R$  000000000245100000000026000000000002450000000000250700000000026000000000002424000000000274000005000000000000001300000000000003260100000000000000009999123100000010000000000000BRGEPAACNOR2153
012024052402GEPA4       010GER PARANAP PN           R$  000000000252500000000025490000000002475000000000249200000000024750000000002477000000000254700004000000000000000700000000000001744900000000000000009999123100000010000000000000BRGEPAACNPR9160
012024052402GFSA3       010GAFISA      ON      NM   R$  000000000050000000000005000000000000478000000000048400000000004800000000000479000000000048001910000000000001824300000000000884207500000000000000009999123100000010000000000000BRGFSAACNOR3124
012024052402ITUB3       010ITAUUNIBANCOON      N1   R$  000000000277000000000027700000000002738000000000275200000000027440000000002743000000000274401300000000000000313600000000000863055800000000000000009999123100000010000000000000BRITUBACNOR4335
012024052402ITUB4       010ITAUUNIBANCOPN      N1   R$  000000000322200000000032240000000003173000000000319200000000031850000000003184000000000318542767000000000020649100000000065915176700000000000000009999123100000010000000000000BRITUBACNPR1335
012024052402AERI3       010AERIS       ON      NM   R$  000000000089400000000009010000000000890000000000089300000000008930000000000892000000000089300278000000000000065400000000000058402300000000000000009999123100000010000000000000BRAERIACNOR4102
012024052402AESB3       010AES BRASIL  ON      NM   R$  000000000111400000000011190000000001113000000000111600000000011180000000001116000000000111804479000000000004647200000000005187050500000000000000009999123100000010000000000000BRAESBACNOR7106
012024052402AGRO3       010BRASILAGRO  ON      NM   R$  000000000252000000000025420000000002513000000000252800000000025340000000002531000000000253500634000000000000097600000000000246777700000000000000009999123100000010000000000000BRAGROACNOR7114
012024052402AGXY3       010AGROGALAXY  ON      NM   R$  000000000013700000000001380000000000134000000000013600000000001350000000000135000000000013800700000000000000270100000000000036768500000000000000009999123100000010000000000000BRAGXYACNOR4103
012024052402ALLD3       010ALLIED      ON      NM   R$  000000000070800000000007080000000000693000000000069700000000006970000000000695000000000069700362000000000000088100000000000061467300000000000000009999123100000010000000000000BRALLDACNOR3106
012024052402ALOS3       010ALLOS       ON      NM   R$  000000000210900000000021610000000002101000000000213700000000021300000000002130000000000213309972000000000003615300000000007727020600000000000000009999123100000010000000000000BRALOSACNOR5101
012024052402BBSE3       010BBSEGURIDADEON      NM   R$  000000000334300000000033630000000003269000000000329100000000032690000000003269000000000327017377000000000006488600000000021359215300000000000000009999123100000010000000000000BRBBSEACNOR5124
012024052402BEEF3       010MINERVA     ON      NM   R$  000000000064300000000006670000000000643000000000065900000000006550000000000655000000000066007376000000000007830500000000005164707900000000000000009999123100000010000000000000BRBEEFACNOR6116
012024052402BPAN4       010BANCO PAN   PN      N1   R$  000000000093500000000009460000000000925000000000093300000000009290000000000928000000000092902508000000000000703900000000000657157900000000000000009999123100000010000000000000BRBPANACNPR1115
012024052402BRAP3       010BRADESPAR   ON      N1   R$  000000000191200000000019390000000001905000000000192900000000019370000000001923000000000193700164000000000000028100000000000054220900000000000000009999123100000010000000000000BRBRAPACNOR5148
012024052402BRAP4       010BRADESPAR   PN      N1   R$  000000000200000000000020190000000001995000000000200700000000020000000000001999000000000200203798000000000001885100000000003784205600000000000000009999123100000010000000000000BRBRAPACNPR2148
012024052402CSUD3       010CSU DIGITAL ON      NM   R$  000000000185700000000019360000000001857000000000190800000000019040000000001904000000000192400396000000000000055500000000000105939700000000000000009999123100000010000000000000BRCSUDACNOR5109
012024052402CTKA4       010KARSTEN     PN           R$  000000000175000000000017500000000001750000000000175000000000017500000000001700000000000180000001000000000000000100000000000000175000000000000000009999123100000010000000000000BRCTKAACNPR7043
012024052402CURY3       010CURY S/A    ON      NM   R$  000000000188200000000019090000000001876000000000188900000000018780000000001877000000000188605862000000000001299800000000002456414700000000000000009999123100000010000000000000BRCURYACNOR3109
012024052402CVCB3       010CVC BRASIL  ON      NM   R$  000000000020500000000002110000000000203000000000020600000000002040000000000204000000000020503655000000000006875300000000001421947800000000000000009999123100000010000000000000BRCVCBACNOR1115
012024052402CXSE3       010CAIXA SEGURION      NM   R$  000000000155500000000015790000000001551000000000156300000000015550000000001555000000000156107898000000000002707100000000004233373300000000000000009999123100000010000000000000BRCXSEACNOR7106
012024052402GGBR3       010GERDAU      ON  ED  N1   R$  000000000165000000000016800000000001640000000000165700000000016400000000001640000000000164400300000000000000052400000000000086871800000000000000009999123100000010000000000000BRGGBRACNOR1192
012024052402GGBR4       010GERDAU      PN  ED  N1   R$  000000000186900000000018960000000001865000000000187900000000018720000000001872000000000187328396000000000016587000000000031168320700000000000000009999123100000010000000000000BRGGBRACNPR8192
012024052402MILS3       010MILLS       ON      NM   R$  000000000127700000000012820000000001230000000000124900000000012390000000001231000000000123902791000000000001213000000000001515993100000000000000009999123100000010000000000000BRMILSACNOR2126
012024052402ALPA3       010ALPARGATAS  ON      N1   R$  000000000102400000000010240000000001023000000000102300000000010230000000000955000000000102300004000000000000000700000000000000716200000000000000009999123100000010000000000000BRALPAACNOR0231
012024052402ALPA4       010ALPARGATAS  PN      N1   R$  000000000099600000000009970000000000977000000000098300000000009790000000000978000000000098203999000000000001661500000000001634485200000000000000009999123100000010000000000000BRALPAACNPR7232
012024052402ALPK3       010ESTAPAR     ON      NM   R$  000000000036000000000003690000000000360000000000036600000000003670000000000365000000000036700215000000000000059700000000000021869600000000000000009999123100000010000000000000BRALPKACNOR9101
012024052402ALUP11      010ALUPAR      UNT ED  N2   R$  000000000296800000000029700000000002935000000000294600000000029490000000002945000000000294903141000000000000667500000000001967100800000000000000009999123100000010000000000000BRALUPCDAM15119
012024052402ALUP3       010ALUPAR      ON  ED  N2   R$  000000000099100000000009960000000000987000000000099200000000009960000000000991000000000099600061000000000000008800000000000008738100000000000000009999123100000010000000000000BRALUPACNOR8119
012024052402ALUP4       010ALUPAR      PN  ED  N2   R$  000000000098400000000009850000000000975000000000097900000000009790000000000973000000000098000054000000000000007800000000000007640600000000000000009999123100000010000000000000BRALUPACNPR5119
012024052402TUPY3       010TUPY        ON      NM   R$  000000000235300000000023590000000002328000000000234100000000023430000000002334000000000234302551000000000000423200000000000990869500000000000000009999123100000010000000000000BRTUPYACNOR1183
012024052402UCAS3       010UNICASA     ON      NM   R$  000000000023700000000002370000000000234000000000023200000000002340000000000234000000000023600087000000000000029000000000000006750900000000000000009999123100000010000000000000BRUCASACNOR1113
012024052402UGPA3       010ULTRAPAR    ON      NM   R$  000000000238700000000024440000000002383000000000240900000000023840000000002383000000000238409261000000000002729400000000006575527300000000000000009999123100000010000000000000BRUGPAACNOR8155
012024052402UNIP3       010UNIPAR      ON           R$  000000000522900000000052290000000005058000000000509400000000050930000000005058000000000509300049000000000000006100000000000031077300000000000000009999123100000010000000000000BRUNIPACNOR7206
012024052402UNIP6       010UNIPAR      PNB          R$  000000000511500000000051160000000005050000000000508200000000050500000000005050000000000508000737000000000000114400000000000581437000000000000000009999123100000010000000000000BRUNIPACNPB8206
012024052402USIM3       010USIMINAS    ON      N1   R$  000000000073100000000007390000000000717000000000072800000000007290000000000728000000000073201013000000000000361100000000000263022600000000000000009999123100000010000000000000BRUSIMACNOR3167
012024052402WHRL3       010WHIRLPOOL   ON           R$  000000000045800000000004580000000000458000000000045800000000004580000000000458000000000046500003000000000000001100000000000000503800000000000000009999123100000010000000000000BRWHRLACNOR5128
012024052402WHRL4       010WHIRLPOOL   PN           R$  000000000048500000000004930000000000485000000000049000000000004910000000000487000000000049100010000000000000002600000000000001275500000000000000009999123100000010000000000000BRWHRLACNPR2128
012024052402WIZC3       010WIZ CO      ON      NM   R$  000000000061600000000006230000000000608000000000061500000000006130000000000613000000000061702124000000000000458400000000000282096300000000000000009999123100000010000000000000BRWIZCACNOR5102
012024052402WLMM4       010WLM IND COM PN           R$  000000000307000000000030700000000002974000000000302300000000030400000000003040000000000314500004000000000000000400000000000001209500000000000000009999123100000010000000000000BRWLMMACNPR3118
012024052402YDUQ3       010YDUQS PART  ON      NM   R$  000000000137900000000013940000000001341000000000136500000000013630000000001362000000000136809692000000000003356000000000004582117500000000000000009999123100000010000000000000BRYDUQACNOR3105
012024052402ZAMP3       010ZAMP S.A.   ON           R$  000000000030300000000003060000000000297000000000030000000000002990000000000299000000000030101738000000000000918000000000000276286000000000000000009999123100000010000000000000BRZAMPACNOR5100
012024052402RAPT3       010RANDON PART ON      N1   R$  000000000086500000000008720000000000850000000000085800000000008500000000000849000000000085000183000000000000093800000000000080491600000000000000009999123100000010000000000000BRRAPTACNOR7162
012024052402RAPT4       010RANDON PART PN      N1   R$  000000000100000000000010020000000000982000000000099400000000009970000000000996000000000099704142000000000001850000000000001839259400000000000000009999123100000010000000000000BRRAPTACNPR4162
012024052402VULC3       010VULCABRAS   ON  ED  NM   R$  000000000154000000000015450000000001521000000000153400000000015370000000001536000000000154101735000000000000387600000000000594732900000000000000009999123100000010000000000000BRVULCACNOR2159
012024052402VVEO3       010VIVEO       ON      NM   R$  000000000031300000000003190000000000303000000000030800000000003040000000000303000000000030802489000000000001074800000000000332029700000000000000009999123100000010000000000000BRVVEOACNOR0104
012024052402PRNR3       010PRINER      ON      NM   R$  000000000118000000000011800000000001151000000000116300000000011630000000001162000000000117401760000000000000336400000000000391288000000000000000009999123100000010000000000000BRPRNRACNOR4109
012024052402PSSA3       010PORTO SEGUROON      NM   R$  000000000303000000000030540000000003021000000000304000000000030450000000003044000000000304906986000000000001433300000000004357525900000000000000009999123100000010000000000000BRPSSAACNOR7154
012024052402PTBL3       010PORTOBELLO  ON      NM   R$  000000000045500000000004600000000000446000000000045200000000004470000000000447000000000044801104000000000000488200000000000220685800000000000000009999123100000010000000000000BRPTBLACNOR8132
012024052402PTNT4       010PETTENATI   PN           R$  000000000071800000000007180000000000700000000000070400000000007100000000000690000000000071400010000000000000002000000000000001408900000000000000009999123100000010000000000000BRPTNTACNPR3047
012024052402QUAL3       010QUALICORP   ON      NM   R$  000000000016300000000001670000000000161000000000016300000000001650000000000164000000000016501788000000000002759600000000000451876700000000000000009999123100000010000000000000BRQUALACNOR6120
012024052402RADL3       010RAIADROGASILON      NM   R$  000000000265800000000026600000000002590000000000261400000000026060000000002602000000000260615082000000000004917300000000012858409600000000000000009999123100000010000000000000BRRADLACNOR0156
012024052402VAMO3       010VAMOS       ON      NM   R$  000000000083600000000008370000000000816000000000082300000000008160000000000815000000000082208759000000000005755300000000004738340500000000000000009999123100000010000000000000BRVAMOACNOR7105
012024052402VBBR3       010VIBRA       ON      NM   R$  000000000223900000000022830000000002239000000000225500000000022430000000002243000000000224508622000000000003350000000000007556891100000000000000009999123100000010000000000000BRVBBRACNOR1107
012024052402SMFT3       010SMART FIT   ON      NM   R$  000000000223700000000022670000000002184000000000220400000000021860000000002186000000000220007106000000000002287300000000005043479700000000000000009999123100000010000000000000BRSMFTACNOR1111
012024052402SMTO3       010SAO MARTINHOON      NM   R$  000000000274900000000027490000000002691000000000270600000000026910000000002690000000000269902526000000000000676600000000001831168000000000000000009999123100000010000000000000BRSMTOACNOR3125
012024052402SNSY3       010SANSUY      ON           R$  000000000125000000000012840000000001250000000000126900000000012840000000001220000000000128300003000000000000000500000000000000634800000000000000009999123100000010000000000000BRSNSYACNOR2113
012024052402SNSY5       010SANSUY      PNA          R$  000000000062000000000006200000000000611000000000061900000000006110000000000611000000000062700009000000000000008200000000000005083100000000000000009999123100000010000000000000BRSNSYACNPA5111
012024052402SOJA3       010BOA SAFRA   ON      NM   R$  000000000165000000000016630000000001645000000000165000000000016530000000001652000000000165301558000000000000283800000000000468546500000000000000009999123100000010000000000000BRSOJAACNOR9105
012024052402SOMA3       010GRUPO SOMA  ON      NM   R$  000000000060300000000006120000000000598000000000060700000000006070000000000606000000000060816234000000000006650300000000004036955500000000000000009999123100000010000000000000BRSOMAACNOR3102
012024052402SRNA3       010SERENA      ON      NM   R$  000000000091200000000009210000000000900000000000091000000000009120000000000910000000000091203556000000000000840700000000000765597700000000000000009999123100000010000000000000BRSRNAACNOR4100
012024052402STBP3       010SANTOS BRP  ON      NM   R$  000000000125500000000012550000000001206000000000122000000000012060000000001205000000000121305231000000000005804500000000007082317000000000000000009999123100000010000000000000BRSTBPACNOR3129
012024052402SUZB3       010SUZANO S.A. ON      NM   R$  000000000495900000000050240000000004880000000000493400000000048940000000004894000000000489536149000000000011249700000000055516446300000000000000009999123100000010000000000000BRSUZBACNOR0129
012024052402NGRD3       010NEOGRID     ON      NM   R$  000000000009400000000000960000000000094000000000009400000000000950000000000095000000000009600307000000000000299300000000000028414200000000000000009999123100000010000000000000BRNGRDACNOR3104
012024052402NINJ3       010GETNINJAS   ON      NM   R$  000000000048500000000004880000000000476000000000048200000000004820000000000472000000000048500421000000000000062500000000000030126800000000000000009999123100000010000000000000BRNINJACNOR5101
012024052402NTCO3       010GRUPO NATURAON      NM   R$  000000000156500000000015740000000001543000000000155400000000015440000000001543000000000154511191000000000004724100000000007343976300000000000000009999123100000010000000000000BRNTCOACNOR5106
012024052402BLAU3       010BLAU        ON      NM   R$  000000000105000000000010580000000001038000000000104600000000010470000000001047000000000104800494000000000000078000000000000081591100000000000000009999123100000010000000000000BRBLAUACNOR8113
012024052402BMEB3       010MERCANTIL   ON      N1   R$  000000000245000000000024500000000002450000000000245000000000024500000000002450000000000262800001000000000000000100000000000000245000000000000000009999123100000010000000000000BRBMEBACNOR8205
012024052402BMEB4       010MERCANTIL   PN      N1   R$  000000000280900000000028090000000002667000000000270900000000026690000000002669000000000270000143000000000000030300000000000082102400000000000000009999123100000010000000000000BRBMEBACNPR5210
012024052402BMGB4       010BANCO BMG   PN      N1   R$  000000000033000000000003320000000000328000000000032900000000003300000000000330000000000033100613000000000000283400000000000093518400000000000000009999123100000010000000000000BRBMGBACNPR0109
012024052402BRSR3       010BANRISUL    ON      N1   R$  000000000117100000000011810000000001169000000000117400000000011780000000001175000000000117900040000000000000005100000000000005991300000000000000009999123100000010000000000000BRBRSRACNOR3187
012024052402BRSR6       010BANRISUL    PNB     N1   R$  000000000112800000000011370000000001111000000000112100000000011160000000001116000000000111702469000000000001037200000000001163301100000000000000009999123100000010000000000000BRBRSRACNPB4190
012024052402BSLI3       010BRB BANCO   ON  EX       R$  000000000102500000000010300000000001025000000000102800000000010250000000001009000000000105000004000000000000000800000000000000822500000000000000009999123100000010000000000000BRBSLIACNOR5194
012024052402BSLI4       010BRB BANCO   PN  EX       R$  000000000115900000000011590000000001159000000000115900000000011590000000001072000000000138900001000000000000000100000000000000115900000000000000009999123100000010000000000000BRBSLIACNPR2194
012024052402EGIE3       010ENGIE BRASILON      NM   R$  000000000439600000000044400000000004371000000000440200000000043780000000004377000000000439505095000000000001020300000000004491858900000000000000009999123100000010000000000000BREGIEACNOR9126
012024052402GRND3       010GRENDENE    ON  ED  NM   R$  000000000061800000000006240000000000616000000000061900000000006160000000000615000000000062001532000000000000628300000000000388992700000000000000009999123100000010000000000000BRGRNDACNOR3174
012024052402GUAR3       010GUARARAPES  ON  ED  NM   R$  000000000071700000000007520000000000717000000000074000000000007510000000000750000000000075103836000000000001857300000000001376122300000000000000009999123100000010000000000000BRGUARACNOR4173
012024052402B3SA3       010B3          ON      NM   R$  000000000110800000000011220000000001101000000000111300000000011140000000001114000000000111521051000000000026333000000000029328990800000000000000009999123100000010000000000000BRB3SAACNOR6132
012024052402BEES3       010BANESTES    ON           R$  000000000090300000000009050000000000900000000000090300000000009040000000000902000000000090400063000000000000007500000000000006773000000000000000009999123100000010000000000000BRBEESACNOR9390
012024052402BEES4       010BANESTES    PN           R$  000000000096900000000009690000000000962000000000096400000000009670000000000965000000000097000014000000000000001900000000000001831700000000000000009999123100000010000000000000BRBEESACNPR6315
012024052402BGIP3       010BANESE      ON           R$  000000000240000000000024000000000002400000000000240000000000024000000000002203000000000290400001000000000000000100000000000000240000000000000000009999123100000010000000000000BRBGIPACNOR1208
012024052402BGIP4       010BANESE      PN           R$  000000000234300000000023450000000002294000000000233600000000022940000000002163000000000233800004000000000000000600000000000001401600000000000000009999123100000010000000000000BRBGIPACNPR8208
012024052402BRBI11      010BR PARTNERS UNT ED  N2   R$  000000000145400000000014750000000001448000000000145900000000014750000000001450000000000147600795000000000000137500000000000200731600000000000000009999123100000010000000000000BRBRBICDAM10109
012024052402BRFS3       010BRF SA      ON      NM   R$  000000000192100000000019450000000001908000000000192100000000019080000000001908000000000191012895000000000008124200000000015611115200000000000000009999123100000010000000000000BRBRFSACNOR8122
012024052402BRIT3       010BRISANET    ON      NM   R$  000000000040900000000004120000000000399000000000040400000000004000000000000400000000000040100682000000000000617900000000000250241200000000000000009999123100000010000000000000BRBRITACNOR0103
012024052402BRKM3       010BRASKEM     ON      N1   R$  000000000195800000000019580000000001902000000000191100000000019020000000001902000000000195500007000000000000000800000000000001529000000000000000009999123100000010000000000000BRBRKMACNOR1119
012024052402BRKM5       010BRASKEM     PNA     N1   R$  000000000193000000000019650000000001910000000000192800000000019200000000001920000000000192104061000000000001280800000000002469886800000000000000009999123100000010000000000000BRBRKMACNPA4121
012024052402DESK3       010DESKTOP     ON      NM   R$  000000000137300000000016260000000001329000000000150300000000015870000000001587000000000158802991000000000000888500000000001336092000000000000000009999123100000010000000000000BRDESKACNOR2104
012024052402DEXP3       010DEXXOS PAR  ON      N1   R$  000000000108600000000011150000000001086000000000109600000000011040000000001099000000000110600186000000000000058400000000000064042200000000000000009999123100000010000000000000BRDEXPACNOR1105
012024052402DEXP4       010DEXXOS PAR  PN      N1   R$  000000000109400000000011000000000001094000000000109600000000011000000000001080000000000112900003000000000000000300000000000000328800000000000000009999123100000010000000000000BRDEXPACNPR8105
012024052402DIRR3       010DIRECIONAL  ON      NM   R$  000000000251400000000025410000000002491000000000251000000000025160000000002510000000000251706292000000000001685800000000004232293000000000000000009999123100000010000000000000BRDIRRACNOR0117
012024052402DMVF3       010D1000VFARMA ON      NM   R$  000000000074100000000007740000000000732000000000075000000000007740000000000760000000000077400494000000000000106300000000000079827700000000000000009999123100000010000000000000BRDMVFACNOR9100
012024052402GGPS3       010GPS         ON      NM   R$  000000000190000000000019000000000001845000000000186600000000018700000000001869000000000187204096000000000001591500000000002971172500000000000000009999123100000010000000000000BRGGPSACNOR9103
012024052402GMAT3       010GRUPO MATEUSON      NM   R$  000000000077000000000007750000000000744000000000075600000000007510000000000750000000000075206928000000000002877300000000002175721600000000000000009999123100000010000000000000BRGMATACNOR7101
012024052402ORVR3       010ORIZON      ON      NM   R$  000000000406500000000041030000000004014000000000405000000000040400000000004040000000000404301111000000000000272000000000001101665700000000000000009999123100000010000000000000BRORVRACNOR0101
012024052402PCAR3       010P.ACUCAR-CBDON      NM   R$  000000000030000000000003100000000000300000000000030500000000003020000000000302000000000030302617000000000004596200000000001403208500000000000000009999123100000010000000000000BRPCARACNOR3167
012024052402PDGR3       010PDG REALT   ON      NM   R$  000000000002700000000000280000000000026000000000002600000000000260000000000026000000000002700243000000000000824800000000000022223900000000000000009999123100000010000000000000BRPDGRACNOR8118
012024052402PDTC3       010PADTEC      ON      NM   R$  000000000020300000000002030000000000196000000000019800000000001980000000000198000000000019900074000000000000031300000000000006209600000000000000009999123100000010000000000000BRPDTCACNOR3101
012024052402PETR3       010PETROBRAS   ON      N2   R$  000000000388000000000038810000000003826000000000384100000000038310000000003831000000000383333115000000000008994100000000034550096900000000000000009999123100000010000000000000BRPETRACNOR9204
012024052402PETR4       010PETROBRAS   PN      N2   R$  000000000370700000000037190000000003657000000000368000000000036610000000003661000000000366546463000000000023644400000000087027633400000000000000009999123100000010000000000000BRPETRACNPR6212
012024052402SAPR11      010SANEPAR     UNT     N2   R$  000000000283600000000028670000000002812000000000283400000000028120000000002812000000000282002967000000000000662700000000001878622700000000000000009999123100000010000000000000BRSAPRCDAM13117
012024052402SAPR3       010SANEPAR     ON      N2   R$  000000000053400000000005400000000000533000000000053600000000005350000000000534000000000053500270000000000000088400000000000047460300000000000000009999123100000010000000000000BRSAPRACNOR9158
012024052402SAPR4       010SANEPAR     PN      N2   R$  000000000057700000000005800000000000569000000000057400000000005690000000000569000000000057101846000000000000876200000000000503535800000000000000009999123100000010000000000000BRSAPRACNPR6158
012024052402SBFG3       010GRUPO SBF   ON      NM   R$  000000000122500000000012390000000001200000000000122300000000012270000000001225000000000123003130000000000000859400000000001051602100000000000000009999123100000010000000000000BRSBFGACNOR1103
012024052402SBSP3       010SABESP      ON      NM   R$  000000000755300000000076380000000007507000000000757900000000075610000000007552000000000757010302000000000002142300000000016237966700000000000000009999123100000010000000000000BRSBSPACNOR5161
012024052402BAZA3       010AMAZONIA    ON           R$  000000000972000000000097300000000009700000000000972000000000097000000000009700000000000975000009000000000000001400000000000013609300000000000000009999123100000010000000000000BRBAZAACNOR0179
012024052402BBAS3       010BRASIL      ON      NM   R$  000000000270100000000027140000000002680000000000269700000000027080000000002707000000000270839838000000000013936600000000037599752800000000000000009999123100000010000000000000BRBBASACNOR3322
012024052402BMIN4       010MERC INVEST PN           R$  000000000162000000000016200000000001620000000000162000000000016200000000001550000000000161500001000000000000000100000000000000162000000000000000009999123100000010000000000000BRBMINACNPR1176
012024052402BMKS3       010BIC MONARK  ON           R$  000000003550100000000359270000000035501000000003557600000000356010000000035600000000003644900006000000000000000009000000000000320185000000000000009999123100000010000000000000BRBMKSACNOR9166
012024052402BMOB3       010BEMOBI TECH ON      NM   R$  000000000131600000000013160000000001298000000000130400000000013050000000001303000000000130901464000000000000278100000000000362716900000000000000009999123100000010000000000000BRBMOBACNOR7103
012024052402GOAU3       010GERDAU MET  ON  ED  N1   R$  000000000108700000000011090000000001087000000000110000000000010960000000001095000000000109700150000000000000023400000000000025762400000000000000009999123100000010000000000000BRGOAUACNOR1267
012024052402GOAU4       010GERDAU MET  PN  ED  N1   R$  000000000107600000000011070000000001073000000000109700000000010950000000001094000000000109515458000000000019648100000000021568248500000000000000009999123100000010000000000000BRGOAUACNPR8268
012024052402JALL3       010JALLESMACHADON      NM   R$  000000000068800000000006950000000000683000000000068800000000006900000000000690000000000069201248000000000000406600000000000280118700000000000000009999123100000010000000000000BRJALLACNOR0105
012024052402JBSS3       010JBS         ON      NM   R$  000000000295000000000029770000000002911000000000292900000000029360000000002934000000000293616983000000000005042000000000014772837000000000000000009999123100000010000000000000BRJBSSACNOR8121
012024052402MLAS3       010MULTILASER  ON      NM   R$  000000000021200000000002210000000000210000000000021600000000002180000000000217000000000021802182000000000001501100000000000325079000000000000000009999123100000010000000000000BRMLASACNOR9101
012024052402BNBR3       010NORD BRASIL ON           R$  000000001140000000000114000000000011400000000001140000000000114000000000011150000000001164900001000000000000000800000000000009120000000000000000009999123100000010000000000000BRBNBRACNOR8208
012024052402BOBR4       010BOMBRIL     PN           R$  000000000021500000000002160000000000213000000000021400000000002160000000000214000000000021600016000000000000003400000000000000729000000000000000009999123100000010000000000000BRBOBRACNPR3128
012024052402CBAV3       010CBA         ON      NM   R$  000000000066100000000006870000000000660000000000067500000000006730000000000672000000000067304666000000000003229100000000002180685500000000000000009999123100000010000000000000BRCBAVACNOR5104
012024052402MNDL3       010MUNDIAL     ON           R$  000000000449900000000045000000000004499000000000449900000000044990000000004300000000000450000004000000000000000700000000000003149800000000000000009999123100000010000000000000BRMNDLACNOR4107
012024052402MOVI3       010MOVIDA      ON      NM   R$  000000000066400000000006640000000000638000000000064500000000006450000000000645000000000064707963000000000003967500000000002561802400000000000000009999123100000010000000000000BRMOVIACNOR0122
012024052402MRFG3       010MARFRIG     ON      NM   R$  000000000118600000000011940000000001162000000000117500000000011720000000001171000000000117207560000000000002877500000000003383477900000000000000009999123100000010000000000000BRMRFGACNOR0116
012024052402MRVE3       010MRV         ON      NM   R$  000000000069800000000007040000000000686000000000069200000000006860000000000686000000000068908779000000000007170400000000004967965500000000000000009999123100000010000000000000BRMRVEACNOR2127
012024052402ASAI3       010ASSAI       ON      NM   R$  000000000132100000000013280000000001300000000000130800000000013000000000001300000000000130109326000000000004805400000000006287872000000000000000009999123100000010000000000000BRASAIACNOR0106
012024052402ATOM3       010ATOMPAR     ON           R$  000000000021000000000002150000000000209000000000021000000000002150000000000210000000000021500043000000000000021200000000000004469400000000000000009999123100000010000000000000BRATOMACNOR1106
012024052402CCRO3       010CCR SA      ON      NM   R$  000000000122900000000012380000000001210000000000122100000000012160000000001215000000000121713509000000000007317800000000008937918400000000000000009999123100000010000000000000BRCCROACNOR2145
012024052402CEAB3       010CEA MODAS   ON      NM   R$  000000000096900000000009910000000000946000000000096300000000009500000000000949000000000095204416000000000002231600000000002149393600000000000000009999123100000010000000000000BRCEABACNOR1102
012024052402CEBR3       010CEB         ON           R$  000000000226300000000023070000000002263000000000227200000000023070000000002288000000000232500016000000000000005400000000000012273600000000000000009999123100000010000000000000BRCEBRACNOR5125
012024052402CEBR5       010CEB         PNA          R$  000000000205000000000020500000000001992000000000201200000000020300000000001994000000000203000014000000000000002300000000000004628000000000000000009999123100000010000000000000BRCEBRACNPA8124
012024052402CEBR6       010CEB         PNB          R$  000000000209000000000021100000000002036000000000206100000000020950000000002060000000000209100018000000000000003100000000000006390400000000000000009999123100000010000000000000BRCEBRACNPB6124
012024052402CEEB3       010COELBA      ON           R$  000000000395100000000039510000000003951000000000395100000000039510000000003920000000000395100001000000000000000100000000000000395100000000000000009999123100000010000000000000BRCEEBACNOR3198
012024052402CGRA3       010GRAZZIOTIN  ON           R$  000000000247500000000024980000000002461000000000247400000000024610000000002461000000000249400022000000000000004000000000000009898400000000000000009999123100000010000000000000BRCGRAACNOR2082
012024052402CGRA4       010GRAZZIOTIN  PN           R$  000000000253400000000025750000000002529000000000255600000000025660000000002551000000000257300035000000000000004000000000000010225700000000000000009999123100000010000000000000BRCGRAACNPR9082
012024052402CIEL3       010CIELO       ON      NM   R$  000000000055900000000005590000000000556000000000055700000000005560000000000556000000000055704895000000000020004400000000011145697400000000000000009999123100000010000000000000BRCIELACNOR3157
012024052402CLSA3       010CLEARSALE   ON      NM   R$  000000000064300000000007440000000000639000000000070000000000007100000000000709000000000071004703000000000002942000000000002059910800000000000000009999123100000010000000000000BRCLSAACNOR0100
012024052402CLSC3       010CELESC      ON      N2   R$  000000000665000000000066500000000006650000000000665000000000066500000000006625000000000665000006000000000000003200000000000021280000000000000000009999123100000010000000000000BRCLSCACNOR6151
012024052402CLSC4       010CELESC      PN      N2   R$  000000000733000000000073600000000007330000000000734500000000073600000000007321000000000736000007000000000000001200000000000008814000000000000000009999123100000010000000000000BRCLSCACNPR3130
012024052402CMIG3       010CEMIG       ON      N1   R$  000000000131100000000013160000000001283000000000130100000000012830000000001283000000000129300686000000000000209200000000000272245600000000000000009999123100000010000000000000BRCMIGACNOR6241
012024052402CMIG4       010CEMIG       PN      N1   R$  000000000104400000000010490000000001033000000000103900000000010380000000001037000000000103813674000000000006977800000000007251783500000000000000009999123100000010000000000000BRCMIGACNPR3242
012024052402EKTR4       010ELEKTRO     PN           R$  000000000395500000000039550000000003955000000000395500000000039550000000003915000000000395500008000000000000003600000000000014238000000000000000009999123100000010000000000000BREKTRACNPR7162
012024052402ELET3       010ELETROBRAS  ON      N1   R$  000000000362600000000036630000000003614000000000363300000000036200000000003618000000000362014170000000000003825400000000013900551100000000000000009999123100000010000000000000BRELETACNOR6160
012024052402ELET6       010ELETROBRAS  PNB     N1   R$  000000000407300000000041100000000004047000000000406800000000040470000000004047000000000405302790000000000000708400000000002882110100000000000000009999123100000010000000000000BRELETACNPB7077
012024052402AURE3       010AUREN       ON      NM   R$  000000000120900000000012240000000001208000000000121700000000012150000000001214000000000121605929000000000003248700000000003955232100000000000000009999123100000010000000000000BRAUREACNOR9104
012024052402AZEV3       010AZEVEDO     ON           R$  000000000013600000000001410000000000132000000000013600000000001320000000000131000000000013200505000000000000443500000000000060435500000000000000009999123100000010000000000000BRAZEVACNOR0121
012024052402AZEV4       010AZEVEDO     PN           R$  000000000012300000000001300000000000122000000000012500000000001240000000000123000000000012400974000000000003196700000000000402633200000000000000009999123100000010000000000000BRAZEVACNPR7121
012024052402AZUL4       010AZUL        PN      N2   R$  000000000102100000000010870000000001020000000000105200000000010360000000001036000000000103719025000000000021592100000000022729074300000000000000009999123100000010000000000000BRAZULACNPR4102
012024052402EZTC3       010EZTEC       ON      NM   R$  000000000132600000000013400000000001301000000000131500000000013010000000001300000000000130503188000000000001200800000000001579214100000000000000009999123100000010000000000000BREZTCACNOR0125
012024052402ITSA3       010ITAUSA      ON      N1   R$  000000000101100000000010110000000000993000000000100200000000009980000000000998000000000100600436000000000000154700000000000155017900000000000000009999123100000010000000000000BRITSAACNOR0439
012024052402ITSA4       010ITAUSA      PN      N1   R$  000000000100300000000010080000000000992000000000099800000000009960000000000996000000000099847559000000000031331600000000031297847500000000000000009999123100000010000000000000BRITSAACNPR7439
012024052402PFRM3       010PROFARMA    ON      NM   R$  000000000055500000000005580000000000545000000000055000000000005450000000000545000000000055000641000000000000183400000000000100886000000000000000009999123100000010000000000000BRPFRMACNOR1116
012024052402IFCM3       010INFRACOMM   ON      NM   R$  000000000005000000000000510000000000049000000000004900000000000510000000000050000000000005102349000000000004149600000000000207464000000000000000009999123100000010000000000000BRIFCMACNOR8101
012024052402IGTI11      010IGUATEMI S.AUNT     N1   R$  000000000203900000000020740000000002022000000000205600000000020400000000002040000000000205215267000000000002614600000000005375809200000000000000009999123100000010000000000000BRIGTICDAM16106
012024052402IGTI3       010IGUATEMI S.AON      N1   R$  000000000029200000000002980000000000288000000000029200000000002900000000000288000000000029200153000000000000058800000000000017226000000000000000009999123100000010000000000000BRIGTIACNOR8106
012024052402IGTI4       010IGUATEMI S.APN      N1   R$  000000000088600000000008860000000000883000000000088300000000008830000000000842000000000090000011000000000000001700000000000001501700000000000000009999123100000010000000000000BRIGTIACNPR5106
012024052402INEP3       010INEPAR      ON           R$  000000000020400000000002050000000000190000000000019300000000002000000000000196000000000020000166000000000000088200000000000017049100000000000000009999123100000010000000000000BRINEPACNOR1143
012024052402INEP4       010INEPAR      PN           R$  000000000018600000000001950000000000182000000000018600000000001950000000000190000000000019500143000000000000083700000000000015624000000000000000009999123100000010000000000000BRINEPACNPR8143
012024052402INTB3       010INTELBRAS   ON      NM   R$  000000000235000000000024070000000002350000000000238100000000023760000000002369000000000238002342000000000000518500000000001235026400000000000000009999123100000010000000000000BRINTBACNOR9111
012024052402IRBR3       010IRBBRASIL REON      NM   R$  000000000341000000000034310000000003365000000000339200000000033720000000003371000000000337403787000000000000974200000000003304589900000000000000009999123100000010000000000000BRIRBRACNOR4111
012024052402LWSA3       010LWSA        ON      NM   R$  000000000041200000000004210000000000408000000000041500000000004140000000000413000000000041505605000000000006795700000000002820366800000000000000009999123100000010000000000000BRLWSAACNOR8103
012024052402POMO4       010MARCOPOLO   PN  EJ  N2   R$  000000000070200000000007070000000000684000000000069600000000007010000000000700000000000070209194000000000006707500000000004674038200000000000000009999123100000010000000000000BRPOMOACNPR7098
012024052402PORT3       010WILSON SONS ON      NM   R$  000000000159200000000015980000000001580000000000158600000000015850000000001583000000000158501055000000000000424800000000000674003700000000000000009999123100000010000000000000BRPORTACNOR8107
012024052402POSI3       010POSITIVO TECON      NM   R$  000000000090500000000009430000000000898000000000091700000000009220000000000922000000000092404422000000000001495200000000001372292000000000000000009999123100000010000000000000BRPOSIACNOR9116
012024052402PRIO3       010PETRORIO    ON      NM   R$  000000000447000000000044840000000004334000000000437700000000043450000000004344000000000434623090000000000008364500000000036613212100000000000000009999123100000010000000000000BRPRIOACNOR1106
012024052402SCAR3       010SAO CARLOS  ON      NM   R$  000000000238200000000024100000000002382000000000240000000000024020000000002377000000000245700056000000000000013900000000000033365900000000000000009999123100000010000000000000BRSCARACNOR7131
012024052402SEER3       010SER EDUCA   ON      NM   R$  000000000049800000000004980000000000476000000000048400000000004780000000000477000000000047801492000000000000471600000000000228702600000000000000009999123100000010000000000000BRSEERACNOR5119
012024052402CRFB3       010CARREFOUR BRON      NM   R$  000000000103500000000010540000000001025000000000103600000000010250000000001025000000000103006202000000000002785900000000002887561900000000000000009999123100000010000000000000BRCRFBACNOR2116
012024052402CRPG5       010CRISTAL     PNA ED       R$  000000000300700000000030070000000002982000000000299300000000029820000000002980000000000299000011000000000000001200000000000003592600000000000000009999123100000010000000000000BRCRPGACNPA3119
012024052402CRPG6       010CRISTAL     PNB ED       R$  000000000298900000000030490000000002989000000000301900000000030490000000002951000000000309900004000000000000000600000000000001811400000000000000009999123100000010000000000000BRCRPGACNPB1119
012024052402CSAN3       010COSAN       ON      NM   R$  000000000139400000000014250000000001389000000000141100000000013990000000001399000000000140318263000000000008543400000000012055821400000000000000009999123100000010000000000000BRCSANACNOR6125
012024052402EQTL3       010EQUATORIAL  ON      NM   R$  000000000297600000000030440000000002969000000000302000000000030150000000003015000000000302015512000000000009632200000000029096462600000000000000009999123100000010000000000000BREQTLACNOR0130
012024052402AALR3       010ALLIAR      ON      NM   R$  000000000103000000000010490000000001015000000000102700000000010200000000001020000000000103000142000000000000028100000000000028869400000000000000009999123100000010000000000000BRAALRACNOR6102
012024052402ABCB4       010ABC BRASIL  PN      N2   R$  000000000215200000000021850000000002149000000000217100000000021740000000002174000000000217703028000000000000604600000000001312977800000000000000009999123100000010000000000000BRABCBACNPR4145
012024052402ABEV3       010AMBEV S/A   ON           R$  000000000119600000000011990000000001187000000000119200000000011870000000001187000000000118929079000000000022787300000000027175485200000000000000009999123100000010000000000000BRABEVACNOR1127
012024052402BBDC3       010BRADESCO    ON      N1   R$  000000000116500000000011700000000001159000000000116500000000011650000000001165000000000116611390000000000004929200000000005742671100000000000000009999123100000010000000000000BRBBDCACNOR1769
012024052402BBDC4       010BRADESCO    PN      N1   R$  000000000129200000000013050000000001287000000000129700000000012970000000001297000000000129823207000000000034049800000000044164309100000000000000009999123100000010000000000000BRBBDCACNPR8769
012024052402CPFE3       010CPFL ENERGIAON      NM   R$  000000000347300000000035210000000003468000000000350500000000035010000000003497000000000350205103000000000001036100000000003631820100000000000000009999123100000010000000000000BRCPFEACNOR0137
012024052402CPLE3       010COPEL       ON      N2   R$  000000000084100000000008460000000000830000000000083500000000008360000000000835000000000083610197000000000004491700000000003753235300000000000000009999123100000010000000000000BRCPLEACNOR8149
012024052402RCSL3       010RECRUSUL    ON           R$  000000000016900000000001690000000000163000000000016400000000001630000000000163000000000016400759000000000000604400000000000099398900000000000000009999123100000010000000000000BRRCSLACNOR4133
012024052402RCSL4       010RECRUSUL    PN           R$  000000000003800000000000380000000000036000000000003600000000000370000000000036000000000003700358000000000000157900000000000005784000000000000000009999123100000010000000000000BRRCSLACNPR1133
012024052402RDNI3       010RNI         ON      NM   R$  000000000034500000000003460000000000341000000000034400000000003410000000000341000000000034500009000000000000002500000000000000862200000000000000009999123100000010000000000000BRRDNIACNOR9116
012024052402RDOR3       010REDE D OR   ON      NM   R$  000000000291000000000029400000000002876000000000290500000000028980000000002897000000000289810712000000000002289100000000006651327600000000000000009999123100000010000000000000BRRDORACNOR8112
012024052402RECV3       010PETRORECSA  ON      NM   R$  000000000199600000000019990000000001952000000000197000000000019670000000001964000000000197103562000000000001260100000000002483263700000000000000009999123100000010000000000000BRRECVACNOR3106
012024052402REDE3       010REDE ENERGIAON           R$  000000000069000000000006940000000000686000000000068900000000006860000000000686000000000069300004000000000000000500000000000000344600000000000000009999123100000010000000000000BRREDEACNOR7127
012024052402RENT3       010LOCALIZA    ON      NM   R$  000000000462700000000046270000000004494000000000452900000000045400000000004536000000000454118973000000000006199900000000028084107700000000000000009999123100000010000000000000BRRENTACNOR4195
012024052402TASA3       010TAURUS ARMASON      N2   R$  000000000122200000000012220000000001210000000000121500000000012200000000001208000000000122000052000000000000014200000000000017264500000000000000009999123100000010000000000000BRTASAACNOR7104
012024052402TASA4       010TAURUS ARMASPN      N2   R$  000000000112900000000011500000000001116000000000113300000000011400000000001140000000000114101266000000000000380500000000000431336000000000000000009999123100000010000000000000BRTASAACNPR4104
012024052402TCSA3       010TECNISA     ON      NM   R$  000000000023600000000002370000000000221000000000023000000000002240000000000226000000000022900401000000000000265600000000000061128400000000000000009999123100000010000000000000BRTCSAACNOR3112
012024052402TECN3       010TECHNOS     ON      NM   R$  000000000044600000000004520000000000424000000000043400000000004260000000000426000000000043001260000000000000675400000000000293570100000000000000009999123100000010000000000000BRTECNACNOR6109
012024052402TELB3       010TELEBRAS    ON           R$  000000000130400000000013290000000001285000000000131000000000013210000000001320000000000135100012000000000000001900000000000002489600000000000000009999123100000010000000000000BRTELBACNOR2140
012024052402TELB4       010TELEBRAS    PN           R$  000000000088700000000009270000000000871000000000088400000000009270000000000887000000000092800050000000000000010100000000000008933300000000000000009999123100000010000000000000BRTELBACNPR9140
012024052402TEND3       010TENDA       ON      NM   R$  000000000118500000000012030000000001160000000000117700000000011670000000001164000000000116802430000000000000913100000000001075332900000000000000009999123100000010000000000000BRTENDACNOR4111
012024052402TFCO4       010TRACK FIELD PN      N2   R$  000000000119600000000011960000000001175000000000118100000000011750000000001174000000000118700656000000000000148900000000000175929800000000000000009999123100000010000000000000BRTFCOACNPR8113
012024052402TGMA3       010TEGMA       ON      NM   R$  000000000250200000000025020000000002432000000000244500000000024470000000002445000000000244701644000000000000312400000000000764087200000000000000009999123100000010000000000000BRTGMAACNOR7144
012024052402TIMS3       010TIM         ON      NM   R$  000000000165100000000016640000000001642000000000165200000000016420000000001641000000000164615549000000000009250900000000015289295300000000000000009999123100000010000000000000BRTIMSACNOR5116
012024052402TOTS3       010TOTVS       ON      NM   R$  000000000296100000000029770000000002906000000000292800000000029060000000002906000000000291210703000000000002549400000000007464821600000000000000009999123100000010000000000000BRTOTSACNOR8144
012024052402TPIS3       010TRIUNFO PARTON      NM   R$  000000000042100000000004220000000000413000000000041600000000004130000000000413000000000041800063000000000000029000000000000012072900000000000000009999123100000010000000000000BRTPISACNOR8118
012024052402TRAD3       010TC          ON      NM   R$  000000000007200000000000740000000000070000000000007100000000000700000000000070000000000007200159000000000000302700000000000021492700000000000000009999123100000010000000000000BRTRADACNOR3101
012024052402WEGE3       010WEG         ON      NM   R$  000000000388900000000038890000000003807000000000385100000000038340000000003834000000000383533660000000000009008000000000034691711700000000000000009999123100000010000000000000BRWEGEACNOR0222
012024052402WEST3       010WESTWING    ON      NM   R$  000000000011800000000001180000000000110000000000011200000000001110000000000110000000000011100052000000000000039100000000000004393400000000000000009999123100000010000000000000BRWESTACNOR3100
012024052402RAIL3       010RUMO S.A.   ON      NM   R$  000000000204800000000020610000000002027000000000204300000000020320000000002031000000000203311456000000000008268200000000016895654300000000000000009999123100000010000000000000BRRAILACNOR9105
012024052402RAIZ4       010RAIZEN      PN      N2   R$  000000000028100000000002850000000000280000000000028200000000002830000000000283000000000028405895000000000006909200000000001954297600000000000000009999123100000010000000000000BRRAIZACNPR6110
012024052402RANI3       010IRANI       ON      NM   R$  000000000087300000000008810000000000870000000000087400000000008740000000000873000000000087501360000000000000370200000000000323796900000000000000009999123100000010000000000000BRRANIACNOR5072
012024052402SYNE3       010SYN PROP TECON      NM   R$  000000000091000000000009380000000000910000000000092200000000009300000000000922000000000093000560000000000000285700000000000263472800000000000000009999123100000010000000000000BRSYNEACNOR2102
012024052402TAEE11      010TAESA       UNT     N2   R$  000000000350800000000035620000000003502000000000354100000000035300000000003529000000000353705076000000000001593000000000005641641100000000000000009999123100000010000000000000BRTAEECDAM10147
012024052402TAEE3       010TAESA       ON      N2   R$  000000000116000000000011770000000001158000000000116900000000011740000000001172000000000117400284000000000000066600000000000077910000000000000000009999123100000010000000000000BRTAEEACNOR9147
012024052402TAEE4       010TAESA       PN      N2   R$  000000000117700000000011910000000001174000000000118400000000011880000000001184000000000118800466000000000000142600000000000168909800000000000000009999123100000010000000000000BRTAEEACNPR6147
012024052402VITT3       010VITTIA      ON      NM   R$  000000000052400000000005290000000000518000000000052300000000005210000000000521000000000052200895000000000000184300000000000096499200000000000000009999123100000010000000000000BRVITTACNOR4107
012024052402VIVA3       010VIVARA S.A. ON      NM   R$  000000000221400000000022550000000002205000000000223600000000022210000000002221000000000222805374000000000001702300000000003806884700000000000000009999123100000010000000000000BRVIVAACNOR0107
012024052402VIVR3       010VIVER       ON      NM   R$  000000000027900000000002880000000000268000000000027500000000002730000000000272000000000027400527000000000000107400000000000029616200000000000000009999123100000010000000000000BRVIVRACNOR4122
012024052402VIVT3       010TELEF BRASILON           R$  000000000457900000000046570000000004568000000000460600000000045900000000004590000000000459908648000000000001923600000000008860683000000000000000009999123100000010000000000000BRVIVTACNOR0181
012024052402VLID3       010VALID       ON      NM   R$  000000000169900000000017200000000001680000000000169200000000016960000000001695000000000169702191000000000001085300000000001837204400000000000000009999123100000010000000000000BRVLIDACNOR5142
012024052402VSTE3       010VESTE       ON      NM   R$  000000000126200000000012800000000001184000000000124300000000012800000000001255000000000128000179000000000000048000000000000059680900000000000000009999123100000010000000000000BRVSTEACNOR5103
012024052402ODPV3       010ODONTOPREV  ON  ED  NM   R$  000000000121000000000012170000000001167000000000119300000000011670000000001166000000000116803486000000000002896600000000003458528300000000000000009999123100000010000000000000BRODPVACNOR4201
012024052402OFSA3       010OUROFINO S/AON      NM   R$  000000000210100000000021250000000002101000000000211300000000021100000000002110000000000212500013000000000000004800000000000010145100000000000000009999123100000010000000000000BROFSAACNOR7118
012024052402PETZ3       010PETZ        ON      NM   R$  000000000039500000000003980000000000381000000000038800000000003830000000000383000000000038408406000000000006464400000000002511220200000000000000009999123100000010000000000000BRPETZACNOR2110
012024052402BAHI3       010BAHEMA      ON      MA   R$  000000000072400000000007900000000000724000000000075500000000007670000000000728000000000075000019000000000000006700000000000005064900000000000000009999123100000010000000000000BRBAHIACNOR1074
012024052402HAGA3       010HAGA S/A    ON           R$  000000000025000000000002530000000000250000000000025000000000002530000000000247000000000025500002000000000000000400000000000000100300000000000000009999123100000010000000000000BRHAGAACNOR7103
012024052402HAGA4       010HAGA S/A    PN           R$  000000000012700000000001280000000000127000000000012700000000001270000000000127000000000012900007000000000000002000000000000000255700000000000000009999123100000010000000000000BRHAGAACNPR4103
012024052402HAPV3       010HAPVIDA     ON      NM   R$  000000000042500000000004340000000000423000000000042800000000004260000000000425000000000042730971000000000038004600000000016271050700000000000000009999123100000010000000000000BRHAPVACNOR4114
012024052402HBOR3       010HELBOR      ON      NM   R$  000000000023800000000002420000000000235000000000023900000000002420000000000240000000000024200453000000000000358800000000000085798700000000000000009999123100000010000000000000BRHBORACNOR3118
012024052402HBRE3       010HBR REALTY  ON      NM   R$  000000000049100000000004940000000000476000000000048200000000004780000000000478000000000048100930000000000000278700000000000134359300000000000000009999123100000010000000000000BRHBREACNOR4100
012024052402HBSA3       010HIDROVIAS   ON      NM   R$  000000000039600000000004050000000000393000000000039900000000004020000000000401000000000040307317000000000008570200000000003424319200000000000000009999123100000010000000000000BRHBSAACNOR0100
012024052402CPLE6       010COPEL       PNB     N2   R$  000000000094000000000009410000000000929000000000093400000000009300000000000929000000000093118902000000000009424200000000008802783100000000000000009999123100000010000000000000BRCPLEACNPB9146
012024052402ENEV3       010ENEVA       ON      NM   R$  000000000125800000000012880000000001257000000000127200000000012790000000001278000000000128012850000000000010772500000000013711193000000000000000009999123100000010000000000000BRENEVACNOR8105
012024052402ENGI11      010ENERGISA    UNT     N2   R$  000000000454000000000047360000000004503000000000468000000000046750000000004675000000000468220204000000000006881400000000032204981700000000000000009999123100000010000000000000BRENGICDAM16135
012024052402ENGI3       010ENERGISA    ON      N2   R$  000000000142500000000014910000000001425000000000146300000000014850000000001485000000000149800058000000000000006700000000000009803400000000000000009999123100000010000000000000BRENGIACNOR0145
012024052402ENGI4       010ENERGISA    PN      N2   R$  000000000079000000000008140000000000790000000000080400000000007970000000000791000000000081000061000000000000015600000000000012557600000000000000009999123100000010000000000000BRENGIACNPR7141
012024052402ENJU3       010ENJOEI      ON      NM   R$  000000000026500000000002720000000000265000000000026900000000002680000000000268000000000027001252000000000000750100000000000201945700000000000000009999123100000010000000000000BRENJUACNOR9100
012024052402EPAR3       010EMBPAR S/A  ON           R$  000000000068500000000006850000000000656000000000066400000000006730000000000668000000000067700024000000000000005200000000000003457500000000000000009999123100000010000000000000BREPARACNOR9105
012024052402EQMA3B      010EQTLMARANHAOON      MB   R$  000000000261100000000026110000000002611000000000261100000000026110000000002555000000000264900001000000000000000100000000000000261100000000000000009999123100000010000000000000BREQMAACNOR8108
012024052402EQPA3       010EQTL PARA   ON           R$  000000000069000000000006900000000000650000000000067200000000006760000000000665000000000067700071000000000000015400000000000010364000000000000000009999123100000010000000000000BREQPAACNOR1111
012024052402JSLG3       010JSL         ON      NM   R$  000000000101000000000010200000000001003000000000100800000000010070000000001005000000000100801387000000000000291800000000000294150800000000000000009999123100000010000000000000BRJSLGACNOR2121
012024052402KEPL3       010KEPLER WEBERON      NM   R$  000000000099600000000009960000000000975000000000098400000000009810000000000980000000000098703834000000000000951400000000000936523900000000000000009999123100000010000000000000BRKEPLACNOR1062
012024052402KLBN11      010KLABIN S/A  UNT     N2   R$  000000000207400000000021030000000002065000000000208600000000021030000000002097000000000210312033000000000003987100000000008318348100000000000000009999123100000010000000000000BRKLBNCDAM18142
012024052402KLBN3       010KLABIN S/A  ON      N2   R$  000000000041600000000004190000000000412000000000041500000000004170000000000417000000000041800955000000000000405200000000000168431600000000000000009999123100000010000000000000BRKLBNACNOR2170
012024052402KLBN4       010KLABIN S/A  PN      N2   R$  000000000041700000000004220000000000414000000000041600000000004200000000000419000000000042102189000000000001963000000000000818179100000000000000009999123100000010000000000000BRKLBNACNPR9170
012024052402MGEL4       010MANGELS INDLPN           R$  000000000133600000000013930000000001336000000000137200000000013930000000001331000000000139300006000000000000000600000000000000823700000000000000009999123100000010000000000000BRMGELACNPR3147
012024052402MGLU3       010MAGAZ LUIZA ON      NM   R$  000000000014000000000001410000000000132000000000013400000000001320000000000131000000000013230093000000000255521100000000034447106600000000000000009999123100000010000000000000BRMGLUACNOR2123
012024052402CMIN3       010CSNMINERACAOON  ED  N2   R$  000000000052800000000005360000000000525000000000053000000000005290000000000528000000000053005896000000000004529700000000002402385600000000000000009999123100000010000000000000BRCMINACNOR2111
012024052402COCE5       010COELCE      PNA          R$  000000000314900000000033290000000003149000000000322900000000033100000000003310000000000332600148000000000000019900000000000064272100000000000000009999123100000010000000000000BRCOCEACNPA3147
012024052402COGN3       010COGNA ON    ON      NM   R$  000000000020000000000002020000000000196000000000019800000000001960000000000196000000000019706456000000000013180900000000002613829600000000000000009999123100000010000000000000BRCOGNACNOR2104
012024052402ELMD3       010ELETROMIDIA ON      NM   R$  000000000188200000000019150000000001864000000000189500000000018780000000001878000000000188800394000000000000058300000000000110494600000000000000009999123100000010000000000000BRELMDACNOR3101
012024052402EMAE4       010EMAE        PN           R$  000000000501000000000050100000000004861000000000495900000000049500000000004900000000000495000021000000000000002700000000000013391900000000000000009999123100000010000000000000BREMAEACNPR1125
012024052402MTRE3       010MITRE REALTYON  ED  NM   R$  000000000039700000000004010000000000392000000000039600000000003950000000000393000000000039501647000000000000599900000000000237625300000000000000009999123100000010000000000000BRMTREACNOR6111
012024052402MTSA4       010METISA      PN           R$  000000000445000000000044500000000004386000000000441100000000043860000000004356000000000440000020000000000000002200000000000009706200000000000000009999123100000010000000000000BRMTSAACNPR9072
012024052402MULT3       010MULTIPLAN   ON      N2   R$  000000000229500000000023070000000002276000000000228900000000022790000000002278000000000229512644000000000003958600000000009064394300000000000000009999123100000010000000000000BRMULTACNOR5138
012024052402MWET4       010WETZEL S/A  PN           R$  000000000085700000000009290000000000757000000000085500000000008230000000000823000000000085700185000000000000220700000000000188878900000000000000009999123100000010000000000000BRMWETACNPR3118
012024052402MYPK3       010IOCHP-MAXIONON      NM   R$  000000000115500000000011550000000001117000000000112900000000011210000000001120000000000113004053000000000001343300000000001517672600000000000000009999123100000010000000000000BRMYPKACNOR7154
012024052402ARZZ3       010AREZZO CO   ON      NM   R$  000000000508100000000051490000000005060000000000510700000000050960000000005095000000000510307537000000000001417100000000007237493100000000000000009999123100000010000000000000BRARZZACNOR3146
012024052402BPAC11      010BTGP BANCO  UNT     N2   R$  000000000324400000000032530000000003199000000000322500000000032100000000003210000000000321821898000000000008880900000000028648405500000000000000009999123100000010000000000000BRBPACUNT006118
012024052402BPAC3       010BTGP BANCO  ON      N2   R$  000000000163600000000016360000000001612000000000161700000000016150000000001614000000000163500019000000000000002300000000000003721300000000000000009999123100000010000000000000BRBPACACNOR7133
012024052402BPAC5       010BTGP BANCO  PNA     N2   R$  000000000080300000000008140000000000787000000000080000000000007870000000000787000000000079000037000000000000006700000000000005360200000000000000009999123100000010000000000000BRBPACACNPA0133
012024052402CSED3       010CRUZEIRO EDUON      NM   R$  000000000043000000000004400000000000424000000000043100000000004380000000000433000000000043801969000000000000762000000000000328423500000000000000009999123100000010000000000000BRCSEDACNOR9104
012024052402CSMG3       010COPASA      ON      NM   R$  000000000205700000000020680000000002046000000000205200000000020460000000002046000000000205302750000000000000606500000000001244768500000000000000009999123100000010000000000000BRCSMGACNOR5173
012024052402EMBR3       010EMBRAER     ON      NM   R$  000000000379700000000038230000000003738000000000377200000000037680000000003768000000000377113730000000000003825800000000014434233400000000000000009999123100000010000000000000BREMBRACNOR4191
012024052402ENAT3       010ENAUTA PART ON      NM   R$  000000000222400000000022380000000002177000000000220300000000021850000000002185000000000218904804000000000001585900000000003494700900000000000000009999123100000010000000000000BRENATACNOR0104
012024052402LPSB3       010LOPES BRASILON      NM   R$  000000000023100000000002350000000000230000000000023200000000002310000000000230000000000023200096000000000000017000000000000003944600000000000000009999123100000010000000000000BRLPSBACNOR0114
012024052402LREN3       010LOJAS RENNERON      NM   R$  000000000134900000000013510000000001326000000000133600000000013330000000001333000000000133418401000000000010459800000000013984129300000000000000009999123100000010000000000000BRLRENACNOR1220
012024052402LUPA3       010LUPATECH    ON      NM   R$  000000000016300000000001660000000000160000000000016400000000001660000000000164000000000016600206000000000000185900000000000030493800000000000000009999123100000010000000000000BRLUPAACNOR8112
012024052402LUXM4       010TREVISA     PN           R$  000000000140000000000014250000000001400000000000140800000000014250000000001368000000000144900002000000000000000300000000000000422500000000000000009999123100000010000000000000BRLUXMACNPR4052
012024052402LVTC3       010WDC NETWORKSON      NM   R$  000000000040500000000004050000000000391000000000039600000000003950000000000391000000000039500153000000000000028300000000000011225400000000000000009999123100000010000000000000BRLVTCACNOR4102
012024052402ONCO3       010ONCOCLINICASON      NM   R$  000000000092000000000009390000000000866000000000090000000000009120000000000906000000000091313931000000000009455100000000008518538900000000000000009999123100000010000000000000BRONCOACNOR6100
012024052402OPCT3       010OCEANPACT   ON      NM   R$  000000000063900000000006410000000000629000000000063200000000006330000000000629000000000063300889000000000000363600000000000230001600000000000000009999123100000010000000000000BROPCTACNOR0100
012024052402BALM3       010BAUMER      ON           R$  000000000105000000000010500000000001050000000000105000000000010500000000000985000000000124900001000000000000000100000000000000105000000000000000009999123100000010000000000000BRBALMACNOR5055
012024052402BALM4       010BAUMER      PN           R$  000000000097600000000009760000000000976000000000097600000000009760000000000976000000000100000005000000000000001000000000000000976000000000000000009999123100000010000000000000BRBALMACNPR2056
012024052402AMAR3       010LOJAS MARISAON      NM   R$  000000000017500000000001800000000000174000000000017700000000001770000000000176000000000017700586000000000000311000000000000055116200000000000000009999123100000010000000000000BRAMARACNOR4114
012024052402AMBP3       010AMBIPAR     ON      NM   R$  000000000090000000000009070000000000852000000000086900000000008540000000000853000000000085403780000000000001620200000000001408920700000000000000009999123100000010000000000000BRAMBPACNOR6103
012024052402ANIM3       010ANIMA       ON      NM   R$  000000000038000000000003880000000000375000000000038000000000003790000000000378000000000037903872000000000003096500000000001176812900000000000000009999123100000010000000000000BRANIMACNOR6107
012024052402APER3       010ALPER S.A.  ON           R$  000000000447400000000045800000000004474000000000450600000000044800000000004450000000000452000008000000000000001100000000000004956900000000000000009999123100000010000000000000BRAPERACNOR9106
012024052402ARML3       010ARMAC       ON      NM   R$  000000000104600000000010560000000001007000000000103900000000010490000000001044000000000104902992000000000000775700000000000806491700000000000000009999123100000010000000000000BRARMLACNOR1111
012024052402MATD3       010MATER DEI   ON      NM   R$  000000000055300000000005550000000000542000000000054900000000005540000000000549000000000055401222000000000000377300000000000207207700000000000000009999123100000010000000000000BRMATDACNOR4104
012024052402MBLY3       010MOBLY       ON      NM   R$  000000000020900000000002140000000000202000000000020700000000002060000000000205000000000020800208000000000000544600000000000113098400000000000000009999123100000010000000000000BRMBLYACNOR5100
012024052402MDIA3       010M.DIASBRANCOON      NM   R$  000000000340400000000034040000000003342000000000336900000000033580000000003357000000000335801825000000000000351300000000001183653700000000000000009999123100000010000000000000BRMDIAACNOR7134
012024052402MDNE3       010MOURA DUBEUXON      NM   R$  000000000115000000000011820000000001144000000000116200000000011730000000001170000000000117402443000000000000529300000000000615287200000000000000009999123100000010000000000000BRMDNEACNOR9100
012024052402MEAL3       010IMC S/A     ON      NM   R$  000000000014100000000001410000000000138000000000013900000000001380000000000138000000000013900356000000000000325600000000000045350800000000000000009999123100000010000000000000BRMEALACNOR9105
012024052402MELK3       010MELNICK     ON      NM   R$  000000000040000000000004000000000000387000000000039100000000003880000000000387000000000038800742000000000000545500000000000213393400000000000000009999123100000010000000000000BRMELKACNOR8111
012024052402CSNA3       010SID NACIONALON  ED       R$  000000000131300000000013590000000001308000000000134600000000013420000000001342000000000134610026000000000006537300000000008804576900000000000000009999123100000010000000000000BRCSNAACNOR6261
012024052402FESA3       010FERBASA     ON      N1   R$  000000000140000000000014000000000001400000000000140000000000014000000000001341000000000143900002000000000000000200000000000000280000000000000000009999123100000010000000000000BRFESAACNOR8187
012024052402FESA4       010FERBASA     PN      N1   R$  000000000082500000000008470000000000822000000000083500000000008270000000000826000000000083001884000000000000698300000000000583124000000000000000009999123100000010000000000000BRFESAACNPR5083
012024052402BIOM3       010BIOMM       ON      MA   R$  000000000138500000000013860000000001311000000000135300000000013110000000001310000000000135100369000000000000052800000000000071447000000000000000009999123100000010000000000000BRBIOMACNOR2112
012024052402CAML3       010CAMIL       ON      NM   R$  000000000097500000000010040000000000975000000000099400000000010000000000000999000000000100103540000000000000966400000000000961289600000000000000009999123100000010000000000000BRCAMLACNOR3127
012024052402CASH3       010MELIUZ      ON      NM   R$  000000000053500000000005490000000000531000000000053700000000005340000000000533000000000053503219000000000001328900000000000714226300000000000000009999123100000010000000000000BRCASHACNOR8106
012024052402DOHL4       010DOHLER      PN           R$  000000000043900000000004570000000000426000000000044300000000004400000000000440000000000045500010000000000000001100000000000000488000000000000000009999123100000010000000000000BRDOHLACNPR9066
012024052402DOTZ3       010DOTZ SA     ON      NM   R$  000000000084500000000008680000000000832000000000084500000000008370000000000836000000000085100038000000000000011100000000000009380200000000000000009999123100000010000000000000BRDOTZACNOR7101
012024052402DXCO3       010DEXCO       ON      NM   R$  000000000075000000000007660000000000746000000000075600000000007540000000000753000000000075504347000000000002274700000000001720818400000000000000009999123100000010000000000000BRDXCOACNOR8105
012024052402EALT4       010ACO ALTONA  PN           R$  000000000116400000000011650000000001150000000000115800000000011640000000001149000000000116400022000000000000004300000000000004981000000000000000009999123100000010000000000000BREALTACNPR1138
012024052402ECOR3       010ECORODOVIAS ON      NM   R$  000000000073200000000007320000000000709000000000071500000000007090000000000709000000000071205317000000000003406500000000002438958600000000000000009999123100000010000000000000BRECORACNOR8120
012024052407TXRX4       010TEX RENAUX  PN           R$  000000000022700000000002270000000000227000000000022700000000002270000000000227000000000023600001000000000000000200000000000000045400000000000000009999123100000010000000000000BRTXRXACNPR0142
012024052407NUTR3       010NUTRIPLANT  ON      MA   R$  000000000050200000000005020000000000486000000000049400000000004940000000000493000000000050100017000000000000004700000000000002324600000000000000009999123100000010000000000000BRNUTRACNOR0104
012024052407BHIA3       010CASAS BAHIA ON      NM   R$  000000000076200000000007690000000000728000000000074600000000007280000000000728000000000073002460000000000002153700000000001606809600000000000000009999123100000010000000000000BRBHIAACNOR1101
012024052408SGPS3       010SPRINGS     ON      NM   R$  000000000005300000000000540000000000052000000000005200000000000540000000000052000000000005400136000000000000175300000000000009249300000000000000009999123100000010000000000000BRSGPSACNOR4104
012024052408RSID3       010ROSSI RESID ON      NM   R$  000000000053400000000005340000000000519000000000052300000000005280000000000528000000000052900732000000000000081100000000000042484200000000000000009999123100000010000000000000BRRSIDACNOR8120
012024052408ETER3       010ETERNIT     ON      NM   R$  000000000065300000000006650000000000653000000000065800000000006600000000000660000000000066100600000000000000170000000000000111965900000000000000009999123100000010000000000000BRETERACNOR3243
012024052408RNEW11      010RENOVA      UNT     N2   R$  000000000030000000000003050000000000290000000000029500000000002960000000000296000000000029900059000000000000012100000000000003574500000000000000009999123100000010000000000000BRRNEWCDAM15110
012024052408RNEW3       010RENOVA      ON      N2   R$  000000000010200000000001020000000000098000000000009900000000000990000000000098000000000009900098000000000000138700000000000013818800000000000000009999123100000010000000000000BRRNEWACNOR8110
012024052408RNEW4       010RENOVA      PN      N2   R$  000000000010000000000001010000000000098000000000009900000000000990000000000099000000000010000134000000000000172200000000000017051200000000000000009999123100000010000000000000BRRNEWACNPR5110
012024052408RPMG3       010PET MANGUINHON           R$  000000000023100000000002670000000000231000000000025200000000002500000000000250000000000025100124000000000000124500000000000031409700000000000000009999123100000010000000000000BRRPMGACNOR9194
012024052408PMAM3       010PARANAPANEMAON      NM   R$  000000000026200000000002730000000000259000000000026400000000002600000000000260000000000026300458000000000000079500000000000021028000000000000000009999123100000010000000000000BRPMAMACNOR3039
012024052408LIGT3       010LIGHT S/A   ON      NM   R$  000000000048600000000005290000000000482000000000051200000000005090000000000508000000000051306502000000000002304200000000001181477000000000000000009999123100000010000000000000BRLIGTACNOR2124
012024052408JFEN3       010JOAO FORTES ON           R$  000000000014900000000001560000000000140000000000014300000000001430000000000143000000000014400169000000000000078500000000000011295100000000000000009999123100000010000000000000BRJFENACNOR0059
012024052408BDLL4       010BARDELLA    PN           R$  000000000088000000000010000000000000880000000000098000000000010000000000000970000000000106000003000000000000000600000000000000588000000000000000009999123100000010000000000000BRBDLLACNPR8151
012024052408CTNM3       010COTEMINAS   ON           R$  000000000069700000000007110000000000697000000000070400000000007110000000000650000000000071100002000000000000000200000000000000140800000000000000009999123100000010000000000000BRCTNMACNOR9130
012024052408CTNM4       010COTEMINAS   PN           R$  000000000008700000000000920000000000086000000000008800000000000910000000000088000000000009100063000000000000059500000000000005259100000000000000009999123100000010000000000000BRCTNMACNPR6129
012024052408CTSA3       010SANTANENSE  ON           R$  000000000024600000000002510000000000246000000000024800000000002510000000000247000000000025000003000000000000000400000000000000099200000000000000009999123100000010000000000000BRCTSAACNOR3062
012024052408CTSA4       010SANTANENSE  PN           R$  000000000012000000000001220000000000117000000000011900000000001180000000000118000000000011900027000000000000011900000000000001416600000000000000009999123100000010000000000000BRCTSAACNPR0062
012024052408NEXP3       010NEXPE       ON           R$  000000000042100000000004240000000000420000000000042100000000004200000000000420000000000042300008000000000000000800000000000000337100000000000000009999123100000010000000000000BRNEXPACNOR0101
012024052408OSXB3       010OSX BRASIL  ON      NM   R$  000000000039400000000004010000000000394000000000039600000000003960000000000395000000000039800009000000000000001700000000000000674800000000000000009999123100000010000000000000BROSXBACNOR8109
012024052408ATMP3       010ATMASA      ON           R$  000000000020600000000002200000000000206000000000021800000000002200000000000214000000000022000015000000000000005300000000000001156100000000000000009999123100000010000000000000BRATMPACNOR8100
012024052408HOOT4       010HOTEIS OTHONPN           R$  000000000027800000000002780000000000277000000000027700000000002770000000000278000000000028100007000000000000006000000000000001667500000000000000009999123100000010000000000000BRHOOTACNPR9015
012024052408TEKA4       010TEKA        PN           R$  000000000349500000000034950000000003495000000000349500000000034950000000002500000000000350000001000000000000000100000000000000349500000000000000009999123100000010000000000000BRTEKAACNPR3140
012024052408OIBR3       010OI          ON      N1   R$  000000000006000000000000610000000000059000000000005900000000000590000000000059000000000006000738000000000001542100000000000091845500000000000000009999123100000010000000000000BROIBRACNOR1110
012024052408OIBR4       010OI          PN      N1   R$  000000000017400000000001780000000000174000000000017500000000001780000000000174000000000017800061000000000000016000000000000002806300000000000000009999123100000010000000000000BROIBRACNPR8109
012024052408AMER3       010AMERICANAS  ON  ES  NM   R$  000000000005200000000000550000000000051000000000005300000000000550000000000054000000000005501406000000000026175700000000001396542600000000000000009999123100000010000000000000BRAMERACNOR6102
012024052410PMAM1       010PARANAPANEMADIR ORD NM   R$  000000000000100000000000010000000000001000000000000100000000000010000000000000000000000000100005000000000000014500000000000000014500000000000000009999123100000010000000000000BRPMAMD04OR2038
012024052410AGXY1       010AGROGALAXY  DIR ORD NM   R$  000000000000100000000000010000000000001000000000000100000000000010000000000000000000000000100025000000000000033800000000000000033800000000000000009999123100000010000000000000BRAGXYD01OR9102
012024052410BSLI2       010BRB BANCO   DIR PRE      R$  000000000009700000000001100000000000090000000000009300000000000930000000000092000000000009300035000000000000006600000000000000619100000000000000009999123100000010000000000000BRBSLID02PR5192
012024052410BNBR1       010NORD BRASIL DIR ORD      R$  000000000003000000000000300000000000030000000000003000000000000300000000000004000000000003000003000000000000000600000000000000018000000000000000009999123100000010000000000000BRBNBRD05OR4207
012024052410IFRA12      010FI ITAUINFRADIR          R$  000000000001700000000000200000000000014000000000001700000000000140000000000014000000000001500131000000000000038593000000000000661411000000000000009999123100000010000000000000BRIFRAD01M12137
012024052410EQTL1       010EQUATORIAL  DIR ORD NM   R$  000000000005400000000001100000000000051000000000008500000000001100000000000080000000000011901383000000000000648900000000000055375300000000000000009999123100000010000000000000BREQTLD03OR1129
012024052410AMER1       010AMERICANAS  DIR ORD NM   R$  000000000000100000000000020000000000001000000000000100000000000010000000000000000000000000103807000000001436024100000000001438584500000000000000009999123100000010000000000000BRAMERD02OR9101
012024052412SEQR11      010FII SEQUOIA CI           R$  000000000530100000000053300000000005301000000000531600000000053110000000005310000000000531100064000000000000000431000000000002291346000000000000009999123100000010000000000000BRSEQRCTF002142
012024052412SHOP11      010FII MULTSHOPCI           R$  000000000592900000000059290000000005929000000000592900000000059290000000000000000000000679900001000000000000000007000000000000041503000000000000009999123100000010000000000000BRSHOPCTF004102
012024052412SHPH11      010FII HIGIENOPCI           R$  000000008560200000000870000000000084001000000008574200000000870000000000087000000000008750000019000000000000000023000000000001972075000000000000009999123100000010000000000000BRSHPHCTF008349
012024052412RVBI11      010FII VBI REITCI           R$  000000000765000000000077100000000007650000000000769800000000076770000000007677000000000769806308000000000000323463000000002490272934000000000000009999123100000010000000000000BRRVBICTF009151
012024052412RZAK11      010FII RIZA AKNCI  ER       R$  000000000854000000000085560000000008518000000000853200000000085230000000008523000000000853405598000000000000017792000000000151802803000000000000009999123100000010000000000000BRRZAKCTF008143
012024052412RZAT11      010FII ARCTIUM CI  ER       R$  000000000997100000000099900000000009941000000000996200000000099410000000009941000000000997802294000000000000006882000000000068560812000000000000009999123100000010000000000000BRRZATCTF009116
012024052412RZTR11      010FII RIZA TX CI           R$  000000000959900000000096530000000009560000000000960500000000095910000000009591000000000960009446000000000000046394000000000445620661000000000000009999123100000010000000000000BRRZTRCTF003147
012024052412SADI11      010FII SANT PAPCI           R$  000000000907000000000090930000000009054000000000907700000000090900000000009071000000000909000123000000000000002769000000000025134714000000000000009999123100000010000000000000BRSADICTF007158
012024052412EURO11      010FII EUROPAR CI           R$  000000002559700000000255970000000025094000000002514400000000253600000000025360000000002563300015000000000000000041000000000001030937000000000000009999123100000010000000000000BREUROCTF011358
012024052412EVBI11      010FII VBI CON CI           R$  000000000975800000000098500000000009758000000000982600000000098500000000009722000000000988600004000000000000000020000000000000196539000000000000009999123100000010000000000000BREVBICTF007148
012024052412RFOF11      010FII RB CFOF CI           R$  000000000750400000000075090000000007337000000000738400000000074150000000007400000000000743500967000000000000002877000000000021244791000000000000009999123100000010000000000000BRRFOFCTF001150
012024052412RINV11      010FII REAL INVCI  ER       R$  000000001123000000000112590000000011190000000001121700000000112200000000011201000000001122400069000000000000002012000000000022569500000000000000009999123100000010000000000000BRRINVCTF004118
012024052412RMAI11      010FII REAGMULTCI           R$  000000000708000000000070800000000007031000000000705700000000070600000000006661000000000706000119000000000000000149000000000001051512000000000000009999123100000010000000000000BRRMAICTF000133
012024052412RNDP11      010FII BB R PAPCI           R$  000000000729900000000076000000000007200000000000725200000000072000000000007200000000000759900010000000000000000053000000000000384374000000000000009999123100000010000000000000BRRNDPCTF007247
012024052412RNGO11      010FII RIONEGROCI           R$  000000000484800000000048840000000004847000000000486100000000048470000000004847000000000484800123000000000000001447000000000007034027000000000000009999123100000010000000000000BRRNGOCTF003242
012024052412RPRI11      010FII RBR PR  CI           R$  000000000960000000000096280000000009573000000000959900000000096280000000009614000000000962800036000000000000000401000000000003849462000000000000009999123100000010000000000000BRRPRICTF007127
012024052412RRCI11      010FII RBCAP RICI           R$  000000000829300000000083480000000008291000000000829800000000083480000000008292000000000834700015000000000000000173000000000001435574000000000000009999123100000010000000000000BRRRCICTF005141
012024052412TRBL11      010FII SDI LOG CI           R$  000000001019700000000105010000000010197000000001036800000000102990000000010289000000001029500933000000000000012659000000000131256363000000000000009999123100000010000000000000BRTRBLCTF007111
012024052412TRNT11      010FII TORRE NOCI           R$  000000001218900000000121890000000012189000000001218900000000121890000000011305000000001219000001000000000000000001000000000000012189000000000000009999123100000010000000000000BRTRNTCTF013340
012024052412TRXF11      010FII TRX REALCI           R$  000000001089900000000109200000000010887000000001089600000000108990000000010896000000001089910973000000000000112411000000001224913517000000000000009999123100000010000000000000BRTRXFCTF003163
012024052412PLCR11      010FII PLURAL RCI           R$  000000000883000000000088420000000008802000000000883200000000088190000000008819000000000882200294000000000000002645000000000023360784000000000000009999123100000010000000000000BRPLCRCTF003154
012024052412PLRI11      010FII POLO I  CI           R$  000000000150300000000015030000000001503000000000150300000000015030000000001503000000000200000001000000000000000014000000000000021042000000000000009999123100000010000000000000BRPLRICTF000242
012024052412PMIS11      010FII PMIS    CI           R$  000000000092900000000009850000000000929000000000096000000000009830000000000944000000000098300898000000000000016501000000000015852973000000000000009999123100000010000000000000BRPMISCTF006105
012024052412HRDF11      010FII HREALTY CI           R$  000000000033100000000003310000000000331000000000033100000000003310000000000331000000000034900007000000000000000116000000000000038396000000000000009999123100000010000000000000BRHRDFCTF000103
012024052412HREC11      010FII HEDGERECCI           R$  000000000086900000000008690000000000862000000000086500000000008620000000000862000000000086300092000000000000026424000000000022874102000000000000009999123100000010000000000000BRHRECCTF005148
012024052412HSAF11      010FII HSI CRI CI           R$  000000000862000000000086300000000008589000000000861400000000086050000000008582000000000860801136000000000000004619000000000039790192000000000000009999123100000010000000000000BRHSAFCTF004147
012024052412HSLG11      010FII HSI LOG CI           R$  000000000901500000000090620000000008990000000000902200000000090580000000009045000000000905800833000000000000003512000000000031686676000000000000009999123100000010000000000000BRHSLGCTF009141
012024052412HSML11      010FII HSI MALLCI  ES       R$  000000000961600000000096900000000009616000000000967400000000096800000000009675000000000968009721000000000000033838000000000327377371000000000000009999123100000010000000000000BRHSMLCTF007160
012024052412HSRE11      010FII HSIRENDACI           R$  000000001069900000000108000000000010667000000001076700000000108000000000010560000000001080000007000000000000000532000000000005728195000000000000009999123100000010000000000000BRHSRECTF001140
012024052412HTMX11      010FII HOTEL MXCI           R$  000000001799100000000184930000000017991000000001823300000000183160000000018305000000001831601019000000000000005366000000000097840258000000000000009999123100000010000000000000BRHTMXCTF000279
012024052412IBCR11      010FII BREI    CI           R$  000000000749500000000075500000000007476000000000750500000000075000000000007491000000000752300483000000000000000909000000000006822504000000000000009999123100000010000000000000BRIBCRCTF009136
012024052412KNCR11      010FII KINEA RICI  ES       R$  000000001042800000000104700000000010428000000001045100000000104460000000010446000000001045120122000000000000135438000000001415499142000000000000009999123100000010000000000000BRKNCRCTF000239
012024052412KNHF11      010FII KINEA HFCI           R$  000000000988500000000099000000000009853000000000988100000000098950000000009895000000000991403250000000000000025755000000000254485197000000000000009999123100000010000000000000BRKNHFCTF004110
012024052412KNHY11      010FII KINEA HYCI           R$  000000001062400000000106340000000010550000000001058900000000105680000000010570000000001060010742000000000000068071000000000720867335000000000000009999123100000010000000000000BRKNHYCTF005171
012024052412KNIP11      010FII KINEA IPCI           R$  000000000967900000000097100000000009630000000000968200000000096330000000009633000000000966515915000000000000115354000000001116877433000000000000009999123100000010000000000000BRKNIPCTF001192
012024052412KNRE11      010FII KII REALCI           R$  000000000004200000000000420000000000041000000000004100000000000420000000000041000000000004200011000000000000000639000000000000026293000000000000009999123100000010000000000000BRKNRECTF006129
012024052412KNRI11      010FII KINEA   CI           R$  000000001592700000000159960000000015920000000001597000000000159520000000015951000000001595203255000000000000017072000000000272655907000000000000009999123100000010000000000000BRKNRICTF007263
012024052412KNSC11      010FII KINEA SCCI           R$  000000000091800000000009320000000000917000000000092500000000009250000000000925000000000092616061000000000000383294000000000354762555000000000000009999123100000010000000000000BRKNSCCTF008146
012024052412KNUQ11      010FII KINEA UNCI           R$  000000001043800000000105340000000010429000000001045600000000104600000000010460000000001047303427000000000000012284000000000128443839000000000000009999123100000010000000000000BRKNUQCTF004112
012024052412KORE11      010FII KORE    CI           R$  000000001074900000000107600000000010700000000001073500000000107000000000010700000000001072801480000000000000018854000000000202403448000000000000009999123100000010000000000000BRKORECTF012105
012024052412LASC11      010FII LEGATUS CI           R$  000000001150000000000115000000000011420000000001144100000000114500000000011284000000001145000007000000000000000050000000000000572080000000000000009999123100000010000000000000BRLASCCTF003152
