00COTAHIST.2024BOVESPA 20240112                                                                                                                                                                                                                      
012024011202BRSR3       010BANRISUL    ON      N1   R$  000000000139000000000014500000000001376000000000140600000000013890000000001391000000000142000105000000000000019500000000000027428200000000000000009999123100000010000000000000BRBRSRACNOR3185
012024011202BRSR6       010BANRISUL    PNB     N1   R$  000000000136500000000013790000000001355000000000136900000000013720000000001365000000000137304356000000000001136100000000001556391100000000000000009999123100000010000000000000BRBRSRACNPB4188
012024011202GEPA4       010GER PARANAP PN           R$  000000000255000000000025500000000002550000000000255000000000025500000000002556000000000268900001000000000000000100000000000000255000000000000000009999123100000010000000000000BRGEPAACNPR9159
012024011202GFSA3       010GAFISA      ON      NM   R$  000000000131000000000013990000000001309000000000135100000000013520000000001352000000000135311617000000000007043400000000009518586500000000000000009999123100000010000000000000BRGFSAACNOR3123
012024011202GGBR3       010GERDAU      ON      N1   R$  000000000202300000000020300000000001989000000000200400000000019980000000001998000000000201200440000000000000082000000000000164330300000000000000009999123100000010000000000000BRGGBRACNOR1189
012024011202GGBR4       010GERDAU      PN      N1   R$  000000000212100000000021570000000002116000000000214000000000021310000000002131000000000214014637000000000006219200000000013311213100000000000000009999123100000010000000000000BRGGBRACNPR8189
012024011202ITUB3       010ITAUUNIBANCOON      N1   R$  000000000283000000000028340000000002791000000000281800000000028310000000002825000000000283100789000000000000188200000000000530475800000000000000009999123100000010000000000000BRITUBACNOR4329
012024011202ITUB4       010ITAUUNIBANCOPN      N1   R$  000000000332600000000033480000000003296000000000333300000000033390000000003332000000000333930121000000000024367500000000081224512200000000000000009999123100000010000000000000BRITUBACNPR1329
012024011202B3SA3       010B3          ON      NM   R$  000000000140000000000014240000000001396000000000140800000000014100000000001407000000000141036454000000000024421600000000034402909800000000000000009999123100000010000000000000BRB3SAACNOR6130
012024011202BEES3       010BANESTES    ON  EJ       R$  000000000092300000000009270000000000908000000000091800000000009250000000000920000000000093300083000000000000013000000000000011943300000000000000009999123100000010000000000000BRBEESACNOR9386
012024011202BEES4       010BANESTES    PN  EJ       R$  000000000099000000000010030000000000941000000000098500000000010000000000000980000000000100000031000000000000004400000000000004337100000000000000009999123100000010000000000000BRBEESACNPR6311
012024011202BGIP4       010BANESE      PN           R$  000000000253300000000025330000000002450000000000248700000000024500000000002430000000000258600013000000000000003200000000000007961100000000000000009999123100000010000000000000BRBGIPACNPR8206
012024011202BHIA3       010CASAS BAHIA ON      NM   R$  000000000098800000000010360000000000981000000000100900000000010050000000001005000000000100806089000000000003577200000000003612205700000000000000009999123100000010000000000000BRBHIAACNOR1101
012024011202BRIT3       010BRISANET    ON      NM   R$  000000000032900000000003430000000000329000000000033500000000003390000000000338000000000034100630000000000000398600000000000133778400000000000000009999123100000010000000000000BRBRITACNOR0102
012024011202BRIV4       010ALFA INVEST PN  EJ       R$  000000000105300000000010530000000001033000000000104900000000010330000000001033000000000105000003000000000000000500000000000000524500000000000000009999123100000010000000000000BRBRIVACNPR3218
012024011202BRKM3       010BRASKEM     ON      N1   R$  000000000191100000000019720000000001889000000000193300000000019010000000001901000000000194100109000000000000017100000000000033059100000000000000009999123100000010000000000000BRBRKMACNOR1119
012024011202BRKM5       010BRASKEM     PNA     N1   R$  000000000186200000000019590000000001859000000000190500000000018930000000001893000000000189410743000000000003752800000000007152544600000000000000009999123100000010000000000000BRBRKMACNPA4121
012024011202CSRN5       010COSERN      PNA EJ       R$  000000000262000000000026200000000002620000000000262000000000026200000000002651000000000278000001000000000000000100000000000000262000000000000000009999123100000010000000000000BRCSRNACNPA3190
012024011202CSUD3       010CSU DIGITAL ON      NM   R$  000000000193800000000019950000000001928000000000197100000000019830000000001983000000000198700413000000000000093500000000000184356900000000000000009999123100000010000000000000BRCSUDACNOR5107
012024011202CTNM4       010COTEMINAS   PN           R$  000000000015000000000001540000000000149000000000015000000000001520000000000150000000000015200068000000000000029200000000000004405500000000000000009999123100000010000000000000BRCTNMACNPR6129
012024011202CTSA3       010SANTANENSE  ON           R$  000000000046900000000004780000000000411000000000045200000000004410000000000441000000000046500088000000000000031900000000000014425400000000000000009999123100000010000000000000BRCTSAACNOR3062
012024011202CTSA4       010SANTANENSE  PN           R$  000000000021600000000002250000000000214000000000021900000000002230000000000219000000000022300329000000000000051900000000000011392900000000000000009999123100000010000000000000BRCTSAACNPR0062
012024011202CURY3       010CURY S/A    ON      NM   R$  000000000176700000000017940000000001699000000000176800000000017790000000001779000000000178507998000000000001385800000000002451011300000000000000009999123100000010000000000000BRCURYACNOR3107
012024011202NEOE3       010NEOENERGIA  ON  EJ  NM   R$  000000000209400000000021120000000002058000000000209900000000021090000000002109000000000211003752000000000000969000000000002034211900000000000000009999123100000010000000000000BRNEOEACNOR3121
012024011202LJQQ3       010QUERO-QUERO ON      NM   R$  000000000056300000000005860000000000561000000000056900000000005620000000000562000000000056503537000000000001893500000000001077615100000000000000009999123100000010000000000000BRLJQQACNOR5104
012024011202LOGG3       010LOG COM PROPON      NM   R$  000000000222400000000022740000000002205000000000224900000000022550000000002255000000000227301394000000000000220500000000000496007300000000000000009999123100000010000000000000BRLOGGACNOR7106
012024011202LOGN3       010LOG-IN      ON      NM   R$  000000000387500000000039980000000003850000000000391100000000039810000000003978000000000398100253000000000000035400000000000138483500000000000000009999123100000010000000000000BRLOGNACNOR3105
012024011202LPSB3       010LOPES BRASILON      NM   R$  000000000023200000000002380000000000228000000000023200000000002290000000000229000000000023400273000000000000083200000000000019357400000000000000009999123100000010000000000000BRLPSBACNOR0113
012024011202LREN3       010LOJAS RENNERON      NM   R$  000000000164000000000017210000000001640000000000169900000000016960000000001691000000000169824840000000000017747600000000030167121400000000000000009999123100000010000000000000BRLRENACNOR1219
012024011202PETZ3       010PETZ        ON      NM   R$  000000000036100000000003820000000000361000000000037200000000003630000000000362000000000036309969000000000017045900000000006341123600000000000000009999123100000010000000000000BRPETZACNOR2109
012024011202RSUL4       010RIOSULENSE  PN           R$  000000000780400000000078990000000007801000000000785800000000078980000000007700000000000789900011000000000000001200000000000009430100000000000000009999123100000010000000000000BRRSULACNPR3113
012024011202SANB11      010SANTANDER BRUNT          R$  000000000306000000000030950000000003016000000000303900000000030330000000003020000000000303406333000000000001980100000000006018622400000000000000009999123100000010000000000000BRSANBCDAM13162
012024011202CSAN3       010COSAN       ON      NM   R$  000000000192500000000019890000000001925000000000195900000000019520000000001948000000000195311486000000000005778900000000011321546400000000000000009999123100000010000000000000BRCSANACNOR6124
012024011202ELMD3       010ELETROMIDIA ON      NM   R$  000000000166500000000017990000000001665000000000174800000000017600000000001744000000000176000605000000000000134200000000000234701700000000000000009999123100000010000000000000BRELMDACNOR3100
012024011202EMAE4       010EMAE        PN           R$  000000000569900000000057790000000005674000000000572000000000057700000000005671000000000575000008000000000000000800000000000004576600000000000000009999123100000010000000000000BREMAEACNPR1124
012024011202EMBR3       010EMBRAER     ON      NM   R$  000000000218000000000021850000000002145000000000216600000000021700000000002169000000000217308620000000000003235200000000007009067400000000000000009999123100000010000000000000BREMBRACNOR4191
012024011202ENAT3       010ENAUTA PART ON      NM   R$  000000000188800000000019200000000001852000000000188300000000018630000000001863000000000187704058000000000001053100000000001983141200000000000000009999123100000010000000000000BRENATACNOR0104
012024011202LUPA3       010LUPATECH    ON      NM   R$  000000000021800000000002270000000000218000000000022400000000002270000000000226000000000022700443000000000000432700000000000097311500000000000000009999123100000010000000000000BRLUPAACNOR8112
012024011202LUXM4       010TREVISA     PN           R$  000000000144100000000015990000000001441000000000148400000000015990000000001458000000000159900009000000000000001800000000000002671900000000000000009999123100000010000000000000BRLUXMACNPR4051
012024011202LVTC3       010WDC NETWORKSON      NM   R$  000000000041500000000004160000000000406000000000041300000000004160000000000413000000000041500032000000000000010000000000000004131500000000000000009999123100000010000000000000BRLVTCACNOR4102
012024011202LWSA3       010LWSA        ON      NM   R$  000000000061400000000006450000000000610000000000063000000000006240000000000623000000000062512465000000000011736000000000007398250600000000000000009999123100000010000000000000BRLWSAACNOR8103
012024011202WEGE3       010WEG         ON      NM   R$  000000000348000000000035090000000003448000000000347200000000034670000000003466000000000346711356000000000004474600000000015539958500000000000000009999123100000010000000000000BRWEGEACNOR0220
012024011202RAIZ4       010RAIZEN      PN      N2   R$  000000000039400000000004050000000000392000000000039900000000004000000000000399000000000040108837000000000015347000000000006126386900000000000000009999123100000010000000000000BRRAIZACNPR6109
012024011202PATI3       010PANATLANTICAON           R$  000000000291000000000029100000000002750000000000283000000000027500000000002751000000000310000002000000000000000600000000000001698000000000000000009999123100000010000000000000BRPATIACNOR6064
012024011202PCAR3       010P.ACUCAR-CBDON      NM   R$  000000000037000000000004160000000000367000000000039900000000004080000000000407000000000040815941000000000023295500000000009302236900000000000000009999123100000010000000000000BRPCARACNOR3167
012024011202PDGR3       010PDG REALT   ON      NM   R$  000000000004100000000000490000000000039000000000004400000000000410000000000041000000000004202275000000000018070300000000000797838600000000000000009999123100000010000000000000BRPDGRACNOR8118
012024011202PDTC3       010PADTEC      ON      NM   R$  000000000030500000000003130000000000304000000000030500000000003060000000000306000000000030700110000000000000090900000000000027774100000000000000009999123100000010000000000000BRPDTCACNOR3100
012024011202PETR3       010PETROBRAS   ON      N2   R$  000000000399000000000040070000000003961000000000397700000000039640000000003964000000000397808471000000000005163800000000020538047400000000000000009999123100000010000000000000BRPETRACNOR9202
012024011202PETR4       010PETROBRAS   PN      N2   R$  000000000385000000000038730000000003817000000000384100000000038170000000003817000000000382036431000000000024479500000000094034050300000000000000009999123100000010000000000000BRPETRACNPR6209
012024011202PTBL3       010PORTOBELLO  ON      NM   R$  000000000066300000000006970000000000663000000000068200000000006840000000000678000000000068402668000000000000657800000000000449060400000000000000009999123100000010000000000000BRPTBLACNOR8132
012024011202PTNT3       010PETTENATI   ON           R$  000000000114200000000011880000000001142000000000117600000000011850000000001141000000000118500007000000000000000700000000000000823700000000000000009999123100000010000000000000BRPTNTACNOR6042
012024011202PTNT4       010PETTENATI   PN           R$  000000000082200000000008350000000000813000000000082400000000008350000000000820000000000083500032000000000000003200000000000002639100000000000000009999123100000010000000000000BRPTNTACNPR3047
012024011202QUAL3       010QUALICORP   ON      NM   R$  000000000031900000000003330000000000319000000000032500000000003270000000000325000000000032705108000000000004778000000000001553994200000000000000009999123100000010000000000000BRQUALACNOR6119
012024011202RADL3       010RAIADROGASILON      NM   R$  000000000280800000000028480000000002781000000000282100000000028150000000002811000000000281610873000000000003002300000000008469747700000000000000009999123100000010000000000000BRRADLACNOR0154
012024011202VITT3       010VITTIA      ON      NM   R$  000000000098300000000010050000000000975000000000098600000000009750000000000975000000000098300901000000000000213400000000000210494700000000000000009999123100000010000000000000BRVITTACNOR4106
012024011202VIVA3       010VIVARA S.A. ON      NM   R$  000000000353000000000035760000000003461000000000353200000000035310000000003527000000000353210403000000000001762300000000006225286600000000000000009999123100000010000000000000BRVIVAACNOR0106
012024011202VIVR3       010VIVER       ON      NM   R$  000000000052000000000005500000000000520000000000053500000000005400000000000535000000000054000955000000000000498000000000000266789200000000000000009999123100000010000000000000BRVIVRACNOR4120
012024011202VIVT3       010TELEF BRASILON           R$  000000000501800000000050770000000005002000000000505300000000050770000000005049000000000507810925000000000001954900000000009879442700000000000000009999123100000010000000000000BRVIVTACNOR0178
012024011202CCRO3       010CCR SA      ON      NM   R$  000000000136400000000014080000000001364000000000138000000000013730000000001372000000000137807026000000000003731200000000005150050700000000000000009999123100000010000000000000BRCCROACNOR2144
012024011202CEAB3       010CEA MODAS   ON      NM   R$  000000000074600000000007730000000000741000000000075400000000007430000000000742000000000074604278000000000001935400000000001461145700000000000000009999123100000010000000000000BRCEABACNOR1101
012024011202CEBR3       010CEB         ON           R$  000000000181000000000018400000000001783000000000180800000000017830000000001783000000000180000029000000000000008500000000000015369800000000000000009999123100000010000000000000BRCEBRACNOR5124
012024011202CEBR5       010CEB         PNA          R$  000000000170500000000017200000000001701000000000171800000000017200000000001700000000000172000022000000000000004200000000000007219100000000000000009999123100000010000000000000BRCEBRACNPA8123
012024011202CEBR6       010CEB         PNB          R$  000000000194600000000019500000000001925000000000194200000000019250000000001912000000000192500019000000000000002400000000000004662400000000000000009999123100000010000000000000BRCEBRACNPB6123
012024011202CEDO3       010CEDRO       ON      N1   R$  000000000280000000000028000000000002800000000000280000000000028000000000002800000000000289900001000000000000000100000000000000280000000000000000009999123100000010000000000000BRCEDOACNOR8096
012024011202CEDO4       010CEDRO       PN      N1   R$  000000000295500000000029550000000002953000000000295300000000029530000000002906000000000295200002000000000000000500000000000001476700000000000000009999123100000010000000000000BRCEDOACNPR5128
012024011202CEEB3       010COELBA      ON  EJ       R$  000000000399900000000039990000000003999000000000399900000000039990000000003962000000000400000004000000000000005800000000000023194200000000000000009999123100000010000000000000BRCEEBACNOR3196
012024011202CGAS5       010COMGAS      PNA          R$  000000001247700000000124780000000012471000000001247500000000124710000000012430000000001258000003000000000000000300000000000003742600000000000000009999123100000010000000000000BRCGASACNPA3159
012024011202CGRA3       010GRAZZIOTIN  ON           R$  000000000260900000000026100000000002591000000000260400000000025910000000002590000000000260600004000000000000000500000000000001302000000000000000009999123100000010000000000000BRCGRAACNOR2081
012024011202CGRA4       010GRAZZIOTIN  PN           R$  000000000258700000000026400000000002579000000000260300000000025920000000002590000000000261500042000000000000007800000000000020308800000000000000009999123100000010000000000000BRCGRAACNPR9081
012024011202CIEL3       010CIELO       ON      NM   R$  000000000048100000000004870000000000466000000000047400000000004730000000000472000000000047321913000000000026417700000000012526488400000000000000009999123100000010000000000000BRCIELACNOR3156
012024011202CYRE3       010CYRELA REALTON      NM   R$  000000000230600000000023640000000002222000000000229200000000022860000000002285000000000228819708000000000006672800000000015296190300000000000000009999123100000010000000000000BRCYREACNOR7139
012024011202DASA3       010DASA        ON      NM   R$  000000000092900000000009490000000000915000000000093100000000009310000000000931000000000093201225000000000000245700000000000228789000000000000000009999123100000010000000000000BRDASAACNOR1122
012024011202DESK3       010DESKTOP     ON      NM   R$  000000000134100000000013740000000001330000000000135300000000013300000000001330000000000134300695000000000000122500000000000165786500000000000000009999123100000010000000000000BRDESKACNOR2103
012024011202DEXP3       010DEXXOS PAR  ON      N1   R$  000000000116000000000011900000000001160000000000117700000000011810000000001172000000000118300172000000000000028900000000000034033600000000000000009999123100000010000000000000BRDEXPACNOR1104
012024011202DEXP4       010DEXXOS PAR  PN      N1   R$  000000000116000000000011800000000001160000000000116000000000011800000000001160000000000119500009000000000000006100000000000007078100000000000000009999123100000010000000000000BRDEXPACNPR8104
012024011202DIRR3       010DIRECIONAL  ON      NM   R$  000000000217400000000022080000000002095000000000217100000000021770000000002177000000000218512986000000000003090800000000006712877500000000000000009999123100000010000000000000BRDIRRACNOR0117
012024011202DMVF3       010D1000VFARMA ON      NM   R$  000000000059900000000006090000000000596000000000060200000000006040000000000598000000000060400127000000000000026500000000000015956600000000000000009999123100000010000000000000BRDMVFACNOR9100
012024011202DOTZ3       010DOTZ SA     ON      NM   R$  000000000086400000000008760000000000839000000000085700000000008390000000000828000000000085900031000000000000006100000000000005231900000000000000009999123100000010000000000000BRDOTZACNOR7101
012024011202BAHI3       010BAHEMA      ON      MA   R$  000000000077000000000007790000000000770000000000077200000000007790000000000771000000000078000003000000000000000400000000000000308900000000000000009999123100000010000000000000BRBAHIACNOR1074
012024011202BALM3       010BAUMER      ON           R$  000000000102100000000010410000000001021000000000103600000000010410000000001025000000000113000002000000000000000400000000000000414400000000000000009999123100000010000000000000BRBALMACNOR5055
012024011202BAUH4       010EXCELSIOR   PN           R$  000000000818500000000081850000000008185000000000818500000000081850000000005001000000000818700001000000000000000100000000000000818500000000000000009999123100000010000000000000BRBAUHACNPR3117
012024011202BAZA3       010AMAZONIA    ON           R$  000000000928000000000093150000000009161000000000924000000000091610000000009160000000000924900011000000000000002200000000000020329700000000000000009999123100000010000000000000BRBAZAACNOR0178
012024011202BBAS3       010BRASIL      ON      NM   R$  000000000548000000000055200000000005431000000000548900000000055120000000005511000000000551215663000000000005063300000000027792682200000000000000009999123100000010000000000000BRBBASACNOR3319
012024011202BIOM3       010BIOMM       ON      MA   R$  000000000055000000000005610000000000538000000000054300000000005430000000000536000000000055300059000000000000008900000000000004838000000000000000009999123100000010000000000000BRBIOMACNOR2112
012024011202CVCB3       010CVC BRASIL  ON      NM   R$  000000000032300000000003400000000000323000000000033200000000003310000000000331000000000033208676000000000019677500000000006548424700000000000000009999123100000010000000000000BRCVCBACNOR1115
012024011202EVEN3       010EVEN        ON      NM   R$  000000000074600000000007550000000000723000000000074500000000007490000000000749000000000075301973000000000000592700000000000441966700000000000000009999123100000010000000000000BREVENACNOR8118
012024011202EZTC3       010EZTEC       ON      NM   R$  000000000165900000000017150000000001623000000000168000000000016850000000001683000000000169014353000000000004302200000000007229434000000000000000009999123100000010000000000000BREZTCACNOR0123
012024011202FESA3       010FERBASA     ON      N1   R$  000000000632200000000063220000000006322000000000632200000000063220000000005865000000000640000001000000000000000100000000000000632200000000000000009999123100000010000000000000BRFESAACNOR8186
012024011202FESA4       010FERBASA     PN      N1   R$  000000000434000000000044800000000004340000000000440400000000044100000000004391000000000441100942000000000000151600000000000667670000000000000000009999123100000010000000000000BRFESAACNPR5082
012024011202FHER3       010FER HERINGERON      NM   R$  000000000075000000000007500000000000741000000000074300000000007410000000000741000000000074700013000000000000002300000000000001709100000000000000009999123100000010000000000000BRFHERACNOR5103
012024011202FIQE3       010UNIFIQUE    ON      NM   R$  000000000039000000000003940000000000388000000000039100000000003940000000000390000000000039400449000000000000148600000000000058146100000000000000009999123100000010000000000000BRFIQEACNOR5105
012024011202FLRY3       010FLEURY      ON      NM   R$  000000000175400000000017630000000001736000000000175300000000017540000000001754000000000175503737000000000000992400000000001740452100000000000000009999123100000010000000000000BRFLRYACNOR5137
012024011202MTRE3       010MITRE REALTYON      NM   R$  000000000051200000000005260000000000500000000000051500000000005120000000000510000000000051203436000000000002319500000000001194868100000000000000009999123100000010000000000000BRMTREACNOR6109
012024011202MTSA4       010METISA      PN           R$  000000000498100000000051860000000004981000000000503000000000051000000000005100000000000513000014000000000000002300000000000011569800000000000000009999123100000010000000000000BRMTSAACNPR9071
012024011202MULT3       010MULTIPLAN   ON      N2   R$  000000000287900000000029280000000002842000000000290200000000029040000000002900000000000290419765000000000003357300000000009742999200000000000000009999123100000010000000000000BRMULTACNOR5137
012024011202MWET4       010WETZEL S/A  PN           R$  000000000079800000000008080000000000715000000000075400000000007260000000000726000000000074900021000000000000004300000000000003244800000000000000009999123100000010000000000000BRMWETACNPR3118
012024011202MYPK3       010IOCHP-MAXIONON      NM   R$  000000000122700000000012540000000001216000000000123400000000012280000000001228000000000123103619000000000000889000000000001097273000000000000000009999123100000010000000000000BRMYPKACNOR7153
012024011202AERI3       010AERIS       ON      NM   R$  000000000008700000000000910000000000087000000000008800000000000890000000000088000000000008902702000000000005273000000000000469106500000000000000009999123100000010000000000000BRAERIACNOR4101
012024011202AESB3       010AES BRASIL  ON      NM   R$  000000000124500000000012670000000001243000000000125300000000012430000000001242000000000125005137000000000001555800000000001949652300000000000000009999123100000010000000000000BRAESBACNOR7105
012024011202AFLT3       010AFLUENTE T  ON           R$  000000000078700000000007870000000000787000000000078700000000007870000000000790000000000084500002000000000000000300000000000000236100000000000000009999123100000010000000000000BRAFLTACNOR1120
012024011202AGRO3       010BRASILAGRO  ON      NM   R$  000000000246600000000025180000000002466000000000249400000000024980000000002485000000000249801411000000000000228600000000000570141300000000000000009999123100000010000000000000BRAGROACNOR7114
012024011202AGXY3       010AGROGALAXY  ON      NM   R$  000000000029900000000003070000000000296000000000029900000000003010000000000300000000000030100421000000000000089400000000000026777900000000000000009999123100000010000000000000BRAGXYACNOR4102
012024011202ALLD3       010ALLIED      ON      NM   R$  000000000074600000000007500000000000740000000000074200000000007400000000000740000000000074800089000000000000021800000000000016179100000000000000009999123100000010000000000000BRALLDACNOR3105
012024011202ALOS3       010ALLOS       ON      NM   R$  000000000252900000000025590000000002500000000000254300000000025570000000002547000000000255816480000000000003662600000000009314633900000000000000009999123100000010000000000000BRALOSACNOR5100
012024011202ALPA3       010ALPARGATAS  ON      N1   R$  000000000097600000000009870000000000955000000000096700000000009760000000000956000000000097700011000000000000001300000000000001257500000000000000009999123100000010000000000000BRALPAACNOR0231
012024011202ALPA4       010ALPARGATAS  PN      N1   R$  000000000090900000000009280000000000891000000000090800000000009070000000000906000000000090708373000000000004240600000000003854230700000000000000009999123100000010000000000000BRALPAACNPR7232
012024011202BPAC11      010BTGP BANCO  UNT EJ  N2   R$  000000000374400000000038500000000003655000000000380500000000038340000000003832000000000383422848000000000009232800000000035135067700000000000000009999123100000010000000000000BRBPACUNT006118
012024011202BPAC3       010BTGP BANCO  ON  EJ  N2   R$  000000000177000000000018400000000001761000000000180300000000018000000000001822000000000183900052000000000000007600000000000013703700000000000000009999123100000010000000000000BRBPACACNOR7133
012024011202BPAC5       010BTGP BANCO  PNA EJ  N2   R$  000000000097400000000009970000000000938000000000098500000000009880000000000976000000000098800070000000000000012500000000000012323700000000000000009999123100000010000000000000BRBPACACNPA0133
012024011202CPFE3       010CPFL ENERGIAON      NM   R$  000000000382700000000038270000000003750000000000376700000000037500000000003750000000000377305046000000000001190400000000004484305600000000000000009999123100000010000000000000BRCPFEACNOR0136
012024011202EKTR4       010ELEKTRO     PN  EJ       R$  000000000381000000000038100000000003809000000000380900000000038100000000003812000000000389900003000000000000001000000000000003809500000000000000009999123100000010000000000000BREKTRACNPR7159
012024011202ELET3       010ELETROBRAS  ON      N1   R$  000000000430300000000043560000000004268000000000430100000000042930000000004291000000000430513385000000000003974800000000017095975200000000000000009999123100000010000000000000BRELETACNOR6159
012024011202ELET6       010ELETROBRAS  PNB     N1   R$  000000000484000000000048600000000004775000000000481600000000048230000000004820000000000482506797000000000001378800000000006641577100000000000000009999123100000010000000000000BRELETACNPB7076
012024011202HBRE3       010HBR REALTY  ON      NM   R$  000000000053400000000005410000000000522000000000052800000000005300000000000528000000000053000623000000000000422200000000000223333900000000000000009999123100000010000000000000BRHBREACNOR4100
012024011202HBSA3       010HIDROVIAS   ON      NM   R$  000000000038200000000003930000000000379000000000038400000000003850000000000383000000000038503520000000000002841500000000001093882800000000000000009999123100000010000000000000BRHBSAACNOR0100
012024011202HBTS5       010HABITASUL   PNA          R$  000000000500000000000050000000000005000000000000500000000000050000000000004800000000000500000001000000000000000100000000000000500000000000000000009999123100000010000000000000BRHBTSACNPA3127
012024011202GRND3       010GRENDENE    ON      NM   R$  000000000069700000000007150000000000696000000000070700000000007080000000000703000000000070802944000000000000953100000000000674564600000000000000009999123100000010000000000000BRGRNDACNOR3172
012024011202GUAR3       010GUARARAPES  ON      NM   R$  000000000059200000000006170000000000590000000000060300000000005940000000000594000000000059803242000000000001486000000000000896589700000000000000009999123100000010000000000000BRGUARACNOR4172
012024011202YDUQ3       010YDUQS PART  ON      NM   R$  000000000207000000000021190000000002014000000000208900000000021000000000002100000000000210413329000000000003639100000000007602269500000000000000009999123100000010000000000000BRYDUQACNOR3104
012024011202ZAMP3       010ZAMP S.A.   ON           R$  000000000054600000000005810000000000546000000000056900000000005780000000000577000000000058003252000000000001176300000000000670313500000000000000009999123100000010000000000000BRZAMPACNOR5100
012024011202KLBN11      010KLABIN S/A  UNT     N2   R$  000000000223800000000022750000000002232000000000224700000000022470000000002246000000000224808821000000000003509600000000007887980100000000000000009999123100000010000000000000BRKLBNCDAM18139
012024011202KLBN3       010KLABIN S/A  ON      N2   R$  000000000044400000000004540000000000444000000000044800000000004490000000000446000000000044900702000000000000391000000000000175534900000000000000009999123100000010000000000000BRKLBNACNOR2167
012024011202KLBN4       010KLABIN S/A  PN      N2   R$  000000000044500000000004540000000000445000000000044900000000004500000000000449000000000045002326000000000002039300000000000917304600000000000000009999123100000010000000000000BRKLBNACNPR9167
012024011202MRVE3       010MRV         ON      NM   R$  000000000085000000000008630000000000782000000000081800000000007820000000000782000000000078463428000000000084710500000000069294757700000000000000009999123100000010000000000000BRMRVEACNOR2126
012024011202CLSA3       010CLEARSALE   ON      NM   R$  000000000037400000000003910000000000373000000000038300000000003730000000000373000000000037801652000000000001363200000000000522231500000000000000009999123100000010000000000000BRCLSAACNOR0100
012024011202CLSC3       010CELESC      ON      N2   R$  000000000700000000000070000000000006900000000000697500000000069000000000006310000000000689900003000000000000000400000000000002790000000000000000009999123100000010000000000000BRCLSCACNOR6149
012024011202CLSC4       010CELESC      PN      N2   R$  000000000668400000000067010000000006681000000000668700000000066850000000006685000000000669900012000000000000001300000000000008693800000000000000009999123100000010000000000000BRCLSCACNPR3128
012024011202CMIG3       010CEMIG       ON      N1   R$  000000000156000000000015760000000001524000000000154700000000015240000000001524000000000153703781000000000000683600000000001057663600000000000000009999123100000010000000000000BRCMIGACNOR6239
012024011202AALR3       010ALLIAR      ON      NM   R$  000000000089900000000009160000000000884000000000089500000000008980000000000884000000000089800430000000000000053500000000000047914700000000000000009999123100000010000000000000BRAALRACNOR6102
012024011202JSLG3       010JSL         ON      NM   R$  000000000127200000000013000000000001262000000000128100000000012780000000001268000000000127800696000000000000159700000000000204722800000000000000009999123100000010000000000000BRJSLGACNOR2121
012024011202KEPL3       010KEPLER WEBERON      NM   R$  000000000100800000000010230000000001003000000000101100000000010150000000001014000000000101503030000000000000720900000000000729386700000000000000009999123100000010000000000000BRKEPLACNOR1061
012024011202MDNE3       010MOURA DUBEUXON      NM   R$  000000000118100000000011980000000001140000000000117900000000011900000000001182000000000119001265000000000000366800000000000432633700000000000000009999123100000010000000000000BRMDNEACNOR9100
012024011202MEAL3       010IMC S/A     ON      NM   R$  000000000018800000000001930000000000186000000000019000000000001910000000000190000000000019100893000000000000825400000000000157312800000000000000009999123100000010000000000000BRMEALACNOR9105
012024011202MELK3       010MELNICK     ON      NM   R$  000000000046300000000004630000000000440000000000044700000000004440000000000444000000000044900930000000000000408100000000000182792600000000000000009999123100000010000000000000BRMELKACNOR8110
012024011202MERC4       010MERC FINANC PN           R$  000000000080100000000008480000000000801000000000083500000000008480000000000780000000000100000004000000000000000400000000000000334300000000000000009999123100000010000000000000BRMERCACNPR9179
012024011202MGEL4       010MANGELS INDLPN           R$  000000000142400000000014600000000001375000000000141000000000014600000000001372000000000147700016000000000000005100000000000007196000000000000000009999123100000010000000000000BRMGELACNPR3147
012024011202MGLU3       010MAGAZ LUIZA ON  ATZ NM   R$  000000000021800000000002350000000000218000000000022800000000002260000000000226000000000022729838000000000230574000000000052700362500000000000000009999123100000010000000000000BRMGLUACNOR2122
012024011202NGRD3       010NEOGRID     ON      NM   R$  000000000012300000000001280000000000122000000000012500000000001240000000000124000000000012500530000000000000997600000000000125311700000000000000009999123100000010000000000000BRNGRDACNOR3103
012024011202NINJ3       010GETNINJAS   ON      NM   R$  000000000049300000000004950000000000493000000000049300000000004940000000000493000000000049400035000000000000007700000000000003799500000000000000009999123100000010000000000000BRNINJACNOR5100
012024011202NORD3       010NORDON MET  ON           R$  000000000148700000000015090000000000949000000000107000000000009490000000000949000000000099600185000000000000023600000000000025270700000000000000009999123100000010000000000000BRNORDACNOR7135
012024011202NTCO3       010GRUPO NATURAON      NM   R$  000000000166400000000017140000000001661000000000169000000000016910000000001691000000000169613362000000000006314200000000010673834900000000000000009999123100000010000000000000BRNTCOACNOR5104
012024011202ODPV3       010ODONTOPREV  ON      NM   R$  000000000119500000000012080000000001187000000000119900000000012000000000001195000000000120106848000000000004958900000000005949575800000000000000009999123100000010000000000000BRODPVACNOR4198
012024011202OFSA3       010OUROFINO S/AON      NM   R$  000000000256000000000025600000000002550000000000255000000000025500000000002483000000000258900029000000000000004200000000000010713000000000000000009999123100000010000000000000BROFSAACNOR7117
012024011202ONCO3       010ONCOCLINICASON      NM   R$  000000000120500000000012190000000001168000000000120000000000012150000000001208000000000121504883000000000001486800000000001785619300000000000000009999123100000010000000000000BRONCOACNOR6100
012024011202OPCT3       010OCEANPACT   ON      NM   R$  000000000059800000000006040000000000586000000000059400000000005940000000000594000000000059501288000000000000425400000000000252916500000000000000009999123100000010000000000000BROPCTACNOR0100
012024011202ORVR3       010ORIZON      ON      NM   R$  000000000366600000000037050000000003632000000000366400000000036690000000003669000000000367801232000000000000715200000000002620924100000000000000009999123100000010000000000000BRORVRACNOR0101
012024011202ALPK3       010ESTAPAR     ON      NM   R$  000000000047900000000004800000000000471000000000047500000000004790000000000476000000000047900229000000000000088500000000000042099000000000000000009999123100000010000000000000BRALPKACNOR9101
012024011202ALUP11      010ALUPAR      UNT     N2   R$  000000000303800000000030530000000003010000000000303000000000030390000000003035000000000304001938000000000000337900000000001023989600000000000000009999123100000010000000000000BRALUPCDAM15117
012024011202ALUP3       010ALUPAR      ON      N2   R$  000000000102100000000010210000000001003000000000100800000000010050000000001004000000000101000034000000000000004200000000000004233900000000000000009999123100000010000000000000BRALUPACNOR8117
012024011202ALUP4       010ALUPAR      PN      N2   R$  000000000101000000000010180000000001003000000000101000000000010100000000001007000000000101000079000000000000013700000000000013842400000000000000009999123100000010000000000000BRALUPACNPR5117
012024011202AMAR3       010LOJAS MARISAON      NM   R$  000000000029400000000003070000000000292000000000029900000000002950000000000294000000000029501009000000000000618400000000000185169600000000000000009999123100000010000000000000BRAMARACNOR4114
012024011202AMBP3       010AMBIPAR     ON      NM   R$  000000000153100000000015630000000001488000000000151200000000014980000000001498000000000149904881000000000001162300000000001758354600000000000000009999123100000010000000000000BRAMBPACNOR6103
012024011202ANIM3       010ANIMA       ON      NM   R$  000000000044700000000004700000000000441000000000045900000000004600000000000460000000000046413238000000000009196600000000004226603300000000000000009999123100000010000000000000BRANIMACNOR6107
012024011202APER3       010ALPER S.A.  ON           R$  000000000438400000000043890000000004348000000000436800000000043890000000004366000000000439000054000000000000006900000000000030139400000000000000009999123100000010000000000000BRAPERACNOR9106
012024011202ARML3       010ARMAC       ON      NM   R$  000000000156800000000016320000000001564000000000158900000000015750000000001575000000000157903907000000000000616300000000000979340700000000000000009999123100000010000000000000BRARMLACNOR1110
012024011202ARZZ3       010AREZZO CO   ON      NM   R$  000000000632800000000065770000000006317000000000644800000000063250000000006325000000000634008572000000000001699900000000010961201400000000000000009999123100000010000000000000BRARZZACNOR3146
012024011202ASAI3       010ASSAI       ON      NM   R$  000000000140900000000014580000000001398000000000142300000000014250000000001420000000000142529701000000000017148700000000024414535100000000000000009999123100000010000000000000BRASAIACNOR0106
012024011202BBSE3       010BBSEGURIDADEON      NM   R$  000000000332800000000033650000000003321000000000333400000000033340000000003331000000000333410830000000000003381800000000011275904100000000000000009999123100000010000000000000BRBBSEACNOR5123
012024011202BPAN4       010BANCO PAN   PN      N1   R$  000000000081500000000008400000000000810000000000082400000000008280000000000824000000000082803534000000000001876400000000001547134700000000000000009999123100000010000000000000BRBPANACNPR1115
012024011202BRAP3       010BRADESPAR   ON      N1   R$  000000000219000000000022070000000002181000000000218800000000021810000000002181000000000218900225000000000000037200000000000081421100000000000000009999123100000010000000000000BRBRAPACNOR5147
012024011202BRAP4       010BRADESPAR   PN      N1   R$  000000000240500000000024170000000002386000000000239500000000023960000000002392000000000239605743000000000001920200000000004600456700000000000000009999123100000010000000000000BRBRAPACNPR2147
012024011202CPLE3       010COPEL       ON      N2   R$  000000000091500000000009200000000000904000000000091000000000009150000000000914000000000091613742000000000010507100000000009570171900000000000000009999123100000010000000000000BRCPLEACNOR8148
012024011202CPLE6       010COPEL       PNB     N2   R$  000000000101400000000010200000000001005000000000101200000000010120000000001012000000000101315402000000000012987300000000013152072000000000000000009999123100000010000000000000BRCPLEACNPB9145
012024011202CRFB3       010CARREFOUR BRON      NM   R$  000000000121400000000012500000000001200000000000122200000000012250000000001224000000000122721762000000000018879400000000023085287100000000000000009999123100000010000000000000BRCRFBACNOR2116
012024011202CRIV4       010ALFA FINANC PN  EJ       R$  000000000056100000000005730000000000561000000000057100000000005720000000000565000000000057100004000000000000002000000000000001142600000000000000009999123100000010000000000000BRCRIVACNPR1211
012024011202CRPG5       010CRISTAL     PNA          R$  000000000369900000000036990000000003605000000000365800000000036830000000003572000000000368500005000000000000000900000000000003292600000000000000009999123100000010000000000000BRCRPGACNPA3118
012024011202CRPG6       010CRISTAL     PNB          R$  000000000369900000000036990000000003699000000000369900000000036990000000003602000000000367900001000000000000000100000000000000369900000000000000009999123100000010000000000000BRCRPGACNPB1118
012024011202SBSP3       010SABESP      ON      NM   R$  000000000766000000000077570000000007563000000000771000000000077040000000007703000000000771007555000000000001843000000000014210693500000000000000009999123100000010000000000000BRSBSPACNOR5160
012024011202VALE3       010VALE        ON      NM   R$  000000000722000000000072700000000007164000000000720100000000071690000000007169000000000717137444000000000016343400000000117691680900000000000000009999123100000010000000000000BRVALEACNOR0209
012024011202EALT3       010ACO ALTONA  ON           R$  000000000099000000000009900000000000990000000000099000000000009900000000000925000000000100000001000000000000000100000000000000099000000000000000009999123100000010000000000000BREALTACNOR4137
012024011202EALT4       010ACO ALTONA  PN           R$  000000000098300000000010740000000000983000000000100800000000010240000000001024000000000102500047000000000000018000000000000018151600000000000000009999123100000010000000000000BREALTACNPR1137
012024011202ECOR3       010ECORODOVIAS ON      NM   R$  000000000091800000000009450000000000912000000000093000000000009320000000000928000000000093205213000000000002199600000000002047622400000000000000009999123100000010000000000000BRECORACNOR8119
012024011202EGIE3       010ENGIE BRASILON      NM   R$  000000000438200000000043990000000004306000000000433800000000043110000000004311000000000432806804000000000001434100000000006221678800000000000000009999123100000010000000000000BREGIEACNOR9125
012024011202GGPS3       010GPS         ON      NM   R$  000000000184000000000018430000000001796000000000183000000000018430000000001842000000000184311842000000000002235800000000004091880300000000000000009999123100000010000000000000BRGGPSACNOR9102
012024011202GMAT3       010GRUPO MATEUSON      NM   R$  000000000070100000000007190000000000697000000000070800000000007050000000000703000000000070507998000000000003843800000000002721637300000000000000009999123100000010000000000000BRGMATACNOR7100
012024011202CMIG4       010CEMIG       PN      N1   R$  000000000120700000000012270000000001204000000000121100000000012100000000001210000000000121119559000000000009230600000000011182836600000000000000009999123100000010000000000000BRCMIGACNPR3240
012024011202DXCO3       010DEXCO       ON      NM   R$  000000000078000000000008100000000000780000000000080000000000007980000000000796000000000079810992000000000003340400000000002674368700000000000000009999123100000010000000000000BRDXCOACNOR8104
012024011202HAGA3       010HAGA S/A    ON           R$  000000000025800000000002580000000000249000000000025600000000002510000000000251000000000025600005000000000000001300000000000000333800000000000000009999123100000010000000000000BRHAGAACNOR7103
012024011202HAGA4       010HAGA S/A    PN           R$  000000000011200000000001130000000000111000000000011200000000001120000000000111000000000011200033000000000000010000000000000001122200000000000000009999123100000010000000000000BRHAGAACNPR4103
012024011202HAPV3       010HAPVIDA     ON      NM   R$  000000000043500000000004550000000000435000000000044800000000004530000000000452000000000045335038000000000069213200000000031027464200000000000000009999123100000010000000000000BRHAPVACNOR4113
012024011202HBOR3       010HELBOR      ON      NM   R$  000000000028900000000003010000000000284000000000029100000000002850000000000285000000000028901042000000000000955100000000000278873000000000000000009999123100000010000000000000BRHBORACNOR3117
012024011202JHSF3       010JHSF PART   ON      NM   R$  000000000050300000000005200000000000501000000000051200000000005140000000000511000000000051503230000000000001620200000000000830505100000000000000009999123100000010000000000000BRJHSFACNOR2131
012024011202ABCB4       010ABC BRASIL  PN      N2   R$  000000000236000000000023680000000002308000000000234100000000023680000000002351000000000236802546000000000000456100000000001068066200000000000000009999123100000010000000000000BRABCBACNPR4145
012024011202ABEV3       010AMBEV S/A   ON           R$  000000000135200000000013720000000001344000000000135400000000013590000000001358000000000135923056000000000020300600000000027499369400000000000000009999123100000010000000000000BRABEVACNOR1127
012024011202BBDC3       010BRADESCO    ON  EJ  N1   R$  000000000144000000000014410000000001423000000000142900000000014300000000001427000000000143011772000000000006260700000000008950048700000000000000009999123100000010000000000000BRBBDCACNOR1765
012024011202BBDC4       010BRADESCO    PN  EJ  N1   R$  000000000159000000000016020000000001571000000000158400000000015810000000001580000000000158147159000000000039595400000000062746919800000000000000009999123100000010000000000000BRBBDCACNPR8765
012024011202CMIN3       010CSNMINERACAOON      N2   R$  000000000071600000000007220000000000699000000000071400000000007170000000000716000000000072209727000000000011809400000000008432150800000000000000009999123100000010000000000000BRCMINACNOR2110
012024011202COCE5       010COELCE      PNA          R$  000000000404500000000040990000000004041000000000406800000000040900000000004047000000000409000057000000000000008700000000000035399900000000000000009999123100000010000000000000BRCOCEACNPA3146
012024011202COGN3       010COGNA ON    ON      NM   R$  000000000033000000000003390000000000326000000000033200000000003320000000000332000000000033308936000000000012547300000000004173622100000000000000009999123100000010000000000000BRCOGNACNOR2104
012024011202BSLI4       010BRB BANCO   PN           R$  000000000120300000000012030000000001190000000000119800000000011900000000001190000000000121000006000000000000000700000000000000839100000000000000009999123100000010000000000000BRBSLIACNPR2192
012024011202CAMB3       010CAMBUCI     ON           R$  000000000110000000000011500000000001071000000000111600000000011320000000001129000000000113500382000000000000075900000000000084738600000000000000009999123100000010000000000000BRCAMBACNOR4127
012024011202CAML3       010CAMIL       ON      NM   R$  000000000079300000000008700000000000789000000000084400000000008700000000000863000000000087005422000000000002876700000000002428962200000000000000009999123100000010000000000000BRCAMLACNOR3126
012024011202CASH3       010MELIUZ      ON      NM   R$  000000000075700000000007780000000000744000000000076000000000007470000000000746000000000074703591000000000002375400000000001806543200000000000000009999123100000010000000000000BRCASHACNOR8105
012024011202CBAV3       010CBA         ON      NM   R$  000000000047400000000004820000000000462000000000047000000000004640000000000464000000000046505347000000000003052500000000001436970800000000000000009999123100000010000000000000BRCBAVACNOR5104
012024011202CXSE3       010CAIXA SEGURION      NM   R$  000000000132000000000013450000000001300000000000132400000000013260000000001326000000000132707327000000000003181200000000004212700200000000000000009999123100000010000000000000BRCXSEACNOR7105
012024011202RAIL3       010RUMO S.A.   ON      NM   R$  000000000230600000000023850000000002306000000000236000000000023470000000002346000000000235412334000000000009382800000000022144486000000000000000009999123100000010000000000000BRRAILACNOR9104
012024011202SRNA3       010SERENA      ON      NM   R$  000000000099200000000010190000000000969000000000098600000000009830000000000982000000000098302536000000000000563400000000000555513100000000000000009999123100000010000000000000BRSRNAACNOR4100
012024011202STBP3       010SANTOS BRP  ON      NM   R$  000000000096100000000009920000000000957000000000098100000000009820000000000981000000000098406503000000000002836500000000002782925900000000000000009999123100000010000000000000BRSTBPACNOR3128
012024011202SUZB3       010SUZANO S.A. ON      NM   R$  000000000544800000000055230000000005349000000000539200000000053580000000005358000000000536712671000000000003194900000000017229217900000000000000009999123100000010000000000000BRSUZBACNOR0129
012024011202VAMO3       010VAMOS       ON      NM   R$  000000000094600000000009820000000000946000000000095500000000009500000000000950000000000095511815000000000004898500000000004679144100000000000000009999123100000010000000000000BRVAMOACNOR7105
012024011202PRNR3       010PRINER      ON      NM   R$  000000000117000000000011730000000001133000000000114500000000011450000000001144000000000115000553000000000000128500000000000147194300000000000000009999123100000010000000000000BRPRNRACNOR4108
012024011202PSSA3       010PORTO SEGUROON      NM   R$  000000000278100000000028020000000002728000000000274400000000027500000000002750000000000275608865000000000002704300000000007421921700000000000000009999123100000010000000000000BRPSSAACNOR7153
012024011202SMFT3       010SMART FIT   ON      NM   R$  000000000253000000000025950000000002477000000000255000000000025450000000002540000000000254707618000000000001779100000000004538344700000000000000009999123100000010000000000000BRSMFTACNOR1111
012024011202SMTO3       010SAO MARTINHOON      NM   R$  000000000267900000000027400000000002638000000000267200000000026920000000002682000000000269306658000000000002214400000000005918583400000000000000009999123100000010000000000000BRSMTOACNOR3125
012024011202ROMI3       010ROMI        ON      NM   R$  000000000130600000000013330000000001305000000000131700000000013190000000001313000000000131901049000000000000209400000000000275922200000000000000009999123100000010000000000000BRROMIACNOR8192
012024011202TOTS3       010TOTVS       ON      NM   R$  000000000322500000000032960000000003202000000000326100000000032750000000003254000000000327607791000000000002009100000000006551676600000000000000009999123100000010000000000000BRTOTSACNOR8144
012024011202TPIS3       010TRIUNFO PARTON      NM   R$  000000000040200000000004100000000000398000000000040600000000004080000000000403000000000040800098000000000000025800000000000010493100000000000000009999123100000010000000000000BRTPISACNOR8118
012024011202TRAD3       010TC          ON      NM   R$  000000000008000000000000820000000000079000000000008000000000000820000000000080000000000008200194000000000000624500000000000050302400000000000000009999123100000010000000000000BRTRADACNOR3101
012024011202TRIS3       010TRISUL      ON      NM   R$  000000000052900000000005330000000000518000000000052400000000005200000000000520000000000052401552000000000000435800000000000228578800000000000000009999123100000010000000000000BRTRISACNOR4116
012024011202TRPL3       010TRAN PAULISTON      N1   R$  000000000372800000000037770000000003679000000000373300000000037210000000003603000000000377600014000000000000001500000000000005600100000000000000009999123100000010000000000000BRTRPLACNOR4185
012024011202TRPL4       010TRAN PAULISTPN      N1   R$  000000000269400000000027070000000002675000000000268700000000026800000000002679000000000268005648000000000001160300000000003118605500000000000000009999123100000010000000000000BRTRPLACNPR1185
012024011202VLID3       010VALID       ON      NM   R$  000000000203900000000020390000000001973000000000201600000000020350000000002020000000000203601812000000000000374800000000000755962600000000000000009999123100000010000000000000BRVLIDACNOR5141
012024011202RRRP3       0103R PETROLEUMON      NM   R$  000000000291500000000029380000000002832000000000288000000000028710000000002871000000000287513174000000000005067700000000014595909100000000000000009999123100000010000000000000BRRRRPACNOR5102
012024011202TTEN3       0103TENTOS     ON      NM   R$  000000000107600000000010970000000001068000000000108700000000010970000000001089000000000109703851000000000000688200000000000748521800000000000000009999123100000010000000000000BRTTENACNOR0102
012024011202TUPY3       010TUPY        ON      NM   R$  000000000265000000000026870000000002639000000000265700000000026510000000002650000000000266702827000000000000530200000000001408782000000000000000009999123100000010000000000000BRTUPYACNOR1182
012024011202UCAS3       010UNICASA     ON      NM   R$  000000000026700000000002670000000000264000000000026500000000002650000000000265000000000026700053000000000000014000000000000003718200000000000000009999123100000010000000000000BRUCASACNOR1113
012024011202UGPA3       010ULTRAPAR    ON      NM   R$  000000000271500000000027980000000002703000000000277700000000027910000000002789000000000279113371000000000007635000000000021204599800000000000000009999123100000010000000000000BRUGPAACNOR8154
012024011202UNIP3       010UNIPAR      ON           R$  000000000687700000000069450000000006800000000000680100000000068400000000006836000000000690000068000000000000228800000000001556230100000000000000009999123100000010000000000000BRUNIPACNOR7204
012024011202UNIP5       010UNIPAR      PNA          R$  000000000787900000000078790000000007790000000000781900000000077900000000007512000000000777900002000000000000000300000000000002345900000000000000009999123100000010000000000000BRUNIPACNPA0206
012024011202UNIP6       010UNIPAR      PNB          R$  000000000738500000000076280000000007375000000000747600000000073780000000007377000000000738301018000000000000142500000000001065402800000000000000009999123100000010000000000000BRUNIPACNPB8204
012024011202VSTE3       010VESTE       ON      NM   R$  000000000189100000000019850000000001891000000000191200000000019000000000001900000000000194500100000000000000024600000000000047052500000000000000009999123100000010000000000000BRVSTEACNOR5101
012024011202VULC3       010VULCABRAS   ON      NM   R$  000000000196300000000020420000000001923000000000200600000000020030000000002003000000000201403566000000000000535400000000001074332400000000000000009999123100000010000000000000BRVULCACNOR2156
012024011202VVEO3       010VIVEO       ON      NM   R$  000000000128600000000013210000000001273000000000128600000000012730000000001273000000000128502496000000000000571600000000000735151900000000000000009999123100000010000000000000BRVVEOACNOR0103
012024011202USIM3       010USIMINAS    ON      N1   R$  000000000081500000000008220000000000805000000000081300000000008110000000000810000000000081602498000000000001002400000000000815460300000000000000009999123100000010000000000000BRUSIMACNOR3166
012024011202USIM5       010USIMINAS    PNA     N1   R$  000000000084700000000008580000000000843000000000085000000000008470000000000847000000000085209879000000000005225700000000004442933900000000000000009999123100000010000000000000BRUSIMACNPA6168
012024011202WEST3       010WESTWING    ON      NM   R$  000000000013700000000001370000000000133000000000013400000000001330000000000133000000000013600022000000000000020200000000000002717400000000000000009999123100000010000000000000BRWESTACNOR3100
012024011202WHRL3       010WHIRLPOOL   ON           R$  000000000042700000000004300000000000420000000000042300000000004280000000000423000000000042700009000000000000001800000000000000761600000000000000009999123100000010000000000000BRWHRLACNOR5128
012024011202WHRL4       010WHIRLPOOL   PN           R$  000000000044400000000004500000000000444000000000044600000000004450000000000445000000000044900019000000000000005000000000000002234000000000000000009999123100000010000000000000BRWHRLACNPR2128
012024011202WIZC3       010WIZ CO      ON      NM   R$  000000000063500000000006620000000000635000000000065200000000006570000000000652000000000065701573000000000000378200000000000246947600000000000000009999123100000010000000000000BRWIZCACNOR5101
012024011202WLMM4       010WLM IND COM PN           R$  000000000286700000000028670000000002800000000000281100000000028000000000002602000000000280000003000000000000000600000000000001686700000000000000009999123100000010000000000000BRWLMMACNPR3116
012024011202OSXB3       010OSX BRASIL  ON      NM   R$  000000000043000000000004490000000000425000000000043700000000004300000000000430000000000043800025000000000000006300000000000002756600000000000000009999123100000010000000000000BROSXBACNOR8109
012024011202SNSY3       010SANSUY      ON           R$  000000000054000000000005400000000000495000000000051100000000005000000000000500000000000052900034000000000000004700000000000002402000000000000000009999123100000010000000000000BRSNSYACNOR2113
012024011202SNSY5       010SANSUY      PNA          R$  000000000036600000000003670000000000350000000000035300000000003530000000000353000000000036000047000000000000015100000000000005336200000000000000009999123100000010000000000000BRSNSYACNPA5111
012024011202SOJA3       010BOA SAFRA   ON      NM   R$  000000000157200000000015970000000001550000000000158000000000015780000000001578000000000158000734000000000000181300000000000286481900000000000000009999123100000010000000000000BRSOJAACNOR9105
012024011202SOMA3       010GRUPO SOMA  ON      NM   R$  000000000080000000000008160000000000776000000000079500000000007840000000000783000000000078711612000000000012179800000000009694572000000000000000009999123100000010000000000000BRSOMAACNOR3102
012024011202PFRM3       010PROFARMA    ON      NM   R$  000000000049700000000004970000000000474000000000048600000000004900000000000485000000000049000739000000000000221800000000000108006800000000000000009999123100000010000000000000BRPFRMACNOR1116
012024011202PGMN3       010PAGUE MENOS ON      NM   R$  000000000036500000000003690000000000361000000000036400000000003640000000000362000000000036401742000000000001089300000000000397163500000000000000009999123100000010000000000000BRPGMNACNOR8102
012024011202PINE4       010PINE        PN  EJ  N2   R$  000000000042300000000004300000000000419000000000042300000000004270000000000425000000000042700786000000000000361700000000000153300000000000000000009999123100000010000000000000BRPINEACNPR8148
012024011202PLAS3       010PLASCAR PARTON           R$  000000000072100000000007210000000000721000000000072100000000007210000000000685000000000073000002000000000000000200000000000000144200000000000000009999123100000010000000000000BRPLASACNOR2106
012024011202PLPL3       010PLANOEPLANO ON      NM   R$  000000000109300000000011370000000001081000000000111900000000011200000000001120000000000112802281000000000000682300000000000763807300000000000000009999123100000010000000000000BRPLPLACNOR5103
012024011202PNVL3       010DIMED       ON      NM   R$  000000000128400000000013190000000001284000000000129900000000012950000000001295000000000130202913000000000000401600000000000521858900000000000000009999123100000010000000000000BRPNVLACNOR9205
012024011202POMO3       010MARCOPOLO   ON      N2   R$  000000000057000000000005730000000000560000000000056600000000005610000000000561000000000056500697000000000000449600000000000254521600000000000000009999123100000010000000000000BRPOMOACNOR0095
012024011202POMO4       010MARCOPOLO   PN      N2   R$  000000000074100000000007410000000000717000000000072500000000007240000000000724000000000072607482000000000004376100000000003176189800000000000000009999123100000010000000000000BRPOMOACNPR7095
012024011202PORT3       010WILSON SONS ON      NM   R$  000000000168600000000017300000000001672000000000170600000000017290000000001721000000000172900740000000000000139400000000000237922000000000000000009999123100000010000000000000BRPORTACNOR8105
012024011202POSI3       010POSITIVO TECON      NM   R$  000000000067000000000006950000000000664000000000068300000000006760000000000676000000000067702537000000000001388800000000000948556200000000000000009999123100000010000000000000BRPOSIACNOR9115
012024011202PRIO3       010PETRORIO    ON      NM   R$  000000000467200000000046850000000004594000000000463900000000046080000000004607000000000461022585000000000009859300000000045740594300000000000000009999123100000010000000000000BRPRIOACNOR1106
012024011202SCAR3       010SAO CARLOS  ON      NM   R$  000000000261500000000026890000000002615000000000266900000000026800000000002674000000000268000007000000000000000700000000000001868700000000000000009999123100000010000000000000BRSCARACNOR7130
012024011202SEER3       010SER EDUCA   ON      NM   R$  000000000070400000000007170000000000687000000000070400000000007020000000000702000000000070401823000000000000823400000000000580344800000000000000009999123100000010000000000000BRSEERACNOR5119
012024011202SEQL3       010SEQUOIA LOG ON      NM   R$  000000000006000000000000620000000000058000000000006000000000000600000000000059000000000006002836000000000010607300000000000636551800000000000000009999123100000010000000000000BRSEQLACNOR2101
012024011202SGPS3       010SPRINGS     ON      NM   R$  000000000012100000000001240000000000119000000000012100000000001220000000000121000000000012200233000000000000312200000000000037920700000000000000009999123100000010000000000000BRSGPSACNOR4104
012024011202SHOW3       010TIME FOR FUNON      NM   R$  000000000020600000000002100000000000204000000000020600000000002090000000000207000000000020900249000000000000171300000000000035352700000000000000009999123100000010000000000000BRSHOWACNOR7105
012024011202SHUL4       010SCHULZ      PN           R$  000000000066500000000006900000000000660000000000068000000000006870000000000681000000000068702103000000000000418100000000000284659100000000000000009999123100000010000000000000BRSHULACNPR4154
012024011202SIMH3       010SIMPAR      ON      NM   R$  000000000089900000000009230000000000896000000000090600000000009040000000000902000000000090404922000000000002128400000000001929434400000000000000009999123100000010000000000000BRSIMHACNOR0107
012024011202SLCE3       010SLC AGRICOLAON      NM   R$  000000000177400000000018050000000001756000000000177100000000017670000000001764000000000176707338000000000002190900000000003881933100000000000000009999123100000010000000000000BRSLCEACNOR2124
012024011202SANB3       010SANTANDER BRON           R$  000000000145200000000014570000000001425000000000144100000000014270000000001426000000000143201173000000000000232900000000000335624500000000000000009999123100000010000000000000BRSANBACNOR8169
012024011202SANB4       010SANTANDER BRPN           R$  000000000161100000000016220000000001595000000000160600000000016050000000001600000000000160500882000000000000162300000000000260737600000000000000009999123100000010000000000000BRSANBACNPR5169
012024011202SAPR11      010SANEPAR     UNT     N2   R$  000000000290000000000029050000000002843000000000288300000000029000000000002885000000000290003144000000000000577600000000001665769600000000000000009999123100000010000000000000BRSAPRCDAM13117
012024011202SAPR3       010SANEPAR     ON      N2   R$  000000000055700000000005570000000000545000000000055200000000005550000000000552000000000055600699000000000000209800000000000115857400000000000000009999123100000010000000000000BRSAPRACNOR9158
012024011202SAPR4       010SANEPAR     PN      N2   R$  000000000058200000000005840000000000572000000000057900000000005820000000000581000000000058302608000000000001650200000000000956084000000000000000009999123100000010000000000000BRSAPRACNPR6158
012024011202SBFG3       010GRUPO SBF   ON      NM   R$  000000000115900000000012200000000001159000000000118400000000011750000000001168000000000117504499000000000001299400000000001539188100000000000000009999123100000010000000000000BRSBFGACNOR1102
012024011202RANI3       010IRANI       ON      NM   R$  000000000105100000000010630000000001046000000000105400000000010570000000001053000000000105702393000000000000574700000000000605945300000000000000009999123100000010000000000000BRRANIACNOR5069
012024011202RAPT3       010RANDON PART ON      N1   R$  000000000119900000000012000000000001171000000000118100000000011790000000001173000000000118000098000000000000029800000000000035212700000000000000009999123100000010000000000000BRRAPTACNOR7162
012024011202RAPT4       010RANDON PART PN      N1   R$  000000000129300000000013050000000001260000000000127500000000012630000000001263000000000126504359000000000001506800000000001922297600000000000000009999123100000010000000000000BRRAPTACNPR4162
012024011202HYPE3       010HYPERA      ON      NM   R$  000000000347600000000035520000000003476000000000351600000000035150000000003513000000000351606942000000000002488800000000008751473700000000000000009999123100000010000000000000BRHYPEACNOR0136
012024011202RCSL3       010RECRUSUL    ON           R$  000000000030800000000003630000000000308000000000033900000000003400000000000340000000000034510763000000000010076800000000003422377800000000000000009999123100000010000000000000BRRCSLACNOR4133
012024011202RCSL4       010RECRUSUL    PN           R$  000000000008000000000000810000000000079000000000008000000000000800000000000080000000000008101601000000000002024800000000000162123900000000000000009999123100000010000000000000BRRCSLACNPR1133
012024011202RDNI3       010RNI         ON      NM   R$  000000000046000000000004600000000000458000000000045900000000004590000000000456000000000046000005000000000000000600000000000000275400000000000000009999123100000010000000000000BRRDNIACNOR9116
012024011202RDOR3       010REDE D OR   ON      NM   R$  000000000279900000000028990000000002799000000000285100000000028240000000002823000000000282408489000000000003646600000000010397404100000000000000009999123100000010000000000000BRRDORACNOR8111
012024011202RECV3       010PETRORECSA  ON      NM   R$  000000000206200000000021290000000002062000000000210200000000021000000000002100000000000210208754000000000002593000000000005451177100000000000000009999123100000010000000000000BRRECVACNOR3105
012024011202REDE3       010REDE ENERGIAON           R$  000000000070500000000007250000000000698000000000070400000000007060000000000703000000000070700026000000000000006500000000000004579800000000000000009999123100000010000000000000BRREDEACNOR7126
012024011202RENT3       010LOCALIZA    ON      NM   R$  000000000606700000000062260000000006011000000000610800000000061000000000006098000000000610820581000000000005675400000000034667820500000000000000009999123100000010000000000000BRRENTACNOR4194
012024011202TASA3       010TAURUS ARMASON      N2   R$  000000000151000000000015300000000001500000000000151600000000015160000000001500000000000151600092000000000000016000000000000024267500000000000000009999123100000010000000000000BRTASAACNOR7103
012024011202TASA4       010TAURUS ARMASPN      N2   R$  000000000150900000000015340000000001504000000000152000000000015080000000001507000000000150901255000000000000245800000000000373837800000000000000009999123100000010000000000000BRTASAACNPR4103
012024011202TCSA3       010TECNISA     ON      NM   R$  000000000035600000000003590000000000349000000000035200000000003500000000000350000000000035400184000000000000048800000000000017215700000000000000009999123100000010000000000000BRTCSAACNOR3112
012024011202TECN3       010TECHNOS     ON      NM   R$  000000000036500000000003670000000000360000000000036300000000003670000000000361000000000036700104000000000000067700000000000024603600000000000000009999123100000010000000000000BRTECNACNOR6108
012024011202TELB3       010TELEBRAS    ON           R$  000000000156800000000015800000000001568000000000157400000000015800000000001542000000000159500002000000000000000200000000000000314800000000000000009999123100000010000000000000BRTELBACNOR2140
012024011202TELB4       010TELEBRAS    PN           R$  000000000120000000000012030000000001200000000000120100000000012030000000001190000000000120000003000000000000000500000000000000600900000000000000009999123100000010000000000000BRTELBACNPR9140
012024011202TEND3       010TENDA       ON      NM   R$  000000000102800000000010370000000000965000000000100600000000010120000000001009000000000101218794000000000008070500000000008123467200000000000000009999123100000010000000000000BRTENDACNOR4111
012024011202TFCO4       010TRACK FIELD PN      N2   R$  000000000142600000000014300000000001400000000000141700000000014180000000001418000000000141900135000000000000094900000000000134534400000000000000009999123100000010000000000000BRTFCOACNPR8111
012024011202TGMA3       010TEGMA       ON      NM   R$  000000000264000000000026790000000002617000000000265600000000026740000000002674000000000267501113000000000000185500000000000492705800000000000000009999123100000010000000000000BRTGMAACNOR7143
012024011202TIMS3       010TIM         ON      NM   R$  000000000169600000000017310000000001675000000000171100000000017220000000001721000000000172610383000000000011038200000000018895065800000000000000009999123100000010000000000000BRTIMSACNOR5114
012024011202GOAU3       010GERDAU MET  ON      N1   R$  000000000103700000000010530000000001032000000000104000000000010320000000001032000000000103600423000000000000073300000000000076253500000000000000009999123100000010000000000000BRGOAUACNOR1265
012024011202GOAU4       010GERDAU MET  PN      N1   R$  000000000099900000000010080000000000993000000000099700000000009950000000000995000000000099617354000000000009785600000000009762156700000000000000009999123100000010000000000000BRGOAUACNPR8266
012024011202GOLL4       010GOL         PN      N2   R$  000000000078700000000008060000000000757000000000078200000000007600000000000760000000000076209009000000000009802900000000007666678300000000000000009999123100000010000000000000BRGOLLACNPR4128
012024011202JALL3       010JALLESMACHADON      NM   R$  000000000076000000000007780000000000755000000000076300000000007650000000000762000000000076601949000000000000562800000000000429923200000000000000009999123100000010000000000000BRJALLACNOR0105
012024011202JBSS3       010JBS         ON      NM   R$  000000000241400000000024780000000002408000000000245300000000024710000000002471000000000247311080000000000006487000000000015914833000000000000000009999123100000010000000000000BRJBSSACNOR8121
012024011202MILS3       010MILLS       ON      NM   R$  000000000130200000000013210000000001278000000000130600000000013100000000001309000000000131103285000000000001259100000000001645496200000000000000009999123100000010000000000000BRMILSACNOR2124
012024011202MLAS3       010MULTILASER  ON      NM   R$  000000000019500000000002060000000000195000000000020000000000002000000000000199000000000020002561000000000002918500000000000585739400000000000000009999123100000010000000000000BRMLASACNOR9101
012024011202MNDL3       010MUNDIAL     ON           R$  000000000475000000000047500000000004750000000000475000000000047500000000004655000000000499900001000000000000000100000000000000475000000000000000009999123100000010000000000000BRMNDLACNOR4107
012024011202MOVI3       010MOVIDA      ON      NM   R$  000000000107200000000010770000000001030000000000104600000000010470000000001043000000000104716395000000000006060700000000006343989900000000000000009999123100000010000000000000BRMOVIACNOR0122
012024011202MRFG3       010MARFRIG     ON      NM   R$  000000000093000000000009600000000000923000000000094200000000009560000000000955000000000095609856000000000006768400000000006377965900000000000000009999123100000010000000000000BRMRFGACNOR0116
012024011202BLAU3       010BLAU        ON      NM   R$  000000000155000000000016300000000001527000000000156800000000015310000000001531000000000154101440000000000000317900000000000498543900000000000000009999123100000010000000000000BRBLAUACNOR8111
012024011202BMEB3       010MERCANTIL   ON      N1   R$  000000000210000000000021000000000002100000000000210000000000021000000000001810000000000210000001000000000000000100000000000000210000000000000000009999123100000010000000000000BRBMEBACNOR8205
012024011202BMEB4       010MERCANTIL   PN      N1   R$  000000000180100000000018540000000001796000000000182800000000018310000000001810000000000183100061000000000000009500000000000017369200000000000000009999123100000010000000000000BRBMEBACNPR5210
012024011202BMGB4       010BANCO BMG   PN      N1   R$  000000000033500000000003350000000000329000000000033300000000003350000000000334000000000033504098000000000001251800000000000417434800000000000000009999123100000010000000000000BRBMGBACNPR0108
012024011202BMOB3       010BEMOBI TECH ON      NM   R$  000000000130500000000013580000000001305000000000134000000000013310000000001330000000000133401230000000000000229400000000000307431600000000000000009999123100000010000000000000BRBMOBACNOR7103
012024011202BNBR3       010NORD BRASIL ON           R$  000000001195100000000119510000000011950000000001195000000000119500000000011950000000001220000002000000000000000200000000000002390100000000000000009999123100000010000000000000BRBNBRACNOR8206
012024011202BOBR4       010BOMBRIL     PN           R$  000000000022000000000002240000000000215000000000022000000000002190000000000218000000000022100041000000000000014200000000000003134800000000000000009999123100000010000000000000BRBOBRACNPR3128
012024011202CBEE3       010AMPLA ENERG ON           R$  000000000130000000000013000000000001300000000000130000000000013000000000001301000000000158400001000000000000000100000000000000130000000000000000009999123100000010000000000000BRCBEEACNOR3159
012024011202SYNE3       010SYN PROP TECON      NM   R$  000000000045400000000004550000000000444000000000044700000000004480000000000448000000000044900733000000000000306600000000000137353800000000000000009999123100000010000000000000BRSYNEACNOR2102
012024011202TAEE11      010TAESA       UNT ED  N2   R$  000000000373300000000037700000000003725000000000375000000000037580000000003755000000000375804963000000000001019700000000003824787500000000000000009999123100000010000000000000BRTAEECDAM10145
012024011202TAEE3       010TAESA       ON  ED  N2   R$  000000000123700000000012490000000001236000000000124200000000012450000000001242000000000124500466000000000000077200000000000095935300000000000000009999123100000010000000000000BRTAEEACNOR9145
012024011202TAEE4       010TAESA       PN  ED  N2   R$  000000000124100000000012580000000001241000000000125200000000012540000000001252000000000125700566000000000000139900000000000175254400000000000000009999123100000010000000000000BRTAEEACNPR6145
012024011202VBBR3       010VIBRA       ON      NM   R$  000000000225000000000023120000000002234000000000229000000000023080000000002304000000000230815465000000000006236200000000014286247000000000000000009999123100000010000000000000BRVBBRACNOR1106
012024011202KRSA3       010KORA SAUDE  ON      NM   R$  000000000012000000000001250000000000120000000000012300000000001210000000000121000000000012200082000000000000078800000000000009714100000000000000009999123100000010000000000000BRKRSAACNOR0100
012024011202FRAS3       010FRAS-LE     ON      N1   R$  000000000157300000000016280000000001566000000000160300000000016140000000001613000000000161401336000000000000250000000000000400775100000000000000009999123100000010000000000000BRFRASACNOR0158
012024011202ITSA3       010ITAUSA      ON      N1   R$  000000000101100000000010190000000001003000000000101300000000010150000000001015000000000101700381000000000000117400000000000118985100000000000000009999123100000010000000000000BRITSAACNOR0436
012024011202ITSA4       010ITAUSA      PN      N1   R$  000000000100800000000010180000000001000000000000101200000000010150000000001015000000000101616074000000000013867400000000014037333700000000000000009999123100000010000000000000BRITSAACNPR7436
012024011202LAND3       010TERRASANTAPAON      NM   R$  000000000162900000000016630000000001611000000000162900000000016190000000001619000000000162500164000000000000031900000000000051987400000000000000009999123100000010000000000000BRLANDACNOR9102
012024011202LAVV3       010LAVVI       ON      NM   R$  000000000083400000000008430000000000812000000000083400000000008370000000000836000000000083902490000000000000629200000000000525108300000000000000009999123100000010000000000000BRLAVVACNOR4110
012024011202LEVE3       010METAL LEVE  ON      NM   R$  000000000371000000000037520000000003626000000000370300000000036580000000003658000000000366505266000000000000856600000000003172556800000000000000009999123100000010000000000000BRLEVEACNOR2196
012024011202ATOM3       010ATOMPAR     ON           R$  000000000021300000000002150000000000213000000000021400000000002130000000000213000000000021500034000000000000005700000000000001220800000000000000009999123100000010000000000000BRATOMACNOR1106
012024011202AURE3       010AUREN       ON      NM   R$  000000000133500000000013390000000001324000000000132900000000013270000000001327000000000132909621000000000004041800000000005373710500000000000000009999123100000010000000000000BRAUREACNOR9103
012024011202AVLL3       010ALPHAVILLE  ON      NM   R$  000000000049800000000004980000000000496000000000049700000000004960000000000485000000000049500002000000000000000200000000000000099400000000000000009999123100000010000000000000BRAVLLACNOR5103
012024011202AZEV3       010AZEVEDO     ON           R$  000000000018900000000001950000000000184000000000018900000000001850000000000184000000000018500573000000000000570100000000000107822000000000000000009999123100000010000000000000BRAZEVACNOR0121
012024011202AZEV4       010AZEVEDO     PN           R$  000000000018200000000001900000000000177000000000018100000000001790000000000178000000000017901801000000000003345700000000000608196100000000000000009999123100000010000000000000BRAZEVACNPR7121
012024011202AZUL4       010AZUL        PN      N2   R$  000000000141300000000014580000000001386000000000141500000000013970000000001396000000000139714417000000000011307300000000016002644000000000000000009999123100000010000000000000BRAZULACNPR4102
012024011202BEEF3       010MINERVA     ON      NM   R$  000000000070000000000007210000000000699000000000070700000000007040000000000704000000000070512237000000000010618700000000007513888500000000000000009999123100000010000000000000BRBEEFACNOR6116
012024011202BRBI11      010BR PARTNERS UNT     N2   R$  000000000157100000000015820000000001540000000000156100000000015480000000001548000000000157600472000000000000107200000000000167367200000000000000009999123100000010000000000000BRBRBICDAM10107
012024011202BRFS3       010BRF SA      ON      NM   R$  000000000124600000000013020000000001242000000000127800000000012870000000001286000000000128715010000000000009557600000000012218532700000000000000009999123100000010000000000000BRBRFSACNOR8121
012024011202CSED3       010CRUZEIRO EDUON      NM   R$  000000000047900000000004860000000000473000000000048100000000004840000000000478000000000048401523000000000000420400000000000202427800000000000000009999123100000010000000000000BRCSEDACNOR9104
012024011202CSMG3       010COPASA      ON      NM   R$  000000000220600000000022390000000002165000000000221700000000022220000000002221000000000222504363000000000001128200000000002502335000000000000000009999123100000010000000000000BRCSMGACNOR5171
012024011202CSNA3       010SID NACIONALON           R$  000000000178100000000018060000000001757000000000178000000000017900000000001790000000000179109589000000000006256800000000011142506900000000000000009999123100000010000000000000BRCSNAACNOR6260
012024011202ENEV3       010ENEVA       ON      NM   R$  000000000127200000000013010000000001268000000000128000000000012750000000001275000000000127810368000000000003995100000000005114642600000000000000009999123100000010000000000000BRENEVACNOR8105
012024011202ENGI11      010ENERGISA    UNT     N2   R$  000000000534500000000054010000000005294000000000536400000000053500000000005346000000000535004766000000000003987900000000021393541600000000000000009999123100000010000000000000BRENGICDAM16135
012024011202ENGI3       010ENERGISA    ON      N2   R$  000000000186200000000018890000000001829000000000185600000000018730000000001850000000000187400042000000000000005900000000000010953800000000000000009999123100000010000000000000BRENGIACNOR0145
012024011202ENGI4       010ENERGISA    PN      N2   R$  000000000086800000000008870000000000865000000000087300000000008790000000000867000000000087900039000000000000013700000000000011970700000000000000009999123100000010000000000000BRENGIACNPR7141
012024011202ENJU3       010ENJOEI      ON      NM   R$  000000000018900000000001940000000000180000000000018700000000001800000000000180000000000018101296000000000000876400000000000164542900000000000000009999123100000010000000000000BRENJUACNOR9100
012024011202EPAR3       010EMBPAR S/A  ON           R$  000000000098300000000010050000000000983000000000099700000000010020000000000993000000000100500052000000000000012500000000000012467700000000000000009999123100000010000000000000BREPARACNOR9104
012024011202EQMA3B      010EQTLMARANHAOON      MB   R$  000000000298000000000029800000000002980000000000298000000000029800000000002908000000000298000001000000000000001200000000000003576000000000000000009999123100000010000000000000BREQMAACNOR8107
012024011202EQPA3       010EQTL PARA   ON           R$  000000000078400000000007850000000000775000000000077700000000007760000000000777000000000078300013000000000000005300000000000004119600000000000000009999123100000010000000000000BREQPAACNOR1109
012024011202EQTL3       010EQUATORIAL  ON      NM   R$  000000000348500000000035240000000003463000000000349400000000034870000000003487000000000348808834000000000003960100000000013838673200000000000000009999123100000010000000000000BREQTLACNOR0129
012024011202ESPA3       010ESPACOLASER ON      NM   R$  000000000010900000000001130000000000107000000000010900000000001090000000000109000000000011001342000000000002216300000000000243432100000000000000009999123100000010000000000000BRESPAACNOR7103
012024011202ESTR4       010ESTRELA     PN           R$  000000000052400000000005240000000000447000000000046400000000004550000000000455000000000050000024000000000000007900000000000003668400000000000000009999123100000010000000000000BRESTRACNPR0144
012024011202EUCA3       010EUCATEX     ON      N1   R$  000000000179900000000017990000000001796000000000179800000000017990000000001771000000000179900005000000000000001000000000000001798400000000000000009999123100000010000000000000BREUCAACNOR1157
012024011202EUCA4       010EUCATEX     PN      N1   R$  000000000179000000000017980000000001720000000000175900000000017560000000001750000000000175600597000000000000097000000000000170718800000000000000009999123100000010000000000000BREUCAACNPR8044
012024011202IFCM3       010INFRACOMM   ON      NM   R$  000000000016500000000001800000000000165000000000017400000000001730000000000171000000000017305411000000000013919500000000002435498900000000000000009999123100000010000000000000BRIFCMACNOR8101
012024011202IGTI11      010IGUATEMI S.AUNT     N1   R$  000000000243400000000024820000000002420000000000245100000000024590000000002448000000000246016192000000000002845000000000006973193200000000000000009999123100000010000000000000BRIGTICDAM16104
012024011202IGTI3       010IGUATEMI S.AON      N1   R$  000000000030100000000003050000000000297000000000030100000000002980000000000298000000000030000105000000000000044200000000000013328000000000000000009999123100000010000000000000BRIGTIACNOR8104
012024011202IGTI4       010IGUATEMI S.APN      N1   R$  000000000106700000000010670000000001067000000000106700000000010670000000001001000000000109300001000000000000000200000000000000213400000000000000009999123100000010000000000000BRIGTIACNPR5104
012024011202INEP3       010INEPAR      ON           R$  000000000040300000000004150000000000396000000000040400000000004030000000000398000000000040400173000000000000067500000000000027293400000000000000009999123100000010000000000000BRINEPACNOR1143
012024011202INEP4       010INEPAR      PN           R$  000000000030700000000003200000000000307000000000031100000000003190000000000315000000000031900118000000000000094100000000000029329800000000000000009999123100000010000000000000BRINEPACNPR8143
012024011202INTB3       010INTELBRAS   ON      NM   R$  000000000199000000000020810000000001978000000000203400000000020010000000001994000000000200105763000000000001653200000000003362865000000000000000009999123100000010000000000000BRINTBACNOR9109
012024011202IRBR3       010IRBBRASIL REON      NM   R$  000000000407700000000041350000000004024000000000406800000000040330000000004033000000000403504200000000000001079000000000004389706700000000000000009999123100000010000000000000BRIRBRACNOR4110
012024011202MAPT3       010CEMEPE      ON           R$  000000000380000000000038000000000003750000000000377500000000037500000000000000000000000000000002000000000000000200000000000000755000000000000000009999123100000010000000000000BRMAPTACNOR8106
012024011202MAPT4       010CEMEPE      PN           R$  000000000490000000000049000000000003345000000000400900000000033450000000002000000000000300000025000000000000003100000000000012430500000000000000009999123100000010000000000000BRMAPTACNPR5106
012024011202MATD3       010MATER DEI   ON      NM   R$  000000000078000000000008000000000000779000000000078700000000007850000000000783000000000078502067000000000000323900000000000255006600000000000000009999123100000010000000000000BRMATDACNOR4103
012024011202MBLY3       010MOBLY       ON      NM   R$  000000000019700000000002010000000000194000000000019800000000002000000000000198000000000020000462000000000000455200000000000090441700000000000000009999123100000010000000000000BRMBLYACNOR5100
012024011202MDIA3       010M.DIASBRANCOON      NM   R$  000000000372400000000037550000000003675000000000371000000000037300000000003706000000000373102814000000000000637100000000002364022600000000000000009999123100000010000000000000BRMDIAACNOR7133
012024011207NUTR3       010NUTRIPLANT  ON      MA   R$  000000000089000000000008900000000000600000000000069800000000006350000000000632000000000065500355000000000000067600000000000047247200000000000000009999123100000010000000000000BRNUTRACNOR0104
012024011207TXRX4       010TEX RENAUX  PN           R$  000000000028900000000002960000000000267000000000028300000000002670000000000267000000000028500020000000000000004000000000000001133400000000000000009999123100000010000000000000BRTXRXACNPR0142
012024011208LIGT3       010LIGHT S/A   ON      NM   R$  000000000065800000000006700000000000614000000000063800000000006400000000000640000000000064107507000000000002026200000000001294391900000000000000009999123100000010000000000000BRLIGTACNOR2124
012024011208RSID3       010ROSSI RESID ON      NM   R$  000000000035800000000003790000000000351000000000036100000000003610000000000361000000000037500182000000000000071200000000000025715900000000000000009999123100000010000000000000BRRSIDACNOR8120
012024011208NEXP3       010NEXPE       ON      NM   R$  000000000050200000000005110000000000501000000000050400000000005040000000000503000000000050900006000000000000000900000000000000454000000000000000009999123100000010000000000000BRNEXPACNOR0101
012024011208OIBR3       010OI          ON      N1   R$  000000000006400000000000650000000000063000000000006300000000000640000000000063000000000006400462000000000002682300000000000171471300000000000000009999123100000010000000000000BROIBRACNOR1110
012024011208OIBR4       010OI          PN      N1   R$  000000000015900000000001610000000000159000000000015900000000001600000000000158000000000016100045000000000000011400000000000001817100000000000000009999123100000010000000000000BROIBRACNPR8109
012024011208AMER3       010AMERICANAS  ON      NM   R$  000000000007900000000000830000000000077000000000008000000000000820000000000081000000000008204270000000000023933500000000001923419700000000000000009999123100000010000000000000BRAMERACNOR6101
012024011208JFEN3       010JOAO FORTES ON           R$  000000000020400000000002130000000000203000000000020600000000002030000000000203000000000020700094000000000000042700000000000008806600000000000000009999123100000010000000000000BRJFENACNOR0058
012024011208RNEW11      010RENOVA      UNT     N2   R$  000000000043900000000004470000000000429000000000043500000000004440000000000425000000000044500125000000000000017900000000000007801900000000000000009999123100000010000000000000BRRNEWCDAM15110
012024011208RNEW3       010RENOVA      ON      N2   R$  000000000014500000000001490000000000144000000000014700000000001480000000000145000000000014800302000000000000155000000000000022800900000000000000009999123100000010000000000000BRRNEWACNOR8110
012024011208RNEW4       010RENOVA      PN      N2   R$  000000000014900000000001500000000000145000000000014700000000001480000000000146000000000014800335000000000000199800000000000029458500000000000000009999123100000010000000000000BRRNEWACNPR5110
012024011208RPMG3       010PET MANGUINHON           R$  000000000020800000000002110000000000205000000000020600000000002110000000000207000000000021100030000000000000008300000000000001714000000000000000009999123100000010000000000000BRRPMGACNOR9194
012024011208PMAM3       010PARANAPANEMAON      NM   R$  000000000042000000000004220000000000416000000000041700000000004200000000000418000000000042400063000000000000014100000000000005893200000000000000009999123100000010000000000000BRPMAMACNOR3038
012024011208HOOT4       010HOTEIS OTHONPN           R$  000000000027500000000002820000000000273000000000027500000000002730000000000275000000000028000009000000000000003500000000000000963500000000000000009999123100000010000000000000BRHOOTACNPR9015
012024011208FRTA3       010POMIFRUTAS  ON      NM   R$  000000000017800000000001840000000000170000000000017600000000001710000000000171000000000017500114000000000000028500000000000005028200000000000000009999123100000010000000000000BRFRTAACNOR8103
012024011208ATMP3       010ATMASA      ON           R$  000000000030400000000003180000000000298000000000030700000000003180000000000306000000000031800047000000000000010700000000000003287300000000000000009999123100000010000000000000BRATMPACNOR8100
012024011208ETER3       010ETERNIT     ON      NM   R$  000000000079500000000008190000000000795000000000080700000000008010000000000801000000000080500702000000000000191100000000000154238100000000000000009999123100000010000000000000BRETERACNOR3242
012024011210LJQQ1       010QUERO-QUERO DIR ORD NM   R$  000000000016100000000001860000000000151000000000017200000000001690000000000163000000000016800092000000000000019800000000000003405900000000000000009999123100000010000000000000BRLJQQD01OR0103
012024011210ABCB2       010ABC BRASIL  DIR PRE N2   R$  000000000042100000000004610000000000416000000000043200000000004610000000000461000000000055000259000000000000042300000000000018306000000000000000009999123100000010000000000000BRABCBD18PR3144
012024011210CBAV9       010CBA         ON  REC NM   R$  000000000046900000000004720000000000453000000000046100000000004570000000000454000000000046800106000000000000015100000000000006972800000000000000009999123100000010000000000000BRCBAVR01OR0103
012024011210PMAM1       010PARANAPANEMADIR ORD NM   R$  000000000000100000000000010000000000001000000000000100000000000010000000000000000000000000100025000000000000226100000000000000226100000000000000009999123100000010000000000000BRPMAMD03OR4037
012024011210RENT1       010LOCALIZA    DIR ORD NM   R$  000000000170000000000017700000000001636000000000172500000000016870000000001679000000000168800060000000000000017200000000000029683300000000000000009999123100000010000000000000BRRENTD05OR0193
012024011210AVLL1       010ALPHAVILLE  DIR ORD NM   R$  000000000000100000000000010000000000001000000000000100000000000010000000000000000000000000100053000000000000230700000000000000230700000000000000009999123100000010000000000000BRAVLLD02OR8102
012024011212BROF11      010FII BROF    CI           R$  000000000564100000000056650000000005607000000000564400000000056070000000005607000000000564001065000000000000004609000000000026014073000000000000009999123100000010000000000000BRBROFCTF000108
012024011212BRIM11      010FII BRIO II CI           R$  000000010140000000001014000000000101400000000010140000000001014000000000085000000000010600000002000000000000000005000000000000507000000000000000009999123100000010000000000000BRBRIMCTF008125
012024011212CTXT11      010FII C TEXTILCI           R$  000000000115600000000011600000000001150000000000115700000000011580000000001150000000000115900005000000000000000016000000000000018517000000000000009999123100000010000000000000BRCTXTCTF014206
012024011212NAVT11      010FII NAVI TOTCI           R$  000000000939800000000094100000000009361000000000940100000000094100000000009410000000000944500551000000000000005931000000000055758638000000000000009999123100000010000000000000BRNAVTCTF015133
012024011212NCHB11      010FII NCH BR  CI  ER       R$  000000000822000000000082900000000008190000000000821700000000082810000000008267000000000828200349000000000000001942000000000015958517000000000000009999123100000010000000000000BRNCHBCTF000224
012024011212NCRI11      010FII NAVI CRICI  ER       R$  000000000091500000000009330000000000904000000000091600000000009310000000000904000000000093100021000000000000000070000000000000064145000000000000009999123100000010000000000000BRNCRICTF004113
012024011212NEWL11      010FII NEWPORT CI           R$  000000001186700000000118780000000011721000000001182900000000117400000000011739000000001182900075000000000000000506000000000005985797000000000000009999123100000010000000000000BRNEWLCTF004149
012024011212LIFE11      010FII LIFE    CI           R$  000000000100000000000010120000000000999000000000100000000000010010000000001001000000000100501793000000000000011474000000000011476785000000000000009999123100000010000000000000BRLIFECTF017124
012024011212RVBI11      010FII VBI REITCI  ER       R$  000000000836000000000084000000000008269000000000833300000000083040000000008304000000000840000223000000000000003261000000000027174785000000000000009999123100000010000000000000BRRVBICTF009147
012024011212RZAK11      010FII RIZA AKNCI           R$  000000000914300000000091880000000009109000000000914800000000091210000000009121000000000914303435000000000000041312000000000377930329000000000000009999123100000010000000000000BRRZAKCTF008138
012024011212RZAT11      010FII ARCTIUM CI           R$  000000000964900000000097410000000009586000000000965100000000095980000000009598000000000961101344000000000000007779000000000075078030000000000000009999123100000010000000000000BRRZATCTF009111
012024011212RZTR11      010FII RIZA TX CI  ERS      R$  000000001026200000000103300000000010250000000001029600000000102840000000010284000000001029506097000000000000020393000000000209978826000000000000009999123100000010000000000000BRRZTRCTF003143
012024011212SADI11      010FII SANT PAPCI           R$  000000000893100000000089310000000008901000000000891500000000089180000000008911000000000891800138000000000000001371000000000012223342000000000000009999123100000010000000000000BRSADICTF007154
012024011212XPCM11      010FII XP MACAECI           R$  000000000101500000000010300000000001009000000000101900000000010100000000001010000000000101700175000000000000004148000000000004228953000000000000009999123100000010000000000000BRXPCMCTF009230
012024011212XPIN11      010FII XP INDL CI           R$  000000000803400000000080910000000008033000000000805700000000080500000000008040000000000805000746000000000000006201000000000049965866000000000000009999123100000010000000000000BRXPINCTF004168
012024011212XPLG11      010FII XP LOG  CI           R$  000000001099200000000110390000000010974000000001100000000000109740000000010974000000001098008979000000000000039156000000000430724403000000000000009999123100000010000000000000BRXPLGCTF002172
012024011212LUGG11      010FII LUGGO   CI           R$  000000000830000000000083000000000008240000000000826400000000083000000000008270000000000830000098000000000000000626000000000005173872000000000000009999123100000010000000000000BRLUGGCTF007150
012024011212LVBI11      010FII VBI LOG CI           R$  000000001184000000000119490000000011780000000001188800000000118500000000011823000000001185009206000000000000037773000000000449077402000000000000009999123100000010000000000000BRLVBICTF002163
012024011212PATC11      010FII PATRIA  CI           R$  000000000385300000000039000000000003852000000000388700000000038900000000003887000000000389000192000000000000002442000000000009494301000000000000009999123100000010000000000000BRPATCCTF002166
012024011212PATL11      010FII PATR LOGCI           R$  000000000675800000000068780000000006758000000000681300000000068500000000006845000000000685000827000000000000006131000000000041772526000000000000009999123100000010000000000000BRPATLCTF003141
012024011212PVBI11      010FII VBI PRI CI           R$  000000001036700000000104730000000010367000000001043200000000104000000000010400000000001045410476000000000000035718000000000372627381000000000000009999123100000010000000000000BRPVBICTF003145
012024011212QAGR11      010FII QUASAR ACI  ER       R$  000000000493100000000049520000000004895000000000491700000000049370000000004925000000000493700234000000000000002161000000000010626854000000000000009999123100000010000000000000BRQAGRCTF005150
012024011212VIUR11      010FII VINCI IUCI           R$  000000000078300000000007860000000000779000000000078100000000007860000000000783000000000078602286000000000000041366000000000032340608000000000000009999123100000010000000000000BRVIURCTF009132
012024011212CEOC11      010FII CEO CCP CI  ER       R$  000000000480900000000048160000000004720000000000473000000000047870000000004720000000000478000052000000000000000983000000000004650017000000000000009999123100000010000000000000BRCEOCCTF003210
012024011212CXTL11      010FII CX TRX  CI           R$  000000002574400000000257440000000025743000000002574300000000257430000000025740000000002574400002000000000000000002000000000000051487000000000000009999123100000010000000000000BRCXTLCTF003232
012024011212CYCR11      010FII CYRELA  CI           R$  000000000094700000000009580000000000947000000000095100000000009530000000000952000000000095301639000000000000019062000000000018141661000000000000009999123100000010000000000000BRCYCRCTF004133
012024011212DAMT11B     010FII DIAMANTECI      MB   R$  000000000127500000000013500000000001230000000000131800000000012300000000001211000000000125000010000000000000000085000000000000112052000000000000009999123100000010000000000000BRDAMTCTF007116
012024011212DEVA11      010FII DEVANT  CI  ER       R$  000000000417000000000041980000000004135000000000415300000000041500000000004150000000000415902904000000000000024200000000000100508713000000000000009999123100000010000000000000BRDEVACTF000144
012024011212BARI11      010FII BARIGUI CI           R$  000000000841500000000084150000000008370000000000839600000000083900000000008387000000000839000733000000000000005067000000000042546666000000000000009999123100000010000000000000BRBARICTF003157
012024011212BICR11      010FII INTER   CI           R$  000000000687100000000082000000000006871000000000752900000000079040000000007565000000000816900020000000000000000057000000000000429153000000000000009999123100000010000000000000BRBICRCTF009148
012024011212BIME11      010FII BRIO ME CI  ER       R$  000000000073200000000007360000000000729000000000073200000000007320000000000732000000000073400442000000000000005399000000000003953587000000000000009999123100000010000000000000BRBIMECTF006127
012024011212CVBI11      010FII VBI CRI CI  ER       R$  000000000925000000000094000000000009201000000000930700000000093260000000009326000000000934506314000000000000020207000000000188078206000000000000009999123100000010000000000000BRCVBICTF001161
