00COTAHIST.2024BOVESPA 20240318                                                                                                                                                                                                                      
012024031802PETZ3       010PETZ        ON      NM   R$  000000000043700000000004500000000000433000000000044000000000004390000000000438000000000043908531000000000009339700000000004114191300000000000000009999123100000010000000000000BRPETZACNOR2109
012024031802PFRM3       010PROFARMA    ON      NM   R$  000000000051900000000005540000000000509000000000052200000000005420000000000541000000000054200411000000000000273600000000000142927800000000000000009999123100000010000000000000BRPFRMACNOR1116
012024031802PGMN3       010PAGUE MENOS ON      NM   R$  000000000028000000000002820000000000273000000000027600000000002740000000000274000000000027500933000000000000841500000000000232521300000000000000009999123100000010000000000000BRPGMNACNOR8103
012024031802PINE3       010PINE        ON      N2   R$  000000000063900000000007890000000000582000000000063100000000007890000000000585000000000088900045000000000000007900000000000004991700000000000000009999123100000010000000000000BRPINEACNOR1148
012024031802ARZZ3       010AREZZO CO   ON      NM   R$  000000000600200000000060540000000005938000000000597800000000059380000000005937000000000594406459000000000001274100000000007617333700000000000000009999123100000010000000000000BRARZZACNOR3146
012024031802BPAC11      010BTGP BANCO  UNT     N2   R$  000000000366000000000036650000000003562000000000359700000000035950000000003589000000000359514467000000000005821100000000020942231100000000000000009999123100000010000000000000BRBPACUNT006118
012024031802BPAC3       010BTGP BANCO  ON      N2   R$  000000000175100000000017800000000001750000000000175900000000017500000000001751000000000176200038000000000000004900000000000008622200000000000000009999123100000010000000000000BRBPACACNOR7133
012024031802BPAC5       010BTGP BANCO  PNA     N2   R$  000000000094600000000009520000000000902000000000091200000000009060000000000906000000000090900053000000000000009900000000000009035800000000000000009999123100000010000000000000BRBPACACNPA0133
012024031802GRND3       010GRENDENE    ON      NM   R$  000000000064500000000006450000000000635000000000064000000000006400000000000640000000000064503251000000000000973300000000000623610900000000000000009999123100000010000000000000BRGRNDACNOR3172
012024031802GUAR3       010GUARARAPES  ON      NM   R$  000000000071500000000007510000000000715000000000073700000000007510000000000750000000000075206841000000000003040600000000002242462700000000000000009999123100000010000000000000BRGUARACNOR4172
012024031802CRFB3       010CARREFOUR BRON      NM   R$  000000000124300000000012650000000001227000000000124800000000012640000000001260000000000126410857000000000006500000000000008117493800000000000000009999123100000010000000000000BRCRFBACNOR2116
012024031802CRIV3       010ALFA FINANC ON           R$  000000000069700000000006970000000000697000000000069700000000006970000000000697000000000069900001000000000000000100000000000000069700000000000000009999123100000010000000000000BRCRIVACNOR4195
012024031802CRIV4       010ALFA FINANC PN           R$  000000000067200000000006720000000000670000000000067100000000006720000000000672000000000070000036000000000000519000000000000348767400000000000000009999123100000010000000000000BRCRIVACNPR1211
012024031802CRPG5       010CRISTAL     PNA          R$  000000000348200000000034960000000003440000000000345600000000034580000000003440000000000346000021000000000000002400000000000008295300000000000000009999123100000010000000000000BRCRPGACNPA3118
012024031802CRPG6       010CRISTAL     PNB          R$  000000000350100000000035780000000003501000000000353900000000035780000000003451000000000357900002000000000000000200000000000000707900000000000000009999123100000010000000000000BRCRPGACNPB1118
012024031802CSAN3       010COSAN       ON      NM   R$  000000000164500000000016540000000001626000000000163400000000016360000000001634000000000163712996000000000015466800000000025283685200000000000000009999123100000010000000000000BRCSANACNOR6124
012024031802ENEV3       010ENEVA       ON      NM   R$  000000000128500000000012900000000001252000000000126500000000012650000000001265000000000126614652000000000016562300000000020961844500000000000000009999123100000010000000000000BRENEVACNOR8105
012024031802ENGI11      010ENERGISA    UNT     N2   R$  000000000480000000000048190000000004741000000000478000000000047600000000004760000000000478012798000000000002989900000000014293359400000000000000009999123100000010000000000000BRENGICDAM16135
012024031802ENGI3       010ENERGISA    ON      N2   R$  000000000153900000000015390000000001495000000000151600000000015230000000001496000000000152400030000000000000003400000000000005154500000000000000009999123100000010000000000000BRENGIACNOR0145
012024031802HAGA3       010HAGA S/A    ON           R$  000000000027600000000002760000000000274000000000027400000000002740000000000263000000000028300003000000000000002100000000000000577400000000000000009999123100000010000000000000BRHAGAACNOR7103
012024031802HAGA4       010HAGA S/A    PN           R$  000000000011900000000001200000000000117000000000011900000000001190000000000118000000000011900021000000000000018900000000000002249200000000000000009999123100000010000000000000BRHAGAACNPR4103
012024031802HAPV3       010HAPVIDA     ON      NM   R$  000000000038500000000003910000000000383000000000038600000000003860000000000385000000000038715903000000000021019800000000008131823600000000000000009999123100000010000000000000BRHAPVACNOR4113
012024031802HBOR3       010HELBOR      ON      NM   R$  000000000028100000000002820000000000274000000000027600000000002780000000000276000000000027800373000000000000255700000000000070775600000000000000009999123100000010000000000000BRHBORACNOR3117
012024031802HBRE3       010HBR REALTY  ON      NM   R$  000000000054300000000005450000000000521000000000052900000000005300000000000530000000000053101410000000000000969900000000000513148400000000000000009999123100000010000000000000BRHBREACNOR4100
012024031802HBSA3       010HIDROVIAS   ON      NM   R$  000000000035200000000003540000000000349000000000035000000000003520000000000351000000000035205675000000000002887700000000001012769700000000000000009999123100000010000000000000BRHBSAACNOR0100
012024031802HBTS5       010HABITASUL   PNA          R$  000000000350000000000035000000000003500000000000350000000000035000000000003420000000000380000004000000000000001000000000000003500000000000000000009999123100000010000000000000BRHBTSACNPA3127
012024031802ENGI4       010ENERGISA    PN      N2   R$  000000000081100000000008270000000000809000000000081400000000008110000000000811000000000082000051000000000000013100000000000010669400000000000000009999123100000010000000000000BRENGIACNPR7141
012024031802ENJU3       010ENJOEI      ON      NM   R$  000000000017000000000001730000000000162000000000016500000000001620000000000162000000000016300169000000000000412500000000000068066500000000000000009999123100000010000000000000BRENJUACNOR9100
012024031802EPAR3       010EMBPAR S/A  ON           R$  000000000085800000000008980000000000851000000000088600000000008980000000000876000000000089800021000000000000005700000000000005051700000000000000009999123100000010000000000000BREPARACNOR9104
012024031802EQMA3B      010EQTLMARANHAOON      MB   R$  000000000294900000000029490000000002949000000000294900000000029490000000002911000000000294900001000000000000000100000000000000294900000000000000009999123100000010000000000000BREQMAACNOR8107
012024031802EQPA3       010EQTL PARA   ON           R$  000000000081600000000008250000000000816000000000082400000000008250000000000821000000000082500022000000000000008500000000000007010400000000000000009999123100000010000000000000BREQPAACNOR1110
012024031802EQTL3       010EQUATORIAL  ON      NM   R$  000000000335400000000033650000000003316000000000333100000000033340000000003331000000000333410394000000000003882300000000012932746100000000000000009999123100000010000000000000BREQTLACNOR0129
012024031802INEP3       010INEPAR      ON           R$  000000000029300000000002960000000000281000000000028700000000002860000000000284000000000028600051000000000000022100000000000006343900000000000000009999123100000010000000000000BRINEPACNOR1143
012024031802INEP4       010INEPAR      PN           R$  000000000027300000000002780000000000264000000000026900000000002640000000000264000000000026800166000000000000034800000000000009381200000000000000009999123100000010000000000000BRINEPACNPR8143
012024031802INTB3       010INTELBRAS   ON      NM   R$  000000000212800000000021300000000002055000000000208400000000020930000000002086000000000209303497000000000000721500000000001504271700000000000000009999123100000010000000000000BRINTBACNOR9110
012024031802IRBR3       010IRBBRASIL REON      NM   R$  000000000393500000000039840000000003880000000000391800000000038820000000003882000000000388904100000000000001029500000000004034191100000000000000009999123100000010000000000000BRIRBRACNOR4111
012024031802ODPV3       010ODONTOPREV  ON      NM   R$  000000000127300000000012880000000001266000000000127300000000012750000000001268000000000127502597000000000001059100000000001349257700000000000000009999123100000010000000000000BRODPVACNOR4198
012024031802AERI3       010AERIS       ON      NM   R$  000000000005600000000000570000000000055000000000005600000000000560000000000055000000000005603686000000000002226100000000000124953400000000000000009999123100000010000000000000BRAERIACNOR4101
012024031802AESB3       010AES BRASIL  ON      NM   R$  000000000103000000000010560000000001023000000000103000000000010280000000001027000000000102903643000000000004215200000000004345098800000000000000009999123100000010000000000000BRAESBACNOR7105
012024031802AFLT3       010AFLUENTE T  ON           R$  000000000072000000000007200000000000715000000000071500000000007150000000000712000000000071500010000000000000002500000000000001788300000000000000009999123100000010000000000000BRAFLTACNOR1120
012024031802AGRO3       010BRASILAGRO  ON      NM   R$  000000000237400000000023910000000002330000000000236300000000023620000000002361000000000236501586000000000000275800000000000651765000000000000000009999123100000010000000000000BRAGROACNOR7114
012024031802AGXY3       010AGROGALAXY  ON      NM   R$  000000000016600000000001690000000000165000000000016700000000001660000000000166000000000016700237000000000000092600000000000015505400000000000000009999123100000010000000000000BRAGXYACNOR4102
012024031802RSUL4       010RIOSULENSE  PN           R$  000000000830000000000083650000000008100000000000823100000000083500000000007601000000000835000060000000000000008000000000000065855500000000000000009999123100000010000000000000BRRSULACNPR3113
012024031802EALT3       010ACO ALTONA  ON           R$  000000000100000000000010000000000000950000000000097600000000009500000000000955000000000104500003000000000000000300000000000000293000000000000000009999123100000010000000000000BREALTACNOR4137
012024031802EALT4       010ACO ALTONA  PN           R$  000000000109000000000011040000000001090000000000110000000000011030000000001066000000000110200005000000000000000900000000000000990700000000000000009999123100000010000000000000BREALTACNPR1137
012024031802ECOR3       010ECORODOVIAS ON      NM   R$  000000000089400000000008990000000000872000000000088800000000008940000000000889000000000089407091000000000003669600000000003259161800000000000000009999123100000010000000000000BRECORACNOR8119
012024031802SANB4       010SANTANDER BRPN           R$  000000000150100000000015270000000001501000000000151300000000015230000000001523000000000152600566000000000000103900000000000157250000000000000000009999123100000010000000000000BRSANBACNPR5170
012024031802UNIP3       010UNIPAR      ON           R$  000000000635000000000066020000000006338000000000637900000000063380000000006324000000000639900055000000000000007500000000000047847800000000000000009999123100000010000000000000BRUNIPACNOR7204
012024031802UNIP5       010UNIPAR      PNA          R$  000000000710000000000071010000000007100000000000710000000000071010000000007100000000000719800003000000000000000400000000000002840100000000000000009999123100000010000000000000BRUNIPACNPA0206
012024031802UNIP6       010UNIPAR      PNB          R$  000000000673000000000069580000000006730000000000686400000000068300000000006824000000000683001430000000000000242400000000001663866100000000000000009999123100000010000000000000BRUNIPACNPB8204
012024031802USIM3       010USIMINAS    ON      N1   R$  000000000093500000000009470000000000927000000000093600000000009360000000000936000000000094001660000000000000722800000000000677030900000000000000009999123100000010000000000000BRUSIMACNOR3166
012024031802USIM5       010USIMINAS    PNA     N1   R$  000000000097900000000010000000000000976000000000099100000000009930000000000991000000000099412120000000000019389000000000019218743900000000000000009999123100000010000000000000BRUSIMACNPA6168
012024031802WEST3       010WESTWING    ON      NM   R$  000000000011800000000001190000000000116000000000011700000000001180000000000116000000000011800080000000000000028600000000000003353100000000000000009999123100000010000000000000BRWESTACNOR3100
012024031802EGIE3       010ENGIE BRASILON      NM   R$  000000000404500000000040580000000004020000000000403900000000040400000000004031000000000404006275000000000001316900000000005319332000000000000000009999123100000010000000000000BREGIEACNOR9125
012024031802GGPS3       010GPS         ON      NM   R$  000000000186300000000018910000000001862000000000187300000000018710000000001871000000000187704500000000000001453000000000002722294800000000000000009999123100000010000000000000BRGGPSACNOR9102
012024031802GMAT3       010GRUPO MATEUSON      NM   R$  000000000080700000000008260000000000805000000000081900000000008210000000000820000000000082407109000000000007069600000000005792710100000000000000009999123100000010000000000000BRGMATACNOR7100
012024031802GOAU3       010GERDAU MET  ON      N1   R$  000000000100600000000010190000000001000000000000101000000000010100000000001009000000000101100148000000000000031400000000000031722300000000000000009999123100000010000000000000BRGOAUACNOR1266
012024031802GOAU4       010GERDAU MET  PN      N1   R$  000000000097900000000009900000000000970000000000098300000000009860000000000985000000000098606947000000000008888700000000008738192700000000000000009999123100000010000000000000BRGOAUACNPR8267
012024031802JHSF3       010JHSF PART   ON      NM   R$  000000000043100000000004330000000000424000000000042700000000004260000000000426000000000042804480000000000001631900000000000697166200000000000000009999123100000010000000000000BRJHSFACNOR2133
012024031802JSLG3       010JSL         ON      NM   R$  000000000118500000000012150000000001180000000000119800000000012140000000001201000000000121501385000000000000276000000000000330907300000000000000009999123100000010000000000000BRJSLGACNOR2121
012024031802KEPL3       010KEPLER WEBERON      NM   R$  000000000102500000000010310000000001018000000000102400000000010240000000001022000000000102503756000000000001279700000000001311030000000000000000009999123100000010000000000000BRKEPLACNOR1061
012024031802KLBN11      010KLABIN S/A  UNT     N2   R$  000000000233900000000023970000000002313000000000237700000000023860000000002381000000000238614895000000000012303500000000029251691700000000000000009999123100000010000000000000BRKLBNCDAM18140
012024031802KLBN3       010KLABIN S/A  ON      N2   R$  000000000046200000000004790000000000460000000000047100000000004780000000000475000000000047801160000000000000642200000000000302892700000000000000009999123100000010000000000000BRKLBNACNOR2168
012024031802KLBN4       010KLABIN S/A  PN      N2   R$  000000000046600000000004790000000000462000000000047300000000004790000000000479000000000048002277000000000002031100000000000961549100000000000000009999123100000010000000000000BRKLBNACNPR9168
012024031802MTRE3       010MITRE REALTYON      NM   R$  000000000048600000000005000000000000471000000000048400000000004750000000000474000000000047504919000000000003394800000000001643208200000000000000009999123100000010000000000000BRMTREACNOR6109
012024031802MTSA4       010METISA      PN           R$  000000000489700000000049500000000004870000000000491900000000048990000000004750000000000490000012000000000000001900000000000009347100000000000000009999123100000010000000000000BRMTSAACNPR9071
012024031802MULT3       010MULTIPLAN   ON      N2   R$  000000000260300000000026290000000002587000000000260400000000026110000000002611000000000261915102000000000004379200000000011407020200000000000000009999123100000010000000000000BRMULTACNOR5137
012024031802MWET4       010WETZEL S/A  PN           R$  000000000056000000000005600000000000560000000000056000000000005600000000000580000000000058800001000000000000000600000000000000336000000000000000009999123100000010000000000000BRMWETACNPR3118
012024031802MYPK3       010IOCHP-MAXIONON  ED  NM   R$  000000000140100000000014290000000001340000000000136900000000013590000000001352000000000135903290000000000001060900000000001452720200000000000000009999123100000010000000000000BRMYPKACNOR7154
012024031802SHUL4       010SCHULZ      PN           R$  000000000067200000000006800000000000657000000000066900000000006650000000000664000000000066503526000000000000790900000000000529311800000000000000009999123100000010000000000000BRSHULACNPR4154
012024031802SIMH3       010SIMPAR      ON      NM   R$  000000000077100000000007830000000000761000000000076400000000007620000000000761000000000076605386000000000003920400000000002999082200000000000000009999123100000010000000000000BRSIMHACNOR0107
012024031802BAHI3       010BAHEMA      ON      MA   R$  000000000066200000000008800000000000662000000000078300000000007730000000000773000000000083000151000000000000042800000000000033538200000000000000009999123100000010000000000000BRBAHIACNOR1074
012024031802BALM3       010BAUMER      ON           R$  000000000109000000000010900000000001090000000000109000000000010900000000000986000000000115000001000000000000000200000000000000218000000000000000009999123100000010000000000000BRBALMACNOR5055
012024031802BALM4       010BAUMER      PN           R$  000000000101900000000010500000000001019000000000103600000000010500000000000997000000000105000005000000000000001000000000000001036900000000000000009999123100000010000000000000BRBALMACNPR2056
012024031802BAUH4       010EXCELSIOR   PN           R$  000000000788000000000078800000000007880000000000788000000000078800000000000000000000000500000001000000000000000100000000000000788000000000000000009999123100000010000000000000BRBAUHACNPR3117
012024031802BAZA3       010AMAZONIA    ON           R$  000000000949900000000094990000000009400000000000944600000000094960000000009400000000000949700019000000000000002400000000000022670800000000000000009999123100000010000000000000BRBAZAACNOR0178
012024031802BBAS3       010BRASIL      ON  EJ  NM   R$  000000000573000000000057780000000005582000000000563200000000056030000000005602000000000560423830000000000011317800000000063745791200000000000000009999123100000010000000000000BRBBASACNOR3321
012024031802BRSR3       010BANRISUL    ON  EJ  N1   R$  000000000143700000000014380000000001400000000000142600000000014300000000001423000000000143000058000000000000018600000000000026533500000000000000009999123100000010000000000000BRBRSRACNOR3186
012024031802BRSR6       010BANRISUL    PNB EJ  N1   R$  000000000147300000000015090000000001473000000000148700000000015090000000001509000000000151003268000000000001167800000000001737543500000000000000009999123100000010000000000000BRBRSRACNPB4189
012024031802BSLI3       010BRB BANCO   ON           R$  000000000112400000000011240000000001123000000000112300000000011240000000001124000000000115200004000000000000000500000000000000561800000000000000009999123100000010000000000000BRBSLIACNOR5192
012024031802BSLI4       010BRB BANCO   PN           R$  000000000111900000000011190000000001119000000000111900000000011190000000001050000000000111700001000000000000000100000000000000111900000000000000009999123100000010000000000000BRBSLIACNPR2192
012024031802FESA3       010FERBASA     ON      N1   R$  000000000146000000000014870000000001442000000000145800000000014870000000001404000000000148000004000000000000000500000000000000729100000000000000009999123100000010000000000000BRFESAACNOR8187
012024031802FESA4       010FERBASA     PN      N1   R$  000000000085500000000008690000000000850000000000085800000000008500000000000850000000000085303179000000000000754000000000000647260700000000000000009999123100000010000000000000BRFESAACNPR5083
012024031802FHER3       010FER HERINGERON      NM   R$  000000000058000000000005810000000000571000000000057500000000005770000000000573000000000057800015000000000000002900000000000001668200000000000000009999123100000010000000000000BRFHERACNOR5103
012024031802FIQE3       010UNIFIQUE    ON      NM   R$  000000000041500000000004240000000000410000000000041700000000004200000000000416000000000042100590000000000000164900000000000068909000000000000000009999123100000010000000000000BRFIQEACNOR5106
012024031802ITSA3       010ITAUSA      ON      N1   R$  000000000106900000000010800000000001064000000000106800000000010720000000001068000000000107200284000000000000101000000000000107904900000000000000009999123100000010000000000000BRITSAACNOR0438
012024031802ITSA4       010ITAUSA      PN      N1   R$  000000000106800000000010780000000001061000000000106500000000010650000000001064000000000106623455000000000011613200000000012372115200000000000000009999123100000010000000000000BRITSAACNPR7438
012024031802ALPA4       010ALPARGATAS  PN      N1   R$  000000000095600000000009630000000000920000000000093500000000009260000000000926000000000092712680000000000007712200000000007216232600000000000000009999123100000010000000000000BRALPAACNPR7232
012024031802ALPK3       010ESTAPAR     ON      NM   R$  000000000046000000000004620000000000447000000000045400000000004580000000000450000000000045800352000000000000110600000000000050251000000000000000009999123100000010000000000000BRALPKACNOR9101
012024031802ALUP11      010ALUPAR      UNT     N2   R$  000000000305000000000030600000000003017000000000303200000000030400000000003029000000000304001966000000000000401400000000001217269800000000000000009999123100000010000000000000BRALUPCDAM15117
012024031802ALUP3       010ALUPAR      ON      N2   R$  000000000101600000000010340000000001013000000000102300000000010190000000001019000000000102700076000000000000012000000000000012276100000000000000009999123100000010000000000000BRALUPACNOR8117
012024031802ALUP4       010ALUPAR      PN      N2   R$  000000000100700000000010150000000000997000000000100400000000010140000000001002000000000101000075000000000000011500000000000011555800000000000000009999123100000010000000000000BRALUPACNPR5117
012024031802AMAR3       010LOJAS MARISAON      NM   R$  000000000022300000000002240000000000195000000000020700000000001990000000000199000000000020001691000000000002059000000000000427192100000000000000009999123100000010000000000000BRAMARACNOR4114
012024031802AMBP3       010AMBIPAR     ON      NM   R$  000000000155100000000015790000000001522000000000154500000000015330000000001530000000000153501702000000000000483600000000000747549000000000000000009999123100000010000000000000BRAMBPACNOR6103
012024031802ANIM3       010ANIMA       ON      NM   R$  000000000049700000000005120000000000489000000000049700000000004940000000000491000000000049509494000000000003760800000000001872347500000000000000009999123100000010000000000000BRANIMACNOR6107
012024031802APER3       010ALPER S.A.  ON           R$  000000000409900000000041500000000004099000000000411800000000041500000000004100000000000415900003000000000000000300000000000001235400000000000000009999123100000010000000000000BRAPERACNOR9106
012024031802ARML3       010ARMAC       ON      NM   R$  000000000130400000000013300000000001277000000000129900000000013020000000001298000000000130201365000000000000205100000000000266629400000000000000009999123100000010000000000000BRARMLACNOR1110
012024031802ALLD3       010ALLIED      ON      NM   R$  000000000071600000000007180000000000709000000000071300000000007150000000000710000000000071600037000000000000006400000000000004566200000000000000009999123100000010000000000000BRALLDACNOR3105
012024031802ALOS3       010ALLOS       ON      NM   R$  000000000246800000000024720000000002415000000000244300000000024490000000002445000000000244906271000000000002157000000000005271588400000000000000009999123100000010000000000000BRALOSACNOR5100
012024031802ALPA3       010ALPARGATAS  ON      N1   R$  000000000103000000000010300000000001030000000000103000000000010300000000001001000000000104900009000000000000002200000000000002266000000000000000009999123100000010000000000000BRALPAACNOR0231
012024031802BBDC4       010BRADESCO    PN      N1   R$  000000000142000000000014270000000001412000000000141800000000014200000000001419000000000142020823000000000015035500000000021334893400000000000000009999123100000010000000000000BRBBDCACNPR8767
012024031802CPFE3       010CPFL ENERGIAON      NM   R$  000000000334600000000033960000000003331000000000336900000000033640000000003363000000000336906351000000000001884300000000006349379800000000000000009999123100000010000000000000BRCPFEACNOR0136
012024031802CPLE3       010COPEL       ON      N2   R$  000000000089700000000008970000000000877000000000088400000000008810000000000878000000000088203729000000000002275700000000002011995100000000000000009999123100000010000000000000BRCPLEACNOR8148
012024031802CPLE5       010COPEL       PNA     N2   R$  000000000211600000000021160000000002004000000000203500000000020050000000002005000000000230000011000000000000001100000000000002238900000000000000009999123100000010000000000000BRCPLEACNPA1146
012024031802CPLE6       010COPEL       PNB     N2   R$  000000000098700000000009900000000000970000000000097600000000009750000000000975000000000097613797000000000030174900000000029452354900000000000000009999123100000010000000000000BRCPLEACNPB9145
012024031802TOTS3       010TOTVS       ON      NM   R$  000000000309800000000031020000000003000000000000303000000000030070000000003007000000000301010313000000000003003400000000009103075200000000000000009999123100000010000000000000BRTOTSACNOR8144
012024031802TPIS3       010TRIUNFO PARTON      NM   R$  000000000037800000000003820000000000376000000000038000000000003820000000000378000000000038300037000000000000026600000000000010109700000000000000009999123100000010000000000000BRTPISACNOR8118
012024031802TRAD3       010TC          ON      NM   R$  000000000008300000000000840000000000077000000000007900000000000770000000000077000000000007800261000000000000629100000000000050042700000000000000009999123100000010000000000000BRTRADACNOR3101
012024031802TRIS3       010TRISUL      ON      NM   R$  000000000053000000000005620000000000530000000000054800000000005470000000000541000000000054701961000000000001345000000000000737984100000000000000009999123100000010000000000000BRTRISACNOR4116
012024031802VITT3       010VITTIA      ON      NM   R$  000000000073800000000007490000000000731000000000074000000000007350000000000734000000000074000688000000000000180600000000000133647900000000000000009999123100000010000000000000BRVITTACNOR4106
012024031802VIVA3       010VIVARA S.A. ON      NM   R$  000000000286000000000029200000000002598000000000273200000000026410000000002641000000000264446954000000000032070600000000087630734700000000000000009999123100000010000000000000BRVIVAACNOR0106
012024031802VIVR3       010VIVER       ON      NM   R$  000000000034000000000003400000000000309000000000031400000000003100000000000309000000000031000269000000000000226900000000000071398700000000000000009999123100000010000000000000BRVIVRACNOR4122
012024031802ELMD3       010ELETROMIDIA ON      NM   R$  000000000159400000000016790000000001593000000000163400000000016130000000001613000000000163400372000000000000075100000000000122753300000000000000009999123100000010000000000000BRELMDACNOR3100
012024031802EMAE4       010EMAE        PN           R$  000000000774300000000077430000000006600000000000709000000000066000000000006552000000000666600148000000000000021000000000000148893100000000000000009999123100000010000000000000BREMAEACNPR1124
012024031802EMBR3       010EMBRAER     ON      NM   R$  000000000297300000000030000000000002766000000000288200000000029630000000002960000000000296333977000000000018068500000000052075449700000000000000009999123100000010000000000000BREMBRACNOR4191
012024031802ENAT3       010ENAUTA PART ON      NM   R$  000000000283100000000028600000000002785000000000282200000000028150000000002809000000000282006243000000000001714400000000004838886300000000000000009999123100000010000000000000BRENATACNOR0104
012024031802IFCM3       010INFRACOMM   ON      NM   R$  000000000011500000000001190000000000114000000000011600000000001160000000000116000000000011704766000000000005905100000000000687022800000000000000009999123100000010000000000000BRIFCMACNOR8101
012024031802IGTI11      010IGUATEMI S.AUNT     N1   R$  000000000238700000000023980000000002355000000000237500000000023790000000002376000000000238112960000000000007970700000000018933686700000000000000009999123100000010000000000000BRIGTICDAM16105
012024031802IGTI3       010IGUATEMI S.AON      N1   R$  000000000031700000000003370000000000317000000000032700000000003300000000000330000000000033501305000000000001157100000000000379139800000000000000009999123100000010000000000000BRIGTIACNOR8105
012024031802IGTI4       010IGUATEMI S.APN      N1   R$  000000000099900000000010590000000000999000000000101600000000010020000000001001000000000105000423000000000000098100000000000099671100000000000000009999123100000010000000000000BRIGTIACNPR5105
012024031802VIVT3       010TELEF BRASILON           R$  000000000523200000000052320000000005134000000000516800000000051680000000005162000000000516806084000000000001275300000000006591943300000000000000009999123100000010000000000000BRVIVTACNOR0178
012024031802VLID3       010VALID       ON      NM   R$  000000000184200000000018480000000001815000000000182400000000018150000000001815000000000182501296000000000000236500000000000431416400000000000000009999123100000010000000000000BRVLIDACNOR5141
012024031802RAIL3       010RUMO S.A.   ON      NM   R$  000000000220600000000022220000000002180000000000220000000000022050000000002205000000000220621224000000000016261800000000035778899700000000000000009999123100000010000000000000BRRAILACNOR9104
012024031802RAIZ4       010RAIZEN      PN      N2   R$  000000000034800000000003490000000000343000000000034600000000003470000000000346000000000034708496000000000010887500000000003768431600000000000000009999123100000010000000000000BRRAIZACNPR6109
012024031802RANI3       010IRANI       ON      NM   R$  000000000090500000000009120000000000895000000000090000000000009020000000000897000000000090203469000000000000724400000000000652587600000000000000009999123100000010000000000000BRRANIACNOR5070
012024031802SYNE3       010SYN PROP TECON      NM   R$  000000000086500000000008800000000000836000000000085600000000008530000000000853000000000085401109000000000000391500000000000335326000000000000000009999123100000010000000000000BRSYNEACNOR2102
012024031802MAPT4       010CEMEPE      PN           R$  000000000060000000000006260000000000550000000000058100000000005660000000000560000000000058000028000000000000004000000000000002327300000000000000009999123100000010000000000000BRMAPTACNPR5106
012024031802TAEE11      010TAESA       UNT     N2   R$  000000000353500000000035620000000003516000000000353700000000035300000000003530000000000353806770000000000002070800000000007326393200000000000000009999123100000010000000000000BRTAEECDAM10145
012024031802TAEE3       010TAESA       ON      N2   R$  000000000117400000000011770000000001164000000000117100000000011700000000001170000000000117500559000000000000107000000000000125324700000000000000009999123100000010000000000000BRTAEEACNOR9145
012024031802TAEE4       010TAESA       PN      N2   R$  000000000118500000000011910000000001178000000000118400000000011900000000001187000000000119000761000000000000175500000000000207852000000000000000009999123100000010000000000000BRTAEEACNPR6145
012024031802MGEL4       010MANGELS INDLPN           R$  000000000148000000000014800000000001462000000000147500000000014800000000001424000000000148000004000000000000000800000000000001180400000000000000009999123100000010000000000000BRMGELACNPR3147
012024031802MGLU3       010MAGAZ LUIZA ON      NM   R$  000000000019900000000002110000000000198000000000020500000000002100000000000210000000000021147823000000000211776700000000043558429100000000000000009999123100000010000000000000BRMGLUACNOR2123
012024031802PDGR3       010PDG REALT   ON      NM   R$  000000000003000000000000300000000000029000000000002900000000000290000000000029000000000003000328000000000001401800000000000041271900000000000000009999123100000010000000000000BRPDGRACNOR8118
012024031802PDTC3       010PADTEC      ON      NM   R$  000000000027000000000002700000000000262000000000026400000000002670000000000264000000000026700221000000000000105200000000000027836100000000000000009999123100000010000000000000BRPDTCACNOR3100
012024031802PEAB3       010PAR AL BAHIAON           R$  000000000380000000000038000000000003800000000000380000000000038000000000003600000000000398000003000000000000000500000000000001900000000000000000009999123100000010000000000000BRPEABACNOR3131
012024031802PETR3       010PETROBRAS   ON      N2   R$  000000000369500000000037080000000003585000000000365500000000036980000000003686000000000369818159000000000013273300000000048526656200000000000000009999123100000010000000000000BRPETRACNOR9202
012024031802PETR4       010PETROBRAS   PN      N2   R$  000000000364100000000036720000000003550000000000360700000000036340000000003630000000000363445539000000000035326100000000127455206100000000000000009999123100000010000000000000BRPETRACNPR6210
012024031802TASA3       010TAURUS ARMASON      N2   R$  000000000138400000000014010000000001384000000000139600000000014000000000001395000000000140400079000000000000016100000000000022478300000000000000009999123100000010000000000000BRTASAACNOR7103
012024031802TASA4       010TAURUS ARMASPN      N2   R$  000000000138600000000014080000000001385000000000139600000000014060000000001403000000000140700926000000000000241900000000000337706900000000000000009999123100000010000000000000BRTASAACNPR4103
012024031802TCSA3       010TECNISA     ON      NM   R$  000000000028000000000002890000000000276000000000028100000000002840000000000280000000000028500165000000000000071200000000000020020300000000000000009999123100000010000000000000BRTCSAACNOR3112
012024031802VAMO3       010VAMOS       ON      NM   R$  000000000083500000000008580000000000827000000000084000000000008380000000000838000000000084010992000000000006064700000000005100279700000000000000009999123100000010000000000000BRVAMOACNOR7105
012024031802VBBR3       010VIBRA       ON      NM   R$  000000000253100000000025500000000002512000000000252700000000025260000000002518000000000252713780000000000005838200000000014757025800000000000000009999123100000010000000000000BRVBBRACNOR1106
012024031802PSSA3       010PORTO SEGUROON      NM   R$  000000000307500000000031120000000003052000000000308900000000030950000000003095000000000310505544000000000001447400000000004471221500000000000000009999123100000010000000000000BRPSSAACNOR7153
012024031802PTBL3       010PORTOBELLO  ON      NM   R$  000000000065300000000006810000000000650000000000066900000000006770000000000674000000000067702696000000000000960300000000000643312700000000000000009999123100000010000000000000BRPTBLACNOR8132
012024031802PTNT3       010PETTENATI   ON           R$  000000000132900000000013290000000001271000000000130900000000013280000000001290000000000132600003000000000000000300000000000000392800000000000000009999123100000010000000000000BRPTNTACNOR6042
012024031802PTNT4       010PETTENATI   PN           R$  000000000078800000000007880000000000776000000000078100000000007760000000000776000000000078000003000000000000000300000000000000234400000000000000009999123100000010000000000000BRPTNTACNPR3047
012024031802ABCB4       010ABC BRASIL  PN      N2   R$  000000000246300000000024830000000002400000000000243000000000024030000000002402000000000241402090000000000000422900000000001027757200000000000000009999123100000010000000000000BRABCBACNPR4145
012024031802ABEV3       010AMBEV S/A   ON           R$  000000000126500000000012680000000001254000000000126000000000012630000000001261000000000126325401000000000024187500000000030480003500000000000000009999123100000010000000000000BRABEVACNOR1127
012024031802BBDC3       010BRADESCO    ON      N1   R$  000000000126000000000012730000000001255000000000126500000000012680000000001266000000000126807320000000000007315100000000009256220800000000000000009999123100000010000000000000BRBBDCACNOR1767
012024031802COCE5       010COELCE      PNA          R$  000000000363700000000036800000000003522000000000360900000000036050000000003605000000000365600120000000000000023100000000000083379900000000000000009999123100000010000000000000BRCOCEACNPA3146
012024031802COGN3       010COGNA ON    ON      NM   R$  000000000025400000000002670000000000253000000000026000000000002590000000000258000000000025911372000000000032370400000000008423996600000000000000009999123100000010000000000000BRCOGNACNOR2104
012024031802SANB11      010SANTANDER BRUNT          R$  000000000287000000000028880000000002851000000000286500000000028660000000002865000000000287706816000000000002042000000000005851106700000000000000009999123100000010000000000000BRSANBCDAM13163
012024031802SANB3       010SANTANDER BRON           R$  000000000134100000000013600000000001338000000000134600000000013450000000001345000000000135000598000000000000085300000000000114895800000000000000009999123100000010000000000000BRSANBACNOR8170
012024031802HYPE3       010HYPERA      ON      NM   R$  000000000341000000000034590000000003293000000000336800000000033310000000003318000000000333212077000000000005768000000000019426907800000000000000009999123100000010000000000000BRHYPEACNOR0138
012024031802LOGG3       010LOG COM PROPON      NM   R$  000000000223900000000022460000000002195000000000222200000000022340000000002234000000000224700613000000000000093600000000000208050600000000000000009999123100000010000000000000BRLOGGACNOR7107
012024031802LOGN3       010LOG-IN      ON      NM   R$  000000000384000000000039540000000003813000000000386500000000038620000000003849000000000391000102000000000000016700000000000064553500000000000000009999123100000010000000000000BRLOGNACNOR3105
012024031802LPSB3       010LOPES BRASILON      NM   R$  000000000021000000000002150000000000204000000000021100000000002060000000000206000000000021300311000000000000070900000000000015001500000000000000009999123100000010000000000000BRLPSBACNOR0113
012024031802LREN3       010LOJAS RENNERON      NM   R$  000000000154600000000015870000000001526000000000155100000000015510000000001550000000000155129099000000000029541000000000045821063000000000000000009999123100000010000000000000BRLRENACNOR1219
012024031802LUPA3       010LUPATECH    ON      NM   R$  000000000019600000000001980000000000190000000000019500000000001920000000000192000000000019400266000000000000127700000000000024939900000000000000009999123100000010000000000000BRLUPAACNOR8112
012024031802LVTC3       010WDC NETWORKSON      NM   R$  000000000037900000000003810000000000370000000000037300000000003750000000000371000000000037600063000000000000026100000000000009743800000000000000009999123100000010000000000000BRLVTCACNOR4102
012024031802LWSA3       010LWSA        ON      NM   R$  000000000056800000000005850000000000565000000000057800000000005810000000000581000000000058205871000000000005904800000000003414413000000000000000009999123100000010000000000000BRLWSAACNOR8103
012024031802OFSA3       010OUROFINO S/AON      NM   R$  000000000230300000000025910000000002301000000000243100000000025910000000002219000000000259100022000000000000002800000000000006807800000000000000009999123100000010000000000000BROFSAACNOR7117
012024031802ONCO3       010ONCOCLINICASON      NM   R$  000000000099700000000010080000000000997000000000100100000000009970000000000997000000000100101995000000000000760100000000000761409600000000000000009999123100000010000000000000BRONCOACNOR6100
012024031802OPCT3       010OCEANPACT   ON      NM   R$  000000000059000000000006100000000000579000000000059500000000006020000000000602000000000060802454000000000000830900000000000494817400000000000000009999123100000010000000000000BROPCTACNOR0100
012024031802ORVR3       010ORIZON      ON      NM   R$  000000000386900000000038950000000003805000000000383900000000038450000000003844000000000385500991000000000000159900000000000613934000000000000000009999123100000010000000000000BRORVRACNOR0101
012024031802YDUQ3       010YDUQS PART  ON      NM   R$  000000000193200000000019490000000001828000000000187000000000018410000000001840000000000184326119000000000010576200000000019781370300000000000000009999123100000010000000000000BRYDUQACNOR3104
012024031802PATI4       010PANATLANTICAPN           R$  000000000330000000000033000000000003300000000000330000000000033000000000003120000000000402000002000000000000000300000000000000990000000000000000009999123100000010000000000000BRPATIACNPR3064
012024031802PCAR3       010P.ACUCAR-CBDON      NM   R$  000000000031400000000003150000000000301000000000030800000000003040000000000304000000000030513227000000000016360900000000005041287800000000000000009999123100000010000000000000BRPCARACNOR3167
012024031802ROMI3       010ROMI        ON      NM   R$  000000000127000000000012830000000001262000000000127000000000012740000000001273000000000127400741000000000000163100000000000207259600000000000000009999123100000010000000000000BRROMIACNOR8192
012024031802RRRP3       0103R PETROLEUMON      NM   R$  000000000292900000000029810000000002913000000000295200000000029500000000002949000000000295511820000000000004710300000000013906723900000000000000009999123100000010000000000000BRRRRPACNOR5102
012024031802TRPL3       010TRAN PAULISTON      N1   R$  000000000336400000000033970000000003332000000000334900000000033450000000003335000000000339600008000000000000001100000000000003684600000000000000009999123100000010000000000000BRTRPLACNOR4185
012024031802TRPL4       010TRAN PAULISTPN      N1   R$  000000000245400000000024790000000002440000000000246100000000024620000000002461000000000246610804000000000002424000000000005966362400000000000000009999123100000010000000000000BRTRPLACNPR1185
012024031802CLSA3       010CLEARSALE   ON      NM   R$  000000000040000000000004040000000000383000000000039300000000003890000000000386000000000039001988000000000000800000000000000314452500000000000000009999123100000010000000000000BRCLSAACNOR0100
012024031802CLSC4       010CELESC      PN      N2   R$  000000000675100000000067750000000006709000000000673600000000067090000000006708000000000677500009000000000000004600000000000030988400000000000000009999123100000010000000000000BRCLSCACNPR3128
012024031802CMIG3       010CEMIG       ON      N1   R$  000000000134700000000013700000000001310000000000133900000000013230000000001319000000000132503789000000000001046800000000001401790900000000000000009999123100000010000000000000BRCMIGACNOR6239
012024031802CMIG4       010CEMIG       PN      N1   R$  000000000113800000000011640000000001133000000000115400000000011580000000001155000000000115818422000000000013466500000000015553601400000000000000009999123100000010000000000000BRCMIGACNPR3240
012024031802CMIN3       010CSNMINERACAOON      N2   R$  000000000055200000000005700000000000551000000000056100000000005590000000000559000000000056010240000000000009939000000000005580268600000000000000009999123100000010000000000000BRCMINACNOR2110
012024031802EKTR4       010ELEKTRO     PN           R$  000000000420000000000042000000000004200000000000420000000000042000000000004070000000000420000001000000000000000100000000000000420000000000000000009999123100000010000000000000BREKTRACNPR7159
012024031802ELET3       010ELETROBRAS  ON      N1   R$  000000000430300000000043190000000004131000000000418800000000041450000000004140000000000414526855000000000011544600000000048351759600000000000000009999123100000010000000000000BRELETACNOR6159
012024031802ELET6       010ELETROBRAS  PNB     N1   R$  000000000479300000000047930000000004575000000000463400000000046030000000004585000000000460309388000000000002075700000000009619486000000000000000009999123100000010000000000000BRELETACNPB7076
012024031802TTEN3       0103TENTOS     ON      NM   R$  000000000106100000000010750000000001053000000000106700000000010750000000001066000000000107502552000000000000514600000000000549218400000000000000009999123100000010000000000000BRTTENACNOR0103
012024031802TUPY3       010TUPY        ON      NM   R$  000000000268100000000027120000000002631000000000268900000000026960000000002684000000000269703037000000000001468000000000003947555100000000000000009999123100000010000000000000BRTUPYACNOR1183
012024031802WEGE3       010WEG         ON      NM   R$  000000000379500000000038160000000003768000000000379700000000038000000000003794000000000380212021000000000005536500000000021026247200000000000000009999123100000010000000000000BRWEGEACNOR0221
012024031802RAPT3       010RANDON PART ON      N1   R$  000000000113900000000011430000000001129000000000113800000000011430000000001128000000000114400024000000000000005000000000000005694300000000000000009999123100000010000000000000BRRAPTACNOR7162
012024031802RAPT4       010RANDON PART PN      N1   R$  000000000120400000000012210000000001198000000000121100000000012140000000001212000000000121403423000000000001284000000000001556004400000000000000009999123100000010000000000000BRRAPTACNPR4162
012024031802PINE4       010PINE        PN      N2   R$  000000000046500000000004650000000000448000000000045300000000004500000000000450000000000045200526000000000000259900000000000117979200000000000000009999123100000010000000000000BRPINEACNPR8148
012024031802PLAS3       010PLASCAR PARTON           R$  000000000095500000000010190000000000955000000000099400000000010190000000000875000000000101900005000000000000001200000000000001192800000000000000009999123100000010000000000000BRPLASACNOR2106
012024031802PLPL3       010PLANOEPLANO ON      NM   R$  000000000137500000000013940000000001339000000000136300000000013480000000001348000000000135201156000000000000305100000000000415874300000000000000009999123100000010000000000000BRPLPLACNOR5104
012024031802PNVL3       010DIMED       ON      NM   R$  000000000120100000000012030000000001183000000000119300000000011990000000001195000000000120101269000000000000230000000000000274612700000000000000009999123100000010000000000000BRPNVLACNOR9205
012024031802POMO3       010MARCOPOLO   ON  EB  N2   R$  000000000057500000000005780000000000559000000000056700000000005700000000000567000000000057000467000000000000183200000000000103967800000000000000009999123100000010000000000000BRPOMOACNOR0097
012024031802POMO4       010MARCOPOLO   PN  EB  N2   R$  000000000072600000000007420000000000707000000000072100000000007250000000000723000000000072607756000000000003910800000000002821132700000000000000009999123100000010000000000000BRPOMOACNPR7097
012024031802PORT3       010WILSON SONS ON      NM   R$  000000000181400000000018440000000001784000000000180400000000018150000000001812000000000181500996000000000000312900000000000564636600000000000000009999123100000010000000000000BRPORTACNOR8106
012024031802POSI3       010POSITIVO TECON      NM   R$  000000000080200000000008320000000000796000000000081300000000008200000000000817000000000082003213000000000000982100000000000798492600000000000000009999123100000010000000000000BRPOSIACNOR9115
012024031802RCSL3       010RECRUSUL    ON           R$  000000000016100000000001620000000000156000000000015700000000001590000000000159000000000016002335000000000001175200000000000184864100000000000000009999123100000010000000000000BRRCSLACNOR4133
012024031802RCSL4       010RECRUSUL    PN           R$  000000000006900000000000730000000000068000000000007000000000000700000000000070000000000007102668000000000004747400000000000332948000000000000000009999123100000010000000000000BRRCSLACNPR1133
012024031802RDNI3       010RNI         ON      NM   R$  000000000040500000000004090000000000395000000000039900000000004000000000000399000000000040400027000000000000007900000000000003159600000000000000009999123100000010000000000000BRRDNIACNOR9116
012024031802RDOR3       010REDE D OR   ON      NM   R$  000000000254100000000026180000000002531000000000259300000000026090000000002607000000000261010681000000000008333900000000021611506900000000000000009999123100000010000000000000BRRDORACNOR8111
012024031802RECV3       010PETRORECSA  ON      NM   R$  000000000229400000000023430000000002242000000000230600000000023430000000002323000000000234409271000000000004081600000000009413493900000000000000009999123100000010000000000000BRRECVACNOR3105
012024031802REDE3       010REDE ENERGIAON  ED       R$  000000000071000000000007100000000000657000000000068000000000006750000000000675000000000068100080000000000000017600000000000011981200000000000000009999123100000010000000000000BRREDEACNOR7127
012024031802RENT3       010LOCALIZA    ON      NM   R$  000000000531300000000053240000000005215000000000524600000000052530000000005252000000000526213217000000000004707200000000024698193200000000000000009999123100000010000000000000BRRENTACNOR4194
012024031802TECN3       010TECHNOS     ON      NM   R$  000000000038500000000003920000000000377000000000038500000000003920000000000392000000000039300677000000000000247800000000000095495600000000000000009999123100000010000000000000BRTECNACNOR6109
012024031802TELB3       010TELEBRAS    ON           R$  000000000140100000000014050000000001399000000000140300000000014050000000001387000000000141900004000000000000001100000000000001543500000000000000009999123100000010000000000000BRTELBACNOR2140
012024031802TELB4       010TELEBRAS    PN           R$  000000000108000000000010800000000001032000000000105800000000010320000000001032000000000108000035000000000000017100000000000018101800000000000000009999123100000010000000000000BRTELBACNPR9140
012024031802TEND3       010TENDA       ON      NM   R$  000000000119000000000012480000000001146000000000119700000000011670000000001166000000000116810474000000000004472300000000005356605100000000000000009999123100000010000000000000BRTENDACNOR4111
012024031802TFCO4       010TRACK FIELD PN      N2   R$  000000000128600000000012970000000001266000000000127500000000012670000000001266000000000128000883000000000000132700000000000169195200000000000000009999123100000010000000000000BRTFCOACNPR8111
012024031802TGMA3       010TEGMA       ON      NM   R$  000000000287200000000028920000000002810000000000283800000000028340000000002834000000000284900980000000000000152200000000000432040300000000000000009999123100000010000000000000BRTGMAACNOR7143
012024031802TIMS3       010TIM         ON      NM   R$  000000000186200000000018670000000001845000000000185500000000018600000000001853000000000186010683000000000005949600000000011038970700000000000000009999123100000010000000000000BRTIMSACNOR5114
012024031802TKNO4       010TEKNO       PN           R$  000000000600100000000060010000000006001000000000600100000000060010000000006001000000000660000001000000000000000100000000000000600100000000000000009999123100000010000000000000BRTKNOACNPR5074
012024031802SLCE3       010SLC AGRICOLAON      NM   R$  000000000190600000000019140000000001891000000000190000000000019000000000001899000000000190208868000000000005937000000000011281566100000000000000009999123100000010000000000000BRSLCEACNOR2124
012024031802SAPR11      010SANEPAR     UNT     N2   R$  000000000260000000000026150000000002537000000000255600000000025440000000002543000000000255303639000000000000774000000000001978732800000000000000009999123100000010000000000000BRSAPRCDAM13117
012024031802SAPR3       010SANEPAR     ON      N2   R$  000000000050400000000005040000000000495000000000049700000000004950000000000495000000000049700561000000000000213200000000000106163000000000000000009999123100000010000000000000BRSAPRACNOR9158
012024031802SAPR4       010SANEPAR     PN      N2   R$  000000000051700000000005190000000000509000000000051200000000005100000000000510000000000051102650000000000001609100000000000824652400000000000000009999123100000010000000000000BRSAPRACNPR6158
012024031802SBFG3       010GRUPO SBF   ON      NM   R$  000000000127300000000013150000000001246000000000128100000000012810000000001279000000000128305724000000000001674600000000002145289600000000000000009999123100000010000000000000BRSBFGACNOR1102
012024031802SBSP3       010SABESP      ON      NM   R$  000000000764900000000076660000000007578000000000760500000000076010000000007585000000000760308809000000000004375300000000033274773300000000000000009999123100000010000000000000BRSBSPACNOR5160
012024031802VALE3       010VALE        ON  ED  NM   R$  000000000604900000000061000000000006001000000000606700000000060900000000006089000000000609041712000000000021371000000000129672900100000000000000009999123100000010000000000000BRVALEACNOR0210
012024031802ZAMP3       010ZAMP S.A.   ON           R$  000000000036500000000003660000000000352000000000035500000000003530000000000353000000000035402752000000000000673800000000000239672400000000000000009999123100000010000000000000BRZAMPACNOR5100
012024031802MATD3       010MATER DEI   ON      NM   R$  000000000062200000000006330000000000613000000000061800000000006180000000000616000000000062000760000000000000211800000000000130990300000000000000009999123100000010000000000000BRMATDACNOR4103
012024031802MBLY3       010MOBLY       ON      NM   R$  000000000021300000000002150000000000209000000000021100000000002090000000000209000000000021200369000000000000184200000000000038952400000000000000009999123100000010000000000000BRMBLYACNOR5100
012024031802MDIA3       010M.DIASBRANCOON  EJ  NM   R$  000000000413300000000041510000000004088000000000413200000000041510000000004138000000000415102693000000000000655800000000002710145000000000000000009999123100000010000000000000BRMDIAACNOR7134
012024031802MDNE3       010MOURA DUBEUXON      NM   R$  000000000125000000000012870000000001237000000000125600000000012480000000001248000000000125601676000000000000409200000000000514272400000000000000009999123100000010000000000000BRMDNEACNOR9100
012024031802MEAL3       010IMC S/A     ON      NM   R$  000000000021500000000002160000000000206000000000020800000000002090000000000208000000000020900790000000000000942600000000000196819500000000000000009999123100000010000000000000BRMEALACNOR9105
012024031802MELK3       010MELNICK     ON      NM   R$  000000000046100000000004640000000000453000000000045900000000004610000000000461000000000046400274000000000000163400000000000075136600000000000000009999123100000010000000000000BRMELKACNOR8110
012024031802HETA4       010HERCULES    PN           R$  000000000062600000000006260000000000625000000000062500000000006250000000000620000000000065400002000000000000000400000000000000250100000000000000009999123100000010000000000000BRHETAACNPR9136
012024031802KRSA3       010KORA SAUDE  ON      NM   R$  000000000009100000000000920000000000088000000000008900000000000890000000000088000000000008900583000000000000536500000000000048116700000000000000009999123100000010000000000000BRKRSAACNOR0100
012024031802LAND3       010TERRASANTAPAON      NM   R$  000000000189400000000018940000000001750000000000179300000000017980000000001773000000000180000227000000000000061100000000000109563000000000000000009999123100000010000000000000BRLANDACNOR9102
012024031802LAVV3       010LAVVI       ON  ED  NM   R$  000000000092100000000009710000000000920000000000095800000000009710000000000967000000000097104172000000000002549700000000002443103700000000000000009999123100000010000000000000BRLAVVACNOR4111
012024031802LEVE3       010METAL LEVE  ON      NM   R$  000000000324800000000033150000000003236000000000327500000000033010000000003301000000000330301850000000000000386800000000001267150400000000000000009999123100000010000000000000BRLEVEACNOR2196
012024031802LJQQ3       010QUERO-QUERO ON      NM   R$  000000000059700000000006090000000000583000000000059500000000005830000000000583000000000058805094000000000002294600000000001366579900000000000000009999123100000010000000000000BRLJQQACNOR5104
012024031802NEOE3       010NEOENERGIA  ON      NM   R$  000000000207900000000020940000000002064000000000207000000000020640000000002064000000000206504595000000000001109800000000002298191200000000000000009999123100000010000000000000BRNEOEACNOR3121
012024031802NGRD3       010NEOGRID     ON      NM   R$  000000000010900000000001100000000000107000000000010700000000001070000000000107000000000010800240000000000000257600000000000027709900000000000000009999123100000010000000000000BRNGRDACNOR3103
012024031802NINJ3       010GETNINJAS   ON      NM   R$  000000000051800000000005180000000000512000000000051400000000005150000000000512000000000051500052000000000000011600000000000005972200000000000000009999123100000010000000000000BRNINJACNOR5101
012024031802NORD3       010NORDON MET  ON           R$  000000000092200000000009220000000000922000000000092200000000009220000000000922000000000099200002000000000000000200000000000000184400000000000000009999123100000010000000000000BRNORDACNOR7135
012024031802NTCO3       010GRUPO NATURAON      NM   R$  000000000182000000000018470000000001809000000000183600000000018400000000001838000000000184217180000000000027681000000000050838247800000000000000009999123100000010000000000000BRNTCOACNOR5104
012024031802PRNR3       010PRINER      ON      NM   R$  000000000119200000000011920000000001135000000000116100000000011500000000001150000000000115400985000000000000331200000000000384732700000000000000009999123100000010000000000000BRPRNRACNOR4108
012024031802SMFT3       010SMART FIT   ON      NM   R$  000000000252400000000025550000000002522000000000253900000000025320000000002531000000000254905269000000000002075900000000005271819700000000000000009999123100000010000000000000BRSMFTACNOR1111
012024031802SMTO3       010SAO MARTINHOON      NM   R$  000000000276900000000027720000000002716000000000273600000000027380000000002733000000000273802742000000000000593800000000001625004600000000000000009999123100000010000000000000BRSMTOACNOR3125
012024031802SNSY3       010SANSUY      ON           R$  000000000101600000000010890000000000990000000000101900000000010100000000001010000000000103400029000000000000004600000000000004690000000000000000009999123100000010000000000000BRSNSYACNOR2113
012024031802SNSY5       010SANSUY      PNA          R$  000000000061000000000006180000000000592000000000060400000000006090000000000600000000000061400036000000000000008200000000000004957500000000000000009999123100000010000000000000BRSNSYACNPA5111
012024031802SOJA3       010BOA SAFRA   ON      NM   R$  000000000178000000000017970000000001753000000000177700000000017740000000001774000000000178000998000000000000178500000000000317287100000000000000009999123100000010000000000000BRSOJAACNOR9105
012024031802SOMA3       010GRUPO SOMA  ON      NM   R$  000000000070600000000007170000000000702000000000070500000000007020000000000701000000000070309826000000000008605900000000006073633300000000000000009999123100000010000000000000BRSOMAACNOR3102
012024031802BIOM3       010BIOMM       ON      MA   R$  000000000088600000000009400000000000881000000000090900000000009070000000000907000000000091600093000000000000021000000000000019098200000000000000009999123100000010000000000000BRBIOMACNOR2112
012024031802BLAU3       010BLAU        ON      NM   R$  000000000119800000000012090000000001176000000000118600000000011860000000001186000000000118900652000000000000124100000000000147198700000000000000009999123100000010000000000000BRBLAUACNOR8111
012024031802BMEB3       010MERCANTIL   ON      N1   R$  000000000250100000000025010000000002366000000000245600000000023660000000002350000000000290000003000000000000000600000000000001473600000000000000009999123100000010000000000000BRBMEBACNOR8205
012024031802BMEB4       010MERCANTIL   PN      N1   R$  000000000251200000000025120000000002435000000000246100000000024350000000002435000000000245900041000000000000005700000000000014032700000000000000009999123100000010000000000000BRBMEBACNPR5210
012024031802BMGB4       010BANCO BMG   PN      N1   R$  000000000036700000000003710000000000360000000000036300000000003630000000000362000000000036300831000000000000449800000000000163724400000000000000009999123100000010000000000000BRBMGBACNPR0108
012024031802BMKS3       010BIC MONARK  ON           R$  000000003650000000000365000000000035711000000003606100000000364990000000036000000000003650000007000000000000000015000000000000540920000000000000009999123100000010000000000000BRBMKSACNOR9165
012024031802BMOB3       010BEMOBI TECH ON      NM   R$  000000000131700000000013410000000001314000000000132100000000013200000000001316000000000132001049000000000000238800000000000315530200000000000000009999123100000010000000000000BRBMOBACNOR7103
012024031802BOBR4       010BOMBRIL     PN           R$  000000000022700000000002280000000000223000000000022500000000002250000000000224000000000022500043000000000000050600000000000011407400000000000000009999123100000010000000000000BRBOBRACNPR3128
012024031802CAMB3       010CAMBUCI     ON           R$  000000000108500000000010870000000001045000000000105100000000010500000000001050000000000106000256000000000000249100000000000261935400000000000000009999123100000010000000000000BRCAMBACNOR4127
012024031802CAML3       010CAMIL       ON      NM   R$  000000000086400000000008760000000000863000000000086900000000008700000000000867000000000087101086000000000001521900000000001323806100000000000000009999123100000010000000000000BRCAMLACNOR3127
012024031802CASH3       010MELIUZ      ON      NM   R$  000000000079300000000008250000000000784000000000080100000000007900000000000789000000000079006905000000000002800200000000002243915400000000000000009999123100000010000000000000BRCASHACNOR8105
012024031802CBAV3       010CBA         ON      NM   R$  000000000040100000000004030000000000394000000000039800000000003980000000000397000000000039804256000000000002224800000000000887135900000000000000009999123100000010000000000000BRCBAVACNOR5104
012024031802CCRO3       010CCR SA      ON      NM   R$  000000000140300000000014100000000001370000000000139500000000014000000000001400000000000140517796000000000006575000000000009172600300000000000000009999123100000010000000000000BRCCROACNOR2144
012024031802CEAB3       010CEA MODAS   ON      NM   R$  000000000096000000000009720000000000937000000000095000000000009380000000000938000000000094504836000000000002840300000000002698370100000000000000009999123100000010000000000000BRCEABACNOR1101
012024031802CEBR3       010CEB         ON           R$  000000000190800000000019080000000001877000000000188200000000018840000000001884000000000190000019000000000000002800000000000005271400000000000000009999123100000010000000000000BRCEBRACNOR5124
012024031802CEBR5       010CEB         PNA          R$  000000000188400000000018840000000001811000000000183300000000018450000000001825000000000184800028000000000000005200000000000009532800000000000000009999123100000010000000000000BRCEBRACNPA8123
012024031802CEBR6       010CEB         PNB          R$  000000000190000000000021950000000001885000000000199500000000021950000000001901000000000219500038000000000000006900000000000013768700000000000000009999123100000010000000000000BRCEBRACNPB6123
012024031802CEDO4       010CEDRO       PN      N1   R$  000000000280000000000029990000000002800000000000285900000000029990000000002750000000000299900004000000000000001000000000000002859700000000000000009999123100000010000000000000BRCEDOACNPR5128
012024031802CEEB3       010COELBA      ON           R$  000000000383100000000039490000000003831000000000390900000000039490000000003833000000000394000004000000000000000600000000000002345800000000000000009999123100000010000000000000BRCEEBACNOR3196
012024031802CGAS3       010COMGAS      ON           R$  000000001019900000000101990000000010199000000001019900000000101990000000009212000000001128100001000000000000000100000000000001019900000000000000009999123100000010000000000000BRCGASACNOR0162
012024031802CGAS5       010COMGAS      PNA          R$  000000001145000000000119290000000011450000000001156600000000114510000000011450000000001145200011000000000000001800000000000020819200000000000000009999123100000010000000000000BRCGASACNPA3159
012024031802CGRA3       010GRAZZIOTIN  ON           R$  000000000254100000000026900000000002541000000000263900000000026500000000002650000000000269000043000000000000007400000000000019533500000000000000009999123100000010000000000000BRCGRAACNOR2081
012024031802CGRA4       010GRAZZIOTIN  PN           R$  000000000265000000000028020000000002650000000000276100000000027800000000002762000000000279900087000000000000021700000000000059935100000000000000009999123100000010000000000000BRCGRAACNPR9081
012024031802CIEL3       010CIELO       ON  EJ  NM   R$  000000000051700000000005240000000000508000000000051800000000005210000000000520000000000052212380000000000036180500000000018749372800000000000000009999123100000010000000000000BRCIELACNOR3157
012024031802DESK3       010DESKTOP     ON      NM   R$  000000000139500000000014030000000001360000000000138300000000013600000000001360000000000136900402000000000000066800000000000092409700000000000000009999123100000010000000000000BRDESKACNOR2103
012024031802DEXP3       010DEXXOS PAR  ON      N1   R$  000000000122500000000012400000000001190000000000120900000000011980000000001197000000000121400315000000000000065600000000000079363600000000000000009999123100000010000000000000BRDEXPACNOR1104
012024031802DEXP4       010DEXXOS PAR  PN      N1   R$  000000000122700000000012270000000001208000000000121700000000012080000000001208000000000122300003000000000000000400000000000000486800000000000000009999123100000010000000000000BRDEXPACNPR8104
012024031802DIRR3       010DIRECIONAL  ON      NM   R$  000000000252700000000025460000000002418000000000244500000000024310000000002431000000000244208212000000000001882200000000004603711300000000000000009999123100000010000000000000BRDIRRACNOR0117
012024031802DMVF3       010D1000VFARMA ON      NM   R$  000000000063900000000006560000000000635000000000064700000000006500000000000647000000000065000233000000000000077000000000000049874900000000000000009999123100000010000000000000BRDMVFACNOR9100
012024031802DOHL3       010DOHLER      ON           R$  000000000065100000000006510000000000651000000000065100000000006510000000000650000000000090000002000000000000000200000000000000130200000000000000009999123100000010000000000000BRDOHLACNOR2063
012024031802DOHL4       010DOHLER      PN           R$  000000000048000000000004800000000000480000000000048000000000004800000000000470000000000048000003000000000000000400000000000000192000000000000000009999123100000010000000000000BRDOHLACNPR9066
012024031802DOTZ3       010DOTZ SA     ON      NM   R$  000000000064300000000006530000000000614000000000062700000000006170000000000615000000000062600058000000000000015400000000000009664000000000000000009999123100000010000000000000BRDOTZACNOR7101
012024031802DXCO3       010DEXCO       ON  ED  NM   R$  000000000080900000000008280000000000804000000000081600000000008240000000000816000000000082406288000000000002500100000000002041516100000000000000009999123100000010000000000000BRDXCOACNOR8105
012024031802CXSE3       010CAIXA SEGURION      NM   R$  000000000161000000000016200000000001600000000000160800000000016010000000001600000000000160814270000000000005643100000000009074368900000000000000009999123100000010000000000000BRCXSEACNOR7105
012024031802CYRE3       010CYRELA REALTON      NM   R$  000000000246300000000024890000000002371000000000240400000000023970000000002396000000000240016242000000000006231500000000014984392000000000000000009999123100000010000000000000BRCYREACNOR7139
012024031802DASA3       010DASA        ON      NM   R$  000000000073600000000007380000000000712000000000072500000000007270000000000723000000000072701019000000000000153700000000000111454300000000000000009999123100000010000000000000BRDASAACNOR1122
012024031802GGBR3       010GERDAU      ON      N1   R$  000000000192500000000019510000000001900000000000192100000000019400000000001929000000000194000278000000000000051300000000000098596200000000000000009999123100000010000000000000BRGGBRACNOR1190
012024031802GGBR4       010GERDAU      PN      N1   R$  000000000209500000000021550000000002083000000000212700000000021430000000002140000000000214313913000000000010183400000000021669020100000000000000009999123100000010000000000000BRGGBRACNPR8190
012024031802JALL3       010JALLESMACHADON      NM   R$  000000000077400000000007800000000000752000000000076100000000007680000000000754000000000076801944000000000000536700000000000408781800000000000000009999123100000010000000000000BRJALLACNOR0105
012024031802JBSS3       010JBS         ON      NM   R$  000000000231900000000023320000000002293000000000231400000000023140000000002311000000000231409339000000000007898500000000018278338900000000000000009999123100000010000000000000BRJBSSACNOR8121
012024031802MRSA5B      010MRS LOGIST  PNA     MB   R$  000000000244600000000024460000000002446000000000244600000000024460000000002446000000000354500001000000000000000200000000000000489200000000000000009999123100000010000000000000BRMRSAACNPA9124
012024031802MRVE3       010MRV         ON      NM   R$  000000000083500000000008500000000000774000000000079500000000007770000000000777000000000077821922000000000024623000000000019598548000000000000000009999123100000010000000000000BRMRVEACNOR2126
012024031802B3SA3       010B3          ON      NM   R$  000000000123700000000012490000000001224000000000123300000000012360000000001233000000000123619819000000000017929500000000022108659600000000000000009999123100000010000000000000BRB3SAACNOR6131
012024031802BEEF3       010MINERVA     ON      NM   R$  000000000070100000000007030000000000691000000000069600000000006970000000000694000000000069706108000000000003476800000000002420147200000000000000009999123100000010000000000000BRBEEFACNOR6116
012024031802BEES3       010BANESTES    ON           R$  000000000090000000000009000000000000888000000000089600000000009000000000000898000000000090000106000000000000018000000000000016129200000000000000009999123100000010000000000000BRBEESACNOR9388
012024031802BEES4       010BANESTES    PN           R$  000000000098400000000009840000000000977000000000097900000000009770000000000975000000000098200022000000000000004100000000000004017700000000000000009999123100000010000000000000BRBEESACNPR6313
012024031802BGIP4       010BANESE      PN  ES       R$  000000000235100000000024000000000002351000000000235700000000024000000000002353000000000350000007000000000000002000000000000004714600000000000000009999123100000010000000000000BRBGIPACNPR8208
012024031802BHIA3       010CASAS BAHIA ON      NM   R$  000000000074400000000007600000000000735000000000074400000000007390000000000738000000000073906668000000000003953600000000002942138900000000000000009999123100000010000000000000BRBHIAACNOR1101
012024031802BRFS3       010BRF SA      ON      NM   R$  000000000165700000000016640000000001621000000000163700000000016340000000001634000000000163616671000000000008981600000000014707134200000000000000009999123100000010000000000000BRBRFSACNOR8121
012024031802BRIT3       010BRISANET    ON      NM   R$  000000000035300000000003600000000000342000000000035100000000003580000000000354000000000035801334000000000000354900000000000124855200000000000000009999123100000010000000000000BRBRITACNOR0102
012024031802BRIV4       010ALFA INVEST PN           R$  000000000125000000000012990000000001250000000000125200000000012990000000001250000000000129900003000000000000001800000000000002254900000000000000009999123100000010000000000000BRBRIVACNPR3218
012024031802BRKM3       010BRASKEM     ON      N1   R$  000000000209900000000021600000000002050000000000213700000000021410000000002140000000000217000075000000000000014000000000000029921000000000000000009999123100000010000000000000BRBRKMACNOR1119
012024031802BRKM5       010BRASKEM     PNA     N1   R$  000000000217100000000021940000000002118000000000216200000000021900000000002173000000000219009904000000000004216900000000009117297400000000000000009999123100000010000000000000BRBRKMACNPA4121
012024031802CSRN3       010COSERN      ON           R$  000000000231100000000023370000000002310000000000231700000000023100000000002321000000000245000004000000000000000400000000000000926800000000000000009999123100000010000000000000BRCSRNACNOR0190
012024031802CSUD3       010CSU DIGITAL ON      NM   R$  000000000196100000000020250000000001954000000000199900000000020050000000001982000000000200600519000000000000083400000000000166796500000000000000009999123100000010000000000000BRCSUDACNOR5107
012024031802CTNM3       010COTEMINAS   ON           R$  000000000080000000000008380000000000800000000000081900000000008380000000000780000000000083800002000000000000000200000000000000163800000000000000009999123100000010000000000000BRCTNMACNOR9130
012024031802CTNM4       010COTEMINAS   PN           R$  000000000012700000000001300000000000124000000000012600000000001260000000000125000000000012600023000000000000008100000000000001021500000000000000009999123100000010000000000000BRCTNMACNPR6129
012024031802CTSA3       010SANTANENSE  ON           R$  000000000030600000000003060000000000306000000000030600000000003060000000000303000000000031100002000000000000000200000000000000061200000000000000009999123100000010000000000000BRCTSAACNOR3062
012024031802CTSA4       010SANTANENSE  PN           R$  000000000016400000000001680000000000164000000000016500000000001640000000000162000000000016400046000000000000011400000000000001883700000000000000009999123100000010000000000000BRCTSAACNPR0062
012024031802CURY3       010CURY S/A    ON      NM   R$  000000000208300000000020830000000002013000000000203400000000020280000000002027000000000203104512000000000000759100000000001544344700000000000000009999123100000010000000000000BRCURYACNOR3107
012024031802CVCB3       010CVC BRASIL  ON      NM   R$  000000000034000000000003500000000000335000000000034100000000003360000000000336000000000033705283000000000012000800000000004092525300000000000000009999123100000010000000000000BRCVCBACNOR1115
012024031802FLRY3       010FLEURY      ON      NM   R$  000000000149800000000015150000000001496000000000150500000000015050000000001505000000000150707682000000000002211700000000003330169600000000000000009999123100000010000000000000BRFLRYACNOR5137
012024031802FRAS3       010FRAS-LE     ON      N1   R$  000000000176100000000017710000000001738000000000175600000000017550000000001755000000000176601091000000000000198600000000000348752000000000000000009999123100000010000000000000BRFRASACNOR0158
012024031802GEPA3       010GER PARANAP ON           R$  000000000256000000000025600000000002550000000000255100000000025500000000002525000000000272000009000000000000004000000000000010205700000000000000009999123100000010000000000000BRGEPAACNOR2152
012024031802GEPA4       010GER PARANAP PN           R$  000000000265000000000026500000000002650000000000265000000000026500000000002650000000000272900001000000000000000400000000000001060000000000000000009999123100000010000000000000BRGEPAACNPR9159
012024031802GFSA3       010GAFISA      ON  ES  NM   R$  000000000087500000000008990000000000761000000000081100000000007930000000000790000000000079310694000000000008449100000000006856221700000000000000009999123100000010000000000000BRGFSAACNOR3124
012024031802ITUB3       010ITAUUNIBANCOON      N1   R$  000000000296400000000030050000000002948000000000296700000000029720000000002972000000000297501139000000000000355300000000001054388600000000000000009999123100000010000000000000BRITUBACNOR4332
012024031802ITUB4       010ITAUUNIBANCOPN      N1   R$  000000000346700000000034950000000003438000000000345900000000034680000000003466000000000346922547000000000012949700000000044800156200000000000000009999123100000010000000000000BRITUBACNPR1332
012024031802MILS3       010MILLS       ON      NM   R$  000000000129900000000012990000000001274000000000128600000000012900000000001289000000000129401811000000000000394900000000000507952800000000000000009999123100000010000000000000BRMILSACNOR2124
012024031802MLAS3       010MULTILASER  ON      NM   R$  000000000021500000000002160000000000207000000000021000000000002090000000000208000000000020901527000000000001292300000000000271450900000000000000009999123100000010000000000000BRMLASACNOR9101
012024031802MNDL3       010MUNDIAL     ON           R$  000000000437800000000043790000000004350000000000436900000000043500000000003975000000000435000003000000000000000300000000000001310700000000000000009999123100000010000000000000BRMNDLACNOR4107
012024031802MNPR3       010MINUPAR     ON           R$  000000000191200000000020500000000001879000000000191700000000018790000000001800000000000188000039000000000000011700000000000022436200000000000000009999123100000010000000000000BRMNPRACNOR5122
012024031802MOVI3       010MOVIDA      ON      NM   R$  000000000091200000000009390000000000905000000000091700000000009150000000000908000000000091505312000000000001623300000000001489056600000000000000009999123100000010000000000000BRMOVIACNOR0122
012024031802MRFG3       010MARFRIG     ON      NM   R$  000000000100100000000010040000000000975000000000098900000000009950000000000987000000000099513077000000000004164300000000004121975100000000000000009999123100000010000000000000BRMRFGACNOR0116
012024031802ASAI3       010ASSAI       ON      NM   R$  000000000146700000000014740000000001440000000000145100000000014460000000001445000000000144706821000000000003894300000000005654406800000000000000009999123100000010000000000000BRASAIACNOR0106
012024031802ATOM3       010ATOMPAR     ON           R$  000000000019300000000001930000000000190000000000019100000000001930000000000191000000000019300017000000000000003600000000000000690300000000000000009999123100000010000000000000BRATOMACNOR1106
012024031802AURE3       010AUREN       ON      NM   R$  000000000120100000000012010000000001185000000000118800000000011860000000001186000000000118704493000000000002462600000000002927463100000000000000009999123100000010000000000000BRAUREACNOR9104
012024031802AZEV3       010AZEVEDO     ON           R$  000000000013300000000001330000000000129000000000013000000000001300000000000130000000000013200304000000000000163100000000000021286000000000000000009999123100000010000000000000BRAZEVACNOR0121
012024031802AZEV4       010AZEVEDO     PN           R$  000000000012600000000001270000000000122000000000012300000000001230000000000122000000000012300622000000000001169000000000000144797500000000000000009999123100000010000000000000BRAZEVACNPR7121
012024031802AZUL4       010AZUL        PN      N2   R$  000000000135400000000013820000000001316000000000135900000000013820000000001380000000000138220561000000000020942800000000028468866900000000000000009999123100000010000000000000BRAZULACNPR4102
012024031802BBSE3       010BBSEGURIDADEON      NM   R$  000000000333500000000033560000000003323000000000333200000000033260000000003326000000000333008154000000000002938000000000009791713200000000000000009999123100000010000000000000BRBBSEACNOR5124
012024031802BPAN4       010BANCO PAN   PN      N1   R$  000000000087900000000008880000000000865000000000087300000000008710000000000870000000000087203067000000000001758800000000001536866300000000000000009999123100000010000000000000BRBPANACNPR1115
012024031802BRAP3       010BRADESPAR   ON      N1   R$  000000000187300000000019200000000001873000000000190100000000019170000000001914000000000191700839000000000000149500000000000284296100000000000000009999123100000010000000000000BRBRAPACNOR5147
012024031802BRAP4       010BRADESPAR   PN      N1   R$  000000000197400000000020190000000001972000000000199900000000020150000000002013000000000201512511000000000007115300000000014224378800000000000000009999123100000010000000000000BRBRAPACNPR2147
012024031802BRBI11      010BR PARTNERS UNT     N2   R$  000000000166000000000016800000000001644000000000166100000000016500000000001650000000000166301154000000000000177700000000000295174100000000000000009999123100000010000000000000BRBRBICDAM10107
012024031802PRIO3       010PETRORIO    ON      NM   R$  000000000481600000000048190000000004692000000000475100000000047760000000004765000000000477630337000000000009536300000000045315099800000000000000009999123100000010000000000000BRPRIOACNOR1106
012024031802SCAR3       010SAO CARLOS  ON      NM   R$  000000000252200000000025750000000002510000000000255600000000025750000000002506000000000257900041000000000000016100000000000041162000000000000000009999123100000010000000000000BRSCARACNOR7130
012024031802SEER3       010SER EDUCA   ON      NM   R$  000000000063300000000006560000000000627000000000063900000000006380000000000632000000000063802639000000000000965900000000000617747700000000000000009999123100000010000000000000BRSEERACNOR5119
012024031802SEQL3       010SEQUOIA LOG ON      NM   R$  000000000004000000000000520000000000040000000000004600000000000460000000000045000000000004612220000000000057727900000000002661566000000000000000009999123100000010000000000000BRSEQLACNOR2101
012024031802SGPS3       010SPRINGS     ON      NM   R$  000000000008900000000000890000000000087000000000008700000000000880000000000087000000000008900179000000000000069400000000000006075100000000000000009999123100000010000000000000BRSGPSACNOR4104
012024031802SHOW3       010TIME FOR FUNON      NM   R$  000000000021400000000002180000000000207000000000021100000000002080000000000208000000000021000178000000000000116600000000000024643400000000000000009999123100000010000000000000BRSHOWACNOR7105
012024031802CSED3       010CRUZEIRO EDUON      NM   R$  000000000046800000000004690000000000457000000000046300000000004690000000000463000000000046900903000000000000294700000000000136607300000000000000009999123100000010000000000000BRCSEDACNOR9104
012024031802CSMG3       010COPASA      ON      NM   R$  000000000202500000000020390000000001986000000000200400000000020040000000002002000000000200807068000000000001351900000000002709779100000000000000009999123100000010000000000000BRCSMGACNOR5171
012024031802CSNA3       010SID NACIONALON           R$  000000000153600000000015800000000001531000000000156500000000015710000000001570000000000157211872000000000013207900000000020677613200000000000000009999123100000010000000000000BRCSNAACNOR6260
012024031802ESPA3       010ESPACOLASER ON      NM   R$  000000000010700000000001090000000000105000000000010600000000001070000000000106000000000010700322000000000000482800000000000051478100000000000000009999123100000010000000000000BRESPAACNOR7103
012024031802ESTR4       010ESTRELA     PN           R$  000000000020900000000002280000000000206000000000021000000000002090000000000207000000000022500008000000000000001200000000000000252200000000000000009999123100000010000000000000BRESTRACNPR0144
012024031802EUCA3       010EUCATEX     ON      N1   R$  000000000170000000000017010000000001700000000000170000000000017010000000001700000000000175800009000000000000006100000000000010370200000000000000009999123100000010000000000000BREUCAACNOR1157
012024031802EUCA4       010EUCATEX     PN      N1   R$  000000000172900000000017510000000001709000000000172900000000017200000000001720000000000172700328000000000000054400000000000094089500000000000000009999123100000010000000000000BREUCAACNPR8044
012024031802EVEN3       010EVEN        ON      NM   R$  000000000084700000000008750000000000812000000000084800000000008230000000000822000000000082804646000000000006338300000000005377515500000000000000009999123100000010000000000000BREVENACNOR8118
012024031802EZTC3       010EZTEC       ON      NM   R$  000000000169300000000017530000000001640000000000167400000000016550000000001654000000000165908158000000000002343800000000003923764800000000000000009999123100000010000000000000BREZTCACNOR0123
012024031802QUAL3       010QUALICORP   ON      NM   R$  000000000022800000000002350000000000226000000000023100000000002330000000000229000000000023303228000000000004883500000000001130818000000000000000009999123100000010000000000000BRQUALACNOR6119
012024031802RADL3       010RAIADROGASILON      NM   R$  000000000270300000000027440000000002692000000000271100000000027070000000002707000000000270816509000000000009767300000000026484743700000000000000009999123100000010000000000000BRRADLACNOR0154
012024031802SRNA3       010SERENA      ON      NM   R$  000000000088600000000009540000000000886000000000093100000000009450000000000944000000000094604998000000000001583200000000001474041300000000000000009999123100000010000000000000BRSRNAACNOR4100
012024031802STBP3       010SANTOS BRP  ON      NM   R$  000000000117800000000011840000000001155000000000117400000000011790000000001178000000000118114341000000000007085500000000008322529500000000000000009999123100000010000000000000BRSTBPACNOR3128
012024031802SUZB3       010SUZANO S.A. ON      NM   R$  000000000609300000000061560000000006038000000000610700000000061050000000006097000000000610514308000000000004163000000000025423856800000000000000009999123100000010000000000000BRSUZBACNOR0129
012024031802WHRL3       010WHIRLPOOL   ON           R$  000000000043800000000004450000000000437000000000043900000000004450000000000445000000000045100005000000000000000500000000000000219500000000000000009999123100000010000000000000BRWHRLACNOR5128
012024031802WHRL4       010WHIRLPOOL   PN           R$  000000000046100000000004610000000000446000000000044800000000004510000000000449000000000045000019000000000000009600000000000004306400000000000000009999123100000010000000000000BRWHRLACNPR2128
012024031802WIZC3       010WIZ CO      ON      NM   R$  000000000063700000000006420000000000630000000000063400000000006350000000000635000000000063600694000000000000144700000000000091805700000000000000009999123100000010000000000000BRWIZCACNOR5101
012024031802WLMM4       010WLM IND COM PN           R$  000000000258000000000025800000000002560000000000256600000000025600000000002460000000000256000003000000000000000300000000000000770000000000000000009999123100000010000000000000BRWLMMACNPR3117
012024031802AALR3       010ALLIAR      ON      NM   R$  000000000071200000000007160000000000658000000000067700000000006580000000000657000000000066800691000000000000144300000000000097830600000000000000009999123100000010000000000000BRAALRACNOR6102
012024031802UCAS3       010UNICASA     ON      NM   R$  000000000025800000000002660000000000258000000000026300000000002630000000000263000000000026400066000000000000019100000000000005028900000000000000009999123100000010000000000000BRUCASACNOR1113
012024031802UGPA3       010ULTRAPAR    ON  ED  NM   R$  000000000285000000000028640000000002797000000000282600000000028390000000002836000000000284010344000000000002681100000000007578906200000000000000009999123100000010000000000000BRUGPAACNOR8155
012024031802VSTE3       010VESTE       ON      NM   R$  000000000144900000000014490000000001382000000000141400000000014000000000001383000000000141800145000000000000015400000000000021781300000000000000009999123100000010000000000000BRVSTEACNOR5102
012024031802VULC3       010VULCABRAS   ON  ED  NM   R$  000000000183500000000018350000000001793000000000180600000000017970000000001796000000000180302277000000000000565600000000001021592200000000000000009999123100000010000000000000BRVULCACNOR2158
012024031802VVEO3       010VIVEO       ON      NM   R$  000000000073800000000007470000000000722000000000073300000000007280000000000726000000000072902281000000000000866300000000000635823300000000000000009999123100000010000000000000BRVVEOACNOR0103
012024031807TXRX3       010TEX RENAUX  ON           R$  000000000075000000000007500000000000750000000000075000000000007500000000000650000000000109900002000000000000000200000000000000150000000000000000009999123100000010000000000000BRTXRXACNOR3142
012024031807TXRX4       010TEX RENAUX  PN           R$  000000000026100000000002620000000000261000000000026100000000002620000000000262000000000027000004000000000000001500000000000000392300000000000000009999123100000010000000000000BRTXRXACNPR0142
012024031807NUTR3       010NUTRIPLANT  ON      MA   R$  000000000069600000000007110000000000670000000000069300000000006700000000000670000000000070600122000000000000017400000000000012062900000000000000009999123100000010000000000000BRNUTRACNOR0104
012024031808JFEN3       010JOAO FORTES ON           R$  000000000016500000000001730000000000164000000000016500000000001690000000000164000000000017000022000000000000004000000000000000663500000000000000009999123100000010000000000000BRJFENACNOR0058
012024031808AMER3       010AMERICANAS  ON      NM   R$  000000000005400000000000550000000000053000000000005300000000000530000000000053000000000005403332000000000006055200000000000325570700000000000000009999123100000010000000000000BRAMERACNOR6101
012024031808OIBR3       010OI          ON      N1   R$  000000000007400000000000750000000000069000000000007000000000000700000000000069000000000007004773000000000009329300000000000656366000000000000000009999123100000010000000000000BROIBRACNOR1110
012024031808OIBR4       010OI          PN      N1   R$  000000000018300000000001900000000000177000000000018000000000001780000000000178000000000017900130000000000000061000000000000011001600000000000000009999123100000010000000000000BROIBRACNPR8109
012024031808OSXB3       010OSX BRASIL  ON      NM   R$  000000000044100000000004440000000000436000000000044100000000004400000000000439000000000044200006000000000000001100000000000000485300000000000000009999123100000010000000000000BROSXBACNOR8109
012024031808RNEW11      010RENOVA      UNT     N2   R$  000000000035300000000003690000000000353000000000035600000000003640000000000360000000000036500040000000000000013200000000000004708400000000000000009999123100000010000000000000BRRNEWCDAM15110
012024031808RNEW3       010RENOVA      ON      N2   R$  000000000011900000000001230000000000119000000000012000000000001200000000000119000000000012000123000000000000047400000000000005720600000000000000009999123100000010000000000000BRRNEWACNOR8110
012024031808RNEW4       010RENOVA      PN      N2   R$  000000000012000000000001250000000000117000000000012100000000001210000000000119000000000012100304000000000000242500000000000029449000000000000000009999123100000010000000000000BRRNEWACNPR5110
012024031808RPMG3       010PET MANGUINHON           R$  000000000021000000000002100000000000202000000000020500000000002060000000000205000000000020800015000000000000006300000000000001297000000000000000009999123100000010000000000000BRRPMGACNOR9194
012024031808PMAM3       010PARANAPANEMAON      NM   R$  000000000036800000000003750000000000363000000000036700000000003630000000000363000000000036500084000000000000023000000000000008453700000000000000009999123100000010000000000000BRPMAMACNOR3038
012024031808RSID3       010ROSSI RESID ON      NM   R$  000000000036000000000003690000000000341000000000035200000000003470000000000346000000000034900189000000000000049800000000000017539100000000000000009999123100000010000000000000BRRSIDACNOR8120
012024031808LIGT3       010LIGHT S/A   ON      NM   R$  000000000051000000000005250000000000510000000000051800000000005130000000000513000000000051801335000000000001414400000000000733963700000000000000009999123100000010000000000000BRLIGTACNOR2124
012024031808NEXP3       010NEXPE       ON      NM   R$  000000000045600000000004610000000000455000000000045500000000004550000000000455000000000046500005000000000000001200000000000000547000000000000000009999123100000010000000000000BRNEXPACNOR0101
012024031808BDLL4       010BARDELLA    PN           R$  000000000076200000000007620000000000750000000000075400000000007510000000000715000000000082800006000000000000000600000000000000452500000000000000009999123100000010000000000000BRBDLLACNPR8151
012024031808FRTA3       010POMIFRUTAS  ON      NM   R$  000000000013500000000001350000000000133000000000013300000000001340000000000133000000000013700014000000000000011500000000000001540500000000000000009999123100000010000000000000BRFRTAACNOR8103
012024031808ATMP3       010ATMASA      ON           R$  000000000026600000000002690000000000256000000000026100000000002590000000000255000000000025900027000000000000005700000000000001489000000000000000009999123100000010000000000000BRATMPACNOR8100
012024031808ETER3       010ETERNIT     ON      NM   R$  000000000070600000000007130000000000700000000000070600000000007050000000000705000000000070800585000000000000193100000000000136364700000000000000009999123100000010000000000000BRETERACNOR3243
012024031810MGLU9       010MAGAZ LUIZA ON  REC NM   R$  000000000019500000000002060000000000195000000000020200000000002060000000000205000000000020600133000000000000138700000000000028048100000000000000009999123100000010000000000000BRMGLUR01OR7122
012024031810ABCB10      010ABC BRASIL  PN  REC N2   R$  000000000245500000000024550000000002390000000000241700000000023900000000001900000000000242700006000000000000001100000000000002659500000000000000009999123100000010000000000000BRABCBR19PR1144
012024031810GFSA1       010GAFISA      DIR ORD NM   R$  000000000016000000000001600000000000030000000000008100000000000570000000000057000000000006700326000000000000320100000000000025928700000000000000009999123100000010000000000000BRGFSAD10OR9123
012024031812SPTW11      010FII SP DOWNTCI           R$  000000000432300000000043730000000004320000000000434800000000043400000000004340000000000437200315000000000000002047000000000008902196000000000000009999123100000010000000000000BRSPTWCTF002232
012024031812ARRI11      010FII ATRIO   CI           R$  000000000091800000000009240000000000914000000000091700000000009240000000000923000000000092400608000000000000029098000000000026708840000000000000009999123100000010000000000000BRARRICTF009157
012024031812ARXD11      010FII ARXD R  CI           R$  000000000942500000000094250000000009370000000000938500000000094250000000009425000000000965000005000000000000000999000000000009376250000000000000009999123100000010000000000000BRARXDCTF008112
012024031812CPOF11      010FII CPOF    CI  ER       R$  000000001060000000000106000000000010600000000001060000000000106000000000000000000000001070000001000000000000000001000000000000010600000000000000009999123100000010000000000000BRCPOFCTF002103
012024031812CPSH11      010FII CPSH    CI           R$  000000001080100000000108300000000010800000000001082200000000108300000000010801000000001083000489000000000000001821000000000019707483000000000000009999123100000010000000000000BRCPSHCTF017109
012024031812GSFI11      010FII GENERAL CI           R$  000000000078600000000007900000000000784000000000078900000000007900000000000786000000000079100085000000000000007993000000000006312320000000000000009999123100000010000000000000BRGSFICTF009102
012024031812GTWR11      010FII G TOWERSCI           R$  000000000855000000000087000000000008550000000000861800000000086030000000008576000000000860402837000000000000016754000000000144393578000000000000009999123100000010000000000000BRGTWRCTF003160
012024031812GZIT11      010FII GAZIT   CI           R$  000000000686000000000069000000000006805000000000684400000000068340000000006834000000000683501645000000000000005919000000000040510637000000000000009999123100000010000000000000BRGZITCTF005104
012024031812CPTS11      010FII CAPI SECCI  ER       R$  000000000084000000000008470000000000839000000000084300000000008460000000000845000000000084630227000000000000739456000000000623432049000000000000009999123100000010000000000000BRCPTSCTF004228
012024031812CRFF11      010FII CX RBRA2CI           R$  000000000800200000000080310000000007916000000000800200000000079160000000007921000000000800200008000000000000000017000000000000136036000000000000009999123100000010000000000000BRCRFFCTF006158
012024031812HAAA11      010FII HEDGEAAACI           R$  000000000432800000000046300000000004328000000000452500000000043800000000004370000000000463000011000000000000000039000000000000176494000000000000009999123100000010000000000000BRHAAACTF003140
012024031812HABT11      010FII HABIT IICI           R$  000000000916300000000091830000000009144000000000916200000000091770000000009173000000000917701336000000000000009780000000000089607108000000000000009999123100000010000000000000BRHABTCTF001157
012024031812HCHG11      010FII HECT CRICI           R$  000000000737000000000074720000000007357000000000737500000000073570000000007365000000000754900337000000000000000470000000000003466288000000000000009999123100000010000000000000BRHCHGCTF001134
012024031812EQIR11      010FII EQI RECECI           R$  000000000091000000000009150000000000905000000000091000000000009150000000000908000000000091500393000000000000025447000000000023160822000000000000009999123100000010000000000000BREQIRCTF003129
012024031812AFHI11      010FII AFHI CRICI  ER       R$  000000000979800000000098280000000009744000000000979100000000097890000000009789000000000979401488000000000000010265000000000100512703000000000000009999123100000010000000000000BRAFHICTF005139
012024031812AIEC11      010FII AUTONOMYCI           R$  000000000503900000000050390000000005008000000000502700000000050300000000005018000000000503000410000000000000005367000000000026981739000000000000009999123100000010000000000000BRAIECCTF009142
012024031812RVBI11      010FII VBI REITCI  ER       R$  000000000867500000000086880000000008535000000000865000000000086860000000008686000000000868700765000000000000003128000000000027059668000000000000009999123100000010000000000000BRRVBICTF009149
012024031812RZAK11      010FII RIZA AKNCI  ER       R$  000000000889900000000089000000000008806000000000884300000000088160000000008816000000000881705838000000000000032890000000000290875279000000000000009999123100000010000000000000BRRZAKCTF008141
012024031812RZAT11      010FII ARCTIUM CI  ER       R$  000000000975000000000097990000000009725000000000975500000000097520000000009750000000000975203489000000000000009446000000000092154523000000000000009999123100000010000000000000BRRZATCTF009114
012024031812RZTR11      010FII RIZA TX CI           R$  000000000944600000000095490000000009442000000000949400000000095000000000009500000000000950911150000000000000044352000000000421083378000000000000009999123100000010000000000000BRRZTRCTF003145
012024031812EDFO11      010FII OURINVESCI           R$  000000002079500000000207950000000020795000000002079500000000207950000000020220000000002079500002000000000000000005000000000000103975000000000000009999123100000010000000000000BREDFOCTF004320
012024031812URPR11      010FII URCA RENCI           R$  000000000880600000000088460000000008806000000000883100000000088310000000008831000000000884002022000000000000019206000000000169614138000000000000009999123100000010000000000000BRURPRCTF002155
012024031812EDGA11      010FII GALERIA CI           R$  000000000202000000000020350000000002020000000000202900000000020330000000002022000000000203300036000000000000001235000000000002506511000000000000009999123100000010000000000000BREDGACTF001238
012024031812GGRC11      010FII GGRCOVEPCI           R$  000000000114600000000011490000000001134000000000114000000000011390000000001138000000000113908368000000000000291406000000000332459404000000000000009999123100000010000000000000BRGGRCCTF002190
012024031812GLOG11      010FII PLURAL LCI           R$  000000000654900000000067120000000006518000000000659700000000066000000000006600000000000668900020000000000000000373000000000002460784000000000000009999123100000010000000000000BRGLOGCTF000110
012024031812JCCJ11      010FII JHSF CJ CI           R$  000000001182500000000118250000000011825000000001182500000000118250000000011830000000001300000001000000000000000001000000000000011825000000000000009999123100000010000000000000BRJCCJCTF002108
012024031812JFLL11      010FII JFL LIV CI           R$  000000000745000000000074700000000007399000000000744600000000074500000000007420000000000745500374000000000000005096000000000037947015000000000000009999123100000010000000000000BRJFLLCTF002137
