00COTAHIST.2024BOVESPA 20240722                                                                                                                                                                                                                      
012024072202HAGA3       010HAGA S/A    ON           R$  000000000027500000000002760000000000261000000000027000000000002740000000000264000000000027400022000000000000028900000000000007812700000000000000009999123100000010000000000000BRHAGAACNOR7103
012024072202HAGA4       010HAGA S/A    PN           R$  000000000011700000000001170000000000116000000000011600000000001160000000000116000000000011800009000000000000003500000000000000407100000000000000009999123100000010000000000000BRHAGAACNPR4103
012024072202HAPV3       010HAPVIDA     ON      NM   R$  000000000039000000000003950000000000387000000000039100000000003920000000000391000000000039217703000000000035465500000000013876278200000000000000009999123100000010000000000000BRHAPVACNOR4114
012024072202MULT3       010MULTIPLAN   ON      N2   R$  000000000242700000000025760000000002419000000000254300000000025610000000002560000000000246634884000000000009776300000000024865963500000000000000009999123100000010000000000000BRMULTACNOR5139
012024072202ARML3       010ARMAC       ON      NM   R$  000000000098100000000010220000000000977000000000099800000000009960000000000996000000000099803466000000000000834500000000000832874600000000000000009999123100000010000000000000BRARMLACNOR1112
012024072202ARZZ3       010AREZZO CO   ON  ED  NM   R$  000000000522900000000053790000000005229000000000532400000000053430000000005339000000000536705616000000000001302500000000006934778800000000000000009999123100000010000000000000BRARZZACNOR3147
012024072202ASAI3       010ASSAI       ON      NM   R$  000000000105500000000010780000000001055000000000106700000000010700000000001069000000000107013061000000000006418700000000006851786200000000000000009999123100000010000000000000BRASAIACNOR0106
012024072202ATOM3       010ATOMPAR     ON           R$  000000000020000000000002050000000000200000000000020200000000002010000000000201000000000020300012000000000000002200000000000000445400000000000000009999123100000010000000000000BRATOMACNOR1106
012024072202IRBR3       010IRBBRASIL REON      NM   R$  000000000300000000000031160000000003000000000000307600000000030930000000003091000000000307504304000000000001043100000000003209344200000000000000009999123100000010000000000000BRIRBRACNOR4111
012024072202LUPA3       010LUPATECH    ON      NM   R$  000000000017300000000001980000000000172000000000018700000000001890000000000187000000000018900515000000000000575400000000000107642500000000000000009999123100000010000000000000BRLUPAACNOR8112
012024072202LVTC3       010WDC NETWORKSON      NM   R$  000000000035100000000003550000000000351000000000035300000000003530000000000352000000000035500025000000000000003500000000000001237700000000000000009999123100000010000000000000BRLVTCACNOR4102
012024072202LWSA3       010LWSA        ON      NM   R$  000000000043500000000004580000000000435000000000045000000000004520000000000451000000000045313892000000000007831900000000003529151200000000000000009999123100000010000000000000BRLWSAACNOR8103
012024072202LAND3       010TERRASANTAPAON      NM   R$  000000000143700000000014960000000001424000000000147000000000014510000000001444000000000146100272000000000000031100000000000045717400000000000000009999123100000010000000000000BRLANDACNOR9103
012024072202LAVV3       010LAVVI       ON      NM   R$  000000000091000000000009340000000000910000000000092700000000009280000000000923000000000092801190000000000000264200000000000245065200000000000000009999123100000010000000000000BRLAVVACNOR4112
012024072202LEVE3       010METAL LEVE  ON      NM   R$  000000000333500000000033440000000003314000000000333200000000033390000000003333000000000334000867000000000000159300000000000530788400000000000000009999123100000010000000000000BRLEVEACNOR2197
012024072202LIPR3       010ELETROPAR   ON           R$  000000000484200000000048420000000004842000000000484200000000048420000000004800000000000518900001000000000000000100000000000000484200000000000000009999123100000010000000000000BRLIPRACNOR7122
012024072202LJQQ3       010QUERO-QUERO ON      NM   R$  000000000040900000000004250000000000409000000000041700000000004220000000000421000000000042302920000000000001490700000000000621706900000000000000009999123100000010000000000000BRLJQQACNOR5104
012024072202LOGG3       010LOG COM PROPON      NM   R$  000000000231600000000023210000000002283000000000230100000000022830000000002282000000000229700968000000000000119500000000000274973000000000000000009999123100000010000000000000BRLOGGACNOR7107
012024072202BAHI3       010BAHEMA      ON      MA   R$  000000000064900000000006510000000000649000000000065000000000006510000000000635000000000066500005000000000000001600000000000001040300000000000000009999123100000010000000000000BRBAHIACNOR1074
012024072202BAZA3       010AMAZONIA    ON           R$  000000000915900000000093000000000009158000000000925100000000092990000000009133000000000930000026000000000000003200000000000029603500000000000000009999123100000010000000000000BRBAZAACNOR0179
012024072202BBAS3       010BRASIL      ON      NM   R$  000000000271700000000027310000000002702000000000271900000000027140000000002713000000000271423270000000000011566500000000031456851300000000000000009999123100000010000000000000BRBBASACNOR3324
012024072202BMEB4       010MERCANTIL   PN      N1   R$  000000000310000000000031300000000003060000000000308700000000031080000000003051000000000310000032000000000000004700000000000014513300000000000000009999123100000010000000000000BRBMEBACNPR5210
012024072202BMGB4       010BANCO BMG   PN      N1   R$  000000000037400000000003750000000000371000000000037300000000003720000000000372000000000037401087000000000000640200000000000238900700000000000000009999123100000010000000000000BRBMGBACNPR0109
012024072202BMKS3       010BIC MONARK  ON           R$  000000003400000000000340000000000032915000000003345700000000329150000000032900000000003349000002000000000000000002000000000000066915000000000000009999123100000010000000000000BRBMKSACNOR9166
012024072202BMOB3       010BEMOBI TECH ON      NM   R$  000000000145900000000014980000000001459000000000148600000000014920000000001487000000000149200533000000000000077400000000000115065900000000000000009999123100000010000000000000BRBMOBACNOR7103
012024072202BOBR4       010BOMBRIL     PN           R$  000000000020700000000002070000000000202000000000020300000000002060000000000202000000000020500017000000000000005400000000000001099900000000000000009999123100000010000000000000BRBOBRACNPR3128
012024072202QUAL3       010QUALICORP   ON      NM   R$  000000000016400000000001670000000000162000000000016500000000001660000000000165000000000016601114000000000002154400000000000355992900000000000000009999123100000010000000000000BRQUALACNOR6120
012024072202AVLL3       010ALPHAVILLE  ON      NM   R$  000000000035500000000003550000000000355000000000035500000000003550000000000320000000000038400001000000000000000400000000000000142000000000000000009999123100000010000000000000BRAVLLACNOR5103
012024072202AZEV3       010AZEVEDO     ON           R$  000000000016100000000001640000000000157000000000015900000000001570000000000157000000000015800696000000000000644000000000000102734500000000000000009999123100000010000000000000BRAZEVACNOR0121
012024072202AZEV4       010AZEVEDO     PN           R$  000000000016100000000001650000000000156000000000015900000000001580000000000158000000000015901233000000000002608700000000000416310500000000000000009999123100000010000000000000BRAZEVACNPR7121
012024072202AZUL4       010AZUL        PN      N2   R$  000000000084500000000008660000000000836000000000085100000000008360000000000836000000000083808189000000000010573400000000009003369900000000000000009999123100000010000000000000BRAZULACNPR4102
012024072202VITT3       010VITTIA      ON      NM   R$  000000000061500000000006310000000000606000000000061700000000006310000000000617000000000063100990000000000000127600000000000078812600000000000000009999123100000010000000000000BRVITTACNOR4107
012024072202VIVA3       010VIVARA S.A. ON      NM   R$  000000000227800000000023260000000002256000000000229800000000022930000000002289000000000229406966000000000001912100000000004395118000000000000000009999123100000010000000000000BRVIVAACNOR0107
012024072202RECV3       010PETRORECSA  ON      NM   R$  000000000209400000000021130000000002055000000000209300000000020950000000002095000000000209808970000000000002123500000000004446595800000000000000009999123100000010000000000000BRRECVACNOR3107
012024072202REDE3       010REDE ENERGIAON           R$  000000000069500000000007020000000000694000000000069700000000006970000000000694000000000069700014000000000000002600000000000001813800000000000000009999123100000010000000000000BRREDEACNOR7128
012024072202RENT3       010LOCALIZA    ON      NM   R$  000000000435200000000043800000000004290000000000433100000000042950000000004344000000000429524380000000000007415700000000032122912000000000000000009999123100000010000000000000BRRENTACNOR4196
012024072202SYNE3       010SYN PROP TECON      NM   R$  000000000103300000000010370000000001022000000000103100000000010350000000001031000000000103500498000000000000106900000000000110220200000000000000009999123100000010000000000000BRSYNEACNOR2102
012024072202TAEE11      010TAESA       UNT     N2   R$  000000000340900000000034300000000003395000000000341200000000034080000000003406000000000341007524000000000001608800000000005490750700000000000000009999123100000010000000000000BRTAEECDAM10147
012024072202TAEE3       010TAESA       ON      N2   R$  000000000112900000000011360000000001122000000000112800000000011360000000001130000000000113600846000000000000134200000000000151500000000000000000009999123100000010000000000000BRTAEEACNOR9147
012024072202TAEE4       010TAESA       PN      N2   R$  000000000114700000000011520000000001139000000000114400000000011450000000001144000000000114501217000000000000257600000000000294746900000000000000009999123100000010000000000000BRTAEEACNPR6147
012024072202VAMO3       010VAMOS       ON      NM   R$  000000000089300000000009100000000000874000000000089700000000009010000000000900000000000090213863000000000005260200000000004719910200000000000000009999123100000010000000000000BRVAMOACNOR7105
012024072202PDGR3       010PDG REALT   ON      NM   R$  000000000001900000000000190000000000017000000000001800000000000180000000000018000000000001900520000000000003186100000000000057417900000000000000009999123100000010000000000000BRPDGRACNOR8118
012024072202PDTC3       010PADTEC      ON      NM   R$  000000000018700000000001910000000000185000000000018700000000001850000000000185000000000018800048000000000000014000000000000002624500000000000000009999123100000010000000000000BRPDTCACNOR3101
012024072202PEAB3       010PAR AL BAHIAON           R$  000000000435000000000043500000000004350000000000435000000000043500000000000000000000000450000001000000000000000100000000000000435000000000000000009999123100000010000000000000BRPEABACNOR3133
012024072202PETR3       010PETROBRAS   ON      N2   R$  000000000415500000000041800000000004105000000000412700000000041070000000004106000000000410713860000000000006091300000000025142940300000000000000009999123100000010000000000000BRPETRACNOR9205
012024072202PETR4       010PETROBRAS   PN      N2   R$  000000000385900000000038590000000003788000000000381300000000037920000000003847000000000379342547000000000025807800000000098425810600000000000000009999123100000010000000000000BRPETRACNPR6213
012024072202RANI3       010IRANI       ON      NM   R$  000000000089100000000009150000000000888000000000090300000000009120000000000911000000000091302603000000000000923700000000000834493600000000000000009999123100000010000000000000BRRANIACNOR5072
012024072202RAPT3       010RANDON PART ON      N1   R$  000000000099000000000009960000000000982000000000099000000000009820000000000982000000000098800187000000000000060700000000000060096200000000000000009999123100000010000000000000BRRAPTACNOR7162
012024072202RAPT4       010RANDON PART PN      N1   R$  000000000117700000000011920000000001161000000000117900000000011830000000001181000000000118303669000000000001852000000000002185186500000000000000009999123100000010000000000000BRRAPTACNPR4162
012024072202NEOE3       010NEOENERGIA  ON      NM   R$  000000000185800000000018690000000001846000000000185900000000018570000000001857000000000186502021000000000000513900000000000955530200000000000000009999123100000010000000000000BRNEOEACNOR3123
012024072202NGRD3       010NEOGRID     ON      NM   R$  000000000011100000000001130000000000107000000000010800000000001080000000000107000000000010800526000000000000604000000000000065570300000000000000009999123100000010000000000000BRNGRDACNOR3104
012024072202NINJ3       010GETNINJAS   ON      NM   R$  000000000045900000000004730000000000458000000000046300000000004600000000000460000000000046800030000000000000007700000000000003569600000000000000009999123100000010000000000000BRNINJACNOR5101
012024072202SANB11      010SANTANDER BRUNT EJ       R$  000000000286200000000028850000000002843000000000286800000000028700000000002868000000000243207923000000000001961300000000005625948900000000000000009999123100000010000000000000BRSANBCDAM13165
012024072202SANB3       010SANTANDER BRON  EJ       R$  000000000134600000000013660000000001346000000000135700000000013540000000001354000000000136600684000000000000127200000000000172639800000000000000009999123100000010000000000000BRSANBACNOR8172
012024072202SANB4       010SANTANDER BRPN  EJ       R$  000000000150100000000015150000000001490000000000150300000000015010000000001501000000000150200663000000000000120300000000000180897200000000000000009999123100000010000000000000BRSANBACNPR5172
012024072202TRAD3       010TC          ON  EG  NM   R$  000000000035300000000004270000000000349000000000038300000000003980000000000385000000000039800646000000000000267700000000000102555700000000000000009999123100000010000000000000BRTRADACNOR3102
012024072202TRIS3       010TRISUL      ON      NM   R$  000000000050300000000005200000000000503000000000051300000000005150000000000515000000000051600942000000000000830900000000000426920600000000000000009999123100000010000000000000BRTRISACNOR4118
012024072202TRPL3       010TRAN PAULISTON      N1   R$  000000000318500000000032200000000003175000000000319400000000032200000000003173000000000322000016000000000000002300000000000007348400000000000000009999123100000010000000000000BRTRPLACNOR4185
012024072202TRPL4       010TRAN PAULISTPN      N1   R$  000000000245100000000024790000000002442000000000245800000000024660000000002464000000000246327064000000000010420500000000025620051900000000000000009999123100000010000000000000BRTRPLACNPR1185
012024072202NORD3       010NORDON MET  ON           R$  000000000054100000000005500000000000541000000000054500000000005500000000000550000000000061900003000000000000000400000000000000218200000000000000009999123100000010000000000000BRNORDACNOR7135
012024072202NTCO3       010GRUPO NATURAON      NM   R$  000000000151000000000015160000000001499000000000150500000000015030000000001503000000000150509753000000000003701200000000005571964200000000000000009999123100000010000000000000BRNTCOACNOR5106
012024072202PRNR3       010PRINER      ON      NM   R$  000000000107100000000010800000000001065000000000107400000000010750000000001074000000000107600808000000000000131500000000000141251300000000000000009999123100000010000000000000BRPRNRACNOR4109
012024072202PSSA3       010PORTO SEGUROON      NM   R$  000000000303000000000030400000000003017000000000302800000000030400000000003031000000000304003993000000000001194400000000003617670800000000000000009999123100000010000000000000BRPSSAACNOR7155
012024072202PTBL3       010PORTOBELLO  ON      NM   R$  000000000048100000000005020000000000481000000000049500000000005010000000000500000000000049601140000000000000492900000000000244369700000000000000009999123100000010000000000000BRPTBLACNOR8132
012024072202PTNT3       010PETTENATI   ON           R$  000000000098000000000009800000000000968000000000097600000000009790000000000936000000000097900004000000000000000400000000000000390700000000000000009999123100000010000000000000BRPTNTACNOR6042
012024072202PTNT4       010PETTENATI   PN           R$  000000000062500000000006700000000000620000000000064900000000006700000000000642000000000067000109000000000000036000000000000023365600000000000000009999123100000010000000000000BRPTNTACNPR3047
012024072202TTEN3       0103TENTOS     ON      NM   R$  000000000110600000000011060000000001078000000000109000000000010990000000001094000000000108303406000000000000591400000000000644693800000000000000009999123100000010000000000000BRTTENACNOR0103
012024072202TUPY3       010TUPY        ON      NM   R$  000000000258800000000026140000000002559000000000259400000000025970000000002591000000000259701384000000000000244000000000000633158600000000000000009999123100000010000000000000BRTUPYACNOR1184
012024072202UCAS3       010UNICASA     ON      NM   R$  000000000022800000000002300000000000224000000000022600000000002300000000000228000000000022900075000000000000013600000000000003084100000000000000009999123100000010000000000000BRUCASACNOR1113
012024072202UGPA3       010ULTRAPAR    ON      NM   R$  000000000232500000000023440000000002288000000000231500000000023080000000002308000000000231513430000000000003950500000000009148240200000000000000009999123100000010000000000000BRUGPAACNOR8155
012024072202VIVR3       010VIVER       ON      NM   R$  000000000023900000000002460000000000238000000000024100000000002400000000000239000000000024000082000000000000050600000000000012231400000000000000009999123100000010000000000000BRVIVRACNOR4123
012024072202VIVT3       010TELEF BRASILON           R$  000000000490200000000049710000000004894000000000494500000000049570000000004956000000000491705067000000000001205300000000005960274100000000000000009999123100000010000000000000BRVIVTACNOR0182
012024072202VLID3       010VALID       ON      NM   R$  000000000165200000000017330000000001647000000000170600000000017140000000001714000000000172302788000000000001064700000000001816918600000000000000009999123100000010000000000000BRVLIDACNOR5143
012024072202VSTE3       010VESTE       ON      NM   R$  000000000138900000000014360000000001389000000000140100000000013980000000001397000000000141900022000000000000003100000000000004343300000000000000009999123100000010000000000000BRVSTEACNOR5103
012024072202VTRU3       010VITRUEDUCA  ON      NM   R$  000000000133600000000013900000000001328000000000135700000000013900000000001349000000000139000195000000000000035300000000000047914000000000000000009999123100000010000000000000BRVTRUACNOR3100
012024072202VULC3       010VULCABRAS   ON      NM   R$  000000000156300000000015740000000001553000000000156200000000015640000000001560000000000156401406000000000000247500000000000386788900000000000000009999123100000010000000000000BRVULCACNOR2159
012024072202VVEO3       010VIVEO       ON      NM   R$  000000000023900000000002500000000000234000000000024300000000002480000000000247000000000025004000000000000001713900000000000417657200000000000000009999123100000010000000000000BRVVEOACNOR0104
012024072202AALR3       010ALLIAR      ON      NM   R$  000000000126000000000012750000000001183000000000124500000000011830000000001183000000000118800193000000000000079700000000000099281400000000000000009999123100000010000000000000BRAALRACNOR6102
012024072202EQPA3       010EQTL PARA   ON           R$  000000000073800000000007420000000000682000000000070900000000007380000000000727000000000074000013000000000000002100000000000001490400000000000000009999123100000010000000000000BREQPAACNOR1111
012024072202EQTL3       010EQUATORIAL  ON      NM   R$  000000000324500000000033260000000003244000000000330100000000033150000000003312000000000330624254000000000008609700000000028421966600000000000000009999123100000010000000000000BREQTLACNOR0130
012024072202ESPA3       010ESPACOLASER ON      NM   R$  000000000010400000000001060000000000101000000000010300000000001030000000000102000000000010300182000000000000446500000000000046166600000000000000009999123100000010000000000000BRESPAACNOR7103
012024072202ESTR4       010ESTRELA     PN           R$  000000000019600000000001960000000000196000000000019600000000001960000000000196000000000020500001000000000000000100000000000000019600000000000000009999123100000010000000000000BRESTRACNPR0144
012024072202EUCA3       010EUCATEX     ON      N1   R$  000000000168300000000016830000000001682000000000168200000000016820000000001626000000000168200002000000000000000200000000000000336500000000000000009999123100000010000000000000BREUCAACNOR1157
012024072202EUCA4       010EUCATEX     PN      N1   R$  000000000161600000000016280000000001595000000000161200000000016270000000001627000000000162800200000000000000032400000000000052253800000000000000009999123100000010000000000000BREUCAACNPR8044
012024072202EVEN3       010EVEN        ON      NM   R$  000000000063100000000006380000000000628000000000063300000000006340000000000630000000000063401759000000000000333500000000000211360300000000000000009999123100000010000000000000BREVENACNOR8119
012024072202EZTC3       010EZTEC       ON      NM   R$  000000000142400000000014800000000001424000000000146100000000014750000000001468000000000147502384000000000000988500000000001444442600000000000000009999123100000010000000000000BREZTCACNOR0125
012024072202ITSA3       010ITAUSA      ON      N1   R$  000000000103500000000010420000000001033000000000103800000000010400000000001037000000000104000212000000000000066500000000000069040200000000000000009999123100000010000000000000BRITSAACNOR0441
012024072202MAPT4       010CEMEPE      PN           R$  000000000055000000000005500000000000550000000000055000000000005500000000000540000000000058200003000000000000000400000000000000220000000000000000009999123100000010000000000000BRMAPTACNPR5106
012024072202MATD3       010MATER DEI   ON      NM   R$  000000000045500000000004700000000000453000000000046300000000004600000000000459000000000046001696000000000000713500000000000330423500000000000000009999123100000010000000000000BRMATDACNOR4104
012024072202MBLY3       010MOBLY       ON      NM   R$  000000000025900000000002630000000000252000000000025700000000002550000000000255000000000026001720000000000000672100000000000173349800000000000000009999123100000010000000000000BRMBLYACNOR5100
012024072202MDIA3       010M.DIASBRANCOON      NM   R$  000000000289000000000028950000000002856000000000287900000000028770000000002875000000000288601081000000000000247900000000000713704500000000000000009999123100000010000000000000BRMDIAACNOR7135
012024072202MDNE3       010MOURA DUBEUXON      NM   R$  000000000132200000000013520000000001316000000000134200000000013520000000001344000000000135201327000000000000266800000000000358111400000000000000009999123100000010000000000000BRMDNEACNOR9100
012024072202MEAL3       010IMC S/A     ON      NM   R$  000000000014400000000001560000000000144000000000015200000000001530000000000152000000000015301853000000000001099600000000000168200900000000000000009999123100000010000000000000BRMEALACNOR9105
012024072202MELK3       010MELNICK     ON      NM   R$  000000000036300000000003690000000000362000000000036500000000003690000000000365000000000036900216000000000000100200000000000036595800000000000000009999123100000010000000000000BRMELKACNOR8111
012024072202MGEL4       010MANGELS INDLPN           R$  000000000131600000000013170000000001310000000000131400000000013100000000001310000000000134900006000000000000000700000000000000920300000000000000009999123100000010000000000000BRMGELACNPR3147
012024072202MGLU3       010MAGAZ LUIZA ON      NM   R$  000000000126600000000012830000000001233000000000125400000000012330000000001267000000000123419329000000000020886800000000026203222100000000000000009999123100000010000000000000BRMGLUACNOR2124
012024072202CMIN3       010CSNMINERACAOON      N2   R$  000000000051200000000005210000000000511000000000051500000000005210000000000520000000000052107033000000000006800000000000003507049200000000000000009999123100000010000000000000BRCMINACNOR2111
012024072202COCE5       010COELCE      PNA          R$  000000000311700000000031190000000003045000000000306500000000030450000000003037000000000311800020000000000000002600000000000007970000000000000000009999123100000010000000000000BRCOCEACNPA3147
012024072202COGN3       010COGNA ON    ON      NM   R$  000000000016800000000001710000000000167000000000016900000000001690000000000169000000000017007145000000000018322000000000003099617700000000000000009999123100000010000000000000BRCOGNACNOR2104
012024072202ENAT3       010ENAUTA PART ON      NM   R$  000000000217900000000021940000000002158000000000218100000000021830000000002184000000000218404800000000000001113200000000002427961200000000000000009999123100000010000000000000BRENATACNOR0104
012024072202ENEV3       010ENEVA       ON      NM   R$  000000000125300000000012950000000001250000000000128200000000012850000000001285000000000129214989000000000005064500000000006495493800000000000000009999123100000010000000000000BRENEVACNOR8106
012024072202ENGI11      010ENERGISA    UNT     N2   R$  000000000462100000000047170000000004587000000000469000000000046920000000004691000000000469313389000000000002436900000000011430075600000000000000009999123100000010000000000000BRENGICDAM16135
012024072202ENGI3       010ENERGISA    ON      N2   R$  000000000148500000000014850000000001456000000000146600000000014660000000001465000000000148200026000000000000002600000000000003812400000000000000009999123100000010000000000000BRENGIACNOR0145
012024072202ENGI4       010ENERGISA    PN      N2   R$  000000000079100000000008150000000000790000000000080500000000008040000000000804000000000081400024000000000000005300000000000004271600000000000000009999123100000010000000000000BRENGIACNPR7141
012024072202ENJU3       010ENJOEI      ON      NM   R$  000000000019000000000001940000000000184000000000018700000000001850000000000185000000000018600550000000000000776700000000000145563100000000000000009999123100000010000000000000BRENJUACNOR9100
012024072202ENMT4       010ENERGISA MT PN           R$  000000000789900000000078990000000007899000000000789900000000078990000000000000000000000794900012000000000000001900000000000015008100000000000000009999123100000010000000000000BRENMTACNPR2126
012024072202EPAR3       010EMBPAR S/A  ON           R$  000000000060500000000006100000000000592000000000059700000000005930000000000592000000000059900033000000000000007200000000000004300500000000000000009999123100000010000000000000BREPARACNOR9105
012024072202IFCM3       010INFRACOMM   ON      NM   R$  000000000003500000000000370000000000035000000000003600000000000370000000000036000000000003705472000000000004372800000000000158159200000000000000009999123100000010000000000000BRIFCMACNOR8101
012024072202IGTI11      010IGUATEMI S.AUNT     N1   R$  000000000214500000000022230000000002139000000000219600000000021980000000002198000000000220713277000000000003562600000000007823586100000000000000009999123100000010000000000000BRIGTICDAM16106
012024072202IGTI3       010IGUATEMI S.AON      N1   R$  000000000026500000000002750000000000265000000000026900000000002730000000000271000000000027300191000000000000070600000000000019017300000000000000009999123100000010000000000000BRIGTIACNOR8106
012024072202IGTI4       010IGUATEMI S.APN      N1   R$  000000000097000000000009700000000000970000000000097000000000009700000000000900000000000108500003000000000000000500000000000000485000000000000000009999123100000010000000000000BRIGTIACNPR5106
012024072202INEP3       010INEPAR      ON           R$  000000000018200000000001900000000000182000000000018600000000001900000000000187000000000019000095000000000000046800000000000008747300000000000000009999123100000010000000000000BRINEPACNOR1143
012024072202INEP4       010INEPAR      PN           R$  000000000018000000000001900000000000175000000000018300000000001820000000000177000000000018200122000000000000082700000000000015161300000000000000009999123100000010000000000000BRINEPACNPR8143
012024072202INTB3       010INTELBRAS   ON      NM   R$  000000000219000000000022280000000002182000000000221500000000022200000000002217000000000222404013000000000001229300000000002723635500000000000000009999123100000010000000000000BRINTBACNOR9111
012024072202SIMH3       010SIMPAR      ON      NM   R$  000000000064000000000006490000000000624000000000063500000000006320000000000632000000000063405220000000000003019500000000001920322300000000000000009999123100000010000000000000BRSIMHACNOR0107
012024072202SLCE3       010SLC AGRICOLAON      NM   R$  000000000193300000000019330000000001893000000000190200000000019000000000001900000000000190807410000000000001977800000000003762350300000000000000009999123100000010000000000000BRSLCEACNOR2125
012024072202VALE3       010VALE        ON      NM   R$  000000000611200000000061270000000006073000000000609600000000061050000000006105000000000610633049000000000013095200000000079833446900000000000000009999123100000010000000000000BRVALEACNOR0210
012024072202WEST3       010WESTWING    ON      NM   R$  000000000008800000000000890000000000086000000000008700000000000870000000000086000000000008800042000000000000022300000000000001948300000000000000009999123100000010000000000000BRWESTACNOR3100
012024072202WHRL4       010WHIRLPOOL   PN           R$  000000000045400000000004540000000000453000000000045300000000004530000000000453000000000045400005000000000000001000000000000000453900000000000000009999123100000010000000000000BRWHRLACNPR2128
012024072202WIZC3       010WIZ CO      ON      NM   R$  000000000059000000000006040000000000588000000000059700000000005980000000000597000000000059801359000000000000268200000000000160155900000000000000009999123100000010000000000000BRWIZCACNOR5102
012024072202WLMM3       010WLM IND COM ON           R$  000000000244000000000024400000000002440000000000244000000000024400000000002440000000000255000004000000000000000900000000000002196000000000000000009999123100000010000000000000BRWLMMACNOR6118
012024072202WLMM4       010WLM IND COM PN           R$  000000000322000000000032200000000003079000000000312000000000030790000000002702000000000312900010000000000000001200000000000003744000000000000000009999123100000010000000000000BRWLMMACNPR3118
012024072202YDUQ3       010YDUQS PART  ON      NM   R$  000000000113500000000011530000000001135000000000114400000000011450000000001148000000000114604516000000000001353700000000001549321900000000000000009999123100000010000000000000BRYDUQACNOR3105
012024072202PFRM3       010PROFARMA    ON      NM   R$  000000000055900000000005640000000000545000000000055400000000005490000000000548000000000055000746000000000000186400000000000103271200000000000000009999123100000010000000000000BRPFRMACNOR1116
012024072202PGMN3       010PAGUE MENOS ON      NM   R$  000000000026500000000002780000000000264000000000027000000000002780000000000277000000000027801086000000000000947600000000000255910900000000000000009999123100000010000000000000BRPGMNACNOR8103
012024072202PINE3       010PINE        ON      N2   R$  000000000056600000000005660000000000539000000000056100000000005390000000000539000000000057000005000000000000001200000000000000673900000000000000009999123100000010000000000000BRPINEACNOR1150
012024072202PINE4       010PINE        PN      N2   R$  000000000042500000000004280000000000417000000000042200000000004200000000000420000000000042200262000000000000085700000000000036206700000000000000009999123100000010000000000000BRPINEACNPR8150
012024072202PLAS3       010PLASCAR PARTON           R$  000000000055200000000005520000000000552000000000055200000000005520000000000550000000000059800003000000000000000400000000000000220800000000000000009999123100000010000000000000BRPLASACNOR2106
012024072202PLPL3       010PLANOEPLANO ON      NM   R$  000000000111500000000011780000000001105000000000114400000000011770000000001177000000000117802437000000000001070300000000001224527200000000000000009999123100000010000000000000BRPLPLACNOR5104
012024072202PNVL3       010DIMED       ON      NM   R$  000000000099000000000010180000000000990000000000100600000000010130000000001007000000000101301068000000000000170900000000000171933000000000000000009999123100000010000000000000BRPNVLACNOR9207
012024072202POMO3       010MARCOPOLO   ON      N2   R$  000000000052300000000005230000000000511000000000051400000000005130000000000510000000000051300254000000000000078100000000000040210100000000000000009999123100000010000000000000BRPOMOACNOR0098
012024072202POMO4       010MARCOPOLO   PN      N2   R$  000000000065900000000006650000000000653000000000065700000000006540000000000654000000000065706046000000000003233600000000002126788100000000000000009999123100000010000000000000BRPOMOACNPR7098
012024072202PORT3       010WILSON SONS ON  ED  NM   R$  000000000158300000000016090000000001578000000000159900000000016070000000001600000000000160700576000000000000147100000000000235350400000000000000009999123100000010000000000000BRPORTACNOR8109
012024072202POSI3       010POSITIVO TECON      NM   R$  000000000074200000000007570000000000742000000000075000000000007500000000000748000000000075003165000000000001329800000000000998337400000000000000009999123100000010000000000000BRPOSIACNOR9116
012024072202PRIO3       010PETRORIO    ON  ATZ NM   R$  000000000452500000000045370000000004468000000000449000000000044690000000004468000000000447011313000000000003407900000000015303938000000000000000009999123100000010000000000000BRPRIOACNOR1107
012024072202SAPR11      010SANEPAR     UNT     N2   R$  000000000262200000000026770000000002622000000000265800000000026680000000002654000000000266902616000000000000532200000000001414688700000000000000009999123100000010000000000000BRSAPRCDAM13118
012024072202SAPR3       010SANEPAR     ON      N2   R$  000000000050000000000005120000000000500000000000050600000000005120000000000509000000000051200361000000000000140100000000000071000900000000000000009999123100000010000000000000BRSAPRACNOR9159
012024072202SAPR4       010SANEPAR     PN      N2   R$  000000000053300000000005440000000000533000000000053900000000005400000000000540000000000054102197000000000001023000000000000551992200000000000000009999123100000010000000000000BRSAPRACNPR6159
012024072202SBFG3       010GRUPO SBF   ON      NM   R$  000000000137300000000013860000000001351000000000136400000000013650000000001362000000000136802981000000000001018400000000001389712600000000000000009999123100000010000000000000BRSBFGACNOR1103
012024072202SBSP3       010SABESP      ON      NM   R$  000000000848800000000088660000000008470000000000870800000000087000000000008722000000000853755732000000000020680500000000180097899200000000000000009999123100000010000000000000BRSBSPACNOR5161
012024072202UNIP3       010UNIPAR      ON           R$  000000000502800000000051180000000005028000000000509000000000051050000000005105000000000510600073000000000000009300000000000047338300000000000000009999123100000010000000000000BRUNIPACNOR7206
012024072202UNIP5       010UNIPAR      PNA          R$  000000000519500000000053610000000005195000000000526900000000053600000000005103000000000536200008000000000000000900000000000004742800000000000000009999123100000010000000000000BRUNIPACNPA0208
012024072202UNIP6       010UNIPAR      PNB          R$  000000000510000000000052690000000005094000000000522100000000052340000000005230000000000523901129000000000000202800000000001058936700000000000000009999123100000010000000000000BRUNIPACNPB8206
012024072202USIM3       010USIMINAS    ON      N1   R$  000000000079300000000008010000000000787000000000079500000000008010000000000796000000000080100497000000000000126700000000000100827800000000000000009999123100000010000000000000BRUSIMACNOR3167
012024072202USIM5       010USIMINAS    PNA     N1   R$  000000000085900000000008610000000000840000000000085200000000008560000000000856000000000085706688000000000005545300000000004727361400000000000000009999123100000010000000000000BRUSIMACNPA6169
012024072202WEGE3       010WEG         ON      NM   R$  000000000472900000000047460000000004695000000000471200000000047170000000004710000000000471210731000000000003704000000000017455589600000000000000009999123100000010000000000000BRWEGEACNOR0223
012024072202PETZ3       010PETZ        ON      NM   R$  000000000039200000000003970000000000383000000000038700000000003890000000000388000000000039004422000000000005730700000000002220505200000000000000009999123100000010000000000000BRPETZACNOR2110
012024072202RSUL4       010RIOSULENSE  PN           R$  000000000650000000000065000000000006432000000000645800000000064320000000006431000000000650000015000000000000001600000000000010333900000000000000009999123100000010000000000000BRRSULACNPR3114
012024072202JALL3       010JALLESMACHADON      NM   R$  000000000073100000000007450000000000731000000000073500000000007320000000000731000000000073401111000000000000412900000000000303807500000000000000009999123100000010000000000000BRJALLACNOR0105
012024072202JBSS3       010JBS         ON      NM   R$  000000000311000000000031480000000003082000000000311500000000031350000000003130000000000313510214000000000003671300000000011438022000000000000000009999123100000010000000000000BRJBSSACNOR8121
012024072202JHSF3       010JHSF PART   ON      NM   R$  000000000040300000000004120000000000402000000000040800000000004110000000000410000000000041103228000000000002240600000000000914444900000000000000009999123100000010000000000000BRJHSFACNOR2137
012024072202MTRE3       010MITRE REALTYON  ED  NM   R$  000000000040600000000004110000000000403000000000040600000000004080000000000405000000000040800939000000000000421600000000000171584100000000000000009999123100000010000000000000BRMTREACNOR6113
012024072202MTSA4       010METISA      PN           R$  000000000431000000000043240000000004221000000000428600000000043240000000004270000000000432500013000000000000001300000000000005571900000000000000009999123100000010000000000000BRMTSAACNPR9072
012024072202LOGN3       010LOG-IN      ON      NM   R$  000000000392500000000041250000000003925000000000402000000000041250000000004125000000000420000194000000000000025100000000000100908200000000000000009999123100000010000000000000BRLOGNACNOR3105
012024072202LPSB3       010LOPES BRASILON      NM   R$  000000000018600000000001930000000000186000000000018800000000001880000000000188000000000019000143000000000000051300000000000009694500000000000000009999123100000010000000000000BRLPSBACNOR0114
012024072202LREN3       010LOJAS RENNERON      NM   R$  000000000131400000000013650000000001312000000000134900000000013550000000001528000000000135821164000000000012996000000000017535919400000000000000009999123100000010000000000000BRLRENACNOR1221
012024072202BIOM3       010BIOMM       ON      MA   R$  000000000124200000000012420000000001182000000000120800000000011820000000001182000000000118900203000000000000045100000000000054498500000000000000009999123100000010000000000000BRBIOMACNOR2112
012024072202BMEB3       010MERCANTIL   ON      N1   R$  000000000275000000000027500000000002750000000000275000000000027500000000002750000000000285000001000000000000000100000000000000275000000000000000009999123100000010000000000000BRBMEBACNOR8205
012024072202AURE3       010AUREN       ON      NM   R$  000000000123500000000012520000000001231000000000124500000000012470000000001246000000000124706681000000000001935600000000002410954200000000000000009999123100000010000000000000BRAUREACNOR9104
012024072202BRFS3       010BRF SA      ON      NM   R$  000000000211300000000021620000000002103000000000212100000000021100000000002110000000000211113279000000000004937700000000010474487200000000000000009999123100000010000000000000BRBRFSACNOR8122
012024072202CSRN3       010COSERN      ON           R$  000000000217900000000021790000000002050000000000208700000000020670000000002066000000000211900039000000000000006500000000000013567500000000000000009999123100000010000000000000BRCSRNACNOR0193
012024072202CSRN5       010COSERN      PNA          R$  000000000210500000000021050000000002105000000000210500000000021050000000002105000000000219900001000000000000000100000000000000210500000000000000009999123100000010000000000000BRCSRNACNPA3193
012024072202CSUD3       010CSU DIGITAL ON      NM   R$  000000000201800000000020180000000001934000000000196200000000019550000000001949000000000195500264000000000000050600000000000099320200000000000000009999123100000010000000000000BRCSUDACNOR5110
012024072202CTKA4       010KARSTEN     PN           R$  000000000200000000000020750000000002000000000000203300000000020750000000001900000000000195000003000000000000000300000000000000609900000000000000009999123100000010000000000000BRCTKAACNPR7043
012024072202CURY3       010CURY S/A    ON      NM   R$  000000000216600000000022000000000002166000000000218700000000021880000000002186000000000218904918000000000000779100000000001704140400000000000000009999123100000010000000000000BRCURYACNOR3109
012024072202CVCB3       010CVC BRASIL  ON      NM   R$  000000000018700000000001930000000000187000000000018800000000001870000000000186000000000018703251000000000007780400000000001470264900000000000000009999123100000010000000000000BRCVCBACNOR1116
012024072202GGPS3       010GPS         ON      NM   R$  000000000171900000000017340000000001694000000000172200000000017250000000001725000000000173804276000000000001742400000000003000564900000000000000009999123100000010000000000000BRGGPSACNOR9103
012024072202BBSE3       010BBSEGURIDADEON      NM   R$  000000000342000000000034570000000003401000000000343300000000034450000000003445000000000344107672000000000003092400000000010616823100000000000000009999123100000010000000000000BRBBSEACNOR5124
012024072202BRBI11      010BR PARTNERS UNT     N2   R$  000000000145800000000014750000000001439000000000145100000000014470000000001447000000000145001430000000000000234100000000000339791400000000000000009999123100000010000000000000BRBRBICDAM10109
012024072202GMAT3       010GRUPO MATEUSON      NM   R$  000000000071500000000007290000000000708000000000072100000000007230000000000723000000000072403896000000000001797900000000001297634100000000000000009999123100000010000000000000BRGMATACNOR7102
012024072202GOAU3       010GERDAU MET  ON      N1   R$  000000000111200000000011220000000001104000000000111000000000011190000000001108000000000112000191000000000000050500000000000056077900000000000000009999123100000010000000000000BRGOAUACNOR1267
012024072202GOAU4       010GERDAU MET  PN      N1   R$  000000000111000000000011140000000001103000000000110900000000011130000000001112000000000111305433000000000002704500000000003000203400000000000000009999123100000010000000000000BRGOAUACNPR8268
012024072202MLAS3       010MULTILASER  ON      NM   R$  000000000019600000000002040000000000195000000000020000000000002010000000000201000000000020401766000000000001592900000000000318597900000000000000009999123100000010000000000000BRMLASACNOR9101
012024072202KRSA3       010KORA SAUDE  ON      NM   R$  000000000007000000000000720000000000069000000000007000000000000710000000000070000000000007101065000000000000573300000000000040452900000000000000009999123100000010000000000000BRKRSAACNOR0100
012024072202RCSL3       010RECRUSUL    ON           R$  000000000028200000000002950000000000278000000000029000000000002930000000000287000000000029400751000000000000464100000000000134861400000000000000009999123100000010000000000000BRRCSLACNOR4134
012024072202RCSL4       010RECRUSUL    PN           R$  000000000010200000000001100000000000100000000000010600000000001080000000000107000000000010801641000000000001336400000000000142120500000000000000009999123100000010000000000000BRRCSLACNPR1134
012024072202RDNI3       010RNI         ON      NM   R$  000000000031100000000003130000000000311000000000031200000000003130000000000310000000000031400025000000000000007200000000000002249400000000000000009999123100000010000000000000BRRDNIACNOR9116
012024072202RDOR3       010REDE D OR   ON      NM   R$  000000000279400000000028540000000002793000000000282800000000028160000000002815000000000282308183000000000002077700000000005876122800000000000000009999123100000010000000000000BRRDORACNOR8113
012024072202ODPV3       010ODONTOPREV  ON      NM   R$  000000000118200000000012060000000001182000000000119800000000012020000000001197000000000120201817000000000000361900000000000433700300000000000000009999123100000010000000000000BRODPVACNOR4202
012024072202OFSA3       010OUROFINO S/AON      NM   R$  000000000192800000000019520000000001928000000000194800000000019480000000001911000000000197900011000000000000003900000000000007597600000000000000009999123100000010000000000000BROFSAACNOR7118
012024072202ONCO3       010ONCOCLINICASON      NM   R$  000000000071900000000007370000000000709000000000072300000000007200000000000719000000000072005248000000000001760700000000001274090100000000000000009999123100000010000000000000BRONCOACNOR6101
012024072202OPCT3       010OCEANPACT   ON      NM   R$  000000000064600000000006500000000000635000000000064100000000006350000000000635000000000064102303000000000000458100000000000293817700000000000000009999123100000010000000000000BROPCTACNOR0100
012024072202ORVR3       010ORIZON      ON      NM   R$  000000000422700000000043770000000004227000000000434500000000043420000000004342000000000434302404000000000000431100000000001873401200000000000000009999123100000010000000000000BRORVRACNOR0101
012024072202PCAR3       010P.ACUCAR-CBDON      NM   R$  000000000029400000000002950000000000281000000000028600000000002810000000000281000000000028207087000000000012239000000000003509834200000000000000009999123100000010000000000000BRPCARACNOR3167
012024072202RADL3       010RAIADROGASILON      NM   R$  000000000257300000000026200000000002567000000000260400000000026100000000002607000000000261008171000000000002999900000000007813176800000000000000009999123100000010000000000000BRRADLACNOR0157
012024072202RAIL3       010RUMO S.A.   ON      NM   R$  000000000225300000000022950000000002247000000000227100000000022670000000002267000000000226912578000000000008987300000000020416940100000000000000009999123100000010000000000000BRRAILACNOR9105
012024072202RAIZ4       010RAIZEN      PN      N2   R$  000000000030700000000003130000000000305000000000030900000000003100000000000309000000000031008684000000000016965600000000005244875300000000000000009999123100000010000000000000BRRAIZACNPR6110
012024072202SOJA3       010BOA SAFRA   ON      NM   R$  000000000154000000000015750000000001539000000000156000000000015610000000001561000000000156901674000000000000299800000000000467803300000000000000009999123100000010000000000000BRSOJAACNOR9105
012024072202SOMA3       010GRUPO SOMA  ON      NM   R$  000000000062500000000006440000000000625000000000063700000000006400000000000641000000000064008545000000000005546800000000003536212800000000000000009999123100000010000000000000BRSOMAACNOR3102
012024072202SRNA3       010SERENA      ON      NM   R$  000000000088300000000009070000000000878000000000089500000000008990000000000899000000000090103993000000000001289200000000001154918400000000000000009999123100000010000000000000BRSRNAACNOR4100
012024072202STBP3       010SANTOS BRP  ON      NM   R$  000000000142300000000014610000000001423000000000144300000000014510000000001450000000000142607775000000000002966400000000004281294800000000000000009999123100000010000000000000BRSTBPACNOR3130
012024072202SUZB3       010SUZANO S.A. ON      NM   R$  000000000536500000000053940000000005272000000000532700000000053280000000005325000000000529622769000000000007288300000000038829386600000000000000009999123100000010000000000000BRSUZBACNOR0130
012024072202SMFT3       010SMART FIT   ON      NM   R$  000000000224300000000022710000000002206000000000223200000000022250000000002225000000000223509285000000000003864400000000008626415100000000000000009999123100000010000000000000BRSMFTACNOR1112
012024072202SMTO3       010SAO MARTINHOON      NM   R$  000000000315900000000031870000000003136000000000316200000000031410000000003140000000000314805184000000000000888900000000002811551300000000000000009999123100000010000000000000BRSMTOACNOR3126
012024072202ZAMP3       010ZAMP S.A.   ON           R$  000000000034400000000003470000000000337000000000034200000000003460000000000345000000000034000869000000000000342000000000000117063500000000000000009999123100000010000000000000BRZAMPACNOR5100
012024072202SCAR3       010SAO CARLOS  ON      NM   R$  000000000222100000000022500000000002220000000000222400000000022500000000002226000000000225000010000000000000003600000000000008007100000000000000009999123100000010000000000000BRSCARACNOR7131
012024072202SEER3       010SER EDUCA   ON      NM   R$  000000000051800000000005290000000000511000000000051700000000005180000000000607000000000052100834000000000000341600000000000176688500000000000000009999123100000010000000000000BRSEERACNOR5119
012024072202SEQL3       010SEQUOIA LOG ON      NM   R$  000000000041900000000004210000000000407000000000041200000000004090000000000409000000000041300808000000000000384300000000000158648200000000000000009999123100000010000000000000BRSEQLACNOR2103
012024072202SHOW3       010TIME FOR FUNON      NM   R$  000000000016200000000001660000000000157000000000016000000000001570000000000157000000000015800267000000000000088500000000000014224100000000000000009999123100000010000000000000BRSHOWACNOR7105
012024072202SHUL4       010SCHULZ      PN           R$  000000000065600000000006650000000000646000000000065400000000006460000000000646000000000064800617000000000000383600000000000250959900000000000000009999123100000010000000000000BRSHULACNPR4156
012024072202B3SA3       010B3          ON      NM   R$  000000000111800000000011440000000001113000000000112900000000011290000000001135000000000112218725000000000017799800000000020109569500000000000000009999123100000010000000000000BRB3SAACNOR6133
012024072202BHIA3       010CASAS BAHIA ON      NM   R$  000000000049900000000005040000000000481000000000048900000000004830000000000483000000000048403433000000000005128400000000002508696300000000000000009999123100000010000000000000BRBHIAACNOR1102
012024072202CAMB3       010CAMBUCI     ON           R$  000000000110300000000011690000000001103000000000114100000000011130000000001112000000000112000124000000000000039600000000000045208800000000000000009999123100000010000000000000BRCAMBACNOR4130
012024072202CAML3       010CAMIL       ON      NM   R$  000000000087400000000009050000000000874000000000089700000000009050000000000902000000000090501224000000000000285500000000000256357300000000000000009999123100000010000000000000BRCAMLACNOR3128
012024072202CASH3       010MELIUZ      ON      NM   R$  000000000057900000000005850000000000573000000000057800000000005760000000000576000000000058001237000000000000551800000000000319396000000000000000009999123100000010000000000000BRCASHACNOR8106
012024072202CBAV3       010CBA         ON      NM   R$  000000000066400000000006700000000000646000000000065300000000006480000000000648000000000064906944000000000004024800000000002628754700000000000000009999123100000010000000000000BRCBAVACNOR5104
012024072202CCRO3       010CCR SA      ON      NM   R$  000000000124400000000012670000000001240000000000125700000000012630000000001261000000000126306576000000000003807100000000004787355600000000000000009999123100000010000000000000BRCCROACNOR2145
012024072202DASA3       010DASA        ON      NM   R$  000000000035000000000003780000000000342000000000035600000000003440000000000344000000000034702466000000000001254200000000000446676400000000000000009999123100000010000000000000BRDASAACNOR1122
012024072202MNPR3       010MINUPAR     ON           R$  000000000132000000000013200000000001210000000000124000000000012400000000001112000000000124000031000000000000008500000000000010545600000000000000009999123100000010000000000000BRMNPRACNOR5122
012024072202MOVI3       010MOVIDA      ON      NM   R$  000000000060900000000006320000000000609000000000062200000000006270000000000627000000000062605657000000000004564700000000002841630400000000000000009999123100000010000000000000BRMOVIACNOR0122
012024072202MRFG3       010MARFRIG     ON      NM   R$  000000000112200000000011420000000001118000000000112600000000011270000000001128000000000112610895000000000003484500000000003925063400000000000000009999123100000010000000000000BRMRFGACNOR0116
012024072202MRVE3       010MRV         ON      NM   R$  000000000068000000000006870000000000677000000000068200000000006810000000000680000000000068106076000000000005628100000000003840507200000000000000009999123100000010000000000000BRMRVEACNOR2127
012024072202ALPA3       010ALPARGATAS  ON      N1   R$  000000000091300000000009130000000000883000000000088800000000008830000000000882000000000089000027000000000000009200000000000008171800000000000000009999123100000010000000000000BRALPAACNOR0231
012024072202ALPA4       010ALPARGATAS  PN      N1   R$  000000000088100000000008990000000000879000000000089100000000008890000000000889000000000089008363000000000002171000000000001935613800000000000000009999123100000010000000000000BRALPAACNPR7232
012024072202ALPK3       010ESTAPAR     ON      NM   R$  000000000035800000000003610000000000348000000000035600000000003550000000000355000000000035800288000000000000083700000000000029859900000000000000009999123100000010000000000000BRALPKACNOR9101
012024072202ALUP11      010ALUPAR      UNT     N2   R$  000000000310800000000031600000000003078000000000313100000000031500000000003152000000000315107532000000000001452300000000004547256100000000000000009999123100000010000000000000BRALUPCDAM15119
012024072202ALUP3       010ALUPAR      ON      N2   R$  000000000106800000000010910000000001042000000000106400000000010910000000001067000000000109100064000000000000007600000000000008089800000000000000009999123100000010000000000000BRALUPACNOR8119
012024072202ALUP4       010ALUPAR      PN      N2   R$  000000000101500000000010380000000001015000000000103000000000010340000000001023000000000103400098000000000000015800000000000016274400000000000000009999123100000010000000000000BRALUPACNPR5119
012024072202AMAR3       010LOJAS MARISAON      NM   R$  000000000014300000000001480000000000142000000000014400000000001430000000000142000000000014300426000000000000511900000000000073767900000000000000009999123100000010000000000000BRAMARACNOR4115
012024072202AMBP3       010AMBIPAR     ON      NM   R$  000000000282500000000030000000000002757000000000291400000000030000000000002990000000000296815593000000000007042400000000020528574300000000000000009999123100000010000000000000BRAMBPACNOR6103
012024072202ANIM3       010ANIMA       ON  ATZ NM   R$  000000000035200000000003650000000000352000000000035800000000003590000000000358000000000035905659000000000004727900000000001695664500000000000000009999123100000010000000000000BRANIMACNOR6108
012024072202APER3       010ALPER S.A.  ON           R$  000000000452600000000045980000000004397000000000458900000000045980000000004590000000000459800052000000000000059100000000000271226900000000000000009999123100000010000000000000BRAPERACNOR9106
012024072202BPAN4       010BANCO PAN   PN      N1   R$  000000000087000000000008880000000000870000000000088100000000008820000000000881000000000088202647000000000000612100000000000539366900000000000000009999123100000010000000000000BRBPANACNPR1115
012024072202BRAP3       010BRADESPAR   ON      N1   R$  000000000184000000000018400000000001819000000000182500000000018250000000001824000000000183000266000000000000046800000000000085423200000000000000009999123100000010000000000000BRBRAPACNOR5148
012024072202BRAP4       010BRADESPAR   PN      N1   R$  000000000189100000000018960000000001880000000000188900000000018900000000001889000000000189103916000000000001620100000000003061232500000000000000009999123100000010000000000000BRBRAPACNPR2148
012024072202CSED3       010CRUZEIRO EDUON      NM   R$  000000000038700000000004040000000000387000000000039600000000004040000000000403000000000040400503000000000000223100000000000088482000000000000000009999123100000010000000000000BRCSEDACNOR9104
012024072202CSMG3       010COPASA      ON      NM   R$  000000000203800000000021450000000002038000000000211100000000021300000000002127000000000211508365000000000002253400000000004757214000000000000000009999123100000010000000000000BRCSMGACNOR5174
012024072202CSNA3       010SID NACIONALON           R$  000000000126600000000012810000000001265000000000127100000000012680000000001268000000000126906151000000000003089400000000003929252800000000000000009999123100000010000000000000BRCSNAACNOR6261
012024072202TFCO4       010TRACK FIELD PN      N2   R$  000000000114300000000011440000000001125000000000113000000000011440000000001130000000000114400553000000000000447000000000000505246700000000000000009999123100000010000000000000BRTFCOACNPR8114
012024072202TGMA3       010TEGMA       ON      NM   R$  000000000243900000000025230000000002425000000000248800000000025080000000002507000000000252300705000000000000099200000000000246864800000000000000009999123100000010000000000000BRTGMAACNOR7144
012024072202TIMS3       010TIM         ON      NM   R$  000000000167400000000016970000000001665000000000168800000000016920000000001691000000000167608688000000000004066100000000006867489900000000000000009999123100000010000000000000BRTIMSACNOR5117
012024072202TKNO4       010TEKNO       PN           R$  000000000850000000000085000000000008400000000000845000000000084000000000007105000000000000000002000000000000000200000000000001690000000000000000009999123100000010000000000000BRTKNOACNPR5075
012024072202TOTS3       010TOTVS       ON      NM   R$  000000000281000000000028730000000002798000000000284400000000028510000000002846000000000280505753000000000001309700000000003725251100000000000000009999123100000010000000000000BRTOTSACNOR8144
012024072202TPIS3       010TRIUNFO PARTON      NM   R$  000000000038000000000003880000000000378000000000038100000000003800000000000380000000000038200074000000000000010200000000000003892500000000000000009999123100000010000000000000BRTPISACNOR8118
012024072202VBBR3       010VIBRA       ON      NM   R$  000000000230000000000023450000000002294000000000232900000000023280000000002328000000000233312067000000000002844100000000006625227900000000000000009999123100000010000000000000BRVBBRACNOR1108
012024072202BEEF3       010MINERVA     ON      NM   R$  000000000065500000000006590000000000650000000000065400000000006510000000000651000000000065203097000000000003278100000000002145857400000000000000009999123100000010000000000000BRBEEFACNOR6116
012024072202BEES3       010BANESTES    ON           R$  000000000089700000000009100000000000897000000000090300000000009050000000000905000000000091000073000000000000012100000000000010934500000000000000009999123100000010000000000000BRBEESACNOR9393
012024072202BEES4       010BANESTES    PN           R$  000000000097500000000009750000000000967000000000097100000000009700000000000970000000000097700013000000000000002000000000000001942500000000000000009999123100000010000000000000BRBEESACNPR6318
012024072202BGIP4       010BANESE      PN           R$  000000000225000000000022500000000002250000000000225000000000022500000000002234000000000229800001000000000000000200000000000000450000000000000000009999123100000010000000000000BRBGIPACNPR8208
012024072202BRIT3       010BRISANET    ON      NM   R$  000000000042500000000004440000000000425000000000043800000000004400000000000440000000000044300399000000000000192500000000000084393100000000000000009999123100000010000000000000BRBRITACNOR0103
012024072202BRKM3       010BRASKEM     ON      N1   R$  000000000183800000000018800000000001801000000000184400000000018790000000001872000000000188000065000000000000014400000000000026555000000000000000009999123100000010000000000000BRBRKMACNOR1119
012024072202BRKM5       010BRASKEM     PNA     N1   R$  000000000182800000000018980000000001824000000000187200000000018780000000001878000000000187904919000000000001538100000000002880151600000000000000009999123100000010000000000000BRBRKMACNPA4121
012024072202BRSR3       010BANRISUL    ON      N1   R$  000000000124600000000012650000000001246000000000125000000000012470000000001246000000000127300015000000000000003000000000000003751200000000000000009999123100000010000000000000BRBRSRACNOR3188
012024072202BRSR6       010BANRISUL    PNB     N1   R$  000000000116900000000011840000000001169000000000117600000000011700000000001169000000000117102276000000000000460800000000000542190400000000000000009999123100000010000000000000BRBRSRACNPB4191
012024072202BSLI4       010BRB BANCO   PN           R$  000000000102000000000010200000000001000000000000101100000000010000000000001000000000000102400003000000000000000300000000000000303300000000000000009999123100000010000000000000BRBSLIACNPR2194
012024072202CXSE3       010CAIXA SEGURION      NM   R$  000000000146600000000014890000000001453000000000146700000000014730000000001469000000000146408609000000000002604600000000003822642400000000000000009999123100000010000000000000BRCXSEACNOR7106
012024072202DESK3       010DESKTOP     ON      NM   R$  000000000154700000000016240000000001547000000000158700000000015820000000001569000000000158200767000000000000381800000000000606231000000000000000009999123100000010000000000000BRDESKACNOR2104
012024072202DEXP3       010DEXXOS PAR  ON      N1   R$  000000000100400000000010520000000001004000000000101800000000010400000000001033000000000104000351000000000000110700000000000112758100000000000000009999123100000010000000000000BRDEXPACNOR1105
012024072202DEXP4       010DEXXOS PAR  PN      N1   R$  000000000100300000000010250000000001003000000000102000000000010250000000001010000000000102500005000000000000002300000000000002348100000000000000009999123100000010000000000000BRDEXPACNPR8105
012024072202DIRR3       010DIRECIONAL  ON      NM   R$  000000000285000000000029050000000002836000000000288400000000028880000000002883000000000289004793000000000000922700000000002661192700000000000000009999123100000010000000000000BRDIRRACNOR0118
012024072202DMVF3       010D1000VFARMA ON      NM   R$  000000000078400000000008000000000000780000000000079200000000007950000000000785000000000079500379000000000000080800000000000064007300000000000000009999123100000010000000000000BRDMVFACNOR9100
012024072202DOHL4       010DOHLER      PN           R$  000000000041200000000004190000000000412000000000041500000000004190000000000403000000000041900003000000000000000400000000000000166300000000000000009999123100000010000000000000BRDOHLACNPR9066
012024072202DOTZ3       010DOTZ SA     ON      NM   R$  000000000066700000000006680000000000641000000000065200000000006460000000000645000000000066700032000000000000006800000000000004437200000000000000009999123100000010000000000000BRDOTZACNOR7101
012024072202BLAU3       010BLAU        ON      NM   R$  000000000113000000000011910000000001130000000000116900000000011730000000001172000000000117401249000000000000289700000000000338764100000000000000009999123100000010000000000000BRBLAUACNOR8114
012024072202GEPA4       010GER PARANAP PN           R$  000000000258000000000025800000000002580000000000258000000000025800000000002600000000000264900002000000000000000400000000000001032000000000000000009999123100000010000000000000BRGEPAACNPR9160
012024072202GFSA3       010GAFISA      ON      NM   R$  000000000034600000000003640000000000340000000000035000000000003400000000000339000000000034003919000000000004769800000000001672771000000000000000009999123100000010000000000000BRGFSAACNOR3124
012024072202GGBR3       010GERDAU      ON      N1   R$  000000000164300000000016700000000001641000000000165600000000016470000000001647000000000166800135000000000000018300000000000030310700000000000000009999123100000010000000000000BRGGBRACNOR1192
012024072202GGBR4       010GERDAU      PN      N1   R$  000000000188700000000018960000000001877000000000188700000000018890000000001889000000000189512322000000000005909300000000011155627600000000000000009999123100000010000000000000BRGGBRACNPR8192
012024072202ITUB3       010ITAUUNIBANCOON      N1   R$  000000000293600000000029540000000002922000000000293900000000029340000000002934000000000293501167000000000000374400000000001100513700000000000000009999123100000010000000000000BRITUBACNOR4338
012024072202ITUB4       010ITAUUNIBANCOPN      N1   R$  000000000342800000000034450000000003417000000000342700000000034240000000003427000000000342526134000000000012397200000000042494375900000000000000009999123100000010000000000000BRITUBACNPR1338
012024072202CYRE3       010CYRELA REALTON      NM   R$  000000000200600000000020750000000002001000000000204400000000020680000000002065000000000203111233000000000007366200000000015063316400000000000000009999123100000010000000000000BRCYREACNOR7140
012024072202GRND3       010GRENDENE    ON      NM   R$  000000000060600000000006090000000000602000000000060600000000006090000000000605000000000060901325000000000000322500000000000195528000000000000000009999123100000010000000000000BRGRNDACNOR3174
012024072202GUAR3       010GUARARAPES  ON      NM   R$  000000000072700000000007570000000000727000000000074000000000007310000000000731000000000073402100000000000001017400000000000752990900000000000000009999123100000010000000000000BRGUARACNOR4173
012024072202CEAB3       010CEA MODAS   ON      NM   R$  000000000094000000000009550000000000923000000000093500000000009400000000000938000000000093604009000000000002302300000000002153028900000000000000009999123100000010000000000000BRCEABACNOR1102
012024072202CEBR3       010CEB         ON           R$  000000000209300000000020980000000002004000000000205100000000020130000000002010000000000205200025000000000000003300000000000006768600000000000000009999123100000010000000000000BRCEBRACNOR5125
012024072202CEBR5       010CEB         PNA          R$  000000000180100000000018010000000001780000000000179000000000017800000000001778000000000179300027000000000000007900000000000014144000000000000000009999123100000010000000000000BRCEBRACNPA8124
012024072202CEBR6       010CEB         PNB          R$  000000000193500000000019370000000001872000000000190200000000018790000000001879000000000188900120000000000000032300000000000061448100000000000000009999123100000010000000000000BRCEBRACNPB6124
012024072202CEEB3       010COELBA      ON           R$  000000000397400000000039740000000003974000000000397400000000039740000000003962000000000415000001000000000000000100000000000000397400000000000000009999123100000010000000000000BRCEEBACNOR3199
012024072202CEED3       010CEEE-D      ON           R$  000000000130500000000013050000000001305000000000130500000000013050000000001306000000000175000001000000000000000100000000000000130500000000000000009999123100000010000000000000BRCEEDACNOR9103
012024072202CGRA3       010GRAZZIOTIN  ON           R$  000000000252700000000025270000000002527000000000252700000000025270000000002501000000000255800002000000000000000400000000000001010800000000000000009999123100000010000000000000BRCGRAACNOR2083
012024072202CGRA4       010GRAZZIOTIN  PN           R$  000000000256000000000025880000000002541000000000256000000000025880000000002576000000000262000009000000000000001300000000000003329000000000000000009999123100000010000000000000BRCGRAACNPR9083
012024072202CRFB3       010CARREFOUR BRON      NM   R$  000000000104000000000010700000000001035000000000105400000000010700000000001068000000000106109774000000000007329400000000007728316900000000000000009999123100000010000000000000BRCRFBACNOR2116
012024072202CRPG5       010CRISTAL     PNA          R$  000000000302500000000030250000000002951000000000298500000000030240000000002905000000000303800018000000000000001900000000000005671600000000000000009999123100000010000000000000BRCRPGACNPA3119
012024072202CRPG6       010CRISTAL     PNB          R$  000000000300000000000030000000000003000000000000300000000000030000000000002951000000000304900001000000000000000200000000000000600000000000000000009999123100000010000000000000BRCRPGACNPB1119
012024072202CSAN3       010COSAN       ON      NM   R$  000000000139700000000014100000000001392000000000140200000000014050000000001405000000000139911031000000000004278000000000006001290200000000000000009999123100000010000000000000BRCSANACNOR6126
012024072202FESA3       010FERBASA     ON      N1   R$  000000000133500000000013350000000001335000000000133500000000013350000000001335000000000139800001000000000000000100000000000000133500000000000000009999123100000010000000000000BRFESAACNOR8188
012024072202FESA4       010FERBASA     PN      N1   R$  000000000086400000000008700000000000848000000000085600000000008630000000000862000000000086301863000000000000467700000000000400524900000000000000009999123100000010000000000000BRFESAACNPR5084
012024072202FHER3       010FER HERINGERON      NM   R$  000000000040500000000004050000000000405000000000040500000000004050000000000405000000000041400006000000000000001600000000000000648000000000000000009999123100000010000000000000BRFHERACNOR5103
012024072202FIEI3       010FICA        ON           R$  000000000110000000000011000000000001100000000000110000000000011000000000001100000000000120000002000000000000000600000000000000660000000000000000009999123100000010000000000000BRFIEIACNOR2100
012024072202FIQE3       010UNIFIQUE    ON      NM   R$  000000000033900000000003400000000000338000000000033900000000003400000000000339000000000034000816000000000000840500000000000285574000000000000000009999123100000010000000000000BRFIQEACNOR5107
012024072202FLRY3       010FLEURY      ON      NM   R$  000000000156100000000015700000000001547000000000155800000000015620000000001561000000000156207860000000000001976000000000003080068800000000000000009999123100000010000000000000BRFLRYACNOR5138
012024072202ALLD3       010ALLIED      ON      NM   R$  000000000081300000000008180000000000790000000000080300000000007960000000000796000000000080000238000000000000066300000000000053249300000000000000009999123100000010000000000000BRALLDACNOR3106
012024072202ALOS3       010ALLOS       ON      NM   R$  000000000216100000000022350000000002160000000000221700000000022230000000002222000000000222313166000000000003555900000000007884878900000000000000009999123100000010000000000000BRALOSACNOR5101
012024072202BPAC11      010BTGP BANCO  UNT     N2   R$  000000000318500000000032500000000003185000000000322700000000032150000000003215000000000321315024000000000005027400000000016224733900000000000000009999123100000010000000000000BRBPACUNT006119
012024072202BPAC3       010BTGP BANCO  ON      N2   R$  000000000155000000000015590000000001500000000000152900000000015590000000001558000000000160300034000000000000006300000000000009634800000000000000009999123100000010000000000000BRBPACACNOR7134
012024072202BPAC5       010BTGP BANCO  PNA     N2   R$  000000000082100000000008380000000000821000000000083100000000008290000000000823000000000083300027000000000000003500000000000002911500000000000000009999123100000010000000000000BRBPACACNPA0134
012024072202FRAS3       010FRAS-LE     ON      N1   R$  000000000205000000000020610000000002039000000000204700000000020490000000002047000000000205001770000000000000489500000000001002380300000000000000009999123100000010000000000000BRFRASACNOR0159
012024072202ITSA4       010ITAUSA      PN      N1   R$  000000000103500000000010420000000001032000000000103700000000010390000000001044000000000103625898000000000016596200000000017212370200000000000000009999123100000010000000000000BRITSAACNPR7441
012024072202DXCO3       010DEXCO       ON      NM   R$  000000000070700000000007250000000000706000000000071800000000007240000000000721000000000072304564000000000001967100000000001413794800000000000000009999123100000010000000000000BRDXCOACNOR8105
012024072202MILS3       010MILLS       ON      NM   R$  000000000113900000000011570000000001128000000000114200000000011470000000001145000000000114703365000000000000696500000000000795801500000000000000009999123100000010000000000000BRMILSACNOR2127
012024072202ROMI3       010ROMI        ON      NM   R$  000000000108900000000011060000000001082000000000109600000000011010000000001097000000000110100848000000000000146700000000000160878100000000000000009999123100000010000000000000BRROMIACNOR8195
012024072202RPAD3       010ALFA HOLDINGON           R$  000000000090000000000009000000000000900000000000090000000000009000000000000881000000000090000003000000000000000500000000000000450000000000000000009999123100000010000000000000BRRPADACNOR1198
012024072202RRRP3       0103R PETROLEUMON      NM   R$  000000000271200000000027410000000002685000000000271700000000027200000000002719000000000271909968000000000002708700000000007360087000000000000000009999123100000010000000000000BRRRRPACNOR5103
012024072202TASA3       010TAURUS ARMASON      N2   R$  000000000121300000000012280000000001206000000000121200000000012270000000001226000000000124700059000000000000024200000000000029348200000000000000009999123100000010000000000000BRTASAACNOR7104
012024072202TASA4       010TAURUS ARMASPN      N2   R$  000000000120000000000012380000000001198000000000120800000000012380000000001226000000000123801256000000000000249400000000000301370600000000000000009999123100000010000000000000BRTASAACNPR4104
012024072202TCSA3       010TECNISA     ON      NM   R$  000000000022700000000002420000000000227000000000023400000000002300000000000230000000000023500380000000000000277500000000000065137600000000000000009999123100000010000000000000BRTCSAACNOR3112
012024072202TECN3       010TECHNOS     ON      NM   R$  000000000061500000000006180000000000602000000000060700000000006020000000000602000000000060600219000000000000075000000000000045584700000000000000009999123100000010000000000000BRTECNACNOR6109
012024072202TELB3       010TELEBRAS    ON           R$  000000000133600000000013360000000001335000000000133500000000013350000000001330000000000134900003000000000000000300000000000000400700000000000000009999123100000010000000000000BRTELBACNOR2140
012024072202TELB4       010TELEBRAS    PN           R$  000000000095000000000009500000000000924000000000093700000000009240000000000922000000000092400054000000000000013400000000000012556400000000000000009999123100000010000000000000BRTELBACNPR9140
012024072202TEND3       010TENDA       ON      NM   R$  000000000124900000000012630000000001242000000000125000000000012490000000001247000000000125103437000000000001233500000000001542965900000000000000009999123100000010000000000000BRTENDACNOR4111
012024072202CIEL3       010CIELO       ON      NM   R$  000000000057400000000005760000000000574000000000057400000000005750000000000574000000000057503346000000000022647500000000013014842100000000000000009999123100000010000000000000BRCIELACNOR3157
012024072202CLSA3       010CLEARSALE   ON      NM   R$  000000000076000000000008200000000000744000000000079300000000008170000000000814000000000081705860000000000003278700000000002602202800000000000000009999123100000010000000000000BRCLSAACNOR0100
012024072202CLSC3       010CELESC      ON      N2   R$  000000000700100000000070010000000007001000000000700100000000070010000000007005000000000799700002000000000000000200000000000001400200000000000000009999123100000010000000000000BRCLSCACNOR6152
012024072202CLSC4       010CELESC      PN      N2   R$  000000000767000000000076700000000007620000000000763400000000076280000000007623000000000767900016000000000000004300000000000032826200000000000000009999123100000010000000000000BRCLSCACNPR3131
012024072202CMIG3       010CEMIG       ON      N1   R$  000000000128500000000013120000000001282000000000130100000000012960000000001295000000000130600551000000000000089500000000000116452900000000000000009999123100000010000000000000BRCMIGACNOR6242
012024072202CMIG4       010CEMIG       PN      N1   R$  000000000105200000000010870000000001050000000000107400000000010810000000001081000000000106312789000000000008870200000000009528975700000000000000009999123100000010000000000000BRCMIGACNPR3243
012024072202EGIE3       010ENGIE BRASILON      NM   R$  000000000453000000000046000000000004520000000000457400000000045900000000004587000000000459606307000000000001124400000000005143483000000000000000009999123100000010000000000000BREGIEACNOR9126
012024072202EKTR4       010ELEKTRO     PN           R$  000000000394000000000039400000000003940000000000394000000000039400000000003931000000000395000002000000000000000300000000000001182000000000000000009999123100000010000000000000BREKTRACNPR7163
012024072202ELET3       010ELETROBRAS  ON      N1   R$  000000000370500000000038050000000003701000000000376700000000037840000000003784000000000379020599000000000006895500000000025980722400000000000000009999123100000010000000000000BRELETACNOR6160
012024072202ELET6       010ELETROBRAS  PNB     N1   R$  000000000414500000000042300000000004132000000000419600000000042090000000004207000000000418904498000000000000948000000000003978584600000000000000009999123100000010000000000000BRELETACNPB7077
012024072202ELMD3       010ELETROMIDIA ON      NM   R$  000000000181700000000018720000000001817000000000185600000000018590000000001849000000000186300339000000000000057800000000000107288400000000000000009999123100000010000000000000BRELMDACNOR3101
012024072202EMAE4       010EMAE        PN           R$  000000000489900000000052000000000004700000000000493300000000047000000000004620000000000484000022000000000000002600000000000012827200000000000000009999123100000010000000000000BREMAEACNPR1125
012024072202EMBR3       010EMBRAER     ON      NM   R$  000000000418000000000041890000000003825000000000395300000000038600000000004021000000000382033834000000000012221000000000048320378800000000000000009999123100000010000000000000BREMBRACNOR4191
012024072202EALT3       010ACO ALTONA  ON           R$  000000000108000000000010800000000001080000000000108000000000010800000000001050000000000110000001000000000000000100000000000000108000000000000000009999123100000010000000000000BREALTACNOR4138
012024072202EALT4       010ACO ALTONA  PN           R$  000000000114700000000011740000000001144000000000115100000000011690000000001136000000000116900018000000000000003600000000000004144600000000000000009999123100000010000000000000BREALTACNPR1138
012024072202ECOR3       010ECORODOVIAS ON      NM   R$  000000000070600000000007160000000000701000000000071200000000007140000000000712000000000071404186000000000002836000000000002019348200000000000000009999123100000010000000000000BRECORACNOR8120
012024072202HBOR3       010HELBOR      ON      NM   R$  000000000022200000000002380000000000222000000000023300000000002360000000000236000000000023700591000000000000631700000000000147550800000000000000009999123100000010000000000000BRHBORACNOR3118
012024072202HBRE3       010HBR REALTY  ON      NM   R$  000000000056400000000005760000000000557000000000056700000000005750000000000575000000000057600457000000000000210400000000000119334800000000000000009999123100000010000000000000BRHBREACNOR4100
012024072202HBSA3       010HIDROVIAS   ON      NM   R$  000000000037600000000003820000000000375000000000037700000000003780000000000378000000000038105600000000000003668100000000001385153300000000000000009999123100000010000000000000BRHBSAACNOR0100
012024072202HBTS5       010HABITASUL   PNA          R$  000000000409600000000040960000000004000000000000403200000000040000000000003899000000000440100002000000000000000300000000000001209600000000000000009999123100000010000000000000BRHBTSACNPA3128
012024072202HETA4       010HERCULES    PN           R$  000000000053000000000005300000000000524000000000052400000000005240000000000522000000000057800004000000000000001000000000000000524600000000000000009999123100000010000000000000BRHETAACNPR9136
012024072202HYPE3       010HYPERA      ON      NM   R$  000000000283800000000029000000000002833000000000288400000000028980000000002894000000000289808979000000000003109900000000008970547100000000000000009999123100000010000000000000BRHYPEACNOR0142
012024072202JSLG3       010JSL         ON      NM   R$  000000000099700000000010040000000000978000000000099400000000009870000000000987000000000099801098000000000000256700000000000255340600000000000000009999123100000010000000000000BRJSLGACNOR2121
012024072202KEPL3       010KEPLER WEBERON      NM   R$  000000000103200000000010640000000001028000000000105000000000010570000000001056000000000105803294000000000001277800000000001342404100000000000000009999123100000010000000000000BRKEPLACNOR1063
012024072202KLBN11      010KLABIN S/A  UNT     N2   R$  000000000214300000000022030000000002143000000000218900000000021990000000002199000000000220013141000000000004738700000000010374067500000000000000009999123100000010000000000000BRKLBNCDAM18142
012024072202KLBN3       010KLABIN S/A  ON      N2   R$  000000000043100000000004410000000000430000000000043700000000004380000000000438000000000044001112000000000000524300000000000229423300000000000000009999123100000010000000000000BRKLBNACNOR2170
012024072202KLBN4       010KLABIN S/A  PN      N2   R$  000000000042900000000004400000000000428000000000043600000000004380000000000438000000000043901998000000000001481300000000000646584600000000000000009999123100000010000000000000BRKLBNACNPR9170
012024072202MYPK3       010IOCHP-MAXIONON      NM   R$  000000000118800000000012040000000001186000000000119300000000011950000000001191000000000119701500000000000000296000000000000353151800000000000000009999123100000010000000000000BRMYPKACNOR7155
012024072202AERI3       010AERIS       ON      NM   R$  000000000058800000000006020000000000579000000000058900000000005790000000000578000000000058800372000000000000086700000000000051067700000000000000009999123100000010000000000000BRAERIACNOR4102
012024072202AESB3       010AES BRASIL  ON      NM   R$  000000000113700000000011400000000001135000000000113700000000011390000000001138000000000113901273000000000002480200000000002822381300000000000000009999123100000010000000000000BRAESBACNOR7106
012024072202AGRO3       010BRASILAGRO  ON      NM   R$  000000000275700000000027620000000002714000000000272800000000027330000000002730000000000273301307000000000000199200000000000543604200000000000000009999123100000010000000000000BRAGROACNOR7114
012024072202AGXY3       010AGROGALAXY  ON      NM   R$  000000000014100000000001480000000000140000000000014200000000001400000000000139000000000014000467000000000000342800000000000048995700000000000000009999123100000010000000000000BRAGXYACNOR4103
012024072202AHEB3       010SPTURIS     ON           R$  000000000350000000000035000000000003500000000000350000000000035000000000002425000000000399500001000000000000000100000000000000350000000000000000009999123100000010000000000000BRAHEBACNOR0106
012024072202ABCB4       010ABC BRASIL  PN      N2   R$  000000000225600000000023170000000002249000000000230100000000023170000000002311000000000231702585000000000000445400000000001025187700000000000000009999123100000010000000000000BRABCBACNPR4146
012024072202ABEV3       010AMBEV S/A   ON  ATZ      R$  000000000116700000000011860000000001165000000000117800000000011810000000001180000000000117424898000000000023809300000000028048201700000000000000009999123100000010000000000000BRABEVACNOR1128
012024072202BBDC3       010BRADESCO    ON      N1   R$  000000000114900000000011550000000001143000000000115100000000011540000000001153000000000115410369000000000003945700000000004543762800000000000000009999123100000010000000000000BRBBDCACNOR1772
012024072202BBDC4       010BRADESCO    PN      N1   R$  000000000125400000000012670000000001251000000000126100000000012630000000001262000000000126322981000000000020828400000000026265745200000000000000009999123100000010000000000000BRBBDCACNPR8772
012024072202CPFE3       010CPFL ENERGIAON      NM   R$  000000000330100000000033250000000003274000000000330700000000033250000000003317000000000332606575000000000001099800000000003637280900000000000000009999123100000010000000000000BRCPFEACNOR0137
012024072202CPLE3       010COPEL       ON      N2   R$  000000000090000000000009160000000000893000000000091000000000009130000000000912000000000091405667000000000006527200000000005944226600000000000000009999123100000010000000000000BRCPLEACNOR8149
012024072202CPLE5       010COPEL       PNA     N2   R$  000000000140000000000014000000000001400000000000140000000000014000000000001300000000000144700002000000000000000200000000000000280000000000000000009999123100000010000000000000BRCPLEACNPA1147
012024072202CPLE6       010COPEL       PNB     N2   R$  000000000100800000000010360000000001008000000000102700000000010310000000001030000000000103215842000000000012455900000000012804428000000000000000009999123100000010000000000000BRCPLEACNPB9146
012024072207TXRX4       010TEX RENAUX  PN           R$  000000000024000000000002440000000000231000000000023600000000002440000000000233000000000024200007000000000000000700000000000000165200000000000000009999123100000010000000000000BRTXRXACNPR0142
012024072207NUTR3       010NUTRIPLANT  ON      MA   R$  000000000047400000000004770000000000454000000000046700000000004770000000000456000000000047800026000000000000004800000000000002244300000000000000009999123100000010000000000000BRNUTRACNOR0104
012024072208ATMP3       010ATMASA      ON           R$  000000000019900000000002000000000000195000000000019800000000002000000000000195000000000020000011000000000000004700000000000000933800000000000000009999123100000010000000000000BRATMPACNOR8100
012024072208LIGT3       010LIGHT S/A   ON      NM   R$  000000000045400000000004540000000000430000000000043700000000004350000000000434000000000043503099000000000001363800000000000596854900000000000000009999123100000010000000000000BRLIGTACNOR2124
012024072208NEXP3       010NEXPE       ON           R$  000000000041100000000004260000000000411000000000041400000000004260000000000413000000000042300003000000000000000400000000000000165900000000000000009999123100000010000000000000BRNEXPACNOR0101
012024072208ETER3       010ETERNIT     ON      NM   R$  000000000059000000000005970000000000585000000000058900000000005900000000000589000000000059000565000000000000127600000000000075253500000000000000009999123100000010000000000000BRETERACNOR3243
012024072208PMAM3       010PARANAPANEMAON      NM   R$  000000000024300000000002470000000000239000000000024200000000002400000000000240000000000024100091000000000000030700000000000007429900000000000000009999123100000010000000000000BRPMAMACNOR3039
012024072208RSID3       010ROSSI RESID ON      NM   R$  000000000044500000000004530000000000440000000000044400000000004400000000000440000000000045300096000000000000024300000000000010805300000000000000009999123100000010000000000000BRRSIDACNOR8120
012024072208JFEN3       010JOAO FORTES ON           R$  000000000001800000000000330000000000017000000000002400000000000320000000000032000000000003306101000000000037345600000000000900576000000000000000009999123100000010000000000000BRJFENACNOR0059
012024072208CTNM4       010COTEMINAS   PN           R$  000000000009800000000000980000000000098000000000009800000000000980000000000096000000000009800015000000000000021800000000000002136400000000000000009999123100000010000000000000BRCTNMACNPR6129
012024072208CTSA3       010SANTANENSE  ON           R$  000000000023500000000002350000000000231000000000023200000000002310000000000231000000000023400008000000000000004400000000000001021100000000000000009999123100000010000000000000BRCTSAACNOR3062
012024072208CTSA4       010SANTANENSE  PN           R$  000000000010000000000001060000000000099000000000010200000000001040000000000101000000000010500262000000000000046000000000000004707300000000000000009999123100000010000000000000BRCTSAACNPR0062
012024072208OIBR3       010OI          ON      N1   R$  000000000044200000000004460000000000434000000000044000000000004400000000000439000000000044001366000000000000841800000000000370736400000000000000009999123100000010000000000000BROIBRACNOR1111
012024072208OIBR4       010OI          PN      N1   R$  000000000126900000000012700000000001240000000000125300000000012690000000001266000000000127300032000000000000009900000000000012410500000000000000009999123100000010000000000000BROIBRACNPR8110
012024072208OSXB3       010OSX BRASIL  ON      NM   R$  000000000038700000000003940000000000387000000000038900000000003890000000000387000000000038900011000000000000003700000000000001440200000000000000009999123100000010000000000000BROSXBACNOR8109
012024072208SGPS3       010SPRINGS     ON      NM   R$  000000000023000000000002300000000000230000000000023000000000002300000000000229000000000023000009000000000000009200000000000002116000000000000000009999123100000010000000000000BRSGPSACNOR4105
012024072208AMER3       010AMERICANAS  ON      NM   R$  000000000007100000000000780000000000070000000000007400000000000770000000000076000000000007716284000000000028515900000000002122466100000000000000009999123100000010000000000000BRAMERACNOR6102
012024072208RNEW11      010RENOVA      UNT     N2   R$  000000000028600000000002860000000000267000000000027100000000002670000000000267000000000026800080000000000000016400000000000004458900000000000000009999123100000010000000000000BRRNEWCDAM15110
012024072208RNEW3       010RENOVA      ON      N2   R$  000000000009100000000000920000000000088000000000008900000000000910000000000090000000000009100111000000000000034500000000000003093400000000000000009999123100000010000000000000BRRNEWACNOR8110
012024072208RNEW4       010RENOVA      PN      N2   R$  000000000008800000000000890000000000087000000000008700000000000870000000000087000000000008800126000000000000059400000000000005206800000000000000009999123100000010000000000000BRRNEWACNPR5110
012024072208RPMG3       010PET MANGUINHON           R$  000000000029000000000003160000000000285000000000030400000000003160000000000310000000000031600245000000000000035100000000000010683000000000000000009999123100000010000000000000BRRPMGACNOR9194
012024072208TEKA4       010TEKA        PN           R$  000000000315000000000031580000000003150000000000315400000000031580000000002850000000000340000002000000000000000200000000000000630800000000000000009999123100000010000000000000BRTEKAACNPR3140
012024072210RENT1       010LOCALIZA    DIR ORD NM   R$  000000000109000000000010900000000001040000000000105800000000010600000000001040000000000106000034000000000000005200000000000005503300000000000000009999123100000010000000000000BRRENTD06OR8195
012024072210BSLI10      010BRB BANCO   PN  REC      R$  000000000088500000000009000000000000885000000000089000000000009000000000000880000000000097000003000000000000000300000000000000267000000000000000009999123100000010000000000000BRBSLIR02PR5192
012024072212GZIT11      010FII GAZIT   CI           R$  000000000560000000000056350000000005600000000000560200000000056040000000005604000000000562700669000000000000016910000000000094743436000000000000009999123100000010000000000000BRGZITCTF005108
012024072212HABT11      010FII HABIT IICI           R$  000000000901900000000090190000000008954000000000899400000000089990000000008970000000000899901396000000000000011376000000000102316505000000000000009999123100000010000000000000BRHABTCTF001161
012024072212APTO11      010FII NAVI RSDCI           R$  000000000095500000000009640000000000953000000000095900000000009540000000000954000000000095800213000000000000002121000000000002036015000000000000009999123100000010000000000000BRAPTOCTF007132
012024072212APXM11      010FII APEX MS CI  ER       R$  000000000969900000000097000000000009699000000000969900000000096990000000009160000000000970000092000000000000000578000000000005606071000000000000009999123100000010000000000000BRAPXMCTF003111
012024072212AROA11      010FII AROA    CI           R$  000000000010000000000001000000000000098000000000009900000000001000000000000099000000000010000161000000000000038236000000000003821472000000000000009999123100000010000000000000BRAROACTF003119
012024072212ARRI11      010FII ATRIO   CI           R$  000000000090800000000009120000000000902000000000090600000000009080000000000906000000000090801771000000000000040222000000000036472106000000000000009999123100000010000000000000BRARRICTF009162
012024072212ARXD11      010FII ARXD R  CI           R$  000000000990000000000099000000000009895000000000989800000000099000000000009895000000000990000008000000000000000607000000000006008300000000000000009999123100000010000000000000BRARXDCTF008116
012024072212ASMT11      010FII ASA MET CI           R$  000000000365600000000039570000000003656000000000394700000000039570000000003801000000000395700014000000000000000187000000000000738200000000000000009999123100000010000000000000BRASMTCTF005107
012024072212ATSA11      010FII HATRIUM CI           R$  000000000553200000000055490000000005532000000000553900000000055490000000005500000000000555000005000000000000000019000000000000105259000000000000009999123100000010000000000000BRATSACTF000144
012024072212LSPA11      010FII LESTE PACI           R$  000000000749000000000074900000000007150000000000741900000000073240000000007150000000000732500105000000000000000409000000000003034500000000000000009999123100000010000000000000BRLSPACTF005140
012024072212LUGG11      010FII LUGGO   CI           R$  000000000743800000000074400000000007398000000000741400000000074000000000007398000000000740000074000000000000000332000000000002461683000000000000009999123100000010000000000000BRLUGGCTF007156
012024072212LVBI11      010FII VBI LOG CI           R$  000000001165200000000116560000000011515000000001157200000000115530000000011553000000001155607806000000000000032757000000000379090509000000000000009999123100000010000000000000BRLVBICTF002170
012024072212LASC11      010FII LEGATUS CI           R$  000000001144900000000114490000000011446000000001144700000000114470000000011052000000001145000017000000000000174723000000002000054190000000000000009999123100000010000000000000BRLASCCTF003154
012024072212LFTT11      010FII LOFT II CI           R$  000000000189000000000019000000000001800000000000183100000000018180000000001751000000000181000017000000000000000139000000000000254605000000000000009999123100000010000000000000BRLFTTCTF004133
012024072212LGCP11      010FII LGCP INTCI  ES       R$  000000000859500000000086990000000008510000000000858200000000085550000000008513000000000855500502000000000000003809000000000032689761000000000000009999123100000010000000000000BRLGCPCTF006158
012024072212LIFE11      010FII LIFE    CI           R$  000000000105000000000010500000000001022000000000103800000000010480000000001026000000000104900473000000000000038589000000000040084008000000000000009999123100000010000000000000BRLIFECTF017130
012024072212BARI11      010FII BARIGUI CI           R$  000000000821100000000082430000000008195000000000820600000000082270000000008225000000000822802026000000000000007879000000000064659838000000000000009999123100000010000000000000BRBARICTF003163
012024072212BMLC11      010FII BMBRC LCCI           R$  000000000979800000000099990000000009798000000000983500000000099990000000009561000000001000000005000000000000000011000000000000108185000000000000009999123100000010000000000000BRBMLCCTF004252
012024072212BNFS11      010FII BANRISULCI           R$  000000001181100000000119430000000011811000000001188800000000119050000000011905000000001193800114000000000000000644000000000007655898000000000000009999123100000010000000000000BRBNFSCTF000242
012024072212QAGR11      010FII QUASAR ACI           R$  000000000471200000000047430000000004632000000000467300000000047070000000004657000000000470700478000000000000005959000000000027847261000000000000009999123100000010000000000000BRQAGRCTF005156
012024072212BCIA11      010FII BCIA    CI           R$  000000001040000000000104680000000010391000000001041400000000104100000000010394000000001041000450000000000000003349000000000034879495000000000000009999123100000010000000000000BRBCIACTF005211
012024072212BCRI11      010FII BEES CRICI           R$  000000000672200000000067300000000006682000000000671500000000067230000000006722000000000672300450000000000000005365000000000036028527000000000000009999123100000010000000000000BRBCRICTF009216
012024072212VISC11      010FII VINCI SCCI           R$  000000001145400000000115000000000011435000000001146100000000114500000000011450000000001145008539000000000000047943000000000549516680000000000000009999123100000010000000000000BRVISCCTF005187
012024072212VIUR11      010FII VINCI IUCI           R$  000000000066600000000006750000000000666000000000066800000000006680000000000667000000000066801825000000000000042598000000000028474012000000000000009999123100000010000000000000BRVIURCTF009138
012024072212RECR11      010FII REC RECECI           R$  000000000854800000000085500000000008507000000000853000000000085350000000008530000000000853504383000000000000033365000000000284633371000000000000009999123100000010000000000000BRRECRCTF004152
012024072212RECT11      010FII REC RENDCI           R$  000000000351500000000036000000000003509000000000353900000000035420000000003542000000000354500704000000000000010870000000000038479760000000000000009999123100000010000000000000BRRECTCTF000168
012024072212RECX11      010FII REC FOF CI  ER       R$  000000000666800000000066690000000006621000000000664700000000066210000000006621000000000669900003000000000000000009000000000000059828000000000000009999123100000010000000000000BRRECXCTF002140
012024072212RELG11      010FII REC LOG CI           R$  000000000588500000000060450000000005838000000000598400000000059440000000005942000000000594400110000000000000004545000000000027201037000000000000009999123100000010000000000000BRRELGCTF008136
012024072212PEMA11      010FII PERFORMACI           R$  000000000330000000000033000000000003300000000000330000000000033000000000003300000000000400000001000000000000000003000000000000009900000000000000009999123100000010000000000000BRPEMACTF003137
012024072212RBDS11      010FII RBRESID2CI           R$  000000000029400000000003020000000000294000000000029500000000003020000000000287000000000031500010000000000000000497000000000000146854000000000000009999123100000010000000000000BRRBDSCTF006179
012024072212RBED11      010FII RIOB ED CI           R$  000000001379000000000137940000000013695000000001374500000000137900000000013790000000001379500243000000000000001902000000000026143792000000000000009999123100000010000000000000BRRBEDCTF006165
012024072212IBCR11      010FII BREI    CI           R$  000000000714800000000071820000000007108000000000710800000000071440000000007115000000000714400078000000000000001610000000000011445161000000000000009999123100000010000000000000BRIBCRCTF009138
012024072212KNCR11      010FII KINEA RICI           R$  000000001052000000000105590000000010440000000001051000000000104660000000010460000000001046613779000000000000213077000000002239484186000000000000009999123100000010000000000000BRKNCRCTF000241
012024072212KNHF11      010FII KINEA HFCI           R$  000000000964300000000097590000000009643000000000968000000000096510000000009651000000000967102824000000000000029031000000000281021744000000000000009999123100000010000000000000BRKNHFCTF004112
012024072212KNHY11      010FII KINEA HYCI           R$  000000001069400000000106940000000010600000000001063500000000106850000000010646000000001068508551000000000000036155000000000384510626000000000000009999123100000010000000000000BRKNHYCTF005173
012024072212KNIP11      010FII KINEA IPCI           R$  000000000959500000000096060000000009530000000000957800000000095800000000009580000000000958609863000000000000077027000000000737820302000000000000009999123100000010000000000000BRKNIPCTF001194
012024072212KNRE11      010FII KII REALCI           R$  000000000004200000000000420000000000041000000000004100000000000410000000000041000000000004200019000000000000001071000000000000044234000000000000009999123100000010000000000000BRKNRECTF006129
012024072212NCRI11      010FII NAVI CRICI           R$  000000000084800000000008740000000000830000000000084200000000008710000000000841000000000087400040000000000000000310000000000000261195000000000000009999123100000010000000000000BRNCRICTF004119
012024072212NEWL11      010FII NEWPORT CI           R$  000000001190100000000119950000000011790000000001184500000000118800000000011879000000001188000289000000000000002708000000000032076958000000000000009999123100000010000000000000BRNEWLCTF004156
012024072212NEWU11      010FII NEWRU   CI           R$  000000000779900000000077990000000007013000000000713000000000070130000000007013000000000779900004000000000000000020000000000000142618000000000000009999123100000010000000000000BRNEWUCTF005122
