00COTAHIST.2024BOVESPA 20240503                                                                                                                                                                                                                      
012024050302ALLD3       010ALLIED      ON      NM   R$  000000000073800000000007700000000000738000000000075500000000007460000000000746000000000075000710000000000000148900000000000112519500000000000000009999123100000010000000000000BRALLDACNOR3106
012024050302ALOS3       010ALLOS       ON  ED  NM   R$  000000000206300000000021410000000002054000000000210200000000020990000000002096000000000210019989000000000008253500000000017356220600000000000000009999123100000010000000000000BRALOSACNOR5101
012024050302BBDC3       010BRADESCO    ON  EJ  N1   R$  000000000125600000000012600000000001232000000000124700000000012490000000001247000000000125015020000000000013336200000000016633886600000000000000009999123100000010000000000000BRBBDCACNOR1769
012024050302BBDC4       010BRADESCO    PN  EJ  N1   R$  000000000139800000000014060000000001367000000000138100000000013780000000001377000000000137867935000000000061195100000000084526733700000000000000009999123100000010000000000000BRBBDCACNPR8769
012024050302BEES3       010BANESTES    ON  EDJ      R$  000000000090400000000009300000000000899000000000091400000000009200000000000920000000000092600191000000000000078600000000000071887200000000000000009999123100000010000000000000BRBEESACNOR9390
012024050302BEES4       010BANESTES    PN  EDJ      R$  000000000097600000000009890000000000960000000000097000000000009600000000000960000000000096500034000000000000003500000000000003395100000000000000009999123100000010000000000000BRBEESACNPR6315
012024050302LAND3       010TERRASANTAPAON  ED  NM   R$  000000000151700000000015820000000001501000000000156400000000015580000000001558000000000157800503000000000000105100000000000164448000000000000000009999123100000010000000000000BRLANDACNOR9103
012024050302LAVV3       010LAVVI       ON      NM   R$  000000000092000000000009430000000000916000000000093400000000009320000000000932000000000094002654000000000000801400000000000748717600000000000000009999123100000010000000000000BRLAVVACNOR4111
012024050302LEVE3       010METAL LEVE  ON  ED  NM   R$  000000000311400000000031840000000003114000000000314700000000031530000000003153000000000316302872000000000000653000000000002055501500000000000000009999123100000010000000000000BRLEVEACNOR2197
012024050302PCAR3       010P.ACUCAR-CBDON      NM   R$  000000000032200000000003410000000000322000000000033300000000003390000000000338000000000033912184000000000027072400000000009029588700000000000000009999123100000010000000000000BRPCARACNOR3167
012024050302MGEL4       010MANGELS INDLPN           R$  000000000179400000000017940000000001740000000000177500000000017400000000001721000000000177500006000000000000008400000000000014913000000000000000009999123100000010000000000000BRMGELACNPR3147
012024050302MGLU3       010MAGAZ LUIZA ON      NM   R$  000000000015000000000001580000000000150000000000015500000000001570000000000157000000000015843880000000000173204700000000026960460600000000000000009999123100000010000000000000BRMGLUACNOR2123
012024050302RAIZ4       010RAIZEN      PN      N2   R$  000000000031900000000003280000000000317000000000032300000000003230000000000322000000000032418593000000000024012700000000007773256000000000000000009999123100000010000000000000BRRAIZACNPR6110
012024050302RANI3       010IRANI       ON  ED  NM   R$  000000000089600000000009160000000000894000000000090400000000009090000000000909000000000091002622000000000000753600000000000681917900000000000000009999123100000010000000000000BRRANIACNOR5071
012024050302RAPT3       010RANDON PART ON      N1   R$  000000000092300000000009500000000000923000000000093900000000009500000000000940000000000095000057000000000000027000000000000025366700000000000000009999123100000010000000000000BRRAPTACNOR7162
012024050302RAPT4       010RANDON PART PN      N1   R$  000000000108100000000011220000000001081000000000110600000000011200000000001120000000000112107195000000000003354300000000003712995100000000000000009999123100000010000000000000BRRAPTACNPR4162
012024050302RADL3       010RAIADROGASILON      NM   R$  000000000258200000000026340000000002572000000000260700000000026240000000002618000000000262512936000000000005050900000000013170501400000000000000009999123100000010000000000000BRRADLACNOR0156
012024050302RAIL3       010RUMO S.A.   ON  ED  NM   R$  000000000208100000000021150000000002068000000000210200000000021000000000002100000000000210121731000000000011830400000000024872871300000000000000009999123100000010000000000000BRRAILACNOR9105
012024050302SNSY3       010SANSUY      ON           R$  000000000125000000000013370000000001240000000000128500000000012400000000001225000000000124000026000000000000003100000000000003986300000000000000009999123100000010000000000000BRSNSYACNOR2113
012024050302SNSY5       010SANSUY      PNA          R$  000000000062900000000006350000000000629000000000063000000000006290000000000622000000000063000005000000000000001300000000000000819200000000000000009999123100000010000000000000BRSNSYACNPA5111
012024050302SOJA3       010BOA SAFRA   ON      NM   R$  000000000181200000000018360000000001805000000000181900000000018150000000001814000000000181901427000000000000289600000000000526941600000000000000009999123100000010000000000000BRSOJAACNOR9105
012024050302SOMA3       010GRUPO SOMA  ON      NM   R$  000000000062600000000006330000000000613000000000061800000000006170000000000616000000000061719055000000000015319400000000009479070000000000000000009999123100000010000000000000BRSOMAACNOR3102
012024050302ODPV3       010ODONTOPREV  ON      NM   R$  000000000120900000000012300000000001202000000000122100000000012200000000001218000000000122103726000000000001470800000000001796379900000000000000009999123100000010000000000000BRODPVACNOR4200
012024050302OFSA3       010OUROFINO S/AON  ED  NM   R$  000000000221400000000022140000000002140000000000215800000000021400000000002137000000000221500003000000000000000400000000000000863400000000000000009999123100000010000000000000BROFSAACNOR7118
012024050302ONCO3       010ONCOCLINICASON      NM   R$  000000000072400000000007480000000000724000000000073300000000007270000000000727000000000073202713000000000001345300000000000987446800000000000000009999123100000010000000000000BRONCOACNOR6100
012024050302OPCT3       010OCEANPACT   ON      NM   R$  000000000065500000000006800000000000650000000000066600000000006750000000000672000000000067502778000000000002018800000000001345934800000000000000009999123100000010000000000000BROPCTACNOR0100
012024050302ORVR3       010ORIZON      ON      NM   R$  000000000396900000000040350000000003960000000000401700000000040350000000004035000000000404100897000000000000180900000000000726813700000000000000009999123100000010000000000000BRORVRACNOR0101
012024050302SEQL3       010SEQUOIA LOG ON      NM   R$  000000000004100000000000420000000000039000000000004000000000000390000000000039000000000004000568000000000005396700000000000217661000000000000000009999123100000010000000000000BRSEQLACNOR2102
012024050302SGPS3       010SPRINGS     ON      NM   R$  000000000007700000000000780000000000075000000000007500000000000760000000000075000000000007600206000000000000541100000000000041002400000000000000009999123100000010000000000000BRSGPSACNOR4104
012024050302SHOW3       010TIME FOR FUNON      NM   R$  000000000025100000000002630000000000248000000000025400000000002550000000000252000000000025500442000000000000172800000000000044052600000000000000009999123100000010000000000000BRSHOWACNOR7105
012024050302SHUL4       010SCHULZ      PN           R$  000000000062000000000006290000000000616000000000062100000000006220000000000622000000000062700756000000000000413200000000000256907600000000000000009999123100000010000000000000BRSHULACNPR4155
012024050302SIMH3       010SIMPAR      ON      NM   R$  000000000059300000000006190000000000593000000000060700000000006050000000000604000000000060510114000000000007836500000000004758732600000000000000009999123100000010000000000000BRSIMHACNOR0107
012024050302SLCE3       010SLC AGRICOLAON  ED  NM   R$  000000000182400000000018340000000001804000000000182300000000018310000000001828000000000183106479000000000001904200000000003472023900000000000000009999123100000010000000000000BRSLCEACNOR2125
012024050302VALE3       010VALE        ON      NM   R$  000000000641700000000064420000000006335000000000638300000000063990000000006399000000000640041795000000000023679700000000151162110300000000000000009999123100000010000000000000BRVALEACNOR0210
012024050302JHSF3       010JHSF PART   ON  ED  NM   R$  000000000043600000000004420000000000433000000000043700000000004360000000000436000000000043703053000000000003128800000000001367525800000000000000009999123100000010000000000000BRJHSFACNOR2135
012024050302GRND3       010GRENDENE    ON  EDJ NM   R$  000000000060500000000006170000000000598000000000060200000000005980000000000598000000000060003856000000000002758700000000001661003200000000000000009999123100000010000000000000BRGRNDACNOR3173
012024050302GUAR3       010GUARARAPES  ON      NM   R$  000000000079000000000008960000000000790000000000085700000000008760000000000875000000000087612347000000000005483800000000004704906100000000000000009999123100000010000000000000BRGUARACNOR4172
012024050302JSLG3       010JSL         ON      NM   R$  000000000121000000000012520000000001201000000000122100000000012010000000001200000000000121902207000000000000775600000000000947569400000000000000009999123100000010000000000000BRJSLGACNOR2121
012024050302MRSA3B      010MRS LOGIST  ON  ED  MB   R$  000000000280600000000028060000000002806000000000280600000000028060000000002810000000000400000001000000000000000200000000000000561200000000000000009999123100000010000000000000BRMRSAACNOR6125
012024050302MRSA5B      010MRS LOGIST  PNA ED  MB   R$  000000000280600000000028060000000002806000000000280600000000028060000000002706000000000000000002000000000000001100000000000003086600000000000000009999123100000010000000000000BRMRSAACNPA9125
012024050302MRSA6B      010MRS LOGIST  PNB ED  MB   R$  000000000280600000000028060000000002806000000000280600000000028060000000002706000000000000000002000000000000000700000000000001964200000000000000009999123100000010000000000000BRMRSAACNPB7125
012024050302MRVE3       010MRV         ON  ATZ NM   R$  000000000072600000000007470000000000719000000000073100000000007190000000000718000000000072014751000000000014258900000000010423831700000000000000009999123100000010000000000000BRMRVEACNOR2127
012024050302PINE4       010PINE        PN      N2   R$  000000000045000000000004730000000000450000000000046000000000004680000000000465000000000046800894000000000000406100000000000187122400000000000000009999123100000010000000000000BRPINEACNPR8149
012024050302PLAS3       010PLASCAR PARTON           R$  000000000062000000000006300000000000581000000000060500000000006300000000000602000000000063000014000000000000001600000000000000968200000000000000009999123100000010000000000000BRPLASACNOR2106
012024050302PLPL3       010PLANOEPLANO ON      NM   R$  000000000114600000000012040000000001144000000000118600000000012040000000001189000000000120403345000000000001036300000000001229540700000000000000009999123100000010000000000000BRPLPLACNOR5104
012024050302PNVL3       010DIMED       ON      NM   R$  000000000113000000000011580000000001119000000000114700000000011510000000001150000000000115201368000000000000560300000000000642836200000000000000009999123100000010000000000000BRPNVLACNOR9206
012024050302POMO3       010MARCOPOLO   ON      N2   R$  000000000052900000000005540000000000528000000000054100000000005400000000000540000000000054401260000000000000676600000000000366130100000000000000009999123100000010000000000000BRPOMOACNOR0097
012024050302POMO4       010MARCOPOLO   PN      N2   R$  000000000069500000000007180000000000690000000000070400000000007030000000000703000000000070416644000000000014609200000000010291214000000000000000009999123100000010000000000000BRPOMOACNPR7097
012024050302PORT3       010WILSON SONS ON  ED  NM   R$  000000000173900000000017500000000001675000000000169000000000016750000000001651000000000167503677000000000006659700000000011261100400000000000000009999123100000010000000000000BRPORTACNOR8107
012024050302POSI3       010POSITIVO TECON  ED  NM   R$  000000000094900000000010010000000000942000000000097900000000010010000000000995000000000100105934000000000002226600000000002180732700000000000000009999123100000010000000000000BRPOSIACNOR9116
012024050302PRIO3       010PETRORIO    ON      NM   R$  000000000477500000000047790000000004628000000000467900000000046750000000004674000000000467534665000000000012982700000000060752881400000000000000009999123100000010000000000000BRPRIOACNOR1106
012024050302SAPR11      010SANEPAR     UNT     N2   R$  000000000264100000000026810000000002608000000000263500000000026340000000002634000000000263504805000000000001352100000000003562915500000000000000009999123100000010000000000000BRSAPRCDAM13117
012024050302BGIP4       010BANESE      PN           R$  000000000230000000000023640000000002300000000000234000000000023480000000002300000000000234000004000000000000000400000000000000936200000000000000009999123100000010000000000000BRBGIPACNPR8208
012024050302CPLE3       010COPEL       ON  ED  N2   R$  000000000085700000000008900000000000854000000000088300000000008900000000000888000000000089023940000000000017829800000000015761491300000000000000009999123100000010000000000000BRCPLEACNOR8149
012024050302CPLE6       010COPEL       PNB ED  N2   R$  000000000094500000000009660000000000943000000000096000000000009600000000000959000000000096226740000000000024295900000000023339479200000000000000009999123100000010000000000000BRCPLEACNPB9146
012024050302ELET3       010ELETROBRAS  ON  ED  N1   R$  000000000390700000000039680000000003883000000000391700000000038950000000003892000000000389723702000000000007843400000000030724287400000000000000009999123100000010000000000000BRELETACNOR6160
012024050302ELET6       010ELETROBRAS  PNB ED  N1   R$  000000000431900000000043600000000004295000000000432400000000043030000000004303000000000430508057000000000001625700000000007029557500000000000000009999123100000010000000000000BRELETACNPB7077
012024050302GGPS3       010GPS         ON      NM   R$  000000000187500000000019420000000001875000000000191800000000019100000000001909000000000191105045000000000002320100000000004450682200000000000000009999123100000010000000000000BRGGPSACNOR9103
012024050302GMAT3       010GRUPO MATEUSON      NM   R$  000000000074600000000007760000000000746000000000076200000000007590000000000759000000000076012088000000000005289700000000004035060200000000000000009999123100000010000000000000BRGMATACNOR7101
012024050302GOAU3       010GERDAU MET  ON      N1   R$  000000000110000000000011510000000001100000000000113800000000011340000000001134000000000114100393000000000000092400000000000105163800000000000000009999123100000010000000000000BRGOAUACNOR1266
012024050302GOAU4       010GERDAU MET  PN      N1   R$  000000000112100000000011490000000001106000000000113700000000011420000000001142000000000114317461000000000017561700000000019979891000000000000000009999123100000010000000000000BRGOAUACNPR8267
012024050302AALR3       010ALLIAR      ON      NM   R$  000000000104000000000010450000000000974000000000101100000000010280000000000991000000000102801404000000000000409200000000000414059100000000000000009999123100000010000000000000BRAALRACNOR6102
012024050302ABCB4       010ABC BRASIL  PN      N2   R$  000000000226800000000022890000000002240000000000227200000000022690000000002269000000000227503697000000000001049700000000002385636300000000000000009999123100000010000000000000BRABCBACNPR4145
012024050302ABEV3       010AMBEV S/A   ON           R$  000000000124700000000012480000000001235000000000123900000000012370000000001237000000000123825633000000000023380200000000028989539200000000000000009999123100000010000000000000BRABEVACNOR1127
012024050302DXCO3       010DEXCO       ON      NM   R$  000000000075600000000007940000000000756000000000078400000000007830000000000782000000000078614646000000000005232500000000004102362200000000000000009999123100000010000000000000BRDXCOACNOR8105
012024050302WHRL3       010WHIRLPOOL   ON           R$  000000000046900000000004690000000000467000000000046800000000004670000000000461000000000047200002000000000000000200000000000000093600000000000000009999123100000010000000000000BRWHRLACNOR5128
012024050302WHRL4       010WHIRLPOOL   PN           R$  000000000046500000000004680000000000465000000000046500000000004680000000000465000000000046800021000000000000008900000000000004140400000000000000009999123100000010000000000000BRWHRLACNPR2128
012024050302WIZC3       010WIZ CO      ON  EDJ NM   R$  000000000070000000000007340000000000700000000000072300000000007240000000000723000000000073101582000000000000563900000000000407820800000000000000009999123100000010000000000000BRWIZCACNOR5102
012024050302WLMM4       010WLM IND COM PN  ED       R$  000000000345200000000034520000000003452000000000345200000000034520000000003203000000000349900001000000000000000100000000000000345200000000000000009999123100000010000000000000BRWLMMACNPR3118
012024050302QUAL3       010QUALICORP   ON  ATZ NM   R$  000000000016400000000001730000000000164000000000016800000000001700000000000169000000000017104422000000000006370600000000001075371500000000000000009999123100000010000000000000BRQUALACNOR6120
012024050302SMFT3       010SMART FIT   ON      NM   R$  000000000252600000000025710000000002508000000000254500000000025460000000002546000000000255009046000000000002566100000000006532217200000000000000009999123100000010000000000000BRSMFTACNOR1111
012024050302SMTO3       010SAO MARTINHOON      NM   R$  000000000285700000000028880000000002840000000000286100000000028590000000002858000000000286304755000000000001242400000000003555460000000000000000009999123100000010000000000000BRSMTOACNOR3125
012024050302VITT3       010VITTIA      ON      NM   R$  000000000057100000000005830000000000560000000000056800000000005650000000000564000000000056600996000000000000634500000000000360894200000000000000009999123100000010000000000000BRVITTACNOR4107
012024050302VIVA3       010VIVARA S.A. ON  ED  NM   R$  000000000228900000000023220000000002270000000000228900000000022870000000002287000000000228812623000000000009144700000000020938878000000000000000009999123100000010000000000000BRVIVAACNOR0107
012024050302VIVR3       010VIVER       ON      NM   R$  000000000029600000000003010000000000296000000000029800000000002970000000000296000000000029700080000000000000035300000000000010540400000000000000009999123100000010000000000000BRVIVRACNOR4122
012024050302VIVT3       010TELEF BRASILON  EJ       R$  000000000498600000000050840000000004952000000000504200000000050350000000005035000000000506013925000000000003131900000000015792949500000000000000009999123100000010000000000000BRVIVTACNOR0181
012024050302VLID3       010VALID       ON  ED  NM   R$  000000000176800000000018000000000001756000000000177900000000017690000000001769000000000178202100000000000000387600000000000689577400000000000000009999123100000010000000000000BRVLIDACNOR5142
012024050302VSTE3       010VESTE       ON  ED  NM   R$  000000000144000000000014720000000001395000000000142100000000013950000000001395000000000147200046000000000000008000000000000011374400000000000000009999123100000010000000000000BRVSTEACNOR5103
012024050302VULC3       010VULCABRAS   ON      NM   R$  000000000160700000000016640000000001607000000000163500000000016370000000001637000000000164103075000000000000768700000000001257512400000000000000009999123100000010000000000000BRVULCACNOR2158
012024050302VVEO3       010VIVEO       ON  ED  NM   R$  000000000051000000000005480000000000510000000000053500000000005420000000000542000000000054706829000000000001645900000000000881384600000000000000009999123100000010000000000000BRVVEOACNOR0104
012024050302WEGE3       010WEG         ON      NM   R$  000000000389900000000038990000000003824000000000386400000000038770000000003876000000000387716993000000000005086200000000019657633600000000000000009999123100000010000000000000BRWEGEACNOR0222
012024050302SCAR3       010SAO CARLOS  ON  ED  NM   R$  000000000261100000000026470000000002524000000000256600000000025700000000002551000000000257100109000000000000029800000000000076474800000000000000009999123100000010000000000000BRSCARACNOR7131
012024050302SEER3       010SER EDUCA   ON      NM   R$  000000000057300000000006000000000000573000000000059200000000005930000000000592000000000059301207000000000000472500000000000280074900000000000000009999123100000010000000000000BRSEERACNOR5119
012024050302AERI3       010AERIS       ON      NM   R$  000000000005600000000000570000000000056000000000005600000000000570000000000056000000000005703259000000000001963500000000000110673100000000000000009999123100000010000000000000BRAERIACNOR4101
012024050302AESB3       010AES BRASIL  ON  ED  NM   R$  000000000093400000000009650000000000922000000000095000000000009510000000000951000000000095410054000000000004872400000000004629346300000000000000009999123100000010000000000000BRAESBACNOR7106
012024050302AFLT3       010AFLUENTE T  ON           R$  000000000073500000000007350000000000730000000000073100000000007300000000000730000000000078200004000000000000000500000000000000365900000000000000009999123100000010000000000000BRAFLTACNOR1121
012024050302AGRO3       010BRASILAGRO  ON      NM   R$  000000000250700000000026000000000002507000000000255900000000025670000000002567000000000257102095000000000000418400000000001070935200000000000000009999123100000010000000000000BRAGROACNOR7114
012024050302AGXY3       010AGROGALAXY  ON      NM   R$  000000000016900000000001740000000000168000000000017000000000001700000000000169000000000017000682000000000000426100000000000072486400000000000000009999123100000010000000000000BRAGXYACNOR4102
012024050302ALUP11      010ALUPAR      UNT     N2   R$  000000000288400000000029380000000002883000000000291300000000029050000000002902000000000291408890000000000003443200000000010031597100000000000000009999123100000010000000000000BRALUPCDAM15118
012024050302ALUP3       010ALUPAR      ON      N2   R$  000000000097400000000009890000000000964000000000097600000000009640000000000965000000000098400148000000000000017800000000000017380600000000000000009999123100000010000000000000BRALUPACNOR8118
012024050302ALUP4       010ALUPAR      PN      N2   R$  000000000095000000000009720000000000950000000000096500000000009690000000000954000000000097200128000000000000022900000000000022119200000000000000009999123100000010000000000000BRALUPACNPR5118
012024050302AMAR3       010LOJAS MARISAON      NM   R$  000000000016600000000001730000000000160000000000016500000000001650000000000164000000000016501426000000000001029500000000000170809900000000000000009999123100000010000000000000BRAMARACNOR4114
012024050302AMBP3       010AMBIPAR     ON      NM   R$  000000000105600000000010930000000001056000000000107100000000010650000000001064000000000106503196000000000001045800000000001120863200000000000000009999123100000010000000000000BRAMBPACNOR6103
012024050302ANIM3       010ANIMA       ON      NM   R$  000000000037200000000003960000000000372000000000038700000000003800000000000379000000000038009030000000000009522200000000003686316300000000000000009999123100000010000000000000BRANIMACNOR6107
012024050302BRSR3       010BANRISUL    ON  ED  N1   R$  000000000127000000000012780000000001263000000000127100000000012750000000001275000000000128900043000000000000005000000000000006359700000000000000009999123100000010000000000000BRBRSRACNOR3187
012024050302BRSR6       010BANRISUL    PNB ED  N1   R$  000000000126700000000012900000000001248000000000126100000000012570000000001257000000000126203487000000000001586700000000002001748100000000000000009999123100000010000000000000BRBRSRACNPB4190
012024050302BSLI3       010BRB BANCO   ON           R$  000000000098100000000009820000000000981000000000098100000000009820000000000929000000000097500003000000000000000300000000000000294500000000000000009999123100000010000000000000BRBSLIACNOR5192
012024050302BSLI4       010BRB BANCO   PN           R$  000000000099100000000009930000000000990000000000099100000000009900000000000976000000000099400004000000000000000400000000000000396600000000000000009999123100000010000000000000BRBSLIACNPR2192
012024050302B3SA3       010B3          ON      NM   R$  000000000113400000000011610000000001125000000000114600000000011390000000001139000000000114060712000000000090899800000000104222325700000000000000009999123100000010000000000000BRB3SAACNOR6132
012024050302BEEF3       010MINERVA     ON      NM   R$  000000000061200000000006280000000000611000000000062200000000006240000000000623000000000062507709000000000010044700000000006249599200000000000000009999123100000010000000000000BRBEEFACNOR6116
012024050302BMIN4       010MERC INVEST PN           R$  000000000152000000000015200000000001520000000000152000000000015200000000001520000000000159900001000000000000000200000000000000304000000000000000009999123100000010000000000000BRBMINACNPR1176
012024050302BMKS3       010BIC MONARK  ON  ED       R$  000000003800000000000384600000000035051000000003725300000000351070000000035108000000003790000012000000000000000071000000000002644993000000000000009999123100000010000000000000BRBMKSACNOR9166
012024050302BMOB3       010BEMOBI TECH ON      NM   R$  000000000120000000000012320000000001200000000000122000000000012300000000001230000000000123101659000000000000464300000000000566623900000000000000009999123100000010000000000000BRBMOBACNOR7103
012024050302BOBR4       010BOMBRIL     PN           R$  000000000022200000000002230000000000218000000000022100000000002220000000000222000000000022300030000000000000013700000000000003031100000000000000009999123100000010000000000000BRBOBRACNPR3128
012024050302KRSA3       010KORA SAUDE  ON      NM   R$  000000000008600000000000870000000000083000000000008400000000000850000000000085000000000008600164000000000000622100000000000052730800000000000000009999123100000010000000000000BRKRSAACNOR0100
012024050302MTRE3       010MITRE REALTYON  ED  NM   R$  000000000041500000000004290000000000410000000000041700000000004200000000000419000000000042004063000000000005015000000000002091857800000000000000009999123100000010000000000000BRMTREACNOR6110
012024050302MTSA3       010METISA      ON           R$  000000000789500000000078950000000007895000000000789500000000078950000000000000000000000000000001000000000000000100000000000000789500000000000000009999123100000010000000000000BRMTSAACNOR2069
012024050302MTSA4       010METISA      PN           R$  000000000481500000000048270000000004760000000000479800000000048250000000004726000000000482600031000000000000004800000000000023034400000000000000009999123100000010000000000000BRMTSAACNPR9071
012024050302MULT3       010MULTIPLAN   ON      N2   R$  000000000236600000000024780000000002366000000000244600000000024600000000002450000000000246134226000000000014559200000000035624016400000000000000009999123100000010000000000000BRMULTACNOR5138
012024050302MYPK3       010IOCHP-MAXIONON      NM   R$  000000000129800000000013180000000001287000000000130000000000013020000000001302000000000130603573000000000001738400000000002260893100000000000000009999123100000010000000000000BRMYPKACNOR7154
012024050302ALPA3       010ALPARGATAS  ON      N1   R$  000000000095800000000010220000000000958000000000100600000000010100000000000958000000000101100069000000000000007000000000000007047000000000000000009999123100000010000000000000BRALPAACNOR0231
012024050302ALPA4       010ALPARGATAS  PN      N1   R$  000000000099000000000010160000000000978000000000099100000000009780000000000977000000000098014036000000000007207300000000007146476400000000000000009999123100000010000000000000BRALPAACNPR7232
012024050302ALPK3       010ESTAPAR     ON      NM   R$  000000000039200000000004000000000000391000000000039500000000003960000000000396000000000039700241000000000000100300000000000039693500000000000000009999123100000010000000000000BRALPKACNOR9101
012024050302HYPE3       010HYPERA      ON  EJ  NM   R$  000000000304300000000030610000000002991000000000301400000000030260000000003024000000000302611949000000000007936200000000023926275800000000000000009999123100000010000000000000BRHYPEACNOR0140
012024050302KEPL3       010KEPLER WEBERON      NM   R$  000000000103800000000010410000000001022000000000103000000000010250000000001025000000000103304082000000000001213100000000001249925800000000000000009999123100000010000000000000BRKEPLACNOR1062
012024050302KLBN11      010KLABIN S/A  UNT     N2   R$  000000000233500000000023490000000002321000000000233400000000023330000000002333000000000233809235000000000003139100000000007328840000000000000000009999123100000010000000000000BRKLBNCDAM18140
012024050302KLBN3       010KLABIN S/A  ON      N2   R$  000000000046900000000004730000000000466000000000046900000000004690000000000469000000000047200849000000000000476300000000000223744500000000000000009999123100000010000000000000BRKLBNACNOR2168
012024050302KLBN4       010KLABIN S/A  PN      N2   R$  000000000046800000000004720000000000467000000000047000000000004720000000000471000000000047201956000000000001627800000000000765275800000000000000009999123100000010000000000000BRKLBNACNPR9168
012024050302LJQQ3       010QUERO-QUERO ON      NM   R$  000000000043600000000004750000000000434000000000046000000000004600000000000459000000000046108528000000000008767000000000004034254200000000000000009999123100000010000000000000BRLJQQACNOR5104
012024050302LOGG3       010LOG COM PROPON      NM   R$  000000000222900000000023130000000002229000000000229100000000022900000000002289000000000229701089000000000000231700000000000531000400000000000000009999123100000010000000000000BRLOGGACNOR7107
012024050302LOGN3       010LOG-IN      ON      NM   R$  000000000410000000000041470000000003936000000000403200000000041000000000004072000000000410000220000000000000027400000000000110492700000000000000009999123100000010000000000000BRLOGNACNOR3105
012024050302LPSB3       010LOPES BRASILON  ED  NM   R$  000000000022100000000002250000000000218000000000022200000000002190000000000219000000000022300140000000000000124500000000000027737100000000000000009999123100000010000000000000BRLPSBACNOR0114
012024050302LREN3       010LOJAS RENNERON      NM   R$  000000000160000000000016580000000001600000000000163300000000016400000000001636000000000164023840000000000017492900000000028566104800000000000000009999123100000010000000000000BRLRENACNOR1220
012024050302ARML3       010ARMAC       ON      NM   R$  000000000107000000000010970000000001058000000000107300000000010650000000001065000000000106903391000000000000859100000000000922296100000000000000009999123100000010000000000000BRARMLACNOR1111
012024050302ARZZ3       010AREZZO CO   ON      NM   R$  000000000538400000000054070000000005238000000000529800000000052630000000005261000000000526510263000000000002699400000000014302736100000000000000009999123100000010000000000000BRARZZACNOR3146
012024050302ASAI3       010ASSAI       ON      NM   R$  000000000133900000000013630000000001336000000000135300000000013530000000001353000000000135422751000000000012649900000000017127463200000000000000009999123100000010000000000000BRASAIACNOR0106
012024050302BPAN4       010BANCO PAN   PN      N1   R$  000000000094700000000009570000000000937000000000094300000000009400000000000939000000000094003094000000000001510700000000001425115600000000000000009999123100000010000000000000BRBPANACNPR1115
012024050302BRAP3       010BRADESPAR   ON  ED  N1   R$  000000000194600000000019710000000001934000000000194600000000019520000000001952000000000195700292000000000000047400000000000092273100000000000000009999123100000010000000000000BRBRAPACNOR5148
012024050302BRAP4       010BRADESPAR   PN  ED  N1   R$  000000000203200000000020410000000002002000000000201900000000020230000000002023000000000202709600000000000004192000000000008465307200000000000000009999123100000010000000000000BRBRAPACNPR2148
012024050302CSUD3       010CSU DIGITAL ON  ED  NM   R$  000000000185700000000018570000000001815000000000183400000000018410000000001830000000000184100267000000000000044800000000000082163400000000000000009999123100000010000000000000BRCSUDACNOR5109
012024050302CTKA4       010KARSTEN     PN           R$  000000000194500000000019450000000001945000000000194500000000019450000000001850000000000194500001000000000000000100000000000000194500000000000000009999123100000010000000000000BRCTKAACNPR7043
012024050302CTNM4       010COTEMINAS   PN           R$  000000000011300000000001130000000000108000000000010900000000001110000000000111000000000011300106000000000000046100000000000005060200000000000000009999123100000010000000000000BRCTNMACNPR6129
012024050302CTSA3       010SANTANENSE  ON           R$  000000000031500000000003180000000000286000000000029500000000002860000000000286000000000029000045000000000000032100000000000009473100000000000000009999123100000010000000000000BRCTSAACNOR3062
012024050302CTSA4       010SANTANENSE  PN           R$  000000000015700000000001670000000000151000000000015800000000001550000000000155000000000015800068000000000000030600000000000004842700000000000000009999123100000010000000000000BRCTSAACNPR0062
012024050302CURY3       010CURY S/A    ON  ED  NM   R$  000000000199500000000020700000000001995000000000204200000000020610000000002055000000000206708511000000000002345900000000004792372800000000000000009999123100000010000000000000BRCURYACNOR3108
012024050302CVCB3       010CVC BRASIL  ON      NM   R$  000000000023800000000002420000000000229000000000023600000000002390000000000239000000000024013789000000000025884500000000006124051100000000000000009999123100000010000000000000BRCVCBACNOR1115
012024050302ELMD3       010ELETROMIDIA ON  ED  NM   R$  000000000175000000000017770000000001733000000000174700000000017740000000001759000000000177400184000000000000034400000000000060102700000000000000009999123100000010000000000000BRELMDACNOR3101
012024050302EMAE4       010EMAE        PN           R$  000000000581000000000058100000000005496000000000563900000000057410000000005740000000000574800070000000000000008500000000000047934000000000000000009999123100000010000000000000BREMAEACNPR1125
012024050302EMBR3       010EMBRAER     ON      NM   R$  000000000330000000000034300000000003289000000000338500000000034250000000003425000000000342616532000000000006398900000000021661152100000000000000009999123100000010000000000000BREMBRACNOR4191
012024050302HBOR3       010HELBOR      ON  ED  NM   R$  000000000028000000000002880000000000277000000000028200000000002870000000000286000000000028701059000000000000609700000000000172500400000000000000009999123100000010000000000000BRHBORACNOR3118
012024050302HBRE3       010HBR REALTY  ON      NM   R$  000000000052900000000005460000000000529000000000053700000000005390000000000539000000000054300632000000000000437500000000000235357200000000000000009999123100000010000000000000BRHBREACNOR4100
012024050302HBSA3       010HIDROVIAS   ON      NM   R$  000000000046200000000004650000000000445000000000045500000000004450000000000444000000000044609708000000000013398200000000006105010500000000000000009999123100000010000000000000BRHBSAACNOR0100
012024050302BALM4       010BAUMER      PN           R$  000000000104700000000010470000000001047000000000104700000000010470000000001001000000000107800001000000000000000100000000000000104700000000000000009999123100000010000000000000BRBALMACNPR2056
012024050302BAUH4       010EXCELSIOR   PN  ED       R$  000000000799900000000079990000000007999000000000799900000000079990000000007700000000000799900002000000000000000200000000000001599800000000000000009999123100000010000000000000BRBAUHACNPR3118
012024050302BAZA3       010AMAZONIA    ON  ERJ      R$  000000001010000000000103120000000010100000000001026000000000103000000000010151000000001030000011000000000000001500000000000015391100000000000000009999123100000010000000000000BRBAZAACNOR0179
012024050302BBAS3       010BRASIL      ON      NM   R$  000000000280200000000028360000000002790000000000282200000000028220000000002821000000000282350978000000000017315400000000048870963500000000000000009999123100000010000000000000BRBBASACNOR3322
012024050302COCE5       010COELCE      PNA ED       R$  000000000343600000000036300000000003366000000000351200000000035510000000003550000000000355100156000000000000023100000000000081132300000000000000009999123100000010000000000000BRCOCEACNPA3147
012024050302COGN3       010COGNA ON    ON      NM   R$  000000000023000000000002380000000000230000000000023300000000002300000000000230000000000023115532000000000039942700000000009322440300000000000000009999123100000010000000000000BRCOGNACNOR2104
012024050302CYRE3       010CYRELA REALTON  ED  NM   R$  000000000212000000000021950000000002108000000000217600000000021810000000002181000000000218320093000000000008039600000000017497846600000000000000009999123100000010000000000000BRCYREACNOR7140
012024050302DASA3       010DASA        ON      NM   R$  000000000047900000000004840000000000467000000000047200000000004690000000000468000000000047202214000000000000781900000000000369589300000000000000009999123100000010000000000000BRDASAACNOR1122
012024050302DESK3       010DESKTOP     ON      NM   R$  000000000134700000000013690000000001332000000000135100000000013530000000001350000000000135300792000000000000189500000000000256042500000000000000009999123100000010000000000000BRDESKACNOR2104
012024050302DEXP3       010DEXXOS PAR  ON  ED  N1   R$  000000000106800000000010990000000001068000000000108300000000010700000000001070000000000108000301000000000000059800000000000064786800000000000000009999123100000010000000000000BRDEXPACNOR1105
012024050302HETA4       010HERCULES    PN           R$  000000000057000000000005710000000000570000000000057000000000005710000000000557000000000058500002000000000000000200000000000000114100000000000000009999123100000010000000000000BRHETAACNPR9136
012024050302MAPT3       010CEMEPE      ON           R$  000000000065000000000007390000000000630000000000067200000000007390000000000661000000000073900010000000000000001100000000000000739400000000000000009999123100000010000000000000BRMAPTACNOR8106
012024050302MAPT4       010CEMEPE      PN           R$  000000000070000000000007990000000000700000000000071600000000007500000000000731000000000078000007000000000000001800000000000001288900000000000000009999123100000010000000000000BRMAPTACNPR5106
012024050302MATD3       010MATER DEI   ON  ED  NM   R$  000000000058100000000006040000000000573000000000058800000000005810000000000580000000000058703869000000000001141600000000000671478100000000000000009999123100000010000000000000BRMATDACNOR4104
012024050302MBLY3       010MOBLY       ON      NM   R$  000000000023300000000002410000000000229000000000023500000000002300000000000230000000000023100675000000000000451600000000000106336300000000000000009999123100000010000000000000BRMBLYACNOR5100
012024050302MDIA3       010M.DIASBRANCOON      NM   R$  000000000340500000000034540000000003400000000000343500000000034400000000003440000000000344402743000000000000738700000000002537523000000000000000009999123100000010000000000000BRMDIAACNOR7134
012024050302MDNE3       010MOURA DUBEUXON      NM   R$  000000000125700000000013210000000001240000000000129500000000013030000000001303000000000131404010000000000002085200000000002702354100000000000000009999123100000010000000000000BRMDNEACNOR9100
012024050302MEAL3       010IMC S/A     ON      NM   R$  000000000015700000000001620000000000157000000000016000000000001580000000000158000000000015900608000000000000575700000000000092152600000000000000009999123100000010000000000000BRMEALACNOR9105
012024050302MELK3       010MELNICK     ON  ED  NM   R$  000000000043800000000004540000000000438000000000044600000000004540000000000450000000000045400251000000000000132900000000000059335000000000000000009999123100000010000000000000BRMELKACNOR8111
012024050302CRFB3       010CARREFOUR BRON      NM   R$  000000000114200000000011470000000001119000000000113100000000011340000000001127000000000113507800000000000006505500000000007359655400000000000000009999123100000010000000000000BRCRFBACNOR2116
012024050302CRPG5       010CRISTAL     PNA          R$  000000000299100000000030090000000002991000000000299900000000029910000000002991000000000301000013000000000000002800000000000008399000000000000000009999123100000010000000000000BRCRPGACNPA3118
012024050302CRPG6       010CRISTAL     PNB          R$  000000000293100000000029310000000002931000000000293100000000029310000000002921000000000294900001000000000000000100000000000000293100000000000000009999123100000010000000000000BRCRPGACNPB1118
012024050302CSAN3       010COSAN       ON  ATZ NM   R$  000000000145500000000014900000000001455000000000147000000000014740000000001474000000000147515784000000000010659500000000015677949500000000000000009999123100000010000000000000BRCSANACNOR6125
012024050302EKTR4       010ELEKTRO     PN  ED       R$  000000000370300000000037030000000003703000000000370300000000037030000000003720000000000386000002000000000000000200000000000000740600000000000000009999123100000010000000000000BREKTRACNPR7162
012024050302HAGA3       010HAGA S/A    ON           R$  000000000025000000000002830000000000250000000000026300000000002690000000000261000000000026900037000000000000021600000000000005684700000000000000009999123100000010000000000000BRHAGAACNOR7103
012024050302HAGA4       010HAGA S/A    PN           R$  000000000012500000000001450000000000124000000000013300000000001400000000000135000000000014000129000000000000078800000000000010513500000000000000009999123100000010000000000000BRHAGAACNPR4103
012024050302HAPV3       010HAPVIDA     ON      NM   R$  000000000038200000000003890000000000380000000000038400000000003850000000000384000000000038629917000000000049296700000000018963906000000000000000009999123100000010000000000000BRHAPVACNOR4113
012024050302SRNA3       010SERENA      ON      NM   R$  000000000085000000000008760000000000850000000000086500000000008660000000000858000000000086612438000000000004640400000000004017313100000000000000009999123100000010000000000000BRSRNAACNOR4100
012024050302STBP3       010SANTOS BRP  ON      NM   R$  000000000140700000000014360000000001387000000000140400000000014030000000001394000000000140313505000000000009005700000000012652881400000000000000009999123100000010000000000000BRSTBPACNOR3129
012024050302SUZB3       010SUZANO S.A. ON      NM   R$  000000000592100000000059220000000005861000000000590000000000059170000000005913000000000591712195000000000003740200000000022067765300000000000000009999123100000010000000000000BRSUZBACNOR0129
012024050302WEST3       010WESTWING    ON      NM   R$  000000000011800000000001200000000000117000000000011800000000001200000000000118000000000012000034000000000000011100000000000001314400000000000000009999123100000010000000000000BRWESTACNOR3100
012024050302RCSL3       010RECRUSUL    ON           R$  000000000016200000000001650000000000161000000000016200000000001610000000000160000000000016102047000000000001509800000000000245520000000000000000009999123100000010000000000000BRRCSLACNOR4133
012024050302RCSL4       010RECRUSUL    PN           R$  000000000005000000000000510000000000049000000000005000000000000500000000000050000000000005100347000000000000367500000000000018436500000000000000009999123100000010000000000000BRRCSLACNPR1133
012024050302RDNI3       010RNI         ON      NM   R$  000000000034800000000003700000000000348000000000036200000000003620000000000356000000000036200021000000000000003900000000000001412100000000000000009999123100000010000000000000BRRDNIACNOR9116
012024050302RDOR3       010REDE D OR   ON      NM   R$  000000000271000000000027150000000002663000000000269200000000026820000000002682000000000268319533000000000007696500000000020721782500000000000000009999123100000010000000000000BRRDORACNOR8112
012024050302RECV3       010PETRORECSA  ON  ED  NM   R$  000000000219200000000022080000000002143000000000216400000000021550000000002155000000000216009697000000000002707700000000005861571700000000000000009999123100000010000000000000BRRECVACNOR3106
012024050302REDE3       010REDE ENERGIAON           R$  000000000068700000000006880000000000685000000000068700000000006850000000000683000000000069300009000000000000001000000000000000687000000000000000009999123100000010000000000000BRREDEACNOR7127
012024050302RENT3       010LOCALIZA    ON      NM   R$  000000000497000000000050770000000004956000000000500900000000049880000000004977000000000499033621000000000015048300000000075382559600000000000000009999123100000010000000000000BRRENTACNOR4195
012024050302CLSA3       010CLEARSALE   ON      NM   R$  000000000079900000000008110000000000761000000000079400000000008000000000000799000000000080205380000000000003523600000000002798497000000000000000009999123100000010000000000000BRCLSAACNOR0100
012024050302CLSC4       010CELESC      PN  ED  N2   R$  000000000722100000000074290000000007221000000000731400000000073010000000007230000000000737000008000000000000000800000000000005851900000000000000009999123100000010000000000000BRCLSCACNPR3130
012024050302CMIG3       010CEMIG       ON  EDB N1   R$  000000000120900000000012370000000001201000000000121400000000012010000000001201000000000121901531000000000000637300000000000773697000000000000000009999123100000010000000000000BRCMIGACNOR6241
012024050302CMIG4       010CEMIG       PN  EDB N1   R$  000000000104600000000010710000000001044000000000105600000000010520000000001052000000000105329713000000000018047800000000019066477700000000000000009999123100000010000000000000BRCMIGACNPR3242
012024050302CMIN3       010CSNMINERACAOON      N2   R$  000000000051800000000005220000000000511000000000051600000000005180000000000517000000000051811068000000000008006800000000004139116700000000000000009999123100000010000000000000BRCMINACNOR2110
012024050302CXSE3       010CAIXA SEGURION  EDR NM   R$  000000000159600000000016640000000001587000000000163100000000016440000000001641000000000164517434000000000006000000000000009789646400000000000000009999123100000010000000000000BRCXSEACNOR7106
012024050302BPAC11      010BTGP BANCO  UNT     N2   R$  000000000347200000000035580000000003467000000000352300000000035320000000003530000000000353434103000000000011860500000000041793095700000000000000009999123100000010000000000000BRBPACUNT006118
012024050302BPAC3       010BTGP BANCO  ON      N2   R$  000000000171000000000018010000000001709000000000175500000000018010000000001754000000000180200049000000000000005900000000000010355600000000000000009999123100000010000000000000BRBPACACNOR7133
012024050302BPAC5       010BTGP BANCO  PNA     N2   R$  000000000085800000000008770000000000840000000000086400000000008720000000000859000000000087200052000000000000011200000000000009681900000000000000009999123100000010000000000000BRBPACACNPA0133
012024050302CSED3       010CRUZEIRO EDUON      NM   R$  000000000043800000000004550000000000438000000000044700000000004540000000000453000000000045501357000000000002064500000000000923428200000000000000009999123100000010000000000000BRCSEDACNOR9104
012024050302CSMG3       010COPASA      ON  ED  NM   R$  000000000197700000000019840000000001932000000000194400000000019380000000001938000000000194006437000000000001927600000000003748526500000000000000009999123100000010000000000000BRCSMGACNOR5173
012024050302CSNA3       010SID NACIONALON           R$  000000000142000000000014390000000001414000000000142900000000014250000000001425000000000142611162000000000005246600000000007499217200000000000000009999123100000010000000000000BRCSNAACNOR6260
012024050302BBSE3       010BBSEGURIDADEON      NM   R$  000000000327000000000032850000000003250000000000327000000000032840000000003281000000000328513287000000000003172200000000010375281800000000000000009999123100000010000000000000BRBBSEACNOR5124
012024050302BIOM3       010BIOMM       ON      MA   R$  000000000187900000000019310000000001822000000000186600000000018370000000001835000000000185000944000000000000203700000000000380178400000000000000009999123100000010000000000000BRBIOMACNOR2112
012024050302BLAU3       010BLAU        ON  ED  NM   R$  000000000103200000000010750000000001032000000000105300000000010530000000001053000000000106801855000000000000387600000000000408190700000000000000009999123100000010000000000000BRBLAUACNOR8113
012024050302BMEB3       010MERCANTIL   ON      N1   R$  000000000232500000000023250000000002325000000000232500000000023250000000002200000000000248400004000000000000000800000000000001860000000000000000009999123100000010000000000000BRBMEBACNOR8205
012024050302BMEB4       010MERCANTIL   PN      N1   R$  000000000235000000000026010000000002349000000000245100000000026000000000002600000000000262700095000000000000027000000000000066190400000000000000009999123100000010000000000000BRBMEBACNPR5210
012024050302BMGB4       010BANCO BMG   PN  EJ  N1   R$  000000000032900000000003400000000000328000000000033400000000003350000000000335000000000033800963000000000000654000000000000218553200000000000000009999123100000010000000000000BRBMGBACNPR0109
012024050302BRBI11      010BR PARTNERS UNT     N2   R$  000000000146800000000015190000000001452000000000147900000000014910000000001488000000000151401962000000000000307800000000000455369100000000000000009999123100000010000000000000BRBRBICDAM10108
012024050302BRFS3       010BRF SA      ON  ATZ NM   R$  000000000169300000000017170000000001657000000000167900000000016720000000001672000000000167738514000000000032369300000000054374898200000000000000009999123100000010000000000000BRBRFSACNOR8122
012024050302BRIT3       010BRISANET    ON  ED  NM   R$  000000000045000000000004580000000000440000000000045000000000004470000000000447000000000044901452000000000001184100000000000533174400000000000000009999123100000010000000000000BRBRITACNOR0103
012024050302BRKM3       010BRASKEM     ON      N1   R$  000000000216500000000022310000000002147000000000218300000000022310000000002206000000000248000066000000000000009400000000000020522200000000000000009999123100000010000000000000BRBRKMACNOR1119
012024050302BRKM5       010BRASKEM     PNA     N1   R$  000000000222800000000023050000000002216000000000226800000000023050000000002289000000000230609022000000000003678100000000008342028700000000000000009999123100000010000000000000BRBRKMACNPA4121
012024050302CASH3       010MELIUZ      ON      NM   R$  000000000046500000000004700000000000460000000000046400000000004650000000000464000000000046503514000000000002036700000000000946773400000000000000009999123100000010000000000000BRCASHACNOR8106
012024050302CBAV3       010CBA         ON      NM   R$  000000000051800000000005340000000000513000000000052200000000005240000000000524000000000052504350000000000003337500000000001744609300000000000000009999123100000010000000000000BRCBAVACNOR5104
012024050302CCRO3       010CCR SA      ON      NM   R$  000000000127300000000012930000000001270000000000128100000000012750000000001274000000000127813720000000000008782200000000011255526100000000000000009999123100000010000000000000BRCCROACNOR2145
012024050302CEAB3       010CEA MODAS   ON      NM   R$  000000000114400000000012020000000001136000000000117800000000012020000000001201000000000120307282000000000003177300000000003745288200000000000000009999123100000010000000000000BRCEABACNOR1102
012024050302CEBR3       010CEB         ON  ED       R$  000000000268100000000027290000000002667000000000269900000000026970000000002687000000000270500042000000000000009800000000000026450800000000000000009999123100000010000000000000BRCEBRACNOR5125
012024050302CEBR5       010CEB         PNA ED       R$  000000000221600000000023190000000002216000000000227000000000022780000000002201000000000226900010000000000000001100000000000002498000000000000000009999123100000010000000000000BRCEBRACNPA8124
012024050302CEBR6       010CEB         PNB ED       R$  000000000236000000000023600000000002280000000000231100000000022900000000002247000000000229000017000000000000001800000000000004161400000000000000009999123100000010000000000000BRCEBRACNPB6124
012024050302CEDO3       010CEDRO       ON      N1   R$  000000000296400000000032300000000002964000000000313100000000032300000000002900000000000350000003000000000000000300000000000000939400000000000000009999123100000010000000000000BRCEDOACNOR8096
012024050302CEDO4       010CEDRO       PN      N1   R$  000000000275000000000027600000000002630000000000268600000000027020000000002700000000000277000010000000000000001300000000000003492600000000000000009999123100000010000000000000BRCEDOACNPR5128
012024050302CEEB3       010COELBA      ON           R$  000000000393600000000039360000000003924000000000392700000000039240000000003814000000000396000003000000000000000400000000000001571000000000000000009999123100000010000000000000BRCEEBACNOR3198
012024050302CGAS3       010COMGAS      ON           R$  000000001088900000000108890000000010650000000001073100000000106550000000010655000000001088400003000000000000000300000000000003219400000000000000009999123100000010000000000000BRCGASACNOR0163
012024050302CGAS5       010COMGAS      PNA          R$  000000001150000000000115490000000011272000000001142300000000112720000000011300000000001154900005000000000000000500000000000005711700000000000000009999123100000010000000000000BRCGASACNPA3160
012024050302CGRA3       010GRAZZIOTIN  ON           R$  000000000262400000000026840000000002622000000000264600000000026480000000002647000000000269300011000000000000001600000000000004233700000000000000009999123100000010000000000000BRCGRAACNOR2082
012024050302CGRA4       010GRAZZIOTIN  PN           R$  000000000269000000000028000000000002690000000000276000000000027580000000002703000000000279200055000000000000012300000000000033953000000000000000009999123100000010000000000000BRCGRAACNPR9082
012024050302CIEL3       010CIELO       ON      NM   R$  000000000055900000000005590000000000556000000000055700000000005590000000000559000000000056013335000000000022019800000000012285523400000000000000009999123100000010000000000000BRCIELACNOR3157
012024050302ENAT3       010ENAUTA PART ON      NM   R$  000000000275000000000028010000000002701000000000277600000000028010000000002776000000000280111867000000000004972800000000013808164100000000000000009999123100000010000000000000BRENATACNOR0104
012024050302ENEV3       010ENEVA       ON      NM   R$  000000000127000000000013010000000001265000000000128400000000012760000000001274000000000127612685000000000006133900000000007879689300000000000000009999123100000010000000000000BRENEVACNOR8105
012024050302ENGI11      010ENERGISA    UNT     N2   R$  000000000464000000000047680000000004604000000000472200000000047460000000004740000000000474619279000000000007991300000000037735991700000000000000009999123100000010000000000000BRENGICDAM16135
012024050302ENGI3       010ENERGISA    ON      N2   R$  000000000150900000000015670000000001509000000000153300000000015480000000001530000000000162400049000000000000007900000000000012115000000000000000009999123100000010000000000000BRENGIACNOR0145
012024050302ENGI4       010ENERGISA    PN      N2   R$  000000000077600000000008050000000000776000000000079600000000008050000000000795000000000080500069000000000000014300000000000011388600000000000000009999123100000010000000000000BRENGIACNPR7141
012024050302ENJU3       010ENJOEI      ON      NM   R$  000000000025900000000002740000000000244000000000025600000000002480000000000246000000000024802696000000000003289000000000000843243200000000000000009999123100000010000000000000BRENJUACNOR9100
012024050302EPAR3       010EMBPAR S/A  ON  ED       R$  000000000074700000000007510000000000740000000000074600000000007480000000000746000000000074800022000000000000005400000000000004032700000000000000009999123100000010000000000000BREPARACNOR9105
012024050302IFCM3       010INFRACOMM   ON      NM   R$  000000000007400000000000790000000000074000000000007500000000000740000000000074000000000007503624000000000008755300000000000661080800000000000000009999123100000010000000000000BRIFCMACNOR8101
012024050302IGTI11      010IGUATEMI S.AUNT     N1   R$  000000000221300000000022450000000002181000000000221800000000022200000000002220000000000223018191000000000005460400000000012112916400000000000000009999123100000010000000000000BRIGTICDAM16106
012024050302IGTI3       010IGUATEMI S.AON      N1   R$  000000000030100000000003090000000000291000000000029900000000002970000000000297000000000030100224000000000000083900000000000025154800000000000000009999123100000010000000000000BRIGTIACNOR8106
012024050302IGTI4       010IGUATEMI S.APN      N1   R$  000000000095000000000009660000000000950000000000095400000000009660000000000873000000000109500008000000000000001100000000000001049800000000000000009999123100000010000000000000BRIGTIACNPR5106
012024050302SAPR3       010SANEPAR     ON      N2   R$  000000000050800000000005150000000000502000000000050800000000005070000000000507000000000051000822000000000000341000000000000173344400000000000000009999123100000010000000000000BRSAPRACNOR9158
012024050302SAPR4       010SANEPAR     PN      N2   R$  000000000053200000000005630000000000527000000000055300000000005630000000000559000000000056302924000000000005304800000000002936639500000000000000009999123100000010000000000000BRSAPRACNPR6158
012024050302SBFG3       010GRUPO SBF   ON  ED  NM   R$  000000000117500000000012550000000001175000000000122100000000012380000000001238000000000123907165000000000002502000000000003056627900000000000000009999123100000010000000000000BRSBFGACNOR1103
012024050302SBSP3       010SABESP      ON  EJ  NM   R$  000000000815000000000081990000000008032000000000807600000000080800000000008080000000000808414981000000000003694000000000029833275500000000000000009999123100000010000000000000BRSBSPACNOR5161
012024050302USIM3       010USIMINAS    ON  ED  N1   R$  000000000075800000000007720000000000749000000000076400000000007660000000000765000000000076605245000000000005086300000000003886482000000000000000009999123100000010000000000000BRUSIMACNOR3167
012024050302USIM5       010USIMINAS    PNA ED  N1   R$  000000000080300000000008130000000000799000000000080300000000008000000000000800000000000080117968000000000013716200000000011027278200000000000000009999123100000010000000000000BRUSIMACNPA6169
012024050302JALL3       010JALLESMACHADON      NM   R$  000000000070900000000007280000000000709000000000071500000000007130000000000713000000000071702273000000000000795300000000000569252000000000000000009999123100000010000000000000BRJALLACNOR0105
012024050302JBSS3       010JBS         ON      NM   R$  000000000242000000000024210000000002362000000000239400000000023860000000002385000000000238715438000000000007196000000000017228591700000000000000009999123100000010000000000000BRJBSSACNOR8121
012024050302MILS3       010MILLS       ON  ED  NM   R$  000000000138700000000014100000000001375000000000139200000000013860000000001386000000000139005663000000000001296400000000001805653500000000000000009999123100000010000000000000BRMILSACNOR2126
012024050302MLAS3       010MULTILASER  ON      NM   R$  000000000020300000000002140000000000203000000000021000000000002090000000000208000000000021203426000000000002288500000000000481406600000000000000009999123100000010000000000000BRMLASACNOR9101
012024050302MNDL3       010MUNDIAL     ON           R$  000000000450000000000045600000000004500000000000452500000000045600000000004340000000000465900006000000000000000700000000000003168000000000000000009999123100000010000000000000BRMNDLACNOR4107
012024050302MOAR3       010MONT ARANHA ON           R$  000000003999900000000400000000000039994000000003999800000000399940000000012100000000003999500004000000000000000400000000000015999300000000000000009999123100000010000000000000BRMOARACNOR5234
012024050302MOVI3       010MOVIDA      ON      NM   R$  000000000074000000000007850000000000740000000000076700000000007620000000000762000000000076607784000000000005308800000000004072988200000000000000009999123100000010000000000000BRMOVIACNOR0122
012024050302MRFG3       010MARFRIG     ON      NM   R$  000000000095900000000009780000000000953000000000096100000000009560000000000956000000000095714780000000000006633600000000006375315500000000000000009999123100000010000000000000BRMRFGACNOR0116
012024050302CAMB3       010CAMBUCI     ON           R$  000000000102000000000010700000000001020000000000105400000000010600000000001057000000000106000330000000000000100800000000000106284900000000000000009999123100000010000000000000BRCAMBACNOR4128
012024050302CAML3       010CAMIL       ON      NM   R$  000000000085600000000008940000000000856000000000088300000000008850000000000885000000000088701888000000000000745200000000000658049400000000000000009999123100000010000000000000BRCAMLACNOR3127
012024050302EQPA3       010EQTL PARA   ON  ED       R$  000000000075500000000007800000000000751000000000075800000000007800000000000754000000000077400004000000000000001100000000000000833900000000000000009999123100000010000000000000BREQPAACNOR1111
012024050302EQTL3       010EQUATORIAL  ON  EDS NM   R$  000000000307300000000031770000000003065000000000313900000000031610000000003153000000000316221826000000000011593300000000036396450900000000000000009999123100000010000000000000BREQTLACNOR0130
012024050302ESPA3       010ESPACOLASER ON      NM   R$  000000000009400000000001010000000000093000000000009500000000000950000000000095000000000009604985000000000005249100000000000500033300000000000000009999123100000010000000000000BRESPAACNOR7103
012024050302PFRM3       010PROFARMA    ON      NM   R$  000000000059400000000006140000000000590000000000060000000000006110000000000609000000000061100516000000000000184900000000000111018100000000000000009999123100000010000000000000BRPFRMACNOR1116
012024050302PGMN3       010PAGUE MENOS ON      NM   R$  000000000025700000000002660000000000254000000000026200000000002620000000000261000000000026301986000000000001089700000000000285905200000000000000009999123100000010000000000000BRPGMNACNOR8103
012024050302RSUL4       010RIOSULENSE  PN           R$  000000000780400000000078950000000007600000000000775500000000076000000000007459000000000779600014000000000000001400000000000010857400000000000000009999123100000010000000000000BRRSULACNPR3114
012024050302EUCA4       010EUCATEX     PN      N1   R$  000000000155500000000015800000000001534000000000156000000000015700000000001544000000000157000514000000000000106500000000000166174400000000000000009999123100000010000000000000BREUCAACNPR8044
012024050302EVEN3       010EVEN        ON      NM   R$  000000000070700000000007430000000000707000000000072400000000007180000000000718000000000072003472000000000001986000000000001438964700000000000000009999123100000010000000000000BREVENACNOR8118
012024050302EZTC3       010EZTEC       ON      NM   R$  000000000142600000000014840000000001418000000000145900000000014640000000001464000000000146811378000000000005716600000000008342129000000000000000009999123100000010000000000000BREZTCACNOR0124
012024050302INEP3       010INEPAR      ON           R$  000000000032000000000003320000000000310000000000032300000000003310000000000327000000000033100206000000000000098100000000000031716300000000000000009999123100000010000000000000BRINEPACNOR1143
012024050302INEP4       010INEPAR      PN           R$  000000000030400000000003050000000000292000000000029500000000003030000000000295000000000030300056000000000000026300000000000007774000000000000000009999123100000010000000000000BRINEPACNPR8143
012024050302NEOE3       010NEOENERGIA  ON      NM   R$  000000000195500000000019990000000001953000000000197500000000019760000000001968000000000197607532000000000003966100000000007836353700000000000000009999123100000010000000000000BRNEOEACNOR3122
012024050302NGRD3       010NEOGRID     ON      NM   R$  000000000010800000000001100000000000103000000000010600000000001060000000000106000000000010701101000000000001116400000000000118983000000000000000009999123100000010000000000000BRNGRDACNOR3104
012024050302NINJ3       010GETNINJAS   ON      NM   R$  000000000048400000000004930000000000476000000000048200000000004760000000000475000000000048100033000000000000016900000000000008147000000000000000009999123100000010000000000000BRNINJACNOR5101
012024050302SANB11      010SANTANDER BRUNT          R$  000000000302300000000030680000000002958000000000298800000000029600000000002959000000000296914113000000000004316200000000012901029400000000000000009999123100000010000000000000BRSANBCDAM13164
012024050302SANB3       010SANTANDER BRON           R$  000000000139500000000014400000000001385000000000140500000000014000000000001390000000000140000739000000000000116800000000000164164400000000000000009999123100000010000000000000BRSANBACNOR8171
012024050302NORD3       010NORDON MET  ON           R$  000000000102500000000010320000000001025000000000102900000000010320000000000858000000000103000002000000000000000300000000000000308900000000000000009999123100000010000000000000BRNORDACNOR7135
012024050302NTCO3       010GRUPO NATURAON      NM   R$  000000000170900000000017300000000001695000000000170800000000017080000000001707000000000170919017000000000010198700000000017428079500000000000000009999123100000010000000000000BRNTCOACNOR5106
012024050302PRNR3       010PRINER      ON  ED  NM   R$  000000000130100000000013230000000001293000000000130500000000013180000000001309000000000131801241000000000000319300000000000416958400000000000000009999123100000010000000000000BRPRNRACNOR4109
012024050302PSSA3       010PORTO SEGUROON      NM   R$  000000000301100000000030230000000002978000000000300300000000029940000000002994000000000299508302000000000003242800000000009738630300000000000000009999123100000010000000000000BRPSSAACNOR7154
012024050302PTBL3       010PORTOBELLO  ON      NM   R$  000000000060200000000006180000000000600000000000060700000000006040000000000604000000000060701317000000000000518700000000000315211300000000000000009999123100000010000000000000BRPTBLACNOR8132
012024050302PTNT3       010PETTENATI   ON           R$  000000000101300000000010370000000001013000000000102500000000010370000000000973000000000103700002000000000000000200000000000000205000000000000000009999123100000010000000000000BRPTNTACNOR6042
012024050302PTNT4       010PETTENATI   PN           R$  000000000076700000000007690000000000760000000000076500000000007600000000000732000000000076000003000000000000000300000000000000229600000000000000009999123100000010000000000000BRPTNTACNPR3047
012024050302SANB4       010SANTANDER BRPN           R$  000000000159100000000016200000000001565000000000159000000000015670000000001567000000000156800802000000000000139600000000000222046500000000000000009999123100000010000000000000BRSANBACNPR5171
012024050302TRPL3       010TRAN PAULISTON      N1   R$  000000000341700000000034170000000003340000000000339100000000033400000000003325000000000341400003000000000000000300000000000001017300000000000000009999123100000010000000000000BRTRPLACNOR4185
012024050302TRPL4       010TRAN PAULISTPN      N1   R$  000000000259900000000026350000000002586000000000261500000000026090000000002609000000000262415613000000000003067700000000008024079800000000000000009999123100000010000000000000BRTRPLACNPR1185
012024050302TTEN3       0103TENTOS     ON      NM   R$  000000000103000000000010460000000000985000000000100600000000009940000000000994000000000099905235000000000001461600000000001470917900000000000000009999123100000010000000000000BRTTENACNOR0103
012024050302TUPY3       010TUPY        ON      NM   R$  000000000263600000000026810000000002625000000000265700000000026610000000002660000000000266803026000000000000753500000000002002496400000000000000009999123100000010000000000000BRTUPYACNOR1183
012024050302INTB3       010INTELBRAS   ON      NM   R$  000000000229000000000023140000000002224000000000225400000000022350000000002235000000000224005930000000000001353100000000003050521600000000000000009999123100000010000000000000BRINTBACNOR9111
012024050302IRBR3       010IRBBRASIL REON      NM   R$  000000000443200000000045200000000004364000000000445300000000044500000000004450000000000446006845000000000001463600000000006518455100000000000000009999123100000010000000000000BRIRBRACNOR4111
012024050302LUPA3       010LUPATECH    ON      NM   R$  000000000013600000000001400000000000134000000000013600000000001370000000000136000000000013701389000000000001682200000000000230312100000000000000009999123100000010000000000000BRLUPAACNOR8112
012024050302LVTC3       010WDC NETWORKSON      NM   R$  000000000038600000000003940000000000386000000000039000000000003890000000000388000000000039300025000000000000003400000000000001326700000000000000009999123100000010000000000000BRLVTCACNOR4102
012024050302LWSA3       010LWSA        ON      NM   R$  000000000050700000000005140000000000497000000000050300000000005000000000000499000000000050010860000000000007017700000000003531520800000000000000009999123100000010000000000000BRLWSAACNOR8103
012024050302ATOM3       010ATOMPAR     ON           R$  000000000022900000000002320000000000224000000000022600000000002290000000000225000000000022900048000000000000019300000000000004368400000000000000009999123100000010000000000000BRATOMACNOR1106
012024050302UCAS3       010UNICASA     ON      NM   R$  000000000024900000000002490000000000235000000000023900000000002440000000000242000000000024400576000000000000071000000000000017027100000000000000009999123100000010000000000000BRUCASACNOR1113
012024050302UGPA3       010ULTRAPAR    ON      NM   R$  000000000269700000000027130000000002659000000000268500000000026630000000002663000000000266412694000000000003295700000000008850722800000000000000009999123100000010000000000000BRUGPAACNOR8155
012024050302UNIP3       010UNIPAR      ON           R$  000000000527900000000054760000000005279000000000537300000000054680000000005361000000000547500082000000000000011300000000000060724300000000000000009999123100000010000000000000BRUNIPACNOR7206
012024050302UNIP6       010UNIPAR      PNB          R$  000000000536100000000054520000000005347000000000539700000000053980000000005397000000000540001570000000000000287200000000001550225800000000000000009999123100000010000000000000BRUNIPACNPB8206
012024050302PDGR3       010PDG REALT   ON      NM   R$  000000000002100000000000210000000000020000000000002000000000000200000000000020000000000002100264000000000000887200000000000018109600000000000000009999123100000010000000000000BRPDGRACNOR8118
012024050302FESA3       010FERBASA     ON      N1   R$  000000000153600000000015360000000001536000000000153600000000015360000000001411000000000159900001000000000000000100000000000000153600000000000000009999123100000010000000000000BRFESAACNOR8187
012024050302FESA4       010FERBASA     PN      N1   R$  000000000081000000000008460000000000810000000000082200000000008230000000000823000000000082603015000000000001413800000000001163382800000000000000009999123100000010000000000000BRFESAACNPR5083
012024050302FHER3       010FER HERINGERON      NM   R$  000000000050000000000005000000000000497000000000049800000000004980000000000497000000000049800013000000000000011300000000000005628300000000000000009999123100000010000000000000BRFHERACNOR5103
012024050302FIEI3       010FICA        ON           R$  000000000095800000000009950000000000958000000000098800000000009950000000000892000000000099500005000000000000001700000000000001680800000000000000009999123100000010000000000000BRFIEIACNOR2100
012024050302AURE3       010AUREN       ON      NM   R$  000000000115200000000011760000000001152000000000116700000000011680000000001167000000000116909979000000000015131500000000017670468800000000000000009999123100000010000000000000BRAUREACNOR9104
012024050302AVLL3       010ALPHAVILLE  ON      NM   R$  000000000037000000000003800000000000370000000000037700000000003800000000000352000000000038000004000000000000000800000000000000302000000000000000009999123100000010000000000000BRAVLLACNOR5103
012024050302AZEV3       010AZEVEDO     ON           R$  000000000013500000000001490000000000135000000000014400000000001490000000000149000000000015000935000000000000884200000000000127751600000000000000009999123100000010000000000000BRAZEVACNOR0121
012024050302AZEV4       010AZEVEDO     PN           R$  000000000012600000000001490000000000125000000000013800000000001460000000000146000000000014706480000000000010997400000000001528627800000000000000009999123100000010000000000000BRAZEVACNPR7121
012024050302AZUL4       010AZUL        PN      N2   R$  000000000105500000000011000000000001053000000000108200000000010950000000001095000000000109620895000000000022426200000000024286757800000000000000009999123100000010000000000000BRAZULACNPR4102
012024050302PDTC3       010PADTEC      ON  ED  NM   R$  000000000022900000000002320000000000226000000000022800000000002300000000000227000000000023000102000000000000070700000000000016153300000000000000009999123100000010000000000000BRPDTCACNOR3101
012024050302PEAB3       010PAR AL BAHIAON  ED       R$  000000000478900000000055080000000004750000000000495900000000055080000000004350000000000550000004000000000000000400000000000001983700000000000000009999123100000010000000000000BRPEABACNOR3133
012024050302PEAB4       010PAR AL BAHIAPN  ED       R$  000000000515300000000052160000000005153000000000518600000000052160000000004506000000000581500008000000000000000900000000000004667500000000000000009999123100000010000000000000BRPEABACNPR0133
012024050302PETR3       010PETROBRAS   ON  EDR N2   R$  000000000430200000000043080000000004155000000000420200000000042010000000004198000000000420225148000000000017851900000000075014194100000000000000009999123100000010000000000000BRPETRACNOR9204
012024050302PETR4       010PETROBRAS   PN  EDR N2   R$  000000000406900000000040690000000003945000000000398700000000039890000000003988000000000399067481000000000045092300000000179815138000000000000000009999123100000010000000000000BRPETRACNPR6212
012024050302PETZ3       010PETZ        ON  ED  NM   R$  000000000049400000000005050000000000484000000000049100000000004870000000000486000000000048710090000000000010749400000000005285188600000000000000009999123100000010000000000000BRPETZACNOR2110
012024050302ROMI3       010ROMI        ON      NM   R$  000000000103300000000010590000000001033000000000104200000000010430000000001039000000000104401449000000000000568100000000000592460500000000000000009999123100000010000000000000BRROMIACNOR8194
012024050302RPAD5       010ALFA HOLDINGPNA          R$  000000000089900000000008990000000000820000000000082000000000008200000000000820000000000087700002000000000000010100000000000008289900000000000000009999123100000010000000000000BRRPADACNPA4218
012024050302RRRP3       0103R PETROLEUMON  ED  NM   R$  000000000333200000000033810000000003288000000000333100000000033250000000003325000000000332613349000000000004160500000000013859212800000000000000009999123100000010000000000000BRRRRPACNOR5103
012024050302TASA3       010TAURUS ARMASON  ED  N2   R$  000000000125200000000012650000000001252000000000125900000000012550000000001253000000000126300054000000000000013400000000000016881900000000000000009999123100000010000000000000BRTASAACNOR7104
012024050302TASA4       010TAURUS ARMASPN  ED  N2   R$  000000000119600000000012200000000001196000000000120300000000012030000000001203000000000120501723000000000000501400000000000603390700000000000000009999123100000010000000000000BRTASAACNPR4104
012024050302TCSA3       010TECNISA     ON      NM   R$  000000000024200000000002590000000000242000000000024600000000002440000000000244000000000024500353000000000000174100000000000042967400000000000000009999123100000010000000000000BRTCSAACNOR3112
012024050302TECN3       010TECHNOS     ON      NM   R$  000000000045300000000004600000000000441000000000044700000000004420000000000441000000000044200184000000000000066800000000000029923300000000000000009999123100000010000000000000BRTECNACNOR6109
012024050302TELB4       010TELEBRAS    PN           R$  000000000099000000000009900000000000990000000000099000000000009900000000000965000000000098800001000000000000000100000000000000099000000000000000009999123100000010000000000000BRTELBACNPR9140
012024050302TEND3       010TENDA       ON      NM   R$  000000000129900000000013670000000001295000000000134000000000013620000000001355000000000136210428000000000003824500000000005128145800000000000000009999123100000010000000000000BRTENDACNOR4111
012024050302TFCO4       010TRACK FIELD PN  ED  N2   R$  000000000113000000000011950000000001114000000000114600000000011700000000001169000000000117000515000000000000440800000000000505514400000000000000009999123100000010000000000000BRTFCOACNPR8113
012024050302TGMA3       010TEGMA       ON      NM   R$  000000000250600000000026150000000002500000000000256300000000026120000000002599000000000261301350000000000000273700000000000701577200000000000000009999123100000010000000000000BRTGMAACNOR7144
012024050302TIMS3       010TIM         ON      NM   R$  000000000182400000000018610000000001820000000000184500000000018610000000001846000000000186116504000000000008400600000000015502109000000000000000009999123100000010000000000000BRTIMSACNOR5116
012024050302TOTS3       010TOTVS       ON      NM   R$  000000000281900000000028190000000002771000000000279700000000028180000000002798000000000281820000000000000004097000000000011461003400000000000000009999123100000010000000000000BRTOTSACNOR8144
012024050302TPIS3       010TRIUNFO PARTON      NM   R$  000000000038900000000003890000000000383000000000038500000000003830000000000383000000000038700039000000000000006700000000000002583600000000000000009999123100000010000000000000BRTPISACNOR8118
012024050302TRAD3       010TC          ON      NM   R$  000000000008200000000000860000000000081000000000008200000000000820000000000081000000000008200182000000000000436200000000000036038800000000000000009999123100000010000000000000BRTRADACNOR3101
012024050302TRIS3       010TRISUL      ON  ED  NM   R$  000000000047200000000004870000000000471000000000047700000000004710000000000470000000000047201139000000000000658500000000000314316800000000000000009999123100000010000000000000BRTRISACNOR4118
012024050302VAMO3       010VAMOS       ON      NM   R$  000000000074700000000007600000000000731000000000074600000000007480000000000743000000000074821989000000000010356800000000007730429400000000000000009999123100000010000000000000BRVAMOACNOR7105
012024050302VBBR3       010VIBRA       ON      NM   R$  000000000237100000000024270000000002350000000000239200000000024090000000002409000000000241018517000000000006740300000000016126792200000000000000009999123100000010000000000000BRVBBRACNOR1107
012024050302SYNE3       010SYN PROP TECON      NM   R$  000000000091700000000009520000000000908000000000093500000000009360000000000930000000000093600850000000000000262100000000000245227900000000000000009999123100000010000000000000BRSYNEACNOR2102
012024050302EALT4       010ACO ALTONA  PN  EDJ      R$  000000000098100000000010070000000000981000000000098700000000009850000000000982000000000098500024000000000000009600000000000009481600000000000000009999123100000010000000000000BREALTACNPR1138
012024050302ECOR3       010ECORODOVIAS ON      NM   R$  000000000074100000000007570000000000741000000000074800000000007420000000000742000000000074308278000000000004749100000000003555991900000000000000009999123100000010000000000000BRECORACNOR8119
012024050302EGIE3       010ENGIE BRASILON      NM   R$  000000000417600000000042640000000004175000000000423600000000042640000000004250000000000426511592000000000002675700000000011334513700000000000000009999123100000010000000000000BREGIEACNOR9125
012024050302BAHI3       010BAHEMA      ON      MA   R$  000000000082400000000008330000000000782000000000080300000000008000000000000791000000000082300023000000000000005500000000000004417300000000000000009999123100000010000000000000BRBAHIACNOR1074
012024050302TAEE11      010TAESA       UNT     N2   R$  000000000364000000000036920000000003631000000000366300000000036550000000003655000000000366829044000000000005972600000000021877930300000000000000009999123100000010000000000000BRTAEECDAM10145
012024050302GEPA3       010GER PARANAP ON  ED       R$  000000000249600000000024980000000002496000000000249600000000024980000000002395000000000258900003000000000000000300000000000000749000000000000000009999123100000010000000000000BRGEPAACNOR2153
012024050302GEPA4       010GER PARANAP PN  ED       R$  000000000245400000000024800000000002451000000000246100000000024510000000002452000000000248000006000000000000000600000000000001477000000000000000009999123100000010000000000000BRGEPAACNPR9160
012024050302GFSA3       010GAFISA      ON      NM   R$  000000000053400000000005410000000000526000000000053200000000005310000000000531000000000053203135000000000002903100000000001545084300000000000000009999123100000010000000000000BRGFSAACNOR3124
012024050302GGBR3       010GERDAU      ON      N1   R$  000000000169300000000017370000000001683000000000171900000000017140000000001713000000000172800590000000000000142900000000000245686500000000000000009999123100000010000000000000BRGGBRACNOR1191
012024050302GGBR4       010GERDAU      PN      N1   R$  000000000195500000000019790000000001911000000000195700000000019660000000001966000000000196752486000000000029988200000000058712584700000000000000009999123100000010000000000000BRGGBRACNPR8191
012024050302ITUB3       010ITAUUNIBANCOON  EJ  N1   R$  000000000279200000000028220000000002785000000000280300000000027990000000002798000000000280001046000000000000277000000000000776536900000000000000009999123100000010000000000000BRITUBACNOR4335
012024050302ITUB4       010ITAUUNIBANCOPN  EJ  N1   R$  000000000322600000000032590000000003208000000000322700000000032200000000003219000000000322042490000000000028919100000000093343305100000000000000009999123100000010000000000000BRITUBACNPR1335
012024050302TAEE3       010TAESA       ON      N2   R$  000000000120600000000012200000000001205000000000121400000000012170000000001216000000000121700877000000000000208200000000000252935600000000000000009999123100000010000000000000BRTAEEACNOR9145
012024050302TAEE4       010TAESA       PN      N2   R$  000000000121100000000012330000000001211000000000122500000000012270000000001227000000000122901123000000000000352900000000000432389200000000000000009999123100000010000000000000BRTAEEACNPR6145
012024050302FIQE3       010UNIFIQUE    ON      NM   R$  000000000037700000000003810000000000376000000000037900000000003790000000000379000000000038100337000000000000329200000000000124827200000000000000009999123100000010000000000000BRFIQEACNOR5106
012024050302FLRY3       010FLEURY      ON      NM   R$  000000000146900000000014950000000001463000000000148500000000014830000000001483000000000148509490000000000002861300000000004250995600000000000000009999123100000010000000000000BRFLRYACNOR5138
012024050302YDUQ3       010YDUQS PART  ON  ED  NM   R$  000000000157300000000016310000000001564000000000160600000000016180000000001615000000000161812482000000000004437100000000007129705400000000000000009999123100000010000000000000BRYDUQACNOR3105
012024050302ZAMP3       010ZAMP S.A.   ON           R$  000000000039000000000004080000000000383000000000039200000000003900000000000389000000000039007296000000000004664400000000001830751500000000000000009999123100000010000000000000BRZAMPACNOR5100
012024050302FRAS3       010FRAS-LE     ON  ED  N1   R$  000000000182100000000018550000000001820000000000184100000000018460000000001833000000000184601110000000000000287700000000000529712700000000000000009999123100000010000000000000BRFRASACNOR0159
012024050302ITSA3       010ITAUSA      ON      N1   R$  000000000097300000000009920000000000973000000000098500000000009830000000000983000000000098500296000000000000071600000000000070582300000000000000009999123100000010000000000000BRITSAACNOR0439
012024050302ITSA4       010ITAUSA      PN      N1   R$  000000000098300000000009920000000000978000000000098400000000009820000000000981000000000098222865000000000019740600000000019433797000000000000000009999123100000010000000000000BRITSAACNPR7439
012024050302CPFE3       010CPFL ENERGIAON  ED  NM   R$  000000000325800000000033310000000003242000000000329900000000033080000000003308000000000330916162000000000003040000000000010031428200000000000000009999123100000010000000000000BRCPFEACNOR0137
012024050302DEXP4       010DEXXOS PAR  PN  ED  N1   R$  000000000104500000000010820000000001029000000000104700000000010620000000001027000000000107900025000000000000004600000000000004818700000000000000009999123100000010000000000000BRDEXPACNPR8105
012024050302DIRR3       010DIRECIONAL  ON      NM   R$  000000000245300000000024940000000002425000000000245900000000024700000000002467000000000247410359000000000002570900000000006321968800000000000000009999123100000010000000000000BRDIRRACNOR0117
012024050302DMVF3       010D1000VFARMA ON      NM   R$  000000000078500000000008000000000000710000000000074100000000007580000000000752000000000075801310000000000000430500000000000319081500000000000000009999123100000010000000000000BRDMVFACNOR9100
012024050302DOHL3       010DOHLER      ON           R$  000000000062500000000006250000000000625000000000062500000000006250000000000500000000000062400001000000000000000100000000000000062500000000000000009999123100000010000000000000BRDOHLACNOR2063
012024050302DOHL4       010DOHLER      PN           R$  000000000045700000000004570000000000457000000000045700000000004570000000000436000000000045700001000000000000000100000000000000045700000000000000009999123100000010000000000000BRDOHLACNPR9066
012024050302DOTZ3       010DOTZ SA     ON      NM   R$  000000000091100000000009110000000000853000000000087600000000008600000000000862000000000088900063000000000000012200000000000010696200000000000000009999123100000010000000000000BRDOTZACNOR7101
012024050307NUTR3       010NUTRIPLANT  ON      MA   R$  000000000049100000000005040000000000450000000000048200000000004760000000000470000000000048800070000000000000010600000000000005113300000000000000009999123100000010000000000000BRNUTRACNOR0104
012024050307BHIA3       010CASAS BAHIA ON      NM   R$  000000000081100000000008250000000000777000000000079500000000007950000000000795000000000079611639000000000010990400000000008746474100000000000000009999123100000010000000000000BRBHIAACNOR1101
012024050307TXRX4       010TEX RENAUX  PN           R$  000000000022300000000002450000000000223000000000024100000000002450000000000234000000000024500007000000000000002200000000000000531400000000000000009999123100000010000000000000BRTXRXACNPR0142
012024050308LIGT3       010LIGHT S/A   ON      NM   R$  000000000049400000000005120000000000494000000000050100000000004950000000000495000000000049702473000000000000679500000000000340862000000000000000009999123100000010000000000000BRLIGTACNOR2124
012024050308OIBR3       010OI          ON      N1   R$  000000000007400000000000740000000000072000000000007300000000000730000000000073000000000007400917000000000004020700000000000294748000000000000000009999123100000010000000000000BROIBRACNOR1110
012024050308OIBR4       010OI          PN      N1   R$  000000000018900000000001950000000000188000000000019200000000001880000000000188000000000019300083000000000000104200000000000020013600000000000000009999123100000010000000000000BROIBRACNPR8109
012024050308OSXB3       010OSX BRASIL  ON      NM   R$  000000000041700000000004170000000000417000000000041700000000004170000000000399000000000041700002000000000000000500000000000000208500000000000000009999123100000010000000000000BROSXBACNOR8109
012024050308JFEN3       010JOAO FORTES ON           R$  000000000015500000000001590000000000152000000000015500000000001530000000000153000000000015600114000000000000026900000000000004174300000000000000009999123100000010000000000000BRJFENACNOR0059
012024050308PMAM3       010PARANAPANEMAON  ES  NM   R$  000000000027100000000002890000000000269000000000027200000000002730000000000271000000000027300163000000000000095300000000000025948300000000000000009999123100000010000000000000BRPMAMACNOR3039
012024050308HOOT4       010HOTEIS OTHONPN           R$  000000000027900000000002810000000000279000000000028000000000002810000000000278000000000028300005000000000000000700000000000000196100000000000000009999123100000010000000000000BRHOOTACNPR9015
012024050308AMER3       010AMERICANAS  ON      NM   R$  000000000005700000000000580000000000054000000000005500000000000540000000000054000000000005502295000000000021520300000000001192739300000000000000009999123100000010000000000000BRAMERACNOR6101
012024050308BDLL4       010BARDELLA    PN           R$  000000000105100000000010510000000001051000000000105100000000010510000000001000000000000105100002000000000000000500000000000000525500000000000000009999123100000010000000000000BRBDLLACNPR8151
012024050308ETER3       010ETERNIT     ON      NM   R$  000000000071700000000007280000000000714000000000072100000000007150000000000715000000000071800575000000000000127500000000000091961500000000000000009999123100000010000000000000BRETERACNOR3243
012024050308RSID3       010ROSSI RESID ON      NM   R$  000000000056200000000005830000000000534000000000056200000000005700000000000555000000000057000221000000000000082700000000000046535900000000000000009999123100000010000000000000BRRSIDACNOR8120
012024050308NEXP3       010NEXPE       ON           R$  000000000042600000000004260000000000423000000000042400000000004260000000000422000000000042700009000000000000001500000000000000636100000000000000009999123100000010000000000000BRNEXPACNOR0101
012024050308ATMP3       010ATMASA      ON           R$  000000000021100000000002180000000000203000000000021100000000002130000000000208000000000021100025000000000000005900000000000001247100000000000000009999123100000010000000000000BRATMPACNOR8100
012024050308RNEW11      010RENOVA      UNT     N2   R$  000000000033000000000003390000000000325000000000033400000000003390000000000317000000000033900043000000000000008400000000000002808700000000000000009999123100000010000000000000BRRNEWCDAM15110
012024050308RNEW3       010RENOVA      ON      N2   R$  000000000010800000000001140000000000108000000000011100000000001140000000000108000000000011400128000000000000087700000000000009759900000000000000009999123100000010000000000000BRRNEWACNOR8110
012024050308RNEW4       010RENOVA      PN      N2   R$  000000000010800000000001150000000000108000000000011200000000001150000000000113000000000011500182000000000000138100000000000015474800000000000000009999123100000010000000000000BRRNEWACNPR5110
012024050308RPMG3       010PET MANGUINHON           R$  000000000020500000000002070000000000201000000000020500000000002010000000000203000000000020500018000000000000003900000000000000799700000000000000009999123100000010000000000000BRRPMGACNOR9194
012024050310SEQL12      010SEQUOIA LOG DIR     NM   R$  000000000000100000000000010000000000001000000000000100000000000010000000000000000000000000100010000000000000026500000000000000026500000000000000009999123100000010000000000000BRSEQLD02M18101
012024050310JFEN1       010JOAO FORTES DIR ORD      R$  000000000000100000000000010000000000001000000000000100000000000010000000000000000000000000100009000000000000005600000000000000005600000000000000009999123100000010000000000000BRJFEND10OR6058
012024050310PMAM1       010PARANAPANEMADIR ORD NM   R$  000000000000100000000000030000000000001000000000000100000000000010000000000001000000000000200032000000000000151100000000000000288300000000000000009999123100000010000000000000BRPMAMD04OR2038
012024050310ABCB10      010ABC BRASIL  PN  REC N2   R$  000000000224900000000024490000000002143000000000225200000000024490000000002200000000000228000110000000000000022500000000000050675400000000000000009999123100000010000000000000BRABCBR19PR1144
012024050310SEQL11      010SEQUOIA LOG DIR     NM   R$  000000000000100000000000010000000000001000000000000100000000000010000000000000000000000000100022000000000000133200000000000000133200000000000000009999123100000010000000000000BRSEQLD01M19101
012024050310CGRA2       010GRAZZIOTIN  DIR PRE      R$  000000000005200000000000600000000000049000000000005200000000000540000000000053000000000007000026000000000000005000000000000000261800000000000000009999123100000010000000000000BRCGRAD05PR5081
012024050310EQTL1       010EQUATORIAL  DIR ORD NM   R$  000000000014500000000002230000000000145000000000020300000000002140000000000186000000000021500029000000000000006300000000000001281500000000000000009999123100000010000000000000BREQTLD03OR1129
012024050312ALMI11      010FII TORRE ALCI           R$  000000006500100000000650010000000065001000000006500100000000650010000000065001000000006520000002000000000000000002000000000000130002000000000000009999123100000010000000000000BRALMICTF003250
012024050312LFTT11      010FII LOFT II CI           R$  000000000300000000000030000000000002950000000000295400000000030000000000002950000000000300000004000000000000000109000000000000322000000000000000009999123100000010000000000000BRLFTTCTF004130
012024050312LGCP11      010FII LGCP INTCI  ER       R$  000000000855200000000085930000000008525000000000855600000000085900000000008540000000000859000414000000000000003123000000000026720993000000000000009999123100000010000000000000BRLGCPCTF006155
012024050312LIFE11      010FII LIFE    CI  ER       R$  000000000100500000000010100000000001000000000000100400000000010000000000001000000000000100400257000000000000017278000000000017353434000000000000009999123100000010000000000000BRLIFECTF017128
012024050312PABY11      010FII PANAMBY CI           R$  000000000154700000000015470000000001547000000000154700000000015470000000001480000000000154000002000000000000000004000000000000006188000000000000009999123100000010000000000000BRPABYCTF012158
012024050312PATC11      010FII PATRIA  CI  ER       R$  000000000358400000000036580000000003567000000000362200000000036580000000003658000000000366500127000000000000001581000000000005726620000000000000009999123100000010000000000000BRPATCCTF002169
012024050312PATL11      010FII PATLOGISCI  ER       R$  000000000605000000000061400000000006022000000000607100000000061190000000006076000000000611902012000000000000011856000000000071987091000000000000009999123100000010000000000000BRPATLCTF003145
012024050312MFII11      010FII MERITO ICI  ER       R$  000000001038700000000104100000000010334000000001037700000000103780000000010376000000001037800676000000000000007305000000000075806329000000000000009999123100000010000000000000BRMFIICTF008234
012024050312MGHT11      010FII MOGNO HTCI           R$  000000000450900000000046000000000004461000000000451500000000045520000000004496000000000455200387000000000000002745000000000012395321000000000000009999123100000010000000000000BRMGHTCTF005152
012024050312RBDS11      010FII RBRESID2CI           R$  000000000020100000000002080000000000200000000000020300000000002080000000000209000000000023000003000000000000000021000000000000004269000000000000009999123100000010000000000000BRRBDSCTF006179
012024050312RBED11      010FII RIOB ED CI  ER       R$  000000001413300000000141350000000013902000000001395100000000139250000000013925000000001394600754000000000000001058000000000014760583000000000000009999123100000010000000000000BRRBEDCTF006163
012024050312RBFF11      010FII RIOB FF CI  ER       R$  000000000609300000000061500000000006071000000000610800000000061340000000006135000000000614300355000000000000003520000000000021501596000000000000009999123100000010000000000000BRRBFFCTF008159
012024050312RBHG11      010FII RBCRI IVCI  ER       R$  000000000894900000000089700000000008910000000000895400000000089560000000008937000000000895602335000000000000003685000000000032998740000000000000009999123100000010000000000000BRRBHGCTF002133
012024050312RBHY11      010FII RB YIELDCI  ER       R$  000000000889000000000090480000000008862000000000890700000000088650000000008866000000000892500231000000000000002705000000000024095919000000000000009999123100000010000000000000BRRBHYCTF005143
012024050312SNCI11      010FII SUNO CRICI           R$  000000000957500000000096010000000009555000000000958500000000095990000000009599000000000960100454000000000000002950000000000028276436000000000000009999123100000010000000000000BRSNCICTF002134
012024050312SNEL11      010FII SUNO EL CI           R$  000000001315400000000131540000000013050000000001311700000000130500000000013050000000001307400354000000000000002379000000000031207350000000000000009999123100000010000000000000BRSNELCTF010106
012024050312SNFF11      010FII SUNOFOFICI           R$  000000000879200000000088790000000008779000000000882400000000088000000000008800000000000881401203000000000000007476000000000065970097000000000000009999123100000010000000000000BRSNFFCTF001136
012024050312SNLG11      010FII SUNO LG CI           R$  000000000297000000000029700000000002900000000000291100000000029000000000002899000000000290000199000000000000001701000000000004952776000000000000009999123100000010000000000000BRSNLGCTF007103
012024050312SNME11      010FII SNME    CI           R$  000000000097000000000009700000000000965000000000096800000000009700000000000969000000000097000595000000000000006033000000000005845580000000000000009999123100000010000000000000BRSNMECTF000105
012024050312NVHO11      010FII NOVOHORICI  ER       R$  000000000109600000000010990000000001082000000000109100000000010820000000001082000000000109800016000000000000000110000000000000120096000000000000009999123100000010000000000000BRNVHOCTF003227
012024050312OCRE11      010FII OCTO    CI  ER       R$  000000001009500000000100950000000010095000000001009500000000100950000000010000000000001009500001000000000000000010000000000000100950000000000000009999123100000010000000000000BROCRECTF001113
012024050312OUFF11      010FII OURI FOFCI           R$  000000000656200000000065750000000006505000000000652900000000065100000000006510000000000653000603000000000000005561000000000036312371000000000000009999123100000010000000000000BROUFFCTF005158
012024050312OUJP11      010FII OURI JPPCI  ER       R$  000000000917700000000091990000000009101000000000913100000000091290000000009127000000000912901131000000000000003644000000000033276097000000000000009999123100000010000000000000BROUJPCTF006186
012024050312OULG11      010FII OURILOG CI           R$  000000000292600000000029270000000002925000000000292500000000029250000000002925000000000292600043000000000000000445000000000001301884000000000000009999123100000010000000000000BROULGCTF001153
012024050312OURE11      010FII OU RENDACI           R$  000000000766000000000076890000000007613000000000766400000000076640000000007660000000000766400109000000000000001746000000000013381723000000000000009999123100000010000000000000BROURECTF003141
012024050312SEQR11      010FII SEQUOIA CI           R$  000000000551300000000055790000000005503000000000553900000000055390000000005504000000000552900046000000000000000595000000000003296077000000000000009999123100000010000000000000BRSEQRCTF002141
012024050312SHPH11      010FII HIGIENOPCI  ER       R$  000000008930000000000893000000000081500000000008434900000000852990000000082459000000008530000436000000000000000939000000000079204631000000000000009999123100000010000000000000BRSHPHCTF008349
012024050312JFLL11      010FII JFL LIV CI  ER       R$  000000000741000000000075740000000007360000000000750800000000075540000000007466000000000755500363000000000000005111000000000038373768000000000000009999123100000010000000000000BRJFLLCTF002139
012024050312JPPA11      010FII JPPA CRICI  ER       R$  000000000880000000000088000000000008773000000000878500000000088000000000008788000000000880000139000000000000001545000000000013573402000000000000009999123100000010000000000000BRJPPACTF005160
012024050312GSFI11      010FII GENERAL CI           R$  000000000078500000000007850000000000761000000000078100000000007850000000000771000000000078500119000000000000032995000000000025778502000000000000009999123100000010000000000000BRGSFICTF009102
012024050312GTWR11      010FII G TOWERSCI  ER       R$  000000000833500000000084980000000008335000000000844100000000084440000000008444000000000845904187000000000000021581000000000182172401000000000000009999123100000010000000000000BRGTWRCTF003162
012024050312GZIT11      010FII GAZIT   CI  ER       R$  000000000659700000000065980000000006460000000000648300000000065450000000006465000000000654500736000000000000003714000000000024078678000000000000009999123100000010000000000000BRGZITCTF005106
