00COTAHIST.2024BOVESPA 20240603                                                                                                                                                                                                                      
012024060302CBAV3       010CBA         ON      NM   R$  000000000070800000000007130000000000686000000000070100000000007060000000000705000000000070907882000000000003423200000000002401101100000000000000009999123100000010000000000000BRCBAVACNOR5104
012024060302CCRO3       010CCR SA      ON      NM   R$  000000000120600000000012100000000001194000000000120000000000011960000000001196000000000119808712000000000003394500000000004074469600000000000000009999123100000010000000000000BRCCROACNOR2145
012024060302DASA3       010DASA        ON      NM   R$  000000000036000000000003930000000000358000000000037500000000003810000000000381000000000038203434000000000001585500000000000594748300000000000000009999123100000010000000000000BRDASAACNOR1122
012024060302DESK3       010DESKTOP     ON      NM   R$  000000000162000000000016710000000001556000000000161400000000016360000000001635000000000164601755000000000000285800000000000461430900000000000000009999123100000010000000000000BRDESKACNOR2104
012024060302DEXP3       010DEXXOS PAR  ON      N1   R$  000000000103800000000010740000000001027000000000105500000000010510000000001051000000000106300352000000000000064200000000000067773400000000000000009999123100000010000000000000BRDEXPACNOR1105
012024060302DEXP4       010DEXXOS PAR  PN      N1   R$  000000000103100000000010500000000001021000000000103300000000010500000000001041000000000107500013000000000000002700000000000002791600000000000000009999123100000010000000000000BRDEXPACNPR8105
012024060302DIRR3       010DIRECIONAL  ON      NM   R$  000000000246600000000024990000000002432000000000247800000000024940000000002487000000000249407899000000000001792300000000004442468700000000000000009999123100000010000000000000BRDIRRACNOR0117
012024060302DMVF3       010D1000VFARMA ON      NM   R$  000000000071600000000007260000000000691000000000070800000000007050000000000705000000000070800879000000000000175700000000000124534900000000000000009999123100000010000000000000BRDMVFACNOR9100
012024060302DOHL3       010DOHLER      ON           R$  000000000050400000000005040000000000501000000000050100000000005010000000000300000000000070000002000000000000000400000000000000200700000000000000009999123100000010000000000000BRDOHLACNOR2063
012024060302DOHL4       010DOHLER      PN           R$  000000000042500000000004280000000000403000000000041300000000004200000000000413000000000042400019000000000000005200000000000002147800000000000000009999123100000010000000000000BRDOHLACNPR9066
012024060302DOTZ3       010DOTZ SA     ON      NM   R$  000000000081700000000008630000000000817000000000083200000000008190000000000816000000000084800044000000000000009200000000000007659800000000000000009999123100000010000000000000BRDOTZACNOR7101
012024060302DXCO3       010DEXCO       ON      NM   R$  000000000072000000000007400000000000697000000000070800000000006970000000000697000000000069910226000000000003268000000000002314710100000000000000009999123100000010000000000000BRDXCOACNOR8105
012024060302GGPS3       010GPS         ON      NM   R$  000000000185400000000018860000000001834000000000186200000000018500000000001846000000000185008573000000000002744100000000005111642700000000000000009999123100000010000000000000BRGGPSACNOR9103
012024060302GMAT3       010GRUPO MATEUSON      NM   R$  000000000077800000000007850000000000773000000000077700000000007800000000000778000000000078011376000000000008311000000000006465952400000000000000009999123100000010000000000000BRGMATACNOR7101
012024060302GOAU3       010GERDAU MET  ON      N1   R$  000000000107800000000010790000000001060000000000106700000000010680000000001066000000000106800279000000000000042300000000000045144300000000000000009999123100000010000000000000BRGOAUACNOR1267
012024060302GOAU4       010GERDAU MET  PN      N1   R$  000000000106800000000010680000000001041000000000105200000000010440000000001044000000000104512242000000000009958300000000010477425400000000000000009999123100000010000000000000BRGOAUACNPR8268
012024060302JALL3       010JALLESMACHADON      NM   R$  000000000067800000000006820000000000671000000000067600000000006760000000000674000000000067602633000000000000707800000000000478977600000000000000009999123100000010000000000000BRJALLACNOR0105
012024060302JBSS3       010JBS         ON      NM   R$  000000000289900000000029000000000002821000000000285800000000028780000000002877000000000287917915000000000005002000000000014296157200000000000000009999123100000010000000000000BRJBSSACNOR8121
012024060302MILS3       010MILLS       ON      NM   R$  000000000119200000000012090000000001185000000000119200000000011880000000001188000000000119203700000000000001262600000000001505443200000000000000009999123100000010000000000000BRMILSACNOR2126
012024060302MLAS3       010MULTILASER  ON      NM   R$  000000000021300000000002240000000000209000000000021800000000002210000000000220000000000022101728000000000001436100000000000313788100000000000000009999123100000010000000000000BRMLASACNOR9101
012024060302MNDL3       010MUNDIAL     ON  EBG      R$  000000000110200000000011410000000001087000000000111800000000011030000000001092000000000112900031000000000000007400000000000008279300000000000000009999123100000010000000000000BRMNDLACNOR4109
012024060302MNPR3       010MINUPAR     ON           R$  000000000109500000000011500000000001095000000000111500000000011000000000001051000000000114000012000000000000002900000000000003235200000000000000009999123100000010000000000000BRMNPRACNOR5122
012024060302MOVI3       010MOVIDA      ON      NM   R$  000000000064400000000006770000000000644000000000066300000000006660000000000665000000000066809196000000000004677800000000003102356200000000000000009999123100000010000000000000BRMOVIACNOR0122
012024060302MRFG3       010MARFRIG     ON      NM   R$  000000000113000000000011580000000001114000000000113800000000011470000000001145000000000115014178000000000004516300000000005139884900000000000000009999123100000010000000000000BRMRFGACNOR0116
012024060302EZTC3       010EZTEC       ON      NM   R$  000000000129900000000013490000000001297000000000133000000000013180000000001318000000000131908043000000000002445900000000003253250800000000000000009999123100000010000000000000BREZTCACNOR0125
012024060302BIOM3       010BIOMM       ON      MA   R$  000000000165600000000018400000000001632000000000171400000000018400000000001800000000000184004565000000000000669100000000001147124600000000000000009999123100000010000000000000BRBIOMACNOR2112
012024060302BLAU3       010BLAU        ON      NM   R$  000000000102500000000010700000000001020000000000104600000000010500000000001050000000000105901404000000000000254800000000000266646800000000000000009999123100000010000000000000BRBLAUACNOR8113
012024060302BRIT3       010BRISANET    ON      NM   R$  000000000040000000000004020000000000389000000000039400000000003940000000000390000000000039402536000000000001068600000000000421055600000000000000009999123100000010000000000000BRBRITACNOR0103
012024060302BRKM3       010BRASKEM     ON      N1   R$  000000000188500000000019350000000001860000000000187700000000019090000000001861000000000191000040000000000000012400000000000023286700000000000000009999123100000010000000000000BRBRKMACNOR1119
012024060302BRKM5       010BRASKEM     PNA     N1   R$  000000000190200000000019190000000001841000000000186800000000018630000000001861000000000186306566000000000003113100000000005816316200000000000000009999123100000010000000000000BRBRKMACNPA4121
012024060302BRKM6       010BRASKEM     PNB     N1   R$  000000000140000000000014000000000001400000000000140000000000014000000000001385000000000145000004000000000000000400000000000000560000000000000000009999123100000010000000000000BRBRKMACNPB2114
012024060302SLCE3       010SLC AGRICOLAON      NM   R$  000000000177400000000017770000000001728000000000174000000000017430000000001741000000000174308074000000000003681500000000006409323100000000000000009999123100000010000000000000BRSLCEACNOR2125
012024060302VALE3       010VALE        ON      NM   R$  000000000628400000000062850000000006169000000000620300000000061870000000006187000000000618943295000000000018846500000000116914126500000000000000009999123100000010000000000000BRVALEACNOR0210
012024060302YDUQ3       010YDUQS PART  ON      NM   R$  000000000121000000000012330000000001181000000000120400000000011990000000001197000000000120011604000000000003996300000000004815137600000000000000009999123100000010000000000000BRYDUQACNOR3105
012024060302ZAMP3       010ZAMP S.A.   ON           R$  000000000031700000000003270000000000316000000000032200000000003210000000000320000000000032104393000000000001443100000000000465706200000000000000009999123100000010000000000000BRZAMPACNOR5100
012024060302TOTS3       010TOTVS       ON      NM   R$  000000000287800000000028980000000002829000000000285900000000028290000000002828000000000283913233000000000003917200000000011200856800000000000000009999123100000010000000000000BRTOTSACNOR8144
012024060302VAMO3       010VAMOS       ON      NM   R$  000000000081500000000008370000000000807000000000081900000000008100000000000810000000000081111172000000000004697400000000003849113800000000000000009999123100000010000000000000BRVAMOACNOR7105
012024060302VBBR3       010VIBRA       ON      NM   R$  000000000216000000000021750000000002131000000000214500000000021390000000002138000000000214012575000000000004599900000000009869658900000000000000009999123100000010000000000000BRVBBRACNOR1107
012024060302VITT3       010VITTIA      ON      NM   R$  000000000052700000000005300000000000514000000000052300000000005240000000000524000000000052502079000000000000883500000000000462279700000000000000009999123100000010000000000000BRVITTACNOR4107
012024060302VIVA3       010VIVARA S.A. ON      NM   R$  000000000218400000000022070000000002153000000000218500000000021750000000002175000000000217907935000000000002177700000000004759531800000000000000009999123100000010000000000000BRVIVAACNOR0107
012024060302VIVR3       010VIVER       ON      NM   R$  000000000026300000000002720000000000263000000000026700000000002720000000000268000000000027200053000000000000054100000000000014457700000000000000009999123100000010000000000000BRVIVRACNOR4122
012024060302VIVT3       010TELEF BRASILON           R$  000000000433700000000044260000000004319000000000437900000000043900000000004390000000000441114269000000000003661200000000016034516000000000000000009999123100000010000000000000BRVIVTACNOR0181
012024060302REDE3       010REDE ENERGIAON           R$  000000000068200000000006920000000000680000000000068400000000006900000000000683000000000068700007000000000000000700000000000000479200000000000000009999123100000010000000000000BRREDEACNOR7127
012024060302RENT3       010LOCALIZA    ON      NM   R$  000000000428800000000043080000000004209000000000426600000000042650000000004265000000000426626135000000000009288500000000039629897600000000000000009999123100000010000000000000BRRENTACNOR4195
012024060302SYNE3       010SYN PROP TECON      NM   R$  000000000093300000000009400000000000890000000000090700000000009000000000000900000000000090601568000000000000510900000000000463895400000000000000009999123100000010000000000000BRSYNEACNOR2102
012024060302TAEE11      010TAESA       UNT     N2   R$  000000000338900000000034480000000003325000000000338600000000034160000000003416000000000343116629000000000010303300000000034891446000000000000000009999123100000010000000000000BRTAEECDAM10147
012024060302TAEE3       010TAESA       ON      N2   R$  000000000114000000000011420000000001107000000000112600000000011270000000001127000000000113501413000000000000243500000000000274370000000000000000009999123100000010000000000000BRTAEEACNOR9147
012024060302TAEE4       010TAESA       PN      N2   R$  000000000115000000000011560000000001114000000000113900000000011490000000001149000000000115201872000000000000402400000000000458491900000000000000009999123100000010000000000000BRTAEEACNPR6147
012024060302ITSA3       010ITAUSA      ON  EJ  N1   R$  000000000097900000000009870000000000972000000000097800000000009770000000000977000000000098800449000000000000123200000000000120509000000000000000009999123100000010000000000000BRITSAACNOR0440
012024060302ITSA4       010ITAUSA      PN  EJ  N1   R$  000000000097400000000009820000000000968000000000097500000000009780000000000978000000000097919542000000000020274000000000019774273500000000000000009999123100000010000000000000BRITSAACNPR7440
012024060302BGIP4       010BANESE      PN           R$  000000000220000000000022000000000002200000000000220000000000022000000000002156000000000224000002000000000000000200000000000000440000000000000000009999123100000010000000000000BRBGIPACNPR8208
012024060302ITUB3       010ITAUUNIBANCOON  EJ  N1   R$  000000000270000000000027370000000002690000000000271200000000027190000000002719000000000273302013000000000000484000000000001312800800000000000000009999123100000010000000000000BRITUBACNOR4336
012024060302ASAI3       010ASSAI       ON      NM   R$  000000000121200000000012380000000001207000000000122400000000012290000000001228000000000123114817000000000007880700000000009653719500000000000000009999123100000010000000000000BRASAIACNOR0106
012024060302ATOM3       010ATOMPAR     ON           R$  000000000020000000000002000000000000197000000000019800000000001990000000000199000000000020600021000000000000012000000000000002382000000000000000009999123100000010000000000000BRATOMACNOR1106
012024060302AURE3       010AUREN       ON      NM   R$  000000000119800000000012180000000001193000000000120600000000012120000000001211000000000121207082000000000005556100000000006702952100000000000000009999123100000010000000000000BRAUREACNOR9104
012024060302AVLL3       010ALPHAVILLE  ON      NM   R$  000000000034300000000003430000000000342000000000034100000000003420000000000339000000000034200005000000000000001400000000000000478400000000000000009999123100000010000000000000BRAVLLACNOR5103
012024060302PFRM3       010PROFARMA    ON      NM   R$  000000000052000000000005320000000000505000000000051700000000005300000000000525000000000053000998000000000000295900000000000153121100000000000000009999123100000010000000000000BRPFRMACNOR1116
012024060302PGMN3       010PAGUE MENOS ON      NM   R$  000000000023000000000002430000000000226000000000023400000000002380000000000236000000000023802007000000000001148100000000000269568500000000000000009999123100000010000000000000BRPGMNACNOR8103
012024060302PINE3       010PINE        ON      N2   R$  000000000057100000000005710000000000571000000000057100000000005710000000000571000000000060200002000000000000000200000000000000114200000000000000009999123100000010000000000000BRPINEACNOR1149
012024060302PINE4       010PINE        PN      N2   R$  000000000043200000000004340000000000419000000000042300000000004200000000000419000000000042000808000000000000304100000000000128764900000000000000009999123100000010000000000000BRPINEACNPR8149
012024060302PLAS3       010PLASCAR PARTON           R$  000000000054000000000005400000000000540000000000054000000000005400000000000540000000000061900001000000000000000100000000000000054000000000000000009999123100000010000000000000BRPLASACNOR2106
012024060302PLPL3       010PLANOEPLANO ON      NM   R$  000000000097600000000009940000000000939000000000097400000000009820000000000981000000000099104336000000000000870900000000000848786700000000000000009999123100000010000000000000BRPLPLACNOR5104
012024060302UCAS3       010UNICASA     ON      NM   R$  000000000022900000000002330000000000228000000000022900000000002290000000000229000000000023100046000000000000009400000000000002159400000000000000009999123100000010000000000000BRUCASACNOR1113
012024060302UGPA3       010ULTRAPAR    ON      NM   R$  000000000232300000000023330000000002286000000000231100000000023020000000002301000000000231514433000000000003218900000000007441241700000000000000009999123100000010000000000000BRUGPAACNOR8155
012024060302VLID3       010VALID       ON  EJ  NM   R$  000000000159800000000016160000000001568000000000158500000000015720000000001572000000000157603133000000000000448600000000000711316100000000000000009999123100000010000000000000BRVLIDACNOR5143
012024060302VSTE3       010VESTE       ON      NM   R$  000000000159900000000016500000000001450000000000160600000000016500000000001650000000000166000236000000000000062600000000000100553900000000000000009999123100000010000000000000BRVSTEACNOR5103
012024060302VULC3       010VULCABRAS   ON      NM   R$  000000000147800000000015110000000001475000000000149300000000014950000000001492000000000149502646000000000000452300000000000675606600000000000000009999123100000010000000000000BRVULCACNOR2159
012024060302VVEO3       010VIVEO       ON      NM   R$  000000000029200000000002970000000000284000000000028800000000002840000000000284000000000029005034000000000001733800000000000500610400000000000000009999123100000010000000000000BRVVEOACNOR0104
012024060302ELMD3       010ELETROMIDIA ON      NM   R$  000000000183600000000019100000000001830000000000189000000000018800000000001874000000000188900731000000000000097300000000000183960700000000000000009999123100000010000000000000BRELMDACNOR3101
012024060302EMAE4       010EMAE        PN           R$  000000000476000000000048000000000004760000000000479000000000048000000000004800000000000490000004000000000000000400000000000001916000000000000000009999123100000010000000000000BREMAEACNPR1125
012024060302EMBR3       010EMBRAER     ON      NM   R$  000000000364000000000037300000000003635000000000368400000000036730000000003668000000000367316032000000000005098100000000018784136200000000000000009999123100000010000000000000BREMBRACNOR4191
012024060302ESPA3       010ESPACOLASER ON      NM   R$  000000000011700000000001170000000000114000000000011500000000001170000000000116000000000011700204000000000000368000000000000042567100000000000000009999123100000010000000000000BRESPAACNOR7103
012024060302ESTR4       010ESTRELA     PN           R$  000000000020500000000002050000000000191000000000019900000000002050000000000191000000000020600004000000000000000400000000000000079900000000000000009999123100000010000000000000BRESTRACNPR0144
012024060302EUCA3       010EUCATEX     ON      N1   R$  000000000148300000000015040000000001483000000000149300000000015040000000001451000000000150500002000000000000000200000000000000298700000000000000009999123100000010000000000000BREUCAACNOR1157
012024060302EUCA4       010EUCATEX     PN      N1   R$  000000000136000000000013860000000001347000000000135400000000013600000000001360000000000137501121000000000000234000000000000316983900000000000000009999123100000010000000000000BREUCAACNPR8044
012024060302EVEN3       010EVEN        ON      NM   R$  000000000065200000000006780000000000651000000000066700000000006650000000000665000000000067102186000000000000671800000000000448419800000000000000009999123100000010000000000000BREVENACNOR8119
012024060302WEGE3       010WEG         ON      NM   R$  000000000377300000000037850000000003732000000000374200000000037340000000003734000000000373711128000000000005074200000000018988414400000000000000009999123100000010000000000000BRWEGEACNOR0222
012024060302PETZ3       010PETZ        ON      NM   R$  000000000037600000000003810000000000363000000000037400000000003740000000000372000000000037406108000000000008260900000000003091221700000000000000009999123100000010000000000000BRPETZACNOR2110
012024060302TCSA3       010TECNISA     ON      NM   R$  000000000021600000000002230000000000213000000000021700000000002130000000000213000000000021700169000000000000046500000000000010092800000000000000009999123100000010000000000000BRTCSAACNOR3112
012024060302TECN3       010TECHNOS     ON      NM   R$  000000000040800000000004190000000000399000000000040700000000004100000000000410000000000041301456000000000000353200000000000144058900000000000000009999123100000010000000000000BRTECNACNOR6109
012024060302TELB3       010TELEBRAS    ON           R$  000000000131000000000013100000000001282000000000129800000000012820000000001285000000000131900008000000000000001100000000000001428500000000000000009999123100000010000000000000BRTELBACNOR2140
012024060302TELB4       010TELEBRAS    PN           R$  000000000090000000000009580000000000900000000000091700000000009420000000000910000000000094400013000000000000002300000000000002110300000000000000009999123100000010000000000000BRTELBACNPR9140
012024060302TEND3       010TENDA       ON      NM   R$  000000000113600000000011600000000001126000000000114400000000011390000000001135000000000114006771000000000001634600000000001870760500000000000000009999123100000010000000000000BRTENDACNOR4111
012024060302TFCO4       010TRACK FIELD PN      N2   R$  000000000110300000000011570000000001095000000000112600000000011190000000001118000000000112800790000000000000185500000000000209051100000000000000009999123100000010000000000000BRTFCOACNPR8113
012024060302TGMA3       010TEGMA       ON      NM   R$  000000000241000000000024100000000002338000000000237000000000023660000000002366000000000237302594000000000000396600000000000940079000000000000000009999123100000010000000000000BRTGMAACNOR7144
012024060302TIMS3       010TIM         ON      NM   R$  000000000160800000000016080000000001583000000000159400000000015830000000001583000000000159313998000000000008262800000000013172865500000000000000009999123100000010000000000000BRTIMSACNOR5116
012024060302LWSA3       010LWSA        ON      NM   R$  000000000045000000000004700000000000449000000000046000000000004500000000000450000000000045117461000000000018064700000000008323782100000000000000009999123100000010000000000000BRLWSAACNOR8103
012024060302PDGR3       010PDG REALT   ON      NM   R$  000000000002200000000000220000000000019000000000002000000000000200000000000019000000000002000885000000000007696100000000000157375000000000000000009999123100000010000000000000BRPDGRACNOR8118
012024060302PDTC3       010PADTEC      ON      NM   R$  000000000018700000000001940000000000187000000000019000000000001900000000000190000000000019300066000000000000025300000000000004829100000000000000009999123100000010000000000000BRPDTCACNOR3101
012024060302PEAB3       010PAR AL BAHIAON           R$  000000000425100000000042510000000004250000000000425000000000042500000000003700000000000435000004000000000000000600000000000002550100000000000000009999123100000010000000000000BRPEABACNOR3133
012024060302PEAB4       010PAR AL BAHIAPN           R$  000000000496900000000049690000000004969000000000496900000000049690000000004501000000000495900001000000000000000100000000000000496900000000000000009999123100000010000000000000BRPEABACNPR0133
012024060302PETR3       010PETROBRAS   ON      N2   R$  000000000407000000000040920000000004022000000000405500000000040250000000004024000000000403924740000000000009488300000000038478153900000000000000009999123100000010000000000000BRPETRACNOR9204
012024060302PETR4       010PETROBRAS   PN      N2   R$  000000000388300000000038930000000003844000000000386500000000038580000000003858000000000386047112000000000043454500000000167957545800000000000000009999123100000010000000000000BRPETRACNPR6212
012024060302LAND3       010TERRASANTAPAON      NM   R$  000000000154900000000016390000000001525000000000158200000000015900000000001582000000000159300556000000000000119600000000000189326100000000000000009999123100000010000000000000BRLANDACNOR9103
012024060302LAVV3       010LAVVI       ON      NM   R$  000000000087800000000008780000000000845000000000084800000000008550000000000855000000000086004929000000000004418100000000003749973300000000000000009999123100000010000000000000BRLAVVACNOR4112
012024060302LEVE3       010METAL LEVE  ON      NM   R$  000000000317600000000032600000000003168000000000322400000000032260000000003211000000000322704116000000000000612800000000001976052400000000000000009999123100000010000000000000BRLEVEACNOR2197
012024060302LJQQ3       010QUERO-QUERO ON      NM   R$  000000000043100000000004410000000000422000000000043000000000004290000000000428000000000043006420000000000003906700000000001680903300000000000000009999123100000010000000000000BRLJQQACNOR5104
012024060302LOGG3       010LOG COM PROPON      NM   R$  000000000214700000000022610000000002142000000000222000000000021920000000002192000000000222601848000000000000286600000000000636389300000000000000009999123100000010000000000000BRLOGGACNOR7107
012024060302LOGN3       010LOG-IN      ON      NM   R$  000000000362700000000036330000000003467000000000353100000000034750000000003475000000000350400289000000000000036600000000000129257400000000000000009999123100000010000000000000BRLOGNACNOR3105
012024060302LPSB3       010LOPES BRASILON      NM   R$  000000000021400000000002210000000000212000000000021600000000002160000000000215000000000021600195000000000000149100000000000032254100000000000000009999123100000010000000000000BRLPSBACNOR0114
012024060302LREN3       010LOJAS RENNERON      NM   R$  000000000131600000000013180000000001279000000000129500000000013020000000001301000000000130422074000000000017621000000000022829193400000000000000009999123100000010000000000000BRLRENACNOR1220
012024060302ODPV3       010ODONTOPREV  ON      NM   R$  000000000111600000000011480000000001112000000000113500000000011400000000001139000000000114802912000000000000821800000000000933553900000000000000009999123100000010000000000000BRODPVACNOR4201
012024060302OFSA3       010OUROFINO S/AON      NM   R$  000000000203400000000020560000000002012000000000203400000000020120000000002002000000000218900010000000000000001000000000000002034100000000000000009999123100000010000000000000BROFSAACNOR7118
012024060302ONCO3       010ONCOCLINICASON  ES  NM   R$  000000000089000000000008970000000000871000000000088700000000008840000000000883000000000088411607000000000003163100000000002808423200000000000000009999123100000010000000000000BRONCOACNOR6101
012024060302OPCT3       010OCEANPACT   ON      NM   R$  000000000061500000000006220000000000603000000000061300000000006150000000000612000000000061701615000000000000398600000000000244553500000000000000009999123100000010000000000000BROPCTACNOR0100
012024060302ORVR3       010ORIZON      ON      NM   R$  000000000407400000000041800000000003988000000000412500000000041350000000004130000000000413502721000000000000477300000000001969125600000000000000009999123100000010000000000000BRORVRACNOR0101
012024060302PATI3       010PANATLANTICAON           R$  000000000265000000000026500000000002650000000000265000000000026500000000002600000000000269000001000000000000000200000000000000530000000000000000009999123100000010000000000000BRPATIACNOR6065
012024060302PCAR3       010P.ACUCAR-CBDON      NM   R$  000000000028600000000003120000000000278000000000029700000000003080000000000307000000000030810553000000000015847900000000004718985300000000000000009999123100000010000000000000BRPCARACNOR3167
012024060302BPAC11      010BTGP BANCO  UNT     N2   R$  000000000318100000000032870000000003172000000000323500000000032560000000003256000000000326026045000000000012451500000000040282517900000000000000009999123100000010000000000000BRBPACUNT006118
012024060302BPAC3       010BTGP BANCO  ON      N2   R$  000000000156900000000016290000000001569000000000160300000000015950000000001595000000000163400030000000000000003900000000000006255100000000000000009999123100000010000000000000BRBPACACNOR7133
012024060302BPAC5       010BTGP BANCO  PNA     N2   R$  000000000080500000000008280000000000803000000000080900000000008170000000000817000000000082800020000000000000003300000000000002672300000000000000009999123100000010000000000000BRBPACACNPA0133
012024060302CPFE3       010CPFL ENERGIAON      NM   R$  000000000341000000000034650000000003366000000000343200000000034400000000003440000000000344209607000000000001699000000000005831868800000000000000009999123100000010000000000000BRCPFEACNOR0137
012024060302CPLE3       010COPEL       ON      N2   R$  000000000081400000000008400000000000808000000000082200000000008370000000000835000000000083710462000000000005336300000000004391235700000000000000009999123100000010000000000000BRCPLEACNOR8149
012024060302CPLE6       010COPEL       PNB     N2   R$  000000000090700000000009380000000000904000000000092400000000009350000000000932000000000093527492000000000017169700000000015873791000000000000000009999123100000010000000000000BRCPLEACNPB9146
012024060302CRFB3       010CARREFOUR BRON      NM   R$  000000000098800000000010110000000000978000000000099700000000009970000000000996000000000099811955000000000003869600000000003858820500000000000000009999123100000010000000000000BRCRFBACNOR2116
012024060302CRPG6       010CRISTAL     PNB          R$  000000000293100000000029350000000002931000000000293300000000029350000000002931000000000296900002000000000000000200000000000000586600000000000000009999123100000010000000000000BRCRPGACNPB1119
012024060302CSAN3       010COSAN       ON      NM   R$  000000000137100000000013840000000001360000000000136900000000013610000000001361000000000136414687000000000008644300000000011841217000000000000000009999123100000010000000000000BRCSANACNOR6125
012024060302ENAT3       010ENAUTA PART ON      NM   R$  000000000219700000000022270000000002162000000000220000000000022100000000002206000000000221306628000000000001599300000000003519159700000000000000009999123100000010000000000000BRENATACNOR0104
012024060302ENEV3       010ENEVA       ON      NM   R$  000000000124900000000012830000000001245000000000127200000000012780000000001278000000000128017286000000000012504300000000015910602000000000000000009999123100000010000000000000BRENEVACNOR8105
012024060302ENGI11      010ENERGISA    UNT     N2   R$  000000000459000000000047070000000004522000000000465600000000046860000000004678000000000468610761000000000002017600000000009395424700000000000000009999123100000010000000000000BRENGICDAM16135
012024060302ENGI3       010ENERGISA    ON      N2   R$  000000000141300000000014490000000001405000000000143300000000014480000000001429000000000144900049000000000000005000000000000007165200000000000000009999123100000010000000000000BRENGIACNOR0145
012024060302ENGI4       010ENERGISA    PN      N2   R$  000000000078300000000008150000000000783000000000080100000000008150000000000790000000000081400071000000000000016900000000000013536900000000000000009999123100000010000000000000BRENGIACNPR7141
012024060302ENJU3       010ENJOEI      ON      NM   R$  000000000026900000000002830000000000265000000000027500000000002780000000000277000000000027801662000000000001823100000000000502310400000000000000009999123100000010000000000000BRENJUACNOR9100
012024060302EPAR3       010EMBPAR S/A  ON           R$  000000000070000000000007000000000000674000000000068300000000006790000000000676000000000067900015000000000000002400000000000001639500000000000000009999123100000010000000000000BREPARACNOR9105
012024060302EQMA3B      010EQTLMARANHAOON      MB   R$  000000000264400000000026440000000002640000000000264100000000026400000000002551000000000262900004000000000000000700000000000001849200000000000000009999123100000010000000000000BREQMAACNOR8108
012024060302EQPA3       010EQTL PARA   ON           R$  000000000068400000000006880000000000680000000000068200000000006800000000000680000000000068300017000000000000003900000000000002662400000000000000009999123100000010000000000000BREQPAACNOR1111
012024060302EQTL3       010EQUATORIAL  ON      NM   R$  000000000293700000000029830000000002920000000000296300000000029640000000002963000000000296618989000000000007365600000000021824409000000000000000009999123100000010000000000000BREQTLACNOR0130
012024060302IFCM3       010INFRACOMM   ON      NM   R$  000000000004700000000000490000000000045000000000004700000000000460000000000046000000000004705280000000000009017200000000000425822400000000000000009999123100000010000000000000BRIFCMACNOR8101
012024060302IGTI11      010IGUATEMI S.AUNT     N1   R$  000000000203500000000020680000000002020000000000205400000000020570000000002049000000000206011115000000000002379200000000004889177500000000000000009999123100000010000000000000BRIGTICDAM16106
012024060302IGTI3       010IGUATEMI S.AON      N1   R$  000000000028900000000002940000000000287000000000029100000000002920000000000291000000000029200178000000000000055000000000000016013700000000000000009999123100000010000000000000BRIGTIACNOR8106
012024060302IGTI4       010IGUATEMI S.APN      N1   R$  000000000087000000000008870000000000870000000000087000000000008870000000000831000000000105000032000000000000006000000000000005224600000000000000009999123100000010000000000000BRIGTIACNPR5106
012024060302INEP3       010INEPAR      ON           R$  000000000018800000000001910000000000183000000000018600000000001900000000000186000000000019000125000000000000059100000000000011032800000000000000009999123100000010000000000000BRINEPACNOR1143
012024060302INEP4       010INEPAR      PN           R$  000000000019100000000001910000000000180000000000018200000000001800000000000180000000000018100069000000000000042400000000000007737300000000000000009999123100000010000000000000BRINEPACNPR8143
012024060302INTB3       010INTELBRAS   ON      NM   R$  000000000231200000000023180000000002241000000000227100000000022610000000002250000000000226205067000000000001128200000000002562430700000000000000009999123100000010000000000000BRINTBACNOR9111
012024060302IRBR3       010IRBBRASIL REON      NM   R$  000000000316000000000031740000000003091000000000313500000000031390000000003137000000000314005325000000000001453900000000004558668300000000000000009999123100000010000000000000BRIRBRACNOR4111
012024060302LUPA3       010LUPATECH    ON      NM   R$  000000000016300000000001630000000000157000000000015900000000001590000000000159000000000016000180000000000000208700000000000033219100000000000000009999123100000010000000000000BRLUPAACNOR8112
012024060302LVTC3       010WDC NETWORKSON      NM   R$  000000000038100000000003890000000000378000000000038100000000003820000000000379000000000038300051000000000000008300000000000003166800000000000000009999123100000010000000000000BRLVTCACNOR4102
012024060302AERI3       010AERIS       ON      NM   R$  000000000081000000000008420000000000802000000000081700000000008190000000000813000000000081901181000000000000202700000000000165639400000000000000009999123100000010000000000000BRAERIACNOR4102
012024060302AESB3       010AES BRASIL  ON      NM   R$  000000000111800000000011240000000001112000000000111700000000011170000000001117000000000111804845000000000008151600000000009111014400000000000000009999123100000010000000000000BRAESBACNOR7106
012024060302AGRO3       010BRASILAGRO  ON      NM   R$  000000000252000000000026500000000002520000000000257000000000026460000000002637000000000264603128000000000000975500000000002507942000000000000000009999123100000010000000000000BRAGROACNOR7114
012024060302AGXY3       010AGROGALAXY  ON      NM   R$  000000000012300000000001250000000000119000000000012100000000001240000000000122000000000012400205000000000000121300000000000014780900000000000000009999123100000010000000000000BRAGXYACNOR4103
012024060302ALLD3       010ALLIED      ON      NM   R$  000000000068600000000007720000000000681000000000072400000000007400000000000740000000000076001499000000000000336600000000000243969200000000000000009999123100000010000000000000BRALLDACNOR3106
012024060302ALOS3       010ALLOS       ON      NM   R$  000000000213900000000021500000000002097000000000212200000000021160000000002116000000000211711611000000000003598700000000007637310300000000000000009999123100000010000000000000BRALOSACNOR5101
012024060302HETA4       010HERCULES    PN           R$  000000000054200000000005420000000000540000000000054000000000005400000000000534000000000056700003000000000000000500000000000000270300000000000000009999123100000010000000000000BRHETAACNPR9136
012024060302HYPE3       010HYPERA      ON  EJ  NM   R$  000000000271100000000028870000000002711000000000284200000000028610000000002860000000000287412747000000000005191200000000014754894300000000000000009999123100000010000000000000BRHYPEACNOR0141
012024060302KEPL3       010KEPLER WEBERON      NM   R$  000000000098800000000010090000000000984000000000099200000000009860000000000985000000000098603156000000000000665400000000000660098600000000000000009999123100000010000000000000BRKEPLACNOR1062
012024060302KLBN11      010KLABIN S/A  UNT     N2   R$  000000000204200000000020550000000002016000000000202800000000020270000000002023000000000202709477000000000003075800000000006239310300000000000000009999123100000010000000000000BRKLBNCDAM18142
012024060302KLBN3       010KLABIN S/A  ON      N2   R$  000000000040700000000004100000000000404000000000040500000000004040000000000404000000000040500857000000000000389800000000000158153100000000000000009999123100000010000000000000BRKLBNACNOR2170
012024060302KLBN4       010KLABIN S/A  PN      N2   R$  000000000040600000000004100000000000404000000000040600000000004050000000000405000000000040602870000000000001773900000000000721381700000000000000009999123100000010000000000000BRKLBNACNPR9170
012024060302KRSA3       010KORA SAUDE  ON      NM   R$  000000000006900000000000700000000000066000000000006600000000000670000000000066000000000006700230000000000000732300000000000048846300000000000000009999123100000010000000000000BRKRSAACNOR0100
012024060302HAGA3       010HAGA S/A    ON           R$  000000000025600000000002560000000000244000000000024600000000002500000000000246000000000025800011000000000000001600000000000000393600000000000000009999123100000010000000000000BRHAGAACNOR7103
012024060302HAGA4       010HAGA S/A    PN           R$  000000000012200000000001240000000000119000000000012100000000001190000000000119000000000012000034000000000000015100000000000001831300000000000000009999123100000010000000000000BRHAGAACNPR4103
012024060302HAPV3       010HAPVIDA     ON      NM   R$  000000000040100000000004100000000000396000000000040500000000004070000000000406000000000040725954000000000055771900000000022607904900000000000000009999123100000010000000000000BRHAPVACNOR4114
012024060302JHSF3       010JHSF PART   ON  ED  NM   R$  000000000040000000000004130000000000399000000000040600000000004130000000000411000000000041304398000000000006994500000000002844890000000000000000009999123100000010000000000000BRJHSFACNOR2136
012024060302JOPA3       010JOSAPAR     ON           R$  000000000210000000000021000000000002100000000000210000000000021000000000002100000000000227000001000000000000000900000000000001890000000000000000009999123100000010000000000000BRJOPAACNOR5135
012024060302AALR3       010ALLIAR      ON      NM   R$  000000000098000000000009930000000000945000000000096300000000009450000000000945000000000095000127000000000000022800000000000021962400000000000000009999123100000010000000000000BRAALRACNOR6102
012024060302ABCB4       010ABC BRASIL  PN      N2   R$  000000000216000000000021630000000002140000000000215000000000021480000000002148000000000215804276000000000001250700000000002689997700000000000000009999123100000010000000000000BRABCBACNPR4145
012024060302ABEV3       010AMBEV S/A   ON           R$  000000000115700000000011700000000001146000000000115500000000011550000000001152000000000115525770000000000024967400000000028847283900000000000000009999123100000010000000000000BRABEVACNOR1127
012024060302BBDC3       010BRADESCO    ON      N1   R$  000000000115000000000011530000000001138000000000114600000000011470000000001146000000000114708298000000000006103100000000006997116600000000000000009999123100000010000000000000BRBBDCACNOR1769
012024060302BBDC4       010BRADESCO    PN      N1   R$  000000000127200000000012850000000001266000000000127600000000012750000000001275000000000128023699000000000030299600000000038675444400000000000000009999123100000010000000000000BRBBDCACNPR8769
012024060302CMIN3       010CSNMINERACAOON      N2   R$  000000000049200000000004940000000000476000000000048200000000004830000000000482000000000048317756000000000015225600000000007344664900000000000000009999123100000010000000000000BRCMINACNOR2111
012024060302COCE5       010COELCE      PNA          R$  000000000316000000000032170000000003160000000000317900000000031800000000003172000000000321100150000000000000022300000000000070903500000000000000009999123100000010000000000000BRCOCEACNPA3147
012024060302JSLG3       010JSL         ON      NM   R$  000000000103100000000010460000000000996000000000101800000000010050000000001005000000000100603237000000000000638400000000000650375300000000000000009999123100000010000000000000BRJSLGACNOR2121
012024060302MRSA3B      010MRS LOGIST  ON      MB   R$  000000000271700000000027170000000002717000000000271700000000027170000000002696000000000000000001000000000000000600000000000001630200000000000000009999123100000010000000000000BRMRSAACNOR6125
012024060302MRVE3       010MRV         ON      NM   R$  000000000069200000000007090000000000683000000000069600000000006940000000000694000000000069810597000000000006860500000000004777115900000000000000009999123100000010000000000000BRMRVEACNOR2127
012024060302COGN3       010COGNA ON    ON      NM   R$  000000000018600000000001930000000000185000000000018900000000001880000000000187000000000018812492000000000023297900000000004403432800000000000000009999123100000010000000000000BRCOGNACNOR2104
012024060302EKTR4       010ELEKTRO     PN           R$  000000000395400000000039550000000003905000000000394000000000039050000000003841000000000395500005000000000000000700000000000002758500000000000000009999123100000010000000000000BREKTRACNPR7162
012024060302ELET3       010ELETROBRAS  ON      N1   R$  000000000349900000000035580000000003466000000000352700000000035450000000003545000000000354813367000000000004750200000000016755317900000000000000009999123100000010000000000000BRELETACNOR6160
012024060302ELET6       010ELETROBRAS  PNB     N1   R$  000000000392600000000039810000000003896000000000395400000000039660000000003964000000000396805900000000000002297200000000009084926500000000000000009999123100000010000000000000BRELETACNPB7077
012024060302HBOR3       010HELBOR      ON      NM   R$  000000000023000000000002360000000000226000000000022900000000002340000000000233000000000023401455000000000000742400000000000170262800000000000000009999123100000010000000000000BRHBORACNOR3118
012024060302HBRE3       010HBR REALTY  ON      NM   R$  000000000046700000000004710000000000448000000000046100000000004650000000000462000000000046503087000000000000689000000000000318316900000000000000009999123100000010000000000000BRHBREACNOR4100
012024060302HBSA3       010HIDROVIAS   ON      NM   R$  000000000040100000000004080000000000398000000000040200000000004070000000000403000000000040706532000000000003188600000000001282106800000000000000009999123100000010000000000000BRHBSAACNOR0100
012024060302BAHI3       010BAHEMA      ON      MA   R$  000000000067200000000006730000000000650000000000065900000000006580000000000650000000000065800018000000000000004900000000000003230700000000000000009999123100000010000000000000BRBAHIACNOR1074
012024060302BALM4       010BAUMER      PN           R$  000000000097600000000009760000000000976000000000097600000000009760000000000976000000000099900002000000000000000200000000000000195200000000000000009999123100000010000000000000BRBALMACNPR2056
012024060302BAUH4       010EXCELSIOR   PN           R$  000000000788700000000078870000000007887000000000788700000000078870000000006005000000000788800002000000000000000300000000000002366100000000000000009999123100000010000000000000BRBAUHACNPR3118
012024060302BAZA3       010AMAZONIA    ON           R$  000000000958000000000095800000000009442000000000950400000000095500000000009442000000000958000030000000000000004200000000000039918800000000000000009999123100000010000000000000BRBAZAACNOR0179
012024060302BBAS3       010BRASIL      ON      NM   R$  000000000271800000000027390000000002707000000000271900000000027150000000002714000000000271581457000000000027700400000000075335324900000000000000009999123100000010000000000000BRBBASACNOR3322
012024060302BMEB3       010MERCANTIL   ON      N1   R$  000000000250000000000025000000000002480000000000249000000000024800000000002450000000000250000002000000000000000200000000000000498000000000000000009999123100000010000000000000BRBMEBACNOR8205
012024060302BMEB4       010MERCANTIL   PN      N1   R$  000000000268900000000026950000000002600000000000263100000000026300000000002601000000000263200091000000000000018100000000000047629600000000000000009999123100000010000000000000BRBMEBACNPR5210
012024060302BMGB4       010BANCO BMG   PN      N1   R$  000000000033900000000003390000000000333000000000033500000000003340000000000334000000000033600804000000000000338800000000000113792200000000000000009999123100000010000000000000BRBMGBACNPR0109
012024060302BMIN4       010MERC INVEST PN           R$  000000000157200000000015720000000001540000000000155600000000015400000000001520000000000160000002000000000000000200000000000000311200000000000000009999123100000010000000000000BRBMINACNPR1176
012024060302BMKS3       010BIC MONARK  ON           R$  000000003529900000000352990000000035298000000003529800000000352990000000034500000000003529900009000000000000000023000000000000811871000000000000009999123100000010000000000000BRBMKSACNOR9166
012024060302BMOB3       010BEMOBI TECH ON      NM   R$  000000000130000000000013000000000001270000000000127700000000012760000000001270000000000127701930000000000000385400000000000492482700000000000000009999123100000010000000000000BRBMOBACNOR7103
012024060302BNBR3       010NORD BRASIL ON           R$  000000001125100000000116500000000011251000000001151600000000116500000000011401000000001190000003000000000000000300000000000003455000000000000000009999123100000010000000000000BRBNBRACNOR8208
012024060302BOBR4       010BOMBRIL     PN           R$  000000000021000000000002140000000000203000000000021000000000002070000000000207000000000021000014000000000000002900000000000000609600000000000000009999123100000010000000000000BRBOBRACNPR3128
012024060302BSLI3       010BRB BANCO   ON  EDJ      R$  000000000096000000000009600000000000960000000000096000000000009600000000000965000000000100000002000000000000000200000000000000192000000000000000009999123100000010000000000000BRBSLIACNOR5194
012024060302BSLI4       010BRB BANCO   PN  EDJ      R$  000000000107100000000010710000000001071000000000107100000000010710000000001012000000000107100001000000000000000100000000000000107100000000000000009999123100000010000000000000BRBSLIACNPR2194
012024060302CAMB3       010CAMBUCI     ON  ED       R$  000000000106600000000010740000000001040000000000104900000000010540000000001045000000000105400169000000000000040900000000000042914400000000000000009999123100000010000000000000BRCAMBACNOR4129
012024060302CAML3       010CAMIL       ON  EDJ NM   R$  000000000095700000000009800000000000947000000000097100000000009720000000000972000000000097606896000000000001293300000000001256011500000000000000009999123100000010000000000000BRCAMLACNOR3128
012024060302CASH3       010MELIUZ      ON      NM   R$  000000000053000000000005470000000000525000000000053900000000005400000000000540000000000054504631000000000001550700000000000837028200000000000000009999123100000010000000000000BRCASHACNOR8106
012024060302BRSR3       010BANRISUL    ON      N1   R$  000000000113000000000011800000000001128000000000114800000000011650000000001144000000000118000078000000000000008600000000000009873700000000000000009999123100000010000000000000BRBRSRACNOR3187
012024060302BRSR6       010BANRISUL    PNB     N1   R$  000000000109000000000011470000000001090000000000112900000000011440000000001139000000000114409918000000000006990300000000007898387400000000000000009999123100000010000000000000BRBRSRACNPB4190
012024060302CURY3       010CURY S/A    ON      NM   R$  000000000183300000000019200000000001833000000000190300000000018940000000001893000000000190207324000000000003188000000000006069435100000000000000009999123100000010000000000000BRCURYACNOR3109
012024060302CVCB3       010CVC BRASIL  ON      NM   R$  000000000019300000000002000000000000191000000000019600000000001950000000000194000000000019506206000000000012656900000000002482281600000000000000009999123100000010000000000000BRCVCBACNOR1115
012024060302CXSE3       010CAIXA SEGURION      NM   R$  000000000148300000000014850000000001437000000000145200000000014570000000001457000000000145813635000000000004287100000000006226293900000000000000009999123100000010000000000000BRCXSEACNOR7106
012024060302CYRE3       010CYRELA REALTON      NM   R$  000000000191000000000019520000000001895000000000193000000000019220000000001921000000000193018004000000000004539700000000008764896600000000000000009999123100000010000000000000BRCYREACNOR7140
012024060302GEPA4       010GER PARANAP PN           R$  000000000245600000000024560000000002456000000000245600000000024560000000002456000000000252900001000000000000000200000000000000491200000000000000009999123100000010000000000000BRGEPAACNPR9160
012024060302GFSA3       010GAFISA      ON      NM   R$  000000000041500000000004340000000000405000000000041900000000004190000000000419000000000042002236000000000001926500000000000808729200000000000000009999123100000010000000000000BRGFSAACNOR3124
012024060302GGBR3       010GERDAU      ON      N1   R$  000000000161300000000016130000000001574000000000158700000000015740000000001574000000000157600468000000000000095900000000000152262500000000000000009999123100000010000000000000BRGGBRACNOR1192
012024060302GGBR4       010GERDAU      PN      N1   R$  000000000181500000000018160000000001752000000000176800000000017590000000001759000000000176025753000000000013127300000000023213407200000000000000009999123100000010000000000000BRGGBRACNPR8192
012024060302ITUB4       010ITAUUNIBANCOPN  EJ  N1   R$  000000000311600000000031650000000003109000000000313900000000031450000000003145000000000314639124000000000022727500000000071362950700000000000000009999123100000010000000000000BRITUBACNPR1336
012024060302RANI3       010IRANI       ON      NM   R$  000000000084800000000008650000000000841000000000085600000000008570000000000856000000000085703526000000000000827600000000000709040000000000000000009999123100000010000000000000BRRANIACNOR5072
012024060302RAPT3       010RANDON PART ON      N1   R$  000000000082000000000008230000000000810000000000081800000000008230000000000811000000000082300143000000000000039600000000000032418400000000000000009999123100000010000000000000BRRAPTACNOR7162
012024060302RAPT4       010RANDON PART PN      N1   R$  000000000095400000000009650000000000938000000000094800000000009410000000000941000000000094606823000000000002002700000000001899432700000000000000009999123100000010000000000000BRRAPTACNPR4162
012024060302RCSL3       010RECRUSUL    ON  EG       R$  000000000045800000000005100000000000452000000000047600000000004680000000000467000000000046802804000000000001144300000000000545148900000000000000009999123100000010000000000000BRRCSLACNOR4134
012024060302RCSL4       010RECRUSUL    PN  EG       R$  000000000011800000000001270000000000110000000000011600000000001140000000000114000000000011501251000000000000944500000000000110435400000000000000009999123100000010000000000000BRRCSLACNPR1134
012024060302RDNI3       010RNI         ON      NM   R$  000000000031700000000003250000000000317000000000032400000000003250000000000319000000000034200015000000000000002400000000000000778700000000000000009999123100000010000000000000BRRDNIACNOR9116
012024060302RDOR3       010REDE D OR   ON      NM   R$  000000000274700000000027550000000002670000000000272500000000027310000000002729000000000273321011000000000014651100000000039927490000000000000000009999123100000010000000000000BRRDORACNOR8112
012024060302RECV3       010PETRORECSA  ON      NM   R$  000000000211000000000021270000000002090000000000211300000000021010000000002101000000000210810432000000000004208000000000008895051800000000000000009999123100000010000000000000BRRECVACNOR3106
012024060302RAIL3       010RUMO S.A.   ON      NM   R$  000000000197600000000020070000000001961000000000198300000000019830000000001975000000000198414449000000000009028300000000017910227200000000000000009999123100000010000000000000BRRAILACNOR9105
012024060302RAIZ4       010RAIZEN      PN      N2   R$  000000000028600000000002890000000000280000000000028200000000002800000000000280000000000028118909000000000012939000000000003652165000000000000000009999123100000010000000000000BRRAIZACNPR6110
012024060302SRNA3       010SERENA      ON      NM   R$  000000000086900000000009030000000000863000000000088700000000008870000000000887000000000088810984000000000004320300000000003833342900000000000000009999123100000010000000000000BRSRNAACNOR4100
012024060302STBP3       010SANTOS BRP  ON  EDJ NM   R$  000000000115000000000012280000000001148000000000120800000000012100000000001207000000000121011632000000000005544300000000006698680500000000000000009999123100000010000000000000BRSTBPACNOR3130
012024060302SUZB3       010SUZANO S.A. ON      NM   R$  000000000487000000000048800000000004687000000000474300000000047110000000004711000000000471732001000000000011366300000000053917680500000000000000009999123100000010000000000000BRSUZBACNOR0129
012024060302PRNR3       010PRINER      ON      NM   R$  000000000114400000000011450000000001125000000000113400000000011310000000001130000000000113901537000000000000348800000000000395671000000000000000009999123100000010000000000000BRPRNRACNOR4109
012024060302PSSA3       010PORTO SEGUROON      NM   R$  000000000303800000000030530000000002953000000000299900000000030140000000003014000000000301807601000000000001727800000000005182685000000000000000009999123100000010000000000000BRPSSAACNOR7154
012024060302PTBL3       010PORTOBELLO  ON      NM   R$  000000000042100000000004300000000000413000000000042300000000004240000000000422000000000042401003000000000000380700000000000161326800000000000000009999123100000010000000000000BRPTBLACNOR8132
012024060302PTNT4       010PETTENATI   PN           R$  000000000069800000000007130000000000675000000000068000000000006750000000000665000000000067500028000000000000019100000000000012993000000000000000009999123100000010000000000000BRPTNTACNPR3047
012024060302QUAL3       010QUALICORP   ON      NM   R$  000000000016500000000001780000000000158000000000016900000000001750000000000175000000000017702886000000000008825200000000001499681700000000000000009999123100000010000000000000BRQUALACNOR6120
012024060302RADL3       010RAIADROGASILON      NM   R$  000000000249800000000025380000000002487000000000251400000000025180000000002517000000000252114088000000000003414000000000008584536700000000000000009999123100000010000000000000BRRADLACNOR0156
012024060302SMFT3       010SMART FIT   ON      NM   R$  000000000229400000000023290000000002266000000000229800000000023000000000002293000000000230609299000000000002850500000000006552673200000000000000009999123100000010000000000000BRSMFTACNOR1111
012024060302SMTO3       010SAO MARTINHOON      NM   R$  000000000273500000000027460000000002658000000000270800000000027100000000002706000000000271804642000000000002844000000000007702985000000000000000009999123100000010000000000000BRSMTOACNOR3125
012024060302SNSY3       010SANSUY      ON           R$  000000000119000000000011900000000001184000000000118400000000011840000000001120000000000117900002000000000000000900000000000001066200000000000000009999123100000010000000000000BRSNSYACNOR2113
012024060302SNSY5       010SANSUY      PNA          R$  000000000059600000000006080000000000596000000000059800000000005970000000000596000000000061000008000000000000000800000000000000479100000000000000009999123100000010000000000000BRSNSYACNPA5111
012024060302SOJA3       010BOA SAFRA   ON      NM   R$  000000000164000000000017150000000001600000000000166500000000016000000000001600000000000160704679000000000002115200000000003522882500000000000000009999123100000010000000000000BRSOJAACNOR9105
012024060302SOMA3       010GRUPO SOMA  ON      NM   R$  000000000058900000000006070000000000580000000000059700000000006030000000000599000000000060423711000000000009349000000000005590366500000000000000009999123100000010000000000000BRSOMAACNOR3102
012024060302SCAR3       010SAO CARLOS  ON      NM   R$  000000000255400000000025790000000002442000000000247900000000024420000000002442000000000246000100000000000000018000000000000044638400000000000000009999123100000010000000000000BRSCARACNOR7131
012024060302SEER3       010SER EDUCA   ON      NM   R$  000000000049300000000004940000000000475000000000048200000000004780000000000478000000000048102719000000000000508000000000000244983500000000000000009999123100000010000000000000BRSEERACNOR5119
012024060302SEQL3       010SEQUOIA LOG ON  EG  NM   R$  000000000063200000000006380000000000580000000000060300000000006030000000000595000000000060300742000000000000654800000000000395269200000000000000009999123100000010000000000000BRSEQLACNOR2103
012024060302SHOW3       010TIME FOR FUNON      NM   R$  000000000017900000000001830000000000177000000000017900000000001810000000000177000000000018100405000000000000217600000000000039102900000000000000009999123100000010000000000000BRSHOWACNOR7105
012024060302SHUL4       010SCHULZ      PN           R$  000000000060900000000006150000000000595000000000060300000000005950000000000595000000000060001972000000000000760100000000000458528400000000000000009999123100000010000000000000BRSHULACNPR4155
012024060302SIMH3       010SIMPAR      ON      NM   R$  000000000060300000000006340000000000603000000000062300000000006270000000000625000000000062909425000000000004167100000000002599362000000000000000009999123100000010000000000000BRSIMHACNOR0107
012024060302MAPT3       010CEMEPE      ON           R$  000000000046000000000004800000000000460000000000047000000000004800000000000431000000000049000002000000000000000200000000000000094000000000000000009999123100000010000000000000BRMAPTACNOR8106
012024060302MAPT4       010CEMEPE      PN           R$  000000000054200000000005760000000000540000000000054600000000005760000000000541000000000057600008000000000000000800000000000000437200000000000000009999123100000010000000000000BRMAPTACNPR5106
012024060302MATD3       010MATER DEI   ON      NM   R$  000000000050200000000005280000000000500000000000051800000000005250000000000517000000000052501814000000000000547400000000000284051700000000000000009999123100000010000000000000BRMATDACNOR4104
012024060302MBLY3       010MOBLY       ON      NM   R$  000000000021000000000002250000000000210000000000021700000000002130000000000213000000000021700596000000000000283200000000000061454500000000000000009999123100000010000000000000BRMBLYACNOR5100
012024060302MDIA3       010M.DIASBRANCOON      NM   R$  000000000312500000000031620000000003105000000000313300000000031350000000003130000000000313503475000000000000569100000000001783228300000000000000009999123100000010000000000000BRMDIAACNOR7134
012024060302MDNE3       010MOURA DUBEUXON      NM   R$  000000000110300000000011340000000001084000000000111600000000011210000000001110000000000112202487000000000000477800000000000533454200000000000000009999123100000010000000000000BRMDNEACNOR9100
012024060302MEAL3       010IMC S/A     ON      NM   R$  000000000013200000000001340000000000131000000000013200000000001310000000000131000000000013300870000000000001456100000000000192243000000000000000009999123100000010000000000000BRMEALACNOR9105
012024060302MELK3       010MELNICK     ON      NM   R$  000000000038500000000004000000000000379000000000038800000000003900000000000389000000000039001413000000000000324600000000000126084800000000000000009999123100000010000000000000BRMELKACNOR8111
012024060302MGEL4       010MANGELS INDLPN           R$  000000000132500000000013250000000001300000000000130400000000013000000000001300000000000136200008000000000000002100000000000002740400000000000000009999123100000010000000000000BRMGELACNPR3147
012024060302MGLU3       010MAGAZ LUIZA ON  EG  NM   R$  000000000123900000000012950000000001210000000000125800000000012680000000001267000000000126929861000000000018347100000000023083797800000000000000009999123100000010000000000000BRMGLUACNOR2124
012024060302ALPA3       010ALPARGATAS  ON      N1   R$  000000000095200000000009930000000000951000000000097800000000009870000000000987000000000099800021000000000000002700000000000002641600000000000000009999123100000010000000000000BRALPAACNOR0231
012024060302ALPA4       010ALPARGATAS  PN      N1   R$  000000000096700000000009740000000000944000000000095900000000009520000000000951000000000095305477000000000001493700000000001433373300000000000000009999123100000010000000000000BRALPAACNPR7232
012024060302ALPK3       010ESTAPAR     ON      NM   R$  000000000035900000000003620000000000341000000000035200000000003430000000000342000000000034300856000000000000154200000000000054340500000000000000009999123100000010000000000000BRALPKACNOR9101
012024060302ALUP11      010ALUPAR      UNT     N2   R$  000000000289200000000029300000000002876000000000291300000000029130000000002905000000000291505417000000000001436200000000004184005000000000000000009999123100000010000000000000BRALUPCDAM15119
012024060302ALUP3       010ALUPAR      ON      N2   R$  000000000097400000000009890000000000974000000000098100000000009810000000000980000000000098700093000000000000010000000000000009811300000000000000009999123100000010000000000000BRALUPACNOR8119
012024060302ALUP4       010ALUPAR      PN      N2   R$  000000000096200000000009710000000000951000000000095700000000009660000000000964000000000096700140000000000000022100000000000021156600000000000000009999123100000010000000000000BRALUPACNPR5119
012024060302AMAR3       010LOJAS MARISAON      NM   R$  000000000017800000000001780000000000171000000000017300000000001720000000000172000000000017300746000000000000266200000000000046125200000000000000009999123100000010000000000000BRAMARACNOR4114
012024060302AMBP3       010AMBIPAR     ON      NM   R$  000000000087600000000009500000000000855000000000092900000000009460000000000945000000000094712358000000000006948500000000006461704700000000000000009999123100000010000000000000BRAMBPACNOR6103
012024060302ANIM3       010ANIMA       ON      NM   R$  000000000035000000000003630000000000346000000000035300000000003510000000000350000000000035113342000000000006251500000000002209552600000000000000009999123100000010000000000000BRANIMACNOR6107
012024060302APER3       010ALPER S.A.  ON           R$  000000000453600000000045360000000004535000000000453500000000045350000000004535000000000455000003000000000000000500000000000002267600000000000000009999123100000010000000000000BRAPERACNOR9106
012024060302ARML3       010ARMAC       ON      NM   R$  000000000104700000000010720000000001021000000000105700000000010670000000001057000000000106704136000000000000781100000000000825998500000000000000009999123100000010000000000000BRARMLACNOR1111
012024060302FLRY3       010FLEURY      ON      NM   R$  000000000140600000000014580000000001405000000000144700000000014540000000001452000000000145512314000000000003927000000000005685656300000000000000009999123100000010000000000000BRFLRYACNOR5138
012024060302FRAS3       010FRAS-LE     ON      N1   R$  000000000175100000000017620000000001733000000000175000000000017580000000001747000000000175800877000000000000142300000000000249090200000000000000009999123100000010000000000000BRFRASACNOR0159
012024060302FRIO3       010METALFRIO   ON      NM   R$  000000003300000000000343000000000033000000000003403400000000343000000000034300000000003440000034000000000000006500000000000221221400000000000000009999123100000010000000000000BRFRIOACNOR2111
012024060302BRBI11      010BR PARTNERS UNT     N2   R$  000000000142300000000014270000000001390000000000141000000000014200000000001409000000000142202521000000000000413400000000000583162000000000000000009999123100000010000000000000BRBRBICDAM10109
012024060302BRFS3       010BRF SA      ON      NM   R$  000000000185700000000018830000000001845000000000186700000000018710000000001870000000000187112519000000000004346500000000008115381700000000000000009999123100000010000000000000BRBRFSACNOR8122
012024060302CSRN3       010COSERN      ON           R$  000000000236900000000023700000000002309000000000234900000000023090000000002301000000000230900021000000000000002700000000000006343700000000000000009999123100000010000000000000BRCSRNACNOR0192
012024060302CSUD3       010CSU DIGITAL ON      NM   R$  000000000183900000000018470000000001778000000000180900000000018170000000001817000000000183200449000000000000072100000000000130488900000000000000009999123100000010000000000000BRCSUDACNOR5109
012024060302PNVL3       010DIMED       ON      NM   R$  000000000106500000000010750000000001029000000000104700000000010520000000001048000000000105501373000000000000278500000000000291661100000000000000009999123100000010000000000000BRPNVLACNOR9206
012024060302POMO3       010MARCOPOLO   ON  EJ  N2   R$  000000000051200000000005120000000000496000000000050200000000005040000000000501000000000050401011000000000000290400000000000145871800000000000000009999123100000010000000000000BRPOMOACNOR0098
012024060302POMO4       010MARCOPOLO   PN  EJ  N2   R$  000000000065100000000006520000000000636000000000064300000000006460000000000645000000000064709790000000000005037800000000003244334000000000000000009999123100000010000000000000BRPOMOACNPR7098
012024060302PORT3       010WILSON SONS ON  ED  NM   R$  000000000153900000000015540000000001526000000000153100000000015270000000001527000000000153201890000000000000475700000000000728527000000000000000009999123100000010000000000000BRPORTACNOR8108
012024060302POSI3       010POSITIVO TECON      NM   R$  000000000090500000000009090000000000892000000000089900000000008950000000000895000000000089805331000000000001260600000000001134185900000000000000009999123100000010000000000000BRPOSIACNOR9116
012024060302RSUL4       010RIOSULENSE  PN           R$  000000000690000000000070490000000006820000000000688600000000069000000000006820000000000699900011000000000000001100000000000007574800000000000000009999123100000010000000000000BRRSULACNPR3114
012024060302PRIO3       010PETRORIO    ON      NM   R$  000000000416900000000041940000000004071000000000412500000000041170000000004116000000000412020093000000000005810600000000023970436500000000000000009999123100000010000000000000BRPRIOACNOR1106
012024060302SAPR11      010SANEPAR     UNT     N2   R$  000000000272200000000027610000000002709000000000273400000000027300000000002730000000000273405039000000000000829200000000002267376500000000000000009999123100000010000000000000BRSAPRCDAM13117
012024060302SAPR3       010SANEPAR     ON      N2   R$  000000000051500000000005200000000000511000000000051500000000005140000000000514000000000051500493000000000000209300000000000107822100000000000000009999123100000010000000000000BRSAPRACNOR9158
012024060302SAPR4       010SANEPAR     PN      N2   R$  000000000056000000000005660000000000552000000000055700000000005580000000000557000000000055802518000000000001319700000000000736249100000000000000009999123100000010000000000000BRSAPRACNPR6158
012024060302SBFG3       010GRUPO SBF   ON      NM   R$  000000000116900000000012320000000001163000000000120800000000012120000000001212000000000121706263000000000001497500000000001810027200000000000000009999123100000010000000000000BRSBFGACNOR1103
012024060302SBSP3       010SABESP      ON      NM   R$  000000000744000000000074770000000007332000000000738300000000073550000000007354000000000736016079000000000004074600000000030086680600000000000000009999123100000010000000000000BRSBSPACNOR5161
012024060302UNIP3       010UNIPAR      ON           R$  000000000498900000000050120000000004816000000000489900000000048260000000004822000000000482700194000000000000025400000000000124446900000000000000009999123100000010000000000000BRUNIPACNOR7206
012024060302AZEV3       010AZEVEDO     ON           R$  000000000012500000000001270000000000120000000000012200000000001200000000000120000000000012100418000000000000563200000000000069207500000000000000009999123100000010000000000000BRAZEVACNOR0121
012024060302AZEV4       010AZEVEDO     PN           R$  000000000011600000000001160000000000112000000000011300000000001140000000000113000000000011402201000000000001521300000000000173110200000000000000009999123100000010000000000000BRAZEVACNPR7121
012024060302AZUL4       010AZUL        PN      N2   R$  000000000095500000000009650000000000926000000000094100000000009410000000000941000000000094212251000000000010442200000000009831228100000000000000009999123100000010000000000000BRAZULACNPR4102
012024060302TRAD3       010TC          ON      NM   R$  000000000006600000000000670000000000063000000000006300000000000630000000000063000000000006400174000000000000478200000000000030499600000000000000009999123100000010000000000000BRTRADACNOR3101
012024060302TRIS3       010TRISUL      ON      NM   R$  000000000046400000000004930000000000464000000000048400000000004900000000000489000000000049002241000000000000829900000000000402487300000000000000009999123100000010000000000000BRTRISACNOR4118
012024060302TRPL3       010TRAN PAULISTON      N1   R$  000000000344800000000034480000000003349000000000335400000000033790000000003352000000000339900023000000000000004000000000000013418200000000000000009999123100000010000000000000BRTRPLACNOR4185
012024060302TRPL4       010TRAN PAULISTPN      N1   R$  000000000254700000000025900000000002547000000000257100000000025610000000002560000000000256510654000000000002563300000000006591772400000000000000009999123100000010000000000000BRTRPLACNPR1185
012024060302TTEN3       0103TENTOS     ON      NM   R$  000000000097400000000010060000000000964000000000099000000000009880000000000988000000000099006775000000000001302000000000001289355400000000000000009999123100000010000000000000BRTTENACNOR0103
012024060302TUPY3       010TUPY        ON  ED  NM   R$  000000000232000000000023610000000002304000000000233100000000023350000000002333000000000233703589000000000000601900000000001403525400000000000000009999123100000010000000000000BRTUPYACNOR1184
012024060302BEEF3       010MINERVA     ON      NM   R$  000000000062100000000006310000000000611000000000062000000000006250000000000624000000000062611713000000000009218100000000005723324100000000000000009999123100000010000000000000BRBEEFACNOR6116
012024060302BPAN4       010BANCO PAN   PN      N1   R$  000000000090800000000009290000000000903000000000091600000000009140000000000914000000000091506783000000000004052700000000003715652200000000000000009999123100000010000000000000BRBPANACNPR1115
012024060302BRAP3       010BRADESPAR   ON      N1   R$  000000000186900000000018690000000001811000000000182400000000018240000000001823000000000182500507000000000000106700000000000194725000000000000000009999123100000010000000000000BRBRAPACNOR5148
012024060302BRAP4       010BRADESPAR   PN      N1   R$  000000000192000000000019200000000001869000000000188200000000018790000000001878000000000188009043000000000003642300000000006855371500000000000000009999123100000010000000000000BRBRAPACNPR2148
012024060302CSED3       010CRUZEIRO EDUON      NM   R$  000000000038800000000003880000000000361000000000037300000000003800000000000378000000000038006051000000000004349000000000001622684500000000000000009999123100000010000000000000BRCSEDACNOR9104
012024060302CSMG3       010COPASA      ON      NM   R$  000000000201600000000020330000000002005000000000201500000000020190000000002014000000000202007522000000000001275000000000002570199800000000000000009999123100000010000000000000BRCSMGACNOR5173
012024060302CSNA3       010SID NACIONALON           R$  000000000130200000000013050000000001261000000000127200000000012690000000001268000000000126911961000000000011112000000000014134996100000000000000009999123100000010000000000000BRCSNAACNOR6261
012024060302ROMI3       010ROMI        ON      NM   R$  000000000103500000000010410000000001013000000000102300000000010140000000001013000000000101401536000000000000315300000000000322659600000000000000009999123100000010000000000000BRROMIACNOR8194
012024060302RPAD5       010ALFA HOLDINGPNA          R$  000000000085400000000008790000000000854000000000086200000000008790000000000861000000000088000002000000000000000300000000000000258700000000000000009999123100000010000000000000BRRPADACNPA4218
012024060302RRRP3       0103R PETROLEUMON      NM   R$  000000000282000000000028340000000002734000000000279200000000028190000000002819000000000282211746000000000004062500000000011344463800000000000000009999123100000010000000000000BRRRRPACNOR5103
012024060302TASA3       010TAURUS ARMASON      N2   R$  000000000116500000000011700000000001156000000000116100000000011630000000001158000000000116200119000000000000016800000000000019514600000000000000009999123100000010000000000000BRTASAACNOR7104
012024060302TASA4       010TAURUS ARMASPN      N2   R$  000000000109600000000011090000000001081000000000109200000000010870000000001087000000000108903199000000000000776200000000000848055100000000000000009999123100000010000000000000BRTASAACNPR4104
012024060302UNIP5       010UNIPAR      PNA          R$  000000000550400000000056980000000005504000000000559400000000056000000000005500000000000580000007000000000000000800000000000004475500000000000000009999123100000010000000000000BRUNIPACNPA0208
012024060302UNIP6       010UNIPAR      PNB          R$  000000000499800000000051000000000004861000000000492000000000048810000000004877000000000488102002000000000000386300000000001900723500000000000000009999123100000010000000000000BRUNIPACNPB8206
012024060302USIM3       010USIMINAS    ON      N1   R$  000000000070000000000007050000000000683000000000069600000000006970000000000696000000000069801128000000000000461500000000000321305700000000000000009999123100000010000000000000BRUSIMACNOR3167
012024060302USIM5       010USIMINAS    PNA     N1   R$  000000000075800000000007640000000000747000000000075600000000007580000000000757000000000075814828000000000009427700000000007131374300000000000000009999123100000010000000000000BRUSIMACNPA6169
012024060302WEST3       010WESTWING    ON      NM   R$  000000000010500000000001080000000000104000000000010500000000001060000000000105000000000010600029000000000000016400000000000001726000000000000000009999123100000010000000000000BRWESTACNOR3100
012024060302WHRL3       010WHIRLPOOL   ON           R$  000000000045500000000004550000000000455000000000045500000000004550000000000455000000000045700003000000000000000400000000000000182000000000000000009999123100000010000000000000BRWHRLACNOR5128
012024060302WHRL4       010WHIRLPOOL   PN           R$  000000000047200000000004730000000000465000000000046700000000004680000000000466000000000046700029000000000000005300000000000002478500000000000000009999123100000010000000000000BRWHRLACNPR2128
012024060302WIZC3       010WIZ CO      ON      NM   R$  000000000059300000000006140000000000593000000000060500000000006040000000000604000000000060702036000000000000471300000000000285562200000000000000009999123100000010000000000000BRWIZCACNOR5102
012024060302WLMM4       010WLM IND COM PN           R$  000000000311000000000031100000000003077000000000309300000000030770000000003001000000000314600002000000000000000200000000000000618700000000000000009999123100000010000000000000BRWLMMACNPR3118
012024060302B3SA3       010B3          ON      NM   R$  000000000107400000000010850000000001066000000000107500000000010690000000001069000000000107030043000000000038467100000000041367113900000000000000009999123100000010000000000000BRB3SAACNOR6132
012024060302BEES3       010BANESTES    ON           R$  000000000090100000000009020000000000872000000000088400000000008730000000000873000000000087600163000000000000037600000000000033266900000000000000009999123100000010000000000000BRBEESACNOR9390
012024060302BEES4       010BANESTES    PN           R$  000000000097500000000009760000000000960000000000096400000000009630000000000960000000000096300036000000000000012400000000000011963600000000000000009999123100000010000000000000BRBEESACNPR6315
012024060302ARZZ3       010AREZZO CO   ON      NM   R$  000000000494000000000050980000000004868000000000500900000000050840000000005078000000000508508661000000000001982400000000009931368700000000000000009999123100000010000000000000BRARZZACNOR3146
012024060302BBSE3       010BBSEGURIDADEON      NM   R$  000000000322200000000032300000000003190000000000320900000000032180000000003216000000000321815303000000000006974200000000022382270200000000000000009999123100000010000000000000BRBBSEACNOR5124
012024060302MTRE3       010MITRE REALTYON  ED  NM   R$  000000000037200000000003800000000000371000000000037500000000003730000000000373000000000037502833000000000000781300000000000293282600000000000000009999123100000010000000000000BRMTREACNOR6111
012024060302MTSA4       010METISA      PN           R$  000000000446800000000045560000000004410000000000452200000000045550000000004410000000000456000010000000000000001400000000000006331700000000000000009999123100000010000000000000BRMTSAACNPR9072
012024060302MULT3       010MULTIPLAN   ON      N2   R$  000000000226700000000023140000000002267000000000229000000000022890000000002288000000000229110745000000000002578100000000005905130600000000000000009999123100000010000000000000BRMULTACNOR5138
012024060302MWET4       010WETZEL S/A  PN           R$  000000000080000000000008000000000000800000000000080000000000008000000000000701000000000085100001000000000000000500000000000000400000000000000000009999123100000010000000000000BRMWETACNPR3118
012024060302MYPK3       010IOCHP-MAXIONON      NM   R$  000000000107200000000011330000000001072000000000112000000000011310000000001129000000000113106504000000000001330000000000001490003200000000000000009999123100000010000000000000BRMYPKACNOR7154
012024060302NEOE3       010NEOENERGIA  ON      NM   R$  000000000188800000000019320000000001872000000000191600000000019290000000001923000000000193003837000000000000812700000000001557780200000000000000009999123100000010000000000000BRNEOEACNOR3122
012024060302NGRD3       010NEOGRID     ON      NM   R$  000000000009500000000000970000000000093000000000009400000000000940000000000094000000000009500759000000000000696600000000000066042600000000000000009999123100000010000000000000BRNGRDACNOR3104
012024060302NINJ3       010GETNINJAS   ON      NM   R$  000000000046600000000004740000000000465000000000046700000000004650000000000463000000000046900288000000000000076300000000000035665200000000000000009999123100000010000000000000BRNINJACNOR5101
012024060302NTCO3       010GRUPO NATURAON      NM   R$  000000000148400000000015200000000001482000000000150000000000014990000000001499000000000150016692000000000011823200000000017741629700000000000000009999123100000010000000000000BRNTCOACNOR5106
012024060302CEAB3       010CEA MODAS   ON      NM   R$  000000000095900000000009760000000000930000000000095600000000009560000000000950000000000095610563000000000005677300000000005431460900000000000000009999123100000010000000000000BRCEABACNOR1102
012024060302CEBR3       010CEB         ON           R$  000000000231200000000023160000000002240000000000228600000000022600000000002260000000000227600034000000000000005200000000000011887500000000000000009999123100000010000000000000BRCEBRACNOR5125
012024060302CEBR5       010CEB         PNA          R$  000000000199700000000019970000000001930000000000194500000000019390000000001926000000000193900032000000000000005400000000000010504800000000000000009999123100000010000000000000BRCEBRACNPA8124
012024060302CEBR6       010CEB         PNB          R$  000000000202500000000020760000000001982000000000201000000000019820000000001982000000000200000054000000000000008700000000000017491900000000000000009999123100000010000000000000BRCEBRACNPB6124
012024060302CEDO3       010CEDRO       ON      N1   R$  000000000300000000000031990000000003000000000000311900000000031990000000002500000000000310000005000000000000000500000000000001559700000000000000009999123100000010000000000000BRCEDOACNOR8096
012024060302CEDO4       010CEDRO       PN      N1   R$  000000000260000000000027960000000002600000000000272000000000027940000000002635000000000279500007000000000000001400000000000003808800000000000000009999123100000010000000000000BRCEDOACNPR5128
012024060302CEEB3       010COELBA      ON           R$  000000000398900000000039980000000003989000000000399300000000039980000000003917000000000399800006000000000000000700000000000002795700000000000000009999123100000010000000000000BRCEEBACNOR3198
012024060302CEEB5       010COELBA      PNA          R$  000000000390000000000039000000000003900000000000390000000000039000000000003709000000000530000001000000000000000400000000000001560000000000000000009999123100000010000000000000BRCEEBACNPA6192
012024060302CEED3       010CEEE-D      ON           R$  000000000155000000000015500000000001521000000000153500000000015210000000001400000000000152100002000000000000000200000000000000307100000000000000009999123100000010000000000000BRCEEDACNOR9103
012024060302CGAS3       010COMGAS      ON           R$  000000001080000000000108000000000010800000000001080000000000108000000000010507000000001070000005000000000000000500000000000005400000000000000000009999123100000010000000000000BRCGASACNOR0163
012024060302CGRA3       010GRAZZIOTIN  ON           R$  000000000249400000000024950000000002494000000000248800000000024950000000002481000000000249500008000000000000002100000000000005226700000000000000009999123100000010000000000000BRCGRAACNOR2082
012024060302CGRA4       010GRAZZIOTIN  PN           R$  000000000256000000000025860000000002505000000000254600000000025440000000002530000000000254400015000000000000002200000000000005601800000000000000009999123100000010000000000000BRCGRAACNPR9082
012024060302CIEL3       010CIELO       ON      NM   R$  000000000055900000000005650000000000559000000000056200000000005630000000000563000000000056411286000000000021209800000000011928631400000000000000009999123100000010000000000000BRCIELACNOR3157
012024060302CLSA3       010CLEARSALE   ON      NM   R$  000000000075000000000007730000000000730000000000075300000000007500000000000748000000000075103567000000000001353100000000001019469100000000000000009999123100000010000000000000BRCLSAACNOR0100
012024060302CLSC3       010CELESC      ON      N2   R$  000000000670000000000067000000000006700000000000670000000000067000000000006650000000000699900004000000000000001400000000000009380000000000000000009999123100000010000000000000BRCLSCACNOR6151
012024060302CLSC4       010CELESC      PN      N2   R$  000000000730500000000073690000000007270000000000734400000000073690000000007282000000000736900069000000000000013100000000000096216400000000000000009999123100000010000000000000BRCLSCACNPR3130
012024060302CMIG3       010CEMIG       ON      N1   R$  000000000121600000000012350000000001208000000000122400000000012320000000001231000000000123300825000000000000204000000000000249826900000000000000009999123100000010000000000000BRCMIGACNOR6241
012024060302CMIG4       010CEMIG       PN      N1   R$  000000000099700000000010220000000000996000000000101200000000010170000000001017000000000101920776000000000010681100000000010817889100000000000000009999123100000010000000000000BRCMIGACNPR3242
012024060302EALT3       010ACO ALTONA  ON           R$  000000000119700000000011970000000001197000000000119700000000011970000000001102000000000119700001000000000000000100000000000000119700000000000000009999123100000010000000000000BREALTACNOR4138
012024060302EALT4       010ACO ALTONA  PN           R$  000000000119500000000012210000000001194000000000120100000000011960000000001196000000000120600023000000000000003600000000000004324800000000000000009999123100000010000000000000BREALTACNPR1138
012024060302ECOR3       010ECORODOVIAS ON      NM   R$  000000000069000000000007040000000000689000000000069200000000006930000000000691000000000069306121000000000003682500000000002551420800000000000000009999123100000010000000000000BRECORACNOR8120
012024060302FESA3       010FERBASA     ON      N1   R$  000000000141500000000014150000000001415000000000141500000000014150000000001415000000000146700002000000000000000300000000000000424500000000000000009999123100000010000000000000BRFESAACNOR8187
012024060302FESA4       010FERBASA     PN      N1   R$  000000000079900000000008000000000000791000000000079400000000007950000000000793000000000079503194000000000001152200000000000915718500000000000000009999123100000010000000000000BRFESAACNPR5083
012024060302FHER3       010FER HERINGERON      NM   R$  000000000044600000000004460000000000440000000000044100000000004400000000000440000000000044600006000000000000000600000000000000265100000000000000009999123100000010000000000000BRFHERACNOR5103
012024060302FIQE3       010UNIFIQUE    ON      NM   R$  000000000036400000000003750000000000356000000000037000000000003680000000000367000000000036802747000000000000494300000000000182997100000000000000009999123100000010000000000000BRFIQEACNOR5106
012024060302EGIE3       010ENGIE BRASILON      NM   R$  000000000433400000000044260000000004320000000000439000000000044010000000004400000000000440106580000000000001363900000000005988580000000000000000009999123100000010000000000000BREGIEACNOR9126
012024060302GRND3       010GRENDENE    ON  ED  NM   R$  000000000061400000000006330000000000611000000000062600000000006300000000000629000000000063003831000000000001354400000000000848394400000000000000009999123100000010000000000000BRGRNDACNOR3174
012024060302SANB11      010SANTANDER BRUNT          R$  000000000278200000000028090000000002751000000000277900000000027860000000002772000000000278708800000000000002766900000000007690422500000000000000009999123100000010000000000000BRSANBCDAM13164
012024060302SANB3       010SANTANDER BRON           R$  000000000131100000000013410000000001309000000000132500000000013220000000001312000000000132200764000000000000139900000000000185449500000000000000009999123100000010000000000000BRSANBACNOR8171
012024060302SANB4       010SANTANDER BRPN           R$  000000000146100000000014770000000001447000000000146000000000014660000000001460000000000146600694000000000000099600000000000145489800000000000000009999123100000010000000000000BRSANBACNPR5171
012024060302TPIS3       010TRIUNFO PARTON      NM   R$  000000000041700000000004300000000000412000000000042500000000004300000000000424000000000042700220000000000000048800000000000020742200000000000000009999123100000010000000000000BRTPISACNOR8118
012024060302GUAR3       010GUARARAPES  ON  ED  NM   R$  000000000075100000000007790000000000735000000000076100000000007550000000000755000000000075605670000000000001475400000000001124048900000000000000009999123100000010000000000000BRGUARACNOR4173
012024060307NUTR3       010NUTRIPLANT  ON      MA   R$  000000000052400000000005410000000000514000000000052700000000005300000000000517000000000053400031000000000000006900000000000003642600000000000000009999123100000010000000000000BRNUTRACNOR0104
012024060307BHIA3       010CASAS BAHIA ON      NM   R$  000000000070300000000007120000000000688000000000069900000000006980000000000697000000000069802972000000000001909400000000001336508500000000000000009999123100000010000000000000BRBHIAACNOR1101
012024060307TXRX4       010TEX RENAUX  PN           R$  000000000023900000000002420000000000230000000000023700000000002420000000000242000000000024800004000000000000001700000000000000403600000000000000009999123100000010000000000000BRTXRXACNPR0142
012024060308ATMP3       010ATMASA      ON           R$  000000000023800000000002380000000000224000000000023000000000002370000000000225000000000023800039000000000000011000000000000002538500000000000000009999123100000010000000000000BRATMPACNOR8100
012024060308BDLL4       010BARDELLA    PN           R$  000000000096100000000009610000000000961000000000096100000000009610000000000970000000000105000001000000000000000100000000000000096100000000000000009999123100000010000000000000BRBDLLACNPR8151
012024060308ETER3       010ETERNIT     ON      NM   R$  000000000061900000000006270000000000615000000000061800000000006150000000000615000000000061800403000000000000121000000000000074805100000000000000009999123100000010000000000000BRETERACNOR3243
012024060308LIGT3       010LIGHT S/A   ON      NM   R$  000000000049800000000005310000000000495000000000051600000000005250000000000525000000000052806485000000000002604500000000001345623500000000000000009999123100000010000000000000BRLIGTACNOR2124
012024060308OIBR3       010OI          ON      N1   R$  000000000006100000000000610000000000059000000000005900000000000600000000000059000000000006000714000000000002654400000000000158967400000000000000009999123100000010000000000000BROIBRACNOR1110
012024060308OIBR4       010OI          PN      N1   R$  000000000017400000000001740000000000171000000000017200000000001740000000000172000000000017400066000000000000024600000000000004242400000000000000009999123100000010000000000000BROIBRACNPR8109
012024060308OSXB3       010OSX BRASIL  ON      NM   R$  000000000039700000000004190000000000390000000000040300000000004080000000000408000000000041300050000000000000015000000000000006055700000000000000009999123100000010000000000000BROSXBACNOR8109
012024060308HOOT4       010HOTEIS OTHONPN           R$  000000000027600000000002760000000000274000000000027500000000002740000000000274000000000027800007000000000000008900000000000002451600000000000000009999123100000010000000000000BRHOOTACNPR9015
012024060308JFEN3       010JOAO FORTES ON           R$  000000000013300000000001380000000000133000000000013500000000001350000000000135000000000013600057000000000000023200000000000003138500000000000000009999123100000010000000000000BRJFENACNOR0059
012024060308SGPS3       010SPRINGS     ON      NM   R$  000000000004600000000000460000000000044000000000004500000000000440000000000044000000000004500348000000000000357800000000000016102400000000000000009999123100000010000000000000BRSGPSACNOR4104
012024060308AMER3       010AMERICANAS  ON  ES  NM   R$  000000000004600000000000470000000000041000000000004200000000000410000000000040000000000004103691000000000035223000000000001495933400000000000000009999123100000010000000000000BRAMERACNOR6102
012024060308CTNM3       010COTEMINAS   ON           R$  000000000074000000000008800000000000740000000000082700000000008800000000000654000000000088000013000000000000001300000000000001075900000000000000009999123100000010000000000000BRCTNMACNOR9130
012024060308CTNM4       010COTEMINAS   PN           R$  000000000008500000000000940000000000085000000000009100000000000910000000000091000000000009200108000000000000092000000000000008424600000000000000009999123100000010000000000000BRCTNMACNPR6129
012024060308CTSA3       010SANTANENSE  ON           R$  000000000023800000000002390000000000238000000000023800000000002390000000000238000000000024400005000000000000000900000000000000214300000000000000009999123100000010000000000000BRCTSAACNOR3062
012024060308CTSA4       010SANTANENSE  PN           R$  000000000010700000000001080000000000103000000000010600000000001080000000000106000000000010800050000000000000029200000000000003098100000000000000009999123100000010000000000000BRCTSAACNPR0062
012024060308PMAM3       010PARANAPANEMAON      NM   R$  000000000025400000000002550000000000250000000000025200000000002540000000000251000000000025400108000000000000031700000000000007999200000000000000009999123100000010000000000000BRPMAMACNOR3039
012024060308RSID3       010ROSSI RESID ON      NM   R$  000000000050400000000005540000000000502000000000051500000000005540000000000526000000000055400365000000000000050800000000000026187400000000000000009999123100000010000000000000BRRSIDACNOR8120
012024060308RNEW11      010RENOVA      UNT     N2   R$  000000000029600000000003030000000000293000000000029500000000003000000000000293000000000030000010000000000000002000000000000000590800000000000000009999123100000010000000000000BRRNEWCDAM15110
012024060308RNEW3       010RENOVA      ON      N2   R$  000000000010000000000001000000000000097000000000009800000000000990000000000098000000000009900030000000000000012500000000000001231600000000000000009999123100000010000000000000BRRNEWACNOR8110
012024060308RNEW4       010RENOVA      PN      N2   R$  000000000010200000000001020000000000098000000000009800000000000980000000000097000000000009800075000000000000083400000000000008243800000000000000009999123100000010000000000000BRRNEWACNPR5110
012024060308RPMG3       010PET MANGUINHON           R$  000000000029500000000003050000000000269000000000027900000000002700000000000269000000000027000214000000000000084800000000000023711500000000000000009999123100000010000000000000BRRPMGACNOR9194
012024060308NEXP3       010NEXPE       ON           R$  000000000041300000000004130000000000407000000000041100000000004070000000000407000000000041300011000000000000002800000000000001152900000000000000009999123100000010000000000000BRNEXPACNOR0101
012024060310ONCO1       010ONCOCLINICASDIR ORD NM   R$  000000000000300000000000100000000000002000000000000500000000000070000000000006000000000000701704000000000002315200000000000012543100000000000000009999123100000010000000000000BRONCOD01OR1100
012024060310BSLI2       010BRB BANCO   DIR PRE      R$  000000000006000000000000600000000000047000000000005200000000000550000000000047000000000005900004000000000000000400000000000000020900000000000000009999123100000010000000000000BRBSLID02PR5192
012024060310AMER95      010AMERICANAS  DIR     NM   R$  000000000000800000000000080000000000003000000000000500000000000040000000000004000000000000500842000000000001385044000000000007018039000000000000009999123100000010000000000000BRAMERD01M17100
012024060312CBOP11      010FII C BRANCOCI  ER       R$  000000000282000000000029330000000002807000000000281300000000028070000000002808000000000280900015000000000000001148000000000003230123000000000000009999123100000010000000000000BRCBOPCTF001230
012024060312CCME11      010FII CANUMA  CI           R$  000000000124300000000012750000000001237000000000125300000000012750000000001280000000000000000041000000000000004538000000000005687425000000000000009999123100000010000000000000BRCCMECTF007122
012024060312DAMA11      010FII DAMA    CI           R$  000000000102000000000010200000000001019000000000101900000000010200000000001019000000000102000020000000000000000126000000000000128497000000000000009999123100000010000000000000BRDAMACTF007100
012024060312DAMT11B     010FII DIAMANTECI      MB   R$  000000000109500000000010950000000001095000000000109500000000010950000000000964000000000109500001000000000000000001000000000000001095000000000000009999123100000010000000000000BRDAMTCTF007116
012024060312DEVA11      010FII DEVANT  CI           R$  000000000473800000000047790000000004710000000000473400000000047240000000004718000000000472401557000000000000026390000000000124954777000000000000009999123100000010000000000000BRDEVACTF000148
012024060312DPRO11      010FII DEVA PROCI           R$  000000000069100000000007090000000000691000000000069900000000007060000000000706000000000070900020000000000000000094000000000000065748000000000000009999123100000010000000000000BRDPROCTF005123
012024060312DVFF11      010FII DEVA FOFCI           R$  000000000076000000000007660000000000759000000000076300000000007640000000000764000000000076600045000000000000000764000000000000583095000000000000009999123100000010000000000000BRDVFFCTF006137
012024060312GGRC11      010FII GGRCOVEPCI           R$  000000000112900000000011290000000001121000000000112500000000011230000000001122000000000112302988000000000000143375000000000161400250000000000000009999123100000010000000000000BRGGRCCTF002193
012024060312GLOG11      010FII PLURAL LCI  ER       R$  000000000631000000000063140000000006290000000000631100000000063130000000006283000000000634900023000000000000000288000000000001817655000000000000009999123100000010000000000000BRGLOGCTF000113
012024060312BICR11      010FII INTER   CI  ER       R$  000000000488300000000048830000000004847000000000486900000000048470000000003342000000000519900004000000000000000005000000000000024349000000000000009999123100000010000000000000BRBICRCTF009152
012024060312EXES11      010FII EXES    CI           R$  000000000098000000000009800000000000934000000000095000000000009800000000000935000000000098000014000000000000011518000000000010950798000000000000009999123100000010000000000000BREXESCTF006124
012024060312IRDM11      010FII IRIDIUM CI           R$  000000000759600000000076000000000007560000000000757800000000075730000000007571000000000757304087000000000000054764000000000415051650000000000000009999123100000010000000000000BRIRDMCTF004185
012024060312IRIM11      010FII IRIM    CI           R$  000000000777100000000077710000000007637000000000767600000000076790000000007669000000000767900054000000000000000536000000000004114810000000000000009999123100000010000000000000BRIRIMCTF003134
012024060312ISCJ11      010FII ISCJ    CI  EA       R$  000000000741000000000074100000000005901000000000679800000000060010000000006004000000000000000005000000000000000012000000000000081585000000000000009999123100000010000000000000BRISCJCTF000107
012024060312ITIP11      010FII INTER IPCI  ER       R$  000000000807800000000083500000000008075000000000819900000000082200000000008212000000000822000235000000000000001923000000000015767112000000000000009999123100000010000000000000BRITIPCTF002129
012024060312ITIT11      010FII INTER ITCI  ER       R$  000000000805000000000081000000000008000000000000803500000000080780000000008051000000000807800177000000000000001234000000000009916285000000000000009999123100000010000000000000BRITITCTF004129
012024060312BIME11      010FII BRIO ME CI           R$  000000000073100000000007320000000000728000000000073000000000007300000000000729000000000073000238000000000000011389000000000008314822000000000000009999123100000010000000000000BRBIMECTF006131
012024060312BLCA11      010FII BLUE AAACI           R$  000000001050100000000107890000000010478000000001060000000000106000000000010508000000001060000029000000000000016037000000000169992731000000000000009999123100000010000000000000BRBLCACTF009130
012024060312BLMG11      010FII BLUE LOGCI           R$  000000000386000000000038750000000003820000000000385100000000038410000000003841000000000386002618000000000000010614000000000040879714000000000000009999123100000010000000000000BRBLMGCTF005146
012024060312BLMO11      010FII BLUEMAC CI  ER       R$  000000000862400000000087550000000008100000000000867600000000087510000000008751000000000875600017000000000000000093000000000000806881000000000000009999123100000010000000000000BRBLMOCTF009131
012024060312BRIM11      010FII BRIO II CI           R$  000000011022000000001102200000000110220000000011022000000001102200000000112000000000000000000001000000000000000002000000000000220440000000000000009999123100000010000000000000BRBRIMCTF008127
012024060312BRIP11      010FII BRIO IIICI           R$  000000009499900000000949990000000094999000000009499900000000949990000000082300000000009499900001000000000000000001000000000000094999000000000000009999123100000010000000000000BRBRIPCTF001112
012024060312BRLA11      010FII BRLPROIICI           R$  000000001660000000000166000000000016600000000001660000000000166000000000013900000000001660000001000000000000000001000000000000016600000000000000009999123100000010000000000000BRBRLACTF007146
012024060312XPIN11      010FII XP INDL CI           R$  000000000771500000000077150000000007681000000000769100000000076950000000007693000000000769502007000000000000009009000000000069292507000000000000009999123100000010000000000000BRXPINCTF004173
012024060312XPLG11      010FII XP LOG  CI  ER       R$  000000001041000000000104990000000010308000000001044500000000103090000000010309000000001032009637000000000000054312000000000567330300000000000000009999123100000010000000000000BRXPLGCTF002177
012024060312XPML11      010FII XP MALLSCI           R$  000000001139300000000114490000000011387000000001141600000000114000000000011395000000001140019718000000000000092478000000001055758541000000000000009999123100000010000000000000BRXPMLCTF000184
012024060312XPPR11      010FII XP PROP CI  ER       R$  000000000187100000000019110000000001871000000000188300000000018850000000001885000000000188601139000000000000008446000000000015909898000000000000009999123100000010000000000000BRXPPRCTF000155
012024060312XPSF11      010FII XP SELECCI  ER       R$  000000000080000000000008050000000000798000000000080000000000008000000000000799000000000080006189000000000000069168000000000055384992000000000000009999123100000010000000000000BRXPSFCTF009156
