00COTAHIST.2024BOVESPA 20240607                                                                                                                                                                                                                      
012024060702EALT4       010ACO ALTONA  PN           R$  000000000116200000000011850000000001159000000000116800000000011750000000001175000000000117900018000000000000006900000000000008062500000000000000009999123100000010000000000000BREALTACNPR1138
012024060702ECOR3       010ECORODOVIAS ON      NM   R$  000000000066100000000006790000000000657000000000066600000000006630000000000662000000000066308101000000000004682300000000003121173300000000000000009999123100000010000000000000BRECORACNOR8120
012024060702GGPS3       010GPS         ON      NM   R$  000000000181900000000018290000000001796000000000180700000000018030000000001798000000000180303008000000000000682700000000001234286900000000000000009999123100000010000000000000BRGGPSACNOR9103
012024060702GMAT3       010GRUPO MATEUSON      NM   R$  000000000078000000000007920000000000771000000000077900000000007770000000000775000000000077704934000000000006752800000000005263538500000000000000009999123100000010000000000000BRGMATACNOR7101
012024060702GOAU3       010GERDAU MET  ON      N1   R$  000000000104300000000010430000000001016000000000102400000000010260000000001017000000000102600255000000000000042200000000000043221300000000000000009999123100000010000000000000BRGOAUACNOR1267
012024060702GOAU4       010GERDAU MET  PN      N1   R$  000000000101300000000010170000000000994000000000100200000000010000000000000999000000000099910928000000000006397600000000006412352900000000000000009999123100000010000000000000BRGOAUACNPR8268
012024060702MILS3       010MILLS       ON      NM   R$  000000000114800000000011480000000001105000000000112200000000011060000000001106000000000111002755000000000001199400000000001346329000000000000000009999123100000010000000000000BRMILSACNOR2126
012024060702MLAS3       010MULTILASER  ON      NM   R$  000000000020900000000002110000000000201000000000020400000000002060000000000203000000000020601783000000000002436500000000000497568600000000000000009999123100000010000000000000BRMLASACNOR9101
012024060702MNPR3       010MINUPAR     ON           R$  000000000110000000000011400000000001100000000000110200000000011000000000001065000000000110000005000000000000001800000000000001984000000000000000009999123100000010000000000000BRMNPRACNOR5122
012024060702MOVI3       010MOVIDA      ON      NM   R$  000000000064500000000006510000000000631000000000063800000000006390000000000636000000000063904408000000000004570800000000002916817600000000000000009999123100000010000000000000BRMOVIACNOR0122
012024060702MRFG3       010MARFRIG     ON      NM   R$  000000000109400000000011300000000001088000000000111400000000011120000000001125000000000110316969000000000005225400000000005825920900000000000000009999123100000010000000000000BRMRFGACNOR0116
012024060702BIOM3       010BIOMM       ON      MA   R$  000000000163900000000016860000000001535000000000157000000000015350000000001530000000000156200765000000000000223400000000000350739600000000000000009999123100000010000000000000BRBIOMACNOR2112
012024060702BLAU3       010BLAU        ON      NM   R$  000000000103300000000010450000000001021000000000103000000000010230000000001022000000000102600990000000000000188800000000000194549200000000000000009999123100000010000000000000BRBLAUACNOR8113
012024060702BMEB3       010MERCANTIL   ON      N1   R$  000000000252000000000025200000000002520000000000252000000000025200000000002402000000000252000002000000000000000200000000000000504000000000000000009999123100000010000000000000BRBMEBACNOR8205
012024060702BMEB4       010MERCANTIL   PN      N1   R$  000000000270300000000028040000000002667000000000271900000000027600000000002759000000000278000075000000000000024800000000000067433700000000000000009999123100000010000000000000BRBMEBACNPR5210
012024060702BMGB4       010BANCO BMG   PN      N1   R$  000000000033500000000003360000000000325000000000033000000000003260000000000326000000000032701022000000000000529500000000000174753300000000000000009999123100000010000000000000BRBMGBACNPR0109
012024060702BRSR3       010BANRISUL    ON      N1   R$  000000000115200000000011720000000001152000000000116400000000011600000000001160000000000116400032000000000000006600000000000007684300000000000000009999123100000010000000000000BRBRSRACNOR3187
012024060702BRSR6       010BANRISUL    PNB     N1   R$  000000000110800000000011150000000001096000000000110400000000010980000000001097000000000110003303000000000001312900000000001450512000000000000000009999123100000010000000000000BRBRSRACNPB4190
012024060702ANIM3       010ANIMA       ON      NM   R$  000000000034600000000003570000000000344000000000034900000000003450000000000345000000000034603823000000000002941400000000001028022600000000000000009999123100000010000000000000BRANIMACNOR6107
012024060702APER3       010ALPER S.A.  ON           R$  000000000450000000000045000000000004500000000000450000000000045000000000004283000000000458000001000000000000000100000000000000450000000000000000009999123100000010000000000000BRAPERACNOR9106
012024060702ARML3       010ARMAC       ON      NM   R$  000000000106700000000010670000000001033000000000104400000000010410000000001040000000000104402893000000000000526200000000000549640500000000000000009999123100000010000000000000BRARMLACNOR1111
012024060702ARZZ3       010AREZZO CO   ON      NM   R$  000000000511400000000051180000000005011000000000506400000000050490000000005046000000000504106143000000000001563200000000007916825500000000000000009999123100000010000000000000BRARZZACNOR3146
012024060702BBSE3       010BBSEGURIDADEON      NM   R$  000000000328500000000032980000000003261000000000327800000000032690000000003269000000000326812718000000000003958500000000012979346100000000000000009999123100000010000000000000BRBBSEACNOR5124
012024060702BPAC11      010BTGP BANCO  UNT     N2   R$  000000000328500000000033140000000003246000000000328800000000032680000000003265000000000326919827000000000009204500000000030264896600000000000000009999123100000010000000000000BRBPACUNT006118
012024060702BPAC3       010BTGP BANCO  ON      N2   R$  000000000162500000000016400000000001609000000000162200000000016280000000001600000000000167000012000000000000001300000000000002108900000000000000009999123100000010000000000000BRBPACACNOR7133
012024060702BPAC5       010BTGP BANCO  PNA     N2   R$  000000000082200000000008730000000000808000000000083700000000008380000000000816000000000087000018000000000000002600000000000002176500000000000000009999123100000010000000000000BRBPACACNPA0133
012024060702RCSL3       010RECRUSUL    ON  EG       R$  000000000042900000000004450000000000418000000000042600000000004270000000000427000000000042801351000000000000462900000000000197593900000000000000009999123100000010000000000000BRRCSLACNOR4134
012024060702RCSL4       010RECRUSUL    PN  EG       R$  000000000011600000000001180000000000115000000000011600000000001160000000000116000000000011700460000000000000419400000000000048780700000000000000009999123100000010000000000000BRRCSLACNPR1134
012024060702RDNI3       010RNI         ON      NM   R$  000000000032100000000003350000000000321000000000032500000000003350000000000322000000000033500019000000000000006500000000000002117300000000000000009999123100000010000000000000BRRDNIACNOR9116
012024060702RDOR3       010REDE D OR   ON      NM   R$  000000000269800000000027370000000002677000000000270900000000026910000000002731000000000269118166000000000005666000000000015352636500000000000000009999123100000010000000000000BRRDORACNOR8112
012024060702QUAL3       010QUALICORP   ON      NM   R$  000000000016900000000001750000000000166000000000016900000000001670000000000166000000000016702073000000000003588300000000000609331900000000000000009999123100000010000000000000BRQUALACNOR6120
012024060702RADL3       010RAIADROGASILON      NM   R$  000000000247600000000025730000000002476000000000253700000000025320000000002534000000000250018147000000000006115900000000015517182100000000000000009999123100000010000000000000BRRADLACNOR0156
012024060702RAIL3       010RUMO S.A.   ON      NM   R$  000000000202000000000020420000000001978000000000201200000000019800000000001982000000000198232156000000000016215700000000032635018300000000000000009999123100000010000000000000BRRAILACNOR9105
012024060702SNSY3       010SANSUY      ON           R$  000000000098900000000009990000000000960000000000099000000000009990000000000965000000000100700009000000000000001900000000000001881900000000000000009999123100000010000000000000BRSNSYACNOR2113
012024060702SOJA3       010BOA SAFRA   ON      NM   R$  000000000156000000000015620000000001500000000000152000000000015000000000001500000000000151002919000000000000636400000000000967937000000000000000009999123100000010000000000000BRSOJAACNOR9105
012024060702SOMA3       010GRUPO SOMA  ON      NM   R$  000000000060000000000006080000000000592000000000060100000000006000000000000597000000000060110684000000000010817700000000006510022200000000000000009999123100000010000000000000BRSOMAACNOR3102
012024060702SRNA3       010SERENA      ON      NM   R$  000000000089400000000009080000000000870000000000088000000000008700000000000870000000000087805973000000000001526300000000001343181800000000000000009999123100000010000000000000BRSRNAACNOR4100
012024060702STBP3       010SANTOS BRP  ON  EDJ NM   R$  000000000122400000000012240000000001194000000000120200000000011950000000001195000000000120320821000000000005520300000000006637540900000000000000009999123100000010000000000000BRSTBPACNOR3130
012024060702SUZB3       010SUZANO S.A. ON  ATZ NM   R$  000000000486900000000050120000000004812000000000487800000000048650000000004865000000000487229611000000000010516100000000051307798900000000000000009999123100000010000000000000BRSUZBACNOR0130
012024060702PRNR3       010PRINER      ON      NM   R$  000000000112000000000011210000000001099000000000110500000000011010000000001100000000000110200989000000000000276900000000000306227700000000000000009999123100000010000000000000BRPRNRACNOR4109
012024060702PSSA3       010PORTO SEGUROON      NM   R$  000000000301100000000030120000000002970000000000299000000000029920000000002978000000000299204411000000000000935600000000002798211100000000000000009999123100000010000000000000BRPSSAACNOR7154
012024060702PTBL3       010PORTOBELLO  ON      NM   R$  000000000042000000000004250000000000412000000000041800000000004120000000000412000000000041701174000000000000443300000000000185419300000000000000009999123100000010000000000000BRPTBLACNOR8132
012024060702PTNT3       010PETTENATI   ON           R$  000000000097100000000010000000000000959000000000098000000000010000000000000952000000000100000014000000000000001800000000000001765700000000000000009999123100000010000000000000BRPTNTACNOR6042
012024060702PTNT4       010PETTENATI   PN           R$  000000000065000000000006550000000000636000000000064500000000006490000000000620000000000064900011000000000000003600000000000002324100000000000000009999123100000010000000000000BRPTNTACNPR3047
012024060702SMFT3       010SMART FIT   ON      NM   R$  000000000227900000000022860000000002248000000000226900000000022600000000002260000000000226108915000000000002625100000000005958587700000000000000009999123100000010000000000000BRSMFTACNOR1111
012024060702SMTO3       010SAO MARTINHOON      NM   R$  000000000271100000000028250000000002711000000000278200000000028250000000002791000000000282506605000000000001681900000000004679350000000000000000009999123100000010000000000000BRSMTOACNOR3125
012024060702CURY3       010CURY S/A    ON      NM   R$  000000000195000000000019970000000001928000000000196700000000019300000000001930000000000194507678000000000001517900000000002985868400000000000000009999123100000010000000000000BRCURYACNOR3109
012024060702CVCB3       010CVC BRASIL  ON      NM   R$  000000000018800000000001930000000000187000000000018900000000001900000000000190000000000019109103000000000015130800000000002867093300000000000000009999123100000010000000000000BRCVCBACNOR1115
012024060702FESA3       010FERBASA     ON  EJ  N1   R$  000000000144900000000014500000000001449000000000144900000000014490000000001449000000000159800004000000000000000600000000000000869700000000000000009999123100000010000000000000BRFESAACNOR8188
012024060702FESA4       010FERBASA     PN  EJ  N1   R$  000000000078000000000007860000000000771000000000077500000000007780000000000775000000000077402109000000000000694900000000000538929100000000000000009999123100000010000000000000BRFESAACNPR5084
012024060702FHER3       010FER HERINGERON      NM   R$  000000000038500000000003850000000000377000000000037900000000003770000000000377000000000038400016000000000000003300000000000001253200000000000000009999123100000010000000000000BRFHERACNOR5103
012024060702SCAR3       010SAO CARLOS  ON      NM   R$  000000000235700000000023640000000002308000000000233600000000023390000000002305000000000234000019000000000000002300000000000005374400000000000000009999123100000010000000000000BRSCARACNOR7131
012024060702SEER3       010SER EDUCA   ON      NM   R$  000000000048100000000004850000000000470000000000047700000000004770000000000477000000000047902568000000000000888000000000000423831400000000000000009999123100000010000000000000BRSEERACNOR5119
012024060702SEQL3       010SEQUOIA LOG ON  EG  NM   R$  000000000061500000000007550000000000615000000000070600000000006900000000000690000000000069601374000000000000654400000000000462490000000000000000009999123100000010000000000000BRSEQLACNOR2103
012024060702SHOW3       010TIME FOR FUNON      NM   R$  000000000017200000000001740000000000169000000000017100000000001700000000000170000000000017100234000000000000069000000000000011834200000000000000009999123100000010000000000000BRSHOWACNOR7105
012024060702SHUL4       010SCHULZ      PN           R$  000000000060000000000006020000000000590000000000059400000000005940000000000594000000000059500681000000000000439100000000000261214700000000000000009999123100000010000000000000BRSHULACNPR4155
012024060702SIMH3       010SIMPAR      ON      NM   R$  000000000060000000000006040000000000580000000000059000000000005800000000000580000000000058106467000000000004654100000000002746007100000000000000009999123100000010000000000000BRSIMHACNOR0107
012024060702SLCE3       010SLC AGRICOLAON      NM   R$  000000000175000000000017560000000001700000000000172300000000017250000000001725000000000171009026000000000002760500000000004757224100000000000000009999123100000010000000000000BRSLCEACNOR2125
012024060702VALE3       010VALE        ON      NM   R$  000000000606900000000060870000000006027000000000605000000000060410000000006041000000000604341938000000000014813500000000089632562700000000000000009999123100000010000000000000BRVALEACNOR0210
012024060702PETZ3       010PETZ        ON      NM   R$  000000000036000000000003680000000000354000000000035900000000003550000000000354000000000035707758000000000006144900000000002206984000000000000000009999123100000010000000000000BRPETZACNOR2110
012024060702PFRM3       010PROFARMA    ON      NM   R$  000000000055300000000005580000000000540000000000054800000000005400000000000540000000000054900630000000000000157800000000000086501700000000000000009999123100000010000000000000BRPFRMACNOR1116
012024060702PGMN3       010PAGUE MENOS ON      NM   R$  000000000023300000000002380000000000231000000000023500000000002360000000000235000000000023601994000000000000491600000000000115631900000000000000009999123100000010000000000000BRPGMNACNOR8103
012024060702PINE3       010PINE        ON      N2   R$  000000000055600000000005560000000000541000000000054600000000005410000000000536000000000054100005000000000000000800000000000000437300000000000000009999123100000010000000000000BRPINEACNOR1149
012024060702PINE4       010PINE        PN      N2   R$  000000000042000000000004250000000000417000000000042000000000004180000000000418000000000042000257000000000000125500000000000052743400000000000000009999123100000010000000000000BRPINEACNPR8149
012024060702PLAS3       010PLASCAR PARTON           R$  000000000056500000000005800000000000560000000000057000000000005800000000000560000000000059800005000000000000000500000000000000285200000000000000009999123100000010000000000000BRPLASACNOR2106
012024060702PLPL3       010PLANOEPLANO ON      NM   R$  000000000101000000000010290000000000974000000000099800000000009740000000000974000000000097602873000000000000562300000000000561633600000000000000009999123100000010000000000000BRPLPLACNOR5104
012024060702PNVL3       010DIMED       ON      NM   R$  000000000105400000000010540000000001012000000000102400000000010120000000001011000000000101601180000000000000225900000000000231449900000000000000009999123100000010000000000000BRPNVLACNOR9206
012024060702KRSA3       010KORA SAUDE  ON      NM   R$  000000000006200000000000630000000000056000000000005800000000000560000000000055000000000005600284000000000001420800000000000083067200000000000000009999123100000010000000000000BRKRSAACNOR0100
012024060702AZEV3       010AZEVEDO     ON           R$  000000000012200000000001280000000000118000000000012400000000001230000000000123000000000012500421000000000000438400000000000054393600000000000000009999123100000010000000000000BRAZEVACNOR0121
012024060702AZEV4       010AZEVEDO     PN           R$  000000000011400000000001210000000000113000000000011800000000001190000000000118000000000011901436000000000008164900000000000966592200000000000000009999123100000010000000000000BRAZEVACNPR7121
012024060702AZUL4       010AZUL        PN      N2   R$  000000000094000000000009480000000000908000000000092700000000009230000000000921000000000092312869000000000011053600000000010249424100000000000000009999123100000010000000000000BRAZULACNPR4102
012024060702MAPT3       010CEMEPE      ON           R$  000000000042100000000004210000000000421000000000042100000000004210000000000400000000000049000001000000000000000100000000000000042100000000000000009999123100000010000000000000BRMAPTACNOR8106
012024060702MATD3       010MATER DEI   ON      NM   R$  000000000052000000000005230000000000500000000000050800000000005000000000000499000000000050000866000000000000311200000000000158370400000000000000009999123100000010000000000000BRMATDACNOR4104
012024060702NEOE3       010NEOENERGIA  ON      NM   R$  000000000192200000000019220000000001866000000000187800000000018660000000001866000000000187604745000000000001112000000000002089036200000000000000009999123100000010000000000000BRNEOEACNOR3122
012024060702NGRD3       010NEOGRID     ON      NM   R$  000000000008900000000000910000000000084000000000008600000000000840000000000084000000000008600777000000000001097200000000000094940700000000000000009999123100000010000000000000BRNGRDACNOR3104
012024060702NINJ3       010GETNINJAS   ON      NM   R$  000000000044100000000004450000000000426000000000043200000000004450000000000430000000000047500477000000000000094700000000000041002200000000000000009999123100000010000000000000BRNINJACNOR5101
012024060702JHSF3       010JHSF PART   ON  ED  NM   R$  000000000039000000000003950000000000387000000000039000000000003870000000000387000000000038903925000000000005119300000000002000960200000000000000009999123100000010000000000000BRJHSFACNOR2136
012024060702JSLG3       010JSL         ON      NM   R$  000000000100000000000010050000000000970000000000099100000000009720000000000972000000000097801637000000000000475800000000000471834000000000000000009999123100000010000000000000BRJSLGACNOR2121
012024060702KEPL3       010KEPLER WEBERON      NM   R$  000000000098500000000009990000000000978000000000098700000000009860000000000985000000000098602172000000000000777700000000000768162900000000000000009999123100000010000000000000BRKEPLACNOR1062
012024060702KLBN11      010KLABIN S/A  UNT     N2   R$  000000000199400000000020070000000001981000000000199500000000020000000000002000000000000200113074000000000005599600000000011171316900000000000000009999123100000010000000000000BRKLBNCDAM18142
012024060702KLBN3       010KLABIN S/A  ON      N2   R$  000000000040100000000004050000000000396000000000040000000000004010000000000401000000000040401281000000000000734200000000000294175700000000000000009999123100000010000000000000BRKLBNACNOR2170
012024060702KLBN4       010KLABIN S/A  PN      N2   R$  000000000040400000000004090000000000396000000000039800000000003980000000000398000000000039904312000000000006176300000000002459818600000000000000009999123100000010000000000000BRKLBNACNPR9170
012024060702NTCO3       010GRUPO NATURAON      NM   R$  000000000151100000000015320000000001502000000000151100000000015100000000001509000000000151615708000000000006486800000000009806096800000000000000009999123100000010000000000000BRNTCOACNOR5106
012024060702RSUL4       010RIOSULENSE  PN           R$  000000000684900000000068490000000006715000000000676400000000068140000000006715000000000681500009000000000000000900000000000006088400000000000000009999123100000010000000000000BRRSULACNPR3114
012024060702ABCB4       010ABC BRASIL  PN      N2   R$  000000000212900000000021340000000002094000000000211000000000021040000000002102000000000211002749000000000000538200000000001135987500000000000000009999123100000010000000000000BRABCBACNPR4145
012024060702ABEV3       010AMBEV S/A   ON           R$  000000000117100000000011760000000001153000000000115900000000011560000000001155000000000115430772000000000032079400000000037208128600000000000000009999123100000010000000000000BRABEVACNOR1127
012024060702BBDC3       010BRADESCO    ON  EJ  N1   R$  000000000115500000000011610000000001144000000000115000000000011480000000001148000000000114910511000000000024548700000000028239862000000000000000009999123100000010000000000000BRBBDCACNOR1770
012024060702BBDC4       010BRADESCO    PN  EJ  N1   R$  000000000129900000000013110000000001292000000000129800000000012950000000001305000000000129507132000000000131900800000000171250807200000000000000009999123100000010000000000000BRBBDCACNPR8770
012024060702COCE5       010COELCE      PNA          R$  000000000332900000000034010000000003329000000000337500000000034000000000003332000000000340000033000000000000004500000000000015189200000000000000009999123100000010000000000000BRCOCEACNPA3147
012024060702COGN3       010COGNA ON    ON      NM   R$  000000000018800000000001890000000000180000000000018400000000001800000000000180000000000018117062000000000033928400000000006248757700000000000000009999123100000010000000000000BRCOGNACNOR2104
012024060702BRBI11      010BR PARTNERS UNT     N2   R$  000000000139400000000013990000000001357000000000137200000000013830000000001375000000000138501399000000000000252300000000000346317700000000000000009999123100000010000000000000BRBRBICDAM10109
012024060702BRFS3       010BRF SA      ON      NM   R$  000000000181800000000018700000000001810000000000184400000000018330000000001831000000000183516814000000000007653700000000014115922500000000000000009999123100000010000000000000BRBRFSACNOR8122
012024060702BRIT3       010BRISANET    ON      NM   R$  000000000041000000000004140000000000405000000000040800000000004060000000000406000000000040700758000000000000403900000000000165152100000000000000009999123100000010000000000000BRBRITACNOR0103
012024060702BRKM3       010BRASKEM     ON      N1   R$  000000000182100000000018210000000001770000000000178600000000017860000000001770000000000178600126000000000000017300000000000030901300000000000000009999123100000010000000000000BRBRKMACNOR1119
012024060702BRKM5       010BRASKEM     PNA     N1   R$  000000000177900000000017820000000001740000000000176000000000017630000000001766000000000176409962000000000002150700000000003785506600000000000000009999123100000010000000000000BRBRKMACNPA4121
012024060702CSRN3       010COSERN      ON           R$  000000000233000000000024090000000002304000000000237700000000024000000000002303000000000240900006000000000000001000000000000002377300000000000000009999123100000010000000000000BRCSRNACNOR0192
012024060702CSUD3       010CSU DIGITAL ON      NM   R$  000000000183100000000018440000000001816000000000182600000000018160000000001816000000000182700225000000000000049200000000000089854200000000000000009999123100000010000000000000BRCSUDACNOR5109
012024060702CTKA4       010KARSTEN     PN           R$  000000000172500000000017250000000001725000000000172500000000017250000000001605000000000174000001000000000000000100000000000000172500000000000000009999123100000010000000000000BRCTKAACNPR7043
012024060702BEEF3       010MINERVA     ON      NM   R$  000000000060500000000006230000000000601000000000061100000000006100000000000614000000000061109229000000000007072900000000004325183600000000000000009999123100000010000000000000BRBEEFACNOR6116
012024060702BPAN4       010BANCO PAN   PN      N1   R$  000000000090100000000009170000000000889000000000090100000000009010000000000892000000000090104175000000000001092900000000000985231100000000000000009999123100000010000000000000BRBPANACNPR1115
012024060702GEPA4       010GER PARANAP PN           R$  000000000250000000000025000000000002500000000000250000000000025000000000002425000000000254700001000000000000000300000000000000750000000000000000009999123100000010000000000000BRGEPAACNPR9160
012024060702GFSA3       010GAFISA      ON      NM   R$  000000000039300000000003990000000000373000000000038200000000003730000000000373000000000037402931000000000002762000000000001056958900000000000000009999123100000010000000000000BRGFSAACNOR3124
012024060702BRAP3       010BRADESPAR   ON      N1   R$  000000000179600000000017960000000001760000000000176700000000017600000000001760000000000176800508000000000000085200000000000150587300000000000000009999123100000010000000000000BRBRAPACNOR5148
012024060702BRAP4       010BRADESPAR   PN      N1   R$  000000000184500000000018460000000001822000000000183000000000018280000000001827000000000182907952000000000002795900000000005118005700000000000000009999123100000010000000000000BRBRAPACNPR2148
012024060702CSED3       010CRUZEIRO EDUON      NM   R$  000000000040100000000004120000000000396000000000040500000000004100000000000405000000000041001387000000000001305400000000000529280700000000000000009999123100000010000000000000BRCSEDACNOR9104
012024060702CSMG3       010COPASA      ON      NM   R$  000000000198200000000020020000000001960000000000197700000000019720000000001970000000000197205563000000000001327400000000002624398000000000000000009999123100000010000000000000BRCSMGACNOR5173
012024060702CSNA3       010SID NACIONALON           R$  000000000125400000000012600000000001236000000000124600000000012440000000001242000000000124411777000000000004722900000000005888314800000000000000009999123100000010000000000000BRCSNAACNOR6261
012024060702EQPA3       010EQTL PARA   ON           R$  000000000069700000000006970000000000693000000000069600000000006940000000000681000000000069500023000000000000009400000000000006548200000000000000009999123100000010000000000000BREQPAACNOR1111
012024060702EQTL3       010EQUATORIAL  ON      NM   R$  000000000295300000000030120000000002940000000000296800000000029480000000002992000000000294820222000000000009941700000000029511601600000000000000009999123100000010000000000000BREQTLACNOR0130
012024060702ESPA3       010ESPACOLASER ON      NM   R$  000000000011400000000001160000000000112000000000011400000000001120000000000112000000000011402260000000000000509700000000000058244100000000000000009999123100000010000000000000BRESPAACNOR7103
012024060702EUCA4       010EUCATEX     PN      N1   R$  000000000141700000000014720000000001416000000000144800000000014560000000001456000000000146500527000000000000069200000000000100236300000000000000009999123100000010000000000000BREUCAACNPR8044
012024060702EVEN3       010EVEN        ON      NM   R$  000000000065200000000006520000000000633000000000064200000000006380000000000635000000000063801464000000000000554000000000000355687600000000000000009999123100000010000000000000BREVENACNOR8119
012024060702EZTC3       010EZTEC       ON      NM   R$  000000000132700000000013740000000001325000000000135000000000013480000000001344000000000134905980000000000002185300000000002951975400000000000000009999123100000010000000000000BREZTCACNOR0125
012024060702IFCM3       010INFRACOMM   ON      NM   R$  000000000003800000000000400000000000036000000000003700000000000370000000000037000000000003803431000000000020008300000000000756139200000000000000009999123100000010000000000000BRIFCMACNOR8101
012024060702AALR3       010ALLIAR      ON      NM   R$  000000000105300000000010560000000001021000000000103100000000010560000000001023000000000105700165000000000000028400000000000029301400000000000000009999123100000010000000000000BRAALRACNOR6102
012024060702B3SA3       010B3          ON      NM   R$  000000000109000000000010990000000001073000000000108500000000010750000000001075000000000107630690000000000029202500000000031704838900000000000000009999123100000010000000000000BRB3SAACNOR6132
012024060702BEES3       010BANESTES    ON  EJ       R$  000000000087100000000008950000000000870000000000088400000000008790000000000879000000000088600056000000000000012100000000000010707600000000000000009999123100000010000000000000BRBEESACNOR9391
012024060702BEES4       010BANESTES    PN  EJ       R$  000000000094600000000009500000000000942000000000094600000000009490000000000942000000000094900017000000000000002900000000000002744700000000000000009999123100000010000000000000BRBEESACNPR6316
012024060702UNIP3       010UNIPAR      ON           R$  000000000485200000000048640000000004800000000000482000000000048640000000004820000000000500000036000000000000006600000000000031812800000000000000009999123100000010000000000000BRUNIPACNOR7206
012024060702UNIP5       010UNIPAR      PNA          R$  000000000591600000000059160000000005916000000000591600000000059160000000005525000000000600000001000000000000000100000000000000591600000000000000009999123100000010000000000000BRUNIPACNPA0208
012024060702UNIP6       010UNIPAR      PNB          R$  000000000481100000000048220000000004757000000000478500000000047680000000004768000000000477000763000000000000120700000000000577645600000000000000009999123100000010000000000000BRUNIPACNPB8206
012024060702USIM3       010USIMINAS    ON      N1   R$  000000000067400000000006760000000000660000000000066800000000006630000000000663000000000066500866000000000000244200000000000163335400000000000000009999123100000010000000000000BRUSIMACNOR3167
012024060702WEST3       010WESTWING    ON      NM   R$  000000000010100000000001020000000000099000000000010000000000001000000000000099000000000010000034000000000000020400000000000002053200000000000000009999123100000010000000000000BRWESTACNOR3100
012024060702LAND3       010TERRASANTAPAON      NM   R$  000000000159900000000016000000000001580000000000159500000000016000000000001591000000000160000153000000000000035400000000000056486500000000000000009999123100000010000000000000BRLANDACNOR9103
012024060702LAVV3       010LAVVI       ON      NM   R$  000000000085300000000008580000000000841000000000084800000000008410000000000840000000000084701043000000000000232600000000000197434800000000000000009999123100000010000000000000BRLAVVACNOR4112
012024060702LEVE3       010METAL LEVE  ON      NM   R$  000000000312600000000031360000000003100000000000311500000000031090000000003106000000000311001831000000000000319900000000000996529600000000000000009999123100000010000000000000BRLEVEACNOR2197
012024060702LJQQ3       010QUERO-QUERO ON      NM   R$  000000000042100000000004320000000000413000000000041800000000004130000000000415000000000041405853000000000003033700000000001269122300000000000000009999123100000010000000000000BRLJQQACNOR5104
012024060702ODPV3       010ODONTOPREV  ON      NM   R$  000000000115000000000011600000000001143000000000115100000000011430000000001143000000000114503625000000000001035700000000001192359400000000000000009999123100000010000000000000BRODPVACNOR4201
012024060702OFSA3       010OUROFINO S/AON      NM   R$  000000000200800000000020250000000001975000000000197900000000019750000000001975000000000201400008000000000000004600000000000009104400000000000000009999123100000010000000000000BROFSAACNOR7118
012024060702ONCO3       010ONCOCLINICASON  ES  NM   R$  000000000071100000000007160000000000696000000000070400000000007030000000000703000000000070405138000000000002628600000000001851243100000000000000009999123100000010000000000000BRONCOACNOR6101
012024060702OPCT3       010OCEANPACT   ON      NM   R$  000000000061600000000006500000000000611000000000063300000000006500000000000635000000000065001140000000000000469500000000000297478300000000000000009999123100000010000000000000BROPCTACNOR0100
012024060702ORVR3       010ORIZON      ON      NM   R$  000000000399500000000040440000000003930000000000398000000000039360000000003936000000000396401826000000000000357200000000001421933800000000000000009999123100000010000000000000BRORVRACNOR0101
012024060702PCAR3       010P.ACUCAR-CBDON      NM   R$  000000000029500000000002990000000000287000000000029200000000002880000000000288000000000029007580000000000005542700000000001622265500000000000000009999123100000010000000000000BRPCARACNOR3167
012024060702PDGR3       010PDG REALT   ON      NM   R$  000000000002000000000000200000000000019000000000001900000000000190000000000019000000000002000434000000000001453100000000000028863300000000000000009999123100000010000000000000BRPDGRACNOR8118
012024060702PDTC3       010PADTEC      ON      NM   R$  000000000018800000000001880000000000184000000000018500000000001850000000000184000000000018500068000000000000025800000000000004780400000000000000009999123100000010000000000000BRPDTCACNOR3101
012024060702PETR3       010PETROBRAS   ON      N2   R$  000000000399000000000039960000000003857000000000389600000000038590000000003927000000000386024199000000000018476900000000071994398200000000000000009999123100000010000000000000BRPETRACNOR9204
012024060702PETR4       010PETROBRAS   PN      N2   R$  000000000382200000000038470000000003686000000000375700000000036940000000003828000000000369563512000000000045945000000000172628884700000000000000009999123100000010000000000000BRPETRACNPR6212
012024060702TRPL4       010TRAN PAULISTPN      N1   R$  000000000249100000000025230000000002491000000000250700000000025010000000002501000000000250215424000000000005286700000000013257238600000000000000009999123100000010000000000000BRTRPLACNPR1185
012024060702ENEV3       010ENEVA       ON  ATZ NM   R$  000000000126200000000012800000000001255000000000126600000000012700000000001262000000000127116075000000000005541500000000007020633000000000000000009999123100000010000000000000BRENEVACNOR8106
012024060702ENGI11      010ENERGISA    UNT     N2   R$  000000000462600000000046950000000004601000000000464400000000046150000000004610000000000462211457000000000001726300000000008018294000000000000000009999123100000010000000000000BRENGICDAM16135
012024060702ENGI3       010ENERGISA    ON      N2   R$  000000000145100000000014780000000001432000000000146000000000014770000000001404000000000147800031000000000000004100000000000005986400000000000000009999123100000010000000000000BRENGIACNOR0145
012024060702ENGI4       010ENERGISA    PN      N2   R$  000000000080200000000008240000000000791000000000079600000000007930000000000792000000000079300048000000000000011700000000000009321300000000000000009999123100000010000000000000BRENGIACNPR7141
012024060702ENJU3       010ENJOEI      ON      NM   R$  000000000023500000000002400000000000214000000000022400000000002180000000000218000000000021901396000000000001446600000000000324625400000000000000009999123100000010000000000000BRENJUACNOR9100
012024060702ENMT4       010ENERGISA MT PN           R$  000000000590000000000059000000000005570000000000553700000000055700000000005566000000000619900011000000000000002200000000000012182000000000000000009999123100000010000000000000BRENMTACNPR2125
012024060702EPAR3       010EMBPAR S/A  ON           R$  000000000069300000000007000000000000690000000000069900000000007000000000000699000000000070000265000000000000101100000000000070730800000000000000009999123100000010000000000000BREPARACNOR9105
012024060702LOGG3       010LOG COM PROPON      NM   R$  000000000220700000000022160000000002186000000000219900000000021940000000002194000000000220000986000000000000152300000000000334970700000000000000009999123100000010000000000000BRLOGGACNOR7107
012024060702LOGN3       010LOG-IN      ON      NM   R$  000000000367300000000037220000000003536000000000363100000000035800000000003580000000000359100183000000000000024800000000000090071500000000000000009999123100000010000000000000BRLOGNACNOR3105
012024060702LPSB3       010LOPES BRASILON      NM   R$  000000000019700000000002010000000000194000000000019700000000001940000000000194000000000019800242000000000000088800000000000017494200000000000000009999123100000010000000000000BRLPSBACNOR0114
012024060702LREN3       010LOJAS RENNERON      NM   R$  000000000131100000000013410000000001306000000000132600000000013170000000001317000000000131917960000000000011881200000000015760518700000000000000009999123100000010000000000000BRLRENACNOR1220
012024060702TTEN3       0103TENTOS     ON      NM   R$  000000000097000000000009820000000000962000000000097200000000009650000000000965000000000096603155000000000000597700000000000581369800000000000000009999123100000010000000000000BRTTENACNOR0103
012024060702TUPY3       010TUPY        ON  ED  NM   R$  000000000227700000000022800000000002243000000000225800000000022620000000002250000000000226202686000000000000551300000000001245039400000000000000009999123100000010000000000000BRTUPYACNOR1184
012024060702UCAS3       010UNICASA     ON      NM   R$  000000000022600000000002260000000000215000000000021900000000002170000000000216000000000021800390000000000000124600000000000027405400000000000000009999123100000010000000000000BRUCASACNOR1113
012024060702UGPA3       010ULTRAPAR    ON      NM   R$  000000000227000000000022800000000002216000000000224300000000022160000000002216000000000222115316000000000005600200000000012565870200000000000000009999123100000010000000000000BRUGPAACNOR8155
012024060702HYPE3       010HYPERA      ON      NM   R$  000000000283200000000028930000000002832000000000287200000000028710000000002866000000000287808101000000000001844700000000005298658200000000000000009999123100000010000000000000BRHYPEACNOR0141
012024060702EMAE4       010EMAE        PN           R$  000000000483800000000048380000000004701000000000473200000000047010000000004700000000000475000012000000000000001200000000000005679400000000000000009999123100000010000000000000BREMAEACNPR1125
012024060702EMBR3       010EMBRAER     ON      NM   R$  000000000365500000000038830000000003632000000000381300000000038400000000003838000000000366827781000000000007116300000000027138316100000000000000009999123100000010000000000000BREMBRACNOR4191
012024060702HBOR3       010HELBOR      ON      NM   R$  000000000022900000000002300000000000222000000000022500000000002220000000000221000000000022200431000000000000306300000000000069015100000000000000009999123100000010000000000000BRHBORACNOR3118
012024060702HBRE3       010HBR REALTY  ON      NM   R$  000000000044900000000004520000000000440000000000044500000000004400000000000440000000000044300801000000000000390900000000000174046800000000000000009999123100000010000000000000BRHBREACNOR4100
012024060702HBSA3       010HIDROVIAS   ON      NM   R$  000000000039600000000003980000000000365000000000037100000000003690000000000368000000000036908999000000000009923800000000003681871000000000000000009999123100000010000000000000BRHBSAACNOR0100
012024060702WHRL3       010WHIRLPOOL   ON           R$  000000000045500000000004550000000000455000000000045500000000004550000000000455000000000046400006000000000000001500000000000000682500000000000000009999123100000010000000000000BRWHRLACNOR5128
012024060702WHRL4       010WHIRLPOOL   PN           R$  000000000047000000000004710000000000468000000000047000000000004710000000000467000000000047200005000000000000000500000000000000235100000000000000009999123100000010000000000000BRWHRLACNPR2128
012024060702WIZC3       010WIZ CO      ON      NM   R$  000000000061200000000006150000000000596000000000060300000000005960000000000596000000000059901076000000000000234700000000000141641700000000000000009999123100000010000000000000BRWIZCACNOR5102
012024060702ROMI3       010ROMI        ON      NM   R$  000000000103800000000010380000000001011000000000101800000000010110000000001011000000000102100953000000000000162700000000000165729900000000000000009999123100000010000000000000BRROMIACNOR8194
012024060702RRRP3       0103R PETROLEUMON      NM   R$  000000000264200000000026500000000002597000000000262200000000026260000000002620000000000260508499000000000002895500000000007593564700000000000000009999123100000010000000000000BRRRRPACNOR5103
012024060702TASA3       010TAURUS ARMASON      N2   R$  000000000114000000000011430000000001130000000000113300000000011310000000001130000000000114700078000000000000011500000000000013034900000000000000009999123100000010000000000000BRTASAACNOR7104
012024060702TASA4       010TAURUS ARMASPN      N2   R$  000000000107800000000010970000000001068000000000108200000000010880000000001084000000000108801655000000000000387100000000000418959300000000000000009999123100000010000000000000BRTASAACNPR4104
012024060702TCSA3       010TECNISA     ON      NM   R$  000000000021600000000002160000000000209000000000021100000000002100000000000210000000000021200103000000000000021500000000000004543300000000000000009999123100000010000000000000BRTCSAACNOR3112
012024060702TECN3       010TECHNOS     ON      NM   R$  000000000040800000000004120000000000395000000000040200000000003950000000000395000000000040000419000000000000260900000000000104894300000000000000009999123100000010000000000000BRTECNACNOR6109
012024060702TELB4       010TELEBRAS    PN           R$  000000000089600000000009000000000000892000000000089400000000008920000000000888000000000089900004000000000000000500000000000000447200000000000000009999123100000010000000000000BRTELBACNPR9140
012024060702TEND3       010TENDA       ON      NM   R$  000000000114500000000011680000000001109000000000113500000000011310000000001131000000000113404575000000000001463900000000001661619800000000000000009999123100000010000000000000BRTENDACNOR4111
012024060702FRAS3       010FRAS-LE     ON      N1   R$  000000000175300000000017530000000001713000000000172500000000017210000000001721000000000172200768000000000000192100000000000331380100000000000000009999123100000010000000000000BRFRASACNOR0159
012024060702FRIO3       010METALFRIO   ON      NM   R$  000000003000300000000304990000000030000000000003028600000000304990000000029511000000003050000007000000000000000700000000000021200200000000000000009999123100000010000000000000BRFRIOACNOR2111
012024060702FIQE3       010UNIFIQUE    ON      NM   R$  000000000036400000000003650000000000358000000000036100000000003620000000000358000000000036200310000000000000120600000000000043642100000000000000009999123100000010000000000000BRFIQEACNOR5106
012024060702FLRY3       010FLEURY      ON      NM   R$  000000000141800000000014530000000001418000000000144400000000014420000000001441000000000143707242000000000002214700000000003198383000000000000000009999123100000010000000000000BRFLRYACNOR5138
012024060702ITSA3       010ITAUSA      ON  EJ  N1   R$  000000000099200000000009920000000000967000000000097700000000009740000000000968000000000097400437000000000000155600000000000152133500000000000000009999123100000010000000000000BRITSAACNOR0440
012024060702ITSA4       010ITAUSA      PN  EJ  N1   R$  000000000098600000000009900000000000965000000000097600000000009700000000000975000000000097026632000000000030133500000000029419231800000000000000009999123100000010000000000000BRITSAACNPR7440
012024060702ASAI3       010ASSAI       ON      NM   R$  000000000121100000000012210000000001187000000000120300000000012000000000001196000000000119914955000000000007620600000000009174917500000000000000009999123100000010000000000000BRASAIACNOR0106
012024060702ATOM3       010ATOMPAR     ON           R$  000000000019900000000002020000000000199000000000019900000000001990000000000199000000000020100021000000000000008800000000000001754200000000000000009999123100000010000000000000BRATOMACNOR1106
012024060702AURE3       010AUREN       ON      NM   R$  000000000124300000000012450000000001202000000000121700000000012100000000001208000000000121011968000000000006378800000000007767925200000000000000009999123100000010000000000000BRAUREACNOR9104
012024060702AVLL3       010ALPHAVILLE  ON      NM   R$  000000000034400000000003440000000000344000000000034000000000003440000000000339000000000034400002000000000000000300000000000000102200000000000000009999123100000010000000000000BRAVLLACNOR5103
012024060702IGTI11      010IGUATEMI S.AUNT     N1   R$  000000000205000000000020850000000002018000000000205100000000020390000000002072000000000203915070000000000004972300000000010198985000000000000000009999123100000010000000000000BRIGTICDAM16106
012024060702IGTI3       010IGUATEMI S.AON      N1   R$  000000000029500000000002950000000000287000000000028900000000002870000000000287000000000029000054000000000000019100000000000005525700000000000000009999123100000010000000000000BRIGTIACNOR8106
012024060702IGTI4       010IGUATEMI S.APN      N1   R$  000000000088400000000008840000000000884000000000088400000000008840000000000807000000000105000003000000000000000600000000000000530400000000000000009999123100000010000000000000BRIGTIACNPR5106
012024060702INEP3       010INEPAR      ON           R$  000000000017800000000001800000000000168000000000017600000000001800000000000176000000000018000115000000000000044400000000000007820900000000000000009999123100000010000000000000BRINEPACNOR1143
012024060702INEP4       010INEPAR      PN           R$  000000000016400000000001700000000000160000000000016500000000001650000000000165000000000016600090000000000000038100000000000006289900000000000000009999123100000010000000000000BRINEPACNPR8143
012024060702INTB3       010INTELBRAS   ON      NM   R$  000000000232400000000023520000000002306000000000233200000000023490000000002330000000000234902740000000000000647100000000001509165000000000000000009999123100000010000000000000BRINTBACNOR9111
012024060702IRBR3       010IRBBRASIL REON      NM   R$  000000000318000000000032060000000003144000000000317000000000031640000000003164000000000317403982000000000000760600000000002411187300000000000000009999123100000010000000000000BRIRBRACNOR4111
012024060702LVTC3       010WDC NETWORKSON      NM   R$  000000000038500000000003850000000000376000000000037700000000003760000000000376000000000037800029000000000000006400000000000002419000000000000000009999123100000010000000000000BRLVTCACNOR4102
012024060702LWSA3       010LWSA        ON      NM   R$  000000000045000000000004500000000000422000000000043200000000004220000000000421000000000042211979000000000017758400000000007675950300000000000000009999123100000010000000000000BRLWSAACNOR8103
012024060702MBLY3       010MOBLY       ON      NM   R$  000000000021900000000002250000000000213000000000022000000000002160000000000215000000000021700641000000000000550100000000000121209000000000000000009999123100000010000000000000BRMBLYACNOR5100
012024060702MDIA3       010M.DIASBRANCOON      NM   R$  000000000317000000000032260000000003163000000000319900000000031860000000003184000000000319503199000000000000522100000000001670559600000000000000009999123100000010000000000000BRMDIAACNOR7134
012024060702MDNE3       010MOURA DUBEUXON      NM   R$  000000000111400000000011230000000001084000000000110300000000011000000000001100000000000110401130000000000000241700000000000266683300000000000000009999123100000010000000000000BRMDNEACNOR9100
012024060702MEAL3       010IMC S/A     ON      NM   R$  000000000013000000000001310000000000127000000000012800000000001280000000000128000000000012900647000000000000378800000000000048538500000000000000009999123100000010000000000000BRMEALACNOR9105
012024060702MELK3       010MELNICK     ON      NM   R$  000000000037900000000003790000000000372000000000037500000000003730000000000373000000000037701199000000000000385500000000000144603500000000000000009999123100000010000000000000BRMELKACNOR8111
012024060702MGEL4       010MANGELS INDLPN           R$  000000000134900000000013490000000001349000000000134900000000013490000000001301000000000134900002000000000000000200000000000000269800000000000000009999123100000010000000000000BRMGELACNPR3147
012024060702MGLU3       010MAGAZ LUIZA ON      NM   R$  000000000123300000000012600000000001174000000000121400000000011740000000001174000000000117524941000000000020304100000000024665458600000000000000009999123100000010000000000000BRMGLUACNOR2124
012024060702ALPA3       010ALPARGATAS  ON      N1   R$  000000000096600000000009680000000000952000000000095300000000009520000000000952000000000096300013000000000000005000000000000004765200000000000000009999123100000010000000000000BRALPAACNOR0231
012024060702ALPA4       010ALPARGATAS  PN      N1   R$  000000000094500000000009700000000000943000000000095600000000009530000000000948000000000095406374000000000002519700000000002410699900000000000000009999123100000010000000000000BRALPAACNPR7232
012024060702ALPK3       010ESTAPAR     ON      NM   R$  000000000031400000000003270000000000314000000000031600000000003150000000000315000000000031800695000000000000203400000000000064423800000000000000009999123100000010000000000000BRALPKACNOR9101
012024060702ALUP11      010ALUPAR      UNT     N2   R$  000000000302800000000030480000000002975000000000300700000000029850000000002983000000000298903952000000000000861700000000002591655700000000000000009999123100000010000000000000BRALUPCDAM15119
012024060702ALUP3       010ALUPAR      ON      N2   R$  000000000102200000000010360000000000990000000000102500000000009900000000000986000000000101800088000000000000012300000000000012610300000000000000009999123100000010000000000000BRALUPACNOR8119
012024060702ALUP4       010ALUPAR      PN      N2   R$  000000000099900000000010000000000000978000000000099400000000009870000000000987000000000099300110000000000000015900000000000015807700000000000000009999123100000010000000000000BRALUPACNPR5119
012024060702AMAR3       010LOJAS MARISAON      NM   R$  000000000017800000000001800000000000172000000000017500000000001720000000000172000000000017300686000000000000186700000000000032763700000000000000009999123100000010000000000000BRAMARACNOR4114
012024060702AMBP3       010AMBIPAR     ON      NM   R$  000000000093000000000009410000000000880000000000090600000000009080000000000908000000000090905285000000000002079600000000001885589600000000000000009999123100000010000000000000BRAMBPACNOR6103
012024060702MYPK3       010IOCHP-MAXIONON      NM   R$  000000000109100000000010910000000001056000000000107000000000010750000000001070000000000106003685000000000001031900000000001104233200000000000000009999123100000010000000000000BRMYPKACNOR7154
012024060702BAHI3       010BAHEMA      ON      MA   R$  000000000069700000000006970000000000619000000000063300000000006190000000000610000000000065900013000000000000003000000000000001900700000000000000009999123100000010000000000000BRBAHIACNOR1074
012024060702BALM4       010BAUMER      PN           R$  000000000099500000000009950000000000973000000000098800000000009730000000000973000000000099500003000000000000000400000000000000395200000000000000009999123100000010000000000000BRBALMACNPR2056
012024060702BAUH4       010EXCELSIOR   PN           R$  000000000788500000000078870000000007885000000000788500000000078870000000000000000000000788800004000000000000001200000000000009462400000000000000009999123100000010000000000000BRBAUHACNPR3118
012024060702BAZA3       010AMAZONIA    ON           R$  000000000946600000000095690000000009285000000000939100000000092850000000009200000000000928500038000000000000006700000000000062923500000000000000009999123100000010000000000000BRBAZAACNOR0179
012024060702BBAS3       010BRASIL      ON      NM   R$  000000000275000000000027680000000002708000000000273300000000027180000000002718000000000271942609000000000013647100000000037307930500000000000000009999123100000010000000000000BRBBASACNOR3322
012024060702BMKS3       010BIC MONARK  ON           R$  000000003345000000000334500000000033447000000003344700000000334470000000033360000000003344700003000000000000000013000000000000434814000000000000009999123100000010000000000000BRBMKSACNOR9166
012024060702BMOB3       010BEMOBI TECH ON      NM   R$  000000000128400000000013180000000001284000000000130300000000013000000000001296000000000130401835000000000000336300000000000438485000000000000000009999123100000010000000000000BRBMOBACNOR7103
012024060702BNBR3       010NORD BRASIL ON           R$  000000001169000000000116900000000011690000000001169000000000116900000000011500000000001190000001000000000000000100000000000001169000000000000000009999123100000010000000000000BRBNBRACNOR8208
012024060702BOBR4       010BOMBRIL     PN           R$  000000000020900000000002120000000000206000000000020900000000002100000000000206000000000021100030000000000000011400000000000002384100000000000000009999123100000010000000000000BRBOBRACNPR3128
012024060702SANB11      010SANTANDER BRUNT          R$  000000000272400000000027470000000002699000000000272300000000027280000000002717000000000272519773000000000005905000000000016080797300000000000000009999123100000010000000000000BRSANBCDAM13164
012024060702SANB3       010SANTANDER BRON           R$  000000000127300000000012970000000001273000000000128700000000012880000000001283000000000128800353000000000000054100000000000069636400000000000000009999123100000010000000000000BRSANBACNOR8171
012024060702SANB4       010SANTANDER BRPN           R$  000000000145200000000014520000000001425000000000143600000000014400000000001434000000000144000418000000000000079900000000000114778100000000000000009999123100000010000000000000BRSANBACNPR5171
012024060702CIEL3       010CIELO       ON      NM   R$  000000000056400000000005650000000000562000000000056300000000005640000000000564000000000056508364000000000022695100000000012790384900000000000000009999123100000010000000000000BRCIELACNOR3157
012024060702CLSA3       010CLEARSALE   ON      NM   R$  000000000075400000000009100000000000748000000000084100000000009070000000000904000000000090708652000000000004871100000000004097690700000000000000009999123100000010000000000000BRCLSAACNOR0100
012024060702CLSC3       010CELESC      ON      N2   R$  000000000674900000000067490000000006660000000000670400000000066600000000006659000000000674900002000000000000000200000000000001340900000000000000009999123100000010000000000000BRCLSCACNOR6151
012024060702CLSC4       010CELESC      PN      N2   R$  000000000723600000000072990000000007161000000000720900000000072030000000007190000000000720400013000000000000001300000000000009372700000000000000009999123100000010000000000000BRCLSCACNPR3130
012024060702CMIG3       010CEMIG       ON      N1   R$  000000000125400000000012550000000001234000000000124000000000012410000000001240000000000124300751000000000000220200000000000273127400000000000000009999123100000010000000000000BRCMIGACNOR6241
012024060702CMIG4       010CEMIG       PN      N1   R$  000000000103700000000010430000000001018000000000102800000000010180000000001017000000000102017732000000000015528000000000015969844600000000000000009999123100000010000000000000BRCMIGACNPR3242
012024060702CMIN3       010CSNMINERACAOON      N2   R$  000000000048500000000004920000000000481000000000048600000000004870000000000486000000000048815105000000000012527600000000006089107400000000000000009999123100000010000000000000BRCMINACNOR2111
012024060702EGIE3       010ENGIE BRASILON      NM   R$  000000000435500000000043860000000004314000000000434800000000043480000000004347000000000434806423000000000001112500000000004837913400000000000000009999123100000010000000000000BREGIEACNOR9126
012024060702EKTR4       010ELEKTRO     PN           R$  000000000394000000000039400000000003940000000000394000000000039400000000003826000000000394000002000000000000000200000000000000788000000000000000009999123100000010000000000000BREKTRACNPR7162
012024060702CAMB3       010CAMBUCI     ON           R$  000000000108100000000010810000000001045000000000106500000000010550000000001055000000000106000115000000000000035800000000000038127000000000000000009999123100000010000000000000BRCAMBACNOR4129
012024060702CAML3       010CAMIL       ON  EDJ NM   R$  000000000097900000000009850000000000965000000000097400000000009700000000000969000000000097101767000000000000443200000000000431812100000000000000009999123100000010000000000000BRCAMLACNOR3128
012024060702CASH3       010MELIUZ      ON      NM   R$  000000000053400000000005390000000000531000000000053600000000005380000000000537000000000054001138000000000000401800000000000215417500000000000000009999123100000010000000000000BRCASHACNOR8106
012024060702CBAV3       010CBA         ON      NM   R$  000000000070700000000007230000000000697000000000071100000000007160000000000710000000000070704604000000000002440000000000001736649600000000000000009999123100000010000000000000BRCBAVACNOR5104
012024060702ELET3       010ELETROBRAS  ON      N1   R$  000000000360000000000036360000000003556000000000360000000000035730000000003568000000000357624197000000000007555600000000027205858000000000000000009999123100000010000000000000BRELETACNOR6160
012024060702ELET6       010ELETROBRAS  PNB     N1   R$  000000000401900000000040530000000003966000000000401500000000039890000000003988000000000399308200000000000001837800000000007380324200000000000000009999123100000010000000000000BRELETACNPB7077
012024060702CCRO3       010CCR SA      ON      NM   R$  000000000119000000000012180000000001186000000000120300000000011910000000001197000000000119819115000000000011625000000000013991969300000000000000009999123100000010000000000000BRCCROACNOR2145
012024060702CEAB3       010CEA MODAS   ON      NM   R$  000000000096200000000009980000000000961000000000097700000000009660000000000965000000000096706393000000000002125600000000002077497000000000000000009999123100000010000000000000BRCEABACNOR1102
012024060702CEBR3       010CEB         ON           R$  000000000221000000000022980000000002197000000000221400000000022980000000002196000000000230800015000000000000002200000000000004871000000000000000009999123100000010000000000000BRCEBRACNOR5125
012024060702CEBR5       010CEB         PNA          R$  000000000187500000000018750000000001852000000000186600000000018700000000001846000000000187000009000000000000000900000000000001679400000000000000009999123100000010000000000000BRCEBRACNPA8124
012024060702CEBR6       010CEB         PNB          R$  000000000212800000000021280000000001960000000000200200000000020490000000001972000000000205000028000000000000004900000000000009813300000000000000009999123100000010000000000000BRCEBRACNPB6124
012024060702CEDO4       010CEDRO       PN      N1   R$  000000000261000000000026100000000002610000000000261000000000026100000000002100000000000261000001000000000000000100000000000000261000000000000000009999123100000010000000000000BRCEDOACNPR5128
012024060702CEEB3       010COELBA      ON           R$  000000000390200000000039020000000003902000000000390200000000039020000000003902000000000398800001000000000000000100000000000000390200000000000000009999123100000010000000000000BRCEEBACNOR3198
012024060702CGAS3       010COMGAS      ON           R$  000000001119900000000111990000000011198000000001119800000000111980000000010800000000001119800002000000000000000200000000000002239700000000000000009999123100000010000000000000BRCGASACNOR0163
012024060702CGAS5       010COMGAS      PNA          R$  000000001190000000000119000000000011899000000001189900000000119000000000011900000000001200000005000000000000000800000000000009519700000000000000009999123100000010000000000000BRCGASACNPA3160
012024060702CGRA3       010GRAZZIOTIN  ON           R$  000000000249200000000024920000000002465000000000247500000000024790000000002470000000000248000012000000000000001700000000000004208800000000000000009999123100000010000000000000BRCGRAACNOR2082
012024060702CGRA4       010GRAZZIOTIN  PN           R$  000000000258000000000025800000000002520000000000253200000000025200000000002520000000000257900009000000000000002100000000000005318600000000000000009999123100000010000000000000BRCGRAACNPR9082
012024060702GRND3       010GRENDENE    ON      NM   R$  000000000062100000000006310000000000620000000000062500000000006270000000000622000000000062702598000000000000816900000000000511242300000000000000009999123100000010000000000000BRGRNDACNOR3174
012024060702GUAR3       010GUARARAPES  ON      NM   R$  000000000073500000000007500000000000711000000000073100000000007140000000000712000000000071804175000000000001219300000000000892209200000000000000009999123100000010000000000000BRGUARACNOR4173
012024060702HAGA3       010HAGA S/A    ON           R$  000000000025000000000002550000000000246000000000025000000000002490000000000249000000000025300019000000000000004000000000000001002400000000000000009999123100000010000000000000BRHAGAACNOR7103
012024060702DASA3       010DASA        ON      NM   R$  000000000040500000000004180000000000385000000000040200000000003900000000000390000000000039102017000000000001362100000000000547710600000000000000009999123100000010000000000000BRDASAACNOR1122
012024060702DESK3       010DESKTOP     ON      NM   R$  000000000155100000000015660000000001537000000000155700000000015650000000001550000000000156500508000000000000122700000000000191135800000000000000009999123100000010000000000000BRDESKACNOR2104
012024060702DEXP3       010DEXXOS PAR  ON      N1   R$  000000000104800000000010590000000001037000000000104800000000010410000000001041000000000105300214000000000000032900000000000034510300000000000000009999123100000010000000000000BRDEXPACNOR1105
012024060702DEXP4       010DEXXOS PAR  PN      N1   R$  000000000103900000000010400000000001030000000000103700000000010320000000001032000000000103800007000000000000001600000000000001660400000000000000009999123100000010000000000000BRDEXPACNPR8105
012024060702DIRR3       010DIRECIONAL  ON      NM   R$  000000000260000000000026740000000002600000000000263000000000026240000000002621000000000262213083000000000002871200000000007553995500000000000000009999123100000010000000000000BRDIRRACNOR0117
012024060702HAGA4       010HAGA S/A    PN           R$  000000000012200000000001220000000000119000000000011900000000001200000000000120000000000012100021000000000000005700000000000000682800000000000000009999123100000010000000000000BRHAGAACNPR4103
012024060702HAPV3       010HAPVIDA     ON      NM   R$  000000000039500000000003980000000000386000000000039200000000003890000000000389000000000039025073000000000072594800000000028490610600000000000000009999123100000010000000000000BRHAPVACNOR4114
012024060702JALL3       010JALLESMACHADON      NM   R$  000000000065800000000006630000000000650000000000065400000000006530000000000652000000000065501118000000000000376500000000000246409600000000000000009999123100000010000000000000BRJALLACNOR0105
012024060702JBSS3       010JBS         ON      NM   R$  000000000289000000000029370000000002885000000000291200000000029240000000002920000000000291524357000000000007724500000000022498606500000000000000009999123100000010000000000000BRJBSSACNOR8121
012024060702MRVE3       010MRV         ON      NM   R$  000000000071500000000007260000000000685000000000070500000000006870000000000686000000000068815854000000000016431900000000011584846900000000000000009999123100000010000000000000BRMRVEACNOR2127
012024060702MTRE3       010MITRE REALTYON      NM   R$  000000000035800000000003650000000000351000000000035700000000003570000000000354000000000035801766000000000000987900000000000353236000000000000000009999123100000010000000000000BRMTREACNOR6111
012024060702MTSA4       010METISA      PN           R$  000000000437000000000044400000000004370000000000442100000000044300000000004351000000000444000014000000000000001800000000000007958900000000000000009999123100000010000000000000BRMTSAACNPR9072
012024060702MULT3       010MULTIPLAN   ON      N2   R$  000000000231100000000023180000000002265000000000229200000000022880000000002303000000000227411719000000000002275000000000005215993700000000000000009999123100000010000000000000BRMULTACNOR5138
012024060702DMVF3       010D1000VFARMA ON      NM   R$  000000000069900000000007090000000000690000000000069800000000006900000000000689000000000069000412000000000000083000000000000057936000000000000000009999123100000010000000000000BRDMVFACNOR9100
012024060702DOHL3       010DOHLER      ON           R$  000000000128000000000012800000000001280000000000128000000000012800000000000501000000000128000003000000000000000600000000000000768000000000000000009999123100000010000000000000BRDOHLACNOR2063
012024060702DOHL4       010DOHLER      PN           R$  000000000042100000000004210000000000408000000000041200000000004080000000000411000000000041600007000000000000001800000000000000742300000000000000009999123100000010000000000000BRDOHLACNPR9066
012024060702DOTZ3       010DOTZ SA     ON      NM   R$  000000000079300000000008180000000000793000000000080800000000008000000000000800000000000080200032000000000000007000000000000005662800000000000000009999123100000010000000000000BRDOTZACNOR7101
012024060702DXCO3       010DEXCO       ON      NM   R$  000000000070300000000007120000000000693000000000070100000000007010000000000699000000000070108879000000000003071800000000002154792000000000000000009999123100000010000000000000BRDXCOACNOR8105
012024060702CRFB3       010CARREFOUR BRON      NM   R$  000000000096800000000009910000000000962000000000097600000000009730000000000972000000000097512947000000000005057800000000004941116900000000000000009999123100000010000000000000BRCRFBACNOR2116
012024060702CRPG5       010CRISTAL     PNA          R$  000000000299000000000030400000000002978000000000299300000000029800000000002965000000000300000026000000000000003200000000000009579200000000000000009999123100000010000000000000BRCRPGACNPA3119
012024060702CRPG6       010CRISTAL     PNB          R$  000000000309900000000030990000000003099000000000309900000000030990000000002951000000000309900002000000000000000200000000000000619800000000000000009999123100000010000000000000BRCRPGACNPB1119
012024060702CSAN3       010COSAN       ON  ED  NM   R$  000000000128700000000012970000000001266000000000127900000000012720000000001270000000000127216927000000000009765000000000012494597200000000000000009999123100000010000000000000BRCSANACNOR6126
012024060702ENAT3       010ENAUTA PART ON      NM   R$  000000000211400000000021140000000002057000000000207200000000020660000000002063000000000206603209000000000001028800000000002132085900000000000000009999123100000010000000000000BRENATACNOR0104
012024060702TFCO4       010TRACK FIELD PN      N2   R$  000000000116300000000011780000000001150000000000116200000000011630000000001151000000000116300239000000000000105600000000000122796900000000000000009999123100000010000000000000BRTFCOACNPR8113
012024060702TGMA3       010TEGMA       ON      NM   R$  000000000237400000000023820000000002328000000000235000000000023410000000002327000000000234300955000000000000172400000000000405267300000000000000009999123100000010000000000000BRTGMAACNOR7144
012024060702TIMS3       010TIM         ON      NM   R$  000000000161900000000016280000000001606000000000161400000000016070000000001606000000000161013879000000000005347400000000008633487200000000000000009999123100000010000000000000BRTIMSACNOR5116
012024060702TOTS3       010TOTVS       ON      NM   R$  000000000284800000000029120000000002832000000000287400000000028500000000002849000000000286013489000000000004416700000000012697448700000000000000009999123100000010000000000000BRTOTSACNOR8144
012024060702TPIS3       010TRIUNFO PARTON      NM   R$  000000000042000000000004210000000000418000000000041900000000004200000000000420000000000042300037000000000000007400000000000003107300000000000000009999123100000010000000000000BRTPISACNOR8118
012024060702TRAD3       010TC          ON      NM   R$  000000000006100000000000620000000000060000000000006000000000000610000000000060000000000006200696000000000000432000000000000026234600000000000000009999123100000010000000000000BRTRADACNOR3101
012024060702TRIS3       010TRISUL      ON      NM   R$  000000000048600000000004930000000000470000000000047600000000004710000000000471000000000047201325000000000000507100000000000241788100000000000000009999123100000010000000000000BRTRISACNOR4118
012024060702TRPL3       010TRAN PAULISTON      N1   R$  000000000333800000000033400000000003330000000000333600000000033400000000003312000000000333000008000000000000000800000000000002669000000000000000009999123100000010000000000000BRTRPLACNOR4185
012024060702VITT3       010VITTIA      ON      NM   R$  000000000052500000000005310000000000521000000000052800000000005300000000000529000000000053101294000000000000275600000000000145568100000000000000009999123100000010000000000000BRVITTACNOR4107
012024060702VIVA3       010VIVARA S.A. ON      NM   R$  000000000215500000000022130000000002140000000000216900000000021730000000002164000000000217212104000000000003537400000000007674654500000000000000009999123100000010000000000000BRVIVAACNOR0107
012024060702VIVR3       010VIVER       ON      NM   R$  000000000025600000000002590000000000249000000000025200000000002490000000000249000000000025100134000000000000043700000000000011018600000000000000009999123100000010000000000000BRVIVRACNOR4122
012024060702VIVT3       010TELEF BRASILON           R$  000000000451800000000045510000000004490000000000452000000000045000000000004505000000000450017015000000000003094400000000013988901400000000000000009999123100000010000000000000BRVIVTACNOR0181
012024060702VLID3       010VALID       ON  EJ  NM   R$  000000000163300000000016360000000001572000000000160000000000015840000000001584000000000159402138000000000000327400000000000524089400000000000000009999123100000010000000000000BRVLIDACNOR5143
012024060702VSTE3       010VESTE       ON      NM   R$  000000000159100000000016680000000001591000000000163500000000016450000000001641000000000165400025000000000000005400000000000008832400000000000000009999123100000010000000000000BRVSTEACNOR5103
012024060702VULC3       010VULCABRAS   ON      NM   R$  000000000151500000000015210000000001479000000000150000000000014900000000001490000000000149302664000000000000481600000000000722799400000000000000009999123100000010000000000000BRVULCACNOR2159
012024060702VVEO3       010VIVEO       ON      NM   R$  000000000023700000000002430000000000232000000000023800000000002370000000000237000000000023903421000000000001681300000000000400539700000000000000009999123100000010000000000000BRVVEOACNOR0104
012024060702WEGE3       010WEG         ON      NM   R$  000000000374300000000037990000000003740000000000377900000000037850000000003780000000000377617512000000000006847500000000025881277100000000000000009999123100000010000000000000BRWEGEACNOR0222
012024060702RECV3       010PETRORECSA  ON  EJ  NM   R$  000000000190900000000019380000000001905000000000192000000000019060000000001906000000000191007219000000000001747000000000003354769600000000000000009999123100000010000000000000BRRECVACNOR3107
012024060702REDE3       010REDE ENERGIAON           R$  000000000068400000000006850000000000670000000000068000000000006700000000000680000000000068200015000000000000003000000000000002041600000000000000009999123100000010000000000000BRREDEACNOR7127
012024060702RENT3       010LOCALIZA    ON      NM   R$  000000000429800000000043440000000004230000000000429500000000042750000000004311000000000427619507000000000005530900000000023758852800000000000000009999123100000010000000000000BRRENTACNOR4195
012024060702SYNE3       010SYN PROP TECON      NM   R$  000000000088500000000008970000000000871000000000087900000000008750000000000875000000000087600613000000000000295500000000000259827000000000000000009999123100000010000000000000BRSYNEACNOR2102
012024060702TAEE11      010TAESA       UNT     N2   R$  000000000339900000000033990000000003360000000000337800000000033690000000003369000000000336908305000000000001967500000000006646556100000000000000009999123100000010000000000000BRTAEECDAM10147
012024060702TAEE3       010TAESA       ON      N2   R$  000000000113100000000011310000000001115000000000112000000000011210000000001120000000000112300937000000000000204400000000000229097100000000000000009999123100000010000000000000BRTAEEACNOR9147
012024060702TAEE4       010TAESA       PN      N2   R$  000000000113700000000011380000000001125000000000113200000000011290000000001129000000000113001350000000000000334300000000000378486800000000000000009999123100000010000000000000BRTAEEACNPR6147
012024060702VAMO3       010VAMOS       ON      NM   R$  000000000075400000000007710000000000750000000000076000000000007680000000000765000000000075411461000000000007078500000000005382366600000000000000009999123100000010000000000000BRVAMOACNOR7105
012024060702VBBR3       010VIBRA       ON      NM   R$  000000000206800000000021090000000002063000000000208700000000020800000000002086000000000208417394000000000006736200000000014063453600000000000000009999123100000010000000000000BRVBBRACNOR1107
012024060702RAIZ4       010RAIZEN      PN      N2   R$  000000000027000000000002740000000000267000000000027000000000002700000000000270000000000027112422000000000012877000000000003482126900000000000000009999123100000010000000000000BRRAIZACNPR6110
012024060702RANI3       010IRANI       ON      NM   R$  000000000084400000000008440000000000829000000000083400000000008290000000000829000000000083401917000000000000474800000000000396454000000000000000009999123100000010000000000000BRRANIACNOR5072
012024060702RAPT3       010RANDON PART ON      N1   R$  000000000080200000000008100000000000794000000000080000000000008100000000000795000000000081000094000000000000020600000000000016482400000000000000009999123100000010000000000000BRRAPTACNOR7162
012024060702RAPT4       010RANDON PART PN      N1   R$  000000000092700000000009350000000000919000000000092800000000009350000000000930000000000093605126000000000001531300000000001422137200000000000000009999123100000010000000000000BRRAPTACNPR4162
012024060702POMO3       010MARCOPOLO   ON      N2   R$  000000000049500000000004950000000000484000000000048800000000004840000000000483000000000049000619000000000000171300000000000083739200000000000000009999123100000010000000000000BRPOMOACNOR0098
012024060702POMO4       010MARCOPOLO   PN      N2   R$  000000000062700000000006370000000000622000000000062900000000006300000000000628000000000063105877000000000004943700000000003109644300000000000000009999123100000010000000000000BRPOMOACNPR7098
012024060702PORT3       010WILSON SONS ON  ED  NM   R$  000000000152300000000015280000000001505000000000151200000000015060000000001505000000000151201521000000000000366600000000000554622600000000000000009999123100000010000000000000BRPORTACNOR8108
012024060702POSI3       010POSITIVO TECON      NM   R$  000000000091800000000009190000000000892000000000090500000000008970000000000896000000000090002344000000000000817900000000000740733300000000000000009999123100000010000000000000BRPOSIACNOR9116
012024060702PRIO3       010PETRORIO    ON      NM   R$  000000000397100000000040570000000003949000000000400300000000039920000000003989000000000399331257000000000009649500000000038628355700000000000000009999123100000010000000000000BRPRIOACNOR1106
012024060702SAPR11      010SANEPAR     UNT     N2   R$  000000000276200000000027660000000002710000000000273600000000027200000000002716000000000272102755000000000000581200000000001590196800000000000000009999123100000010000000000000BRSAPRCDAM13117
012024060702SAPR3       010SANEPAR     ON      N2   R$  000000000052800000000005280000000000510000000000051500000000005140000000000513000000000051400538000000000000182100000000000093857800000000000000009999123100000010000000000000BRSAPRACNOR9158
012024060702SAPR4       010SANEPAR     PN      N2   R$  000000000056300000000005630000000000548000000000055300000000005480000000000548000000000054902393000000000001805400000000000999553500000000000000009999123100000010000000000000BRSAPRACNPR6158
012024060702SBFG3       010GRUPO SBF   ON      NM   R$  000000000120900000000012660000000001205000000000123800000000012220000000001221000000000122207266000000000001563000000000001936392300000000000000009999123100000010000000000000BRSBFGACNOR1103
012024060702SBSP3       010SABESP      ON      NM   R$  000000000768400000000076940000000007391000000000750800000000074250000000007425000000000743923977000000000006422600000000048224146900000000000000009999123100000010000000000000BRSBSPACNOR5161
012024060702USIM5       010USIMINAS    PNA     N1   R$  000000000072600000000007280000000000709000000000071900000000007180000000000727000000000071610702000000000009404000000000006767352200000000000000009999123100000010000000000000BRUSIMACNPA6169
012024060702WLMM4       010WLM IND COM PN           R$  000000000316900000000031690000000003169000000000316900000000031690000000002700000000000310000001000000000000000100000000000000316900000000000000009999123100000010000000000000BRWLMMACNPR3118
012024060702YDUQ3       010YDUQS PART  ON      NM   R$  000000000115500000000011650000000001137000000000114900000000011380000000001137000000000113815113000000000005040600000000005793093100000000000000009999123100000010000000000000BRYDUQACNOR3105
012024060702ZAMP3       010ZAMP S.A.   ON           R$  000000000034500000000003500000000000336000000000034200000000003400000000000339000000000034003166000000000000815800000000000279445000000000000000009999123100000010000000000000BRZAMPACNOR5100
012024060702LUPA3       010LUPATECH    ON      NM   R$  000000000015600000000001560000000000150000000000015200000000001530000000000153000000000015400194000000000000119200000000000018202000000000000000009999123100000010000000000000BRLUPAACNOR8112
012024060702AERI3       010AERIS       ON      NM   R$  000000000073100000000007340000000000685000000000070700000000006850000000000685000000000069500726000000000000263000000000000186110200000000000000009999123100000010000000000000BRAERIACNOR4102
012024060702AESB3       010AES BRASIL  ON      NM   R$  000000000112300000000011270000000001119000000000112300000000011230000000001123000000000112403796000000000005986800000000006723707600000000000000009999123100000010000000000000BRAESBACNOR7106
012024060702AGRO3       010BRASILAGRO  ON      NM   R$  000000000248100000000025150000000002470000000000249000000000024850000000002485000000000249301416000000000000201500000000000501916800000000000000009999123100000010000000000000BRAGROACNOR7114
012024060702AGXY3       010AGROGALAXY  ON      NM   R$  000000000012200000000001240000000000119000000000012000000000001190000000000119000000000012000191000000000000089600000000000010812600000000000000009999123100000010000000000000BRAGXYACNOR4103
012024060702ALLD3       010ALLIED      ON      NM   R$  000000000073500000000007380000000000715000000000072100000000007190000000000719000000000072000648000000000000108300000000000078125000000000000000009999123100000010000000000000BRALLDACNOR3106
012024060702ALOS3       010ALLOS       ON      NM   R$  000000000214900000000021740000000002113000000000214700000000021350000000002147000000000213612500000000000004740100000000010178139000000000000000009999123100000010000000000000BRALOSACNOR5101
012024060702CPFE3       010CPFL ENERGIAON      NM   R$  000000000340200000000034100000000003327000000000335200000000033340000000003331000000000334407817000000000001674600000000005613340300000000000000009999123100000010000000000000BRCPFEACNOR0137
012024060702CPLE3       010COPEL       ON      N2   R$  000000000084400000000008440000000000823000000000083000000000008260000000000826000000000082714932000000000005121600000000004254694700000000000000009999123100000010000000000000BRCPLEACNOR8149
012024060702CPLE6       010COPEL       PNB     N2   R$  000000000093800000000009410000000000922000000000093200000000009250000000000925000000000092626012000000000016109600000000015016306400000000000000009999123100000010000000000000BRCPLEACNPB9146
012024060702ELMD3       010ELETROMIDIA ON      NM   R$  000000000183400000000018510000000001822000000000183800000000018230000000001820000000000182600313000000000000040800000000000074994400000000000000009999123100000010000000000000BRELMDACNOR3101
012024060702BSLI4       010BRB BANCO   PN           R$  000000000104600000000010460000000001046000000000104600000000010460000000001002000000000105900001000000000000000100000000000000104600000000000000009999123100000010000000000000BRBSLIACNPR2194
012024060702CXSE3       010CAIXA SEGURION      NM   R$  000000000147100000000014740000000001451000000000146000000000014530000000001452000000000145405055000000000001394800000000002036563800000000000000009999123100000010000000000000BRCXSEACNOR7106
012024060702CYRE3       010CYRELA REALTON      NM   R$  000000000197900000000020170000000001944000000000197800000000019570000000001965000000000195812207000000000003920000000000007756225900000000000000009999123100000010000000000000BRCYREACNOR7140
012024060702GGBR3       010GERDAU      ON      N1   R$  000000000153700000000015610000000001519000000000152400000000015270000000001521000000000152800313000000000000047300000000000072112200000000000000009999123100000010000000000000BRGGBRACNOR1192
012024060702GGBR4       010GERDAU      PN      N1   R$  000000000171700000000017190000000001691000000000170000000000016970000000001699000000000169714783000000000008026300000000013649362500000000000000009999123100000010000000000000BRGGBRACNPR8192
012024060702ITUB3       010ITAUUNIBANCOON  EJ  N1   R$  000000000275900000000027590000000002720000000000273700000000027310000000002722000000000273101150000000000000646000000000001768134200000000000000009999123100000010000000000000BRITUBACNOR4336
012024060702ITUB4       010ITAUUNIBANCOPN  EJ  N1   R$  000000000315800000000031800000000003133000000000316000000000031450000000003144000000000314527707000000000023228300000000073419782500000000000000009999123100000010000000000000BRITUBACNPR1336
012024060707BHIA3       010CASAS BAHIA ON      NM   R$  000000000064400000000006760000000000637000000000065700000000006580000000000657000000000065805979000000000003046000000000002002370700000000000000009999123100000010000000000000BRBHIAACNOR1101
012024060707NUTR3       010NUTRIPLANT  ON      MA   R$  000000000056000000000005660000000000520000000000053700000000005200000000000518000000000054000042000000000000008000000000000004303000000000000000009999123100000010000000000000BRNUTRACNOR0104
012024060707TXRX4       010TEX RENAUX  PN           R$  000000000022900000000002290000000000229000000000022900000000002290000000000230000000000023900001000000000000000100000000000000022900000000000000009999123100000010000000000000BRTXRXACNPR0142
012024060708CTNM4       010COTEMINAS   PN           R$  000000000008700000000000870000000000087000000000008700000000000870000000000085000000000008700010000000000000005000000000000000435000000000000000009999123100000010000000000000BRCTNMACNPR6129
012024060708CTSA3       010SANTANENSE  ON           R$  000000000022100000000002210000000000218000000000021800000000002200000000000220000000000022100011000000000000002000000000000000437300000000000000009999123100000010000000000000BRCTSAACNOR3062
012024060708CTSA4       010SANTANENSE  PN           R$  000000000010400000000001080000000000100000000000010300000000001010000000000100000000000010100117000000000000060400000000000006229500000000000000009999123100000010000000000000BRCTSAACNPR0062
012024060708SGPS3       010SPRINGS     ON      NM   R$  000000000003900000000000390000000000039000000000003900000000000390000000000038000000000003900058000000000000202900000000000007913100000000000000009999123100000010000000000000BRSGPSACNOR4104
012024060708PMAM3       010PARANAPANEMAON      NM   R$  000000000025100000000002520000000000245000000000024600000000002510000000000248000000000025200085000000000000036300000000000008963900000000000000009999123100000010000000000000BRPMAMACNOR3039
012024060708NEXP3       010NEXPE       ON           R$  000000000042000000000004280000000000407000000000041100000000004140000000000411000000000042200017000000000000004800000000000001975300000000000000009999123100000010000000000000BRNEXPACNOR0101
012024060708RSID3       010ROSSI RESID ON      NM   R$  000000000055500000000005630000000000514000000000053600000000005250000000000516000000000052500507000000000000070200000000000037684700000000000000009999123100000010000000000000BRRSIDACNOR8120
012024060708JFEN3       010JOAO FORTES ON           R$  000000000013200000000001360000000000131000000000013200000000001310000000000131000000000013300034000000000000019700000000000002604000000000000000009999123100000010000000000000BRJFENACNOR0059
012024060708ETER3       010ETERNIT     ON      NM   R$  000000000064500000000006490000000000614000000000062300000000006280000000000617000000000062800612000000000000189800000000000118282400000000000000009999123100000010000000000000BRETERACNOR3243
012024060708LIGT3       010LIGHT S/A   ON      NM   R$  000000000057200000000006030000000000560000000000057600000000005710000000000566000000000057104139000000000001848300000000001066460500000000000000009999123100000010000000000000BRLIGTACNOR2124
012024060708OIBR3       010OI          ON      N1   R$  000000000005900000000000600000000000057000000000005800000000000580000000000057000000000005800966000000000006492000000000000378142100000000000000009999123100000010000000000000BROIBRACNOR1110
012024060708OIBR4       010OI          PN      N1   R$  000000000016900000000001690000000000166000000000016600000000001660000000000166000000000016700049000000000000012800000000000002132800000000000000009999123100000010000000000000BROIBRACNPR8109
012024060708OSXB3       010OSX BRASIL  ON      NM   R$  000000000041300000000004130000000000402000000000040700000000004120000000000400000000000041200006000000000000000700000000000000284900000000000000009999123100000010000000000000BROSXBACNOR8109
012024060708HOOT4       010HOTEIS OTHONPN           R$  000000000027100000000002710000000000270000000000027000000000002700000000000270000000000027400002000000000000002400000000000000648400000000000000009999123100000010000000000000BRHOOTACNPR9015
012024060708RNEW11      010RENOVA      UNT     N2   R$  000000000029700000000002980000000000297000000000029700000000002980000000000294000000000029700006000000000000001100000000000000326800000000000000009999123100000010000000000000BRRNEWCDAM15110
012024060708RNEW3       010RENOVA      ON      N2   R$  000000000009800000000000990000000000095000000000009700000000000980000000000098000000000009900039000000000000030200000000000002947000000000000000009999123100000010000000000000BRRNEWACNOR8110
012024060708RNEW4       010RENOVA      PN      N2   R$  000000000009700000000001000000000000097000000000009800000000000990000000000098000000000009900062000000000000075700000000000007473100000000000000009999123100000010000000000000BRRNEWACNPR5110
012024060708RPMG3       010PET MANGUINHON           R$  000000000021200000000002700000000000208000000000024200000000002250000000000221000000000022500585000000000000299700000000000072593300000000000000009999123100000010000000000000BRRPMGACNOR9194
012024060708TEKA4       010TEKA        PN           R$  000000000310000000000031000000000003100000000000310000000000031000000000002502000000000315800001000000000000000100000000000000310000000000000000009999123100000010000000000000BRTEKAACNPR3140
012024060708ATMP3       010ATMASA      ON           R$  000000000022500000000002250000000000219000000000022200000000002250000000000219000000000022500010000000000000002300000000000000512600000000000000009999123100000010000000000000BRATMPACNOR8100
012024060708AMER3       010AMERICANAS  ON      NM   R$  000000000003700000000000370000000000034000000000003400000000000340000000000034000000000003502326000000000020051100000000000700558200000000000000009999123100000010000000000000BRAMERACNOR6102
012024060710ONCO1       010ONCOCLINICASDIR ORD NM   R$  000000000000100000000000010000000000001000000000000100000000000010000000000000000000000000100170000000000000340800000000000000340800000000000000009999123100000010000000000000BRONCOD01OR1100
012024060710AMER95      010AMERICANAS  DIR     NM   R$  000000000000100000000000020000000000001000000000000100000000000010000000000001000000000000200271000000000001192884000000000001476223000000000000009999123100000010000000000000BRAMERD01M17100
012024060710BNBR1       010NORD BRASIL DIR ORD      R$  000000000001700000000000170000000000017000000000001700000000000170000000000001000000000002000001000000000000000100000000000000001700000000000000009999123100000010000000000000BRBNBRD05OR4207
012024060710BSLI2       010BRB BANCO   DIR PRE      R$  000000000002200000000000230000000000013000000000001900000000000230000000000023000000000003700034000000000000013100000000000000249900000000000000009999123100000010000000000000BRBSLID02PR5192
012024060712EDFO11      010FII OURINVESCI  ER       R$  000000001810100000000188980000000017900000000001805400000000188980000000018000000000001888500009000000000000000070000000000001263800000000000000009999123100000010000000000000BREDFOCTF004323
012024060712GGRC11      010FII GGRCOVEPCI  ER       R$  000000000110700000000011130000000001103000000000110700000000011100000000001106000000000111002744000000000000068106000000000075457246000000000000009999123100000010000000000000BRGGRCCTF002194
012024060712GLOG11      010FII PLURAL LCI  ER       R$  000000000628100000000062950000000006252000000000628100000000062520000000006252000000000629000029000000000000000555000000000003486380000000000000009999123100000010000000000000BRGLOGCTF000113
012024060712BICR11      010FII INTER   CI  ER       R$  000000000479900000000049850000000004700000000000490100000000047000000000004701000000000494600008000000000000000018000000000000088229000000000000009999123100000010000000000000BRBICRCTF009152
012024060712BIME11      010FII BRIO ME CI  ER       R$  000000000072200000000007260000000000720000000000072200000000007250000000000722000000000072500315000000000000020493000000000014798908000000000000009999123100000010000000000000BRBIMECTF006132
012024060712BLCA11      010FII BLUE AAACI           R$  000000001074700000000107470000000010251000000001030600000000104980000000010252000000001049800102000000000000003384000000000034878673000000000000009999123100000010000000000000BRBLCACTF009130
012024060712BLMG11      010FII BLUE LOGCI           R$  000000000383300000000038450000000003833000000000383900000000038450000000003840000000000384501250000000000000007645000000000029350456000000000000009999123100000010000000000000BRBLMGCTF005146
012024060712BLMO11      010FII BLUEMAC CI  ER       R$  000000000825000000000082500000000008250000000000825000000000082500000000007910000000000815100003000000000000000003000000000000024750000000000000009999123100000010000000000000BRBLMOCTF009131
012024060712BROF11      010FII BROF    CI           R$  000000000559000000000056740000000005505000000000556700000000055660000000005506000000000556600834000000000000015022000000000083642390000000000000009999123100000010000000000000BRBROFCTF000113
012024060712APTO11      010FII NAVI RSDCI  ER       R$  000000000093800000000009410000000000927000000000093300000000009330000000000933000000000093700215000000000000002033000000000001898340000000000000009999123100000010000000000000BRAPTOCTF007131
012024060712APXM11      010FII APEX MS CI           R$  000000000975000000000097500000000009750000000000975000000000097500000000009801000000001030000001000000000000000002000000000000019500000000000000009999123100000010000000000000BRAPXMCTF003109
012024060712AROA11      010FII AROA    CI  ER       R$  000000000010000000000001000000000000099000000000009900000000001000000000000099000000000010000140000000000000004127000000000000412267000000000000009999123100000010000000000000BRAROACTF003118
012024060712ARRI11      010FII ATRIO   CI  ERS      R$  000000000090800000000009080000000000902000000000090300000000009050000000000902000000000090500531000000000000013255000000000011982500000000000000009999123100000010000000000000BRARRICTF009161
012024060712ARXD11      010FII ARXD R  CI  ER       R$  000000000936200000000094460000000009360000000000939400000000093610000000009361000000000954500007000000000000000050000000000000469734000000000000009999123100000010000000000000BRARXDCTF008115
012024060712BBFI11      010FII BB PROGRCI  ER       R$  000000011979500000001197950000000116050000000011811900000001175000000000117500000000011800000132000000000000000495000000000058468961000000000000009999123100000010000000000000BRBBFICTF006328
012024060712BBFO11      010FII BB FOF  CI  ER       R$  000000000730700000000073070000000007153000000000722100000000072590000000007201000000000725900268000000000000005528000000000039922406000000000000009999123100000010000000000000BRBBFOCTF004141
012024060712BBIG11      010FII BBIG    CI  ER       R$  000000000097300000000009790000000000970000000000097200000000009710000000000970000000000097100303000000000000015379000000000014961526000000000000009999123100000010000000000000BRBBIGCTF004101
012024060712BBRC11      010FII BB CORP CI  ER       R$  000000001072300000000109990000000010683000000001080900000000107800000000010781000000001080000154000000000000002115000000000022862349000000000000009999123100000010000000000000BRBBRCCTF004253
012024060712CPOF11      010FII CPOF    CI           R$  000000001070000000000107000000000010700000000001070000000000107000000000000000000000001070000003000000000000000018000000000000192600000000000000009999123100000010000000000000BRCPOFCTF002106
012024060712RBFF11      010FII RIOB FF CI  ER       R$  000000000628900000000062890000000006202000000000625500000000062420000000006226000000000624201507000000000000004913000000000030732948000000000000009999123100000010000000000000BRRBFFCTF008160
012024060712RBHG11      010FII RBCRI IVCI  ER       R$  000000000873000000000087940000000008690000000000874000000000087350000000008736000000000874201389000000000000002851000000000024917840000000000000009999123100000010000000000000BRRBHGCTF002134
012024060712RBHY11      010FII RB YIELDCI  ER       R$  000000000903400000000090780000000008991000000000903000000000090340000000009033000000000903400055000000000000000488000000000004406932000000000000009999123100000010000000000000BRRBHYCTF005144
012024060712RBIR11      010FII RBRES IVCI           R$  000000000861500000000087000000000008580000000000860000000000086000000000008610000000000865000068000000000000004371000000000037592085000000000000009999123100000010000000000000BRRBIRCTF007111
012024060712RBLG11      010FII RBCAP LGCI  ER       R$  000000001000000000000100000000000010000000000001000000000000100000000000008559000000001000000002000000000000000007000000000000070000000000000000009999123100000010000000000000BRRBLGCTF004145
012024060712RBOP11      010FII MERC BR CI  ER       R$  000000003000200000000314000000000029200000000003068000000000311100000000031115000000003139500066000000000000000166000000000005092986000000000000009999123100000010000000000000BRRBOPCTF009121
012024060712RBRD11      010FII RB II   CI  ER       R$  000000000396500000000039650000000003833000000000386900000000039030000000003866000000000390600078000000000000000929000000000003594568000000000000009999123100000010000000000000BRRBRDCTF008263
012024060712RBRF11      010FII RBRALPHACI           R$  000000000077300000000007780000000000769000000000077300000000007710000000000771000000000077221287000000000000291163000000000225209957000000000000009999123100000010000000000000BRRBRFCTF003186
012024060712RBRL11      010FII RBR LOG CI           R$  000000000805000000000081750000000008008000000000808400000000081100000000008110000000000811701339000000000000003913000000000031634455000000000000009999123100000010000000000000BRRBRLCTF001153
012024060712RBRP11      010FII RBR PROPCI           R$  000000000583500000000059110000000005800000000000583000000000058110000000005811000000000584405654000000000000022266000000000129825365000000000000009999123100000010000000000000BRRBRPCTF002172
012024060712RBRR11      010FII RBRHGRADCI           R$  000000000911400000000091300000000009050000000000910300000000090870000000009175000000000911704601000000000000019277000000000175484873000000000000009999123100000010000000000000BRRBRRCTF008179
012024060712RBRS11      010FII RIOB RR CI           R$  000000000472500000000047400000000004723000000000472700000000047400000000004725000000000474000024000000000000000272000000000001285801000000000000009999123100000010000000000000BRRBRSCTF006138
012024060712RBRX11      010FII RBR MULTCI           R$  000000000093500000000009390000000000931000000000093400000000009340000000000933000000000093405871000000000000073295000000000068496152000000000000009999123100000010000000000000BRRBRXCTF006128
012024060712RBRY11      010FII RBR PCRICI           R$  000000000990000000000099300000000009795000000000986400000000098690000000009860000000000986906485000000000000022873000000000225628838000000000000009999123100000010000000000000BRRBRYCTF004167
012024060712RBVA11      010FII RIOB VA CI  ER       R$  000000001082500000000108740000000010794000000001082100000000108290000000010829000000001083002711000000000000007490000000000081053884000000000000009999123100000010000000000000BRRBVACTF006165
012024060712RBVO11      010FII RIOBCRI2CI  ERA      R$  000000000190000000000019930000000001823000000000193000000000019470000000001940000000000194700562000000000000007004000000000013520321000000000000009999123100000010000000000000BRRBVOCTF007243
012024060712RCFA11      010FII GP RCFA CI           R$  000000000010500000000001050000000000091000000000009900000000001030000000000100000000000010300010000000000000000314000000000000031356000000000000009999123100000010000000000000BRRCFACTF007101
012024060712RCRB11      010FII RIOB RC CI  ER       R$  000000001536400000000153640000000015102000000001520400000000151870000000015103000000001518902147000000000000003935000000000059830888000000000000009999123100000010000000000000BRRCRBCTF000157
012024060712PVBI11      010FII VBI PRI CI  ER       R$  000000000942000000000094530000000009351000000000941100000000094180000000009418000000000942309961000000000000038328000000000360720114000000000000009999123100000010000000000000BRPVBICTF003152
012024060712QAGR11      010FII QUASAR ACI  ER       R$  000000000468100000000047030000000004678000000000469200000000047000000000004700000000000471000198000000000000003505000000000016448427000000000000009999123100000010000000000000BRQAGRCTF005155
012024060712SNCI11      010FII SUNO CRICI           R$  000000000940000000000094000000000009338000000000935200000000093450000000009345000000000934500663000000000000004659000000000043573963000000000000009999123100000010000000000000BRSNCICTF002135
012024060712SNEL11      010FII SUNO EL CI           R$  000000001329900000000132990000000013161000000001322100000000132000000000013201000000001327000317000000000000002279000000000030132184000000000000009999123100000010000000000000BRSNELCTF010107
012024060712SNFF11      010FII SUNOFOFICI           R$  000000000871800000000087400000000008675000000000870100000000087150000000008703000000000871500752000000000000005088000000000044270850000000000000009999123100000010000000000000BRSNFFCTF001137
012024060712SNLG11      010FII SUNO LG CI           R$  000000000299500000000029950000000002948000000000295400000000029500000000002949000000000295000111000000000000001878000000000005548577000000000000009999123100000010000000000000BRSNLGCTF007103
012024060712SNME11      010FII SNME    CI           R$  000000000096900000000009690000000000964000000000096800000000009690000000000964000000000096900129000000000000004886000000000004731038000000000000009999123100000010000000000000BRSNMECTF000106
012024060712SPTW11      010FII SP DOWNTCI  ER       R$  000000000424300000000042530000000004230000000000424200000000042300000000004229000000000423000210000000000000001244000000000005278067000000000000009999123100000010000000000000BRSPTWCTF002235
012024060712SPXS11      010FII SPX SYN CI           R$  000000000098000000000009840000000000970000000000097900000000009840000000000983000000000098408854000000000000062096000000000060854044000000000000009999123100000010000000000000BRSPXSCTF002123
