00COTAHIST.2024BOVESPA 20240614                                                                                                                                                                                                                      
012024061402VULC3       010VULCABRAS   ON      NM   R$  000000000146800000000014830000000001451000000000145900000000014600000000001460000000000146102639000000000000657200000000000959214800000000000000009999123100000010000000000000BRVULCACNOR2159
012024061402VVEO3       010VIVEO       ON      NM   R$  000000000021900000000002290000000000214000000000021900000000002140000000000213000000000021501931000000000001041600000000000228439300000000000000009999123100000010000000000000BRVVEOACNOR0104
012024061402ELET3       010ELETROBRAS  ON      N1   R$  000000000353800000000035690000000003478000000000353500000000035690000000003562000000000356919079000000000007386900000000026119543900000000000000009999123100000010000000000000BRELETACNOR6160
012024061402ELET6       010ELETROBRAS  PNB     N1   R$  000000000398000000000039930000000003891000000000395100000000039800000000003980000000000398204969000000000001310700000000005178677600000000000000009999123100000010000000000000BRELETACNPB7077
012024061402GRND3       010GRENDENE    ON      NM   R$  000000000060300000000006160000000000602000000000060900000000006090000000000608000000000061202201000000000000614900000000000374762000000000000000009999123100000010000000000000BRGRNDACNOR3174
012024061402ROMI3       010ROMI        ON      NM   R$  000000000105100000000010680000000001042000000000105100000000010450000000001045000000000105000839000000000000161800000000000170197800000000000000009999123100000010000000000000BRROMIACNOR8194
012024061402SYNE3       010SYN PROP TECON      NM   R$  000000000088100000000008910000000000870000000000087600000000008700000000000870000000000087100442000000000000133400000000000116889100000000000000009999123100000010000000000000BRSYNEACNOR2102
012024061402WEGE3       010WEG         ON      NM   R$  000000000382400000000039300000000003824000000000390100000000038770000000003876000000000388032575000000000011831700000000046157079400000000000000009999123100000010000000000000BRWEGEACNOR0222
012024061402PRNR3       010PRINER      ON      NM   R$  000000000104100000000010430000000001018000000000102700000000010300000000001030000000000103101333000000000000239900000000000246548700000000000000009999123100000010000000000000BRPRNRACNOR4109
012024061402PSSA3       010PORTO SEGUROON      NM   R$  000000000297500000000029750000000002922000000000294400000000029630000000002946000000000296305660000000000001477700000000004350744700000000000000009999123100000010000000000000BRPSSAACNOR7154
012024061402PTBL3       010PORTOBELLO  ON      NM   R$  000000000039600000000004090000000000393000000000040000000000004020000000000401000000000040400858000000000000301300000000000120761100000000000000009999123100000010000000000000BRPTBLACNOR8132
012024061402PTNT4       010PETTENATI   PN           R$  000000000061600000000006240000000000600000000000061100000000006000000000000592000000000060000014000000000000003400000000000002080400000000000000009999123100000010000000000000BRPTNTACNPR3047
012024061402ECOR3       010ECORODOVIAS ON      NM   R$  000000000061900000000006360000000000613000000000062800000000006270000000000627000000000062805767000000000003171300000000001991789000000000000000009999123100000010000000000000BRECORACNOR8120
012024061402EGIE3       010ENGIE BRASILON      NM   R$  000000000435000000000044590000000004323000000000441300000000044160000000004415000000000441605931000000000001451800000000006407005700000000000000009999123100000010000000000000BREGIEACNOR9126
012024061402GGPS3       010GPS         ON      NM   R$  000000000174900000000017740000000001736000000000175800000000017610000000001760000000000176102941000000000000794000000000001395912900000000000000009999123100000010000000000000BRGGPSACNOR9103
012024061402GMAT3       010GRUPO MATEUSON      NM   R$  000000000073800000000007430000000000724000000000073000000000007260000000000725000000000073005290000000000003597200000000002629357300000000000000009999123100000010000000000000BRGMATACNOR7101
012024061402GOAU3       010GERDAU MET  ON      N1   R$  000000000103200000000010320000000001010000000000101600000000010200000000001014000000000102000157000000000000035000000000000035576100000000000000009999123100000010000000000000BRGOAUACNOR1267
012024061402GOAU4       010GERDAU MET  PN      N1   R$  000000000100900000000010090000000000993000000000099700000000009990000000000998000000000100008393000000000007371900000000007353514800000000000000009999123100000010000000000000BRGOAUACNPR8268
012024061402SEER3       010SER EDUCA   ON      NM   R$  000000000050800000000005290000000000501000000000051500000000005260000000000525000000000052701396000000000000492100000000000253485600000000000000009999123100000010000000000000BRSEERACNOR5119
012024061402SEQL3       010SEQUOIA LOG ON      NM   R$  000000000064100000000006430000000000625000000000063000000000006290000000000627000000000062900236000000000000092100000000000058074100000000000000009999123100000010000000000000BRSEQLACNOR2103
012024061402SHOW3       010TIME FOR FUNON      NM   R$  000000000015600000000001620000000000155000000000015700000000001560000000000156000000000015700247000000000000125800000000000019789900000000000000009999123100000010000000000000BRSHOWACNOR7105
012024061402SHUL4       010SCHULZ      PN           R$  000000000059000000000005990000000000585000000000059000000000005900000000000590000000000059200909000000000000327200000000000193259200000000000000009999123100000010000000000000BRSHULACNPR4155
012024061402SIMH3       010SIMPAR      ON      NM   R$  000000000052600000000005410000000000520000000000053200000000005390000000000539000000000054004966000000000002865400000000001526935000000000000000009999123100000010000000000000BRSIMHACNOR0107
012024061402UNIP3       010UNIPAR      ON           R$  000000000473700000000048950000000004732000000000481500000000048490000000004820000000000485000034000000000000003700000000000017818000000000000000009999123100000010000000000000BRUNIPACNOR7206
012024061402MDNE3       010MOURA DUBEUXON      NM   R$  000000000102500000000010470000000001013000000000103200000000010380000000001030000000000103801144000000000000319500000000000330035000000000000000009999123100000010000000000000BRMDNEACNOR9100
012024061402MEAL3       010IMC S/A     ON      NM   R$  000000000012200000000001260000000000122000000000012400000000001250000000000124000000000012500726000000000000586900000000000073169800000000000000009999123100000010000000000000BRMEALACNOR9105
012024061402MELK3       010MELNICK     ON      NM   R$  000000000036400000000003670000000000359000000000036400000000003670000000000362000000000036700320000000000000138300000000000050472600000000000000009999123100000010000000000000BRMELKACNOR8111
012024061402MERC4       010MERC FINANC PN           R$  000000000098300000000009830000000000983000000000098300000000009830000000000820000000000115000001000000000000000100000000000000098300000000000000009999123100000010000000000000BRMERCACNPR9180
012024061402MGEL4       010MANGELS INDLPN           R$  000000000126300000000013970000000001263000000000139200000000013970000000001291000000000139900010000000000000005500000000000007659700000000000000009999123100000010000000000000BRMGELACNPR3147
012024061402MGLU3       010MAGAZ LUIZA ON      NM   R$  000000000112700000000011790000000001112000000000114200000000011440000000001143000000000114522977000000000021160800000000024184422600000000000000009999123100000010000000000000BRMGLUACNOR2124
012024061402PFRM3       010PROFARMA    ON      NM   R$  000000000053400000000005390000000000517000000000052900000000005350000000000530000000000053500793000000000000172200000000000091152700000000000000009999123100000010000000000000BRPFRMACNOR1116
012024061402PGMN3       010PAGUE MENOS ON      NM   R$  000000000022600000000002290000000000223000000000022500000000002240000000000224000000000022600944000000000000420300000000000094752300000000000000009999123100000010000000000000BRPGMNACNOR8103
012024061402PINE3       010PINE        ON      N2   R$  000000000051100000000005110000000000481000000000049600000000004810000000000483000000000054500004000000000000000400000000000000198400000000000000009999123100000010000000000000BRPINEACNOR1149
012024061402PINE4       010PINE        PN      N2   R$  000000000040600000000004110000000000403000000000040600000000004050000000000405000000000040600178000000000000060500000000000024590800000000000000009999123100000010000000000000BRPINEACNPR8149
012024061402PLPL3       010PLANOEPLANO ON      NM   R$  000000000098500000000010090000000000950000000000098400000000009870000000000978000000000098801719000000000000435900000000000429255100000000000000009999123100000010000000000000BRPLPLACNOR5104
012024061402PNVL3       010DIMED       ON      NM   R$  000000000096500000000009990000000000960000000000097700000000009740000000000974000000000098101268000000000000394700000000000385733100000000000000009999123100000010000000000000BRPNVLACNOR9206
012024061402POMO3       010MARCOPOLO   ON      N2   R$  000000000047100000000004820000000000468000000000047500000000004750000000000475000000000047700580000000000000152200000000000072306200000000000000009999123100000010000000000000BRPOMOACNOR0098
012024061402POMO4       010MARCOPOLO   PN      N2   R$  000000000061000000000006240000000000608000000000061400000000006130000000000612000000000061405717000000000002809200000000001726828100000000000000009999123100000010000000000000BRPOMOACNPR7098
012024061402PORT3       010WILSON SONS ON      NM   R$  000000000148600000000014860000000001453000000000146500000000014550000000001455000000000146101488000000000000506500000000000742246100000000000000009999123100000010000000000000BRPORTACNOR8108
012024061402POSI3       010POSITIVO TECON      NM   R$  000000000088100000000008920000000000868000000000087800000000008750000000000875000000000087602334000000000000652200000000000573203400000000000000009999123100000010000000000000BRPOSIACNOR9116
012024061402PRIO3       010PETRORIO    ON      NM   R$  000000000420500000000042330000000004171000000000420000000000042010000000004200000000000420316382000000000008682600000000036474498400000000000000009999123100000010000000000000BRPRIOACNOR1106
012024061402RSUL4       010RIOSULENSE  PN           R$  000000000671500000000069980000000006715000000000695700000000069980000000006620000000000699900007000000000000000700000000000004870300000000000000009999123100000010000000000000BRRSULACNPR3114
012024061402EVEN3       010EVEN        ON      NM   R$  000000000062000000000006410000000000607000000000062600000000006330000000000633000000000063406385000000000001086800000000000681292100000000000000009999123100000010000000000000BREVENACNOR8119
012024061402EZTC3       010EZTEC       ON      NM   R$  000000000128700000000013430000000001283000000000132500000000013300000000001322000000000133003744000000000001703600000000002258492400000000000000009999123100000010000000000000BREZTCACNOR0125
012024061402IFCM3       010INFRACOMM   ON      NM   R$  000000000003500000000000370000000000034000000000003500000000000360000000000035000000000003601768000000000004311300000000000153502100000000000000009999123100000010000000000000BRIFCMACNOR8101
012024061402SANB11      010SANTANDER BRUNT          R$  000000000268100000000027080000000002671000000000269400000000027080000000002702000000000271006130000000000001288000000000003470917400000000000000009999123100000010000000000000BRSANBCDAM13164
012024061402SANB3       010SANTANDER BRON           R$  000000000126500000000012810000000001257000000000126800000000012810000000001276000000000128100221000000000000039900000000000050630500000000000000009999123100000010000000000000BRSANBACNOR8171
012024061402SANB4       010SANTANDER BRPN           R$  000000000142700000000014300000000001413000000000142000000000014170000000001417000000000143100302000000000000057100000000000081112400000000000000009999123100000010000000000000BRSANBACNPR5171
012024061402SAPR11      010SANEPAR     UNT     N2   R$  000000000264200000000026550000000002610000000000262500000000026340000000002634000000000263501566000000000000321000000000000842725800000000000000009999123100000010000000000000BRSAPRCDAM13117
012024061402SAPR3       010SANEPAR     ON      N2   R$  000000000050400000000005040000000000497000000000050000000000005010000000000501000000000050200397000000000000173100000000000086562800000000000000009999123100000010000000000000BRSAPRACNOR9158
012024061402SAPR4       010SANEPAR     PN      N2   R$  000000000053600000000005370000000000530000000000053200000000005310000000000531000000000053403445000000000000781600000000000415871700000000000000009999123100000010000000000000BRSAPRACNPR6158
012024061402TPIS3       010TRIUNFO PARTON      NM   R$  000000000039600000000003990000000000387000000000039100000000003870000000000387000000000039300062000000000000030600000000000011982500000000000000009999123100000010000000000000BRTPISACNOR8118
012024061402TRAD3       010TC          ON      NM   R$  000000000006700000000000670000000000063000000000006400000000000660000000000064000000000006600181000000000000208100000000000013415400000000000000009999123100000010000000000000BRTRADACNOR3101
012024061402TRIS3       010TRISUL      ON      NM   R$  000000000047000000000004700000000000457000000000046300000000004630000000000463000000000046600715000000000000209300000000000097096500000000000000009999123100000010000000000000BRTRISACNOR4118
012024061402UNIP5       010UNIPAR      PNA          R$  000000000540000000000054200000000005400000000000540600000000054200000000005352000000000552000003000000000000000300000000000001622000000000000000009999123100000010000000000000BRUNIPACNPA0208
012024061402UNIP6       010UNIPAR      PNB          R$  000000000483500000000049120000000004815000000000486000000000048630000000004860000000000486300761000000000000110800000000000538587100000000000000009999123100000010000000000000BRUNIPACNPB8206
012024061402USIM3       010USIMINAS    ON      N1   R$  000000000066000000000006710000000000655000000000066500000000006710000000000666000000000067100551000000000000165700000000000110223000000000000000009999123100000010000000000000BRUSIMACNOR3167
012024061402USIM5       010USIMINAS    PNA     N1   R$  000000000071700000000007260000000000707000000000071800000000007180000000000717000000000072010526000000000006493200000000004663766800000000000000009999123100000010000000000000BRUSIMACNPA6169
012024061402IGTI11      010IGUATEMI S.AUNT     N1   R$  000000000195000000000019720000000001930000000000195700000000019560000000001952000000000195618276000000000004534100000000008875346400000000000000009999123100000010000000000000BRIGTICDAM16106
012024061402IGTI3       010IGUATEMI S.AON      N1   R$  000000000027200000000002760000000000266000000000026800000000002670000000000267000000000026900057000000000000013700000000000003681300000000000000009999123100000010000000000000BRIGTIACNOR8106
012024061402INEP3       010INEPAR      ON           R$  000000000018800000000001940000000000185000000000018800000000001850000000000183000000000018700070000000000000030800000000000005799800000000000000009999123100000010000000000000BRINEPACNOR1143
012024061402INEP4       010INEPAR      PN           R$  000000000017100000000001770000000000170000000000017200000000001700000000000168000000000017000049000000000000023300000000000004011900000000000000009999123100000010000000000000BRINEPACNPR8143
012024061402INTB3       010INTELBRAS   ON      NM   R$  000000000228100000000023020000000002257000000000227300000000022730000000002263000000000227403810000000000000841900000000001914034600000000000000009999123100000010000000000000BRINTBACNOR9111
012024061402IRBR3       010IRBBRASIL REON      NM   R$  000000000318700000000032020000000003123000000000316800000000031930000000003190000000000319302904000000000000698700000000002214127800000000000000009999123100000010000000000000BRIRBRACNOR4111
012024061402TRPL3       010TRAN PAULISTON      N1   R$  000000000330900000000033860000000003309000000000333200000000033190000000003318000000000338400004000000000000000400000000000001332800000000000000009999123100000010000000000000BRTRPLACNOR4185
012024061402TRPL4       010TRAN PAULISTPN      N1   R$  000000000249700000000025320000000002480000000000251400000000025250000000002525000000000252907906000000000002038900000000005126395300000000000000009999123100000010000000000000BRTRPLACNPR1185
012024061402TTEN3       0103TENTOS     ON      NM   R$  000000000099500000000010140000000000990000000000099900000000009980000000000997000000000100102703000000000000553300000000000553219400000000000000009999123100000010000000000000BRTTENACNOR0103
012024061402TUPY3       010TUPY        ON      NM   R$  000000000214700000000021580000000002131000000000214200000000021470000000002147000000000215501962000000000000392600000000000841296900000000000000009999123100000010000000000000BRTUPYACNOR1184
012024061402KRSA3       010KORA SAUDE  ON      NM   R$  000000000005100000000000540000000000050000000000005100000000000540000000000053000000000005400184000000000000801300000000000041415400000000000000009999123100000010000000000000BRKRSAACNOR0100
012024061402SLCE3       010SLC AGRICOLAON      NM   R$  000000000175100000000017790000000001744000000000176100000000017630000000001763000000000176403188000000000000961900000000001694300900000000000000009999123100000010000000000000BRSLCEACNOR2125
012024061402VALE3       010VALE        ON      NM   R$  000000000608500000000060880000000006026000000000605800000000060620000000006061000000000606225627000000000012281800000000074415003900000000000000009999123100000010000000000000BRVALEACNOR0210
012024061402SBFG3       010GRUPO SBF   ON      NM   R$  000000000113800000000011760000000001126000000000115500000000011550000000001154000000000115707156000000000002207500000000002550700000000000000000009999123100000010000000000000BRSBFGACNOR1103
012024061402SBSP3       010SABESP      ON      NM   R$  000000000740000000000075340000000007353000000000746800000000075000000000007499000000000751711290000000000004229100000000031584642400000000000000009999123100000010000000000000BRSBSPACNOR5161
012024061402SCAR3       010SAO CARLOS  ON      NM   R$  000000000234900000000023490000000002254000000000226800000000022540000000002249000000000225400085000000000000016400000000000037203600000000000000009999123100000010000000000000BRSCARACNOR7131
012024061402LAND3       010TERRASANTAPAON      NM   R$  000000000158600000000016150000000001557000000000159100000000015910000000001564000000000159200144000000000000169100000000000269149200000000000000009999123100000010000000000000BRLANDACNOR9103
012024061402LAVV3       010LAVVI       ON      NM   R$  000000000079000000000008000000000000778000000000079000000000007940000000000791000000000079402479000000000000617300000000000488119700000000000000009999123100000010000000000000BRLAVVACNOR4112
012024061402LEVE3       010METAL LEVE  ON      NM   R$  000000000305600000000030720000000003007000000000303400000000030520000000003045000000000305201804000000000000313100000000000950213600000000000000009999123100000010000000000000BRLEVEACNOR2197
012024061402LJQQ3       010QUERO-QUERO ON      NM   R$  000000000039400000000004060000000000390000000000039700000000003970000000000396000000000039703485000000000002252900000000000896285100000000000000009999123100000010000000000000BRLJQQACNOR5104
012024061402LOGG3       010LOG COM PROPON      NM   R$  000000000218500000000022550000000002156000000000222300000000022430000000002229000000000224302074000000000000294400000000000654609300000000000000009999123100000010000000000000BRLOGGACNOR7107
012024061402LOGN3       010LOG-IN      ON      NM   R$  000000000353800000000036410000000003530000000000356100000000035710000000003550000000000357100160000000000000038700000000000137842700000000000000009999123100000010000000000000BRLOGNACNOR3105
012024061402LPSB3       010LOPES BRASILON      NM   R$  000000000018900000000001890000000000185000000000018700000000001890000000000186000000000018800219000000000000058200000000000010892100000000000000009999123100000010000000000000BRLPSBACNOR0114
012024061402LREN3       010LOJAS RENNERON      NM   R$  000000000125900000000012970000000001257000000000128000000000012790000000001278000000000128021867000000000014137000000000018100878900000000000000009999123100000010000000000000BRLRENACNOR1220
012024061402ODPV3       010ODONTOPREV  ON      NM   R$  000000000111100000000011300000000001108000000000111500000000011180000000001112000000000111804302000000000000958500000000001069421000000000000000009999123100000010000000000000BRODPVACNOR4201
012024061402OFSA3       010OUROFINO S/AON      NM   R$  000000000192900000000019290000000001895000000000190400000000019000000000001881000000000194900009000000000000002900000000000005522700000000000000009999123100000010000000000000BROFSAACNOR7118
012024061402ONCO3       010ONCOCLINICASON      NM   R$  000000000061500000000006250000000000583000000000060700000000006060000000000606000000000060909943000000000005201200000000003159404600000000000000009999123100000010000000000000BRONCOACNOR6101
012024061402OPCT3       010OCEANPACT   ON      NM   R$  000000000064200000000006560000000000640000000000064700000000006520000000000652000000000065601356000000000000441900000000000286150000000000000000009999123100000010000000000000BROPCTACNOR0100
012024061402ORVR3       010ORIZON      ON      NM   R$  000000000377300000000038110000000003750000000000377100000000037680000000003766000000000377002232000000000000313700000000001183235800000000000000009999123100000010000000000000BRORVRACNOR0101
012024061402AERI3       010AERIS       ON      NM   R$  000000000064000000000006530000000000633000000000063900000000006330000000000633000000000063600378000000000000150800000000000096416600000000000000009999123100000010000000000000BRAERIACNOR4102
012024061402AESB3       010AES BRASIL  ON      NM   R$  000000000112300000000011270000000001122000000000112400000000011250000000001124000000000112602484000000000004395600000000004943435900000000000000009999123100000010000000000000BRAESBACNOR7106
012024061402AGRO3       010BRASILAGRO  ON      NM   R$  000000000254600000000025820000000002546000000000256300000000025540000000002551000000000255401191000000000000165300000000000423809900000000000000009999123100000010000000000000BRAGROACNOR7114
012024061402AGXY3       010AGROGALAXY  ON      NM   R$  000000000010100000000001010000000000097000000000009800000000000970000000000097000000000009800629000000000000453400000000000044708500000000000000009999123100000010000000000000BRAGXYACNOR4103
012024061402ALLD3       010ALLIED      ON      NM   R$  000000000069000000000007020000000000680000000000068800000000006900000000000684000000000069000259000000000000081100000000000055827900000000000000009999123100000010000000000000BRALLDACNOR3106
012024061402ALOS3       010ALLOS       ON      NM   R$  000000000207100000000020990000000002054000000000208100000000020820000000002082000000000208412520000000000004462300000000009288694300000000000000009999123100000010000000000000BRALOSACNOR5101
012024061402ALPA3       010ALPARGATAS  ON      N1   R$  000000000094000000000009400000000000928000000000093500000000009280000000000926000000000095400003000000000000000800000000000000748400000000000000009999123100000010000000000000BRALPAACNOR0231
012024061402ALPA4       010ALPARGATAS  PN      N1   R$  000000000093000000000009430000000000909000000000091800000000009150000000000915000000000091705921000000000004501100000000004132309000000000000000009999123100000010000000000000BRALPAACNPR7232
012024061402ALPK3       010ESTAPAR     ON      NM   R$  000000000030000000000003040000000000280000000000028800000000002800000000000280000000000028100647000000000000206300000000000059454700000000000000009999123100000010000000000000BRALPKACNOR9101
012024061402ALUP11      010ALUPAR      UNT     N2   R$  000000000295700000000029590000000002929000000000294400000000029490000000002945000000000295002214000000000000577900000000001701850900000000000000009999123100000010000000000000BRALUPCDAM15119
012024061402ALUP3       010ALUPAR      ON      N2   R$  000000000099300000000009940000000000974000000000098200000000009840000000000983000000000098400022000000000000003700000000000003636100000000000000009999123100000010000000000000BRALUPACNOR8119
012024061402ALUP4       010ALUPAR      PN      N2   R$  000000000097500000000009840000000000973000000000097800000000009730000000000974000000000098300046000000000000005900000000000005770200000000000000009999123100000010000000000000BRALUPACNPR5119
012024061402AMAR3       010LOJAS MARISAON  ES  NM   R$  000000000015100000000001600000000000151000000000015500000000001550000000000155000000000015700926000000000000988100000000000153159100000000000000009999123100000010000000000000BRAMARACNOR4115
012024061402AMBP3       010AMBIPAR     ON      NM   R$  000000000086100000000008810000000000840000000000085100000000008400000000000840000000000084402409000000000000828000000000000705308000000000000000009999123100000010000000000000BRAMBPACNOR6103
012024061402BBDC3       010BRADESCO    ON      N1   R$  000000000112900000000011390000000001122000000000113200000000011380000000001138000000000113908742000000000003958900000000004482065500000000000000009999123100000010000000000000BRBBDCACNOR1770
012024061402BBDC4       010BRADESCO    PN      N1   R$  000000000127200000000012860000000001263000000000127500000000012830000000001282000000000128445515000000000043737800000000055771464000000000000000009999123100000010000000000000BRBBDCACNPR8770
012024061402TAEE11      010TAESA       UNT     N2   R$  000000000333600000000033510000000003330000000000333700000000033350000000003335000000000334305284000000000001534200000000005120938700000000000000009999123100000010000000000000BRTAEECDAM10147
012024061402TAEE3       010TAESA       ON      N2   R$  000000000110900000000011140000000001105000000000110900000000011080000000001108000000000111300725000000000000133300000000000147870000000000000000009999123100000010000000000000BRTAEEACNOR9147
012024061402TAEE4       010TAESA       PN      N2   R$  000000000111800000000011210000000001114000000000111600000000011190000000001117000000000111901055000000000000251000000000000280315900000000000000009999123100000010000000000000BRTAEEACNPR6147
012024061402VAMO3       010VAMOS       ON      NM   R$  000000000069100000000007320000000000691000000000071300000000007310000000000730000000000073110325000000000006740100000000004806005200000000000000009999123100000010000000000000BRVAMOACNOR7105
012024061402RAPT3       010RANDON PART ON      N1   R$  000000000079200000000007930000000000786000000000079000000000007910000000000786000000000079100068000000000000043300000000000034231900000000000000009999123100000010000000000000BRRAPTACNOR7162
012024061402RAPT4       010RANDON PART PN      N1   R$  000000000093000000000009330000000000911000000000092600000000009330000000000929000000000093302446000000000001154900000000001069450900000000000000009999123100000010000000000000BRRAPTACNPR4162
012024061402JHSF3       010JHSF PART   ON      NM   R$  000000000038000000000003820000000000373000000000037700000000003750000000000375000000000037703331000000000002706700000000001021445000000000000000009999123100000010000000000000BRJHSFACNOR2136
012024061402MRSA3B      010MRS LOGIST  ON      MB   R$  000000000295000000000029500000000002950000000000295000000000029500000000002656000000000390000001000000000000000400000000000001180000000000000000009999123100000010000000000000BRMRSAACNOR6125
012024061402MRVE3       010MRV         ON      NM   R$  000000000066000000000006970000000000656000000000068000000000006850000000000685000000000068712099000000000009880200000000006728070700000000000000009999123100000010000000000000BRMRVEACNOR2127
012024061402AALR3       010ALLIAR      ON      NM   R$  000000000098500000000009980000000000946000000000096600000000009700000000000968000000000097000213000000000000054500000000000052701200000000000000009999123100000010000000000000BRAALRACNOR6102
012024061402ABCB4       010ABC BRASIL  PN      N2   R$  000000000208400000000021110000000002070000000000209700000000020960000000002096000000000210001546000000000000283000000000000593728500000000000000009999123100000010000000000000BRABCBACNPR4145
012024061402ABEV3       010AMBEV S/A   ON           R$  000000000110900000000011280000000001098000000000111700000000011240000000001123000000000112528586000000000022356900000000024987399200000000000000009999123100000010000000000000BRABEVACNOR1127
012024061402BMEB4       010MERCANTIL   PN      N1   R$  000000000265000000000026840000000002640000000000265200000000026400000000002640000000000265000022000000000000004400000000000011672000000000000000009999123100000010000000000000BRBMEBACNPR5210
012024061402BMGB4       010BANCO BMG   PN      N1   R$  000000000031600000000003200000000000312000000000031500000000003190000000000318000000000032000672000000000000238600000000000075392300000000000000009999123100000010000000000000BRBMGBACNPR0109
012024061402BMIN4       010MERC INVEST PN           R$  000000000157500000000015750000000001575000000000157500000000015750000000001530000000000165900002000000000000000600000000000000945000000000000000009999123100000010000000000000BRBMINACNPR1176
012024061402BMKS3       010BIC MONARK  ON           R$  000000003649800000000364980000000033200000000003487400000000332000000000033200000000003580000004000000000000000004000000000000139497000000000000009999123100000010000000000000BRBMKSACNOR9166
012024061402BMOB3       010BEMOBI TECH ON      NM   R$  000000000130600000000013410000000001288000000000131700000000013280000000001326000000000132902865000000000000696700000000000917586500000000000000009999123100000010000000000000BRBMOBACNOR7103
012024061402BOBR4       010BOMBRIL     PN           R$  000000000020500000000002060000000000199000000000020200000000002040000000000201000000000020400017000000000000005800000000000001176300000000000000009999123100000010000000000000BRBOBRACNPR3128
012024061402BRSR3       010BANRISUL    ON      N1   R$  000000000118900000000011890000000001153000000000115900000000011560000000001156000000000116200051000000000000008600000000000009971400000000000000009999123100000010000000000000BRBRSRACNOR3187
012024061402BRSR6       010BANRISUL    PNB     N1   R$  000000000109500000000011060000000001087000000000109500000000011000000000001100000000000110102807000000000000958800000000001050545400000000000000009999123100000010000000000000BRBRSRACNPB4190
012024061402BSLI3       010BRB BANCO   ON           R$  000000000092100000000009210000000000921000000000092100000000009210000000000922000000000095800001000000000000000100000000000000092100000000000000009999123100000010000000000000BRBSLIACNOR5194
012024061402CAMB3       010CAMBUCI     ON  EJ       R$  000000000103000000000010450000000001019000000000103200000000010450000000001031000000000104500060000000000000029200000000000030138100000000000000009999123100000010000000000000BRCAMBACNOR4130
012024061402CAML3       010CAMIL       ON      NM   R$  000000000089600000000009090000000000883000000000090000000000009040000000000901000000000090502991000000000000480600000000000432631700000000000000009999123100000010000000000000BRCAMLACNOR3128
012024061402CASH3       010MELIUZ      ON      NM   R$  000000000058700000000005920000000000570000000000057900000000005860000000000584000000000058602213000000000000965700000000000559854600000000000000009999123100000010000000000000BRCASHACNOR8106
012024061402CBAV3       010CBA         ON      NM   R$  000000000065200000000006570000000000622000000000064300000000006530000000000653000000000065406239000000000004089400000000002630679300000000000000009999123100000010000000000000BRCBAVACNOR5104
012024061402CCRO3       010CCR SA      ON      NM   R$  000000000114900000000011730000000001140000000000116000000000011590000000001158000000000116007201000000000004736000000000005497617600000000000000009999123100000010000000000000BRCCROACNOR2145
012024061402ELMD3       010ELETROMIDIA ON      NM   R$  000000000175500000000017880000000001728000000000176200000000017620000000001762000000000177500279000000000000044300000000000078056800000000000000009999123100000010000000000000BRELMDACNOR3101
012024061402EMAE4       010EMAE        PN           R$  000000000467800000000046780000000004618000000000464500000000046500000000004619000000000468000007000000000000001000000000000004645900000000000000009999123100000010000000000000BREMAEACNPR1125
012024061402EMBR3       010EMBRAER     ON      NM   R$  000000000394300000000039460000000003724000000000379000000000037330000000003732000000000373426922000000000007871400000000029833481500000000000000009999123100000010000000000000BREMBRACNOR4191
012024061402MATD3       010MATER DEI   ON      NM   R$  000000000048000000000004960000000000478000000000048800000000004870000000000487000000000049100388000000000000126800000000000061968800000000000000009999123100000010000000000000BRMATDACNOR4104
012024061402MBLY3       010MOBLY       ON      NM   R$  000000000020900000000002150000000000206000000000021100000000002090000000000209000000000021300101000000000000245500000000000052020400000000000000009999123100000010000000000000BRMBLYACNOR5100
012024061402MDIA3       010M.DIASBRANCOON      NM   R$  000000000301500000000030730000000002996000000000304800000000030510000000003049000000000305301625000000000000434300000000001323903200000000000000009999123100000010000000000000BRMDIAACNOR7134
012024061402RADL3       010RAIADROGASILON      NM   R$  000000000249300000000025870000000002493000000000255700000000025700000000002570000000000257115410000000000005630600000000014400061400000000000000009999123100000010000000000000BRRADLACNOR0156
012024061402SMFT3       010SMART FIT   ON      NM   R$  000000000218000000000022000000000002152000000000217500000000021730000000002173000000000217505173000000000001390400000000003025146200000000000000009999123100000010000000000000BRSMFTACNOR1111
012024061402SMTO3       010SAO MARTINHOON      NM   R$  000000000308100000000031340000000002994000000000305400000000030740000000003070000000000307410312000000000002825600000000008630257000000000000000009999123100000010000000000000BRSMTOACNOR3125
012024061402YDUQ3       010YDUQS PART  ON      NM   R$  000000000112000000000011460000000001108000000000112300000000011220000000001118000000000112206586000000000003476900000000003907312900000000000000009999123100000010000000000000BRYDUQACNOR3105
012024061402ZAMP3       010ZAMP S.A.   ON           R$  000000000033900000000003620000000000333000000000035300000000003550000000000354000000000035704018000000000000849000000000000299698100000000000000009999123100000010000000000000BRZAMPACNOR5100
012024061402RAIL3       010RUMO S.A.   ON      NM   R$  000000000193300000000019800000000001924000000000196300000000019770000000001962000000000197718513000000000009475500000000018608359500000000000000009999123100000010000000000000BRRAILACNOR9105
012024061402RAIZ4       010RAIZEN      PN      N2   R$  000000000028000000000002860000000000277000000000028100000000002800000000000280000000000028111569000000000017344400000000004874313100000000000000009999123100000010000000000000BRRAIZACNPR6110
012024061402RANI3       010IRANI       ON      NM   R$  000000000083000000000008390000000000824000000000082900000000008280000000000827000000000082801350000000000000330900000000000274536600000000000000009999123100000010000000000000BRRANIACNOR5072
012024061402SRNA3       010SERENA      ON      NM   R$  000000000085000000000008590000000000835000000000084300000000008440000000000840000000000084403688000000000001302400000000001097966200000000000000009999123100000010000000000000BRSRNAACNOR4100
012024061402STBP3       010SANTOS BRP  ON      NM   R$  000000000115000000000012000000000001149000000000118100000000011790000000001177000000000118006640000000000004177000000000004936187500000000000000009999123100000010000000000000BRSTBPACNOR3130
012024061402SUZB3       010SUZANO S.A. ON  ATZ NM   R$  000000000487000000000049180000000004808000000000488000000000048970000000004892000000000489914119000000000005534600000000027012972900000000000000009999123100000010000000000000BRSUZBACNOR0130
012024061402WEST3       010WESTWING    ON      NM   R$  000000000009800000000000990000000000096000000000009700000000000980000000000097000000000009800027000000000000017000000000000001650900000000000000009999123100000010000000000000BRWESTACNOR3100
012024061402WHRL3       010WHIRLPOOL   ON           R$  000000000045500000000004550000000000450000000000045300000000004500000000000446000000000045000005000000000000001100000000000000499000000000000000009999123100000010000000000000BRWHRLACNOR5128
012024061402WHRL4       010WHIRLPOOL   PN           R$  000000000046500000000004690000000000465000000000046500000000004650000000000465000000000046700005000000000000000600000000000000279500000000000000009999123100000010000000000000BRWHRLACNPR2128
012024061402WIZC3       010WIZ CO      ON      NM   R$  000000000058600000000005870000000000576000000000057900000000005760000000000576000000000058101346000000000000308100000000000178498700000000000000009999123100000010000000000000BRWIZCACNOR5102
012024061402WLMM4       010WLM IND COM PN           R$  000000000303200000000030680000000003032000000000304900000000030580000000002900000000000305900011000000000000001200000000000003658900000000000000009999123100000010000000000000BRWLMMACNPR3118
012024061402RCSL3       010RECRUSUL    ON           R$  000000000037000000000003730000000000346000000000035400000000003480000000000348000000000034900640000000000000312100000000000110640200000000000000009999123100000010000000000000BRRCSLACNOR4134
012024061402RCSL4       010RECRUSUL    PN           R$  000000000011800000000001190000000000117000000000011700000000001180000000000117000000000011800533000000000000279300000000000032884400000000000000009999123100000010000000000000BRRCSLACNPR1134
012024061402RDNI3       010RNI         ON      NM   R$  000000000033000000000003300000000000324000000000032500000000003250000000000323000000000032900007000000000000002900000000000000943300000000000000009999123100000010000000000000BRRDNIACNOR9116
012024061402RDOR3       010REDE D OR   ON      NM   R$  000000000265600000000027190000000002635000000000268200000000026930000000002690000000000269311184000000000002379000000000006380536900000000000000009999123100000010000000000000BRRDORACNOR8112
012024061402RECV3       010PETRORECSA  ON  EJ  NM   R$  000000000183600000000018440000000001800000000000181700000000018070000000001806000000000180804843000000000001669900000000003034898700000000000000009999123100000010000000000000BRRECVACNOR3107
012024061402REDE3       010REDE ENERGIAON           R$  000000000067200000000006720000000000665000000000066800000000006710000000000668000000000067100010000000000000001200000000000000802400000000000000009999123100000010000000000000BRREDEACNOR7127
012024061402RENT3       010LOCALIZA    ON      NM   R$  000000000399200000000040700000000003977000000000402700000000040420000000004037000000000404323017000000000008598600000000034626666800000000000000009999123100000010000000000000BRRENTACNOR4195
012024061402GSHP3       010GENERALSHOPPON           R$  000000000105000000000010500000000001050000000000105000000000010500000000001050000000000109700002000000000000000200000000000000210000000000000000009999123100000010000000000000BRGSHPACNOR7102
012024061402GUAR3       010GUARARAPES  ON      NM   R$  000000000068300000000006960000000000667000000000067900000000006800000000000679000000000068003591000000000001095500000000000744253400000000000000009999123100000010000000000000BRGUARACNOR4173
012024061402BEES3       010BANESTES    ON           R$  000000000089200000000008950000000000880000000000088700000000008800000000000880000000000089000092000000000000017100000000000015184300000000000000009999123100000010000000000000BRBEESACNOR9391
012024061402BEES4       010BANESTES    PN           R$  000000000093800000000009430000000000938000000000093900000000009380000000000935000000000094500018000000000000003900000000000003664900000000000000009999123100000010000000000000BRBEESACNPR6316
012024061402BGIP3       010BANESE      ON           R$  000000000291800000000035000000000002918000000000328800000000032500000000003001000000000349900024000000000000002900000000000009536500000000000000009999123100000010000000000000BRBGIPACNOR1208
012024061402BGIP4       010BANESE      PN           R$  000000000229900000000023200000000002241000000000228800000000022410000000002241000000000229800013000000000000001400000000000003203400000000000000009999123100000010000000000000BRBGIPACNPR8208
012024061402BRAP3       010BRADESPAR   ON      N1   R$  000000000176500000000017650000000001745000000000175300000000017550000000001751000000000175500249000000000000048700000000000085414200000000000000009999123100000010000000000000BRBRAPACNOR5148
012024061402BRAP4       010BRADESPAR   PN      N1   R$  000000000182800000000018320000000001801000000000181200000000018010000000001800000000000180405176000000000002068400000000003748211000000000000000009999123100000010000000000000BRBRAPACNPR2148
012024061402BRBI11      010BR PARTNERS UNT     N2   R$  000000000130700000000013320000000001295000000000131300000000013220000000001310000000000132201714000000000000334200000000000439106000000000000000009999123100000010000000000000BRBRBICDAM10109
012024061402BRFS3       010BRF SA      ON      NM   R$  000000000184600000000018750000000001843000000000185900000000018630000000001862000000000186411484000000000003637600000000006765766900000000000000009999123100000010000000000000BRBRFSACNOR8122
012024061402CSED3       010CRUZEIRO EDUON      NM   R$  000000000038500000000003920000000000380000000000038400000000003850000000000383000000000038600698000000000000339900000000000130670400000000000000009999123100000010000000000000BRCSEDACNOR9104
012024061402CSMG3       010COPASA      ON      NM   R$  000000000196500000000019740000000001947000000000196100000000019610000000001961000000000196702202000000000000510900000000001002219300000000000000009999123100000010000000000000BRCSMGACNOR5173
012024061402CSNA3       010SID NACIONALON           R$  000000000119000000000012050000000001174000000000119600000000012030000000001203000000000120408063000000000005674700000000006791820700000000000000009999123100000010000000000000BRCSNAACNOR6261
012024061402DIRR3       010DIRECIONAL  ON      NM   R$  000000000255700000000025640000000002503000000000253500000000025270000000002527000000000253404504000000000001807900000000004583714100000000000000009999123100000010000000000000BRDIRRACNOR0117
012024061402DMVF3       010D1000VFARMA ON      NM   R$  000000000069500000000007040000000000691000000000069600000000007000000000000695000000000070000219000000000000064400000000000044876200000000000000009999123100000010000000000000BRDMVFACNOR9100
012024061402DOHL4       010DOHLER      PN           R$  000000000040300000000004160000000000402000000000040700000000004160000000000405000000000041600005000000000000000800000000000000326100000000000000009999123100000010000000000000BRDOHLACNPR9066
012024061402DOTZ3       010DOTZ SA     ON      NM   R$  000000000077900000000007790000000000747000000000075600000000007580000000000739000000000075800031000000000000007400000000000005601500000000000000009999123100000010000000000000BRDOTZACNOR7101
012024061402DXCO3       010DEXCO       ON      NM   R$  000000000066600000000006800000000000657000000000066900000000006700000000000669000000000067204907000000000001416900000000000949223200000000000000009999123100000010000000000000BRDXCOACNOR8105
012024061402EALT4       010ACO ALTONA  PN           R$  000000000109700000000011380000000001074000000000111100000000011350000000001094000000000113500085000000000000012000000000000013332600000000000000009999123100000010000000000000BREALTACNPR1138
012024061402VITT3       010VITTIA      ON      NM   R$  000000000053300000000005480000000000525000000000053400000000005450000000000538000000000054502287000000000001241300000000000663436500000000000000009999123100000010000000000000BRVITTACNOR4107
012024061402VIVA3       010VIVARA S.A. ON      NM   R$  000000000199900000000020450000000001981000000000202200000000020350000000002024000000000203607560000000000003107200000000006284694000000000000000009999123100000010000000000000BRVIVAACNOR0107
012024061402VIVR3       010VIVER       ON      NM   R$  000000000021400000000002150000000000201000000000020600000000002020000000000202000000000020500126000000000000112500000000000023286900000000000000009999123100000010000000000000BRVIVRACNOR4122
012024061402VIVT3       010TELEF BRASILON           R$  000000000440300000000045050000000004380000000000446200000000044900000000004486000000000450411512000000000002950300000000013166503100000000000000009999123100000010000000000000BRVIVTACNOR0181
012024061402PETZ3       010PETZ        ON      NM   R$  000000000033800000000003570000000000333000000000034700000000003500000000000350000000000035107379000000000013293500000000004623309900000000000000009999123100000010000000000000BRPETZACNOR2110
012024061402CPLE3       010COPEL       ON      N2   R$  000000000082900000000008370000000000815000000000083200000000008330000000000832000000000083311050000000000019421100000000016168033100000000000000009999123100000010000000000000BRCPLEACNOR8149
012024061402CPLE6       010COPEL       PNB     N2   R$  000000000092800000000009400000000000913000000000093000000000009350000000000934000000000093515357000000000014595400000000013577078200000000000000009999123100000010000000000000BRCPLEACNPB9146
012024061402FESA3       010FERBASA     ON  EJ  N1   R$  000000000138500000000013860000000001384000000000138400000000013860000000001350000000000138600007000000000000001000000000000001384900000000000000009999123100000010000000000000BRFESAACNOR8188
012024061402FESA4       010FERBASA     PN  EJ  N1   R$  000000000076900000000007740000000000762000000000076700000000007670000000000766000000000077001424000000000000380900000000000292216200000000000000009999123100000010000000000000BRFESAACNPR5084
012024061402FHER3       010FER HERINGERON      NM   R$  000000000037800000000003840000000000375000000000037600000000003750000000000372000000000038400010000000000000004400000000000001654400000000000000009999123100000010000000000000BRFHERACNOR5103
012024061402FIQE3       010UNIFIQUE    ON      NM   R$  000000000037000000000003750000000000360000000000036900000000003700000000000369000000000037000552000000000000562300000000000207955700000000000000009999123100000010000000000000BRFIQEACNOR5106
012024061402FLRY3       010FLEURY      ON      NM   R$  000000000142100000000014380000000001414000000000142200000000014200000000001420000000000142903362000000000000811300000000001154288400000000000000009999123100000010000000000000BRFLRYACNOR5138
012024061402FRAS3       010FRAS-LE     ON      N1   R$  000000000168700000000017130000000001674000000000169600000000017030000000001689000000000170400652000000000000209500000000000355489000000000000000009999123100000010000000000000BRFRASACNOR0159
012024061402BBSE3       010BBSEGURIDADEON      NM   R$  000000000325000000000032630000000003221000000000324700000000032460000000003245000000000324710015000000000003045100000000009888750300000000000000009999123100000010000000000000BRBBSEACNOR5124
012024061402BPAC11      010BTGP BANCO  UNT     N2   R$  000000000317400000000031990000000003148000000000317400000000031900000000003182000000000319023309000000000011886600000000037738058400000000000000009999123100000010000000000000BRBPACUNT006118
012024061402CPFE3       010CPFL ENERGIAON      NM   R$  000000000325000000000032840000000003211000000000324600000000032730000000003273000000000328104638000000000001683100000000005463587400000000000000009999123100000010000000000000BRCPFEACNOR0137
012024061402GEPA4       010GER PARANAP PN           R$  000000000253000000000025300000000002530000000000253000000000025300000000002500000000000253000002000000000000000200000000000000506000000000000000009999123100000010000000000000BRGEPAACNPR9160
012024061402GFSA3       010GAFISA      ON      NM   R$  000000000036600000000003770000000000357000000000036500000000003600000000000360000000000036202279000000000001884200000000000688824700000000000000009999123100000010000000000000BRGFSAACNOR3124
012024061402GGBR3       010GERDAU      ON      N1   R$  000000000156500000000015670000000001520000000000153000000000015200000000001520000000000153100496000000000000080400000000000123016500000000000000009999123100000010000000000000BRGGBRACNOR1192
012024061402GGBR4       010GERDAU      PN      N1   R$  000000000172200000000017220000000001687000000000169800000000017000000000001699000000000170017486000000000010989900000000018666945100000000000000009999123100000010000000000000BRGGBRACNPR8192
012024061402BEEF3       010MINERVA     ON      NM   R$  000000000061400000000006290000000000609000000000061900000000006160000000000615000000000061804069000000000004861500000000003009843100000000000000009999123100000010000000000000BRBEEFACNOR6116
012024061402BPAC3       010BTGP BANCO  ON      N2   R$  000000000157500000000015990000000001575000000000159100000000015910000000001547000000000159900008000000000000000800000000000001272800000000000000009999123100000010000000000000BRBPACACNOR7133
012024061402BPAC5       010BTGP BANCO  PNA     N2   R$  000000000079500000000007990000000000776000000000078300000000007760000000000775000000000079100031000000000000005400000000000004229800000000000000009999123100000010000000000000BRBPACACNPA0133
012024061402ITSA3       010ITAUSA      ON      N1   R$  000000000096600000000009660000000000956000000000096000000000009620000000000960000000000096300288000000000000122400000000000117539600000000000000009999123100000010000000000000BRITSAACNOR0440
012024061402ITSA4       010ITAUSA      PN      N1   R$  000000000095700000000009610000000000951000000000095500000000009570000000000956000000000095719383000000000017444200000000016662343800000000000000009999123100000010000000000000BRITSAACNPR7440
012024061402LUPA3       010LUPATECH    ON      NM   R$  000000000015900000000001610000000000158000000000015900000000001590000000000158000000000015900121000000000000106400000000000016993900000000000000009999123100000010000000000000BRLUPAACNOR8112
012024061402LUXM4       010TREVISA     PN           R$  000000000131000000000013990000000001310000000000134800000000013990000000001320000000000139900008000000000000000800000000000001078800000000000000009999123100000010000000000000BRLUXMACNPR4052
012024061402LVTC3       010WDC NETWORKSON      NM   R$  000000000033900000000003460000000000334000000000033700000000003360000000000336000000000033900029000000000000006000000000000002024800000000000000009999123100000010000000000000BRLVTCACNOR4102
012024061402LWSA3       010LWSA        ON      NM   R$  000000000041300000000004290000000000413000000000042100000000004200000000000419000000000042004467000000000006081000000000002561604100000000000000009999123100000010000000000000BRLWSAACNOR8103
012024061402PCAR3       010P.ACUCAR-CBDON      NM   R$  000000000030000000000003080000000000294000000000030100000000003030000000000302000000000030308584000000000018094300000000005448404400000000000000009999123100000010000000000000BRPCARACNOR3167
012024061402PDGR3       010PDG REALT   ON      NM   R$  000000000001900000000000210000000000019000000000001900000000000190000000000019000000000002000341000000000001617300000000000031881300000000000000009999123100000010000000000000BRPDGRACNOR8118
012024061402PDTC3       010PADTEC      ON      NM   R$  000000000018400000000001870000000000182000000000018300000000001820000000000182000000000018400052000000000000035800000000000006575100000000000000009999123100000010000000000000BRPDTCACNOR3101
012024061402PETR3       010PETROBRAS   ON  EDJ N2   R$  000000000370800000000037120000000003607000000000366800000000036630000000003662000000000366323634000000000012412300000000045531944200000000000000009999123100000010000000000000BRPETRACNOR9205
012024061402PETR4       010PETROBRAS   PN  EDJ N2   R$  000000000354900000000035500000000003415000000000348500000000034680000000003468000000000347078974000000000053519200000000186534211300000000000000009999123100000010000000000000BRPETRACNPR6213
012024061402ANIM3       010ANIMA       ON      NM   R$  000000000032700000000003350000000000320000000000032700000000003260000000000326000000000032708288000000000003959300000000001295978500000000000000009999123100000010000000000000BRANIMACNOR6107
012024061402APER3       010ALPER S.A.  ON           R$  000000000441900000000044490000000004372000000000441100000000043810000000004374000000000444900006000000000000000700000000000003088100000000000000009999123100000010000000000000BRAPERACNOR9106
012024061402ARML3       010ARMAC       ON      NM   R$  000000000097100000000009860000000000957000000000097200000000009740000000000974000000000097801701000000000000329200000000000320303500000000000000009999123100000010000000000000BRARMLACNOR1111
012024061402ARZZ3       010AREZZO CO   ON      NM   R$  000000000490000000000050570000000004881000000000498800000000050260000000005019000000000502810014000000000001970100000000009828294500000000000000009999123100000010000000000000BRARZZACNOR3146
012024061402ASAI3       010ASSAI       ON      NM   R$  000000000114500000000011770000000001141000000000116400000000011660000000001165000000000116607771000000000004782900000000005568610200000000000000009999123100000010000000000000BRASAIACNOR0106
012024061402ESPA3       010ESPACOLASER ON      NM   R$  000000000010900000000001090000000000107000000000010700000000001070000000000107000000000010800063000000000000110900000000000011963600000000000000009999123100000010000000000000BRESPAACNOR7103
012024061402ESTR4       010ESTRELA     PN           R$  000000000019900000000001990000000000199000000000019900000000001990000000000191000000000020400001000000000000000100000000000000019900000000000000009999123100000010000000000000BRESTRACNPR0144
012024061402EUCA4       010EUCATEX     PN      N1   R$  000000000143100000000014600000000001427000000000143900000000014310000000001430000000000144800433000000000000089100000000000128276700000000000000009999123100000010000000000000BREUCAACNPR8044
012024061402CMIN3       010CSNMINERACAOON      N2   R$  000000000050000000000005000000000000486000000000049000000000004880000000000487000000000048807794000000000004757200000000002333425900000000000000009999123100000010000000000000BRCMINACNOR2111
012024061402COCE5       010COELCE      PNA          R$  000000000303700000000030820000000003037000000000307100000000030740000000003055000000000307500024000000000000002500000000000007677600000000000000009999123100000010000000000000BRCOCEACNPA3147
012024061402COGN3       010COGNA ON    ON      NM   R$  000000000016600000000001680000000000163000000000016500000000001670000000000166000000000016707413000000000036990000000000006128755600000000000000009999123100000010000000000000BRCOGNACNOR2104
012024061402ENAT3       010ENAUTA PART ON      NM   R$  000000000207500000000020850000000002032000000000204700000000020500000000002045000000000205205769000000000001570000000000003214589300000000000000009999123100000010000000000000BRENATACNOR0104
012024061402ENEV3       010ENEVA       ON  ATZ NM   R$  000000000123900000000012620000000001227000000000124900000000012500000000001250000000000125208764000000000004127400000000005157138100000000000000009999123100000010000000000000BRENEVACNOR8106
012024061402ENGI11      010ENERGISA    UNT     N2   R$  000000000445500000000045500000000004380000000000449500000000045370000000004529000000000453907224000000000001771600000000007963638500000000000000009999123100000010000000000000BRENGICDAM16135
012024061402ENGI3       010ENERGISA    ON      N2   R$  000000000139500000000014150000000001374000000000140400000000014150000000001373000000000141500025000000000000003900000000000005476600000000000000009999123100000010000000000000BRENGIACNOR0145
012024061402ENGI4       010ENERGISA    PN      N2   R$  000000000076600000000007890000000000750000000000076100000000007860000000000766000000000078600059000000000000018000000000000013709000000000000000009999123100000010000000000000BRENGIACNPR7141
012024061402ENJU3       010ENJOEI      ON      NM   R$  000000000021300000000002250000000000213000000000021900000000002160000000000216000000000022000601000000000000436800000000000095772700000000000000009999123100000010000000000000BRENJUACNOR9100
012024061402ENMT4       010ENERGISA MT PN           R$  000000000535000000000056990000000005350000000000543400000000056990000000005501000000000578000007000000000000001300000000000007064900000000000000009999123100000010000000000000BRENMTACNPR2125
012024061402EPAR3       010EMBPAR S/A  ON           R$  000000000059700000000006050000000000591000000000059500000000005910000000000591000000000059300063000000000000022400000000000013337500000000000000009999123100000010000000000000BREPARACNOR9105
012024061402EQMA3B      010EQTLMARANHAOON      MB   R$  000000000273900000000027390000000002739000000000273900000000027390000000002601000000000273000001000000000000000100000000000000273900000000000000009999123100000010000000000000BREQMAACNOR8108
012024061402EQPA3       010EQTL PARA   ON           R$  000000000070100000000007010000000000681000000000068800000000006810000000000681000000000069200017000000000000002100000000000001446700000000000000009999123100000010000000000000BREQPAACNOR1111
012024061402EQTL3       010EQUATORIAL  ON      NM   R$  000000000289400000000029950000000002860000000000295400000000029780000000002975000000000297923731000000000010039000000000029662345400000000000000009999123100000010000000000000BREQTLACNOR0130
012024061402JOPA3       010JOSAPAR     ON           R$  000000000210000000000021000000000002100000000000210000000000021000000000002100000000000230000001000000000000000100000000000000210000000000000000009999123100000010000000000000BRJOPAACNOR5135
012024061402JSLG3       010JSL         ON      NM   R$  000000000089400000000009070000000000889000000000089900000000009060000000000905000000000090702277000000000000586500000000000527681700000000000000009999123100000010000000000000BRJSLGACNOR2121
012024061402KEPL3       010KEPLER WEBERON      NM   R$  000000000098600000000009960000000000981000000000098900000000009880000000000987000000000099301971000000000000742400000000000734790100000000000000009999123100000010000000000000BRKEPLACNOR1062
012024061402KLBN11      010KLABIN S/A  UNT     N2   R$  000000000203500000000020370000000001998000000000202100000000020360000000002035000000000203710903000000000004503900000000009103794300000000000000009999123100000010000000000000BRKLBNCDAM18142
012024061402KLBN3       010KLABIN S/A  ON      N2   R$  000000000041000000000004100000000000402000000000040500000000004070000000000406000000000040800644000000000000255200000000000103551000000000000000009999123100000010000000000000BRKLBNACNOR2170
012024061402KLBN4       010KLABIN S/A  PN      N2   R$  000000000040700000000004070000000000400000000000040300000000004030000000000403000000000040401825000000000001349600000000000544489400000000000000009999123100000010000000000000BRKLBNACNPR9170
012024061402MTRE3       010MITRE REALTYON      NM   R$  000000000035000000000003500000000000338000000000034500000000003460000000000345000000000034601806000000000001094200000000000377607900000000000000009999123100000010000000000000BRMTREACNOR6111
012024061402MTSA4       010METISA      PN           R$  000000000412300000000041260000000004002000000000405600000000040370000000003982000000000403700050000000000000007000000000000028393300000000000000009999123100000010000000000000BRMTSAACNPR9072
012024061402MULT3       010MULTIPLAN   ON      N2   R$  000000000224500000000022710000000002221000000000224900000000022460000000002245000000000225808421000000000002137200000000004808189800000000000000009999123100000010000000000000BRMULTACNOR5138
012024061402MYPK3       010IOCHP-MAXIONON      NM   R$  000000000103400000000010710000000001021000000000105100000000010710000000001060000000000107205064000000000001479100000000001555213900000000000000009999123100000010000000000000BRMYPKACNOR7154
012024061402NEOE3       010NEOENERGIA  ON      NM   R$  000000000181000000000018260000000001789000000000180200000000018250000000001825000000000182604614000000000001833100000000003304300800000000000000009999123100000010000000000000BRNEOEACNOR3122
012024061402NGRD3       010NEOGRID     ON      NM   R$  000000000008200000000000830000000000077000000000008000000000000800000000000080000000000008100746000000000000961100000000000077299000000000000000009999123100000010000000000000BRNGRDACNOR3104
012024061402NINJ3       010GETNINJAS   ON      NM   R$  000000000046200000000004670000000000456000000000046000000000004600000000000451000000000046000052000000000000009600000000000004417300000000000000009999123100000010000000000000BRNINJACNOR5101
012024061402NORD3       010NORDON MET  ON           R$  000000000070000000000007010000000000700000000000070000000000007010000000000652000000000073800002000000000000000600000000000000420100000000000000009999123100000010000000000000BRNORDACNOR7135
012024061402NTCO3       010GRUPO NATURAON      NM   R$  000000000148600000000015180000000001458000000000148000000000014800000000001480000000000148213117000000000009902100000000014657965600000000000000009999123100000010000000000000BRNTCOACNOR5106
012024061402HAGA3       010HAGA S/A    ON           R$  000000000025500000000002620000000000255000000000025600000000002620000000000256000000000026200013000000000000005300000000000001359800000000000000009999123100000010000000000000BRHAGAACNOR7103
012024061402HAGA4       010HAGA S/A    PN           R$  000000000011700000000001170000000000116000000000011600000000001170000000000116000000000011700011000000000000009200000000000001074200000000000000009999123100000010000000000000BRHAGAACNPR4103
012024061402HAPV3       010HAPVIDA     ON      NM   R$  000000000037300000000003810000000000370000000000037400000000003750000000000374000000000037522938000000000041965700000000015718986600000000000000009999123100000010000000000000BRHAPVACNOR4114
012024061402HBOR3       010HELBOR      ON      NM   R$  000000000021600000000002190000000000212000000000021500000000002140000000000214000000000021500343000000000000329400000000000070969700000000000000009999123100000010000000000000BRHBORACNOR3118
012024061402HBRE3       010HBR REALTY  ON      NM   R$  000000000047000000000004810000000000468000000000047500000000004770000000000477000000000047800582000000000000271200000000000128834900000000000000009999123100000010000000000000BRHBREACNOR4100
012024061402HBSA3       010HIDROVIAS   ON      NM   R$  000000000035900000000003620000000000358000000000036000000000003620000000000361000000000036204576000000000003117900000000001123655300000000000000009999123100000010000000000000BRHBSAACNOR0100
012024061402CEAB3       010CEA MODAS   ON      NM   R$  000000000093300000000009840000000000933000000000095700000000009580000000000957000000000095906150000000000002573500000000002463949500000000000000009999123100000010000000000000BRCEABACNOR1102
012024061402CEBR3       010CEB         ON           R$  000000000208300000000020840000000002011000000000204500000000020500000000002050000000000207900020000000000000002500000000000005113700000000000000009999123100000010000000000000BRCEBRACNOR5125
012024061402CEBR5       010CEB         PNA          R$  000000000184400000000018500000000001820000000000184200000000018200000000001817000000000183900023000000000000006500000000000011975800000000000000009999123100000010000000000000BRCEBRACNPA8124
012024061402CEBR6       010CEB         PNB          R$  000000000198800000000019880000000001957000000000196800000000019570000000001955000000000197900015000000000000002100000000000004133400000000000000009999123100000010000000000000BRCEBRACNPB6124
012024061402CEDO3       010CEDRO       ON      N1   R$  000000000270000000000027000000000002700000000000270000000000027000000000000002000000000300000001000000000000000200000000000000540000000000000000009999123100000010000000000000BRCEDOACNOR8096
012024061402CEDO4       010CEDRO       PN      N1   R$  000000000260000000000026000000000002600000000000260000000000026000000000001655000000000250000003000000000000001000000000000002600000000000000000009999123100000010000000000000BRCEDOACNPR5128
012024061402CGAS3       010COMGAS      ON           R$  000000001100000000000110000000000011000000000001100000000000110000000000010526000000001119700001000000000000000100000000000001100000000000000000009999123100000010000000000000BRCGASACNOR0163
012024061402CGAS5       010COMGAS      PNA          R$  000000001165000000000116500000000011650000000001165000000000116500000000011001000000001165000002000000000000000300000000000003495000000000000000009999123100000010000000000000BRCGASACNPA3160
012024061402CGRA3       010GRAZZIOTIN  ON           R$  000000000246800000000024680000000002450000000000245900000000024500000000002450000000000247000014000000000000002200000000000005411500000000000000009999123100000010000000000000BRCGRAACNOR2082
012024061402CGRA4       010GRAZZIOTIN  PN           R$  000000000253200000000025320000000002505000000000252000000000025210000000002510000000000252100020000000000000003300000000000008316600000000000000009999123100000010000000000000BRCGRAACNPR9082
012024061402CIEL3       010CIELO       ON      NM   R$  000000000056200000000005640000000000560000000000056100000000005640000000000562000000000056405411000000000048353400000000027138999300000000000000009999123100000010000000000000BRCIELACNOR3157
012024061402CLSA3       010CLEARSALE   ON      NM   R$  000000000070600000000007320000000000692000000000071300000000007080000000000707000000000070804128000000000001624600000000001159762800000000000000009999123100000010000000000000BRCLSAACNOR0100
012024061402CLSC3       010CELESC      ON      N2   R$  000000000689500000000068950000000006895000000000689500000000068950000000006297000000000699800001000000000000000100000000000000689500000000000000009999123100000010000000000000BRCLSCACNOR6151
012024061402CLSC4       010CELESC      PN      N2   R$  000000000695700000000070340000000006950000000000695600000000070160000000006950000000000703900022000000000000005800000000000040347300000000000000009999123100000010000000000000BRCLSCACNPR3130
012024061402CMIG3       010CEMIG       ON      N1   R$  000000000123600000000012430000000001223000000000123400000000012350000000001233000000000123700575000000000000124400000000000153581600000000000000009999123100000010000000000000BRCMIGACNOR6241
012024061402CMIG4       010CEMIG       PN      N1   R$  000000000101200000000010160000000000994000000000100000000000010010000000001000000000000100114488000000000011058000000000011067982000000000000000009999123100000010000000000000BRCMIGACNPR3242
012024061402JBSS3       010JBS         ON      NM   R$  000000000290300000000029100000000002840000000000287400000000028610000000002860000000000286214735000000000006742800000000019384985400000000000000009999123100000010000000000000BRJBSSACNOR8121
012024061402DASA3       010DASA        ON      NM   R$  000000000049300000000005290000000000417000000000047300000000004220000000000422000000000042408855000000000007965500000000003773314300000000000000009999123100000010000000000000BRDASAACNOR1122
012024061402HYPE3       010HYPERA      ON      NM   R$  000000000282700000000028920000000002818000000000286300000000028740000000002870000000000287506203000000000001551700000000004443115600000000000000009999123100000010000000000000BRHYPEACNOR0141
012024061402JALL3       010JALLESMACHADON      NM   R$  000000000065000000000006630000000000648000000000065500000000006560000000000655000000000066001254000000000000383400000000000251356900000000000000009999123100000010000000000000BRJALLACNOR0105
012024061402MILS3       010MILLS       ON      NM   R$  000000000101200000000010470000000001011000000000102900000000010210000000001020000000000102503711000000000001106100000000001138909700000000000000009999123100000010000000000000BRMILSACNOR2126
012024061402MLAS3       010MULTILASER  ON      NM   R$  000000000020000000000002020000000000194000000000019800000000001990000000000198000000000019903049000000000001966500000000000389601900000000000000009999123100000010000000000000BRMLASACNOR9101
012024061402MNDL3       010MUNDIAL     ON           R$  000000000118600000000011860000000001186000000000118600000000011860000000001152000000000123600001000000000000000100000000000000118600000000000000009999123100000010000000000000BRMNDLACNOR4109
012024061402MNPR3       010MINUPAR     ON           R$  000000000102500000000010500000000001003000000000103400000000010500000000001035000000000106900047000000000000025600000000000026472600000000000000009999123100000010000000000000BRMNPRACNOR5122
012024061402MOVI3       010MOVIDA      ON      NM   R$  000000000059500000000006140000000000588000000000060000000000006030000000000602000000000060405551000000000003433900000000002060408300000000000000009999123100000010000000000000BRMOVIACNOR0122
012024061402MRFG3       010MARFRIG     ON      NM   R$  000000000106300000000010820000000001048000000000106000000000010520000000001051000000000105415192000000000004412000000000004677226200000000000000009999123100000010000000000000BRMRFGACNOR0116
012024061402BAHI3       010BAHEMA      ON      MA   R$  000000000067400000000006750000000000674000000000067400000000006750000000000645000000000068000004000000000000001600000000000001079900000000000000009999123100000010000000000000BRBAHIACNOR1074
012024061402BALM4       010BAUMER      PN           R$  000000000097000000000009700000000000970000000000097000000000009700000000000971000000000099000001000000000000001000000000000000970000000000000000009999123100000010000000000000BRBALMACNPR2056
012024061402BAUH4       010EXCELSIOR   PN           R$  000000000784900000000078490000000007849000000000784900000000078490000000007600000000000785000001000000000000000100000000000000784900000000000000009999123100000010000000000000BRBAUHACNPR3118
012024061402BAZA3       010AMAZONIA    ON           R$  000000000894600000000090490000000008946000000000901100000000090490000000009053000000000939600005000000000000000600000000000005407000000000000000009999123100000010000000000000BRBAZAACNOR0179
012024061402BBAS3       010BRASIL      ON  EDJ NM   R$  000000000265500000000026660000000002631000000000264400000000026450000000002644000000000264526597000000000011146400000000029479083800000000000000009999123100000010000000000000BRBBASACNOR3324
012024061402UCAS3       010UNICASA     ON      NM   R$  000000000021600000000002220000000000216000000000021800000000002160000000000216000000000021700264000000000000033800000000000007394600000000000000009999123100000010000000000000BRUCASACNOR1113
012024061402UGPA3       010ULTRAPAR    ON      NM   R$  000000000222100000000022450000000002168000000000219100000000021750000000002174000000000218513263000000000004911600000000010765865800000000000000009999123100000010000000000000BRUGPAACNOR8155
012024061402RRRP3       0103R PETROLEUMON      NM   R$  000000000259800000000026140000000002561000000000258500000000025900000000002590000000000259407037000000000001934200000000005000500200000000000000009999123100000010000000000000BRRRRPACNOR5103
012024061402TASA3       010TAURUS ARMASON      N2   R$  000000000111000000000011310000000001101000000000110700000000011010000000001100000000000110800041000000000000008700000000000009636700000000000000009999123100000010000000000000BRTASAACNOR7104
012024061402TASA4       010TAURUS ARMASPN      N2   R$  000000000106500000000010700000000001054000000000106200000000010700000000001063000000000107000839000000000000233300000000000247889500000000000000009999123100000010000000000000BRTASAACNPR4104
012024061402TCSA3       010TECNISA     ON      NM   R$  000000000020500000000002090000000000202000000000020200000000002020000000000201000000000020200165000000000000172600000000000034946400000000000000009999123100000010000000000000BRTCSAACNOR3112
012024061402TECN3       010TECHNOS     ON      NM   R$  000000000043300000000004500000000000426000000000043900000000004430000000000439000000000044300383000000000000191100000000000083999600000000000000009999123100000010000000000000BRTECNACNOR6109
012024061402TELB4       010TELEBRAS    PN           R$  000000000090500000000009450000000000886000000000090700000000009000000000000900000000000092000047000000000000005400000000000004900000000000000000009999123100000010000000000000BRTELBACNPR9140
012024061402TEND3       010TENDA       ON      NM   R$  000000000112700000000011440000000001101000000000112600000000011340000000001128000000000113503462000000000001277200000000001438234900000000000000009999123100000010000000000000BRTENDACNOR4111
012024061402TFCO4       010TRACK FIELD PN      N2   R$  000000000117300000000011800000000001162000000000116800000000011650000000001165000000000118200200000000000000069700000000000081441000000000000000009999123100000010000000000000BRTFCOACNPR8113
012024061402TGMA3       010TEGMA       ON      NM   R$  000000000235300000000023910000000002314000000000233400000000023290000000002327000000000234400721000000000000101800000000000237659400000000000000009999123100000010000000000000BRTGMAACNOR7144
012024061402TIMS3       010TIM         ON      NM   R$  000000000156100000000015950000000001552000000000157900000000015870000000001586000000000158807951000000000004703500000000007429806400000000000000009999123100000010000000000000BRTIMSACNOR5116
012024061402TOTS3       010TOTVS       ON      NM   R$  000000000295500000000030870000000002948000000000303100000000030590000000003058000000000306221055000000000006030000000000018277513400000000000000009999123100000010000000000000BRTOTSACNOR8144
012024061402VBBR3       010VIBRA       ON      NM   R$  000000000206000000000020940000000002053000000000207200000000020720000000002072000000000208012371000000000003474900000000007202436700000000000000009999123100000010000000000000BRVBBRACNOR1107
012024061402QUAL3       010QUALICORP   ON      NM   R$  000000000017000000000001790000000000170000000000017400000000001740000000000173000000000017402076000000000001503600000000000262416000000000000000009999123100000010000000000000BRQUALACNOR6120
012024061402DESK3       010DESKTOP     ON      NM   R$  000000000150600000000015450000000001501000000000152600000000015310000000001528000000000153800656000000000000186100000000000284127600000000000000009999123100000010000000000000BRDESKACNOR2104
012024061402DEXP3       010DEXXOS PAR  ON      N1   R$  000000000102400000000010280000000001003000000000101500000000010030000000001003000000000101500105000000000000022600000000000022951000000000000000009999123100000010000000000000BRDEXPACNOR1105
012024061402DEXP4       010DEXXOS PAR  PN      N1   R$  000000000099100000000010010000000000991000000000099600000000010000000000001000000000000101500006000000000000004200000000000004184700000000000000009999123100000010000000000000BRDEXPACNPR8105
012024061402ITUB3       010ITAUUNIBANCOON      N1   R$  000000000271500000000027280000000002693000000000270400000000027140000000002711000000000271401093000000000000363900000000000984129100000000000000009999123100000010000000000000BRITUBACNOR4336
012024061402ITUB4       010ITAUUNIBANCOPN      N1   R$  000000000311300000000031370000000003094000000000311300000000031140000000003113000000000311725789000000000015416800000000047996212500000000000000009999123100000010000000000000BRITUBACNPR1336
012024061402ATOM3       010ATOMPAR     ON           R$  000000000020100000000002010000000000199000000000020000000000002010000000000199000000000020100006000000000000002000000000000000400100000000000000009999123100000010000000000000BRATOMACNOR1106
012024061402AURE3       010AUREN       ON      NM   R$  000000000121100000000012240000000001210000000000121700000000012180000000001218000000000122007548000000000008492900000000010339103300000000000000009999123100000010000000000000BRAUREACNOR9104
012024061402SNSY3       010SANSUY      ON           R$  000000000105800000000010590000000001058000000000105800000000010590000000000988000000000105500002000000000000000500000000000000529400000000000000009999123100000010000000000000BRSNSYACNOR2113
012024061402SOJA3       010BOA SAFRA   ON      NM   R$  000000000145800000000014810000000001440000000000145500000000014590000000001459000000000147402402000000000000885600000000001289395200000000000000009999123100000010000000000000BRSOJAACNOR9105
012024061402SOMA3       010GRUPO SOMA  ON      NM   R$  000000000057900000000005980000000000579000000000059000000000005900000000000590000000000059211664000000000007547200000000004456323500000000000000009999123100000010000000000000BRSOMAACNOR3102
012024061402VLID3       010VALID       ON      NM   R$  000000000154800000000015670000000001529000000000154700000000015480000000001548000000000155901961000000000000275400000000000426280200000000000000009999123100000010000000000000BRVLIDACNOR5143
012024061402VSTE3       010VESTE       ON      NM   R$  000000000168300000000017300000000001655000000000170400000000017300000000001662000000000173000065000000000000012300000000000020961200000000000000009999123100000010000000000000BRVSTEACNOR5103
012024061402VTRU3       010VITRUEDUCA  ON      NM   R$  000000000160500000000016220000000001555000000000159000000000015890000000001579000000000159900572000000000000106100000000000168742000000000000000009999123100000010000000000000BRVTRUACNOR3100
012024061402AVLL3       010ALPHAVILLE  ON      NM   R$  000000000032000000000003210000000000320000000000032000000000003200000000000300000000000032900009000000000000050500000000000016160100000000000000009999123100000010000000000000BRAVLLACNOR5103
012024061402AZEV3       010AZEVEDO     ON           R$  000000000012600000000001300000000000126000000000012700000000001280000000000127000000000012800302000000000000251400000000000032174100000000000000009999123100000010000000000000BRAZEVACNOR0121
012024061402AZEV4       010AZEVEDO     PN           R$  000000000012000000000001250000000000119000000000012000000000001200000000000119000000000012000618000000000001349300000000000163118300000000000000009999123100000010000000000000BRAZEVACNPR7121
012024061402AZUL4       010AZUL        PN      N2   R$  000000000091900000000009310000000000906000000000091600000000009120000000000912000000000091307077000000000008730000000000008000452500000000000000009999123100000010000000000000BRAZULACNPR4102
012024061402BPAN4       010BANCO PAN   PN      N1   R$  000000000086000000000008730000000000849000000000085800000000008570000000000857000000000086002103000000000000829500000000000711745400000000000000009999123100000010000000000000BRBPANACNPR1115
012024061402CRFB3       010CARREFOUR BRON      NM   R$  000000000093400000000009670000000000931000000000095100000000009520000000000950000000000095507562000000000003630700000000003456220300000000000000009999123100000010000000000000BRCRFBACNOR2116
012024061402CRPG5       010CRISTAL     PNA          R$  000000000295100000000029510000000002951000000000295100000000029510000000002933000000000299900001000000000000000100000000000000295100000000000000009999123100000010000000000000BRCRPGACNPA3119
012024061402CRPG6       010CRISTAL     PNB          R$  000000000290100000000029470000000002872000000000291000000000029150000000002915000000000296900005000000000000000500000000000001455100000000000000009999123100000010000000000000BRCRPGACNPB1119
012024061402CSAN3       010COSAN       ON  ED  NM   R$  000000000124600000000012790000000001235000000000126700000000012670000000001267000000000127018447000000000010837900000000013732581200000000000000009999123100000010000000000000BRCSANACNOR6126
012024061402CYRE3       010CYRELA REALTON      NM   R$  000000000189700000000019340000000001883000000000190400000000019040000000001904000000000190913301000000000006271300000000011945132000000000000000009999123100000010000000000000BRCYREACNOR7140
012024061402BIOM3       010BIOMM       ON      MA   R$  000000000141100000000014110000000001351000000000138500000000014010000000001373000000000140200655000000000000128700000000000178293700000000000000009999123100000010000000000000BRBIOMACNOR2112
012024061402BLAU3       010BLAU        ON      NM   R$  000000000100000000000010140000000000999000000000100500000000009990000000000999000000000100500983000000000000121300000000000121993200000000000000009999123100000010000000000000BRBLAUACNOR8113
012024061402BRIT3       010BRISANET    ON      NM   R$  000000000039400000000004090000000000393000000000040300000000004060000000000404000000000040701694000000000000538500000000000217076100000000000000009999123100000010000000000000BRBRITACNOR0103
012024061402BRKM3       010BRASKEM     ON      N1   R$  000000000186500000000018900000000001840000000000186500000000018740000000001835000000000188800034000000000000005000000000000009326300000000000000009999123100000010000000000000BRBRKMACNOR1119
012024061402BRKM5       010BRASKEM     PNA     N1   R$  000000000184000000000018800000000001821000000000184800000000018410000000001840000000000184205761000000000001736300000000003209090600000000000000009999123100000010000000000000BRBRKMACNPA4121
012024061402CSRN3       010COSERN      ON           R$  000000000220000000000022490000000002150000000000219900000000022490000000002100000000000224900003000000000000000300000000000000659900000000000000009999123100000010000000000000BRCSRNACNOR0192
012024061402CSUD3       010CSU DIGITAL ON      NM   R$  000000000186000000000018800000000001840000000000186100000000018670000000001840000000000186700113000000000000049000000000000091219300000000000000009999123100000010000000000000BRCSUDACNOR5109
012024061402CTKA4       010KARSTEN     PN           R$  000000000169900000000016990000000001699000000000169900000000016990000000001566000000000170000001000000000000000100000000000000169900000000000000009999123100000010000000000000BRCTKAACNPR7043
012024061402CURY3       010CURY S/A    ON      NM   R$  000000000189200000000018990000000001852000000000187000000000018550000000001855000000000186807105000000000002268800000000004244121900000000000000009999123100000010000000000000BRCURYACNOR3109
012024061402CVCB3       010CVC BRASIL  ON      NM   R$  000000000019300000000002020000000000191000000000019600000000002010000000000200000000000020103413000000000009056100000000001780931000000000000000009999123100000010000000000000BRCVCBACNOR1115
012024061402CXSE3       010CAIXA SEGURION      NM   R$  000000000144000000000014520000000001427000000000144500000000014480000000001447000000000144806331000000000001832100000000002647616100000000000000009999123100000010000000000000BRCXSEACNOR7106
012024061402EKTR4       010ELEKTRO     PN           R$  000000000381200000000039480000000003812000000000388100000000038170000000003813000000000394900004000000000000000400000000000001552400000000000000009999123100000010000000000000BREKTRACNPR7162
012024061402B3SA3       010B3          ON      NM   R$  000000000101000000000010420000000001005000000000102800000000010370000000001036000000000103726863000000000033368300000000034308207600000000000000009999123100000010000000000000BRB3SAACNOR6132
012024061407TXRX4       010TEX RENAUX  PN           R$  000000000023900000000002390000000000233000000000023500000000002330000000000229000000000023400003000000000000001300000000000000305700000000000000009999123100000010000000000000BRTXRXACNPR0142
012024061407NUTR3       010NUTRIPLANT  ON      MA   R$  000000000051600000000005440000000000514000000000053500000000005440000000000525000000000054000027000000000000006500000000000003477700000000000000009999123100000010000000000000BRNUTRACNOR0104
012024061407BHIA3       010CASAS BAHIA ON      NM   R$  000000000060300000000006280000000000601000000000061000000000006080000000000605000000000060802688000000000002375400000000001449115400000000000000009999123100000010000000000000BRBHIAACNOR1101
012024061408RNEW11      010RENOVA      UNT     N2   R$  000000000029700000000002970000000000292000000000029200000000002920000000000292000000000029300015000000000000004600000000000001345200000000000000009999123100000010000000000000BRRNEWCDAM15110
012024061408RNEW3       010RENOVA      ON      N2   R$  000000000009800000000000990000000000095000000000009500000000000950000000000095000000000009600022000000000000007100000000000000675600000000000000009999123100000010000000000000BRRNEWACNOR8110
012024061408RNEW4       010RENOVA      PN      N2   R$  000000000009800000000000980000000000096000000000009600000000000960000000000096000000000009700051000000000000042300000000000004088300000000000000009999123100000010000000000000BRRNEWACNPR5110
012024061408SGPS3       010SPRINGS     ON      NM   R$  000000000003600000000000360000000000036000000000003600000000000360000000000036000000000003700038000000000000033900000000000001220400000000000000009999123100000010000000000000BRSGPSACNOR4104
012024061408PMAM3       010PARANAPANEMAON      NM   R$  000000000024600000000002520000000000245000000000024700000000002460000000000246000000000024900061000000000000024700000000000006120400000000000000009999123100000010000000000000BRPMAMACNOR3039
012024061408RSID3       010ROSSI RESID ON      NM   R$  000000000048700000000005270000000000487000000000050700000000005190000000000511000000000051900284000000000000076700000000000038928200000000000000009999123100000010000000000000BRRSIDACNOR8120
012024061408LIGT3       010LIGHT S/A   ON      NM   R$  000000000051900000000005340000000000512000000000052400000000005290000000000526000000000053003634000000000000871400000000000456619300000000000000009999123100000010000000000000BRLIGTACNOR2124
012024061408OIBR3       010OI          ON      N1   R$  000000000005000000000000510000000000049000000000005000000000000500000000000049000000000005001410000000000005934800000000000297082000000000000000009999123100000010000000000000BROIBRACNOR1110
012024061408OIBR4       010OI          PN      N1   R$  000000000016200000000001640000000000156000000000015900000000001560000000000156000000000015900075000000000000040500000000000006456300000000000000009999123100000010000000000000BROIBRACNPR8109
012024061408OSXB3       010OSX BRASIL  ON      NM   R$  000000000039700000000003980000000000397000000000039700000000003980000000000387000000000039800002000000000000000400000000000000158900000000000000009999123100000010000000000000BROSXBACNOR8109
012024061408JFEN3       010JOAO FORTES ON           R$  000000000011600000000001160000000000109000000000011200000000001100000000000110000000000011200039000000000000021000000000000002352700000000000000009999123100000010000000000000BRJFENACNOR0059
012024061408AMER3       010AMERICANAS  ON      NM   R$  000000000004000000000000410000000000038000000000003900000000000400000000000039000000000004001215000000000015391900000000000610829000000000000000009999123100000010000000000000BRAMERACNOR6102
012024061408ETER3       010ETERNIT     ON      NM   R$  000000000062500000000006280000000000613000000000061700000000006130000000000613000000000061400479000000000000091400000000000056482100000000000000009999123100000010000000000000BRETERACNOR3243
012024061408NEXP3       010NEXPE       ON           R$  000000000041800000000004260000000000412000000000041700000000004120000000000411000000000041500009000000000000001000000000000000417800000000000000009999123100000010000000000000BRNEXPACNOR0101
012024061408RPMG3       010PET MANGUINHON           R$  000000000022900000000002340000000000227000000000022900000000002280000000000228000000000023000039000000000000031100000000000007143400000000000000009999123100000010000000000000BRRPMGACNOR9194
012024061408ATMP3       010ATMASA      ON           R$  000000000022900000000002350000000000229000000000023000000000002300000000000229000000000023500010000000000000001500000000000000346000000000000000009999123100000010000000000000BRATMPACNOR8100
012024061408CTNM4       010COTEMINAS   PN           R$  000000000007700000000000770000000000077000000000007700000000000770000000000077000000000007800013000000000000026300000000000002025100000000000000009999123100000010000000000000BRCTNMACNPR6129
012024061408CTSA3       010SANTANENSE  ON           R$  000000000022200000000002220000000000221000000000022100000000002210000000000221000000000022500004000000000000000500000000000000110700000000000000009999123100000010000000000000BRCTSAACNOR3062
012024061408CTSA4       010SANTANENSE  PN           R$  000000000009400000000000940000000000092000000000009300000000000930000000000092000000000009300014000000000000006100000000000000570600000000000000009999123100000010000000000000BRCTSAACNPR0062
012024061410ONCO1       010ONCOCLINICASDIR ORD NM   R$  000000000000100000000000010000000000001000000000000100000000000010000000000000000000000000100015000000000000439100000000000000439100000000000000009999123100000010000000000000BRONCOD01OR1100
012024061410AMAR1       010LOJAS MARISADIR ORD NM   R$  000000000000700000000000080000000000002000000000000300000000000030000000000002000000000000300319000000000002398300000000000009501700000000000000009999123100000010000000000000BRAMARD02OR7114
012024061410AMER95      010AMERICANAS  DIR     NM   R$  000000000000100000000000010000000000001000000000000100000000000010000000000000000000000000100135000000000000648873000000000000648873000000000000009999123100000010000000000000BRAMERD01M17100
012024061410EQTL9       010EQUATORIAL  ON  REC NM   R$  000000000287000000000030000000000002870000000000289300000000028820000000002881000000000339900005000000000000000800000000000002315100000000000000009999123100000010000000000000BREQTLR03OR1129
012024061412RBHY11      010FII RB YIELDCI           R$  000000000899800000000090370000000008969000000000899700000000089800000000008980000000000901600086000000000000000658000000000005920448000000000000009999123100000010000000000000BRRBHYCTF005144
012024061412RBIR11      010FII RBRES IVCI           R$  000000000846000000000085090000000008222000000000836300000000084380000000008300000000000848000061000000000000001647000000000013774796000000000000009999123100000010000000000000BRRBIRCTF007111
012024061412RBOP11      010FII MERC BR CI  ER       R$  000000002969900000000296990000000029013000000002907800000000290150000000029014000000002910000031000000000000000052000000000001512088000000000000009999123100000010000000000000BRRBOPCTF009121
012024061412RBRD11      010FII RB II   CI           R$  000000000375100000000038320000000003750000000000378300000000038010000000003801000000000383000073000000000000000918000000000003472885000000000000009999123100000010000000000000BRRBRDCTF008263
012024061412RBRF11      010FII RBRALPHACI  ER       R$  000000000071900000000007300000000000715000000000072100000000007190000000000718000000000071922958000000000000510537000000000368424389000000000000009999123100000010000000000000BRRBRFCTF003187
012024061412RBRL11      010FII RBR LOG CI  ER       R$  000000000776000000000077990000000007730000000000776800000000077680000000007730000000000776802136000000000000005791000000000044985297000000000000009999123100000010000000000000BRRBRLCTF001154
012024061412RBRP11      010FII RBR PROPCI  ER       R$  000000000565000000000057030000000005620000000000566500000000056770000000005677000000000568704891000000000000026269000000000148816248000000000000009999123100000010000000000000BRRBRPCTF002173
012024061412RBRR11      010FII RBRHGRADCI  ER       R$  000000000888500000000090550000000008866000000000897400000000090240000000008994000000000902405319000000000000022807000000000204677958000000000000009999123100000010000000000000BRRBRRCTF008180
012024061412RBRS11      010FII RIOB RR CI           R$  000000000470900000000047090000000004500000000000462600000000045910000000004527000000000482800027000000000000000625000000000002891554000000000000009999123100000010000000000000BRRBRSCTF006138
012024061412RBRX11      010FII RBR MULTCI           R$  000000000092300000000009260000000000919000000000092400000000009220000000000922000000000092506135000000000000093974000000000086842766000000000000009999123100000010000000000000BRRBRXCTF006128
012024061412RBRY11      010FII RBR PCRICI  ER       R$  000000000957100000000096960000000009557000000000964500000000096490000000009649000000000966007343000000000000040282000000000388555955000000000000009999123100000010000000000000BRRBRYCTF004168
012024061412RBVA11      010FII RIOB VA CI           R$  000000001069800000000109500000000010654000000001080400000000109200000000010862000000001092002798000000000000011743000000000126880167000000000000009999123100000010000000000000BRRBVACTF006165
012024061412RBVO11      010FII RIOBCRI2CI           R$  000000000293300000000031720000000002500000000000276400000000026670000000002667000000000274001658000000000000022777000000000062962948000000000000009999123100000010000000000000BRRBVOCTF007243
012024061412RCFA11      010FII GP RCFA CI           R$  000000000010100000000001070000000000099000000000010000000000001070000000000101000000000010700014000000000000000530000000000000053501000000000000009999123100000010000000000000BRRCFACTF007101
012024061412VVCO11      010FII V2EDCORPCI           R$  000000000133100000000013310000000001318000000000132600000000013300000000001285000000000133100008000000000000000184000000000000244096000000000000009999123100000010000000000000BRVVCOCTF007101
012024061412VVCR11      010FII V2 RECE CI           R$  000000000099300000000009930000000000990000000000099000000000009920000000000990000000000099200033000000000000000917000000000000908088000000000000009999123100000010000000000000BRVVCRCTF000115
012024061412VVMR11      010FII MULT RENCI  ES       R$  000000000890000000000089910000000008900000000000893000000000089910000000008900000000000899100004000000000000000027000000000000241119000000000000009999123100000010000000000000BRVVMRCTF009105
012024061412VVRI11      010FII V2 RENDACI           R$  000000000981700000000099990000000009799000000000994300000000099990000000009118000000001000000008000000000000000043000000000000427556000000000000009999123100000010000000000000BRVVRICTF007115
012024061412RMAI11      010FII REAGMULTCI           R$  000000000718500000000071850000000007185000000000718500000000071850000000007040000000000719000101000000000000000102000000000000732870000000000000009999123100000010000000000000BRRMAICTF000134
012024061412RNDP11      010FII BB R PAPCI           R$  000000000635100000000063830000000006351000000000636100000000063520000000006351000000000680000011000000000000000057000000000000362590000000000000009999123100000010000000000000BRRNDPCTF007248
012024061412RNGO11      010FII RIONEGROCI           R$  000000000465000000000046990000000004510000000000459800000000046120000000004545000000000461300091000000000000001494000000000006870336000000000000009999123100000010000000000000BRRNGOCTF003243
012024061412PRSN11      010FII PERSONALCI           R$  000000000011100000000001110000000000111000000000011100000000001110000000000102000000000011100003000000000000000009000000000000000999000000000000009999123100000010000000000000BRPRSNCTF005124
012024061412PRSV11      010FII P VARGASCI           R$  000000000630000000000063010000000006300000000000630000000000063000000000006300000000000649800006000000000000000035000000000000220505000000000000009999123100000010000000000000BRPRSVCTF008225
012024061412PVBI11      010FII VBI PRI CI           R$  000000000893100000000090910000000008914000000000903100000000090650000000009065000000000906815156000000000000089570000000000808975617000000000000009999123100000010000000000000BRPVBICTF003152
012024061412EDFO11      010FII OURINVESCI           R$  000000001790100000000188870000000017901000000001855800000000188870000000017900000000001888500003000000000000000003000000000000055675000000000000009999123100000010000000000000BREDFOCTF004323
012024061412EDGA11      010FII GALERIA CI           R$  000000000199500000000020410000000001995000000000200700000000020000000000001996000000000200000062000000000000004124000000000008278560000000000000009999123100000010000000000000BREDGACTF001241
012024061412GGRC11      010FII GGRCOVEPCI           R$  000000000108800000000010900000000001083000000000108500000000010860000000001085000000000108607468000000000000136598000000000148308180000000000000009999123100000010000000000000BRGGRCCTF002194
012024061412GLOG11      010FII PLURAL LCI           R$  000000000616500000000062250000000006165000000000620300000000062200000000006177000000000621900010000000000000000193000000000001197327000000000000009999123100000010000000000000BRGLOGCTF000113
012024061412SCPF11      010FII SCP     CI           R$  000000000029900000000003020000000000295000000000029900000000003020000000000295000000000030100049000000000000000656000000000000196359000000000000009999123100000010000000000000BRSCPFCTF003302
012024061412SEQR11      010FII SEQUOIA CI  ER       R$  000000000514000000000051400000000005100000000000512000000000051260000000005118000000000512600139000000000000001380000000000007066286000000000000009999123100000010000000000000BRSEQRCTF002143
012024061412SHPH11      010FII HIGIENOPCI           R$  000000008499800000000855990000000084801000000008488800000000848010000000085000000000008689900011000000000000000031000000000002631548000000000000009999123100000010000000000000BRSHPHCTF008350
012024061412MFAI11      010FII MERITOFACI           R$  000000000597900000000060080000000005949000000000598700000000060050000000005950000000000604500016000000000000000093000000000000556880000000000000009999123100000010000000000000BRMFAICTF005151
012024061412MFCR11      010FII MERITO RCI           R$  000000000266500000000026650000000002665000000000266500000000026650000000002473000000000285600008000000000000000019000000000000050635000000000000009999123100000010000000000000BRMFCRCTF002124
012024061412MFII11      010FII MERITO ICI           R$  000000001023900000000102650000000010206000000001023200000000102480000000010247000000001024800525000000000000004653000000000047613524000000000000009999123100000010000000000000BRMFIICTF008235
012024061412MGHT11      010FII MOGNO HTCI  ER       R$  000000000352500000000035500000000003420000000000349100000000034920000000003490000000000350600388000000000000002249000000000007852117000000000000009999123100000010000000000000BRMGHTCTF005154
012024061412PLCR11      010FII PLURAL RCI           R$  000000000831000000000084360000000008300000000000837200000000084310000000008431000000000844800922000000000000004559000000000038172426000000000000009999123100000010000000000000BRPLCRCTF003155
012024061412PLRI11      010FII POLO I  CI           R$  000000000150500000000015050000000001500000000000150000000000015000000000001500000000000200000005000000000000000425000000000000637533000000000000009999123100000010000000000000BRPLRICTF000242
012024061412PMIS11      010FII PMIS    CI           R$  000000000092500000000009400000000000925000000000093400000000009400000000000934000000000094000408000000000000021513000000000020113718000000000000009999123100000010000000000000BRPMISCTF006106
012024061412PNPR11      010FII PAN PROPCI           R$  000000000759900000000075990000000007599000000000759900000000075990000000007000000000000759900001000000000000000001000000000000007599000000000000009999123100000010000000000000BRPNPRCTF001102
012024061412PORD11      010FII POLO CRICI           R$  000000000090100000000009090000000000891000000000090000000000008990000000000899000000000090302235000000000000055563000000000050033475000000000000009999123100000010000000000000BRPORDCTF005174
012024061412PQAG11      010FII PARQ ANHCI           R$  000000000598800000000059880000000005980000000000598500000000059870000000005980000000000598700003000000000000000003000000000000017955000000000000009999123100000010000000000000BRPQAGCTF009148
012024061412PQDP11      010FII D PEDRO CI           R$  000000019269900000001934990000000188900000000019055900000001889000000000188900000000018985000020000000000000000035000000000006669580000000000000009999123100000010000000000000BRPQDPCTF004271
012024061412RSPD11      010FII RBRESID3CI           R$  000000010500000000001096890000000103799000000010587200000001096890000000102500000000010969000004000000000000000004000000000000423488000000000000009999123100000010000000000000BRRSPDCTF006112
