00COTAHIST.2024BOVESPA 20240801                                                                                                                                                                                                                      
012024080102PNVL3       010DIMED       ON      NM   R$  000000000101000000000010340000000001010000000000102200000000010180000000001017000000000101901197000000000000230800000000000236085800000000000000009999123100000010000000000000BRPNVLACNOR9207
012024080102RRRP3       0103R PETROLEUMON      NM   R$  000000000272600000000027460000000002643000000000268700000000026840000000002680000000000268410698000000000003565900000000009583209900000000000000009999123100000010000000000000BRRRRPACNOR5103
012024080102TOTS3       010TOTVS       ON      NM   R$  000000000279800000000028070000000002744000000000277100000000027620000000002761000000000276207454000000000001680600000000004657155000000000000000009999123100000010000000000000BRTOTSACNOR8144
012024080102TPIS3       010TRIUNFO PARTON      NM   R$  000000000037100000000003710000000000369000000000037000000000003690000000000369000000000037100033000000000000006000000000000002220200000000000000009999123100000010000000000000BRTPISACNOR8118
012024080102TRAD3       010TC          ON      NM   R$  000000000036800000000003710000000000354000000000036200000000003600000000000357000000000036200168000000000000040500000000000014700600000000000000009999123100000010000000000000BRTRADACNOR3102
012024080102TRIS3       010TRISUL      ON      NM   R$  000000000048200000000004980000000000478000000000048700000000004810000000000481000000000048300898000000000000280800000000000136967900000000000000009999123100000010000000000000BRTRISACNOR4118
012024080102CGAS5       010COMGAS      PNA          R$  000000001114900000000112860000000011101000000001116700000000111500000000011100000000001115000005000000000000000500000000000005583600000000000000009999123100000010000000000000BRCGASACNPA3160
012024080102CGRA3       010GRAZZIOTIN  ON           R$  000000000253300000000025780000000002488000000000252800000000024880000000002488000000000249900017000000000000001700000000000004298400000000000000009999123100000010000000000000BRCGRAACNOR2083
012024080102CGRA4       010GRAZZIOTIN  PN           R$  000000000248900000000025160000000002487000000000250100000000024950000000002500000000000251800017000000000000001700000000000004252000000000000000009999123100000010000000000000BRCGRAACNPR9083
012024080102CIEL3       010CIELO       ON      NM   R$  000000000057700000000005770000000000575000000000057600000000005760000000000575000000000057605033000000000029381200000000016929274200000000000000009999123100000010000000000000BRCIELACNOR3157
012024080102CLSA3       010CLEARSALE   ON      NM   R$  000000000084200000000008420000000000772000000000079200000000007880000000000788000000000078904084000000000001629400000000001290613900000000000000009999123100000010000000000000BRCLSAACNOR0100
012024080102CLSC3       010CELESC      ON      N2   R$  000000000698600000000070800000000006986000000000703300000000070800000000006900000000000719800002000000000000000200000000000001406600000000000000009999123100000010000000000000BRCLSCACNOR6152
012024080102CLSC4       010CELESC      PN      N2   R$  000000000750000000000075440000000007500000000000753000000000075300000000007500000000000753000046000000000000010900000000000082087400000000000000009999123100000010000000000000BRCLSCACNPR3131
012024080102UNIP3       010UNIPAR      ON           R$  000000000511900000000051800000000004990000000000506800000000049900000000004990000000000502100038000000000000005100000000000025849200000000000000009999123100000010000000000000BRUNIPACNOR7206
012024080102UNIP5       010UNIPAR      PNA          R$  000000000518700000000051870000000005181000000000518500000000051810000000005007000000000524800005000000000000000600000000000003111000000000000000009999123100000010000000000000BRUNIPACNPA0208
012024080102UNIP6       010UNIPAR      PNB          R$  000000000521000000000053000000000005036000000000512000000000050820000000005078000000000508502313000000000000344800000000001765381400000000000000009999123100000010000000000000BRUNIPACNPB8206
012024080102USIM3       010USIMINAS    ON      N1   R$  000000000060500000000006060000000000587000000000059500000000005890000000000589000000000059001344000000000000576600000000000343092400000000000000009999123100000010000000000000BRUSIMACNOR3167
012024080102USIM5       010USIMINAS    PNA     N1   R$  000000000062500000000006270000000000607000000000061500000000006130000000000612000000000061323341000000000018984400000000011684032000000000000000009999123100000010000000000000BRUSIMACNPA6169
012024080102MRSA3B      010MRS LOGIST  ON      MB   R$  000000000290000000000029990000000002900000000000294900000000029990000000002606000000000310000002000000000000000200000000000000589900000000000000009999123100000010000000000000BRMRSAACNOR6125
012024080102MRSA6B      010MRS LOGIST  PNB     MB   R$  000000000299900000000029990000000002999000000000299900000000029990000000002606000000000000000002000000000000000300000000000000899700000000000000009999123100000010000000000000BRMRSAACNPB7125
012024080102MRVE3       010MRV         ON      NM   R$  000000000068000000000006810000000000655000000000066700000000006580000000000658000000000065914417000000000010000000000000006675583600000000000000009999123100000010000000000000BRMRVEACNOR2127
012024080102PRNR3       010PRINER      ON      NM   R$  000000000103200000000010440000000001000000000000101800000000010090000000001005000000000101000815000000000000302600000000000308091900000000000000009999123100000010000000000000BRPRNRACNOR4109
012024080102PSSA3       010PORTO SEGUROON      NM   R$  000000000307000000000030960000000003065000000000308000000000030850000000003081000000000308505518000000000001539000000000004740242300000000000000009999123100000010000000000000BRPSSAACNOR7155
012024080102PTBL3       010PORTOBELLO  ON      NM   R$  000000000045800000000004620000000000423000000000044200000000004250000000000424000000000042501767000000000000874700000000000387478700000000000000009999123100000010000000000000BRPTBLACNOR8132
012024080102PTNT3       010PETTENATI   ON           R$  000000000095900000000009590000000000959000000000095900000000009590000000000931000000000095900001000000000000000100000000000000095900000000000000009999123100000010000000000000BRPTNTACNOR6042
012024080102PTNT4       010PETTENATI   PN           R$  000000000063000000000006390000000000630000000000063100000000006300000000000616000000000063000016000000000000003900000000000002462400000000000000009999123100000010000000000000BRPTNTACNPR3047
012024080102QUAL3       010QUALICORP   ON      NM   R$  000000000015200000000001560000000000148000000000015200000000001490000000000148000000000014901334000000000002010500000000000306053400000000000000009999123100000010000000000000BRQUALACNOR6120
012024080102SCAR3       010SAO CARLOS  ON      NM   R$  000000000243500000000024780000000002420000000000242700000000024280000000002427000000000247000048000000000000029700000000000072090100000000000000009999123100000010000000000000BRSCARACNOR7131
012024080102SEER3       010SER EDUCA   ON      NM   R$  000000000052300000000005400000000000517000000000052800000000005400000000000525000000000054000900000000000000379300000000000200589700000000000000009999123100000010000000000000BRSEERACNOR5119
012024080102SEQL3       010SEQUOIA LOG ON      NM   R$  000000000040700000000004150000000000390000000000040000000000003940000000000394000000000039600657000000000000261700000000000104801200000000000000009999123100000010000000000000BRSEQLACNOR2103
012024080102SHOW3       010TIME FOR FUNON      NM   R$  000000000015000000000001520000000000149000000000015000000000001500000000000150000000000015200351000000000000082200000000000012408900000000000000009999123100000010000000000000BRSHOWACNOR7105
012024080102SHUL4       010SCHULZ      PN           R$  000000000063200000000006370000000000618000000000062600000000006200000000000620000000000062200483000000000000179900000000000112690700000000000000009999123100000010000000000000BRSHULACNPR4156
012024080102SIMH3       010SIMPAR      ON      NM   R$  000000000064900000000006600000000000622000000000064000000000006220000000000622000000000062305954000000000003173900000000002033023000000000000000009999123100000010000000000000BRSIMHACNOR0107
012024080102SLCE3       010SLC AGRICOLAON      NM   R$  000000000180600000000018100000000001771000000000178300000000017800000000001779000000000178104768000000000001698900000000003030578400000000000000009999123100000010000000000000BRSLCEACNOR2125
012024080102VALE3       010VALE        ON      NM   R$  000000000618500000000061870000000006022000000000606900000000060250000000006025000000000602622593000000000040469400000000245608881400000000000000009999123100000010000000000000BRVALEACNOR0210
012024080102WEST3       010WESTWING    ON      NM   R$  000000000008800000000000900000000000086000000000008700000000000870000000000087000000000008900034000000000000024900000000000002183300000000000000009999123100000010000000000000BRWESTACNOR3100
012024080102WHRL3       010WHIRLPOOL   ON           R$  000000000044100000000004490000000000441000000000044500000000004490000000000441000000000044800003000000000000000400000000000000178000000000000000009999123100000010000000000000BRWHRLACNOR5128
012024080102AMBP3       010AMBIPAR     ON      NM   R$  000000000505500000000053440000000005011000000000517200000000051900000000005152000000000519018074000000000005762800000000029806013900000000000000009999123100000010000000000000BRAMBPACNOR6103
012024080102CPFE3       010CPFL ENERGIAON      NM   R$  000000000324700000000032940000000003243000000000326600000000032850000000003280000000000328509620000000000002951000000000009640706400000000000000009999123100000010000000000000BRCPFEACNOR0137
012024080102CPLE3       010COPEL       ON      N2   R$  000000000089800000000009150000000000894000000000090900000000009100000000000910000000000091105620000000000010080000000000009162930600000000000000009999123100000010000000000000BRCPLEACNOR8149
012024080102MILS3       010MILLS       ON      NM   R$  000000000112400000000011390000000001105000000000111400000000011130000000001112000000000111301626000000000001982500000000002208870600000000000000009999123100000010000000000000BRMILSACNOR2127
012024080102MLAS3       010MULTILASER  ON      NM   R$  000000000019500000000001990000000000190000000000019300000000001900000000000190000000000019101459000000000002131800000000000412683000000000000000009999123100000010000000000000BRMLASACNOR9101
012024080102MNDL3       010MUNDIAL     ON           R$  000000000152500000000015310000000001512000000000152200000000015150000000001400000000000153000008000000000000000800000000000001218000000000000000009999123100000010000000000000BRMNDLACNOR4109
012024080102MNPR3       010MINUPAR     ON           R$  000000000143200000000014540000000001351000000000136800000000013510000000001350000000000147000010000000000000002000000000000002736400000000000000009999123100000010000000000000BRMNPRACNOR5122
012024080102SANB11      010SANTANDER BRUNT          R$  000000000287900000000029410000000002866000000000291100000000029160000000002915000000000291917498000000000005091600000000014822936200000000000000009999123100000010000000000000BRSANBCDAM13165
012024080102SANB3       010SANTANDER BRON           R$  000000000135800000000013950000000001350000000000137900000000013910000000001383000000000139201487000000000000196700000000000271399000000000000000009999123100000010000000000000BRSANBACNOR8172
012024080102SANB4       010SANTANDER BRPN           R$  000000000151000000000015420000000001496000000000152100000000015200000000001520000000000152302001000000000000271400000000000413011500000000000000009999123100000010000000000000BRSANBACNPR5172
012024080102SAPR11      010SANEPAR     UNT     N2   R$  000000000273300000000028160000000002733000000000279300000000027810000000002781000000000278505296000000000001020600000000002851123300000000000000009999123100000010000000000000BRSAPRCDAM13118
012024080102SAPR3       010SANEPAR     ON      N2   R$  000000000051300000000005260000000000509000000000052000000000005180000000000518000000000052001217000000000000411200000000000213970500000000000000009999123100000010000000000000BRSAPRACNOR9159
012024080102UGPA3       010ULTRAPAR    ON      NM   R$  000000000222600000000022760000000002226000000000224600000000022530000000002246000000000225317466000000000004588400000000010305683100000000000000009999123100000010000000000000BRUGPAACNOR8155
012024080102WHRL4       010WHIRLPOOL   PN           R$  000000000045300000000004530000000000443000000000044400000000004440000000000441000000000044700020000000000000005400000000000002400000000000000000009999123100000010000000000000BRWHRLACNPR2128
012024080102WIZC3       010WIZ CO      ON      NM   R$  000000000060900000000006140000000000592000000000060000000000005940000000000594000000000059701405000000000000285800000000000171629400000000000000009999123100000010000000000000BRWIZCACNOR5102
012024080102WLMM4       010WLM IND COM PN           R$  000000000316300000000031630000000003102000000000313200000000031020000000003051000000000316000002000000000000000200000000000000626500000000000000009999123100000010000000000000BRWLMMACNPR3118
012024080102PRIO3       010PETRORIO    ON      NM   R$  000000000484100000000049150000000004752000000000485000000000047990000000004795000000000479939494000000000010647800000000051642015100000000000000009999123100000010000000000000BRPRIOACNOR1107
012024080102RSUL4       010RIOSULENSE  PN           R$  000000000605000000000060500000000005973000000000602400000000059730000000005900000000000610000005000000000000000600000000000003614600000000000000009999123100000010000000000000BRRSULACNPR3114
012024080102YDUQ3       010YDUQS PART  ON      NM   R$  000000000111200000000011210000000001059000000000108200000000010700000000001067000000000107009200000000000003541000000000003834514600000000000000009999123100000010000000000000BRYDUQACNOR3105
012024080102SAPR4       010SANEPAR     PN      N2   R$  000000000055400000000005710000000000554000000000056500000000005620000000000562000000000056302961000000000001254800000000000709695900000000000000009999123100000010000000000000BRSAPRACNPR6159
012024080102SBFG3       010GRUPO SBF   ON      NM   R$  000000000152800000000015770000000001513000000000154300000000015340000000001531000000000153512252000000000003763700000000005809122200000000000000009999123100000010000000000000BRSBFGACNOR1103
012024080102SBSP3       010SABESP      ON      NM   R$  000000000885800000000090480000000008858000000000897400000000089630000000008963000000000896622195000000000004888200000000043868431500000000000000009999123100000010000000000000BRSBSPACNOR5161
012024080102POMO3       010MARCOPOLO   ON      N2   R$  000000000047200000000004820000000000466000000000047300000000004770000000000474000000000047800344000000000000141800000000000067155200000000000000009999123100000010000000000000BRPOMOACNOR0098
012024080102POMO4       010MARCOPOLO   PN      N2   R$  000000000059600000000006260000000000595000000000061200000000006120000000000611000000000061209595000000000009195000000000005628067000000000000000009999123100000010000000000000BRPOMOACNPR7098
012024080102PORT3       010WILSON SONS ON      NM   R$  000000000159100000000016090000000001583000000000160200000000016020000000001601000000000160201642000000000000380000000000000609020000000000000000009999123100000010000000000000BRPORTACNOR8109
012024080102POSI3       010POSITIVO TECON      NM   R$  000000000068100000000007110000000000676000000000069600000000006970000000000697000000000070005743000000000001928600000000001343407900000000000000009999123100000010000000000000BRPOSIACNOR9116
012024080102EALT3       010ACO ALTONA  ON           R$  000000000121200000000012500000000001211000000000123200000000012500000000001250000000000128000029000000000000006300000000000007762700000000000000009999123100000010000000000000BREALTACNOR4138
012024080102EALT4       010ACO ALTONA  PN           R$  000000000120800000000012550000000001177000000000124200000000012510000000001248000000000125200178000000000000096900000000000120360300000000000000009999123100000010000000000000BREALTACNPR1138
012024080102ECOR3       010ECORODOVIAS ON      NM   R$  000000000073300000000007700000000000723000000000075200000000007460000000000744000000000074809499000000000007565100000000005690570700000000000000009999123100000010000000000000BRECORACNOR8120
012024080102EGIE3       010ENGIE BRASILON      NM   R$  000000000442600000000044620000000004393000000000443000000000044440000000004441000000000444505809000000000001135100000000005028869200000000000000009999123100000010000000000000BREGIEACNOR9126
012024080102GGPS3       010GPS         ON      NM   R$  000000000174700000000017830000000001743000000000176900000000017730000000001766000000000177609076000000000002910300000000005150385600000000000000009999123100000010000000000000BRGGPSACNOR9103
012024080102GMAT3       010GRUPO MATEUSON      NM   R$  000000000066900000000006920000000000669000000000067900000000006800000000000678000000000068108311000000000003381300000000002298490400000000000000009999123100000010000000000000BRGMATACNOR7102
012024080102GOAU3       010GERDAU MET  ON      N1   R$  000000000106000000000010930000000001058000000000107500000000010780000000001063000000000108100233000000000000046000000000000049451500000000000000009999123100000010000000000000BRGOAUACNOR1267
012024080102GOAU4       010GERDAU MET  PN      N1   R$  000000000105600000000010890000000001054000000000106600000000010600000000001059000000000106111745000000000006628200000000007072096700000000000000009999123100000010000000000000BRGOAUACNPR8268
012024080102JBSS3       010JBS         ON      NM   R$  000000000341500000000034600000000003375000000000343200000000034500000000003450000000000345222763000000000008796700000000030196203400000000000000009999123100000010000000000000BRJBSSACNOR8121
012024080102MOVI3       010MOVIDA      ON      NM   R$  000000000065500000000006780000000000621000000000064600000000006310000000000630000000000063208055000000000004743900000000003067796800000000000000009999123100000010000000000000BRMOVIACNOR0122
012024080102MRFG3       010MARFRIG     ON      NM   R$  000000000113600000000011850000000001134000000000116300000000011730000000001173000000000117415070000000000006099100000000007093829100000000000000009999123100000010000000000000BRMRFGACNOR0116
012024080102ALPA3       010ALPARGATAS  ON      N1   R$  000000000082000000000008400000000000812000000000082000000000008260000000000814000000000082900107000000000000016600000000000013622000000000000000009999123100000010000000000000BRALPAACNOR0231
012024080102ALPA4       010ALPARGATAS  PN      N1   R$  000000000086800000000008770000000000846000000000085500000000008530000000000853000000000085404464000000000002220300000000001900342900000000000000009999123100000010000000000000BRALPAACNPR7232
012024080102ALPK3       010ESTAPAR     ON      NM   R$  000000000035600000000003600000000000352000000000035600000000003520000000000351000000000035900264000000000000066800000000000023780800000000000000009999123100000010000000000000BRALPKACNOR9101
012024080102ALUP11      010ALUPAR      UNT     N2   R$  000000000308000000000031800000000003080000000000315300000000031660000000003163000000000316904922000000000001045900000000003298024100000000000000009999123100000010000000000000BRALUPCDAM15119
012024080102ALUP3       010ALUPAR      ON      N2   R$  000000000104900000000011090000000001045000000000108800000000011000000000001092000000000110000110000000000000016200000000000017632000000000000000009999123100000010000000000000BRALUPACNOR8119
012024080102ALUP4       010ALUPAR      PN      N2   R$  000000000101100000000010450000000001011000000000103000000000010360000000001011000000000103600112000000000000018300000000000018857700000000000000009999123100000010000000000000BRALUPACNPR5119
012024080102AMAR3       010LOJAS MARISAON      NM   R$  000000000014400000000001450000000000141000000000014300000000001410000000000141000000000014300392000000000000155600000000000022252300000000000000009999123100000010000000000000BRAMARACNOR4115
012024080102FHER3       010FER HERINGERON      NM   R$  000000000043700000000004680000000000415000000000044900000000004550000000000455000000000045700139000000000000056400000000000025366000000000000000009999123100000010000000000000BRFHERACNOR5103
012024080102FIQE3       010UNIFIQUE    ON      NM   R$  000000000033900000000003440000000000336000000000033900000000003380000000000337000000000033800835000000000000915600000000000310528400000000000000009999123100000010000000000000BRFIQEACNOR5107
012024080102FLRY3       010FLEURY      ON      NM   R$  000000000152700000000015490000000001519000000000153600000000015360000000001536000000000153808670000000000002728700000000004192606300000000000000009999123100000010000000000000BRFLRYACNOR5138
012024080102FRAS3       010FRAS-LE     ON  EJ  N1   R$  000000000191600000000019260000000001905000000000191300000000019140000000001907000000000191502058000000000000410800000000000786256400000000000000009999123100000010000000000000BRFRASACNOR0160
012024080102FRIO3       010METALFRIO   ON      NM   R$  000000002425100000000242510000000021700000000002249300000000220000000000019678000000002247700046000000000000007300000000000164205100000000000000009999123100000010000000000000BRFRIOACNOR2111
012024080102ITUB3       010ITAUUNIBANCOON  EJ  N1   R$  000000000291000000000029190000000002854000000000287500000000028610000000002860000000000286101422000000000000318300000000000915133100000000000000009999123100000010000000000000BRITUBACNOR4339
012024080102ITUB4       010ITAUUNIBANCOPN  EJ  N1   R$  000000000340200000000034120000000003327000000000335500000000033370000000003337000000000334340428000000000022633900000000075939751200000000000000009999123100000010000000000000BRITUBACNPR1339
012024080102PFRM3       010PROFARMA    ON      NM   R$  000000000058500000000005960000000000558000000000056800000000005600000000000560000000000056500726000000000000258900000000000147165700000000000000009999123100000010000000000000BRPFRMACNOR1116
012024080102PGMN3       010PAGUE MENOS ON      NM   R$  000000000025900000000002620000000000250000000000025400000000002530000000000253000000000025400575000000000000352300000000000089590900000000000000009999123100000010000000000000BRPGMNACNOR8103
012024080102PINE3       010PINE        ON      N2   R$  000000000056700000000005670000000000567000000000056700000000005670000000000531000000000060900001000000000000000100000000000000056700000000000000009999123100000010000000000000BRPINEACNOR1150
012024080102PINE4       010PINE        PN      N2   R$  000000000042900000000004300000000000414000000000041900000000004160000000000416000000000041900709000000000000158300000000000066393600000000000000009999123100000010000000000000BRPINEACNPR8150
012024080102PLPL3       010PLANOEPLANO ON      NM   R$  000000000123800000000012460000000001197000000000122000000000011970000000001196000000000119706497000000000001440200000000001757461000000000000000009999123100000010000000000000BRPLPLACNOR5104
012024080102AERI3       010AERIS       ON      NM   R$  000000000053500000000005520000000000526000000000053600000000005270000000000527000000000053100539000000000000109300000000000058620400000000000000009999123100000010000000000000BRAERIACNOR4102
012024080102AESB3       010AES BRASIL  ON      NM   R$  000000000112800000000011310000000001123000000000112800000000011310000000001124000000000113102370000000000003503800000000003953851100000000000000009999123100000010000000000000BRAESBACNOR7106
012024080102AFLT3       010AFLUENTE T  ON           R$  000000000073500000000007360000000000735000000000073500000000007360000000000718000000000074500002000000000000000900000000000000662200000000000000009999123100000010000000000000BRAFLTACNOR1122
012024080102AGRO3       010BRASILAGRO  ON      NM   R$  000000000264400000000027140000000002623000000000264800000000026620000000002626000000000266202344000000000000356100000000000943199600000000000000009999123100000010000000000000BRAGROACNOR7114
012024080102AGXY3       010AGROGALAXY  ON      NM   R$  000000000013800000000001420000000000136000000000013800000000001370000000000136000000000013700310000000000000166300000000000023043400000000000000009999123100000010000000000000BRAGXYACNOR4103
012024080102AHEB3       010SPTURIS     ON           R$  000000000350000000000035000000000003500000000000350000000000035000000000003500000000000400000001000000000000000100000000000000350000000000000000009999123100000010000000000000BRAHEBACNOR0106
012024080102ALLD3       010ALLIED      ON      NM   R$  000000000078500000000007980000000000781000000000078700000000007900000000000785000000000079000281000000000000067700000000000053343300000000000000009999123100000010000000000000BRALLDACNOR3106
012024080102ALOS3       010ALLOS       ON      NM   R$  000000000221800000000022450000000002199000000000221300000000022010000000002200000000000220110291000000000003646400000000008071083900000000000000009999123100000010000000000000BRALOSACNOR5101
012024080102BBDC3       010BRADESCO    ON      N1   R$  000000000112600000000011480000000001123000000000113700000000011350000000001133000000000113509701000000000007482300000000008513045600000000000000009999123100000010000000000000BRBBDCACNOR1772
012024080102BBDC4       010BRADESCO    PN      N1   R$  000000000124600000000012680000000001245000000000125900000000012590000000001258000000000125958588000000000059113900000000074483034000000000000000009999123100000010000000000000BRBBDCACNPR8772
012024080102CMIN3       010CSNMINERACAOON      N2   R$  000000000051400000000005210000000000495000000000050500000000004960000000000495000000000049708002000000000011315900000000005724823100000000000000009999123100000010000000000000BRCMINACNOR2111
012024080102COCE5       010COELCE      PNA          R$  000000000304000000000031420000000003040000000000308700000000031420000000003080000000000314200046000000000000010700000000000033040300000000000000009999123100000010000000000000BRCOCEACNPA3147
012024080102COGN3       010COGNA ON    ON      NM   R$  000000000015300000000001560000000000146000000000014900000000001460000000000145000000000014616077000000000040741900000000006085910100000000000000009999123100000010000000000000BRCOGNACNOR2104
012024080102CMIG3       010CEMIG       ON      N1   R$  000000000126000000000012710000000001256000000000126300000000012570000000001257000000000126700514000000000000079000000000000099820800000000000000009999123100000010000000000000BRCMIGACNOR6242
012024080102CMIG4       010CEMIG       PN      N1   R$  000000000108500000000010940000000001080000000000108700000000010850000000001085000000000108817225000000000008213900000000008935664700000000000000009999123100000010000000000000BRCMIGACNPR3243
012024080102ESPA3       010ESPACOLASER ON      NM   R$  000000000009900000000000990000000000096000000000009700000000000980000000000096000000000009800295000000000000687900000000000067003300000000000000009999123100000010000000000000BRESPAACNOR7103
012024080102ESTR4       010ESTRELA     PN           R$  000000000020100000000002400000000000201000000000022600000000002160000000000216000000000023000043000000000000010700000000000002422600000000000000009999123100000010000000000000BRESTRACNPR0144
012024080102EUCA3       010EUCATEX     ON      N1   R$  000000000167400000000017000000000001666000000000169200000000017000000000001625000000000175000003000000000000000800000000000001354000000000000000009999123100000010000000000000BREUCAACNOR1157
012024080102EUCA4       010EUCATEX     PN      N1   R$  000000000153600000000015550000000001515000000000153500000000015440000000001526000000000154400131000000000000020300000000000031170500000000000000009999123100000010000000000000BREUCAACNPR8044
012024080102VSTE3       010VESTE       ON      NM   R$  000000000137100000000013850000000001371000000000138300000000013750000000001370000000000139000025000000000000004900000000000006777500000000000000009999123100000010000000000000BRVSTEACNOR5103
012024080102VTRU3       010VITRUEDUCA  ON      NM   R$  000000000127400000000012940000000001233000000000125300000000012330000000001233000000000124000201000000000000036400000000000045633500000000000000009999123100000010000000000000BRVTRUACNOR3100
012024080102VULC3       010VULCABRAS   ON      NM   R$  000000000155000000000015860000000001539000000000155800000000015470000000001547000000000155203148000000000000735200000000001145615400000000000000009999123100000010000000000000BRVULCACNOR2159
012024080102VVEO3       010VIVEO       ON      NM   R$  000000000022700000000002390000000000213000000000022200000000002130000000000213000000000021404363000000000003222900000000000717835200000000000000009999123100000010000000000000BRVVEOACNOR0104
012024080102TRPL3       010TRAN PAULISTON      N1   R$  000000000321900000000032540000000003180000000000320100000000031800000000003192000000000325000018000000000000002300000000000007364500000000000000009999123100000010000000000000BRTRPLACNOR4185
012024080102TRPL4       010TRAN PAULISTPN      N1   R$  000000000245400000000024800000000002434000000000245000000000024340000000002434000000000244013636000000000004399700000000010781456600000000000000009999123100000010000000000000BRTRPLACNPR1185
012024080102TTEN3       0103TENTOS     ON      NM   R$  000000000106800000000010840000000001038000000000105600000000010400000000001039000000000104006723000000000001107000000000001169462000000000000000009999123100000010000000000000BRTTENACNOR0103
012024080102TUPY3       010TUPY        ON      NM   R$  000000000247000000000025270000000002467000000000249500000000024840000000002469000000000248403840000000000000517500000000001291531700000000000000009999123100000010000000000000BRTUPYACNOR1184
012024080102BHIA3       010CASAS BAHIA ON      NM   R$  000000000045100000000004560000000000424000000000043600000000004270000000000427000000000042802683000000000004992700000000002178330500000000000000009999123100000010000000000000BRBHIAACNOR1102
012024080102BIOM3       010BIOMM       ON      MA   R$  000000000101700000000010200000000000942000000000097200000000009500000000000949000000000095000295000000000000070700000000000068739000000000000000009999123100000010000000000000BRBIOMACNOR2112
012024080102BRIT3       010BRISANET    ON      NM   R$  000000000040800000000004150000000000403000000000040700000000004030000000000403000000000040501179000000000000517200000000000210757900000000000000009999123100000010000000000000BRBRITACNOR0103
012024080102BRKM3       010BRASKEM     ON      N1   R$  000000000177700000000017770000000001700000000000173500000000017420000000001738000000000176900163000000000000018300000000000031754300000000000000009999123100000010000000000000BRBRKMACNOR1119
012024080102BRKM5       010BRASKEM     PNA     N1   R$  000000000175800000000017800000000001703000000000173200000000017190000000001717000000000172007600000000000003355000000000005813152100000000000000009999123100000010000000000000BRBRKMACNPA4121
012024080102BRKM6       010BRASKEM     PNB     N1   R$  000000000135000000000013500000000001350000000000135000000000013500000000001300000000000137300001000000000000000100000000000000135000000000000000009999123100000010000000000000BRBRKMACNPB2114
012024080102BRSR3       010BANRISUL    ON      N1   R$  000000000121800000000012280000000001196000000000121200000000012010000000001201000000000121800025000000000000003000000000000003637400000000000000009999123100000010000000000000BRBRSRACNOR3188
012024080102BRSR6       010BANRISUL    PNB     N1   R$  000000000114500000000011640000000001124000000000113500000000011240000000001124000000000112607048000000000001972100000000002238761300000000000000009999123100000010000000000000BRBRSRACNPB4191
012024080102CXSE3       010CAIXA SEGURION      NM   R$  000000000144800000000014760000000001448000000000146400000000014630000000001463000000000146510782000000000003580500000000005244825400000000000000009999123100000010000000000000BRCXSEACNOR7106
012024080102CYRE3       010CYRELA REALTON      NM   R$  000000000196300000000020070000000001950000000000197700000000019610000000001960000000000196319693000000000007553600000000014936336300000000000000009999123100000010000000000000BRCYREACNOR7140
012024080102ELMD3       010ELETROMIDIA ON      NM   R$  000000000175600000000017670000000001730000000000174300000000017300000000001729000000000175200378000000000000103800000000000180940500000000000000009999123100000010000000000000BRELMDACNOR3101
012024080102EMAE4       010EMAE        PN           R$  000000000411300000000042890000000004113000000000424100000000042870000000004170000000000428800014000000000000002200000000000009330500000000000000009999123100000010000000000000BREMAEACNPR1125
012024080102EMBR3       010EMBRAER     ON      NM   R$  000000000438700000000044090000000004170000000000426100000000042020000000004202000000000420322713000000000006552500000000027923122500000000000000009999123100000010000000000000BREMBRACNOR4191
012024080102KRSA3       010KORA SAUDE  ON      NM   R$  000000000007200000000000800000000000071000000000007800000000000770000000000077000000000007800441000000000002302000000000000181058100000000000000009999123100000010000000000000BRKRSAACNOR0100
012024080102LAND3       010TERRASANTAPAON      NM   R$  000000000138000000000014500000000001368000000000139400000000014500000000001401000000000145600135000000000000022200000000000030948000000000000000009999123100000010000000000000BRLANDACNOR9103
012024080102LAVV3       010LAVVI       ON      NM   R$  000000000089100000000009110000000000891000000000089900000000008960000000000896000000000089702535000000000000403600000000000363161700000000000000009999123100000010000000000000BRLAVVACNOR4112
012024080102LEVE3       010METAL LEVE  ON      NM   R$  000000000337500000000034130000000003340000000000337100000000033410000000003340000000000335501994000000000000299900000000001010986500000000000000009999123100000010000000000000BRLEVEACNOR2197
012024080102LJQQ3       010QUERO-QUERO ON      NM   R$  000000000039300000000004100000000000382000000000039400000000003980000000000392000000000039804681000000000002552900000000001007915800000000000000009999123100000010000000000000BRLJQQACNOR5104
012024080102LOGG3       010LOG COM PROPON      NM   R$  000000000218000000000022370000000002164000000000221100000000022090000000002208000000000223001832000000000000295400000000000653354600000000000000009999123100000010000000000000BRLOGGACNOR7107
012024080102LOGN3       010LOG-IN      ON      NM   R$  000000000372100000000038160000000003546000000000363000000000035950000000003595000000000362800284000000000000038500000000000139765200000000000000009999123100000010000000000000BRLOGNACNOR3105
012024080102LPSB3       010LOPES BRASILON      NM   R$  000000000017400000000001800000000000172000000000017600000000001720000000000172000000000017500147000000000000060800000000000010717100000000000000009999123100000010000000000000BRLPSBACNOR0114
012024080102LREN3       010LOJAS RENNERON      NM   R$  000000000133600000000013660000000001319000000000133300000000013290000000001328000000000132918641000000000017114500000000022821725900000000000000009999123100000010000000000000BRLRENACNOR1221
012024080102VITT3       010VITTIA      ON      NM   R$  000000000061000000000006170000000000600000000000060700000000006050000000000605000000000061301218000000000000173300000000000105280700000000000000009999123100000010000000000000BRVITTACNOR4107
012024080102VIVA3       010VIVARA S.A. ON      NM   R$  000000000243000000000024720000000002386000000000242200000000023890000000002386000000000239715268000000000005125400000000012416116500000000000000009999123100000010000000000000BRVIVAACNOR0107
012024080102VIVR3       010VIVER       ON      NM   R$  000000000023800000000002400000000000233000000000023600000000002340000000000234000000000023500057000000000000037700000000000008900500000000000000009999123100000010000000000000BRVIVRACNOR4123
012024080102VIVT3       010TELEF BRASILON  EJ       R$  000000000487800000000050930000000004857000000000502000000000050600000000005050000000000506216951000000000006273100000000031492226300000000000000009999123100000010000000000000BRVIVTACNOR0183
012024080102VLID3       010VALID       ON      NM   R$  000000000172100000000017440000000001710000000000172400000000017100000000001709000000000171302799000000000000454200000000000783336700000000000000009999123100000010000000000000BRVLIDACNOR5143
012024080102PETZ3       010PETZ        ON      NM   R$  000000000035200000000003570000000000336000000000034700000000003420000000000342000000000034311305000000000009995000000000003476486100000000000000009999123100000010000000000000BRPETZACNOR2110
012024080102ODPV3       010ODONTOPREV  ON      NM   R$  000000000112500000000011580000000001125000000000114100000000011310000000001131000000000114002652000000000000711500000000000812153900000000000000009999123100000010000000000000BRODPVACNOR4202
012024080102OFSA3       010OUROFINO S/AON      NM   R$  000000000204100000000020410000000001950000000000198400000000019500000000001940000000000198800015000000000000001500000000000002976900000000000000009999123100000010000000000000BROFSAACNOR7118
012024080102ONCO3       010ONCOCLINICASON      NM   R$  000000000063900000000006520000000000628000000000064000000000006440000000000636000000000064404168000000000002029700000000001299902000000000000000009999123100000010000000000000BRONCOACNOR6101
012024080102OPCT3       010OCEANPACT   ON      NM   R$  000000000065800000000006590000000000626000000000063400000000006370000000000630000000000063801112000000000000426100000000000270552600000000000000009999123100000010000000000000BROPCTACNOR0100
012024080102ORVR3       010ORIZON      ON      NM   R$  000000000425600000000043100000000004201000000000423100000000042200000000004220000000000422302192000000000000386400000000001635126700000000000000009999123100000010000000000000BRORVRACNOR0101
012024080102ROMI3       010ROMI        ON      NM   R$  000000000106000000000010740000000001042000000000105600000000010470000000001046000000000104700722000000000000128000000000000135295100000000000000009999123100000010000000000000BRROMIACNOR8195
012024080102RPAD3       010ALFA HOLDINGON           R$  000000000088200000000008860000000000882000000000088200000000008840000000000873000000000094000006000000000000003200000000000002825000000000000000009999123100000010000000000000BRRPADACNOR1198
012024080102RPAD5       010ALFA HOLDINGPNA          R$  000000000085100000000008510000000000851000000000085100000000008510000000000849000000000090000001000000000000000100000000000000085100000000000000009999123100000010000000000000BRRPADACNPA4218
012024080102KEPL3       010KEPLER WEBERON      NM   R$  000000000105900000000010900000000001035000000000106300000000010550000000001055000000000105805418000000000002669800000000002839275400000000000000009999123100000010000000000000BRKEPLACNOR1063
012024080102KLBN11      010KLABIN S/A  UNT     N2   R$  000000000219200000000022140000000002180000000000219600000000022040000000002198000000000220416168000000000005234000000000011494700600000000000000009999123100000010000000000000BRKLBNCDAM18142
012024080102TASA3       010TAURUS ARMASON      N2   R$  000000000118500000000011850000000001120000000000114200000000011260000000001126000000000114500117000000000000029500000000000033708900000000000000009999123100000010000000000000BRTASAACNOR7104
012024080102TASA4       010TAURUS ARMASPN      N2   R$  000000000115900000000011670000000001110000000000112800000000011100000000001110000000000111201614000000000000506000000000000570871900000000000000009999123100000010000000000000BRTASAACNPR4104
012024080102TCSA3       010TECNISA     ON      NM   R$  000000000022100000000002310000000000205000000000021400000000002070000000000207000000000020800330000000000000102000000000000021899200000000000000009999123100000010000000000000BRTCSAACNOR3112
012024080102TECN3       010TECHNOS     ON      NM   R$  000000000054000000000005450000000000523000000000053500000000005390000000000531000000000053900734000000000000214500000000000114784000000000000000009999123100000010000000000000BRTECNACNOR6109
012024080102TELB4       010TELEBRAS    PN           R$  000000000095400000000010000000000000930000000000095800000000009650000000000946000000000096700054000000000000009700000000000009297200000000000000009999123100000010000000000000BRTELBACNPR9140
012024080102TEND3       010TENDA       ON      NM   R$  000000000130100000000013500000000001286000000000131800000000013020000000001290000000000130309648000000000002532100000000003337360700000000000000009999123100000010000000000000BRTENDACNOR4111
012024080102TFCO4       010TRACK FIELD PN      N2   R$  000000000111400000000011450000000001109000000000113400000000011450000000001142000000000114900215000000000000081500000000000092443400000000000000009999123100000010000000000000BRTFCOACNPR8114
012024080102TGMA3       010TEGMA       ON      NM   R$  000000000242200000000024720000000002413000000000243500000000024270000000002412000000000242800756000000000000095400000000000232300100000000000000009999123100000010000000000000BRTGMAACNOR7144
012024080102TIMS3       010TIM         ON      NM   R$  000000000174000000000017660000000001713000000000174400000000017620000000001758000000000176318634000000000010030000000000017495008500000000000000009999123100000010000000000000BRTIMSACNOR5117
012024080102KLBN3       010KLABIN S/A  ON      N2   R$  000000000044000000000004450000000000438000000000044100000000004430000000000442000000000044401315000000000000389400000000000171992200000000000000009999123100000010000000000000BRKLBNACNOR2170
012024080102KLBN4       010KLABIN S/A  PN      N2   R$  000000000043800000000004420000000000435000000000043800000000004400000000000440000000000044109309000000000002674500000000001172097400000000000000009999123100000010000000000000BRKLBNACNPR9170
012024080102NEOE3       010NEOENERGIA  ON      NM   R$  000000000181700000000018550000000001800000000000183500000000018260000000001826000000000183005744000000000001019100000000001870059200000000000000009999123100000010000000000000BRNEOEACNOR3123
012024080102VAMO3       010VAMOS       ON      NM   R$  000000000086000000000008820000000000838000000000085600000000008470000000000847000000000084811676000000000009331800000000007988283700000000000000009999123100000010000000000000BRVAMOACNOR7105
012024080102VBBR3       010VIBRA       ON      NM   R$  000000000233300000000023740000000002322000000000234800000000023420000000002342000000000234324407000000000007943400000000018655137900000000000000009999123100000010000000000000BRVBBRACNOR1108
012024080102RECV3       010PETRORECSA  ON      NM   R$  000000000209900000000021340000000002017000000000206700000000020300000000002030000000000203509104000000000004030500000000008334530500000000000000009999123100000010000000000000BRRECVACNOR3107
012024080102REDE3       010REDE ENERGIAON           R$  000000000068800000000007070000000000684000000000069200000000006980000000000693000000000069800017000000000000001800000000000001246600000000000000009999123100000010000000000000BRREDEACNOR7128
012024080102RENT3       010LOCALIZA    ON      NM   R$  000000000441500000000044760000000004345000000000439600000000043760000000004372000000000437828330000000000007352800000000032327553900000000000000009999123100000010000000000000BRRENTACNOR4196
012024080102NGRD3       010NEOGRID     ON      NM   R$  000000000011800000000001200000000000117000000000011800000000001180000000000118000000000011901068000000000000913200000000000108273600000000000000009999123100000010000000000000BRNGRDACNOR3104
012024080102NINJ3       010GETNINJAS   ON      NM   R$  000000000047400000000004790000000000470000000000047500000000004790000000000461000000000047900027000000000000008000000000000003802700000000000000009999123100000010000000000000BRNINJACNOR5101
012024080102NORD3       010NORDON MET  ON           R$  000000000120000000000012000000000001115000000000117600000000011150000000001051000000000122600011000000000000002300000000000002705500000000000000009999123100000010000000000000BRNORDACNOR7135
012024080102NTCO3       010GRUPO NATURAON      NM   R$  000000000150600000000015060000000001466000000000147400000000014710000000001471000000000147709553000000000006957700000000010261050600000000000000009999123100000010000000000000BRNTCOACNOR5106
012024080102ATOM3       010ATOMPAR     ON           R$  000000000019900000000002030000000000194000000000019900000000001960000000000195000000000020200033000000000000008800000000000001752000000000000000009999123100000010000000000000BRATOMACNOR1106
012024080102SYNE3       010SYN PROP TECON      NM   R$  000000000101000000000010500000000001010000000000103200000000010250000000001023000000000102500948000000000000429800000000000443627000000000000000009999123100000010000000000000BRSYNEACNOR2102
012024080102AURE3       010AUREN       ON      NM   R$  000000000119200000000012360000000001189000000000122100000000012350000000001235000000000123608087000000000005073000000000006196102500000000000000009999123100000010000000000000BRAUREACNOR9104
012024080102AVLL3       010ALPHAVILLE  ON      NM   R$  000000000038000000000003800000000000375000000000037700000000003750000000000330000000000037500010000000000000002900000000000001094000000000000000009999123100000010000000000000BRAVLLACNOR5103
012024080102AZEV3       010AZEVEDO     ON           R$  000000000014500000000001490000000000135000000000013900000000001360000000000136000000000013800473000000000000409600000000000057293200000000000000009999123100000010000000000000BRAZEVACNOR0121
012024080102AZEV4       010AZEVEDO     PN           R$  000000000014400000000001450000000000131000000000013700000000001350000000000134000000000013501554000000000003677400000000000504328500000000000000009999123100000010000000000000BRAZEVACNPR7121
012024080102AZUL4       010AZUL        PN      N2   R$  000000000081000000000008330000000000774000000000080100000000007860000000000786000000000078711870000000000015894900000000012745519600000000000000009999123100000010000000000000BRAZULACNPR4102
012024080102TAEE11      010TAESA       UNT     N2   R$  000000000338400000000034280000000003382000000000341100000000034120000000003408000000000341207802000000000001757300000000005994967800000000000000009999123100000010000000000000BRTAEECDAM10147
012024080102TAEE3       010TAESA       ON      N2   R$  000000000112900000000011360000000001122000000000113100000000011310000000001130000000000113500957000000000000152300000000000172262200000000000000009999123100000010000000000000BRTAEEACNOR9147
012024080102TAEE4       010TAESA       PN      N2   R$  000000000113300000000011470000000001132000000000113600000000011380000000001137000000000113804608000000000000621300000000000706327500000000000000009999123100000010000000000000BRTAEEACNPR6147
012024080102RANI3       010IRANI       ON      NM   R$  000000000084600000000008600000000000827000000000083900000000008270000000000827000000000083304342000000000001674500000000001406064400000000000000009999123100000010000000000000BRRANIACNOR5072
012024080102RAPT3       010RANDON PART ON  EJ  N1   R$  000000000091000000000009180000000000876000000000089300000000008900000000000890000000000089300240000000000000055100000000000049205700000000000000009999123100000010000000000000BRRAPTACNOR7163
012024080102RAPT4       010RANDON PART PN  EJ  N1   R$  000000000107700000000010880000000001025000000000103800000000010430000000001042000000000104408648000000000005995300000000006223512500000000000000009999123100000010000000000000BRRAPTACNPR4163
012024080102BBSE3       010BBSEGURIDADEON      NM   R$  000000000352800000000035660000000003496000000000351500000000035050000000003503000000000350512179000000000003022700000000010626687800000000000000009999123100000010000000000000BRBBSEACNOR5124
012024080102BPAN4       010BANCO PAN   PN      N1   R$  000000000087100000000008990000000000862000000000087800000000008700000000000868000000000087002597000000000000950700000000000834839400000000000000009999123100000010000000000000BRBPANACNPR1115
012024080102BRAP3       010BRADESPAR   ON      N1   R$  000000000181800000000018180000000001741000000000175200000000017410000000001741000000000175000336000000000000067100000000000117600400000000000000009999123100000010000000000000BRBRAPACNOR5148
012024080102BRAP4       010BRADESPAR   PN      N1   R$  000000000186400000000018650000000001818000000000183600000000018180000000001817000000000182007148000000000003214300000000005903228800000000000000009999123100000010000000000000BRBRAPACNPR2148
012024080102CSED3       010CRUZEIRO EDUON      NM   R$  000000000040400000000004110000000000396000000000040100000000003970000000000397000000000039800822000000000000484400000000000194595500000000000000009999123100000010000000000000BRCSEDACNOR9104
012024080102CSMG3       010COPASA      ON      NM   R$  000000000216800000000021710000000002042000000000208700000000020450000000002044000000000204513665000000000007996200000000016688653800000000000000009999123100000010000000000000BRCSMGACNOR5174
012024080102CSNA3       010SID NACIONALON           R$  000000000119200000000012010000000001144000000000115600000000011440000000001144000000000114513413000000000009075600000000010498922700000000000000009999123100000010000000000000BRCSNAACNOR6261
012024080102EKTR3       010ELEKTRO     ON  ED       R$  000000000400300000000040030000000004003000000000400300000000040030000000003850000000000000000001000000000000000100000000000000400300000000000000009999123100000010000000000000BREKTRACNOR0164
012024080102EKTR4       010ELEKTRO     PN  ED       R$  000000000405800000000040990000000003902000000000399600000000040050000000004004000000000410000016000000000000002100000000000008393500000000000000009999123100000010000000000000BREKTRACNPR7164
012024080102ELET3       010ELETROBRAS  ON      N1   R$  000000000398400000000040390000000003966000000000400600000000040160000000004016000000000401721476000000000008363900000000033513514600000000000000009999123100000010000000000000BRELETACNOR6160
012024080102ELET6       010ELETROBRAS  PNB     N1   R$  000000000439500000000044440000000004379000000000441000000000044100000000004410000000000441109355000000000001954200000000008619201900000000000000009999123100000010000000000000BRELETACNPB7077
012024080102GSHP3       010GENERALSHOPPON           R$  000000000105000000000010500000000001050000000000105000000000010500000000001050000000000149200001000000000000000100000000000000105000000000000000009999123100000010000000000000BRGSHPACNOR7102
012024080102CAMB3       010CAMBUCI     ON           R$  000000000115200000000011590000000001133000000000114900000000011450000000001135000000000114500118000000000000093800000000000107814000000000000000009999123100000010000000000000BRCAMBACNOR4130
012024080102CAML3       010CAMIL       ON      NM   R$  000000000088800000000009040000000000882000000000089400000000008840000000000883000000000088403348000000000000716600000000000641168700000000000000009999123100000010000000000000BRCAMLACNOR3128
012024080102CASH3       010MELIUZ      ON      NM   R$  000000000056000000000005700000000000545000000000055200000000005450000000000544000000000054902853000000000000996200000000000550620900000000000000009999123100000010000000000000BRCASHACNOR8106
012024080102CBAV3       010CBA         ON      NM   R$  000000000053700000000005430000000000501000000000051600000000005010000000000501000000000050205293000000000004359000000000002250760500000000000000009999123100000010000000000000BRCBAVACNOR5104
012024080102CCRO3       010CCR SA      ON      NM   R$  000000000124200000000012560000000001236000000000124900000000012520000000001244000000000125208081000000000007481300000000009345195700000000000000009999123100000010000000000000BRCCROACNOR2145
012024080102GUAR3       010GUARARAPES  ON      NM   R$  000000000068500000000007150000000000669000000000068700000000006740000000000671000000000067705351000000000001844900000000001268890800000000000000009999123100000010000000000000BRGUARACNOR4173
012024080102BMEB4       010MERCANTIL   PN  EJ  N1   R$  000000000316800000000032300000000003065000000000316300000000032100000000003210000000000321700112000000000000022200000000000070226300000000000000009999123100000010000000000000BRBMEBACNPR5211
012024080102BMGB4       010BANCO BMG   PN  EJ  N1   R$  000000000035500000000003580000000000347000000000035300000000003510000000000351000000000035200767000000000000446800000000000157759000000000000000009999123100000010000000000000BRBMGBACNPR0110
012024080102BMIN3       010MERC INVEST ON           R$  000000000196700000000019670000000001961000000000196300000000019620000000001800000000000000000003000000000000000400000000000000785200000000000000009999123100000010000000000000BRBMINACNOR4170
012024080102BMKS3       010BIC MONARK  ON           R$  000000003220100000000322010000000032000000000003210000000000320000000000032000000000003270000002000000000000000002000000000000064201000000000000009999123100000010000000000000BRBMKSACNOR9166
012024080102BMOB3       010BEMOBI TECH ON      NM   R$  000000000144600000000014840000000001446000000000147000000000014610000000001460000000000147601288000000000000182700000000000268710400000000000000009999123100000010000000000000BRBMOBACNOR7103
012024080102BNBR3       010NORD BRASIL ON           R$  000000000950000000000095000000000009400000000000947100000000094700000000009400000000000950000005000000000000000800000000000007577000000000000000009999123100000010000000000000BRBNBRACNOR8208
012024080102BOBR4       010BOMBRIL     PN           R$  000000000020200000000002060000000000202000000000020400000000002030000000000203000000000020600050000000000000012700000000000002601800000000000000009999123100000010000000000000BRBOBRACNPR3128
012024080102DASA3       010DASA        ON      NM   R$  000000000027400000000002790000000000266000000000027100000000002670000000000267000000000026802258000000000001658400000000000449582400000000000000009999123100000010000000000000BRDASAACNOR1122
012024080102ITSA3       010ITAUSA      ON      N1   R$  000000000101800000000010210000000000991000000000100200000000009910000000000991000000000099200903000000000000613300000000000614870000000000000000009999123100000010000000000000BRITSAACNOR0441
012024080102ITSA4       010ITAUSA      PN      N1   R$  000000000101700000000010200000000000990000000000100000000000009980000000000997000000000099825310000000000025171700000000025175229200000000000000009999123100000010000000000000BRITSAACNPR7441
012024080102MDIA3       010M.DIASBRANCOON      NM   R$  000000000270300000000027280000000002660000000000268500000000026730000000002673000000000267903703000000000001034100000000002776865000000000000000009999123100000010000000000000BRMDIAACNOR7135
012024080102MDNE3       010MOURA DUBEUXON      NM   R$  000000000140000000000014200000000001400000000000141100000000014160000000001408000000000141702598000000000000614900000000000867717000000000000000009999123100000010000000000000BRMDNEACNOR9100
012024080102MEAL3       010IMC S/A     ON      NM   R$  000000000015900000000001610000000000158000000000016000000000001610000000000158000000000016100248000000000000635500000000000101688600000000000000009999123100000010000000000000BRMEALACNOR9105
012024080102MELK3       010MELNICK     ON      NM   R$  000000000034600000000003550000000000342000000000034700000000003420000000000342000000000034600269000000000000107600000000000037345900000000000000009999123100000010000000000000BRMELKACNOR8111
012024080102MGEL4       010MANGELS INDLPN           R$  000000000134900000000013490000000001349000000000134900000000013490000000001302000000000133900002000000000000003800000000000005126200000000000000009999123100000010000000000000BRMGELACNPR3147
012024080102DESK3       010DESKTOP     ON      NM   R$  000000000170000000000017510000000001660000000000170800000000017120000000001711000000000172002536000000000000822200000000001404580400000000000000009999123100000010000000000000BRDESKACNOR2104
012024080102DEXP3       010DEXXOS PAR  ON      N1   R$  000000000102600000000010570000000001025000000000103800000000010250000000001024000000000104500396000000000000082300000000000085466900000000000000009999123100000010000000000000BRDEXPACNOR1105
012024080102DEXP4       010DEXXOS PAR  PN      N1   R$  000000000102300000000010280000000001020000000000102600000000010260000000001012000000000102600033000000000000069000000000000070814900000000000000009999123100000010000000000000BRDEXPACNPR8105
012024080102DIRR3       010DIRECIONAL  ON      NM   R$  000000000279400000000028090000000002741000000000277800000000027590000000002755000000000275910783000000000002551200000000007087678200000000000000009999123100000010000000000000BRDIRRACNOR0118
012024080102DMVF3       010D1000VFARMA ON      NM   R$  000000000076500000000007930000000000723000000000076000000000007230000000000723000000000074500717000000000000123200000000000093691600000000000000009999123100000010000000000000BRDMVFACNOR9100
012024080102DOHL4       010DOHLER      PN           R$  000000000041600000000004160000000000410000000000041400000000004140000000000407000000000041500005000000000000000900000000000000373100000000000000009999123100000010000000000000BRDOHLACNPR9066
012024080102DOTZ3       010DOTZ SA     ON      NM   R$  000000000067700000000006770000000000649000000000066000000000006570000000000657000000000067500031000000000000006100000000000004029000000000000000009999123100000010000000000000BRDOTZACNOR7101
012024080102EVEN3       010EVEN        ON      NM   R$  000000000062900000000006400000000000611000000000062500000000006160000000000614000000000061602580000000000000673200000000000420782200000000000000009999123100000010000000000000BREVENACNOR8119
012024080102EZTC3       010EZTEC       ON      NM   R$  000000000133400000000013410000000001293000000000131300000000013050000000001305000000000130606179000000000001949900000000002562137000000000000000009999123100000010000000000000BREZTCACNOR0125
012024080102DTCY3       010DTCOM-DIRECTON           R$  000000000064500000000006890000000000645000000000068100000000006860000000000000000000000068500006000000000000001800000000000001227000000000000000009999123100000010000000000000BRDTCYACNOR5109
012024080102DXCO3       010DEXCO       ON      NM   R$  000000000073600000000007400000000000699000000000071500000000006990000000000699000000000070005341000000000002781700000000001989256500000000000000009999123100000010000000000000BRDXCOACNOR8105
012024080102ENEV3       010ENEVA       ON      NM   R$  000000000126300000000012730000000001244000000000125300000000012540000000001254000000000125611551000000000005366500000000006728926500000000000000009999123100000010000000000000BRENEVACNOR8106
012024080102ENGI11      010ENERGISA    UNT     N2   R$  000000000444300000000045390000000004423000000000450600000000045130000000004507000000000451612856000000000002456000000000011068165800000000000000009999123100000010000000000000BRENGICDAM16135
012024080102ENGI3       010ENERGISA    ON      N2   R$  000000000135800000000013970000000001358000000000137400000000013970000000001385000000000139700023000000000000002600000000000003573800000000000000009999123100000010000000000000BRENGIACNOR0145
012024080102ENGI4       010ENERGISA    PN      N2   R$  000000000079900000000007990000000000776000000000078000000000007830000000000778000000000078300032000000000000008200000000000006401000000000000000009999123100000010000000000000BRENGIACNPR7141
012024080102ENJU3       010ENJOEI      ON      NM   R$  000000000017400000000001850000000000165000000000017600000000001830000000000180000000000018300546000000000000778800000000000137268700000000000000009999123100000010000000000000BRENJUACNOR9100
012024080102EPAR3       010EMBPAR S/A  ON           R$  000000000060000000000006000000000000592000000000059600000000005920000000000592000000000060000016000000000000003700000000000002208400000000000000009999123100000010000000000000BREPARACNOR9105
012024080102EQMA3B      010EQTLMARANHAOON      MB   R$  000000000257600000000025760000000002576000000000257600000000025760000000002502000000000259900001000000000000000100000000000000257600000000000000009999123100000010000000000000BREQMAACNOR8108
012024080102EQPA3       010EQTL PARA   ON           R$  000000000073100000000007490000000000716000000000072300000000007160000000000716000000000072800036000000000000004000000000000002894200000000000000009999123100000010000000000000BREQPAACNOR1111
012024080102FESA3       010FERBASA     ON      N1   R$  000000000130000000000013500000000001260000000000132600000000013500000000001272000000000140900006000000000000000600000000000000795800000000000000009999123100000010000000000000BRFESAACNOR8188
012024080102FESA4       010FERBASA     PN      N1   R$  000000000082900000000008380000000000808000000000081800000000008130000000000812000000000081301641000000000000501600000000000410420700000000000000009999123100000010000000000000BRFESAACNPR5084
012024080102EQTL3       010EQUATORIAL  ON      NM   R$  000000000326400000000033250000000003257000000000330300000000032900000000003288000000000329115657000000000005930400000000019588548500000000000000009999123100000010000000000000BREQTLACNOR0130
012024080102IFCM3       010INFRACOMM   ON      NM   R$  000000000003500000000000360000000000034000000000003400000000000340000000000034000000000003501468000000000004231700000000000147856600000000000000009999123100000010000000000000BRIFCMACNOR8101
012024080102IGTI11      010IGUATEMI S.AUNT     N1   R$  000000000209700000000021520000000002097000000000212100000000021160000000002112000000000211908298000000000002598800000000005513267600000000000000009999123100000010000000000000BRIGTICDAM16106
012024080102IGTI3       010IGUATEMI S.AON      N1   R$  000000000026000000000002650000000000258000000000026000000000002580000000000258000000000026100181000000000000072700000000000018973000000000000000009999123100000010000000000000BRIGTIACNOR8106
012024080102INEP3       010INEPAR      ON           R$  000000000019000000000001940000000000179000000000018900000000001830000000000183000000000018500087000000000000058400000000000011053100000000000000009999123100000010000000000000BRINEPACNOR1143
012024080102INEP4       010INEPAR      PN           R$  000000000019600000000001960000000000184000000000018600000000001850000000000184000000000018500065000000000000072300000000000013468500000000000000009999123100000010000000000000BRINEPACNPR8143
012024080102INTB3       010INTELBRAS   ON      NM   R$  000000000217000000000022090000000002127000000000216400000000021390000000002131000000000214006099000000000001557400000000003371334000000000000000009999123100000010000000000000BRINTBACNOR9111
012024080102IRBR3       010IRBBRASIL REON      NM   R$  000000000293100000000029990000000002878000000000293500000000028930000000002893000000000290403533000000000000719600000000002112213300000000000000009999123100000010000000000000BRIRBRACNOR4111
012024080102MGLU3       010MAGAZ LUIZA ON      NM   R$  000000000113000000000011500000000001073000000000111000000000010800000000001080000000000108121932000000000019814000000000022012286900000000000000009999123100000010000000000000BRMGLUACNOR2124
012024080102BAHI3       010BAHEMA      ON      MA   R$  000000000064000000000006400000000000640000000000064000000000006400000000000640000000000067200001000000000000000500000000000000320000000000000000009999123100000010000000000000BRBAHIACNOR1074
012024080102BALM4       010BAUMER      PN           R$  000000000102500000000010300000000001025000000000102900000000010300000000001000000000000105000004000000000000001900000000000001956400000000000000009999123100000010000000000000BRBALMACNPR2056
012024080102BAZA3       010AMAZONIA    ON           R$  000000000920500000000100000000000009205000000000977100000000095290000000009401000000000952900094000000000000011500000000000112375200000000000000009999123100000010000000000000BRBAZAACNOR0179
012024080102BBAS3       010BRASIL      ON      NM   R$  000000000266500000000026720000000002622000000000264100000000026370000000002636000000000263841635000000000022830700000000060309866800000000000000009999123100000010000000000000BRBBASACNOR3324
012024080102LUPA3       010LUPATECH    ON      NM   R$  000000000017500000000001750000000000171000000000017200000000001720000000000172000000000017300087000000000000073900000000000012762100000000000000009999123100000010000000000000BRLUPAACNOR8112
012024080102LVTC3       010WDC NETWORKSON      NM   R$  000000000037600000000003760000000000353000000000035800000000003580000000000351000000000035700038000000000000018200000000000006519900000000000000009999123100000010000000000000BRLVTCACNOR4102
012024080102LWSA3       010LWSA        ON      NM   R$  000000000044100000000004450000000000425000000000043200000000004270000000000427000000000042808445000000000004669500000000002020186000000000000000009999123100000010000000000000BRLWSAACNOR8103
012024080102BLAU3       010BLAU        ON      NM   R$  000000000103500000000010520000000001008000000000103300000000010160000000001015000000000102001033000000000000248800000000000257062100000000000000009999123100000010000000000000BRBLAUACNOR8114
012024080102BMEB3       010MERCANTIL   ON  EJ  N1   R$  000000000297000000000029700000000002970000000000297000000000029700000000002970000000000327400001000000000000000100000000000000297000000000000000009999123100000010000000000000BRBMEBACNOR8206
012024080102MATD3       010MATER DEI   ON      NM   R$  000000000046300000000004840000000000458000000000046600000000004590000000000458000000000046302043000000000000350900000000000163826800000000000000009999123100000010000000000000BRMATDACNOR4104
012024080102MBLY3       010MOBLY       ON      NM   R$  000000000029300000000002980000000000264000000000027500000000002720000000000272000000000027500988000000000001016500000000000280539900000000000000009999123100000010000000000000BRMBLYACNOR5100
012024080102BSLI3       010BRB BANCO   ON           R$  000000000100100000000010010000000001001000000000100100000000010010000000000951000000000100100002000000000000000200000000000000200200000000000000009999123100000010000000000000BRBSLIACNOR5194
012024080102BSLI4       010BRB BANCO   PN           R$  000000000100000000000010000000000001000000000000100000000000010000000000000961000000000100000001000000000000000200000000000000200000000000000000009999123100000010000000000000BRBSLIACNPR2194
012024080102PDGR3       010PDG REALT   ON  ES  NM   R$  000000000001800000000000230000000000018000000000002000000000000190000000000019000000000002001371000000000014019500000000000286696800000000000000009999123100000010000000000000BRPDGRACNOR8119
012024080102PDTC3       010PADTEC      ON      NM   R$  000000000018900000000001940000000000189000000000019100000000001910000000000189000000000019100037000000000000011800000000000002258000000000000000009999123100000010000000000000BRPDTCACNOR3101
012024080102PETR3       010PETROBRAS   ON      N2   R$  000000000409400000000041070000000003985000000000402300000000039850000000003985000000000398617419000000000007799600000000031383676000000000000000009999123100000010000000000000BRPETRACNOR9205
012024080102PETR4       010PETROBRAS   PN      N2   R$  000000000377500000000037830000000003679000000000372300000000036840000000003683000000000368454732000000000029756300000000110792789400000000000000009999123100000010000000000000BRPETRACNPR6213
012024080102BEES3       010BANESTES    ON           R$  000000000090200000000009030000000000894000000000089800000000008990000000000896000000000089900079000000000000012600000000000011326500000000000000009999123100000010000000000000BRBEESACNOR9393
012024080102BEES4       010BANESTES    PN           R$  000000000095600000000009660000000000956000000000096000000000009600000000000960000000000097000021000000000000002200000000000002114100000000000000009999123100000010000000000000BRBEESACNPR6318
012024080102PCAR3       010P.ACUCAR-CBDON      NM   R$  000000000026700000000002710000000000262000000000026500000000002630000000000263000000000026406037000000000013660800000000003621775500000000000000009999123100000010000000000000BRPCARACNOR3167
012024080102AZZA3       010AZZAS 2154  ON      NM   R$  000000000490000000000050760000000004865000000000499700000000050390000000004995000000000503903060000000000001160300000000005798914200000000000000009999123100000010000000000000BRAZZAACNOR9100
012024080102B3SA3       010B3          ON      NM   R$  000000000108700000000011260000000001077000000000109900000000010870000000001084000000000108844124000000000046829600000000051496272500000000000000009999123100000010000000000000BRB3SAACNOR6133
012024080102WEGE3       010WEG         ON      NM   R$  000000000506000000000052930000000005003000000000519400000000052840000000005280000000000528439985000000000013624400000000070770896600000000000000009999123100000010000000000000BRWEGEACNOR0223
012024080102BEEF3       010MINERVA     ON      NM   R$  000000000063200000000006560000000000632000000000064900000000006460000000000646000000000064807264000000000004870200000000003160880600000000000000009999123100000010000000000000BRBEEFACNOR6116
012024080102BRBI11      010BR PARTNERS UNT     N2   R$  000000000142000000000014200000000001391000000000140500000000014140000000001399000000000141401274000000000000283500000000000398428600000000000000009999123100000010000000000000BRBRBICDAM10109
012024080102BRFS3       010BRF SA      ON      NM   R$  000000000212700000000021550000000002093000000000212200000000021370000000002136000000000213814749000000000005492200000000011657388600000000000000009999123100000010000000000000BRBRFSACNOR8122
012024080102CSRN3       010COSERN      ON  ED       R$  000000000163000000000017000000000001630000000000165700000000016700000000001650000000000167000021000000000000005700000000000009448400000000000000009999123100000010000000000000BRCSRNACNOR0194
012024080102CSUD3       010CSU DIGITAL ON      NM   R$  000000000193000000000019600000000001927000000000194200000000019510000000001951000000000195900198000000000000029200000000000056730600000000000000009999123100000010000000000000BRCSUDACNOR5110
012024080102CURY3       010CURY S/A    ON      NM   R$  000000000221500000000022590000000002199000000000222800000000021990000000002199000000000222009082000000000001756900000000003914814700000000000000009999123100000010000000000000BRCURYACNOR3109
012024080102CVCB3       010CVC BRASIL  ON      NM   R$  000000000018000000000001860000000000176000000000018000000000001780000000000178000000000017904882000000000009187700000000001658044400000000000000009999123100000010000000000000BRCVCBACNOR1116
012024080102HYPE3       010HYPERA      ON  EJ  NM   R$  000000000287600000000028810000000002791000000000281200000000028160000000002813000000000281609666000000000004125600000000011603997300000000000000009999123100000010000000000000BRHYPEACNOR0143
012024080102JOPA3       010JOSAPAR     ON           R$  000000000210000000000021000000000002100000000000210000000000021000000000002100000000000239900001000000000000000900000000000001890000000000000000009999123100000010000000000000BRJOPAACNOR5135
012024080102JSLG3       010JSL         ON      NM   R$  000000000093400000000009760000000000932000000000096000000000009350000000000931000000000093501378000000000000385000000000000369620500000000000000009999123100000010000000000000BRJSLGACNOR2121
012024080102HAGA3       010HAGA S/A    ON           R$  000000000026500000000002720000000000262000000000026900000000002700000000000270000000000027100039000000000000011500000000000003094500000000000000009999123100000010000000000000BRHAGAACNOR7103
012024080102HAGA4       010HAGA S/A    PN           R$  000000000011600000000001180000000000116000000000011700000000001180000000000118000000000012000013000000000000002100000000000000246900000000000000009999123100000010000000000000BRHAGAACNPR4103
012024080102HAPV3       010HAPVIDA     ON      NM   R$  000000000041000000000004290000000000410000000000042000000000004210000000000421000000000042228637000000000085452500000000035939573600000000000000009999123100000010000000000000BRHAPVACNOR4114
012024080102HBOR3       010HELBOR      ON      NM   R$  000000000022000000000002270000000000219000000000022200000000002190000000000219000000000022100376000000000000291200000000000064705500000000000000009999123100000010000000000000BRHBORACNOR3118
012024080102HBRE3       010HBR REALTY  ON      NM   R$  000000000054600000000005620000000000535000000000054800000000005370000000000537000000000053900922000000000000458900000000000251630100000000000000009999123100000010000000000000BRHBREACNOR4100
012024080102HBSA3       010HIDROVIAS   ON      NM   R$  000000000035200000000003630000000000340000000000034900000000003400000000000339000000000034203844000000000001237600000000000432383800000000000000009999123100000010000000000000BRHBSAACNOR0100
012024080102JHSF3       010JHSF PART   ON  ED  NM   R$  000000000040700000000004090000000000397000000000040100000000004000000000000399000000000040004927000000000003196900000000001282449100000000000000009999123100000010000000000000BRJHSFACNOR2138
012024080102MTRE3       010MITRE REALTYON      NM   R$  000000000039500000000004010000000000388000000000039400000000003900000000000389000000000039001924000000000000579900000000000228699700000000000000009999123100000010000000000000BRMTREACNOR6113
012024080102MTSA4       010METISA      PN           R$  000000000435100000000044490000000004351000000000440200000000044490000000004232000000000445000013000000000000001400000000000006163200000000000000009999123100000010000000000000BRMTSAACNPR9072
012024080102MULT3       010MULTIPLAN   ON      N2   R$  000000000241600000000024540000000002403000000000242600000000024280000000002425000000000242912128000000000003104000000000007533243500000000000000009999123100000010000000000000BRMULTACNOR5139
012024080102MWET4       010WETZEL S/A  PN           R$  000000000090200000000009020000000000832000000000088400000000008320000000000843000000000093300004000000000000000400000000000000353600000000000000009999123100000010000000000000BRMWETACNPR3118
012024080102MYPK3       010IOCHP-MAXIONON      NM   R$  000000000124400000000012600000000001223000000000123600000000012370000000001229000000000123704124000000000000841000000000001039810700000000000000009999123100000010000000000000BRMYPKACNOR7155
012024080102ANIM3       010ANIMA       ON      NM   R$  000000000036300000000003730000000000352000000000036100000000003530000000000353000000000035406782000000000004579300000000001653994200000000000000009999123100000010000000000000BRANIMACNOR6108
012024080102APER3       010ALPER S.A.  ON           R$  000000000450800000000045400000000004499000000000450500000000044990000000004500000000000453000015000000000000002100000000000009462400000000000000009999123100000010000000000000BRAPERACNOR9106
012024080102ARML3       010ARMAC       ON      NM   R$  000000000092000000000009200000000000871000000000088300000000008710000000000871000000000087404645000000000001375100000000001214347100000000000000009999123100000010000000000000BRARMLACNOR1112
012024080102ASAI3       010ASSAI       ON      NM   R$  000000000098700000000010080000000000982000000000099400000000009910000000000990000000000099216597000000000016979700000000016888183300000000000000009999123100000010000000000000BRASAIACNOR0106
012024080102BPAC11      010BTGP BANCO  UNT     N2   R$  000000000329000000000033320000000003269000000000330000000000032770000000003277000000000328128316000000000010023900000000033082761400000000000000009999123100000010000000000000BRBPACUNT006119
012024080102BPAC3       010BTGP BANCO  ON      N2   R$  000000000158500000000016180000000001566000000000159800000000015700000000001570000000000160700072000000000000007300000000000011666900000000000000009999123100000010000000000000BRBPACACNOR7134
012024080102BPAC5       010BTGP BANCO  PNA     N2   R$  000000000086200000000008710000000000830000000000084000000000008490000000000837000000000086000074000000000000014000000000000011767400000000000000009999123100000010000000000000BRBPACACNPA0134
012024080102CPLE6       010COPEL       PNB     N2   R$  000000000101000000000010250000000001006000000000101800000000010220000000001021000000000102216498000000000017308800000000017627066400000000000000009999123100000010000000000000BRCPLEACNPB9146
012024080102CRFB3       010CARREFOUR BRON      NM   R$  000000000093400000000009550000000000928000000000094200000000009340000000000933000000000093511858000000000007194000000000006780938600000000000000009999123100000010000000000000BRCRFBACNOR2116
012024080102CRPG5       010CRISTAL     PNA          R$  000000000293600000000029400000000002911000000000292000000000029110000000002910000000000294000010000000000000001000000000000002920700000000000000009999123100000010000000000000BRCRPGACNPA3119
012024080102CRPG6       010CRISTAL     PNB          R$  000000000291100000000029460000000002900000000000292000000000029460000000002901000000000297900005000000000000000500000000000001460300000000000000009999123100000010000000000000BRCRPGACNPB1119
012024080102CSAN3       010COSAN       ON      NM   R$  000000000134500000000013550000000001300000000000131900000000013070000000001306000000000130819419000000000013286600000000017530420900000000000000009999123100000010000000000000BRCSANACNOR6126
012024080102RCSL3       010RECRUSUL    ON           R$  000000000028300000000002830000000000276000000000027800000000002800000000000278000000000028000067000000000000031400000000000008755900000000000000009999123100000010000000000000BRRCSLACNOR4134
012024080102RCSL4       010RECRUSUL    PN           R$  000000000010000000000001010000000000099000000000009900000000001000000000000099000000000010000482000000000000530900000000000052828700000000000000009999123100000010000000000000BRRCSLACNPR1134
012024080102RDNI3       010RNI         ON      NM   R$  000000000032400000000003300000000000317000000000032300000000003300000000000318000000000033100015000000000000003600000000000001164600000000000000009999123100000010000000000000BRRDNIACNOR9116
012024080102RDOR3       010REDE D OR   ON      NM   R$  000000000279600000000028790000000002796000000000283800000000028050000000002805000000000280916368000000000005015600000000014236225600000000000000009999123100000010000000000000BRRDORACNOR8113
012024080102SNSY5       010SANSUY      PNA          R$  000000000057300000000006000000000000564000000000058100000000005990000000000581000000000059000016000000000000005400000000000003137400000000000000009999123100000010000000000000BRSNSYACNPA5111
012024080102SOJA3       010BOA SAFRA   ON      NM   R$  000000000150000000000015230000000001484000000000150000000000014910000000001491000000000149502440000000000000594600000000000892323500000000000000009999123100000010000000000000BRSOJAACNOR9105
012024080102SRNA3       010SERENA      ON      NM   R$  000000000087000000000008880000000000857000000000086700000000008600000000000858000000000086005307000000000001714300000000001486328800000000000000009999123100000010000000000000BRSRNAACNOR4100
012024080102STBP3       010SANTOS BRP  ON      NM   R$  000000000128500000000013780000000001283000000000135200000000013600000000001359000000000136215029000000000008166200000000011043487400000000000000009999123100000010000000000000BRSTBPACNOR3130
012024080102SUZB3       010SUZANO S.A. ON      NM   R$  000000000537400000000054670000000005334000000000540000000000053800000000005378000000000538018565000000000005096700000000027522586000000000000000009999123100000010000000000000BRSUZBACNOR0130
012024080102RADL3       010RAIADROGASILON      NM   R$  000000000275600000000028060000000002737000000000276600000000027670000000002764000000000276708959000000000003446600000000009536415900000000000000009999123100000010000000000000BRRADLACNOR0157
012024080102RAIL3       010RUMO S.A.   ON      NM   R$  000000000223800000000022950000000002230000000000227900000000022900000000002290000000000229228229000000000014391700000000032810436900000000000000009999123100000010000000000000BRRAILACNOR9105
012024080102RAIZ4       010RAIZEN      PN      N2   R$  000000000030100000000003080000000000297000000000030200000000002970000000000296000000000029715623000000000033714900000000010190736000000000000000009999123100000010000000000000BRRAIZACNPR6110
012024080102SMFT3       010SMART FIT   ON      NM   R$  000000000210000000000021460000000002064000000000210100000000020670000000002066000000000207011692000000000004248800000000008928147600000000000000009999123100000010000000000000BRSMFTACNOR1112
012024080102SMTO3       010SAO MARTINHOON  ED  NM   R$  000000000297500000000030100000000002920000000000296500000000029220000000002922000000000292309405000000000001964800000000005826038400000000000000009999123100000010000000000000BRSMTOACNOR3127
012024080102ZAMP3       010ZAMP S.A.   ON  ES       R$  000000000033600000000003380000000000322000000000032800000000003230000000000322000000000032401435000000000000485800000000000159479300000000000000009999123100000010000000000000BRZAMPACNOR5101
012024080102AALR3       010ALLIAR      ON      NM   R$  000000000111500000000011340000000001050000000000108900000000010500000000001048000000000107800105000000000000022300000000000024292400000000000000009999123100000010000000000000BRAALRACNOR6102
012024080102ABCB4       010ABC BRASIL  PN      N2   R$  000000000220200000000022650000000002202000000000224100000000022580000000002256000000000225904920000000000000879800000000001972008500000000000000009999123100000010000000000000BRABCBACNPR4146
012024080102ABEV3       010AMBEV S/A   ON           R$  000000000117500000000011990000000001163000000000117500000000011740000000001174000000000117528522000000000037947400000000044615654300000000000000009999123100000010000000000000BRABEVACNOR1128
012024080102CEAB3       010CEA MODAS   ON      NM   R$  000000000085400000000008690000000000836000000000085100000000008430000000000842000000000084306398000000000002732500000000002327226500000000000000009999123100000010000000000000BRCEABACNOR1102
012024080102CEBR3       010CEB         ON           R$  000000000197400000000019740000000001929000000000195600000000019290000000001928000000000193900033000000000000006200000000000012131200000000000000009999123100000010000000000000BRCEBRACNOR5125
012024080102CEBR5       010CEB         PNA          R$  000000000175900000000017590000000001740000000000175000000000017500000000001750000000000176000030000000000000004100000000000007175500000000000000009999123100000010000000000000BRCEBRACNPA8124
012024080102CEBR6       010CEB         PNB          R$  000000000188000000000018800000000001800000000000181900000000018100000000001810000000000189200086000000000000015900000000000028924100000000000000009999123100000010000000000000BRCEBRACNPB6124
012024080102CEEB3       010COELBA      ON           R$  000000000396400000000041290000000003939000000000397100000000040300000000003910000000000410000015000000000000001700000000000006750700000000000000009999123100000010000000000000BRCEEBACNOR3199
012024080102CGAS3       010COMGAS      ON           R$  000000001051000000000105100000000010510000000001051000000000105100000000010550000000001199900001000000000000000100000000000001051000000000000000009999123100000010000000000000BRCGASACNOR0163
012024080102GRND3       010GRENDENE    ON      NM   R$  000000000058800000000006080000000000588000000000059700000000006080000000000594000000000060803447000000000001248800000000000746454000000000000000009999123100000010000000000000BRGRNDACNOR3174
012024080102JALL3       010JALLESMACHADON  ED  NM   R$  000000000068800000000006940000000000671000000000068000000000006780000000000677000000000067803812000000000001828700000000001243556900000000000000009999123100000010000000000000BRJALLACNOR0106
012024080102GFSA3       010GAFISA      ON      NM   R$  000000000032200000000003270000000000305000000000031300000000003070000000000306000000000030701814000000000002157300000000000676738400000000000000009999123100000010000000000000BRGFSAACNOR3124
012024080102GGBR3       010GERDAU      ON      N1   R$  000000000159000000000016430000000001589000000000161800000000016060000000001590000000000160600301000000000000060000000000000097131300000000000000009999123100000010000000000000BRGGBRACNOR1192
012024080102GGBR4       010GERDAU      PN      N1   R$  000000000182500000000018780000000001807000000000183200000000018170000000001816000000000181936003000000000019025300000000034863666300000000000000009999123100000010000000000000BRGGBRACNPR8192
012024080102UCAS3       010UNICASA     ON      NM   R$  000000000022900000000002350000000000224000000000022900000000002250000000000224000000000022800134000000000000039100000000000008971600000000000000009999123100000010000000000000BRUCASACNOR1113
012024080107NUTR3       010NUTRIPLANT  ON      MA   R$  000000000052700000000005370000000000508000000000052100000000005350000000000516000000000053600047000000000000010200000000000005321700000000000000009999123100000010000000000000BRNUTRACNOR0104
012024080108PMAM3       010PARANAPANEMAON      NM   R$  000000000023500000000002390000000000231000000000023300000000002310000000000231000000000023200138000000000000070600000000000016514900000000000000009999123100000010000000000000BRPMAMACNOR3039
012024080108RPMG3       010PET MANGUINHON           R$  000000000028200000000002900000000000279000000000028400000000002800000000000280000000000028400056000000000000008900000000000002528200000000000000009999123100000010000000000000BRRPMGACNOR9194
012024080108SGPS3       010SPRINGS     ON      NM   R$  000000000020000000000002000000000000200000000000020000000000002000000000000200000000000020700019000000000000023600000000000004720000000000000000009999123100000010000000000000BRSGPSACNOR4105
012024080108RSID3       010ROSSI RESID ON      NM   R$  000000000039700000000004050000000000370000000000039600000000004040000000000400000000000040500072000000000000020000000000000007938200000000000000009999123100000010000000000000BRRSIDACNOR8120
012024080108ETER3       010ETERNIT     ON      NM   R$  000000000057600000000005800000000000562000000000057100000000005730000000000573000000000057500647000000000000215600000000000123132600000000000000009999123100000010000000000000BRETERACNOR3243
012024080108LIGT3       010LIGHT S/A   ON      NM   R$  000000000041500000000004310000000000414000000000042200000000004220000000000421000000000042204635000000000002230800000000000941492600000000000000009999123100000010000000000000BRLIGTACNOR2124
012024080108OIBR3       010OI          ON      N1   R$  000000000042000000000004270000000000417000000000042000000000004200000000000417000000000042000550000000000000446400000000000187861200000000000000009999123100000010000000000000BROIBRACNOR1111
012024080108OIBR4       010OI          PN      N1   R$  000000000128900000000012950000000001255000000000128100000000012850000000001276000000000128500028000000000000002900000000000003716800000000000000009999123100000010000000000000BROIBRACNPR8110
012024080108OSXB3       010OSX BRASIL  ON      NM   R$  000000000037600000000003770000000000375000000000037600000000003750000000000373000000000037600005000000000000005800000000000002184300000000000000009999123100000010000000000000BROSXBACNOR8109
012024080108RNEW11      010RENOVA      UNT     N2   R$  000000000026400000000002650000000000264000000000026400000000002640000000000264000000000026500019000000000000019100000000000005045100000000000000009999123100000010000000000000BRRNEWCDAM15110
012024080108RNEW3       010RENOVA      ON      N2   R$  000000000008800000000000880000000000086000000000008700000000000870000000000086000000000008700030000000000000016700000000000001458800000000000000009999123100000010000000000000BRRNEWACNOR8110
012024080108RNEW4       010RENOVA      PN      N2   R$  000000000008800000000000900000000000087000000000008700000000000870000000000087000000000008800065000000000000053500000000000004684800000000000000009999123100000010000000000000BRRNEWACNPR5110
012024080108TEKA4       010TEKA        PN           R$  000000000300000000000030000000000003000000000000300000000000030000000000002850000000000315000001000000000000000100000000000000300000000000000000009999123100000010000000000000BRTEKAACNPR3140
012024080108NEXP3       010NEXPE       ON           R$  000000000041600000000004180000000000410000000000041200000000004100000000000409000000000041000008000000000000001200000000000000495400000000000000009999123100000010000000000000BRNEXPACNOR0101
012024080108CTNM3       010COTEMINAS   ON           R$  000000000072800000000007280000000000728000000000072800000000007280000000000000000000000075000002000000000000000200000000000000145600000000000000009999123100000010000000000000BRCTNMACNOR9130
012024080108CTNM4       010COTEMINAS   PN           R$  000000000009700000000000970000000000097000000000009700000000000970000000000094000000000009700009000000000000018200000000000001765400000000000000009999123100000010000000000000BRCTNMACNPR6129
012024080108CTSA3       010SANTANENSE  ON           R$  000000000030300000000003500000000000294000000000032000000000003050000000000305000000000031500088000000000000038800000000000012450200000000000000009999123100000010000000000000BRCTSAACNOR3062
012024080108CTSA4       010SANTANENSE  PN           R$  000000000015600000000001680000000000144000000000015500000000001520000000000148000000000015300281000000000000195200000000000030431300000000000000009999123100000010000000000000BRCTSAACNPR0062
012024080108HOOT4       010HOTEIS OTHONPN           R$  000000000027700000000002800000000000247000000000026000000000002470000000000247000000000025600086000000000000037900000000000009891400000000000000009999123100000010000000000000BRHOOTACNPR9015
012024080108JFEN3       010JOAO FORTES ON           R$  000000000003500000000000360000000000033000000000003400000000000330000000000033000000000003401577000000000004846300000000000164917700000000000000009999123100000010000000000000BRJFENACNOR0059
012024080108AMER3       010AMERICANAS  ON      NM   R$  000000000005500000000000640000000000055000000000005900000000000620000000000061000000000006203447000000000030011100000000001798624000000000000000009999123100000010000000000000BRAMERACNOR6102
012024080108ATMP3       010ATMASA      ON           R$  000000000018500000000001850000000000182000000000018400000000001820000000000181000000000018200020000000000000009400000000000001734100000000000000009999123100000010000000000000BRATMPACNOR8100
012024080110RENT1       010LOCALIZA    DIR ORD NM   R$  000000000115900000000012000000000001064000000000114900000000012000000000001124000000000120000287000000000000084200000000000096812300000000000000009999123100000010000000000000BRRENTD06OR8195
012024080110ZAMP1       010ZAMP S.A.   DIR ORD      R$  000000000000800000000000080000000000004000000000000500000000000050000000000004000000000000500378000000000000776800000000000004034200000000000000009999123100000010000000000000BRZAMPD01OR0100
012024080112PMIS11      010FII PMIS    CI  ER       R$  000000000094000000000009820000000000921000000000093400000000009210000000000921000000000092200585000000000000146579000000000136965108000000000000009999123100000010000000000000BRPMISCTF006108
012024080112RPRI11      010FII RBR PR  CI  ER       R$  000000000936000000000093600000000009300000000000931500000000093420000000009324000000000934200358000000000000005238000000000048796470000000000000009999123100000010000000000000BRRPRICTF007130
012024080112RRCI11      010FII RBCAP RICI  ER       R$  000000000766400000000076840000000007636000000000766900000000076710000000007641000000000768300043000000000000000275000000000002109177000000000000009999123100000010000000000000BRRRCICTF005144
012024080112TORD11      010FII TORDE EICI           R$  000000000014400000000001450000000000143000000000014300000000001450000000000144000000000014500266000000000000035467000000000005103795000000000000009999123100000010000000000000BRTORDCTF015138
012024080112TRBL11      010FII SDI LOG CI  ER       R$  000000000998700000000099870000000009798000000000985100000000098720000000009873000000000988800734000000000000005671000000000055867630000000000000009999123100000010000000000000BRTRBLCTF007114
012024080112CJCT11      010FII CJCTOWERCI  ER       R$  000000000635400000000063900000000006350000000000635500000000063500000000006301000000000000000003000000000000000008000000000000050844000000000000009999123100000010000000000000BRCJCTCTF001117
012024080112CLIN11      010FII CLAVE INCI           R$  000000000959900000000096200000000009576000000000960000000000095950000000009596000000000962002020000000000000007259000000000069693485000000000000009999123100000010000000000000BRCLINCTF007109
012024080112URHF11      010FII URHF    CI  ER       R$  000000000950000000000104000000000009500000000000957100000000103000000000009500000000001030000011000000000000000230000000000002201550000000000000009999123100000010000000000000BRURHFCTF004101
012024080112URPR11      010FII URCA RENCI  ER       R$  000000000817500000000081800000000008101000000000813000000000081300000000008130000000000813502259000000000000026212000000000213129090000000000000009999123100000010000000000000BRURPRCTF002160
012024080112VOTS11      010FII V MASTERCI  ER       R$  000000000822600000000085020000000008226000000000823100000000082770000000008141000000000820000014000000000000000035000000000000288097000000000000009999123100000010000000000000BRVOTSCTF007172
012024080112PRSN11      010FII PERSONALCI           R$  000000000011000000000001120000000000110000000000011000000000001120000000000111000000000011200018000000000000000456000000000000050288000000000000009999123100000010000000000000BRPRSNCTF005125
012024080112PRSV11      010FII P VARGASCI           R$  000000000589900000000061970000000005899000000000604800000000061970000000005800000000000619000004000000000000000004000000000000024193000000000000009999123100000010000000000000BRPRSVCTF008226
012024080112PVBI11      010FII VBI PRI CI  ER       R$  000000000937500000000094890000000009351000000000940300000000094100000000009408000000000941013705000000000000054020000000000507988751000000000000009999123100000010000000000000BRPVBICTF003154
012024080112QAGR11      010FII QUASAR ACI           R$  000000000469500000000047090000000004694000000000470100000000047060000000004702000000000470600135000000000000001570000000000007380596000000000000009999123100000010000000000000BRQAGRCTF005156
012024080112SCPF11      010FII SCP     CI           R$  000000000027700000000002780000000000271000000000027300000000002770000000000272000000000027700044000000000000000763000000000000208942000000000000009999123100000010000000000000BRSCPFCTF003302
012024080112SEQR11      010FII SEQUOIA CI           R$  000000000523700000000052370000000005220000000000522900000000052230000000005221000000000522300062000000000000001038000000000005428060000000000000009999123100000010000000000000BRSEQRCTF002144
012024080112SHOP11      010FII MULTSHOPCI           R$  000000000669900000000066990000000006699000000000669900000000066990000000005000000000000670000001000000000000000002000000000000013398000000000000009999123100000010000000000000BRSHOPCTF004102
012024080112SHPH11      010FII HIGIENOPCI  ER       R$  000000008865000000000896010000000087865000000008886400000000878650000000083101000000008464500011000000000000000023000000000002043886000000000000009999123100000010000000000000BRSHPHCTF008352
012024080112SJAU11      010FII SJ AU   CI           R$  000000000599700000000059970000000005925000000000598700000000059850000000005501000000000598500033000000000000003042000000000018212703000000000000009999123100000010000000000000BRSJAUCTF009102
012024080112WHGR11      010FII WHG REALCI  ER       R$  000000000097800000000009780000000000965000000000096800000000009660000000000966000000000096900530000000000000028634000000000027741081000000000000009999123100000010000000000000BRWHGRCTF008127
012024080112CPFF11      010FII CAP REITCI           R$  000000000722900000000072290000000007201000000000720500000000072130000000007203000000000721300302000000000000000512000000000003689341000000000000009999123100000010000000000000BRCPFFCTF000157
012024080112MINT11      010FII MINT EDUCI           R$  000000000994900000000099490000000009900000000000992900000000099000000000009351000000000990000003000000000000000005000000000000049647000000000000009999123100000010000000000000BRMINTCTF009103
012024080112SADI11      010FII SANT PAPCI  ER       R$  000000000909400000000090940000000008976000000000902300000000090080000000008975000000000900800195000000000000002161000000000019499912000000000000009999123100000010000000000000BRSADICTF007161
012024080112SAPI11      010FII SAPI    CI  ER       R$  000000000922400000000092500000000009151000000000921500000000092320000000009176000000000923200981000000000000001530000000000014099207000000000000009999123100000010000000000000BRSAPICTF001110
012024080112WPLZ11      010FII W PLAZA CI  ER       R$  000000000666300000000066630000000006300000000000648100000000063000000000006300000000000654900002000000000000000006000000000000038889000000000000009999123100000010000000000000BRWPLZCTF004268
012024080112WSEC11      010FII WARREN  CI           R$  000000000888200000000088820000000008879000000000887900000000088790000000008302000000000887900004000000000000000014000000000000124309000000000000009999123100000010000000000000BRWSECCTF010121
012024080112XPCI11      010FII XP CRED CI  ER       R$  000000000860000000000086960000000008552000000000858900000000086300000000008630000000000866009016000000000000027113000000000232875193000000000000009999123100000010000000000000BRXPCICTF007159
012024080112XPCM11      010FII XP MACAECI           R$  000000000074000000000007400000000000700000000000071600000000007040000000000704000000000072000113000000000000005631000000000004035838000000000000009999123100000010000000000000BRXPCMCTF009230
012024080112PQAG11      010FII PARQ ANHCI  ER       R$  000000000597800000000059780000000005978000000000597800000000059780000000005950000000000597900001000000000000000001000000000000005978000000000000009999123100000010000000000000BRPQAGCTF009150
012024080112PQDP11      010FII D PEDRO CI  ER       R$  000000019109900000001930000000000190121000000019133000000001910070000000191007000000019239600017000000000000000022000000000004209260000000000000009999123100000010000000000000BRPQDPCTF004273
012024080112RVBI11      010FII VBI REITCI           R$  000000000746000000000076990000000007460000000000758400000000075460000000007546000000000754708374000000000000035198000000000266964483000000000000009999123100000010000000000000BRRVBICTF009153
012024080112RZAK11      010FII RIZA AKNCI           R$  000000000827800000000083200000000008271000000000827400000000083030000000008303000000000831006493000000000000047591000000000393784402000000000000009999123100000010000000000000BRRZAKCTF008145
012024080112RZAT11      010FII ARCTIUM CI           R$  000000000975000000000098490000000009681000000000974700000000097950000000009786000000000979502384000000000000010061000000000098066469000000000000009999123100000010000000000000BRRZATCTF009118
012024080112RZTR11      010FII RIZA TX CI  ER       R$  000000000930700000000093440000000009260000000000929200000000093290000000009303000000000932909133000000000000036527000000000339440735000000000000009999123100000010000000000000BRRZTRCTF003150
012024080112XPIN11      010FII XP INDL CI           R$  000000000780800000000078810000000007733000000000777000000000078340000000007825000000000783400591000000000000006473000000000050301233000000000000009999123100000010000000000000BRXPINCTF004175
012024080112XPLG11      010FII XP LOG  CI  ER       R$  000000001031300000000103480000000010150000000001020200000000102120000000010211000000001021419031000000000000046187000000000471244868000000000000009999123100000010000000000000BRXPLGCTF002180
012024080112XPML11      010FII XP MALLSCI           R$  000000001117500000000113000000000011170000000001124300000000112000000000011200000000001124021335000000000000095408000000001072674410000000000000009999123100000010000000000000BRXPMLCTF000186
012024080112XPPR11      010FII XP PROP CI  ER       R$  000000000190600000000019310000000001892000000000191000000000019160000000001911000000000191600392000000000000008152000000000015573487000000000000009999123100000010000000000000BRXPPRCTF000157
