00COTAHIST.2024BOVESPA 20240815                                                                                                                                                                                                                      
012024081502LJQQ3       010QUERO-QUERO ON      NM   R$  000000000043200000000004340000000000408000000000042000000000004120000000000412000000000041309784000000000006737600000000002835480700000000000000009999123100000010000000000000BRLJQQACNOR5104
012024081502LOGG3       010LOG COM PROPON      NM   R$  000000000243000000000024520000000002390000000000242300000000023980000000002398000000000241802188000000000001294100000000003135951000000000000000009999123100000010000000000000BRLOGGACNOR7107
012024081502LOGN3       010LOG-IN      ON      NM   R$  000000000367100000000036710000000003553000000000360200000000035890000000003589000000000361300060000000000000007400000000000026658000000000000000009999123100000010000000000000BRLOGNACNOR3105
012024081502LPSB3       010LOPES BRASILON      NM   R$  000000000017900000000001830000000000176000000000018000000000001760000000000176000000000018100155000000000000139100000000000025075500000000000000009999123100000010000000000000BRLPSBACNOR0114
012024081502LREN3       010LOJAS RENNERON      NM   R$  000000000162200000000016740000000001614000000000164900000000016740000000001671000000000167431117000000000024441200000000040315979000000000000000009999123100000010000000000000BRLRENACNOR1221
012024081502RENT3       010LOCALIZA    ON      NM   R$  000000000405800000000041110000000003904000000000400900000000039200000000003920000000000392261454000000000028346900000000113661089300000000000000009999123100000010000000000000BRRENTACNOR4196
012024081502SLCE3       010SLC AGRICOLAON      NM   R$  000000000179400000000018170000000001762000000000178600000000017750000000001774000000000178311071000000000002580600000000004610386800000000000000009999123100000010000000000000BRSLCEACNOR2125
012024081502LVTC3       010WDC NETWORKSON      NM   R$  000000000038400000000004100000000000383000000000039700000000003990000000000399000000000040800053000000000000026400000000000010486400000000000000009999123100000010000000000000BRLVTCACNOR4102
012024081502LWSA3       010LWSA        ON      NM   R$  000000000047700000000004870000000000471000000000047800000000004770000000000475000000000047710636000000000004906400000000002350131400000000000000009999123100000010000000000000BRLWSAACNOR8103
012024081502RCSL3       010RECRUSUL    ON           R$  000000000029300000000002930000000000274000000000027900000000002810000000000278000000000028100946000000000000237500000000000066344600000000000000009999123100000010000000000000BRRCSLACNOR4134
012024081502RCSL4       010RECRUSUL    PN           R$  000000000008500000000000850000000000081000000000008200000000000820000000000081000000000008200354000000000000195900000000000016240100000000000000009999123100000010000000000000BRRCSLACNPR1134
012024081502RDNI3       010RNI         ON      NM   R$  000000000031900000000003250000000000319000000000032200000000003230000000000319000000000032400010000000000000005500000000000001774600000000000000009999123100000010000000000000BRRDNIACNOR9116
012024081502RDOR3       010REDE D OR   ON      NM   R$  000000000309700000000031990000000003076000000000316400000000031480000000003145000000000314828758000000000007010500000000022186783700000000000000009999123100000010000000000000BRRDORACNOR8113
012024081502SCAR3       010SAO CARLOS  ON      NM   R$  000000000237500000000023750000000002340000000000235000000000023700000000002300000000000237000036000000000000013300000000000031267600000000000000009999123100000010000000000000BRSCARACNOR7131
012024081502SEER3       010SER EDUCA   ON      NM   R$  000000000055200000000005960000000000552000000000057700000000005880000000000579000000000058801891000000000000518400000000000299236100000000000000009999123100000010000000000000BRSEERACNOR5119
012024081502SEQL3       010SEQUOIA LOG ON      NM   R$  000000000064900000000006740000000000521000000000057300000000005510000000000551000000000055304603000000000002759100000000001581250800000000000000009999123100000010000000000000BRSEQLACNOR2103
012024081502SHOW3       010TIME FOR FUNON      NM   R$  000000000013100000000001310000000000123000000000012500000000001250000000000124000000000012500355000000000000362400000000000045551000000000000000009999123100000010000000000000BRSHOWACNOR7105
012024081502SHUL4       010SCHULZ      PN           R$  000000000065000000000006660000000000649000000000065900000000006600000000000658000000000066001014000000000000303100000000000199951900000000000000009999123100000010000000000000BRSHULACNPR4156
012024081502SIMH3       010SIMPAR      ON      NM   R$  000000000065100000000006770000000000646000000000066300000000006600000000000657000000000066005906000000000003586000000000002380089100000000000000009999123100000010000000000000BRSIMHACNOR0107
012024081502UNIP3       010UNIPAR      ON           R$  000000000493100000000049750000000004931000000000494300000000049730000000004945000000000497300035000000000000003900000000000019278600000000000000009999123100000010000000000000BRUNIPACNOR7206
012024081502UNIP5       010UNIPAR      PNA          R$  000000000495100000000050000000000004951000000000498700000000050000000000004950000000000506400004000000000000000400000000000001994800000000000000009999123100000010000000000000BRUNIPACNPA0208
012024081502UNIP6       010UNIPAR      PNB          R$  000000000494900000000049930000000004902000000000495800000000049650000000004964000000000496501176000000000000165700000000000821570100000000000000009999123100000010000000000000BRUNIPACNPB8206
012024081502SNSY3       010SANSUY      ON           R$  000000000119000000000011900000000001190000000000119000000000011900000000001190000000000123000002000000000000000200000000000000238000000000000000009999123100000010000000000000BRSNSYACNOR2113
012024081502SNSY5       010SANSUY      PNA          R$  000000000060000000000006000000000000570000000000057600000000005800000000000571000000000058000012000000000000004500000000000002593800000000000000009999123100000010000000000000BRSNSYACNPA5111
012024081502SOJA3       010BOA SAFRA   ON      NM   R$  000000000139000000000014240000000001364000000000139200000000013960000000001396000000000140402583000000000000526300000000000732970400000000000000009999123100000010000000000000BRSOJAACNOR9105
012024081502MELK3       010MELNICK     ON      NM   R$  000000000036000000000003620000000000343000000000034900000000003460000000000345000000000034600890000000000002622700000000000917782200000000000000009999123100000010000000000000BRMELKACNOR8111
012024081502ROMI3       010ROMI        ON      NM   R$  000000000109900000000011060000000001085000000000109800000000010950000000001092000000000109900912000000000000159600000000000175318700000000000000009999123100000010000000000000BRROMIACNOR8195
012024081502RRRP3       0103R PETROLEUMON      NM   R$  000000000297000000000029700000000002886000000000291800000000029200000000002920000000000292518864000000000005277700000000015402200800000000000000009999123100000010000000000000BRRRRPACNOR5103
012024081502SYNE3       010SYN PROP TECON      NM   R$  000000000115800000000011730000000001085000000000111000000000010980000000001096000000000109803829000000000002396600000000002661387100000000000000009999123100000010000000000000BRSYNEACNOR2102
012024081502TAEE11      010TAESA       UNT     N2   R$  000000000354300000000035810000000003530000000000355300000000035460000000003545000000000354809284000000000001983000000000007046767500000000000000009999123100000010000000000000BRTAEECDAM10147
012024081502TAEE3       010TAESA       ON      N2   R$  000000000118000000000011830000000001168000000000117600000000011790000000001178000000000117900759000000000000160300000000000188641200000000000000009999123100000010000000000000BRTAEEACNOR9147
012024081502TAEE4       010TAESA       PN      N2   R$  000000000118600000000011980000000001180000000000118900000000011900000000001188000000000119001089000000000000313200000000000372561500000000000000009999123100000010000000000000BRTAEEACNPR6147
012024081502HBOR3       010HELBOR      ON      NM   R$  000000000021800000000002210000000000215000000000021700000000002150000000000215000000000021600568000000000000582200000000000126733200000000000000009999123100000010000000000000BRHBORACNOR3118
012024081502HBRE3       010HBR REALTY  ON      NM   R$  000000000052100000000005290000000000514000000000052200000000005150000000000515000000000051800597000000000000382600000000000199977300000000000000009999123100000010000000000000BRHBREACNOR4100
012024081502HBSA3       010HIDROVIAS   ON      NM   R$  000000000037100000000003840000000000355000000000037500000000003680000000000367000000000037008309000000000002954200000000001108115000000000000000009999123100000010000000000000BRHBSAACNOR0100
012024081502SUZB3       010SUZANO S.A. ON      NM   R$  000000000549700000000054990000000005328000000000537800000000053580000000005358000000000536329863000000000007691600000000041369621000000000000000009999123100000010000000000000BRSUZBACNOR0130
012024081502SRNA3       010SERENA      ON      NM   R$  000000000091400000000009200000000000891000000000090800000000009040000000000903000000000090906430000000000001222200000000001110083900000000000000009999123100000010000000000000BRSRNAACNOR4100
012024081502STBP3       010SANTOS BRP  ON  EDJ NM   R$  000000000141900000000014640000000001410000000000144600000000014420000000001441000000000144814119000000000004056000000000005866447400000000000000009999123100000010000000000000BRSTBPACNOR3131
012024081502VALE3       010VALE        ON      NM   R$  000000000559000000000056360000000005569000000000560900000000056230000000005623000000000562459043000000000028153700000000157940342800000000000000009999123100000010000000000000BRVALEACNOR0211
012024081502VIVT3       010TELEF BRASILON           R$  000000000516300000000051730000000005092000000000511800000000050930000000005093000000000509910056000000000001775500000000009087954800000000000000009999123100000010000000000000BRVIVTACNOR0183
012024081502VLID3       010VALID       ON  EJ  NM   R$  000000000208200000000020820000000002033000000000206100000000020670000000002060000000000207203122000000000000465500000000000959560100000000000000009999123100000010000000000000BRVLIDACNOR5144
012024081502VSTE3       010VESTE       ON      NM   R$  000000000130800000000013440000000001308000000000132400000000013250000000001325000000000133800020000000000000002000000000000002649500000000000000009999123100000010000000000000BRVSTEACNOR5103
012024081502VTRU3       010VITRUEDUCA  ON      NM   R$  000000000110100000000011270000000001085000000000109200000000010850000000001085000000000109000187000000000000035600000000000038878600000000000000009999123100000010000000000000BRVTRUACNOR3100
012024081502VULC3       010VULCABRAS   ON  ED  NM   R$  000000000179500000000018190000000001788000000000180700000000018150000000001807000000000181505040000000000000926100000000001673875000000000000000009999123100000010000000000000BRVULCACNOR2160
012024081502VVEO3       010VIVEO       ON      NM   R$  000000000022800000000002280000000000209000000000021800000000002170000000000217000000000021806478000000000004189200000000000915446700000000000000009999123100000010000000000000BRVVEOACNOR0104
012024081502WEGE3       010WEG         ON      NM   R$  000000000519700000000053080000000005188000000000525800000000052700000000005270000000000527423389000000000006993700000000036774948000000000000000009999123100000010000000000000BRWEGEACNOR0224
012024081502TTEN3       0103TENTOS     ON      NM   R$  000000000116400000000012170000000001146000000000119500000000012080000000001208000000000120908035000000000001646000000000001967836500000000000000009999123100000010000000000000BRTTENACNOR0103
012024081502TUPY3       010TUPY        ON      NM   R$  000000000269000000000027900000000002678000000000273800000000027250000000002720000000000272504134000000000000691100000000001892836300000000000000009999123100000010000000000000BRTUPYACNOR1184
012024081502PFRM3       010PROFARMA    ON      NM   R$  000000000058000000000005960000000000576000000000058600000000005930000000000590000000000059300614000000000000133400000000000078282100000000000000009999123100000010000000000000BRPFRMACNOR1116
012024081502PGMN3       010PAGUE MENOS ON      NM   R$  000000000029600000000003060000000000292000000000030000000000003030000000000300000000000030301549000000000000738300000000000222054100000000000000009999123100000010000000000000BRPGMNACNOR8103
012024081502PINE3       010PINE        ON      N2   R$  000000000056600000000005660000000000566000000000056600000000005660000000000566000000000058000004000000000000001000000000000000566000000000000000009999123100000010000000000000BRPINEACNOR1150
012024081502PINE4       010PINE        PN      N2   R$  000000000046900000000004710000000000455000000000046600000000004550000000000454000000000045500407000000000000233600000000000108904100000000000000009999123100000010000000000000BRPINEACNPR8150
012024081502PLAS3       010PLASCAR PARTON           R$  000000000053100000000005990000000000529000000000055000000000005290000000000529000000000059800009000000000000010900000000000006001400000000000000009999123100000010000000000000BRPLASACNOR2106
012024081502CASH3       010MELIUZ      ON      NM   R$  000000000064000000000006490000000000626000000000063500000000006280000000000628000000000062902395000000000001054700000000000670674400000000000000009999123100000010000000000000BRCASHACNOR8106
012024081502CBAV3       010CBA         ON      NM   R$  000000000046400000000004730000000000462000000000046600000000004680000000000467000000000046904525000000000002396300000000001118634300000000000000009999123100000010000000000000BRCBAVACNOR5104
012024081502CPFE3       010CPFL ENERGIAON      NM   R$  000000000339000000000033920000000003326000000000334700000000033330000000003333000000000334105142000000000001064600000000003564024500000000000000009999123100000010000000000000BRCPFEACNOR0137
012024081502CPLE3       010COPEL       ON      N2   R$  000000000095200000000009540000000000936000000000094100000000009440000000000940000000000094406366000000000005432500000000005116871100000000000000009999123100000010000000000000BRCPLEACNOR8149
012024081502CPLE5       010COPEL       PNA     N2   R$  000000000121000000000012100000000001200000000000120600000000012000000000001214000000000128000002000000000000000300000000000000362000000000000000009999123100000010000000000000BRCPLEACNPA1147
012024081502CPLE6       010COPEL       PNB     N2   R$  000000000105300000000010590000000001036000000000104300000000010420000000001042000000000104315911000000000011517300000000012022886500000000000000009999123100000010000000000000BRCPLEACNPB9146
012024081502ECOR3       010ECORODOVIAS ON      NM   R$  000000000078200000000008070000000000779000000000079700000000007990000000000794000000000080007276000000000002501100000000001993926000000000000000009999123100000010000000000000BRECORACNOR8120
012024081502EGIE3       010ENGIE BRASILON      NM   R$  000000000462900000000046300000000004577000000000459700000000045890000000004588000000000459304742000000000000805600000000003703851000000000000000009999123100000010000000000000BREGIEACNOR9126
012024081502GGBR3       010GERDAU      ON  ED  N1   R$  000000000156000000000015640000000001548000000000155500000000015510000000001551000000000155700196000000000000038000000000000059118600000000000000009999123100000010000000000000BRGGBRACNOR1193
012024081502GGBR4       010GERDAU      PN  ED  N1   R$  000000000174000000000017570000000001729000000000174200000000017400000000001739000000000174020177000000000010043500000000017502298700000000000000009999123100000010000000000000BRGGBRACNPR8193
012024081502ANIM3       010ANIMA       ON  ED  NM   R$  000000000032600000000003630000000000326000000000035000000000003570000000000356000000000035709788000000000012672300000000004443927800000000000000009999123100000010000000000000BRANIMACNOR6109
012024081502APER3       010ALPER S.A.  ON           R$  000000000463100000000046320000000004631000000000463100000000046310000000004631000000000465000009000000000000003300000000000015282500000000000000009999123100000010000000000000BRAPERACNOR9106
012024081502ARML3       010ARMAC       ON      NM   R$  000000000090700000000009230000000000891000000000090600000000009020000000000902000000000090502468000000000000491200000000000445117300000000000000009999123100000010000000000000BRARMLACNOR1112
012024081502ASAI3       010ASSAI       ON      NM   R$  000000000106300000000010630000000001025000000000103600000000010400000000001038000000000104020207000000000011390800000000011806405700000000000000009999123100000010000000000000BRASAIACNOR0106
012024081502BEES3       010BANESTES    ON           R$  000000000089500000000009000000000000893000000000089600000000008980000000000894000000000089900069000000000000010700000000000009592400000000000000009999123100000010000000000000BRBEESACNOR9394
012024081502BEES4       010BANESTES    PN           R$  000000000100900000000010090000000000988000000000099700000000009880000000000988000000000100000028000000000000004200000000000004188700000000000000009999123100000010000000000000BRBEESACNPR6319
012024081502BGIP3       010BANESE      ON           R$  000000000260200000000027000000000002602000000000263400000000027000000000002600000000000340000003000000000000000300000000000000790400000000000000009999123100000010000000000000BRBGIPACNOR1208
012024081502BGIP4       010BANESE      PN           R$  000000000255600000000027500000000002455000000000261800000000026430000000002555000000000264300044000000000000005800000000000015185600000000000000009999123100000010000000000000BRBGIPACNPR8208
012024081502BHIA3       010CASAS BAHIA ON      NM   R$  000000000051100000000005370000000000504000000000052200000000005360000000000535000000000053604281000000000005143400000000002689587900000000000000009999123100000010000000000000BRBHIAACNOR1102
012024081502BPAC11      010BTGP BANCO  UNT     N2   R$  000000000350600000000036240000000003506000000000359600000000036190000000003619000000000362031091000000000010322800000000037123655100000000000000009999123100000010000000000000BRBPACUNT006119
012024081502BPAC3       010BTGP BANCO  ON      N2   R$  000000000168100000000016980000000001676000000000168600000000016980000000001651000000000169800052000000000000005400000000000009109300000000000000009999123100000010000000000000BRBPACACNOR7134
012024081502BPAC5       010BTGP BANCO  PNA     N2   R$  000000000093100000000009640000000000920000000000094600000000009640000000000939000000000096900051000000000000007700000000000007290200000000000000009999123100000010000000000000BRBPACACNPA0134
012024081502BRSR3       010BANRISUL    ON      N1   R$  000000000128200000000013520000000001282000000000131800000000013270000000001319000000000132700102000000000000019200000000000025322400000000000000009999123100000010000000000000BRBRSRACNOR3188
012024081502BRSR6       010BANRISUL    PNB     N1   R$  000000000124600000000012620000000001231000000000124400000000012420000000001241000000000124306598000000000001398900000000001741151100000000000000009999123100000010000000000000BRBRSRACNPB4191
012024081502DASA3       010DASA        ON      NM   R$  000000000029500000000003170000000000288000000000030500000000002970000000000297000000000029805573000000000002795400000000000854030400000000000000009999123100000010000000000000BRDASAACNOR1122
012024081502DESK3       010DESKTOP     ON      NM   R$  000000000165900000000016590000000001604000000000163300000000016400000000001630000000000164000847000000000000196000000000000320121200000000000000009999123100000010000000000000BRDESKACNOR2104
012024081502DEXP3       010DEXXOS PAR  ON      N1   R$  000000000098400000000009840000000000955000000000096600000000009620000000000962000000000096600423000000000000104800000000000101247800000000000000009999123100000010000000000000BRDEXPACNOR1105
012024081502DEXP4       010DEXXOS PAR  PN      N1   R$  000000000091400000000009320000000000914000000000092100000000009320000000000925000000000093500107000000000000068000000000000062665700000000000000009999123100000010000000000000BRDEXPACNPR8105
012024081502DIRR3       010DIRECIONAL  ON      NM   R$  000000000291100000000029330000000002870000000000290300000000029050000000002892000000000290608652000000000001887400000000005479807100000000000000009999123100000010000000000000BRDIRRACNOR0118
012024081502DMVF3       010D1000VFARMA ON      NM   R$  000000000072900000000007540000000000729000000000074500000000007420000000000736000000000074200224000000000000059400000000000044275700000000000000009999123100000010000000000000BRDMVFACNOR9100
012024081502DOTZ3       010DOTZ SA     ON      NM   R$  000000000055900000000006970000000000559000000000064400000000006850000000000651000000000068500099000000000000034200000000000022055100000000000000009999123100000010000000000000BRDOTZACNOR7101
012024081502DTCY3       010DTCOM-DIRECTON           R$  000000000067500000000006750000000000675000000000067500000000006750000000000445000000000067500001000000000000000200000000000000135000000000000000009999123100000010000000000000BRDTCYACNOR5109
012024081502DXCO3       010DEXCO       ON      NM   R$  000000000077100000000007830000000000755000000000077000000000007700000000000766000000000077008293000000000003017000000000002324570300000000000000009999123100000010000000000000BRDXCOACNOR8105
012024081502AERI3       010AERIS       ON      NM   R$  000000000089200000000010600000000000875000000000098300000000010190000000001018000000000101902551000000000001123700000000001104648900000000000000009999123100000010000000000000BRAERIACNOR4102
012024081502AESB3       010AES BRASIL  ON      NM   R$  000000000114000000000011440000000001137000000000114000000000011410000000001139000000000114103358000000000002218900000000002531417500000000000000009999123100000010000000000000BRAESBACNOR7106
012024081502AGRO3       010BRASILAGRO  ON      NM   R$  000000000263600000000026370000000002586000000000260000000000026040000000002594000000000260402137000000000000346000000000000899930200000000000000009999123100000010000000000000BRAGROACNOR7114
012024081502AGXY3       010AGROGALAXY  ON      NM   R$  000000000014300000000001450000000000134000000000013800000000001360000000000136000000000013800676000000000000667700000000000092687100000000000000009999123100000010000000000000BRAGXYACNOR4103
012024081502ALLD3       010ALLIED      ON      NM   R$  000000000076900000000007690000000000743000000000075800000000007500000000000750000000000075200242000000000000054500000000000041315800000000000000009999123100000010000000000000BRALLDACNOR3106
012024081502ALOS3       010ALLOS       ON      NM   R$  000000000236800000000023800000000002311000000000233600000000023290000000002329000000000233016807000000000004635800000000010829747700000000000000009999123100000010000000000000BRALOSACNOR5101
012024081502BAHI3       010BAHEMA      ON      MA   R$  000000000068000000000007000000000000680000000000068900000000007000000000000645000000000070000009000000000000001900000000000001309300000000000000009999123100000010000000000000BRBAHIACNOR1074
012024081502BALM4       010BAUMER      PN           R$  000000000108000000000010800000000001006000000000107400000000010800000000001045000000000108000014000000000000006000000000000006446700000000000000009999123100000010000000000000BRBALMACNPR2056
012024081502BAZA3       010AMAZONIA    ON           R$  000000000960100000000097300000000009490000000000955900000000097300000000009505000000000975700040000000000000005400000000000051621200000000000000009999123100000010000000000000BRBAZAACNOR0179
012024081502BBAS3       010BRASIL      ON      NM   R$  000000000279900000000028440000000002793000000000282000000000028150000000002814000000000281533031000000000011631000000000032807063600000000000000009999123100000010000000000000BRBBASACNOR3324
012024081502BBSE3       010BBSEGURIDADEON      NM   R$  000000000375300000000037620000000003721000000000373700000000037310000000003731000000000373214676000000000006763200000000025275821000000000000000009999123100000010000000000000BRBBSEACNOR5124
012024081502CXSE3       010CAIXA SEGURION      NM   R$  000000000143700000000014420000000001415000000000142700000000014150000000001415000000000141707019000000000002012700000000002872731300000000000000009999123100000010000000000000BRCXSEACNOR7107
012024081502EQTL3       010EQUATORIAL  ON      NM   R$  000000000354000000000035460000000003447000000000348200000000034760000000003470000000000347640528000000000017005100000000059219418100000000000000009999123100000010000000000000BREQTLACNOR0130
012024081502ESPA3       010ESPACOLASER ON      NM   R$  000000000010200000000001020000000000100000000000010100000000001010000000000100000000000010100171000000000000674700000000000068492600000000000000009999123100000010000000000000BRESPAACNOR7103
012024081502ITSA3       010ITAUSA      ON      N1   R$  000000000108900000000011000000000001085000000000109600000000010960000000001096000000000110000748000000000000374300000000000410331500000000000000009999123100000010000000000000BRITSAACNOR0441
012024081502ITSA4       010ITAUSA      PN      N1   R$  000000000108800000000011000000000001081000000000109400000000011000000000001099000000000110028328000000000019774000000000021650964400000000000000009999123100000010000000000000BRITSAACNPR7441
012024081502CMIN3       010CSNMINERACAOON      N2   R$  000000000049900000000005160000000000495000000000050800000000005120000000000511000000000051212803000000000013477700000000006850492600000000000000009999123100000010000000000000BRCMINACNOR2111
012024081502CSRN3       010COSERN      ON           R$  000000000158900000000015890000000001585000000000158600000000015850000000001550000000000158500007000000000000001200000000000001904000000000000000009999123100000010000000000000BRCSRNACNOR0194
012024081502CSRN5       010COSERN      PNA          R$  000000000169000000000017100000000001690000000000170300000000017100000000001630000000000189000003000000000000000300000000000000511000000000000000009999123100000010000000000000BRCSRNACNPA3194
012024081502CSRN6       010COSERN      PNB          R$  000000000166600000000016660000000001666000000000166600000000016660000000001655000000000170000004000000000000000700000000000001166200000000000000009999123100000010000000000000BRCSRNACNPB1195
012024081502CSUD3       010CSU DIGITAL ON      NM   R$  000000000190500000000019140000000001860000000000187400000000018800000000001874000000000188000182000000000000046400000000000086996900000000000000009999123100000010000000000000BRCSUDACNOR5110
012024081502CTKA3       010KARSTEN     ON           R$  000000000200000000000020000000000002000000000000200000000000020000000000001000000000000219000001000000000000000100000000000000200000000000000000009999123100000010000000000000BRCTKAACNOR0043
012024081502CTKA4       010KARSTEN     PN           R$  000000000177100000000019000000000001771000000000186000000000019000000000001776000000000194900032000000000000015000000000000027913200000000000000009999123100000010000000000000BRCTKAACNPR7043
012024081502CURY3       010CURY S/A    ON      NM   R$  000000000236600000000024000000000002351000000000237200000000023700000000002368000000000237003761000000000000777800000000001845170900000000000000009999123100000010000000000000BRCURYACNOR3109
012024081502CVCB3       010CVC BRASIL  ON      NM   R$  000000000019200000000001990000000000187000000000019300000000001960000000000195000000000019607901000000000014623300000000002836023900000000000000009999123100000010000000000000BRCVCBACNOR1116
012024081502ENEV3       010ENEVA       ON      NM   R$  000000000135300000000013570000000001324000000000134200000000013460000000001346000000000134725369000000000009872100000000013257778500000000000000009999123100000010000000000000BRENEVACNOR8106
012024081502ENGI11      010ENERGISA    UNT ED  N2   R$  000000000481100000000048990000000004800000000000486400000000048650000000004865000000000488016478000000000002983300000000014510794900000000000000009999123100000010000000000000BRENGICDAM16136
012024081502ENGI3       010ENERGISA    ON  ED  N2   R$  000000000145300000000015000000000001446000000000148000000000015000000000001476000000000150000035000000000000004500000000000006660900000000000000009999123100000010000000000000BRENGIACNOR0146
012024081502ENGI4       010ENERGISA    PN  ED  N2   R$  000000000083100000000008500000000000831000000000084600000000008470000000000835000000000085000040000000000000007400000000000006261900000000000000009999123100000010000000000000BRENGIACNPR7142
012024081502ENJU3       010ENJOEI      ON      NM   R$  000000000018000000000001870000000000177000000000018100000000001770000000000177000000000017900546000000000000641600000000000116327600000000000000009999123100000010000000000000BRENJUACNOR9100
012024081502ENMT4       010ENERGISA MT PN           R$  000000000730000000000073000000000007300000000000730000000000073000000000005000000000000749000003000000000000000300000000000002190000000000000000009999123100000010000000000000BRENMTACNPR2126
012024081502EPAR3       010EMBPAR S/A  ON           R$  000000000057200000000005890000000000572000000000058100000000005800000000000580000000000058900011000000000000003300000000000001918400000000000000009999123100000010000000000000BREPARACNOR9105
012024081502EQMA3B      010EQTLMARANHAOON      MB   R$  000000000259900000000025990000000002548000000000255400000000025490000000002501000000000254900003000000000000000800000000000002043700000000000000009999123100000010000000000000BREQMAACNOR8108
012024081502EQPA3       010EQTL PARA   ON           R$  000000000069700000000006990000000000695000000000069500000000006950000000000691000000000069500017000000000000004200000000000002921200000000000000009999123100000010000000000000BREQPAACNOR1111
012024081502EQPA5       010EQTL PARA   PNA          R$  000000000090000000000009000000000000900000000000090000000000009000000000000700000000000090000001000000000000000100000000000000090000000000000000009999123100000010000000000000BREQPAACNPA4111
012024081502HYPE3       010HYPERA      ON      NM   R$  000000000316000000000031660000000003119000000000314500000000031310000000003131000000000313711122000000000002272900000000007149469100000000000000009999123100000010000000000000BRHYPEACNOR0143
012024081502YDUQ3       010YDUQS PART  ON      NM   R$  000000000100900000000010290000000001000000000000101400000000010100000000001010000000000101110089000000000004251200000000004312488100000000000000009999123100000010000000000000BRYDUQACNOR3105
012024081502B3SA3       010B3          ON      NM   R$  000000000127000000000012830000000001261000000000127300000000012710000000001270000000000127134860000000000025924400000000033013182600000000000000009999123100000010000000000000BRB3SAACNOR6133
012024081502RADL3       010RAIADROGASILON      NM   R$  000000000300100000000030010000000002924000000000295200000000029300000000002927000000000293120108000000000007177000000000021188163800000000000000009999123100000010000000000000BRRADLACNOR0157
012024081502RAIL3       010RUMO S.A.   ON      NM   R$  000000000241000000000024400000000002385000000000240300000000023850000000002382000000000238537636000000000023050400000000055392695100000000000000009999123100000010000000000000BRRAILACNOR9105
012024081502SANB11      010SANTANDER BRUNT          R$  000000000300000000000030400000000002978000000000300700000000030030000000003003000000000300407994000000000001870200000000005625246300000000000000009999123100000010000000000000BRSANBCDAM13165
012024081502SANB3       010SANTANDER BRON           R$  000000000141300000000014400000000001412000000000142300000000014120000000001412000000000142500446000000000000075400000000000107357000000000000000009999123100000010000000000000BRSANBACNOR8172
012024081502SANB4       010SANTANDER BRPN           R$  000000000158000000000015960000000001565000000000158100000000015730000000001573000000000157800429000000000000072400000000000114470200000000000000009999123100000010000000000000BRSANBACNPR5172
012024081502SAPR11      010SANEPAR     UNT     N2   R$  000000000285000000000028760000000002849000000000285800000000028610000000002861000000000286404064000000000000763400000000002181797400000000000000009999123100000010000000000000BRSAPRCDAM13118
012024081502SAPR3       010SANEPAR     ON      N2   R$  000000000054200000000005430000000000537000000000053900000000005400000000000539000000000054000400000000000000145600000000000078599500000000000000009999123100000010000000000000BRSAPRACNOR9159
012024081502SAPR4       010SANEPAR     PN      N2   R$  000000000058000000000005810000000000574000000000057600000000005750000000000574000000000057602014000000000001121300000000000646051400000000000000009999123100000010000000000000BRSAPRACNPR6159
012024081502TGMA3       010TEGMA       ON  EDJ NM   R$  000000000255400000000025840000000002543000000000256000000000025480000000002542000000000255900838000000000000136500000000000349556000000000000000009999123100000010000000000000BRTGMAACNOR7145
012024081502TIMS3       010TIM         ON      NM   R$  000000000181300000000018240000000001794000000000181300000000017980000000001796000000000179911618000000000007678400000000013923632700000000000000009999123100000010000000000000BRTIMSACNOR5117
012024081502TOTS3       010TOTVS       ON  EJ  NM   R$  000000000296600000000029660000000002896000000000292800000000029100000000002901000000000291414882000000000003157000000000009245926800000000000000009999123100000010000000000000BRTOTSACNOR8145
012024081502TPIS3       010TRIUNFO PARTON      NM   R$  000000000044100000000004490000000000419000000000042900000000004240000000000424000000000042500272000000000000179800000000000077281400000000000000009999123100000010000000000000BRTPISACNOR8118
012024081502TRAD3       010TC          ON      NM   R$  000000000036000000000003790000000000360000000000036900000000003790000000000363000000000037900168000000000000068800000000000025415700000000000000009999123100000010000000000000BRTRADACNOR3102
012024081502TRIS3       010TRISUL      ON      NM   R$  000000000047200000000004830000000000465000000000047700000000004800000000000476000000000048001329000000000000681900000000000325368700000000000000009999123100000010000000000000BRTRISACNOR4118
012024081502TRPL3       010TRAN PAULISTON      N1   R$  000000000319100000000032000000000003190000000000319300000000031900000000003181000000000320000015000000000000002800000000000008940500000000000000009999123100000010000000000000BRTRPLACNOR4185
012024081502TRPL4       010TRAN PAULISTPN      N1   R$  000000000247100000000024820000000002430000000000245000000000024500000000002443000000000245111945000000000003106000000000007611637900000000000000009999123100000010000000000000BRTRPLACNPR1185
012024081502EALT3       010ACO ALTONA  ON           R$  000000000142500000000014480000000001425000000000144000000000014480000000000850000000000144800003000000000000000300000000000000432000000000000000009999123100000010000000000000BREALTACNOR4138
012024081502EALT4       010ACO ALTONA  PN           R$  000000000140700000000014400000000001407000000000142700000000014290000000001428000000000143900060000000000000014200000000000020266100000000000000009999123100000010000000000000BREALTACNPR1138
012024081502FESA4       010FERBASA     PN      N1   R$  000000000081300000000008390000000000804000000000082600000000008340000000000829000000000083502051000000000000672300000000000555648100000000000000009999123100000010000000000000BRFESAACNPR5084
012024081502FHER3       010FER HERINGERON      NM   R$  000000000042500000000004250000000000425000000000042500000000004250000000000421000000000042500019000000000000023000000000000009775000000000000000009999123100000010000000000000BRFHERACNOR5103
012024081502FIQE3       010UNIFIQUE    ON      NM   R$  000000000037700000000004000000000000375000000000039000000000003950000000000394000000000039500996000000000000719300000000000281120900000000000000009999123100000010000000000000BRFIQEACNOR5107
012024081502KRSA3       010KORA SAUDE  ON      NM   R$  000000000006000000000000620000000000058000000000006000000000000600000000000059000000000006000589000000000000619100000000000037449400000000000000009999123100000010000000000000BRKRSAACNOR0100
012024081502FLRY3       010FLEURY      ON  EJ  NM   R$  000000000156000000000015760000000001548000000000156000000000015630000000001555000000000156309833000000000002336800000000003647686300000000000000009999123100000010000000000000BRFLRYACNOR5139
012024081502FRAS3       010FRAS-LE     ON      N1   R$  000000000185000000000018840000000001836000000000186000000000018540000000001854000000000185502121000000000000764400000000001421876300000000000000009999123100000010000000000000BRFRASACNOR0160
012024081502FRIO3       010METALFRIO   ON      NM   R$  000000001710000000000171000000000016900000000001700000000000169000000000016250000000001950000003000000000000000300000000000005100000000000000000009999123100000010000000000000BRFRIOACNOR2111
012024081502LAND3       010TERRASANTAPAON      NM   R$  000000000134800000000013480000000001263000000000127800000000012800000000001267000000000128000218000000000000052400000000000066974000000000000000009999123100000010000000000000BRLANDACNOR9103
012024081502LAVV3       010LAVVI       ON      NM   R$  000000000090500000000009100000000000876000000000089200000000008830000000000882000000000088302379000000000000587600000000000524143900000000000000009999123100000010000000000000BRLAVVACNOR4112
012024081502LEVE3       010METAL LEVE  ON      NM   R$  000000000320000000000032980000000003102000000000319300000000032250000000003224000000000322508105000000000001889400000000006034087800000000000000009999123100000010000000000000BRLEVEACNOR2197
012024081502MRSA6B      010MRS LOGIST  PNB     MB   R$  000000000325000000000032500000000003250000000000325000000000032500000000002900000000000325000001000000000000000200000000000000650000000000000000009999123100000010000000000000BRMRSAACNPB7125
012024081502MRVE3       010MRV         ON      NM   R$  000000000072800000000007640000000000720000000000074800000000007550000000000754000000000075519347000000000014834100000000011098873800000000000000009999123100000010000000000000BRMRVEACNOR2127
012024081502PTBL3       010PORTOBELLO  ON      NM   R$  000000000045600000000004870000000000442000000000046300000000004810000000000476000000000048102412000000000001129000000000000523096200000000000000009999123100000010000000000000BRPTBLACNOR8132
012024081502PTNT3       010PETTENATI   ON           R$  000000000091900000000009190000000000919000000000091900000000009190000000000882000000000091700001000000000000000100000000000000091900000000000000009999123100000010000000000000BRPTNTACNOR6042
012024081502PTNT4       010PETTENATI   PN           R$  000000000060300000000006190000000000596000000000060000000000005980000000000598000000000060500059000000000000024900000000000014948700000000000000009999123100000010000000000000BRPTNTACNPR3047
012024081502GEPA4       010GER PARANAP PN           R$  000000000262500000000026300000000002625000000000262800000000026300000000002601000000000263000002000000000000000300000000000000788500000000000000009999123100000010000000000000BRGEPAACNPR9160
012024081502GFSA3       010GAFISA      ON  ES  NM   R$  000000000029300000000002940000000000259000000000027500000000002680000000000267000000000026805915000000000008700300000000002397158200000000000000009999123100000010000000000000BRGFSAACNOR3125
012024081502ALPA3       010ALPARGATAS  ON      N1   R$  000000000078600000000007990000000000772000000000077300000000007720000000000772000000000079900022000000000000012600000000000009743500000000000000009999123100000010000000000000BRALPAACNOR0231
012024081502ALPA4       010ALPARGATAS  PN      N1   R$  000000000079400000000008240000000000783000000000080700000000008240000000000820000000000082408551000000000004044600000000003267841400000000000000009999123100000010000000000000BRALPAACNPR7232
012024081502ALPK3       010ESTAPAR     ON      NM   R$  000000000039500000000003950000000000380000000000038900000000003920000000000386000000000039200358000000000000134500000000000052390500000000000000009999123100000010000000000000BRALPKACNOR9101
012024081502ALUP11      010ALUPAR      UNT     N2   R$  000000000328100000000032810000000003196000000000323600000000032070000000003204000000000320705007000000000001452800000000004701528700000000000000009999123100000010000000000000BRALUPCDAM15119
012024081502ALUP3       010ALUPAR      ON      N2   R$  000000000113000000000011350000000001097000000000112600000000011100000000001091000000000111000039000000000000006300000000000007094500000000000000009999123100000010000000000000BRALUPACNOR8119
012024081502ALUP4       010ALUPAR      PN      N2   R$  000000000107400000000010740000000001052000000000105900000000010520000000001052000000000107400068000000000000013600000000000014415400000000000000009999123100000010000000000000BRALUPACNPR5119
012024081502AMAR3       010LOJAS MARISAON      NM   R$  000000000013100000000001320000000000129000000000013000000000001290000000000129000000000013000508000000000000623400000000000081046500000000000000009999123100000010000000000000BRAMARACNOR4115
012024081502AMBP3       010AMBIPAR     ON      NM   R$  000000000670000000000082990000000006511000000000762600000000082990000000008271000000000830004000000000000001045000000000007969669500000000000000009999123100000010000000000000BRAMBPACNOR6103
012024081502BEEF3       010MINERVA     ON      NM   R$  000000000076000000000007660000000000744000000000075400000000007540000000000754000000000075511117000000000008219700000000006198859500000000000000009999123100000010000000000000BRBEEFACNOR6116
012024081502BRIT3       010BRISANET    ON      NM   R$  000000000037000000000003760000000000353000000000036600000000003700000000000368000000000037002108000000000002290700000000000840536100000000000000009999123100000010000000000000BRBRITACNOR0103
012024081502BRKM3       010BRASKEM     ON      N1   R$  000000000168700000000017350000000001670000000000171000000000017070000000001705000000000171400081000000000000009900000000000016931000000000000000009999123100000010000000000000BRBRKMACNOR1119
012024081502BRKM5       010BRASKEM     PNA     N1   R$  000000000166700000000017080000000001648000000000167400000000016910000000001691000000000169309575000000000003395400000000005685411500000000000000009999123100000010000000000000BRBRKMACNPA4121
012024081502COCE5       010COELCE      PNA          R$  000000000313000000000031570000000003042000000000311400000000030810000000003080000000000310700075000000000000014200000000000044222500000000000000009999123100000010000000000000BRCOCEACNPA3147
012024081502COGN3       010COGNA ON    ON      NM   R$  000000000014000000000001440000000000138000000000014000000000001390000000000138000000000013938381000000000091635100000000012860373900000000000000009999123100000010000000000000BRCOGNACNOR2104
012024081502CYRE3       010CYRELA REALTON      NM   R$  000000000216300000000022310000000002142000000000220900000000022140000000002214000000000221717888000000000006417000000000014178123700000000000000009999123100000010000000000000BRCYREACNOR7140
012024081502ESTR4       010ESTRELA     PN           R$  000000000020700000000002070000000000207000000000020700000000002070000000000207000000000021300001000000000000000100000000000000020700000000000000009999123100000010000000000000BRESTRACNPR0144
012024081502ETER3       010ETERNIT     ON  EJ  NM   R$  000000000061200000000006200000000000593000000000060400000000005980000000000598000000000060100915000000000000555600000000000336057000000000000000009999123100000010000000000000BRETERACNOR3244
012024081502EUCA3       010EUCATEX     ON      N1   R$  000000000165400000000016690000000001608000000000163300000000016080000000001585000000000165400006000000000000000700000000000001143700000000000000009999123100000010000000000000BREUCAACNOR1157
012024081502EUCA4       010EUCATEX     PN      N1   R$  000000000152100000000015790000000001505000000000155900000000015690000000001569000000000157000574000000000000145600000000000227004900000000000000009999123100000010000000000000BREUCAACNPR8044
012024081502EVEN3       010EVEN        ON      NM   R$  000000000064600000000006640000000000636000000000065000000000006520000000000651000000000065305325000000000001225000000000000797080900000000000000009999123100000010000000000000BREVENACNOR8119
012024081502EZTC3       010EZTEC       ON  ED  NM   R$  000000000139800000000014460000000001381000000000142500000000014290000000001428000000000143406507000000000001425400000000002032408500000000000000009999123100000010000000000000BREZTCACNOR0126
012024081502USIM3       010USIMINAS    ON      N1   R$  000000000059200000000006100000000000591000000000060100000000006080000000000603000000000060801286000000000000327300000000000197003200000000000000009999123100000010000000000000BRUSIMACNOR3167
012024081502USIM5       010USIMINAS    PNA     N1   R$  000000000061000000000006200000000000606000000000061300000000006180000000000617000000000061919368000000000011036800000000006771107600000000000000009999123100000010000000000000BRUSIMACNPA6169
012024081502INEP3       010INEPAR      ON           R$  000000000019400000000001990000000000190000000000019400000000001930000000000192000000000019300186000000000000041500000000000008058900000000000000009999123100000010000000000000BRINEPACNOR1143
012024081502INEP4       010INEPAR      PN           R$  000000000018800000000001950000000000187000000000019300000000001940000000000189000000000019400028000000000000014100000000000002734600000000000000009999123100000010000000000000BRINEPACNPR8143
012024081502INTB3       010INTELBRAS   ON      NM   R$  000000000217600000000022650000000002158000000000222000000000022350000000002220000000000223503806000000000000947700000000002104621200000000000000009999123100000010000000000000BRINTBACNOR9112
012024081502IRBR3       010IRBBRASIL REON      NM   R$  000000000365100000000042500000000003585000000000394900000000042490000000004248000000000424931889000000000011804600000000046622471200000000000000009999123100000010000000000000BRIRBRACNOR4111
012024081502CLSA3       010CLEARSALE   ON      NM   R$  000000000070300000000007800000000000689000000000074400000000007760000000000774000000000077605499000000000002916200000000002171232700000000000000009999123100000010000000000000BRCLSAACNOR0100
012024081502CLSC3       010CELESC      ON      N2   R$  000000000714000000000071500000000007140000000000714200000000071400000000006938000000000725000003000000000000000400000000000002857000000000000000009999123100000010000000000000BRCLSCACNOR6152
012024081502CLSC4       010CELESC      PN      N2   R$  000000000753800000000078120000000007538000000000773500000000078120000000007667000000000785100180000000000000020200000000000156258200000000000000009999123100000010000000000000BRCLSCACNPR3131
012024081502CMIG3       010CEMIG       ON      N1   R$  000000000137900000000013800000000001359000000000137400000000013770000000001366000000000137701661000000000000490900000000000674504400000000000000009999123100000010000000000000BRCMIGACNOR6242
012024081502CMIG4       010CEMIG       PN      N1   R$  000000000119200000000011960000000001148000000000117500000000011510000000001151000000000115335783000000000026302900000000030928446800000000000000009999123100000010000000000000BRCMIGACNPR3243
012024081502CSNA3       010SID NACIONALON           R$  000000000116900000000011710000000001147000000000115600000000011520000000001151000000000115215783000000000006448100000000007459472000000000000000009999123100000010000000000000BRCSNAACNOR6261
012024081502ELMD3       010ELETROMIDIA ON      NM   R$  000000000188700000000019000000000001862000000000188600000000019000000000001876000000000190000509000000000000077800000000000146740400000000000000009999123100000010000000000000BRELMDACNOR3101
012024081502EMAE4       010EMAE        PN           R$  000000000410000000000041570000000004099000000000411700000000041330000000003863000000000413400018000000000000001900000000000007823100000000000000009999123100000010000000000000BREMAEACNPR1125
012024081502EMBR3       010EMBRAER     ON      NM   R$  000000000441300000000045100000000004395000000000445300000000044810000000004480000000000448430485000000000006136000000000027328557900000000000000009999123100000010000000000000BREMBRACNOR4191
012024081502LUPA3       010LUPATECH    ON      NM   R$  000000000016500000000001670000000000157000000000015900000000001580000000000158000000000016000235000000000000306000000000000048819900000000000000009999123100000010000000000000BRLUPAACNOR8112
012024081502MTRE3       010MITRE REALTYON      NM   R$  000000000039000000000003990000000000386000000000039300000000003960000000000392000000000039602463000000000000748900000000000294348600000000000000009999123100000010000000000000BRMTREACNOR6113
012024081502MTSA4       010METISA      PN           R$  000000000436000000000044390000000004234000000000432600000000043900000000004280000000000440000062000000000000012500000000000054081600000000000000009999123100000010000000000000BRMTSAACNPR9072
012024081502MULT3       010MULTIPLAN   ON      N2   R$  000000000273100000000027320000000002657000000000268600000000026570000000002657000000000266019640000000000004714700000000012663885100000000000000009999123100000010000000000000BRMULTACNOR5139
012024081502MWET4       010WETZEL S/A  PN           R$  000000000090000000000009340000000000900000000000091700000000009340000000000621000000000093400002000000000000000200000000000000183400000000000000009999123100000010000000000000BRMWETACNPR3118
012024081502MYPK3       010IOCHP-MAXIONON      NM   R$  000000000115900000000011710000000001139000000000115500000000011520000000001152000000000115805575000000000001165600000000001346785400000000000000009999123100000010000000000000BRMYPKACNOR7155
012024081502PETZ3       010PETZ        ON      NM   R$  000000000036200000000003640000000000343000000000035000000000003450000000000345000000000034624824000000000043093200000000015125052900000000000000009999123100000010000000000000BRPETZACNOR2110
012024081502RAIZ4       010RAIZEN      PN      N2   R$  000000000032300000000003320000000000321000000000032700000000003280000000000327000000000032812362000000000016365200000000005355317500000000000000009999123100000010000000000000BRRAIZACNPR6111
012024081502AALR3       010ALLIAR      ON      NM   R$  000000000103300000000011550000000001023000000000105800000000011550000000001132000000000115500192000000000000258800000000000273866300000000000000009999123100000010000000000000BRAALRACNOR6102
012024081502ABCB4       010ABC BRASIL  PN      N2   R$  000000000226800000000022800000000002246000000000225800000000022530000000002253000000000226004847000000000001004900000000002269123200000000000000009999123100000010000000000000BRABCBACNPR4146
012024081502ABEV3       010AMBEV S/A   ON           R$  000000000126500000000013150000000001258000000000130000000000013030000000001302000000000130340776000000000048543500000000063132427300000000000000009999123100000010000000000000BRABEVACNOR1128
012024081502SBFG3       010GRUPO SBF   ON      NM   R$  000000000167800000000017520000000001654000000000172500000000017320000000001730000000000173310181000000000002460300000000004244481100000000000000009999123100000010000000000000BRSBFGACNOR1103
012024081502SBSP3       010SABESP      ON      NM   R$  000000000995600000000099610000000009820000000000988700000000098640000000009860000000000986419384000000000004999700000000049433336100000000000000009999123100000010000000000000BRSBSPACNOR5161
012024081502IFCM3       010INFRACOMM   ON      NM   R$  000000000002700000000000280000000000022000000000002400000000000230000000000022000000000002305089000000000039514900000000000961179500000000000000009999123100000010000000000000BRIFCMACNOR8101
012024081502IGTI11      010IGUATEMI S.AUNT     N1   R$  000000000235300000000023610000000002304000000000232300000000023200000000002320000000000232412132000000000003639900000000008457532200000000000000009999123100000010000000000000BRIGTICDAM16106
012024081502IGTI3       010IGUATEMI S.AON      N1   R$  000000000029200000000002970000000000285000000000028800000000002850000000000283000000000029000114000000000000066600000000000019239200000000000000009999123100000010000000000000BRIGTIACNOR8106
012024081502IGTI4       010IGUATEMI S.APN      N1   R$  000000000102300000000010230000000001023000000000102300000000010230000000000009000000000102000001000000000000000100000000000000102300000000000000009999123100000010000000000000BRIGTIACNPR5106
012024081502ITUB3       010ITAUUNIBANCOON      N1   R$  000000000313900000000031830000000003130000000000316800000000031810000000003169000000000318102971000000000000770600000000002441825800000000000000009999123100000010000000000000BRITUBACNOR4339
012024081502ITUB4       010ITAUUNIBANCOPN      N1   R$  000000000366700000000037090000000003656000000000369100000000037050000000003704000000000370545278000000000032635900000000120460202400000000000000009999123100000010000000000000BRITUBACNPR1339
012024081502UCAS3       010UNICASA     ON      NM   R$  000000000022800000000002290000000000223000000000022600000000002290000000000226000000000022900089000000000000019800000000000004486300000000000000009999123100000010000000000000BRUCASACNOR1113
012024081502UGPA3       010ULTRAPAR    ON      NM   R$  000000000237200000000023980000000002343000000000237100000000023750000000002374000000000237521087000000000007459800000000017693181100000000000000009999123100000010000000000000BRUGPAACNOR8155
012024081502VITT3       010VITTIA      ON      NM   R$  000000000059000000000006210000000000590000000000061200000000006050000000000605000000000061001840000000000000402800000000000246665800000000000000009999123100000010000000000000BRVITTACNOR4107
012024081502VIVA3       010VIVARA S.A. ON      NM   R$  000000000272100000000027450000000002685000000000270600000000027000000000002700000000000270312286000000000002353000000000006368363300000000000000009999123100000010000000000000BRVIVAACNOR0107
012024081502VIVR3       010VIVER       ON      NM   R$  000000000025500000000002550000000000245000000000024600000000002460000000000246000000000024800100000000000000087300000000000021490300000000000000009999123100000010000000000000BRVIVRACNOR4123
012024081502ONCO3       010ONCOCLINICASON      NM   R$  000000000063000000000006620000000000616000000000063900000000006350000000000632000000000063506069000000000006959300000000004447064800000000000000009999123100000010000000000000BRONCOACNOR6101
012024081502OPCT3       010OCEANPACT   ON      NM   R$  000000000065300000000006730000000000653000000000066600000000006660000000000663000000000066601566000000000000372700000000000248279100000000000000009999123100000010000000000000BROPCTACNOR0100
012024081502ORVR3       010ORIZON      ON      NM   R$  000000000460000000000046690000000004440000000000458400000000045910000000004591000000000459302986000000000000494300000000002266267100000000000000009999123100000010000000000000BRORVRACNOR0101
012024081502VAMO3       010VAMOS       ON      NM   R$  000000000083500000000008470000000000823000000000083300000000008250000000000824000000000082516471000000000005124400000000004271697800000000000000009999123100000010000000000000BRVAMOACNOR7105
012024081502VBBR3       010VIBRA       ON      NM   R$  000000000252200000000025940000000002504000000000256700000000025820000000002582000000000258322731000000000009337900000000023973401800000000000000009999123100000010000000000000BRVBBRACNOR1108
012024081502ZAMP3       010ZAMP S.A.   ON           R$  000000000033300000000003520000000000332000000000034300000000003410000000000341000000000034604335000000000001812600000000000622429100000000000000009999123100000010000000000000BRZAMPACNOR5101
012024081502WEST3       010WESTWING    ON      NM   R$  000000000009200000000000920000000000087000000000008900000000000900000000000088000000000009000074000000000000058600000000000005227600000000000000009999123100000010000000000000BRWESTACNOR3100
012024081502WHRL3       010WHIRLPOOL   ON           R$  000000000042200000000004220000000000418000000000041900000000004200000000000419000000000042000016000000000000003600000000000001509600000000000000009999123100000010000000000000BRWHRLACNOR5128
012024081502WHRL4       010WHIRLPOOL   PN           R$  000000000044700000000004490000000000445000000000044700000000004450000000000445000000000044900009000000000000013100000000000005867100000000000000009999123100000010000000000000BRWHRLACNPR2128
012024081502WIZC3       010WIZ CO      ON      NM   R$  000000000060000000000006100000000000597000000000060400000000006040000000000603000000000060401881000000000000440100000000000266216100000000000000009999123100000010000000000000BRWIZCACNOR5102
012024081502WLMM4       010WLM IND COM PN  EJ       R$  000000000322000000000033010000000003220000000000325100000000032600000000003260000000000330000014000000000000002000000000000006502500000000000000009999123100000010000000000000BRWLMMACNPR3119
012024081502PDGR3       010PDG REALT   ON      NM   R$  000000000001900000000000200000000000016000000000001700000000000170000000000017000000000001801027000000000011683500000000000206654900000000000000009999123100000010000000000000BRPDGRACNOR8119
012024081502PDTC3       010PADTEC      ON      NM   R$  000000000018200000000001870000000000181000000000018400000000001860000000000184000000000018600042000000000000019700000000000003627100000000000000009999123100000010000000000000BRPDTCACNOR3101
012024081502PETR3       010PETROBRAS   ON      N2   R$  000000000412000000000041530000000004094000000000413100000000041400000000004138000000000414117914000000000006086600000000025148216200000000000000009999123100000010000000000000BRPETRACNOR9205
012024081502PETR4       010PETROBRAS   PN      N2   R$  000000000380500000000038560000000003800000000000383400000000038340000000003834000000000383580081000000000033409000000000128102229900000000000000009999123100000010000000000000BRPETRACNPR6213
012024081502PRIO3       010PETRORIO    ON      NM   R$  000000000498500000000050120000000004873000000000492200000000048920000000004889000000000489419361000000000008523000000000041956459100000000000000009999123100000010000000000000BRPRIOACNOR1107
012024081502SMFT3       010SMART FIT   ON      NM   R$  000000000236200000000023950000000002315000000000236900000000023700000000002370000000000237115140000000000002901800000000006876598800000000000000009999123100000010000000000000BRSMFTACNOR1112
012024081502SMTO3       010SAO MARTINHOON      NM   R$  000000000301400000000030140000000002930000000000297300000000029810000000002970000000000298507121000000000001198100000000003562343800000000000000009999123100000010000000000000BRSMTOACNOR3127
012024081502GRND3       010GRENDENE    ON      NM   R$  000000000062200000000006360000000000606000000000062400000000006220000000000622000000000062503935000000000002130500000000001330840700000000000000009999123100000010000000000000BRGRNDACNOR3174
012024081502GUAR3       010GUARARAPES  ON      NM   R$  000000000086600000000008990000000000862000000000088900000000008890000000000882000000000089004729000000000001453100000000001292122300000000000000009999123100000010000000000000BRGUARACNOR4173
012024081502HAGA3       010HAGA S/A    ON           R$  000000000023800000000002410000000000238000000000024000000000002400000000000240000000000024400008000000000000003400000000000000816500000000000000009999123100000010000000000000BRHAGAACNOR7103
012024081502HAGA4       010HAGA S/A    PN           R$  000000000011500000000001170000000000113000000000011400000000001140000000000114000000000011600047000000000000026400000000000003031800000000000000009999123100000010000000000000BRHAGAACNPR4103
012024081502HAPV3       010HAPVIDA     ON      NM   R$  000000000044200000000004480000000000436000000000044200000000004420000000000441000000000044244933000000000053696500000000023779041100000000000000009999123100000010000000000000BRHAPVACNOR4114
012024081502JALL3       010JALLESMACHADON      NM   R$  000000000069000000000006970000000000676000000000068800000000006850000000000685000000000068701723000000000000407300000000000280535700000000000000009999123100000010000000000000BRJALLACNOR0106
012024081502JBSS3       010JBS         ON      NM   R$  000000000374700000000038380000000003710000000000377400000000037920000000003776000000000379238724000000000015794400000000059623538200000000000000009999123100000010000000000000BRJBSSACNOR8121
012024081502PCAR3       010P.ACUCAR-CBDON      NM   R$  000000000031900000000003190000000000312000000000031500000000003160000000000315000000000031612382000000000012979000000000004093112500000000000000009999123100000010000000000000BRPCARACNOR3167
012024081502MGEL4       010MANGELS INDLPN           R$  000000000120500000000012050000000001200000000000120000000000012000000000001200000000000123700006000000000000007900000000000009485000000000000000009999123100000010000000000000BRMGELACNPR3147
012024081502MGLU3       010MAGAZ LUIZA ON      NM   R$  000000000128200000000013410000000001256000000000131400000000013290000000001328000000000132921995000000000019604800000000025769752200000000000000009999123100000010000000000000BRMGLUACNOR2124
012024081502ODPV3       010ODONTOPREV  ON      NM   R$  000000000117200000000011940000000001162000000000118200000000011900000000001183000000000119007564000000000001608000000000001901420900000000000000009999123100000010000000000000BRODPVACNOR4202
012024081502OFSA3       010OUROFINO S/AON      NM   R$  000000000223900000000022430000000002200000000000221200000000022000000000002200000000000239900040000000000000009100000000000020134500000000000000009999123100000010000000000000BROFSAACNOR7118
012024081502PLPL3       010PLANOEPLANO ON      NM   R$  000000000122000000000012540000000001197000000000122700000000012220000000001222000000000123204561000000000001087100000000001333961100000000000000009999123100000010000000000000BRPLPLACNOR5104
012024081502PNVL3       010DIMED       ON      NM   R$  000000000109100000000011090000000001069000000000109500000000011010000000001100000000000110202878000000000000554000000000000606760100000000000000009999123100000010000000000000BRPNVLACNOR9207
012024081502POMO3       010MARCOPOLO   ON      N2   R$  000000000054600000000005540000000000537000000000054300000000005370000000000537000000000054100691000000000000190300000000000103449000000000000000009999123100000010000000000000BRPOMOACNOR0098
012024081502POMO4       010MARCOPOLO   PN      N2   R$  000000000069500000000007060000000000683000000000069300000000006880000000000684000000000068814574000000000008931600000000006191964600000000000000009999123100000010000000000000BRPOMOACNPR7098
012024081502PORT3       010WILSON SONS ON      NM   R$  000000000167700000000017040000000001669000000000169300000000016940000000001688000000000169501318000000000000431000000000000729903700000000000000009999123100000010000000000000BRPORTACNOR8109
012024081502POSI3       010POSITIVO TECON      NM   R$  000000000070700000000007260000000000675000000000070100000000007030000000000702000000000070307600000000000003193300000000002239458700000000000000009999123100000010000000000000BRPOSIACNOR9116
012024081502RECV3       010PETRORECSA  ON      NM   R$  000000000219400000000022290000000002170000000000220500000000022100000000002203000000000221007528000000000001494300000000003295943800000000000000009999123100000010000000000000BRRECVACNOR3107
012024081502REDE3       010REDE ENERGIAON           R$  000000000070000000000007000000000000693000000000069800000000006930000000000693000000000069500008000000000000001600000000000001117400000000000000009999123100000010000000000000BRREDEACNOR7128
012024081502MAPT4       010CEMEPE      PN           R$  000000000052000000000005200000000000520000000000052000000000005200000000000420000000000062900004000000000000001300000000000000676000000000000000009999123100000010000000000000BRMAPTACNPR5106
012024081502MATD3       010MATER DEI   ON      NM   R$  000000000044300000000004680000000000443000000000045200000000004490000000000448000000000045401660000000000000579000000000000262195900000000000000009999123100000010000000000000BRMATDACNOR4104
012024081502MBLY3       010MOBLY       ON      NM   R$  000000000027900000000002790000000000260000000000026500000000002670000000000266000000000026700609000000000000322400000000000085625500000000000000009999123100000010000000000000BRMBLYACNOR5100
012024081502MDIA3       010M.DIASBRANCOON      NM   R$  000000000289900000000029120000000002843000000000288800000000028900000000002889000000000289102346000000000000464500000000001341719100000000000000009999123100000010000000000000BRMDIAACNOR7135
012024081502MDNE3       010MOURA DUBEUXON      NM   R$  000000000145400000000015130000000001454000000000149400000000014960000000001484000000000149603568000000000000813600000000001215612900000000000000009999123100000010000000000000BRMDNEACNOR9100
012024081502CSAN3       010COSAN       ON      NM   R$  000000000135000000000013830000000001324000000000136500000000013690000000001368000000000136927803000000000014982100000000020460793300000000000000009999123100000010000000000000BRCSANACNOR6126
012024081502EKTR4       010ELEKTRO     PN           R$  000000000417500000000041750000000004115000000000415500000000041160000000004111000000000423900008000000000000001200000000000004986200000000000000009999123100000010000000000000BREKTRACNPR7164
012024081502ELET3       010ELETROBRAS  ON      N1   R$  000000000402400000000040780000000004006000000000405100000000040500000000004050000000000405419220000000000006561300000000026582370100000000000000009999123100000010000000000000BRELETACNOR6160
012024081502ELET6       010ELETROBRAS  PNB     N1   R$  000000000446000000000045190000000004452000000000448900000000044950000000004493000000000449504922000000000000969600000000004353369400000000000000009999123100000010000000000000BRELETACNPB7077
012024081502GGPS3       010GPS         ON      NM   R$  000000000179700000000018040000000001771000000000178900000000017860000000001777000000000178605116000000000001576200000000002819929600000000000000009999123100000010000000000000BRGGPSACNOR9103
012024081502GMAT3       010GRUPO MATEUSON      NM   R$  000000000080500000000008090000000000791000000000080100000000008000000000000799000000000080004395000000000001786200000000001432049300000000000000009999123100000010000000000000BRGMATACNOR7102
012024081502GOAU3       010GERDAU MET  ON  ED  N1   R$  000000000103200000000010400000000001023000000000103300000000010370000000001033000000000103700115000000000000018700000000000019328200000000000000009999123100000010000000000000BRGOAUACNOR1268
012024081502GOAU4       010GERDAU MET  PN  ED  N1   R$  000000000101100000000010240000000001003000000000101500000000010160000000001013000000000101710838000000000006544700000000006643326200000000000000009999123100000010000000000000BRGOAUACNPR8269
012024081502BOBR4       010BOMBRIL     PN           R$  000000000021000000000002270000000000209000000000021700000000002220000000000219000000000022300417000000000000263600000000000057405300000000000000009999123100000010000000000000BRBOBRACNPR3128
012024081502BBDC3       010BRADESCO    ON      N1   R$  000000000134000000000013620000000001338000000000135400000000013560000000001354000000000135710298000000000004187600000000005673369500000000000000009999123100000010000000000000BRBBDCACNOR1773
012024081502BBDC4       010BRADESCO    PN      N1   R$  000000000150700000000015230000000001501000000000151700000000015160000000001516000000000151739194000000000031738900000000048168937000000000000000009999123100000010000000000000BRBBDCACNPR8773
012024081502BLAU3       010BLAU        ON      NM   R$  000000000121000000000012350000000001185000000000121300000000011990000000001196000000000119901167000000000000189600000000000230170800000000000000009999123100000010000000000000BRBLAUACNOR8114
012024081502BMEB3       010MERCANTIL   ON      N1   R$  000000000348000000000035100000000003466000000000348200000000035100000000003350000000000351000008000000000000001600000000000005571400000000000000009999123100000010000000000000BRBMEBACNOR8206
012024081502BMEB4       010MERCANTIL   PN      N1   R$  000000000378900000000037890000000003638000000000370300000000036710000000003667000000000374200054000000000000010000000000000037035800000000000000009999123100000010000000000000BRBMEBACNPR5211
012024081502BMGB4       010BANCO BMG   PN      N1   R$  000000000036900000000003770000000000350000000000036500000000003700000000000368000000000037001500000000000001059300000000000386963100000000000000009999123100000010000000000000BRBMGBACNPR0110
012024081502BMIN4       010MERC INVEST PN           R$  000000000156400000000016000000000001564000000000158300000000016000000000001564000000000170000002000000000000001100000000000001742000000000000000009999123100000010000000000000BRBMINACNPR1176
012024081502BMKS3       010BIC MONARK  ON           R$  000000003130000000000313000000000031300000000003130000000000313000000000031111000000003130000016000000000000000073000000000002284900000000000000009999123100000010000000000000BRBMKSACNOR9166
012024081502BMOB3       010BEMOBI TECH ON      NM   R$  000000000161000000000016350000000001585000000000160700000000016000000000001600000000000160101743000000000000257300000000000413568200000000000000009999123100000010000000000000BRBMOBACNOR7103
012024081502MEAL3       010IMC S/A     ON      NM   R$  000000000016500000000001650000000000152000000000015600000000001560000000000156000000000015700836000000000001642900000000000257732800000000000000009999123100000010000000000000BRMEALACNOR9105
012024081502NEOE3       010NEOENERGIA  ON      NM   R$  000000000193900000000019390000000001909000000000192100000000019100000000001910000000000191503172000000000000567100000000001089792700000000000000009999123100000010000000000000BRNEOEACNOR3123
012024081502NGRD3       010NEOGRID     ON      NM   R$  000000000012000000000001220000000000119000000000012000000000001190000000000119000000000012000520000000000000601600000000000072549500000000000000009999123100000010000000000000BRNGRDACNOR3104
012024081502NINJ3       010GETNINJAS   ON      NM   R$  000000000047600000000004760000000000467000000000047000000000004720000000000466000000000047400032000000000000008300000000000003903100000000000000009999123100000010000000000000BRNINJACNOR5101
012024081502NORD3       010NORDON MET  ON           R$  000000000103700000000010950000000000950000000000101600000000010950000000000970000000000109600019000000000000002900000000000002948000000000000000009999123100000010000000000000BRNORDACNOR7135
012024081502NTCO3       010GRUPO NATURAON      NM   R$  000000000147600000000014910000000001384000000000142600000000013900000000001390000000000139139073000000000015300300000000021825563000000000000000009999123100000010000000000000BRNTCOACNOR5106
012024081502RANI3       010IRANI       ON  ED  NM   R$  000000000080800000000008200000000000801000000000080800000000008090000000000807000000000080903885000000000001177400000000000951406500000000000000009999123100000010000000000000BRRANIACNOR5073
012024081502RAPT3       010RANDON PART ON      N1   R$  000000000090400000000009170000000000897000000000090300000000009170000000000902000000000091700111000000000000032200000000000029083700000000000000009999123100000010000000000000BRRAPTACNOR7163
012024081502RAPT4       010RANDON PART PN      N1   R$  000000000111700000000011170000000001086000000000109400000000011000000000001100000000000110104929000000000001725600000000001888697200000000000000009999123100000010000000000000BRRAPTACNPR4163
012024081502JSLG3       010JSL         ON      NM   R$  000000000092500000000009330000000000909000000000092300000000009090000000000908000000000091200781000000000000407900000000000376509300000000000000009999123100000010000000000000BRJSLGACNOR2121
012024081502KEPL3       010KEPLER WEBERON  EJ  NM   R$  000000000113900000000011530000000001125000000000114000000000011300000000001128000000000113004331000000000001261000000000001438010200000000000000009999123100000010000000000000BRKEPLACNOR1064
012024081502KLBN11      010KLABIN S/A  UNT ED  N2   R$  000000000210500000000021050000000002074000000000208300000000020840000000002083000000000208412832000000000003080300000000006417449500000000000000009999123100000010000000000000BRKLBNCDAM18143
012024081502KLBN3       010KLABIN S/A  ON  ED  N2   R$  000000000042500000000004250000000000418000000000041900000000004230000000000422000000000042300885000000000000431600000000000181164300000000000000009999123100000010000000000000BRKLBNACNOR2171
012024081502KLBN4       010KLABIN S/A  PN  ED  N2   R$  000000000042200000000004220000000000415000000000041600000000004170000000000416000000000041702609000000000001602900000000000668113800000000000000009999123100000010000000000000BRKLBNACNPR9171
012024081502MILS3       010MILLS       ON      NM   R$  000000000117800000000011940000000001149000000000116900000000011620000000001161000000000116204193000000000000862000000000001007889100000000000000009999123100000010000000000000BRMILSACNOR2127
012024081502MLAS3       010MULTILASER  ON      NM   R$  000000000018600000000001920000000000175000000000018300000000001820000000000182000000000018307594000000000009878600000000001813037700000000000000009999123100000010000000000000BRMLASACNOR9101
012024081502MNDL3       010MUNDIAL     ON           R$  000000000148900000000014900000000001489000000000148900000000014900000000001407000000000149000003000000000000000500000000000000744900000000000000009999123100000010000000000000BRMNDLACNOR4109
012024081502MNPR3       010MINUPAR     ON           R$  000000000162000000000016200000000001601000000000161700000000016200000000001560000000000163500004000000000000000800000000000001294000000000000000009999123100000010000000000000BRMNPRACNOR5122
012024081502MOVI3       010MOVIDA      ON      NM   R$  000000000073800000000007560000000000728000000000074300000000007310000000000731000000000073305539000000000003344600000000002485227500000000000000009999123100000010000000000000BRMOVIACNOR0122
012024081502MRFG3       010MARFRIG     ON      NM   R$  000000000130000000000013390000000001239000000000131000000000013090000000001306000000000130925128000000000012207700000000016001055600000000000000009999123100000010000000000000BRMRFGACNOR0116
012024081502PRNR3       010PRINER      ON      NM   R$  000000000117700000000012200000000001177000000000120300000000012010000000001201000000000120200891000000000000194900000000000234499500000000000000009999123100000010000000000000BRPRNRACNOR4109
012024081502PSSA3       010PORTO SEGUROON      NM   R$  000000000328500000000033210000000003271000000000330300000000033030000000003302000000000331006729000000000001472100000000004863393700000000000000009999123100000010000000000000BRPSSAACNOR7155
012024081502ATOM3       010ATOMPAR     ON           R$  000000000019900000000002030000000000195000000000019900000000001990000000000199000000000020000038000000000000018800000000000003759000000000000000009999123100000010000000000000BRATOMACNOR1106
012024081502AURE3       010AUREN       ON      NM   R$  000000000116500000000011770000000001150000000000116200000000011580000000001157000000000115812374000000000005697600000000006623306400000000000000009999123100000010000000000000BRAUREACNOR9104
012024081502AVLL3       010ALPHAVILLE  ON      NM   R$  000000000042200000000004400000000000415000000000043400000000004300000000000405000000000043000076000000000000125000000000000054253800000000000000009999123100000010000000000000BRAVLLACNOR5103
012024081502AZEV3       010AZEVEDO     ON           R$  000000000013900000000001450000000000133000000000013800000000001390000000000139000000000014000675000000000000598100000000000083019700000000000000009999123100000010000000000000BRAZEVACNOR0121
012024081502AZEV4       010AZEVEDO     PN           R$  000000000013500000000001430000000000132000000000013700000000001370000000000136000000000013701633000000000004499800000000000618696600000000000000009999123100000010000000000000BRAZEVACNPR7121
012024081502AZUL4       010AZUL        PN      N2   R$  000000000078000000000007930000000000760000000000077800000000007740000000000773000000000077412299000000000014625200000000011391968900000000000000009999123100000010000000000000BRAZULACNPR4102
012024081502PATI3       010PANATLANTICAON           R$  000000000260300000000027000000000002603000000000263000000000026900000000002650000000000269000023000000000000008100000000000021308700000000000000009999123100000010000000000000BRPATIACNOR6065
012024081502BIOM3       010BIOMM       ON      MA   R$  000000000087000000000008970000000000846000000000086500000000008880000000000863000000000088900311000000000000141800000000000122750400000000000000009999123100000010000000000000BRBIOMACNOR2112
012024081502BPAN4       010BANCO PAN   PN      N1   R$  000000000097500000000009900000000000969000000000098200000000009860000000000983000000000098608283000000000003310200000000003252473800000000000000009999123100000010000000000000BRBPANACNPR1115
012024081502BSLI3       010BRB BANCO   ON           R$  000000000104500000000010450000000001044000000000104400000000010440000000001002000000000106500002000000000000000300000000000000313300000000000000009999123100000010000000000000BRBSLIACNOR5194
012024081502BSLI4       010BRB BANCO   PN           R$  000000000096500000000009650000000000960000000000096100000000009600000000000941000000000098000003000000000000000700000000000000673000000000000000009999123100000010000000000000BRBSLIACNPR2194
012024081502CAMB3       010CAMBUCI     ON  EDJ      R$  000000000122400000000012710000000001195000000000123300000000012590000000001250000000000125900185000000000000029100000000000035892400000000000000009999123100000010000000000000BRCAMBACNOR4131
012024081502CAML3       010CAMIL       ON      NM   R$  000000000099400000000010130000000000989000000000100300000000010050000000001004000000000100502523000000000000661400000000000663608900000000000000009999123100000010000000000000BRCAMLACNOR3128
012024081502QUAL3       010QUALICORP   ON      NM   R$  000000000015700000000001660000000000156000000000016100000000001620000000000161000000000016202344000000000003857400000000000621585000000000000000009999123100000010000000000000BRQUALACNOR6120
012024081502RSUL4       010RIOSULENSE  PN           R$  000000000638000000000065000000000006330000000000641000000000065000000000006392000000000659800026000000000000003000000000000019231100000000000000009999123100000010000000000000BRRSULACNPR3114
012024081502TASA3       010TAURUS ARMASON      N2   R$  000000000111500000000011300000000001099000000000110500000000011150000000001114000000000112500152000000000000035700000000000039478600000000000000009999123100000010000000000000BRTASAACNOR7104
012024081502TASA4       010TAURUS ARMASPN      N2   R$  000000000110200000000011240000000001096000000000110800000000011090000000001108000000000110901374000000000000264400000000000293116600000000000000009999123100000010000000000000BRTASAACNPR4104
012024081502TCSA3       010TECNISA     ON      NM   R$  000000000020600000000002070000000000202000000000020300000000002020000000000202000000000020400170000000000000103000000000000020946600000000000000009999123100000010000000000000BRTCSAACNOR3112
012024081502TECN3       010TECHNOS     ON      NM   R$  000000000059800000000006090000000000585000000000060200000000005890000000000589000000000059201759000000000001073800000000000646457600000000000000009999123100000010000000000000BRTECNACNOR6109
012024081502TELB3       010TELEBRAS    ON           R$  000000000139500000000014000000000001395000000000139900000000014000000000001360000000000138500004000000000000000500000000000000699500000000000000009999123100000010000000000000BRTELBACNOR2140
012024081502TELB4       010TELEBRAS    PN           R$  000000000093400000000009500000000000914000000000092600000000009140000000000906000000000092000029000000000000005200000000000004819200000000000000009999123100000010000000000000BRTELBACNPR9140
012024081502TEND3       010TENDA       ON      NM   R$  000000000132900000000013730000000001306000000000134900000000013620000000001362000000000136307481000000000002092300000000002823559100000000000000009999123100000010000000000000BRTENDACNOR4111
012024081502TFCO4       010TRACK FIELD PN      N2   R$  000000000120900000000012670000000001205000000000123900000000012400000000001239000000000124200389000000000000153100000000000189810900000000000000009999123100000010000000000000BRTFCOACNPR8114
012024081502JHSF3       010JHSF PART   ON      NM   R$  000000000042700000000004370000000000427000000000043100000000004300000000000430000000000043105671000000000008108000000000003502059200000000000000009999123100000010000000000000BRJHSFACNOR2138
012024081502AZZA3       010AZZAS 2154  ON      NM   R$  000000000548700000000056290000000005333000000000547000000000053940000000005394000000000539709118000000000002644200000000014464603900000000000000009999123100000010000000000000BRAZZAACNOR9100
012024081502BRBI11      010BR PARTNERS UNT ED  N2   R$  000000000150000000000015290000000001489000000000150700000000015110000000001511000000000151501305000000000000263800000000000397806900000000000000009999123100000010000000000000BRBRBICDAM10110
012024081502BRFS3       010BRF SA      ON      NM   R$  000000000236500000000024710000000002250000000000240200000000023910000000002390000000000239343010000000000023601000000000056701783100000000000000009999123100000010000000000000BRBRFSACNOR8122
012024081502CCRO3       010CCR SA      ON      NM   R$  000000000135200000000013620000000001342000000000135200000000013460000000001346000000000135014492000000000005349400000000007232866400000000000000009999123100000010000000000000BRCCROACNOR2145
012024081502CEAB3       010CEA MODAS   ON      NM   R$  000000000089000000000009150000000000862000000000089600000000009100000000000906000000000091007355000000000003299100000000002958115500000000000000009999123100000010000000000000BRCEABACNOR1102
012024081502CEBR3       010CEB         ON           R$  000000000196900000000019900000000001926000000000197500000000019820000000001965000000000198400025000000000000003700000000000007307700000000000000009999123100000010000000000000BRCEBRACNOR5125
012024081502CEBR5       010CEB         PNA          R$  000000000169900000000016990000000001674000000000168600000000016960000000001658000000000169700008000000000000001100000000000001855600000000000000009999123100000010000000000000BRCEBRACNPA8124
012024081502CEBR6       010CEB         PNB          R$  000000000176000000000018000000000001743000000000176000000000017700000000001763000000000179000039000000000000009200000000000016193600000000000000009999123100000010000000000000BRCEBRACNPB6124
012024081502CEDO4       010CEDRO       PN      N1   R$  000000000244000000000025600000000002440000000000250700000000025600000000002441000000000256000018000000000000004300000000000010781300000000000000009999123100000010000000000000BRCEDOACNPR5128
012024081502CEEB3       010COELBA      ON           R$  000000000396300000000039630000000003963000000000396300000000039630000000003901000000000396300001000000000000000100000000000000396300000000000000009999123100000010000000000000BRCEEBACNOR3199
012024081502CGAS5       010COMGAS      PNA ED       R$  000000001108700000000115750000000011087000000001128200000000113000000000011201000000001139900031000000000000004100000000000046260000000000000000009999123100000010000000000000BRCGASACNPA3161
012024081502CGRA3       010GRAZZIOTIN  ON           R$  000000000248200000000025450000000002482000000000251600000000025450000000002500000000000254900013000000000000001900000000000004781100000000000000009999123100000010000000000000BRCGRAACNOR2083
012024081502CGRA4       010GRAZZIOTIN  PN           R$  000000000254400000000025470000000002523000000000253600000000025460000000002540000000000256000021000000000000002400000000000006087800000000000000009999123100000010000000000000BRCGRAACNPR9083
012024081502CIEL3       010CIELO       ON           R$  000000000058200000000005840000000000582000000000058200000000005830000000000582000000000058302359000000000032278300000000018794401600000000000000009999123100000010000000000000BRCIELACNOR3157
012024081502CSED3       010CRUZEIRO EDUON      NM   R$  000000000039600000000004070000000000387000000000040000000000004070000000000400000000000040700583000000000000290600000000000116386000000000000000009999123100000010000000000000BRCSEDACNOR9104
012024081502CSMG3       010COPASA      ON      NM   R$  000000000224000000000022470000000002177000000000220500000000022100000000002208000000000221011150000000000002756300000000006078647300000000000000009999123100000010000000000000BRCSMGACNOR5174
012024081502BRAP3       010BRADESPAR   ON      N1   R$  000000000173300000000017620000000001727000000000174800000000017480000000001748000000000175000886000000000000126900000000000221895600000000000000009999123100000010000000000000BRBRAPACNOR5148
012024081502BRAP4       010BRADESPAR   PN      N1   R$  000000000180800000000018430000000001802000000000182800000000018380000000001835000000000183808627000000000003432000000000006274871200000000000000009999123100000010000000000000BRBRAPACNPR2148
012024081502CRFB3       010CARREFOUR BRON      NM   R$  000000000097500000000009820000000000946000000000095800000000009540000000000953000000000095514354000000000008445900000000008093029700000000000000009999123100000010000000000000BRCRFBACNOR2116
012024081502CRPG5       010CRISTAL     PNA          R$  000000000293800000000029380000000002886000000000290300000000028860000000002886000000000292800011000000000000001100000000000003194300000000000000009999123100000010000000000000BRCRPGACNPA3119
012024081502CRPG6       010CRISTAL     PNB          R$  000000000290100000000029690000000002900000000000293400000000029650000000002851000000000296500008000000000000001500000000000004402300000000000000009999123100000010000000000000BRCRPGACNPB1119
012024081507TXRX4       010TEX RENAUX  PN           R$  000000000022800000000002380000000000228000000000023300000000002380000000000228000000000023700002000000000000000200000000000000046600000000000000009999123100000010000000000000BRTXRXACNPR0142
012024081507NUTR3       010NUTRIPLANT  ON      MA   R$  000000000052600000000005260000000000500000000000050900000000005100000000000503000000000051800048000000000000010900000000000005555200000000000000009999123100000010000000000000BRNUTRACNOR0104
012024081508LIGT3       010LIGHT S/A   ON      NM   R$  000000000048200000000005030000000000475000000000049000000000004860000000000480000000000048602332000000000000737900000000000361750400000000000000009999123100000010000000000000BRLIGTACNOR2124
012024081508SGPS3       010SPRINGS     ON      NM   R$  000000000016400000000001640000000000164000000000016400000000001640000000000164000000000016800025000000000000019800000000000003247200000000000000009999123100000010000000000000BRSGPSACNOR4105
012024081508RNEW11      010RENOVA      UNT     N2   R$  000000000027000000000002700000000000261000000000026600000000002700000000000261000000000027000022000000000000005000000000000001334500000000000000009999123100000010000000000000BRRNEWCDAM15110
012024081508RNEW3       010RENOVA      ON      N2   R$  000000000009000000000000900000000000087000000000008800000000000890000000000088000000000008900092000000000000039400000000000003482200000000000000009999123100000010000000000000BRRNEWACNOR8110
012024081508RNEW4       010RENOVA      PN      N2   R$  000000000008800000000000910000000000087000000000008800000000000870000000000087000000000008900147000000000000238300000000000021104400000000000000009999123100000010000000000000BRRNEWACNPR5110
012024081508RPMG3       010PET MANGUINHON           R$  000000000026800000000002790000000000265000000000027400000000002790000000000273000000000027700038000000000000016400000000000004500500000000000000009999123100000010000000000000BRRPMGACNOR9194
012024081508HOOT4       010HOTEIS OTHONPN           R$  000000000023000000000002300000000000215000000000022300000000002230000000000220000000000023800028000000000000011300000000000002529800000000000000009999123100000010000000000000BRHOOTACNPR9015
012024081508JFEN3       010JOAO FORTES ON           R$  000000000002500000000000280000000000023000000000002500000000000250000000000024000000000002501219000000000004964400000000000124925400000000000000009999123100000010000000000000BRJFENACNOR0059
012024081508AMER3       010AMERICANAS  ON      NM   R$  000000000001000000000000160000000000009000000000001100000000000140000000000013000000000001446710000000001481064800000000017409422900000000000000009999123100000010000000000000BRAMERACNOR6102
012024081508CTNM4       010COTEMINAS   PN           R$  000000000008600000000000860000000000086000000000008600000000000860000000000086000000000008800007000000000000005000000000000000430000000000000000009999123100000010000000000000BRCTNMACNPR6129
012024081508CTSA3       010SANTANENSE  ON           R$  000000000028900000000002890000000000279000000000028300000000002790000000000272000000000027900007000000000000000700000000000000198700000000000000009999123100000010000000000000BRCTSAACNOR3062
012024081508CTSA4       010SANTANENSE  PN           R$  000000000013500000000001400000000000133000000000013600000000001370000000000135000000000013800097000000000000066400000000000009068900000000000000009999123100000010000000000000BRCTSAACNPR0062
012024081508BDLL4       010BARDELLA    PN           R$  000000000090900000000009090000000000909000000000090900000000009090000000000910000000000096000005000000000000000700000000000000636300000000000000009999123100000010000000000000BRBDLLACNPR8151
012024081508OIBR3       010OI          ON      N1   R$  000000000046000000000005450000000000460000000000049000000000004760000000000474000000000047605569000000000004924800000000002416072000000000000000009999123100000010000000000000BROIBRACNOR1111
012024081508OIBR4       010OI          PN      N1   R$  000000000125900000000014300000000001259000000000135000000000012900000000001265000000000129000204000000000000048000000000000064804300000000000000009999123100000010000000000000BROIBRACNPR8110
012024081508OSXB3       010OSX BRASIL  ON      NM   R$  000000000037000000000003760000000000360000000000036400000000003650000000000365000000000037200029000000000000008100000000000002954900000000000000009999123100000010000000000000BROSXBACNOR8109
012024081508PMAM3       010PARANAPANEMAON      NM   R$  000000000020600000000002070000000000195000000000020000000000002050000000000201000000000020800574000000000000226800000000000045463800000000000000009999123100000010000000000000BRPMAMACNOR3039
012024081508NEXP3       010NEXPE       ON           R$  000000000040400000000004110000000000397000000000040100000000004110000000000402000000000041000024000000000000003300000000000001324700000000000000009999123100000010000000000000BRNEXPACNOR0101
012024081508ATMP3       010ATMASA      ON           R$  000000000016000000000001630000000000159000000000016000000000001590000000000159000000000016200011000000000000001900000000000000305800000000000000009999123100000010000000000000BRATMPACNOR8100
012024081508RSID3       010ROSSI RESID ON      NM   R$  000000000036500000000003650000000000354000000000036000000000003640000000000358000000000036400173000000000000023400000000000008436800000000000000009999123100000010000000000000BRRSIDACNOR8120
012024081510GFSA1       010GAFISA      DIR ORD NM   R$  000000000000300000000000040000000000002000000000000200000000000020000000000002000000000000300674000000000003455600000000000009663700000000000000009999123100000010000000000000BRGFSAD11OR7124
012024081510ZAMP1       010ZAMP S.A.   DIR ORD      R$  000000000000700000000000090000000000006000000000000700000000000070000000000007000000000000800566000000000000938400000000000007107100000000000000009999123100000010000000000000BRZAMPD01OR0100
012024081510PDGR95      010PDG REALT   DIR     NM   R$  000000000000100000000000010000000000001000000000000100000000000010000000000000000000000000100029000000000000006776000000000000006776000000000000009999123100000010000000000000BRPDGRD03M17100
012024081512RBED11      010FII RIOB ED CI           R$  000000001361500000000136250000000013600000000001361300000000136250000000013624000000001362500133000000000000000791000000000010768505000000000000009999123100000010000000000000BRRBEDCTF006166
012024081512RBFF11      010FII RIOB FF CI           R$  000000000616100000000062000000000006041000000000613700000000060760000000006076000000000610900625000000000000017081000000000104841616000000000000009999123100000010000000000000BRRBFFCTF008162
012024081512RBHG11      010FII RBCRI IVCI           R$  000000000842000000000084870000000008210000000000838300000000084200000000008395000000000842001363000000000000009409000000000078881051000000000000009999123100000010000000000000BRRBHGCTF002136
012024081512RBHY11      010FII RB YIELDCI           R$  000000000895400000000089850000000008950000000000896100000000089760000000008951000000000897600066000000000000000287000000000002571884000000000000009999123100000010000000000000BRRBHYCTF005146
012024081512RBIR11      010FII RBRES IVCI           R$  000000000839600000000084480000000008395000000000839700000000083950000000008401000000000844000210000000000000002199000000000018465239000000000000009999123100000010000000000000BRRBIRCTF007112
012024081512RBLG11      010FII RBCAP LGCI           R$  000000000658000000000065800000000006500000000000650100000000065000000000006500000000000727900010000000000000000104000000000000676158000000000000009999123100000010000000000000BRRBLGCTF004148
012024081512RBOP11      010FII MERC BR CI  ER       R$  000000003670000000000368000000000035909000000003658500000000366990000000036699000000003670000030000000000000000064000000000002341461000000000000009999123100000010000000000000BRRBOPCTF009123
012024081512RBRD11      010FII RB II   CI           R$  000000000395000000000040020000000003950000000000397600000000039770000000003951000000000397700024000000000000000507000000000002016281000000000000009999123100000010000000000000BRRBRDCTF008265
012024081512RBRF11      010FII RBRALPHACI  ER       R$  000000000075100000000007570000000000748000000000075300000000007550000000000753000000000075511757000000000000248635000000000187300435000000000000009999123100000010000000000000BRRBRFCTF003189
012024081512RBRL11      010FII RBR LOG CI  ER       R$  000000000783300000000079770000000007833000000000793100000000079190000000007915000000000796800889000000000000001943000000000015411245000000000000009999123100000010000000000000BRRBRLCTF001156
012024081512RBRP11      010FII RBR PROPCI  ER       R$  000000000567000000000056710000000005619000000000563800000000056550000000005636000000000565502691000000000000014619000000000082427169000000000000009999123100000010000000000000BRRBRPCTF002175
012024081512RBRR11      010FII RBRHGRADCI  ER       R$  000000000901700000000090750000000008981000000000903500000000090430000000009043000000000907107112000000000000027417000000000247716795000000000000009999123100000010000000000000BRRBRRCTF008182
012024081512RBRS11      010FII RIOB RR CI           R$  000000000434900000000043490000000004349000000000434900000000043490000000004270000000000435000001000000000000000002000000000000008698000000000000009999123100000010000000000000BRRBRSCTF006138
012024081512RBRX11      010FII RBR MULTCI  ER       R$  000000000090200000000009090000000000902000000000090400000000009090000000000907000000000090906007000000000000082329000000000074489267000000000000009999123100000010000000000000BRRBRXCTF006131
012024081512LFTT11      010FII LOFT II CI  EA       R$  000000000160100000000016500000000001521000000000161900000000016500000000001530000000000165000012000000000000000230000000000000372586000000000000009999123100000010000000000000BRLFTTCTF004134
012024081512LGCP11      010FII LGCP INTCI           R$  000000000855200000000085520000000008500000000000851200000000085200000000008510000000000852000241000000000000005827000000000049603934000000000000009999123100000010000000000000BRLGCPCTF006159
012024081512LIFE11      010FII LIFE    CI  ES       R$  000000000106000000000010600000000001040000000000105000000000010500000000001046000000000105000449000000000000032781000000000034435343000000000000009999123100000010000000000000BRLIFECTF017132
012024081512LIFE12      010FII LIFE    DIR          R$  000000000001500000000000580000000000015000000000002900000000000180000000000018000000000001900099000000000000007288000000000000215954000000000000009999123100000010000000000000BRLIFED04M11131
012024081512RELG11      010FII REC LOG CI  ER       R$  000000000576900000000060900000000005769000000000602500000000059110000000005911000000000608900356000000000000005467000000000032939824000000000000009999123100000010000000000000BRRELGCTF008137
012024081512SJAU11      010FII SJ AU   CI           R$  000000000594900000000059500000000005949000000000594900000000059500000000005502000000000595000002000000000000000009000000000000053549000000000000009999123100000010000000000000BRSJAUCTF009102
012024081512RBRY11      010FII RBR PCRICI  ER       R$  000000000952200000000095750000000009490000000000953500000000095040000000009506000000000951605093000000000000026334000000000251120273000000000000009999123100000010000000000000BRRBRYCTF004170
012024081512RBTS11      010FII RB TFO  CI           R$  000000007250000000000725000000000072500000000007250000000000725000000000069202000000007250000004000000000000000011000000000000797500000000000000009999123100000010000000000000BRRBTSCTF002118
012024081512RBVA11      010FII RIOB VA CI           R$  000000001050000000000106200000000010479000000001052500000000105450000000010543000000001054501924000000000000013935000000000146672880000000000000009999123100000010000000000000BRRBVACTF006167
012024081512RBVO11      010FII RIOBCRI2CI           R$  000000000167100000000018480000000001587000000000177400000000018300000000001821000000000183000479000000000000007399000000000013126590000000000000009999123100000010000000000000BRRBVOCTF007245
012024081512RCFA11      010FII GP RCFA CI           R$  000000000010100000000001010000000000096000000000009900000000001010000000000098000000000010100012000000000000000145000000000000014367000000000000009999123100000010000000000000BRRCFACTF007101
012024081512RCFF11      010FII RBR FEEDCI           R$  000000000900100000000090010000000009000000000000900000000000090000000000009001000000001070000009000000000000000132000000000001188021000000000000009999123100000010000000000000BRRCFFCTF006108
012024081512RCRB11      010FII RIOB RC CI  ER       R$  000000001332600000000135170000000013250000000001337900000000134040000000013405000000001351400938000000000000003918000000000052422749000000000000009999123100000010000000000000BRRCRBCTF000159
012024081512SCPF11      010FII SCP     CI           R$  000000000027200000000002720000000000268000000000027000000000002710000000000268000000000027100054000000000000000814000000000000220098000000000000009999123100000010000000000000BRSCPFCTF003302
012024081512SEQR11      010FII SEQUOIA CI  ER       R$  000000000519500000000051980000000005170000000000518100000000051700000000005169000000000517000128000000000000001025000000000005311276000000000000009999123100000010000000000000BRSEQRCTF002145
012024081512SHPH11      010FII HIGIENOPCI           R$  000000008880000000000888000000000088800000000008880000000000888000000000088500000000008880000010000000000000000052000000000004617600000000000000009999123100000010000000000000BRSHPHCTF008352
012024081512SNCI11      010FII SUNO CRICI           R$  000000000979000000000097970000000009700000000000974600000000097940000000009789000000000979400592000000000000007774000000000075765420000000000000009999123100000010000000000000BRSNCICTF002137
012024081512SNEL11      010FII SUNO EL CI           R$  000000000093500000000009370000000000929000000000093300000000009330000000000931000000000093302683000000000000127068000000000118650214000000000000009999123100000010000000000000BRSNELCTF010110
012024081512SNFF11      010FII SUNOFOFICI           R$  000000000889600000000090000000000008896000000000897400000000090000000000008989000000000900000604000000000000007901000000000070905192000000000000009999123100000010000000000000BRSNFFCTF001139
