00COTAHIST.2024BOVESPA 20240816                                                                                                                                                                                                                      
012024081602SAPR11      010SANEPAR     UNT     N2   R$  000000000286000000000028700000000002847000000000285300000000028520000000002852000000000285704071000000000000674600000000001924925300000000000000009999123100000010000000000000BRSAPRCDAM13118
012024081602SAPR3       010SANEPAR     ON      N2   R$  000000000053800000000005420000000000538000000000054000000000005390000000000539000000000054200263000000000000099300000000000053628500000000000000009999123100000010000000000000BRSAPRACNOR9159
012024081602SAPR4       010SANEPAR     PN      N2   R$  000000000057900000000005800000000000574000000000057600000000005740000000000574000000000057501470000000000000717500000000000413337300000000000000009999123100000010000000000000BRSAPRACNPR6159
012024081602SHOW3       010TIME FOR FUNON      NM   R$  000000000012500000000001300000000000123000000000012500000000001230000000000123000000000012400268000000000000169600000000000021226300000000000000009999123100000010000000000000BRSHOWACNOR7105
012024081602SHUL4       010SCHULZ      PN           R$  000000000066000000000006660000000000646000000000065400000000006540000000000650000000000065400701000000000000188100000000000123148000000000000000009999123100000010000000000000BRSHULACNPR4156
012024081602SIMH3       010SIMPAR      ON      NM   R$  000000000066000000000006760000000000645000000000065600000000006450000000000645000000000064806000000000000004008700000000002633182700000000000000009999123100000010000000000000BRSIMHACNOR0107
012024081602SLCE3       010SLC AGRICOLAON      NM   R$  000000000179500000000017970000000001755000000000176800000000017700000000001768000000000177008097000000000002427400000000004293010000000000000000009999123100000010000000000000BRSLCEACNOR2125
012024081602USIM3       010USIMINAS    ON      N1   R$  000000000061000000000006100000000000596000000000059900000000005980000000000598000000000059900768000000000000210400000000000126049900000000000000009999123100000010000000000000BRUSIMACNOR3167
012024081602USIM5       010USIMINAS    PNA     N1   R$  000000000061800000000006220000000000608000000000061100000000006080000000000608000000000061010773000000000010330400000000006313221800000000000000009999123100000010000000000000BRUSIMACNPA6169
012024081602RSUL4       010RIOSULENSE  PN           R$  000000000650000000000065120000000006400000000000646000000000065000000000006156000000000650000032000000000000003600000000000023256200000000000000009999123100000010000000000000BRRSULACNPR3114
012024081602BOBR4       010BOMBRIL     PN           R$  000000000022600000000002270000000000214000000000021800000000002160000000000215000000000021700069000000000000042600000000000009299800000000000000009999123100000010000000000000BRBOBRACNPR3128
012024081602BRIT3       010BRISANET    ON      NM   R$  000000000037700000000003770000000000363000000000036700000000003660000000000366000000000036801761000000000000982100000000000361293500000000000000009999123100000010000000000000BRBRITACNOR0103
012024081602BRKM3       010BRASKEM     ON      N1   R$  000000000175000000000017700000000001725000000000174700000000017700000000001740000000000176100040000000000000006600000000000011532400000000000000009999123100000010000000000000BRBRKMACNOR1119
012024081602BRKM5       010BRASKEM     PNA     N1   R$  000000000169100000000017370000000001689000000000170700000000017150000000001713000000000171507343000000000001837000000000003137115400000000000000009999123100000010000000000000BRBRKMACNPA4121
012024081602CPFE3       010CPFL ENERGIAON      NM   R$  000000000336600000000033720000000003320000000000334900000000033420000000003337000000000334206614000000000001306100000000004374960100000000000000009999123100000010000000000000BRCPFEACNOR0137
012024081602DASA3       010DASA        ON      NM   R$  000000000030200000000003280000000000298000000000031500000000003220000000000322000000000032402385000000000001344500000000000424842700000000000000009999123100000010000000000000BRDASAACNOR1122
012024081602DESK3       010DESKTOP     ON      NM   R$  000000000165600000000016670000000001597000000000163400000000016230000000001606000000000162300682000000000000184000000000000300760100000000000000009999123100000010000000000000BRDESKACNOR2104
012024081602DEXP3       010DEXXOS PAR  ON      N1   R$  000000000097600000000009760000000000960000000000096400000000009600000000000960000000000096500310000000000000067000000000000064606800000000000000009999123100000010000000000000BRDEXPACNOR1105
012024081602DEXP4       010DEXXOS PAR  PN      N1   R$  000000000093200000000009320000000000910000000000092400000000009200000000000920000000000093200058000000000000024000000000000022184900000000000000009999123100000010000000000000BRDEXPACNPR8105
012024081602DIRR3       010DIRECIONAL  ON      NM   R$  000000000289700000000029320000000002885000000000290800000000029100000000002902000000000291008284000000000001653200000000004808780900000000000000009999123100000010000000000000BRDIRRACNOR0118
012024081602ESPA3       010ESPACOLASER ON      NM   R$  000000000010100000000001020000000000100000000000010000000000001000000000000100000000000010100128000000000000283000000000000028445300000000000000009999123100000010000000000000BRESPAACNOR7103
012024081602ESTR4       010ESTRELA     PN           R$  000000000020700000000002070000000000207000000000020700000000002070000000000207000000000021300001000000000000000100000000000000020700000000000000009999123100000010000000000000BRESTRACNPR0144
012024081602ETER3       010ETERNIT     ON  EJ  NM   R$  000000000060200000000006050000000000581000000000058900000000005810000000000581000000000058301304000000000000526700000000000310324600000000000000009999123100000010000000000000BRETERACNOR3244
012024081602EUCA4       010EUCATEX     PN      N1   R$  000000000155800000000015850000000001529000000000155600000000015520000000001535000000000155200366000000000000085300000000000132786300000000000000009999123100000010000000000000BREUCAACNPR8044
012024081602GEPA4       010GER PARANAP PN           R$  000000000262500000000026260000000002601000000000262100000000026010000000002600000000000264500004000000000000000600000000000001572900000000000000009999123100000010000000000000BRGEPAACNPR9160
012024081602GFSA3       010GAFISA      ON  ES  NM   R$  000000000027200000000002730000000000256000000000026400000000002650000000000261000000000026502481000000000003612100000000000956175100000000000000009999123100000010000000000000BRGFSAACNOR3125
012024081602GGBR3       010GERDAU      ON  ED  N1   R$  000000000155100000000015600000000001540000000000154600000000015510000000001545000000000155100286000000000000037300000000000057671700000000000000009999123100000010000000000000BRGGBRACNOR1193
012024081602GGBR4       010GERDAU      PN  ED  N1   R$  000000000174800000000017480000000001718000000000172400000000017220000000001722000000000172415729000000000008671200000000014951955900000000000000009999123100000010000000000000BRGGBRACNPR8193
012024081602RAIZ4       010RAIZEN      PN      N2   R$  000000000032900000000003320000000000325000000000032700000000003300000000000329000000000033013074000000000014992500000000004911524000000000000000009999123100000010000000000000BRRAIZACNPR6111
012024081602FESA4       010FERBASA     PN      N1   R$  000000000083600000000008360000000000818000000000082600000000008250000000000823000000000082501668000000000000405000000000000334748200000000000000009999123100000010000000000000BRFESAACNPR5084
012024081602FHER3       010FER HERINGERON      NM   R$  000000000042100000000004320000000000421000000000042300000000004220000000000417000000000042200010000000000000005500000000000002331500000000000000009999123100000010000000000000BRFHERACNOR5103
012024081602FIQE3       010UNIFIQUE    ON      NM   R$  000000000039500000000003970000000000391000000000039300000000003950000000000394000000000039700504000000000000264000000000000104004700000000000000009999123100000010000000000000BRFIQEACNOR5107
012024081602FLRY3       010FLEURY      ON  EJ  NM   R$  000000000156300000000015790000000001560000000000157100000000015730000000001571000000000157509390000000000002520400000000003960428900000000000000009999123100000010000000000000BRFLRYACNOR5139
012024081602FRAS3       010FRAS-LE     ON      N1   R$  000000000185800000000018610000000001813000000000182800000000018320000000001825000000000183300969000000000000264900000000000484402800000000000000009999123100000010000000000000BRFRASACNOR0160
012024081602FRIO3       010METALFRIO   ON      NM   R$  000000001887900000000188790000000018879000000001893400000000188790000000017000000000001910000004000000000000000400000000000007573700000000000000009999123100000010000000000000BRFRIOACNOR2111
012024081602INEP3       010INEPAR      ON           R$  000000000019300000000002170000000000190000000000020400000000002130000000000209000000000021300375000000000000145300000000000029651500000000000000009999123100000010000000000000BRINEPACNOR1143
012024081602INEP4       010INEPAR      PN           R$  000000000019400000000002200000000000194000000000020800000000002180000000000218000000000022000183000000000000198500000000000041466500000000000000009999123100000010000000000000BRINEPACNPR8143
012024081602INTB3       010INTELBRAS   ON      NM   R$  000000000226300000000022700000000002189000000000221800000000021890000000002188000000000219303889000000000000722500000000001602824300000000000000009999123100000010000000000000BRINTBACNOR9112
012024081602IRBR3       010IRBBRASIL REON      NM   R$  000000000431100000000047000000000004311000000000451100000000044860000000004485000000000448628319000000000007562600000000034119031500000000000000009999123100000010000000000000BRIRBRACNOR4111
012024081602JALL3       010JALLESMACHADON      NM   R$  000000000068700000000006950000000000671000000000067900000000006740000000000671000000000067402063000000000000466900000000000317273300000000000000009999123100000010000000000000BRJALLACNOR0106
012024081602JBSS3       010JBS         ON      NM   R$  000000000380600000000038470000000003645000000000370800000000036450000000003645000000000364829851000000000010443700000000038734397500000000000000009999123100000010000000000000BRJBSSACNOR8121
012024081602MAPT3       010CEMEPE      ON           R$  000000000042100000000004210000000000421000000000042100000000004210000000000421000000000060000001000000000000000200000000000000084200000000000000009999123100000010000000000000BRMAPTACNOR8106
012024081602MAPT4       010CEMEPE      PN           R$  000000000051000000000005100000000000500000000000050200000000005000000000000490000000000059000003000000000000000500000000000000251000000000000000009999123100000010000000000000BRMAPTACNPR5106
012024081602MATD3       010MATER DEI   ON      NM   R$  000000000045100000000004540000000000435000000000044300000000004410000000000441000000000044201124000000000000355400000000000157563600000000000000009999123100000010000000000000BRMATDACNOR4104
012024081602MBLY3       010MOBLY       ON      NM   R$  000000000027300000000002860000000000263000000000027600000000002800000000000277000000000028001106000000000000501900000000000138878400000000000000009999123100000010000000000000BRMBLYACNOR5100
012024081602MDIA3       010M.DIASBRANCOON      NM   R$  000000000289000000000029130000000002799000000000283300000000028260000000002813000000000282603949000000000000914200000000002590318600000000000000009999123100000010000000000000BRMDIAACNOR7135
012024081602MDNE3       010MOURA DUBEUXON      NM   R$  000000000150600000000015060000000001465000000000147500000000014690000000001465000000000146901109000000000000264800000000000390829700000000000000009999123100000010000000000000BRMDNEACNOR9100
012024081602MEAL3       010IMC S/A     ON      NM   R$  000000000015600000000001640000000000155000000000015900000000001590000000000159000000000016000660000000000001352900000000000215395100000000000000009999123100000010000000000000BRMEALACNOR9105
012024081602MELK3       010MELNICK     ON      NM   R$  000000000034600000000003480000000000339000000000034000000000003400000000000340000000000034100377000000000000747900000000000254862600000000000000009999123100000010000000000000BRMELKACNOR8111
012024081602MGEL4       010MANGELS INDLPN           R$  000000000120000000000012000000000001151000000000116100000000011610000000001165000000000119700007000000000000000800000000000000929400000000000000009999123100000010000000000000BRMGELACNPR3147
012024081602MGLU3       010MAGAZ LUIZA ON      NM   R$  000000000133100000000013360000000001258000000000128400000000012580000000001257000000000126020994000000000018780800000000024120161400000000000000009999123100000010000000000000BRMGLUACNOR2124
012024081602MYPK3       010IOCHP-MAXIONON      NM   R$  000000000116900000000011730000000001147000000000116000000000011690000000001165000000000117003952000000000000830300000000000963212500000000000000009999123100000010000000000000BRMYPKACNOR7155
012024081602ROMI3       010ROMI        ON      NM   R$  000000000109200000000011030000000001085000000000109200000000010850000000001085000000000109200651000000000000108700000000000118741100000000000000009999123100000010000000000000BRROMIACNOR8195
012024081602RPAD3       010ALFA HOLDINGON           R$  000000000094000000000009400000000000940000000000094000000000009400000000000890000000000095500006000000000000005500000000000005170000000000000000009999123100000010000000000000BRRPADACNOR1198
012024081602ENEV3       010ENEVA       ON      NM   R$  000000000135200000000013710000000001345000000000135300000000013500000000001349000000000135027287000000000007492300000000010142257500000000000000009999123100000010000000000000BRENEVACNOR8106
012024081602ENGI11      010ENERGISA    UNT ED  N2   R$  000000000498600000000049860000000004862000000000489100000000048800000000004880000000000490715729000000000003137700000000015346607700000000000000009999123100000010000000000000BRENGICDAM16136
012024081602ENGI3       010ENERGISA    ON  ED  N2   R$  000000000150000000000015010000000001485000000000149700000000015000000000001499000000000150000033000000000000003400000000000005092500000000000000009999123100000010000000000000BRENGIACNOR0146
012024081602ENGI4       010ENERGISA    PN  ED  N2   R$  000000000085500000000008630000000000842000000000084800000000008450000000000842000000000084400039000000000000009400000000000007974900000000000000009999123100000010000000000000BRENGIACNPR7142
012024081602GUAR3       010GUARARAPES  ON      NM   R$  000000000089300000000009140000000000853000000000088200000000008530000000000853000000000085403903000000000001648900000000001455140900000000000000009999123100000010000000000000BRGUARACNOR4173
012024081602HAGA3       010HAGA S/A    ON           R$  000000000024000000000002400000000000240000000000024000000000002400000000000240000000000024400002000000000000000300000000000000072000000000000000009999123100000010000000000000BRHAGAACNOR7103
012024081602HAGA4       010HAGA S/A    PN           R$  000000000011500000000001160000000000115000000000011500000000001150000000000115000000000011600012000000000000009900000000000001138600000000000000009999123100000010000000000000BRHAGAACNPR4103
012024081602HAPV3       010HAPVIDA     ON      NM   R$  000000000044500000000004500000000000423000000000043500000000004270000000000427000000000042842639000000000075754200000000032973975600000000000000009999123100000010000000000000BRHAPVACNOR4114
012024081602ITSA3       010ITAUSA      ON      N1   R$  000000000109500000000011150000000001091000000000110200000000010940000000001092000000000109400607000000000000292700000000000322632300000000000000009999123100000010000000000000BRITSAACNOR0441
012024081602ITSA4       010ITAUSA      PN      N1   R$  000000000110800000000011140000000001087000000000109900000000010940000000001092000000000109435948000000000031428100000000034560020300000000000000009999123100000010000000000000BRITSAACNPR7441
012024081602JSLG3       010JSL         ON      NM   R$  000000000092000000000009300000000000911000000000091900000000009200000000000915000000000092001259000000000000433900000000000398915700000000000000009999123100000010000000000000BRJSLGACNOR2121
012024081602KEPL3       010KEPLER WEBERON  EJ  NM   R$  000000000113400000000011360000000001111000000000112000000000011190000000001113000000000111902654000000000000824100000000000923529800000000000000009999123100000010000000000000BRKEPLACNOR1064
012024081602KLBN11      010KLABIN S/A  UNT     N2   R$  000000000210500000000021080000000002082000000000209400000000021000000000002093000000000210014216000000000004344600000000009099118800000000000000009999123100000010000000000000BRKLBNCDAM18143
012024081602KLBN3       010KLABIN S/A  ON      N2   R$  000000000042500000000004250000000000418000000000042000000000004210000000000421000000000042400779000000000000315000000000000132578200000000000000009999123100000010000000000000BRKLBNACNOR2171
012024081602KLBN4       010KLABIN S/A  PN      N2   R$  000000000041800000000004210000000000416000000000041800000000004190000000000418000000000041902181000000000001686300000000000705898200000000000000009999123100000010000000000000BRKLBNACNPR9171
012024081602ODPV3       010ODONTOPREV  ON      NM   R$  000000000120000000000012070000000001174000000000119100000000011820000000001178000000000118605588000000000001261000000000001501877800000000000000009999123100000010000000000000BRODPVACNOR4202
012024081602OFSA3       010OUROFINO S/AON      NM   R$  000000000221400000000022150000000002200000000000220200000000022000000000002101000000000221500011000000000000001700000000000003744600000000000000009999123100000010000000000000BROFSAACNOR7118
012024081602ONCO3       010ONCOCLINICASON      NM   R$  000000000063600000000006630000000000636000000000065000000000006450000000000645000000000064807923000000000003489600000000002271292900000000000000009999123100000010000000000000BRONCOACNOR6101
012024081602OPCT3       010OCEANPACT   ON      NM   R$  000000000066600000000006700000000000654000000000066100000000006640000000000660000000000066401808000000000000313400000000000207433800000000000000009999123100000010000000000000BROPCTACNOR0100
012024081602ORVR3       010ORIZON      ON      NM   R$  000000000460800000000046780000000004515000000000455200000000045420000000004526000000000454201609000000000000249700000000001136685000000000000000009999123100000010000000000000BRORVRACNOR0101
012024081602PATI3       010PANATLANTICAON           R$  000000000279900000000028450000000002750000000000279600000000027500000000002750000000000290000008000000000000001900000000000005313400000000000000009999123100000010000000000000BRPATIACNOR6065
012024081602PATI4       010PANATLANTICAPN           R$  000000000330000000000033000000000003300000000000330000000000033000000000003300000000000380000001000000000000000100000000000000330000000000000000009999123100000010000000000000BRPATIACNPR3065
012024081602PCAR3       010P.ACUCAR-CBDON      NM   R$  000000000031600000000003330000000000315000000000032300000000003220000000000322000000000032317263000000000018035000000000005837511300000000000000009999123100000010000000000000BRPCARACNOR3167
012024081602PORT3       010WILSON SONS ON      NM   R$  000000000170200000000017050000000001657000000000166900000000016700000000001661000000000167001337000000000000294300000000000491294600000000000000009999123100000010000000000000BRPORTACNOR8109
012024081602POSI3       010POSITIVO TECON      NM   R$  000000000070500000000007280000000000669000000000068700000000006840000000000684000000000068606425000000000003403600000000002340261700000000000000009999123100000010000000000000BRPOSIACNOR9116
012024081602EVEN3       010EVEN        ON      NM   R$  000000000065700000000006600000000000634000000000064100000000006390000000000637000000000063903420000000000000562000000000000360357400000000000000009999123100000010000000000000BREVENACNOR8119
012024081602EZTC3       010EZTEC       ON  ED  NM   R$  000000000143300000000014450000000001392000000000140900000000013980000000001397000000000140014559000000000002776500000000003913602900000000000000009999123100000010000000000000BREZTCACNOR0126
012024081602TRPL3       010TRAN PAULISTON      N1   R$  000000000321000000000032100000000003172000000000319300000000032020000000003183000000000320200020000000000000003200000000000010219400000000000000009999123100000010000000000000BRTRPLACNOR4185
012024081602TRPL4       010TRAN PAULISTPN      N1   R$  000000000246200000000024680000000002447000000000245900000000024670000000002460000000000246708956000000000002185500000000005375484800000000000000009999123100000010000000000000BRTRPLACNPR1185
012024081602TTEN3       0103TENTOS     ON      NM   R$  000000000120800000000012480000000001208000000000123500000000012360000000001236000000000124208235000000000001454100000000001795837100000000000000009999123100000010000000000000BRTTENACNOR0103
012024081602TUPY3       010TUPY        ON      NM   R$  000000000273200000000027610000000002693000000000271600000000026980000000002698000000000270002967000000000000405100000000001100275300000000000000009999123100000010000000000000BRTUPYACNOR1184
012024081602UCAS3       010UNICASA     ON      NM   R$  000000000022900000000002290000000000226000000000022700000000002290000000000226000000000022900046000000000000010000000000000002273500000000000000009999123100000010000000000000BRUCASACNOR1113
012024081602UGPA3       010ULTRAPAR    ON  ED  NM   R$  000000000238900000000024110000000002367000000000239100000000024000000000002399000000000240931816000000000009037600000000021609213100000000000000009999123100000010000000000000BRUGPAACNOR8156
012024081602WEST3       010WESTWING    ON      NM   R$  000000000009000000000000900000000000089000000000008900000000000900000000000089000000000009000032000000000000011400000000000001021300000000000000009999123100000010000000000000BRWESTACNOR3100
012024081602WHRL3       010WHIRLPOOL   ON           R$  000000000041900000000004350000000000419000000000042200000000004190000000000419000000000043300008000000000000001700000000000000718700000000000000009999123100000010000000000000BRWHRLACNOR5128
012024081602WHRL4       010WHIRLPOOL   PN           R$  000000000044500000000004480000000000441000000000044200000000004460000000000444000000000044700026000000000000006100000000000002702100000000000000009999123100000010000000000000BRWHRLACNPR2128
012024081602WIZC3       010WIZ CO      ON      NM   R$  000000000060500000000006130000000000602000000000060800000000006060000000000606000000000060801573000000000000402600000000000244874800000000000000009999123100000010000000000000BRWIZCACNOR5102
012024081602BIOM3       010BIOMM       ON      MA   R$  000000000088000000000008970000000000828000000000085900000000008280000000000827000000000083100256000000000000046300000000000039784500000000000000009999123100000010000000000000BRBIOMACNOR2112
012024081602BLAU3       010BLAU        ON      NM   R$  000000000119300000000012160000000001160000000000118100000000011680000000001168000000000117501241000000000000450500000000000532439200000000000000009999123100000010000000000000BRBLAUACNOR8114
012024081602BMEB3       010MERCANTIL   ON      N1   R$  000000000349700000000034970000000003400000000000343300000000034000000000003400000000000345000006000000000000000600000000000002059900000000000000009999123100000010000000000000BRBMEBACNOR8206
012024081602BMEB4       010MERCANTIL   PN      N1   R$  000000000364800000000036710000000003602000000000365500000000036640000000003650000000000366400087000000000000029200000000000106735000000000000000009999123100000010000000000000BRBMEBACNPR5211
012024081602BMGB4       010BANCO BMG   PN      N1   R$  000000000037000000000003730000000000365000000000036900000000003680000000000368000000000036900969000000000000419200000000000154770000000000000000009999123100000010000000000000BRBMGBACNPR0110
012024081602BMKS3       010BIC MONARK  ON           R$  000000003130000000000314000000000031300000000003130300000000313000000000031200000000003130000006000000000000000031000000000000970400000000000000009999123100000010000000000000BRBMKSACNOR9166
012024081602BMOB3       010BEMOBI TECH ON      NM   R$  000000000160400000000016160000000001569000000000158600000000015750000000001575000000000158701149000000000000207600000000000329343200000000000000009999123100000010000000000000BRBMOBACNOR7103
012024081602CYRE3       010CYRELA REALTON      NM   R$  000000000221400000000022510000000002125000000000215500000000021380000000002138000000000213920856000000000008568600000000018468955300000000000000009999123100000010000000000000BRCYREACNOR7140
012024081602ENJU3       010ENJOEI      ON      NM   R$  000000000017900000000001830000000000172000000000017800000000001720000000000172000000000017301193000000000001377500000000000245983000000000000000009999123100000010000000000000BRENJUACNOR9100
012024081602ENMT4       010ENERGISA MT PN           R$  000000000760000000000076000000000007550000000000757500000000075500000000005000000000000810000002000000000000000200000000000001515000000000000000009999123100000010000000000000BRENMTACNPR2126
012024081602EPAR3       010EMBPAR S/A  ON           R$  000000000058200000000005920000000000582000000000058700000000005900000000000584000000000059000012000000000000001900000000000001116800000000000000009999123100000010000000000000BREPARACNOR9105
012024081602EQPA3       010EQTL PARA   ON           R$  000000000069900000000007000000000000691000000000069400000000006980000000000692000000000069900026000000000000016800000000000011672700000000000000009999123100000010000000000000BREQPAACNOR1111
012024081602EQTL3       010EQUATORIAL  ON      NM   R$  000000000349000000000035400000000003464000000000348900000000034860000000003477000000000348835350000000000011293500000000039403094400000000000000009999123100000010000000000000BREQTLACNOR0130
012024081602BHIA3       010CASAS BAHIA ON      NM   R$  000000000053600000000005380000000000506000000000051800000000005060000000000506000000000050903886000000000004537800000000002352493800000000000000009999123100000010000000000000BRBHIAACNOR1102
012024081602BRBI11      010BR PARTNERS UNT ED  N2   R$  000000000151100000000015460000000001505000000000152000000000015060000000001506000000000151701025000000000000173000000000000263102700000000000000009999123100000010000000000000BRBRBICDAM10110
012024081602BRFS3       010BRF SA      ON      NM   R$  000000000239600000000024470000000002396000000000243000000000024300000000002429000000000243223994000000000008943200000000021734138100000000000000009999123100000010000000000000BRBRFSACNOR8122
012024081602COCE5       010COELCE      PNA          R$  000000000313900000000031690000000003102000000000313400000000031390000000003102000000000314000023000000000000004700000000000014733800000000000000009999123100000010000000000000BRCOCEACNPA3147
012024081602COGN3       010COGNA ON    ON      NM   R$  000000000014100000000001420000000000132000000000013500000000001330000000000132000000000013333169000000000065374900000000008853204600000000000000009999123100000010000000000000BRCOGNACNOR2104
012024081602BGIP3       010BANESE      ON           R$  000000000279900000000027990000000002799000000000279900000000027990000000002600000000000289900001000000000000000100000000000000279900000000000000009999123100000010000000000000BRBGIPACNOR1208
012024081602BGIP4       010BANESE      PN           R$  000000000265800000000028500000000002655000000000277300000000027350000000002709000000000279800040000000000000016500000000000045759700000000000000009999123100000010000000000000BRBGIPACNPR8208
012024081602CXSE3       010CAIXA SEGURION      NM   R$  000000000142600000000014330000000001419000000000142500000000014250000000001425000000000142806004000000000001959100000000002793342200000000000000009999123100000010000000000000BRCXSEACNOR7107
012024081602BRAP3       010BRADESPAR   ON      N1   R$  000000000175100000000017530000000001738000000000174300000000017530000000001742000000000175400485000000000000068000000000000118572800000000000000009999123100000010000000000000BRBRAPACNOR5148
012024081602BRAP4       010BRADESPAR   PN      N1   R$  000000000183400000000018340000000001815000000000182400000000018270000000001826000000000182707975000000000002980300000000005437202200000000000000009999123100000010000000000000BRBRAPACNPR2148
012024081602CMIN3       010CSNMINERACAOON      N2   R$  000000000051200000000005130000000000502000000000050500000000005020000000000502000000000050309609000000000009047900000000004576391600000000000000009999123100000010000000000000BRCMINACNOR2111
012024081602CSRN3       010COSERN      ON           R$  000000000158500000000016140000000001584000000000158700000000016140000000001586000000000160000014000000000000005300000000000008412700000000000000009999123100000010000000000000BRCSRNACNOR0194
012024081602TAEE11      010TAESA       UNT EDJ N2   R$  000000000348700000000034980000000003456000000000346900000000034730000000003470000000000347308687000000000001822900000000006323647900000000000000009999123100000010000000000000BRTAEECDAM10148
012024081602TAEE3       010TAESA       ON  EDJ N2   R$  000000000116000000000011610000000001146000000000115100000000011500000000001150000000000115100640000000000000117100000000000134861000000000000000009999123100000010000000000000BRTAEEACNOR9148
012024081602TAEE4       010TAESA       PN  EDJ N2   R$  000000000117000000000011760000000001150000000000115800000000011550000000001154000000000115501082000000000000312400000000000361962000000000000000009999123100000010000000000000BRTAEEACNPR6148
012024081602VLID3       010VALID       ON  EJ  NM   R$  000000000206800000000021280000000002060000000000210300000000021230000000002112000000000212301956000000000000374200000000000786998900000000000000009999123100000010000000000000BRVLIDACNOR5144
012024081602CSRN5       010COSERN      PNA          R$  000000000171100000000017110000000001711000000000171100000000017110000000001621000000000200000001000000000000000600000000000001026600000000000000009999123100000010000000000000BRCSRNACNPA3194
012024081602CSRN6       010COSERN      PNB          R$  000000000170000000000017000000000001700000000000170000000000017000000000001670000000000169300002000000000000000300000000000000510000000000000000009999123100000010000000000000BRCSRNACNPB1195
012024081602CSUD3       010CSU DIGITAL ON      NM   R$  000000000189500000000019050000000001850000000000185900000000018520000000001851000000000187100308000000000000061800000000000114913600000000000000009999123100000010000000000000BRCSUDACNOR5110
012024081602CTKA4       010KARSTEN     PN           R$  000000000187700000000018770000000001877000000000187700000000018770000000001776000000000187500001000000000000000100000000000000187700000000000000009999123100000010000000000000BRCTKAACNPR7043
012024081602CURY3       010CURY S/A    ON      NM   R$  000000000240900000000024090000000002331000000000234300000000023310000000002331000000000233803386000000000000792600000000001857133100000000000000009999123100000010000000000000BRCURYACNOR3109
012024081602CVCB3       010CVC BRASIL  ON      NM   R$  000000000019600000000001990000000000191000000000019400000000001910000000000191000000000019209878000000000009653800000000001873225500000000000000009999123100000010000000000000BRCVCBACNOR1116
012024081602ELMD3       010ELETROMIDIA ON      NM   R$  000000000190000000000019250000000001871000000000190500000000019090000000001902000000000190900452000000000000074100000000000141189700000000000000009999123100000010000000000000BRELMDACNOR3101
012024081602EMAE4       010EMAE        PN           R$  000000000408800000000041360000000004088000000000412600000000041360000000004004000000000415700004000000000000000500000000000002063200000000000000009999123100000010000000000000BREMAEACNPR1125
012024081602EMBR3       010EMBRAER     ON      NM   R$  000000000448700000000044990000000004403000000000444400000000044440000000004441000000000444423527000000000006066000000000026958911000000000000000009999123100000010000000000000BREMBRACNOR4191
012024081602PRIO3       010PETRORIO    ON      NM   R$  000000000482500000000049710000000004775000000000489000000000049200000000004920000000000492534412000000000012670700000000061969894000000000000000009999123100000010000000000000BRPRIOACNOR1107
012024081602RECV3       010PETRORECSA  ON      NM   R$  000000000218100000000022060000000002139000000000216100000000021630000000002153000000000216307450000000000001532900000000003312688300000000000000009999123100000010000000000000BRRECVACNOR3107
012024081602GGPS3       010GPS         ON      NM   R$  000000000179700000000017970000000001741000000000175900000000017560000000001751000000000175605833000000000002241200000000003942800600000000000000009999123100000010000000000000BRGGPSACNOR9103
012024081602GMAT3       010GRUPO MATEUSON      NM   R$  000000000080800000000008090000000000785000000000079200000000007900000000000786000000000079005873000000000002953100000000002340935100000000000000009999123100000010000000000000BRGMATACNOR7102
012024081602GOAU3       010GERDAU MET  ON  ED  N1   R$  000000000103600000000010360000000001023000000000102500000000010330000000001029000000000103300194000000000000047000000000000048213800000000000000009999123100000010000000000000BRGOAUACNOR1268
012024081602GOAU4       010GERDAU MET  PN  ED  N1   R$  000000000101700000000010170000000001001000000000100400000000010060000000001005000000000100609844000000000006553500000000006583951900000000000000009999123100000010000000000000BRGOAUACNPR8269
012024081602HBOR3       010HELBOR      ON      NM   R$  000000000021800000000002180000000000210000000000021400000000002100000000000210000000000021100514000000000000685000000000000146752900000000000000009999123100000010000000000000BRHBORACNOR3118
012024081602HBRE3       010HBR REALTY  ON      NM   R$  000000000051900000000005280000000000513000000000051800000000005160000000000516000000000051800536000000000000226100000000000117167300000000000000009999123100000010000000000000BRHBREACNOR4100
012024081602HBSA3       010HIDROVIAS   ON      NM   R$  000000000036700000000003690000000000357000000000036000000000003590000000000357000000000036003976000000000001374600000000000496175100000000000000009999123100000010000000000000BRHBSAACNOR0100
012024081602JHSF3       010JHSF PART   ON      NM   R$  000000000043400000000004400000000000427000000000043200000000004270000000000427000000000042903276000000000002862400000000001238526800000000000000009999123100000010000000000000BRJHSFACNOR2138
012024081602PFRM3       010PROFARMA    ON      NM   R$  000000000059000000000005950000000000574000000000058200000000005850000000000573000000000058500593000000000000201100000000000117157900000000000000009999123100000010000000000000BRPFRMACNOR1116
012024081602PGMN3       010PAGUE MENOS ON      NM   R$  000000000030100000000003050000000000296000000000030000000000003010000000000301000000000030201312000000000000646400000000000193950900000000000000009999123100000010000000000000BRPGMNACNOR8103
012024081602ATOM3       010ATOMPAR     ON           R$  000000000019900000000002080000000000198000000000020300000000002080000000000200000000000020700045000000000000043400000000000008851800000000000000009999123100000010000000000000BRATOMACNOR1106
012024081602AURE3       010AUREN       ON      NM   R$  000000000116200000000011690000000001153000000000115700000000011530000000001153000000000115710439000000000004025600000000004659144400000000000000009999123100000010000000000000BRAUREACNOR9104
012024081602ALPK3       010ESTAPAR     ON      NM   R$  000000000039200000000003920000000000386000000000038900000000003910000000000386000000000039100303000000000000077400000000000030177100000000000000009999123100000010000000000000BRALPKACNOR9101
012024081602ALUP11      010ALUPAR      UNT     N2   R$  000000000319400000000032120000000003145000000000317000000000031780000000003164000000000317809013000000000001623500000000005147336300000000000000009999123100000010000000000000BRALUPCDAM15119
012024081602ALUP3       010ALUPAR      ON      N2   R$  000000000110700000000011070000000001069000000000107900000000010800000000001080000000000108500056000000000000006400000000000006908600000000000000009999123100000010000000000000BRALUPACNOR8119
012024081602ALUP4       010ALUPAR      PN      N2   R$  000000000106300000000010630000000001032000000000104200000000010370000000001036000000000104400059000000000000012400000000000012923500000000000000009999123100000010000000000000BRALUPACNPR5119
012024081602AMAR3       010LOJAS MARISAON      NM   R$  000000000013000000000001300000000000125000000000012600000000001260000000000126000000000012700509000000000000501800000000000063652500000000000000009999123100000010000000000000BRAMARACNOR4115
012024081602AMBP3       010AMBIPAR     ON      NM   R$  000000000985000000000098500000000007797000000000879900000000077970000000007788000000000780002326000000000000616100000000005421664500000000000000009999123100000010000000000000BRAMBPACNOR6103
012024081602AVLL3       010ALPHAVILLE  ON      NM   R$  000000000042300000000004250000000000416000000000041700000000004160000000000414000000000042500011000000000000022200000000000009263100000000000000009999123100000010000000000000BRAVLLACNOR5103
012024081602AZEV3       010AZEVEDO     ON           R$  000000000014000000000001510000000000136000000000014200000000001450000000000144000000000014500799000000000000948500000000000134936300000000000000009999123100000010000000000000BRAZEVACNOR0121
012024081602AZEV4       010AZEVEDO     PN           R$  000000000013900000000001500000000000135000000000014200000000001460000000000145000000000014601380000000000004436400000000000633913400000000000000009999123100000010000000000000BRAZEVACNPR7121
012024081602AZUL4       010AZUL        PN      N2   R$  000000000078400000000007900000000000741000000000075500000000007410000000000741000000000074212263000000000020346700000000015368253600000000000000009999123100000010000000000000BRAZULACNPR4102
012024081602BEEF3       010MINERVA     ON      NM   R$  000000000075500000000007610000000000744000000000075000000000007450000000000744000000000074507900000000000004773100000000003581590800000000000000009999123100000010000000000000BRBEEFACNOR6116
012024081602BPAN4       010BANCO PAN   PN      N1   R$  000000000099900000000010680000000000992000000000103900000000010350000000001034000000000103513001000000000005551200000000005773034200000000000000009999123100000010000000000000BRBPANACNPR1115
012024081602CLSA3       010CLEARSALE   ON      NM   R$  000000000078100000000007990000000000759000000000078200000000007790000000000777000000000077903971000000000001577700000000001235291400000000000000009999123100000010000000000000BRCLSAACNOR0100
012024081602CLSC3       010CELESC      ON      N2   R$  000000000725000000000072500000000007250000000000725000000000072500000000006940000000000730000001000000000000000100000000000000725000000000000000009999123100000010000000000000BRCLSCACNOR6152
012024081602CLSC4       010CELESC      PN      N2   R$  000000000775100000000078500000000007751000000000780400000000078430000000007760000000000784300013000000000000001400000000000010926100000000000000009999123100000010000000000000BRCLSCACNPR3131
012024081602CMIG3       010CEMIG       ON      N1   R$  000000000137400000000013950000000001370000000000138000000000013750000000001375000000000138100815000000000000178000000000000245740300000000000000009999123100000010000000000000BRCMIGACNOR6242
012024081602CMIG4       010CEMIG       PN      N1   R$  000000000116000000000011730000000001154000000000116200000000011620000000001161000000000116326711000000000017185000000000019982400100000000000000009999123100000010000000000000BRCMIGACNPR3243
012024081602CSNA3       010SID NACIONALON           R$  000000000115300000000011550000000001131000000000113600000000011310000000001131000000000113312598000000000005930600000000006742063100000000000000009999123100000010000000000000BRCSNAACNOR6261
012024081602ANIM3       010ANIMA       ON  ED  NM   R$  000000000035900000000003630000000000345000000000035200000000003500000000000349000000000035008496000000000006264000000000002207092500000000000000009999123100000010000000000000BRANIMACNOR6109
012024081602ARML3       010ARMAC       ON      NM   R$  000000000090900000000009140000000000870000000000088500000000008710000000000870000000000088305444000000000001086100000000000961558400000000000000009999123100000010000000000000BRARMLACNOR1112
012024081602ASAI3       010ASSAI       ON      NM   R$  000000000105200000000010570000000001016000000000103100000000010250000000001024000000000102515656000000000014064000000000014510214100000000000000009999123100000010000000000000BRASAIACNOR0106
012024081602BBSE3       010BBSEGURIDADEON      NM   R$  000000000374500000000037590000000003725000000000373500000000037290000000003729000000000373224975000000000016450200000000061451630700000000000000009999123100000010000000000000BRBBSEACNOR5124
012024081602BPAC11      010BTGP BANCO  UNT     N2   R$  000000000363600000000036960000000003593000000000364400000000036070000000003607000000000360839518000000000012873000000000046914378500000000000000009999123100000010000000000000BRBPACUNT006119
012024081602BPAC3       010BTGP BANCO  ON      N2   R$  000000000169900000000017040000000001675000000000169200000000016910000000001643000000000168900053000000000000008400000000000014214000000000000000009999123100000010000000000000BRBPACACNOR7134
012024081602BPAC5       010BTGP BANCO  PNA     N2   R$  000000000095800000000009890000000000944000000000097800000000009440000000000943000000000095500034000000000000006900000000000006749800000000000000009999123100000010000000000000BRBPACACNPA0134
012024081602CEAB3       010CEA MODAS   ON      NM   R$  000000000091500000000009380000000000906000000000092200000000009280000000000925000000000092806876000000000003088500000000002849078600000000000000009999123100000010000000000000BRCEABACNOR1102
012024081602CEBR3       010CEB         ON           R$  000000000198400000000019990000000001980000000000198900000000019800000000001980000000000199400013000000000000001600000000000003182500000000000000009999123100000010000000000000BRCEBRACNOR5125
012024081602CEBR5       010CEB         PNA          R$  000000000166100000000017000000000001661000000000167700000000017000000000001658000000000170000012000000000000003900000000000006543300000000000000009999123100000010000000000000BRCEBRACNPA8124
012024081602CEBR6       010CEB         PNB          R$  000000000177100000000017990000000001770000000000177500000000017700000000001767000000000179100030000000000000007900000000000014028600000000000000009999123100000010000000000000BRCEBRACNPB6124
012024081602CEDO3       010CEDRO       ON      N1   R$  000000000261100000000026110000000002611000000000261100000000026110000000002611000000000280000001000000000000000100000000000000261100000000000000009999123100000010000000000000BRCEDOACNOR8096
012024081602CEDO4       010CEDRO       PN      N1   R$  000000000242500000000025000000000002425000000000245000000000025000000000002435000000000250700004000000000000000500000000000001225200000000000000009999123100000010000000000000BRCEDOACNPR5128
012024081602CEEB3       010COELBA      ON           R$  000000000388600000000039200000000003885000000000390200000000039200000000003880000000000396900003000000000000000400000000000001561100000000000000009999123100000010000000000000BRCEEBACNOR3199
012024081602CGAS3       010COMGAS      ON  ED       R$  000000001090600000000109060000000010900000000001090100000000109000000000010799000000001207600004000000000000000600000000000006541100000000000000009999123100000010000000000000BRCGASACNOR0164
012024081602TOTS3       010TOTVS       ON  EJ  NM   R$  000000000293000000000030000000000002910000000000296300000000029520000000002951000000000295913122000000000002543000000000007537020600000000000000009999123100000010000000000000BRTOTSACNOR8145
012024081602TPIS3       010TRIUNFO PARTON      NM   R$  000000000042400000000004430000000000417000000000042100000000004230000000000418000000000042300152000000000000067900000000000028618400000000000000009999123100000010000000000000BRTPISACNOR8118
012024081602TRAD3       010TC          ON      NM   R$  000000000037800000000004540000000000378000000000042300000000004500000000000450000000000045101229000000000000441000000000000186648600000000000000009999123100000010000000000000BRTRADACNOR3102
012024081602TRIS3       010TRISUL      ON      NM   R$  000000000047900000000004810000000000465000000000047100000000004690000000000468000000000047001373000000000000466700000000000219923100000000000000009999123100000010000000000000BRTRISACNOR4118
012024081602CGAS5       010COMGAS      PNA ED       R$  000000001130000000000113020000000011286000000001129700000000112860000000011202000000001149900011000000000000001600000000000018075200000000000000009999123100000010000000000000BRCGASACNPA3161
012024081602CGRA3       010GRAZZIOTIN  ON           R$  000000000250500000000025530000000002501000000000252300000000025530000000002501000000000258000021000000000000002400000000000006057200000000000000009999123100000010000000000000BRCGRAACNOR2083
012024081602CGRA4       010GRAZZIOTIN  PN           R$  000000000255500000000026000000000002522000000000256300000000025850000000002550000000000258500053000000000000008600000000000022047300000000000000009999123100000010000000000000BRCGRAACNPR9083
012024081602CIEL3       010CIELO       ON           R$  000000000058300000000005830000000000582000000000058200000000005830000000000582000000000058304302000000000030190700000000017575438100000000000000009999123100000010000000000000BRCIELACNOR3157
012024081602CSED3       010CRUZEIRO EDUON      NM   R$  000000000039800000000004120000000000393000000000039700000000003950000000000394000000000039500725000000000000331100000000000131456200000000000000009999123100000010000000000000BRCSEDACNOR9104
012024081602CSMG3       010COPASA      ON      NM   R$  000000000222900000000022990000000002203000000000225500000000022970000000002294000000000229707965000000000001883400000000004247129400000000000000009999123100000010000000000000BRCSMGACNOR5174
012024081602EKTR4       010ELEKTRO     PN           R$  000000000417900000000042400000000004095000000000420400000000040950000000004112000000000424000013000000000000001400000000000005885900000000000000009999123100000010000000000000BREKTRACNPR7164
012024081602ELET3       010ELETROBRAS  ON      N1   R$  000000000408400000000041240000000004031000000000406100000000040340000000004033000000000404022450000000000007088200000000028786913800000000000000009999123100000010000000000000BRELETACNOR6160
012024081602ELET6       010ELETROBRAS  PNB     N1   R$  000000000454000000000045670000000004474000000000451000000000044970000000004494000000000449706181000000000001015100000000004578925800000000000000009999123100000010000000000000BRELETACNPB7077
012024081602NEOE3       010NEOENERGIA  ON      NM   R$  000000000191800000000019380000000001904000000000192300000000019220000000001922000000000193503664000000000000899800000000001731095600000000000000009999123100000010000000000000BRNEOEACNOR3123
012024081602AALR3       010ALLIAR      ON      NM   R$  000000000116000000000012500000000001141000000000119500000000012500000000001237000000000125000280000000000000071900000000000085940900000000000000009999123100000010000000000000BRAALRACNOR6102
012024081602NGRD3       010NEOGRID     ON      NM   R$  000000000011900000000001210000000000118000000000011900000000001190000000000118000000000011900623000000000000635500000000000075978200000000000000009999123100000010000000000000BRNGRDACNOR3104
012024081602NINJ3       010GETNINJAS   ON      NM   R$  000000000047200000000004720000000000462000000000046500000000004620000000000462000000000047200033000000000000006700000000000003116500000000000000009999123100000010000000000000BRNINJACNOR5101
012024081602NORD3       010NORDON MET  ON           R$  000000000109400000000011000000000001081000000000109500000000011000000000000908000000000105000009000000000000000900000000000000986200000000000000009999123100000010000000000000BRNORDACNOR7135
012024081602NTCO3       010GRUPO NATURAON      NM   R$  000000000139000000000014180000000001343000000000137200000000013830000000001375000000000138331294000000000034281700000000047068193500000000000000009999123100000010000000000000BRNTCOACNOR5106
012024081602RADL3       010RAIADROGASILON      NM   R$  000000000294400000000029780000000002928000000000294800000000029350000000002933000000000293514783000000000004324400000000012751852800000000000000009999123100000010000000000000BRRADLACNOR0157
012024081602RAIL3       010RUMO S.A.   ON      NM   R$  000000000239800000000024080000000002319000000000234100000000023200000000002317000000000232137289000000000013144200000000030780324400000000000000009999123100000010000000000000BRRAILACNOR9105
012024081602IFCM3       010INFRACOMM   ON      NM   R$  000000000002400000000000240000000000019000000000002000000000000190000000000019000000000002004633000000000030541900000000000629792400000000000000009999123100000010000000000000BRIFCMACNOR8101
012024081602IGTI11      010IGUATEMI S.AUNT     N1   R$  000000000235800000000023640000000002313000000000233600000000023230000000002315000000000232410595000000000002314300000000005408078300000000000000009999123100000010000000000000BRIGTICDAM16106
012024081602IGTI3       010IGUATEMI S.AON      N1   R$  000000000028700000000002990000000000287000000000029300000000002890000000000285000000000028900125000000000000062700000000000018387900000000000000009999123100000010000000000000BRIGTIACNOR8106
012024081602LUPA3       010LUPATECH    ON      NM   R$  000000000016000000000001630000000000152000000000015500000000001550000000000153000000000015500156000000000000173200000000000026957000000000000000009999123100000010000000000000BRLUPAACNOR8112
012024081602LVTC3       010WDC NETWORKSON      NM   R$  000000000039500000000004160000000000386000000000040200000000003860000000000385000000000039000061000000000000024700000000000009943300000000000000009999123100000010000000000000BRLVTCACNOR4102
012024081602LWSA3       010LWSA        ON      NM   R$  000000000048100000000004810000000000458000000000046700000000004630000000000461000000000046308627000000000005311300000000002482614800000000000000009999123100000010000000000000BRLWSAACNOR8103
012024081602MTRE3       010MITRE REALTYON      NM   R$  000000000039800000000003990000000000382000000000038700000000003830000000000383000000000038501308000000000000781700000000000302522500000000000000009999123100000010000000000000BRMTREACNOR6113
012024081602MTSA4       010METISA      PN           R$  000000000430300000000043030000000004151000000000423100000000042150000000004200000000000422000060000000000000009200000000000038932600000000000000009999123100000010000000000000BRMTSAACNPR9072
012024081602MULT3       010MULTIPLAN   ON      N2   R$  000000000268900000000027010000000002634000000000265600000000026380000000002637000000000264017825000000000004654700000000012364210800000000000000009999123100000010000000000000BRMULTACNOR5139
012024081602PETZ3       010PETZ        ON      NM   R$  000000000039600000000004470000000000375000000000040900000000003770000000000376000000000037738413000000000080661300000000033012060700000000000000009999123100000010000000000000BRPETZACNOR2110
012024081602PTBL3       010PORTOBELLO  ON      NM   R$  000000000048100000000004860000000000462000000000047200000000004620000000000462000000000046403691000000000000736100000000000347902100000000000000009999123100000010000000000000BRPTBLACNOR8132
012024081602PTNT3       010PETTENATI   ON           R$  000000000091400000000009140000000000914000000000091400000000009140000000000872000000000091800001000000000000000100000000000000091400000000000000009999123100000010000000000000BRPTNTACNOR6042
012024081602PTNT4       010PETTENATI   PN           R$  000000000060000000000006110000000000598000000000060500000000006030000000000602000000000060800046000000000000018100000000000010959000000000000000009999123100000010000000000000BRPTNTACNPR3047
012024081602QUAL3       010QUALICORP   ON      NM   R$  000000000016200000000001660000000000158000000000016000000000001590000000000159000000000016004190000000000002847600000000000458406300000000000000009999123100000010000000000000BRQUALACNOR6120
012024081602RRRP3       0103R PETROLEUMON      NM   R$  000000000289000000000029100000000002816000000000284700000000028170000000002817000000000281816139000000000005697400000000016223023500000000000000009999123100000010000000000000BRRRRPACNOR5103
012024081602TASA3       010TAURUS ARMASON      N2   R$  000000000111500000000011240000000001104000000000111200000000011040000000001101000000000110400083000000000000014400000000000016013600000000000000009999123100000010000000000000BRTASAACNOR7104
012024081602TASA4       010TAURUS ARMASPN      N2   R$  000000000111000000000011200000000001097000000000110500000000010970000000001097000000000110000996000000000000206300000000000228078500000000000000009999123100000010000000000000BRTASAACNPR4104
012024081602TCSA3       010TECNISA     ON      NM   R$  000000000020500000000002050000000000197000000000019900000000001970000000000197000000000019900161000000000000079000000000000015772400000000000000009999123100000010000000000000BRTCSAACNOR3112
012024081602TECN3       010TECHNOS     ON      NM   R$  000000000059500000000006060000000000586000000000059700000000005990000000000593000000000059900582000000000000322500000000000192829100000000000000009999123100000010000000000000BRTECNACNOR6109
012024081602TELB3       010TELEBRAS    ON           R$  000000000139000000000013940000000001390000000000139200000000013940000000001330000000000138900002000000000000000300000000000000417800000000000000009999123100000010000000000000BRTELBACNOR2140
012024081602TELB4       010TELEBRAS    PN           R$  000000000092000000000009300000000000911000000000092000000000009140000000000906000000000092700016000000000000009600000000000008834100000000000000009999123100000010000000000000BRTELBACNPR9140
012024081602TEND3       010TENDA       ON      NM   R$  000000000137800000000013870000000001298000000000132500000000013280000000001328000000000133005332000000000002461900000000003263694900000000000000009999123100000010000000000000BRTENDACNOR4111
012024081602TFCO4       010TRACK FIELD PN      N2   R$  000000000126700000000012670000000001233000000000123900000000012390000000001239000000000124000385000000000000055200000000000068405300000000000000009999123100000010000000000000BRTFCOACNPR8114
012024081602TGMA3       010TEGMA       ON  EDJ NM   R$  000000000258500000000025850000000002488000000000251700000000025000000000002500000000000251200483000000000000082100000000000206666500000000000000009999123100000010000000000000BRTGMAACNOR7145
012024081602TIMS3       010TIM         ON      NM   R$  000000000182000000000018430000000001794000000000182600000000018290000000001828000000000183017317000000000008957400000000016359439200000000000000009999123100000010000000000000BRTIMSACNOR5117
012024081602MRSA6B      010MRS LOGIST  PNB     MB   R$  000000000325000000000032500000000003250000000000325000000000032500000000002900000000000000000003000000000000000300000000000000975000000000000000009999123100000010000000000000BRMRSAACNPB7125
012024081602MRVE3       010MRV         ON      NM   R$  000000000075100000000007740000000000726000000000073800000000007290000000000729000000000073015691000000000012803000000000009452668700000000000000009999123100000010000000000000BRMRVEACNOR2127
012024081602PRNR3       010PRINER      ON      NM   R$  000000000119800000000012160000000001173000000000119500000000011960000000001190000000000119701082000000000000279600000000000334174100000000000000009999123100000010000000000000BRPRNRACNOR4109
012024081602PSSA3       010PORTO SEGUROON      NM   R$  000000000330300000000033480000000003262000000000329300000000032740000000003274000000000327505935000000000001114300000000003669968000000000000000009999123100000010000000000000BRPSSAACNOR7155
012024081602PINE3       010PINE        ON      N2   R$  000000000058900000000005890000000000554000000000057100000000005540000000000554000000000059000002000000000000000200000000000000114300000000000000009999123100000010000000000000BRPINEACNOR1150
012024081602PINE4       010PINE        PN      N2   R$  000000000046300000000004650000000000449000000000045600000000004510000000000451000000000045601057000000000000534900000000000244348400000000000000009999123100000010000000000000BRPINEACNPR8150
012024081602PLPL3       010PLANOEPLANO ON      NM   R$  000000000123000000000012390000000001154000000000117700000000011760000000001173000000000117603392000000000001199500000000001412599800000000000000009999123100000010000000000000BRPLPLACNOR5104
012024081602PNVL3       010DIMED       ON      NM   R$  000000000111000000000011180000000001090000000000110500000000011010000000001100000000000110202331000000000000447000000000000494212800000000000000009999123100000010000000000000BRPNVLACNOR9207
012024081602POMO3       010MARCOPOLO   ON      N2   R$  000000000054200000000005450000000000524000000000053200000000005330000000000529000000000053300302000000000000112600000000000059928200000000000000009999123100000010000000000000BRPOMOACNOR0098
012024081602POMO4       010MARCOPOLO   PN      N2   R$  000000000068600000000006950000000000667000000000067700000000006760000000000675000000000067614694000000000015428500000000010456086500000000000000009999123100000010000000000000BRPOMOACNPR7098
012024081602RANI3       010IRANI       ON  ED  NM   R$  000000000080900000000008110000000000804000000000080600000000008070000000000807000000000080902381000000000000678800000000000547598900000000000000009999123100000010000000000000BRRANIACNOR5073
012024081602RAPT3       010RANDON PART ON      N1   R$  000000000091800000000009180000000000887000000000089400000000008870000000000887000000000089300168000000000000037200000000000033273600000000000000009999123100000010000000000000BRRAPTACNOR7163
012024081602RAPT4       010RANDON PART PN      N1   R$  000000000110100000000011080000000001069000000000108600000000010910000000001091000000000109211076000000000002839100000000003084428300000000000000009999123100000010000000000000BRRAPTACNPR4163
012024081602SCAR3       010SAO CARLOS  ON      NM   R$  000000000236000000000023990000000002360000000000238300000000023890000000002300000000000240000018000000000000002100000000000005004500000000000000009999123100000010000000000000BRSCARACNOR7131
012024081602SEER3       010SER EDUCA   ON      NM   R$  000000000058300000000005940000000000577000000000058400000000005790000000000576000000000057901900000000000000363700000000000212433600000000000000009999123100000010000000000000BRSEERACNOR5119
012024081602SEQL3       010SEQUOIA LOG ON      NM   R$  000000000055700000000005800000000000523000000000054500000000005390000000000538000000000053902887000000000001650900000000000899803200000000000000009999123100000010000000000000BRSEQLACNOR2103
012024081602RCSL3       010RECRUSUL    ON           R$  000000000028000000000002880000000000277000000000028200000000002800000000000280000000000028501148000000000000373100000000000105555200000000000000009999123100000010000000000000BRRCSLACNOR4134
012024081602RCSL4       010RECRUSUL    PN           R$  000000000008300000000000830000000000080000000000008000000000000810000000000080000000000008100139000000000000084000000000000006797200000000000000009999123100000010000000000000BRRCSLACNPR1134
012024081602RDNI3       010RNI         ON      NM   R$  000000000032600000000003260000000000314000000000031800000000003140000000000314000000000032000015000000000000002200000000000000701300000000000000009999123100000010000000000000BRRDNIACNOR9116
012024081602RDOR3       010REDE D OR   ON      NM   R$  000000000318500000000032350000000003150000000000318400000000031600000000003159000000000316128394000000000007156400000000022791240200000000000000009999123100000010000000000000BRRDORACNOR8113
012024081602SANB11      010SANTANDER BRUNT          R$  000000000300100000000030700000000003001000000000304100000000030240000000003024000000000302708061000000000001715300000000005217050400000000000000009999123100000010000000000000BRSANBCDAM13165
012024081602SANB3       010SANTANDER BRON           R$  000000000141200000000014500000000001412000000000144100000000014260000000001426000000000142800832000000000000151100000000000217788700000000000000009999123100000010000000000000BRSANBACNOR8172
012024081602SANB4       010SANTANDER BRPN           R$  000000000157300000000016150000000001573000000000159900000000015830000000001583000000000159601035000000000000166500000000000266261300000000000000009999123100000010000000000000BRSANBACNPR5172
012024081602YDUQ3       010YDUQS PART  ON      NM   R$  000000000102500000000010250000000000980000000000099800000000009800000000000979000000000098009051000000000003405500000000003401342100000000000000009999123100000010000000000000BRYDUQACNOR3105
012024081602BAHI3       010BAHEMA      ON      MA   R$  000000000069700000000006990000000000697000000000069800000000006990000000000698000000000069900005000000000000000600000000000000418800000000000000009999123100000010000000000000BRBAHIACNOR1074
012024081602BALM4       010BAUMER      PN           R$  000000000108500000000010990000000001085000000000108900000000010850000000001085000000000110000005000000000000003800000000000004139900000000000000009999123100000010000000000000BRBALMACNPR2056
012024081602BAZA3       010AMAZONIA    ON           R$  000000000973000000000097300000000009400000000000944800000000094000000000009300000000000955000031000000000000005600000000000052914000000000000000009999123100000010000000000000BRBAZAACNOR0179
012024081602BBAS3       010BRASIL      ON      NM   R$  000000000283000000000028580000000002825000000000284000000000028370000000002837000000000283835260000000000018682300000000053062648000000000000000009999123100000010000000000000BRBBASACNOR3324
012024081602VSTE3       010VESTE       ON      NM   R$  000000000133200000000013400000000001318000000000133200000000013250000000001320000000000135000024000000000000004200000000000005598200000000000000009999123100000010000000000000BRVSTEACNOR5103
012024081602VTRU3       010VITRUEDUCA  ON      NM   R$  000000000111100000000011240000000001090000000000110500000000011110000000001099000000000111100156000000000000016400000000000018132900000000000000009999123100000010000000000000BRVTRUACNOR3100
012024081602VULC3       010VULCABRAS   ON  ED  NM   R$  000000000181500000000018260000000001776000000000179600000000017760000000001776000000000178504141000000000000723200000000001299408400000000000000009999123100000010000000000000BRVULCACNOR2160
012024081602VVEO3       010VIVEO       ON      NM   R$  000000000021700000000002190000000000189000000000020000000000002030000000000201000000000020305444000000000009395900000000001883194000000000000000009999123100000010000000000000BRVVEOACNOR0104
012024081602CAMB3       010CAMBUCI     ON  EDJ      R$  000000000125000000000012580000000001222000000000124000000000012300000000001225000000000123000118000000000000033200000000000041178000000000000000009999123100000010000000000000BRCAMBACNOR4131
012024081602CAML3       010CAMIL       ON      NM   R$  000000000100300000000010050000000000943000000000096200000000009450000000000945000000000094601664000000000000543600000000000523429400000000000000009999123100000010000000000000BRCAMLACNOR3128
012024081602CASH3       010MELIUZ      ON      NM   R$  000000000062800000000006390000000000620000000000062800000000006220000000000621000000000062201906000000000000935300000000000587982900000000000000009999123100000010000000000000BRCASHACNOR8106
012024081602CBAV3       010CBA         ON      NM   R$  000000000047100000000004740000000000456000000000046600000000004700000000000470000000000047104896000000000002411800000000001123983300000000000000009999123100000010000000000000BRCBAVACNOR5104
012024081602VALE3       010VALE        ON      NM   R$  000000000559500000000056090000000005553000000000559500000000056080000000005608000000000560952053000000000044272700000000247711122500000000000000009999123100000010000000000000BRVALEACNOR0211
012024081602CCRO3       010CCR SA      ON      NM   R$  000000000136600000000013660000000001338000000000134400000000013450000000001340000000000134512535000000000004993700000000006713639600000000000000009999123100000010000000000000BRCCROACNOR2145
012024081602CRPG5       010CRISTAL     PNA          R$  000000000288100000000029490000000002880000000000289100000000028800000000002879000000000290000010000000000000001200000000000003469900000000000000009999123100000010000000000000BRCRPGACNPA3119
012024081602CRPG6       010CRISTAL     PNB          R$  000000000295400000000029990000000002953000000000295900000000029990000000002851000000000300000005000000000000000700000000000002071800000000000000009999123100000010000000000000BRCRPGACNPB1119
012024081602CSAN3       010COSAN       ON      NM   R$  000000000138600000000013980000000001342000000000135600000000013430000000001343000000000134521732000000000009747100000000013219888300000000000000009999123100000010000000000000BRCSANACNOR6126
012024081602EGIE3       010ENGIE BRASILON      NM   R$  000000000462800000000046460000000004584000000000462100000000046190000000004617000000000462006831000000000001192000000000005508264300000000000000009999123100000010000000000000BREGIEACNOR9126
012024081602ALPA3       010ALPARGATAS  ON      N1   R$  000000000077200000000007800000000000763000000000077300000000007740000000000762000000000077400019000000000000004400000000000003405400000000000000009999123100000010000000000000BRALPAACNOR0231
012024081602ALPA4       010ALPARGATAS  PN      N1   R$  000000000082800000000008420000000000803000000000081600000000008090000000000806000000000080908024000000000003351100000000002737816800000000000000009999123100000010000000000000BRALPAACNPR7232
012024081602BRSR3       010BANRISUL    ON      N1   R$  000000000132700000000013360000000001299000000000132000000000013250000000001320000000000133200085000000000000013300000000000017565200000000000000009999123100000010000000000000BRBRSRACNOR3188
012024081602BRSR6       010BANRISUL    PNB     N1   R$  000000000125000000000012500000000001215000000000122900000000012170000000001216000000000122404196000000000000893500000000001098674800000000000000009999123100000010000000000000BRBRSRACNPB4191
012024081602BSLI3       010BRB BANCO   ON           R$  000000000100200000000010020000000001002000000000100200000000010020000000000980000000000100000001000000000000000200000000000000200400000000000000009999123100000010000000000000BRBSLIACNOR5194
012024081602BSLI4       010BRB BANCO   PN           R$  000000000098100000000009810000000000981000000000098100000000009810000000000943000000000097800001000000000000000100000000000000098100000000000000009999123100000010000000000000BRBSLIACNPR2194
012024081602HYPE3       010HYPERA      ON      NM   R$  000000000314500000000031560000000003093000000000310900000000030990000000003096000000000310008635000000000002843200000000008840242700000000000000009999123100000010000000000000BRHYPEACNOR0143
012024081602ITUB3       010ITAUUNIBANCOON      N1   R$  000000000318900000000032180000000003150000000000318000000000031650000000003155000000000316502318000000000000549200000000001746825900000000000000009999123100000010000000000000BRITUBACNOR4339
012024081602ITUB4       010ITAUUNIBANCOPN      N1   R$  000000000372400000000037490000000003664000000000369700000000036740000000003674000000000367558766000000000034482800000000127507869600000000000000009999123100000010000000000000BRITUBACNPR1339
012024081602LJQQ3       010QUERO-QUERO ON      NM   R$  000000000041400000000004230000000000388000000000040100000000003960000000000395000000000039604200000000000004620400000000001855564600000000000000009999123100000010000000000000BRLJQQACNOR5104
012024081602LOGG3       010LOG COM PROPON      NM   R$  000000000242500000000024310000000002364000000000240000000000023810000000002381000000000239801463000000000000212500000000000510064300000000000000009999123100000010000000000000BRLOGGACNOR7107
012024081602LOGN3       010LOG-IN      ON      NM   R$  000000000357000000000036280000000003566000000000358400000000036280000000003584000000000362800082000000000000011500000000000041219100000000000000009999123100000010000000000000BRLOGNACNOR3105
012024081602LPSB3       010LOPES BRASILON      NM   R$  000000000017600000000001840000000000174000000000017800000000001750000000000174000000000017900165000000000000181500000000000032313000000000000000009999123100000010000000000000BRLPSBACNOR0114
012024081602LREN3       010LOJAS RENNERON      NM   R$  000000000168600000000016860000000001597000000000161900000000016130000000001613000000000161842558000000000024597700000000039846860300000000000000009999123100000010000000000000BRLRENACNOR1221
012024081602MRFG3       010MARFRIG     ON      NM   R$  000000000131100000000013260000000001288000000000130400000000012890000000001288000000000128917849000000000006535800000000008523174500000000000000009999123100000010000000000000BRMRFGACNOR0116
012024081602PDGR3       010PDG REALT   ON      NM   R$  000000000001800000000000180000000000017000000000001700000000000180000000000017000000000001800208000000000000768500000000000013720300000000000000009999123100000010000000000000BRPDGRACNOR8119
012024081602PDTC3       010PADTEC      ON      NM   R$  000000000018400000000001850000000000182000000000018300000000001840000000000184000000000018500057000000000000074600000000000013704500000000000000009999123100000010000000000000BRPDTCACNOR3101
012024081602PETR3       010PETROBRAS   ON      N2   R$  000000000412600000000041620000000004094000000000413700000000041560000000004145000000000415821619000000000008365100000000034607459800000000000000009999123100000010000000000000BRPETRACNOR9205
012024081602PETR4       010PETROBRAS   PN      N2   R$  000000000381700000000038770000000003803000000000384600000000038500000000003850000000000385161010000000000035471900000000136455109100000000000000009999123100000010000000000000BRPETRACNPR6213
012024081602KRSA3       010KORA SAUDE  ON      NM   R$  000000000006000000000000610000000000058000000000005900000000000590000000000058000000000005900088000000000000215100000000000012723800000000000000009999123100000010000000000000BRKRSAACNOR0100
012024081602VITT3       010VITTIA      ON      NM   R$  000000000060400000000006170000000000597000000000060300000000006050000000000597000000000060501523000000000000541700000000000326778600000000000000009999123100000010000000000000BRVITTACNOR4107
012024081602VIVA3       010VIVARA S.A. ON      NM   R$  000000000270100000000027260000000002607000000000265900000000026300000000002619000000000263016536000000000004787900000000012733188300000000000000009999123100000010000000000000BRVIVAACNOR0107
012024081602VIVR3       010VIVER       ON      NM   R$  000000000024600000000002690000000000246000000000025400000000002500000000000249000000000025200141000000000000070800000000000018038100000000000000009999123100000010000000000000BRVIVRACNOR4123
012024081602VIVT3       010TELEF BRASILON           R$  000000000512800000000052380000000005098000000000520300000000052200000000005217000000000522011714000000000002090800000000010878980100000000000000009999123100000010000000000000BRVIVTACNOR0183
012024081602VBBR3       010VIBRA       ON      NM   R$  000000000259500000000026390000000002594000000000261200000000026030000000002601000000000260532378000000000008668700000000022650129900000000000000009999123100000010000000000000BRVBBRACNOR1108
012024081602REDE3       010REDE ENERGIAON           R$  000000000069300000000006930000000000682000000000068700000000006820000000000685000000000068800010000000000000001400000000000000962500000000000000009999123100000010000000000000BRREDEACNOR7128
012024081602LAND3       010TERRASANTAPAON      NM   R$  000000000126400000000012640000000001203000000000122000000000012050000000001205000000000122600276000000000000071900000000000087738100000000000000009999123100000010000000000000BRLANDACNOR9103
012024081602LAVV3       010LAVVI       ON  ED  NM   R$  000000000088000000000008800000000000851000000000085800000000008550000000000853000000000085902449000000000000772400000000000663177200000000000000009999123100000010000000000000BRLAVVACNOR4113
012024081602LEVE3       010METAL LEVE  ON      NM   R$  000000000325200000000032520000000003118000000000315000000000031300000000003130000000000313103933000000000000837900000000002640031300000000000000009999123100000010000000000000BRLEVEACNOR2197
012024081602MILS3       010MILLS       ON      NM   R$  000000000117000000000011770000000001150000000000116000000000011500000000001150000000000115502828000000000000620500000000000719849000000000000000009999123100000010000000000000BRMILSACNOR2127
012024081602RENT3       010LOCALIZA    ON      NM   R$  000000000397000000000042600000000003958000000000413400000000042600000000004250000000000426068976000000000033435300000000138230635000000000000000009999123100000010000000000000BRRENTACNOR4196
012024081602SMFT3       010SMART FIT   ON      NM   R$  000000000240000000000024060000000002264000000000229200000000022960000000002288000000000229710087000000000003800500000000008711277800000000000000009999123100000010000000000000BRSMFTACNOR1112
012024081602SMTO3       010SAO MARTINHOON      NM   R$  000000000299500000000030110000000002906000000000295000000000029200000000002910000000000292006557000000000000945800000000002790180900000000000000009999123100000010000000000000BRSMTOACNOR3127
012024081602VAMO3       010VAMOS       ON      NM   R$  000000000083400000000008430000000000822000000000082800000000008260000000000826000000000082709514000000000004126900000000003420168000000000000000009999123100000010000000000000BRVAMOACNOR7105
012024081602ZAMP3       010ZAMP S.A.   ON           R$  000000000034700000000003500000000000342000000000034400000000003450000000000343000000000034502076000000000000378100000000000130428900000000000000009999123100000010000000000000BRZAMPACNOR5101
012024081602SBFG3       010GRUPO SBF   ON      NM   R$  000000000175700000000017580000000001677000000000169500000000016950000000001685000000000169505701000000000001461300000000002478339100000000000000009999123100000010000000000000BRSBFGACNOR1103
012024081602MLAS3       010MULTILASER  ON      NM   R$  000000000018200000000001860000000000179000000000018100000000001790000000000179000000000018003148000000000005365300000000000974578000000000000000009999123100000010000000000000BRMLASACNOR9101
012024081602MNDL3       010MUNDIAL     ON           R$  000000000149000000000014900000000001414000000000148100000000014140000000001365000000000148500006000000000000013100000000000019408200000000000000009999123100000010000000000000BRMNDLACNOR4109
012024081602MNPR3       010MINUPAR     ON           R$  000000000151000000000016280000000001510000000000155300000000016000000000001531000000000160000007000000000000002400000000000003727200000000000000009999123100000010000000000000BRMNPRACNOR5122
012024081602MOVI3       010MOVIDA      ON      NM   R$  000000000073600000000007560000000000729000000000073900000000007310000000000730000000000073105743000000000003936800000000002911489400000000000000009999123100000010000000000000BRMOVIACNOR0122
012024081602SNSY3       010SANSUY      ON           R$  000000000125000000000012500000000001190000000000120300000000012240000000001150000000000122400009000000000000001300000000000001564800000000000000009999123100000010000000000000BRSNSYACNOR2113
012024081602SBSP3       010SABESP      ON      NM   R$  000000000994400000000099470000000009831000000000986800000000098700000000009867000000000987020847000000000004582700000000045224111000000000000000009999123100000010000000000000BRSBSPACNOR5161
012024081602UNIP3       010UNIPAR      ON           R$  000000000494800000000049730000000004801000000000484600000000048010000000004800000000000484000180000000000000026700000000000129400100000000000000009999123100000010000000000000BRUNIPACNOR7206
012024081602UNIP5       010UNIPAR      PNA          R$  000000000497600000000049880000000004880000000000495100000000048800000000004803000000000488000014000000000000001500000000000007427200000000000000009999123100000010000000000000BRUNIPACNPA0208
012024081602UNIP6       010UNIPAR      PNB          R$  000000000496500000000049980000000004822000000000486300000000048530000000004853000000000486001749000000000000246800000000001200280800000000000000009999123100000010000000000000BRUNIPACNPB8206
012024081602SNSY5       010SANSUY      PNA          R$  000000000056400000000005990000000000562000000000057500000000005720000000000571000000000057900021000000000000007000000000000004029800000000000000009999123100000010000000000000BRSNSYACNPA5111
012024081602SOJA3       010BOA SAFRA   ON      NM   R$  000000000139600000000014040000000001355000000000137300000000013700000000001365000000000137003204000000000000747400000000001026616600000000000000009999123100000010000000000000BRSOJAACNOR9105
012024081602SRNA3       010SERENA      ON      NM   R$  000000000090000000000009210000000000871000000000088300000000008750000000000871000000000087504811000000000001487900000000001314387000000000000000009999123100000010000000000000BRSRNAACNOR4100
012024081602STBP3       010SANTOS BRP  ON  EDJ NM   R$  000000000144900000000014750000000001404000000000142600000000014130000000001413000000000142112111000000000004520600000000006448007500000000000000009999123100000010000000000000BRSTBPACNOR3131
012024081602SUZB3       010SUZANO S.A. ON      NM   R$  000000000535100000000054500000000005350000000000541600000000054410000000005436000000000544229027000000000007231300000000039171927300000000000000009999123100000010000000000000BRSUZBACNOR0130
012024081602GRND3       010GRENDENE    ON      NM   R$  000000000062200000000006270000000000617000000000062100000000006190000000000619000000000062202416000000000000897100000000000557487900000000000000009999123100000010000000000000BRGRNDACNOR3174
012024081602GSHP3       010GENERALSHOPPON           R$  000000000105000000000011500000000001050000000000108300000000011500000000001050000000000149200003000000000000000300000000000000325000000000000000009999123100000010000000000000BRGSHPACNOR7102
012024081602EALT3       010ACO ALTONA  ON           R$  000000000147900000000016000000000001479000000000150600000000015000000000001425000000000158000009000000000000001400000000000002109300000000000000009999123100000010000000000000BREALTACNOR4138
012024081602EALT4       010ACO ALTONA  PN           R$  000000000142800000000015140000000001415000000000147300000000015000000000001490000000000150000100000000000000023900000000000035224000000000000000009999123100000010000000000000BREALTACNPR1138
012024081602ECOR3       010ECORODOVIAS ON      NM   R$  000000000079500000000008050000000000776000000000078700000000007800000000000780000000000078203755000000000001797000000000001414660700000000000000009999123100000010000000000000BRECORACNOR8120
012024081602AERI3       010AERIS       ON      NM   R$  000000000102900000000010380000000000913000000000097500000000009600000000000960000000000096201335000000000000622500000000000607542200000000000000009999123100000010000000000000BRAERIACNOR4102
012024081602AESB3       010AES BRASIL  ON      NM   R$  000000000114000000000011420000000001137000000000113900000000011410000000001140000000000114101772000000000001905200000000002170104100000000000000009999123100000010000000000000BRAESBACNOR7106
012024081602AGRO3       010BRASILAGRO  ON      NM   R$  000000000261500000000026150000000002581000000000259400000000025950000000002585000000000259500966000000000000161700000000000419486900000000000000009999123100000010000000000000BRAGROACNOR7114
012024081602AGXY3       010AGROGALAXY  ON      NM   R$  000000000013500000000001390000000000129000000000013200000000001300000000000130000000000013100416000000000000362200000000000048037900000000000000009999123100000010000000000000BRAGXYACNOR4103
012024081602ALLD3       010ALLIED      ON      NM   R$  000000000075900000000007790000000000746000000000075500000000007470000000000747000000000075600164000000000000035700000000000026965500000000000000009999123100000010000000000000BRALLDACNOR3106
012024081602ALOS3       010ALLOS       ON      NM   R$  000000000233700000000023670000000002314000000000233100000000023260000000002325000000000232920601000000000003891300000000009071773600000000000000009999123100000010000000000000BRALOSACNOR5101
012024081602B3SA3       010B3          ON      NM   R$  000000000128000000000012920000000001241000000000125900000000012490000000001248000000000125041417000000000032001400000000040289992900000000000000009999123100000010000000000000BRB3SAACNOR6133
012024081602ABCB4       010ABC BRASIL  PN      N2   R$  000000000226400000000023000000000002245000000000227300000000022530000000002252000000000225505571000000000001140400000000002593149900000000000000009999123100000010000000000000BRABCBACNPR4146
012024081602ABEV3       010AMBEV S/A   ON           R$  000000000131500000000013400000000001301000000000131600000000013010000000001301000000000130652781000000000039840200000000052440146900000000000000009999123100000010000000000000BRABEVACNOR1128
012024081602AZZA3       010AZZAS 2154  ON      NM   R$  000000000537000000000053950000000005105000000000515900000000051100000000005108000000000511110391000000000003142600000000016212998300000000000000009999123100000010000000000000BRAZZAACNOR9100
012024081602BBDC3       010BRADESCO    ON      N1   R$  000000000136500000000013720000000001326000000000134000000000013340000000001333000000000133412473000000000007573100000000010152737100000000000000009999123100000010000000000000BRBBDCACNOR1773
012024081602BBDC4       010BRADESCO    PN      N1   R$  000000000152300000000015290000000001485000000000149900000000014970000000001495000000000149756533000000000049807300000000074705288800000000000000009999123100000010000000000000BRBBDCACNPR8773
012024081602BEES3       010BANESTES    ON           R$  000000000089800000000009030000000000895000000000089800000000009030000000000896000000000090300067000000000000017900000000000016087800000000000000009999123100000010000000000000BRBEESACNOR9394
012024081602BEES4       010BANESTES    PN           R$  000000000099300000000009980000000000941000000000097600000000009410000000000940000000000098000031000000000000003800000000000003711600000000000000009999123100000010000000000000BRBEESACNPR6319
012024081602WEGE3       010WEG         ON      NM   R$  000000000529800000000053980000000005240000000000533000000000053250000000005324000000000532825671000000000010595800000000056478364000000000000000009999123100000010000000000000BRWEGEACNOR0224
012024081602SYNE3       010SYN PROP TECON      NM   R$  000000000111000000000011350000000001098000000000111800000000011290000000001128000000000112905272000000000002157600000000002414024900000000000000009999123100000010000000000000BRSYNEACNOR2102
012024081602CPLE3       010COPEL       ON      N2   R$  000000000095000000000009510000000000936000000000094100000000009450000000000944000000000094507115000000000004235700000000003989747900000000000000009999123100000010000000000000BRCPLEACNOR8149
012024081602CPLE6       010COPEL       PNB     N2   R$  000000000104700000000010510000000001036000000000104000000000010420000000001041000000000104215557000000000008155100000000008487882300000000000000009999123100000010000000000000BRCPLEACNPB9146
012024081602CRFB3       010CARREFOUR BRON      NM   R$  000000000095300000000009580000000000919000000000093900000000009270000000000924000000000092721611000000000009403300000000008838144500000000000000009999123100000010000000000000BRCRFBACNOR2116
012024081602DMVF3       010D1000VFARMA ON      NM   R$  000000000074200000000007680000000000739000000000074900000000007430000000000741000000000074700398000000000000055400000000000041519300000000000000009999123100000010000000000000BRDMVFACNOR9100
012024081602DOHL4       010DOHLER      PN           R$  000000000041000000000004400000000000403000000000041400000000004110000000000410000000000041800020000000000000005900000000000002445800000000000000009999123100000010000000000000BRDOHLACNPR9066
012024081602DOTZ3       010DOTZ SA     ON      NM   R$  000000000065800000000008460000000000624000000000067000000000007610000000000760000000000081200131000000000000072000000000000048284500000000000000009999123100000010000000000000BRDOTZACNOR7101
012024081602DTCY3       010DTCOM-DIRECTON           R$  000000000057400000000005740000000000574000000000057400000000005740000000000541000000000060000005000000000000001100000000000000631400000000000000009999123100000010000000000000BRDTCYACNOR5109
012024081602DXCO3       010DEXCO       ON      NM   R$  000000000076700000000007800000000000757000000000076700000000007690000000000766000000000076907826000000000003262500000000002502852400000000000000009999123100000010000000000000BRDXCOACNOR8105
012024081607NUTR3       010NUTRIPLANT  ON      MA   R$  000000000051100000000005250000000000483000000000050200000000005010000000000483000000000049700055000000000000016700000000000008393400000000000000009999123100000010000000000000BRNUTRACNOR0104
012024081608RSID3       010ROSSI RESID ON      NM   R$  000000000035900000000003930000000000350000000000037200000000003890000000000380000000000038900461000000000000127800000000000047616200000000000000009999123100000010000000000000BRRSIDACNOR8120
012024081608HOOT4       010HOTEIS OTHONPN           R$  000000000023900000000002440000000000239000000000023900000000002440000000000226000000000024300006000000000000000700000000000000167800000000000000009999123100000010000000000000BRHOOTACNPR9015
012024081608OIBR3       010OI          ON      N1   R$  000000000048000000000004960000000000447000000000046200000000004500000000000450000000000045102134000000000001997600000000000924556600000000000000009999123100000010000000000000BROIBRACNOR1111
012024081608OIBR4       010OI          PN      N1   R$  000000000129600000000012960000000001210000000000124200000000012400000000001240000000000126300053000000000000007000000000000008696700000000000000009999123100000010000000000000BROIBRACNPR8110
012024081608OSXB3       010OSX BRASIL  ON      NM   R$  000000000037300000000003860000000000371000000000038000000000003720000000000372000000000038000037000000000000010100000000000003840500000000000000009999123100000010000000000000BROSXBACNOR8109
012024081608CTSA3       010SANTANENSE  ON           R$  000000000027200000000002720000000000262000000000026600000000002700000000000273000000000027600005000000000000001700000000000000452800000000000000009999123100000010000000000000BRCTSAACNOR3062
012024081608CTSA4       010SANTANENSE  PN           R$  000000000013800000000001420000000000133000000000013500000000001330000000000133000000000013700041000000000000017700000000000002394500000000000000009999123100000010000000000000BRCTSAACNPR0062
012024081608JFEN3       010JOAO FORTES ON           R$  000000000002500000000000260000000000023000000000002400000000000230000000000023000000000002400487000000000001014800000000000024393000000000000000009999123100000010000000000000BRJFENACNOR0059
012024081608ATMP3       010ATMASA      ON           R$  000000000016000000000001600000000000145000000000015000000000001500000000000150000000000015100085000000000000068600000000000010341000000000000000009999123100000010000000000000BRATMPACNOR8100
012024081608AMER3       010AMERICANAS  ON      NM   R$  000000000001500000000000160000000000013000000000001400000000000140000000000013000000000001424464000000000449526400000000006478973100000000000000009999123100000010000000000000BRAMERACNOR6102
012024081608NEXP3       010NEXPE       ON           R$  000000000041500000000004190000000000415000000000041700000000004180000000000402000000000041600011000000000000001700000000000000709100000000000000009999123100000010000000000000BRNEXPACNOR0101
012024081608RPMG3       010PET MANGUINHON           R$  000000000028000000000002890000000000271000000000028100000000002730000000000273000000000027600250000000000000029800000000000008377000000000000000009999123100000010000000000000BRRPMGACNOR9194
012024081608TEKA4       010TEKA        PN           R$  000000000300100000000030010000000003001000000000300100000000030010000000002002000000000310000001000000000000000100000000000000300100000000000000009999123100000010000000000000BRTEKAACNPR3140
012024081608RNEW11      010RENOVA      UNT     N2   R$  000000000026900000000003090000000000268000000000028900000000002970000000000280000000000029800227000000000000088700000000000025693900000000000000009999123100000010000000000000BRRNEWCDAM15110
012024081608RNEW3       010RENOVA      ON      N2   R$  000000000008900000000001010000000000086000000000009700000000000980000000000097000000000009800486000000000000472900000000000046067700000000000000009999123100000010000000000000BRRNEWACNOR8110
012024081608RNEW4       010RENOVA      PN      N2   R$  000000000008800000000001000000000000087000000000009500000000000990000000000097000000000009900504000000000000513900000000000049257700000000000000009999123100000010000000000000BRRNEWACNPR5110
012024081608PMAM3       010PARANAPANEMAON      NM   R$  000000000020300000000002070000000000201000000000020300000000002060000000000205000000000020600120000000000000068200000000000013901700000000000000009999123100000010000000000000BRPMAMACNOR3039
012024081608LIGT3       010LIGHT S/A   ON      NM   R$  000000000048600000000005090000000000464000000000049300000000005080000000000508000000000050904210000000000002287000000000001129257500000000000000009999123100000010000000000000BRLIGTACNOR2124
012024081610GFSA1       010GAFISA      DIR ORD NM   R$  000000000000200000000000030000000000002000000000000200000000000020000000000002000000000000300539000000000000889200000000000001906300000000000000009999123100000010000000000000BRGFSAD11OR7124
012024081610PDGR95      010PDG REALT   DIR     NM   R$  000000000000100000000000010000000000001000000000000100000000000010000000000000000000000000100042000000000000007866000000000000007866000000000000009999123100000010000000000000BRPDGRD03M17100
012024081610ZAMP1       010ZAMP S.A.   DIR ORD      R$  000000000000800000000000100000000000007000000000000800000000000080000000000007000000000000800620000000000000989400000000000008149200000000000000009999123100000010000000000000BRZAMPD01OR0100
012024081612SAPI11      010FII SAPI    CI           R$  000000000917500000000091750000000009101000000000912700000000091720000000009110000000000917200586000000000000003638000000000033205344000000000000009999123100000010000000000000BRSAPICTF001110
012024081612SEQR11      010FII SEQUOIA CI  ER       R$  000000000523400000000052340000000005178000000000519100000000051890000000005187000000000519000090000000000000000628000000000003260111000000000000009999123100000010000000000000BRSEQRCTF002145
012024081612SHPH11      010FII HIGIENOPCI           R$  000000008880000000000888000000000088500000000008877300000000888000000000088501000000008960000020000000000000000113000000000010031400000000000000009999123100000010000000000000BRSHPHCTF008352
012024081612SJAU11      010FII SJ AU   CI           R$  000000000595000000000059500000000005950000000000595000000000059500000000005502000000000595000002000000000000000005000000000000029750000000000000009999123100000010000000000000BRSJAUCTF009102
012024081612XPCI11      010FII XP CRED CI           R$  000000000866300000000087690000000008642000000000871900000000087680000000008755000000000876804430000000000000016519000000000144036521000000000000009999123100000010000000000000BRXPCICTF007159
012024081612XPCM11      010FII XP MACAECI           R$  000000000081700000000008340000000000802000000000082000000000008220000000000822000000000083000107000000000000001460000000000001197254000000000000009999123100000010000000000000BRXPCMCTF009230
012024081612XPIN11      010FII XP INDL CI  ER       R$  000000000778600000000077860000000007702000000000773600000000077840000000007784000000000778501762000000000000007129000000000055156431000000000000009999123100000010000000000000BRXPINCTF004176
012024081612XPLG11      010FII XP LOG  CI           R$  000000001038000000000104250000000010333000000001035600000000103600000000010359000000001036007962000000000000035836000000000371124467000000000000009999123100000010000000000000BRXPLGCTF002180
012024081612XPML11      010FII XP MALLSCI           R$  000000001132100000000113460000000011290000000001130000000000112970000000011296000000001130016740000000000000170159000000001922960952000000000000009999123100000010000000000000BRXPMLCTF000186
012024081612WSEC11      010FII WARREN  CI  ER       R$  000000000869500000000086950000000008695000000000869500000000086950000000007801000000000869400016000000000000000560000000000004869200000000000000009999123100000010000000000000BRWSECCTF010122
012024081612RVBI11      010FII VBI REITCI  ER       R$  000000000743000000000074590000000007401000000000741600000000074400000000007421000000000744006750000000000000015486000000000114857154000000000000009999123100000010000000000000BRRVBICTF009154
012024081612RZAK11      010FII RIZA AKNCI  ER       R$  000000000822500000000082630000000008220000000000822400000000082500000000008249000000000825005505000000000000041708000000000343039541000000000000009999123100000010000000000000BRRZAKCTF008146
012024081612RZAT11      010FII ARCTIUM CI  ER       R$  000000000974500000000098270000000009721000000000978800000000098260000000009820000000000982601065000000000000007314000000000071596419000000000000009999123100000010000000000000BRRZATCTF009119
012024081612RZTR11      010FII RIZA TX CI           R$  000000000941700000000094550000000009401000000000942200000000094160000000009416000000000943906470000000000000030723000000000289495769000000000000009999123100000010000000000000BRRZTRCTF003150
012024081612DAMA11      010FII DAMA    CI  ER       R$  000000000100500000000010050000000000990000000000100400000000010050000000001001000000000100500024000000000000001557000000000001564581000000000000009999123100000010000000000000BRDAMACTF007102
012024081612DAMT11      010FII DIAMANTECI           R$  000000000126800000000012680000000001268000000000126800000000012680000000000850000000000125300001000000000000000010000000000000012680000000000000009999123100000010000000000000BRDAMTCTF007117
012024081612DEVA11      010FII DEVANT  CI  ER       R$  000000000378100000000037840000000003756000000000376500000000037790000000003770000000000377905706000000000000030855000000000116187189000000000000009999123100000010000000000000BRDEVACTF000151
012024081612GAME11      010FII GUARD MUCI  ER       R$  000000000091400000000009160000000000911000000000091200000000009150000000000913000000000091500318000000000000081783000000000074611358000000000000009999123100000010000000000000BRGAMECTF002134
012024081612GARE11      010FII GUARDIANCI           R$  000000000091000000000009130000000000909000000000091000000000009120000000000911000000000091229483000000000000562471000000000512155882000000000000009999123100000010000000000000BRGARECTF001106
012024081612GCRI11      010FII GLPG CRICI  ER       R$  000000000710900000000071090000000007003000000000705600000000070580000000007058000000000705900161000000000000002524000000000017809785000000000000009999123100000010000000000000BRGCRICTF008146
012024081612FAED11      010FII ANH EDUCCI  ER       R$  000000001514000000000151740000000014910000000001508200000000150250000000015030000000001508800132000000000000002280000000000034387446000000000000009999123100000010000000000000BRFAEDCTF003280
012024081612FAMB11      010FII ALMIRANTCI           R$  000000009450300000001001000000000094503000000009956700000001001000000000099998000000010010000021000000000000000038000000000003783552000000000000009999123100000010000000000000BRFAMBCTF018316
012024081612FATN11      010FII ATHENA ICI  ER       R$  000000000918500000000092000000000009178000000000919300000000091990000000009195000000000919900584000000000000004072000000000037434052000000000000009999123100000010000000000000BRFATNCTF000154
012024081612FCFL11      010FII CAMPUSFLCI           R$  000000001164000000000117700000000011622000000001164500000000116400000000011640000000001169000233000000000000002342000000000027273170000000000000009999123100000010000000000000BRFCFLCTF009271
012024081612FIGS11      010FII GEN SHOPCI           R$  000000000546300000000055480000000005438000000000546100000000054820000000005482000000000548400126000000000000001958000000000010693309000000000000009999123100000010000000000000BRFIGSCTF009230
012024081612FIIB11      010FII INDL BR CI           R$  000000005071800000000510310000000050408000000005085300000000510080000000050639000000005100900137000000000000000280000000000014239064000000000000009999123100000010000000000000BRFIIBCTF001253
012024081612FIIP11B     010FII RB CAP ICI      MB   R$  000000001710200000000172960000000017100000000001714400000000172190000000017106000000001721900064000000000000000962000000000016492967000000000000009999123100000010000000000000BRFIIPCTF001276
012024081612FIVN11      010FII VIDANOVACI           R$  000000000027400000000002910000000000270000000000028600000000002880000000000276000000000028900028000000000000000494000000000000141724000000000000009999123100000010000000000000BRFIVNCTF009100
012024081612FLCR11      010FII FL RECEBCI  ER       R$  000000000980000000000098000000000009765000000000978200000000097650000000009765000000000978400038000000000000000205000000000002005349000000000000009999123100000010000000000000BRFLCRCTF004144
012024081612FLMA11      010FII S F LIMACI  ER       R$  000000001414400000000141610000000014100000000001413500000000141050000000014104000000001410500051000000000000000672000000000009499189000000000000009999123100000010000000000000BRFLMACTF009344
012024081612FLRP11      010FII FLORIPA CI           R$  000000020150200000002031010000000201500000000020228400000002030000000000201528000000020640000006000000000000000006000000000001213704000000000000009999123100000010000000000000BRFLRPCTF006273
012024081612FMOF11      010FII MEMORIALCI           R$  000000000480000000000048000000000004800000000000480000000000048000000000004679000000000480000001000000000000000001000000000000004800000000000000009999123100000010000000000000BRFMOFCTF010258
012024081612FVPQ11      010FII V PARQUECI           R$  000000000715000000000072800000000007094000000000713400000000071300000000007130000000000714300557000000000000001162000000000008289790000000000000009999123100000010000000000000BRFVPQCTF015261
012024081612MALL11      010FII MALLS BPCI           R$  000000001082000000000108600000000010780000000001082700000000108270000000010819000000001082703608000000000000024303000000000263133560000000000000009999123100000010000000000000BRMALLCTF007183
012024081612MANA11      010FII MANATI  CI           R$  000000000094000000000009400000000000933000000000093500000000009390000000000938000000000093904851000000000000050189000000000046973682000000000000009999123100000010000000000000BRMANACTF006127
012024081612MAXR11      010FII MAX RET CI  ER       R$  000000000782200000000078250000000007793000000000780700000000078220000000007795000000000782200049000000000000000271000000000002115947000000000000009999123100000010000000000000BRMAXRCTF009270
012024081612MCCI11      010FII MAUA    CI  ER       R$  000000000899100000000091150000000008991000000000907100000000090950000000009070000000000909505847000000000000075959000000000689086186000000000000009999123100000010000000000000BRMCCICTF008164
012024081612MCEM11      010FII MCEM    CI           R$  000000001099600000000109960000000010996000000001099600000000109960000000010504000000001099700002000000000000000003000000000000032988000000000000009999123100000010000000000000BRMCEMCTF006100
012024081612MCHY11      010FII MAUA HY CI  ER       R$  000000000093600000000009630000000000935000000000095100000000009600000000000957000000000096025661000000000000922896000000000878523942000000000000009999123100000010000000000000BRMCHYCTF004140
012024081612MFAI11      010FII MERITOFACI           R$  000000000660700000000067990000000006301000000000639300000000064000000000006320000000000649900047000000000000000810000000000005179121000000000000009999123100000010000000000000BRMFAICTF005153
