00COTAHIST.2024BOVESPA 20240826                                                                                                                                                                                                                      
012024082602NTCO3       010GRUPO NATURAON      NM   R$  000000000139000000000014210000000001363000000000140000000000014070000000001405000000000140712496000000000009705600000000013591318200000000000000009999123100000010000000000000BRNTCOACNOR5106
012024082602NGRD3       010NEOGRID     ON      NM   R$  000000000013400000000001400000000000131000000000013500000000001350000000000134000000000013501196000000000001056900000000000143406400000000000000009999123100000010000000000000BRNGRDACNOR3104
012024082602NINJ3       010GETNINJAS   ON      NM   R$  000000000046200000000004790000000000462000000000046900000000004700000000000466000000000047700027000000000000005100000000000002394200000000000000009999123100000010000000000000BRNINJACNOR5101
012024082602NORD3       010NORDON MET  ON           R$  000000000090000000000009000000000000900000000000090000000000009000000000000904000000000104900004000000000000000500000000000000450000000000000000009999123100000010000000000000BRNORDACNOR7135
012024082602AERI3       010AERIS       ON      NM   R$  000000000089300000000009500000000000866000000000089300000000008760000000000876000000000088001061000000000000498500000000000445477500000000000000009999123100000010000000000000BRAERIACNOR4102
012024082602AESB3       010AES BRASIL  ON      NM   R$  000000000113900000000011450000000001138000000000114100000000011440000000001144000000000114501927000000000002275600000000002596722800000000000000009999123100000010000000000000BRAESBACNOR7106
012024082602AFLT3       010AFLUENTE T  ON           R$  000000000071500000000007150000000000715000000000071500000000007150000000000709000000000071800001000000000000000300000000000000214500000000000000009999123100000010000000000000BRAFLTACNOR1122
012024082602AGRO3       010BRASILAGRO  ON      NM   R$  000000000258100000000026030000000002580000000000259100000000025850000000002585000000000259600956000000000000137800000000000357105900000000000000009999123100000010000000000000BRAGROACNOR7114
012024082602AGXY3       010AGROGALAXY  ON      NM   R$  000000000012700000000001270000000000121000000000012200000000001230000000000122000000000012300233000000000000141100000000000017251800000000000000009999123100000010000000000000BRAGXYACNOR4103
012024082602AHEB3       010SPTURIS     ON           R$  000000000350000000000035000000000003500000000000350000000000035000000000003000000000000400000002000000000000000400000000000001400000000000000000009999123100000010000000000000BRAHEBACNOR0106
012024082602ALLD3       010ALLIED      ON      NM   R$  000000000077200000000007830000000000760000000000077100000000007700000000000770000000000077100317000000000000061600000000000047503800000000000000009999123100000010000000000000BRALLDACNOR3106
012024082602ALOS3       010ALLOS       ON      NM   R$  000000000239300000000024040000000002374000000000239000000000023930000000002389000000000239308077000000000002952500000000007056979200000000000000009999123100000010000000000000BRALOSACNOR5101
012024082602ALPA3       010ALPARGATAS  ON      N1   R$  000000000076700000000007800000000000767000000000077200000000007710000000000771000000000078800006000000000000001200000000000000926600000000000000009999123100000010000000000000BRALPAACNOR0231
012024082602ALPA4       010ALPARGATAS  PN      N1   R$  000000000082500000000008270000000000813000000000082000000000008180000000000818000000000082104732000000000001631600000000001338729700000000000000009999123100000010000000000000BRALPAACNPR7232
012024082602CEAB3       010CEA MODAS   ON      NM   R$  000000000103700000000010390000000000986000000000100200000000010100000000001009000000000101404872000000000002395100000000002401449300000000000000009999123100000010000000000000BRCEABACNOR1102
012024082602CEBR3       010CEB         ON           R$  000000000197700000000020010000000001977000000000199900000000019990000000001970000000000200000024000000000000003300000000000006598800000000000000009999123100000010000000000000BRCEBRACNOR5125
012024082602CEBR5       010CEB         PNA          R$  000000000167000000000016770000000001664000000000166800000000016700000000001664000000000167000033000000000000015300000000000025529800000000000000009999123100000010000000000000BRCEBRACNPA8124
012024082602CEBR6       010CEB         PNB          R$  000000000185000000000018580000000001791000000000181400000000017910000000001791000000000181000031000000000000008700000000000015782200000000000000009999123100000010000000000000BRCEBRACNPB6124
012024082602CEDO3       010CEDRO       ON      N1   R$  000000000261100000000026110000000002611000000000261100000000026110000000001537000000000290000001000000000000000100000000000000261100000000000000009999123100000010000000000000BRCEDOACNOR8096
012024082602CEDO4       010CEDRO       PN      N1   R$  000000000250800000000025080000000002457000000000248200000000024570000000002457000000000250800002000000000000000200000000000000496500000000000000009999123100000010000000000000BRCEDOACNPR5128
012024082602CEEB3       010COELBA      ON           R$  000000000390100000000039690000000003901000000000394200000000039310000000003930000000000396600011000000000000001100000000000004337000000000000000009999123100000010000000000000BRCEEBACNOR3199
012024082602CGAS5       010COMGAS      PNA          R$  000000001178400000000118000000000011784000000001179500000000117990000000011784000000001199000004000000000000000400000000000004718200000000000000009999123100000010000000000000BRCGASACNPA3161
012024082602CGRA3       010GRAZZIOTIN  ON           R$  000000000251600000000025500000000002516000000000252700000000025500000000002550000000000256600007000000000000001700000000000004296700000000000000009999123100000010000000000000BRCGRAACNOR2083
012024082602ZAMP3       010ZAMP S.A.   ON           R$  000000000034800000000003480000000000335000000000033600000000003350000000000335000000000033602911000000000000676700000000000227949500000000000000009999123100000010000000000000BRZAMPACNOR5101
012024082602PFRM3       010PROFARMA    ON      NM   R$  000000000064400000000006500000000000627000000000063500000000006350000000000628000000000063500555000000000000117900000000000074909400000000000000009999123100000010000000000000BRPFRMACNOR1116
012024082602PGMN3       010PAGUE MENOS ON      NM   R$  000000000033800000000003380000000000326000000000032800000000003300000000000330000000000033102464000000000000602900000000000198324100000000000000009999123100000010000000000000BRPGMNACNOR8103
012024082602SOJA3       010BOA SAFRA   ON      NM   R$  000000000133500000000013490000000001309000000000132800000000013410000000001340000000000134102983000000000000736500000000000978156100000000000000009999123100000010000000000000BRSOJAACNOR9105
012024082602SRNA3       010SERENA      ON      NM   R$  000000000087600000000008820000000000868000000000087100000000008700000000000870000000000087802538000000000001531900000000001335641600000000000000009999123100000010000000000000BRSRNAACNOR4100
012024082602STBP3       010SANTOS BRP  ON      NM   R$  000000000133100000000013420000000001300000000000132500000000013230000000001322000000000132410310000000000003423600000000004536876900000000000000009999123100000010000000000000BRSTBPACNOR3131
012024082602PTBL3       010PORTOBELLO  ON      NM   R$  000000000052800000000005280000000000498000000000050800000000005090000000000509000000000051501341000000000000484700000000000246629200000000000000009999123100000010000000000000BRPTBLACNOR8132
012024082602PTNT3       010PETTENATI   ON           R$  000000000092100000000009210000000000899000000000090700000000009130000000000898000000000091300016000000000000001800000000000001632800000000000000009999123100000010000000000000BRPTNTACNOR6042
012024082602PTNT4       010PETTENATI   PN           R$  000000000063000000000006500000000000622000000000063900000000006500000000000650000000000066800032000000000000012400000000000007935100000000000000009999123100000010000000000000BRPTNTACNPR3047
012024082602LOGG3       010LOG COM PROPON      NM   R$  000000000245700000000024670000000002424000000000243900000000024340000000002430000000000243401796000000000000232100000000000566171400000000000000009999123100000010000000000000BRLOGGACNOR7107
012024082602LOGN3       010LOG-IN      ON      NM   R$  000000000362100000000037120000000003620000000000367400000000037090000000003690000000000370900067000000000000014600000000000053643700000000000000009999123100000010000000000000BRLOGNACNOR3105
012024082602LPSB3       010LOPES BRASILON      NM   R$  000000000017900000000001790000000000175000000000017700000000001770000000000176000000000017800100000000000000080100000000000014187500000000000000009999123100000010000000000000BRLPSBACNOR0114
012024082602LREN3       010LOJAS RENNERON      NM   R$  000000000178000000000017830000000001720000000000175100000000017700000000001765000000000177125929000000000020264600000000035491596900000000000000009999123100000010000000000000BRLRENACNOR1221
012024082602ONCO3       010ONCOCLINICASON      NM   R$  000000000061500000000006460000000000603000000000063100000000006430000000000641000000000064305279000000000003612000000000002281466900000000000000009999123100000010000000000000BRONCOACNOR6101
012024082602OPCT3       010OCEANPACT   ON      NM   R$  000000000063200000000006360000000000621000000000062700000000006320000000000627000000000063303710000000000000776400000000000487522700000000000000009999123100000010000000000000BROPCTACNOR0100
012024082602ORVR3       010ORIZON      ON      NM   R$  000000000464400000000046700000000004581000000000462800000000046560000000004649000000000465603717000000000000618500000000002862892600000000000000009999123100000010000000000000BRORVRACNOR0101
012024082602PATI3       010PANATLANTICAON           R$  000000000353500000000040500000000003535000000000386500000000040150000000003801000000000401500027000000000000005000000000000019327800000000000000009999123100000010000000000000BRPATIACNOR6065
012024082602PATI4       010PANATLANTICAPN           R$  000000000360000000000036000000000003500000000000354000000000035000000000003551000000000419000003000000000000000500000000000001770000000000000000009999123100000010000000000000BRPATIACNPR3065
012024082602QUAL3       010QUALICORP   ON      NM   R$  000000000019700000000002060000000000194000000000020000000000002020000000000202000000000020304872000000000005223700000000001049834900000000000000009999123100000010000000000000BRQUALACNOR6120
012024082602RADL3       010RAIADROGASILON      NM   R$  000000000279500000000028000000000002760000000000277800000000027730000000002771000000000277408364000000000002109200000000005859461700000000000000009999123100000010000000000000BRRADLACNOR0157
012024082602EMAE4       010EMAE        PN           R$  000000000416400000000041640000000004101000000000413200000000041400000000004126000000000419200007000000000000000900000000000003719600000000000000009999123100000010000000000000BREMAEACNPR1125
012024082602EMBR3       010EMBRAER     ON      NM   R$  000000000461600000000046490000000004572000000000462000000000046270000000004623000000000462815081000000000003333000000000015400066200000000000000009999123100000010000000000000BREMBRACNOR4191
012024082602SCAR3       010SAO CARLOS  ON      NM   R$  000000000232500000000023250000000002285000000000229900000000023070000000002288000000000230700054000000000000015000000000000034497400000000000000009999123100000010000000000000BRSCARACNOR7131
012024082602SEER3       010SER EDUCA   ON      NM   R$  000000000062500000000006250000000000600000000000060700000000006030000000000603000000000060500949000000000000218000000000000132512000000000000000009999123100000010000000000000BRSEERACNOR5119
012024082602SEQL3       010SEQUOIA LOG ON      NM   R$  000000000062200000000006230000000000578000000000059600000000005910000000000591000000000059401585000000000000639000000000000380860800000000000000009999123100000010000000000000BRSEQLACNOR2103
012024082602SHOW3       010TIME FOR FUNON      NM   R$  000000000011900000000001220000000000113000000000011700000000001150000000000114000000000011500407000000000000281800000000000033074900000000000000009999123100000010000000000000BRSHOWACNOR7105
012024082602SHUL4       010SCHULZ      PN           R$  000000000068100000000006810000000000659000000000066400000000006670000000000667000000000066900816000000000000223700000000000148651400000000000000009999123100000010000000000000BRSHULACNPR4156
012024082602SIMH3       010SIMPAR      ON      NM   R$  000000000069200000000006960000000000674000000000068400000000006830000000000682000000000068706749000000000002564300000000001754368600000000000000009999123100000010000000000000BRSIMHACNOR0107
012024082602SLCE3       010SLC AGRICOLAON      NM   R$  000000000179500000000018030000000001777000000000179200000000017980000000001796000000000180004988000000000001314100000000002355714700000000000000009999123100000010000000000000BRSLCEACNOR2125
012024082602KRSA3       010KORA SAUDE  ON      NM   R$  000000000005800000000000590000000000058000000000005800000000000590000000000058000000000005900062000000000000146100000000000008560900000000000000009999123100000010000000000000BRKRSAACNOR0100
012024082602BBSE3       010BBSEGURIDADEON  ED  NM   R$  000000000369900000000037270000000003648000000000368200000000036640000000003663000000000366615286000000000003094900000000011398026100000000000000009999123100000010000000000000BRBBSEACNOR5125
012024082602CPFE3       010CPFL ENERGIAON      NM   R$  000000000337800000000033970000000003359000000000337600000000033830000000003372000000000338409160000000000001432700000000004837172800000000000000009999123100000010000000000000BRCPFEACNOR0137
012024082602EKTR4       010ELEKTRO     PN           R$  000000000426000000000043140000000004214000000000427300000000043000000000004215000000000431000019000000000000002300000000000009829600000000000000009999123100000010000000000000BREKTRACNPR7164
012024082602ELET3       010ELETROBRAS  ON      N1   R$  000000000419400000000042130000000004151000000000418600000000041880000000004187000000000418916781000000000007476600000000031303579700000000000000009999123100000010000000000000BRELETACNOR6160
012024082602ELET6       010ELETROBRAS  PNB     N1   R$  000000000464800000000046730000000004624000000000464300000000046360000000004636000000000464704425000000000000761300000000003535037300000000000000009999123100000010000000000000BRELETACNPB7077
012024082602HBOR3       010HELBOR      ON      NM   R$  000000000021600000000002190000000000210000000000021400000000002140000000000213000000000021400522000000000000356900000000000076548200000000000000009999123100000010000000000000BRHBORACNOR3118
012024082602HBRE3       010HBR REALTY  ON      NM   R$  000000000053200000000005330000000000518000000000052100000000005210000000000520000000000052100592000000000000258000000000000134661100000000000000009999123100000010000000000000BRHBREACNOR4100
012024082602HBSA3       010HIDROVIAS   ON      NM   R$  000000000038000000000003800000000000363000000000036700000000003630000000000363000000000036504883000000000001795200000000000659486900000000000000009999123100000010000000000000BRHBSAACNOR0100
012024082602ODPV3       010ODONTOPREV  ON  ED  NM   R$  000000000118500000000011850000000001153000000000116000000000011620000000001157000000000116203053000000000000628100000000000729116700000000000000009999123100000010000000000000BRODPVACNOR4203
012024082602OFSA3       010OUROFINO S/AON      NM   R$  000000000223100000000022690000000002231000000000224700000000022500000000002250000000000229900008000000000000000900000000000002022300000000000000009999123100000010000000000000BROFSAACNOR7118
012024082602PETZ3       010PETZ        ON      NM   R$  000000000053000000000005350000000000516000000000052600000000005260000000000526000000000052718073000000000021505700000000011328927200000000000000009999123100000010000000000000BRPETZACNOR2110
012024082602RCSL3       010RECRUSUL    ON           R$  000000000035900000000003910000000000358000000000037300000000003800000000000380000000000038502995000000000001091800000000000408271600000000000000009999123100000010000000000000BRRCSLACNOR4134
012024082602RCSL4       010RECRUSUL    PN           R$  000000000008500000000000870000000000084000000000008500000000000870000000000085000000000008600491000000000000264700000000000022633600000000000000009999123100000010000000000000BRRCSLACNPR1134
012024082602RDNI3       010RNI         ON      NM   R$  000000000032700000000003330000000000327000000000033000000000003300000000000328000000000033300006000000000000000600000000000000198300000000000000009999123100000010000000000000BRRDNIACNOR9116
012024082602RDOR3       010REDE D OR   ON      NM   R$  000000000337500000000033860000000003330000000000335500000000033530000000003349000000000335414810000000000004010100000000013455989200000000000000009999123100000010000000000000BRRDORACNOR8113
012024082602RECV3       010PETRORECSA  ON      NM   R$  000000000218100000000021930000000002153000000000217500000000021630000000002163000000000217004672000000000000935200000000002034208000000000000000009999123100000010000000000000BRRECVACNOR3107
012024082602REDE3       010REDE ENERGIAON           R$  000000000069500000000007070000000000695000000000070200000000007000000000000695000000000069900020000000000000004300000000000003019400000000000000009999123100000010000000000000BRREDEACNOR7128
012024082602RENT3       010LOCALIZA    ON      NM   R$  000000000424300000000042850000000004200000000000423500000000042280000000004226000000000423218080000000000005016100000000021243443800000000000000009999123100000010000000000000BRRENTACNOR4196
012024082602SYNE3       010SYN PROP TECON  ED  NM   R$  000000000082700000000008500000000000819000000000083000000000008200000000000819000000000082001618000000000000733000000000000609046400000000000000009999123100000010000000000000BRSYNEACNOR2103
012024082602TAEE11      010TAESA       UNT EDJ N2   R$  000000000357500000000035810000000003536000000000355100000000035410000000003540000000000354609922000000000002684500000000009534651100000000000000009999123100000010000000000000BRTAEECDAM10148
012024082602TAEE3       010TAESA       ON  EDJ N2   R$  000000000118600000000011860000000001170000000000117600000000011720000000001171000000000117600491000000000000093400000000000109861300000000000000009999123100000010000000000000BRTAEEACNOR9148
012024082602TAEE4       010TAESA       PN  EDJ N2   R$  000000000119600000000011980000000001184000000000118800000000011850000000001185000000000118700690000000000000193700000000000230288300000000000000009999123100000010000000000000BRTAEEACNPR6148
012024082602HYPE3       010HYPERA      ON      NM   R$  000000000310300000000031140000000003049000000000306500000000030750000000003059000000000307812231000000000002261800000000006933423100000000000000009999123100000010000000000000BRHYPEACNOR0143
012024082602JSLG3       010JSL         ON      NM   R$  000000000096800000000009980000000000963000000000097400000000009750000000000969000000000097503825000000000001178700000000001148402100000000000000009999123100000010000000000000BRJSLGACNOR2121
012024082602CGRA4       010GRAZZIOTIN  PN           R$  000000000260500000000026190000000002566000000000259300000000025770000000002577000000000261800025000000000000002600000000000006744200000000000000009999123100000010000000000000BRCGRAACNPR9083
012024082602CIEL3       010CIELO       ON           R$  000000000058200000000005830000000000582000000000058200000000005830000000000582000000000058301184000000000003880800000000002259584500000000000000009999123100000010000000000000BRCIELACNOR3157
012024082602CLSA3       010CLEARSALE   ON      NM   R$  000000000072800000000007280000000000705000000000071300000000007190000000000711000000000071902885000000000001261500000000000899957100000000000000009999123100000010000000000000BRCLSAACNOR0100
012024082602CLSC3       010CELESC      ON      N2   R$  000000000720700000000072070000000007206000000000720600000000072060000000007174000000000820200003000000000000000500000000000003603100000000000000009999123100000010000000000000BRCLSCACNOR6152
012024082602CLSC4       010CELESC      PN      N2   R$  000000000783500000000080010000000007799000000000786100000000078100000000007806000000000786800049000000000000005900000000000046382000000000000000009999123100000010000000000000BRCLSCACNPR3131
012024082602CMIG3       010CEMIG       ON  ED  N1   R$  000000000139200000000013920000000001365000000000137900000000013810000000001381000000000138600924000000000000178600000000000246382700000000000000009999123100000010000000000000BRCMIGACNOR6243
012024082602CMIG4       010CEMIG       PN  ED  N1   R$  000000000114600000000011560000000001122000000000114600000000011500000000001150000000000115220464000000000015075100000000017278316900000000000000009999123100000010000000000000BRCMIGACNPR3244
012024082602DASA3       010DASA        ON      NM   R$  000000000033400000000003380000000000325000000000033000000000003300000000000328000000000033001974000000000000868300000000000286839500000000000000009999123100000010000000000000BRDASAACNOR1122
012024082602DESK3       010DESKTOP     ON      NM   R$  000000000160800000000016280000000001490000000000153800000000015140000000001514000000000152503138000000000001053100000000001619757600000000000000009999123100000010000000000000BRDESKACNOR2104
012024082602DEXP3       010DEXXOS PAR  ON      N1   R$  000000000097500000000010010000000000975000000000098900000000009800000000000979000000000098000443000000000000119900000000000118695000000000000000009999123100000010000000000000BRDEXPACNOR1105
012024082602DEXP4       010DEXXOS PAR  PN      N1   R$  000000000096000000000009600000000000938000000000095500000000009380000000000938000000000095000074000000000000055900000000000053390000000000000000009999123100000010000000000000BRDEXPACNPR8105
012024082602DIRR3       010DIRECIONAL  ON      NM   R$  000000000290000000000029250000000002835000000000286500000000028650000000002864000000000286905343000000000001039000000000002976942300000000000000009999123100000010000000000000BRDIRRACNOR0118
012024082602DMVF3       010D1000VFARMA ON      NM   R$  000000000075000000000007560000000000729000000000073800000000007390000000000731000000000073900337000000000000069200000000000051112900000000000000009999123100000010000000000000BRDMVFACNOR9100
012024082602DOHL4       010DOHLER      PN           R$  000000000040400000000004160000000000403000000000040600000000004160000000000403000000000041600003000000000000000400000000000000162600000000000000009999123100000010000000000000BRDOHLACNPR9066
012024082602DOTZ3       010DOTZ SA     ON      NM   R$  000000000081800000000008300000000000759000000000078800000000007590000000000758000000000079400058000000000000010800000000000008516100000000000000009999123100000010000000000000BRDOTZACNOR7101
012024082602DTCY3       010DTCOM-DIRECTON           R$  000000000045100000000004510000000000451000000000045100000000004510000000000450000000000048900002000000000000000500000000000000225500000000000000009999123100000010000000000000BRDTCYACNOR5109
012024082602DXCO3       010DEXCO       ON      NM   R$  000000000084400000000008550000000000826000000000083800000000008370000000000837000000000084006996000000000002479300000000002078688200000000000000009999123100000010000000000000BRDXCOACNOR8105
012024082602GGPS3       010GPS         ON      NM   R$  000000000175800000000017670000000001740000000000175700000000017580000000001758000000000176704587000000000001946400000000003421242000000000000000009999123100000010000000000000BRGGPSACNOR9103
012024082602GMAT3       010GRUPO MATEUSON      NM   R$  000000000080100000000008110000000000794000000000080400000000008010000000000800000000000080306168000000000002356400000000001894733300000000000000009999123100000010000000000000BRGMATACNOR7102
012024082602GOAU3       010GERDAU MET  ON      N1   R$  000000000107200000000010840000000001068000000000107800000000010790000000001076000000000108300151000000000000050500000000000054443100000000000000009999123100000010000000000000BRGOAUACNOR1268
012024082602GOAU4       010GERDAU MET  PN      N1   R$  000000000106300000000010690000000001052000000000106300000000010620000000001062000000000106506148000000000006005500000000006384455900000000000000009999123100000010000000000000BRGOAUACNPR8269
012024082602JALL3       010JALLESMACHADON      NM   R$  000000000068700000000007020000000000679000000000069200000000006990000000000698000000000070001476000000000000934500000000000647537100000000000000009999123100000010000000000000BRJALLACNOR0106
012024082602JBSS3       010JBS         ON  ED  NM   R$  000000000349300000000035240000000003437000000000348800000000035000000000003499000000000350022952000000000008305200000000028971965500000000000000009999123100000010000000000000BRJBSSACNOR8122
012024082602MRFG3       010MARFRIG     ON      NM   R$  000000000145500000000014620000000001431000000000144400000000014470000000001447000000000144810502000000000002845700000000004111538100000000000000009999123100000010000000000000BRMRFGACNOR0116
012024082602MRVE3       010MRV         ON      NM   R$  000000000075600000000007590000000000741000000000074700000000007500000000000750000000000075108071000000000006720000000000005022903400000000000000009999123100000010000000000000BRMRVEACNOR2127
012024082602AALR3       010ALLIAR      ON      NM   R$  000000000149800000000015250000000001406000000000150000000000015200000000001486000000000152000244000000000000155000000000000232531800000000000000009999123100000010000000000000BRAALRACNOR6102
012024082602ABCB4       010ABC BRASIL  PN      N2   R$  000000000236400000000023740000000002335000000000234200000000023670000000002357000000000236703981000000000002698500000000006322269900000000000000009999123100000010000000000000BRABCBACNPR4146
012024082602ABEV3       010AMBEV S/A   ON           R$  000000000131100000000013220000000001301000000000131100000000013080000000001308000000000130918138000000000020467700000000026844805900000000000000009999123100000010000000000000BRABEVACNOR1128
012024082602BBDC3       010BRADESCO    ON      N1   R$  000000000141800000000014180000000001405000000000141000000000014130000000001411000000000141311635000000000004098300000000005782115900000000000000009999123100000010000000000000BRBBDCACNOR1773
012024082602BBDC4       010BRADESCO    PN      N1   R$  000000000156600000000015690000000001557000000000156000000000015610000000001560000000000156124026000000000013905900000000021706718700000000000000009999123100000010000000000000BRBBDCACNPR8773
012024082602FLRY3       010FLEURY      ON  EJ  NM   R$  000000000159500000000016070000000001585000000000160000000000016020000000001601000000000160506804000000000001515800000000002425436400000000000000009999123100000010000000000000BRFLRYACNOR5139
012024082602ITUB3       010ITAUUNIBANCOON      N1   R$  000000000317800000000031780000000003145000000000315900000000031590000000003158000000000316001677000000000000410000000000001295407600000000000000009999123100000010000000000000BRITUBACNOR4339
012024082602ITUB4       010ITAUUNIBANCOPN      N1   R$  000000000365300000000036640000000003626000000000364700000000036540000000003651000000000365519892000000000014399100000000052520534600000000000000009999123100000010000000000000BRITUBACNPR1339
012024082602BAHI3       010BAHEMA      ON      MA   R$  000000000070400000000007040000000000685000000000070100000000006850000000000675000000000069700005000000000000003100000000000002173200000000000000009999123100000010000000000000BRBAHIACNOR1074
012024082602BAZA3       010AMAZONIA    ON           R$  000000000959300000000096860000000009593000000000961900000000095990000000009488000000000969000010000000000000001300000000000012505300000000000000009999123100000010000000000000BRBAZAACNOR0179
012024082602BBAS3       010BRASIL      ON  EX  NM   R$  000000000282200000000028450000000002810000000000283300000000028330000000002833000000000283618791000000000009358000000000026511897600000000000000009999123100000010000000000000BRBBASACNOR3325
012024082602BIOM3       010BIOMM       ON      MA   R$  000000000081200000000008300000000000781000000000081000000000008100000000000810000000000082000585000000000000152900000000000123933900000000000000009999123100000010000000000000BRBIOMACNOR2112
012024082602BLAU3       010BLAU        ON      NM   R$  000000000137300000000013730000000001247000000000130700000000013200000000001317000000000132702801000000000000518600000000000678073200000000000000009999123100000010000000000000BRBLAUACNOR8114
012024082602BMEB3       010MERCANTIL   ON      N1   R$  000000000355100000000036000000000003550000000000355900000000036000000000003551000000000360000008000000000000002600000000000009255000000000000000009999123100000010000000000000BRBMEBACNOR8206
012024082602BMEB4       010MERCANTIL   PN      N1   R$  000000000388500000000039710000000003879000000000392200000000038910000000003880000000000394500056000000000000013100000000000051379200000000000000009999123100000010000000000000BRBMEBACNPR5211
012024082602BMGB4       010BANCO BMG   PN      N1   R$  000000000038000000000003950000000000379000000000038800000000003950000000000390000000000039503152000000000001114400000000000432424900000000000000009999123100000010000000000000BRBMGBACNPR0110
012024082602BMIN4       010MERC INVEST PN           R$  000000000167000000000016700000000001670000000000167000000000016700000000001600000000000166500001000000000000000100000000000000167000000000000000009999123100000010000000000000BRBMINACNPR1176
012024082602BMKS3       010BIC MONARK  ON           R$  000000003149900000000315000000000030353000000003130400000000314990000000030805000000003149900011000000000000000047000000000001471310000000000000009999123100000010000000000000BRBMKSACNOR9166
012024082602BMOB3       010BEMOBI TECH ON      NM   R$  000000000162900000000016400000000001609000000000161700000000016170000000001617000000000162001144000000000000167500000000000270947500000000000000009999123100000010000000000000BRBMOBACNOR7103
012024082602BNBR3       010NORD BRASIL ON           R$  000000001138800000000113880000000010901000000001119200000000109010000000010903000000001136900006000000000000000600000000000006715300000000000000009999123100000010000000000000BRBNBRACNOR8208
012024082602BOBR4       010BOMBRIL     PN           R$  000000000021500000000002150000000000212000000000021300000000002130000000000212000000000021300007000000000000000900000000000000191800000000000000009999123100000010000000000000BRBOBRACNPR3128
012024082602BRBI11      010BR PARTNERS UNT     N2   R$  000000000153800000000015610000000001512000000000153400000000015240000000001524000000000153101342000000000000289500000000000444291900000000000000009999123100000010000000000000BRBRBICDAM10110
012024082602BRFS3       010BRF SA      ON      NM   R$  000000000250900000000025390000000002480000000000251500000000025300000000002529000000000253018200000000000006327500000000015916781500000000000000009999123100000010000000000000BRBRFSACNOR8122
012024082602BRIT3       010BRISANET    ON      NM   R$  000000000035600000000003640000000000352000000000035700000000003550000000000355000000000035600754000000000000471100000000000168394000000000000000009999123100000010000000000000BRBRITACNOR0103
012024082602BRKM3       010BRASKEM     ON      N1   R$  000000000176500000000018170000000001764000000000177800000000017660000000001766000000000179500048000000000000011500000000000020456200000000000000009999123100000010000000000000BRBRKMACNOR1119
012024082602BRKM5       010BRASKEM     PNA     N1   R$  000000000176100000000018000000000001729000000000177400000000017740000000001773000000000177505384000000000001600000000000002839885900000000000000009999123100000010000000000000BRBRKMACNPA4121
012024082602CSRN3       010COSERN      ON           R$  000000000130800000000013500000000001308000000000132400000000013500000000001350000000000135800043000000000000008800000000000011657000000000000000009999123100000010000000000000BRCSRNACNOR0194
012024082602CSUD3       010CSU DIGITAL ON      NM   R$  000000000188500000000018850000000001861000000000186700000000018660000000001865000000000187100118000000000000030300000000000056590700000000000000009999123100000010000000000000BRCSUDACNOR5110
012024082602CTKA4       010KARSTEN     PN           R$  000000000186000000000020450000000001860000000000191000000000020450000000001860000000000206700003000000000000000600000000000001146400000000000000009999123100000010000000000000BRCTKAACNPR7043
012024082602CURY3       010CURY S/A    ON      NM   R$  000000000240200000000024160000000002340000000000236700000000023630000000002363000000000236707567000000000001221800000000002893000300000000000000009999123100000010000000000000BRCURYACNOR3109
012024082602CVCB3       010CVC BRASIL  ON      NM   R$  000000000022300000000002240000000000203000000000020700000000002070000000000207000000000020817248000000000039529700000000008210090100000000000000009999123100000010000000000000BRCVCBACNOR1116
012024082602ENJU3       010ENJOEI      ON      NM   R$  000000000017700000000001820000000000172000000000017400000000001730000000000173000000000017401964000000000000758700000000000132264400000000000000009999123100000010000000000000BRENJUACNOR9100
012024082602ENMT3       010ENERGISA MT ON           R$  000000000805200000000083990000000008050000000000820000000000083990000000005000000000000850000008000000000000000800000000000006560200000000000000009999123100000010000000000000BRENMTACNOR5121
012024082602EPAR3       010EMBPAR S/A  ON           R$  000000000058800000000005930000000000587000000000058900000000005880000000000589000000000059400013000000000000006500000000000003833600000000000000009999123100000010000000000000BREPARACNOR9105
012024082602EQMA3B      010EQTLMARANHAOON      MB   R$  000000000250000000000025000000000002460000000000246100000000024600000000002465000000000254900003000000000000010500000000000025850000000000000000009999123100000010000000000000BREQMAACNOR8108
012024082602EQPA3       010EQTL PARA   ON           R$  000000000062900000000006290000000000592000000000060100000000005940000000000591000000000059400207000000000000271400000000000163169100000000000000009999123100000010000000000000BREQPAACNOR1111
012024082602EQTL3       010EQUATORIAL  ON  ES  NM   R$  000000000354600000000035460000000003460000000000347800000000034730000000003473000000000347421343000000000005921400000000020595099200000000000000009999123100000010000000000000BREQTLACNOR0131
012024082602ESPA3       010ESPACOLASER ON      NM   R$  000000000010900000000001100000000000105000000000010700000000001090000000000107000000000010900196000000000000334500000000000036102400000000000000009999123100000010000000000000BRESPAACNOR7103
012024082602LUPA3       010LUPATECH    ON      NM   R$  000000000015900000000001610000000000157000000000015900000000001590000000000158000000000015900067000000000000033900000000000005402700000000000000009999123100000010000000000000BRLUPAACNOR8112
012024082602LVTC3       010WDC NETWORKSON      NM   R$  000000000038100000000003930000000000376000000000038000000000003760000000000376000000000038600062000000000000012900000000000004914800000000000000009999123100000010000000000000BRLVTCACNOR4102
012024082602LWSA3       010LWSA        ON      NM   R$  000000000048200000000004900000000000468000000000047600000000004780000000000477000000000047808256000000000006047900000000002882073900000000000000009999123100000010000000000000BRLWSAACNOR8103
012024082602AZZA3       010AZZAS 2154  ON      NM   R$  000000000527700000000052950000000005154000000000521900000000052590000000005253000000000525904107000000000000863200000000004505843600000000000000009999123100000010000000000000BRAZZAACNOR9100
012024082602YDUQ3       010YDUQS PART  ON      NM   R$  000000000103200000000010340000000001006000000000102000000000010250000000001023000000000102505601000000000001750000000000001786530400000000000000009999123100000010000000000000BRYDUQACNOR3105
012024082602TASA3       010TAURUS ARMASON      N2   R$  000000000113000000000011340000000001120000000000112600000000011210000000001120000000000112900045000000000000007100000000000008001400000000000000009999123100000010000000000000BRTASAACNOR7104
012024082602TASA4       010TAURUS ARMASPN      N2   R$  000000000112300000000011280000000001110000000000111700000000011140000000001114000000000112000911000000000000152300000000000170235700000000000000009999123100000010000000000000BRTASAACNPR4104
012024082602VAMO3       010VAMOS       ON      NM   R$  000000000083000000000008340000000000810000000000082400000000008300000000000829000000000083010472000000000004582400000000003778349300000000000000009999123100000010000000000000BRVAMOACNOR7105
012024082602VBBR3       010VIBRA       ON      NM   R$  000000000256900000000025690000000002508000000000253700000000025570000000002541000000000255822698000000000006780000000000017201410300000000000000009999123100000010000000000000BRVBBRACNOR1108
012024082602VITT3       010VITTIA      ON      NM   R$  000000000062900000000006400000000000623000000000062700000000006280000000000628000000000062901526000000000000334700000000000210109400000000000000009999123100000010000000000000BRVITTACNOR4107
012024082602VIVA3       010VIVARA S.A. ON      NM   R$  000000000273300000000027650000000002665000000000269200000000026880000000002687000000000269410038000000000002932900000000007897261200000000000000009999123100000010000000000000BRVIVAACNOR0107
012024082602RAIZ4       010RAIZEN      PN      N2   R$  000000000032500000000003320000000000320000000000032800000000003300000000000330000000000033108514000000000013657200000000004483342300000000000000009999123100000010000000000000BRRAIZACNPR6111
012024082602RANI3       010IRANI       ON      NM   R$  000000000081700000000008170000000000805000000000080800000000008060000000000805000000000080702937000000000001100100000000000888976200000000000000009999123100000010000000000000BRRANIACNOR5073
012024082602RAPT3       010RANDON PART ON      N1   R$  000000000090400000000009120000000000897000000000090200000000008970000000000897000000000090700138000000000000036400000000000032844200000000000000009999123100000010000000000000BRRAPTACNOR7163
012024082602RAPT4       010RANDON PART PN      N1   R$  000000000112800000000011500000000001126000000000113700000000011350000000001135000000000113604230000000000001042500000000001185553200000000000000009999123100000010000000000000BRRAPTACNPR4163
012024082602SUZB3       010SUZANO S.A. ON      NM   R$  000000000562000000000056380000000005506000000000554600000000055180000000005514000000000551822937000000000006137000000000034036727000000000000000009999123100000010000000000000BRSUZBACNOR0130
012024082602RAIL3       010RUMO S.A.   ON      NM   R$  000000000234300000000023510000000002272000000000229100000000022920000000002292000000000229525207000000000013842700000000031726677900000000000000009999123100000010000000000000BRRAILACNOR9105
012024082602SMFT3       010SMART FIT   ON      NM   R$  000000000233500000000023520000000002311000000000232200000000023120000000002312000000000232905414000000000001106900000000002571223900000000000000009999123100000010000000000000BRSMFTACNOR1112
012024082602SMTO3       010SAO MARTINHOON      NM   R$  000000000293000000000031070000000002919000000000303300000000030400000000003040000000000305408840000000000002283400000000006927194100000000000000009999123100000010000000000000BRSMTOACNOR3127
012024082602SNSY3       010SANSUY      ON           R$  000000000128900000000012890000000001289000000000128900000000012890000000001230000000000128500001000000000000000500000000000000644500000000000000009999123100000010000000000000BRSNSYACNOR2113
012024082602SNSY5       010SANSUY      PNA          R$  000000000056300000000005640000000000540000000000054100000000005400000000000540000000000054800024000000000000026300000000000014229500000000000000009999123100000010000000000000BRSNSYACNPA5111
012024082602TRPL4       010TRAN PAULISTPN      N1   R$  000000000251600000000025200000000002473000000000248800000000024810000000002481000000000248707846000000000002062700000000005133731300000000000000009999123100000010000000000000BRTRPLACNPR1185
012024082602VIVR3       010VIVER       ON      NM   R$  000000000025200000000002620000000000247000000000025200000000002490000000000248000000000024900134000000000000070600000000000017833000000000000000009999123100000010000000000000BRVIVRACNOR4123
012024082602VIVT3       010TELEF BRASILON           R$  000000000531700000000053390000000005221000000000525700000000052390000000005238000000000524508522000000000001368200000000007193035100000000000000009999123100000010000000000000BRVIVTACNOR0183
012024082602VLID3       010VALID       ON      NM   R$  000000000222600000000022500000000002202000000000222500000000022500000000002248000000000225002036000000000000456700000000001016175400000000000000009999123100000010000000000000BRVLIDACNOR5144
012024082602VSTE3       010VESTE       ON      NM   R$  000000000133000000000013350000000001322000000000132600000000013260000000001326000000000133300023000000000000005400000000000007161200000000000000009999123100000010000000000000BRVSTEACNOR5103
012024082602VTRU3       010VITRUEDUCA  ON      NM   R$  000000000102800000000010280000000000979000000000100900000000010120000000001002000000000101400237000000000000039300000000000039660100000000000000009999123100000010000000000000BRVTRUACNOR3100
012024082602VULC3       010VULCABRAS   ON  ED  NM   R$  000000000178100000000018020000000001762000000000177700000000017770000000001777000000000178102160000000000000403200000000000716782500000000000000009999123100000010000000000000BRVULCACNOR2161
012024082602VVEO3       010VIVEO       ON      NM   R$  000000000020500000000002080000000000196000000000020000000000001960000000000196000000000019805271000000000003709800000000000745190600000000000000009999123100000010000000000000BRVVEOACNOR0104
012024082602KEPL3       010KEPLER WEBERON      NM   R$  000000000114900000000011550000000001130000000000114000000000011420000000001142000000000114902822000000000000739500000000000843608000000000000000009999123100000010000000000000BRKEPLACNOR1064
012024082602KLBN11      010KLABIN S/A  UNT     N2   R$  000000000221300000000022180000000002185000000000219800000000022050000000002200000000000220608923000000000002608500000000005734947700000000000000009999123100000010000000000000BRKLBNCDAM18143
012024082602KLBN3       010KLABIN S/A  ON      N2   R$  000000000044800000000004480000000000440000000000044200000000004450000000000442000000000044500540000000000000287300000000000127135900000000000000009999123100000010000000000000BRKLBNACNOR2171
012024082602KLBN4       010KLABIN S/A  PN      N2   R$  000000000044100000000004420000000000436000000000043800000000004400000000000439000000000044001281000000000000755100000000000331225200000000000000009999123100000010000000000000BRKLBNACNPR9171
012024082602PINE3       010PINE        ON      N2   R$  000000000057000000000005700000000000559000000000056700000000005590000000000559000000000056800002000000000000000400000000000000226900000000000000009999123100000010000000000000BRPINEACNOR1150
012024082602PINE4       010PINE        PN      N2   R$  000000000050500000000005060000000000476000000000049300000000004830000000000483000000000048400689000000000000385500000000000190403400000000000000009999123100000010000000000000BRPINEACNPR8150
012024082602PLPL3       010PLANOEPLANO ON      NM   R$  000000000123000000000012300000000001194000000000121100000000012230000000001223000000000122402485000000000000484600000000000586923500000000000000009999123100000010000000000000BRPLPLACNOR5104
012024082602PNVL3       010DIMED       ON      NM   R$  000000000106800000000010680000000001035000000000104600000000010500000000001050000000000105301755000000000000300100000000000313918500000000000000009999123100000010000000000000BRPNVLACNOR9207
012024082602POMO3       010MARCOPOLO   ON      N2   R$  000000000053700000000005520000000000537000000000054800000000005520000000000550000000000055300358000000000000116000000000000063568100000000000000009999123100000010000000000000BRPOMOACNOR0098
012024082602POMO4       010MARCOPOLO   PN      N2   R$  000000000070400000000007050000000000691000000000069700000000006970000000000697000000000069809279000000000005360800000000003739012800000000000000009999123100000010000000000000BRPOMOACNPR7098
012024082602PORT3       010WILSON SONS ON      NM   R$  000000000175300000000017650000000001732000000000175600000000017620000000001755000000000176302570000000000001030800000000001810526300000000000000009999123100000010000000000000BRPORTACNOR8109
012024082602POSI3       010POSITIVO TECON      NM   R$  000000000068800000000006890000000000673000000000067900000000006780000000000678000000000067902092000000000001073600000000000729425900000000000000009999123100000010000000000000BRPOSIACNOR9116
012024082602PRIO3       010PETRORIO    ON      NM   R$  000000000476100000000048490000000004722000000000477100000000047250000000004725000000000474719931000000000007186100000000034287488500000000000000009999123100000010000000000000BRPRIOACNOR1107
012024082602RRRP3       0103R PETROLEUMON      NM   R$  000000000281300000000028590000000002786000000000282800000000028270000000002827000000000282915435000000000005361200000000015162635000000000000000009999123100000010000000000000BRRRRPACNOR5103
012024082602VALE3       010VALE        ON      NM   R$  000000000585000000000058550000000005805000000000583000000000058050000000005805000000000580933643000000000017168700000000100098640400000000000000009999123100000010000000000000BRVALEACNOR0211
012024082602PDTC3       010PADTEC      ON      NM   R$  000000000019300000000002240000000000193000000000020700000000002140000000000214000000000021500316000000000000287000000000000059529700000000000000009999123100000010000000000000BRPDTCACNOR3101
012024082602PETR3       010PETROBRAS   ON  EDJ N2   R$  000000000403800000000043120000000004030000000000424000000000042920000000004291000000000429237960000000000026481400000000112283224100000000000000009999123100000010000000000000BRPETRACNOR9206
012024082602PETR4       010PETROBRAS   PN  EDJ N2   R$  000000000378600000000039610000000003771000000000389800000000039570000000003956000000000395838752000000000102270300000000398649803500000000000000009999123100000010000000000000BRPETRACNPR6214
012024082602RSUL4       010RIOSULENSE  PN           R$  000000000648800000000065910000000006488000000000651400000000064890000000006402000000000649000006000000000000000800000000000005211300000000000000009999123100000010000000000000BRRSULACNPR3114
012024082602PRNR3       010PRINER      ON      NM   R$  000000000144000000000014510000000001333000000000138400000000013960000000001394000000000139602410000000000000582000000000000805819100000000000000009999123100000010000000000000BRPRNRACNOR4109
012024082602PSSA3       010PORTO SEGUROON      NM   R$  000000000341400000000034140000000003377000000000339600000000034000000000003400000000000340205012000000000000802600000000002726083000000000000000009999123100000010000000000000BRPSSAACNOR7155
012024082602SAPR11      010SANEPAR     UNT     N2   R$  000000000290100000000029150000000002846000000000285800000000028500000000002850000000000285904423000000000000749900000000002143575900000000000000009999123100000010000000000000BRSAPRCDAM13118
012024082602SAPR3       010SANEPAR     ON      N2   R$  000000000055500000000005560000000000540000000000054400000000005400000000000540000000000054300501000000000000158900000000000086596100000000000000009999123100000010000000000000BRSAPRACNOR9159
012024082602SAPR4       010SANEPAR     PN      N2   R$  000000000058400000000005850000000000573000000000057600000000005750000000000575000000000057602058000000000001145500000000000660036800000000000000009999123100000010000000000000BRSAPRACNPR6159
012024082602SBFG3       010GRUPO SBF   ON      NM   R$  000000000176600000000017660000000001728000000000174000000000017370000000001732000000000173903825000000000000783800000000001364143000000000000000009999123100000010000000000000BRSBFGACNOR1103
012024082602SBSP3       010SABESP      ON      NM   R$  000000000970100000000098350000000009629000000000967000000000096400000000009638000000000965017658000000000005728300000000055397936800000000000000009999123100000010000000000000BRSBSPACNOR5161
012024082602NEOE3       010NEOENERGIA  ON      NM   R$  000000000201100000000020170000000001953000000000196500000000019560000000001956000000000196503285000000000000976400000000001919188400000000000000009999123100000010000000000000BRNEOEACNOR3123
012024082602ECOR3       010ECORODOVIAS ON      NM   R$  000000000078300000000008020000000000773000000000078100000000007730000000000773000000000077507336000000000002428900000000001898241400000000000000009999123100000010000000000000BRECORACNOR8120
012024082602EGIE3       010ENGIE BRASILON  ED  NM   R$  000000000459000000000045900000000004483000000000452000000000045110000000004511000000000451606024000000000001188800000000005373427400000000000000009999123100000010000000000000BREGIEACNOR9127
012024082602MTRE3       010MITRE REALTYON  ED  NM   R$  000000000039300000000003960000000000384000000000038600000000003870000000000387000000000038802383000000000000838900000000000324442000000000000000009999123100000010000000000000BRMTREACNOR6114
012024082602MTSA4       010METISA      PN           R$  000000000432300000000044490000000004323000000000439400000000044490000000004251000000000445000049000000000000007000000000000030761400000000000000009999123100000010000000000000BRMTSAACNPR9072
012024082602MULT3       010MULTIPLAN   ON      N2   R$  000000000268800000000026880000000002644000000000265800000000026740000000002672000000000267408234000000000001834800000000004876957100000000000000009999123100000010000000000000BRMULTACNOR5139
012024082602MYPK3       010IOCHP-MAXIONON      NM   R$  000000000117300000000011780000000001153000000000116100000000011640000000001164000000000116902541000000000000912900000000001060147700000000000000009999123100000010000000000000BRMYPKACNOR7155
012024082602SANB3       010SANTANDER BRON           R$  000000000148400000000015050000000001478000000000149600000000014870000000001487000000000149400907000000000000138800000000000207779200000000000000009999123100000010000000000000BRSANBACNOR8172
012024082602SANB4       010SANTANDER BRPN           R$  000000000163000000000016440000000001618000000000163100000000016300000000001621000000000163000979000000000000141300000000000230592200000000000000009999123100000010000000000000BRSANBACNPR5172
012024082602USIM3       010USIMINAS    ON      N1   R$  000000000064100000000006480000000000633000000000064000000000006460000000000642000000000064600985000000000000304100000000000194624800000000000000009999123100000010000000000000BRUSIMACNOR3167
012024082602USIM5       010USIMINAS    PNA     N1   R$  000000000066600000000006690000000000646000000000065800000000006600000000000660000000000066109916000000000012625300000000008317249400000000000000009999123100000010000000000000BRUSIMACNPA6169
012024082602TTEN3       0103TENTOS     ON      NM   R$  000000000121100000000012240000000001204000000000121600000000012200000000001219000000000122304775000000000000968700000000001177989900000000000000009999123100000010000000000000BRTTENACNOR0103
012024082602TUPY3       010TUPY        ON      NM   R$  000000000277100000000027900000000002748000000000277400000000027810000000002766000000000278202434000000000000345900000000000959844400000000000000009999123100000010000000000000BRTUPYACNOR1184
012024082602SANB11      010SANTANDER BRUNT          R$  000000000312400000000031540000000003090000000000313300000000031280000000003126000000000312909069000000000003518700000000011026068300000000000000009999123100000010000000000000BRSANBCDAM13165
012024082602UCAS3       010UNICASA     ON      NM   R$  000000000022700000000002300000000000223000000000022600000000002300000000000227000000000023000112000000000000019600000000000004439400000000000000009999123100000010000000000000BRUCASACNOR1113
012024082602UGPA3       010ULTRAPAR    ON  ED  NM   R$  000000000238000000000023940000000002360000000000238000000000023740000000002373000000000237413689000000000006092000000000014504943400000000000000009999123100000010000000000000BRUGPAACNOR8156
012024082602UNIP3       010UNIPAR      ON           R$  000000000485800000000048600000000004777000000000481700000000048090000000004791000000000481000069000000000000009700000000000046730300000000000000009999123100000010000000000000BRUNIPACNOR7206
012024082602UNIP6       010UNIPAR      PNB          R$  000000000495900000000049610000000004861000000000489600000000048640000000004864000000000488001481000000000000237500000000001162940900000000000000009999123100000010000000000000BRUNIPACNPB8206
012024082602WEST3       010WESTWING    ON      NM   R$  000000000009000000000000930000000000090000000000009100000000000930000000000091000000000009300037000000000000042600000000000003892200000000000000009999123100000010000000000000BRWESTACNOR3100
012024082602WHRL3       010WHIRLPOOL   ON           R$  000000000042500000000004250000000000425000000000042500000000004250000000000425000000000043400001000000000000000100000000000000042500000000000000009999123100000010000000000000BRWHRLACNOR5128
012024082602WHRL4       010WHIRLPOOL   PN           R$  000000000044900000000004530000000000444000000000044900000000004510000000000448000000000045300013000000000000005900000000000002654900000000000000009999123100000010000000000000BRWHRLACNPR2128
012024082602WIZC3       010WIZ CO      ON      NM   R$  000000000062400000000006300000000000615000000000062100000000006150000000000615000000000061901340000000000000278900000000000173446600000000000000009999123100000010000000000000BRWIZCACNOR5102
012024082602WLMM4       010WLM IND COM PN           R$  000000000368000000000036800000000003633000000000365700000000036330000000003337000000000363000003000000000000000300000000000001097300000000000000009999123100000010000000000000BRWLMMACNPR3119
012024082602EALT3       010ACO ALTONA  ON           R$  000000000140000000000014050000000001365000000000139800000000013900000000001355000000000139000023000000000000003900000000000005454100000000000000009999123100000010000000000000BREALTACNOR4138
012024082602EALT4       010ACO ALTONA  PN           R$  000000000130500000000013280000000001274000000000128600000000012750000000001275000000000128600132000000000000033900000000000043599500000000000000009999123100000010000000000000BREALTACNPR1138
012024082602ROMI3       010ROMI        ON      NM   R$  000000000113000000000011350000000001104000000000111400000000011130000000001106000000000111300950000000000000201600000000000224631200000000000000009999123100000010000000000000BRROMIACNOR8195
012024082602TCSA3       010TECNISA     ON      NM   R$  000000000020000000000002020000000000198000000000019900000000001980000000000198000000000019900169000000000000089600000000000017897500000000000000009999123100000010000000000000BRTCSAACNOR3112
012024082602TECN3       010TECHNOS     ON      NM   R$  000000000057200000000005740000000000552000000000055900000000005560000000000556000000000055900326000000000000126800000000000070941900000000000000009999123100000010000000000000BRTECNACNOR6109
012024082602TELB3       010TELEBRAS    ON           R$  000000000141500000000014150000000001366000000000137500000000013660000000001360000000000138000006000000000000000700000000000000962600000000000000009999123100000010000000000000BRTELBACNOR2140
012024082602TELB4       010TELEBRAS    PN           R$  000000000090500000000009150000000000905000000000091200000000009100000000000896000000000091500007000000000000001200000000000001095400000000000000009999123100000010000000000000BRTELBACNPR9140
012024082602TEND3       010TENDA       ON      NM   R$  000000000140900000000014100000000001335000000000136800000000013850000000001378000000000138506366000000000001771100000000002423138700000000000000009999123100000010000000000000BRTENDACNOR4111
012024082602TFCO4       010TRACK FIELD PN      N2   R$  000000000123000000000012450000000001186000000000120000000000012000000000001192000000000120000457000000000000616900000000000740472100000000000000009999123100000010000000000000BRTFCOACNPR8114
012024082602TGMA3       010TEGMA       ON      NM   R$  000000000264700000000026470000000002574000000000259100000000025820000000002580000000000260200617000000000000081700000000000211750500000000000000009999123100000010000000000000BRTGMAACNOR7145
012024082602TIMS3       010TIM         ON      NM   R$  000000000181400000000018190000000001787000000000180100000000017970000000001796000000000180013345000000000003901100000000007027811700000000000000009999123100000010000000000000BRTIMSACNOR5117
012024082602ALPK3       010ESTAPAR     ON      NM   R$  000000000038700000000003900000000000382000000000038500000000003850000000000383000000000038500279000000000000091800000000000035355700000000000000009999123100000010000000000000BRALPKACNOR9101
012024082602ALUP11      010ALUPAR      UNT ED  N2   R$  000000000317200000000031840000000003125000000000314400000000031400000000003140000000000315004079000000000000686900000000002159970100000000000000009999123100000010000000000000BRALUPCDAM15120
012024082602ALUP3       010ALUPAR      ON  ED  N2   R$  000000000108500000000010900000000001079000000000108100000000010800000000001079000000000108500018000000000000002300000000000002488000000000000000009999123100000010000000000000BRALUPACNOR8120
012024082602ALUP4       010ALUPAR      PN  ED  N2   R$  000000000104600000000010460000000001027000000000103200000000010270000000001026000000000103300062000000000000010800000000000011152100000000000000009999123100000010000000000000BRALUPACNPR5120
012024082602AMAR3       010LOJAS MARISAON      NM   R$  000000000011700000000001200000000000115000000000011700000000001190000000000118000000000011900384000000000000470500000000000055486300000000000000009999123100000010000000000000BRAMARACNOR4115
012024082602AMBP3       010AMBIPAR     ON      NM   R$  000000000871500000000093060000000008600000000000904300000000091830000000009183000000000919002740000000000000544300000000004922286500000000000000009999123100000010000000000000BRAMBPACNOR6103
012024082602ANIM3       010ANIMA       ON      NM   R$  000000000034300000000003460000000000331000000000033700000000003400000000000339000000000034105444000000000004294200000000001448199500000000000000009999123100000010000000000000BRANIMACNOR6109
012024082602APER3       010ALPER S.A.  ON           R$  000000000457800000000046400000000004575000000000458100000000045750000000004575000000000459000018000000000000002200000000000010079000000000000000009999123100000010000000000000BRAPERACNOR9106
012024082602TKNO4       010TEKNO       PN           R$  000000000850000000000085000000000008500000000000850000000000085000000000007700000000000890000001000000000000000100000000000000850000000000000000009999123100000010000000000000BRTKNOACNPR5075
012024082602TOTS3       010TOTVS       ON      NM   R$  000000000314600000000031600000000003098000000000313700000000031600000000003160000000000316209173000000000001733200000000005437972100000000000000009999123100000010000000000000BRTOTSACNOR8145
012024082602TPIS3       010TRIUNFO PARTON      NM   R$  000000000055400000000005800000000000530000000000055700000000005410000000000537000000000054101167000000000000704400000000000392753000000000000000009999123100000010000000000000BRTPISACNOR8118
012024082602TRAD3       010TC          ON      NM   R$  000000000035500000000003590000000000331000000000034000000000003420000000000339000000000034200311000000000000219200000000000074600700000000000000009999123100000010000000000000BRTRADACNOR3102
012024082602TRIS3       010TRISUL      ON      NM   R$  000000000048000000000004840000000000468000000000047200000000004750000000000472000000000047501317000000000000288300000000000136281300000000000000009999123100000010000000000000BRTRISACNOR4118
012024082602TRPL3       010TRAN PAULISTON      N1   R$  000000000322500000000032250000000003203000000000321500000000032150000000003200000000000321500009000000000000000900000000000002893600000000000000009999123100000010000000000000BRTRPLACNOR4185
012024082602GRND3       010GRENDENE    ON  ED  NM   R$  000000000062300000000006280000000000616000000000061900000000006160000000000616000000000061801538000000000000410500000000000254415900000000000000009999123100000010000000000000BRGRNDACNOR3175
012024082602GUAR3       010GUARARAPES  ON      NM   R$  000000000090200000000009100000000000851000000000086600000000008670000000000867000000000086803222000000000000891800000000000773064700000000000000009999123100000010000000000000BRGUARACNOR4173
012024082602CAMB3       010CAMBUCI     ON           R$  000000000123100000000012400000000001213000000000122800000000012310000000001231000000000124000194000000000000027500000000000033782600000000000000009999123100000010000000000000BRCAMBACNOR4131
012024082602CAML3       010CAMIL       ON      NM   R$  000000000093400000000009410000000000922000000000093300000000009390000000000935000000000093901837000000000000334700000000000312537000000000000000009999123100000010000000000000BRCAMLACNOR3128
012024082602CASH3       010MELIUZ      ON      NM   R$  000000000064000000000006450000000000624000000000063500000000006440000000000643000000000064402908000000000001151200000000000731223500000000000000009999123100000010000000000000BRCASHACNOR8106
012024082602CBAV3       010CBA         ON      NM   R$  000000000055800000000005770000000000546000000000056000000000005480000000000548000000000055007640000000000004792800000000002684301800000000000000009999123100000010000000000000BRCBAVACNOR5104
012024082602CCRO3       010CCR SA      ON      NM   R$  000000000137000000000014010000000001362000000000137100000000013630000000001361000000000136313716000000000007412900000000010167866500000000000000009999123100000010000000000000BRCCROACNOR2145
012024082602FRAS3       010FRAS-LE     ON      N1   R$  000000000192400000000019600000000001919000000000194100000000019450000000001944000000000195402205000000000000477000000000000926308700000000000000009999123100000010000000000000BRFRASACNOR0160
012024082602GEPA3       010GER PARANAP ON           R$  000000000264400000000026440000000002644000000000264400000000026440000000002600000000000264500001000000000000000300000000000000793200000000000000009999123100000010000000000000BRGEPAACNOR2153
012024082602GEPA4       010GER PARANAP PN           R$  000000000262500000000026380000000002625000000000263100000000026380000000002613000000000264000004000000000000000400000000000001052500000000000000009999123100000010000000000000BRGEPAACNPR9160
012024082602GFSA3       010GAFISA      ON      NM   R$  000000000029100000000002940000000000284000000000028800000000002880000000000288000000000028901203000000000001379500000000000397483200000000000000009999123100000010000000000000BRGFSAACNOR3125
012024082602GGBR3       010GERDAU      ON      N1   R$  000000000162800000000016420000000001609000000000162400000000016110000000001610000000000162000200000000000000034300000000000055718600000000000000009999123100000010000000000000BRGGBRACNOR1193
012024082602GGBR4       010GERDAU      PN      N1   R$  000000000184800000000018580000000001829000000000184600000000018420000000001840000000000184210495000000000005173600000000009555253600000000000000009999123100000010000000000000BRGGBRACNPR8193
012024082602MILS3       010MILLS       ON  EDJ NM   R$  000000000114700000000011470000000001109000000000111700000000011170000000001115000000000111703771000000000000972300000000001086428300000000000000009999123100000010000000000000BRMILSACNOR2128
012024082602MLAS3       010MULTILASER  ON      NM   R$  000000000019700000000002010000000000195000000000019800000000001990000000000198000000000019902954000000000002608200000000000517477100000000000000009999123100000010000000000000BRMLASACNOR9101
012024082602MNDL3       010MUNDIAL     ON           R$  000000000114900000000011490000000001093000000000110500000000011000000000001090000000000112500040000000000000015600000000000017249100000000000000009999123100000010000000000000BRMNDLACNOR4109
012024082602MNPR3       010MINUPAR     ON           R$  000000000152800000000015980000000001528000000000155300000000015790000000001512000000000157800011000000000000006500000000000010099700000000000000009999123100000010000000000000BRMNPRACNOR5122
012024082602MOVI3       010MOVIDA      ON      NM   R$  000000000076100000000007660000000000728000000000073900000000007420000000000740000000000074205367000000000003116300000000002304922000000000000000009999123100000010000000000000BRMOVIACNOR0122
012024082602BRSR3       010BANRISUL    ON      N1   R$  000000000136100000000013660000000001343000000000135400000000013580000000001343000000000135800048000000000000006600000000000008942500000000000000009999123100000010000000000000BRBRSRACNOR3188
012024082602BRSR5       010BANRISUL    PNA     N1   R$  000000000160000000000016000000000001600000000000160000000000016000000000001500000000000179900001000000000000000100000000000000160000000000000000009999123100000010000000000000BRBRSRACNPA6192
012024082602BRSR6       010BANRISUL    PNB     N1   R$  000000000126000000000012660000000001249000000000125800000000012640000000001262000000000126504454000000000000996800000000001254805900000000000000009999123100000010000000000000BRBRSRACNPB4191
012024082602BSLI3       010BRB BANCO   ON           R$  000000000104400000000010440000000001001000000000102600000000010430000000001000000000000104400003000000000000000500000000000000513300000000000000009999123100000010000000000000BRBSLIACNOR5194
012024082602BSLI4       010BRB BANCO   PN           R$  000000000095000000000009680000000000936000000000095100000000009680000000000936000000000096800003000000000000000300000000000000285400000000000000009999123100000010000000000000BRBSLIACNPR2194
012024082602CXSE3       010CAIXA SEGURION      NM   R$  000000000151500000000015400000000001498000000000152700000000015360000000001535000000000153610493000000000003629800000000005545032300000000000000009999123100000010000000000000BRCXSEACNOR7107
012024082602CYRE3       010CYRELA REALTON      NM   R$  000000000226100000000022710000000002228000000000224300000000022530000000002245000000000225411803000000000002786300000000006251962400000000000000009999123100000010000000000000BRCYREACNOR7140
012024082602EZTC3       010EZTEC       ON      NM   R$  000000000148400000000014920000000001438000000000146500000000014830000000001481000000000148405819000000000002118000000000003104535500000000000000009999123100000010000000000000BREZTCACNOR0126
012024082602FESA3       010FERBASA     ON      N1   R$  000000000137600000000013760000000001376000000000137600000000013760000000001377000000000149900001000000000000000100000000000000137600000000000000009999123100000010000000000000BRFESAACNOR8188
012024082602FESA4       010FERBASA     PN      N1   R$  000000000083600000000008440000000000825000000000082900000000008250000000000825000000000082601361000000000000331600000000000275201900000000000000009999123100000010000000000000BRFESAACNPR5084
012024082602FHER3       010FER HERINGERON      NM   R$  000000000041100000000004180000000000411000000000041400000000004180000000000415000000000042700009000000000000001900000000000000787000000000000000009999123100000010000000000000BRFHERACNOR5103
012024082602FIEI3       010FICA        ON           R$  000000000096000000000009600000000000943000000000094400000000009430000000000911000000000094300005000000000000001400000000000001322800000000000000009999123100000010000000000000BRFIEIACNOR2100
012024082602FIQE3       010UNIFIQUE    ON      NM   R$  000000000040000000000004010000000000384000000000038900000000003860000000000386000000000039001171000000000000425800000000000165959300000000000000009999123100000010000000000000BRFIQEACNOR5107
012024082602PCAR3       010P.ACUCAR-CBDON      NM   R$  000000000032300000000003270000000000312000000000031800000000003230000000000322000000000032406134000000000008913900000000002837916200000000000000009999123100000010000000000000BRPCARACNOR3167
012024082602PDGR3       010PDG REALT   ON      NM   R$  000000000001600000000000170000000000016000000000001600000000000170000000000016000000000001700223000000000000499000000000000008313200000000000000009999123100000010000000000000BRPDGRACNOR8119
012024082602ASAI3       010ASSAI       ON      NM   R$  000000000097800000000009780000000000951000000000096000000000009660000000000966000000000096814008000000000015789500000000015171617800000000000000009999123100000010000000000000BRASAIACNOR0106
012024082602ATOM3       010ATOMPAR     ON           R$  000000000021000000000002170000000000210000000000021500000000002150000000000210000000000021400022000000000000007500000000000001618900000000000000009999123100000010000000000000BRATOMACNOR1106
012024082602ESTR4       010ESTRELA     PN           R$  000000000020700000000002070000000000207000000000020700000000002070000000000207000000000022700001000000000000000500000000000000103500000000000000009999123100000010000000000000BRESTRACNPR0144
012024082602ETER3       010ETERNIT     ON      NM   R$  000000000060800000000006140000000000601000000000060500000000006040000000000604000000000060600381000000000000151800000000000091901700000000000000009999123100000010000000000000BRETERACNOR3244
012024082602EUCA3       010EUCATEX     ON      N1   R$  000000000170000000000017500000000001700000000000173700000000017500000000001671000000000175000008000000000000001200000000000002085500000000000000009999123100000010000000000000BREUCAACNOR1157
012024082602EUCA4       010EUCATEX     PN      N1   R$  000000000158900000000016150000000001571000000000159300000000016150000000001615000000000161600223000000000000030900000000000049240600000000000000009999123100000010000000000000BREUCAACNPR8044
012024082602EVEN3       010EVEN        ON      NM   R$  000000000065600000000006690000000000644000000000065100000000006560000000000651000000000065602133000000000000519700000000000338460200000000000000009999123100000010000000000000BREVENACNOR8119
012024082602ITSA3       010ITAUSA      ON      N1   R$  000000000109600000000011020000000001090000000000109600000000010980000000001095000000000110000179000000000000045900000000000050319300000000000000009999123100000010000000000000BRITSAACNOR0441
012024082602ITSA4       010ITAUSA      PN      N1   R$  000000000109800000000011010000000001088000000000109500000000010950000000001094000000000109614499000000000015331600000000016788180300000000000000009999123100000010000000000000BRITSAACNPR7441
012024082602MAPT3       010CEMEPE      ON           R$  000000000042100000000004210000000000421000000000042100000000004210000000000421000000000065500001000000000000000100000000000000042100000000000000009999123100000010000000000000BRMAPTACNOR8106
012024082602MAPT4       010CEMEPE      PN           R$  000000000050100000000005010000000000501000000000050100000000005010000000000501000000000055000001000000000000000100000000000000050100000000000000009999123100000010000000000000BRMAPTACNPR5106
012024082602MATD3       010MATER DEI   ON      NM   R$  000000000047900000000004910000000000471000000000047600000000004750000000000475000000000047902815000000000000426200000000000203211400000000000000009999123100000010000000000000BRMATDACNOR4104
012024082602MBLY3       010MOBLY       ON      NM   R$  000000000027800000000002790000000000270000000000027400000000002770000000000273000000000027700529000000000000645900000000000177385900000000000000009999123100000010000000000000BRMBLYACNOR5100
012024082602MDIA3       010M.DIASBRANCOON      NM   R$  000000000282800000000028360000000002762000000000277800000000027920000000002780000000000279203237000000000000805700000000002238422000000000000000009999123100000010000000000000BRMDIAACNOR7135
012024082602MDNE3       010MOURA DUBEUXON      NM   R$  000000000148700000000014940000000001453000000000146400000000014560000000001456000000000145801451000000000000254800000000000373090800000000000000009999123100000010000000000000BRMDNEACNOR9100
012024082602MEAL3       010IMC S/A     ON      NM   R$  000000000017400000000001750000000000168000000000017200000000001730000000000172000000000017300604000000000000860400000000000148530500000000000000009999123100000010000000000000BRMEALACNOR9105
012024082602MELK3       010MELNICK     ON      NM   R$  000000000034500000000003490000000000343000000000034700000000003480000000000347000000000034800856000000000000358900000000000124733900000000000000009999123100000010000000000000BRMELKACNOR8111
012024082602MGEL4       010MANGELS INDLPN           R$  000000000114100000000011410000000001140000000000114000000000011400000000001140000000000115000004000000000000000800000000000000912100000000000000009999123100000010000000000000BRMGELACNPR3147
012024082602MGLU3       010MAGAZ LUIZA ON      NM   R$  000000000137500000000013780000000001307000000000132700000000013350000000001332000000000133522902000000000016290200000000021619437300000000000000009999123100000010000000000000BRMGLUACNOR2124
012024082602B3SA3       010B3          ON      NM   R$  000000000128000000000012850000000001270000000000127700000000012800000000001279000000000128026011000000000029501300000000037679558200000000000000009999123100000010000000000000BRB3SAACNOR6133
012024082602BEES3       010BANESTES    ON           R$  000000000090000000000009040000000000900000000000090300000000009030000000000900000000000090300043000000000000009700000000000008759400000000000000009999123100000010000000000000BRBEESACNOR9394
012024082602BEES4       010BANESTES    PN           R$  000000000098100000000009890000000000973000000000097900000000009820000000000971000000000099400023000000000000003200000000000003135400000000000000009999123100000010000000000000BRBEESACNPR6319
012024082602BGIP3       010BANESE      ON  EJ       R$  000000000251200000000025120000000002512000000000251200000000025120000000002450000000000260000001000000000000000100000000000000251200000000000000009999123100000010000000000000BRBGIPACNOR1209
012024082602BGIP4       010BANESE      PN  EJ       R$  000000000233000000000023300000000002315000000000232200000000023150000000002310000000000233000002000000000000000200000000000000464500000000000000009999123100000010000000000000BRBGIPACNPR8209
012024082602BHIA3       010CASAS BAHIA ON      NM   R$  000000000064300000000006460000000000616000000000063300000000006350000000000634000000000063503239000000000003426800000000002170425500000000000000009999123100000010000000000000BRBHIAACNOR1102
012024082602BPAN4       010BANCO PAN   PN      N1   R$  000000000104200000000010450000000001012000000000102400000000010290000000001028000000000103206371000000000001585400000000001624658200000000000000009999123100000010000000000000BRBPANACNPR1115
012024082602BRAP3       010BRADESPAR   ON      N1   R$  000000000178300000000017830000000001761000000000176700000000017670000000001764000000000176701397000000000000199100000000000351833600000000000000009999123100000010000000000000BRBRAPACNOR5148
012024082602BRAP4       010BRADESPAR   PN      N1   R$  000000000191400000000019260000000001904000000000191400000000019040000000001904000000000190609399000000000003191600000000006111136400000000000000009999123100000010000000000000BRBRAPACNPR2148
012024082602CSED3       010CRUZEIRO EDUON      NM   R$  000000000040200000000004020000000000393000000000039700000000003990000000000398000000000039900834000000000000730800000000000290407500000000000000009999123100000010000000000000BRCSEDACNOR9104
012024082602CSMG3       010COPASA      ON      NM   R$  000000000235500000000023660000000002306000000000233000000000023420000000002341000000000234305804000000000001093200000000002547650100000000000000009999123100000010000000000000BRCSMGACNOR5174
012024082602CSNA3       010SID NACIONALON           R$  000000000125400000000012590000000001222000000000123600000000012220000000001222000000000122407796000000000004652500000000005751502700000000000000009999123100000010000000000000BRCSNAACNOR6261
012024082602ENEV3       010ENEVA       ON      NM   R$  000000000137800000000013810000000001353000000000136700000000013700000000001369000000000137015118000000000008459900000000011567484100000000000000009999123100000010000000000000BRENEVACNOR8106
012024082602ENGI11      010ENERGISA    UNT     N2   R$  000000000488300000000048960000000004800000000000482300000000048140000000004814000000000484010952000000000001854000000000008942097300000000000000009999123100000010000000000000BRENGICDAM16136
012024082602ENGI3       010ENERGISA    ON      N2   R$  000000000144900000000014660000000001419000000000144200000000014190000000001403000000000141900028000000000000003400000000000004903000000000000000009999123100000010000000000000BRENGIACNOR0146
012024082602ENGI4       010ENERGISA    PN      N2   R$  000000000085500000000008550000000000840000000000084500000000008550000000000843000000000085500022000000000000005500000000000004652400000000000000009999123100000010000000000000BRENGIACNPR7142
012024082602IFCM3       010INFRACOMM   ON      NM   R$  000000000001700000000000180000000000015000000000001500000000000150000000000015000000000001602019000000000010631000000000000166851400000000000000009999123100000010000000000000BRIFCMACNOR8101
012024082602IGTI11      010IGUATEMI S.AUNT     N1   R$  000000000234500000000023450000000002306000000000232300000000023350000000002335000000000233806842000000000001522600000000003537792000000000000000009999123100000010000000000000BRIGTICDAM16106
012024082602IGTI3       010IGUATEMI S.AON      N1   R$  000000000029000000000002950000000000285000000000028700000000002870000000000286000000000028700136000000000000036600000000000010532800000000000000009999123100000010000000000000BRIGTIACNOR8106
012024082602INEP3       010INEPAR      ON           R$  000000000022000000000002210000000000205000000000020900000000002110000000000209000000000021100171000000000000080500000000000016876600000000000000009999123100000010000000000000BRINEPACNOR1143
012024082602INEP4       010INEPAR      PN           R$  000000000022100000000002290000000000205000000000021000000000002120000000000210000000000021200161000000000000116600000000000024503900000000000000009999123100000010000000000000BRINEPACNPR8143
012024082602INTB3       010INTELBRAS   ON      NM   R$  000000000228300000000022890000000002251000000000227200000000022800000000002280000000000229003432000000000000599200000000001361582800000000000000009999123100000010000000000000BRINTBACNOR9112
012024082602IRBR3       010IRBBRASIL REON      NM   R$  000000000481300000000049280000000004741000000000485400000000048600000000004860000000000486308097000000000001760500000000008546817000000000000000009999123100000010000000000000BRIRBRACNOR4111
012024082602WEGE3       010WEG         ON      NM   R$  000000000538100000000054200000000005316000000000539200000000054080000000005400000000000541014723000000000004814100000000025961617400000000000000009999123100000010000000000000BRWEGEACNOR0224
012024082602AURE3       010AUREN       ON      NM   R$  000000000116100000000011610000000001150000000000115400000000011550000000001155000000000115605548000000000003677000000000004245112000000000000000009999123100000010000000000000BRAUREACNOR9104
012024082602AVLL3       010ALPHAVILLE  ON      NM   R$  000000000039700000000004040000000000397000000000040300000000004040000000000392000000000040400005000000000000005400000000000002178800000000000000009999123100000010000000000000BRAVLLACNOR5103
012024082602AZEV3       010AZEVEDO     ON           R$  000000000014700000000001480000000000140000000000014200000000001430000000000143000000000014400459000000000000509500000000000072516500000000000000009999123100000010000000000000BRAZEVACNOR0121
012024082602AZEV4       010AZEVEDO     PN           R$  000000000014500000000001460000000000138000000000014100000000001420000000000141000000000014201153000000000002896800000000000410485500000000000000009999123100000010000000000000BRAZEVACNPR7121
012024082602AZUL4       010AZUL        PN      N2   R$  000000000076100000000007650000000000748000000000075300000000007590000000000755000000000075908724000000000008648500000000006514901900000000000000009999123100000010000000000000BRAZULACNPR4102
012024082602ARML3       010ARMAC       ON      NM   R$  000000000096800000000009680000000000948000000000096000000000009560000000000956000000000096203511000000000000686200000000000659029500000000000000009999123100000010000000000000BRARMLACNOR1112
012024082602CMIN3       010CSNMINERACAOON      N2   R$  000000000056300000000005740000000000556000000000056300000000005570000000000557000000000055814779000000000016861900000000009497042300000000000000009999123100000010000000000000BRCMINACNOR2111
012024082602COCE5       010COELCE      PNA          R$  000000000315200000000031970000000003139000000000316700000000031620000000003161000000000319000032000000000000004700000000000014886300000000000000009999123100000010000000000000BRCOCEACNPA3147
012024082602COGN3       010COGNA ON    ON  ATZ NM   R$  000000000014400000000001450000000000141000000000014200000000001450000000000144000000000014519947000000000030564800000000004367822900000000000000009999123100000010000000000000BRCOGNACNOR2105
012024082602HAGA3       010HAGA S/A    ON           R$  000000000024000000000002400000000000233000000000023700000000002350000000000235000000000023800008000000000000001200000000000000284500000000000000009999123100000010000000000000BRHAGAACNOR7103
012024082602HAGA4       010HAGA S/A    PN           R$  000000000011600000000001220000000000115000000000011900000000001210000000000118000000000012100037000000000000015500000000000001845500000000000000009999123100000010000000000000BRHAGAACNPR4103
012024082602HAPV3       010HAPVIDA     ON      NM   R$  000000000044900000000004520000000000444000000000044800000000004480000000000447000000000044817493000000000028400300000000012731199800000000000000009999123100000010000000000000BRHAPVACNOR4114
012024082602JHSF3       010JHSF PART   ON      NM   R$  000000000044600000000004480000000000441000000000044400000000004430000000000443000000000044403695000000000002211700000000000982997500000000000000009999123100000010000000000000BRJHSFACNOR2138
012024082602LAND3       010TERRASANTAPAON      NM   R$  000000000133800000000014900000000001305000000000144000000000014240000000001423000000000146101304000000000000312700000000000450489000000000000000009999123100000010000000000000BRLANDACNOR9103
012024082602LAVV3       010LAVVI       ON  ED  NM   R$  000000000088000000000008910000000000867000000000087600000000008820000000000876000000000088202036000000000000394000000000000345530500000000000000009999123100000010000000000000BRLAVVACNOR4113
012024082602LEVE3       010METAL LEVE  ON      NM   R$  000000000315000000000031690000000003123000000000314700000000031600000000003160000000000316201957000000000000365400000000001150013800000000000000009999123100000010000000000000BRLEVEACNOR2197
012024082602LIPR3       010ELETROPAR   ON           R$  000000000475000000000047500000000004750000000000475000000000047500000000004700000000000490000001000000000000000100000000000000475000000000000000009999123100000010000000000000BRLIPRACNOR7122
012024082602LJQQ3       010QUERO-QUERO ON      NM   R$  000000000044800000000004490000000000430000000000043700000000004410000000000440000000000044205054000000000002333900000000001021214100000000000000009999123100000010000000000000BRLJQQACNOR5104
012024082602BEEF3       010MINERVA     ON      NM   R$  000000000079600000000008020000000000773000000000078100000000007780000000000778000000000077908467000000000006479700000000005065138400000000000000009999123100000010000000000000BRBEEFACNOR6116
012024082602BPAC11      010BTGP BANCO  UNT     N2   R$  000000000364500000000036580000000003605000000000362800000000036290000000003628000000000363013119000000000007135500000000025890795100000000000000009999123100000010000000000000BRBPACUNT006119
012024082602BPAC3       010BTGP BANCO  ON      N2   R$  000000000169200000000016940000000001681000000000168200000000016810000000001670000000000168700016000000000000001700000000000002860700000000000000009999123100000010000000000000BRBPACACNOR7134
012024082602BPAC5       010BTGP BANCO  PNA     N2   R$  000000000096500000000009650000000000935000000000094900000000009630000000000957000000000097400027000000000000006900000000000006549600000000000000009999123100000010000000000000BRBPACACNPA0134
012024082602CPLE3       010COPEL       ON      N2   R$  000000000096100000000009650000000000946000000000095200000000009540000000000953000000000095504130000000000002986400000000002844887000000000000000009999123100000010000000000000BRCPLEACNOR8149
012024082602CPLE5       010COPEL       PNA     N2   R$  000000000130000000000013000000000001241000000000125100000000012420000000001241000000000132100006000000000000000600000000000000750800000000000000009999123100000010000000000000BRCPLEACNPA1147
012024082602CPLE6       010COPEL       PNB     N2   R$  000000000107400000000010770000000001054000000000105900000000010580000000001057000000000105912980000000000008966700000000009502985200000000000000009999123100000010000000000000BRCPLEACNPB9146
012024082602CRFB3       010CARREFOUR BRON      NM   R$  000000000092900000000009310000000000913000000000092300000000009290000000000926000000000092910509000000000005540900000000005114663600000000000000009999123100000010000000000000BRCRFBACNOR2116
012024082602CRPG5       010CRISTAL     PNA          R$  000000000289600000000028960000000002851000000000285400000000028510000000002857000000000289900004000000000000001200000000000003425700000000000000009999123100000010000000000000BRCRPGACNPA3119
012024082602CRPG6       010CRISTAL     PNB          R$  000000000280200000000028900000000002802000000000284600000000028900000000002801000000000289900002000000000000000200000000000000569200000000000000009999123100000010000000000000BRCRPGACNPB1119
012024082602CSAN3       010COSAN       ON      NM   R$  000000000140800000000014180000000001393000000000140400000000014040000000001401000000000140418041000000000007724400000000010849946100000000000000009999123100000010000000000000BRCSANACNOR6126
012024082602ELMD3       010ELETROMIDIA ON      NM   R$  000000000189600000000019020000000001848000000000186800000000018740000000001874000000000187800365000000000000049400000000000092311200000000000000009999123100000010000000000000BRELMDACNOR3101
012024082607NUTR3       010NUTRIPLANT  ON      MA   R$  000000000045400000000004770000000000451000000000046400000000004540000000000456000000000047700031000000000000008500000000000003948200000000000000009999123100000010000000000000BRNUTRACNOR0104
012024082608OIBR3       010OI          ON      N1   R$  000000000046500000000004650000000000456000000000046000000000004590000000000459000000000046100513000000000000368900000000000169948200000000000000009999123100000010000000000000BROIBRACNOR1111
012024082608OIBR4       010OI          PN      N1   R$  000000000124300000000012440000000001235000000000123800000000012350000000001235000000000126900016000000000000002600000000000003221100000000000000009999123100000010000000000000BROIBRACNPR8110
012024082608OSXB3       010OSX BRASIL  ON      NM   R$  000000000039000000000003920000000000390000000000039100000000003920000000000383000000000039200003000000000000002100000000000000822900000000000000009999123100000010000000000000BROSXBACNOR8109
012024082608HOOT4       010HOTEIS OTHONPN           R$  000000000022600000000002260000000000226000000000022600000000002260000000000228000000000024100002000000000000000500000000000000113000000000000000009999123100000010000000000000BRHOOTACNPR9015
012024082608CTSA3       010SANTANENSE  ON           R$  000000000028000000000002800000000000280000000000028000000000002800000000000273000000000028500001000000000000000100000000000000028000000000000000009999123100000010000000000000BRCTSAACNOR3062
012024082608CTSA4       010SANTANENSE  PN           R$  000000000013000000000001360000000000130000000000013300000000001340000000000132000000000013400019000000000000003400000000000000452400000000000000009999123100000010000000000000BRCTSAACNPR0062
012024082608PMAM3       010PARANAPANEMAON      NM   R$  000000000019800000000002010000000000196000000000019600000000001970000000000196000000000019700147000000000000179900000000000035426100000000000000009999123100000010000000000000BRPMAMACNOR3039
012024082608RPMG3       010PET MANGUINHON           R$  000000000027700000000002860000000000275000000000027900000000002860000000000275000000000028000178000000000000025700000000000007181900000000000000009999123100000010000000000000BRRPMGACNOR9194
012024082608RSID3       010ROSSI RESID ON      NM   R$  000000000039900000000004060000000000386000000000039100000000003950000000000395000000000039900100000000000000016600000000000006498500000000000000009999123100000010000000000000BRRSIDACNOR8120
012024082608NEXP3       010NEXPE       ON           R$  000000000040000000000004100000000000396000000000039700000000003960000000000401000000000040400018000000000000004200000000000001671000000000000000009999123100000010000000000000BRNEXPACNOR0101
012024082608RNEW11      010RENOVA      UNT     N2   R$  000000000030900000000003170000000000291000000000030100000000002910000000000290000000000029100044000000000000010800000000000003251700000000000000009999123100000010000000000000BRRNEWCDAM15110
012024082608RNEW3       010RENOVA      ON      N2   R$  000000000010200000000001040000000000096000000000009900000000001000000000000099000000000010000121000000000000206200000000000020608500000000000000009999123100000010000000000000BRRNEWACNOR8110
012024082608RNEW4       010RENOVA      PN      N2   R$  000000000010100000000001040000000000096000000000009900000000000960000000000096000000000009700172000000000000168400000000000016808000000000000000009999123100000010000000000000BRRNEWACNPR5110
012024082608AMER3       010AMERICANAS  ON      NM   R$  000000000000600000000000070000000000005000000000000500000000000050000000000005000000000000617097000000000381639000000000002220604000000000000000009999123100000010000000000000BRAMERACNOR6102
012024082608ATMP3       010ATMASA      ON           R$  000000000013800000000001410000000000135000000000013800000000001360000000000136000000000013800021000000000000005900000000000000814900000000000000009999123100000010000000000000BRATMPACNOR8100
012024082608JFEN3       010JOAO FORTES ON           R$  000000000002400000000000240000000000023000000000002300000000000230000000000023000000000002400091000000000000189700000000000004383000000000000000009999123100000010000000000000BRJFENACNOR0059
012024082608LIGT3       010LIGHT S/A   ON      NM   R$  000000000060000000000006400000000000600000000000062100000000006240000000000621000000000062505318000000000001824900000000001134647900000000000000009999123100000010000000000000BRLIGTACNOR2124
012024082610RENT9       010LOCALIZA    ON  REC NM   R$  000000000420100000000042010000000004168000000000418300000000041750000000004155000000000426300008000000000000001300000000000005439000000000000000009999123100000010000000000000BRRENTR06OR8195
012024082610EQTL1       010EQUATORIAL  DIR ORD NM   R$  000000000028600000000002980000000000255000000000027400000000002820000000000282000000000028502930000000000001860600000000000510525100000000000000009999123100000010000000000000BREQTLD04OR9130
012024082610GFSA1       010GAFISA      DIR ORD NM   R$  000000000000300000000000030000000000002000000000000200000000000020000000000002000000000000300411000000000003597300000000000008114100000000000000009999123100000010000000000000BRGFSAD11OR7124
012024082610PDGR95      010PDG REALT   DIR     NM   R$  000000000000100000000000010000000000001000000000000100000000000010000000000000000000000000100046000000000000106423000000000000106423000000000000009999123100000010000000000000BRPDGRD03M17100
012024082612KNHF11      010FII KINEA HFCI           R$  000000000978900000000098390000000009728000000000978200000000098100000000009761000000000981102209000000000000028817000000000281890427000000000000009999123100000010000000000000BRKNHFCTF004113
012024082612KNHY11      010FII KINEA HYCI           R$  000000001062500000000106550000000010600000000001061600000000106000000000010600000000001061410795000000000000057342000000000608766549000000000000009999123100000010000000000000BRKNHYCTF005174
012024082612KNIP11      010FII KINEA IPCI           R$  000000000958900000000096350000000009560000000000959600000000096170000000009613000000000961708284000000000000064007000000000614258216000000000000009999123100000010000000000000BRKNIPCTF001195
012024082612KNRE11      010FII KII REALCI           R$  000000000004200000000000420000000000041000000000004100000000000410000000000041000000000004200031000000000000003508000000000000146251000000000000009999123100000010000000000000BRKNRECTF006129
012024082612KNRI11      010FII KINEA   CI           R$  000000001554800000000155920000000015401000000001548200000000154350000000015414000000001543506119000000000000041763000000000646587160000000000000009999123100000010000000000000BRKNRICTF007266
012024082612NSLU11      010FII LOURDES CI           R$  000000001825300000000184740000000018253000000001838200000000183750000000018370000000001840000038000000000000000298000000000005477866000000000000009999123100000010000000000000BRNSLUCTF008313
012024082612NVHO11      010FII NOVOHORICI           R$  000000000126500000000013090000000001265000000000126600000000013090000000001265000000000130900006000000000000000130000000000000164582000000000000009999123100000010000000000000BRNVHOCTF003230
012024082612AFHI11      010FII AFHI CRICI  ER       R$  000000000968000000000096970000000009654000000000968000000000096680000000009668000000000967001138000000000000007921000000000076678390000000000000009999123100000010000000000000BRAFHICTF005145
012024082612AIEC11      010FII AUTONOMYCI           R$  000000000550400000000055660000000005504000000000552500000000055050000000005508000000000553500635000000000000008688000000000048005409000000000000009999123100000010000000000000BRAIECCTF009147
012024082612AJFI11      010FII AJ MALLSCI           R$  000000000084500000000008470000000000832000000000083800000000008410000000000841000000000084406272000000000000053021000000000044478403000000000000009999123100000010000000000000BRAJFICTF001109
012024082612ALMI11      010FII TORRE ALCI           R$  000000006305300000000647940000000063001000000006353800000000633340000000063333000000006459900018000000000000000040000000000002541541000000000000009999123100000010000000000000BRALMICTF003251
012024082612CEOC11      010FII CEO CCP CI           R$  000000000445000000000044510000000004439000000000444000000000044390000000004440000000000444400035000000000000000710000000000003152631000000000000009999123100000010000000000000BRCEOCCTF003217
012024082612ZAGH11      010FII ZAGH    CI           R$  000000000117600000000012000000000001176000000000119800000000012000000000001000000000000120000004000000000000000015000000000000017976000000000000009999123100000010000000000000BRZAGHCTF007106
012024082612ZAVC11      010FII ZAVIT C CI           R$  000000000098600000000009860000000000985000000000098500000000009860000000000971000000000104900004000000000000000025000000000000024648000000000000009999123100000010000000000000BRZAVCCTF007104
012024082612ZAVI11      010FII ZAVIT R CI           R$  000000001169900000000124530000000011373000000001185200000000113740000000011374000000001144800126000000000000002315000000000027437701000000000000009999123100000010000000000000BRZAVICTF004123
012024082612SPTW11      010FII SP DOWNTCI           R$  000000000400500000000040150000000004001000000000400700000000040150000000004008000000000401500200000000000000001852000000000007421141000000000000009999123100000010000000000000BRSPTWCTF002237
012024082612SPXS11      010FII SPX SYN CI           R$  000000000093200000000009330000000000924000000000092600000000009250000000000925000000000092804303000000000000095911000000000088820633000000000000009999123100000010000000000000BRSPXSCTF002126
012024082612PULV11      010FII PULV    CI           R$  000000000097900000000009790000000000942000000000095500000000009670000000000945000000000096700211000000000000010582000000000010114992000000000000009999123100000010000000000000BRPULVCTF007103
012024082612OUJP11      010FII OURI JPPCI           R$  000000000816700000000081680000000008100000000000814400000000081150000000008115000000000812801505000000000000004836000000000039384895000000000000009999123100000010000000000000BROUJPCTF006189
012024082612OULG11      010FII OURILOG CI           R$  000000000300000000000030010000000002984000000000299800000000029940000000002985000000000299900025000000000000000241000000000000722731000000000000009999123100000010000000000000BROULGCTF001153
012024082612PABY11      010FII PANAMBY CI           R$  000000000131400000000013140000000001313000000000131300000000013140000000001256000000000131400007000000000000000111000000000000145823000000000000009999123100000010000000000000BRPABYCTF012158
012024082612PATC11      010FII PATRIA  CI           R$  000000000355000000000036500000000003550000000000358300000000036010000000003601000000000364900215000000000000001262000000000004521766000000000000009999123100000010000000000000BRPATCCTF002172
012024082612PVBI11      010FII VBI PRI CI           R$  000000000930100000000094340000000009301000000000938400000000093710000000009371000000000939813680000000000000070788000000000664283990000000000000009999123100000010000000000000BRPVBICTF003154
012024082612QAGR11      010FII QUASAR ACI           R$  000000000466700000000047000000000004665000000000468900000000046950000000004695000000000470000130000000000000001269000000000005951416000000000000009999123100000010000000000000BRQAGRCTF005157
012024082612IBCR11      010FII BREI    CI           R$  000000000675300000000067610000000006713000000000674600000000067130000000006713000000000674800179000000000000001592000000000010741027000000000000009999123100000010000000000000BRIBCRCTF009139
012024082612SCPF11      010FII SCP     CI           R$  000000000026700000000002690000000000261000000000026300000000002670000000000267000000000026800083000000000000001252000000000000330497000000000000009999123100000010000000000000BRSCPFCTF003302
012024082612SEQR11      010FII SEQUOIA CI           R$  000000000518200000000052000000000005143000000000516800000000051980000000005158000000000516900148000000000000002368000000000012238767000000000000009999123100000010000000000000BRSEQRCTF002145
012024082612SHPH11      010FII HIGIENOPCI           R$  000000008870000000000887300000000087509000000008791200000000880000000000087507000000008800000014000000000000000073000000000006417639000000000000009999123100000010000000000000BRSHPHCTF008352
012024082612SJAU11      010FII SJ AU   CI           R$  000000000595000000000059500000000005505000000000588500000000059500000000005949000000000595000008000000000000000111000000000000653314000000000000009999123100000010000000000000BRSJAUCTF009102
012024082612KNSC11      010FII KINEA SCCI  ES       R$  000000000092500000000009270000000000921000000000092200000000009230000000000923000000000092409524000000000000335140000000000309330802000000000000009999123100000010000000000000BRKNSCCTF008150
012024082612KNSC12      010FII KINEA SCDIR          R$  000000000000500000000000060000000000004000000000000400000000000040000000000004000000000000502608000000000001032215000000000004570325000000000000009999123100000010000000000000BRKNSCD04M12149
012024082612KNUQ11      010FII KINEA UNCI           R$  000000001047500000000106000000000010475000000001054600000000105750000000010550000000001057503408000000000000027158000000000286432904000000000000009999123100000010000000000000BRKNUQCTF004115
012024082612KORE11      010FII KORE    CI           R$  000000001035000000000104000000000010240000000001031500000000103880000000010359000000001038802149000000000000024831000000000256148538000000000000009999123100000010000000000000BRKORECTF012108
012024082612BBRC11      010FII BB CORP CI           R$  000000001152100000000115290000000011500000000001151700000000115080000000011505000000001151200062000000000000000536000000000006173513000000000000009999123100000010000000000000BRBBRCCTF004255
