00COTAHIST.2024BOVESPA 20240830                                                                                                                                                                                                                      
012024083002SANB11      010SANTANDER BRUNT          R$  000000000313300000000031530000000003107000000000313600000000031400000000003139000000000314007270000000000002030600000000006368196500000000000000009999123100000010000000000000BRSANBCDAM13165
012024083002SANB3       010SANTANDER BRON           R$  000000000149900000000015020000000001486000000000149400000000014940000000001491000000000149400556000000000000085400000000000127640500000000000000009999123100000010000000000000BRSANBACNOR8172
012024083002SANB4       010SANTANDER BRPN           R$  000000000163100000000016480000000001624000000000163800000000016400000000001632000000000164000426000000000000064900000000000106359200000000000000009999123100000010000000000000BRSANBACNPR5172
012024083002SAPR11      010SANEPAR     UNT     N2   R$  000000000285600000000028690000000002838000000000285500000000028660000000002866000000000286704817000000000001469600000000004196379200000000000000009999123100000010000000000000BRSAPRCDAM13118
012024083002SAPR3       010SANEPAR     ON      N2   R$  000000000053900000000005460000000000538000000000054200000000005400000000000540000000000054100476000000000000139500000000000075614400000000000000009999123100000010000000000000BRSAPRACNOR9159
012024083002SAPR4       010SANEPAR     PN      N2   R$  000000000057700000000005850000000000571000000000058100000000005850000000000580000000000058503557000000000002775600000000001613265000000000000000009999123100000010000000000000BRSAPRACNPR6159
012024083002QUAL3       010QUALICORP   ON      NM   R$  000000000019600000000002300000000000192000000000021900000000002270000000000227000000000022809154000000000012842600000000002814895900000000000000009999123100000010000000000000BRQUALACNOR6120
012024083002SBSP3       010SABESP      ON      NM   R$  000000000945000000000094950000000009369000000000944900000000094730000000009473000000000947522505000000000009847500000000093051917100000000000000009999123100000010000000000000BRSBSPACNOR5161
012024083002SCAR3       010SAO CARLOS  ON      NM   R$  000000000235000000000024800000000002330000000000243700000000024800000000002320000000000248000086000000000000032700000000000079718300000000000000009999123100000010000000000000BRSCARACNOR7131
012024083002SEER3       010SER EDUCA   ON      NM   R$  000000000064200000000006570000000000635000000000064500000000006450000000000645000000000064700766000000000000235100000000000151801600000000000000009999123100000010000000000000BRSEERACNOR5119
012024083002SEQL3       010SEQUOIA LOG ON      NM   R$  000000000059300000000006740000000000587000000000064100000000006390000000000639000000000064003442000000000002395700000000001536883900000000000000009999123100000010000000000000BRSEQLACNOR2103
012024083002SHOW3       010TIME FOR FUNON      NM   R$  000000000011200000000001140000000000109000000000011000000000001090000000000109000000000011000354000000000000291800000000000032325100000000000000009999123100000010000000000000BRSHOWACNOR7105
012024083002SHUL4       010SCHULZ      PN           R$  000000000066200000000006690000000000652000000000066300000000006690000000000658000000000067000862000000000000305400000000000202625600000000000000009999123100000010000000000000BRSHULACNPR4156
012024083002SIMH3       010SIMPAR      ON      NM   R$  000000000061400000000006270000000000607000000000061600000000006170000000000616000000000061806328000000000004322800000000002665387100000000000000009999123100000010000000000000BRSIMHACNOR0107
012024083002VALE3       010VALE        ON      NM   R$  000000000591200000000059730000000005908000000000595000000000059580000000005952000000000595933417000000000036685200000000218299186600000000000000009999123100000010000000000000BRVALEACNOR0211
012024083002PRNR3       010PRINER      ON      NM   R$  000000000134300000000013430000000001315000000000132700000000013280000000001327000000000132801007000000000000192700000000000255762200000000000000009999123100000010000000000000BRPRNRACNOR4109
012024083002PSSA3       010PORTO SEGUROON      NM   R$  000000000337600000000034060000000003350000000000338100000000034060000000003393000000000340705777000000000001297100000000004385595900000000000000009999123100000010000000000000BRPSSAACNOR7155
012024083002SBFG3       010GRUPO SBF   ON      NM   R$  000000000172900000000017400000000001694000000000172500000000017290000000001728000000000173306178000000000001582700000000002730253600000000000000009999123100000010000000000000BRSBFGACNOR1103
012024083002UNIP3       010UNIPAR      ON           R$  000000000472000000000047940000000004700000000000473500000000047390000000004728000000000474000069000000000000008800000000000041669000000000000000009999123100000010000000000000BRUNIPACNOR7206
012024083002UNIP5       010UNIPAR      PNA          R$  000000000482000000000049070000000004701000000000480000000000049000000000004741000000000480000010000000000000001600000000000007680700000000000000009999123100000010000000000000BRUNIPACNPA0208
012024083002UNIP6       010UNIPAR      PNB          R$  000000000477500000000047760000000004710000000000473400000000047280000000004728000000000473501830000000000000399000000000001889019000000000000000009999123100000010000000000000BRUNIPACNPB8206
012024083002USIM3       010USIMINAS    ON      N1   R$  000000000060000000000006090000000000594000000000060400000000006090000000000608000000000060901281000000000000626400000000000378676000000000000000009999123100000010000000000000BRUSIMACNOR3167
012024083002USIM5       010USIMINAS    PNA     N1   R$  000000000062000000000006290000000000617000000000062200000000006230000000000622000000000062306764000000000012015600000000007483760800000000000000009999123100000010000000000000BRUSIMACNPA6169
012024083002RSUL4       010RIOSULENSE  PN           R$  000000000649300000000065710000000006450000000000648700000000064900000000006371000000000649000025000000000000003000000000000019461600000000000000009999123100000010000000000000BRRSULACNPR3114
012024083002TPIS3       010TRIUNFO PARTON      NM   R$  000000000042500000000004550000000000425000000000044100000000004470000000000447000000000044800242000000000000103100000000000045524100000000000000009999123100000010000000000000BRTPISACNOR8118
012024083002TRAD3       010TC          ON      NM   R$  000000000032000000000003250000000000291000000000030200000000003110000000000311000000000031500475000000000000406200000000000122893000000000000000009999123100000010000000000000BRTRADACNOR3102
012024083002TRIS3       010TRISUL      ON      NM   R$  000000000046200000000004670000000000457000000000046100000000004620000000000461000000000046300780000000000000345600000000000159614000000000000000009999123100000010000000000000BRTRISACNOR4118
012024083002TRPL3       010TRAN PAULISTON      N1   R$  000000000320600000000032260000000003206000000000321200000000032260000000003200000000000322600016000000000000002400000000000007710000000000000000009999123100000010000000000000BRTRPLACNOR4185
012024083002TRPL4       010TRAN PAULISTPN      N1   R$  000000000245700000000024840000000002441000000000247100000000024710000000002470000000000247306438000000000002281900000000005639617400000000000000009999123100000010000000000000BRTRPLACNPR1185
012024083002PATI3       010PANATLANTICAON           R$  000000000401200000000040700000000003900000000000402800000000040700000000004070000000000407900021000000000000005500000000000022155600000000000000009999123100000010000000000000BRPATIACNOR6065
012024083002PATI4       010PANATLANTICAPN           R$  000000000420000000000042000000000004200000000000420000000000042000000000004000000000000420000001000000000000000200000000000000840000000000000000009999123100000010000000000000BRPATIACNPR3065
012024083002PCAR3       010P.ACUCAR-CBDON      NM   R$  000000000031000000000003180000000000307000000000031300000000003130000000000312000000000031306241000000000007968000000000002499053200000000000000009999123100000010000000000000BRPCARACNOR3167
012024083002AERI3       010AERIS       ON      NM   R$  000000000102800000000012100000000000995000000000114600000000012100000000001200000000000121003098000000000001664400000000001907770100000000000000009999123100000010000000000000BRAERIACNOR4102
012024083002IFCM3       010INFRACOMM   ON      NM   R$  000000000001500000000000160000000000014000000000001400000000000140000000000014000000000001504690000000000019954200000000000293338500000000000000009999123100000010000000000000BRIFCMACNOR8101
012024083002IGTI11      010IGUATEMI S.AUNT     N1   R$  000000000223100000000022370000000002184000000000220900000000022090000000002209000000000221011457000000000003226100000000007128689800000000000000009999123100000010000000000000BRIGTICDAM16106
012024083002IGTI3       010IGUATEMI S.AON      N1   R$  000000000027700000000002780000000000275000000000027700000000002780000000000276000000000028000034000000000000007900000000000002189600000000000000009999123100000010000000000000BRIGTIACNOR8106
012024083002CRFB3       010CARREFOUR BRON      NM   R$  000000000089900000000009170000000000890000000000090000000000008970000000000896000000000089811448000000000011175300000000010064508000000000000000009999123100000010000000000000BRCRFBACNOR2116
012024083002CRPG5       010CRISTAL     PNA          R$  000000000284900000000028980000000002840000000000287500000000028980000000002845000000000289800016000000000000003200000000000009203000000000000000009999123100000010000000000000BRCRPGACNPA3119
012024083002CRPG6       010CRISTAL     PNB          R$  000000000285100000000028510000000002851000000000285100000000028510000000002851000000000294900001000000000000000200000000000000570200000000000000009999123100000010000000000000BRCRPGACNPB1119
012024083002CSAN3       010COSAN       ON      NM   R$  000000000133200000000013440000000001326000000000133400000000013360000000001335000000000133620618000000000026688600000000035628237500000000000000009999123100000010000000000000BRCSANACNOR6126
012024083002VULC3       010VULCABRAS   ON      NM   R$  000000000175300000000017670000000001724000000000175600000000017670000000001767000000000176902350000000000000670300000000001177302000000000000000009999123100000010000000000000BRVULCACNOR2161
012024083002VVEO3       010VIVEO       ON      NM   R$  000000000019500000000001960000000000190000000000019000000000001900000000000190000000000019103905000000000006471900000000001234055900000000000000009999123100000010000000000000BRVVEOACNOR0104
012024083002WEGE3       010WEG         ON      NM   R$  000000000532300000000054150000000005296000000000540100000000054150000000005409000000000541618230000000000017140300000000092582118000000000000000009999123100000010000000000000BRWEGEACNOR0224
012024083002YDUQ3       010YDUQS PART  ON      NM   R$  000000000099400000000010280000000000984000000000100400000000009850000000000985000000000098716646000000000007764400000000007799467000000000000000009999123100000010000000000000BRYDUQACNOR3105
012024083002ZAMP3       010ZAMP S.A.   ON           R$  000000000030900000000003090000000000300000000000030400000000003050000000000305000000000030602774000000000001448000000000000440494000000000000000009999123100000010000000000000BRZAMPACNOR5101
012024083002MTRE3       010MITRE REALTYON  ED  NM   R$  000000000037600000000003770000000000371000000000037300000000003720000000000372000000000037301545000000000000776300000000000289892800000000000000009999123100000010000000000000BRMTREACNOR6114
012024083002MTSA4       010METISA      PN           R$  000000000442300000000045070000000004423000000000447100000000044880000000004436000000000450000028000000000000004300000000000019227500000000000000009999123100000010000000000000BRMTSAACNPR9072
012024083002MULT3       010MULTIPLAN   ON      N2   R$  000000000254200000000025670000000002529000000000255400000000025640000000002564000000000256516605000000000005176500000000013224860100000000000000009999123100000010000000000000BRMULTACNOR5139
012024083002MWET4       010WETZEL S/A  PN           R$  000000000092000000000009200000000000920000000000092000000000009200000000000703000000000091700001000000000000000100000000000000092000000000000000009999123100000010000000000000BRMWETACNPR3118
012024083002MYPK3       010IOCHP-MAXIONON      NM   R$  000000000114900000000011620000000001147000000000115500000000011570000000001157000000000115804522000000000001376500000000001590318100000000000000009999123100000010000000000000BRMYPKACNOR7155
012024083002NEOE3       010NEOENERGIA  ON      NM   R$  000000000195400000000020100000000001944000000000198700000000019900000000001990000000000199504648000000000001510900000000003002252400000000000000009999123100000010000000000000BRNEOEACNOR3123
012024083002RENT3       010LOCALIZA    ON      NM   R$  000000000411100000000041430000000004084000000000412800000000041370000000004134000000000413826697000000000018503200000000076385518200000000000000009999123100000010000000000000BRRENTACNOR4196
012024083002SYNE3       010SYN PROP TECON  ED  NM   R$  000000000080300000000008080000000000786000000000079900000000007960000000000796000000000079701068000000000000379300000000000303180700000000000000009999123100000010000000000000BRSYNEACNOR2103
012024083002TAEE11      010TAESA       UNT     N2   R$  000000000351100000000036100000000003490000000000354300000000035450000000003543000000000354606637000000000002151300000000007622706200000000000000009999123100000010000000000000BRTAEECDAM10148
012024083002TAEE3       010TAESA       ON      N2   R$  000000000117300000000011770000000001158000000000117100000000011770000000001170000000000117800382000000000000071700000000000083970900000000000000009999123100000010000000000000BRTAEEACNOR9148
012024083002TAEE4       010TAESA       PN      N2   R$  000000000117500000000011900000000001167000000000118400000000011880000000001186000000000119000659000000000000141300000000000167331000000000000000009999123100000010000000000000BRTAEEACNPR6148
012024083002VAMO3       010VAMOS       ON      NM   R$  000000000076100000000007750000000000753000000000076300000000007600000000000760000000000076110037000000000006835900000000005218593200000000000000009999123100000010000000000000BRVAMOACNOR7105
012024083002VBBR3       010VIBRA       ON      NM   R$  000000000252100000000025780000000002510000000000256800000000025720000000002571000000000257319613000000000015949800000000040964976900000000000000009999123100000010000000000000BRVBBRACNOR1108
012024083002VITT3       010VITTIA      ON      NM   R$  000000000061300000000006350000000000613000000000062500000000006190000000000619000000000062301264000000000000231200000000000144624400000000000000009999123100000010000000000000BRVITTACNOR4107
012024083002WEST3       010WESTWING    ON      NM   R$  000000000009000000000000940000000000089000000000009000000000000900000000000090000000000009100119000000000000105200000000000009547700000000000000009999123100000010000000000000BRWESTACNOR3100
012024083002GUAR3       010GUARARAPES  ON      NM   R$  000000000084600000000008820000000000835000000000086400000000008660000000000866000000000086905049000000000001266700000000001095125100000000000000009999123100000010000000000000BRGUARACNOR4173
012024083002AZZA3       010AZZAS 2154  ON      NM   R$  000000000504100000000050540000000004879000000000492900000000049000000000004900000000000491017246000000000004731200000000023322506800000000000000009999123100000010000000000000BRAZZAACNOR9100
012024083002BBSE3       010BBSEGURIDADEON      NM   R$  000000000364400000000036760000000003634000000000366600000000036730000000003671000000000367416470000000000009093400000000033340837700000000000000009999123100000010000000000000BRBBSEACNOR5125
012024083002CPFE3       010CPFL ENERGIAON      NM   R$  000000000328700000000034090000000003260000000000336700000000034090000000003401000000000340908781000000000004463500000000015029262200000000000000009999123100000010000000000000BRCPFEACNOR0137
012024083002CPLE3       010COPEL       ON      N2   R$  000000000093300000000009480000000000932000000000093900000000009380000000000938000000000093909982000000000010715800000000010068024100000000000000009999123100000010000000000000BRCPLEACNOR8149
012024083002CPLE6       010COPEL       PNB     N2   R$  000000000103600000000010560000000001033000000000104400000000010430000000001043000000000104422272000000000030295500000000031635253200000000000000009999123100000010000000000000BRCPLEACNPB9146
012024083002CYRE3       010CYRELA REALTON      NM   R$  000000000220000000000022050000000002149000000000217600000000021820000000002177000000000218417040000000000005942200000000012934422000000000000000009999123100000010000000000000BRCYREACNOR7140
012024083002JHSF3       010JHSF PART   ON  ED  NM   R$  000000000043500000000004400000000000428000000000043500000000004370000000000437000000000043805089000000000004310000000000001878050000000000000000009999123100000010000000000000BRJHSFACNOR2139
012024083002JOPA3       010JOSAPAR     ON           R$  000000000228000000000022800000000002280000000000228000000000022800000000002120000000000226000001000000000000000100000000000000228000000000000000009999123100000010000000000000BRJOPAACNOR5135
012024083002JSLG3       010JSL         ON      NM   R$  000000000099500000000010120000000000985000000000099300000000009910000000000990000000000099804536000000000002149500000000002136563900000000000000009999123100000010000000000000BRJSLGACNOR2121
012024083002KEPL3       010KEPLER WEBERON      NM   R$  000000000108400000000011210000000001070000000000110700000000011170000000001117000000000111805270000000000001473700000000001632660200000000000000009999123100000010000000000000BRKEPLACNOR1064
012024083002KLBN11      010KLABIN S/A  UNT     N2   R$  000000000215200000000021590000000002124000000000215000000000021590000000002150000000000215913460000000000010469700000000022517629100000000000000009999123100000010000000000000BRKLBNCDAM18143
012024083002KLBN3       010KLABIN S/A  ON      N2   R$  000000000043300000000004350000000000427000000000042900000000004320000000000432000000000043300736000000000000372000000000000159684100000000000000009999123100000010000000000000BRKLBNACNOR2171
012024083002KLBN4       010KLABIN S/A  PN      N2   R$  000000000043000000000004360000000000425000000000043000000000004360000000000430000000000043602118000000000001738000000000000747391300000000000000009999123100000010000000000000BRKLBNACNPR9171
012024083002BAHI3       010BAHEMA      ON      MA   R$  000000000062300000000006450000000000620000000000063600000000006390000000000620000000000064500011000000000000003200000000000002037900000000000000009999123100000010000000000000BRBAHIACNOR1074
012024083002BALM4       010BAUMER      PN           R$  000000000106500000000010650000000001065000000000106500000000010650000000001065000000000110000002000000000000000200000000000000213000000000000000009999123100000010000000000000BRBALMACNPR2056
012024083002BAUH4       010EXCELSIOR   PN           R$  000000000798700000000079870000000007987000000000798700000000079870000000007700000000000798900001000000000000000100000000000000798700000000000000009999123100000010000000000000BRBAUHACNPR3118
012024083002BAZA3       010AMAZONIA    ON           R$  000000000978700000000098500000000009787000000000981600000000098500000000009835000000000985000006000000000000000600000000000005889600000000000000009999123100000010000000000000BRBAZAACNOR0179
012024083002BBAS3       010BRASIL      ON  EX  NM   R$  000000000282000000000028270000000002798000000000281200000000028120000000002812000000000281333803000000000031814700000000089466374500000000000000009999123100000010000000000000BRBBASACNOR3325
012024083002BRBI11      010BR PARTNERS UNT     N2   R$  000000000154100000000015700000000001519000000000154400000000015700000000001552000000000157000978000000000000130800000000000201983000000000000000009999123100000010000000000000BRBRBICDAM10110
012024083002BRFS3       010BRF SA      ON      NM   R$  000000000255200000000026230000000002514000000000260200000000026230000000002616000000000262413681000000000008860700000000023061030700000000000000009999123100000010000000000000BRBRFSACNOR8122
012024083002CSED3       010CRUZEIRO EDUON  ED  NM   R$  000000000036200000000003670000000000359000000000036200000000003650000000000362000000000036500725000000000000480700000000000174125500000000000000009999123100000010000000000000BRCSEDACNOR9105
012024083002CSMG3       010COPASA      ON      NM   R$  000000000235200000000023720000000002326000000000235600000000023720000000002363000000000237205569000000000001664100000000003920927000000000000000009999123100000010000000000000BRCSMGACNOR5174
012024083002CSNA3       010SID NACIONALON           R$  000000000118100000000011930000000001170000000000118500000000011860000000001185000000000118610974000000000011535800000000013673398600000000000000009999123100000010000000000000BRCSNAACNOR6261
012024083002EGIE3       010ENGIE BRASILON  ED  NM   R$  000000000438100000000045300000000004364000000000450200000000045160000000004514000000000451710767000000000003275400000000014748962900000000000000009999123100000010000000000000BREGIEACNOR9127
012024083002EKTR4       010ELEKTRO     PN           R$  000000000432200000000043220000000004320000000000432100000000043220000000004320000000000432200007000000000000001600000000000006913700000000000000009999123100000010000000000000BREKTRACNPR7164
012024083002EZTC3       010EZTEC       ON      NM   R$  000000000140400000000014130000000001373000000000139900000000014090000000001408000000000140905560000000000002111800000000002954519200000000000000009999123100000010000000000000BREZTCACNOR0126
012024083002ELET3       010ELETROBRAS  ON      N1   R$  000000000410100000000041750000000004072000000000416000000000041750000000004170000000000417632816000000000018601600000000077388345800000000000000009999123100000010000000000000BRELETACNOR6160
012024083002ELET6       010ELETROBRAS  PNB     N1   R$  000000000457600000000046370000000004551000000000461100000000046140000000004613000000000462008456000000000003487600000000016081887200000000000000009999123100000010000000000000BRELETACNPB7077
012024083002HAGA3       010HAGA S/A    ON           R$  000000000024000000000002400000000000236000000000023700000000002370000000000236000000000023700004000000000000001000000000000000237100000000000000009999123100000010000000000000BRHAGAACNOR7103
012024083002HAGA4       010HAGA S/A    PN           R$  000000000011800000000001190000000000116000000000011700000000001190000000000117000000000011900013000000000000003200000000000000375000000000000000009999123100000010000000000000BRHAGAACNPR4103
012024083002HAPV3       010HAPVIDA     ON      NM   R$  000000000042200000000004320000000000418000000000042500000000004240000000000424000000000042541711000000000099681500000000042377173700000000000000009999123100000010000000000000BRHAPVACNOR4114
012024083002HBOR3       010HELBOR      ON      NM   R$  000000000020800000000002100000000000205000000000020700000000002070000000000207000000000020800474000000000000526300000000000109440000000000000000009999123100000010000000000000BRHBORACNOR3118
012024083002HBRE3       010HBR REALTY  ON      NM   R$  000000000051700000000005370000000000515000000000053000000000005370000000000534000000000053700572000000000000545400000000000289077300000000000000009999123100000010000000000000BRHBREACNOR4100
012024083002HBSA3       010HIDROVIAS   ON      NM   R$  000000000034500000000003490000000000338000000000034600000000003490000000000349000000000035008714000000000010511700000000003637537500000000000000009999123100000010000000000000BRHBSAACNOR0100
012024083002HBTS5       010HABITASUL   PNA          R$  000000000389000000000038900000000003890000000000389000000000038900000000003300000000000410000001000000000000000100000000000000389000000000000000009999123100000010000000000000BRHBTSACNPA3128
012024083002ITSA3       010ITAUSA      ON      N1   R$  000000000110200000000011020000000001086000000000109100000000010920000000001091000000000109200380000000000000102900000000000112346500000000000000009999123100000010000000000000BRITSAACNOR0441
012024083002ITSA4       010ITAUSA      PN      N1   R$  000000000109500000000010960000000001083000000000109200000000010960000000001095000000000109639794000000000048632500000000053152426900000000000000009999123100000010000000000000BRITSAACNPR7441
012024083002LUPA3       010LUPATECH    ON      NM   R$  000000000015300000000001560000000000150000000000015200000000001520000000000152000000000015300091000000000000098300000000000015026900000000000000009999123100000010000000000000BRLUPAACNOR8112
012024083002LUXM4       010TREVISA     PN           R$  000000000130200000000013990000000001300000000000135000000000013990000000001305000000000140000012000000000000001600000000000002161000000000000000009999123100000010000000000000BRLUXMACNPR4052
012024083002LVTC3       010WDC NETWORKSON      NM   R$  000000000038300000000003890000000000369000000000037700000000003690000000000369000000000037000050000000000000014100000000000005326400000000000000009999123100000010000000000000BRLVTCACNOR4102
012024083002HETA4       010HERCULES    PN           R$  000000000054000000000005890000000000540000000000055900000000005890000000000503000000000059700003000000000000000300000000000000167900000000000000009999123100000010000000000000BRHETAACNPR9136
012024083002LWSA3       010LWSA        ON      NM   R$  000000000045900000000004680000000000454000000000045900000000004550000000000455000000000045610529000000000005132600000000002356018900000000000000009999123100000010000000000000BRLWSAACNOR8103
012024083002MAPT4       010CEMEPE      PN           R$  000000000050000000000005000000000000500000000000050000000000005000000000000470000000000055000001000000000000000100000000000000050000000000000000009999123100000010000000000000BRMAPTACNPR5106
012024083002MATD3       010MATER DEI   ON      NM   R$  000000000044100000000004670000000000440000000000046100000000004660000000000463000000000046904511000000000003176400000000001467345100000000000000009999123100000010000000000000BRMATDACNOR4104
012024083002MBLY3       010MOBLY       ON      NM   R$  000000000027800000000002940000000000268000000000028300000000002940000000000290000000000029402503000000000002389200000000000676198700000000000000009999123100000010000000000000BRMBLYACNOR5100
012024083002MDIA3       010M.DIASBRANCOON      NM   R$  000000000274900000000027490000000002692000000000271300000000027160000000002704000000000271703169000000000001026100000000002784284700000000000000009999123100000010000000000000BRMDIAACNOR7135
012024083002DASA3       010DASA        ON      NM   R$  000000000032700000000003270000000000299000000000030600000000002990000000000298000000000029902797000000000001552300000000000476028000000000000000009999123100000010000000000000BRDASAACNOR1122
012024083002GGBR3       010GERDAU      ON      N1   R$  000000000162900000000016320000000001606000000000161800000000016210000000001610000000000162200222000000000000032900000000000053249800000000000000009999123100000010000000000000BRGGBRACNOR1193
012024083002GGBR4       010GERDAU      PN      N1   R$  000000000183400000000018420000000001817000000000182800000000018300000000001830000000000183218877000000000021657900000000039594594300000000000000009999123100000010000000000000BRGGBRACNPR8193
012024083002PTBL3       010PORTOBELLO  ON      NM   R$  000000000049300000000004950000000000480000000000048800000000004890000000000489000000000049000720000000000000278600000000000136151800000000000000009999123100000010000000000000BRPTBLACNOR8132
012024083002PTNT3       010PETTENATI   ON           R$  000000000092800000000009400000000000928000000000093400000000009370000000000865000000000093800003000000000000000500000000000000467000000000000000009999123100000010000000000000BRPTNTACNOR6042
012024083002PTNT4       010PETTENATI   PN           R$  000000000070600000000007260000000000700000000000071300000000007260000000000715000000000072600023000000000000007300000000000005204900000000000000009999123100000010000000000000BRPTNTACNPR3047
012024083002FHER3       010FER HERINGERON      NM   R$  000000000041600000000004160000000000415000000000041500000000004150000000000415000000000041600016000000000000004300000000000001785200000000000000009999123100000010000000000000BRFHERACNOR5103
012024083002FIEI3       010FICA        ON           R$  000000000083000000000008300000000000830000000000083500000000008300000000000840000000000090000002000000000000000200000000000000167000000000000000009999123100000010000000000000BRFIEIACNOR2100
012024083002FIQE3       010UNIFIQUE    ON      NM   R$  000000000037900000000003820000000000372000000000037900000000003800000000000379000000000038200933000000000000432700000000000164126000000000000000009999123100000010000000000000BRFIQEACNOR5107
012024083002FLRY3       010FLEURY      ON      NM   R$  000000000158800000000015950000000001567000000000159000000000015950000000001578000000000159513533000000000011806700000000018775483400000000000000009999123100000010000000000000BRFLRYACNOR5139
012024083002COCE5       010COELCE      PNA          R$  000000000311100000000032300000000003091000000000320500000000032300000000003120000000000323000048000000000000017800000000000057055400000000000000009999123100000010000000000000BRCOCEACNPA3147
012024083002COGN3       010COGNA ON    ON      NM   R$  000000000013900000000001430000000000136000000000013900000000001370000000000137000000000013811450000000000045007500000000006263753500000000000000009999123100000010000000000000BRCOGNACNOR2105
012024083002CSUD3       010CSU DIGITAL ON      NM   R$  000000000186200000000019250000000001855000000000188900000000019250000000001865000000000192500159000000000000029500000000000055735500000000000000009999123100000010000000000000BRCSUDACNOR5110
012024083002CTKA4       010KARSTEN     PN           R$  000000000195000000000019500000000001950000000000195000000000019500000000001881000000000219500001000000000000000100000000000000195000000000000000009999123100000010000000000000BRCTKAACNPR7043
012024083002DESK3       010DESKTOP     ON      NM   R$  000000000155900000000015590000000001520000000000153700000000015400000000001540000000000154100411000000000000094700000000000145554400000000000000009999123100000010000000000000BRDESKACNOR2104
012024083002DEXP3       010DEXXOS PAR  ON      N1   R$  000000000097000000000009800000000000965000000000097300000000009710000000000971000000000097200178000000000000031100000000000030279500000000000000009999123100000010000000000000BRDEXPACNOR1105
012024083002DEXP4       010DEXXOS PAR  PN      N1   R$  000000000095500000000009550000000000950000000000095300000000009500000000000942000000000095500017000000000000009700000000000009253000000000000000009999123100000010000000000000BRDEXPACNPR8105
012024083002DIRR3       010DIRECIONAL  ON      NM   R$  000000000290200000000029380000000002832000000000288100000000028930000000002892000000000289412295000000000003130900000000009022823800000000000000009999123100000010000000000000BRDIRRACNOR0118
012024083002DMVF3       010D1000VFARMA ON      NM   R$  000000000070400000000007210000000000699000000000070900000000007120000000000709000000000071200214000000000000054500000000000038654800000000000000009999123100000010000000000000BRDMVFACNOR9100
012024083002BGIP4       010BANESE      PN           R$  000000000231700000000023270000000002317000000000232200000000023230000000002322000000000235000010000000000000001000000000000002322800000000000000009999123100000010000000000000BRBGIPACNPR8209
012024083002BHIA3       010CASAS BAHIA ON      NM   R$  000000000069500000000007440000000000675000000000072200000000007440000000000741000000000074407479000000000006411400000000004629459600000000000000009999123100000010000000000000BRBHIAACNOR1102
012024083002BPAN4       010BANCO PAN   PN      N1   R$  000000000098400000000009960000000000968000000000098300000000009900000000000989000000000099005811000000000002803100000000002757113200000000000000009999123100000010000000000000BRBPANACNPR1115
012024083002BRAP3       010BRADESPAR   ON      N1   R$  000000000179700000000017970000000001771000000000178900000000017900000000001790000000000179400936000000000000945800000000001692156100000000000000009999123100000010000000000000BRBRAPACNOR5148
012024083002BRAP4       010BRADESPAR   PN      N1   R$  000000000192600000000019590000000001919000000000194600000000019470000000001946000000000194811196000000000004566900000000008891017800000000000000009999123100000010000000000000BRBRAPACNPR2148
012024083002GEPA3       010GER PARANAP ON           R$  000000000264500000000026450000000002645000000000264500000000026450000000002560000000000264500001000000000000000100000000000000264500000000000000009999123100000010000000000000BRGEPAACNOR2153
012024083002GEPA4       010GER PARANAP PN           R$  000000000273000000000027490000000002730000000000274200000000027450000000002665000000000274900004000000000000000500000000000001371400000000000000009999123100000010000000000000BRGEPAACNPR9160
012024083002JALL3       010JALLESMACHADON      NM   R$  000000000066900000000006720000000000655000000000066500000000006720000000000666000000000067201907000000000000941100000000000626639300000000000000009999123100000010000000000000BRJALLACNOR0106
012024083002JBSS3       010JBS         ON      NM   R$  000000000352500000000035300000000003457000000000349400000000035000000000003500000000000350116763000000000012041600000000042084599900000000000000009999123100000010000000000000BRJBSSACNOR8122
012024083002MNPR3       010MINUPAR     ON           R$  000000000160100000000016010000000001601000000000160100000000016010000000001530000000000162000004000000000000000600000000000000960600000000000000009999123100000010000000000000BRMNPRACNOR5122
012024083002MOVI3       010MOVIDA      ON      NM   R$  000000000069100000000007150000000000686000000000070500000000007140000000000713000000000071408826000000000004259500000000003004552600000000000000009999123100000010000000000000BRMOVIACNOR0122
012024083002MRFG3       010MARFRIG     ON      NM   R$  000000000145600000000014630000000001433000000000145000000000014560000000001455000000000145712865000000000004520300000000006557437100000000000000009999123100000010000000000000BRMRFGACNOR0116
012024083002MRSA3B      010MRS LOGIST  ON      MB   R$  000000000298000000000029800000000002980000000000298000000000029800000000002921000000000325000001000000000000000200000000000000596000000000000000009999123100000010000000000000BRMRSAACNOR6125
012024083002MRVE3       010MRV         ON      NM   R$  000000000073100000000007530000000000723000000000074300000000007470000000000746000000000074708662000000000008307100000000006172341200000000000000009999123100000010000000000000BRMRVEACNOR2127
012024083002B3SA3       010B3          ON      NM   R$  000000000124300000000012700000000001237000000000126200000000012680000000001267000000000126952744000000000118454800000000149539200900000000000000009999123100000010000000000000BRB3SAACNOR6133
012024083002BEES3       010BANESTES    ON           R$  000000000090100000000009020000000000896000000000089900000000009020000000000899000000000090200084000000000000012900000000000011598900000000000000009999123100000010000000000000BRBEESACNOR9394
012024083002BEES4       010BANESTES    PN           R$  000000000098500000000009860000000000977000000000098100000000009860000000000981000000000098700013000000000000001500000000000001472000000000000000009999123100000010000000000000BRBEESACNPR6319
012024083002PINE3       010PINE        ON      N2   R$  000000000056000000000005600000000000559000000000055900000000005590000000000551000000000055900002000000000000000800000000000000447300000000000000009999123100000010000000000000BRPINEACNOR1150
012024083002PINE4       010PINE        PN      N2   R$  000000000049300000000004950000000000483000000000048900000000004860000000000486000000000048700492000000000000162800000000000079757300000000000000009999123100000010000000000000BRPINEACNPR8150
012024083002PLAS3       010PLASCAR PARTON           R$  000000000060100000000006010000000000600000000000060000000000006000000000000560000000000065200002000000000000000200000000000000120100000000000000009999123100000010000000000000BRPLASACNOR2106
012024083002PLPL3       010PLANOEPLANO ON      NM   R$  000000000119200000000012200000000001170000000000119400000000012030000000001197000000000120405442000000000001886300000000002252368600000000000000009999123100000010000000000000BRPLPLACNOR5104
012024083002PNVL3       010DIMED       ON      NM   R$  000000000101800000000010180000000000993000000000100400000000010070000000001006000000000100702463000000000000510300000000000512376600000000000000009999123100000010000000000000BRPNVLACNOR9207
012024083002POMO3       010MARCOPOLO   ON  EDJ N2   R$  000000000054600000000005800000000000544000000000057100000000005770000000000572000000000057801533000000000000371600000000000212317900000000000000009999123100000010000000000000BRPOMOACNOR0099
012024083002POMO4       010MARCOPOLO   PN  EDJ N2   R$  000000000069900000000007460000000000686000000000072900000000007350000000000735000000000073819190000000000019448600000000014192268700000000000000009999123100000010000000000000BRPOMOACNPR7099
012024083002PORT3       010WILSON SONS ON      NM   R$  000000000170200000000017200000000001683000000000170700000000017200000000001700000000000172003130000000000001516000000000002587938400000000000000009999123100000010000000000000BRPORTACNOR8109
012024083002POSI3       010POSITIVO TECON      NM   R$  000000000064100000000006530000000000634000000000064300000000006530000000000652000000000065309399000000000004001900000000002575201900000000000000009999123100000010000000000000BRPOSIACNOR9116
012024083002PRIO3       010PETRORIO    ON      NM   R$  000000000466600000000046980000000004604000000000466100000000046840000000004681000000000468522494000000000009826700000000045805257800000000000000009999123100000010000000000000BRPRIOACNOR1107
012024083002ROMI3       010ROMI        ON      NM   R$  000000000106700000000011000000000001060000000000107800000000011000000000001084000000000110002240000000000000659000000000000710889600000000000000009999123100000010000000000000BRROMIACNOR8195
012024083002RPAD5       010ALFA HOLDINGPNA          R$  000000000089700000000008970000000000862000000000087600000000008620000000000863000000000088000003000000000000000500000000000000438100000000000000009999123100000010000000000000BRRPADACNPA4219
012024083002RRRP3       0103R PETROLEUMON      NM   R$  000000000270400000000027060000000002627000000000264300000000026370000000002636000000000263715219000000000010767400000000028465184500000000000000009999123100000010000000000000BRRRRPACNOR5103
012024083002TASA3       010TAURUS ARMASON      N2   R$  000000000112200000000011430000000001118000000000112800000000011410000000001126000000000116700093000000000000013700000000000015460500000000000000009999123100000010000000000000BRTASAACNOR7104
012024083002TASA4       010TAURUS ARMASPN      N2   R$  000000000111200000000011330000000001110000000000112200000000011280000000001127000000000112901438000000000000477100000000000535633000000000000000009999123100000010000000000000BRTASAACNPR4104
012024083002TCSA3       010TECNISA     ON      NM   R$  000000000019600000000001980000000000194000000000019500000000001960000000000195000000000019600122000000000000047100000000000009198500000000000000009999123100000010000000000000BRTCSAACNOR3112
012024083002TECN3       010TECHNOS     ON      NM   R$  000000000053500000000005480000000000530000000000053700000000005430000000000540000000000054300336000000000000176000000000000094683500000000000000009999123100000010000000000000BRTECNACNOR6109
012024083002TELB3       010TELEBRAS    ON           R$  000000000143000000000014350000000001362000000000138100000000013620000000001362000000000140000013000000000000001400000000000001933700000000000000009999123100000010000000000000BRTELBACNOR2140
012024083002TELB4       010TELEBRAS    PN           R$  000000000094900000000009620000000000930000000000094700000000009300000000000930000000000095200024000000000000004600000000000004356400000000000000009999123100000010000000000000BRTELBACNPR9140
012024083002TEND3       010TENDA       ON      NM   R$  000000000131200000000013450000000001289000000000132600000000013400000000001338000000000134107947000000000002551000000000003383165400000000000000009999123100000010000000000000BRTENDACNOR4111
012024083002TFCO4       010TRACK FIELD PN      N2   R$  000000000117000000000011930000000001150000000000117600000000011930000000001164000000000119300224000000000000043600000000000051273700000000000000009999123100000010000000000000BRTFCOACNPR8114
012024083002TGMA3       010TEGMA       ON      NM   R$  000000000255000000000026250000000002550000000000260300000000026250000000002625000000000262601362000000000000320800000000000835063600000000000000009999123100000010000000000000BRTGMAACNOR7145
012024083002TIMS3       010TIM         ON      NM   R$  000000000177100000000017910000000001760000000000178200000000017860000000001785000000000178616581000000000013884900000000024746682600000000000000009999123100000010000000000000BRTIMSACNOR5117
012024083002TOTS3       010TOTVS       ON      NM   R$  000000000302200000000030250000000002983000000000299800000000029970000000002996000000000299814503000000000006487600000000019449963300000000000000009999123100000010000000000000BRTOTSACNOR8145
012024083002VIVA3       010VIVARA S.A. ON      NM   R$  000000000259500000000026670000000002575000000000262800000000026420000000002641000000000264419298000000000005718700000000015033173000000000000000009999123100000010000000000000BRVIVAACNOR0107
012024083002VIVR3       010VIVER       ON      NM   R$  000000000025100000000002510000000000235000000000023700000000002350000000000235000000000023800091000000000000037700000000000008966500000000000000009999123100000010000000000000BRVIVRACNOR4123
012024083002VIVT3       010TELEF BRASILON  EJ       R$  000000000516600000000052120000000005131000000000518200000000051830000000005182000000000519013637000000000005799900000000030059043200000000000000009999123100000010000000000000BRVIVTACNOR0184
012024083002VLID3       010VALID       ON      NM   R$  000000000225500000000022890000000002214000000000226500000000022750000000002275000000000228003641000000000000745700000000001689614100000000000000009999123100000010000000000000BRVLIDACNOR5144
012024083002VSTE3       010VESTE       ON      NM   R$  000000000131000000000013130000000001293000000000130600000000013000000000001300000000000131000012000000000000003500000000000004572000000000000000009999123100000010000000000000BRVSTEACNOR5103
012024083002VTRU3       010VITRUEDUCA  ON      NM   R$  000000000102200000000010250000000001007000000000101400000000010140000000001010000000000101400232000000000000079400000000000080578700000000000000009999123100000010000000000000BRVTRUACNOR3100
012024083002WHRL3       010WHIRLPOOL   ON           R$  000000000043100000000004310000000000426000000000042600000000004260000000000425000000000042600006000000000000001400000000000000597400000000000000009999123100000010000000000000BRWHRLACNOR5128
012024083002WHRL4       010WHIRLPOOL   PN           R$  000000000045800000000004590000000000450000000000045300000000004510000000000451000000000045400011000000000000002600000000000001177900000000000000009999123100000010000000000000BRWHRLACNPR2128
012024083002WIZC3       010WIZ CO      ON      NM   R$  000000000060000000000006230000000000595000000000061300000000006170000000000617000000000062203999000000000001178200000000000722833300000000000000009999123100000010000000000000BRWIZCACNOR5102
012024083002WLMM3       010WLM IND COM ON           R$  000000000288000000000028800000000002880000000000288000000000028800000000002725000000000288000001000000000000000100000000000000288000000000000000009999123100000010000000000000BRWLMMACNOR6119
012024083002WLMM4       010WLM IND COM PN           R$  000000000361100000000036110000000003600000000000360500000000036000000000003352000000000369800002000000000000000200000000000000721100000000000000009999123100000010000000000000BRWLMMACNPR3119
012024083002PETZ3       010PETZ        ON      NM   R$  000000000051700000000005230000000000486000000000049700000000004860000000000486000000000048718160000000000041235700000000020494876300000000000000009999123100000010000000000000BRPETZACNOR2110
012024083002RAPT3       010RANDON PART ON      N1   R$  000000000087200000000008940000000000867000000000088500000000008930000000000888000000000089300129000000000000017400000000000015413000000000000000009999123100000010000000000000BRRAPTACNOR7163
012024083002RAPT4       010RANDON PART PN      N1   R$  000000000108500000000011100000000001075000000000109700000000011010000000001097000000000110106204000000000003515100000000003856252200000000000000009999123100000010000000000000BRRAPTACNPR4163
012024083002RCSL3       010RECRUSUL    ON           R$  000000000043100000000004880000000000424000000000046000000000004700000000000470000000000047805006000000000001968400000000000906815300000000000000009999123100000010000000000000BRRCSLACNOR4134
012024083002RCSL4       010RECRUSUL    PN           R$  000000000008900000000000910000000000088000000000008900000000000900000000000089000000000009000248000000000000219700000000000019682700000000000000009999123100000010000000000000BRRCSLACNPR1134
012024083002RDNI3       010RNI         ON      NM   R$  000000000031800000000003310000000000318000000000032800000000003300000000000326000000000033200015000000000000004100000000000001347400000000000000009999123100000010000000000000BRRDNIACNOR9116
012024083002RDOR3       010REDE D OR   ON      NM   R$  000000000320100000000032480000000003160000000000319400000000031930000000003190000000000319421077000000000028516000000000091088056300000000000000009999123100000010000000000000BRRDORACNOR8113
012024083002RECV3       010PETRORECSA  ON      NM   R$  000000000205100000000020510000000002002000000000202000000000020400000000002035000000000204009490000000000003234900000000006537103400000000000000009999123100000010000000000000BRRECVACNOR3107
012024083002REDE3       010REDE ENERGIAON           R$  000000000070400000000007070000000000695000000000070200000000007000000000000697000000000070000005000000000000000500000000000000351100000000000000009999123100000010000000000000BRREDEACNOR7128
012024083002SUZB3       010SUZANO S.A. ON      NM   R$  000000000553400000000055910000000005473000000000550300000000055000000000005499000000000550125601000000000011325400000000062327544400000000000000009999123100000010000000000000BRSUZBACNOR0130
012024083002MILS3       010MILLS       ON      NM   R$  000000000109000000000011040000000001075000000000109700000000011010000000001100000000000110205624000000000001392700000000001528576700000000000000009999123100000010000000000000BRMILSACNOR2128
012024083002MLAS3       010MULTILASER  ON      NM   R$  000000000018700000000001940000000000183000000000018700000000001860000000000186000000000018706970000000000006606000000000001235858000000000000000009999123100000010000000000000BRMLASACNOR9101
012024083002MNDL3       010MUNDIAL     ON           R$  000000000133000000000014180000000001330000000000139800000000014110000000001370000000000143100012000000000000003000000000000004195900000000000000009999123100000010000000000000BRMNDLACNOR4109
012024083002RAIZ4       010RAIZEN      PN      N2   R$  000000000031900000000003220000000000315000000000031800000000003210000000000320000000000032111720000000000012964900000000004133962900000000000000009999123100000010000000000000BRRAIZACNPR6111
012024083002RANI3       010IRANI       ON      NM   R$  000000000079500000000008080000000000790000000000079900000000007990000000000799000000000080004984000000000004284300000000003425319600000000000000009999123100000010000000000000BRRANIACNOR5073
012024083002SMFT3       010SMART FIT   ON      NM   R$  000000000222200000000022330000000002181000000000220400000000022050000000002205000000000221109697000000000002829400000000006237477300000000000000009999123100000010000000000000BRSMFTACNOR1112
012024083002SMTO3       010SAO MARTINHOON      NM   R$  000000000277500000000028420000000002753000000000279500000000027720000000002770000000000277508690000000000001670400000000004668983700000000000000009999123100000010000000000000BRSMTOACNOR3127
012024083002SNSY3       010SANSUY      ON           R$  000000000132000000000013290000000001320000000000132600000000013290000000001275000000000132500002000000000000000400000000000000530700000000000000009999123100000010000000000000BRSNSYACNOR2113
012024083002SNSY5       010SANSUY      PNA          R$  000000000057400000000006160000000000562000000000057900000000005710000000000571000000000059000043000000000000010200000000000005911200000000000000009999123100000010000000000000BRSNSYACNPA5111
012024083002SOJA3       010BOA SAFRA   ON      NM   R$  000000000129000000000013040000000001262000000000128600000000012850000000001284000000000129004906000000000002039400000000002624225800000000000000009999123100000010000000000000BRSOJAACNOR9105
012024083002SRNA3       010SERENA      ON      NM   R$  000000000081800000000008240000000000801000000000080900000000008100000000000810000000000081213071000000000004230900000000003426271800000000000000009999123100000010000000000000BRSRNAACNOR4100
012024083002STBP3       010SANTOS BRP  ON      NM   R$  000000000128700000000013310000000001251000000000130300000000013000000000001297000000000130021119000000000026410200000000034417215400000000000000009999123100000010000000000000BRSTBPACNOR3131
012024083002RADL3       010RAIADROGASILON      NM   R$  000000000275100000000027670000000002728000000000275200000000027560000000002751000000000275717767000000000012672600000000034876767300000000000000009999123100000010000000000000BRRADLACNOR0157
012024083002RAIL3       010RUMO S.A.   ON      NM   R$  000000000218600000000021910000000002169000000000218200000000021850000000002184000000000218623865000000000017572100000000038359643200000000000000009999123100000010000000000000BRRAILACNOR9105
012024083002SLCE3       010SLC AGRICOLAON      NM   R$  000000000177500000000017760000000001761000000000176800000000017660000000001765000000000177105669000000000002352900000000004160075700000000000000009999123100000010000000000000BRSLCEACNOR2125
012024083002KRSA3       010KORA SAUDE  ON      NM   R$  000000000006100000000000610000000000059000000000005900000000000610000000000060000000000006100045000000000000050200000000000003000800000000000000009999123100000010000000000000BRKRSAACNOR0100
012024083002DOHL4       010DOHLER      PN           R$  000000000042200000000004390000000000408000000000042800000000004370000000000411000000000043700006000000000000000800000000000000343000000000000000009999123100000010000000000000BRDOHLACNPR9066
012024083002DOTZ3       010DOTZ SA     ON      NM   R$  000000000089000000000009450000000000860000000000089200000000008810000000000876000000000088100258000000000000091300000000000081503200000000000000009999123100000010000000000000BRDOTZACNOR7101
012024083002DXCO3       010DEXCO       ON      NM   R$  000000000078800000000008210000000000779000000000081400000000008210000000000819000000000082110887000000000010063700000000008199486800000000000000009999123100000010000000000000BRDXCOACNOR8105
012024083002EALT3       010ACO ALTONA  ON           R$  000000000135500000000013600000000001350000000000135500000000013550000000001355000000000149000018000000000000008100000000000010976000000000000000009999123100000010000000000000BREALTACNOR4138
012024083002EALT4       010ACO ALTONA  PN           R$  000000000129500000000013490000000001284000000000131100000000013490000000001344000000000134900114000000000000023300000000000030565200000000000000009999123100000010000000000000BREALTACNPR1138
012024083002ECOR3       010ECORODOVIAS ON      NM   R$  000000000076100000000007970000000000754000000000078100000000007830000000000782000000000078709827000000000006018000000000004703562900000000000000009999123100000010000000000000BRECORACNOR8120
012024083002GGPS3       010GPS         ON      NM   R$  000000000176900000000018150000000001743000000000180000000000018050000000001805000000000180611227000000000006952300000000012521009900000000000000009999123100000010000000000000BRGGPSACNOR9103
012024083002LAND3       010TERRASANTAPAON      NM   R$  000000000126100000000013080000000001242000000000128200000000012700000000001270000000000129000396000000000000101000000000000129554400000000000000009999123100000010000000000000BRLANDACNOR9103
012024083002LAVV3       010LAVVI       ON      NM   R$  000000000085900000000008590000000000825000000000083400000000008300000000000829000000000083103425000000000000931500000000000777128400000000000000009999123100000010000000000000BRLAVVACNOR4113
012024083002LEVE3       010METAL LEVE  ON      NM   R$  000000000315700000000032060000000003114000000000317500000000032060000000003170000000000320602841000000000000653700000000002075813000000000000000009999123100000010000000000000BRLEVEACNOR2197
012024083002LIPR3       010ELETROPAR   ON           R$  000000000475000000000047500000000004750000000000475000000000047500000000000000000000000490000001000000000000000100000000000000475000000000000000009999123100000010000000000000BRLIPRACNOR7122
012024083002LJQQ3       010QUERO-QUERO ON      NM   R$  000000000042000000000004270000000000416000000000042300000000004250000000000424000000000042504581000000000002928700000000001240045000000000000000009999123100000010000000000000BRLJQQACNOR5104
012024083002GFSA3       010GAFISA      ON      NM   R$  000000000027000000000002700000000000261000000000026400000000002630000000000263000000000026403266000000000003137400000000000829614300000000000000009999123100000010000000000000BRGFSAACNOR3125
012024083002ITUB3       010ITAUUNIBANCOON      N1   R$  000000000321200000000032170000000003158000000000318000000000031810000000003180000000000318103390000000000000969900000000003084637300000000000000009999123100000010000000000000BRITUBACNOR4339
012024083002ITUB4       010ITAUUNIBANCOPN      N1   R$  000000000368300000000036970000000003641000000000366600000000036700000000003667000000000367140416000000000061647300000000226029831900000000000000009999123100000010000000000000BRITUBACNPR1339
012024083002MGEL4       010MANGELS INDLPN           R$  000000000110000000000011050000000001100000000000110100000000011000000000001068000000000114800003000000000000000300000000000000330500000000000000009999123100000010000000000000BRMGELACNPR3147
012024083002MGLU3       010MAGAZ LUIZA ON      NM   R$  000000000127500000000012780000000001213000000000123200000000012160000000001215000000000121626319000000000025198000000000031061516700000000000000009999123100000010000000000000BRMGLUACNOR2124
012024083002ATOM3       010ATOMPAR     ON           R$  000000000020500000000002100000000000205000000000020800000000002070000000000206000000000020900015000000000000005600000000000001169600000000000000009999123100000010000000000000BRATOMACNOR1106
012024083002AURE3       010AUREN       ON      NM   R$  000000000114000000000011540000000001135000000000114100000000011390000000001139000000000114209874000000000010710600000000012221680500000000000000009999123100000010000000000000BRAUREACNOR9104
012024083002AVLL3       010ALPHAVILLE  ON      NM   R$  000000000040000000000004020000000000400000000000040100000000004010000000000365000000000040200014000000000000018600000000000007472700000000000000009999123100000010000000000000BRAVLLACNOR5103
012024083002AZEV3       010AZEVEDO     ON           R$  000000000014200000000001520000000000140000000000014700000000001500000000000149000000000015000748000000000000877700000000000129698600000000000000009999123100000010000000000000BRAZEVACNOR0121
012024083002AZEV4       010AZEVEDO     PN           R$  000000000014200000000001520000000000140000000000014800000000001500000000000149000000000015003695000000000006498000000000000966748100000000000000009999123100000010000000000000BRAZEVACNPR7121
012024083002AZUL4       010AZUL        PN      N2   R$  000000000058200000000005930000000000536000000000055300000000005390000000000538000000000054027450000000000059186800000000032753272800000000000000009999123100000010000000000000BRAZULACNPR4102
012024083002CMIN3       010CSNMINERACAOON      N2   R$  000000000056000000000005830000000000560000000000057100000000005680000000000568000000000056914876000000000016393500000000009375666100000000000000009999123100000010000000000000BRCMINACNOR2111
012024083002TTEN3       0103TENTOS     ON      NM   R$  000000000119700000000011970000000001172000000000119000000000011970000000001196000000000119706239000000000001175800000000001399552200000000000000009999123100000010000000000000BRTTENACNOR0103
012024083002TUPY3       010TUPY        ON      NM   R$  000000000267400000000027360000000002656000000000272200000000027360000000002732000000000273702843000000000000645900000000001758645100000000000000009999123100000010000000000000BRTUPYACNOR1184
012024083002UCAS3       010UNICASA     ON      NM   R$  000000000022500000000002320000000000223000000000023000000000002320000000000232000000000023300084000000000000053900000000000012413000000000000000009999123100000010000000000000BRUCASACNOR1113
012024083002UGPA3       010ULTRAPAR    ON      NM   R$  000000000230000000000023480000000002269000000000233300000000023360000000002336000000000233715999000000000014134300000000032988496600000000000000009999123100000010000000000000BRUGPAACNOR8156
012024083002PFRM3       010PROFARMA    ON      NM   R$  000000000061300000000006320000000000612000000000062300000000006320000000000632000000000063300758000000000000167600000000000104460000000000000000009999123100000010000000000000BRPFRMACNOR1116
012024083002PGMN3       010PAGUE MENOS ON      NM   R$  000000000031500000000003160000000000304000000000030800000000003080000000000307000000000030903648000000000001171300000000000361633200000000000000009999123100000010000000000000BRPGMNACNOR8103
012024083002LOGG3       010LOG COM PROPON      NM   R$  000000000235400000000023540000000002299000000000233300000000023400000000002340000000000240303400000000000000756300000000001764648600000000000000009999123100000010000000000000BRLOGGACNOR7107
012024083002NGRD3       010NEOGRID     ON      NM   R$  000000000013500000000001350000000000131000000000013100000000001310000000000130000000000013100443000000000000261100000000000034445500000000000000009999123100000010000000000000BRNGRDACNOR3104
012024083002NINJ3       010GETNINJAS   ON      NM   R$  000000000046500000000004700000000000465000000000046800000000004700000000000466000000000047900018000000000000006500000000000003046100000000000000009999123100000010000000000000BRNINJACNOR5101
012024083002NORD3       010NORDON MET  ON           R$  000000000119100000000011910000000001191000000000119100000000011910000000001052000000000119200002000000000000000200000000000000238200000000000000009999123100000010000000000000BRNORDACNOR7135
012024083002NTCO3       010GRUPO NATURAON      NM   R$  000000000139000000000013940000000001355000000000136300000000013550000000001355000000000135819971000000000013373800000000018233892400000000000000009999123100000010000000000000BRNTCOACNOR5106
012024083002ESPA3       010ESPACOLASER ON      NM   R$  000000000010500000000001060000000000104000000000010400000000001060000000000105000000000010600100000000000000232700000000000024366900000000000000009999123100000010000000000000BRESPAACNOR7103
012024083002ETER3       010ETERNIT     ON      NM   R$  000000000058200000000005950000000000582000000000058700000000005860000000000586000000000058700411000000000000226500000000000133140300000000000000009999123100000010000000000000BRETERACNOR3244
012024083002EUCA3       010EUCATEX     ON      N1   R$  000000000177900000000017790000000001740000000000175900000000017400000000001669000000000170000002000000000000000200000000000000351900000000000000009999123100000010000000000000BREUCAACNOR1157
012024083002EUCA4       010EUCATEX     PN      N1   R$  000000000158100000000015940000000001544000000000156500000000015650000000001560000000000157200278000000000000042000000000000065761800000000000000009999123100000010000000000000BREUCAACNPR8044
012024083002EVEN3       010EVEN        ON      NM   R$  000000000064400000000006450000000000632000000000063600000000006350000000000635000000000063702026000000000000765000000000000487127100000000000000009999123100000010000000000000BREVENACNOR8119
012024083002AESB3       010AES BRASIL  ON  ES  NM   R$  000000000114300000000011450000000001140000000000114400000000011450000000001142000000000114603162000000000003406900000000003897806500000000000000009999123100000010000000000000BRAESBACNOR7107
012024083002AFLT3       010AFLUENTE T  ON           R$  000000000071500000000007150000000000715000000000071500000000007150000000000715000000000074500001000000000000000100000000000000071500000000000000009999123100000010000000000000BRAFLTACNOR1122
012024083002AGRO3       010BRASILAGRO  ON      NM   R$  000000000256900000000025970000000002552000000000258500000000025910000000002589000000000259101686000000000000332800000000000860564000000000000000009999123100000010000000000000BRAGROACNOR7114
012024083002AGXY3       010AGROGALAXY  ON      NM   R$  000000000012100000000001290000000000120000000000012500000000001230000000000123000000000012400428000000000000548900000000000068752400000000000000009999123100000010000000000000BRAGXYACNOR4103
012024083002ALLD3       010ALLIED      ON      NM   R$  000000000075500000000007590000000000747000000000075200000000007530000000000750000000000075300160000000000000031700000000000023869900000000000000009999123100000010000000000000BRALLDACNOR3106
012024083002ALOS3       010ALLOS       ON      NM   R$  000000000229000000000023140000000002259000000000228200000000022810000000002281000000000228317281000000000008604600000000019637620600000000000000009999123100000010000000000000BRALOSACNOR5101
012024083002ALPA3       010ALPARGATAS  ON      N1   R$  000000000079500000000007950000000000783000000000078400000000007840000000000783000000000078500026000000000000004000000000000003136200000000000000009999123100000010000000000000BRALPAACNOR0231
012024083002ALPA4       010ALPARGATAS  PN      N1   R$  000000000079300000000007930000000000770000000000077700000000007700000000000770000000000077407825000000000005104300000000003969348800000000000000009999123100000010000000000000BRALPAACNPR7232
012024083002BRSR3       010BANRISUL    ON      N1   R$  000000000136200000000013780000000001346000000000136600000000013650000000001357000000000136600052000000000000007300000000000009976000000000000000009999123100000010000000000000BRBRSRACNOR3188
012024083002BRSR6       010BANRISUL    PNB     N1   R$  000000000125500000000012750000000001247000000000125700000000012560000000001255000000000125707084000000000001815400000000002282244300000000000000009999123100000010000000000000BRBRSRACNPB4191
012024083002BSLI4       010BRB BANCO   PN           R$  000000000094800000000009980000000000948000000000097300000000009980000000000948000000000099600002000000000000000200000000000000194600000000000000009999123100000010000000000000BRBSLIACNPR2194
012024083002BRIT3       010BRISANET    ON      NM   R$  000000000035300000000003570000000000351000000000035300000000003530000000000353000000000035400635000000000000327600000000000115779300000000000000009999123100000010000000000000BRBRITACNOR0103
012024083002BRKM3       010BRASKEM     ON      N1   R$  000000000179200000000018020000000001760000000000178700000000017920000000001775000000000179400063000000000000009600000000000017157600000000000000009999123100000010000000000000BRBRKMACNOR1119
012024083002BRKM5       010BRASKEM     PNA     N1   R$  000000000178100000000018040000000001758000000000179500000000018040000000001802000000000180407640000000000005874400000000010549551900000000000000009999123100000010000000000000BRBRKMACNPA4121
012024083002CAMB3       010CAMBUCI     ON           R$  000000000124000000000012690000000001223000000000124100000000012680000000001257000000000126800273000000000000053400000000000066272200000000000000009999123100000010000000000000BRCAMBACNOR4131
012024083002CAML3       010CAMIL       ON      NM   R$  000000000094000000000009530000000000927000000000094600000000009530000000000943000000000095302278000000000000664300000000000628474500000000000000009999123100000010000000000000BRCAMLACNOR3128
012024083002CASH3       010MELIUZ      ON      NM   R$  000000000067400000000006900000000000669000000000068100000000006900000000000689000000000069003563000000000002062200000000001404796500000000000000009999123100000010000000000000BRCASHACNOR8106
012024083002ELMD3       010ELETROMIDIA ON      NM   R$  000000000177500000000018000000000001756000000000178400000000018000000000001777000000000180000406000000000000071700000000000127927200000000000000009999123100000010000000000000BRELMDACNOR3101
012024083002EMAE3       010EMAE        ON           R$  000000000684500000000068450000000006845000000000684500000000068450000000006845000000000000000001000000000000000100000000000000684500000000000000009999123100000010000000000000BREMAEACNOR4125
012024083002EMAE4       010EMAE        PN           R$  000000000412000000000041290000000004120000000000412600000000041290000000004062000000000413000003000000000000000300000000000001237800000000000000009999123100000010000000000000BREMAEACNPR1125
012024083002EMBR3       010EMBRAER     ON      NM   R$  000000000463100000000047440000000004591000000000468100000000046830000000004669000000000468640471000000000078125200000000365704193900000000000000009999123100000010000000000000BREMBRACNOR4191
012024083002ABEV3       010AMBEV S/A   ON           R$  000000000127700000000012870000000001275000000000128400000000012860000000001286000000000128724381000000000050852200000000065311040500000000000000009999123100000010000000000000BRABEVACNOR1128
012024083002FRAS3       010FRAS-LE     ON      N1   R$  000000000194500000000019740000000001932000000000196400000000019740000000001952000000000197401801000000000000568300000000001116151400000000000000009999123100000010000000000000BRFRASACNOR0160
012024083002FRIO3       010METALFRIO   ON      NM   R$  000000001600000000000190000000000011000000000001790700000000190000000000018000000000001900000124000000000000036900000000000660770400000000000000009999123100000010000000000000BRFRIOACNOR2111
012024083002CURY3       010CURY S/A    ON      NM   R$  000000000234000000000024220000000002287000000000235000000000023820000000002374000000000238210934000000000004150200000000009754892600000000000000009999123100000010000000000000BRCURYACNOR3109
012024083002CVCB3       010CVC BRASIL  ON      NM   R$  000000000019600000000002020000000000193000000000019800000000001970000000000197000000000019808734000000000014551500000000002883886400000000000000009999123100000010000000000000BRCVCBACNOR1116
012024083002CXSE3       010CAIXA SEGURION      NM   R$  000000000158000000000016480000000001570000000000163100000000016350000000001635000000000163720554000000000018737600000000030571210000000000000000009999123100000010000000000000BRCXSEACNOR7107
012024083002FESA4       010FERBASA     PN      N1   R$  000000000080700000000008150000000000800000000000080900000000008150000000000814000000000081502775000000000001121600000000000908195100000000000000009999123100000010000000000000BRFESAACNPR5084
012024083002GMAT3       010GRUPO MATEUSON      NM   R$  000000000079400000000007970000000000776000000000078500000000007880000000000783000000000079005724000000000002407300000000001890691200000000000000009999123100000010000000000000BRGMATACNOR7102
012024083002GOAU3       010GERDAU MET  ON      N1   R$  000000000105700000000010700000000001051000000000106000000000010550000000001055000000000106400123000000000000020300000000000021525700000000000000009999123100000010000000000000BRGOAUACNOR1268
012024083002GOAU4       010GERDAU MET  PN      N1   R$  000000000104500000000010510000000001036000000000104500000000010490000000001043000000000104909393000000000005891400000000006159366100000000000000009999123100000010000000000000BRGOAUACNPR8269
012024083002GRND3       010GRENDENE    ON  ED  NM   R$  000000000060000000000006030000000000590000000000059900000000006000000000000599000000000060003395000000000001330900000000000797253700000000000000009999123100000010000000000000BRGRNDACNOR3175
012024083002BIOM3       010BIOMM       ON      MA   R$  000000000085000000000009210000000000831000000000088400000000009010000000000901000000000090500347000000000000054000000000000047752000000000000000009999123100000010000000000000BRBIOMACNOR2112
012024083002BEEF3       010MINERVA     ON      NM   R$  000000000074600000000007560000000000741000000000074800000000007490000000000748000000000074906628000000000009877100000000007397299600000000000000009999123100000010000000000000BRBEEFACNOR6116
012024083002BPAC11      010BTGP BANCO  UNT     N2   R$  000000000354600000000035760000000003518000000000355300000000035560000000003554000000000355825161000000000015559700000000055298230500000000000000009999123100000010000000000000BRBPACUNT006119
012024083002BPAC3       010BTGP BANCO  ON      N2   R$  000000000163300000000016330000000001633000000000163300000000016330000000001640000000000166900002000000000000000200000000000000326600000000000000009999123100000010000000000000BRBPACACNOR7134
012024083002BPAC5       010BTGP BANCO  PNA     N2   R$  000000000094600000000009520000000000942000000000094600000000009460000000000940000000000095600010000000000000002300000000000002176700000000000000009999123100000010000000000000BRBPACACNPA0134
012024083002MDNE3       010MOURA DUBEUXON      NM   R$  000000000142000000000014320000000001387000000000141700000000014250000000001422000000000142502406000000000000595100000000000843635600000000000000009999123100000010000000000000BRMDNEACNOR9100
012024083002MEAL3       010IMC S/A     ON      NM   R$  000000000016000000000001640000000000158000000000016100000000001590000000000159000000000016100399000000000000505200000000000081526800000000000000009999123100000010000000000000BRMEALACNOR9105
012024083002MELK3       010MELNICK     ON      NM   R$  000000000033700000000003430000000000333000000000033900000000003390000000000339000000000034001228000000000001336100000000000454072200000000000000009999123100000010000000000000BRMELKACNOR8111
012024083002PDGR3       010PDG REALT   ON      NM   R$  000000000001600000000000170000000000016000000000001600000000000160000000000016000000000001700220000000000000412500000000000006866900000000000000009999123100000010000000000000BRPDGRACNOR8119
012024083002PDTC3       010PADTEC      ON      NM   R$  000000000021000000000002140000000000204000000000020700000000002110000000000210000000000021200186000000000000062800000000000013052600000000000000009999123100000010000000000000BRPDTCACNOR3101
012024083002PEAB3       010PAR AL BAHIAON           R$  000000000430000000000043000000000004222000000000427400000000042220000000004218000000000440000002000000000000000300000000000001282200000000000000009999123100000010000000000000BRPEABACNOR3133
012024083002PEAB4       010PAR AL BAHIAPN           R$  000000000484400000000048500000000004844000000000484600000000048500000000000000000000000484800003000000000000000600000000000002907800000000000000009999123100000010000000000000BRPEABACNPR0133
012024083002PETR3       010PETROBRAS   ON  EDJ N2   R$  000000000428200000000043350000000004243000000000429300000000042940000000004292000000000429531079000000000036947400000000158615916300000000000000009999123100000010000000000000BRPETRACNOR9206
012024083002PETR4       010PETROBRAS   PN  EDJ N2   R$  000000000392200000000039650000000003888000000000393300000000039370000000003937000000000393861273000000000084437200000000332117955900000000000000009999123100000010000000000000BRPETRACNPR6214
012024083002ALPK3       010ESTAPAR     ON      NM   R$  000000000037700000000003800000000000368000000000037200000000003740000000000372000000000037400309000000000000082900000000000030896700000000000000009999123100000010000000000000BRALPKACNOR9101
012024083002ALUP11      010ALUPAR      UNT     N2   R$  000000000309000000000032310000000003080000000000318000000000031830000000003183000000000319010680000000000002768500000000008805091500000000000000009999123100000010000000000000BRALUPCDAM15120
012024083002ALUP3       010ALUPAR      ON      N2   R$  000000000106800000000011010000000001068000000000108300000000010750000000001088000000000109600065000000000000010800000000000011699800000000000000009999123100000010000000000000BRALUPACNOR8120
012024083002ALUP4       010ALUPAR      PN      N2   R$  000000000100800000000010590000000001008000000000104400000000010450000000001036000000000104500087000000000000016600000000000017342000000000000000009999123100000010000000000000BRALUPACNPR5120
012024083002AMAR3       010LOJAS MARISAON      NM   R$  000000000011300000000001170000000000112000000000011400000000001170000000000116000000000011701045000000000000755400000000000086366100000000000000009999123100000010000000000000BRAMARACNOR4115
012024083002AMBP3       010AMBIPAR     ON      NM   R$  000000000701900000000074620000000006861000000000720400000000071260000000007100000000000712602510000000000000745900000000005373947300000000000000009999123100000010000000000000BRAMBPACNOR6103
012024083002ANIM3       010ANIMA       ON      NM   R$  000000000032100000000003330000000000316000000000032600000000003280000000000328000000000033005635000000000004653900000000001517679300000000000000009999123100000010000000000000BRANIMACNOR6109
012024083002APER3       010ALPER S.A.  ON           R$  000000000464800000000046750000000004648000000000465300000000046750000000004575000000000467500007000000000000001600000000000007445100000000000000009999123100000010000000000000BRAPERACNOR9106
012024083002ARML3       010ARMAC       ON      NM   R$  000000000084700000000008660000000000835000000000085700000000008650000000000864000000000086503410000000000000890800000000000764038500000000000000009999123100000010000000000000BRARMLACNOR1112
012024083002HYPE3       010HYPERA      ON      NM   R$  000000000290300000000029140000000002830000000000285900000000028540000000002853000000000285517299000000000006158700000000017610861400000000000000009999123100000010000000000000BRHYPEACNOR0143
012024083002ASAI3       010ASSAI       ON      NM   R$  000000000092700000000009750000000000927000000000095600000000009570000000000955000000000095737615000000000046062400000000044036140000000000000000009999123100000010000000000000BRASAIACNOR0106
012024083002BBDC3       010BRADESCO    ON      N1   R$  000000000139800000000014150000000001398000000000141100000000014140000000001412000000000141408602000000000010668200000000015062619300000000000000009999123100000010000000000000BRBBDCACNOR1773
012024083002BBDC4       010BRADESCO    PN      N1   R$  000000000155400000000015670000000001549000000000156100000000015640000000001563000000000156530536000000000051286000000000080084535100000000000000009999123100000010000000000000BRBBDCACNPR8773
012024083002CBAV3       010CBA         ON      NM   R$  000000000050500000000005080000000000492000000000049900000000004980000000000498000000000049904607000000000002759700000000001377956200000000000000009999123100000010000000000000BRCBAVACNOR5104
012024083002CCRO3       010CCR SA      ON      NM   R$  000000000130700000000013250000000001302000000000132100000000013250000000001319000000000132611480000000000014455400000000019102570300000000000000009999123100000010000000000000BRCCROACNOR2145
012024083002CEAB3       010CEA MODAS   ON      NM   R$  000000000100700000000010330000000000984000000000101700000000010170000000001016000000000101704844000000000002357300000000002398848300000000000000009999123100000010000000000000BRCEABACNOR1102
012024083002CEBR3       010CEB         ON           R$  000000000198000000000019800000000001870000000000190200000000019480000000001913000000000194800028000000000000006300000000000011988100000000000000009999123100000010000000000000BRCEBRACNOR5125
012024083002BLAU3       010BLAU        ON      NM   R$  000000000131600000000014500000000001312000000000139700000000013970000000001393000000000139703406000000000000704000000000000984071000000000000000009999123100000010000000000000BRBLAUACNOR8114
012024083002BMEB3       010MERCANTIL   ON      N1   R$  000000000354500000000036000000000003545000000000359100000000036000000000003521000000000360000005000000000000002500000000000008977900000000000000009999123100000010000000000000BRBMEBACNOR8206
012024083002BMEB4       010MERCANTIL   PN      N1   R$  000000000385000000000039440000000003850000000000390100000000039000000000003895000000000390000077000000000000014800000000000057747600000000000000009999123100000010000000000000BRBMEBACNPR5211
012024083002BMGB4       010BANCO BMG   PN      N1   R$  000000000038700000000003870000000000375000000000038000000000003790000000000378000000000038000941000000000000627600000000000238884100000000000000009999123100000010000000000000BRBMGBACNPR0110
012024083002BMKS3       010BIC MONARK  ON           R$  000000003050000000000314990000000030500000000003093400000000307510000000030750000000003100000008000000000000000036000000000001113655000000000000009999123100000010000000000000BRBMKSACNOR9166
012024083002CEBR5       010CEB         PNA          R$  000000000165900000000016700000000001659000000000166400000000016700000000001659000000000167000009000000000000002700000000000004492800000000000000009999123100000010000000000000BRCEBRACNPA8124
012024083002CEBR6       010CEB         PNB          R$  000000000180900000000018500000000001805000000000181500000000018050000000001787000000000181000016000000000000003000000000000005445500000000000000009999123100000010000000000000BRCEBRACNPB6124
012024083002CEDO4       010CEDRO       PN      N1   R$  000000000245800000000024580000000002450000000000245600000000024500000000002390000000000249900002000000000000000500000000000001228200000000000000009999123100000010000000000000BRCEDOACNPR5128
012024083002CEED3       010CEEE-D      ON           R$  000000000140000000000014000000000001400000000000140000000000014000000000001300000000000215000001000000000000000100000000000000140000000000000000009999123100000010000000000000BRCEEDACNOR9103
012024083002CGAS5       010COMGAS      PNA          R$  000000001198500000000121500000000011985000000001202800000000120000000000012000000000001245100018000000000000002700000000000032477100000000000000009999123100000010000000000000BRCGASACNPA3161
012024083002CGRA4       010GRAZZIOTIN  PN           R$  000000000255000000000025560000000002529000000000254200000000025290000000002529000000000259900021000000000000002700000000000006864100000000000000009999123100000010000000000000BRCGRAACNPR9083
012024083002CLSA3       010CLEARSALE   ON      NM   R$  000000000081700000000008570000000000810000000000084100000000008570000000000856000000000085706909000000000004253000000000003578996200000000000000009999123100000010000000000000BRCLSAACNOR0100
012024083002CLSC4       010CELESC      PN      N2   R$  000000000775000000000078950000000007750000000000779500000000078850000000007801000000000789800019000000000000003000000000000023387200000000000000009999123100000010000000000000BRCLSCACNPR3131
012024083002CMIG3       010CEMIG       ON  ED  N1   R$  000000000139400000000014520000000001385000000000143300000000014370000000001436000000000143702114000000000000822900000000001179599300000000000000009999123100000010000000000000BRCMIGACNOR6243
012024083002CMIG4       010CEMIG       PN  ED  N1   R$  000000000115500000000011680000000001148000000000116100000000011630000000001163000000000116424402000000000024960400000000028981949400000000000000009999123100000010000000000000BRCMIGACNPR3244
012024083002ENEV3       010ENEVA       ON      NM   R$  000000000131500000000013420000000001307000000000131400000000013130000000001313000000000131519743000000000082256800000000108149534800000000000000009999123100000010000000000000BRENEVACNOR8106
012024083002ENGI11      010ENERGISA    UNT     N2   R$  000000000467800000000047710000000004663000000000472400000000047310000000004731000000000473213779000000000004054900000000019157563200000000000000009999123100000010000000000000BRENGICDAM16136
012024083002ENGI3       010ENERGISA    ON      N2   R$  000000000145500000000014680000000001425000000000144700000000014670000000001421000000000146800035000000000000005600000000000008106800000000000000009999123100000010000000000000BRENGIACNOR0146
012024083002ENGI4       010ENERGISA    PN      N2   R$  000000000082000000000008270000000000814000000000081800000000008140000000000815000000000082500029000000000000006000000000000004909600000000000000009999123100000010000000000000BRENGIACNPR7142
012024083002ENJU3       010ENJOEI      ON      NM   R$  000000000016400000000001710000000000164000000000016800000000001690000000000167000000000016903610000000000001991600000000000334965700000000000000009999123100000010000000000000BRENJUACNOR9100
012024083002ENMT4       010ENERGISA MT PN           R$  000000000834000000000083580000000008340000000000835400000000083580000000000000000000000835900004000000000000000600000000000005012400000000000000009999123100000010000000000000BRENMTACNPR2126
012024083002EPAR3       010EMBPAR S/A  ON           R$  000000000058200000000005950000000000570000000000057900000000005930000000000588000000000059300028000000000000006700000000000003885300000000000000009999123100000010000000000000BREPARACNOR9105
012024083002EQPA3       010EQTL PARA   ON           R$  000000000059000000000006190000000000586000000000059700000000006000000000000597000000000060600051000000000000015500000000000009267200000000000000009999123100000010000000000000BREQPAACNOR1111
012024083002EQTL3       010EQUATORIAL  ON  ES  NM   R$  000000000340100000000034200000000003383000000000341000000000034200000000003413000000000342124081000000000012687100000000043269249400000000000000009999123100000010000000000000BREQTLACNOR0131
012024083002INEP3       010INEPAR      ON           R$  000000000020700000000002190000000000204000000000020800000000002040000000000203000000000020400077000000000000052900000000000011036400000000000000009999123100000010000000000000BRINEPACNOR1143
012024083002INEP4       010INEPAR      PN           R$  000000000021300000000002230000000000207000000000021400000000002120000000000210000000000021300058000000000000019900000000000004263500000000000000009999123100000010000000000000BRINEPACNPR8143
012024083002INTB3       010INTELBRAS   ON      NM   R$  000000000221400000000022390000000002194000000000221100000000022040000000002204000000000221203090000000000000646100000000001429132700000000000000009999123100000010000000000000BRINTBACNOR9112
012024083002IRBR3       010IRBBRASIL REON      NM   R$  000000000486000000000048890000000004753000000000482100000000048380000000004835000000000483907638000000000001686400000000008131076900000000000000009999123100000010000000000000BRIRBRACNOR4111
012024083002LOGN3       010LOG-IN      ON      NM   R$  000000000365800000000036580000000003500000000000354200000000035010000000003501000000000358300127000000000000019300000000000068368000000000000000009999123100000010000000000000BRLOGNACNOR3105
012024083002LPSB3       010LOPES BRASILON      NM   R$  000000000016900000000001720000000000165000000000016600000000001650000000000165000000000016700265000000000000285500000000000047559500000000000000009999123100000010000000000000BRLPSBACNOR0114
012024083002LREN3       010LOJAS RENNERON      NM   R$  000000000168000000000017350000000001668000000000170200000000017010000000001701000000000171039257000000000177339900000000301968658500000000000000009999123100000010000000000000BRLRENACNOR1221
012024083002ODPV3       010ODONTOPREV  ON  ED  NM   R$  000000000111500000000011280000000001104000000000112300000000011260000000001126000000000112703445000000000000964300000000001083373500000000000000009999123100000010000000000000BRODPVACNOR4203
012024083002OFSA3       010OUROFINO S/AON      NM   R$  000000000227900000000022800000000002242000000000226800000000022690000000002226000000000227000031000000000000024300000000000055128200000000000000009999123100000010000000000000BROFSAACNOR7118
012024083002ONCO3       010ONCOCLINICASON      NM   R$  000000000063600000000006840000000000626000000000066400000000006660000000000665000000000066608543000000000008878700000000005900397700000000000000009999123100000010000000000000BRONCOACNOR6101
012024083002AALR3       010ALLIAR      ON      NM   R$  000000000157900000000016000000000001540000000000157800000000016000000000001580000000000160000127000000000000035500000000000056043700000000000000009999123100000010000000000000BRAALRACNOR6102
012024083002ABCB4       010ABC BRASIL  PN      N2   R$  000000000231900000000023250000000002286000000000230700000000023250000000002315000000000232503818000000000000809300000000001867618700000000000000009999123100000010000000000000BRABCBACNPR4146
012024083002OPCT3       010OCEANPACT   ON      NM   R$  000000000064900000000006550000000000635000000000064500000000006470000000000640000000000064907692000000000004973500000000003209861300000000000000009999123100000010000000000000BROPCTACNOR0100
012024083002ORVR3       010ORIZON      ON      NM   R$  000000000468500000000046850000000004590000000000462100000000046270000000004626000000000462803055000000000000530000000000002449627100000000000000009999123100000010000000000000BRORVRACNOR0101
012024083002BMOB3       010BEMOBI TECH ON      NM   R$  000000000159600000000015960000000001565000000000158700000000015940000000001594000000000159501705000000000000354800000000000563223700000000000000009999123100000010000000000000BRBMOBACNOR7103
012024083002BNBR3       010NORD BRASIL ON  EJ       R$  000000001060000000000106000000000010600000000001060000000000106000000000010600000000001086900002000000000000000200000000000002120000000000000000009999123100000010000000000000BRBNBRACNOR8209
012024083002BOBR4       010BOMBRIL     PN           R$  000000000021200000000002130000000000211000000000021200000000002130000000000213000000000021400013000000000000003200000000000000678900000000000000009999123100000010000000000000BRBOBRACNPR3128
012024083007TXRX4       010TEX RENAUX  PN           R$  000000000022700000000002270000000000227000000000022700000000002270000000000228000000000023600001000000000000000100000000000000022700000000000000009999123100000010000000000000BRTXRXACNPR0142
012024083007NUTR3       010NUTRIPLANT  ON      MA   R$  000000000046600000000004870000000000464000000000047800000000004870000000000468000000000048700041000000000000006700000000000003207500000000000000009999123100000010000000000000BRNUTRACNOR0104
012024083008RSID3       010ROSSI RESID ON      NM   R$  000000000038200000000003900000000000376000000000038100000000003830000000000383000000000038700080000000000000014700000000000005612900000000000000009999123100000010000000000000BRRSIDACNOR8120
012024083008JFEN3       010JOAO FORTES ON           R$  000000000002200000000000220000000000020000000000002100000000000210000000000021000000000002200257000000000001058000000000000022271000000000000000009999123100000010000000000000BRJFENACNOR0059
012024083008CTSA3       010SANTANENSE  ON           R$  000000000027200000000002850000000000272000000000027700000000002760000000000276000000000028800007000000000000000700000000000000194400000000000000009999123100000010000000000000BRCTSAACNOR3062
012024083008CTSA4       010SANTANENSE  PN           R$  000000000012600000000001390000000000123000000000012900000000001390000000000135000000000013900116000000000000066000000000000008542100000000000000009999123100000010000000000000BRCTSAACNPR0062
012024083008HOOT4       010HOTEIS OTHONPN           R$  000000000023700000000002370000000000237000000000023700000000002370000000000228000000000023700001000000000000000200000000000000047400000000000000009999123100000010000000000000BRHOOTACNPR9015
012024083008PMAM3       010PARANAPANEMAON      NM   R$  000000000018900000000001900000000000179000000000018200000000001850000000000185000000000018600312000000000000195200000000000035618400000000000000009999123100000010000000000000BRPMAMACNOR3039
012024083008RNEW11      010RENOVA      UNT     N2   R$  000000000029500000000002970000000000295000000000029500000000002970000000000294000000000029800004000000000000000700000000000000206800000000000000009999123100000010000000000000BRRNEWCDAM15110
012024083008RNEW3       010RENOVA      ON      N2   R$  000000000009900000000001020000000000097000000000009900000000001020000000000099000000000010200067000000000000025700000000000002557300000000000000009999123100000010000000000000BRRNEWACNOR8110
012024083008RNEW4       010RENOVA      PN      N2   R$  000000000009800000000001000000000000096000000000009800000000000990000000000098000000000009900086000000000000032100000000000003148100000000000000009999123100000010000000000000BRRNEWACNPR5110
012024083008RPMG3       010PET MANGUINHON           R$  000000000029000000000003050000000000284000000000029500000000003050000000000295000000000030500192000000000000050100000000000014787200000000000000009999123100000010000000000000BRRPMGACNOR9194
012024083008LIGT3       010LIGHT S/A   ON      NM   R$  000000000064800000000006590000000000622000000000064400000000006400000000000640000000000064305957000000000001533900000000000989172200000000000000009999123100000010000000000000BRLIGTACNOR2124
012024083008ATMP3       010ATMASA      ON           R$  000000000013700000000001410000000000135000000000013900000000001380000000000138000000000014100012000000000000006500000000000000906700000000000000009999123100000010000000000000BRATMPACNOR8100
012024083008NEXP3       010NEXPE       ON           R$  000000000040000000000004090000000000400000000000040600000000004090000000000400000000000040900006000000000000001000000000000000406300000000000000009999123100000010000000000000BRNEXPACNOR0101
012024083008BDLL4       010BARDELLA    PN           R$  000000000094000000000009400000000000940000000000094000000000009400000000000900000000000093900001000000000000000400000000000000376000000000000000009999123100000010000000000000BRBDLLACNPR8151
012024083008AMER3       010AMERICANAS  ON  EG  NM   R$  000000000060900000000006220000000000576000000000059400000000005770000000000576000000000057711492000000000010839600000000006447139700000000000000009999123100000010000000000000BRAMERACNOR6103
012024083008OIBR3       010OI          ON  ES  N1   R$  000000000050100000000005050000000000473000000000048700000000004950000000000495000000000049601907000000000001341300000000000654281600000000000000009999123100000010000000000000BROIBRACNOR1112
012024083008OIBR4       010OI          PN  ES  N1   R$  000000000121000000000012250000000001200000000000121000000000012050000000001205000000000121900041000000000000008800000000000010652200000000000000009999123100000010000000000000BROIBRACNPR8111
012024083008OSXB3       010OSX BRASIL  ON      NM   R$  000000000038900000000003890000000000373000000000038300000000003870000000000379000000000038900004000000000000000500000000000000191900000000000000009999123100000010000000000000BROSXBACNOR8109
012024083010RENT9       010LOCALIZA    ON  REC NM   R$  000000000439800000000043980000000004001000000000408200000000040600000000004060000000000440000058000000000000008300000000000033885800000000000000009999123100000010000000000000BRRENTR06OR8195
012024083010GFSA1       010GAFISA      DIR ORD NM   R$  000000000000200000000000020000000000001000000000000100000000000020000000000001000000000000200176000000000000576200000000000001103200000000000000009999123100000010000000000000BRGFSAD11OR7124
012024083010AESB1       010AES BRASIL  DIR ORD NM   R$  000000000001500000000000190000000000011000000000001500000000000170000000000017000000000001900226000000000000198000000000000002971800000000000000009999123100000010000000000000BRAESBD03OR8106
012024083010EQTL1       010EQUATORIAL  DIR ORD NM   R$  000000000020000000000002060000000000181000000000019000000000001900000000000190000000000019900832000000000000437500000000000083282300000000000000009999123100000010000000000000BREQTLD04OR9130
012024083010OIBR1       010OI          DIR ORD N1   R$  000000000000500000000000090000000000004000000000000500000000000060000000000005000000000000600481000000000001389100000000000007583200000000000000009999123100000010000000000000BROIBRD05OR7111
012024083012SADI11      010FII SANT PAPCI           R$  000000000905600000000090560000000009011000000000903200000000090400000000009040000000000905300707000000000000008987000000000081178307000000000000009999123100000010000000000000BRSADICTF007161
012024083012SAPI11      010FII SAPI    CI           R$  000000000921000000000092450000000009115000000000917900000000092350000000009235000000000924000302000000000000002631000000000024151053000000000000009999123100000010000000000000BRSAPICTF001110
012024083012SARE11      010FII SANT RENCI           R$  000000000402000000000040550000000003985000000000399600000000040550000000004000000000000405502902000000000000038862000000000155313797000000000000009999123100000010000000000000BRSARECTF006158
012024083012QAGR11      010FII QUASAR ACI           R$  000000000468700000000047440000000004620000000000467700000000047360000000004724000000000473600692000000000000003999000000000018706941000000000000009999123100000010000000000000BRQAGRCTF005157
012024083012SCPF11      010FII SCP     CI           R$  000000000025800000000002660000000000258000000000025900000000002650000000000259000000000026500051000000000000001471000000000000382372000000000000009999123100000010000000000000BRSCPFCTF003302
012024083012SEQR11      010FII SEQUOIA CI           R$  000000000520000000000052000000000005168000000000517500000000051920000000005192000000000519300149000000000000002765000000000014309114000000000000009999123100000010000000000000BRSEQRCTF002145
012024083012SHPH11      010FII HIGIENOPCI           R$  000000008960000000000935010000000089500000000008981000000000900000000000090000000000009290000034000000000000000172000000000015447390000000000000009999123100000010000000000000BRSHPHCTF008352
012024083012PRSN11      010FII PERSONALCI           R$  000000000011100000000001130000000000111000000000011100000000001110000000000111000000000011300013000000000000006468000000000000723344000000000000009999123100000010000000000000BRPRSNCTF005125
012024083012PRSV11      010FII P VARGASCI           R$  000000000687600000000068760000000006876000000000687600000000068760000000005801000000000685000001000000000000000002000000000000013752000000000000009999123100000010000000000000BRPRSVCTF008226
012024083012RZTR11      010FII RIZA TX CI           R$  000000000944200000000094980000000009425000000000947400000000094740000000009471000000000947404394000000000000035403000000000335438839000000000000009999123100000010000000000000BRRZTRCTF003150
012024083012URHF11      010FII URHF    CI           R$  000000001100000000000110000000000011000000000001100000000000110000000000009810000000001100000002000000000000000014000000000000154000000000000000009999123100000010000000000000BRURHFCTF004101
012024083012URPR11      010FII URCA RENCI           R$  000000000827000000000082860000000008258000000000827000000000082860000000008285000000000828601539000000000000019564000000000161797076000000000000009999123100000010000000000000BRURPRCTF002160
012024083012RVBI11      010FII VBI REITCI           R$  000000000740000000000074280000000007389000000000741100000000074200000000007420000000000742401461000000000000010881000000000080645332000000000000009999123100000010000000000000BRRVBICTF009154
012024083012RZAK11      010FII RIZA AKNCI           R$  000000000825000000000082750000000008225000000000824600000000082430000000008243000000000825003104000000000000024767000000000204230890000000000000009999123100000010000000000000BRRZAKCTF008146
012024083012RZAT11      010FII ARCTIUM CI           R$  000000000982800000000098950000000009827000000000986500000000098270000000009827000000000987301403000000000000008851000000000087316952000000000000009999123100000010000000000000BRRZATCTF009119
012024083012TRBL11      010FII SDI LOG CI           R$  000000000974200000000097750000000009672000000000972900000000097000000000009700000000000973201295000000000000009155000000000089070733000000000000009999123100000010000000000000BRTRBLCTF007114
012024083012PABY11      010FII PANAMBY CI           R$  000000000145000000000014500000000001445000000000144500000000014450000000001251000000000144500004000000000000000118000000000000170535000000000000009999123100000010000000000000BRPABYCTF012158
012024083012PATC11      010FII PATRIA  CI           R$  000000000363800000000037000000000003611000000000366600000000037000000000003700000000000375300038000000000000001010000000000003703340000000000000009999123100000010000000000000BRPATCCTF002172
012024083012PATL11      010FII PATLOGISCI           R$  000000000612100000000062000000000006082000000000614000000000061570000000006157000000000616700860000000000000009724000000000059712799000000000000009999123100000010000000000000BRPATLCTF003148
012024083012EMET11      010FII EMET    CI           R$  000000000101000000000010450000000001001000000000100900000000010450000000001045000000000000000007000000000000041005000000000041406225000000000000009999123100000010000000000000BREMETCTF007100
012024083012ICRI11      010FII CI IPCA CI           R$  000000000985500000000098600000000009785000000000982600000000098380000000009800000000000983801689000000000000010914000000000107248074000000000000009999123100000010000000000000BRICRICTF004106
012024083012IDFI11      010FII UNIDADESCI           R$  000000000085700000000009400000000000785000000000092400000000009400000000000800000000000094000041000000000000003181000000000002940961000000000000009999123100000010000000000000BRIDFICTF007134
012024083012IDGR11      010FII UNID II CI           R$  000000000056000000000007400000000000560000000000069700000000007400000000000600000000000074000014000000000000000044000000000000030705000000000000009999123100000010000000000000BRIDGRCTF006129
012024083012KNCR11      010FII KINEA RICI           R$  000000001058000000000105800000000010496000000001056300000000105360000000010536000000001055915804000000000000186570000000001970781107000000000000009999123100000010000000000000BRKNCRCTF000242
012024083012KNHF11      010FII KINEA HFCI           R$  000000000980000000000098340000000009750000000000979200000000098340000000009770000000000983402887000000000000021082000000000206451632000000000000009999123100000010000000000000BRKNHFCTF004113
012024083012CPLG11      010FII CPLG    CI           R$  000000000099000000000010600000000000990000000000102500000000010600000000000990000000000106000002000000000000000002000000000000002050000000000000009999123100000010000000000000BRCPLGCTF006100
012024083012CPSH11      010FII CPSH    CI           R$  000000000105500000000010600000000001051000000000105400000000010600000000001052000000000106001315000000000000031868000000000033590622000000000000009999123100000010000000000000BRCPSHCTF017116
012024083012CPTS11      010FII CAPI SECCI           R$  000000000082100000000008230000000000817000000000081900000000008210000000000820000000000082143081000000000001339271000000001097358491000000000000009999123100000010000000000000BRCPTSCTF004233
012024083012CRFF11      010FII CX RBRA2CI           R$  000000000789900000000079800000000007731000000000776100000000079800000000007809000000000798000033000000000000001052000000000008164607000000000000009999123100000010000000000000BRCRFFCTF006163
012024083012VVCO11      010FII V2EDCORPCI           R$  000000000129900000000013010000000001285000000000129700000000013000000000001300000000000130300026000000000000000489000000000000634289000000000000009999123100000010000000000000BRVVCOCTF007101
012024083012VVCR11      010FII V2 RECE CI           R$  000000000099200000000009920000000000990000000000099000000000009920000000000990000000000099400073000000000000532233000000000527442128000000000000009999123100000010000000000000BRVVCRCTF000118
012024083012VVMR11      010FII MULT RENCI           R$  000000000870200000000090000000000008702000000000890800000000090000000000008893000000000900000014000000000000000060000000000000534538000000000000009999123100000010000000000000BRVVMRCTF009108
