00COTAHIST.2024BOVESPA 20240806                                                                                                                                                                                                                      
012024080602JSLG3       010JSL         ON      NM   R$  000000000095100000000009510000000000900000000000090900000000009040000000000902000000000090401438000000000000527400000000000479712400000000000000009999123100000010000000000000BRJSLGACNOR2121
012024080602KEPL3       010KEPLER WEBERON      NM   R$  000000000105700000000010720000000001047000000000105700000000010510000000001051000000000105403518000000000000907500000000000959366400000000000000009999123100000010000000000000BRKEPLACNOR1063
012024080602KLBN11      010KLABIN S/A  UNT ED  N2   R$  000000000209400000000020990000000002065000000000207800000000020760000000002075000000000207714253000000000004487200000000009326311500000000000000009999123100000010000000000000BRKLBNCDAM18143
012024080602KLBN3       010KLABIN S/A  ON  ED  N2   R$  000000000042400000000004240000000000416000000000041800000000004160000000000416000000000041801291000000000000472400000000000197744800000000000000009999123100000010000000000000BRKLBNACNOR2171
012024080602MRVE3       010MRV         ON      NM   R$  000000000066300000000006630000000000636000000000064300000000006370000000000636000000000063714250000000000017955800000000011545604200000000000000009999123100000010000000000000BRMRVEACNOR2127
012024080602MTRE3       010MITRE REALTYON      NM   R$  000000000039500000000003980000000000380000000000038600000000003810000000000380000000000038101471000000000000658800000000000254475800000000000000009999123100000010000000000000BRMTREACNOR6113
012024080602MTSA4       010METISA      PN           R$  000000000435000000000044450000000004350000000000443300000000044450000000004232000000000444500007000000000000000800000000000003546500000000000000009999123100000010000000000000BRMTSAACNPR9072
012024080602MULT3       010MULTIPLAN   ON      N2   R$  000000000246000000000025600000000002460000000000251900000000025550000000002549000000000255619414000000000006928900000000017460229200000000000000009999123100000010000000000000BRMULTACNOR5139
012024080602BBSE3       010BBSEGURIDADEON      NM   R$  000000000347000000000035250000000003463000000000349400000000034900000000003490000000000349316743000000000005394200000000018851137500000000000000009999123100000010000000000000BRBBSEACNOR5124
012024080602BPAC11      010BTGP BANCO  UNT     N2   R$  000000000320600000000032710000000003200000000000322500000000032280000000003225000000000323528132000000000012296200000000039661696100000000000000009999123100000010000000000000BRBPACUNT006119
012024080602BPAC3       010BTGP BANCO  ON      N2   R$  000000000155300000000015980000000001539000000000155900000000015390000000001533000000000156000021000000000000002200000000000003430700000000000000009999123100000010000000000000BRBPACACNOR7134
012024080602ENGI11      010ENERGISA    UNT     N2   R$  000000000439800000000045050000000004398000000000446700000000044440000000004433000000000444411191000000000002268200000000010132448100000000000000009999123100000010000000000000BRENGICDAM16135
012024080602ENGI3       010ENERGISA    ON      N2   R$  000000000135100000000013800000000001351000000000136200000000013570000000001357000000000137600013000000000000001300000000000001771400000000000000009999123100000010000000000000BRENGIACNOR0145
012024080602ENGI4       010ENERGISA    PN      N2   R$  000000000077500000000007770000000000765000000000077400000000007710000000000770000000000077600037000000000000008700000000000006733800000000000000009999123100000010000000000000BRENGIACNPR7141
012024080602ENJU3       010ENJOEI      ON      NM   R$  000000000018600000000001910000000000175000000000018300000000001750000000000175000000000017602004000000000000951100000000000174899400000000000000009999123100000010000000000000BRENJUACNOR9100
012024080602EPAR3       010EMBPAR S/A  ON           R$  000000000059600000000005990000000000592000000000059300000000005920000000000592000000000059500015000000000000002300000000000001366100000000000000009999123100000010000000000000BREPARACNOR9105
012024080602KRSA3       010KORA SAUDE  ON      NM   R$  000000000007500000000000790000000000074000000000007600000000000780000000000078000000000007900142000000000000835100000000000064027900000000000000009999123100000010000000000000BRKRSAACNOR0100
012024080602MYPK3       010IOCHP-MAXIONON      NM   R$  000000000119000000000012220000000001072000000000111400000000011150000000001115000000000111915357000000000006209600000000006919856400000000000000009999123100000010000000000000BRMYPKACNOR7155
012024080602BAHI3       010BAHEMA      ON      MA   R$  000000000064800000000006480000000000630000000000063800000000006390000000000607000000000063900023000000000000009000000000000005747200000000000000009999123100000010000000000000BRBAHIACNOR1074
012024080602BAZA3       010AMAZONIA    ON           R$  000000000929900000000093000000000009250000000000927900000000092500000000009031000000000930000009000000000000001000000000000009279900000000000000009999123100000010000000000000BRBAZAACNOR0179
012024080602BBAS3       010BRASIL      ON      NM   R$  000000000264000000000026810000000002634000000000266100000000026650000000002665000000000266634699000000000014827100000000039469060600000000000000009999123100000010000000000000BRBBASACNOR3324
012024080602CRFB3       010CARREFOUR BRON      NM   R$  000000000093800000000009380000000000903000000000092100000000009260000000000926000000000092814662000000000005854100000000005396980300000000000000009999123100000010000000000000BRCRFBACNOR2116
012024080602CRPG5       010CRISTAL     PNA          R$  000000000294700000000029470000000002942000000000294600000000029470000000002901000000000294800004000000000000000400000000000001178400000000000000009999123100000010000000000000BRCRPGACNPA3119
012024080602CRPG6       010CRISTAL     PNB          R$  000000000290100000000029010000000002801000000000285600000000028990000000002823000000000294700006000000000000000600000000000001713900000000000000009999123100000010000000000000BRCRPGACNPB1119
012024080602CSAN3       010COSAN       ON      NM   R$  000000000128200000000013110000000001262000000000128500000000013000000000001298000000000130115722000000000007997600000000010279176600000000000000009999123100000010000000000000BRCSANACNOR6126
012024080602ELET6       010ELETROBRAS  PNB     N1   R$  000000000422800000000042510000000004175000000000419500000000041800000000004179000000000419504848000000000001063200000000004460173200000000000000009999123100000010000000000000BRELETACNPB7077
012024080602HBOR3       010HELBOR      ON      NM   R$  000000000022000000000002200000000000210000000000021600000000002160000000000216000000000021700227000000000000183100000000000039603300000000000000009999123100000010000000000000BRHBORACNOR3118
012024080602HBRE3       010HBR REALTY  ON      NM   R$  000000000052800000000005350000000000525000000000052900000000005320000000000527000000000053200231000000000000071900000000000038041300000000000000009999123100000010000000000000BRHBREACNOR4100
012024080602HBSA3       010HIDROVIAS   ON      NM   R$  000000000035500000000003660000000000348000000000035600000000003520000000000351000000000035403236000000000001665100000000000593876400000000000000009999123100000010000000000000BRHBSAACNOR0100
012024080602HYPE3       010HYPERA      ON      NM   R$  000000000289000000000030040000000002877000000000297000000000029400000000002939000000000294318395000000000005612900000000016675105400000000000000009999123100000010000000000000BRHYPEACNOR0143
012024080602JALL3       010JALLESMACHADON  ED  NM   R$  000000000066700000000006720000000000658000000000066300000000006650000000000663000000000066501348000000000000366300000000000243180400000000000000009999123100000010000000000000BRJALLACNOR0106
012024080602JBSS3       010JBS         ON      NM   R$  000000000328600000000033120000000003178000000000323900000000031930000000003193000000000319625992000000000008720700000000028250260200000000000000009999123100000010000000000000BRJBSSACNOR8121
012024080602MILS3       010MILLS       ON      NM   R$  000000000108300000000010830000000001061000000000107400000000010710000000001071000000000107401997000000000000552500000000000593924900000000000000009999123100000010000000000000BRMILSACNOR2127
012024080602MLAS3       010MULTILASER  ON      NM   R$  000000000019500000000001970000000000190000000000019200000000001900000000000190000000000019102400000000000002358700000000000453919600000000000000009999123100000010000000000000BRMLASACNOR9101
012024080602MNPR3       010MINUPAR     ON           R$  000000000134300000000013430000000001281000000000133100000000013270000000001327000000000132800019000000000000003100000000000004126300000000000000009999123100000010000000000000BRMNPRACNOR5122
012024080602MOVI3       010MOVIDA      ON      NM   R$  000000000064800000000006620000000000626000000000063700000000006300000000000630000000000063206749000000000004772600000000003041000300000000000000009999123100000010000000000000BRMOVIACNOR0122
012024080602MRFG3       010MARFRIG     ON      NM   R$  000000000112900000000011590000000001123000000000113800000000011260000000001125000000000112710136000000000003585200000000004082958700000000000000009999123100000010000000000000BRMRFGACNOR0116
012024080602QUAL3       010QUALICORP   ON      NM   R$  000000000014600000000001520000000000143000000000014600000000001460000000000146000000000014702835000000000002399700000000000351304500000000000000009999123100000010000000000000BRQUALACNOR6120
012024080602RADL3       010RAIADROGASILON      NM   R$  000000000299500000000030050000000002900000000000294700000000029370000000002932000000000294226724000000000011242100000000033133161400000000000000009999123100000010000000000000BRRADLACNOR0157
012024080602RAIL3       010RUMO S.A.   ON      NM   R$  000000000228000000000023660000000002274000000000231900000000023240000000002322000000000232424603000000000015529600000000036020873700000000000000009999123100000010000000000000BRRAILACNOR9105
012024080602SMFT3       010SMART FIT   ON      NM   R$  000000000203200000000020910000000002031000000000206400000000020590000000002059000000000206207655000000000002144600000000004426458200000000000000009999123100000010000000000000BRSMFTACNOR1112
012024080602SMTO3       010SAO MARTINHOON  ED  NM   R$  000000000278700000000027980000000002743000000000276100000000027560000000002755000000000276205121000000000000968000000000002673477900000000000000009999123100000010000000000000BRSMTOACNOR3127
012024080602SNSY5       010SANSUY      PNA          R$  000000000057000000000005800000000000552000000000056000000000005520000000000552000000000057500016000000000000004900000000000002748600000000000000009999123100000010000000000000BRSNSYACNPA5111
012024080602SOJA3       010BOA SAFRA   ON      NM   R$  000000000144500000000014510000000001422000000000143700000000014270000000001425000000000142701417000000000000321400000000000462059800000000000000009999123100000010000000000000BRSOJAACNOR9105
012024080602SRNA3       010SERENA      ON      NM   R$  000000000084300000000008680000000000835000000000085600000000008650000000000860000000000086504140000000000001490800000000001277555100000000000000009999123100000010000000000000BRSRNAACNOR4100
012024080602STBP3       010SANTOS BRP  ON      NM   R$  000000000134200000000013920000000001339000000000137800000000013830000000001376000000000138410137000000000003377000000000004653940600000000000000009999123100000010000000000000BRSTBPACNOR3130
012024080602SUZB3       010SUZANO S.A. ON      NM   R$  000000000528600000000052940000000005168000000000520700000000051890000000005188000000000519035031000000000010699100000000055718428900000000000000009999123100000010000000000000BRSUZBACNOR0130
012024080602PRNR3       010PRINER      ON      NM   R$  000000000100800000000010110000000000998000000000100200000000009990000000000999000000000100600906000000000000212800000000000213277100000000000000009999123100000010000000000000BRPRNRACNOR4109
012024080602PSSA3       010PORTO SEGUROON      NM   R$  000000000305100000000030890000000003038000000000307500000000030750000000003073000000000307503819000000000001032400000000003175489500000000000000009999123100000010000000000000BRPSSAACNOR7155
012024080602PTBL3       010PORTOBELLO  ON      NM   R$  000000000043300000000004400000000000424000000000043000000000004270000000000427000000000043000647000000000000230900000000000099401500000000000000009999123100000010000000000000BRPTBLACNOR8132
012024080602PTNT3       010PETTENATI   ON           R$  000000000094900000000009490000000000916000000000092500000000009160000000000906000000000091500010000000000000001000000000000000925600000000000000009999123100000010000000000000BRPTNTACNOR6042
012024080602PTNT4       010PETTENATI   PN           R$  000000000063500000000006350000000000621000000000062600000000006280000000000616000000000062800021000000000000007700000000000004822800000000000000009999123100000010000000000000BRPTNTACNPR3047
012024080602SEQL3       010SEQUOIA LOG ON      NM   R$  000000000043600000000005420000000000427000000000048500000000005420000000000540000000000054202537000000000001135900000000000551839800000000000000009999123100000010000000000000BRSEQLACNOR2103
012024080602EQPA3       010EQTL PARA   ON           R$  000000000070500000000007140000000000690000000000069900000000006900000000000690000000000069900049000000000000006500000000000004546500000000000000009999123100000010000000000000BREQPAACNOR1111
012024080602EQTL3       010EQUATORIAL  ON      NM   R$  000000000327500000000033170000000003255000000000327600000000032550000000003255000000000326815416000000000007457300000000024436138800000000000000009999123100000010000000000000BREQTLACNOR0130
012024080602KLBN4       010KLABIN S/A  PN  ED  N2   R$  000000000042300000000004240000000000413000000000041600000000004180000000000417000000000041803566000000000001824500000000000759671200000000000000009999123100000010000000000000BRKLBNACNPR9171
012024080602NEOE3       010NEOENERGIA  ON      NM   R$  000000000181000000000018300000000001805000000000181500000000018050000000001805000000000180602881000000000000639000000000001159874900000000000000009999123100000010000000000000BRNEOEACNOR3123
012024080602NGRD3       010NEOGRID     ON      NM   R$  000000000011400000000001170000000000112000000000011400000000001140000000000114000000000011601284000000000000816700000000000093173800000000000000009999123100000010000000000000BRNGRDACNOR3104
012024080602NINJ3       010GETNINJAS   ON      NM   R$  000000000049000000000004900000000000470000000000047700000000004800000000000480000000000048900061000000000000121000000000000057777800000000000000009999123100000010000000000000BRNINJACNOR5101
012024080602NORD3       010NORDON MET  ON           R$  000000000094000000000009500000000000940000000000094800000000009500000000000900000000000110000003000000000000000700000000000000664000000000000000009999123100000010000000000000BRNORDACNOR7135
012024080602NTCO3       010GRUPO NATURAON      NM   R$  000000000146300000000015360000000001463000000000151200000000015260000000001522000000000152714749000000000007097000000000010732420100000000000000009999123100000010000000000000BRNTCOACNOR5106
012024080602FESA4       010FERBASA     PN      N1   R$  000000000080000000000008170000000000793000000000080600000000008070000000000806000000000080701185000000000000352000000000000283718500000000000000009999123100000010000000000000BRFESAACNPR5084
012024080602FHER3       010FER HERINGERON      NM   R$  000000000043800000000004620000000000426000000000044100000000004280000000000428000000000043900087000000000000023100000000000010208900000000000000009999123100000010000000000000BRFHERACNOR5103
012024080602FIQE3       010UNIFIQUE    ON      NM   R$  000000000033800000000003380000000000333000000000033400000000003340000000000334000000000033501306000000000000588500000000000197011100000000000000009999123100000010000000000000BRFIQEACNOR5107
012024080602MAPT4       010CEMEPE      PN           R$  000000000056500000000006200000000000540000000000056200000000005750000000000573000000000064500020000000000000003000000000000001686800000000000000009999123100000010000000000000BRMAPTACNPR5106
012024080602MATD3       010MATER DEI   ON      NM   R$  000000000045100000000004560000000000446000000000044900000000004510000000000446000000000045100767000000000000232800000000000104679000000000000000009999123100000010000000000000BRMATDACNOR4104
012024080602MBLY3       010MOBLY       ON      NM   R$  000000000027100000000002860000000000265000000000027800000000002790000000000279000000000028300460000000000000202900000000000056598000000000000000009999123100000010000000000000BRMBLYACNOR5100
012024080602MDIA3       010M.DIASBRANCOON      NM   R$  000000000269400000000028000000000002682000000000277100000000027850000000002785000000000279202709000000000000616000000000001707263200000000000000009999123100000010000000000000BRMDIAACNOR7135
012024080602MDNE3       010MOURA DUBEUXON      NM   R$  000000000132200000000013540000000001300000000000132500000000013210000000001320000000000132902154000000000000425900000000000564339700000000000000009999123100000010000000000000BRMDNEACNOR9100
012024080602MEAL3       010IMC S/A     ON      NM   R$  000000000014800000000001490000000000144000000000014600000000001460000000000146000000000014700341000000000000362000000000000053039900000000000000009999123100000010000000000000BRMEALACNOR9105
012024080602MELK3       010MELNICK     ON      NM   R$  000000000034000000000003500000000000340000000000034600000000003490000000000348000000000034900297000000000000159700000000000055264900000000000000009999123100000010000000000000BRMELKACNOR8111
012024080602MGEL4       010MANGELS INDLPN           R$  000000000125000000000012500000000001250000000000125000000000012500000000001203000000000125000003000000000000010400000000000013000000000000000000009999123100000010000000000000BRMGELACNPR3147
012024080602MGLU3       010MAGAZ LUIZA ON      NM   R$  000000000115200000000011680000000001093000000000112300000000011300000000001129000000000113026159000000000024358400000000027358538200000000000000009999123100000010000000000000BRMGLUACNOR2124
012024080602ALPA3       010ALPARGATAS  ON      N1   R$  000000000079100000000008000000000000766000000000078100000000007660000000000766000000000078500045000000000000008300000000000006487000000000000000009999123100000010000000000000BRALPAACNOR0231
012024080602ALPA4       010ALPARGATAS  PN      N1   R$  000000000083000000000008390000000000819000000000082800000000008240000000000824000000000083104973000000000001503900000000001245254300000000000000009999123100000010000000000000BRALPAACNPR7232
012024080602ALPK3       010ESTAPAR     ON      NM   R$  000000000036400000000003660000000000356000000000036000000000003630000000000358000000000036300285000000000000115200000000000041553300000000000000009999123100000010000000000000BRALPKACNOR9101
012024080602ALUP11      010ALUPAR      UNT     N2   R$  000000000307500000000031300000000003075000000000311200000000031060000000003104000000000310703854000000000000790800000000002461034300000000000000009999123100000010000000000000BRALUPCDAM15119
012024080602ALUP3       010ALUPAR      ON      N2   R$  000000000108600000000010880000000001071000000000108300000000010800000000001072000000000108800030000000000000003000000000000003249900000000000000009999123100000010000000000000BRALUPACNOR8119
012024080602ALUP4       010ALUPAR      PN      N2   R$  000000000100800000000010180000000001006000000000101400000000010150000000001014000000000101600058000000000000016000000000000016231100000000000000009999123100000010000000000000BRALUPACNPR5119
012024080602AMAR3       010LOJAS MARISAON      NM   R$  000000000014200000000001430000000000137000000000013800000000001370000000000136000000000013700460000000000000440700000000000061059100000000000000009999123100000010000000000000BRAMARACNOR4115
012024080602AMBP3       010AMBIPAR     ON      NM   R$  000000000655100000000077000000000006551000000000715800000000076300000000007627000000000763012574000000000003256100000000023308233000000000000000009999123100000010000000000000BRAMBPACNOR6103
012024080602BBDC3       010BRADESCO    ON  EJ  N1   R$  000000000124100000000012780000000001234000000000126200000000012690000000001267000000000126931064000000000018423000000000023250587900000000000000009999123100000010000000000000BRBBDCACNOR1773
012024080602BBDC4       010BRADESCO    PN  EJ  N1   R$  000000000138600000000014180000000001380000000000140100000000014060000000001406000000000140765001000000000104219100000000146064805600000000000000009999123100000010000000000000BRBBDCACNPR8773
012024080602AHEB3       010SPTURIS     ON           R$  000000000290100000000031000000000002901000000000300000000000031000000000003100000000000399900002000000000000000200000000000000600100000000000000009999123100000010000000000000BRAHEBACNOR0106
012024080602ALLD3       010ALLIED      ON      NM   R$  000000000080800000000008140000000000800000000000080700000000008000000000000799000000000080000203000000000000034800000000000028116100000000000000009999123100000010000000000000BRALLDACNOR3106
012024080602ALOS3       010ALLOS       ON      NM   R$  000000000217500000000022410000000002175000000000221500000000022240000000002224000000000222610109000000000003425800000000007590512500000000000000009999123100000010000000000000BRALOSACNOR5101
012024080602CAMB3       010CAMBUCI     ON           R$  000000000114100000000011980000000001135000000000116300000000011600000000001160000000000116300405000000000000131700000000000153238500000000000000009999123100000010000000000000BRCAMBACNOR4130
012024080602CAML3       010CAMIL       ON      NM   R$  000000000092500000000009290000000000904000000000091400000000009040000000000904000000000090502116000000000000417400000000000381541800000000000000009999123100000010000000000000BRCAMLACNOR3128
012024080602CASH3       010MELIUZ      ON      NM   R$  000000000054600000000005530000000000539000000000054400000000005410000000000541000000000054901786000000000000566100000000000308012400000000000000009999123100000010000000000000BRCASHACNOR8106
012024080602CBAV3       010CBA         ON      NM   R$  000000000049900000000005070000000000481000000000049000000000004840000000000484000000000048605469000000000003630900000000001782592300000000000000009999123100000010000000000000BRCBAVACNOR5104
012024080602CCRO3       010CCR SA      ON      NM   R$  000000000127100000000012930000000001265000000000128400000000012900000000001290000000000129109994000000000006034300000000007750020700000000000000009999123100000010000000000000BRCCROACNOR2145
012024080602CEAB3       010CEA MODAS   ON      NM   R$  000000000087200000000008920000000000849000000000086700000000008680000000000868000000000087205101000000000001835500000000001592916700000000000000009999123100000010000000000000BRCEABACNOR1102
012024080602CSRN3       010COSERN      ON  ED       R$  000000000163100000000017450000000001630000000000167900000000017000000000001630000000000170000012000000000000001800000000000003022400000000000000009999123100000010000000000000BRCSRNACNOR0194
012024080602CSRN6       010COSERN      PNB ED       R$  000000000170000000000017800000000001700000000000171900000000017800000000001688000000000180000008000000000000001200000000000002063900000000000000009999123100000010000000000000BRCSRNACNPB1195
012024080602CSUD3       010CSU DIGITAL ON      NM   R$  000000000192000000000019500000000001840000000000189300000000018500000000001849000000000185000215000000000000053500000000000101318900000000000000009999123100000010000000000000BRCSUDACNOR5110
012024080602CTKA4       010KARSTEN     PN           R$  000000000178000000000017800000000001780000000000178000000000017800000000001505000000000178000001000000000000000100000000000000178000000000000000009999123100000010000000000000BRCTKAACNPR7043
012024080602CURY3       010CURY S/A    ON      NM   R$  000000000213800000000021810000000002120000000000215100000000021570000000002142000000000215709871000000000001928400000000004148613100000000000000009999123100000010000000000000BRCURYACNOR3109
012024080602CVCB3       010CVC BRASIL  ON      NM   R$  000000000017600000000001820000000000171000000000017600000000001710000000000171000000000017205616000000000011092400000000001957739400000000000000009999123100000010000000000000BRCVCBACNOR1116
012024080602SANB11      010SANTANDER BRUNT          R$  000000000284000000000028590000000002827000000000284100000000028390000000002838000000000283911065000000000002304300000000006547669800000000000000009999123100000010000000000000BRSANBCDAM13165
012024080602SANB3       010SANTANDER BRON           R$  000000000134000000000013590000000001340000000000135000000000013470000000001346000000000135400431000000000000062500000000000084430500000000000000009999123100000010000000000000BRSANBACNOR8172
012024080602SANB4       010SANTANDER BRPN           R$  000000000149000000000015000000000001484000000000149000000000014940000000001487000000000149500477000000000000076800000000000114446300000000000000009999123100000010000000000000BRSANBACNPR5172
012024080602WEST3       010WESTWING    ON      NM   R$  000000000008800000000000900000000000087000000000008800000000000900000000000088000000000009000020000000000000006800000000000000604100000000000000009999123100000010000000000000BRWESTACNOR3100
012024080602WHRL3       010WHIRLPOOL   ON           R$  000000000043700000000004370000000000427000000000043200000000004270000000000427000000000046400002000000000000000200000000000000086400000000000000009999123100000010000000000000BRWHRLACNOR5128
012024080602WHRL4       010WHIRLPOOL   PN           R$  000000000043800000000004430000000000434000000000043700000000004420000000000438000000000044300008000000000000005700000000000002493900000000000000009999123100000010000000000000BRWHRLACNPR2128
012024080602WIZC3       010WIZ CO      ON      NM   R$  000000000058200000000005920000000000578000000000058200000000005780000000000577000000000057801259000000000000288600000000000168243100000000000000009999123100000010000000000000BRWIZCACNOR5102
012024080602WLMM3       010WLM IND COM ON           R$  000000000265000000000026500000000002650000000000265000000000026500000000002500000000000265000001000000000000000100000000000000265000000000000000009999123100000010000000000000BRWLMMACNOR6118
012024080602WLMM4       010WLM IND COM PN           R$  000000000310900000000031310000000003109000000000312200000000031310000000002700000000000321900005000000000000000500000000000001561100000000000000009999123100000010000000000000BRWLMMACNPR3118
012024080602PDGR3       010PDG REALT   ON  ES  NM   R$  000000000001800000000000200000000000017000000000001900000000000180000000000018000000000001900658000000000007678700000000000145895600000000000000009999123100000010000000000000BRPDGRACNOR8119
012024080602PDTC3       010PADTEC      ON      NM   R$  000000000018300000000001870000000000182000000000018400000000001840000000000182000000000018300048000000000000020200000000000003728200000000000000009999123100000010000000000000BRPDTCACNOR3101
012024080602PETR3       010PETROBRAS   ON      N2   R$  000000000385500000000039430000000003812000000000387900000000039120000000003912000000000391916517000000000006295300000000024422300800000000000000009999123100000010000000000000BRPETRACNOR9205
012024080602PETR4       010PETROBRAS   PN      N2   R$  000000000356000000000036660000000003534000000000359400000000036320000000003631000000000363355718000000000036009000000000129425447100000000000000009999123100000010000000000000BRPETRACNPR6213
012024080602PFRM3       010PROFARMA    ON      NM   R$  000000000057800000000005990000000000573000000000058800000000005930000000000591000000000059400590000000000000122800000000000072264400000000000000009999123100000010000000000000BRPFRMACNOR1116
012024080602PGMN3       010PAGUE MENOS ON      NM   R$  000000000026500000000002850000000000264000000000027100000000002700000000000269000000000027004816000000000002757000000000000749481800000000000000009999123100000010000000000000BRPGMNACNOR8103
012024080602PINE3       010PINE        ON      N2   R$  000000000060400000000006040000000000590000000000059700000000005900000000000554000000000059700003000000000000000300000000000000179300000000000000009999123100000010000000000000BRPINEACNOR1150
012024080602PINE4       010PINE        PN      N2   R$  000000000042100000000004280000000000415000000000042100000000004250000000000425000000000042700454000000000000098100000000000041360000000000000000009999123100000010000000000000BRPINEACNPR8150
012024080602PLPL3       010PLANOEPLANO ON      NM   R$  000000000116100000000011740000000001127000000000115000000000011630000000001159000000000116402887000000000000796700000000000916490100000000000000009999123100000010000000000000BRPLPLACNOR5104
012024080602PNVL3       010DIMED       ON      NM   R$  000000000102700000000010390000000001012000000000102100000000010230000000001018000000000102301409000000000000249800000000000255109900000000000000009999123100000010000000000000BRPNVLACNOR9207
012024080602POMO3       010MARCOPOLO   ON      N2   R$  000000000054600000000005750000000000544000000000056400000000005710000000000568000000000057101362000000000000571100000000000322146000000000000000009999123100000010000000000000BRPOMOACNOR0098
012024080602POMO4       010MARCOPOLO   PN      N2   R$  000000000071000000000007460000000000710000000000073400000000007410000000000739000000000074226831000000000014878600000000010927948300000000000000009999123100000010000000000000BRPOMOACNPR7098
012024080602ROMI3       010ROMI        ON      NM   R$  000000000104200000000010510000000001035000000000104100000000010510000000001046000000000105100706000000000000121800000000000126903000000000000000009999123100000010000000000000BRROMIACNOR8195
012024080602RRRP3       0103R PETROLEUMON      NM   R$  000000000262300000000027030000000002616000000000267900000000027030000000002695000000000270312099000000000004691600000000012572471600000000000000009999123100000010000000000000BRRRRPACNOR5103
012024080602TTEN3       0103TENTOS     ON      NM   R$  000000000103000000000010430000000001015000000000102300000000010150000000001015000000000102104651000000000000640600000000000655552500000000000000009999123100000010000000000000BRTTENACNOR0103
012024080602TUPY3       010TUPY        ON      NM   R$  000000000246600000000024950000000002425000000000244500000000024290000000002429000000000243204009000000000000769100000000001880628000000000000000009999123100000010000000000000BRTUPYACNOR1184
012024080602UCAS3       010UNICASA     ON      NM   R$  000000000022700000000002280000000000223000000000022500000000002240000000000224000000000022600062000000000000011100000000000002500300000000000000009999123100000010000000000000BRUCASACNOR1113
012024080602UGPA3       010ULTRAPAR    ON      NM   R$  000000000222300000000022490000000002210000000000222900000000022120000000002212000000000221314305000000000008325700000000018563744900000000000000009999123100000010000000000000BRUGPAACNOR8155
012024080602UNIP3       010UNIPAR      ON           R$  000000000497700000000050820000000004977000000000503800000000050490000000005000000000000505000052000000000000008300000000000041821600000000000000009999123100000010000000000000BRUNIPACNOR7206
012024080602UNIP6       010UNIPAR      PNB          R$  000000000506600000000051610000000005043000000000509300000000050580000000005057000000000505901091000000000000145400000000000740575100000000000000009999123100000010000000000000BRUNIPACNPB8206
012024080602USIM3       010USIMINAS    ON      N1   R$  000000000057800000000005800000000000561000000000056900000000005640000000000564000000000056701481000000000000632500000000000360060800000000000000009999123100000010000000000000BRUSIMACNOR3167
012024080602USIM5       010USIMINAS    PNA     N1   R$  000000000058500000000005910000000000570000000000057700000000005770000000000577000000000057822821000000000018582100000000010727781800000000000000009999123100000010000000000000BRUSIMACNPA6169
012024080602VSTE3       010VESTE       ON      NM   R$  000000000138500000000014030000000001363000000000137300000000013670000000001367000000000138000023000000000000003500000000000004807000000000000000009999123100000010000000000000BRVSTEACNOR5103
012024080602FLRY3       010FLEURY      ON      NM   R$  000000000152300000000015370000000001503000000000151600000000015140000000001514000000000151509132000000000002362100000000003582720000000000000000009999123100000010000000000000BRFLRYACNOR5138
012024080602FRAS3       010FRAS-LE     ON      N1   R$  000000000183500000000018450000000001812000000000182600000000018230000000001820000000000182902059000000000000523800000000000956542400000000000000009999123100000010000000000000BRFRASACNOR0160
012024080602RCSL3       010RECRUSUL    ON           R$  000000000027200000000002970000000000265000000000028300000000002920000000000289000000000029201070000000000000467000000000000132270500000000000000009999123100000010000000000000BRRCSLACNOR4134
012024080602RCSL4       010RECRUSUL    PN           R$  000000000008700000000000920000000000084000000000008800000000000890000000000089000000000009101138000000000000771000000000000068226500000000000000009999123100000010000000000000BRRCSLACNPR1134
012024080602RDNI3       010RNI         ON      NM   R$  000000000032000000000003200000000000314000000000031500000000003150000000000313000000000031600009000000000000003100000000000000978100000000000000009999123100000010000000000000BRRDNIACNOR9116
012024080602RDOR3       010REDE D OR   ON      NM   R$  000000000275000000000028310000000002750000000000279700000000028000000000002799000000000280015153000000000003679400000000010291738800000000000000009999123100000010000000000000BRRDORACNOR8113
012024080602RECV3       010PETRORECSA  ON      NM   R$  000000000196500000000020020000000001960000000000198100000000019850000000001983000000000198607317000000000001781100000000003529058800000000000000009999123100000010000000000000BRRECVACNOR3107
012024080602REDE3       010REDE ENERGIAON           R$  000000000069000000000006940000000000690000000000069100000000006900000000000690000000000069200008000000000000001800000000000001244500000000000000009999123100000010000000000000BRREDEACNOR7128
012024080602RENT3       010LOCALIZA    ON      NM   R$  000000000439200000000045010000000004390000000000444200000000044540000000004453000000000445529134000000000008317800000000036947808000000000000000009999123100000010000000000000BRRENTACNOR4196
012024080602SYNE3       010SYN PROP TECON      NM   R$  000000000101500000000010190000000000984000000000099900000000009960000000000994000000000099601021000000000000379900000000000379886800000000000000009999123100000010000000000000BRSYNEACNOR2102
012024080602TAEE11      010TAESA       UNT     N2   R$  000000000346200000000034900000000003451000000000347400000000034690000000003468000000000347005595000000000001165200000000004048849000000000000000009999123100000010000000000000BRTAEECDAM10147
012024080602TAEE3       010TAESA       ON      N2   R$  000000000114500000000011540000000001141000000000114800000000011480000000001145000000000114900403000000000000080200000000000092089800000000000000009999123100000010000000000000BRTAEEACNOR9147
012024080602TAEE4       010TAESA       PN      N2   R$  000000000115400000000011670000000001153000000000116200000000011620000000001160000000000116200556000000000000129900000000000150984800000000000000009999123100000010000000000000BRTAEEACNPR6147
012024080602TASA3       010TAURUS ARMASON      N2   R$  000000000113000000000011450000000001110000000000112300000000011200000000001120000000000113300096000000000000018100000000000020335500000000000000009999123100000010000000000000BRTASAACNOR7104
012024080602TASA4       010TAURUS ARMASPN      N2   R$  000000000113700000000011370000000001105000000000111200000000011100000000001109000000000111001453000000000000375500000000000417800500000000000000009999123100000010000000000000BRTASAACNPR4104
012024080602TCSA3       010TECNISA     ON      NM   R$  000000000020100000000002090000000000201000000000020300000000002070000000000202000000000020700113000000000000036500000000000007437700000000000000009999123100000010000000000000BRTCSAACNOR3112
012024080602VAMO3       010VAMOS       ON      NM   R$  000000000087400000000008800000000000807000000000082400000000008070000000000807000000000080927754000000000031657300000000026094935200000000000000009999123100000010000000000000BRVAMOACNOR7105
012024080602VBBR3       010VIBRA       ON      NM   R$  000000000235200000000023820000000002330000000000235500000000023510000000002350000000000235123468000000000009429200000000022206753200000000000000009999123100000010000000000000BRVBBRACNOR1108
012024080602RAIZ4       010RAIZEN      PN  ED  N2   R$  000000000029500000000003110000000000292000000000030300000000003040000000000304000000000030516904000000000025222500000000007649443200000000000000009999123100000010000000000000BRRAIZACNPR6111
012024080602RANI3       010IRANI       ON      NM   R$  000000000081300000000008160000000000802000000000080700000000008050000000000805000000000080903398000000000000728900000000000588942100000000000000009999123100000010000000000000BRRANIACNOR5072
012024080602BEEF3       010MINERVA     ON      NM   R$  000000000066500000000006730000000000659000000000066600000000006620000000000661000000000066311018000000000007704900000000005132229000000000000000009999123100000010000000000000BRBEEFACNOR6116
012024080602BPAN4       010BANCO PAN   PN      N1   R$  000000000086400000000008750000000000853000000000086400000000008710000000000870000000000087105462000000000001233800000000001066742300000000000000009999123100000010000000000000BRBPANACNPR1115
012024080602AVLL3       010ALPHAVILLE  ON      NM   R$  000000000036900000000003810000000000369000000000037800000000003810000000000340000000000038100006000000000000001300000000000000491900000000000000009999123100000010000000000000BRAVLLACNOR5103
012024080602AZEV3       010AZEVEDO     ON           R$  000000000014300000000001480000000000141000000000014300000000001430000000000143000000000014400269000000000000263700000000000037952000000000000000009999123100000010000000000000BRAZEVACNOR0121
012024080602AZEV4       010AZEVEDO     PN           R$  000000000014300000000001460000000000140000000000014300000000001440000000000142000000000014400728000000000001691700000000000242619900000000000000009999123100000010000000000000BRAZEVACNPR7121
012024080602AZUL4       010AZUL        PN      N2   R$  000000000078000000000008080000000000764000000000078200000000007780000000000776000000000077912911000000000018041900000000014125186500000000000000009999123100000010000000000000BRAZULACNPR4102
012024080602CMIN3       010CSNMINERACAOON      N2   R$  000000000048600000000004900000000000478000000000048300000000004840000000000484000000000048509284000000000005792800000000002803458200000000000000009999123100000010000000000000BRCMINACNOR2111
012024080602COCE5       010COELCE      PNA          R$  000000000313500000000031900000000003135000000000316400000000031500000000003150000000000320000064000000000000011700000000000037020500000000000000009999123100000010000000000000BRCOCEACNPA3147
012024080602COGN3       010COGNA ON    ON      NM   R$  000000000015000000000001540000000000145000000000014700000000001460000000000146000000000014713116000000000033478000000000004945140600000000000000009999123100000010000000000000BRCOGNACNOR2104
012024080602HAGA3       010HAGA S/A    ON           R$  000000000025500000000002610000000000247000000000025300000000002490000000000247000000000025300013000000000000002600000000000000659100000000000000009999123100000010000000000000BRHAGAACNOR7103
012024080602HAGA4       010HAGA S/A    PN           R$  000000000011400000000001160000000000114000000000011400000000001160000000000115000000000011600009000000000000002000000000000000229400000000000000009999123100000010000000000000BRHAGAACNPR4103
012024080602HAPV3       010HAPVIDA     ON      NM   R$  000000000043000000000004420000000000425000000000043100000000004290000000000429000000000043047396000000000087975900000000037967867700000000000000009999123100000010000000000000BRHAPVACNOR4114
012024080602EALT3       010ACO ALTONA  ON           R$  000000000128000000000012890000000001280000000000128400000000012890000000001100000000000129000002000000000000000200000000000000256900000000000000009999123100000010000000000000BREALTACNOR4138
012024080602EALT4       010ACO ALTONA  PN           R$  000000000125400000000012690000000001247000000000125900000000012670000000001267000000000126800058000000000000019400000000000024443300000000000000009999123100000010000000000000BREALTACNPR1138
012024080602ECOR3       010ECORODOVIAS ON      NM   R$  000000000074100000000007720000000000738000000000076200000000007700000000000767000000000077006155000000000004980700000000003796753800000000000000009999123100000010000000000000BRECORACNOR8120
012024080602GGPS3       010GPS         ON      NM   R$  000000000179700000000018190000000001782000000000179500000000017820000000001782000000000178606870000000000001581200000000002838991500000000000000009999123100000010000000000000BRGGPSACNOR9103
012024080602DOTZ3       010DOTZ SA     ON      NM   R$  000000000064800000000006790000000000641000000000064900000000006410000000000640000000000067500053000000000000015800000000000010259800000000000000009999123100000010000000000000BRDOTZACNOR7101
012024080602DXCO3       010DEXCO       ON      NM   R$  000000000070300000000007060000000000691000000000069800000000007010000000000700000000000070105398000000000002233000000000001559850300000000000000009999123100000010000000000000BRDXCOACNOR8105
012024080602GMAT3       010GRUPO MATEUSON      NM   R$  000000000070600000000007180000000000702000000000070800000000007080000000000708000000000070908208000000000002993700000000002120074100000000000000009999123100000010000000000000BRGMATACNOR7102
012024080602GOAU3       010GERDAU MET  ON      N1   R$  000000000102900000000010340000000001005000000000101400000000010260000000001021000000000102600244000000000000044800000000000045438600000000000000009999123100000010000000000000BRGOAUACNOR1267
012024080602GOAU4       010GERDAU MET  PN      N1   R$  000000000100300000000010070000000000987000000000099600000000010020000000001002000000000100310527000000000005587900000000005565594600000000000000009999123100000010000000000000BRGOAUACNPR8268
012024080602ANIM3       010ANIMA       ON      NM   R$  000000000034100000000003480000000000336000000000034100000000003460000000000345000000000034603422000000000003245800000000001109450700000000000000009999123100000010000000000000BRANIMACNOR6108
012024080602APER3       010ALPER S.A.  ON           R$  000000000452900000000045500000000004503000000000453100000000045050000000004400000000000451500009000000000000001300000000000005890700000000000000009999123100000010000000000000BRAPERACNOR9106
012024080602DASA3       010DASA        ON      NM   R$  000000000026500000000002700000000000256000000000026100000000002610000000000261000000000026301819000000000000719400000000000188454600000000000000009999123100000010000000000000BRDASAACNOR1122
012024080602ARML3       010ARMAC       ON      NM   R$  000000000085700000000008690000000000818000000000083600000000008280000000000827000000000082802819000000000000631300000000000527926100000000000000009999123100000010000000000000BRARMLACNOR1112
012024080602ASAI3       010ASSAI       ON      NM   R$  000000000102200000000010330000000000995000000000100500000000009950000000000994000000000099516049000000000009331400000000009379133500000000000000009999123100000010000000000000BRASAIACNOR0106
012024080602ATOM3       010ATOMPAR     ON           R$  000000000018600000000001990000000000186000000000019100000000001930000000000193000000000019500031000000000000009800000000000001879600000000000000009999123100000010000000000000BRATOMACNOR1106
012024080602AURE3       010AUREN       ON      NM   R$  000000000116300000000011790000000001154000000000116200000000011610000000001161000000000116309346000000000004916500000000005713767000000000000000009999123100000010000000000000BRAUREACNOR9104
012024080602CEBR3       010CEB         ON           R$  000000000189200000000018920000000001879000000000188600000000018850000000001879000000000188500018000000000000002900000000000005471800000000000000009999123100000010000000000000BRCEBRACNOR5125
012024080602AZZA3       010AZZAS 2154  ON      NM   R$  000000000497900000000049990000000004850000000000492000000000049380000000004938000000000493905401000000000001127300000000005547191400000000000000009999123100000010000000000000BRAZZAACNOR9100
012024080602B3SA3       010B3          ON      NM   R$  000000000109800000000011070000000001061000000000108100000000010890000000001089000000000109035808000000000031887700000000034482179400000000000000009999123100000010000000000000BRB3SAACNOR6133
012024080602CEBR5       010CEB         PNA          R$  000000000169700000000016970000000001655000000000167100000000016850000000001649000000000168900010000000000000001600000000000002674600000000000000009999123100000010000000000000BRCEBRACNPA8124
012024080602CEBR6       010CEB         PNB          R$  000000000174700000000017990000000001733000000000176300000000017460000000001738000000000176900041000000000000006000000000000010582500000000000000009999123100000010000000000000BRCEBRACNPB6124
012024080602CEDO3       010CEDRO       ON      N1   R$  000000000264200000000026420000000002642000000000264200000000026420000000002470000000000280000001000000000000000100000000000000264200000000000000009999123100000010000000000000BRCEDOACNOR8096
012024080602CEEB3       010COELBA      ON           R$  000000000390300000000039030000000003900000000000390100000000039010000000003901000000000397200006000000000000000600000000000002340800000000000000009999123100000010000000000000BRCEEBACNOR3199
012024080602CGAS5       010COMGAS      PNA          R$  000000001109000000000110900000000011050000000001105600000000110500000000011050000000001119900007000000000000001200000000000013267300000000000000009999123100000010000000000000BRCGASACNPA3160
012024080602CGRA3       010GRAZZIOTIN  ON           R$  000000000249800000000024980000000002480000000000248500000000024800000000002480000000000250000009000000000000001000000000000002485400000000000000009999123100000010000000000000BRCGRAACNOR2083
012024080602CGRA4       010GRAZZIOTIN  PN           R$  000000000247700000000025040000000002467000000000248500000000025040000000002491000000000251800030000000000000006100000000000015159900000000000000009999123100000010000000000000BRCGRAACNPR9083
012024080602CIEL3       010CIELO       ON      NM   R$  000000000057900000000005800000000000578000000000057800000000005790000000000578000000000057908636000000000031998800000000018507108300000000000000009999123100000010000000000000BRCIELACNOR3157
012024080602DESK3       010DESKTOP     ON      NM   R$  000000000165800000000016700000000001624000000000164000000000016400000000001638000000000164000821000000000000295000000000000483845200000000000000009999123100000010000000000000BRDESKACNOR2104
012024080602DEXP3       010DEXXOS PAR  ON      N1   R$  000000000100500000000010180000000001005000000000101400000000010170000000001010000000000101700097000000000000019100000000000019380800000000000000009999123100000010000000000000BRDEXPACNOR1105
012024080602DEXP4       010DEXXOS PAR  PN      N1   R$  000000000102300000000010230000000001023000000000102300000000010230000000001007000000000102300001000000000000000100000000000000102300000000000000009999123100000010000000000000BRDEXPACNPR8105
012024080602DIRR3       010DIRECIONAL  ON      NM   R$  000000000266600000000027570000000002665000000000271000000000027110000000002709000000000271207770000000000001944700000000005270678300000000000000009999123100000010000000000000BRDIRRACNOR0118
012024080602DMVF3       010D1000VFARMA ON      NM   R$  000000000073000000000007780000000000727000000000076500000000007690000000000757000000000076901233000000000000163000000000000124775500000000000000009999123100000010000000000000BRDMVFACNOR9100
012024080602CLSA3       010CLEARSALE   ON      NM   R$  000000000077900000000007860000000000749000000000076300000000007770000000000770000000000077703537000000000001531300000000001168972100000000000000009999123100000010000000000000BRCLSAACNOR0100
012024080602CLSC3       010CELESC      ON      N2   R$  000000000712500000000071250000000007125000000000712500000000071250000000006800000000000713900001000000000000000100000000000000712500000000000000009999123100000010000000000000BRCLSCACNOR6152
012024080602CLSC4       010CELESC      PN      N2   R$  000000000746600000000075250000000007466000000000751500000000075250000000007488000000000752500025000000000000002600000000000019539300000000000000009999123100000010000000000000BRCLSCACNPR3131
012024080602CMIG3       010CEMIG       ON      N1   R$  000000000124000000000012550000000001231000000000123800000000012310000000001231000000000123301236000000000000181100000000000224367300000000000000009999123100000010000000000000BRCMIGACNOR6242
012024080602CMIG4       010CEMIG       PN      N1   R$  000000000107500000000010930000000001075000000000108300000000010750000000001075000000000107617664000000000010712200000000011602662100000000000000009999123100000010000000000000BRCMIGACNPR3243
012024080602CYRE3       010CYRELA REALTON      NM   R$  000000000195000000000019660000000001901000000000192800000000019340000000001931000000000193414109000000000006438200000000012414363500000000000000009999123100000010000000000000BRCYREACNOR7140
012024080602GGBR3       010GERDAU      ON      N1   R$  000000000153700000000015440000000001521000000000153200000000015340000000001534000000000154000484000000000000059800000000000091621400000000000000009999123100000010000000000000BRGGBRACNOR1192
012024080602GGBR4       010GERDAU      PN      N1   R$  000000000172200000000017350000000001689000000000171400000000017200000000001719000000000172019786000000000009146300000000015682255200000000000000009999123100000010000000000000BRGGBRACNPR8192
012024080602ITUB3       010ITAUUNIBANCOON  EJ  N1   R$  000000000282600000000029190000000002826000000000288600000000028900000000002889000000000290202119000000000000462400000000001334910500000000000000009999123100000010000000000000BRITUBACNOR4339
012024080602ITUB4       010ITAUUNIBANCOPN  EJ  N1   R$  000000000330100000000033940000000003301000000000336000000000033680000000003368000000000337051163000000000025812000000000086737950900000000000000009999123100000010000000000000BRITUBACNPR1339
012024080602GRND3       010GRENDENE    ON      NM   R$  000000000059000000000005950000000000580000000000058500000000005850000000000584000000000058503779000000000001584100000000000928250800000000000000009999123100000010000000000000BRGRNDACNOR3174
012024080602GUAR3       010GUARARAPES  ON      NM   R$  000000000069900000000007300000000000683000000000071200000000007210000000000720000000000072103401000000000001627900000000001159181700000000000000009999123100000010000000000000BRGUARACNOR4173
012024080602BPAC5       010BTGP BANCO  PNA     N2   R$  000000000082100000000008390000000000821000000000083000000000008390000000000828000000000084400018000000000000002800000000000002325100000000000000009999123100000010000000000000BRBPACACNPA0134
012024080602GEPA3       010GER PARANAP ON           R$  000000000264900000000026490000000002649000000000264900000000026490000000002521000000000265000002000000000000000300000000000000794700000000000000009999123100000010000000000000BRGEPAACNOR2153
012024080602GEPA4       010GER PARANAP PN           R$  000000000260000000000026000000000002551000000000258500000000026000000000002557000000000260000009000000000000000900000000000002326500000000000000009999123100000010000000000000BRGEPAACNPR9160
012024080602GFSA3       010GAFISA      ON      NM   R$  000000000029500000000003000000000000276000000000028300000000002760000000000276000000000027803010000000000004444000000000001261875500000000000000009999123100000010000000000000BRGFSAACNOR3124
012024080602VTRU3       010VITRUEDUCA  ON      NM   R$  000000000126700000000012760000000001216000000000123900000000012550000000001252000000000125500258000000000000058500000000000072527700000000000000009999123100000010000000000000BRVTRUACNOR3100
012024080602VULC3       010VULCABRAS   ON      NM   R$  000000000157600000000015960000000001545000000000157500000000015780000000001576000000000157805491000000000001498200000000002361078600000000000000009999123100000010000000000000BRVULCACNOR2159
012024080602VVEO3       010VIVEO       ON      NM   R$  000000000023000000000002520000000000228000000000024000000000002440000000000244000000000024504921000000000003822000000000000919973900000000000000009999123100000010000000000000BRVVEOACNOR0104
012024080602WEGE3       010WEG         ON  ED  NM   R$  000000000493100000000049310000000004832000000000489500000000048970000000004895000000000489819762000000000005361900000000026248847300000000000000009999123100000010000000000000BRWEGEACNOR0224
012024080602OPCT3       010OCEANPACT   ON      NM   R$  000000000062600000000006340000000000619000000000062200000000006220000000000620000000000062401545000000000000491700000000000306160300000000000000009999123100000010000000000000BROPCTACNOR0100
012024080602ORVR3       010ORIZON      ON      NM   R$  000000000417700000000041860000000004120000000000415200000000041640000000004159000000000416601420000000000000250700000000001041029900000000000000009999123100000010000000000000BRORVRACNOR0101
012024080602PCAR3       010P.ACUCAR-CBDON      NM   R$  000000000031000000000003190000000000281000000000029300000000002850000000000285000000000028610797000000000028196300000000008285005800000000000000009999123100000010000000000000BRPCARACNOR3167
012024080602PETZ3       010PETZ        ON      NM   R$  000000000037300000000003780000000000354000000000036200000000003540000000000354000000000035508332000000000006188400000000002243464300000000000000009999123100000010000000000000BRPETZACNOR2110
012024080602TECN3       010TECHNOS     ON      NM   R$  000000000051700000000005260000000000500000000000050600000000005050000000000505000000000050600479000000000000171800000000000086963400000000000000009999123100000010000000000000BRTECNACNOR6109
012024080602TELB3       010TELEBRAS    ON           R$  000000000138000000000014700000000001370000000000139800000000013970000000001368000000000139700027000000000000004300000000000006011900000000000000009999123100000010000000000000BRTELBACNOR2140
012024080602TELB4       010TELEBRAS    PN           R$  000000000097600000000010700000000000975000000000102400000000010540000000001054000000000105500052000000000000014800000000000015169600000000000000009999123100000010000000000000BRTELBACNPR9140
012024080602TEND3       010TENDA       ON      NM   R$  000000000130500000000013050000000001242000000000127100000000012850000000001283000000000128608516000000000002836900000000003608093400000000000000009999123100000010000000000000BRTENDACNOR4111
012024080602TFCO4       010TRACK FIELD PN      N2   R$  000000000113800000000011390000000001111000000000111300000000011110000000001111000000000112000223000000000000151900000000000169150000000000000000009999123100000010000000000000BRTFCOACNPR8114
012024080602TGMA3       010TEGMA       ON      NM   R$  000000000258500000000026800000000002581000000000263500000000026050000000002605000000000261102595000000000000517500000000001363819400000000000000009999123100000010000000000000BRTGMAACNOR7144
012024080602TIMS3       010TIM         ON      NM   R$  000000000172000000000017240000000001698000000000171200000000017140000000001714000000000171511408000000000005760400000000009863523700000000000000009999123100000010000000000000BRTIMSACNOR5117
012024080602TOTS3       010TOTVS       ON      NM   R$  000000000270200000000027300000000002670000000000271300000000027250000000002720000000000272615387000000000003683200000000009994102200000000000000009999123100000010000000000000BRTOTSACNOR8144
012024080602TPIS3       010TRIUNFO PARTON      NM   R$  000000000036300000000003680000000000361000000000036400000000003630000000000362000000000037500028000000000000005800000000000002112800000000000000009999123100000010000000000000BRTPISACNOR8118
012024080602TRAD3       010TC          ON      NM   R$  000000000035800000000003700000000000355000000000035800000000003560000000000356000000000036200125000000000000038400000000000013767300000000000000009999123100000010000000000000BRTRADACNOR3102
012024080602TRIS3       010TRISUL      ON      NM   R$  000000000046700000000004720000000000455000000000046000000000004560000000000455000000000045801192000000000000348800000000000160630600000000000000009999123100000010000000000000BRTRISACNOR4118
012024080602TRPL3       010TRAN PAULISTON      N1   R$  000000000322000000000032430000000003183000000000319600000000032000000000003168000000000324200017000000000000003700000000000011826000000000000000009999123100000010000000000000BRTRPLACNOR4185
012024080602TRPL4       010TRAN PAULISTPN      N1   R$  000000000243500000000024640000000002416000000000243300000000024210000000002421000000000242308868000000000002049500000000004988373400000000000000009999123100000010000000000000BRTRPLACNPR1185
012024080602LWSA3       010LWSA        ON      NM   R$  000000000043400000000004400000000000427000000000043100000000004340000000000433000000000043405917000000000003094300000000001336699700000000000000009999123100000010000000000000BRLWSAACNOR8103
012024080602AERI3       010AERIS       ON      NM   R$  000000000053600000000005520000000000523000000000053600000000005380000000000533000000000053800479000000000000113500000000000060883400000000000000009999123100000010000000000000BRAERIACNOR4102
012024080602AESB3       010AES BRASIL  ON      NM   R$  000000000112000000000011240000000001115000000000111800000000011200000000001116000000000112003621000000000002220300000000002482312700000000000000009999123100000010000000000000BRAESBACNOR7106
012024080602AFLT3       010AFLUENTE T  ON           R$  000000000071700000000007340000000000717000000000072500000000007340000000000716000000000073000002000000000000000200000000000000145100000000000000009999123100000010000000000000BRAFLTACNOR1122
012024080602AGRO3       010BRASILAGRO  ON      NM   R$  000000000259900000000025990000000002566000000000257600000000025700000000002570000000000257101739000000000000219600000000000565902500000000000000009999123100000010000000000000BRAGROACNOR7114
012024080602AGXY3       010AGROGALAXY  ON      NM   R$  000000000013900000000001570000000000139000000000014900000000001520000000000150000000000015200552000000000000400800000000000059946300000000000000009999123100000010000000000000BRAGXYACNOR4103
012024080602VITT3       010VITTIA      ON      NM   R$  000000000060900000000006090000000000577000000000058700000000005800000000000580000000000058202157000000000001271800000000000746864500000000000000009999123100000010000000000000BRVITTACNOR4107
012024080602VIVA3       010VIVARA S.A. ON      NM   R$  000000000241500000000024520000000002374000000000240200000000023850000000002383000000000239811446000000000002662600000000006397669400000000000000009999123100000010000000000000BRVIVAACNOR0107
012024080602VIVR3       010VIVER       ON      NM   R$  000000000023800000000002500000000000238000000000024500000000002490000000000246000000000024900209000000000000048700000000000011954400000000000000009999123100000010000000000000BRVIVRACNOR4123
012024080602VIVT3       010TELEF BRASILON  EJ       R$  000000000490000000000049460000000004864000000000490200000000048940000000004892000000000489811294000000000002026500000000009934175400000000000000009999123100000010000000000000BRVIVTACNOR0183
012024080602VLID3       010VALID       ON      NM   R$  000000000168800000000017300000000001670000000000170200000000016980000000001698000000000170002768000000000000543200000000000924895500000000000000009999123100000010000000000000BRVLIDACNOR5143
012024080602CPFE3       010CPFL ENERGIAON      NM   R$  000000000324200000000033160000000003235000000000328400000000032840000000003284000000000328606417000000000001390600000000004568095700000000000000009999123100000010000000000000BRCPFEACNOR0137
012024080602CPLE3       010COPEL       ON      N2   R$  000000000089600000000009190000000000896000000000090600000000009190000000000912000000000091904168000000000008155100000000007392599600000000000000009999123100000010000000000000BRCPLEACNOR8149
012024080602CPLE6       010COPEL       PNB     N2   R$  000000000100100000000010180000000001001000000000101400000000010130000000001012000000000101314058000000000010196800000000010341352100000000000000009999123100000010000000000000BRCPLEACNPB9146
012024080602EGIE3       010ENGIE BRASILON      NM   R$  000000000438800000000044160000000004380000000000440000000000044100000000004395000000000441005292000000000001516600000000006673638900000000000000009999123100000010000000000000BREGIEACNOR9126
012024080602EKTR4       010ELEKTRO     PN  ED       R$  000000000424000000000042550000000004104000000000419800000000042550000000004111000000000425500011000000000000001100000000000004618300000000000000009999123100000010000000000000BREKTRACNPR7164
012024080602ELET3       010ELETROBRAS  ON      N1   R$  000000000376500000000038300000000003745000000000377500000000037540000000003754000000000375524982000000000007865200000000029693739800000000000000009999123100000010000000000000BRELETACNOR6160
012024080602ODPV3       010ODONTOPREV  ON      NM   R$  000000000120000000000012010000000001112000000000115500000000011120000000001111000000000111506049000000000001768800000000002043709200000000000000009999123100000010000000000000BRODPVACNOR4202
012024080602OFSA3       010OUROFINO S/AON      NM   R$  000000000197700000000020010000000001977000000000199900000000020000000000002000000000000202000013000000000000002300000000000004597800000000000000009999123100000010000000000000BROFSAACNOR7118
012024080602ONCO3       010ONCOCLINICASON      NM   R$  000000000061700000000006690000000000616000000000064100000000006300000000000629000000000063006948000000000005242600000000003364842500000000000000009999123100000010000000000000BRONCOACNOR6101
012024080602RAPT3       010RANDON PART ON      N1   R$  000000000088900000000008890000000000865000000000087200000000008650000000000865000000000087800098000000000000025700000000000022429800000000000000009999123100000010000000000000BRRAPTACNOR7163
012024080602RAPT4       010RANDON PART PN      N1   R$  000000000103800000000010590000000001022000000000104400000000010500000000001050000000000105304851000000000003105900000000003242860000000000000000009999123100000010000000000000BRRAPTACNPR4163
012024080602BLAU3       010BLAU        ON      NM   R$  000000000101800000000010350000000001001000000000100800000000010100000000001010000000000101300881000000000000169900000000000171353100000000000000009999123100000010000000000000BRBLAUACNOR8114
012024080602BMEB3       010MERCANTIL   ON  EJ  N1   R$  000000000297000000000031980000000002970000000000308400000000031980000000003100000000000349900002000000000000000200000000000000616800000000000000009999123100000010000000000000BRBMEBACNOR8206
012024080602BMEB4       010MERCANTIL   PN  EJ  N1   R$  000000000338900000000035400000000003365000000000345500000000035400000000003540000000000354400085000000000000019700000000000068064000000000000000009999123100000010000000000000BRBMEBACNPR5211
012024080602BMGB4       010BANCO BMG   PN      N1   R$  000000000034200000000003440000000000339000000000034200000000003430000000000341000000000034300686000000000000453200000000000155126100000000000000009999123100000010000000000000BRBMGBACNPR0110
012024080602BMIN4       010MERC INVEST PN           R$  000000000155500000000015550000000001555000000000155500000000015550000000001542000000000172000001000000000000000100000000000000155500000000000000009999123100000010000000000000BRBMINACNPR1176
012024080602BMKS3       010BIC MONARK  ON           R$  000000003185100000000318520000000031851000000003185100000000318520000000031852000000003200000002000000000000000011000000000000350362000000000000009999123100000010000000000000BRBMKSACNOR9166
012024080602BRAP3       010BRADESPAR   ON      N1   R$  000000000172600000000017330000000001702000000000171700000000017150000000001714000000000173300326000000000000056700000000000097358300000000000000009999123100000010000000000000BRBRAPACNOR5148
012024080602BRAP4       010BRADESPAR   PN      N1   R$  000000000177700000000018030000000001768000000000178400000000017970000000001797000000000179805894000000000002729300000000004871505900000000000000009999123100000010000000000000BRBRAPACNPR2148
012024080602CSED3       010CRUZEIRO EDUON      NM   R$  000000000040800000000004140000000000392000000000040100000000004050000000000400000000000040500482000000000000355000000000000142474500000000000000009999123100000010000000000000BRCSEDACNOR9104
012024080602CSMG3       010COPASA      ON      NM   R$  000000000209100000000021540000000002089000000000211900000000021470000000002143000000000214707250000000000002262600000000004794512000000000000000009999123100000010000000000000BRCSMGACNOR5174
012024080602ELMD3       010ELETROMIDIA ON      NM   R$  000000000183000000000018950000000001799000000000184800000000018810000000001880000000000188101041000000000000136100000000000251585600000000000000009999123100000010000000000000BRELMDACNOR3101
012024080602EMAE4       010EMAE        PN           R$  000000000403600000000040400000000004022000000000402800000000040220000000004013000000000410000021000000000000002300000000000009266500000000000000009999123100000010000000000000BREMAEACNPR1125
012024080602EMBR3       010EMBRAER     ON      NM   R$  000000000385100000000039180000000003800000000000385200000000038400000000003840000000000384330672000000000009057900000000034895520500000000000000009999123100000010000000000000BREMBRACNOR4191
012024080602HETA4       010HERCULES    PN           R$  000000000055800000000005580000000000558000000000055800000000005580000000000530000000000059900001000000000000000100000000000000055800000000000000009999123100000010000000000000BRHETAACNPR9136
012024080602BMOB3       010BEMOBI TECH ON      NM   R$  000000000143200000000014480000000001425000000000143500000000014260000000001426000000000143301275000000000000213100000000000305819100000000000000009999123100000010000000000000BRBMOBACNOR7103
012024080602BOBR4       010BOMBRIL     PN           R$  000000000019400000000001960000000000194000000000019400000000001940000000000193000000000019400013000000000000007000000000000001358600000000000000009999123100000010000000000000BRBOBRACNPR3128
012024080602JHSF3       010JHSF PART   ON  ED  NM   R$  000000000039700000000004040000000000393000000000039900000000004030000000000401000000000040303396000000000003489700000000001395202500000000000000009999123100000010000000000000BRJHSFACNOR2138
012024080602ESPA3       010ESPACOLASER ON      NM   R$  000000000009600000000000980000000000093000000000009400000000000930000000000093000000000009400211000000000000657200000000000062062900000000000000009999123100000010000000000000BRESPAACNOR7103
012024080602ESTR4       010ESTRELA     PN           R$  000000000021400000000002140000000000214000000000021400000000002140000000000214000000000021900001000000000000000300000000000000064200000000000000009999123100000010000000000000BRESTRACNPR0144
012024080602EUCA4       010EUCATEX     PN      N1   R$  000000000146400000000014930000000001458000000000146800000000014610000000001461000000000148300174000000000000029800000000000043759500000000000000009999123100000010000000000000BREUCAACNPR8044
012024080602EVEN3       010EVEN        ON      NM   R$  000000000061200000000006220000000000602000000000060800000000006090000000000604000000000060901629000000000000314700000000000191532800000000000000009999123100000010000000000000BREVENACNOR8119
012024080602EZTC3       010EZTEC       ON      NM   R$  000000000133600000000013480000000001284000000000129800000000013010000000001300000000000130107595000000000004031100000000005233393700000000000000009999123100000010000000000000BREZTCACNOR0125
012024080602IFCM3       010INFRACOMM   ON      NM   R$  000000000003400000000000350000000000033000000000003400000000000340000000000034000000000003502177000000000004192100000000000142932300000000000000009999123100000010000000000000BRIFCMACNOR8101
012024080602IGTI11      010IGUATEMI S.AUNT     N1   R$  000000000213100000000021550000000002117000000000213700000000021390000000002139000000000214111525000000000002362500000000005050325800000000000000009999123100000010000000000000BRIGTICDAM16106
012024080602IGTI3       010IGUATEMI S.AON      N1   R$  000000000026300000000002670000000000260000000000026300000000002610000000000260000000000026600070000000000000037500000000000009877600000000000000009999123100000010000000000000BRIGTIACNOR8106
012024080602IGTI4       010IGUATEMI S.APN      N1   R$  000000000093300000000009380000000000932000000000093300000000009380000000000865000000000103100004000000000000000600000000000000560200000000000000009999123100000010000000000000BRIGTIACNPR5106
012024080602INEP3       010INEPAR      ON           R$  000000000018300000000001970000000000183000000000019100000000001930000000000188000000000019300140000000000000043600000000000008333400000000000000009999123100000010000000000000BRINEPACNOR1143
012024080602INEP4       010INEPAR      PN           R$  000000000018500000000001950000000000185000000000019000000000001870000000000186000000000019400062000000000000067600000000000012846600000000000000009999123100000010000000000000BRINEPACNPR8143
012024080602CXSE3       010CAIXA SEGURION  ED  NM   R$  000000000141000000000014180000000001398000000000140400000000014040000000001403000000000140707613000000000002233100000000003136802900000000000000009999123100000010000000000000BRCXSEACNOR7107
012024080602INTB3       010INTELBRAS   ON  ED  NM   R$  000000000209900000000021140000000002032000000000205300000000020350000000002033000000000203503586000000000001089100000000002236392800000000000000009999123100000010000000000000BRINTBACNOR9112
012024080602IRBR3       010IRBBRASIL REON      NM   R$  000000000288500000000029100000000002818000000000287300000000028660000000002860000000000286703266000000000000716400000000002058448800000000000000009999123100000010000000000000BRIRBRACNOR4111
012024080602LAND3       010TERRASANTAPAON      NM   R$  000000000142500000000014750000000001384000000000142000000000013840000000001384000000000140500306000000000000058400000000000082976300000000000000009999123100000010000000000000BRLANDACNOR9103
012024080602LAVV3       010LAVVI       ON      NM   R$  000000000086500000000008830000000000847000000000085700000000008470000000000847000000000086202436000000000000897800000000000769461700000000000000009999123100000010000000000000BRLAVVACNOR4112
012024080602AALR3       010ALLIAR      ON      NM   R$  000000000102000000000010310000000000991000000000101300000000009910000000000991000000000105000077000000000000018200000000000018445700000000000000009999123100000010000000000000BRAALRACNOR6102
012024080602ABCB4       010ABC BRASIL  PN      N2   R$  000000000222700000000022490000000002203000000000221600000000022100000000002208000000000222203929000000000001566100000000003470519500000000000000009999123100000010000000000000BRABCBACNPR4146
012024080602ABEV3       010AMBEV S/A   ON           R$  000000000118100000000012110000000001180000000000120000000000012010000000001200000000000120224651000000000027415700000000032908462600000000000000009999123100000010000000000000BRABEVACNOR1128
012024080602BEES3       010BANESTES    ON  EJ       R$  000000000088500000000008970000000000885000000000089100000000008900000000000891000000000089500063000000000000012100000000000010783500000000000000009999123100000010000000000000BRBEESACNOR9394
012024080602BEES4       010BANESTES    PN  EJ       R$  000000000097600000000009790000000000957000000000096700000000009790000000000965000000000097900029000000000000004700000000000004545000000000000000009999123100000010000000000000BRBEESACNPR6319
012024080602LEVE3       010METAL LEVE  ON      NM   R$  000000000329500000000033000000000003239000000000325600000000032390000000003238000000000323901306000000000000213500000000000695184700000000000000009999123100000010000000000000BRLEVEACNOR2197
012024080602LJQQ3       010QUERO-QUERO ON      NM   R$  000000000039300000000003980000000000379000000000038300000000003790000000000379000000000038003176000000000002433000000000000934005600000000000000009999123100000010000000000000BRLJQQACNOR5104
012024080602LOGG3       010LOG COM PROPON      NM   R$  000000000225800000000022580000000002211000000000222700000000022110000000002211000000000222201246000000000000178400000000000397351800000000000000009999123100000010000000000000BRLOGGACNOR7107
012024080602LOGN3       010LOG-IN      ON      NM   R$  000000000373200000000037320000000003587000000000361400000000036140000000003614000000000365600058000000000000006600000000000023857900000000000000009999123100000010000000000000BRLOGNACNOR3105
012024080602LPSB3       010LOPES BRASILON      NM   R$  000000000017200000000001760000000000171000000000017200000000001740000000000173000000000017500113000000000000045700000000000007865700000000000000009999123100000010000000000000BRLPSBACNOR0114
012024080602LREN3       010LOJAS RENNERON      NM   R$  000000000139400000000014450000000001393000000000141700000000014250000000001423000000000142634186000000000019327500000000027405484200000000000000009999123100000010000000000000BRLRENACNOR1221
012024080602BHIA3       010CASAS BAHIA ON      NM   R$  000000000044600000000004490000000000403000000000041700000000004030000000000403000000000040805803000000000007906800000000003304351200000000000000009999123100000010000000000000BRBHIAACNOR1102
012024080602BRBI11      010BR PARTNERS UNT     N2   R$  000000000141800000000014180000000001377000000000139000000000014020000000001392000000000140201123000000000000180700000000000251187300000000000000009999123100000010000000000000BRBRBICDAM10109
012024080602BRFS3       010BRF SA      ON      NM   R$  000000000207600000000020970000000002061000000000208000000000020790000000002079000000000208013478000000000005164500000000010745280200000000000000009999123100000010000000000000BRBRFSACNOR8122
012024080602BRIT3       010BRISANET    ON      NM   R$  000000000037800000000003910000000000373000000000037800000000003730000000000372000000000037300973000000000000895500000000000338706000000000000000009999123100000010000000000000BRBRITACNOR0103
012024080602BRKM3       010BRASKEM     ON      N1   R$  000000000168200000000016880000000001658000000000167600000000016650000000001665000000000169500037000000000000005100000000000008550900000000000000009999123100000010000000000000BRBRKMACNOR1119
012024080602BRKM5       010BRASKEM     PNA     N1   R$  000000000162000000000016400000000001585000000000160900000000016000000000001600000000000160607199000000000002256400000000003630603100000000000000009999123100000010000000000000BRBRKMACNPA4121
012024080602ENEV3       010ENEVA       ON      NM   R$  000000000123300000000012740000000001233000000000126900000000012740000000001274000000000127512255000000000014026000000000017802668400000000000000009999123100000010000000000000BRENEVACNOR8106
012024080602SHOW3       010TIME FOR FUNON      NM   R$  000000000015300000000001540000000000152000000000015200000000001520000000000151000000000015200141000000000000037300000000000005697800000000000000009999123100000010000000000000BRSHOWACNOR7105
012024080602SHUL4       010SCHULZ      PN           R$  000000000062000000000006300000000000614000000000062100000000006250000000000618000000000062500765000000000000257400000000000159958800000000000000009999123100000010000000000000BRSHULACNPR4156
012024080602SIMH3       010SIMPAR      ON      NM   R$  000000000064100000000006520000000000602000000000061100000000006020000000000601000000000060206493000000000004596600000000002810385400000000000000009999123100000010000000000000BRSIMHACNOR0107
012024080602SLCE3       010SLC AGRICOLAON      NM   R$  000000000175100000000017850000000001751000000000177300000000017700000000001769000000000177207121000000000001729300000000003067335300000000000000009999123100000010000000000000BRSLCEACNOR2125
012024080602SAPR11      010SANEPAR     UNT     N2   R$  000000000280000000000028700000000002791000000000283600000000028580000000002851000000000285804321000000000001322300000000003751217000000000000000009999123100000010000000000000BRSAPRCDAM13118
012024080602SAPR3       010SANEPAR     ON      N2   R$  000000000052200000000005340000000000519000000000052700000000005330000000000526000000000053300855000000000000274100000000000144668700000000000000009999123100000010000000000000BRSAPRACNOR9159
012024080602SAPR4       010SANEPAR     PN      N2   R$  000000000056800000000005810000000000564000000000057500000000005780000000000576000000000057802648000000000001188700000000000683840800000000000000009999123100000010000000000000BRSAPRACNPR6159
012024080602SBFG3       010GRUPO SBF   ON      NM   R$  000000000152600000000015770000000001482000000000154400000000015600000000001550000000000156004829000000000001209100000000001867207600000000000000009999123100000010000000000000BRSBFGACNOR1103
012024080602SBSP3       010SABESP      ON      NM   R$  000000000886600000000089840000000008860000000000893900000000089650000000008956000000000896515629000000000003943600000000035254917300000000000000009999123100000010000000000000BRSBSPACNOR5161
012024080602SCAR3       010SAO CARLOS  ON      NM   R$  000000000236700000000023670000000002250000000000228600000000022500000000002250000000000227500091000000000000023700000000000054178500000000000000009999123100000010000000000000BRSCARACNOR7131
012024080602SEER3       010SER EDUCA   ON      NM   R$  000000000050600000000005140000000000492000000000049800000000004920000000000492000000000049301613000000000000473700000000000236216600000000000000009999123100000010000000000000BRSEERACNOR5119
012024080602VALE3       010VALE        ON  EJ  NM   R$  000000000567400000000057520000000005630000000000569500000000057310000000005730000000000573151879000000000023930200000000136305248100000000000000009999123100000010000000000000BRVALEACNOR0211
012024080602YDUQ3       010YDUQS PART  ON      NM   R$  000000000107100000000010800000000000998000000000103000000000010270000000001024000000000102716484000000000006988200000000007201229300000000000000009999123100000010000000000000BRYDUQACNOR3105
012024080602ZAMP3       010ZAMP S.A.   ON  ES       R$  000000000031800000000003220000000000312000000000031600000000003200000000000320000000000032101234000000000000338300000000000107012400000000000000009999123100000010000000000000BRZAMPACNOR5101
012024080602PORT3       010WILSON SONS ON      NM   R$  000000000158300000000015900000000001567000000000157500000000015730000000001573000000000157700977000000000000186300000000000293529900000000000000009999123100000010000000000000BRPORTACNOR8109
012024080602POSI3       010POSITIVO TECON      NM   R$  000000000068500000000006970000000000666000000000067500000000006660000000000666000000000066703649000000000001627000000000001098998100000000000000009999123100000010000000000000BRPOSIACNOR9116
012024080602PRIO3       010PETRORIO    ON      NM   R$  000000000439500000000044390000000004325000000000437200000000043250000000004325000000000432926636000000000014420700000000063055296100000000000000009999123100000010000000000000BRPRIOACNOR1107
012024080602RSUL4       010RIOSULENSE  PN           R$  000000000591900000000060920000000005902000000000598500000000059990000000005915000000000607000036000000000000004100000000000024542500000000000000009999123100000010000000000000BRRSULACNPR3114
012024080602BIOM3       010BIOMM       ON      MA   R$  000000000092900000000009560000000000901000000000092300000000009100000000000910000000000092300269000000000000041100000000000037939500000000000000009999123100000010000000000000BRBIOMACNOR2112
012024080602ITSA3       010ITAUSA      ON      N1   R$  000000000098400000000010070000000000983000000000099700000000009990000000000999000000000100000437000000000000124400000000000124113100000000000000009999123100000010000000000000BRITSAACNOR0441
012024080602ITSA4       010ITAUSA      PN      N1   R$  000000000098400000000010070000000000984000000000099700000000010030000000001001000000000100324048000000000020418500000000020372417900000000000000009999123100000010000000000000BRITSAACNPR7441
012024080602LUPA3       010LUPATECH    ON      NM   R$  000000000016600000000001700000000000162000000000016500000000001660000000000166000000000016700144000000000000202200000000000033371300000000000000009999123100000010000000000000BRLUPAACNOR8112
012024080602LVTC3       010WDC NETWORKSON      NM   R$  000000000034100000000003480000000000340000000000034200000000003400000000000340000000000034500033000000000000009800000000000003353300000000000000009999123100000010000000000000BRLVTCACNOR4102
012024080602BRSR3       010BANRISUL    ON      N1   R$  000000000120600000000012060000000001181000000000119700000000012060000000001206000000000121600040000000000000005100000000000006107400000000000000009999123100000010000000000000BRBRSRACNOR3188
012024080602BRSR6       010BANRISUL    PNB     N1   R$  000000000112700000000011330000000001110000000000112100000000011180000000001117000000000112404140000000000000980800000000001100016400000000000000009999123100000010000000000000BRBRSRACNPB4191
012024080602BSLI4       010BRB BANCO   PN           R$  000000000099900000000010150000000000956000000000100200000000010150000000000972000000000100900010000000000000002300000000000002305800000000000000009999123100000010000000000000BRBSLIACNPR2194
012024080602CSNA3       010SID NACIONALON           R$  000000000112600000000011380000000001115000000000112600000000011270000000001126000000000112708549000000000005933000000000006681452900000000000000009999123100000010000000000000BRCSNAACNOR6261
012024080607TXRX4       010TEX RENAUX  PN           R$  000000000022500000000002250000000000225000000000022500000000002250000000000225000000000023700002000000000000000600000000000000135000000000000000009999123100000010000000000000BRTXRXACNPR0142
012024080607NUTR3       010NUTRIPLANT  ON      MA   R$  000000000049600000000004960000000000450000000000046800000000004650000000000455000000000046500056000000000000010600000000000004962800000000000000009999123100000010000000000000BRNUTRACNOR0104
012024080608SGPS3       010SPRINGS     ON      NM   R$  000000000019000000000001900000000000190000000000019000000000001900000000000180000000000019000009000000000000003100000000000000589000000000000000009999123100000010000000000000BRSGPSACNOR4105
012024080608NEXP3       010NEXPE       ON           R$  000000000041500000000004150000000000402000000000041200000000004130000000000402000000000041100007000000000000000900000000000000371600000000000000009999123100000010000000000000BRNEXPACNOR0101
012024080608CTNM4       010COTEMINAS   PN           R$  000000000008600000000000860000000000086000000000008600000000000860000000000085000000000008800009000000000000010800000000000000928800000000000000009999123100000010000000000000BRCTNMACNPR6129
012024080608CTSA3       010SANTANENSE  ON           R$  000000000029100000000003070000000000278000000000029200000000002890000000000292000000000029800055000000000000015200000000000004444400000000000000009999123100000010000000000000BRCTSAACNOR3062
012024080608CTSA4       010SANTANENSE  PN           R$  000000000013500000000001390000000000129000000000013300000000001350000000000132000000000013300164000000000000132200000000000017683200000000000000009999123100000010000000000000BRCTSAACNPR0062
012024080608PMAM3       010PARANAPANEMAON      NM   R$  000000000022100000000002330000000000221000000000022500000000002330000000000228000000000023300069000000000000018000000000000004058400000000000000009999123100000010000000000000BRPMAMACNOR3039
012024080608RNEW3       010RENOVA      ON      N2   R$  000000000008300000000000850000000000081000000000008200000000000850000000000083000000000008500094000000000000076000000000000006284000000000000000009999123100000010000000000000BRRNEWACNOR8110
012024080608RNEW4       010RENOVA      PN      N2   R$  000000000008400000000000840000000000082000000000008300000000000820000000000082000000000008400107000000000000068800000000000005716000000000000000009999123100000010000000000000BRRNEWACNPR5110
012024080608RPMG3       010PET MANGUINHON           R$  000000000027200000000002760000000000266000000000027100000000002730000000000272000000000027300124000000000000016800000000000004556300000000000000009999123100000010000000000000BRRPMGACNOR9194
012024080608AMER3       010AMERICANAS  ON      NM   R$  000000000006000000000000630000000000059000000000006000000000000600000000000059000000000006002484000000000015617700000000000943899700000000000000009999123100000010000000000000BRAMERACNOR6102
012024080608ATMP3       010ATMASA      ON           R$  000000000017800000000001780000000000172000000000017200000000001720000000000174000000000017600010000000000000007700000000000001328000000000000000009999123100000010000000000000BRATMPACNOR8100
012024080608OSXB3       010OSX BRASIL  ON      NM   R$  000000000039500000000004020000000000371000000000037500000000003710000000000371000000000038300060000000000000020000000000000007515800000000000000009999123100000010000000000000BROSXBACNOR8109
012024080608RNEW11      010RENOVA      UNT     N2   R$  000000000025400000000002540000000000249000000000025100000000002520000000000252000000000025300025000000000000005900000000000001485800000000000000009999123100000010000000000000BRRNEWCDAM15110
012024080608OIBR3       010OI          ON      N1   R$  000000000041700000000004300000000000417000000000042200000000004250000000000422000000000042500476000000000000292700000000000123654100000000000000009999123100000010000000000000BROIBRACNOR1111
012024080608OIBR4       010OI          PN      N1   R$  000000000124100000000012410000000001208000000000122000000000012080000000001202000000000122500012000000000000003600000000000004394300000000000000009999123100000010000000000000BROIBRACNPR8110
012024080608JFEN3       010JOAO FORTES ON           R$  000000000003300000000000380000000000033000000000003400000000000330000000000032000000000003302016000000000011755200000000000409984700000000000000009999123100000010000000000000BRJFENACNOR0059
012024080608ETER3       010ETERNIT     ON      NM   R$  000000000062100000000006400000000000609000000000063000000000006370000000000635000000000063701241000000000000590400000000000372117500000000000000009999123100000010000000000000BRETERACNOR3243
012024080608HOOT4       010HOTEIS OTHONPN           R$  000000000024000000000002480000000000233000000000023400000000002330000000000234000000000023700007000000000000002400000000000000562400000000000000009999123100000010000000000000BRHOOTACNPR9015
012024080608LIGT3       010LIGHT S/A   ON      NM   R$  000000000041000000000004290000000000410000000000042300000000004190000000000419000000000042202204000000000000813400000000000344103900000000000000009999123100000010000000000000BRLIGTACNOR2124
012024080608RSID3       010ROSSI RESID ON      NM   R$  000000000039500000000003950000000000363000000000037800000000003730000000000361000000000037300170000000000000031800000000000012023500000000000000009999123100000010000000000000BRRSIDACNOR8120
012024080610PDGR95      010PDG REALT   DIR     NM   R$  000000000000100000000000020000000000001000000000000100000000000010000000000000000000000000100297000000000000953081000000000000959613000000000000009999123100000010000000000000BRPDGRD03M17100
012024080610ZAMP1       010ZAMP S.A.   DIR ORD      R$  000000000000500000000000060000000000004000000000000400000000000040000000000004000000000000500382000000000000594900000000000002771600000000000000009999123100000010000000000000BRZAMPD01OR0100
012024080612JPPA11      010FII JPPA CRICI  ER       R$  000000000823600000000082360000000008102000000000818700000000082110000000008208000000000822000156000000000000001343000000000010995892000000000000009999123100000010000000000000BRJPPACTF005163
012024080612JSAF11      010FII JS A FINCI  ER       R$  000000000920200000000092880000000009200000000000921200000000092470000000009212000000000924600865000000000000016204000000000149286137000000000000009999123100000010000000000000BRJSAFCTF000135
012024080612JSCR11      010FII JSCR    CI  ER       R$  000000000980000000000098000000000009349000000000958000000000093500000000009305000000000980000015000000000000000942000000000009025237000000000000009999123100000010000000000000BRJSCRCTF001101
012024080612JSRE11      010FII JS REAL CI  ER       R$  000000000653300000000065670000000006450000000000648400000000065100000000006508000000000651004104000000000000024810000000000160874095000000000000009999123100000010000000000000BRJSRECTF007264
012024080612KCRE11      010FII KINEA CRCI  ER       R$  000000000094900000000009520000000000945000000000094600000000009520000000000951000000000095200393000000000000036749000000000034796466000000000000009999123100000010000000000000BRKCRECTF009127
012024080612KEVE11      010FII EVEN II CI  EA       R$  000000011149900000001150000000000111498000000011229200000001150000000000104002000000011500000006000000000000000014000000000001572095000000000000009999123100000010000000000000BRKEVECTF007116
012024080612KFOF11      010FII KINEAFOFCI  ER       R$  000000000877700000000088950000000008772000000000881900000000087890000000008787000000000883303041000000000000016169000000000142600865000000000000009999123100000010000000000000BRKFOFCTF006171
012024080612KISU11      010FII KILIMA  CI  ER       R$  000000000081200000000008130000000000806000000000081100000000008130000000000812000000000081302115000000000000082471000000000066902593000000000000009999123100000010000000000000BRKISUCTF000146
012024080612KIVO11      010FII KIVO    CI  ER       R$  000000000816000000000082250000000008050000000000808700000000080800000000008080000000000809901088000000000000011574000000000093601181000000000000009999123100000010000000000000BRKIVOCTF007129
012024080612BBFI11      010FII BB PROGRCI           R$  000000006140300000000649230000000061403000000006298000000000636990000000061810000000006391800088000000000000000245000000000015430313000000000000009999123100000010000000000000BRBBFICTF006329
012024080612BBFO11      010FII BB FOF  CI  ER       R$  000000000710800000000071690000000007001000000000710700000000071400000000007118000000000716300214000000000000003468000000000024649241000000000000009999123100000010000000000000BRBBFOCTF004143
012024080612BBIG11      010FII BBIG    CI  ER       R$  000000000093900000000009390000000000929000000000093000000000009300000000000930000000000093201578000000000000100048000000000093064311000000000000009999123100000010000000000000BRBBIGCTF004103
012024080612BBRC11      010FII BB CORP CI  ER       R$  000000001145000000000114500000000011350000000001142300000000113620000000011351000000001139800097000000000000001031000000000011777720000000000000009999123100000010000000000000BRBBRCCTF004255
012024080612EQIR11      010FII EQI RECECI           R$  000000000090000000000009040000000000898000000000090100000000009000000000000898000000000090001514000000000000017453000000000015738073000000000000009999123100000010000000000000BREQIRCTF003134
012024080612KNUQ11      010FII KINEA UNCI  ER       R$  000000001030700000000103750000000010301000000001031600000000103160000000010307000000001031601019000000000000022495000000000232060017000000000000009999123100000010000000000000BRKNUQCTF004115
012024080612KORE11      010FII KORE    CI  ER       R$  000000001028000000000102900000000010200000000001023200000000102350000000010220000000001023501536000000000000011423000000000116887209000000000000009999123100000010000000000000BRKORECTF012108
012024080612MXRF11      010FII MAXI RENCI  ER       R$  000000000100700000000010090000000001000000000000100400000000010020000000001002000000000100361852000000000001856693000000001864335392000000000000009999123100000010000000000000BRMXRFCTF008255
012024080612BARI11      010FII BARIGUI CI  ER       R$  000000000803000000000080300000000007951000000000797900000000079940000000007972000000000799401481000000000000005312000000000042385848000000000000009999123100000010000000000000BRBARICTF003164
012024080612BCFF11      010FII BC FFII CI           R$  000000000082500000000008320000000000817000000000082300000000008200000000000820000000000082107548000000000000317941000000000261793359000000000000009999123100000010000000000000BRBCFFCTF000279
012024080612BCIA11      010FII BCIA    CI  ER       R$  000000001013200000000102170000000010099000000001016200000000101230000000010123000000001014700649000000000000003630000000000036890911000000000000009999123100000010000000000000BRBCIACTF005212
012024080612CPTS11      010FII CAPI SECCI           R$  000000000081800000000008260000000000815000000000081800000000008180000000000816000000000081819688000000000001180855000000000966015428000000000000009999123100000010000000000000BRCPTSCTF004232
012024080612CRFF11      010FII CX RBRA2CI  ER       R$  000000000766100000000077870000000007661000000000774500000000077870000000007670000000000793500002000000000000000003000000000000023235000000000000009999123100000010000000000000BRCRFFCTF006163
012024080612HCHG11      010FII HECT CRICI  ER       R$  000000000697800000000070000000000006977000000000697800000000069990000000006978000000000700000060000000000000005020000000000035029669000000000000009999123100000010000000000000BRHCHGCTF001139
012024080612HTMX11      010FII HOTEL MXCI  ER       R$  000000001782800000000178900000000017688000000001777900000000177510000000017751000000001778701020000000000000003539000000000062922659000000000000009999123100000010000000000000BRHTMXCTF000282
012024080612HUCG11      010FII UNIMED CCI           R$  000000000840000000000084000000000008400000000000840000000000084000000000008301000000000840000002000000000000000292000000000002452800000000000000009999123100000010000000000000BRHUCGCTF004120
012024080612HUSC11      010FII H UNIMEDCI  ER       R$  000000001071500000000112050000000010715000000001109600000000111960000000010901000000001119700008000000000000000008000000000000088771000000000000009999123100000010000000000000BRHUSCCTF009154
012024080612MINT11      010FII MINT EDUCI           R$  000000000950000000000095000000000009400000000000946600000000094000000000009350000000000966500002000000000000000003000000000000028400000000000000009999123100000010000000000000BRMINTCTF009103
012024080612MMVE11      010FII MMVE OP CI           R$  000000001618700000000161870000000016187000000001618700000000161870000000008500000000000000000001000000000000000001000000000000016187000000000000009999123100000010000000000000BRMMVECTF006100
012024080612SMRE11      010FII SMRE    CI  ER       R$  000000000999900000000100000000000009850000000000999300000000100000000000009850000000001000000008000000000000000524000000000005236502000000000000009999123100000010000000000000BRSMRECTF001103
012024080612SNCI11      010FII SUNO CRICI           R$  000000000960900000000096600000000009511000000000957900000000095870000000009578000000000958701345000000000000004605000000000044114700000000000000009999123100000010000000000000BRSNCICTF002137
012024080612SNEL11      010FII SUNO EL CI           R$  000000000092900000000009340000000000928000000000093100000000009330000000000933000000000093400390000000000000028507000000000026547313000000000000009999123100000010000000000000BRSNELCTF010110
012024080612SNFF11      010FII SUNOFOFICI           R$  000000000874000000000088140000000008740000000000877500000000087780000000008756000000000877800530000000000000003715000000000032600844000000000000009999123100000010000000000000BRSNFFCTF001139
012024080612SNLG11      010FII SUNO LG CI           R$  000000000314500000000032710000000003145000000000317200000000032200000000003169000000000322000044000000000000000540000000000001712942000000000000009999123100000010000000000000BRSNLGCTF007105
012024080612SNME11      010FII SNME    CI           R$  000000000097100000000009720000000000966000000000096800000000009720000000000970000000000097200060000000000000001565000000000001515724000000000000009999123100000010000000000000BRSNMECTF000108
012024080612SPTW11      010FII SP DOWNTCI  ER       R$  000000000400900000000040300000000003991000000000400400000000039990000000003999000000000400000208000000000000001208000000000004837844000000000000009999123100000010000000000000BRSPTWCTF002237
012024080612SPXS11      010FII SPX SYN CI           R$  000000000093500000000009370000000000930000000000093400000000009350000000000930000000000093504017000000000000040528000000000037864498000000000000009999123100000010000000000000BRSPXSCTF002125
012024080612PRSN11      010FII PERSONALCI           R$  000000000011000000000001100000000000107000000000010700000000001070000000000105000000000010700014000000000000001368000000000000146781000000000000009999123100000010000000000000BRPRSNCTF005125
012024080612PULV11      010FII PULV    CI  ER       R$  000000000097000000000010160000000000946000000000095600000000010050000000000949000000000100500519000000000000007226000000000006911680000000000000009999123100000010000000000000BRPULVCTF007103
012024080612PVBI11      010FII VBI PRI CI  ER       R$  000000000935100000000093830000000009253000000000928700000000092530000000009253000000000927508867000000000000031462000000000292217702000000000000009999123100000010000000000000BRPVBICTF003154
012024080612QAGR11      010FII QUASAR ACI  ER       R$  000000000468000000000046860000000004640000000000467200000000046800000000004680000000000468500195000000000000003897000000000018208066000000000000009999123100000010000000000000BRQAGRCTF005157
012024080612SEQR11      010FII SEQUOIA CI           R$  000000000519000000000052600000000005178000000000521600000000052590000000005200000000000525400081000000000000002126000000000011090495000000000000009999123100000010000000000000BRSEQRCTF002144
012024080612ICRI11      010FII CI IPCA CI  ER       R$  000000000965400000000096940000000009636000000000966100000000096450000000009641000000000964500192000000000000005849000000000056509547000000000000009999123100000010000000000000BRICRICTF004106
012024080612KNCR11      010FII KINEA RICI  ER       R$  000000001049900000000105200000000010421000000001045200000000104210000000010421000000001042517782000000000000109298000000001142403713000000000000009999123100000010000000000000BRKNCRCTF000242
012024080612KNHF11      010FII KINEA HFCI  ER       R$  000000000951000000000095180000000009450000000000948600000000094820000000009466000000000948201917000000000000018180000000000172471847000000000000009999123100000010000000000000BRKNHFCTF004113
012024080612KNHY11      010FII KINEA HYCI  ER       R$  000000001046500000000105000000000010465000000001048900000000105000000000010492000000001050201853000000000000018291000000000191869020000000000000009999123100000010000000000000BRKNHYCTF005174
012024080612KNIP11      010FII KINEA IPCI  ER       R$  000000000945600000000094670000000009403000000000942900000000094330000000009432000000000943312732000000000000072950000000000687903182000000000000009999123100000010000000000000BRKNIPCTF001195
012024080612KNRE11      010FII KII REALCI           R$  000000000004400000000000460000000000042000000000004200000000000420000000000042000000000004300047000000000000011410000000000000490378000000000000009999123100000010000000000000BRKNRECTF006129
012024080612KNRI11      010FII KINEA   CI  ER       R$  000000001545900000000155700000000015371000000001546300000000153990000000015375000000001539905411000000000000022443000000000347047700000000000000009999123100000010000000000000BRKNRICTF007266
012024080612KNSC11      010FII KINEA SCCI  ER       R$  000000000092600000000009270000000000916000000000091900000000009170000000000916000000000091706108000000000000192092000000000176709071000000000000009999123100000010000000000000BRKNSCCTF008149
012024080612NAVT11      010FII NAVI TOTCI           R$  000000000866000000000086850000000008474000000000852600000000084740000000008463000000000847400260000000000000003889000000000033159576000000000000009999123100000010000000000000BRNAVTCTF015140
