00COTAHIST.2024BOVESPA 20240829                                                                                                                                                                                                                      
012024082902IGTI11      010IGUATEMI S.AUNT     N1   R$  000000000229900000000022990000000002220000000000223700000000022310000000002231000000000223411730000000000002937600000000006571937200000000000000009999123100000010000000000000BRIGTICDAM16106
012024082902IGTI3       010IGUATEMI S.AON      N1   R$  000000000028300000000002840000000000276000000000027800000000002760000000000276000000000028000051000000000000014100000000000003932100000000000000009999123100000010000000000000BRIGTIACNOR8106
012024082902IGTI4       010IGUATEMI S.APN      N1   R$  000000000098600000000009860000000000986000000000098600000000009860000000000009000000000108400001000000000000000100000000000000098600000000000000009999123100000010000000000000BRIGTIACNPR5106
012024082902LOGG3       010LOG COM PROPON      NM   R$  000000000239900000000023990000000002345000000000236000000000023550000000002355000000000235701940000000000000248200000000000585775900000000000000009999123100000010000000000000BRLOGGACNOR7107
012024082902LOGN3       010LOG-IN      ON      NM   R$  000000000363000000000036960000000003606000000000363700000000036620000000003641000000000366600033000000000000006100000000000022191500000000000000009999123100000010000000000000BRLOGNACNOR3105
012024082902LPSB3       010LOPES BRASILON      NM   R$  000000000017300000000001750000000000169000000000017100000000001690000000000169000000000017100147000000000000102600000000000017606300000000000000009999123100000010000000000000BRLPSBACNOR0114
012024082902LREN3       010LOJAS RENNERON      NM   R$  000000000174900000000017610000000001700000000000171500000000017050000000001704000000000170637232000000000026745100000000045887738800000000000000009999123100000010000000000000BRLRENACNOR1221
012024082902ODPV3       010ODONTOPREV  ON  ED  NM   R$  000000000113400000000011340000000001108000000000111500000000011150000000001115000000000111703822000000000000792200000000000883986800000000000000009999123100000010000000000000BRODPVACNOR4203
012024082902OFSA3       010OUROFINO S/AON      NM   R$  000000000221000000000022900000000002210000000000228300000000022900000000002210000000000229000009000000000000004000000000000009134000000000000000009999123100000010000000000000BROFSAACNOR7118
012024082902ONCO3       010ONCOCLINICASON      NM   R$  000000000065800000000006580000000000635000000000064300000000006360000000000635000000000063803266000000000001501400000000000965641300000000000000009999123100000010000000000000BRONCOACNOR6101
012024082902OPCT3       010OCEANPACT   ON      NM   R$  000000000065000000000006500000000000633000000000064100000000006430000000000637000000000064303380000000000000644400000000000413601200000000000000009999123100000010000000000000BROPCTACNOR0100
012024082902ORVR3       010ORIZON      ON      NM   R$  000000000469900000000047060000000004621000000000466100000000046630000000004660000000000466503269000000000000574300000000002676934700000000000000009999123100000010000000000000BRORVRACNOR0101
012024082902EZTC3       010EZTEC       ON      NM   R$  000000000147700000000014770000000001412000000000143100000000014120000000001412000000000141505591000000000001438100000000002058176200000000000000009999123100000010000000000000BREZTCACNOR0126
012024082902MDIA3       010M.DIASBRANCOON      NM   R$  000000000279300000000028020000000002725000000000275200000000027480000000002746000000000274903513000000000000845500000000002327451500000000000000009999123100000010000000000000BRMDIAACNOR7135
012024082902MDNE3       010MOURA DUBEUXON      NM   R$  000000000146100000000014800000000001420000000000143000000000014320000000001430000000000143301229000000000000266600000000000381331200000000000000009999123100000010000000000000BRMDNEACNOR9100
012024082902MEAL3       010IMC S/A     ON      NM   R$  000000000017000000000001700000000000161000000000016300000000001610000000000160000000000016100472000000000000338100000000000055259600000000000000009999123100000010000000000000BRMEALACNOR9105
012024082902MELK3       010MELNICK     ON      NM   R$  000000000035100000000003510000000000337000000000034000000000003370000000000337000000000033801012000000000001452900000000000494391200000000000000009999123100000010000000000000BRMELKACNOR8111
012024082902MGLU3       010MAGAZ LUIZA ON      NM   R$  000000000132000000000013250000000001266000000000129000000000012890000000001289000000000129021650000000000020240700000000026119328200000000000000009999123100000010000000000000BRMGLUACNOR2124
012024082902ITUB4       010ITAUUNIBANCOPN      N1   R$  000000000371900000000037380000000003696000000000371700000000036960000000003696000000000369737002000000000022221200000000082603840400000000000000009999123100000010000000000000BRITUBACNPR1339
012024082902AZZA3       010AZZAS 2154  ON      NM   R$  000000000514000000000051950000000005010000000000506500000000050720000000005070000000000507214263000000000003540400000000017935558600000000000000009999123100000010000000000000BRAZZAACNOR9100
012024082902BEEF3       010MINERVA     ON      NM   R$  000000000076100000000007650000000000744000000000075000000000007520000000000751000000000075308010000000000005882300000000004414593900000000000000009999123100000010000000000000BRBEEFACNOR6116
012024082902BPAC11      010BTGP BANCO  UNT     N2   R$  000000000361000000000036240000000003547000000000356900000000035560000000003554000000000355719684000000000007757400000000027689975800000000000000009999123100000010000000000000BRBPACUNT006119
012024082902BPAC3       010BTGP BANCO  ON      N2   R$  000000000165600000000016760000000001634000000000164900000000016340000000001633000000000170400016000000000000001900000000000003133300000000000000009999123100000010000000000000BRBPACACNOR7134
012024082902BPAC5       010BTGP BANCO  PNA     N2   R$  000000000094600000000009530000000000943000000000094400000000009530000000000946000000000095200011000000000000002800000000000002645400000000000000009999123100000010000000000000BRBPACACNPA0134
012024082902COCE5       010COELCE      PNA          R$  000000000309200000000031500000000003092000000000311300000000031500000000003113000000000315000024000000000000019700000000000061336700000000000000009999123100000010000000000000BRCOCEACNPA3147
012024082902COGN3       010COGNA ON    ON      NM   R$  000000000014100000000001410000000000138000000000013900000000001400000000000139000000000014116913000000000025090600000000003511839100000000000000009999123100000010000000000000BRCOGNACNOR2105
012024082902ESPA3       010ESPACOLASER ON      NM   R$  000000000010700000000001080000000000104000000000010500000000001060000000000105000000000010600145000000000000297300000000000031467000000000000000009999123100000010000000000000BRESPAACNOR7103
012024082902ETER3       010ETERNIT     ON      NM   R$  000000000058700000000005900000000000582000000000058500000000005850000000000584000000000058500539000000000000267700000000000156642100000000000000009999123100000010000000000000BRETERACNOR3244
012024082902EUCA3       010EUCATEX     ON      N1   R$  000000000175000000000017500000000001744000000000174500000000017440000000001666000000000175000018000000000000003100000000000005410400000000000000009999123100000010000000000000BREUCAACNOR1157
012024082902EUCA4       010EUCATEX     PN      N1   R$  000000000157100000000015940000000001569000000000158000000000015690000000001568000000000158700259000000000000039100000000000061797500000000000000009999123100000010000000000000BREUCAACNPR8044
012024082902EVEN3       010EVEN        ON      NM   R$  000000000066600000000006660000000000644000000000064700000000006440000000000644000000000064701750000000000000606500000000000392994300000000000000009999123100000010000000000000BREVENACNOR8119
012024082902FESA3       010FERBASA     ON      N1   R$  000000000137500000000013750000000001352000000000136200000000013710000000001371000000000150500007000000000000000700000000000000953800000000000000009999123100000010000000000000BRFESAACNOR8188
012024082902FESA4       010FERBASA     PN      N1   R$  000000000081000000000008160000000000803000000000080800000000008050000000000805000000000080601741000000000000541700000000000438221500000000000000009999123100000010000000000000BRFESAACNPR5084
012024082902ITSA3       010ITAUSA      ON      N1   R$  000000000111400000000011160000000001102000000000110800000000011020000000001102000000000110900243000000000000095400000000000105795500000000000000009999123100000010000000000000BRITSAACNOR0441
012024082902ITSA4       010ITAUSA      PN      N1   R$  000000000111100000000011160000000001098000000000110600000000011010000000001101000000000110228975000000000022120000000000024471311900000000000000009999123100000010000000000000BRITSAACNPR7441
012024082902FRAS3       010FRAS-LE     ON      N1   R$  000000000197200000000019720000000001935000000000195000000000019510000000001948000000000195802006000000000000387000000000000754966200000000000000009999123100000010000000000000BRFRASACNOR0160
012024082902FRIO3       010METALFRIO   ON      NM   R$  000000001600000000000170130000000014900000000001603800000000150000000000014550000000001700000027000000000000005100000000000081797700000000000000009999123100000010000000000000BRFRIOACNOR2111
012024082902GEPA4       010GER PARANAP PN           R$  000000000265000000000027000000000002650000000000266500000000027000000000002650000000000274900011000000000000001800000000000004797600000000000000009999123100000010000000000000BRGEPAACNPR9160
012024082902GFSA3       010GAFISA      ON      NM   R$  000000000028000000000002830000000000263000000000026800000000002690000000000268000000000026903339000000000004821000000000001296722200000000000000009999123100000010000000000000BRGFSAACNOR3125
012024082902GGBR3       010GERDAU      ON      N1   R$  000000000161000000000016310000000001609000000000162400000000016290000000001622000000000163000316000000000000070900000000000115157600000000000000009999123100000010000000000000BRGGBRACNOR1193
012024082902GGBR4       010GERDAU      PN      N1   R$  000000000184600000000018590000000001828000000000184700000000018470000000001845000000000184922471000000000013118100000000024236271900000000000000009999123100000010000000000000BRGGBRACNPR8193
012024082902ITUB3       010ITAUUNIBANCOON      N1   R$  000000000321500000000032330000000003207000000000322200000000032180000000003217000000000321801840000000000000413500000000001332437300000000000000009999123100000010000000000000BRITUBACNOR4339
012024082902BBDC3       010BRADESCO    ON      N1   R$  000000000140300000000014150000000001398000000000140800000000014100000000001409000000000141008661000000000004721500000000006650462000000000000000009999123100000010000000000000BRBBDCACNOR1773
012024082902BBDC4       010BRADESCO    PN      N1   R$  000000000156000000000015680000000001551000000000156100000000015630000000001563000000000156427377000000000029559800000000046171729600000000000000009999123100000010000000000000BRBBDCACNPR8773
012024082902ELMD3       010ELETROMIDIA ON      NM   R$  000000000185000000000018500000000001768000000000179400000000017680000000001767000000000177700467000000000000063700000000000114286500000000000000009999123100000010000000000000BRELMDACNOR3101
012024082902EMAE4       010EMAE        PN           R$  000000000408400000000041060000000004083000000000409500000000040840000000004076000000000410600013000000000000001500000000000006143000000000000000009999123100000010000000000000BREMAEACNPR1125
012024082902EMBR3       010EMBRAER     ON      NM   R$  000000000465000000000046940000000004607000000000464400000000046340000000004630000000000463421790000000000005298200000000024606644100000000000000009999123100000010000000000000BREMBRACNOR4191
012024082902HYPE3       010HYPERA      ON      NM   R$  000000000302200000000030330000000002901000000000293400000000029130000000002911000000000291416838000000000003278800000000009622226600000000000000009999123100000010000000000000BRHYPEACNOR0143
012024082902KRSA3       010KORA SAUDE  ON      NM   R$  000000000006100000000000620000000000058000000000005900000000000610000000000060000000000006100189000000000000155100000000000009268300000000000000009999123100000010000000000000BRKRSAACNOR0100
012024082902LAND3       010TERRASANTAPAON      NM   R$  000000000136800000000013970000000001201000000000126400000000012800000000001280000000000129001615000000000000398200000000000503686500000000000000009999123100000010000000000000BRLANDACNOR9103
012024082902LAVV3       010LAVVI       ON      NM   R$  000000000087300000000008770000000000855000000000085800000000008590000000000859000000000086102024000000000000814800000000000699404100000000000000009999123100000010000000000000BRLAVVACNOR4113
012024082902LEVE3       010METAL LEVE  ON      NM   R$  000000000318700000000031910000000003135000000000315100000000031410000000003140000000000315202111000000000000337700000000001064110500000000000000009999123100000010000000000000BRLEVEACNOR2197
012024082902LJQQ3       010QUERO-QUERO ON      NM   R$  000000000044000000000004420000000000424000000000043000000000004240000000000424000000000042903859000000000001487400000000000640016700000000000000009999123100000010000000000000BRLJQQACNOR5104
012024082902NEOE3       010NEOENERGIA  ON      NM   R$  000000000196700000000019900000000001952000000000196600000000019600000000001960000000000197002448000000000000707400000000001390903300000000000000009999123100000010000000000000BRNEOEACNOR3123
012024082902NGRD3       010NEOGRID     ON      NM   R$  000000000013300000000001380000000000130000000000013300000000001340000000000134000000000013500915000000000000484600000000000064511900000000000000009999123100000010000000000000BRNGRDACNOR3104
012024082902NINJ3       010GETNINJAS   ON      NM   R$  000000000047000000000004700000000000466000000000046900000000004700000000000470000000000047900010000000000000003000000000000001407800000000000000009999123100000010000000000000BRNINJACNOR5101
012024082902NORD3       010NORDON MET  ON           R$  000000000120400000000012040000000001050000000000106600000000010510000000001051000000000115000009000000000000001000000000000001066100000000000000009999123100000010000000000000BRNORDACNOR7135
012024082902NTCO3       010GRUPO NATURAON      NM   R$  000000000138800000000014100000000001388000000000140100000000014020000000001402000000000140317403000000000008671700000000012149105000000000000000009999123100000010000000000000BRNTCOACNOR5106
012024082902PGMN3       010PAGUE MENOS ON      NM   R$  000000000032100000000003240000000000310000000000031500000000003150000000000315000000000031702344000000000000975600000000000307872200000000000000009999123100000010000000000000BRPGMNACNOR8103
012024082902RRRP3       0103R PETROLEUMON      NM   R$  000000000273600000000027510000000002692000000000271600000000027000000000002700000000000270809171000000000005595300000000015202305100000000000000009999123100000010000000000000BRRRRPACNOR5103
012024082902TFCO4       010TRACK FIELD PN      N2   R$  000000000119000000000011900000000001156000000000117000000000011710000000001170000000000117100423000000000000115600000000000135288900000000000000009999123100000010000000000000BRTFCOACNPR8114
012024082902TGMA3       010TEGMA       ON      NM   R$  000000000261800000000026180000000002550000000000256600000000025700000000002547000000000257100756000000000000098200000000000252010500000000000000009999123100000010000000000000BRTGMAACNOR7145
012024082902TIMS3       010TIM         ON      NM   R$  000000000179700000000018190000000001787000000000179900000000017940000000001793000000000180117632000000000008516300000000015324351400000000000000009999123100000010000000000000BRTIMSACNOR5117
012024082902TOTS3       010TOTVS       ON      NM   R$  000000000306600000000030890000000003040000000000305300000000030500000000003050000000000305108432000000000001407000000000004296884500000000000000009999123100000010000000000000BRTOTSACNOR8145
012024082902TPIS3       010TRIUNFO PARTON      NM   R$  000000000047100000000004780000000000422000000000043900000000004250000000000425000000000043000753000000000000350300000000000153836600000000000000009999123100000010000000000000BRTPISACNOR8118
012024082902TRAD3       010TC          ON      NM   R$  000000000031100000000003280000000000304000000000031300000000003170000000000317000000000031900338000000000000183300000000000057476700000000000000009999123100000010000000000000BRTRADACNOR3102
012024082902TRIS3       010TRISUL      ON      NM   R$  000000000046600000000004690000000000460000000000046300000000004620000000000461000000000046500869000000000000447600000000000207616700000000000000009999123100000010000000000000BRTRISACNOR4118
012024082902TRPL3       010TRAN PAULISTON      N1   R$  000000000318800000000032000000000003182000000000319100000000031920000000003182000000000320000020000000000000002700000000000008616400000000000000009999123100000010000000000000BRTRPLACNOR4185
012024082902TRPL4       010TRAN PAULISTPN      N1   R$  000000000247800000000024800000000002438000000000245800000000024620000000002457000000000246407261000000000004971700000000012223345000000000000000009999123100000010000000000000BRTRPLACNPR1185
012024082902TTEN3       0103TENTOS     ON      NM   R$  000000000122600000000012260000000001183000000000119300000000011930000000001190000000000119305711000000000000995900000000001188204100000000000000009999123100000010000000000000BRTTENACNOR0103
012024082902TUPY3       010TUPY        ON      NM   R$  000000000274800000000027480000000002709000000000272300000000027090000000002709000000000273102075000000000000409700000000001115683900000000000000009999123100000010000000000000BRTUPYACNOR1184
012024082902VIVR3       010VIVER       ON      NM   R$  000000000024900000000002500000000000242000000000024500000000002420000000000242000000000024400063000000000000028000000000000006875100000000000000009999123100000010000000000000BRVIVRACNOR4123
012024082902VIVT3       010TELEF BRASILON  EJ       R$  000000000516600000000051920000000005124000000000516600000000051820000000005174000000000518414139000000000002284100000000011801136100000000000000009999123100000010000000000000BRVIVTACNOR0184
012024082902VLID3       010VALID       ON      NM   R$  000000000229900000000022990000000002232000000000226300000000022810000000002280000000000228202371000000000000366400000000000829227800000000000000009999123100000010000000000000BRVLIDACNOR5144
012024082902VSTE3       010VESTE       ON      NM   R$  000000000131200000000013300000000001300000000000130700000000013000000000001281000000000132700017000000000000004800000000000006277900000000000000009999123100000010000000000000BRVSTEACNOR5103
012024082902VTRU3       010VITRUEDUCA  ON      NM   R$  000000000104700000000010670000000001005000000000101700000000010090000000001009000000000101400356000000000000055800000000000056804200000000000000009999123100000010000000000000BRVTRUACNOR3100
012024082902VULC3       010VULCABRAS   ON  ED  NM   R$  000000000179100000000017910000000001750000000000176300000000017530000000001752000000000175902875000000000000443600000000000782462100000000000000009999123100000010000000000000BRVULCACNOR2161
012024082902VVEO3       010VIVEO       ON      NM   R$  000000000020100000000002020000000000190000000000019400000000001930000000000193000000000019503657000000000002255900000000000438982600000000000000009999123100000010000000000000BRVVEOACNOR0104
012024082902WEGE3       010WEG         ON      NM   R$  000000000537500000000054020000000005335000000000536900000000053540000000005349000000000535419160000000000006435200000000034552530400000000000000009999123100000010000000000000BRWEGEACNOR0224
012024082902MILS3       010MILLS       ON  EDJ NM   R$  000000000110800000000011100000000001088000000000109500000000010960000000001096000000000109803436000000000000809700000000000886752400000000000000009999123100000010000000000000BRMILSACNOR2128
012024082902MLAS3       010MULTILASER  ON      NM   R$  000000000019400000000001940000000000188000000000018900000000001900000000000188000000000019002426000000000002550500000000000482969900000000000000009999123100000010000000000000BRMLASACNOR9101
012024082902MNDL3       010MUNDIAL     ON           R$  000000000123000000000013300000000001230000000000129800000000013300000000001090000000000139900019000000000000002800000000000003635000000000000000009999123100000010000000000000BRMNDLACNOR4109
012024082902MNPR3       010MINUPAR     ON           R$  000000000160100000000016010000000001601000000000160100000000016010000000001550000000000162000001000000000000000200000000000000320200000000000000009999123100000010000000000000BRMNPRACNOR5122
012024082902MOVI3       010MOVIDA      ON      NM   R$  000000000073700000000007370000000000698000000000070600000000007000000000000699000000000070012884000000000004547100000000003211196400000000000000009999123100000010000000000000BRMOVIACNOR0122
012024082902PETZ3       010PETZ        ON      NM   R$  000000000053000000000005300000000000509000000000051900000000005160000000000516000000000051711408000000000014005800000000007274161200000000000000009999123100000010000000000000BRPETZACNOR2110
012024082902RECV3       010PETRORECSA  ON      NM   R$  000000000207800000000020940000000002038000000000205400000000020540000000002052000000000205406901000000000002351900000000004832335900000000000000009999123100000010000000000000BRRECVACNOR3107
012024082902REDE3       010REDE ENERGIAON           R$  000000000069200000000006990000000000683000000000069000000000006990000000000693000000000069800015000000000000003100000000000002139900000000000000009999123100000010000000000000BRREDEACNOR7128
012024082902RENT3       010LOCALIZA    ON      NM   R$  000000000426000000000042850000000004175000000000419800000000041750000000004174000000000417727228000000000007476600000000031390793900000000000000009999123100000010000000000000BRRENTACNOR4196
012024082902SYNE3       010SYN PROP TECON  ED  NM   R$  000000000079900000000008070000000000781000000000079500000000008030000000000800000000000080300968000000000000451300000000000359183100000000000000009999123100000010000000000000BRSYNEACNOR2103
012024082902TAEE11      010TAESA       UNT     N2   R$  000000000352200000000035260000000003484000000000350700000000035130000000003512000000000351305990000000000001346200000000004722162800000000000000009999123100000010000000000000BRTAEECDAM10148
012024082902TAEE3       010TAESA       ON      N2   R$  000000000116400000000011690000000001155000000000116100000000011690000000001163000000000116900260000000000000039500000000000045894300000000000000009999123100000010000000000000BRTAEEACNOR9148
012024082902TAEE4       010TAESA       PN      N2   R$  000000000117800000000011800000000001165000000000117100000000011790000000001179000000000118000527000000000000113400000000000132852000000000000000009999123100000010000000000000BRTAEEACNPR6148
012024082902TASA3       010TAURUS ARMASON      N2   R$  000000000111800000000011290000000001110000000000111600000000011220000000001112000000000112200050000000000000010300000000000011504900000000000000009999123100000010000000000000BRTASAACNOR7104
012024082902TASA4       010TAURUS ARMASPN      N2   R$  000000000111200000000011150000000001103000000000110800000000011110000000001111000000000111201028000000000000224600000000000249019700000000000000009999123100000010000000000000BRTASAACNPR4104
012024082902TCSA3       010TECNISA     ON      NM   R$  000000000020100000000002020000000000194000000000019600000000001950000000000195000000000019800149000000000000072000000000000014141000000000000000009999123100000010000000000000BRTCSAACNOR3112
012024082902TECN3       010TECHNOS     ON      NM   R$  000000000055100000000005510000000000535000000000054000000000005350000000000535000000000053900158000000000000058100000000000031379300000000000000009999123100000010000000000000BRTECNACNOR6109
012024082902TELB3       010TELEBRAS    ON           R$  000000000140000000000014000000000001400000000000140000000000014000000000001387000000000142000001000000000000000100000000000000140000000000000000009999123100000010000000000000BRTELBACNOR2140
012024082902TELB4       010TELEBRAS    PN           R$  000000000095500000000009620000000000940000000000094700000000009460000000000945000000000096000018000000000000002200000000000002085300000000000000009999123100000010000000000000BRTELBACNPR9140
012024082902TEND3       010TENDA       ON      NM   R$  000000000138400000000013840000000001315000000000133000000000013270000000001327000000000132806491000000000001789500000000002380205400000000000000009999123100000010000000000000BRTENDACNOR4111
012024082902VBBR3       010VIBRA       ON      NM   R$  000000000259500000000025950000000002510000000000254000000000025590000000002558000000000255934613000000000009926100000000025221137200000000000000009999123100000010000000000000BRVBBRACNOR1108
012024082902VITT3       010VITTIA      ON      NM   R$  000000000063300000000006330000000000617000000000062300000000006290000000000618000000000062901109000000000000246500000000000153746200000000000000009999123100000010000000000000BRVITTACNOR4107
012024082902AALR3       010ALLIAR      ON      NM   R$  000000000158000000000015800000000001524000000000156100000000015790000000001552000000000158000044000000000000008100000000000012651600000000000000009999123100000010000000000000BRAALRACNOR6102
012024082902ABCB4       010ABC BRASIL  PN      N2   R$  000000000234000000000023500000000002317000000000233000000000023170000000002317000000000232302633000000000000563300000000001312608800000000000000009999123100000010000000000000BRABCBACNPR4146
012024082902ABEV3       010AMBEV S/A   ON           R$  000000000129300000000012980000000001279000000000128600000000012860000000001285000000000128719832000000000017873300000000022999671300000000000000009999123100000010000000000000BRABEVACNOR1128
012024082902BAHI3       010BAHEMA      ON      MA   R$  000000000066400000000006640000000000620000000000064800000000006200000000000620000000000067200015000000000000002400000000000001556600000000000000009999123100000010000000000000BRBAHIACNOR1074
012024082902BALM4       010BAUMER      PN           R$  000000000107000000000010700000000001070000000000107000000000010700000000001065000000000110000002000000000000000200000000000000214000000000000000009999123100000010000000000000BRBALMACNPR2056
012024082902SHOW3       010TIME FOR FUNON      NM   R$  000000000011500000000001150000000000110000000000011200000000001120000000000111000000000011200318000000000000258100000000000028991300000000000000009999123100000010000000000000BRSHOWACNOR7105
012024082902SHUL4       010SCHULZ      PN           R$  000000000066100000000006660000000000656000000000065900000000006600000000000656000000000066000566000000000000142000000000000093703600000000000000009999123100000010000000000000BRSHULACNPR4156
012024082902SIMH3       010SIMPAR      ON      NM   R$  000000000062600000000006340000000000615000000000062000000000006160000000000616000000000061708914000000000004620900000000002868902500000000000000009999123100000010000000000000BRSIMHACNOR0107
012024082902SANB4       010SANTANDER BRPN           R$  000000000164800000000016480000000001631000000000163900000000016320000000001632000000000164200381000000000000059600000000000097720700000000000000009999123100000010000000000000BRSANBACNPR5172
012024082902SAPR11      010SANEPAR     UNT     N2   R$  000000000287100000000028710000000002847000000000285500000000028560000000002853000000000285602129000000000000422000000000001204931500000000000000009999123100000010000000000000BRSAPRCDAM13118
012024082902SAPR3       010SANEPAR     ON      N2   R$  000000000054100000000005440000000000540000000000054100000000005440000000000542000000000054400306000000000000113800000000000061644900000000000000009999123100000010000000000000BRSAPRACNOR9159
012024082902SAPR4       010SANEPAR     PN      N2   R$  000000000057700000000005780000000000573000000000057500000000005760000000000574000000000057601807000000000000610900000000000351404400000000000000009999123100000010000000000000BRSAPRACNPR6159
012024082902SBFG3       010GRUPO SBF   ON      NM   R$  000000000175800000000017600000000001720000000000174400000000017490000000001749000000000175103381000000000000721200000000001257878600000000000000009999123100000010000000000000BRSBFGACNOR1103
012024082902SBSP3       010SABESP      ON      NM   R$  000000000956700000000096350000000009385000000000948600000000095390000000009508000000000953916681000000000003464000000000032861487300000000000000009999123100000010000000000000BRSBSPACNOR5161
012024082902VALE3       010VALE        ON      NM   R$  000000000594100000000059970000000005910000000000594900000000059300000000005929000000000593349164000000000019175500000000114075839800000000000000009999123100000010000000000000BRVALEACNOR0211
012024082902BAUH4       010EXCELSIOR   PN           R$  000000000798700000000079870000000007987000000000798700000000079870000000000000000000000798800001000000000000000100000000000000798700000000000000009999123100000010000000000000BRBAUHACNPR3118
012024082902BAZA3       010AMAZONIA    ON           R$  000000000977900000000097850000000009779000000000978000000000097850000000009785000000000983900004000000000000000500000000000004890300000000000000009999123100000010000000000000BRBAZAACNOR0179
012024082902BBAS3       010BRASIL      ON  EX  NM   R$  000000000281000000000028560000000002802000000000283000000000028300000000002830000000000283130089000000000013712600000000038809366600000000000000009999123100000010000000000000BRBBASACNOR3325
012024082902BIOM3       010BIOMM       ON      MA   R$  000000000082900000000008640000000000817000000000083700000000008530000000000834000000000085300200000000000000034100000000000028544900000000000000009999123100000010000000000000BRBIOMACNOR2112
012024082902YDUQ3       010YDUQS PART  ON      NM   R$  000000000100800000000010210000000000993000000000100400000000010000000000000998000000000100209218000000000005585800000000005608342700000000000000009999123100000010000000000000BRYDUQACNOR3105
012024082902ZAMP3       010ZAMP S.A.   ON           R$  000000000031900000000003190000000000308000000000031000000000003080000000000308000000000031201885000000000000552400000000000171462600000000000000009999123100000010000000000000BRZAMPACNOR5101
012024082902EKTR4       010ELEKTRO     PN           R$  000000000430000000000043220000000004290000000000431200000000043200000000004308000000000432000016000000000000002200000000000009486800000000000000009999123100000010000000000000BREKTRACNPR7164
012024082902ELET3       010ELETROBRAS  ON      N1   R$  000000000419500000000042090000000004112000000000413200000000041300000000004129000000000413123119000000000005994800000000024773319100000000000000009999123100000010000000000000BRELETACNOR6160
012024082902ELET6       010ELETROBRAS  PNB     N1   R$  000000000465600000000046770000000004572000000000459400000000045970000000004596000000000460306520000000000001095300000000005032494700000000000000009999123100000010000000000000BRELETACNPB7077
012024082902GUAR3       010GUARARAPES  ON      NM   R$  000000000089600000000008960000000000859000000000086900000000008590000000000859000000000086702821000000000000943700000000000820430700000000000000009999123100000010000000000000BRGUARACNOR4173
012024082902BRSR3       010BANRISUL    ON      N1   R$  000000000133600000000013640000000001330000000000134400000000013550000000001350000000000135400042000000000000006500000000000008738100000000000000009999123100000010000000000000BRBRSRACNOR3188
012024082902BRSR6       010BANRISUL    PNB     N1   R$  000000000126300000000012660000000001240000000000124900000000012550000000001250000000000125505593000000000001326100000000001656754600000000000000009999123100000010000000000000BRBRSRACNPB4191
012024082902BSLI4       010BRB BANCO   PN           R$  000000000099400000000009940000000000993000000000099300000000009930000000000954000000000098800006000000000000001500000000000001490900000000000000009999123100000010000000000000BRBSLIACNPR2194
012024082902ATOM3       010ATOMPAR     ON           R$  000000000020900000000002100000000000204000000000020500000000002060000000000206000000000020800016000000000000003600000000000000740400000000000000009999123100000010000000000000BRATOMACNOR1106
012024082902PINE3       010PINE        ON      N2   R$  000000000056000000000005600000000000560000000000056000000000005600000000000552000000000056000002000000000000000400000000000000224000000000000000009999123100000010000000000000BRPINEACNOR1150
012024082902PINE4       010PINE        PN      N2   R$  000000000049700000000004980000000000489000000000049200000000004900000000000490000000000049300365000000000000119800000000000059039200000000000000009999123100000010000000000000BRPINEACNPR8150
012024082902PLAS3       010PLASCAR PARTON           R$  000000000060100000000006010000000000601000000000060100000000006010000000000601000000000065600002000000000000000600000000000000360600000000000000009999123100000010000000000000BRPLASACNOR2106
012024082902PLPL3       010PLANOEPLANO ON      NM   R$  000000000124300000000012570000000001214000000000122700000000012150000000001215000000000121702618000000000000565100000000000693918100000000000000009999123100000010000000000000BRPLPLACNOR5104
012024082902PNVL3       010DIMED       ON      NM   R$  000000000103000000000010390000000001017000000000102200000000010180000000001017000000000101802289000000000000414500000000000423995700000000000000009999123100000010000000000000BRPNVLACNOR9207
012024082902POMO3       010MARCOPOLO   ON  EDJ N2   R$  000000000054100000000005490000000000541000000000054400000000005430000000000543000000000054600298000000000000078400000000000042658800000000000000009999123100000010000000000000BRPOMOACNOR0099
012024082902POMO4       010MARCOPOLO   PN  EDJ N2   R$  000000000069200000000007020000000000686000000000069300000000006930000000000692000000000069311802000000000009289700000000006445988600000000000000009999123100000010000000000000BRPOMOACNPR7099
012024082902PORT3       010WILSON SONS ON      NM   R$  000000000172700000000017290000000001698000000000170500000000017080000000001708000000000170902945000000000001294200000000002207762200000000000000009999123100000010000000000000BRPORTACNOR8109
012024082902POSI3       010POSITIVO TECON      NM   R$  000000000066500000000006670000000000643000000000065000000000006470000000000647000000000065005924000000000002528400000000001645156500000000000000009999123100000010000000000000BRPOSIACNOR9116
012024082902PRIO3       010PETRORIO    ON      NM   R$  000000000472500000000047440000000004641000000000468400000000046730000000004673000000000467519826000000000005992100000000028069403300000000000000009999123100000010000000000000BRPRIOACNOR1107
012024082902RSUL4       010RIOSULENSE  PN           R$  000000000650000000000065700000000006410000000000647100000000064930000000006375000000000649300014000000000000001500000000000009707400000000000000009999123100000010000000000000BRRSULACNPR3114
012024082902SANB11      010SANTANDER BRUNT          R$  000000000311700000000031560000000003117000000000314200000000031450000000003132000000000314505770000000000001089200000000003422851200000000000000009999123100000010000000000000BRSANBCDAM13165
012024082902SANB3       010SANTANDER BRON           R$  000000000148500000000015070000000001485000000000149900000000014950000000001495000000000149900452000000000000061700000000000092540400000000000000009999123100000010000000000000BRSANBACNOR8172
012024082902UCAS3       010UNICASA     ON      NM   R$  000000000022800000000002280000000000223000000000022500000000002240000000000224000000000022800089000000000000015900000000000003585400000000000000009999123100000010000000000000BRUCASACNOR1113
012024082902UGPA3       010ULTRAPAR    ON      NM   R$  000000000234900000000023640000000002291000000000231100000000023150000000002313000000000231622219000000000004797900000000011090343000000000000000009999123100000010000000000000BRUGPAACNOR8156
012024082902UNIP3       010UNIPAR      ON           R$  000000000481300000000048130000000004650000000000471900000000046500000000004648000000000476000123000000000000021500000000000101464700000000000000009999123100000010000000000000BRUNIPACNOR7206
012024082902UNIP5       010UNIPAR      PNA          R$  000000000483000000000049690000000004820000000000486600000000048220000000004820000000000490000013000000000000001300000000000006326200000000000000009999123100000010000000000000BRUNIPACNPA0208
012024082902UNIP6       010UNIPAR      PNB          R$  000000000484200000000048500000000004758000000000479000000000047580000000004758000000000478001576000000000000244900000000001173245000000000000000009999123100000010000000000000BRUNIPACNPB8206
012024082902USIM3       010USIMINAS    ON      N1   R$  000000000060900000000006090000000000600000000000060300000000006010000000000601000000000060300872000000000000256500000000000154676200000000000000009999123100000010000000000000BRUSIMACNOR3167
012024082902USIM5       010USIMINAS    PNA     N1   R$  000000000062200000000006280000000000619000000000062200000000006230000000000622000000000062409181000000000009967700000000006204027100000000000000009999123100000010000000000000BRUSIMACNPA6169
012024082902WEST3       010WESTWING    ON      NM   R$  000000000009300000000000950000000000090000000000009200000000000920000000000091000000000009200062000000000000133900000000000012338500000000000000009999123100000010000000000000BRWESTACNOR3100
012024082902WHRL3       010WHIRLPOOL   ON           R$  000000000042700000000004300000000000423000000000042600000000004250000000000425000000000043000007000000000000001400000000000000596400000000000000009999123100000010000000000000BRWHRLACNOR5128
012024082902WHRL4       010WHIRLPOOL   PN           R$  000000000044900000000004550000000000448000000000045000000000004500000000000450000000000045500009000000000000001800000000000000811500000000000000009999123100000010000000000000BRWHRLACNPR2128
012024082902WIZC3       010WIZ CO      ON      NM   R$  000000000061000000000006100000000000597000000000060100000000006000000000000600000000000060501438000000000000366000000000000220285700000000000000009999123100000010000000000000BRWIZCACNOR5102
012024082902PFRM3       010PROFARMA    ON      NM   R$  000000000063600000000006360000000000621000000000062500000000006250000000000622000000000062500415000000000000087500000000000054692900000000000000009999123100000010000000000000BRPFRMACNOR1116
012024082902ROMI3       010ROMI        ON      NM   R$  000000000109500000000010950000000001081000000000108400000000010850000000001085000000000109000755000000000000535400000000000580684100000000000000009999123100000010000000000000BRROMIACNOR8195
012024082902RPAD5       010ALFA HOLDINGPNA ED       R$  000000000087300000000008730000000000872000000000087200000000008720000000000865000000000087800002000000000000010000000000000008725000000000000000009999123100000010000000000000BRRPADACNPA4219
012024082902VIVA3       010VIVARA S.A. ON      NM   R$  000000000268400000000026880000000002582000000000261100000000026090000000002608000000000261413558000000000002999400000000007832997400000000000000009999123100000010000000000000BRVIVAACNOR0107
012024082902RANI3       010IRANI       ON      NM   R$  000000000080600000000008080000000000794000000000079800000000007950000000000795000000000079704635000000000001848400000000001475688900000000000000009999123100000010000000000000BRRANIACNOR5073
012024082902RAPT3       010RANDON PART ON      N1   R$  000000000088300000000009000000000000870000000000087800000000008750000000000874000000000087900170000000000000040600000000000035675300000000000000009999123100000010000000000000BRRAPTACNOR7163
012024082902RAPT4       010RANDON PART PN      N1   R$  000000000112300000000011230000000001088000000000109700000000010970000000001089000000000109804299000000000002042800000000002242822400000000000000009999123100000010000000000000BRRAPTACNPR4163
012024082902RCSL3       010RECRUSUL    ON           R$  000000000040800000000004390000000000408000000000042300000000004290000000000424000000000042903126000000000001428400000000000605092100000000000000009999123100000010000000000000BRRCSLACNOR4134
012024082902RCSL4       010RECRUSUL    PN           R$  000000000008900000000000890000000000088000000000008800000000000890000000000087000000000008800202000000000000107600000000000009489800000000000000009999123100000010000000000000BRRCSLACNPR1134
012024082902RDNI3       010RNI         ON      NM   R$  000000000032200000000003490000000000322000000000033300000000003230000000000317000000000033000023000000000000004200000000000001398600000000000000009999123100000010000000000000BRRDNIACNOR9116
012024082902RDOR3       010REDE D OR   ON      NM   R$  000000000329400000000033080000000003231000000000325500000000032490000000003242000000000324920698000000000005433600000000017689444100000000000000009999123100000010000000000000BRRDORACNOR8113
012024082902VAMO3       010VAMOS       ON      NM   R$  000000000079000000000007900000000000763000000000077000000000007660000000000765000000000076613279000000000008072300000000006216968600000000000000009999123100000010000000000000BRVAMOACNOR7105
012024082902RAIL3       010RUMO S.A.   ON      NM   R$  000000000225400000000022640000000002190000000000220600000000022040000000002204000000000220829472000000000010799100000000023830925700000000000000009999123100000010000000000000BRRAILACNOR9105
012024082902RAIZ4       010RAIZEN      PN      N2   R$  000000000032600000000003270000000000317000000000032000000000003210000000000320000000000032109606000000000013161000000000004220673300000000000000009999123100000010000000000000BRRAIZACNPR6111
012024082902SMFT3       010SMART FIT   ON      NM   R$  000000000232900000000023290000000002235000000000225100000000022430000000002241000000000224510463000000000002075200000000004671278600000000000000009999123100000010000000000000BRSMFTACNOR1112
012024082902SMTO3       010SAO MARTINHOON      NM   R$  000000000281500000000028280000000002755000000000278500000000027890000000002789000000000279012445000000000002218100000000006178732000000000000000009999123100000010000000000000BRSMTOACNOR3127
012024082902SNSY3       010SANSUY      ON           R$  000000000133400000000013390000000001280000000000131800000000013190000000001270000000000131500009000000000000001600000000000002109000000000000000009999123100000010000000000000BRSNSYACNOR2113
012024082902SNSY5       010SANSUY      PNA          R$  000000000062500000000006250000000000576000000000059400000000005760000000000575000000000058900033000000000000009700000000000005766200000000000000009999123100000010000000000000BRSNSYACNPA5111
012024082902SOJA3       010BOA SAFRA   ON      NM   R$  000000000133200000000013530000000001261000000000128100000000012750000000001275000000000127705298000000000001361900000000001744723300000000000000009999123100000010000000000000BRSOJAACNOR9105
012024082902SRNA3       010SERENA      ON      NM   R$  000000000085600000000008600000000000813000000000082400000000008170000000000816000000000082211412000000000003961400000000003266338600000000000000009999123100000010000000000000BRSRNAACNOR4100
012024082902STBP3       010SANTOS BRP  ON      NM   R$  000000000130200000000013020000000001262000000000127500000000012840000000001280000000000128512074000000000006038000000000007699892800000000000000009999123100000010000000000000BRSTBPACNOR3131
012024082902SUZB3       010SUZANO S.A. ON      NM   R$  000000000560800000000056400000000005520000000000556600000000055500000000005549000000000555121549000000000004555200000000025354615200000000000000009999123100000010000000000000BRSUZBACNOR0130
012024082902MAPT4       010CEMEPE      PN           R$  000000000050000000000005000000000000500000000000050000000000005000000000000460000000000055000001000000000000000100000000000000050000000000000000009999123100000010000000000000BRMAPTACNPR5106
012024082902MATD3       010MATER DEI   ON      NM   R$  000000000046400000000004740000000000459000000000046300000000004620000000000461000000000046702985000000000000589800000000000273223800000000000000009999123100000010000000000000BRMATDACNOR4104
012024082902MBLY3       010MOBLY       ON      NM   R$  000000000028500000000002850000000000273000000000028000000000002840000000000281000000000028401105000000000000555800000000000156117700000000000000009999123100000010000000000000BRMBLYACNOR5100
012024082902PDGR3       010PDG REALT   ON      NM   R$  000000000001700000000000170000000000016000000000001600000000000160000000000016000000000001700221000000000001233800000000000019820700000000000000009999123100000010000000000000BRPDGRACNOR8119
012024082902PDTC3       010PADTEC      ON      NM   R$  000000000021300000000002130000000000201000000000020500000000002050000000000203000000000020500088000000000000047200000000000009680900000000000000009999123100000010000000000000BRPDTCACNOR3101
012024082902PEAB3       010PAR AL BAHIAON           R$  000000000421800000000042180000000004218000000000421800000000042180000000004202000000000435000003000000000000000300000000000001265400000000000000009999123100000010000000000000BRPEABACNOR3133
012024082902PEAB4       010PAR AL BAHIAPN           R$  000000000460200000000046020000000004602000000000460200000000046020000000004600000000000485600001000000000000000100000000000000460200000000000000009999123100000010000000000000BRPEABACNPR0133
012024082902PETR3       010PETROBRAS   ON  EDJ N2   R$  000000000432300000000043590000000004277000000000430900000000042780000000004278000000000428024228000000000008584600000000036994305400000000000000009999123100000010000000000000BRPETRACNOR9206
012024082902PETR4       010PETROBRAS   PN  EDJ N2   R$  000000000396500000000039830000000003928000000000394800000000039330000000003932000000000393349279000000000025356600000000100132192900000000000000009999123100000010000000000000BRPETRACNPR6214
012024082902RADL3       010RAIADROGASILON      NM   R$  000000000277500000000027950000000002755000000000277300000000027820000000002777000000000278217645000000000005052000000000014012175100000000000000009999123100000010000000000000BRRADLACNOR0157
012024082902SLCE3       010SLC AGRICOLAON      NM   R$  000000000178200000000017920000000001761000000000177400000000017730000000001771000000000177407108000000000002309400000000004099138400000000000000009999123100000010000000000000BRSLCEACNOR2125
012024082902JHSF3       010JHSF PART   ON      NM   R$  000000000044100000000004420000000000436000000000043900000000004380000000000438000000000044002321000000000007222800000000003171406100000000000000009999123100000010000000000000BRJHSFACNOR2138
012024082902PRNR3       010PRINER      ON      NM   R$  000000000136900000000013840000000001320000000000134000000000013360000000001335000000000133701185000000000000323800000000000433980900000000000000009999123100000010000000000000BRPRNRACNOR4109
012024082902PSSA3       010PORTO SEGUROON      NM   R$  000000000337600000000033860000000003333000000000336600000000033770000000003371000000000337807526000000000001241500000000004179469200000000000000009999123100000010000000000000BRPSSAACNOR7155
012024082902PTBL3       010PORTOBELLO  ON      NM   R$  000000000049400000000005000000000000480000000000048900000000004890000000000488000000000048901289000000000000380000000000000186013200000000000000009999123100000010000000000000BRPTBLACNOR8132
012024082902PTNT3       010PETTENATI   ON           R$  000000000091800000000009480000000000917000000000092400000000009480000000000864000000000094900005000000000000000700000000000000647100000000000000009999123100000010000000000000BRPTNTACNOR6042
012024082902PTNT4       010PETTENATI   PN           R$  000000000070100000000007060000000000682000000000069200000000006820000000000681000000000068500043000000000000015800000000000010937800000000000000009999123100000010000000000000BRPTNTACNPR3047
012024082902QUAL3       010QUALICORP   ON      NM   R$  000000000020900000000002090000000000196000000000019900000000001980000000000197000000000019803172000000000003353800000000000670265200000000000000009999123100000010000000000000BRQUALACNOR6120
012024082902SCAR3       010SAO CARLOS  ON      NM   R$  000000000238600000000023900000000002331000000000236500000000023750000000002331000000000237500072000000000000017700000000000041860800000000000000009999123100000010000000000000BRSCARACNOR7131
012024082902SEER3       010SER EDUCA   ON      NM   R$  000000000065200000000006530000000000638000000000064600000000006450000000000645000000000065002128000000000000454900000000000293969900000000000000009999123100000010000000000000BRSEERACNOR5119
012024082902SEQL3       010SEQUOIA LOG ON      NM   R$  000000000059800000000006060000000000571000000000058200000000005800000000000577000000000058001140000000000000512900000000000298702000000000000000009999123100000010000000000000BRSEQLACNOR2103
012024082902CSRN3       010COSERN      ON           R$  000000000136000000000013940000000001360000000000136900000000013600000000001362000000000138900012000000000000003300000000000004519900000000000000009999123100000010000000000000BRCSRNACNOR0194
012024082902CSRN5       010COSERN      PNA          R$  000000000151000000000015100000000001510000000000151000000000015100000000001437000000000151000001000000000000000100000000000000151000000000000000009999123100000010000000000000BRCSRNACNPA3194
012024082902CSUD3       010CSU DIGITAL ON      NM   R$  000000000189500000000018950000000001857000000000186700000000018620000000001861000000000187200128000000000000034900000000000065165600000000000000009999123100000010000000000000BRCSUDACNOR5110
012024082902CTKA4       010KARSTEN     PN           R$  000000000199900000000019990000000001910000000000191200000000019100000000001900000000000199900007000000000000009600000000000018355300000000000000009999123100000010000000000000BRCTKAACNPR7043
012024082902DEXP4       010DEXXOS PAR  PN      N1   R$  000000000095500000000009550000000000955000000000095500000000009550000000000943000000000095500003000000000000000300000000000000286500000000000000009999123100000010000000000000BRDEXPACNPR8105
012024082902DIRR3       010DIRECIONAL  ON      NM   R$  000000000299200000000030170000000002890000000000292600000000029270000000002927000000000292807989000000000001654500000000004841377300000000000000009999123100000010000000000000BRDIRRACNOR0118
012024082902DMVF3       010D1000VFARMA ON      NM   R$  000000000072800000000007300000000000696000000000070700000000007150000000000714000000000071500575000000000000148500000000000105077300000000000000009999123100000010000000000000BRDMVFACNOR9100
012024082902CAMB3       010CAMBUCI     ON           R$  000000000121600000000012300000000001193000000000120600000000012300000000001200000000000123000140000000000000036600000000000044157200000000000000009999123100000010000000000000BRCAMBACNOR4131
012024082902CAML3       010CAMIL       ON      NM   R$  000000000096200000000009620000000000937000000000094400000000009370000000000936000000000094101539000000000000315400000000000297926800000000000000009999123100000010000000000000BRCAMLACNOR3128
012024082902CURY3       010CURY S/A    ON      NM   R$  000000000239300000000024020000000002330000000000234600000000023400000000002336000000000234005489000000000001092000000000002561856800000000000000009999123100000010000000000000BRCURYACNOR3109
012024082902CVCB3       010CVC BRASIL  ON      NM   R$  000000000020300000000002040000000000193000000000019700000000001980000000000197000000000019813854000000000016249400000000003212885400000000000000009999123100000010000000000000BRCVCBACNOR1116
012024082902CXSE3       010CAIXA SEGURION      NM   R$  000000000156400000000015800000000001550000000000156900000000015740000000001573000000000157411014000000000005211200000000008181182200000000000000009999123100000010000000000000BRCXSEACNOR7107
012024082902HAGA3       010HAGA S/A    ON           R$  000000000023900000000002400000000000232000000000023800000000002320000000000235000000000023900009000000000000006600000000000001572900000000000000009999123100000010000000000000BRHAGAACNOR7103
012024082902HAGA4       010HAGA S/A    PN           R$  000000000011600000000001210000000000116000000000011700000000001170000000000116000000000011700017000000000000004000000000000000471500000000000000009999123100000010000000000000BRHAGAACNPR4103
012024082902HAPV3       010HAPVIDA     ON      NM   R$  000000000044400000000004470000000000429000000000043400000000004290000000000429000000000043129502000000000038643000000000016790265800000000000000009999123100000010000000000000BRHAPVACNOR4114
012024082902HBOR3       010HELBOR      ON      NM   R$  000000000021600000000002160000000000210000000000021100000000002100000000000210000000000021100600000000000000586500000000000123905700000000000000009999123100000010000000000000BRHBORACNOR3118
012024082902HBRE3       010HBR REALTY  ON      NM   R$  000000000052700000000005280000000000517000000000052000000000005240000000000520000000000052400627000000000000303300000000000157726700000000000000009999123100000010000000000000BRHBREACNOR4100
012024082902HBSA3       010HIDROVIAS   ON      NM   R$  000000000035400000000003540000000000345000000000034900000000003470000000000346000000000034905144000000000001867300000000000652307300000000000000009999123100000010000000000000BRHBSAACNOR0100
012024082902HBTS5       010HABITASUL   PNA          R$  000000000389500000000038950000000003890000000000389200000000038900000000003300000000000410000002000000000000000200000000000000778500000000000000009999123100000010000000000000BRHBTSACNPA3128
012024082902DOHL4       010DOHLER      PN           R$  000000000042200000000004220000000000394000000000041200000000004180000000000406000000000041900009000000000000001000000000000000412200000000000000009999123100000010000000000000BRDOHLACNPR9066
012024082902DOTZ3       010DOTZ SA     ON      NM   R$  000000000086000000000009000000000000777000000000086300000000009000000000000890000000000090000581000000000000196800000000000169888100000000000000009999123100000010000000000000BRDOTZACNOR7101
012024082902DTCY3       010DTCOM-DIRECTON           R$  000000000046000000000004600000000000460000000000046000000000004600000000000440000000000046500001000000000000000100000000000000046000000000000000009999123100000010000000000000BRDTCYACNOR5109
012024082902DXCO3       010DEXCO       ON      NM   R$  000000000081100000000008170000000000791000000000079900000000007970000000000796000000000079707835000000000003125800000000002498933100000000000000009999123100000010000000000000BRDXCOACNOR8105
012024082902PATI3       010PANATLANTICAON           R$  000000000405000000000040500000000004000000000000401100000000040120000000003970000000000413000009000000000000002200000000000008824600000000000000009999123100000010000000000000BRPATIACNOR6065
012024082902PATI4       010PANATLANTICAPN           R$  000000000420000000000042000000000004200000000000420000000000042000000000004070000000000420000004000000000000000500000000000002100000000000000000009999123100000010000000000000BRPATIACNPR3065
012024082902PCAR3       010P.ACUCAR-CBDON      NM   R$  000000000033000000000003320000000000313000000000031800000000003140000000000314000000000031507887000000000010099400000000003216891200000000000000009999123100000010000000000000BRPCARACNOR3167
012024082902ALUP11      010ALUPAR      UNT     N2   R$  000000000309400000000030950000000003060000000000308300000000030890000000003079000000000308903705000000000000815600000000002514699500000000000000009999123100000010000000000000BRALUPCDAM15120
012024082902ALUP3       010ALUPAR      ON      N2   R$  000000000104000000000010610000000001040000000000104800000000010500000000001050000000000106800013000000000000002200000000000002305700000000000000009999123100000010000000000000BRALUPACNOR8120
012024082902ALUP4       010ALUPAR      PN      N2   R$  000000000100500000000010160000000001005000000000101100000000010140000000001010000000000101600032000000000000004900000000000004957400000000000000009999123100000010000000000000BRALUPACNPR5120
012024082902AURE3       010AUREN       ON      NM   R$  000000000114800000000011480000000001136000000000113800000000011360000000001136000000000113707410000000000003856200000000004390989900000000000000009999123100000010000000000000BRAUREACNOR9104
012024082902AZEV3       010AZEVEDO     ON           R$  000000000014200000000001440000000000139000000000014100000000001400000000000140000000000014100355000000000000346400000000000048862100000000000000009999123100000010000000000000BRAZEVACNOR0121
012024082902AZEV4       010AZEVEDO     PN           R$  000000000014100000000001450000000000138000000000014100000000001400000000000140000000000014101844000000000002567500000000000362401000000000000000009999123100000010000000000000BRAZEVACNPR7121
012024082902AZUL4       010AZUL        PN      N2   R$  000000000071600000000007160000000000535000000000057800000000005500000000000549000000000055057899000000000096245700000000055634540200000000000000009999123100000010000000000000BRAZULACNPR4102
012024082902CASH3       010MELIUZ      ON      NM   R$  000000000067200000000006750000000000663000000000066800000000006740000000000674000000000067502034000000000000795700000000000532109200000000000000009999123100000010000000000000BRCASHACNOR8106
012024082902CBAV3       010CBA         ON      NM   R$  000000000052500000000005250000000000496000000000050700000000005080000000000506000000000050804614000000000002880900000000001462503300000000000000009999123100000010000000000000BRCBAVACNOR5104
012024082902CCRO3       010CCR SA      ON      NM   R$  000000000136000000000013600000000001317000000000132500000000013220000000001322000000000132411960000000000006102400000000008086206900000000000000009999123100000010000000000000BRCCROACNOR2145
012024082902CEAB3       010CEA MODAS   ON      NM   R$  000000000103400000000010350000000001013000000000102200000000010170000000001017000000000101805005000000000001571800000000001607621000000000000000009999123100000010000000000000BRCEABACNOR1102
012024082902CEBR3       010CEB         ON           R$  000000000198400000000019840000000001980000000000198100000000019800000000001870000000000198000005000000000000000800000000000001584800000000000000009999123100000010000000000000BRCEBRACNOR5125
012024082902CEBR5       010CEB         PNA          R$  000000000166000000000016700000000001659000000000166300000000016590000000001659000000000167000008000000000000002900000000000004824900000000000000009999123100000010000000000000BRCEBRACNPA8124
012024082902CEBR6       010CEB         PNB          R$  000000000176600000000018060000000001766000000000179200000000018000000000001780000000000180000017000000000000004300000000000007709600000000000000009999123100000010000000000000BRCEBRACNPB6124
012024082902CEDO4       010CEDRO       PN      N1   R$  000000000245800000000024580000000002458000000000245800000000024580000000002458000000000250800001000000000000000100000000000000245800000000000000009999123100000010000000000000BRCEDOACNPR5128
012024082902CEEB3       010COELBA      ON           R$  000000000391000000000039100000000003910000000000391000000000039100000000003910000000000394500003000000000000000300000000000001173000000000000000009999123100000010000000000000BRCEEBACNOR3199
012024082902CGAS5       010COMGAS      PNA          R$  000000001219900000000121990000000011912000000001201200000000120000000000011820000000001200000014000000000000001500000000000018018300000000000000009999123100000010000000000000BRCGASACNPA3161
012024082902CGRA4       010GRAZZIOTIN  PN           R$  000000000255700000000025790000000002535000000000255100000000025350000000002535000000000257700018000000000000003400000000000008675200000000000000009999123100000010000000000000BRCGRAACNPR9083
012024082902CLSA3       010CLEARSALE   ON      NM   R$  000000000079100000000008350000000000784000000000081400000000008250000000000823000000000082508326000000000003873100000000003154252100000000000000009999123100000010000000000000BRCLSAACNOR0100
012024082902ENEV3       010ENEVA       ON      NM   R$  000000000135800000000013590000000001319000000000133200000000013330000000001330000000000133332921000000000011299700000000015054253400000000000000009999123100000010000000000000BRENEVACNOR8106
012024082902ENGI11      010ENERGISA    UNT     N2   R$  000000000477500000000047980000000004646000000000469900000000047330000000004730000000000473420079000000000006291500000000029567659100000000000000009999123100000010000000000000BRENGICDAM16136
012024082902IFCM3       010INFRACOMM   ON      NM   R$  000000000001700000000000170000000000014000000000001500000000000150000000000015000000000001613667000000000042384100000000000660893500000000000000009999123100000010000000000000BRIFCMACNOR8101
012024082902AMAR3       010LOJAS MARISAON      NM   R$  000000000011600000000001170000000000114000000000011400000000001150000000000114000000000011500977000000000000355000000000000040809800000000000000009999123100000010000000000000BRAMARACNOR4115
012024082902AMBP3       010AMBIPAR     ON      NM   R$  000000000685100000000072960000000006520000000000696200000000070180000000007018000000000704002722000000000000559600000000003896419000000000000000009999123100000010000000000000BRAMBPACNOR6103
012024082902ANIM3       010ANIMA       ON      NM   R$  000000000033500000000003370000000000322000000000032700000000003260000000000325000000000032607035000000000005211200000000001707881000000000000000009999123100000010000000000000BRANIMACNOR6109
012024082902APER3       010ALPER S.A.  ON           R$  000000000467400000000046740000000004649000000000465400000000046490000000004649000000000467400003000000000000000900000000000004189100000000000000009999123100000010000000000000BRAPERACNOR9106
012024082902ARML3       010ARMAC       ON      NM   R$  000000000088700000000009000000000000854000000000086500000000008540000000000853000000000085404137000000000000878900000000000760344800000000000000009999123100000010000000000000BRARMLACNOR1112
012024082902ASAI3       010ASSAI       ON      NM   R$  000000000095900000000009590000000000912000000000093000000000009360000000000936000000000093728767000000000021733300000000020232444600000000000000009999123100000010000000000000BRASAIACNOR0106
012024082902JOPA3       010JOSAPAR     ON           R$  000000000225000000000022500000000002200000000000222500000000022000000000002115000000000228000002000000000000000200000000000000445000000000000000009999123100000010000000000000BRJOPAACNOR5135
012024082902JSLG3       010JSL         ON      NM   R$  000000000099300000000009930000000000965000000000097700000000009890000000000985000000000098902550000000000000418300000000000408731400000000000000009999123100000010000000000000BRJSLGACNOR2121
012024082902KEPL3       010KEPLER WEBERON      NM   R$  000000000112100000000011220000000001093000000000110000000000010970000000001095000000000109802301000000000000611100000000000672381900000000000000009999123100000010000000000000BRKEPLACNOR1064
012024082902KLBN11      010KLABIN S/A  UNT     N2   R$  000000000219000000000021930000000002148000000000216100000000021650000000002160000000000216512154000000000003061300000000006615573200000000000000009999123100000010000000000000BRKLBNCDAM18143
012024082902KLBN3       010KLABIN S/A  ON      N2   R$  000000000044000000000004410000000000431000000000043400000000004320000000000432000000000043400439000000000000142400000000000061901500000000000000009999123100000010000000000000BRKLBNACNOR2171
012024082902KLBN4       010KLABIN S/A  PN      N2   R$  000000000043800000000004390000000000429000000000043200000000004300000000000429000000000043001380000000000000781600000000000337800100000000000000009999123100000010000000000000BRKLBNACNPR9171
012024082902MTRE3       010MITRE REALTYON  ED  NM   R$  000000000038700000000003870000000000375000000000037800000000003760000000000376000000000037801492000000000000779700000000000294872000000000000000009999123100000010000000000000BRMTREACNOR6114
012024082902MTSA4       010METISA      PN           R$  000000000446100000000045120000000004430000000000445100000000044300000000004359000000000443000035000000000000005200000000000023148000000000000000009999123100000010000000000000BRMTSAACNPR9072
012024082902MULT3       010MULTIPLAN   ON      N2   R$  000000000263000000000026300000000002556000000000256700000000025580000000002558000000000257310596000000000003024100000000007763412200000000000000009999123100000010000000000000BRMULTACNOR5139
012024082902MWET4       010WETZEL S/A  PN           R$  000000000092000000000009200000000000920000000000092000000000009200000000000821000000000091900001000000000000000100000000000000092000000000000000009999123100000010000000000000BRMWETACNPR3118
012024082902MYPK3       010IOCHP-MAXIONON      NM   R$  000000000118700000000011870000000001149000000000115600000000011500000000001150000000000115503794000000000000611200000000000706597900000000000000009999123100000010000000000000BRMYPKACNOR7155
012024082902AERI3       010AERIS       ON      NM   R$  000000000102800000000010360000000000980000000000100500000000010070000000001007000000000100900824000000000000329300000000000331129400000000000000009999123100000010000000000000BRAERIACNOR4102
012024082902AESB3       010AES BRASIL  ON  ES  NM   R$  000000000114000000000011450000000001139000000000114100000000011450000000001144000000000114502191000000000001953400000000002230330000000000000000009999123100000010000000000000BRAESBACNOR7107
012024082902AGRO3       010BRASILAGRO  ON      NM   R$  000000000261300000000026200000000002568000000000257800000000025690000000002569000000000257102263000000000000288500000000000743920100000000000000009999123100000010000000000000BRAGROACNOR7114
012024082902AGXY3       010AGROGALAXY  ON      NM   R$  000000000012700000000001320000000000118000000000012400000000001200000000000119000000000012100461000000000000425500000000000052954100000000000000009999123100000010000000000000BRAGXYACNOR4103
012024082902AHEB5       010SPTURIS     PNA          R$  000000000350000000000040000000000003500000000000360000000000040000000000003000000000000410000004000000000000000500000000000001800000000000000000009999123100000010000000000000BRAHEBACNPA3106
012024082902ALLD3       010ALLIED      ON      NM   R$  000000000076600000000007700000000000747000000000075600000000007470000000000747000000000075600202000000000000051200000000000038750700000000000000009999123100000010000000000000BRALLDACNOR3106
012024082902ALOS3       010ALLOS       ON      NM   R$  000000000237000000000023750000000002302000000000231500000000023080000000002307000000000231015076000000000003915600000000009065059200000000000000009999123100000010000000000000BRALOSACNOR5101
012024082902ALPA3       010ALPARGATAS  ON      N1   R$  000000000084200000000008420000000000790000000000080900000000007950000000000793000000000084100016000000000000003800000000000003076200000000000000009999123100000010000000000000BRALPAACNOR0231
012024082902ALPA4       010ALPARGATAS  PN      N1   R$  000000000081900000000008190000000000795000000000080300000000007950000000000795000000000079807542000000000002893000000000002325092000000000000000009999123100000010000000000000BRALPAACNPR7232
012024082902ALPK3       010ESTAPAR     ON      NM   R$  000000000038000000000003840000000000368000000000037400000000003770000000000372000000000037800386000000000000154700000000000057927400000000000000009999123100000010000000000000BRALPKACNOR9101
012024082902BRIT3       010BRISANET    ON      NM   R$  000000000036000000000003610000000000353000000000035500000000003530000000000353000000000035600348000000000000392100000000000139348800000000000000009999123100000010000000000000BRBRITACNOR0103
012024082902BRKM3       010BRASKEM     ON      N1   R$  000000000177900000000018250000000001756000000000179600000000018250000000001756000000000184700057000000000000015200000000000027313600000000000000009999123100000010000000000000BRBRKMACNOR1119
012024082902BRKM5       010BRASKEM     PNA     N1   R$  000000000178100000000018080000000001763000000000178000000000017740000000001769000000000177407994000000000002176400000000003876071200000000000000009999123100000010000000000000BRBRKMACNPA4121
012024082902CSED3       010CRUZEIRO EDUON  ED  NM   R$  000000000037400000000003740000000000361000000000036600000000003610000000000361000000000036600790000000000000331900000000000121486300000000000000009999123100000010000000000000BRCSEDACNOR9105
012024082902CSMG3       010COPASA      ON      NM   R$  000000000235300000000023550000000002316000000000234000000000023550000000002343000000000235603262000000000000657100000000001537825700000000000000009999123100000010000000000000BRCSMGACNOR5174
012024082902CSNA3       010SID NACIONALON           R$  000000000118700000000012070000000001181000000000119000000000011930000000001192000000000119313865000000000006139800000000007309718500000000000000009999123100000010000000000000BRCSNAACNOR6261
012024082902FHER3       010FER HERINGERON      NM   R$  000000000041400000000004220000000000414000000000041400000000004150000000000415000000000041600006000000000000003600000000000001493800000000000000009999123100000010000000000000BRFHERACNOR5103
012024082902FIEI3       010FICA        ON           R$  000000000090000000000009060000000000821000000000088700000000008960000000000831000000000090000007000000000000001500000000000001330600000000000000009999123100000010000000000000BRFIEIACNOR2100
012024082902FIQE3       010UNIFIQUE    ON      NM   R$  000000000038100000000003820000000000374000000000037700000000003790000000000378000000000037900465000000000000192600000000000072753700000000000000009999123100000010000000000000BRFIQEACNOR5107
012024082902FLRY3       010FLEURY      ON      NM   R$  000000000161100000000016210000000001584000000000159400000000015940000000001590000000000159412303000000000003082300000000004914522400000000000000009999123100000010000000000000BRFLRYACNOR5139
012024082902BBSE3       010BBSEGURIDADEON      NM   R$  000000000360300000000036550000000003581000000000362700000000036550000000003647000000000365524297000000000005705200000000020694137700000000000000009999123100000010000000000000BRBBSEACNOR5125
012024082902CLSC3       010CELESC      ON      N2   R$  000000000739100000000076000000000007391000000000742500000000076000000000007225000000000759900005000000000000000600000000000004455500000000000000009999123100000010000000000000BRCLSCACNOR6152
012024082902CLSC4       010CELESC      PN      N2   R$  000000000770300000000077880000000007703000000000777700000000077800000000007723000000000778000011000000000000002800000000000021777300000000000000009999123100000010000000000000BRCLSCACNPR3131
012024082902CMIG3       010CEMIG       ON  ED  N1   R$  000000000140000000000014000000000001379000000000138900000000013990000000001385000000000139900672000000000000101400000000000140857500000000000000009999123100000010000000000000BRCMIGACNOR6243
012024082902CMIG4       010CEMIG       PN  ED  N1   R$  000000000115200000000011620000000001148000000000115600000000011600000000001160000000000116120512000000000010061800000000011635832400000000000000009999123100000010000000000000BRCMIGACNPR3244
012024082902CMIN3       010CSNMINERACAOON      N2   R$  000000000055400000000005660000000000554000000000056100000000005650000000000564000000000056513817000000000012610000000000007086028400000000000000009999123100000010000000000000BRCMINACNOR2111
012024082902ENGI3       010ENERGISA    ON      N2   R$  000000000143500000000014600000000001420000000000143600000000014210000000001420000000000146600062000000000000008700000000000012499200000000000000009999123100000010000000000000BRENGIACNOR0146
012024082902ENGI4       010ENERGISA    PN      N2   R$  000000000083300000000008400000000000803000000000082400000000008130000000000813000000000082700051000000000000011500000000000009486500000000000000009999123100000010000000000000BRENGIACNPR7142
012024082902ENJU3       010ENJOEI      ON      NM   R$  000000000016300000000001720000000000158000000000016700000000001650000000000164000000000016502130000000000001743500000000000291598100000000000000009999123100000010000000000000BRENJUACNOR9100
012024082902ENMT3       010ENERGISA MT ON           R$  000000000850000000000085000000000008500000000000850000000000085000000000000000000000000000000001000000000000000200000000000001700000000000000000009999123100000010000000000000BRENMTACNOR5121
012024082902ENMT4       010ENERGISA MT PN           R$  000000000789000000000079900000000007890000000000794000000000079900000000007513000000000829000002000000000000000200000000000001588000000000000000009999123100000010000000000000BRENMTACNPR2126
012024082902EPAR3       010EMBPAR S/A  ON           R$  000000000059700000000005970000000000588000000000059000000000005890000000000588000000000058900014000000000000002500000000000001476300000000000000009999123100000010000000000000BREPARACNOR9105
012024082902EQPA3       010EQTL PARA   ON           R$  000000000058700000000005940000000000581000000000058500000000005930000000000590000000000059300051000000000000021900000000000012812600000000000000009999123100000010000000000000BREQPAACNOR1111
012024082902EQPA5       010EQTL PARA   PNA          R$  000000000081400000000008140000000000814000000000081400000000008140000000000700000000000092000001000000000000000100000000000000081400000000000000009999123100000010000000000000BREQPAACNPA4111
012024082902EQTL3       010EQUATORIAL  ON  ES  NM   R$  000000000345400000000034820000000003388000000000341700000000034270000000003426000000000342833612000000000007108500000000024291107400000000000000009999123100000010000000000000BREQTLACNOR0131
012024082902INEP3       010INEPAR      ON           R$  000000000021100000000002120000000000202000000000020500000000002060000000000205000000000020800149000000000000040400000000000008295500000000000000009999123100000010000000000000BRINEPACNOR1143
012024082902INEP4       010INEPAR      PN           R$  000000000021600000000002160000000000208000000000021200000000002130000000000209000000000021300055000000000000026100000000000005534900000000000000009999123100000010000000000000BRINEPACNPR8143
012024082902EALT4       010ACO ALTONA  PN           R$  000000000129300000000012950000000001281000000000129000000000012940000000001283000000000129400042000000000000008500000000000010970400000000000000009999123100000010000000000000BREALTACNPR1138
012024082902ECOR3       010ECORODOVIAS ON      NM   R$  000000000078000000000007810000000000760000000000076600000000007630000000000763000000000076705355000000000002013000000000001542452400000000000000009999123100000010000000000000BRECORACNOR8120
012024082902BRAP4       010BRADESPAR   PN      N1   R$  000000000194100000000019410000000001918000000000192800000000019280000000001928000000000192906719000000000002459900000000004743783000000000000000009999123100000010000000000000BRBRAPACNPR2148
012024082902BRBI11      010BR PARTNERS UNT     N2   R$  000000000155900000000015590000000001524000000000153300000000015340000000001534000000000153500973000000000000148700000000000228095100000000000000009999123100000010000000000000BRBRBICDAM10110
012024082902BRFS3       010BRF SA      ON      NM   R$  000000000260100000000026230000000002548000000000257800000000025800000000002575000000000258017102000000000006381700000000016452363600000000000000009999123100000010000000000000BRBRFSACNOR8122
012024082902CRPG5       010CRISTAL     PNA          R$  000000000286500000000028900000000002865000000000286700000000028900000000002861000000000289500006000000000000001200000000000003440500000000000000009999123100000010000000000000BRCRPGACNPA3119
012024082902CRPG6       010CRISTAL     PNB          R$  000000000285000000000028500000000002850000000000285000000000028500000000002850000000000294900001000000000000000100000000000000285000000000000000009999123100000010000000000000BRCRPGACNPB1119
012024082902CSAN3       010COSAN       ON      NM   R$  000000000136300000000013680000000001337000000000134500000000013440000000001344000000000134517784000000000009298200000000012511096300000000000000009999123100000010000000000000BRCSANACNOR6126
012024082902CYRE3       010CYRELA REALTON      NM   R$  000000000225400000000022760000000002202000000000222100000000022210000000002221000000000222218903000000000006563600000000014578865900000000000000009999123100000010000000000000BRCYREACNOR7140
012024082902DASA3       010DASA        ON      NM   R$  000000000033300000000003350000000000320000000000032700000000003270000000000326000000000032702083000000000000823400000000000269877000000000000000009999123100000010000000000000BRDASAACNOR1122
012024082902EGIE3       010ENGIE BRASILON  ED  NM   R$  000000000442800000000044320000000004376000000000440100000000044140000000004407000000000441405720000000000000824400000000003628239300000000000000009999123100000010000000000000BREGIEACNOR9127
012024082902GGPS3       010GPS         ON      NM   R$  000000000181300000000018180000000001762000000000177400000000017680000000001766000000000176808828000000000002810700000000004986642300000000000000009999123100000010000000000000BRGGPSACNOR9103
012024082902GMAT3       010GRUPO MATEUSON      NM   R$  000000000080300000000008080000000000789000000000079500000000007920000000000791000000000079306224000000000002984200000000002374862500000000000000009999123100000010000000000000BRGMATACNOR7102
012024082902GOAU3       010GERDAU MET  ON      N1   R$  000000000105800000000010820000000001055000000000106700000000010700000000001062000000000107000136000000000000037900000000000040471600000000000000009999123100000010000000000000BRGOAUACNOR1268
012024082902GOAU4       010GERDAU MET  PN      N1   R$  000000000104500000000010650000000001043000000000105200000000010520000000001051000000000105212693000000000007358600000000007742201000000000000000009999123100000010000000000000BRGOAUACNPR8269
012024082902DESK3       010DESKTOP     ON      NM   R$  000000000159400000000015940000000001542000000000155500000000015420000000001541000000000154200326000000000000073300000000000114029400000000000000009999123100000010000000000000BRDESKACNOR2104
012024082902DEXP3       010DEXXOS PAR  ON      N1   R$  000000000098000000000009890000000000971000000000097600000000009720000000000972000000000097400206000000000000061600000000000060181000000000000000009999123100000010000000000000BRDEXPACNOR1105
012024082902B3SA3       010B3          ON      NM   R$  000000000126000000000012670000000001243000000000125100000000012540000000001254000000000125545748000000000039235500000000049120875500000000000000009999123100000010000000000000BRB3SAACNOR6133
012024082902BEES3       010BANESTES    ON           R$  000000000089700000000009000000000000896000000000089800000000009000000000000898000000000090000060000000000000009200000000000008261900000000000000009999123100000010000000000000BRBEESACNOR9394
012024082902BEES4       010BANESTES    PN           R$  000000000097600000000009870000000000976000000000097900000000009780000000000961000000000097800010000000000000001700000000000001664300000000000000009999123100000010000000000000BRBEESACNPR6319
012024082902BGIP4       010BANESE      PN  EJ       R$  000000000236000000000023890000000002320000000000234000000000023220000000002322000000000239000010000000000000001500000000000003510100000000000000009999123100000010000000000000BRBGIPACNPR8209
012024082902BHIA3       010CASAS BAHIA ON      NM   R$  000000000067000000000006940000000000654000000000067500000000006870000000000686000000000068706385000000000004217300000000002846764400000000000000009999123100000010000000000000BRBHIAACNOR1102
012024082902BPAN4       010BANCO PAN   PN      N1   R$  000000000100200000000010030000000000980000000000098900000000009860000000000985000000000098706752000000000003705900000000003666674800000000000000009999123100000010000000000000BRBPANACNPR1115
012024082902CPFE3       010CPFL ENERGIAON      NM   R$  000000000331000000000033140000000003256000000000327900000000032860000000003273000000000328605922000000000001170800000000003839964300000000000000009999123100000010000000000000BRCPFEACNOR0137
012024082902CPLE3       010COPEL       ON      N2   R$  000000000094900000000009520000000000926000000000093900000000009450000000000945000000000094613099000000000006463100000000006071391200000000000000009999123100000010000000000000BRCPLEACNOR8149
012024082902CPLE5       010COPEL       PNA     N2   R$  000000000123000000000012800000000001230000000000127800000000012800000000001280000000000132000005000000000000003600000000000004603000000000000000009999123100000010000000000000BRCPLEACNPA1147
012024082902CPLE6       010COPEL       PNB     N2   R$  000000000105200000000010530000000001027000000000103800000000010450000000001043000000000104523787000000000012976100000000013478121300000000000000009999123100000010000000000000BRCPLEACNPB9146
012024082902CRFB3       010CARREFOUR BRON      NM   R$  000000000093000000000009310000000000897000000000090500000000008980000000000897000000000089812989000000000012883600000000011670125000000000000000009999123100000010000000000000BRCRFBACNOR2116
012024082902GRND3       010GRENDENE    ON  ED  NM   R$  000000000060600000000006080000000000601000000000060400000000006040000000000601000000000060402264000000000000867200000000000524373600000000000000009999123100000010000000000000BRGRNDACNOR3175
012024082902JALL3       010JALLESMACHADON      NM   R$  000000000067400000000006780000000000660000000000066400000000006650000000000664000000000066601474000000000000542100000000000360063400000000000000009999123100000010000000000000BRJALLACNOR0106
012024082902JBSS3       010JBS         ON  ED  NM   R$  000000000350000000000035180000000003458000000000348800000000034940000000003494000000000349515311000000000004689800000000016360891900000000000000009999123100000010000000000000BRJBSSACNOR8122
012024082902BLAU3       010BLAU        ON      NM   R$  000000000139000000000013920000000001310000000000135100000000013270000000001327000000000133302168000000000000413600000000000558844600000000000000009999123100000010000000000000BRBLAUACNOR8114
012024082902BMEB3       010MERCANTIL   ON      N1   R$  000000000359900000000036000000000003520000000000359700000000035630000000003520000000000359800023000000000000011800000000000042454900000000000000009999123100000010000000000000BRBMEBACNOR8206
012024082902BMEB4       010MERCANTIL   PN      N1   R$  000000000390400000000039300000000003829000000000388100000000038500000000003850000000000393900089000000000000026200000000000101701300000000000000009999123100000010000000000000BRBMEBACNPR5211
012024082902BMGB4       010BANCO BMG   PN      N1   R$  000000000038800000000003880000000000380000000000038200000000003830000000000383000000000038400633000000000000451700000000000172758300000000000000009999123100000010000000000000BRBMGBACNPR0110
012024082902BMOB3       010BEMOBI TECH ON      NM   R$  000000000161300000000016160000000001589000000000160000000000015960000000001596000000000160000985000000000000193800000000000310235000000000000000009999123100000010000000000000BRBMOBACNOR7103
012024082902MRFG3       010MARFRIG     ON      NM   R$  000000000149900000000014990000000001455000000000146900000000014660000000001463000000000146613683000000000003244600000000004769083900000000000000009999123100000010000000000000BRMRFGACNOR0116
012024082902MRVE3       010MRV         ON      NM   R$  000000000077300000000007750000000000739000000000074800000000007410000000000741000000000074216603000000000012849500000000009616552300000000000000009999123100000010000000000000BRMRVEACNOR2127
012024082902INTB3       010INTELBRAS   ON      NM   R$  000000000224000000000022530000000002212000000000222600000000022330000000002223000000000223402504000000000000463200000000001031303100000000000000009999123100000010000000000000BRINTBACNOR9112
012024082902IRBR3       010IRBBRASIL REON      NM   R$  000000000487500000000049040000000004850000000000487200000000048670000000004863000000000486704969000000000000893400000000004352744400000000000000009999123100000010000000000000BRIRBRACNOR4111
012024082902LUPA3       010LUPATECH    ON      NM   R$  000000000015200000000001540000000000149000000000015000000000001540000000000151000000000015400151000000000000114600000000000017286200000000000000009999123100000010000000000000BRLUPAACNOR8112
012024082902LUXM4       010TREVISA     PN           R$  000000000130300000000013960000000001303000000000134900000000013960000000001303000000000140000002000000000000000200000000000000269900000000000000009999123100000010000000000000BRLUXMACNPR4052
012024082902LVTC3       010WDC NETWORKSON      NM   R$  000000000036900000000003900000000000360000000000037600000000003820000000000373000000000038100059000000000000020900000000000007859000000000000000009999123100000010000000000000BRLVTCACNOR4102
012024082902LWSA3       010LWSA        ON      NM   R$  000000000047700000000004840000000000460000000000047000000000004630000000000463000000000046712300000000000006431500000000003024724600000000000000009999123100000010000000000000BRLWSAACNOR8103
012024082902BNBR3       010NORD BRASIL ON  EJ       R$  000000001060000000000106000000000010600000000001060000000000106000000000010339000000001060000002000000000000000200000000000002120000000000000000009999123100000010000000000000BRBNBRACNOR8209
012024082902BOBR4       010BOMBRIL     PN           R$  000000000021200000000002160000000000210000000000021300000000002100000000000210000000000021200019000000000000008100000000000001731700000000000000009999123100000010000000000000BRBOBRACNPR3128
012024082902BRAP3       010BRADESPAR   ON      N1   R$  000000000180000000000018000000000001768000000000177700000000017790000000001779000000000178100596000000000000099300000000000176540300000000000000009999123100000010000000000000BRBRAPACNOR5148
012024082907NUTR3       010NUTRIPLANT  ON      MA   R$  000000000046900000000004830000000000464000000000047500000000004740000000000465000000000047600035000000000000006300000000000002993600000000000000009999123100000010000000000000BRNUTRACNOR0104
012024082907TXRX4       010TEX RENAUX  PN           R$  000000000022700000000002270000000000227000000000022900000000002270000000000231000000000023400003000000000000000300000000000000068800000000000000009999123100000010000000000000BRTXRXACNPR0142
012024082908OIBR3       010OI          ON      N1   R$  000000000054300000000005650000000000521000000000053800000000005320000000000530000000000053202981000000000002560700000000001379758200000000000000009999123100000010000000000000BROIBRACNOR1111
012024082908OIBR4       010OI          PN      N1   R$  000000000121800000000012930000000001217000000000124100000000012200000000001218000000000122000059000000000000011600000000000014398600000000000000009999123100000010000000000000BROIBRACNPR8110
012024082908LIGT3       010LIGHT S/A   ON      NM   R$  000000000063300000000006440000000000612000000000062900000000006440000000000644000000000064503468000000000001185800000000000746304600000000000000009999123100000010000000000000BRLIGTACNOR2124
012024082908NEXP3       010NEXPE       ON           R$  000000000040500000000004080000000000402000000000040400000000004080000000000400000000000040800003000000000000001300000000000000526200000000000000009999123100000010000000000000BRNEXPACNOR0101
012024082908TEKA4       010TEKA        PN           R$  000000000340000000000034000000000003400000000000340000000000034000000000002555000000000340000001000000000000000100000000000000340000000000000000009999123100000010000000000000BRTEKAACNPR3140
012024082908ATMP3       010ATMASA      ON           R$  000000000013600000000001410000000000135000000000013800000000001390000000000137000000000013900020000000000000009200000000000001270800000000000000009999123100000010000000000000BRATMPACNOR8100
012024082908PMAM3       010PARANAPANEMAON      NM   R$  000000000019900000000001990000000000187000000000019100000000001900000000000190000000000019200404000000000000173300000000000033233000000000000000009999123100000010000000000000BRPMAMACNOR3039
012024082908RSID3       010ROSSI RESID ON      NM   R$  000000000038800000000004000000000000376000000000038500000000003830000000000383000000000038400152000000000000033700000000000012999500000000000000009999123100000010000000000000BRRSIDACNOR8120
012024082908RNEW11      010RENOVA      UNT     N2   R$  000000000029700000000002980000000000281000000000029100000000002900000000000292000000000029500020000000000000005600000000000001631300000000000000009999123100000010000000000000BRRNEWCDAM15110
012024082908RNEW3       010RENOVA      ON      N2   R$  000000000010000000000001000000000000097000000000009800000000000990000000000097000000000009900065000000000000037400000000000003692500000000000000009999123100000010000000000000BRRNEWACNOR8110
012024082908RNEW4       010RENOVA      PN      N2   R$  000000000010000000000001000000000000096000000000009700000000000960000000000096000000000009700138000000000000149100000000000014556600000000000000009999123100000010000000000000BRRNEWACNPR5110
012024082908RPMG3       010PET MANGUINHON           R$  000000000028800000000002910000000000283000000000028600000000002890000000000285000000000028900280000000000000042100000000000012071200000000000000009999123100000010000000000000BRRPMGACNOR9194
012024082908HOOT4       010HOTEIS OTHONPN           R$  000000000023700000000002370000000000226000000000022900000000002260000000000226000000000023700002000000000000000300000000000000068900000000000000009999123100000010000000000000BRHOOTACNPR9015
012024082908JFEN3       010JOAO FORTES ON           R$  000000000002300000000000230000000000021000000000002200000000000220000000000021000000000002200112000000000000555600000000000012226600000000000000009999123100000010000000000000BRJFENACNOR0059
012024082908CTSA3       010SANTANENSE  ON           R$  000000000027200000000002750000000000272000000000027200000000002750000000000272000000000027800004000000000000001300000000000000353900000000000000009999123100000010000000000000BRCTSAACNOR3062
012024082908CTSA4       010SANTANENSE  PN           R$  000000000012900000000001290000000000121000000000012400000000001240000000000123000000000012400084000000000000035800000000000004454000000000000000009999123100000010000000000000BRCTSAACNPR0062
012024082908OSXB3       010OSX BRASIL  ON      NM   R$  000000000037800000000003920000000000378000000000038600000000003900000000000382000000000038600003000000000000000300000000000000116000000000000000009999123100000010000000000000BROSXBACNOR8109
012024082908AMER3       010AMERICANAS  ON  EG  NM   R$  000000000070900000000007330000000000600000000000065000000000006000000000000599000000000060022068000000000022712100000000014772706200000000000000009999123100000010000000000000BRAMERACNOR6103
012024082910GFSA1       010GAFISA      DIR ORD NM   R$  000000000000200000000000030000000000001000000000000100000000000020000000000001000000000000200255000000000002384700000000000004710700000000000000009999123100000010000000000000BRGFSAD11OR7124
012024082910RENT9       010LOCALIZA    ON  REC NM   R$  000000000428800000000042880000000004200000000000423900000000042210000000004125000000000440000005000000000000000500000000000002119700000000000000009999123100000010000000000000BRRENTR06OR8195
012024082910AESB1       010AES BRASIL  DIR ORD NM   R$  000000000002300000000000230000000000007000000000001300000000000130000000000013000000000001400222000000000000298900000000000004011500000000000000009999123100000010000000000000BRAESBD03OR8106
012024082910EQTL1       010EQUATORIAL  DIR ORD NM   R$  000000000025600000000002560000000000190000000000021000000000002300000000000211000000000023003347000000000001217300000000000255823400000000000000009999123100000010000000000000BREQTLD04OR9130
012024082912NVHO11      010FII NOVOHORICI           R$  000000000126600000000013140000000001266000000000127900000000012670000000001266000000000126700010000000000000000026000000000000033262000000000000009999123100000010000000000000BRNVHOCTF003230
012024082912OCRE11      010FII OCTO    CI           R$  000000000980100000000098010000000009801000000000980100000000098010000000009800000000000980100001000000000000000001000000000000009801000000000000009999123100000010000000000000BROCRECTF001116
012024082912EXES11      010FII EXES    CI  ER       R$  000000000096000000000009620000000000959000000000096000000000009620000000000934000000000097000005000000000000000237000000000000227682000000000000009999123100000010000000000000BREXESCTF006128
012024082912FAED11      010FII ANH EDUCCI           R$  000000001512600000000152370000000015126000000001516500000000151760000000015176000000001521000034000000000000000164000000000002487172000000000000009999123100000010000000000000BRFAEDCTF003280
012024082912FAMB11      010FII ALMIRANTCI           R$  000000013415300000001380000000000132119000000013689000000001380000000000133000000000013800000013000000000000000029000000000003969836000000000000009999123100000010000000000000BRFAMBCTF018316
012024082912FATN11      010FII ATHENA ICI           R$  000000000917400000000091800000000009159000000000917300000000091740000000009174000000000917701306000000000000007917000000000072627942000000000000009999123100000010000000000000BRFATNCTF000154
012024082912MCEM11      010FII MCEM    CI           R$  000000001094900000000109490000000010949000000001094900000000109490000000010506000000001090000002000000000000000005000000000000054745000000000000009999123100000010000000000000BRMCEMCTF006100
012024082912MCHY11      010FII MAUA HY CI           R$  000000000093400000000009400000000000933000000000093500000000009370000000000935000000000093715061000000000000260015000000000243253996000000000000009999123100000010000000000000BRMCHYCTF004140
012024082912MFAI11      010FII MERITOFACI           R$  000000000684300000000068970000000006542000000000682000000000068970000000006800000000000689700046000000000000000401000000000002735089000000000000009999123100000010000000000000BRMFAICTF005153
012024082912MFCR11      010FII MERITO RCI           R$  000000000264900000000026670000000002649000000000266500000000026650000000002649000000000266700030000000000000000134000000000000357178000000000000009999123100000010000000000000BRMFCRCTF002126
012024082912MFII11      010FII MERITO ICI           R$  000000001034000000000103400000000010310000000001032300000000103300000000010321000000001033000884000000000000005487000000000056647682000000000000009999123100000010000000000000BRMFIICTF008237
012024082912MGHT11      010FII MOGNO HTCI           R$  000000000212200000000022500000000002009000000000213000000000022050000000002205000000000223301611000000000000007385000000000015737318000000000000009999123100000010000000000000BRMGHTCTF005155
012024082912BBFI11      010FII BB PROGRCI           R$  000000006312400000000632000000000062501000000006269000000000631990000000062604000000006319900056000000000000000130000000000008149740000000000000009999123100000010000000000000BRBBFICTF006329
012024082912BCFF11      010FII BC FFII CI           R$  000000000085300000000008540000000000841000000000084600000000008460000000000845000000000084608032000000000000349521000000000295959339000000000000009999123100000010000000000000BRBCFFCTF000280
012024082912BCIA11      010FII BCIA    CI           R$  000000001035000000000103500000000010258000000001028700000000102680000000010264000000001026800368000000000000001830000000000018825697000000000000009999123100000010000000000000BRBCIACTF005212
012024082912BCRI11      010FII BEES CRICI           R$  000000000694900000000069740000000006900000000000692600000000069730000000006951000000000697300526000000000000006223000000000043103996000000000000009999123100000010000000000000BRBCRICTF009217
012024082912CNES11      010FII CENESP  CI  ER       R$  000000000015100000000001520000000000150000000000015000000000001510000000000150000000000015101327000000000000053767000000000008099058000000000000009999123100000010000000000000BRCNESCTF001262
012024082912ERPA11      010FII EUROPA  CI           R$  000000001330000000000134000000000013300000000001330000000000134000000000011700000000001340000002000000000000001237000000000016453100000000000000009999123100000010000000000000BRERPACTF002131
012024082912EURO11      010FII EUROPAR CI           R$  000000002514900000000251490000000024680000000002505100000000250000000000024718000000002500000012000000000000000026000000000000651350000000000000009999123100000010000000000000BREUROCTF011361
012024082912EVBI11      010FII VBI CON CI           R$  000000000100000000000010000000000000987000000000099100000000009970000000000990000000000099700021000000000000000210000000000000208307000000000000009999123100000010000000000000BREVBICTF007152
012024082912FCFL11      010FII CAMPUSFLCI           R$  000000001159900000000116380000000011465000000001159500000000115160000000011503000000001158900051000000000000000181000000000002098806000000000000009999123100000010000000000000BRFCFLCTF009272
012024082912IRDM11      010FII IRIDIUM CI           R$  000000000715500000000071710000000007140000000000715400000000071600000000007160000000000716202683000000000000026152000000000187097770000000000000009999123100000010000000000000BRIRDMCTF004188
012024082912IRIM11      010FII IRIM    CI           R$  000000000738000000000073900000000007361000000000738100000000073800000000007367000000000738000022000000000000000123000000000000907890000000000000009999123100000010000000000000BRIRIMCTF003137
012024082912ITIP11      010FII INTER IPCI           R$  000000000730000000000076340000000007141000000000724600000000074880000000007401000000000749500340000000000000006173000000000044734488000000000000009999123100000010000000000000BRITIPCTF002131
012024082912ITIT11      010FII INTER ITCI           R$  000000000760100000000079610000000007581000000000767200000000075980000000007601000000000764600332000000000000003140000000000024091772000000000000009999123100000010000000000000BRITITCTF004131
012024082912ITRI11      010FII ITRI    CI           R$  000000000919800000000092530000000009189000000000920600000000092060000000009195000000000920600349000000000000007503000000000069076278000000000000009999123100000010000000000000BRITRICTF008104
012024082912MCCI11      010FII MAUA    CI           R$  000000000892500000000090000000000008919000000000895300000000090000000000008974000000000900002304000000000000016828000000000150668406000000000000009999123100000010000000000000BRMCCICTF008164
012024082912FVPQ11      010FII V PARQUECI           R$  000000000708100000000071570000000007080000000000710500000000071060000000007106000000000711700529000000000000000678000000000004817857000000000000009999123100000010000000000000BRFVPQCTF015261
012024082912GAME11      010FII GUARD MUCI           R$  000000000091500000000009160000000000912000000000091400000000009130000000000912000000000091300223000000000000007365000000000006735321000000000000009999123100000010000000000000BRGAMECTF002134
012024082912GARE11      010FII GUARDIANCI           R$  000000000091300000000009150000000000911000000000091300000000009140000000000913000000000091412428000000000000781149000000000713388424000000000000009999123100000010000000000000BRGARECTF001106
012024082912GCRI11      010FII GLPG CRICI           R$  000000000709900000000071500000000007099000000000713500000000071270000000007127000000000713000043000000000000000349000000000002490309000000000000009999123100000010000000000000BRGCRICTF008146
012024082912HSLG11      010FII HSI LOG CI           R$  000000000873800000000088080000000008688000000000874000000000087880000000008770000000000878801406000000000000003984000000000034823752000000000000009999123100000010000000000000BRHSLGCTF009144
012024082912HSML11      010FII HSI MALLCI           R$  000000000960500000000096450000000009570000000000960000000000095900000000009590000000000960604374000000000000024273000000000233032341000000000000009999123100000010000000000000BRHSMLCTF007163
012024082912HSRE11      010FII HSIRENDACI           R$  000000001009800000000100980000000010000000000001001600000000100000000000009922000000001009800005000000000000000060000000000000600980000000000000009999123100000010000000000000BRHSRECTF001143
012024082912HTMX11      010FII HOTEL MXCI           R$  000000001896900000000189900000000018803000000001894300000000189300000000018930000000001898500700000000000000002936000000000055619185000000000000009999123100000010000000000000BRHTMXCTF000282
