00COTAHIST.2024BOVESPA 20240819                                                                                                                                                                                                                      
012024081902CMIG4       010CEMIG       PN      N1   R$  000000000116800000000011890000000001151000000000117800000000011850000000001184000000000118532058000000000025579300000000030146400300000000000000009999123100000010000000000000BRCMIGACNPR3243
012024081902DASA3       010DASA        ON      NM   R$  000000000033100000000003450000000000325000000000033700000000003400000000000340000000000034302349000000000001506200000000000508963300000000000000009999123100000010000000000000BRDASAACNOR1122
012024081902FRIO3       010METALFRIO   ON      NM   R$  000000001800000000000180000000000018000000000001800000000000180000000000016251000000001890000001000000000000000100000000000001800000000000000000009999123100000010000000000000BRFRIOACNOR2111
012024081902EALT3       010ACO ALTONA  ON           R$  000000000149000000000014900000000001370000000000139400000000014000000000001325000000000142000021000000000000004000000000000005577900000000000000009999123100000010000000000000BREALTACNOR4138
012024081902EALT4       010ACO ALTONA  PN           R$  000000000149800000000015000000000001285000000000134100000000013310000000001331000000000134000633000000000000222300000000000298243800000000000000009999123100000010000000000000BREALTACNPR1138
012024081902ITSA3       010ITAUSA      ON      N1   R$  000000000109400000000011080000000001093000000000110200000000011080000000001104000000000110800948000000000000528100000000000582077700000000000000009999123100000010000000000000BRITSAACNOR0441
012024081902ITSA4       010ITAUSA      PN      N1   R$  000000000109400000000011080000000001093000000000110100000000011040000000001103000000000110549347000000000038109700000000041988948100000000000000009999123100000010000000000000BRITSAACNPR7441
012024081902ARML3       010ARMAC       ON      NM   R$  000000000087900000000009310000000000877000000000091300000000009310000000000918000000000093102371000000000000472400000000000431407800000000000000009999123100000010000000000000BRARMLACNOR1112
012024081902ASAI3       010ASSAI       ON      NM   R$  000000000103400000000010770000000001001000000000105000000000010710000000001070000000000107134120000000000015557600000000016346313400000000000000009999123100000010000000000000BRASAIACNOR0106
012024081902ATOM3       010ATOMPAR     ON           R$  000000000020000000000002150000000000200000000000020900000000002100000000000209000000000021000040000000000000020300000000000004255400000000000000009999123100000010000000000000BRATOMACNOR1106
012024081902AURE3       010AUREN       ON      NM   R$  000000000115600000000011680000000001156000000000116200000000011630000000001163000000000116403422000000000001721200000000002000471900000000000000009999123100000010000000000000BRAUREACNOR9104
012024081902AVLL3       010ALPHAVILLE  ON      NM   R$  000000000041100000000004110000000000409000000000040900000000004100000000000405000000000041200018000000000000011200000000000004585700000000000000009999123100000010000000000000BRAVLLACNOR5103
012024081902AZEV3       010AZEVEDO     ON           R$  000000000014600000000001530000000000143000000000014600000000001470000000000146000000000014700595000000000000826000000000000121048800000000000000009999123100000010000000000000BRAZEVACNOR0121
012024081902AZEV4       010AZEVEDO     PN           R$  000000000014600000000001520000000000143000000000014700000000001450000000000145000000000014601445000000000003213000000000000472748100000000000000009999123100000010000000000000BRAZEVACNPR7121
012024081902AZUL4       010AZUL        PN      N2   R$  000000000075100000000007920000000000737000000000076800000000007820000000000781000000000078216775000000000020541100000000015786079100000000000000009999123100000010000000000000BRAZULACNPR4102
012024081902CTKA4       010KARSTEN     PN           R$  000000000203700000000020370000000001999000000000200700000000020000000000001850000000000200000003000000000000000500000000000001003600000000000000009999123100000010000000000000BRCTKAACNPR7043
012024081902CURY3       010CURY S/A    ON      NM   R$  000000000233800000000023760000000002336000000000236100000000023620000000002362000000000236503021000000000000553900000000001307785600000000000000009999123100000010000000000000BRCURYACNOR3109
012024081902CVCB3       010CVC BRASIL  ON      NM   R$  000000000019200000000002140000000000192000000000020500000000002140000000000214000000000021513000000000000023322600000000004786062300000000000000009999123100000010000000000000BRCVCBACNOR1116
012024081902ESPA3       010ESPACOLASER ON      NM   R$  000000000010000000000001040000000000100000000000010200000000001030000000000103000000000010400287000000000000434500000000000044386600000000000000009999123100000010000000000000BRESPAACNOR7103
012024081902ESTR4       010ESTRELA     PN           R$  000000000021300000000002220000000000213000000000021800000000002220000000000217000000000022500005000000000000000700000000000000152800000000000000009999123100000010000000000000BRESTRACNPR0144
012024081902ETER3       010ETERNIT     ON  EJ  NM   R$  000000000059000000000006030000000000585000000000059600000000006030000000000601000000000060300837000000000000516700000000000308283800000000000000009999123100000010000000000000BRETERACNOR3244
012024081902EUCA3       010EUCATEX     ON      N1   R$  000000000166500000000016650000000001665000000000166500000000016650000000001608000000000166600001000000000000000100000000000000166500000000000000009999123100000010000000000000BREUCAACNOR1157
012024081902EUCA4       010EUCATEX     PN      N1   R$  000000000153800000000015870000000001529000000000155600000000015850000000001571000000000158500224000000000000041500000000000064587600000000000000009999123100000010000000000000BREUCAACNPR8044
012024081902EVEN3       010EVEN        ON      NM   R$  000000000063800000000006650000000000627000000000065100000000006630000000000663000000000066501793000000000000641000000000000417510100000000000000009999123100000010000000000000BREVENACNOR8119
012024081902EZTC3       010EZTEC       ON  ED  NM   R$  000000000141900000000014710000000001395000000000144800000000014700000000001466000000000147008846000000000002341500000000003390783400000000000000009999123100000010000000000000BREZTCACNOR0126
012024081902INTB3       010INTELBRAS   ON      NM   R$  000000000222000000000022620000000002187000000000222000000000022620000000002255000000000226302973000000000000832100000000001847540800000000000000009999123100000010000000000000BRINTBACNOR9112
012024081902IRBR3       010IRBBRASIL REON      NM   R$  000000000448600000000046970000000004449000000000459900000000046200000000004618000000000462015240000000000003513000000000016157833700000000000000009999123100000010000000000000BRIRBRACNOR4111
012024081902LAND3       010TERRASANTAPAON      NM   R$  000000000120500000000012370000000001186000000000120800000000012130000000001212000000000122900154000000000000035700000000000043133100000000000000009999123100000010000000000000BRLANDACNOR9103
012024081902LAVV3       010LAVVI       ON  ED  NM   R$  000000000086000000000008670000000000854000000000086200000000008670000000000864000000000086701567000000000000342400000000000295329800000000000000009999123100000010000000000000BRLAVVACNOR4113
012024081902LEVE3       010METAL LEVE  ON      NM   R$  000000000316000000000031740000000003113000000000314100000000031620000000003160000000000316302571000000000000475500000000001493979600000000000000009999123100000010000000000000BRLEVEACNOR2197
012024081902LIPR3       010ELETROPAR   ON           R$  000000000467700000000047500000000004677000000000471300000000047500000000004676000000000480000002000000000000000200000000000000942700000000000000009999123100000010000000000000BRLIPRACNOR7122
012024081902RCSL3       010RECRUSUL    ON           R$  000000000028600000000002960000000000284000000000029000000000002940000000000293000000000029401446000000000000432500000000000125534200000000000000009999123100000010000000000000BRRCSLACNOR4134
012024081902RCSL4       010RECRUSUL    PN           R$  000000000008200000000000820000000000080000000000008000000000000800000000000080000000000008100219000000000000187900000000000015160600000000000000009999123100000010000000000000BRRCSLACNPR1134
012024081902RDNI3       010RNI         ON      NM   R$  000000000031400000000003190000000000314000000000031500000000003150000000000311000000000031700007000000000000004700000000000001481200000000000000009999123100000010000000000000BRRDNIACNOR9116
012024081902BEEF3       010MINERVA     ON      NM   R$  000000000074000000000007790000000000739000000000076300000000007710000000000771000000000077212461000000000010587900000000008081382200000000000000009999123100000010000000000000BRBEEFACNOR6116
012024081902BPAC11      010BTGP BANCO  UNT     N2   R$  000000000363700000000036580000000003572000000000362700000000036310000000003631000000000363841126000000000008093500000000029356400900000000000000009999123100000010000000000000BRBPACUNT006119
012024081902BPAC3       010BTGP BANCO  ON      N2   R$  000000000168000000000017000000000001650000000000167000000000017000000000001650000000000169800067000000000000020900000000000034905800000000000000009999123100000010000000000000BRBPACACNOR7134
012024081902BPAC5       010BTGP BANCO  PNA     N2   R$  000000000097100000000009870000000000953000000000096500000000009550000000000955000000000098000018000000000000002400000000000002317800000000000000009999123100000010000000000000BRBPACACNPA0134
012024081902COCE5       010COELCE      PNA          R$  000000000313900000000032020000000003139000000000315800000000031750000000003175000000000321600018000000000000002600000000000008212600000000000000009999123100000010000000000000BRCOCEACNPA3147
012024081902COGN3       010COGNA ON    ON  ATZ NM   R$  000000000013400000000001500000000000134000000000014400000000001470000000000146000000000014829159000000000084420500000000012190428800000000000000009999123100000010000000000000BRCOGNACNOR2105
012024081902HAGA3       010HAGA S/A    ON           R$  000000000024000000000002450000000000238000000000023900000000002440000000000239000000000024400007000000000000001500000000000000358900000000000000009999123100000010000000000000BRHAGAACNOR7103
012024081902HAGA4       010HAGA S/A    PN           R$  000000000011600000000001160000000000114000000000011400000000001160000000000116000000000011700084000000000000056900000000000006528700000000000000009999123100000010000000000000BRHAGAACNPR4103
012024081902HAPV3       010HAPVIDA     ON      NM   R$  000000000043100000000004500000000000427000000000044000000000004450000000000444000000000044550782000000000047983400000000021146291900000000000000009999123100000010000000000000BRHAPVACNOR4114
012024081902LJQQ3       010QUERO-QUERO ON      NM   R$  000000000039900000000004190000000000392000000000040700000000004190000000000419000000000042005322000000000003342800000000001363702600000000000000009999123100000010000000000000BRLJQQACNOR5104
012024081902LOGG3       010LOG COM PROPON      NM   R$  000000000238000000000024020000000002355000000000238500000000023970000000002382000000000240001983000000000000292500000000000697791700000000000000009999123100000010000000000000BRLOGGACNOR7107
012024081902LOGN3       010LOG-IN      ON      NM   R$  000000000367400000000036740000000003575000000000360600000000036080000000003591000000000363400048000000000000005900000000000021281100000000000000009999123100000010000000000000BRLOGNACNOR3105
012024081902LPSB3       010LOPES BRASILON      NM   R$  000000000018000000000001820000000000176000000000017800000000001820000000000179000000000018200175000000000000196000000000000035072800000000000000009999123100000010000000000000BRLPSBACNOR0114
012024081902LREN3       010LOJAS RENNERON      NM   R$  000000000162800000000017000000000001614000000000165000000000017000000000001697000000000170035413000000000020547800000000033921010300000000000000009999123100000010000000000000BRLRENACNOR1221
012024081902ALPA3       010ALPARGATAS  ON      N1   R$  000000000078700000000007870000000000785000000000078600000000007870000000000787000000000079900010000000000000002800000000000002202900000000000000009999123100000010000000000000BRALPAACNOR0231
012024081902ALPA4       010ALPARGATAS  PN      N1   R$  000000000081300000000008370000000000807000000000082700000000008300000000000829000000000083008007000000000002085700000000001725179000000000000000009999123100000010000000000000BRALPAACNPR7232
012024081902ALPK3       010ESTAPAR     ON      NM   R$  000000000039300000000003950000000000386000000000038900000000003860000000000386000000000039300369000000000000319800000000000124459700000000000000009999123100000010000000000000BRALPKACNOR9101
012024081902ALUP11      010ALUPAR      UNT ED  N2   R$  000000000315900000000031850000000003116000000000316000000000031850000000003180000000000318704974000000000000919200000000002905301100000000000000009999123100000010000000000000BRALUPCDAM15120
012024081902ALUP3       010ALUPAR      ON  ED  N2   R$  000000000107300000000010890000000001063000000000107300000000010880000000001070000000000108900077000000000000011300000000000012127600000000000000009999123100000010000000000000BRALUPACNOR8120
012024081902ALUP4       010ALUPAR      PN  ED  N2   R$  000000000102100000000010450000000001020000000000103800000000010440000000001033000000000104500084000000000000021500000000000022332700000000000000009999123100000010000000000000BRALUPACNPR5120
012024081902AMAR3       010LOJAS MARISAON      NM   R$  000000000012600000000001270000000000124000000000012500000000001250000000000125000000000012600400000000000000385100000000000048371000000000000000009999123100000010000000000000BRAMARACNOR4115
012024081902AMBP3       010AMBIPAR     ON      NM   R$  000000000815000000000081500000000006961000000000764400000000077700000000007730000000000777002811000000000000751400000000005744408600000000000000009999123100000010000000000000BRAMBPACNOR6103
012024081902ANIM3       010ANIMA       ON  ED  NM   R$  000000000035200000000003540000000000344000000000034800000000003490000000000349000000000035005172000000000006601100000000002301178800000000000000009999123100000010000000000000BRANIMACNOR6109
012024081902BBDC3       010BRADESCO    ON      N1   R$  000000000134700000000014170000000001347000000000139900000000014090000000001407000000000140923938000000000018670300000000026136042700000000000000009999123100000010000000000000BRBBDCACNOR1773
012024081902BBDC4       010BRADESCO    PN      N1   R$  000000000151100000000015880000000001510000000000156200000000015640000000001564000000000156569011000000000073702900000000115126208600000000000000009999123100000010000000000000BRBBDCACNPR8773
012024081902BRIT3       010BRISANET    ON      NM   R$  000000000036600000000003870000000000364000000000037900000000003800000000000379000000000038001274000000000000718400000000000272700300000000000000009999123100000010000000000000BRBRITACNOR0103
012024081902BRKM3       010BRASKEM     ON      N1   R$  000000000175800000000017880000000001750000000000176700000000017500000000001751000000000177000051000000000000016200000000000028627400000000000000009999123100000010000000000000BRBRKMACNOR1119
012024081902BRKM5       010BRASKEM     PNA     N1   R$  000000000172400000000017650000000001713000000000173600000000017170000000001717000000000171910469000000000002976600000000005169058300000000000000009999123100000010000000000000BRBRKMACNPA4121
012024081902CSED3       010CRUZEIRO EDUON      NM   R$  000000000039500000000004050000000000392000000000040000000000004050000000000401000000000040500805000000000000403900000000000161785700000000000000009999123100000010000000000000BRCSEDACNOR9104
012024081902CSMG3       010COPASA      ON      NM   R$  000000000229900000000023360000000002268000000000231500000000023140000000002314000000000231806356000000000001059000000000002452395200000000000000009999123100000010000000000000BRCSMGACNOR5174
012024081902CSNA3       010SID NACIONALON           R$  000000000114500000000012090000000001139000000000118500000000012010000000001200000000000120216727000000000008489300000000010066037000000000000000009999123100000010000000000000BRCSNAACNOR6261
012024081902ENEV3       010ENEVA       ON      NM   R$  000000000136300000000013880000000001342000000000137200000000013810000000001379000000000138125757000000000012664900000000017385074000000000000000009999123100000010000000000000BRENEVACNOR8106
012024081902ENGI11      010ENERGISA    UNT ED  N2   R$  000000000491900000000050450000000004866000000000497500000000050150000000005004000000000503527619000000000005071800000000025232870700000000000000009999123100000010000000000000BRENGICDAM16136
012024081902ENGI3       010ENERGISA    ON  ED  N2   R$  000000000150100000000015370000000001500000000000151400000000015120000000001500000000000151300077000000000000011200000000000016960000000000000000009999123100000010000000000000BRENGIACNOR0146
012024081902ENGI4       010ENERGISA    PN  ED  N2   R$  000000000084700000000008800000000000845000000000086200000000008630000000000863000000000088000092000000000000023900000000000020623900000000000000009999123100000010000000000000BRENGIACNPR7142
012024081902ENJU3       010ENJOEI      ON      NM   R$  000000000017200000000001830000000000172000000000017800000000001800000000000179000000000018001590000000000000818600000000000146125000000000000000009999123100000010000000000000BRENJUACNOR9100
012024081902ENMT3       010ENERGISA MT ON           R$  000000000780100000000083690000000007800000000000797500000000083690000000000000000000000837000018000000000000004400000000000035093900000000000000009999123100000010000000000000BRENMTACNOR5121
012024081902ENMT4       010ENERGISA MT PN           R$  000000000810000000000081000000000008100000000000810000000000081000000000005000000000000819400001000000000000000100000000000000810000000000000000009999123100000010000000000000BRENMTACNPR2126
012024081902EPAR3       010EMBPAR S/A  ON           R$  000000000057600000000005910000000000576000000000058800000000005900000000000588000000000059000022000000000000006300000000000003704800000000000000009999123100000010000000000000BREPARACNOR9105
012024081902EQMA3B      010EQTLMARANHAOON      MB   R$  000000000254900000000025490000000002500000000000250500000000025000000000002451000000000254800004000000000000001000000000000002505600000000000000009999123100000010000000000000BREQMAACNOR8108
012024081902EQPA3       010EQTL PARA   ON           R$  000000000070500000000007050000000000690000000000069300000000006920000000000692000000000069400030000000000000009000000000000006242800000000000000009999123100000010000000000000BREQPAACNOR1111
012024081902EQTL3       010EQUATORIAL  ON      NM   R$  000000000351400000000035740000000003471000000000354000000000035520000000003552000000000355334332000000000010368900000000036708073100000000000000009999123100000010000000000000BREQTLACNOR0130
012024081902IFCM3       010INFRACOMM   ON      NM   R$  000000000001900000000000220000000000018000000000002000000000000200000000000019000000000002003169000000000036412400000000000735602700000000000000009999123100000010000000000000BRIFCMACNOR8101
012024081902BRSR3       010BANRISUL    ON      N1   R$  000000000131500000000013390000000001302000000000132700000000013340000000001329000000000134000067000000000000012200000000000016199300000000000000009999123100000010000000000000BRBRSRACNOR3188
012024081902BRSR6       010BANRISUL    PNB     N1   R$  000000000122200000000012660000000001216000000000124900000000012580000000001257000000000126006523000000000001454300000000001816800800000000000000009999123100000010000000000000BRBRSRACNPB4191
012024081902BSLI3       010BRB BANCO   ON           R$  000000000100000000000011000000000001000000000000104400000000011000000000001044000000000110000015000000000000002400000000000002506700000000000000009999123100000010000000000000BRBSLIACNOR5194
012024081902BSLI4       010BRB BANCO   PN           R$  000000000098000000000009920000000000980000000000098500000000009920000000000946000000000099400004000000000000000700000000000000689600000000000000009999123100000010000000000000BRBSLIACNPR2194
012024081902CSRN3       010COSERN      ON           R$  000000000161400000000016140000000001571000000000158500000000015850000000001585000000000161200017000000000000003500000000000005547500000000000000009999123100000010000000000000BRCSRNACNOR0194
012024081902CSRN5       010COSERN      PNA          R$  000000000171000000000017100000000001654000000000166700000000016560000000001655000000000000000006000000000000000900000000000001500300000000000000009999123100000010000000000000BRCSRNACNPA3194
012024081902CSRN6       010COSERN      PNB          R$  000000000168000000000016800000000001675000000000167800000000016750000000001671000000000235000007000000000000001100000000000001846000000000000000009999123100000010000000000000BRCSRNACNPB1195
012024081902CSUD3       010CSU DIGITAL ON      NM   R$  000000000185600000000019000000000001856000000000188700000000018840000000001881000000000190000143000000000000021800000000000041145300000000000000009999123100000010000000000000BRCSUDACNOR5110
012024081902RDOR3       010REDE D OR   ON      NM   R$  000000000318400000000032380000000003158000000000319900000000032050000000003204000000000320732681000000000006801300000000021761219800000000000000009999123100000010000000000000BRRDORACNOR8113
012024081902RECV3       010PETRORECSA  ON      NM   R$  000000000217000000000021960000000002153000000000217900000000021850000000002185000000000218707624000000000001444100000000003146871300000000000000009999123100000010000000000000BRRECVACNOR3107
012024081902SRNA3       010SERENA      ON      NM   R$  000000000088000000000009230000000000871000000000090400000000009230000000000909000000000092304623000000000001841400000000001666155700000000000000009999123100000010000000000000BRSRNAACNOR4100
012024081902STBP3       010SANTOS BRP  ON  EDJ NM   R$  000000000141300000000014230000000001390000000000140500000000014090000000001408000000000141608852000000000003163000000000004446608500000000000000009999123100000010000000000000BRSTBPACNOR3131
012024081902BGIP3       010BANESE      ON           R$  000000000289900000000028990000000002899000000000289900000000028990000000002899000000000335800002000000000000000500000000000001449500000000000000009999123100000010000000000000BRBGIPACNOR1208
012024081902BGIP4       010BANESE      PN           R$  000000000284800000000028480000000002699000000000277900000000027960000000002786000000000279800065000000000000015400000000000042810400000000000000009999123100000010000000000000BRBGIPACNPR8208
012024081902CAMB3       010CAMBUCI     ON  EDJ      R$  000000000123100000000012600000000001222000000000124600000000012580000000001240000000000126000194000000000000028100000000000035021600000000000000009999123100000010000000000000BRCAMBACNOR4131
012024081902CAML3       010CAMIL       ON      NM   R$  000000000095300000000009690000000000941000000000095200000000009690000000000969000000000097001699000000000000463100000000000441296300000000000000009999123100000010000000000000BRCAMLACNOR3128
012024081902CASH3       010MELIUZ      ON      NM   R$  000000000062200000000006440000000000622000000000063600000000006440000000000637000000000064401497000000000000685100000000000435884500000000000000009999123100000010000000000000BRCASHACNOR8106
012024081902CBAV3       010CBA         ON      NM   R$  000000000047500000000005200000000000475000000000050600000000005190000000000518000000000051907143000000000005030600000000002549098200000000000000009999123100000010000000000000BRCBAVACNOR5104
012024081902CCRO3       010CCR SA      ON      NM   R$  000000000134800000000013680000000001341000000000135400000000013590000000001356000000000135921020000000000008116600000000010997173800000000000000009999123100000010000000000000BRCCROACNOR2145
012024081902SUZB3       010SUZANO S.A. ON      NM   R$  000000000544800000000055300000000005441000000000550400000000055040000000005498000000000550419827000000000004617700000000025416107100000000000000009999123100000010000000000000BRSUZBACNOR0130
012024081902VALE3       010VALE        ON      NM   R$  000000000565200000000057520000000005636000000000571400000000056980000000005698000000000570057754000000000028349600000000162003736500000000000000009999123100000010000000000000BRVALEACNOR0211
012024081902WEST3       010WESTWING    ON      NM   R$  000000000009000000000000930000000000090000000000009000000000000920000000000091000000000009200043000000000000038800000000000003516600000000000000009999123100000010000000000000BRWESTACNOR3100
012024081902WHRL3       010WHIRLPOOL   ON           R$  000000000042300000000004350000000000423000000000043100000000004350000000000433000000000043500005000000000000000700000000000000302100000000000000009999123100000010000000000000BRWHRLACNOR5128
012024081902WHRL4       010WHIRLPOOL   PN           R$  000000000044600000000004550000000000442000000000044700000000004550000000000448000000000045500026000000000000014000000000000006260300000000000000009999123100000010000000000000BRWHRLACNPR2128
012024081902WIZC3       010WIZ CO      ON      NM   R$  000000000060000000000006150000000000600000000000060900000000006150000000000613000000000061501583000000000000457400000000000278738900000000000000009999123100000010000000000000BRWIZCACNOR5102
012024081902WLMM4       010WLM IND COM PN  EJ       R$  000000000320000000000033000000000003200000000000322500000000033000000000003001000000000352500002000000000000000400000000000001290000000000000000009999123100000010000000000000BRWLMMACNPR3119
012024081902CXSE3       010CAIXA SEGURION      NM   R$  000000000142300000000014690000000001420000000000144900000000014650000000001465000000000146611194000000000003357100000000004866364900000000000000009999123100000010000000000000BRCXSEACNOR7107
012024081902CYRE3       010CYRELA REALTON      NM   R$  000000000214700000000021950000000002135000000000217200000000021800000000002180000000000218419110000000000005170800000000011235365200000000000000009999123100000010000000000000BRCYREACNOR7140
012024081902FESA3       010FERBASA     ON      N1   R$  000000000141500000000014150000000001405000000000141000000000014050000000001356000000000140500002000000000000000200000000000000282000000000000000009999123100000010000000000000BRFESAACNOR8188
012024081902FESA4       010FERBASA     PN      N1   R$  000000000082500000000008620000000000825000000000084600000000008520000000000851000000000085502392000000000000779600000000000659632000000000000000009999123100000010000000000000BRFESAACNPR5084
012024081902FHER3       010FER HERINGERON      NM   R$  000000000042200000000004220000000000416000000000042100000000004220000000000417000000000042200015000000000000007900000000000003329400000000000000009999123100000010000000000000BRFHERACNOR5103
012024081902FIEI3       010FICA        ON           R$  000000000110000000000011000000000001100000000000110000000000011000000000001050000000000110000001000000000000000300000000000000330000000000000000009999123100000010000000000000BRFIEIACNOR2100
012024081902FIQE3       010UNIFIQUE    ON      NM   R$  000000000039500000000004070000000000395000000000040200000000004030000000000403000000000040601324000000000000517400000000000208230300000000000000009999123100000010000000000000BRFIQEACNOR5107
012024081902YDUQ3       010YDUQS PART  ON      NM   R$  000000000098500000000010690000000000973000000000103300000000010610000000001060000000000106112715000000000004790400000000004950311400000000000000009999123100000010000000000000BRYDUQACNOR3105
012024081902MYPK3       010IOCHP-MAXIONON      NM   R$  000000000117500000000011810000000001155000000000116500000000011800000000001172000000000118102892000000000000634600000000000739646200000000000000009999123100000010000000000000BRMYPKACNOR7155
012024081902FLRY3       010FLEURY      ON  EJ  NM   R$  000000000158000000000015990000000001577000000000158900000000015860000000001586000000000159212803000000000002595600000000004126429500000000000000009999123100000010000000000000BRFLRYACNOR5139
012024081902FRAS3       010FRAS-LE     ON      N1   R$  000000000182600000000018580000000001822000000000184300000000018580000000001845000000000185801200000000000000328500000000000605732500000000000000009999123100000010000000000000BRFRASACNOR0160
012024081902BHIA3       010CASAS BAHIA ON      NM   R$  000000000051100000000005890000000000511000000000056100000000005850000000000584000000000058505559000000000007411100000000004163983900000000000000009999123100000010000000000000BRBHIAACNOR1102
012024081902BPAN4       010BANCO PAN   PN      N1   R$  000000000104200000000010450000000001022000000000103900000000010430000000001040000000000104307362000000000003372800000000003506853000000000000000009999123100000010000000000000BRBPANACNPR1115
012024081902CPFE3       010CPFL ENERGIAON      NM   R$  000000000335500000000033660000000003302000000000332700000000033200000000003320000000000333613935000000000002797900000000009310432500000000000000009999123100000010000000000000BRCPFEACNOR0137
012024081902IGTI11      010IGUATEMI S.AUNT     N1   R$  000000000234100000000023450000000002313000000000233000000000023400000000002340000000000234212573000000000002978700000000006943030600000000000000009999123100000010000000000000BRIGTICDAM16106
012024081902IGTI3       010IGUATEMI S.AON      N1   R$  000000000029000000000002990000000000287000000000028900000000002910000000000286000000000029200145000000000000038600000000000011184300000000000000009999123100000010000000000000BRIGTIACNOR8106
012024081902IGTI4       010IGUATEMI S.APN      N1   R$  000000000101900000000010200000000001019000000000101900000000010200000000000009000000000108400002000000000000000200000000000000203900000000000000009999123100000010000000000000BRIGTIACNPR5106
012024081902INEP3       010INEPAR      ON           R$  000000000021300000000002130000000000197000000000020200000000001980000000000198000000000020100118000000000000067400000000000013650000000000000000009999123100000010000000000000BRINEPACNOR1143
012024081902INEP4       010INEPAR      PN           R$  000000000020700000000002160000000000196000000000020200000000001990000000000199000000000020200136000000000000108500000000000021967700000000000000009999123100000010000000000000BRINEPACNPR8143
012024081902NEOE3       010NEOENERGIA  ON      NM   R$  000000000192600000000019450000000001915000000000193500000000019450000000001935000000000194502765000000000000959500000000001857042800000000000000009999123100000010000000000000BRNEOEACNOR3123
012024081902KEPL3       010KEPLER WEBERON  EJ  NM   R$  000000000111900000000011560000000001117000000000113600000000011560000000001155000000000115602206000000000000841000000000000956014400000000000000009999123100000010000000000000BRKEPLACNOR1064
012024081902KLBN11      010KLABIN S/A  UNT     N2   R$  000000000211400000000021370000000002097000000000212200000000021290000000002129000000000213017819000000000004908900000000010420153300000000000000009999123100000010000000000000BRKLBNCDAM18143
012024081902KLBN3       010KLABIN S/A  ON      N2   R$  000000000042600000000004300000000000422000000000042600000000004270000000000427000000000042900752000000000000291500000000000124409000000000000000009999123100000010000000000000BRKLBNACNOR2171
012024081902KLBN4       010KLABIN S/A  PN      N2   R$  000000000042100000000004270000000000420000000000042400000000004250000000000425000000000042602376000000000001392600000000000591371400000000000000009999123100000010000000000000BRKLBNACNPR9171
012024081902NGRD3       010NEOGRID     ON      NM   R$  000000000012000000000001200000000000116000000000011700000000001160000000000115000000000011600837000000000000860500000000000101017800000000000000009999123100000010000000000000BRNGRDACNOR3104
012024081902NINJ3       010GETNINJAS   ON      NM   R$  000000000046200000000004650000000000456000000000046000000000004570000000000457000000000046400043000000000000009200000000000004240900000000000000009999123100000010000000000000BRNINJACNOR5101
012024081902NORD3       010NORDON MET  ON           R$  000000000109000000000011800000000001090000000000116000000000011800000000000973000000000117800007000000000000001700000000000001972900000000000000009999123100000010000000000000BRNORDACNOR7135
012024081902NTCO3       010GRUPO NATURAON      NM   R$  000000000140500000000014240000000001379000000000140300000000014200000000001419000000000142027145000000000018463000000000025907791800000000000000009999123100000010000000000000BRNTCOACNOR5106
012024081902RAIZ4       010RAIZEN      PN      N2   R$  000000000033100000000003350000000000328000000000033200000000003300000000000330000000000033118337000000000018287500000000006074638600000000000000009999123100000010000000000000BRRAIZACNPR6111
012024081902RANI3       010IRANI       ON  ED  NM   R$  000000000081100000000008220000000000809000000000081600000000008200000000000820000000000082102703000000000000836800000000000683391900000000000000009999123100000010000000000000BRRANIACNOR5073
012024081902RAPT3       010RANDON PART ON      N1   R$  000000000089700000000009070000000000887000000000089400000000008920000000000892000000000090401004000000000000107800000000000096389200000000000000009999123100000010000000000000BRRAPTACNOR7163
012024081902RAPT4       010RANDON PART PN      N1   R$  000000000109100000000011170000000001083000000000110100000000011150000000001106000000000111503332000000000001409100000000001551767500000000000000009999123100000010000000000000BRRAPTACNPR4163
012024081902SMFT3       010SMART FIT   ON      NM   R$  000000000226400000000023620000000002264000000000233800000000023390000000002339000000000236014303000000000002588400000000006052377900000000000000009999123100000010000000000000BRSMFTACNOR1112
012024081902SMTO3       010SAO MARTINHOON      NM   R$  000000000295500000000029550000000002892000000000293100000000029540000000002944000000000295505266000000000000877800000000002572884100000000000000009999123100000010000000000000BRSMTOACNOR3127
012024081902AALR3       010ALLIAR      ON      NM   R$  000000000127000000000013510000000001270000000000131800000000013510000000001345000000000135100276000000000000072600000000000095713400000000000000009999123100000010000000000000BRAALRACNOR6102
012024081902ABCB4       010ABC BRASIL  PN      N2   R$  000000000227000000000023510000000002262000000000231500000000023510000000002337000000000235102873000000000000549000000000001271328500000000000000009999123100000010000000000000BRABCBACNPR4146
012024081902ABEV3       010AMBEV S/A   ON           R$  000000000130400000000013100000000001296000000000130100000000013010000000001301000000000130241761000000000029029900000000037776855200000000000000009999123100000010000000000000BRABEVACNOR1128
012024081902BEES3       010BANESTES    ON           R$  000000000090300000000009080000000000901000000000090400000000009080000000000906000000000090800068000000000000009600000000000008686900000000000000009999123100000010000000000000BRBEESACNOR9394
012024081902BEES4       010BANESTES    PN           R$  000000000095500000000009880000000000955000000000097000000000009740000000000971000000000097400016000000000000002100000000000002037700000000000000009999123100000010000000000000BRBEESACNPR6319
012024081902CPLE3       010COPEL       ON      N2   R$  000000000094500000000009570000000000940000000000095100000000009560000000000955000000000095609464000000000005443200000000005177759300000000000000009999123100000010000000000000BRCPLEACNOR8149
012024081902CPLE5       010COPEL       PNA     N2   R$  000000000120100000000012920000000001201000000000126500000000012920000000001211000000000129200007000000000000001700000000000002150900000000000000009999123100000010000000000000BRCPLEACNPA1147
012024081902CPLE6       010COPEL       PNB     N2   R$  000000000104500000000010600000000001040000000000105100000000010540000000001053000000000105623315000000000010972700000000011539733800000000000000009999123100000010000000000000BRCPLEACNPB9146
012024081902HBOR3       010HELBOR      ON      NM   R$  000000000021300000000002250000000000212000000000021900000000002230000000000223000000000022400688000000000000727400000000000159933200000000000000009999123100000010000000000000BRHBORACNOR3118
012024081902HBRE3       010HBR REALTY  ON      NM   R$  000000000051600000000005340000000000515000000000052600000000005330000000000532000000000053300492000000000000166000000000000087452300000000000000009999123100000010000000000000BRHBREACNOR4100
012024081902HBSA3       010HIDROVIAS   ON      NM   R$  000000000036000000000003680000000000355000000000036200000000003670000000000364000000000036803072000000000001197400000000000434645600000000000000009999123100000010000000000000BRHBSAACNOR0100
012024081902HBTS5       010HABITASUL   PNA          R$  000000000389500000000038950000000003895000000000389500000000038950000000003900000000000420000001000000000000000100000000000000389500000000000000009999123100000010000000000000BRHBTSACNPA3128
012024081902SNSY3       010SANSUY      ON           R$  000000000122000000000012390000000001220000000000122300000000012390000000001170000000000125000003000000000000004700000000000005752100000000000000009999123100000010000000000000BRSNSYACNOR2113
012024081902SNSY5       010SANSUY      PNA          R$  000000000057200000000005770000000000567000000000057400000000005670000000000566000000000057300019000000000000015000000000000008613600000000000000009999123100000010000000000000BRSNSYACNPA5111
012024081902SOJA3       010BOA SAFRA   ON      NM   R$  000000000137100000000013890000000001343000000000137300000000013770000000001377000000000138104170000000000002392700000000003286934000000000000000009999123100000010000000000000BRSOJAACNOR9105
012024081902WEGE3       010WEG         ON      NM   R$  000000000536700000000054000000000005179000000000524700000000051790000000005179000000000518033718000000000011183700000000058687325500000000000000009999123100000010000000000000BRWEGEACNOR0224
012024081902KRSA3       010KORA SAUDE  ON      NM   R$  000000000006000000000000600000000000058000000000005900000000000590000000000059000000000006000187000000000000396200000000000023468500000000000000009999123100000010000000000000BRKRSAACNOR0100
012024081902AERI3       010AERIS       ON      NM   R$  000000000098300000000009990000000000898000000000095700000000009370000000000937000000000093901079000000000000410400000000000392945200000000000000009999123100000010000000000000BRAERIACNOR4102
012024081902AESB3       010AES BRASIL  ON      NM   R$  000000000114000000000011430000000001135000000000113900000000011430000000001138000000000114302405000000000002071200000000002359554100000000000000009999123100000010000000000000BRAESBACNOR7106
012024081902AFLT3       010AFLUENTE T  ON           R$  000000000071800000000007180000000000707000000000071600000000007070000000000706000000000074400009000000000000002200000000000001575200000000000000009999123100000010000000000000BRAFLTACNOR1122
012024081902AGRO3       010BRASILAGRO  ON      NM   R$  000000000259500000000026230000000002583000000000260200000000026130000000002610000000000261601105000000000000179200000000000466446800000000000000009999123100000010000000000000BRAGROACNOR7114
012024081902AGXY3       010AGROGALAXY  ON      NM   R$  000000000013000000000001350000000000129000000000013000000000001300000000000130000000000013100388000000000000224700000000000029347900000000000000009999123100000010000000000000BRAGXYACNOR4103
012024081902AHEB3       010SPTURIS     ON           R$  000000000350000000000035000000000003500000000000350000000000035000000000003001000000000400000001000000000000000100000000000000350000000000000000009999123100000010000000000000BRAHEBACNOR0106
012024081902AHEB5       010SPTURIS     PNA          R$  000000000350000000000035000000000003500000000000350100000000035000000000002350000000000000000005000000000000000500000000000001750500000000000000009999123100000010000000000000BRAHEBACNPA3106
012024081902ALLD3       010ALLIED      ON      NM   R$  000000000074700000000007640000000000747000000000075500000000007580000000000755000000000075800256000000000000059000000000000044600300000000000000009999123100000010000000000000BRALLDACNOR3106
012024081902ALOS3       010ALLOS       ON      NM   R$  000000000234800000000023600000000002311000000000233800000000023420000000002340000000000234318189000000000004395900000000010280542100000000000000009999123100000010000000000000BRALOSACNOR5101
012024081902BIOM3       010BIOMM       ON      MA   R$  000000000083300000000008380000000000780000000000079700000000008000000000000800000000000080100665000000000000182600000000000145654400000000000000009999123100000010000000000000BRBIOMACNOR2112
012024081902BLAU3       010BLAU        ON      NM   R$  000000000116800000000012690000000001168000000000123000000000012630000000001262000000000126801206000000000000252200000000000310430800000000000000009999123100000010000000000000BRBLAUACNOR8114
012024081902BMEB4       010MERCANTIL   PN      N1   R$  000000000362100000000036710000000003603000000000363100000000036700000000003665000000000367100098000000000000022000000000000079891400000000000000009999123100000010000000000000BRBMEBACNPR5211
012024081902BMGB4       010BANCO BMG   PN      N1   R$  000000000036700000000003770000000000366000000000037200000000003710000000000370000000000037100934000000000000619200000000000230933900000000000000009999123100000010000000000000BRBMGBACNPR0110
012024081902BMKS3       010BIC MONARK  ON           R$  000000003129900000000316120000000031000000000003123400000000310000000000031001000000003149900060000000000000000625000000000019521286000000000000009999123100000010000000000000BRBMKSACNOR9166
012024081902BMOB3       010BEMOBI TECH ON      NM   R$  000000000158300000000016100000000001575000000000159400000000015930000000001591000000000159300950000000000000199600000000000318263500000000000000009999123100000010000000000000BRBMOBACNOR7103
012024081902BNBR3       010NORD BRASIL ON           R$  000000001015000000000103990000000010150000000001027400000000103990000000010000000000001040000002000000000000000200000000000002054900000000000000009999123100000010000000000000BRBNBRACNOR8208
012024081902BOBR4       010BOMBRIL     PN           R$  000000000021400000000002190000000000214000000000021500000000002150000000000214000000000021500040000000000000056500000000000012181400000000000000009999123100000010000000000000BRBOBRACNPR3128
012024081902BRAP3       010BRADESPAR   ON      N1   R$  000000000177000000000017870000000001758000000000177000000000017610000000001761000000000176500797000000000000155000000000000274357400000000000000009999123100000010000000000000BRBRAPACNOR5148
012024081902BRAP4       010BRADESPAR   PN      N1   R$  000000000184300000000018750000000001834000000000186200000000018680000000001867000000000187113274000000000004970900000000009260604500000000000000009999123100000010000000000000BRBRAPACNPR2148
012024081902BRBI11      010BR PARTNERS UNT ED  N2   R$  000000000150800000000015340000000001504000000000151900000000015270000000001527000000000153401381000000000000226600000000000344382800000000000000009999123100000010000000000000BRBRBICDAM10110
012024081902BRFS3       010BRF SA      ON      NM   R$  000000000244700000000025360000000002441000000000250500000000025250000000002524000000000252531420000000000010002800000000025057727500000000000000009999123100000010000000000000BRBRFSACNOR8122
012024081902BBSE3       010BBSEGURIDADEON  ED  NM   R$  000000000356900000000036150000000003493000000000357500000000036050000000003605000000000360721960000000000006712400000000023997338500000000000000009999123100000010000000000000BRBBSEACNOR5125
012024081902CMIN3       010CSNMINERACAOON      N2   R$  000000000050700000000005300000000000506000000000051900000000005270000000000526000000000052716207000000000013727400000000007129413500000000000000009999123100000010000000000000BRCMINACNOR2111
012024081902DEXP3       010DEXXOS PAR  ON      N1   R$  000000000096000000000009780000000000953000000000096100000000009560000000000956000000000095700518000000000000187200000000000179902000000000000000009999123100000010000000000000BRDEXPACNOR1105
012024081902DEXP4       010DEXXOS PAR  PN      N1   R$  000000000092500000000009300000000000920000000000092200000000009280000000000921000000000093800017000000000000012400000000000011434000000000000000009999123100000010000000000000BRDEXPACNPR8105
012024081902DIRR3       010DIRECIONAL  ON      NM   R$  000000000292300000000029390000000002895000000000292700000000029310000000002930000000000293606417000000000001472400000000004310030000000000000000009999123100000010000000000000BRDIRRACNOR0118
012024081902CRFB3       010CARREFOUR BRON      NM   R$  000000000093800000000009790000000000898000000000094000000000009710000000000969000000000097229614000000000018414600000000017319109000000000000000009999123100000010000000000000BRCRFBACNOR2116
012024081902CRPG5       010CRISTAL     PNA          R$  000000000287000000000028790000000002831000000000286000000000028700000000002810000000000289900024000000000000004300000000000012301400000000000000009999123100000010000000000000BRCRPGACNPA3119
012024081902CRPG6       010CRISTAL     PNB          R$  000000000294800000000029970000000002940000000000296100000000029970000000002901000000000299800003000000000000000300000000000000888500000000000000009999123100000010000000000000BRCRPGACNPB1119
012024081902CSAN3       010COSAN       ON      NM   R$  000000000135500000000013970000000001346000000000138400000000013940000000001393000000000139527087000000000014004500000000019388670900000000000000009999123100000010000000000000BRCSANACNOR6126
012024081902ELMD3       010ELETROMIDIA ON      NM   R$  000000000189800000000019100000000001883000000000189700000000018830000000001881000000000189900264000000000000050900000000000096606200000000000000009999123100000010000000000000BRELMDACNOR3101
012024081902EMAE4       010EMAE        PN           R$  000000000416000000000041600000000004071000000000412500000000041570000000004091000000000416000009000000000000001000000000000004125200000000000000009999123100000010000000000000BREMAEACNPR1125
012024081902EMBR3       010EMBRAER     ON      NM   R$  000000000449800000000044980000000004341000000000439000000000043980000000004397000000000439924876000000000005020700000000022045745100000000000000009999123100000010000000000000BREMBRACNOR4191
012024081902PSSA3       010PORTO SEGUROON      NM   R$  000000000327000000000032900000000003244000000000327800000000032850000000003285000000000328704636000000000001056200000000003462247900000000000000009999123100000010000000000000BRPSSAACNOR7155
012024081902PTBL3       010PORTOBELLO  ON      NM   R$  000000000046400000000005000000000000462000000000048600000000004990000000000495000000000049901388000000000000601000000000000292533900000000000000009999123100000010000000000000BRPTBLACNOR8132
012024081902PTNT4       010PETTENATI   PN           R$  000000000060100000000006160000000000601000000000060900000000006060000000000605000000000060900025000000000000009000000000000005488700000000000000009999123100000010000000000000BRPTNTACNPR3047
012024081902QUAL3       010QUALICORP   ON      NM   R$  000000000016000000000001790000000000160000000000017100000000001790000000000177000000000017909253000000000007165500000000001231643900000000000000009999123100000010000000000000BRQUALACNOR6120
012024081902SAPR3       010SANEPAR     ON      N2   R$  000000000054200000000005480000000000539000000000054200000000005480000000000545000000000054800315000000000000148000000000000080317400000000000000009999123100000010000000000000BRSAPRACNOR9159
012024081902SAPR4       010SANEPAR     PN      N2   R$  000000000057600000000005830000000000575000000000058000000000005830000000000582000000000058301825000000000001116000000000000648026600000000000000009999123100000010000000000000BRSAPRACNPR6159
012024081902SBFG3       010GRUPO SBF   ON      NM   R$  000000000169500000000017260000000001682000000000170300000000017160000000001709000000000171605937000000000001709100000000002911269700000000000000009999123100000010000000000000BRSBFGACNOR1103
012024081902SBSP3       010SABESP      ON      NM   R$  000000000992100000000099410000000009667000000000974200000000097500000000009750000000000975427862000000000005857500000000057068981400000000000000009999123100000010000000000000BRSBSPACNOR5161
012024081902VBBR3       010VIBRA       ON      NM   R$  000000000260900000000026430000000002598000000000262100000000026250000000002623000000000262532787000000000007954700000000020850626100000000000000009999123100000010000000000000BRVBBRACNOR1108
012024081902VITT3       010VITTIA      ON      NM   R$  000000000060500000000006300000000000603000000000062300000000006290000000000624000000000062901373000000000000466000000000000290518900000000000000009999123100000010000000000000BRVITTACNOR4107
012024081902VIVA3       010VIVARA S.A. ON      NM   R$  000000000263100000000026590000000002588000000000263000000000026500000000002637000000000265212415000000000002822600000000007426092600000000000000009999123100000010000000000000BRVIVAACNOR0107
012024081902MILS3       010MILLS       ON      NM   R$  000000000116600000000011800000000001131000000000115500000000011650000000001163000000000116503926000000000000905200000000001046161600000000000000009999123100000010000000000000BRMILSACNOR2127
012024081902MLAS3       010MULTILASER  ON      NM   R$  000000000018100000000001900000000000180000000000018500000000001890000000000188000000000018902543000000000004393200000000000813464600000000000000009999123100000010000000000000BRMLASACNOR9101
012024081902MNDL3       010MUNDIAL     ON           R$  000000000141700000000014170000000001369000000000138100000000013690000000001365000000000139800017000000000000003200000000000004420300000000000000009999123100000010000000000000BRMNDLACNOR4109
012024081902MNPR3       010MINUPAR     ON           R$  000000000154600000000016300000000001545000000000159200000000016300000000001570000000000163000010000000000000001400000000000002229600000000000000009999123100000010000000000000BRMNPRACNOR5122
012024081902MOVI3       010MOVIDA      ON      NM   R$  000000000073100000000007710000000000731000000000075700000000007710000000000770000000000077212033000000000004288000000000003249400000000000000000009999123100000010000000000000BRMOVIACNOR0122
012024081902RSUL4       010RIOSULENSE  PN           R$  000000000659900000000065990000000006400000000000645900000000064000000000006386000000000649900025000000000000002500000000000016148000000000000000009999123100000010000000000000BRRSULACNPR3114
012024081902SANB11      010SANTANDER BRUNT          R$  000000000302600000000030960000000003024000000000307600000000030750000000003070000000000307509272000000000001911300000000005880612000000000000000009999123100000010000000000000BRSANBCDAM13165
012024081902SANB3       010SANTANDER BRON           R$  000000000143000000000014650000000001428000000000144800000000014430000000001443000000000145101359000000000000256600000000000371596400000000000000009999123100000010000000000000BRSANBACNOR8172
012024081902SANB4       010SANTANDER BRPN           R$  000000000158500000000016300000000001585000000000161600000000016240000000001610000000000162401127000000000000172200000000000278366800000000000000009999123100000010000000000000BRSANBACNPR5172
012024081902SAPR11      010SANEPAR     UNT     N2   R$  000000000285200000000029000000000002848000000000287600000000029000000000002882000000000290003925000000000000698200000000002008449400000000000000009999123100000010000000000000BRSAPRCDAM13118
012024081902VAMO3       010VAMOS       ON      NM   R$  000000000083600000000008840000000000829000000000086200000000008780000000000878000000000087917432000000000006676000000000005757283200000000000000009999123100000010000000000000BRVAMOACNOR7105
012024081902MAPT3       010CEMEPE      ON           R$  000000000042300000000004230000000000423000000000042300000000004230000000000421000000000052100001000000000000000300000000000000126900000000000000009999123100000010000000000000BRMAPTACNOR8106
012024081902MATD3       010MATER DEI   ON      NM   R$  000000000044700000000004560000000000441000000000045100000000004550000000000453000000000045601142000000000000297100000000000134164300000000000000009999123100000010000000000000BRMATDACNOR4104
012024081902MBLY3       010MOBLY       ON      NM   R$  000000000029600000000003030000000000283000000000029500000000002900000000000289000000000029001154000000000001134700000000000334918000000000000000009999123100000010000000000000BRMBLYACNOR5100
012024081902MDIA3       010M.DIASBRANCOON      NM   R$  000000000284900000000029120000000002794000000000286900000000028890000000002889000000000291002983000000000000734000000000002105931500000000000000009999123100000010000000000000BRMDIAACNOR7135
012024081902MDNE3       010MOURA DUBEUXON      NM   R$  000000000147100000000014970000000001451000000000147100000000014730000000001468000000000147501225000000000000266300000000000391745200000000000000009999123100000010000000000000BRMDNEACNOR9100
012024081902MEAL3       010IMC S/A     ON      NM   R$  000000000015900000000001660000000000158000000000016200000000001640000000000163000000000016400788000000000001289100000000000210039600000000000000009999123100000010000000000000BRMEALACNOR9105
012024081902OPCT3       010OCEANPACT   ON      NM   R$  000000000066400000000006700000000000652000000000065800000000006590000000000659000000000066001352000000000000304400000000000200299700000000000000009999123100000010000000000000BROPCTACNOR0100
012024081902ORVR3       010ORIZON      ON      NM   R$  000000000459300000000046500000000004559000000000461100000000046120000000004611000000000461202355000000000000530400000000002446142800000000000000009999123100000010000000000000BRORVRACNOR0101
012024081902PATI3       010PANATLANTICAON           R$  000000000290000000000031890000000002900000000000302500000000031800000000003055000000000318000022000000000000003300000000000009983800000000000000009999123100000010000000000000BRPATIACNOR6065
012024081902PCAR3       010P.ACUCAR-CBDON      NM   R$  000000000032200000000003440000000000315000000000033300000000003330000000000332000000000033312618000000000018680000000000006220984500000000000000009999123100000010000000000000BRPCARACNOR3167
012024081902REDE3       010REDE ENERGIAON           R$  000000000068800000000006880000000000685000000000068700000000006880000000000688000000000069200008000000000000000800000000000000549700000000000000009999123100000010000000000000BRREDEACNOR7128
012024081902RENT3       010LOCALIZA    ON      NM   R$  000000000427000000000044250000000004266000000000436100000000044250000000004425000000000442657470000000000015038400000000065583004400000000000000009999123100000010000000000000BRRENTACNOR4196
012024081902JHSF3       010JHSF PART   ON      NM   R$  000000000042800000000004320000000000420000000000042700000000004320000000000431000000000043204862000000000006289100000000002691097700000000000000009999123100000010000000000000BRJHSFACNOR2138
012024081902JSLG3       010JSL         ON      NM   R$  000000000092100000000009640000000000921000000000095200000000009640000000000962000000000096402448000000000000699500000000000666368800000000000000009999123100000010000000000000BRJSLGACNOR2121
012024081902MSPA3       010MELHOR SP   ON           R$  000000000427000000000042700000000004270000000000427000000000042700000000003440000000000660000001000000000000000100000000000000427000000000000000009999123100000010000000000000BRMSPAACNOR0127
012024081902SYNE3       010SYN PROP TECON      NM   R$  000000000116000000000011770000000001113000000000113400000000011210000000001121000000000112205452000000000003412900000000003872833700000000000000009999123100000010000000000000BRSYNEACNOR2102
012024081902MSPA4       010MELHOR SP   PN           R$  000000000363000000000036300000000003630000000000363000000000036300000000000000000000000660000002000000000000000200000000000000726000000000000000009999123100000010000000000000BRMSPAACNPR7127
012024081902MTRE3       010MITRE REALTYON      NM   R$  000000000038700000000003980000000000381000000000039100000000003980000000000396000000000039801465000000000000760000000000000297366000000000000000009999123100000010000000000000BRMTREACNOR6113
012024081902MTSA4       010METISA      PN           R$  000000000421500000000042150000000004085000000000411800000000040850000000004050000000000413000058000000000000009300000000000038303100000000000000009999123100000010000000000000BRMTSAACNPR9072
012024081902MULT3       010MULTIPLAN   ON      N2   R$  000000000264000000000027180000000002640000000000268900000000026890000000002687000000000269728367000000000005945400000000015988328900000000000000009999123100000010000000000000BRMULTACNOR5139
012024081902RADL3       010RAIADROGASILON      NM   R$  000000000295600000000029700000000002896000000000291700000000029070000000002906000000000290720315000000000005482700000000015995201800000000000000009999123100000010000000000000BRRADLACNOR0157
012024081902RAIL3       010RUMO S.A.   ON      NM   R$  000000000234800000000023670000000002319000000000235000000000023600000000002360000000000236133029000000000010177200000000023919521300000000000000009999123100000010000000000000BRRAILACNOR9105
012024081902TAEE11      010TAESA       UNT EDJ N2   R$  000000000347900000000035430000000003461000000000351200000000035390000000003539000000000354008628000000000001855100000000006515226900000000000000009999123100000010000000000000BRTAEECDAM10148
012024081902TAEE3       010TAESA       ON  EDJ N2   R$  000000000115100000000011740000000001146000000000115700000000011740000000001171000000000117500619000000000000120300000000000139259900000000000000009999123100000010000000000000BRTAEEACNOR9148
012024081902TAEE4       010TAESA       PN  EDJ N2   R$  000000000116000000000011820000000001158000000000117000000000011790000000001179000000000118200729000000000000173200000000000202720000000000000000009999123100000010000000000000BRTAEEACNPR6148
012024081902ZAMP3       010ZAMP S.A.   ON           R$  000000000034200000000003500000000000338000000000034600000000003490000000000345000000000034902033000000000000487600000000000169105200000000000000009999123100000010000000000000BRZAMPACNOR5101
012024081902SCAR3       010SAO CARLOS  ON      NM   R$  000000000239900000000024200000000002352000000000236800000000023620000000002362000000000237500081000000000000016100000000000038131200000000000000009999123100000010000000000000BRSCARACNOR7131
012024081902SEER3       010SER EDUCA   ON      NM   R$  000000000057900000000006120000000000574000000000059900000000006090000000000606000000000060901359000000000000493300000000000295499800000000000000009999123100000010000000000000BRSEERACNOR5119
012024081902SEQL3       010SEQUOIA LOG ON      NM   R$  000000000052500000000005740000000000522000000000054900000000005460000000000546000000000054702005000000000000914400000000000502487300000000000000009999123100000010000000000000BRSEQLACNOR2103
012024081902SHOW3       010TIME FOR FUNON      NM   R$  000000000012300000000001290000000000123000000000012400000000001240000000000124000000000012500487000000000000173300000000000021592100000000000000009999123100000010000000000000BRSHOWACNOR7105
012024081902SHUL4       010SCHULZ      PN           R$  000000000065400000000006600000000000640000000000065200000000006560000000000656000000000065900984000000000000332100000000000216824100000000000000009999123100000010000000000000BRSHULACNPR4156
012024081902SIMH3       010SIMPAR      ON      NM   R$  000000000064600000000007090000000000646000000000068400000000007090000000000706000000000070906234000000000004351700000000002976572600000000000000009999123100000010000000000000BRSIMHACNOR0107
012024081902ODPV3       010ODONTOPREV  ON      NM   R$  000000000118800000000011920000000001171000000000118500000000011920000000001187000000000119303697000000000000865000000000001025685600000000000000009999123100000010000000000000BRODPVACNOR4202
012024081902PETZ3       010PETZ        ON      NM   R$  000000000038200000000004670000000000363000000000042600000000004670000000000466000000000046733303000000000055785700000000023771692800000000000000009999123100000010000000000000BRPETZACNOR2110
012024081902SLCE3       010SLC AGRICOLAON      NM   R$  000000000178100000000017990000000001749000000000177400000000017860000000001785000000000178709837000000000003059100000000005428630100000000000000009999123100000010000000000000BRSLCEACNOR2125
012024081902UCAS3       010UNICASA     ON      NM   R$  000000000022900000000002290000000000225000000000022600000000002270000000000226000000000022700164000000000000024100000000000005462300000000000000009999123100000010000000000000BRUCASACNOR1113
012024081902UGPA3       010ULTRAPAR    ON  ED  NM   R$  000000000241000000000024430000000002371000000000241300000000023950000000002395000000000239635448000000000011137100000000026878042200000000000000009999123100000010000000000000BRUGPAACNOR8156
012024081902UNIP3       010UNIPAR      ON           R$  000000000480100000000049140000000004801000000000488000000000048500000000004850000000000489000099000000000000011300000000000055151000000000000000009999123100000010000000000000BRUNIPACNOR7206
012024081902UNIP5       010UNIPAR      PNA          R$  000000000490000000000049500000000004900000000000493300000000049500000000004910000000000499900002000000000000000300000000000001480000000000000000009999123100000010000000000000BRUNIPACNPA0208
012024081902GEPA4       010GER PARANAP PN           R$  000000000260100000000026440000000002581000000000259900000000026000000000002580000000000264400011000000000000001200000000000003119600000000000000009999123100000010000000000000BRGEPAACNPR9160
012024081902GFSA3       010GAFISA      ON  ES  NM   R$  000000000026100000000003090000000000261000000000029000000000002900000000000289000000000029005964000000000009120200000000002648906500000000000000009999123100000010000000000000BRGFSAACNOR3125
012024081902GGBR3       010GERDAU      ON  ED  N1   R$  000000000155200000000015800000000001552000000000156700000000015740000000001565000000000157400426000000000000112100000000000175716900000000000000009999123100000010000000000000BRGGBRACNOR1193
012024081902GGBR4       010GERDAU      PN  ED  N1   R$  000000000173500000000017720000000001728000000000175700000000017650000000001764000000000176622845000000000009998200000000017575387200000000000000009999123100000010000000000000BRGGBRACNPR8193
012024081902ITUB3       010ITAUUNIBANCOON      N1   R$  000000000316600000000032100000000003159000000000318800000000031970000000003195000000000319702982000000000000842100000000002685090200000000000000009999123100000010000000000000BRITUBACNOR4339
012024081902ITUB4       010ITAUUNIBANCOPN      N1   R$  000000000368800000000037260000000003678000000000370400000000036960000000003695000000000370040596000000000022266300000000082484191100000000000000009999123100000010000000000000BRITUBACNPR1339
012024081902AZZA3       010AZZAS 2154  ON      NM   R$  000000000510000000000052500000000005029000000000519300000000052400000000005230000000000524307572000000000001655100000000008595251300000000000000009999123100000010000000000000BRAZZAACNOR9100
012024081902UNIP6       010UNIPAR      PNB          R$  000000000486500000000050150000000004856000000000494600000000049850000000004985000000000499500907000000000000142400000000000704352300000000000000009999123100000010000000000000BRUNIPACNPB8206
012024081902USIM3       010USIMINAS    ON      N1   R$  000000000061000000000006440000000000601000000000062600000000006440000000000640000000000064401265000000000000645400000000000404395500000000000000009999123100000010000000000000BRUSIMACNOR3167
012024081902USIM5       010USIMINAS    PNA     N1   R$  000000000061200000000006540000000000610000000000063900000000006500000000000649000000000065022401000000000026616200000000017021542600000000000000009999123100000010000000000000BRUSIMACNPA6169
012024081902VIVR3       010VIVER       ON      NM   R$  000000000025500000000002600000000000250000000000025600000000002570000000000257000000000025800171000000000000074400000000000019058800000000000000009999123100000010000000000000BRVIVRACNOR4123
012024081902VIVT3       010TELEF BRASILON           R$  000000000523000000000052730000000005206000000000524100000000052120000000005212000000000522717856000000000002384400000000012497916200000000000000009999123100000010000000000000BRVIVTACNOR0183
012024081902VLID3       010VALID       ON  EJ  NM   R$  000000000212900000000021680000000002121000000000214600000000021350000000002135000000000214702251000000000000547900000000001176194800000000000000009999123100000010000000000000BRVLIDACNOR5144
012024081902VSTE3       010VESTE       ON      NM   R$  000000000134200000000013590000000001330000000000134800000000013500000000001350000000000136500056000000000000042400000000000057195500000000000000009999123100000010000000000000BRVSTEACNOR5103
012024081902VTRU3       010VITRUEDUCA  ON      NM   R$  000000000111100000000011680000000001095000000000114200000000011390000000001095000000000114500230000000000000032000000000000036558100000000000000009999123100000010000000000000BRVTRUACNOR3100
012024081902VULC3       010VULCABRAS   ON  ED  NM   R$  000000000177600000000017860000000001751000000000176900000000017820000000001776000000000178202823000000000000512000000000000905934900000000000000009999123100000010000000000000BRVULCACNOR2160
012024081902VVEO3       010VIVEO       ON      NM   R$  000000000020300000000002100000000000195000000000020100000000002100000000000209000000000021005454000000000003773900000000000760861500000000000000009999123100000010000000000000BRVVEOACNOR0104
012024081902MRFG3       010MARFRIG     ON      NM   R$  000000000132400000000014650000000001315000000000140400000000014590000000001459000000000146030726000000000013749900000000019309525200000000000000009999123100000010000000000000BRMRFGACNOR0116
012024081902MRVE3       010MRV         ON      NM   R$  000000000073400000000007560000000000730000000000074300000000007460000000000746000000000074719519000000000010389300000000007726677800000000000000009999123100000010000000000000BRMRVEACNOR2127
012024081902PRNR3       010PRINER      ON      NM   R$  000000000119600000000012350000000001190000000000122200000000012170000000001215000000000122101564000000000000385300000000000470861700000000000000009999123100000010000000000000BRPRNRACNOR4109
012024081902ECOR3       010ECORODOVIAS ON      NM   R$  000000000078100000000008070000000000778000000000079500000000008070000000000804000000000080703818000000000001969100000000001566197100000000000000009999123100000010000000000000BRECORACNOR8120
012024081902GGPS3       010GPS         ON      NM   R$  000000000175800000000017590000000001728000000000174000000000017530000000001751000000000175404772000000000003252400000000005662314500000000000000009999123100000010000000000000BRGGPSACNOR9103
012024081902GMAT3       010GRUPO MATEUSON      NM   R$  000000000079900000000007990000000000786000000000079100000000007910000000000790000000000079105728000000000002627600000000002079137200000000000000009999123100000010000000000000BRGMATACNOR7102
012024081902GOAU3       010GERDAU MET  ON  ED  N1   R$  000000000104100000000010480000000001027000000000104100000000010470000000001044000000000104700137000000000000025400000000000026444500000000000000009999123100000010000000000000BRGOAUACNOR1268
012024081902GOAU4       010GERDAU MET  PN  ED  N1   R$  000000000101000000000010330000000001006000000000102300000000010300000000001030000000000103113521000000000008633600000000008840470700000000000000009999123100000010000000000000BRGOAUACNPR8269
012024081902B3SA3       010B3          ON      NM   R$  000000000126100000000012910000000001255000000000127800000000012790000000001278000000000127962174000000000031024400000000039656536200000000000000009999123100000010000000000000BRB3SAACNOR6133
012024081902CEAB3       010CEA MODAS   ON      NM   R$  000000000092500000000009630000000000921000000000095300000000009540000000000952000000000095506360000000000002333900000000002224517400000000000000009999123100000010000000000000BRCEABACNOR1102
012024081902CEBR3       010CEB         ON           R$  000000000202900000000020290000000001985000000000201200000000020110000000002000000000000202000016000000000000002500000000000005030400000000000000009999123100000010000000000000BRCEBRACNOR5125
012024081902CEBR5       010CEB         PNA          R$  000000000166000000000017000000000001658000000000167600000000017000000000001671000000000170000007000000000000001300000000000002178800000000000000009999123100000010000000000000BRCEBRACNPA8124
012024081902CEBR6       010CEB         PNB          R$  000000000175600000000017940000000001756000000000177600000000017750000000001775000000000179400035000000000000004200000000000007462600000000000000009999123100000010000000000000BRCEBRACNPB6124
012024081902CEEB3       010COELBA      ON           R$  000000000392000000000040000000000003900000000000393100000000039000000000003900000000000399500011000000000000002000000000000007863700000000000000009999123100000010000000000000BRCEEBACNOR3199
012024081902CGAS5       010COMGAS      PNA ED       R$  000000001129900000000114000000000011210000000001130700000000112980000000011260000000001160000030000000000000003300000000000037315500000000000000009999123100000010000000000000BRCGASACNPA3161
012024081902MELK3       010MELNICK     ON      NM   R$  000000000034000000000003460000000000340000000000034200000000003460000000000344000000000034600398000000000000561200000000000192207600000000000000009999123100000010000000000000BRMELKACNOR8111
012024081902MERC4       010MERC FINANC PN           R$  000000000094000000000009400000000000940000000000094000000000009400000000000940000000000101300001000000000000000900000000000000846000000000000000009999123100000010000000000000BRMERCACNPR9180
012024081902MGEL4       010MANGELS INDLPN           R$  000000000116600000000011660000000001150000000000115900000000011500000000001150000000000116500009000000000000017200000000000019936700000000000000009999123100000010000000000000BRMGELACNPR3147
012024081902MGLU3       010MAGAZ LUIZA ON      NM   R$  000000000127300000000014000000000001272000000000136400000000013920000000001391000000000139243519000000000032348600000000044142426500000000000000009999123100000010000000000000BRMGLUACNOR2124
012024081902PRIO3       010PETRORIO    ON      NM   R$  000000000496100000000049650000000004764000000000481800000000047890000000004789000000000479044065000000000011805700000000056881262300000000000000009999123100000010000000000000BRPRIOACNOR1107
012024081902RRRP3       0103R PETROLEUMON      NM   R$  000000000284000000000028450000000002748000000000278700000000027860000000002786000000000279025115000000000007133800000000019887708400000000000000009999123100000010000000000000BRRRRPACNOR5103
012024081902TPIS3       010TRIUNFO PARTON      NM   R$  000000000041500000000004380000000000415000000000042800000000004220000000000421000000000042200173000000000000040600000000000017393100000000000000009999123100000010000000000000BRTPISACNOR8118
012024081902TRAD3       010TC          ON      NM   R$  000000000045000000000004710000000000418000000000044400000000004470000000000446000000000044700869000000000000270700000000000120424000000000000000009999123100000010000000000000BRTRADACNOR3102
012024081902TRIS3       010TRISUL      ON      NM   R$  000000000046800000000004950000000000462000000000048300000000004900000000000490000000000049301579000000000000670800000000000324606400000000000000009999123100000010000000000000BRTRISACNOR4118
012024081902TRPL3       010TRAN PAULISTON      N1   R$  000000000320000000000032000000000003162000000000318400000000031940000000003190000000000319800029000000000000003400000000000010826600000000000000009999123100000010000000000000BRTRPLACNOR4185
012024081902TRPL4       010TRAN PAULISTPN      N1   R$  000000000246800000000025190000000002455000000000249000000000025140000000002512000000000251414358000000000003339200000000008315885700000000000000009999123100000010000000000000BRTRPLACNPR1185
012024081902TTEN3       0103TENTOS     ON      NM   R$  000000000124900000000012800000000001240000000000126600000000012770000000001277000000000127905135000000000001018400000000001290096300000000000000009999123100000010000000000000BRTTENACNOR0103
012024081902TUPY3       010TUPY        ON      NM   R$  000000000270000000000027620000000002691000000000272700000000027620000000002747000000000276202421000000000000422700000000001152988900000000000000009999123100000010000000000000BRTUPYACNOR1184
012024081902LUPA3       010LUPATECH    ON      NM   R$  000000000015600000000001590000000000153000000000015400000000001540000000000154000000000015500139000000000000166800000000000025764800000000000000009999123100000010000000000000BRLUPAACNOR8112
012024081902LVTC3       010WDC NETWORKSON      NM   R$  000000000038600000000003990000000000370000000000038300000000003990000000000381000000000040000065000000000000022200000000000008517900000000000000009999123100000010000000000000BRLVTCACNOR4102
012024081902LWSA3       010LWSA        ON      NM   R$  000000000046400000000005350000000000463000000000051100000000005220000000000522000000000052519814000000000019152900000000009788551700000000000000009999123100000010000000000000BRLWSAACNOR8103
012024081902PDGR3       010PDG REALT   ON      NM   R$  000000000001800000000000180000000000017000000000001700000000000170000000000017000000000001800303000000000002078600000000000035855200000000000000009999123100000010000000000000BRPDGRACNOR8119
012024081902PDTC3       010PADTEC      ON      NM   R$  000000000018500000000001880000000000184000000000018500000000001870000000000187000000000018800084000000000000070100000000000012978200000000000000009999123100000010000000000000BRPDTCACNOR3101
012024081902PETR3       010PETROBRAS   ON      N2   R$  000000000416200000000041730000000004124000000000413900000000041240000000004123000000000413022614000000000009357100000000038735535100000000000000009999123100000010000000000000BRPETRACNOR9205
012024081902PETR4       010PETROBRAS   PN      N2   R$  000000000386000000000038790000000003840000000000385700000000038440000000003844000000000384553801000000000028138200000000108547843700000000000000009999123100000010000000000000BRPETRACNPR6213
012024081902PFRM3       010PROFARMA    ON      NM   R$  000000000057800000000005940000000000576000000000058400000000005850000000000582000000000058501045000000000000241000000000000140816900000000000000009999123100000010000000000000BRPFRMACNOR1116
012024081902PGMN3       010PAGUE MENOS ON      NM   R$  000000000030000000000003300000000000298000000000031600000000003300000000000329000000000033001652000000000001649800000000000522348000000000000000009999123100000010000000000000BRPGMNACNOR8103
012024081902PINE3       010PINE        ON      N2   R$  000000000056200000000005630000000000562000000000056200000000005630000000000563000000000059000002000000000000000200000000000000112500000000000000009999123100000010000000000000BRPINEACNOR1150
012024081902PINE4       010PINE        PN      N2   R$  000000000045200000000004630000000000450000000000045800000000004610000000000459000000000046100642000000000000281200000000000129051200000000000000009999123100000010000000000000BRPINEACNPR8150
012024081902PLAS3       010PLASCAR PARTON           R$  000000000060000000000006370000000000545000000000059100000000005550000000000555000000000062000018000000000000004000000000000002367300000000000000009999123100000010000000000000BRPLASACNOR2106
012024081902PLPL3       010PLANOEPLANO ON      NM   R$  000000000117600000000012020000000001169000000000118700000000012000000000001191000000000120001994000000000000555200000000000659381200000000000000009999123100000010000000000000BRPLPLACNOR5104
012024081902PNVL3       010DIMED       ON      NM   R$  000000000110500000000011160000000001094000000000111000000000011160000000001115000000000111602160000000000000468800000000000520383200000000000000009999123100000010000000000000BRPNVLACNOR9207
012024081902POMO3       010MARCOPOLO   ON      N2   R$  000000000053000000000005440000000000523000000000053700000000005410000000000541000000000054400470000000000000180500000000000096961400000000000000009999123100000010000000000000BRPOMOACNOR0098
012024081902POMO4       010MARCOPOLO   PN      N2   R$  000000000067600000000007060000000000671000000000069000000000006950000000000694000000000069510670000000000006752000000000004663508900000000000000009999123100000010000000000000BRPOMOACNPR7098
012024081902PORT3       010WILSON SONS ON      NM   R$  000000000167400000000016970000000001665000000000168600000000016900000000001690000000000169601135000000000000521500000000000879500400000000000000009999123100000010000000000000BRPORTACNOR8109
012024081902POSI3       010POSITIVO TECON      NM   R$  000000000068700000000007060000000000687000000000069700000000006990000000000697000000000070003359000000000002094400000000001460014300000000000000009999123100000010000000000000BRPOSIACNOR9116
012024081902ROMI3       010ROMI        ON      NM   R$  000000000108500000000011050000000001082000000000109700000000011000000000001099000000000110000794000000000000148600000000000163143900000000000000009999123100000010000000000000BRROMIACNOR8195
012024081902TASA3       010TAURUS ARMASON      N2   R$  000000000110500000000011230000000001100000000000111200000000011010000000001101000000000111300144000000000000027700000000000030810900000000000000009999123100000010000000000000BRTASAACNOR7104
012024081902TASA4       010TAURUS ARMASPN      N2   R$  000000000110400000000011140000000001099000000000110300000000011020000000001100000000000110201313000000000000305800000000000337442700000000000000009999123100000010000000000000BRTASAACNPR4104
012024081902TCSA3       010TECNISA     ON      NM   R$  000000000019600000000002070000000000196000000000020000000000002070000000000207000000000020900156000000000000114800000000000023074000000000000000009999123100000010000000000000BRTCSAACNOR3112
012024081902TECN3       010TECHNOS     ON      NM   R$  000000000059200000000006070000000000578000000000059000000000005910000000000591000000000059200202000000000000110300000000000065088400000000000000009999123100000010000000000000BRTECNACNOR6109
012024081902TELB3       010TELEBRAS    ON           R$  000000000140000000000014100000000001390000000000140000000000014050000000001375000000000141500016000000000000002400000000000003360000000000000000009999123100000010000000000000BRTELBACNOR2140
012024081902TELB4       010TELEBRAS    PN           R$  000000000091500000000009200000000000915000000000091700000000009190000000000915000000000091900010000000000000003400000000000003119400000000000000009999123100000010000000000000BRTELBACNPR9140
012024081902TEND3       010TENDA       ON      NM   R$  000000000132400000000013850000000001323000000000136200000000013650000000001364000000000136806333000000000002039000000000002778242800000000000000009999123100000010000000000000BRTENDACNOR4111
012024081902TFCO4       010TRACK FIELD PN      N2   R$  000000000123100000000012400000000001222000000000123000000000012360000000001236000000000123700366000000000000661000000000000813593000000000000000009999123100000010000000000000BRTFCOACNPR8114
012024081902TGMA3       010TEGMA       ON  EDJ NM   R$  000000000250600000000025800000000002506000000000255300000000025780000000002576000000000257900531000000000000080500000000000205549500000000000000009999123100000010000000000000BRTGMAACNOR7145
012024081902TIMS3       010TIM         ON      NM   R$  000000000182900000000018410000000001812000000000182500000000018270000000001822000000000182717362000000000006601800000000012053687400000000000000009999123100000010000000000000BRTIMSACNOR5117
012024081902TKNO4       010TEKNO       PN           R$  000000000840000000000084000000000008400000000000840000000000084000000000008400000000001188800001000000000000000100000000000000840000000000000000009999123100000010000000000000BRTKNOACNPR5075
012024081902TOTS3       010TOTVS       ON      NM   R$  000000000297700000000030000000000002942000000000297900000000029900000000002989000000000299215099000000000003073400000000009156912300000000000000009999123100000010000000000000BRTOTSACNOR8145
012024081902OFSA3       010OUROFINO S/AON      NM   R$  000000000219000000000022500000000002175000000000219000000000022500000000002200000000000239900026000000000000004600000000000010077200000000000000009999123100000010000000000000BROFSAACNOR7118
012024081902ONCO3       010ONCOCLINICASON      NM   R$  000000000066200000000006630000000000636000000000064900000000006570000000000655000000000065706490000000000003497200000000002273097300000000000000009999123100000010000000000000BRONCOACNOR6101
012024081902JALL3       010JALLESMACHADON      NM   R$  000000000067900000000006940000000000674000000000068400000000006940000000000690000000000069400920000000000000349700000000000239462900000000000000009999123100000010000000000000BRJALLACNOR0106
012024081902JBSS3       010JBS         ON      NM   R$  000000000368200000000038340000000003650000000000377700000000038160000000003815000000000381731845000000000010223200000000038620612900000000000000009999123100000010000000000000BRJBSSACNOR8121
012024081902BAHI3       010BAHEMA      ON      MA   R$  000000000068100000000006850000000000680000000000068100000000006850000000000680000000000068500007000000000000001500000000000001022100000000000000009999123100000010000000000000BRBAHIACNOR1074
012024081902BALM3       010BAUMER      ON           R$  000000000118000000000011800000000001180000000000118000000000011800000000001030000000000165000001000000000000000100000000000000118000000000000000009999123100000010000000000000BRBALMACNOR5055
012024081902BALM4       010BAUMER      PN           R$  000000000110000000000011000000000001100000000000110000000000011000000000001080000000000110000001000000000000000100000000000000110000000000000000009999123100000010000000000000BRBALMACNPR2056
012024081902BAZA3       010AMAZONIA    ON           R$  000000000950000000000095180000000009400000000000946900000000094020000000009400000000000949900015000000000000002200000000000020832100000000000000009999123100000010000000000000BRBAZAACNOR0179
012024081902BBAS3       010BRASIL      ON      NM   R$  000000000284000000000029170000000002831000000000289600000000029130000000002912000000000291344803000000000019984500000000057882023900000000000000009999123100000010000000000000BRBBASACNOR3324
012024081902DMVF3       010D1000VFARMA ON      NM   R$  000000000073700000000007530000000000734000000000074300000000007340000000000734000000000074000215000000000000052900000000000039332200000000000000009999123100000010000000000000BRDMVFACNOR9100
012024081902DOHL4       010DOHLER      PN           R$  000000000040700000000004170000000000407000000000041300000000004170000000000409000000000041700005000000000000001000000000000000413800000000000000009999123100000010000000000000BRDOHLACNPR9066
012024081902DOTZ3       010DOTZ SA     ON      NM   R$  000000000078200000000008800000000000706000000000083600000000008390000000000837000000000085400131000000000000033300000000000027868800000000000000009999123100000010000000000000BRDOTZACNOR7101
012024081902DTCY3       010DTCOM-DIRECTON           R$  000000000057600000000006830000000000574000000000063300000000005740000000000540000000000060000010000000000000001100000000000000696900000000000000009999123100000010000000000000BRDTCYACNOR5109
012024081902DXCO3       010DEXCO       ON      NM   R$  000000000076900000000008400000000000768000000000081800000000008330000000000833000000000083415812000000000008607800000000007046543700000000000000009999123100000010000000000000BRDXCOACNOR8105
012024081902EGIE3       010ENGIE BRASILON      NM   R$  000000000463700000000046900000000004610000000000466300000000046660000000004665000000000467106351000000000000896900000000004182787300000000000000009999123100000010000000000000BREGIEACNOR9126
012024081902EKTR4       010ELEKTRO     PN           R$  000000000423900000000043300000000004239000000000427200000000043300000000004240000000000433000006000000000000000800000000000003418200000000000000009999123100000010000000000000BREKTRACNPR7164
012024081902ELET3       010ELETROBRAS  ON      N1   R$  000000000406100000000041680000000004029000000000411600000000041530000000004151000000000415432809000000000013552800000000055785964300000000000000009999123100000010000000000000BRELETACNOR6160
012024081902ELET6       010ELETROBRAS  PNB     N1   R$  000000000451500000000045960000000004485000000000455200000000045700000000004570000000000457107817000000000001351000000000006150181800000000000000009999123100000010000000000000BRELETACNPB7077
012024081902GRND3       010GRENDENE    ON      NM   R$  000000000061900000000006300000000000619000000000062400000000006300000000000629000000000063001687000000000000853100000000000532730500000000000000009999123100000010000000000000BRGRNDACNOR3174
012024081902GUAR3       010GUARARAPES  ON      NM   R$  000000000086800000000009110000000000858000000000089700000000009100000000000899000000000091003100000000000001280500000000001149582700000000000000009999123100000010000000000000BRGUARACNOR4173
012024081902DESK3       010DESKTOP     ON      NM   R$  000000000163100000000016500000000001564000000000160300000000015640000000001564000000000158800823000000000000236700000000000379510700000000000000009999123100000010000000000000BRDESKACNOR2104
012024081902CGRA3       010GRAZZIOTIN  ON           R$  000000000257900000000025790000000002579000000000257900000000025790000000002501000000000256700001000000000000000100000000000000257900000000000000009999123100000010000000000000BRCGRAACNOR2083
012024081902CGRA4       010GRAZZIOTIN  PN           R$  000000000257700000000026820000000002545000000000259100000000025450000000002545000000000259500084000000000000010100000000000026178800000000000000009999123100000010000000000000BRCGRAACNPR9083
012024081902CIEL3       010CIELO       ON           R$  000000000058200000000005830000000000582000000000058200000000005820000000000582000000000058305205000000000036765700000000021399881700000000000000009999123100000010000000000000BRCIELACNOR3157
012024081902CLSA3       010CLEARSALE   ON      NM   R$  000000000077900000000007940000000000770000000000077800000000007730000000000771000000000077302232000000000000784500000000000610557600000000000000009999123100000010000000000000BRCLSAACNOR0100
012024081902CLSC3       010CELESC      ON      N2   R$  000000000729900000000072990000000007299000000000729900000000072990000000007167000000000730000001000000000000000100000000000000729900000000000000009999123100000010000000000000BRCLSCACNOR6152
012024081902CLSC4       010CELESC      PN      N2   R$  000000000784200000000078660000000007785000000000782500000000078550000000007786000000000785500020000000000000002600000000000020345200000000000000009999123100000010000000000000BRCLSCACNPR3131
012024081902CMIG3       010CEMIG       ON      N1   R$  000000000138700000000013990000000001371000000000138900000000013940000000001393000000000139400735000000000000159500000000000221583000000000000000009999123100000010000000000000BRCMIGACNOR6242
012024081902HYPE3       010HYPERA      ON      NM   R$  000000000312100000000032360000000003084000000000319100000000032270000000003225000000000322820960000000000004455000000000014218719600000000000000009999123100000010000000000000BRHYPEACNOR0143
012024081907NUTR3       010NUTRIPLANT  ON      MA   R$  000000000050000000000005000000000000488000000000049200000000004900000000000489000000000049300022000000000000004500000000000002214000000000000000009999123100000010000000000000BRNUTRACNOR0104
012024081908ATMP3       010ATMASA      ON           R$  000000000015000000000001530000000000140000000000014300000000001450000000000142000000000014500090000000000000108800000000000015592600000000000000009999123100000010000000000000BRATMPACNOR8100
012024081908CTSA3       010SANTANENSE  ON           R$  000000000027000000000002700000000000261000000000026500000000002670000000000264000000000026700014000000000000001500000000000000398200000000000000009999123100000010000000000000BRCTSAACNOR3062
012024081908CTSA4       010SANTANENSE  PN           R$  000000000013700000000001370000000000131000000000013200000000001340000000000132000000000013400040000000000000010900000000000001444200000000000000009999123100000010000000000000BRCTSAACNPR0062
012024081908LIGT3       010LIGHT S/A   ON      NM   R$  000000000050600000000005930000000000501000000000055200000000005900000000000587000000000059005410000000000002331800000000001287688100000000000000009999123100000010000000000000BRLIGTACNOR2124
012024081908AMER3       010AMERICANAS  ON      NM   R$  000000000001400000000000150000000000009000000000001100000000000100000000000009000000000001031598000000000824122100000000009171222300000000000000009999123100000010000000000000BRAMERACNOR6102
012024081908NEXP3       010NEXPE       ON           R$  000000000040200000000004200000000000402000000000041600000000004110000000000405000000000041500017000000000000007500000000000003121500000000000000009999123100000010000000000000BRNEXPACNOR0101
012024081908RSID3       010ROSSI RESID ON      NM   R$  000000000039000000000003980000000000376000000000038800000000003940000000000387000000000039500602000000000000073700000000000028624900000000000000009999123100000010000000000000BRRSIDACNOR8120
012024081908OSXB3       010OSX BRASIL  ON      NM   R$  000000000038700000000003870000000000372000000000038100000000003860000000000374000000000038600025000000000000006500000000000002478700000000000000009999123100000010000000000000BROSXBACNOR8109
012024081908JFEN3       010JOAO FORTES ON           R$  000000000002400000000000250000000000021000000000002200000000000220000000000022000000000002300386000000000002003800000000000045169600000000000000009999123100000010000000000000BRJFENACNOR0059
012024081908PMAM3       010PARANAPANEMAON      NM   R$  000000000020200000000002150000000000201000000000020400000000002010000000000200000000000020300334000000000000186000000000000038028500000000000000009999123100000010000000000000BRPMAMACNOR3039
012024081908RNEW11      010RENOVA      UNT     N2   R$  000000000029700000000003090000000000291000000000029700000000002970000000000296000000000029700044000000000000015200000000000004526700000000000000009999123100000010000000000000BRRNEWCDAM15110
012024081908RNEW3       010RENOVA      ON      N2   R$  000000000010000000000001040000000000096000000000009900000000001000000000000098000000000010000219000000000000097800000000000009688900000000000000009999123100000010000000000000BRRNEWACNOR8110
012024081908RNEW4       010RENOVA      PN      N2   R$  000000000010000000000001030000000000097000000000009900000000000990000000000098000000000009900308000000000000289100000000000028655400000000000000009999123100000010000000000000BRRNEWACNPR5110
012024081908RPMG3       010PET MANGUINHON           R$  000000000027700000000002870000000000275000000000027900000000002750000000000274000000000027900168000000000000026100000000000007296300000000000000009999123100000010000000000000BRRPMGACNOR9194
012024081908TEKA4       010TEKA        PN           R$  000000000276500000000030000000000002765000000000294000000000030000000000002780000000000340000004000000000000000400000000000001176200000000000000009999123100000010000000000000BRTEKAACNPR3140
012024081908OIBR3       010OI          ON      N1   R$  000000000045000000000004500000000000433000000000043900000000004440000000000443000000000044401196000000000001283400000000000564600600000000000000009999123100000010000000000000BROIBRACNOR1111
012024081908OIBR4       010OI          PN      N1   R$  000000000122600000000012790000000001205000000000122500000000012120000000001217000000000124100049000000000000013000000000000015929900000000000000009999123100000010000000000000BROIBRACNPR8110
012024081910ZAMP1       010ZAMP S.A.   DIR ORD      R$  000000000000800000000000100000000000007000000000000800000000000100000000000009000000000001000699000000000000844000000000000007254800000000000000009999123100000010000000000000BRZAMPD01OR0100
012024081910GFSA1       010GAFISA      DIR ORD NM   R$  000000000000200000000000040000000000002000000000000200000000000020000000000002000000000000302090000000000002845600000000000008356800000000000000009999123100000010000000000000BRGFSAD11OR7124
012024081910PDGR95      010PDG REALT   DIR     NM   R$  000000000000100000000000010000000000001000000000000100000000000010000000000000000000000000100039000000000000014373000000000000014373000000000000009999123100000010000000000000BRPDGRD03M17100
012024081912BCFF11      010FII BC FFII CI  ER       R$  000000000082900000000008440000000000828000000000083500000000008340000000000834000000000083512300000000000000637551000000000532867798000000000000009999123100000010000000000000BRBCFFCTF000280
012024081912BCIA11      010FII BCIA    CI           R$  000000001042400000000104250000000010351000000001040200000000104000000000010400000000001040800442000000000000003384000000000035203580000000000000009999123100000010000000000000BRBCIACTF005212
012024081912BCRI11      010FII BEES CRICI           R$  000000000678500000000067850000000006767000000000678100000000067790000000006779000000000678500652000000000000007905000000000053604533000000000000009999123100000010000000000000BRBCRICTF009217
012024081912DAMA11      010FII DAMA    CI  ER       R$  000000000100500000000010050000000000962000000000096300000000010020000000000962000000000100200033000000000000010424000000000010045119000000000000009999123100000010000000000000BRDAMACTF007102
012024081912DAMT11      010FII DIAMANTECI           R$  000000000126800000000012680000000001268000000000126800000000012680000000000850000000000125300003000000000000000128000000000000162304000000000000009999123100000010000000000000BRDAMTCTF007117
012024081912FVPQ11      010FII V PARQUECI           R$  000000000713000000000072000000000007039000000000712400000000071200000000007120000000000717000573000000000000000894000000000006369279000000000000009999123100000010000000000000BRFVPQCTF015261
012024081912IRDM11      010FII IRIDIUM CI  ER       R$  000000000718900000000072010000000007131000000000716900000000071680000000007167000000000716805746000000000000064622000000000463332260000000000000009999123100000010000000000000BRIRDMCTF004188
012024081912IRIM11      010FII IRIM    CI  ER       R$  000000000730400000000073670000000007304000000000733800000000073640000000007331000000000736400022000000000000000114000000000000836532000000000000009999123100000010000000000000BRIRIMCTF003137
012024081912ITIP11      010FII INTER IPCI           R$  000000000784900000000080560000000007526000000000786600000000078480000000007527000000000784800283000000000000001153000000000009069669000000000000009999123100000010000000000000BRITIPCTF002131
012024081912ITIT11      010FII INTER ITCI           R$  000000000754100000000075410000000007460000000000749300000000074800000000007480000000000752300337000000000000003579000000000026820324000000000000009999123100000010000000000000BRITITCTF004131
012024081912BTCI11      010FII BTG CRI CI  ER       R$  000000000099100000000009950000000000988000000000099200000000009950000000000994000000000099507026000000000000150318000000000149138567000000000000009999123100000010000000000000BRBTCICTF005122
012024081912BTHI11      010BTG HOTEL FICI           R$  000000000401900000000041690000000004019000000000407200000000041690000000004050000000000416400019000000000000000097000000000000395056000000000000009999123100000010000000000000BRBTHICTF004111
012024081912BTLG11      010FII BTLG    CI  ER       R$  000000001029900000000102990000000010229000000001026700000000102630000000010263000000001026611845000000000000084948000000000872188552000000000000009999123100000010000000000000BRBTLGCTF000165
012024081912BTRA11      010FII BTG TAGRCI           R$  000000000489500000000049320000000004869000000000489100000000048690000000004869000000000491000369000000000000004971000000000024315265000000000000009999123100000010000000000000BRBTRACTF000138
012024081912BTSG11      010FII BTSP I  CI           R$  000000001600000000000160010000000016000000000001600000000000160000000000000000000000001650000004000000000000000016000000000000256003000000000000009999123100000010000000000000BRBTSGCTF005133
012024081912BTSI11      010FII BTSP II CI           R$  000000001150000000000115000000000011500000000001150000000000115000000000000000000000001150000001000000000000000010000000000000115000000000000000009999123100000010000000000000BRBTSICTF001123
012024081912BBFI11      010FII BB PROGRCI           R$  000000006249900000000624990000000062006000000006222800000000623970000000062057000000006239700074000000000000000156000000000009707601000000000000009999123100000010000000000000BRBBFICTF006329
012024081912BBFO11      010FII BB FOF  CI           R$  000000000730000000000073390000000007279000000000729500000000072870000000007280000000000728700094000000000000005605000000000040888854000000000000009999123100000010000000000000BRBBFOCTF004143
012024081912BBIG11      010FII BBIG    CI           R$  000000000095200000000009520000000000930000000000094000000000009450000000000944000000000094700815000000000000034258000000000032235517000000000000009999123100000010000000000000BRBBIGCTF004103
012024081912ITRI11      010FII ITRI    CI           R$  000000000925100000000092640000000009185000000000923500000000092500000000009250000000000926200615000000000000011678000000000107856503000000000000009999123100000010000000000000BRITRICTF008104
012024081912APTO11      010FII NAVI RSDCI           R$  000000000095100000000009600000000000950000000000095400000000009550000000000951000000000095500191000000000000001878000000000001792597000000000000009999123100000010000000000000BRAPTOCTF007133
012024081912APXM11      010FII APEX MS CI           R$  000000000970100000000099970000000009701000000000979900000000099970000000009800000000000999800003000000000000000003000000000000029399000000000000009999123100000010000000000000BRAPXMCTF003111
012024081912AROA11      010FII AROA    CI           R$  000000000009900000000001000000000000097000000000009800000000000980000000000097000000000009800248000000000000007704000000000000758706000000000000009999123100000010000000000000BRAROACTF003120
012024081912ARRI11      010FII ATRIO   CI           R$  000000000090600000000009080000000000900000000000090400000000009040000000000902000000000090401272000000000000057063000000000051602534000000000000009999123100000010000000000000BRARRICTF009163
012024081912ARXD11      010FII ARXD R  CI           R$  000000001000000000000101000000000010000000000001005800000000101000000000010000000000001010000029000000000000000518000000000005210250000000000000009999123100000010000000000000BRARXDCTF008117
012024081912ATSA11      010FII HATRIUM CI           R$  000000000560000000000056000000000005600000000000560000000000056000000000005500000000000560000001000000000000000001000000000000005600000000000000009999123100000010000000000000BRATSACTF000144
012024081912AURB11      010FII ALI URB CI           R$  000000000835100000000083510000000008351000000000835100000000083510000000008351000000000851000001000000000000000004000000000000033404000000000000009999123100000010000000000000BRAURBCTF008117
012024081912BROF11      010FII BROF    CI  ER       R$  000000000468400000000048000000000004649000000000472400000000047470000000004710000000000474701017000000000000014008000000000066184852000000000000009999123100000010000000000000BRBROFCTF000116
012024081912CTXT11      010FII C TEXTILCI           R$  000000000079100000000008130000000000791000000000079100000000008120000000000803000000000081200008000000000000000309000000000000244585000000000000009999123100000010000000000000BRCTXTCTF014207
012024081912CVBI11      010FII VBI CRI CI  ER       R$  000000000936000000000093690000000009270000000000930800000000093250000000009325000000000932704995000000000000020157000000000187630211000000000000009999123100000010000000000000BRCVBICTF001168
012024081912EURO11      010FII EUROPAR CI           R$  000000002449000000000244990000000024111000000002426800000000242980000000024186000000002429900039000000000000000476000000000011551955000000000000009999123100000010000000000000BREUROCTF011361
