00COTAHIST.2024BOVESPA 20240807                                                                                                                                                                                                                      
012024080702HYPE3       010HYPERA      ON      NM   R$  000000000294400000000029740000000002931000000000295400000000029700000000002964000000000297108098000000000001871300000000005529358700000000000000009999123100000010000000000000BRHYPEACNOR0143
012024080702DASA3       010DASA        ON      NM   R$  000000000026400000000002720000000000263000000000026600000000002670000000000267000000000027001839000000000000861100000000000229412300000000000000009999123100000010000000000000BRDASAACNOR1122
012024080702MBLY3       010MOBLY       ON      NM   R$  000000000028100000000003030000000000281000000000029200000000002900000000000289000000000029000575000000000000508400000000000148822200000000000000009999123100000010000000000000BRMBLYACNOR5100
012024080702DESK3       010DESKTOP     ON      NM   R$  000000000164500000000017040000000001592000000000164100000000015920000000001591000000000159201464000000000000283200000000000464981100000000000000009999123100000010000000000000BRDESKACNOR2104
012024080702DEXP3       010DEXXOS PAR  ON      N1   R$  000000000101700000000010490000000001016000000000103300000000010490000000001036000000000104900213000000000000071100000000000073501600000000000000009999123100000010000000000000BRDEXPACNOR1105
012024080702DEXP4       010DEXXOS PAR  PN      N1   R$  000000000102300000000010270000000001008000000000102500000000010270000000001027000000000107700071000000000000063300000000000064928800000000000000009999123100000010000000000000BRDEXPACNPR8105
012024080702DIRR3       010DIRECIONAL  ON      NM   R$  000000000275700000000028420000000002742000000000280700000000028280000000002826000000000283510953000000000001884500000000005291228000000000000000009999123100000010000000000000BRDIRRACNOR0118
012024080702DMVF3       010D1000VFARMA ON      NM   R$  000000000076700000000007790000000000738000000000074900000000007430000000000743000000000074500497000000000000144000000000000107866900000000000000009999123100000010000000000000BRDMVFACNOR9100
012024080702DOHL4       010DOHLER      PN           R$  000000000041600000000004160000000000416000000000041600000000004160000000000404000000000041600001000000000000000100000000000000041600000000000000009999123100000010000000000000BRDOHLACNPR9066
012024080702DOTZ3       010DOTZ SA     ON      NM   R$  000000000065900000000006590000000000610000000000062600000000006100000000000610000000000061500053000000000000011800000000000007394400000000000000009999123100000010000000000000BRDOTZACNOR7101
012024080702DTCY3       010DTCOM-DIRECTON           R$  000000000068600000000006860000000000686000000000068600000000006860000000000000000000000068600001000000000000000300000000000000205800000000000000009999123100000010000000000000BRDTCYACNOR5109
012024080702DXCO3       010DEXCO       ON      NM   R$  000000000070600000000007460000000000705000000000072800000000007400000000000739000000000074209602000000000004720000000000003439361700000000000000009999123100000010000000000000BRDXCOACNOR8105
012024080702EALT3       010ACO ALTONA  ON           R$  000000000129000000000013200000000001290000000000129800000000013000000000001250000000000130000004000000000000000800000000000001038900000000000000009999123100000010000000000000BREALTACNOR4138
012024080702EALT4       010ACO ALTONA  PN           R$  000000000126700000000012970000000001265000000000128200000000012970000000001293000000000129500083000000000000033800000000000043340100000000000000009999123100000010000000000000BREALTACNPR1138
012024080702GGPS3       010GPS         ON      NM   R$  000000000178300000000018140000000001783000000000179600000000017930000000001787000000000179506795000000000002052300000000003686078300000000000000009999123100000010000000000000BRGGPSACNOR9103
012024080702GMAT3       010GRUPO MATEUSON      NM   R$  000000000071500000000007510000000000712000000000073600000000007450000000000744000000000074706071000000000004588900000000003381219200000000000000009999123100000010000000000000BRGMATACNOR7102
012024080702GOAU3       010GERDAU MET  ON      N1   R$  000000000103200000000010320000000001010000000000101600000000010200000000001012000000000102000204000000000000042500000000000043198100000000000000009999123100000010000000000000BRGOAUACNOR1267
012024080702GOAU4       010GERDAU MET  PN      N1   R$  000000000100500000000010140000000000990000000000099700000000009960000000000995000000000099707755000000000004809800000000004797616800000000000000009999123100000010000000000000BRGOAUACNPR8268
012024080702AGXY3       010AGROGALAXY  ON      NM   R$  000000000014900000000001550000000000143000000000014700000000001440000000000144000000000014500436000000000000270900000000000040033900000000000000009999123100000010000000000000BRAGXYACNOR4103
012024080702AHEB3       010SPTURIS     ON           R$  000000000309000000000035000000000003090000000000333600000000035000000000003200000000000372500004000000000000000500000000000001668000000000000000009999123100000010000000000000BRAHEBACNOR0106
012024080702ALLD3       010ALLIED      ON      NM   R$  000000000080000000000008210000000000795000000000081300000000008010000000000797000000000080600245000000000000057600000000000046863200000000000000009999123100000010000000000000BRALLDACNOR3106
012024080702SANB11      010SANTANDER BRUNT          R$  000000000285100000000028850000000002800000000000282300000000028170000000002817000000000282306016000000000001625300000000004589494800000000000000009999123100000010000000000000BRSANBCDAM13165
012024080702SANB3       010SANTANDER BRON           R$  000000000134700000000014400000000001320000000000135900000000013450000000001340000000000134500703000000000000165900000000000225563400000000000000009999123100000010000000000000BRSANBACNOR8172
012024080702SANB4       010SANTANDER BRPN           R$  000000000149400000000015090000000001471000000000148000000000014710000000001471000000000147400546000000000000086000000000000127363300000000000000009999123100000010000000000000BRSANBACNPR5172
012024080702SAPR11      010SANEPAR     UNT     N2   R$  000000000287000000000029250000000002859000000000289200000000028900000000002890000000000289603886000000000000863500000000002497998200000000000000009999123100000010000000000000BRSAPRCDAM13118
012024080702SAPR3       010SANEPAR     ON      N2   R$  000000000053400000000005470000000000513000000000053700000000005380000000000534000000000053800743000000000000243500000000000130857000000000000000009999123100000010000000000000BRSAPRACNOR9159
012024080702SAPR4       010SANEPAR     PN      N2   R$  000000000057700000000005920000000000577000000000058600000000005840000000000584000000000058501874000000000001089600000000000638685500000000000000009999123100000010000000000000BRSAPRACNPR6159
012024080702SBFG3       010GRUPO SBF   ON      NM   R$  000000000156500000000016100000000001565000000000159200000000015930000000001585000000000159304935000000000001901900000000003028650600000000000000009999123100000010000000000000BRSBFGACNOR1103
012024080702UNIP3       010UNIPAR      ON           R$  000000000505000000000050500000000004960000000000500200000000049800000000004975000000000502000043000000000000004400000000000022011000000000000000009999123100000010000000000000BRUNIPACNOR7206
012024080702UNIP6       010UNIPAR      PNB          R$  000000000505800000000051730000000005000000000000504100000000050500000000005045000000000505001920000000000000412000000000002077271200000000000000009999123100000010000000000000BRUNIPACNPB8206
012024080702YDUQ3       010YDUQS PART  ON      NM   R$  000000000103700000000010920000000001037000000000107200000000010800000000001078000000000108011891000000000004438300000000004759737600000000000000009999123100000010000000000000BRYDUQACNOR3105
012024080702WHRL3       010WHIRLPOOL   ON           R$  000000000043900000000004660000000000426000000000044400000000004260000000000427000000000044600017000000000000002400000000000001067600000000000000009999123100000010000000000000BRWHRLACNOR5128
012024080702WHRL4       010WHIRLPOOL   PN           R$  000000000044300000000004450000000000438000000000044300000000004400000000000441000000000044800009000000000000005200000000000002306800000000000000009999123100000010000000000000BRWHRLACNPR2128
012024080702WIZC3       010WIZ CO      ON      NM   R$  000000000058900000000006000000000000587000000000059300000000005920000000000591000000000059201221000000000000276000000000000163734600000000000000009999123100000010000000000000BRWIZCACNOR5102
012024080702PDGR3       010PDG REALT   ON  ES  NM   R$  000000000001900000000000200000000000018000000000001800000000000180000000000018000000000001900354000000000002654400000000000049931000000000000000009999123100000010000000000000BRPDGRACNOR8119
012024080702PDTC3       010PADTEC      ON      NM   R$  000000000018300000000001940000000000181000000000018900000000001940000000000191000000000019400099000000000000089400000000000016972500000000000000009999123100000010000000000000BRPDTCACNOR3101
012024080702PEAB3       010PAR AL BAHIAON           R$  000000000430100000000043010000000004300000000000430000000000043000000000004300000000000445000002000000000000000200000000000000860100000000000000009999123100000010000000000000BRPEABACNOR3133
012024080702PETR3       010PETROBRAS   ON      N2   R$  000000000395100000000039580000000003885000000000391200000000039060000000003903000000000390913362000000000005453200000000021333018700000000000000009999123100000010000000000000BRPETRACNOR9205
012024080702PETR4       010PETROBRAS   PN      N2   R$  000000000367000000000036750000000003600000000000363000000000036270000000003625000000000362750603000000000025020500000000090843647700000000000000009999123100000010000000000000BRPETRACNPR6213
012024080702PFRM3       010PROFARMA    ON      NM   R$  000000000059300000000006290000000000590000000000061500000000006150000000000611000000000061501705000000000000367200000000000226053900000000000000009999123100000010000000000000BRPFRMACNOR1116
012024080702PGMN3       010PAGUE MENOS ON      NM   R$  000000000027200000000002850000000000269000000000028100000000002840000000000283000000000028403701000000000002631000000000000739704500000000000000009999123100000010000000000000BRPGMNACNOR8103
012024080702PINE3       010PINE        ON      N2   R$  000000000059000000000005900000000000589000000000058900000000005900000000000510000000000059800003000000000000000400000000000000235900000000000000009999123100000010000000000000BRPINEACNOR1150
012024080702PINE4       010PINE        PN      N2   R$  000000000042500000000004280000000000420000000000042400000000004270000000000425000000000042700220000000000000077900000000000033040100000000000000009999123100000010000000000000BRPINEACNPR8150
012024080702PLPL3       010PLANOEPLANO ON      NM   R$  000000000117500000000012260000000001175000000000120400000000012240000000001215000000000122403011000000000000954300000000001149060100000000000000009999123100000010000000000000BRPLPLACNOR5104
012024080702BIOM3       010BIOMM       ON      MA   R$  000000000092400000000009400000000000870000000000089300000000008780000000000873000000000087800490000000000000084800000000000075795600000000000000009999123100000010000000000000BRBIOMACNOR2112
012024080702KRSA3       010KORA SAUDE  ON      NM   R$  000000000007800000000000780000000000077000000000007700000000000770000000000077000000000007800074000000000000071500000000000005526900000000000000009999123100000010000000000000BRKRSAACNOR0100
012024080702LAND3       010TERRASANTAPAON      NM   R$  000000000138400000000014190000000001341000000000138500000000013410000000001341000000000135900099000000000000016400000000000022717200000000000000009999123100000010000000000000BRLANDACNOR9103
012024080702LAVV3       010LAVVI       ON      NM   R$  000000000086900000000008750000000000851000000000086200000000008690000000000868000000000086901792000000000000405100000000000349399200000000000000009999123100000010000000000000BRLAVVACNOR4112
012024080702LEVE3       010METAL LEVE  ON      NM   R$  000000000328100000000033310000000003266000000000329900000000033120000000003300000000000331502098000000000000346400000000001142915500000000000000009999123100000010000000000000BRLEVEACNOR2197
012024080702LJQQ3       010QUERO-QUERO ON      NM   R$  000000000038200000000004060000000000382000000000039200000000004020000000000402000000000040408043000000000006945400000000002724039900000000000000009999123100000010000000000000BRLJQQACNOR5104
012024080702LOGG3       010LOG COM PROPON      NM   R$  000000000221600000000022690000000002216000000000225200000000022670000000002260000000000227602698000000000000588500000000001325740400000000000000009999123100000010000000000000BRLOGGACNOR7107
012024080702LOGN3       010LOG-IN      ON      NM   R$  000000000374000000000038660000000003637000000000371400000000038660000000003750000000000386600105000000000000014300000000000053120200000000000000009999123100000010000000000000BRLOGNACNOR3105
012024080702LPSB3       010LOPES BRASILON      NM   R$  000000000017500000000001780000000000172000000000017500000000001720000000000173000000000017500142000000000000054300000000000009516600000000000000009999123100000010000000000000BRLPSBACNOR0114
012024080702LREN3       010LOJAS RENNERON      NM   R$  000000000144100000000014680000000001428000000000145100000000014600000000001459000000000146040715000000000019799400000000028732627700000000000000009999123100000010000000000000BRLRENACNOR1221
012024080702MTRE3       010MITRE REALTYON      NM   R$  000000000038800000000003930000000000384000000000038800000000003900000000000389000000000039002214000000000000740500000000000287456800000000000000009999123100000010000000000000BRMTREACNOR6113
012024080702MTSA4       010METISA      PN           R$  000000000440000000000044000000000004290000000000433500000000042900000000004232000000000430000017000000000000003500000000000015172500000000000000009999123100000010000000000000BRMTSAACNPR9072
012024080702MULT3       010MULTIPLAN   ON      N2   R$  000000000257500000000025930000000002539000000000256900000000025680000000002566000000000256819417000000000004930000000000012667713500000000000000009999123100000010000000000000BRMULTACNOR5139
012024080702MYPK3       010IOCHP-MAXIONON      NM   R$  000000000112500000000011600000000001122000000000113700000000011400000000001139000000000114706718000000000001403200000000001595943900000000000000009999123100000010000000000000BRMYPKACNOR7155
012024080702NEOE3       010NEOENERGIA  ON      NM   R$  000000000181000000000018760000000001810000000000183500000000018480000000001834000000000184903364000000000000960900000000001763806200000000000000009999123100000010000000000000BRNEOEACNOR3123
012024080702TFCO4       010TRACK FIELD PN      N2   R$  000000000112500000000011500000000001118000000000113600000000011500000000001130000000000115000506000000000000115800000000000131642100000000000000009999123100000010000000000000BRTFCOACNPR8114
012024080702TGMA3       010TEGMA       ON      NM   R$  000000000265200000000026520000000002566000000000259900000000025980000000002590000000000259801032000000000000166700000000000433413800000000000000009999123100000010000000000000BRTGMAACNOR7144
012024080702TIMS3       010TIM         ON      NM   R$  000000000171400000000017520000000001714000000000174000000000017380000000001736000000000174011183000000000005789800000000010079782100000000000000009999123100000010000000000000BRTIMSACNOR5117
012024080702TOTS3       010TOTVS       ON  EJ  NM   R$  000000000273900000000027530000000002699000000000273100000000027430000000002743000000000274411780000000000002505100000000006843306100000000000000009999123100000010000000000000BRTOTSACNOR8145
012024080702VTRU3       010VITRUEDUCA  ON      NM   R$  000000000128200000000013130000000001230000000000127100000000013130000000001258000000000131300221000000000000038400000000000048828500000000000000009999123100000010000000000000BRVTRUACNOR3100
012024080702VULC3       010VULCABRAS   ON      NM   R$  000000000160000000000017450000000001600000000000169400000000017400000000001734000000000174011182000000000002641300000000004476477300000000000000009999123100000010000000000000BRVULCACNOR2159
012024080702VVEO3       010VIVEO       ON      NM   R$  000000000024900000000002660000000000237000000000025300000000002560000000000256000000000025905445000000000003874800000000000982522500000000000000009999123100000010000000000000BRVVEOACNOR0104
012024080702WEGE3       010WEG         ON  ED  NM   R$  000000000491200000000049140000000004817000000000485500000000048320000000004832000000000483319621000000000004746100000000023046360600000000000000009999123100000010000000000000BRWEGEACNOR0224
012024080702NGRD3       010NEOGRID     ON      NM   R$  000000000011300000000001180000000000113000000000011500000000001180000000000117000000000011800580000000000000725900000000000083983400000000000000009999123100000010000000000000BRNGRDACNOR3104
012024080702NINJ3       010GETNINJAS   ON      NM   R$  000000000047600000000004780000000000465000000000047100000000004770000000000466000000000047900081000000000000031000000000000014608300000000000000009999123100000010000000000000BRNINJACNOR5101
012024080702NORD3       010NORDON MET  ON           R$  000000000088200000000008900000000000882000000000088400000000008900000000000882000000000091000002000000000000000300000000000000265400000000000000009999123100000010000000000000BRNORDACNOR7135
012024080702NTCO3       010GRUPO NATURAON      NM   R$  000000000153600000000015810000000001516000000000155600000000015810000000001578000000000158115558000000000005717300000000008896309300000000000000009999123100000010000000000000BRNTCOACNOR5106
012024080702RECV3       010PETRORECSA  ON      NM   R$  000000000202800000000020280000000001974000000000199300000000019890000000001989000000000199003871000000000001022700000000002039058800000000000000009999123100000010000000000000BRRECVACNOR3107
012024080702REDE3       010REDE ENERGIAON           R$  000000000069100000000006930000000000683000000000068800000000006830000000000684000000000068800016000000000000002400000000000001651900000000000000009999123100000010000000000000BRREDEACNOR7128
012024080702RENT3       010LOCALIZA    ON      NM   R$  000000000459400000000048820000000004550000000000475800000000048550000000004855000000000485954642000000000022910600000000109030567400000000000000009999123100000010000000000000BRRENTACNOR4196
012024080702VAMO3       010VAMOS       ON      NM   R$  000000000082100000000008360000000000810000000000082300000000008320000000000832000000000083321478000000000013715500000000011296023000000000000000009999123100000010000000000000BRVAMOACNOR7105
012024080702VBBR3       010VIBRA       ON      NM   R$  000000000238900000000024170000000002303000000000237900000000024100000000002402000000000241128099000000000010024200000000023857236300000000000000009999123100000010000000000000BRVBBRACNOR1108
012024080702MRFG3       010MARFRIG     ON      NM   R$  000000000113000000000011440000000001120000000000113400000000011370000000001137000000000113809658000000000003176200000000003603395100000000000000009999123100000010000000000000BRMRFGACNOR0116
012024080702RANI3       010IRANI       ON      NM   R$  000000000081400000000008140000000000801000000000080500000000008040000000000804000000000080602931000000000000669100000000000538970800000000000000009999123100000010000000000000BRRANIACNOR5072
012024080702RAPT3       010RANDON PART ON      N1   R$  000000000087600000000008880000000000864000000000087300000000008650000000000864000000000086500144000000000000032200000000000028117300000000000000009999123100000010000000000000BRRAPTACNOR7163
012024080702RAPT4       010RANDON PART PN      N1   R$  000000000106200000000010810000000001039000000000105600000000010470000000001046000000000105402718000000000000851200000000000899101000000000000000009999123100000010000000000000BRRAPTACNPR4163
012024080702ZAMP3       010ZAMP S.A.   ON  ES       R$  000000000032100000000003320000000000321000000000032500000000003250000000000325000000000032801467000000000000463800000000000150887900000000000000009999123100000010000000000000BRZAMPACNOR5101
012024080702PORT3       010WILSON SONS ON      NM   R$  000000000158800000000016030000000001578000000000158900000000015880000000001588000000000159701584000000000000251600000000000399991800000000000000009999123100000010000000000000BRPORTACNOR8109
012024080702POSI3       010POSITIVO TECON      NM   R$  000000000067400000000006960000000000674000000000068600000000006900000000000690000000000069103081000000000001409300000000000967921700000000000000009999123100000010000000000000BRPOSIACNOR9116
012024080702PRIO3       010PETRORIO    ON      NM   R$  000000000450600000000045390000000004416000000000448400000000045070000000004500000000000450728395000000000010045600000000045048101600000000000000009999123100000010000000000000BRPRIOACNOR1107
012024080702RSUL4       010RIOSULENSE  PN           R$  000000000597900000000060780000000005970000000000599900000000060050000000006000000000000605000030000000000000004000000000000023998700000000000000009999123100000010000000000000BRRSULACNPR3114
012024080702PRNR3       010PRINER      ON      NM   R$  000000000100900000000010290000000001009000000000102000000000010290000000001016000000000102900644000000000000115400000000000117783000000000000000009999123100000010000000000000BRPRNRACNOR4109
012024080702PSSA3       010PORTO SEGUROON      NM   R$  000000000306800000000030940000000003054000000000307100000000030730000000003070000000000307704370000000000000816500000000002508233100000000000000009999123100000010000000000000BRPSSAACNOR7155
012024080702PTBL3       010PORTOBELLO  ON      NM   R$  000000000042700000000004550000000000427000000000044300000000004550000000000454000000000045502010000000000000778500000000000345615700000000000000009999123100000010000000000000BRPTBLACNOR8132
012024080702PTNT3       010PETTENATI   ON           R$  000000000094800000000009480000000000917000000000092700000000009180000000000907000000000091700005000000000000000500000000000000463800000000000000009999123100000010000000000000BRPTNTACNOR6042
012024080702PTNT4       010PETTENATI   PN           R$  000000000062900000000006290000000000615000000000061900000000006150000000000615000000000062900010000000000000002500000000000001547500000000000000009999123100000010000000000000BRPTNTACNPR3047
012024080702QUAL3       010QUALICORP   ON      NM   R$  000000000014700000000001560000000000147000000000015200000000001520000000000151000000000015203849000000000004034500000000000615216100000000000000009999123100000010000000000000BRQUALACNOR6120
012024080702SBSP3       010SABESP      ON      NM   R$  000000000900000000000091980000000008980000000000910900000000091890000000009181000000000918917289000000000006814500000000062077234100000000000000009999123100000010000000000000BRSBSPACNOR5161
012024080702SCAR3       010SAO CARLOS  ON      NM   R$  000000000228900000000023010000000002280000000000229100000000023000000000002300000000000230900023000000000000003500000000000008019900000000000000009999123100000010000000000000BRSCARACNOR7131
012024080702SEER3       010SER EDUCA   ON      NM   R$  000000000049900000000005150000000000496000000000050700000000005090000000000506000000000050900822000000000000245100000000000124287400000000000000009999123100000010000000000000BRSEERACNOR5119
012024080702USIM3       010USIMINAS    ON      N1   R$  000000000056800000000005740000000000558000000000056300000000005600000000000560000000000056401427000000000000638400000000000359634400000000000000009999123100000010000000000000BRUSIMACNOR3167
012024080702USIM5       010USIMINAS    PNA     N1   R$  000000000058300000000005850000000000571000000000057600000000005730000000000573000000000057415623000000000012582400000000007251552500000000000000009999123100000010000000000000BRUSIMACNPA6169
012024080702WLMM4       010WLM IND COM PN           R$  000000000300900000000031310000000003000000000000301100000000030000000000003000000000000311800012000000000000001300000000000003915400000000000000009999123100000010000000000000BRWLMMACNPR3118
012024080702GEPA4       010GER PARANAP PN           R$  000000000257500000000026000000000002551000000000257400000000026000000000002576000000000260000004000000000000000400000000000001029600000000000000009999123100000010000000000000BRGEPAACNPR9160
012024080702GFSA3       010GAFISA      ON      NM   R$  000000000028400000000003100000000000283000000000029500000000002880000000000288000000000029005097000000000009116800000000002695945500000000000000009999123100000010000000000000BRGFSAACNOR3124
012024080702MAPT3       010CEMEPE      ON           R$  000000000047900000000005000000000000450000000000048100000000004500000000000412000000000050000005000000000000000500000000000000240900000000000000009999123100000010000000000000BRMAPTACNOR8106
012024080702MAPT4       010CEMEPE      PN           R$  000000000062000000000006300000000000575000000000060000000000005750000000000550000000000057500003000000000000000400000000000000240000000000000000009999123100000010000000000000BRMAPTACNPR5106
012024080702MATD3       010MATER DEI   ON      NM   R$  000000000045200000000004750000000000451000000000046300000000004750000000000469000000000047501360000000000000591300000000000274108400000000000000009999123100000010000000000000BRMATDACNOR4104
012024080702B3SA3       010B3          ON      NM   R$  000000000109800000000011170000000001092000000000110800000000011140000000001113000000000111445151000000000026401800000000029261275600000000000000009999123100000010000000000000BRB3SAACNOR6133
012024080702FRAS3       010FRAS-LE     ON      N1   R$  000000000180500000000018560000000001805000000000182200000000018200000000001818000000000182003125000000000000608300000000001108861700000000000000009999123100000010000000000000BRFRASACNOR0160
012024080702CPFE3       010CPFL ENERGIAON      NM   R$  000000000328700000000033200000000003270000000000329400000000032900000000003284000000000329006144000000000001429500000000004709882000000000000000009999123100000010000000000000BRCPFEACNOR0137
012024080702CPLE3       010COPEL       ON      N2   R$  000000000091500000000009220000000000909000000000091400000000009150000000000914000000000091604656000000000003810100000000003485840300000000000000009999123100000010000000000000BRCPLEACNOR8149
012024080702CPLE6       010COPEL       PNB     N2   R$  000000000101400000000010250000000001003000000000101200000000010130000000001012000000000101315464000000000012340600000000012499919400000000000000009999123100000010000000000000BRCPLEACNPB9146
012024080702CRFB3       010CARREFOUR BRON      NM   R$  000000000093000000000009740000000000928000000000096000000000009740000000000969000000000097414549000000000007622500000000007321553100000000000000009999123100000010000000000000BRCRFBACNOR2116
012024080702CRPG5       010CRISTAL     PNA          R$  000000000294500000000029450000000002901000000000292300000000029010000000002900000000000292500006000000000000000600000000000001754200000000000000009999123100000010000000000000BRCRPGACNPA3119
012024080702ELMD3       010ELETROMIDIA ON      NM   R$  000000000188000000000019000000000001842000000000187500000000018880000000001870000000000189700350000000000000041200000000000077270600000000000000009999123100000010000000000000BRELMDACNOR3101
012024080702JSLG3       010JSL         ON      NM   R$  000000000090100000000009340000000000892000000000090700000000009060000000000906000000000091202981000000000000862900000000000782720200000000000000009999123100000010000000000000BRJSLGACNOR2121
012024080702BBSE3       010BBSEGURIDADEON      NM   R$  000000000350000000000035230000000003481000000000349900000000035070000000003500000000000350810667000000000002867100000000010034235400000000000000009999123100000010000000000000BRBBSEACNOR5124
012024080702BPAC11      010BTGP BANCO  UNT     N2   R$  000000000325000000000033550000000003241000000000331900000000033550000000003346000000000335528215000000000009459100000000031403192000000000000000009999123100000010000000000000BRBPACUNT006119
012024080702BPAC3       010BTGP BANCO  ON      N2   R$  000000000156100000000016280000000001554000000000159500000000015940000000001540000000000159400080000000000000011900000000000018990400000000000000009999123100000010000000000000BRBPACACNOR7134
012024080702BPAC5       010BTGP BANCO  PNA     N2   R$  000000000082500000000008700000000000825000000000085400000000008600000000000831000000000087000074000000000000014400000000000012311600000000000000009999123100000010000000000000BRBPACACNPA0134
012024080702BLAU3       010BLAU        ON      NM   R$  000000000108700000000011590000000001058000000000110900000000011300000000001126000000000113001988000000000000629400000000000698100100000000000000009999123100000010000000000000BRBLAUACNOR8114
012024080702BRIT3       010BRISANET    ON      NM   R$  000000000037800000000003930000000000378000000000038400000000003890000000000388000000000038900674000000000000460400000000000176926000000000000000009999123100000010000000000000BRBRITACNOR0103
012024080702FHER3       010FER HERINGERON      NM   R$  000000000044200000000004540000000000433000000000043600000000004380000000000431000000000043500038000000000000007300000000000003189000000000000000009999123100000010000000000000BRFHERACNOR5103
012024080702FIEI3       010FICA        ON           R$  000000000118500000000011850000000001185000000000118500000000011850000000001185000000000125000001000000000000000200000000000000237000000000000000009999123100000010000000000000BRFIEIACNOR2100
012024080702FIQE3       010UNIFIQUE    ON      NM   R$  000000000033800000000003380000000000334000000000033500000000003350000000000335000000000033600906000000000000934700000000000313253200000000000000009999123100000010000000000000BRFIQEACNOR5107
012024080702FLRY3       010FLEURY      ON      NM   R$  000000000152000000000015310000000001504000000000151700000000015310000000001526000000000153109956000000000001956700000000002970250900000000000000009999123100000010000000000000BRFLRYACNOR5138
012024080702TPIS3       010TRIUNFO PARTON      NM   R$  000000000036500000000003750000000000364000000000037000000000003750000000000371000000000037500076000000000000011200000000000004151900000000000000009999123100000010000000000000BRTPISACNOR8118
012024080702TRAD3       010TC          ON      NM   R$  000000000036400000000003650000000000351000000000035600000000003520000000000352000000000035700146000000000000027800000000000009912300000000000000009999123100000010000000000000BRTRADACNOR3102
012024080702TRIS3       010TRISUL      ON      NM   R$  000000000045600000000004720000000000456000000000046600000000004670000000000466000000000047300837000000000000222900000000000103919000000000000000009999123100000010000000000000BRTRISACNOR4118
012024080702TRPL3       010TRAN PAULISTON      N1   R$  000000000320000000000032340000000003200000000000323000000000032340000000003204000000000323400018000000000000004500000000000014535000000000000000009999123100000010000000000000BRTRPLACNOR4185
012024080702TRPL4       010TRAN PAULISTPN      N1   R$  000000000243100000000024380000000002412000000000242500000000024220000000002421000000000242208975000000000002356500000000005716541500000000000000009999123100000010000000000000BRTRPLACNPR1185
012024080702SHOW3       010TIME FOR FUNON      NM   R$  000000000015200000000001600000000000152000000000015500000000001570000000000157000000000015800301000000000000121000000000000018875200000000000000009999123100000010000000000000BRSHOWACNOR7105
012024080702SHUL4       010SCHULZ      PN           R$  000000000062300000000006480000000000623000000000063500000000006400000000000640000000000064800397000000000000167800000000000106632900000000000000009999123100000010000000000000BRSHULACNPR4156
012024080702SIMH3       010SIMPAR      ON      NM   R$  000000000062900000000006820000000000622000000000065800000000006710000000000665000000000067209618000000000005926500000000003904343100000000000000009999123100000010000000000000BRSIMHACNOR0107
012024080702SLCE3       010SLC AGRICOLAON      NM   R$  000000000178000000000017920000000001775000000000178400000000017850000000001785000000000178704368000000000001046800000000001867522500000000000000009999123100000010000000000000BRSLCEACNOR2125
012024080702VALE3       010VALE        ON  EJ  NM   R$  000000000573100000000057590000000005702000000000573000000000057200000000005719000000000572246776000000000019243400000000110283329900000000000000009999123100000010000000000000BRVALEACNOR0211
012024080702PNVL3       010DIMED       ON      NM   R$  000000000103200000000010550000000001013000000000104100000000010520000000001045000000000105202248000000000000358800000000000373834500000000000000009999123100000010000000000000BRPNVLACNOR9207
012024080702POMO3       010MARCOPOLO   ON      N2   R$  000000000056600000000005890000000000566000000000058000000000005750000000000575000000000057700869000000000000346900000000000201414600000000000000009999123100000010000000000000BRPOMOACNOR0098
012024080702POMO4       010MARCOPOLO   PN      N2   R$  000000000074000000000007680000000000731000000000074300000000007310000000000731000000000073818173000000000010654200000000007916630900000000000000009999123100000010000000000000BRPOMOACNPR7098
012024080702KEPL3       010KEPLER WEBERON      NM   R$  000000000105000000000010860000000001050000000000107500000000010800000000001075000000000108003960000000000001432500000000001540488100000000000000009999123100000010000000000000BRKEPLACNOR1063
012024080702KLBN11      010KLABIN S/A  UNT ED  N2   R$  000000000208900000000020890000000002058000000000206800000000020610000000002061000000000206211282000000000002842800000000005881664700000000000000009999123100000010000000000000BRKLBNCDAM18143
012024080702KLBN3       010KLABIN S/A  ON  ED  N2   R$  000000000042000000000004200000000000414000000000041600000000004140000000000414000000000041601421000000000000371300000000000154564400000000000000009999123100000010000000000000BRKLBNACNOR2171
012024080702KLBN4       010KLABIN S/A  PN  ED  N2   R$  000000000041700000000004180000000000413000000000041500000000004140000000000413000000000041402809000000000001437100000000000596603900000000000000009999123100000010000000000000BRKLBNACNPR9171
012024080702MRSA3B      010MRS LOGIST  ON      MB   R$  000000000329900000000032990000000003299000000000329900000000032990000000003000000000000350000001000000000000000200000000000000659800000000000000009999123100000010000000000000BRMRSAACNOR6125
012024080702MRVE3       010MRV         ON      NM   R$  000000000064400000000006830000000000641000000000066900000000006750000000000675000000000067611191000000000017435300000000011666563800000000000000009999123100000010000000000000BRMRVEACNOR2127
012024080702ROMI3       010ROMI        ON      NM   R$  000000000104000000000010660000000001040000000000105800000000010570000000001056000000000105700671000000000000105200000000000111365900000000000000009999123100000010000000000000BRROMIACNOR8195
012024080702RRRP3       0103R PETROLEUMON      NM   R$  000000000273100000000027550000000002686000000000271900000000027370000000002720000000000273713792000000000004610500000000012537191900000000000000009999123100000010000000000000BRRRRPACNOR5103
012024080702TASA3       010TAURUS ARMASON      N2   R$  000000000112000000000011410000000001115000000000112900000000011360000000001123000000000114000106000000000000015200000000000017166300000000000000009999123100000010000000000000BRTASAACNOR7104
012024080702TASA4       010TAURUS ARMASPN      N2   R$  000000000111200000000011340000000001110000000000112100000000011200000000001118000000000112300933000000000000183500000000000205745800000000000000009999123100000010000000000000BRTASAACNPR4104
012024080702TCSA3       010TECNISA     ON      NM   R$  000000000020500000000002140000000000205000000000021000000000002110000000000210000000000021200135000000000000059600000000000012551300000000000000009999123100000010000000000000BRTCSAACNOR3112
012024080702TECN3       010TECHNOS     ON      NM   R$  000000000050500000000005240000000000505000000000051300000000005240000000000520000000000052400159000000000000058500000000000030042700000000000000009999123100000010000000000000BRTECNACNOR6109
012024080702TELB3       010TELEBRAS    ON           R$  000000000139700000000014090000000001375000000000138500000000013750000000001370000000000137500011000000000000001500000000000002078900000000000000009999123100000010000000000000BRTELBACNOR2140
012024080702TELB4       010TELEBRAS    PN           R$  000000000105500000000010680000000001049000000000105500000000010610000000001060000000000106200027000000000000003800000000000004010500000000000000009999123100000010000000000000BRTELBACNPR9140
012024080702TEND3       010TENDA       ON      NM   R$  000000000129200000000013540000000001292000000000133500000000013400000000001340000000000134108026000000000002502900000000003342111800000000000000009999123100000010000000000000BRTENDACNOR4111
012024080702AZZA3       010AZZAS 2154  ON      NM   R$  000000000500000000000051610000000004990000000000506600000000050320000000005032000000000503904473000000000001129200000000005721489000000000000000009999123100000010000000000000BRAZZAACNOR9100
012024080702EKTR4       010ELEKTRO     PN           R$  000000000425500000000042550000000004255000000000425500000000042550000000004161000000000425500002000000000000000200000000000000851000000000000000009999123100000010000000000000BREKTRACNPR7164
012024080702ELET3       010ELETROBRAS  ON      N1   R$  000000000378500000000038000000000003748000000000377600000000037820000000003776000000000378419684000000000005645900000000021319934700000000000000009999123100000010000000000000BRELETACNOR6160
012024080702ELET6       010ELETROBRAS  PNB     N1   R$  000000000419200000000042250000000004180000000000420300000000041990000000004196000000000419903579000000000000697400000000002931605800000000000000009999123100000010000000000000BRELETACNPB7077
012024080702HBOR3       010HELBOR      ON      NM   R$  000000000022200000000002280000000000219000000000022200000000002250000000000225000000000022700395000000000000243200000000000054151300000000000000009999123100000010000000000000BRHBORACNOR3118
012024080702HBRE3       010HBR REALTY  ON      NM   R$  000000000053200000000005380000000000524000000000053100000000005340000000000534000000000053500850000000000000289400000000000153682100000000000000009999123100000010000000000000BRHBREACNOR4100
012024080702HBSA3       010HIDROVIAS   ON      NM   R$  000000000035100000000003750000000000351000000000036800000000003740000000000370000000000037403774000000000001623800000000000598670000000000000000009999123100000010000000000000BRHBSAACNOR0100
012024080702TTEN3       0103TENTOS     ON      NM   R$  000000000102300000000010360000000001020000000000102800000000010300000000001026000000000103104298000000000000614500000000000631767300000000000000009999123100000010000000000000BRTTENACNOR0103
012024080702TUPY3       010TUPY        ON      NM   R$  000000000248000000000025160000000002445000000000248900000000025160000000002500000000000251702586000000000000410300000000001021535500000000000000009999123100000010000000000000BRTUPYACNOR1184
012024080702UCAS3       010UNICASA     ON      NM   R$  000000000022700000000002320000000000227000000000022800000000002270000000000227000000000022800063000000000000023300000000000005327400000000000000009999123100000010000000000000BRUCASACNOR1113
012024080702UGPA3       010ULTRAPAR    ON      NM   R$  000000000223000000000023890000000002219000000000231700000000023890000000002377000000000238922018000000000011822600000000027394676700000000000000009999123100000010000000000000BRUGPAACNOR8155
012024080702WEST3       010WESTWING    ON      NM   R$  000000000009000000000000940000000000090000000000009100000000000930000000000092000000000009300081000000000000062100000000000005698700000000000000009999123100000010000000000000BRWESTACNOR3100
012024080702EMAE4       010EMAE        PN           R$  000000000410000000000041000000000004011000000000405000000000040510000000004050000000000408400015000000000000001600000000000006480100000000000000009999123100000010000000000000BREMAEACNPR1125
012024080702EMBR3       010EMBRAER     ON      NM   R$  000000000387000000000038800000000003780000000000382600000000038130000000003813000000000381720653000000000006016200000000023019597200000000000000009999123100000010000000000000BREMBRACNOR4191
012024080702BRKM3       010BRASKEM     ON      N1   R$  000000000169700000000017230000000001681000000000169800000000016850000000001685000000000172400051000000000000009700000000000016472500000000000000009999123100000010000000000000BRBRKMACNOR1119
012024080702BRKM5       010BRASKEM     PNA     N1   R$  000000000161100000000016760000000001611000000000164800000000016690000000001669000000000167008667000000000002833000000000004668829500000000000000009999123100000010000000000000BRBRKMACNPA4121
012024080702BRSR3       010BANRISUL    ON      N1   R$  000000000120600000000012270000000001192000000000120200000000012050000000001195000000000122700028000000000000003800000000000004569200000000000000009999123100000010000000000000BRBRSRACNOR3188
012024080702BRSR6       010BANRISUL    PNB     N1   R$  000000000112600000000011410000000001123000000000113100000000011380000000001137000000000113804421000000000000753700000000000852485500000000000000009999123100000010000000000000BRBRSRACNPB4191
012024080702CURY3       010CURY S/A    ON      NM   R$  000000000218100000000022840000000002133000000000224700000000022710000000002267000000000227212165000000000002896300000000006508351800000000000000009999123100000010000000000000BRCURYACNOR3109
012024080702CVCB3       010CVC BRASIL  ON      NM   R$  000000000017300000000001900000000000173000000000018200000000001880000000000187000000000018806946000000000021816600000000003973125300000000000000009999123100000010000000000000BRCVCBACNOR1116
012024080702JHSF3       010JHSF PART   ON  ED  NM   R$  000000000040500000000004070000000000401000000000040300000000004060000000000405000000000040603528000000000003016800000000001217561900000000000000009999123100000010000000000000BRJHSFACNOR2138
012024080702MILS3       010MILLS       ON      NM   R$  000000000108000000000011000000000001072000000000108800000000010960000000001090000000000109703759000000000000687400000000000748289300000000000000009999123100000010000000000000BRMILSACNOR2127
012024080702MLAS3       010MULTILASER  ON      NM   R$  000000000019300000000002000000000000193000000000019700000000002000000000000198000000000020003259000000000003297700000000000651641200000000000000009999123100000010000000000000BRMLASACNOR9101
012024080702MNPR3       010MINUPAR     ON           R$  000000000136900000000013700000000001369000000000136900000000013700000000001311000000000136700004000000000000000600000000000000821600000000000000009999123100000010000000000000BRMNPRACNOR5122
012024080702MOVI3       010MOVIDA      ON      NM   R$  000000000069300000000007400000000000681000000000072300000000007360000000000735000000000073619451000000000015240000000000011019454300000000000000009999123100000010000000000000BRMOVIACNOR0122
012024080702ASAI3       010ASSAI       ON      NM   R$  000000000101300000000010430000000001003000000000102600000000010300000000001029000000000103022207000000000011423100000000011724608200000000000000009999123100000010000000000000BRASAIACNOR0106
012024080702ATOM3       010ATOMPAR     ON           R$  000000000019700000000001970000000000192000000000019400000000001950000000000195000000000019700009000000000000001800000000000000349900000000000000009999123100000010000000000000BRATOMACNOR1106
012024080702AURE3       010AUREN       ON      NM   R$  000000000116100000000011690000000001146000000000115300000000011460000000001146000000000114909581000000000003309400000000003818678200000000000000009999123100000010000000000000BRAUREACNOR9104
012024080702AVLL3       010ALPHAVILLE  ON      NM   R$  000000000036000000000003930000000000360000000000038700000000003930000000000340000000000039400014000000000000002700000000000001046600000000000000009999123100000010000000000000BRAVLLACNOR5103
012024080702AZEV3       010AZEVEDO     ON           R$  000000000014500000000001500000000000145000000000014700000000001470000000000147000000000014800373000000000000568100000000000083785500000000000000009999123100000010000000000000BRAZEVACNOR0121
012024080702AZEV4       010AZEVEDO     PN           R$  000000000014400000000001510000000000144000000000014700000000001480000000000147000000000014801257000000000002757100000000000405929200000000000000009999123100000010000000000000BRAZEVACNPR7121
012024080702AZUL4       010AZUL        PN      N2   R$  000000000080100000000008080000000000775000000000078600000000007780000000000778000000000077912207000000000016817900000000013233033800000000000000009999123100000010000000000000BRAZULACNPR4102
012024080702CMIN3       010CSNMINERACAOON      N2   R$  000000000048800000000004920000000000482000000000048500000000004820000000000482000000000048508600000000000006534900000000003170349500000000000000009999123100000010000000000000BRCMINACNOR2111
012024080702COCE5       010COELCE      PNA          R$  000000000313200000000031890000000003122000000000314300000000031400000000003140000000000320000018000000000000002200000000000006915600000000000000009999123100000010000000000000BRCOCEACNPA3147
012024080702COGN3       010COGNA ON    ON      NM   R$  000000000014800000000001570000000000148000000000015200000000001540000000000154000000000015513514000000000031807300000000004851899100000000000000009999123100000010000000000000BRCOGNACNOR2104
012024080702ECOR3       010ECORODOVIAS ON      NM   R$  000000000077400000000007950000000000772000000000078200000000007800000000000777000000000078107331000000000003644000000000002852169300000000000000009999123100000010000000000000BRECORACNOR8120
012024080702EGIE3       010ENGIE BRASILON      NM   R$  000000000441000000000044320000000004390000000000441100000000044120000000004412000000000441302908000000000000508400000000002242991600000000000000009999123100000010000000000000BREGIEACNOR9126
012024080702GRND3       010GRENDENE    ON      NM   R$  000000000058500000000006050000000000585000000000059800000000006050000000000603000000000060502391000000000000838400000000000501947200000000000000009999123100000010000000000000BRGRNDACNOR3174
012024080702GUAR3       010GUARARAPES  ON      NM   R$  000000000073000000000007600000000000730000000000075200000000007560000000000755000000000075604650000000000001560300000000001174357500000000000000009999123100000010000000000000BRGUARACNOR4173
012024080702HAGA3       010HAGA S/A    ON           R$  000000000025900000000002610000000000250000000000025400000000002540000000000254000000000026000087000000000000032600000000000008299500000000000000009999123100000010000000000000BRHAGAACNOR7103
012024080702HAGA4       010HAGA S/A    PN           R$  000000000011600000000001160000000000116000000000011600000000001160000000000116000000000011800005000000000000003500000000000000406000000000000000009999123100000010000000000000BRHAGAACNPR4103
012024080702HAPV3       010HAPVIDA     ON      NM   R$  000000000043400000000004410000000000429000000000043400000000004410000000000440000000000044143968000000000067012500000000029128309300000000000000009999123100000010000000000000BRHAPVACNOR4114
012024080702JALL3       010JALLESMACHADON      NM   R$  000000000066000000000006800000000000660000000000067300000000006800000000000674000000000068001605000000000000453200000000000305341200000000000000009999123100000010000000000000BRJALLACNOR0106
012024080702JBSS3       010JBS         ON      NM   R$  000000000319300000000032070000000003120000000000315100000000031790000000003179000000000318032149000000000007675500000000024186218600000000000000009999123100000010000000000000BRJBSSACNOR8121
012024080702AMAR3       010LOJAS MARISAON      NM   R$  000000000013800000000001410000000000133000000000013700000000001380000000000138000000000013900609000000000000498700000000000068384400000000000000009999123100000010000000000000BRAMARACNOR4115
012024080702AMBP3       010AMBIPAR     ON      NM   R$  000000000801500000000087590000000006200000000000793200000000077000000000007700000000000776013725000000000004481600000000035548893500000000000000009999123100000010000000000000BRAMBPACNOR6103
012024080702ANIM3       010ANIMA       ON      NM   R$  000000000034700000000003630000000000347000000000035700000000003600000000000359000000000036105452000000000003544800000000001265955200000000000000009999123100000010000000000000BRANIMACNOR6108
012024080702APER3       010ALPER S.A.  ON           R$  000000000450500000000045050000000004505000000000450500000000045050000000004500000000000452500001000000000000000100000000000000450500000000000000009999123100000010000000000000BRAPERACNOR9106
012024080702ARML3       010ARMAC       ON      NM   R$  000000000084900000000008900000000000839000000000086500000000008660000000000859000000000086603436000000000000945000000000000817890600000000000000009999123100000010000000000000BRARMLACNOR1112
012024080702CEAB3       010CEA MODAS   ON      NM   R$  000000000089000000000009320000000000875000000000090900000000009280000000000926000000000092805610000000000002816900000000002561253100000000000000009999123100000010000000000000BRCEABACNOR1102
012024080702CEBR3       010CEB         ON           R$  000000000187100000000018900000000001871000000000187800000000018810000000001881000000000188800013000000000000001600000000000003005300000000000000009999123100000010000000000000BRCEBRACNOR5125
012024080702CEBR5       010CEB         PNA          R$  000000000165000000000016790000000001646000000000166200000000016790000000001647000000000168000011000000000000001500000000000002493000000000000000009999123100000010000000000000BRCEBRACNPA8124
012024080702CEBR6       010CEB         PNB          R$  000000000176900000000017900000000001739000000000175800000000017500000000001741000000000177400036000000000000006400000000000011253100000000000000009999123100000010000000000000BRCEBRACNPB6124
012024080702CEDO3       010CEDRO       ON      N1   R$  000000000261000000000026100000000002610000000000261000000000026100000000002365000000000280000001000000000000000300000000000000783000000000000000009999123100000010000000000000BRCEDOACNOR8096
012024080702CEDO4       010CEDRO       PN      N1   R$  000000000215900000000021590000000002159000000000215900000000021590000000002159000000000221400001000000000000000100000000000000215900000000000000009999123100000010000000000000BRCEDOACNPR5128
012024080702CGAS5       010COMGAS      PNA          R$  000000001100700000000110220000000011001000000001101600000000110190000000011052000000001115000011000000000000001600000000000017625900000000000000009999123100000010000000000000BRCGASACNPA3160
012024080702CGRA3       010GRAZZIOTIN  ON           R$  000000000248000000000025220000000002480000000000248900000000024800000000002470000000000251700011000000000000001400000000000003485500000000000000009999123100000010000000000000BRCGRAACNOR2083
012024080702CGRA4       010GRAZZIOTIN  PN           R$  000000000252500000000025250000000002483000000000249200000000024910000000002491000000000249900020000000000000002600000000000006480200000000000000009999123100000010000000000000BRCGRAACNPR9083
012024080702CIEL3       010CIELO       ON      NM   R$  000000000057900000000005800000000000578000000000057800000000005790000000000579000000000058009377000000000026808300000000015512562400000000000000009999123100000010000000000000BRCIELACNOR3157
012024080702CLSA3       010CLEARSALE   ON      NM   R$  000000000078500000000008120000000000767000000000079100000000007890000000000788000000000078903990000000000001883800000000001490637700000000000000009999123100000010000000000000BRCLSAACNOR0100
012024080702CLSC3       010CELESC      ON      N2   R$  000000000708900000000070890000000007089000000000708900000000070890000000006800000000000710000001000000000000000300000000000002126700000000000000009999123100000010000000000000BRCLSCACNOR6152
012024080702CLSC4       010CELESC      PN      N2   R$  000000000769600000000076960000000007496000000000757600000000075740000000007442000000000757400030000000000000005300000000000040154200000000000000009999123100000010000000000000BRCLSCACNPR3131
012024080702CMIG3       010CEMIG       ON      N1   R$  000000000123900000000012470000000001205000000000121500000000012050000000001205000000000122202137000000000001032600000000001254773100000000000000009999123100000010000000000000BRCMIGACNOR6242
012024080702CMIG4       010CEMIG       PN      N1   R$  000000000108100000000010930000000001078000000000108400000000010800000000001079000000000108112054000000000009005200000000009768171500000000000000009999123100000010000000000000BRCMIGACNPR3243
012024080702AALR3       010ALLIAR      ON      NM   R$  000000000100800000000010530000000000991000000000101300000000010260000000001009000000000102800163000000000000026700000000000027064700000000000000009999123100000010000000000000BRAALRACNOR6102
012024080702ABCB4       010ABC BRASIL  PN      N2   R$  000000000222100000000022460000000002176000000000220200000000021910000000002191000000000220002351000000000000417900000000000920500500000000000000009999123100000010000000000000BRABCBACNPR4146
012024080702ABEV3       010AMBEV S/A   ON           R$  000000000120700000000012560000000001204000000000123800000000012510000000001250000000000125133695000000000048591300000000060174131400000000000000009999123100000010000000000000BRABEVACNOR1128
012024080702BAHI3       010BAHEMA      ON      MA   R$  000000000064500000000006720000000000637000000000064800000000006370000000000637000000000065000023000000000000009300000000000006031600000000000000009999123100000010000000000000BRBAHIACNOR1074
012024080702ALOS3       010ALLOS       ON      NM   R$  000000000223500000000022730000000002230000000000225300000000022570000000002257000000000226512643000000000004149400000000009350170100000000000000009999123100000010000000000000BRALOSACNOR5101
012024080702ALPA3       010ALPARGATAS  ON      N1   R$  000000000078500000000008100000000000785000000000080000000000008060000000000806000000000081400039000000000000011100000000000008889500000000000000009999123100000010000000000000BRALPAACNOR0231
012024080702ALPA4       010ALPARGATAS  PN      N1   R$  000000000083400000000008610000000000830000000000084800000000008530000000000851000000000085305491000000000001818700000000001543755700000000000000009999123100000010000000000000BRALPAACNPR7232
012024080702ALPK3       010ESTAPAR     ON      NM   R$  000000000036600000000003740000000000360000000000036600000000003680000000000364000000000036800350000000000000117800000000000043206500000000000000009999123100000010000000000000BRALPKACNOR9101
012024080702ALUP11      010ALUPAR      UNT     N2   R$  000000000311000000000031710000000003110000000000314300000000031470000000003147000000000314906203000000000001195300000000003757832600000000000000009999123100000010000000000000BRALUPCDAM15119
012024080702ALUP3       010ALUPAR      ON      N2   R$  000000000109000000000010900000000001060000000000107200000000010790000000001061000000000108200115000000000000016800000000000018023300000000000000009999123100000010000000000000BRALUPACNOR8119
012024080702ALUP4       010ALUPAR      PN      N2   R$  000000000102500000000010460000000001016000000000103200000000010350000000001030000000000104600141000000000000023800000000000024570400000000000000009999123100000010000000000000BRALUPACNPR5119
012024080702BBDC3       010BRADESCO    ON  EJ  N1   R$  000000000127900000000013040000000001252000000000126900000000012660000000001266000000000126715138000000000008685500000000011025117400000000000000009999123100000010000000000000BRBBDCACNOR1773
012024080702BBDC4       010BRADESCO    PN  EJ  N1   R$  000000000141700000000014510000000001393000000000141300000000014090000000001408000000000141003981000000000059096500000000083504921400000000000000009999123100000010000000000000BRBBDCACNPR8773
012024080702BMEB3       010MERCANTIL   ON  EJ  N1   R$  000000000321200000000035900000000003212000000000342300000000035090000000003311000000000350900015000000000000001600000000000005478200000000000000009999123100000010000000000000BRBMEBACNOR8206
012024080702BMEB4       010MERCANTIL   PN  EJ  N1   R$  000000000355200000000036990000000003552000000000365700000000036520000000003652000000000365800095000000000000022500000000000082300200000000000000009999123100000010000000000000BRBMEBACNPR5211
012024080702BMGB4       010BANCO BMG   PN      N1   R$  000000000034300000000003500000000000343000000000034700000000003460000000000346000000000034800538000000000000345200000000000119804200000000000000009999123100000010000000000000BRBMGBACNPR0110
012024080702BMKS3       010BIC MONARK  ON           R$  000000003190000000000325000000000031839000000003188900000000325000000000031839000000003250000008000000000000000022000000000000701560000000000000009999123100000010000000000000BRBMKSACNOR9166
012024080702BMOB3       010BEMOBI TECH ON      NM   R$  000000000143200000000014850000000001431000000000147100000000014850000000001484000000000148601504000000000000225100000000000331288800000000000000009999123100000010000000000000BRBMOBACNOR7103
012024080702BNBR3       010NORD BRASIL ON           R$  000000000990000000000099000000000009900000000000990000000000099000000000009650000000001015000001000000000000000100000000000000990000000000000000009999123100000010000000000000BRBNBRACNOR8208
012024080702BOBR4       010BOMBRIL     PN           R$  000000000019600000000001960000000000192000000000019400000000001940000000000194000000000019600020000000000000010600000000000002058400000000000000009999123100000010000000000000BRBOBRACNPR3128
012024080702BSLI4       010BRB BANCO   PN           R$  000000000096400000000010090000000000964000000000099100000000010000000000001000000000000101000003000000000000000300000000000000297300000000000000009999123100000010000000000000BRBSLIACNPR2194
012024080702ITSA3       010ITAUSA      ON      N1   R$  000000000100200000000010130000000000994000000000100100000000010060000000001005000000000100600416000000000000103500000000000103676100000000000000009999123100000010000000000000BRITSAACNOR0441
012024080702ITSA4       010ITAUSA      PN      N1   R$  000000000100900000000010130000000000991000000000100100000000010080000000001007000000000100821246000000000018513500000000018535875400000000000000009999123100000010000000000000BRITSAACNPR7441
012024080702LUPA3       010LUPATECH    ON      NM   R$  000000000016600000000001690000000000166000000000016700000000001670000000000167000000000016800066000000000000071100000000000011882900000000000000009999123100000010000000000000BRLUPAACNOR8112
012024080702LVTC3       010WDC NETWORKSON      NM   R$  000000000035000000000003570000000000341000000000034800000000003570000000000346000000000035700040000000000000015100000000000005255400000000000000009999123100000010000000000000BRLVTCACNOR4102
012024080702LWSA3       010LWSA        ON      NM   R$  000000000043600000000004670000000000436000000000045500000000004620000000000462000000000046508696000000000007049200000000003210698500000000000000009999123100000010000000000000BRLWSAACNOR8103
012024080702CAMB3       010CAMBUCI     ON           R$  000000000116000000000011900000000001160000000000117400000000011900000000001180000000000119000163000000000000054600000000000064107400000000000000009999123100000010000000000000BRCAMBACNOR4130
012024080702CAML3       010CAMIL       ON      NM   R$  000000000090400000000009250000000000904000000000091600000000009160000000000915000000000091901365000000000000283000000000000259393000000000000000009999123100000010000000000000BRCAMLACNOR3128
012024080702CASH3       010MELIUZ      ON      NM   R$  000000000054600000000005620000000000546000000000055500000000005560000000000556000000000055802191000000000000719800000000000400151300000000000000009999123100000010000000000000BRCASHACNOR8106
012024080702CBAV3       010CBA         ON      NM   R$  000000000048400000000004900000000000475000000000048100000000004870000000000486000000000048803450000000000002144600000000001033135300000000000000009999123100000010000000000000BRCBAVACNOR5104
012024080702CCRO3       010CCR SA      ON      NM   R$  000000000129900000000013140000000001296000000000130300000000013010000000001301000000000130208171000000000003869900000000005046082300000000000000009999123100000010000000000000BRCCROACNOR2145
012024080702CXSE3       010CAIXA SEGURION  ED  NM   R$  000000000140500000000014210000000001393000000000140200000000013970000000001396000000000140006061000000000001711900000000002400445700000000000000009999123100000010000000000000BRCXSEACNOR7107
012024080702CYRE3       010CYRELA REALTON      NM   R$  000000000196000000000020200000000001950000000000199700000000020200000000002017000000000202012248000000000003561600000000007113792000000000000000009999123100000010000000000000BRCYREACNOR7140
012024080702GGBR3       010GERDAU      ON      N1   R$  000000000153400000000015620000000001534000000000154100000000015470000000001547000000000155000179000000000000029900000000000046096100000000000000009999123100000010000000000000BRGGBRACNOR1192
012024080702GGBR4       010GERDAU      PN      N1   R$  000000000172900000000017450000000001705000000000171800000000017130000000001712000000000171423796000000000010709000000000018407253700000000000000009999123100000010000000000000BRGGBRACNPR8192
012024080702ITUB3       010ITAUUNIBANCOON  EJ  N1   R$  000000000293000000000029490000000002860000000000289200000000029050000000002903000000000290502077000000000000592200000000001713228000000000000000009999123100000010000000000000BRITUBACNOR4339
012024080702ITUB4       010ITAUUNIBANCOPN  EJ  N1   R$  000000000340500000000034180000000003307000000000335500000000033770000000003376000000000337779300000000000040658900000000136417819400000000000000009999123100000010000000000000BRITUBACNPR1339
012024080702MDIA3       010M.DIASBRANCOON      NM   R$  000000000280000000000028570000000002799000000000283300000000028560000000002846000000000285604034000000000001062500000000003010695600000000000000009999123100000010000000000000BRMDIAACNOR7135
012024080702MDNE3       010MOURA DUBEUXON      NM   R$  000000000132100000000013790000000001321000000000136000000000013790000000001379000000000138101909000000000000311500000000000423740600000000000000009999123100000010000000000000BRMDNEACNOR9100
012024080702MEAL3       010IMC S/A     ON      NM   R$  000000000014600000000001500000000000146000000000014800000000001490000000000149000000000015000297000000000000305400000000000045335500000000000000009999123100000010000000000000BRMEALACNOR9105
012024080702MELK3       010MELNICK     ON      NM   R$  000000000035100000000003590000000000350000000000035500000000003590000000000356000000000035900302000000000000162000000000000057658000000000000000009999123100000010000000000000BRMELKACNOR8111
012024080702MGEL4       010MANGELS INDLPN           R$  000000000125000000000012600000000001250000000000125000000000012600000000001200000000000131100003000000000000005100000000000006376000000000000000009999123100000010000000000000BRMGELACNPR3147
012024080702MGLU3       010MAGAZ LUIZA ON      NM   R$  000000000115100000000012250000000001147000000000119300000000012190000000001219000000000122024822000000000023974800000000028607727500000000000000009999123100000010000000000000BRMGLUACNOR2124
012024080702AERI3       010AERIS       ON      NM   R$  000000000053800000000006200000000000538000000000059300000000006200000000000612000000000062000719000000000000334100000000000198338100000000000000009999123100000010000000000000BRAERIACNOR4102
012024080702AESB3       010AES BRASIL  ON      NM   R$  000000000112000000000011300000000001119000000000112400000000011260000000001125000000000112604928000000000006675100000000007508108800000000000000009999123100000010000000000000BRAESBACNOR7106
012024080702AFLT3       010AFLUENTE T  ON           R$  000000000071600000000007200000000000715000000000071700000000007200000000000720000000000074900005000000000000000600000000000000430700000000000000009999123100000010000000000000BRAFLTACNOR1122
012024080702AGRO3       010BRASILAGRO  ON      NM   R$  000000000256200000000025950000000002550000000000256900000000025610000000002561000000000256800924000000000000111400000000000286223800000000000000009999123100000010000000000000BRAGROACNOR7114
012024080702ODPV3       010ODONTOPREV  ON      NM   R$  000000000112500000000012030000000001119000000000117700000000011670000000001167000000000117006714000000000001531900000000001803206300000000000000009999123100000010000000000000BRODPVACNOR4202
012024080702OFSA3       010OUROFINO S/AON      NM   R$  000000000200000000000020440000000002000000000000201200000000020150000000002015000000000207400007000000000000001700000000000003421800000000000000009999123100000010000000000000BROFSAACNOR7118
012024080702ONCO3       010ONCOCLINICASON      NM   R$  000000000063700000000006820000000000600000000000064000000000006800000000000673000000000068107750000000000008019100000000005133046000000000000000009999123100000010000000000000BRONCOACNOR6101
012024080702OPCT3       010OCEANPACT   ON      NM   R$  000000000063300000000006500000000000625000000000063600000000006470000000000642000000000064701727000000000000414900000000000263923200000000000000009999123100000010000000000000BROPCTACNOR0100
012024080702ORVR3       010ORIZON      ON      NM   R$  000000000419300000000042840000000004182000000000423600000000042530000000004253000000000426401402000000000000216700000000000918005500000000000000009999123100000010000000000000BRORVRACNOR0101
012024080702PCAR3       010P.ACUCAR-CBDON      NM   R$  000000000028800000000003160000000000282000000000029900000000003090000000000309000000000031013056000000000022752100000000006819708900000000000000009999123100000010000000000000BRPCARACNOR3167
012024080702PETZ3       010PETZ        ON      NM   R$  000000000036000000000003710000000000357000000000036600000000003710000000000370000000000037105312000000000006367400000000002331143100000000000000009999123100000010000000000000BRPETZACNOR2110
012024080702SYNE3       010SYN PROP TECON      NM   R$  000000000101200000000010250000000000997000000000101100000000010250000000001020000000000102500413000000000000147100000000000148863800000000000000009999123100000010000000000000BRSYNEACNOR2102
012024080702TAEE11      010TAESA       UNT     N2   R$  000000000346900000000035440000000003468000000000351700000000035050000000003503000000000350807416000000000002034400000000007156270200000000000000009999123100000010000000000000BRTAEECDAM10147
012024080702TAEE3       010TAESA       ON      N2   R$  000000000114300000000011730000000001143000000000116100000000011620000000001159000000000116300366000000000000061900000000000071882600000000000000009999123100000010000000000000BRTAEEACNOR9147
012024080702TAEE4       010TAESA       PN      N2   R$  000000000117000000000011850000000001160000000000117600000000011750000000001170000000000117500699000000000000162600000000000191297200000000000000009999123100000010000000000000BRTAEEACNPR6147
012024080702VITT3       010VITTIA      ON      NM   R$  000000000058500000000005930000000000576000000000058100000000005850000000000585000000000058702610000000000001405300000000000816860700000000000000009999123100000010000000000000BRVITTACNOR4107
012024080702VIVA3       010VIVARA S.A. ON      NM   R$  000000000242700000000024650000000002404000000000243800000000024550000000002450000000000245611682000000000002773900000000006762809400000000000000009999123100000010000000000000BRVIVAACNOR0107
012024080702VIVR3       010VIVER       ON      NM   R$  000000000024500000000002500000000000240000000000024500000000002440000000000242000000000024500226000000000000054400000000000013358300000000000000009999123100000010000000000000BRVIVRACNOR4123
012024080702VIVT3       010TELEF BRASILON  EJ       R$  000000000492500000000049980000000004902000000000497500000000049700000000004967000000000497208091000000000001540600000000007664618300000000000000009999123100000010000000000000BRVIVTACNOR0183
012024080702VLID3       010VALID       ON      NM   R$  000000000171700000000017480000000001706000000000173100000000017320000000001732000000000173502034000000000000352700000000000610597700000000000000009999123100000010000000000000BRVLIDACNOR5143
012024080702VSTE3       010VESTE       ON      NM   R$  000000000137200000000013800000000001367000000000137200000000013670000000001362000000000136800017000000000000002900000000000003979100000000000000009999123100000010000000000000BRVSTEACNOR5103
012024080702EUCA3       010EUCATEX     ON      N1   R$  000000000158800000000015880000000001588000000000158800000000015880000000001550000000000162000002000000000000000200000000000000317600000000000000009999123100000010000000000000BREUCAACNOR1157
012024080702EUCA4       010EUCATEX     PN      N1   R$  000000000146100000000014930000000001461000000000147300000000014630000000001463000000000146400145000000000000020000000000000029469600000000000000009999123100000010000000000000BREUCAACNPR8044
012024080702EVEN3       010EVEN        ON      NM   R$  000000000061100000000006330000000000611000000000062100000000006260000000000625000000000062602585000000000000522000000000000324569300000000000000009999123100000010000000000000BREVENACNOR8119
012024080702EZTC3       010EZTEC       ON      NM   R$  000000000132000000000013750000000001318000000000135200000000013740000000001370000000000137407986000000000002833300000000003832121400000000000000009999123100000010000000000000BREZTCACNOR0125
012024080702INEP4       010INEPAR      PN           R$  000000000019200000000001940000000000186000000000019000000000001860000000000186000000000018900017000000000000009700000000000001843500000000000000009999123100000010000000000000BRINEPACNPR8143
012024080702INTB3       010INTELBRAS   ON  ED  NM   R$  000000000203500000000020630000000002025000000000204500000000020540000000002049000000000205804367000000000000821000000000001679742500000000000000009999123100000010000000000000BRINTBACNOR9112
012024080702BAZA3       010AMAZONIA    ON           R$  000000000925000000000093000000000009250000000000927500000000093000000000009200000000000939000004000000000000000400000000000003710000000000000000009999123100000010000000000000BRBAZAACNOR0179
012024080702BBAS3       010BRASIL      ON      NM   R$  000000000268500000000026950000000002619000000000264000000000026300000000002630000000000263149264000000000018931200000000049988247900000000000000009999123100000010000000000000BRBBASACNOR3324
012024080702BEES3       010BANESTES    ON  EJ       R$  000000000089000000000008990000000000890000000000089400000000008990000000000891000000000089900052000000000000007300000000000006527700000000000000009999123100000010000000000000BRBEESACNOR9394
012024080702BEES4       010BANESTES    PN  EJ       R$  000000000097100000000009750000000000969000000000097100000000009730000000000973000000000097500013000000000000001400000000000001360500000000000000009999123100000010000000000000BRBEESACNPR6319
012024080702BGIP3       010BANESE      ON           R$  000000000242600000000024800000000002426000000000245400000000024800000000002350000000000280000004000000000000000400000000000000981600000000000000009999123100000010000000000000BRBGIPACNOR1208
012024080702BGIP4       010BANESE      PN           R$  000000000228000000000024000000000002280000000000231900000000023500000000002235000000000237000011000000000000001200000000000002783600000000000000009999123100000010000000000000BRBGIPACNPR8208
012024080702BHIA3       010CASAS BAHIA ON      NM   R$  000000000040800000000004320000000000405000000000041800000000004270000000000426000000000042806975000000000008312100000000003479062100000000000000009999123100000010000000000000BRBHIAACNOR1102
012024080702BRBI11      010BR PARTNERS UNT     N2   R$  000000000140200000000014510000000001395000000000141300000000014510000000001444000000000145101700000000000000606200000000000856661600000000000000009999123100000010000000000000BRBRBICDAM10109
012024080702BRFS3       010BRF SA      ON      NM   R$  000000000209500000000021090000000002067000000000208800000000020900000000002090000000000209412396000000000003535300000000007383752700000000000000009999123100000010000000000000BRBRFSACNOR8122
012024080702CSNA3       010SID NACIONALON           R$  000000000113500000000011390000000001125000000000113000000000011310000000001130000000000113209466000000000003936500000000004448637100000000000000009999123100000010000000000000BRCSNAACNOR6261
012024080702CSRN3       010COSERN      ON           R$  000000000170000000000017500000000001674000000000170100000000016740000000001671000000000177000008000000000000002500000000000004252700000000000000009999123100000010000000000000BRCSRNACNOR0194
012024080702CSRN6       010COSERN      PNB          R$  000000000176000000000017600000000001650000000000166900000000016600000000001660000000000170000008000000000000000800000000000001335600000000000000009999123100000010000000000000BRCSRNACNPB1195
012024080702CSUD3       010CSU DIGITAL ON      NM   R$  000000000187900000000019050000000001850000000000187500000000018820000000001882000000000188900162000000000000038600000000000072405000000000000000009999123100000010000000000000BRCSUDACNOR5110
012024080702CTKA4       010KARSTEN     PN           R$  000000000178000000000017800000000001780000000000178000000000017800000000001712000000000175900001000000000000000100000000000000178000000000000000009999123100000010000000000000BRCTKAACNPR7043
012024080702ESPA3       010ESPACOLASER ON      NM   R$  000000000009500000000000980000000000094000000000009600000000000980000000000097000000000009800219000000000000458600000000000044146300000000000000009999123100000010000000000000BRESPAACNOR7103
012024080702ESTR4       010ESTRELA     PN           R$  000000000021400000000002140000000000214000000000021400000000002140000000000200000000000021900001000000000000000100000000000000021400000000000000009999123100000010000000000000BRESTRACNPR0144
012024080702IRBR3       010IRBBRASIL REON      NM   R$  000000000286900000000029230000000002861000000000290300000000029060000000002906000000000292003254000000000000743900000000002160189100000000000000009999123100000010000000000000BRIRBRACNOR4111
012024080702BEEF3       010MINERVA     ON      NM   R$  000000000066700000000007000000000000661000000000067900000000006940000000000694000000000069513505000000000010929700000000007427639200000000000000009999123100000010000000000000BRBEEFACNOR6116
012024080702BPAN4       010BANCO PAN   PN      N1   R$  000000000087000000000009030000000000870000000000088600000000008890000000000888000000000088903704000000000001162400000000001030478300000000000000009999123100000010000000000000BRBPANACNPR1115
012024080702BRAP3       010BRADESPAR   ON      N1   R$  000000000173300000000017340000000001717000000000172500000000017310000000001723000000000173200138000000000000023100000000000039868900000000000000009999123100000010000000000000BRBRAPACNOR5148
012024080702BRAP4       010BRADESPAR   PN      N1   R$  000000000180400000000018060000000001787000000000179300000000017890000000001789000000000179306381000000000002565100000000004600128000000000000000009999123100000010000000000000BRBRAPACNPR2148
012024080702CRPG6       010CRISTAL     PNB          R$  000000000280100000000028990000000002787000000000282900000000028990000000002801000000000289900003000000000000000300000000000000848700000000000000009999123100000010000000000000BRCRPGACNPB1119
012024080702CSAN3       010COSAN       ON      NM   R$  000000000130600000000013190000000001284000000000130300000000013190000000001318000000000131912974000000000009357000000000012198451800000000000000009999123100000010000000000000BRCSANACNOR6126
012024080702CSED3       010CRUZEIRO EDUON      NM   R$  000000000040000000000004190000000000397000000000040900000000004160000000000412000000000041600753000000000000347300000000000142174000000000000000009999123100000010000000000000BRCSEDACNOR9104
012024080702CSMG3       010COPASA      ON      NM   R$  000000000215000000000021890000000002150000000000217300000000021800000000002173000000000218103978000000000001016800000000002209820800000000000000009999123100000010000000000000BRCSMGACNOR5174
012024080702ENEV3       010ENEVA       ON      NM   R$  000000000128400000000012930000000001276000000000128500000000012840000000001284000000000128812976000000000005665600000000007281096200000000000000009999123100000010000000000000BRENEVACNOR8106
012024080702ENGI11      010ENERGISA    UNT     N2   R$  000000000450000000000045040000000004413000000000445500000000044750000000004474000000000448208640000000000002922200000000013019834200000000000000009999123100000010000000000000BRENGICDAM16135
012024080702ENGI3       010ENERGISA    ON      N2   R$  000000000135000000000013870000000001350000000000137500000000013750000000001375000000000139600029000000000000003300000000000004538900000000000000009999123100000010000000000000BRENGIACNOR0145
012024080702ENGI4       010ENERGISA    PN      N2   R$  000000000077600000000007760000000000763000000000077000000000007640000000000764000000000077100049000000000000010600000000000008162900000000000000009999123100000010000000000000BRENGIACNPR7141
012024080702ENJU3       010ENJOEI      ON      NM   R$  000000000017700000000001860000000000176000000000018000000000001820000000000182000000000018400357000000000000420400000000000076055000000000000000009999123100000010000000000000BRENJUACNOR9100
012024080702EPAR3       010EMBPAR S/A  ON           R$  000000000059500000000006000000000000582000000000058700000000005820000000000584000000000059300041000000000000023100000000000013582100000000000000009999123100000010000000000000BREPARACNOR9105
012024080702EQPA3       010EQTL PARA   ON           R$  000000000071700000000007170000000000694000000000070200000000006950000000000695000000000070900017000000000000002400000000000001685600000000000000009999123100000010000000000000BREQPAACNOR1111
012024080702EQTL3       010EQUATORIAL  ON      NM   R$  000000000326800000000033170000000003261000000000329900000000033170000000003310000000000331717938000000000005933100000000019575765400000000000000009999123100000010000000000000BREQTLACNOR0130
012024080702IFCM3       010INFRACOMM   ON      NM   R$  000000000003500000000000420000000000034000000000003800000000000410000000000040000000000004105964000000000028507700000000001104392400000000000000009999123100000010000000000000BRIFCMACNOR8101
012024080702IGTI11      010IGUATEMI S.AUNT     N1   R$  000000000215500000000021990000000002147000000000217600000000021870000000002185000000000218710794000000000002785300000000006062636200000000000000009999123100000010000000000000BRIGTICDAM16106
012024080702IGTI3       010IGUATEMI S.AON      N1   R$  000000000026400000000002720000000000263000000000026700000000002720000000000272000000000027300151000000000000055100000000000014744100000000000000009999123100000010000000000000BRIGTIACNOR8106
012024080702IGTI4       010IGUATEMI S.APN      N1   R$  000000000095200000000009520000000000949000000000095000000000009490000000000865000000000103100002000000000000000400000000000000380200000000000000009999123100000010000000000000BRIGTIACNPR5106
012024080702INEP3       010INEPAR      ON           R$  000000000019200000000001960000000000189000000000019300000000001950000000000192000000000019500047000000000000018500000000000003583400000000000000009999123100000010000000000000BRINEPACNOR1143
012024080702STBP3       010SANTOS BRP  ON      NM   R$  000000000139800000000014170000000001378000000000139700000000013930000000001393000000000139510115000000000003239200000000004526624200000000000000009999123100000010000000000000BRSTBPACNOR3130
012024080702SUZB3       010SUZANO S.A. ON      NM   R$  000000000517900000000052770000000005133000000000522400000000052200000000005211000000000522222788000000000006144300000000032102112300000000000000009999123100000010000000000000BRSUZBACNOR0130
012024080702RADL3       010RAIADROGASILON      NM   R$  000000000289000000000029550000000002858000000000290400000000029500000000002925000000000295020829000000000011855900000000034429695200000000000000009999123100000010000000000000BRRADLACNOR0157
012024080702RAIL3       010RUMO S.A.   ON      NM   R$  000000000234000000000023610000000002318000000000233400000000023180000000002318000000000232014132000000000005689200000000013280025700000000000000009999123100000010000000000000BRRAILACNOR9105
012024080702RAIZ4       010RAIZEN      PN  ED  N2   R$  000000000030600000000003180000000000302000000000030900000000003140000000000314000000000031516078000000000014324900000000004436207800000000000000009999123100000010000000000000BRRAIZACNPR6111
012024080702SEQL3       010SEQUOIA LOG ON      NM   R$  000000000053600000000009470000000000523000000000078600000000008000000000000800000000000080112142000000000005443500000000004282032400000000000000009999123100000010000000000000BRSEQLACNOR2103
012024080702FESA3       010FERBASA     ON      N1   R$  000000000125800000000012580000000001250000000000125400000000012500000000001200000000000135600004000000000000000400000000000000501600000000000000009999123100000010000000000000BRFESAACNOR8188
012024080702FESA4       010FERBASA     PN      N1   R$  000000000081600000000008160000000000798000000000080400000000008090000000000808000000000080901842000000000000451200000000000363211600000000000000009999123100000010000000000000BRFESAACNPR5084
012024080702RCSL3       010RECRUSUL    ON           R$  000000000029000000000002970000000000284000000000029100000000002950000000000291000000000029500330000000000000083200000000000024241200000000000000009999123100000010000000000000BRRCSLACNOR4134
012024080702RCSL4       010RECRUSUL    PN           R$  000000000009000000000000910000000000088000000000009000000000000900000000000089000000000009000512000000000000410900000000000037031900000000000000009999123100000010000000000000BRRCSLACNPR1134
012024080702RDNI3       010RNI         ON      NM   R$  000000000031300000000003210000000000313000000000031700000000003160000000000316000000000032100012000000000000001600000000000000507700000000000000009999123100000010000000000000BRRDNIACNOR9116
012024080702RDOR3       010REDE D OR   ON      NM   R$  000000000283200000000029090000000002824000000000288500000000029040000000002892000000000290412869000000000003817100000000011012725700000000000000009999123100000010000000000000BRRDORACNOR8113
012024080702SMFT3       010SMART FIT   ON      NM   R$  000000000206000000000021650000000002060000000000214300000000021650000000002146000000000216508601000000000003026400000000006486992600000000000000009999123100000010000000000000BRSMFTACNOR1112
012024080702SMTO3       010SAO MARTINHOON  ED  NM   R$  000000000276300000000028020000000002740000000000276400000000027670000000002764000000000276806319000000000001122200000000003102620800000000000000009999123100000010000000000000BRSMTOACNOR3127
012024080702SNSY3       010SANSUY      ON           R$  000000000127900000000012790000000001279000000000127400000000012790000000001200000000000127000003000000000000000400000000000000509800000000000000009999123100000010000000000000BRSNSYACNOR2113
012024080702SNSY5       010SANSUY      PNA          R$  000000000057000000000005700000000000552000000000056000000000005680000000000550000000000056800032000000000000027500000000000015400400000000000000009999123100000010000000000000BRSNSYACNPA5111
012024080702SOJA3       010BOA SAFRA   ON      NM   R$  000000000145100000000014510000000001423000000000143500000000014440000000001442000000000144801653000000000000283200000000000406604900000000000000009999123100000010000000000000BRSOJAACNOR9105
012024080702SRNA3       010SERENA      ON      NM   R$  000000000086200000000008810000000000862000000000087300000000008710000000000870000000000087903357000000000000823900000000000719332400000000000000009999123100000010000000000000BRSRNAACNOR4100
012024080707NUTR3       010NUTRIPLANT  ON      MA   R$  000000000046700000000004950000000000451000000000047400000000004950000000000483000000000049100074000000000000017900000000000008494700000000000000009999123100000010000000000000BRNUTRACNOR0104
012024080708HOOT4       010HOTEIS OTHONPN           R$  000000000023300000000002330000000000231000000000023100000000002320000000000231000000000023500011000000000000003200000000000000739700000000000000009999123100000010000000000000BRHOOTACNPR9015
012024080708PMAM3       010PARANAPANEMAON      NM   R$  000000000023300000000002350000000000220000000000022400000000002240000000000222000000000022400339000000000000076400000000000017136500000000000000009999123100000010000000000000BRPMAMACNOR3039
012024080708LIGT3       010LIGHT S/A   ON      NM   R$  000000000042000000000004350000000000418000000000042200000000004200000000000419000000000042001289000000000000345200000000000145884100000000000000009999123100000010000000000000BRLIGTACNOR2124
012024080708NEXP3       010NEXPE       ON           R$  000000000041500000000004150000000000415000000000041500000000004150000000000405000000000041300001000000000000000100000000000000041500000000000000009999123100000010000000000000BRNEXPACNOR0101
012024080708RSID3       010ROSSI RESID ON      NM   R$  000000000037500000000003750000000000365000000000037100000000003710000000000370000000000037500118000000000000013200000000000004898200000000000000009999123100000010000000000000BRRSIDACNOR8120
012024080708RNEW11      010RENOVA      UNT     N2   R$  000000000025200000000002540000000000240000000000024700000000002500000000000248000000000025000047000000000000014000000000000003460400000000000000009999123100000010000000000000BRRNEWCDAM15110
012024080708RNEW3       010RENOVA      ON      N2   R$  000000000008400000000000860000000000082000000000008200000000000840000000000082000000000008400093000000000000053600000000000004444500000000000000009999123100000010000000000000BRRNEWACNOR8110
012024080708RNEW4       010RENOVA      PN      N2   R$  000000000008300000000000830000000000080000000000008100000000000820000000000081000000000008200170000000000000230800000000000018829700000000000000009999123100000010000000000000BRRNEWACNPR5110
012024080708RPMG3       010PET MANGUINHON           R$  000000000030800000000003080000000000268000000000027600000000002700000000000269000000000027000142000000000000041900000000000011585400000000000000009999123100000010000000000000BRRPMGACNOR9194
012024080708CTSA3       010SANTANENSE  ON           R$  000000000029400000000002980000000000280000000000028600000000002840000000000284000000000028900027000000000000014900000000000004264400000000000000009999123100000010000000000000BRCTSAACNOR3062
012024080708CTSA4       010SANTANENSE  PN           R$  000000000013800000000001380000000000128000000000013100000000001290000000000129000000000013000126000000000000110200000000000014504500000000000000009999123100000010000000000000BRCTSAACNPR0062
012024080708JFEN3       010JOAO FORTES ON           R$  000000000003400000000000350000000000032000000000003300000000000330000000000033000000000003400897000000000003818600000000000126919700000000000000009999123100000010000000000000BRJFENACNOR0059
012024080708ATMP3       010ATMASA      ON           R$  000000000017400000000001740000000000172000000000017200000000001720000000000171000000000017300013000000000000004800000000000000830200000000000000009999123100000010000000000000BRATMPACNOR8100
012024080708AMER3       010AMERICANAS  ON      NM   R$  000000000006000000000000610000000000058000000000005900000000000600000000000059000000000006007319000000000016908600000000001001273600000000000000009999123100000010000000000000BRAMERACNOR6102
012024080708OIBR3       010OI          ON      N1   R$  000000000042400000000004350000000000420000000000042600000000004340000000000430000000000043400663000000000000555300000000000237073300000000000000009999123100000010000000000000BROIBRACNOR1111
012024080708OIBR4       010OI          PN      N1   R$  000000000126900000000012690000000001205000000000122300000000012080000000001208000000000126900030000000000000003800000000000004650000000000000000009999123100000010000000000000BROIBRACNPR8110
012024080708OSXB3       010OSX BRASIL  ON      NM   R$  000000000037600000000003940000000000370000000000037800000000003830000000000372000000000038300064000000000000021000000000000007940600000000000000009999123100000010000000000000BROSXBACNOR8109
012024080708CTNM4       010COTEMINAS   PN           R$  000000000008500000000000850000000000085000000000008500000000000850000000000085000000000008600013000000000000031500000000000002677500000000000000009999123100000010000000000000BRCTNMACNPR6129
012024080708ETER3       010ETERNIT     ON      NM   R$  000000000062100000000006210000000000566000000000057700000000005670000000000567000000000056802139000000000001609400000000000929295000000000000000009999123100000010000000000000BRETERACNOR3243
012024080708SGPS3       010SPRINGS     ON      NM   R$  000000000020000000000002000000000000200000000000020000000000002000000000000200000000000021700012000000000000002400000000000000480000000000000000009999123100000010000000000000BRSGPSACNOR4105
012024080710PDGR95      010PDG REALT   DIR     NM   R$  000000000000100000000000010000000000001000000000000100000000000010000000000000000000000000100142000000000000188763000000000000188763000000000000009999123100000010000000000000BRPDGRD03M17100
012024080710ZAMP1       010ZAMP S.A.   DIR ORD      R$  000000000000500000000000070000000000005000000000000500000000000060000000000005000000000000600293000000000000543200000000000003067400000000000000009999123100000010000000000000BRZAMPD01OR0100
012024080712HGBL11      010FII HGBL    CI  ER       R$  000000000102400000000010240000000001000000000000100700000000010170000000001001000000000101700125000000000000009119000000000009188380000000000000009999123100000010000000000000BRHGBLCTF005107
012024080712HGBS11      010FII HEDGEBS CI  ER       R$  000000002136100000000214060000000021250000000002129300000000212600000000021260000000002128904387000000000000011226000000000239037851000000000000009999123100000010000000000000BRHGBSCTF000312
012024080712HGCR11      010FII HGCR PAXCI  ER       R$  000000001032400000000103510000000010289000000001030700000000103000000000010300000000001031802237000000000000019032000000000196170819000000000000009999123100000010000000000000BRHGCRCTF000248
012024080712HGFF11      010FII HGFF PAXCI  ER       R$  000000000830800000000084350000000008221000000000829300000000083400000000008340000000000834303934000000000000008457000000000070134698000000000000009999123100000010000000000000BRHGFFCTF008162
012024080712HGIC11      010FII HGI CRI CI  ER       R$  000000000928800000000092880000000008684000000000890500000000089360000000008936000000000928800016000000000000000056000000000000498691000000000000009999123100000010000000000000BRHGICCTF009142
012024080712HGLG11      010FII HGLG PAXCI  ER       R$  000000001602600000000160960000000015990000000001602500000000160250000000016025000000001602807198000000000000029181000000000467644032000000000000009999123100000010000000000000BRHGLGCTF004273
012024080712HGPO11      010FII HGPO PAXCI  ER       R$  000000003030100000000303360000000030300000000003030100000000303050000000030305000000003033600236000000000000003982000000000120662339000000000000009999123100000010000000000000BRHGPOCTF009163
012024080712HGRE11      010FII HGRE PAXCI  ER       R$  000000001141900000000115290000000011315000000001137600000000113650000000011350000000001136902252000000000000011112000000000126411531000000000000009999123100000010000000000000BRHGRECTF006294
012024080712HGRU11      010FII HGRU PAXCI  ERS      R$  000000001270100000000127200000000012699000000001270600000000126990000000012699000000001270002463000000000000016115000000000204759597000000000000009999123100000010000000000000BRHGRUCTF002179
012024080712HLOG11      010FII HEDGELOGCI  ER       R$  000000000820000000000083450000000008200000000000828400000000083000000000008300000000000834200032000000000000001379000000000011424364000000000000009999123100000010000000000000BRHLOGCTF008158
012024080712HOFC11      010FII HOFFICEICI           R$  000000000294400000000030000000000002843000000000294900000000029800000000002980000000000298400078000000000000001812000000000005345173000000000000009999123100000010000000000000BRHOFCCTF009115
012024080712HOSI11      010FII HOUSI   CI  ER       R$  000000000946000000000095000000000009460000000000947200000000095000000000009500000000000961900005000000000000000156000000000001477760000000000000009999123100000010000000000000BRHOSICTF009147
012024080712HPDP11      010FII HEDGEPDPCI  ER       R$  000000000870500000000087110000000008705000000000870800000000087110000000008711000000000889000003000000000000000004000000000000034832000000000000009999123100000010000000000000BRHPDPCTF003154
012024080712HRDF11      010FII HREALTY CI           R$  000000000030300000000003070000000000303000000000030500000000003050000000000309000000000032300007000000000000000027000000000000008245000000000000009999123100000010000000000000BRHRDFCTF000103
012024080712HREC11      010FII HEDGERECCI  ER       R$  000000000086400000000008640000000000856000000000085700000000008570000000000857000000000085800055000000000000006483000000000005559856000000000000009999123100000010000000000000BRHRECCTF005151
012024080712HSAF11      010FII HSI CRI CI  ER       R$  000000000830500000000083370000000008241000000000827600000000082690000000008269000000000828700874000000000000007872000000000065153836000000000000009999123100000010000000000000BRHSAFCTF004150
012024080712HSLG11      010FII HSI LOG CI  ER       R$  000000000860100000000086490000000008597000000000861400000000085980000000008597000000000859800439000000000000003018000000000025998333000000000000009999123100000010000000000000BRHSLGCTF009144
012024080712HSML11      010FII HSI MALLCI  ER       R$  000000000952500000000095990000000009502000000000955400000000095020000000009502000000000953003268000000000000020014000000000191224328000000000000009999123100000010000000000000BRHSMLCTF007163
012024080712HSRE11      010FII HSIRENDACI  ER       R$  000000000987800000000099990000000009878000000000997400000000099990000000009888000000000999900005000000000000000020000000000000199496000000000000009999123100000010000000000000BRHSRECTF001143
012024080712HTMX11      010FII HOTEL MXCI  ER       R$  000000001779300000000178880000000017756000000001783400000000178090000000017809000000001784800838000000000000003099000000000055269878000000000000009999123100000010000000000000BRHTMXCTF000282
012024080712HUCG11      010FII UNIMED CCI           R$  000000000840000000000084000000000008400000000000840000000000084000000000008262000000000840000002000000000000000031000000000000260400000000000000009999123100000010000000000000BRHUCGCTF004120
012024080712HUSC11      010FII H UNIMEDCI  ER       R$  000000001119700000000113310000000011197000000001126400000000113310000000010856000000001135000003000000000000000006000000000000067584000000000000009999123100000010000000000000BRHUSCCTF009154
012024080712DAMA11      010FII DAMA    CI           R$  000000000100000000000010100000000001000000000000100400000000010100000000001001000000000101000014000000000000000272000000000000273107000000000000009999123100000010000000000000BRDAMACTF007101
012024080712DAMT11      010FII DIAMANTECI           R$  000000000129300000000012930000000001293000000000129300000000012930000000000850000000000129300001000000000000000001000000000000001293000000000000009999123100000010000000000000BRDAMTCTF007117
012024080712DEVA11      010FII DEVANT  CI           R$  000000000387400000000039030000000003867000000000389100000000038960000000003893000000000389601343000000000000024406000000000094973898000000000000009999123100000010000000000000BRDEVACTF000150
012024080712DPRO11      010FII DEVA PROCI           R$  000000000068800000000007540000000000650000000000071600000000006890000000000660000000000070000028000000000000000079000000000000056612000000000000009999123100000010000000000000BRDPROCTF005125
012024080712DRIT11      010FII MTGESTAOCI           R$  000000000925700000000092670000000009257000000000926400000000092670000000009267000000000979000003000000000000000004000000000000037056000000000000009999123100000010000000000000BRDRITCTF009254
012024080712DVFF11      010FII DEVA FOFCI           R$  000000000074400000000007490000000000743000000000074600000000007490000000000747000000000074900073000000000000002559000000000001910092000000000000009999123100000010000000000000BRDVFFCTF006139
012024080712GGRC11      010FII GGRCOVEPCI  ER       R$  000000000109000000000010930000000001082000000000108400000000010850000000001083000000000108525270000000000000174366000000000189164076000000000000009999123100000010000000000000BRGGRCCTF002196
012024080712GLOG11      010FII PLURAL LCI  ER       R$  000000000630500000000063100000000006206000000000627900000000062640000000006208000000000634700045000000000000002577000000000016182849000000000000009999123100000010000000000000BRGLOGCTF000115
012024080712AIEC11      010FII AUTONOMYCI  ER       R$  000000000539500000000054270000000005362000000000539200000000053950000000005395000000000539900298000000000000004198000000000022637984000000000000009999123100000010000000000000BRAIECCTF009147
012024080712AJFI11      010FII AJ MALLSCI           R$  000000000085100000000008610000000000840000000000084500000000008450000000000845000000000084710735000000000000063858000000000054004188000000000000009999123100000010000000000000BRAJFICTF001108
012024080712ALMI11      010FII TORRE ALCI           R$  000000006543300000000654330000000065433000000006543300000000654330000000063335000000006543200003000000000000000010000000000000654330000000000000009999123100000010000000000000BRALMICTF003251
012024080712SADI11      010FII SANT PAPCI  ER       R$  000000000911400000000091140000000009005000000000903300000000090330000000009010000000000904000237000000000000001707000000000015419740000000000000009999123100000010000000000000BRSADICTF007161
012024080712SAPI11      010FII SAPI    CI  ER       R$  000000000921900000000092190000000009150000000000917200000000091930000000009153000000000919300084000000000000001101000000000010098931000000000000009999123100000010000000000000BRSAPICTF001110
012024080712SARE11      010FII SANT RENCI  ER       R$  000000000404000000000040970000000004020000000000402400000000040350000000004034000000000403500860000000000000009084000000000036561472000000000000009999123100000010000000000000BRSARECTF006158
012024080712URHF11      010FII URHF    CI  ER       R$  000000001021000000000102100000000010210000000001021000000000102100000000009500000000001022000001000000000000000010000000000000102100000000000000009999123100000010000000000000BRURHFCTF004101
012024080712URPR11      010FII URCA RENCI  ER       R$  000000000804100000000080550000000008030000000000804400000000080480000000008047000000000804800996000000000000011443000000000092047723000000000000009999123100000010000000000000BRURPRCTF002160
012024080712XPIN11      010FII XP INDL CI           R$  000000000793800000000079390000000007777000000000787400000000078430000000007825000000000784300451000000000000005045000000000039728939000000000000009999123100000010000000000000BRXPINCTF004175
012024080712XPLG11      010FII XP LOG  CI  ER       R$  000000001013600000000101870000000010089000000001011600000000101100000000010100000000001011005451000000000000031144000000000315069226000000000000009999123100000010000000000000BRXPLGCTF002180
012024080712XPML11      010FII XP MALLSCI           R$  000000001122000000000112780000000011201000000001124900000000112780000000011270000000001127813013000000000000105261000000001184175891000000000000009999123100000010000000000000BRXPMLCTF000186
012024080712XPPR11      010FII XP PROP CI  ER       R$  000000000190000000000019140000000001870000000000189800000000019000000000001897000000000190000846000000000000008561000000000016254335000000000000009999123100000010000000000000BRXPPRCTF000157
012024080712XPSF11      010FII XP SELECCI  ER       R$  000000000073900000000007440000000000737000000000074000000000007440000000000743000000000074402692000000000000038522000000000028538371000000000000009999123100000010000000000000BRXPSFCTF009158
